{
  "_format": "hh-sol-artifact-1",
  "contractName": "Competition",
  "sourceName": "contracts/competition/Competition.sol",
  "abi": [
    {
      "inputs": [
        {
          "internalType": "uint256",
          "name": "_start",
          "type": "uint256"
        },
        {
          "internalType": "uint256",
          "name": "_end",
          "type": "uint256"
        },
        {
          "internalType": "uint256",
          "name": "_registrationStart",
          "type": "uint256"
        },
        {
          "internalType": "uint256",
          "name": "_registrationEnd",
          "type": "uint256"
        },
        {
          "internalType": "contract IReferralStorage",
          "name": "_referralStorage",
          "type": "address"
        }
      ],
      "stateMutability": "nonpayable",
      "type": "constructor"
    },
    {
      "inputs": [
        {
          "internalType": "address",
          "name": "memberAddress",
          "type": "address"
        }
      ],
      "name": "approveJoinRequest",
      "outputs": [],
      "stateMutability": "nonpayable",
      "type": "function"
    },
    {
      "inputs": [
        {
          "internalType": "address",
          "name": "leaderAddress",
          "type": "address"
        }
      ],
      "name": "createJoinRequest",
      "outputs": [],
      "stateMutability": "nonpayable",
      "type": "function"
    },
    {
      "inputs": [],
      "name": "end",
      "outputs": [
        {
          "internalType": "uint256",
          "name": "",
          "type": "uint256"
        }
      ],
      "stateMutability": "view",
      "type": "function"
    },
    {
      "inputs": [],
      "name": "getLeaders",
      "outputs": [
        {
          "internalType": "address[]",
          "name": "",
          "type": "address[]"
        }
      ],
      "stateMutability": "view",
      "type": "function"
    },
    {
      "inputs": [
        {
          "internalType": "address",
          "name": "memberAddr",
          "type": "address"
        }
      ],
      "name": "getMemberTeam",
      "outputs": [
        {
          "internalType": "address",
          "name": "",
          "type": "address"
        }
      ],
      "stateMutability": "view",
      "type": "function"
    },
    {
      "inputs": [
        {
          "internalType": "address",
          "name": "leaderAddr",
          "type": "address"
        }
      ],
      "name": "getTeam",
      "outputs": [
        {
          "internalType": "address",
          "name": "leader",
          "type": "address"
        },
        {
          "internalType": "string",
          "name": "name",
          "type": "string"
        },
        {
          "internalType": "bytes32",
          "name": "referral",
          "type": "bytes32"
        }
      ],
      "stateMutability": "view",
      "type": "function"
    },
    {
      "inputs": [
        {
          "internalType": "address",
          "name": "leaderAddr",
          "type": "address"
        }
      ],
      "name": "getTeamJoinRequests",
      "outputs": [
        {
          "internalType": "address[]",
          "name": "",
          "type": "address[]"
        }
      ],
      "stateMutability": "view",
      "type": "function"
    },
    {
      "inputs": [
        {
          "internalType": "address",
          "name": "leaderAddr",
          "type": "address"
        }
      ],
      "name": "getTeamMembers",
      "outputs": [
        {
          "internalType": "address[]",
          "name": "",
          "type": "address[]"
        }
      ],
      "stateMutability": "view",
      "type": "function"
    },
    {
      "inputs": [
        {
          "internalType": "string",
          "name": "name",
          "type": "string"
        },
        {
          "internalType": "bytes32",
          "name": "referral",
          "type": "bytes32"
        }
      ],
      "name": "registerTeam",
      "outputs": [],
      "stateMutability": "nonpayable",
      "type": "function"
    },
    {
      "inputs": [],
      "name": "registrationEnd",
      "outputs": [
        {
          "internalType": "uint256",
          "name": "",
          "type": "uint256"
        }
      ],
      "stateMutability": "view",
      "type": "function"
    },
    {
      "inputs": [],
      "name": "registrationStart",
      "outputs": [
        {
          "internalType": "uint256",
          "name": "",
          "type": "uint256"
        }
      ],
      "stateMutability": "view",
      "type": "function"
    },
    {
      "inputs": [],
      "name": "start",
      "outputs": [
        {
          "internalType": "uint256",
          "name": "",
          "type": "uint256"
        }
      ],
      "stateMutability": "view",
      "type": "function"
    }
  ],
  "bytecode": "0x608060405234801561001057600080fd5b5060405161121f38038061121f833981810160405260a081101561003357600080fd5b508051602082015160408301516060840151608090940151600093909355600191909155600255600391909155600480546001600160a01b039092166001600160a01b031990921691909117905561118f806100906000396000f3fe608060405234801561001057600080fd5b50600436106100a45760003560e01c8063129dfe81146100a957806313446a75146100eb5780632821a2dc1461010557806371b1dfaf1461017b57806387529f0f146101eb57806395e3b0cc146102a0578063b4062a31146102c6578063be9a6555146102ce578063dfb748aa146102d6578063e8abdb65146102fc578063ed33d1f314610304578063efbe1c1c1461032a575b600080fd5b6100cf600480360360208110156100bf57600080fd5b50356001600160a01b0316610332565b604080516001600160a01b039092168252519081900360200190f35b6100f3610350565b60408051918252519081900360200190f35b61012b6004803603602081101561011b57600080fd5b50356001600160a01b0316610356565b60408051602080825283518183015283519192839290830191858101910280838360005b8381101561016757818101518382015260200161014f565b505050509050019250505060405180910390f35b6101e96004803603604081101561019157600080fd5b810190602081018135600160201b8111156101ab57600080fd5b8201836020820111156101bd57600080fd5b803590602001918460018302840111600160201b831117156101de57600080fd5b919350915035610413565b005b6102116004803603602081101561020157600080fd5b50356001600160a01b03166106ee565b60405180846001600160a01b0316815260200180602001838152602001828103825284818151815260200191508051906020019080838360005b8381101561026357818101518382015260200161024b565b50505050905090810190601f1680156102905780820380516001836020036101000a031916815260200191505b5094505050505060405180910390f35b61012b600480360360208110156102b657600080fd5b50356001600160a01b03166108a9565b6100f3610922565b6100f3610928565b6101e9600480360360208110156102ec57600080fd5b50356001600160a01b031661092e565b61012b610bb4565b6101e96004803603602081101561031a57600080fd5b50356001600160a01b0316610c21565b6100f3610eef565b6001600160a01b039081166000908152600760205260409020541690565b60035481565b60608060005b6001600160a01b03841660009081526006602052604090206004015481101561040c576001600160a01b03841660009081526006602052604081206004018054839081106103a657fe5b60009182526020808320909101546001600160a01b0390811680845260079092526040909220549092501661040357808383815181106103e257fe5b60200260200101906001600160a01b031690816001600160a01b0316815250505b5060010161035c565b5092915050565b600254421015610458576040805162461bcd60e51b815260206004820152601f602482015260008051602061113a833981519152604482015290519081900360640190fd5b600354421061049c576040805162461bcd60e51b815260206004820152601760248201526000805160206110fa833981519152604482015290519081900360640190fd5b336000908152600660205260409020546001600160a01b0316156104f5576040805162461bcd60e51b815260206004820152601d60248201526000805160206110da833981519152604482015290519081900360640190fd5b60048054604080516306459e2360e51b8152928301849052516000926001600160a01b039092169163c8b3c460916024808301926020929190829003018186803b15801561054257600080fd5b505afa158015610556573d6000803e3d6000fd5b505050506040513d602081101561056c57600080fd5b50516001600160a01b031614156105ca576040805162461bcd60e51b815260206004820152601d60248201527f526566657272616c20636f646520646f6573206e6f742065786973742e000000604482015290519081900360640190fd5b600080546001600160a01b031916331781556105e860018585610ef5565b506002808201839055600382018054600181810183556000928352602080842090920180546001600160a01b03199081163390811790925590845260069092526040909220845481549092166001600160a01b039290921691909117815581840180548594929361066d93858201939291821615610100026000190190911604610f73565b5060028201548160020155600382018160030190805461068e929190610fe8565b50600482810180546106a39284019190610fe8565b5050600580546001810182556000919091527f036b6384b5eca791c62761152d0c79bb0604c104a5fb6f4eb0703f3154bb3db00180546001600160a01b031916331790555050505050565b6000606060006106fc611034565b6001600160a01b03858116600090815260066020908152604091829020825160a08101845281549094168452600180820180548551600261010094831615949094026000190190911692909204601f81018590048502830185019095528482529193858401939192918301828280156107b65780601f1061078b576101008083540402835291602001916107b6565b820191906000526020600020905b81548152906001019060200180831161079957829003601f168201915b50505050508152602001600282015481526020016003820180548060200260200160405190810160405280929190818152602001828054801561082257602002820191906000526020600020905b81546001600160a01b03168152600190910190602001808311610804575b505050505081526020016004820180548060200260200160405190810160405280929190818152602001828054801561088457602002820191906000526020600020905b81546001600160a01b03168152600190910190602001808311610866575b5050509190925250508151602083015160409093015190989297509550909350505050565b6001600160a01b03811660009081526006602090815260409182902060030180548351818402810184019094528084526060939283018282801561091657602002820191906000526020600020905b81546001600160a01b031681526001909101906020018083116108f8575b50505050509050919050565b60025481565b60005481565b600254421015610973576040805162461bcd60e51b815260206004820152601f602482015260008051602061113a833981519152604482015290519081900360640190fd5b60035442106109b7576040805162461bcd60e51b815260206004820152601760248201526000805160206110fa833981519152604482015290519081900360640190fd5b336000908152600760205260409020546001600160a01b031615610a10576040805162461bcd60e51b815260206004820152601d602482015260008051602061111a833981519152604482015290519081900360640190fd5b3360009081526008602090815260408083206001600160a01b038516845290915290205460ff1615610a86576040805162461bcd60e51b815260206004820152601a6024820152792a3434b99036b2b6b132b9103234b2103737ba1030b838363c9760311b604482015290519081900360640190fd5b6001600160a01b038181166000908152600760205260409020541615610add5760405162461bcd60e51b81526004018080602001828103825260228152602001806110966022913960400191505060405180910390fd5b60048054336000908152600660205260408082206002015481516356b4b2ad60e01b81526001600160a01b03878116968201969096526024810191909152905193909216926356b4b2ad92604480820193929182900301818387803b158015610b4557600080fd5b505af1158015610b59573d6000803e3d6000fd5b505033600081815260066020908152604080832060030180546001810182559084528284200180546001600160a01b031990811686179091556001600160a01b03979097168352600790915290208054909416179092555050565b60608060005b600554811015610c1b5760058181548110610bd157fe5b9060005260206000200160009054906101000a90046001600160a01b0316828281518110610bfb57fe5b6001600160a01b0390921660209283029190910190910152600101610bba565b50905090565b600254421015610c66576040805162461bcd60e51b815260206004820152601f602482015260008051602061113a833981519152604482015290519081900360640190fd5b6003544210610caa576040805162461bcd60e51b815260206004820152601760248201526000805160206110fa833981519152604482015290519081900360640190fd5b336000908152600660205260409020546001600160a01b031615610d03576040805162461bcd60e51b815260206004820152601d60248201526000805160206110da833981519152604482015290519081900360640190fd5b336000908152600760205260409020546001600160a01b031615610d5c576040805162461bcd60e51b815260206004820152601d602482015260008051602061111a833981519152604482015290519081900360640190fd5b336000908152600760205260409020546001600160a01b031615610dc7576040805162461bcd60e51b815260206004820152601e60248201527f596f752063616e2774206a6f696e206d756c7469706c65207465616d732e0000604482015290519081900360640190fd5b336000908152600660205260409020546001600160a01b0316610e2c576040805162461bcd60e51b81526020600482015260186024820152772a3432903a32b0b6903237b2b9903737ba1032bc34b9ba1760411b604482015290519081900360640190fd5b6001600160a01b038116600090815260086020908152604080832033845290915290205460ff1615610e8f5760405162461bcd60e51b81526004018080602001828103825260228152602001806110b86022913960400191505060405180910390fd5b6001600160a01b031660008181526006602090815260408083206004018054600181810183559185528385200180546001600160a01b0319163390811790915594845260088352818420948452939091529020805460ff19169091179055565b60015481565b828054600181600116156101000203166002900490600052602060002090601f016020900481019282601f10610f365782800160ff19823516178555610f63565b82800160010185558215610f63579182015b82811115610f63578235825591602001919060010190610f48565b50610f6f929150611061565b5090565b828054600181600116156101000203166002900490600052602060002090601f016020900481019282601f10610fac5780548555610f63565b82800160010185558215610f6357600052602060002091601f016020900482015b82811115610f63578254825591600101919060010190610fcd565b8280548282559060005260206000209081019282156110285760005260206000209182015b8281111561102857825482559160010191906001019061100d565b50610f6f929150611076565b6040805160a081018252600080825260606020830181905292820152818101829052608081019190915290565b5b80821115610f6f5760008155600101611062565b5b80821115610f6f5780546001600160a01b031916815560010161107756fe54686973206d656d62657220616c7265616479206a6f696e65642061207465616d2e596f7520616c7265616479206170706c69656420666f722074686973207465616d2e5465616d206c65616465727320617265206e6f7420616c6c6f7765642e000000526567697374726174696f6e20697320636c6f7365642e0000000000000000005465616d206d656d6265727320617265206e6f7420616c6c6f7765642e000000526567697374726174696f6e206973206e6f74206f70656e6564207965742e00a264697066735822122046406adf66fd6cce1943a60c0519210ec697c464a1624e8b10fd3212a4bd52bd64736f6c634300060c0033",
  "linkReferences": {},
  "deployedLinkReferences": {}
}