{
  "_format": "hh-sol-artifact-1",
  "contractName": "Competition",
  "sourceName": "contracts/competition/Competition.sol",
  "abi": [
    {
      "inputs": [
        {
          "internalType": "contract IReferralStorage",
          "name": "_referralStorage",
          "type": "address"
        }
      ],
      "stateMutability": "nonpayable",
      "type": "constructor"
    },
    {
      "anonymous": false,
      "inputs": [
        {
          "indexed": false,
          "internalType": "uint256",
          "name": "index",
          "type": "uint256"
        },
        {
          "indexed": false,
          "internalType": "uint256",
          "name": "start",
          "type": "uint256"
        },
        {
          "indexed": false,
          "internalType": "uint256",
          "name": "end",
          "type": "uint256"
        },
        {
          "indexed": false,
          "internalType": "uint256",
          "name": "maxTeamSize",
          "type": "uint256"
        }
      ],
      "name": "CompetitionCreated",
      "type": "event"
    },
    {
      "anonymous": false,
      "inputs": [
        {
          "indexed": false,
          "internalType": "uint256",
          "name": "index",
          "type": "uint256"
        }
      ],
      "name": "CompetitionRemoved",
      "type": "event"
    },
    {
      "anonymous": false,
      "inputs": [
        {
          "indexed": false,
          "internalType": "uint256",
          "name": "index",
          "type": "uint256"
        },
        {
          "indexed": false,
          "internalType": "uint256",
          "name": "start",
          "type": "uint256"
        },
        {
          "indexed": false,
          "internalType": "uint256",
          "name": "end",
          "type": "uint256"
        },
        {
          "indexed": false,
          "internalType": "uint256",
          "name": "maxTeamSize",
          "type": "uint256"
        }
      ],
      "name": "CompetitionUpdated",
      "type": "event"
    },
    {
      "anonymous": false,
      "inputs": [
        {
          "indexed": false,
          "internalType": "uint256",
          "name": "index",
          "type": "uint256"
        },
        {
          "indexed": false,
          "internalType": "address",
          "name": "member",
          "type": "address"
        },
        {
          "indexed": false,
          "internalType": "address",
          "name": "leader",
          "type": "address"
        }
      ],
      "name": "JoinRequestApproved",
      "type": "event"
    },
    {
      "anonymous": false,
      "inputs": [
        {
          "indexed": false,
          "internalType": "uint256",
          "name": "index",
          "type": "uint256"
        },
        {
          "indexed": false,
          "internalType": "address",
          "name": "member",
          "type": "address"
        }
      ],
      "name": "JoinRequestCanceled",
      "type": "event"
    },
    {
      "anonymous": false,
      "inputs": [
        {
          "indexed": false,
          "internalType": "uint256",
          "name": "index",
          "type": "uint256"
        },
        {
          "indexed": false,
          "internalType": "address",
          "name": "member",
          "type": "address"
        },
        {
          "indexed": false,
          "internalType": "address",
          "name": "leader",
          "type": "address"
        },
        {
          "indexed": false,
          "internalType": "bytes32",
          "name": "referralCode",
          "type": "bytes32"
        }
      ],
      "name": "JoinRequestCreated",
      "type": "event"
    },
    {
      "anonymous": false,
      "inputs": [
        {
          "indexed": false,
          "internalType": "uint256",
          "name": "index",
          "type": "uint256"
        },
        {
          "indexed": false,
          "internalType": "address",
          "name": "leader",
          "type": "address"
        },
        {
          "indexed": false,
          "internalType": "address",
          "name": "member",
          "type": "address"
        }
      ],
      "name": "MemberRemoved",
      "type": "event"
    },
    {
      "anonymous": false,
      "inputs": [
        {
          "indexed": false,
          "internalType": "uint256",
          "name": "index",
          "type": "uint256"
        },
        {
          "indexed": false,
          "internalType": "address",
          "name": "leader",
          "type": "address"
        },
        {
          "indexed": false,
          "internalType": "string",
          "name": "name",
          "type": "string"
        }
      ],
      "name": "TeamCreated",
      "type": "event"
    },
    {
      "inputs": [
        {
          "internalType": "uint256",
          "name": "competitionIndex",
          "type": "uint256"
        },
        {
          "internalType": "address[]",
          "name": "memberAddresses",
          "type": "address[]"
        }
      ],
      "name": "approveJoinRequest",
      "outputs": [],
      "stateMutability": "nonpayable",
      "type": "function"
    },
    {
      "inputs": [
        {
          "internalType": "uint256",
          "name": "competitionIndex",
          "type": "uint256"
        }
      ],
      "name": "cancelJoinRequest",
      "outputs": [],
      "stateMutability": "nonpayable",
      "type": "function"
    },
    {
      "inputs": [
        {
          "internalType": "uint256",
          "name": "",
          "type": "uint256"
        }
      ],
      "name": "competitions",
      "outputs": [
        {
          "internalType": "uint256",
          "name": "start",
          "type": "uint256"
        },
        {
          "internalType": "uint256",
          "name": "end",
          "type": "uint256"
        },
        {
          "internalType": "uint256",
          "name": "maxTeamSize",
          "type": "uint256"
        }
      ],
      "stateMutability": "view",
      "type": "function"
    },
    {
      "inputs": [
        {
          "internalType": "uint256",
          "name": "start",
          "type": "uint256"
        },
        {
          "internalType": "uint256",
          "name": "end",
          "type": "uint256"
        },
        {
          "internalType": "uint256",
          "name": "maxTeamSize",
          "type": "uint256"
        }
      ],
      "name": "createCompetition",
      "outputs": [],
      "stateMutability": "nonpayable",
      "type": "function"
    },
    {
      "inputs": [
        {
          "internalType": "uint256",
          "name": "competitionIndex",
          "type": "uint256"
        },
        {
          "internalType": "address",
          "name": "leaderAddress",
          "type": "address"
        },
        {
          "internalType": "bytes32",
          "name": "referralCode",
          "type": "bytes32"
        }
      ],
      "name": "createJoinRequest",
      "outputs": [],
      "stateMutability": "nonpayable",
      "type": "function"
    },
    {
      "inputs": [
        {
          "internalType": "uint256",
          "name": "competitionIndex",
          "type": "uint256"
        },
        {
          "internalType": "string",
          "name": "name",
          "type": "string"
        }
      ],
      "name": "createTeam",
      "outputs": [],
      "stateMutability": "nonpayable",
      "type": "function"
    },
    {
      "inputs": [
        {
          "internalType": "uint256",
          "name": "competitionIndex",
          "type": "uint256"
        },
        {
          "internalType": "address",
          "name": "memberAddress",
          "type": "address"
        }
      ],
      "name": "getJoinRequest",
      "outputs": [
        {
          "internalType": "address",
          "name": "leaderAddress",
          "type": "address"
        }
      ],
      "stateMutability": "view",
      "type": "function"
    },
    {
      "inputs": [
        {
          "internalType": "uint256",
          "name": "competitionIndex",
          "type": "uint256"
        },
        {
          "internalType": "address",
          "name": "memberAddress",
          "type": "address"
        }
      ],
      "name": "getMemberTeam",
      "outputs": [
        {
          "internalType": "address",
          "name": "leaderAddress",
          "type": "address"
        }
      ],
      "stateMutability": "view",
      "type": "function"
    },
    {
      "inputs": [
        {
          "internalType": "uint256",
          "name": "competitionIndex",
          "type": "uint256"
        },
        {
          "internalType": "address",
          "name": "_leaderAddress",
          "type": "address"
        }
      ],
      "name": "getTeam",
      "outputs": [
        {
          "internalType": "address",
          "name": "leaderAddress",
          "type": "address"
        },
        {
          "internalType": "string",
          "name": "name",
          "type": "string"
        }
      ],
      "stateMutability": "view",
      "type": "function"
    },
    {
      "inputs": [
        {
          "internalType": "uint256",
          "name": "competitionIndex",
          "type": "uint256"
        },
        {
          "internalType": "address",
          "name": "leaderAddress",
          "type": "address"
        },
        {
          "internalType": "uint256",
          "name": "start",
          "type": "uint256"
        },
        {
          "internalType": "uint256",
          "name": "offset",
          "type": "uint256"
        }
      ],
      "name": "getTeamMembers",
      "outputs": [
        {
          "internalType": "address[]",
          "name": "members",
          "type": "address[]"
        }
      ],
      "stateMutability": "view",
      "type": "function"
    },
    {
      "inputs": [],
      "name": "gov",
      "outputs": [
        {
          "internalType": "address",
          "name": "",
          "type": "address"
        }
      ],
      "stateMutability": "view",
      "type": "function"
    },
    {
      "inputs": [],
      "name": "referralStorage",
      "outputs": [
        {
          "internalType": "contract IReferralStorage",
          "name": "",
          "type": "address"
        }
      ],
      "stateMutability": "view",
      "type": "function"
    },
    {
      "inputs": [
        {
          "internalType": "uint256",
          "name": "index",
          "type": "uint256"
        }
      ],
      "name": "removeCompetition",
      "outputs": [],
      "stateMutability": "nonpayable",
      "type": "function"
    },
    {
      "inputs": [
        {
          "internalType": "uint256",
          "name": "competitionIndex",
          "type": "uint256"
        },
        {
          "internalType": "address",
          "name": "leaderAddress",
          "type": "address"
        },
        {
          "internalType": "address",
          "name": "memberAddress",
          "type": "address"
        }
      ],
      "name": "removeMember",
      "outputs": [],
      "stateMutability": "nonpayable",
      "type": "function"
    },
    {
      "inputs": [
        {
          "internalType": "address",
          "name": "_gov",
          "type": "address"
        }
      ],
      "name": "setGov",
      "outputs": [],
      "stateMutability": "nonpayable",
      "type": "function"
    },
    {
      "inputs": [
        {
          "internalType": "uint256",
          "name": "index",
          "type": "uint256"
        },
        {
          "internalType": "uint256",
          "name": "start",
          "type": "uint256"
        },
        {
          "internalType": "uint256",
          "name": "end",
          "type": "uint256"
        },
        {
          "internalType": "uint256",
          "name": "maxTeamSize",
          "type": "uint256"
        }
      ],
      "name": "updateCompetition",
      "outputs": [],
      "stateMutability": "nonpayable",
      "type": "function"
    },
    {
      "inputs": [
        {
          "internalType": "uint256",
          "name": "competitionIndex",
          "type": "uint256"
        },
        {
          "internalType": "string",
          "name": "name",
          "type": "string"
        }
      ],
      "name": "validateName",
      "outputs": [
        {
          "internalType": "bool",
          "name": "isValid",
          "type": "bool"
        }
      ],
      "stateMutability": "view",
      "type": "function"
    }
  ],
  "bytecode": "0x608060405234801561001057600080fd5b50604051611f5e380380611f5e8339818101604052602081101561003357600080fd5b5051600080546001600160a01b03199081163317909155600280546001600160a01b0390931692909116919091179055611eec806100726000396000f3fe608060405234801561001057600080fd5b50600436106100da5760003560e01c80626cc35e146100df57806312d43a51146101035780633173a8281461010b57806345d294d61461014157806356c768c6146101705780637098c5b2146101995780637c637dde1461020e578063829701ef1461029757806389ef67bb1461030c57806394c8359a146103295780639f6828d914610355578063a6de0b2b14610390578063b60ef65c14610444578063beac412214610470578063c5c4bdcc146104f8578063cfad57a214610515578063f8137abc1461053b575b600080fd5b6100e761056d565b604080516001600160a01b039092168252519081900360200190f35b6100e761057c565b61013f6004803603606081101561012157600080fd5b508035906001600160a01b036020820135811691604001351661058b565b005b61013f6004803603608081101561015757600080fd5b508035906020810135906040810135906060013561085e565b61013f6004803603606081101561018657600080fd5b50803590602081013590604001356109c0565b61013f600480360360408110156101af57600080fd5b81359190810190604081016020820135600160201b8111156101d057600080fd5b8201836020820111156101e257600080fd5b803590602001918460018302840111600160201b8311171561020357600080fd5b509092509050610b0d565b6102836004803603604081101561022457600080fd5b81359190810190604081016020820135600160201b81111561024557600080fd5b82018360208201111561025757600080fd5b803590602001918460018302840111600160201b8311171561027857600080fd5b509092509050610d9b565b604080519115158252519081900360200190f35b61013f600480360360408110156102ad57600080fd5b81359190810190604081016020820135600160201b8111156102ce57600080fd5b8201836020820111156102e057600080fd5b803590602001918460208302840111600160201b8311171561030157600080fd5b509092509050610ded565b61013f6004803603602081101561032257600080fd5b5035611117565b6100e76004803603604081101561033f57600080fd5b50803590602001356001600160a01b0316611294565b6103726004803603602081101561036b57600080fd5b50356112d6565b60408051938452602084019290925282820152519081900360600190f35b6103bc600480360360408110156103a657600080fd5b50803590602001356001600160a01b0316611306565b60405180836001600160a01b0316815260200180602001828103825283818151815260200191508051906020019080838360005b838110156104085781810151838201526020016103f0565b50505050905090810190601f1680156104355780820380516001836020036101000a031916815260200191505b50935050505060405180910390f35b6100e76004803603604081101561045a57600080fd5b50803590602001356001600160a01b0316611469565b6104a86004803603608081101561048657600080fd5b508035906001600160a01b0360208201351690604081013590606001356114ab565b60408051602080825283518183015283519192839290830191858101910280838360005b838110156104e45781810151838201526020016104cc565b505050509050019250505060405180910390f35b61013f6004803603602081101561050e57600080fd5b50356115e3565b61013f6004803603602081101561052b57600080fd5b50356001600160a01b03166116c7565b61013f6004803603606081101561055157600080fd5b508035906001600160a01b036020820135169060400135611736565b6002546001600160a01b031681565b6000546001600160a01b031681565b82426001828154811061059a57fe5b906000526020600020906008020160000154116105e85760405162461bcd60e51b8152600401808060200182810382526024815260200180611e936024913960400191505060405180910390fd5b6000600185815481106105f757fe5b600091825260208083206001600160a01b0387811685526008939093020160058101909152604090922054919250339116148061063c57506001600160a01b03831633145b6106775760405162461bcd60e51b8152600401808060200182810382526037815260200180611c366037913960400191505060405180910390fd5b6001600160a01b03841660009081526003820160209081526040918290206002018054835181840281018401909452808452606093928301828280156106e657602002820191906000526020600020905b81546001600160a01b031681526001909101906020018083116106c8575b50505050509050606060018251036001600160401b038111801561070957600080fd5b50604051908082528060200260200182016040528015610733578160200160208202803683370190505b50905060005b82518110156107b757856001600160a01b031683828151811061075857fe5b60200260200101516001600160a01b0316146107af5782818151811061077a57fe5b602002602001015182828151811061078e57fe5b60200260200101906001600160a01b031690816001600160a01b0316815250505b600101610739565b506001600160a01b0386166000908152600384016020908152604090912082516107e992600290920191840190611af8565b506001600160a01b03808616600081815260058601602090815260409182902080546001600160a01b031916905581518b8152938a169084015282810191909152517f3351489111c9c9e2f87e2f2f53b40d1a5f601f1bfb2dd217558e59f78c1aae869181900360600190a150505050505050565b6000546001600160a01b031633146108ab576040805162461bcd60e51b81526020600482015260156024820152600080516020611c6d833981519152604482015290519081900360640190fd5b6001548490811080156108dc57506000600182815481106108c857fe5b906000526020600020906008020160000154115b6109175760405162461bcd60e51b815260040180806020018281038252602c815260200180611d69602c913960400191505060405180910390fd5b610922848484611a38565b6040518060600160405280858152602001848152602001838152506001868154811061094a57fe5b6000918252602091829020835160089092020190815582820151600182015560409283015160029091015581518781529081018690528082018590526060810184905290517f69fca61e9eafdd84a72872cbc9a4d477f534f1808ae0a765c4d48436d0793d659181900360800190a15050505050565b6000546001600160a01b03163314610a0d576040805162461bcd60e51b81526020600482015260156024820152600080516020611c6d833981519152604482015290519081900360640190fd5b610a18838383611a38565b60408051606080820183528582526020808301868152838501868152600180548082018255600082905295517fb10e2d527612073b26eecdfd717e6a320cf44b4afac2b0732d9fcbe2b7fa0cf660089097029687015591517fb10e2d527612073b26eecdfd717e6a320cf44b4afac2b0732d9fcbe2b7fa0cf7860155517fb10e2d527612073b26eecdfd717e6a320cf44b4afac2b0732d9fcbe2b7fa0cf89094019390935591548351600019919091018152918201869052818301859052810183905290517f8ebbd2d736e5886e239720c0230f8c2411fc3e86dea4d799c4222407fb792820916080908290030190a1505050565b824260018281548110610b1c57fe5b90600052602060002090600802016000015411610b6a5760405162461bcd60e51b8152600401808060200182810382526024815260200180611e936024913960400191505060405180910390fd5b8360006001600160a01b031660018281548110610b8357fe5b60009182526020808320338452600560089093020191909101905260409020546001600160a01b031614610be85760405162461bcd60e51b815260040180806020018281038252602a815260200180611e3b602a913960400191505060405180910390fd5b600060018681548110610bf757fe5b9060005260206000209060080201905080600401858560405180838380828437919091019485525050604051928390036020019092205460ff16159150610c7190505760405162461bcd60e51b815260040180806020018281038252602a815260200180611d1a602a913960400191505060405180910390fd5b336000818152600383016020526040902080546001600160a01b0319169091178155610ca1600182018787611b5d565b5060028101805460018181018355600092835260209092200180546001600160a01b03191633179055604051600484019088908890808383808284379190910194855250506040805160209481900385018120805460ff19169615159690961790955533600081815260058901865282902080546001600160a01b031916821790558c865293850184905260609085018181529085018a90527f6234bdec342a93b375f87c2781bc487af9650132ce5b54a1e07c9696eb03eec1948c9493508b92508a9160808201848480828437600083820152604051601f909101601f191690920182900397509095505050505050a150505050505050565b600060018481548110610daa57fe5b9060005260206000209060080201600401838360405180838380828437919091019485525050604051928390036020019092205460ff1615925050509392505050565b824260018281548110610dfc57fe5b90600052602060002090600802016000015411610e4a5760405162461bcd60e51b8152600401808060200182810382526024815260200180611e936024913960400191505060405180910390fd5b600060018581548110610e5957fe5b9060005260206000209060080201905060005b8381101561110f576000858583818110610e8257fe5b6001600160a01b0360209182029390930135831660008181526006880190925260409091205490935090911633149050610eed5760405162461bcd60e51b8152600401808060200182810382526022815260200180611dc06022913960400191505060405180910390fd5b6001600160a01b0381811660009081526005850160205260409020541615610f465760405162461bcd60e51b815260040180806020018281038252602a815260200180611cf0602a913960400191505060405180910390fd5b60028084015433600090815260038601602052604090209091015410610fb0576040805162461bcd60e51b815260206004820152601a60248201527921b7b6b832ba34ba34b7b71d102a32b0b69034b990333ab6361760311b604482015290519081900360640190fd5b6001600160a01b038116600090815260078401602090815260408083203384529091529020541561105f576002546001600160a01b03828116600081815260078701602090815260408083203384529091528082205481516356b4b2ad60e01b8152600481019490945260248401525192909316926356b4b2ad9260448084019382900301818387803b15801561104657600080fd5b505af115801561105a573d6000803e3d6000fd5b505050505b336000818152600385016020908152604080832060020180546001810182559084528284200180546001600160a01b0387166001600160a01b03199182168117909255818552600589018452828520805482168717905560068901845293829020805490941690935580518b81529182019290925280820192909252517f2c7c54ab954ba8ce4a075a57f55b79eb7d164affa158d97120fa4d5eafba1bde9181900360600190a150600101610e6c565b505050505050565b6000546001600160a01b03163314611164576040805162461bcd60e51b81526020600482015260156024820152600080516020611c6d833981519152604482015290519081900360640190fd5b600154819081108015611195575060006001828154811061118157fe5b906000526020600020906008020160000154115b6111d05760405162461bcd60e51b815260040180806020018281038252602c815260200180611d69602c913960400191505060405180910390fd5b42600183815481106111de57fe5b9060005260206000209060080201600001541161122c5760405162461bcd60e51b8152600401808060200182810382526023815260200180611de26023913960400191505060405180910390fd5b6001828154811061123957fe5b60009182526020808320600890920290910182815560018101839055600201919091556040805184815290517fd1b60ff9e9ad13834920b066fba93a39b6b0892906b619f0f46c2e7028707f25929181900390910190a15050565b6000600183815481106112a357fe5b600091825260208083206001600160a01b0395861684526008929092029091016006019052604090205490911692915050565b600181815481106112e357fe5b600091825260209091206008909102018054600182015460029092015490925083565b60006060611312611bd7565b6001858154811061131f57fe5b600091825260208083206001600160a01b038881168552600893909302016003018152604092839020835160608101855281549093168352600180820180548651600261010094831615949094026000190190911692909204601f81018590048502830185019096528582529394919385840193919290918301828280156113e85780601f106113bd576101008083540402835291602001916113e8565b820191906000526020600020905b8154815290600101906020018083116113cb57829003601f168201915b505050505081526020016002820180548060200260200160405190810160405280929190818152602001828054801561144a57602002820191906000526020600020905b81546001600160a01b0316815260019091019060200180831161142c575b5050509190925250508151602090920151919791965090945050505050565b60006001838154811061147857fe5b600091825260208083206001600160a01b0395861684526008929092029091016005019052604090205490911692915050565b606080600186815481106114bb57fe5b600091825260208083206001600160a01b038916845260036008909302019190910181526040918290206002018054835181840281018401909452808452909183018282801561153457602002820191906000526020600020905b81546001600160a01b03168152600190910190602001808311611516575b505050505090506060836001600160401b038111801561155357600080fd5b5060405190808252806020026020018201604052801561157d578160200160208202803683370190505b509050845b848601811080156115935750825181105b156115d8578281815181106115a457fe5b60200260200101518282815181106115b857fe5b6001600160a01b0390921660209283029190910190910152600101611582565b509695505050505050565b8042600182815481106115f257fe5b906000526020600020906008020160000154116116405760405162461bcd60e51b8152600401808060200182810382526024815260200180611e936024913960400191505060405180910390fd5b60006001838154811061164f57fe5b600091825260208083203380855260089390930201600601815260409283902080546001600160a01b0319166001600160a01b03959095169490941790935581518581529283015280517f8a45f3cf3e89b35d84848829f98df4116c9eb61b62e5a55deb921a6e97220f6f9281900390910190a15050565b6000546001600160a01b03163314611714576040805162461bcd60e51b81526020600482015260156024820152600080516020611c6d833981519152604482015290519081900360640190fd5b600080546001600160a01b0319166001600160a01b0392909216919091179055565b82426001828154811061174557fe5b906000526020600020906008020160000154116117935760405162461bcd60e51b8152600401808060200182810382526024815260200180611e936024913960400191505060405180910390fd5b8360006001600160a01b0316600182815481106117ac57fe5b60009182526020808320338452600560089093020191909101905260409020546001600160a01b0316146118115760405162461bcd60e51b815260040180806020018281038252602a815260200180611e3b602a913960400191505060405180910390fd5b60006001868154811061182057fe5b60009182526020808320338452600560089093020191820190526040909120549091506001600160a01b0316156118885760405162461bcd60e51b815260040180806020018281038252602b815260200180611d95602b913960400191505060405180910390fd5b6001600160a01b038581166000908152600383016020526040902054166118e05760405162461bcd60e51b8152600401808060200182810382526025815260200180611d446025913960400191505060405180910390fd5b83156119a457600254604080516306459e2360e51b81526004810187905290516000926001600160a01b03169163c8b3c460916024808301926020929190829003018186803b15801561193257600080fd5b505afa158015611946573d6000803e3d6000fd5b505050506040513d602081101561195c57600080fd5b50516001600160a01b031614156119a45760405162461bcd60e51b815260040180806020018281038252602e815260200180611cc2602e913960400191505060405180910390fd5b336000818152600683016020908152604080832080546001600160a01b038b166001600160a01b0319909116811790915560078601835281842081855283529281902088905580518a815291820193909352808301919091526060810186905290517f4b0c04f22268d2a3fbbfb86b17f8e0d4921520f417d3650500cf1b7f9b2f368f9181900360800190a1505050505050565b428311611a765760405162461bcd60e51b815260040180806020018281038252602e815260200180611e65602e913960400191505060405180910390fd5b828211611ab45760405162461bcd60e51b8152600401808060200182810382526036815260200180611e056036913960400191505060405180910390fd5b60008111611af35760405162461bcd60e51b8152600401808060200182810382526035815260200180611c8d6035913960400191505060405180910390fd5b505050565b828054828255906000526020600020908101928215611b4d579160200282015b82811115611b4d57825182546001600160a01b0319166001600160a01b03909116178255602090920191600190910190611b18565b50611b59929150611c01565b5090565b828054600181600116156101000203166002900490600052602060002090601f016020900481019282601f10611b9e5782800160ff19823516178555611bcb565b82800160010185558215611bcb579182015b82811115611bcb578235825591602001919060010190611bb0565b50611b59929150611c20565b604051806060016040528060006001600160a01b0316815260200160608152602001606081525090565b5b80821115611b595780546001600160a01b0319168155600101611c02565b5b80821115611b595760008155600101611c2156fe436f6d7065746974696f6e3a20596f7520617265206e6f7420616c6c6f77656420746f2072656d6f76652074686973206d656d6265722e476f7665726e61626c653a20666f7262696464656e0000000000000000000000436f6d7065746974696f6e3a204d6178207465616d2073697a65206d7573742062652067726561746572207468616e207a65726f2e436f6d7065746974696f6e3a2054686520726566657272616c20636f646520646f6573206e6f742065786973742e436f6d7065746974696f6e3a204d656d62657220616c7265616479206a6f696e65642061207465616d2e436f6d7065746974696f6e3a205465616d206e616d6520616c726561647920726567697374657265642e436f6d7065746974696f6e3a20546865207465616d20646f6573206e6f742065786973742e436f6d7065746974696f6e3a2054686520636f6d7065746974696f6e20646f6573206e6f742065786973742e436f6d7065746974696f6e3a20596f752063616e2774206a6f696e206d756c7469706c65207465616d732e436f6d7065746974696f6e3a204d656d62657220646964206e6f74206170706c792e436f6d7065746974696f6e3a20436f6d7065746974696f6e206973206163746976652e436f6d7065746974696f6e3a20456e642074696d65206d7573742062652067726561746572207468616e2073746172742074696d652e436f6d7065746974696f6e3a205465616d206d656d6265727320617265206e6f7420616c6c6f7765642e436f6d7065746974696f6e3a2053746172742074696d65206d75737420626520696e20746865206675747572652e436f6d7065746974696f6e3a20526567697374726174696f6e20697320636c6f7365642ea26469706673582212209ed8d4e2c702a5c443a7fd4c3429381f895a0eb5800fc7988b4e9b1383fcf5ad64736f6c634300060c0033",
  "linkReferences": {},
  "deployedLinkReferences": {}
}