{
  "_format": "hh-sol-artifact-1",
  "contractName": "CompetitionRegistration",
  "sourceName": "contracts/competition/CompetitionRegistration.sol",
  "abi": [
    {
      "inputs": [
        {
          "internalType": "uint256",
          "name": "start",
          "type": "uint256"
        },
        {
          "internalType": "uint256",
          "name": "end",
          "type": "uint256"
        },
        {
          "internalType": "address",
          "name": "_referralStorage",
          "type": "address"
        }
      ],
      "stateMutability": "nonpayable",
      "type": "constructor"
    },
    {
      "inputs": [
        {
          "internalType": "address",
          "name": "memberAddress",
          "type": "address"
        }
      ],
      "name": "approveJoinRequest",
      "outputs": [],
      "stateMutability": "nonpayable",
      "type": "function"
    },
    {
      "inputs": [
        {
          "internalType": "address",
          "name": "leaderAddress",
          "type": "address"
        }
      ],
      "name": "createJoinRequest",
      "outputs": [],
      "stateMutability": "nonpayable",
      "type": "function"
    },
    {
      "inputs": [],
      "name": "endTime",
      "outputs": [
        {
          "internalType": "uint256",
          "name": "",
          "type": "uint256"
        }
      ],
      "stateMutability": "view",
      "type": "function"
    },
    {
      "inputs": [
        {
          "internalType": "address",
          "name": "",
          "type": "address"
        },
        {
          "internalType": "uint256",
          "name": "",
          "type": "uint256"
        }
      ],
      "name": "getJoinRequests",
      "outputs": [
        {
          "internalType": "address",
          "name": "",
          "type": "address"
        }
      ],
      "stateMutability": "view",
      "type": "function"
    },
    {
      "inputs": [
        {
          "internalType": "address",
          "name": "",
          "type": "address"
        }
      ],
      "name": "getMemberTeam",
      "outputs": [
        {
          "internalType": "address",
          "name": "",
          "type": "address"
        }
      ],
      "stateMutability": "view",
      "type": "function"
    },
    {
      "inputs": [
        {
          "internalType": "address",
          "name": "",
          "type": "address"
        }
      ],
      "name": "getTeam",
      "outputs": [
        {
          "internalType": "address",
          "name": "leader",
          "type": "address"
        },
        {
          "internalType": "string",
          "name": "name",
          "type": "string"
        },
        {
          "internalType": "bytes32",
          "name": "referralCode",
          "type": "bytes32"
        }
      ],
      "stateMutability": "view",
      "type": "function"
    },
    {
      "inputs": [
        {
          "internalType": "address",
          "name": "",
          "type": "address"
        },
        {
          "internalType": "uint256",
          "name": "",
          "type": "uint256"
        }
      ],
      "name": "getTeamMembers",
      "outputs": [
        {
          "internalType": "address",
          "name": "",
          "type": "address"
        }
      ],
      "stateMutability": "view",
      "type": "function"
    },
    {
      "inputs": [
        {
          "internalType": "uint256",
          "name": "",
          "type": "uint256"
        }
      ],
      "name": "getTeams",
      "outputs": [
        {
          "internalType": "address",
          "name": "leader",
          "type": "address"
        },
        {
          "internalType": "string",
          "name": "name",
          "type": "string"
        },
        {
          "internalType": "bytes32",
          "name": "referralCode",
          "type": "bytes32"
        }
      ],
      "stateMutability": "view",
      "type": "function"
    },
    {
      "inputs": [
        {
          "internalType": "string",
          "name": "name",
          "type": "string"
        },
        {
          "internalType": "bytes32",
          "name": "referralCode",
          "type": "bytes32"
        }
      ],
      "name": "register",
      "outputs": [],
      "stateMutability": "nonpayable",
      "type": "function"
    },
    {
      "inputs": [],
      "name": "startTime",
      "outputs": [
        {
          "internalType": "uint256",
          "name": "",
          "type": "uint256"
        }
      ],
      "stateMutability": "view",
      "type": "function"
    }
  ],
  "bytecode": "0x608060405234801561001057600080fd5b50604051610e5f380380610e5f8339818101604052606081101561003357600080fd5b5080516020820151604090920151600091909155600191909155600280546001600160a01b039092166001600160a01b0319909216919091179055610de28061007d6000396000f3fe608060405234801561001057600080fd5b506004361061008e5760003560e01c806311c8fb5e14610093578063129dfe81146100db5780633197cbb614610101578063656afdee1461011b57806378e979251461018b57806387529f0f14610193578063bb2150d114610248578063dfb748aa14610274578063ed33d1f31461029a578063f6c8d8de146102c0575b600080fd5b6100bf600480360360408110156100a957600080fd5b506001600160a01b0381351690602001356102dd565b604080516001600160a01b039092168252519081900360200190f35b6100bf600480360360208110156100f157600080fd5b50356001600160a01b0316610312565b61010961032d565b60408051918252519081900360200190f35b6101896004803603604081101561013157600080fd5b810190602081018135600160201b81111561014b57600080fd5b82018360208201111561015d57600080fd5b803590602001918460018302840111600160201b8311171561017e57600080fd5b919350915035610333565b005b6101096106eb565b6101b9600480360360208110156101a957600080fd5b50356001600160a01b03166106f1565b60405180846001600160a01b0316815260200180602001838152602001828103825284818151815260200191508051906020019080838360005b8381101561020b5781810151838201526020016101f3565b50505050905090810190601f1680156102385780820380516001836020036101000a031916815260200191505b5094505050505060405180910390f35b6100bf6004803603604081101561025e57600080fd5b506001600160a01b0381351690602001356107ab565b6101896004803603602081101561028a57600080fd5b50356001600160a01b03166107c4565b610189600480360360208110156102b057600080fd5b50356001600160a01b031661097d565b6101b9600480360360208110156102d657600080fd5b5035610b7c565b600660205281600052604060002081815481106102f657fe5b6000918252602090912001546001600160a01b03169150829050565b6005602052600090815260409020546001600160a01b031681565b60015481565b4260005411156103745760405162461bcd60e51b815260040180806020018281038252602a815260200180610d14602a913960400191505060405180910390fd5b42600154116103b45760405162461bcd60e51b8152600401808060200182810382526022815260200180610d666022913960400191505060405180910390fd5b336000908152600360205260409020546001600160a01b031615610419576040805162461bcd60e51b8152602060048201526017602482015276796f7520616c726561647920686176652061207465616d60481b604482015290519081900360640190fd5b336000908152600560205260409020546001600160a01b03161561046e5760405162461bcd60e51b8152600401808060200182810382526025815260200180610d886025913960400191505060405180910390fd5b600254604080516306459e2360e51b815260048101849052905133926001600160a01b03169163c8b3c460916024808301926020929190829003018186803b1580156104b957600080fd5b505afa1580156104cd573d6000803e3d6000fd5b505050506040513d60208110156104e357600080fd5b50516001600160a01b031614610540576040805162461bcd60e51b815260206004820152601e60248201527f796f75206d757374206f776e2074686520726566657272616c20636f64650000604482015290519081900360640190fd5b6040518060600160405280336001600160a01b0316815260200184848080601f016020809104026020016040519081016040528093929190818152602001838380828437600092018290525093855250505060209182018490523381526003825260409020825181546001600160a01b0319166001600160a01b0390911617815582820151805191926105db92600185019290910190610c0b565b50604091820151600291820155336000908152600360208190529281206004805460018181018355919093528154929094027f8a35acfbc15ff81a39ae7d344fd709f28e8600b4aa8c65c6b64bfe7fe36bd19b810180546001600160a01b0319166001600160a01b0394909416939093178355848201805492959394610696947f8a35acfbc15ff81a39ae7d344fd709f28e8600b4aa8c65c6b64bfe7fe36bd19c909301939192821615610100026000190190911604610c89565b50600291820154910155505033600081815260056020908152604080832080546001600160a01b0319908116861790915560068352908320805460018101825590845291909220018054909116909117905550565b60005481565b6003602090815260009182526040918290208054600180830180548651600261010094831615949094026000190190911692909204601f81018690048602830186019096528582526001600160a01b0390921694929390929083018282801561079b5780601f106107705761010080835404028352916020019161079b565b820191906000526020600020905b81548152906001019060200180831161077e57829003601f168201915b5050505050908060020154905083565b600860205281600052604060002081815481106102f657fe5b4260005411156108055760405162461bcd60e51b815260040180806020018281038252602a815260200180610d14602a913960400191505060405180910390fd5b42600154116108455760405162461bcd60e51b8152600401808060200182810382526022815260200180610d666022913960400191505060405180910390fd5b3360009081526007602090815260408083206001600160a01b038516845290915290205460ff166108bd576040805162461bcd60e51b815260206004820181905260248201527f6e6f206a6f696e207265717565737420666f7220746869732061646472657373604482015290519081900360640190fd5b6001600160a01b038181166000908152600560205260409020541615610929576040805162461bcd60e51b815260206004820152601c60248201527b6d656d62657220616c7265616479206a6f696e65642061207465616d60201b604482015290519081900360640190fd5b6001600160a01b031660008181526005602090815260408083208054336001600160a01b03199182168117909255908452600683529083208054600181018255908452919092200180549091169091179055565b4260005411156109be5760405162461bcd60e51b815260040180806020018281038252602a815260200180610d14602a913960400191505060405180910390fd5b42600154116109fe5760405162461bcd60e51b8152600401808060200182810382526022815260200180610d666022913960400191505060405180910390fd5b6001600160a01b0380821660008181526003602052604090205490911614610a63576040805162461bcd60e51b81526020600482015260136024820152721d19585b48191bd95cc81b9bdd08195e1a5cdd606a1b604482015290519081900360640190fd5b336000908152600360205260409020546001600160a01b031615610ab85760405162461bcd60e51b8152600401808060200182810382526028815260200180610d3e6028913960400191505060405180910390fd5b336000908152600560205260409020546001600160a01b031615610b1f576040805162461bcd60e51b8152602060048201526019602482015278796f7520616c7265616479206a6f696e65642061207465616d60381b604482015290519081900360640190fd5b6001600160a01b0316600081815260076020908152604080832033808552908352818420805460ff1916600190811790915594845260088352908320805494850181558352912090910180546001600160a01b0319169091179055565b60048181548110610b8957fe5b600091825260209182902060039091020180546001808301805460408051601f60026000199685161561010002969096019093169490940491820187900487028401870190528083526001600160a01b03909316955092939092919083018282801561079b5780601f106107705761010080835404028352916020019161079b565b828054600181600116156101000203166002900490600052602060002090601f016020900481019282601f10610c4c57805160ff1916838001178555610c79565b82800160010185558215610c79579182015b82811115610c79578251825591602001919060010190610c5e565b50610c85929150610cfe565b5090565b828054600181600116156101000203166002900490600052602060002090601f016020900481019282601f10610cc25780548555610c79565b82800160010185558215610c7957600052602060002091601f016020900482015b82811115610c79578254825591600101919060010190610ce3565b5b80821115610c855760008155600101610cff56fe436f6d7065746974696f6e20726567697374726174696f6e206973206e6f74206f70656e6564207965747465616d206c6561646572732063616e6e6f7420637265617465206a6f696e207265717565737473436f6d7065746974696f6e20726567697374726174696f6e20697320636c6f736564796f7520616c7265616479206a6f696e65642061207465616d2061732061206d656d626572a2646970667358221220df2cb3200bdba45a4f1efa5b495a9b85512e891132ff05ee972d417082bde54f64736f6c634300060c0033",
  "linkReferences": {},
  "deployedLinkReferences": {}
}