{
  "_format": "hh-sol-artifact-1",
  "contractName": "DataStore",
  "sourceName": "contracts/data/DataStore.sol",
  "abi": [
    {
      "inputs": [
        {
          "internalType": "contract RoleStore",
          "name": "_roleStore",
          "type": "address"
        }
      ],
      "stateMutability": "nonpayable",
      "type": "constructor"
    },
    {
      "inputs": [
        {
          "internalType": "address",
          "name": "msgSender",
          "type": "address"
        },
        {
          "internalType": "string",
          "name": "role",
          "type": "string"
        }
      ],
      "name": "Unauthorized",
      "type": "error"
    },
    {
      "anonymous": false,
      "inputs": [
        {
          "indexed": false,
          "internalType": "address",
          "name": "prevGov",
          "type": "address"
        },
        {
          "indexed": false,
          "internalType": "address",
          "name": "nextGov",
          "type": "address"
        }
      ],
      "name": "SetGov",
      "type": "event"
    },
    {
      "inputs": [
        {
          "internalType": "bytes32",
          "name": "",
          "type": "bytes32"
        }
      ],
      "name": "addressValues",
      "outputs": [
        {
          "internalType": "address",
          "name": "",
          "type": "address"
        }
      ],
      "stateMutability": "view",
      "type": "function"
    },
    {
      "inputs": [
        {
          "internalType": "bytes32",
          "name": "key",
          "type": "bytes32"
        },
        {
          "internalType": "int256",
          "name": "value",
          "type": "int256"
        }
      ],
      "name": "applyBoundedDeltaToUint",
      "outputs": [
        {
          "internalType": "uint256",
          "name": "",
          "type": "uint256"
        }
      ],
      "stateMutability": "nonpayable",
      "type": "function"
    },
    {
      "inputs": [
        {
          "internalType": "bytes32",
          "name": "key",
          "type": "bytes32"
        },
        {
          "internalType": "int256",
          "name": "value",
          "type": "int256"
        }
      ],
      "name": "applyDeltaToInt",
      "outputs": [
        {
          "internalType": "int256",
          "name": "",
          "type": "int256"
        }
      ],
      "stateMutability": "nonpayable",
      "type": "function"
    },
    {
      "inputs": [
        {
          "internalType": "bytes32",
          "name": "key",
          "type": "bytes32"
        },
        {
          "internalType": "int256",
          "name": "value",
          "type": "int256"
        },
        {
          "internalType": "string",
          "name": "errorMessage",
          "type": "string"
        }
      ],
      "name": "applyDeltaToUint",
      "outputs": [
        {
          "internalType": "uint256",
          "name": "",
          "type": "uint256"
        }
      ],
      "stateMutability": "nonpayable",
      "type": "function"
    },
    {
      "inputs": [
        {
          "internalType": "bytes32",
          "name": "",
          "type": "bytes32"
        }
      ],
      "name": "boolValues",
      "outputs": [
        {
          "internalType": "bool",
          "name": "",
          "type": "bool"
        }
      ],
      "stateMutability": "view",
      "type": "function"
    },
    {
      "inputs": [
        {
          "internalType": "bytes32",
          "name": "",
          "type": "bytes32"
        }
      ],
      "name": "dataValues",
      "outputs": [
        {
          "internalType": "bytes32",
          "name": "",
          "type": "bytes32"
        }
      ],
      "stateMutability": "view",
      "type": "function"
    },
    {
      "inputs": [
        {
          "internalType": "bytes32",
          "name": "key",
          "type": "bytes32"
        },
        {
          "internalType": "int256",
          "name": "value",
          "type": "int256"
        }
      ],
      "name": "decrementInt",
      "outputs": [
        {
          "internalType": "int256",
          "name": "",
          "type": "int256"
        }
      ],
      "stateMutability": "nonpayable",
      "type": "function"
    },
    {
      "inputs": [
        {
          "internalType": "bytes32",
          "name": "key",
          "type": "bytes32"
        },
        {
          "internalType": "uint256",
          "name": "value",
          "type": "uint256"
        }
      ],
      "name": "decrementUint",
      "outputs": [
        {
          "internalType": "uint256",
          "name": "",
          "type": "uint256"
        }
      ],
      "stateMutability": "nonpayable",
      "type": "function"
    },
    {
      "inputs": [
        {
          "internalType": "bytes32",
          "name": "key",
          "type": "bytes32"
        }
      ],
      "name": "getAddress",
      "outputs": [
        {
          "internalType": "address",
          "name": "",
          "type": "address"
        }
      ],
      "stateMutability": "view",
      "type": "function"
    },
    {
      "inputs": [
        {
          "internalType": "bytes32",
          "name": "key",
          "type": "bytes32"
        }
      ],
      "name": "getBool",
      "outputs": [
        {
          "internalType": "bool",
          "name": "",
          "type": "bool"
        }
      ],
      "stateMutability": "view",
      "type": "function"
    },
    {
      "inputs": [
        {
          "internalType": "bytes32",
          "name": "key",
          "type": "bytes32"
        }
      ],
      "name": "getData",
      "outputs": [
        {
          "internalType": "bytes32",
          "name": "",
          "type": "bytes32"
        }
      ],
      "stateMutability": "view",
      "type": "function"
    },
    {
      "inputs": [
        {
          "internalType": "bytes32",
          "name": "key",
          "type": "bytes32"
        }
      ],
      "name": "getInt",
      "outputs": [
        {
          "internalType": "int256",
          "name": "",
          "type": "int256"
        }
      ],
      "stateMutability": "view",
      "type": "function"
    },
    {
      "inputs": [
        {
          "internalType": "bytes32",
          "name": "key",
          "type": "bytes32"
        }
      ],
      "name": "getString",
      "outputs": [
        {
          "internalType": "string",
          "name": "",
          "type": "string"
        }
      ],
      "stateMutability": "view",
      "type": "function"
    },
    {
      "inputs": [
        {
          "internalType": "bytes32",
          "name": "key",
          "type": "bytes32"
        }
      ],
      "name": "getUint",
      "outputs": [
        {
          "internalType": "uint256",
          "name": "",
          "type": "uint256"
        }
      ],
      "stateMutability": "view",
      "type": "function"
    },
    {
      "inputs": [],
      "name": "gov",
      "outputs": [
        {
          "internalType": "address",
          "name": "",
          "type": "address"
        }
      ],
      "stateMutability": "view",
      "type": "function"
    },
    {
      "inputs": [
        {
          "internalType": "bytes32",
          "name": "key",
          "type": "bytes32"
        },
        {
          "internalType": "int256",
          "name": "value",
          "type": "int256"
        }
      ],
      "name": "incrementInt",
      "outputs": [
        {
          "internalType": "int256",
          "name": "",
          "type": "int256"
        }
      ],
      "stateMutability": "nonpayable",
      "type": "function"
    },
    {
      "inputs": [
        {
          "internalType": "bytes32",
          "name": "key",
          "type": "bytes32"
        },
        {
          "internalType": "uint256",
          "name": "value",
          "type": "uint256"
        }
      ],
      "name": "incrementUint",
      "outputs": [
        {
          "internalType": "uint256",
          "name": "",
          "type": "uint256"
        }
      ],
      "stateMutability": "nonpayable",
      "type": "function"
    },
    {
      "inputs": [
        {
          "internalType": "bytes32",
          "name": "",
          "type": "bytes32"
        }
      ],
      "name": "intValues",
      "outputs": [
        {
          "internalType": "int256",
          "name": "",
          "type": "int256"
        }
      ],
      "stateMutability": "view",
      "type": "function"
    },
    {
      "inputs": [
        {
          "internalType": "bytes32",
          "name": "key",
          "type": "bytes32"
        }
      ],
      "name": "removeAddress",
      "outputs": [],
      "stateMutability": "nonpayable",
      "type": "function"
    },
    {
      "inputs": [
        {
          "internalType": "bytes32",
          "name": "key",
          "type": "bytes32"
        }
      ],
      "name": "removeBool",
      "outputs": [],
      "stateMutability": "nonpayable",
      "type": "function"
    },
    {
      "inputs": [
        {
          "internalType": "bytes32",
          "name": "key",
          "type": "bytes32"
        }
      ],
      "name": "removeData",
      "outputs": [],
      "stateMutability": "nonpayable",
      "type": "function"
    },
    {
      "inputs": [
        {
          "internalType": "bytes32",
          "name": "key",
          "type": "bytes32"
        }
      ],
      "name": "removeInt",
      "outputs": [],
      "stateMutability": "nonpayable",
      "type": "function"
    },
    {
      "inputs": [
        {
          "internalType": "bytes32",
          "name": "key",
          "type": "bytes32"
        }
      ],
      "name": "removeString",
      "outputs": [],
      "stateMutability": "nonpayable",
      "type": "function"
    },
    {
      "inputs": [
        {
          "internalType": "bytes32",
          "name": "key",
          "type": "bytes32"
        }
      ],
      "name": "removeUint",
      "outputs": [],
      "stateMutability": "nonpayable",
      "type": "function"
    },
    {
      "inputs": [],
      "name": "roleStore",
      "outputs": [
        {
          "internalType": "contract RoleStore",
          "name": "",
          "type": "address"
        }
      ],
      "stateMutability": "view",
      "type": "function"
    },
    {
      "inputs": [
        {
          "internalType": "bytes32",
          "name": "key",
          "type": "bytes32"
        },
        {
          "internalType": "address",
          "name": "value",
          "type": "address"
        }
      ],
      "name": "setAddress",
      "outputs": [
        {
          "internalType": "address",
          "name": "",
          "type": "address"
        }
      ],
      "stateMutability": "nonpayable",
      "type": "function"
    },
    {
      "inputs": [
        {
          "internalType": "bytes32",
          "name": "key",
          "type": "bytes32"
        },
        {
          "internalType": "bool",
          "name": "value",
          "type": "bool"
        }
      ],
      "name": "setBool",
      "outputs": [
        {
          "internalType": "bool",
          "name": "",
          "type": "bool"
        }
      ],
      "stateMutability": "nonpayable",
      "type": "function"
    },
    {
      "inputs": [
        {
          "internalType": "bytes32",
          "name": "key",
          "type": "bytes32"
        },
        {
          "internalType": "bytes32",
          "name": "value",
          "type": "bytes32"
        }
      ],
      "name": "setData",
      "outputs": [
        {
          "internalType": "bytes32",
          "name": "",
          "type": "bytes32"
        }
      ],
      "stateMutability": "nonpayable",
      "type": "function"
    },
    {
      "inputs": [
        {
          "internalType": "address",
          "name": "_gov",
          "type": "address"
        }
      ],
      "name": "setGov",
      "outputs": [],
      "stateMutability": "nonpayable",
      "type": "function"
    },
    {
      "inputs": [
        {
          "internalType": "bytes32",
          "name": "key",
          "type": "bytes32"
        },
        {
          "internalType": "int256",
          "name": "value",
          "type": "int256"
        }
      ],
      "name": "setInt",
      "outputs": [
        {
          "internalType": "int256",
          "name": "",
          "type": "int256"
        }
      ],
      "stateMutability": "nonpayable",
      "type": "function"
    },
    {
      "inputs": [
        {
          "internalType": "bytes32",
          "name": "key",
          "type": "bytes32"
        },
        {
          "internalType": "string",
          "name": "value",
          "type": "string"
        }
      ],
      "name": "setString",
      "outputs": [
        {
          "internalType": "string",
          "name": "",
          "type": "string"
        }
      ],
      "stateMutability": "nonpayable",
      "type": "function"
    },
    {
      "inputs": [
        {
          "internalType": "bytes32",
          "name": "key",
          "type": "bytes32"
        },
        {
          "internalType": "uint256",
          "name": "value",
          "type": "uint256"
        }
      ],
      "name": "setUint",
      "outputs": [
        {
          "internalType": "uint256",
          "name": "",
          "type": "uint256"
        }
      ],
      "stateMutability": "nonpayable",
      "type": "function"
    },
    {
      "inputs": [
        {
          "internalType": "bytes32",
          "name": "",
          "type": "bytes32"
        }
      ],
      "name": "stringValues",
      "outputs": [
        {
          "internalType": "string",
          "name": "",
          "type": "string"
        }
      ],
      "stateMutability": "view",
      "type": "function"
    },
    {
      "inputs": [
        {
          "internalType": "bytes32",
          "name": "",
          "type": "bytes32"
        }
      ],
      "name": "uintValues",
      "outputs": [
        {
          "internalType": "uint256",
          "name": "",
          "type": "uint256"
        }
      ],
      "stateMutability": "view",
      "type": "function"
    }
  ],
  "bytecode": "0x60a060405234801561001057600080fd5b506040516112e43803806112e483398101604081905261002f916100ac565b806100393361004b565b6001600160a01b0316608052506100dc565b600080546001600160a01b038381166001600160a01b031983168117909355604080519190921680825260208201939093527f53351836099c03ffc3b1727d8abd4b0222afa87d4ed76ae3102d51369ef7f785910160405180910390a15050565b6000602082840312156100be57600080fd5b81516001600160a01b03811681146100d557600080fd5b9392505050565b6080516111e66100fe600039600081816102c40152610b0001526111e66000f3fe608060405234801561001057600080fd5b50600436106101965760003560e01c806312d43a511461019b57806321f8a721146101cb57806322538dae146101f457806332f85bbf1461021d578063340dbab31461023e5780633e49bed01461025157806342c3bd961461026457806344a242b11461027957806347dd48e0146102ac5780634a4a7b04146102bf57806354f6127f146102e65780635cf74095146103065780636e899550146103265780636fae54f014610346578063743df32514610359578063749ebfb8146103795780637ae1cfca1461038c5780638ca498b0146103af578063986e791a146103c25780639faf6fb6146103d55780639fe7ac12146103e8578063abfdcced146103fb578063bd02d0f51461040e578063ca446dd91461042e578063cbb093dd14610441578063cc50eadd14610454578063cfad57a214610467578063d38eebc71461047a578063dc97d9621461049a578063e2a4853a146104ba578063e4e36c4e14610441578063e62461ce146104cd578063e98aabc1146104e0578063f15caeac146104f3575b600080fd5b6000546101ae906001600160a01b031681565b6040516001600160a01b0390911681526020015b60405180910390f35b6101ae6101d9366004610ce8565b6000908152600360205260409020546001600160a01b031690565b6101ae610202366004610ce8565b6003602052600090815260409020546001600160a01b031681565b61023061022b366004610da3565b610506565b6040519081526020016101c2565b61023061024c366004610df2565b6105d5565b61023061025f366004610df2565b61061e565b610277610272366004610ce8565b610648565b005b61029c610287366004610ce8565b60046020526000908152604090205460ff1681565b60405190151581526020016101c2565b6102776102ba366004610ce8565b61066b565b6101ae7f000000000000000000000000000000000000000000000000000000000000000081565b6102306102f4366004610ce8565b60009081526006602052604090205490565b610230610314366004610ce8565b60066020526000908152604090205481565b610339610334366004610e14565b61068e565b6040516101c29190610ea0565b610230610354366004610df2565b6106c2565b610230610367366004610ce8565b60026020526000908152604090205481565b610230610387366004610df2565b61070a565b61029c61039a366004610ce8565b60009081526004602052604090205460ff1690565b6102306103bd366004610df2565b610734565b6103396103d0366004610ce8565b6107b4565b6102776103e3366004610ce8565b610856565b6102776103f6366004610ce8565b610886565b61029c610409366004610ec1565b6108b0565b61023061041c366004610ce8565b60009081526001602052604090205490565b6101ae61043c366004610f0d565b6108e3565b61023061044f366004610df2565b610923565b610277610462366004610ce8565b610951565b610277610475366004610f39565b61097d565b610230610488366004610ce8565b60016020526000908152604090205481565b6102306104a8366004610ce8565b60009081526002602052604090205490565b6102306104c8366004610df2565b6109cf565b6102776104db366004610ce8565b6109f9565b6102306104ee366004610df2565b610a1c565b610339610501366004610ce8565b610a4a565b600061055860405160200161051a90610f54565b604051602081830303815290604052805190602001206040518060400160405280600a81526020016921a7a72a2927a62622a960b11b815250610ae4565b600084815260016020526040812054908412801561058557508061058361057e86610f8e565b610b98565b115b156105ad578260405162461bcd60e51b81526004016105a49190610ea0565b60405180910390fd5b60006105b98286610bee565b6000878152600160205260409020819055925050509392505050565b60006105e960405160200161051a90610f54565b600083815260016020526040812054610603908490610faa565b60008581526001602052604090208190559150505b92915050565b600061063260405160200161051a90610f54565b5060009182526002602052604090912081905590565b61065a60405160200161051a90610f54565b600090815260016020526040812055565b61067d60405160200161051a90610f54565b600090815260066020526040812055565b60606106a260405160200161051a90610f54565b60008381526005602052604090206106ba8382611046565b509092915050565b60006106d660405160200161051a90610f54565b6000838152600260205260408120546106f0908490611105565b600085815260026020526040902081905591505092915050565b600061071e60405160200161051a90610f54565b5060009182526006602052604090912081905590565b600061074860405160200161051a90610f54565b600083815260016020526040812054908312801561077057508061076e61057e85610f8e565b115b1561078d5750506000828152600160205260408120819055610618565b60006107998285610bee565b60008681526001602052604090208190559250505092915050565b60008181526005602052604090208054606091906107d190610fbd565b80601f01602080910402602001604051908101604052809291908181526020018280546107fd90610fbd565b801561084a5780601f1061081f5761010080835404028352916020019161084a565b820191906000526020600020905b81548152906001019060200180831161082d57829003601f168201915b50505050509050919050565b61086860405160200161051a90610f54565b600090815260036020526040902080546001600160a01b0319169055565b61089860405160200161051a90610f54565b6000908152600460205260409020805460ff19169055565b60006108c460405160200161051a90610f54565b50600091825260046020526040909120805460ff191682151517905590565b60006108f760405160200161051a90610f54565b5060009182526003602052604090912080546001600160a01b0319166001600160a01b03831617905590565b600061093760405160200161051a90610f54565b6000838152600260205260408120546106f090849061112c565b61096360405160200161051a90610f54565b600081815260056020526040812061097a91610c9e565b50565b6000546001600160a01b031633146109c6576040805163a35b150b60e01b81523360048201526024810191909152600360448201526223a7ab60e91b60648201526084016105a4565b61097a81610c2c565b60006109e360405160200161051a90610f54565b5060009182526001602052604090912081905590565b610a0b60405160200161051a90610f54565b600090815260026020526040812055565b6000610a3060405160200161051a90610f54565b600083815260016020526040812054610603908490611154565b60056020526000908152604090208054610a6390610fbd565b80601f0160208091040260200160405190810160405280929190818152602001828054610a8f90610fbd565b8015610adc5780601f10610ab157610100808354040283529160200191610adc565b820191906000526020600020905b815481529060010190602001808311610abf57829003601f168201915b505050505081565b60405163ac4ab3fb60e01b8152336004820152602481018390527f00000000000000000000000000000000000000000000000000000000000000006001600160a01b03169063ac4ab3fb90604401602060405180830381865afa158015610b4f573d6000803e3d6000fd5b505050506040513d601f19601f82011682018060405250810190610b739190611167565b610b9457338160405163a35b150b60e01b81526004016105a4929190611184565b5050565b600080821215610bea5760405162461bcd60e51b815260206004820181905260248201527f53616665436173743a2076616c7565206d75737420626520706f73697469766560448201526064016105a4565b5090565b600080821315610c1257610c0182610c8d565b610c0b9084610faa565b9050610618565b610c1b82610c8d565b610c259084611154565b9392505050565b600080546001600160a01b038381166001600160a01b031983168117909355604080519190921680825260208201939093527f53351836099c03ffc3b1727d8abd4b0222afa87d4ed76ae3102d51369ef7f785910160405180910390a15050565b600080821215610bea575060000390565b508054610caa90610fbd565b6000825580601f10610cba575050565b601f01602090049060005260206000209081019061097a91905b80821115610bea5760008155600101610cd4565b600060208284031215610cfa57600080fd5b5035919050565b634e487b7160e01b600052604160045260246000fd5b600082601f830112610d2857600080fd5b81356001600160401b0380821115610d4257610d42610d01565b604051601f8301601f19908116603f01168101908282118183101715610d6a57610d6a610d01565b81604052838152866020858801011115610d8357600080fd5b836020870160208301376000602085830101528094505050505092915050565b600080600060608486031215610db857600080fd5b833592506020840135915060408401356001600160401b03811115610ddc57600080fd5b610de886828701610d17565b9150509250925092565b60008060408385031215610e0557600080fd5b50508035926020909101359150565b60008060408385031215610e2757600080fd5b8235915060208301356001600160401b03811115610e4457600080fd5b610e5085828601610d17565b9150509250929050565b6000815180845260005b81811015610e8057602081850181015186830182015201610e64565b506000602082860101526020601f19601f83011685010191505092915050565b602081526000610c256020830184610e5a565b801515811461097a57600080fd5b60008060408385031215610ed457600080fd5b823591506020830135610ee681610eb3565b809150509250929050565b80356001600160a01b0381168114610f0857600080fd5b919050565b60008060408385031215610f2057600080fd5b82359150610f3060208401610ef1565b90509250929050565b600060208284031215610f4b57600080fd5b610c2582610ef1565b6020808252600a908201526921a7a72a2927a62622a960b11b604082015260600190565b634e487b7160e01b600052601160045260246000fd5b6000600160ff1b8201610fa357610fa3610f78565b5060000390565b8082018082111561061857610618610f78565b600181811c90821680610fd157607f821691505b602082108103610ff157634e487b7160e01b600052602260045260246000fd5b50919050565b601f82111561104157600081815260208120601f850160051c8101602086101561101e5750805b601f850160051c820191505b8181101561103d5782815560010161102a565b5050505b505050565b81516001600160401b0381111561105f5761105f610d01565b6110738161106d8454610fbd565b84610ff7565b602080601f8311600181146110a857600084156110905750858301515b600019600386901b1c1916600185901b17855561103d565b600085815260208120601f198616915b828110156110d7578886015182559484019460019091019084016110b8565b50858210156110f55787850151600019600388901b60f8161c191681555b5050505050600190811b01905550565b818103600083128015838313168383128216171561112557611125610f78565b5092915050565b808201828112600083128015821682158216171561114c5761114c610f78565b505092915050565b8181038181111561061857610618610f78565b60006020828403121561117957600080fd5b8151610c2581610eb3565b6001600160a01b03831681526040602082018190526000906111a890830184610e5a565b94935050505056fea264697066735822122065d3b2de4a060523fbea6b71ec8513a5af23f979cec694ad539ce6635a631fae64736f6c63430008100033",
  "linkReferences": {},
  "deployedLinkReferences": {}
}