{
  "_format": "hh-sol-artifact-1",
  "contractName": "EventEmitter",
  "sourceName": "contracts/event/EventEmitter.sol",
  "abi": [
    {
      "inputs": [
        {
          "internalType": "contract RoleStore",
          "name": "_roleStore",
          "type": "address"
        }
      ],
      "stateMutability": "nonpayable",
      "type": "constructor"
    },
    {
      "inputs": [
        {
          "internalType": "address",
          "name": "msgSender",
          "type": "address"
        },
        {
          "internalType": "string",
          "name": "role",
          "type": "string"
        }
      ],
      "name": "Unauthorized",
      "type": "error"
    },
    {
      "anonymous": false,
      "inputs": [
        {
          "indexed": false,
          "internalType": "int256",
          "name": "pnlToPoolFactor",
          "type": "int256"
        },
        {
          "indexed": false,
          "internalType": "uint256",
          "name": "maxPnlFactor",
          "type": "uint256"
        },
        {
          "indexed": false,
          "internalType": "bool",
          "name": "shouldEnableAdl",
          "type": "bool"
        }
      ],
      "name": "AdlStateUpdated",
      "type": "event"
    },
    {
      "anonymous": false,
      "inputs": [
        {
          "indexed": false,
          "internalType": "address",
          "name": "market",
          "type": "address"
        },
        {
          "indexed": false,
          "internalType": "address",
          "name": "token",
          "type": "address"
        },
        {
          "indexed": false,
          "internalType": "address",
          "name": "account",
          "type": "address"
        },
        {
          "indexed": false,
          "internalType": "address",
          "name": "receiver",
          "type": "address"
        },
        {
          "indexed": false,
          "internalType": "uint256",
          "name": "amount",
          "type": "uint256"
        }
      ],
      "name": "AffiliateRewardClaimed",
      "type": "event"
    },
    {
      "anonymous": false,
      "inputs": [
        {
          "indexed": false,
          "internalType": "address",
          "name": "market",
          "type": "address"
        },
        {
          "indexed": false,
          "internalType": "address",
          "name": "token",
          "type": "address"
        },
        {
          "indexed": false,
          "internalType": "address",
          "name": "affiliate",
          "type": "address"
        },
        {
          "indexed": false,
          "internalType": "address",
          "name": "trader",
          "type": "address"
        },
        {
          "indexed": false,
          "internalType": "uint256",
          "name": "amount",
          "type": "uint256"
        }
      ],
      "name": "AffiliateRewardEarned",
      "type": "event"
    },
    {
      "anonymous": false,
      "inputs": [
        {
          "indexed": false,
          "internalType": "address",
          "name": "market",
          "type": "address"
        },
        {
          "indexed": false,
          "internalType": "address",
          "name": "token",
          "type": "address"
        },
        {
          "indexed": false,
          "internalType": "address",
          "name": "account",
          "type": "address"
        },
        {
          "indexed": false,
          "internalType": "uint256",
          "name": "delta",
          "type": "uint256"
        },
        {
          "indexed": false,
          "internalType": "uint256",
          "name": "nextValue",
          "type": "uint256"
        }
      ],
      "name": "ClaimableFundingUpdated",
      "type": "event"
    },
    {
      "anonymous": false,
      "inputs": [
        {
          "indexed": false,
          "internalType": "address",
          "name": "market",
          "type": "address"
        },
        {
          "indexed": false,
          "internalType": "address",
          "name": "collateralToken",
          "type": "address"
        },
        {
          "indexed": false,
          "internalType": "bool",
          "name": "isLong",
          "type": "bool"
        },
        {
          "indexed": false,
          "internalType": "int256",
          "name": "delta",
          "type": "int256"
        },
        {
          "indexed": false,
          "internalType": "uint256",
          "name": "nextValue",
          "type": "uint256"
        }
      ],
      "name": "CollateralSumUpdated",
      "type": "event"
    },
    {
      "anonymous": false,
      "inputs": [
        {
          "indexed": false,
          "internalType": "bytes32",
          "name": "key",
          "type": "bytes32"
        },
        {
          "indexed": false,
          "internalType": "bytes",
          "name": "reason",
          "type": "bytes"
        }
      ],
      "name": "DepositCancelled",
      "type": "event"
    },
    {
      "anonymous": false,
      "inputs": [
        {
          "indexed": false,
          "internalType": "bytes32",
          "name": "key",
          "type": "bytes32"
        },
        {
          "components": [
            {
              "components": [
                {
                  "internalType": "address",
                  "name": "account",
                  "type": "address"
                },
                {
                  "internalType": "address",
                  "name": "receiver",
                  "type": "address"
                },
                {
                  "internalType": "address",
                  "name": "callbackContract",
                  "type": "address"
                },
                {
                  "internalType": "address",
                  "name": "market",
                  "type": "address"
                }
              ],
              "internalType": "struct Deposit.Addresses",
              "name": "addresses",
              "type": "tuple"
            },
            {
              "components": [
                {
                  "internalType": "uint256",
                  "name": "longTokenAmount",
                  "type": "uint256"
                },
                {
                  "internalType": "uint256",
                  "name": "shortTokenAmount",
                  "type": "uint256"
                },
                {
                  "internalType": "uint256",
                  "name": "minMarketTokens",
                  "type": "uint256"
                },
                {
                  "internalType": "uint256",
                  "name": "updatedAtBlock",
                  "type": "uint256"
                },
                {
                  "internalType": "uint256",
                  "name": "executionFee",
                  "type": "uint256"
                },
                {
                  "internalType": "uint256",
                  "name": "callbackGasLimit",
                  "type": "uint256"
                }
              ],
              "internalType": "struct Deposit.Numbers",
              "name": "numbers",
              "type": "tuple"
            },
            {
              "components": [
                {
                  "internalType": "bool",
                  "name": "shouldUnwrapNativeToken",
                  "type": "bool"
                }
              ],
              "internalType": "struct Deposit.Flags",
              "name": "flags",
              "type": "tuple"
            },
            {
              "internalType": "bytes",
              "name": "data",
              "type": "bytes"
            }
          ],
          "indexed": false,
          "internalType": "struct Deposit.Props",
          "name": "deposit",
          "type": "tuple"
        }
      ],
      "name": "DepositCreated",
      "type": "event"
    },
    {
      "anonymous": false,
      "inputs": [
        {
          "indexed": false,
          "internalType": "bytes32",
          "name": "key",
          "type": "bytes32"
        }
      ],
      "name": "DepositExecuted",
      "type": "event"
    },
    {
      "anonymous": false,
      "inputs": [
        {
          "indexed": false,
          "internalType": "address",
          "name": "market",
          "type": "address"
        },
        {
          "indexed": false,
          "internalType": "address",
          "name": "token",
          "type": "address"
        },
        {
          "indexed": false,
          "internalType": "address",
          "name": "account",
          "type": "address"
        },
        {
          "indexed": false,
          "internalType": "address",
          "name": "receiver",
          "type": "address"
        },
        {
          "indexed": false,
          "internalType": "uint256",
          "name": "amount",
          "type": "uint256"
        }
      ],
      "name": "FundingFeesClaimed",
      "type": "event"
    },
    {
      "anonymous": false,
      "inputs": [
        {
          "indexed": false,
          "internalType": "uint256",
          "name": "fundingFeeAmount",
          "type": "uint256"
        },
        {
          "indexed": false,
          "internalType": "uint256",
          "name": "collateralAmount",
          "type": "uint256"
        }
      ],
      "name": "InsufficientFundingFeePayment",
      "type": "event"
    },
    {
      "anonymous": false,
      "inputs": [
        {
          "indexed": false,
          "internalType": "address",
          "name": "market",
          "type": "address"
        },
        {
          "indexed": false,
          "internalType": "address",
          "name": "collateralToken",
          "type": "address"
        },
        {
          "indexed": false,
          "internalType": "bool",
          "name": "isLong",
          "type": "bool"
        },
        {
          "indexed": false,
          "internalType": "int256",
          "name": "delta",
          "type": "int256"
        },
        {
          "indexed": false,
          "internalType": "uint256",
          "name": "nextValue",
          "type": "uint256"
        }
      ],
      "name": "OpenInterestInTokensUpdated",
      "type": "event"
    },
    {
      "anonymous": false,
      "inputs": [
        {
          "indexed": false,
          "internalType": "address",
          "name": "market",
          "type": "address"
        },
        {
          "indexed": false,
          "internalType": "address",
          "name": "collateralToken",
          "type": "address"
        },
        {
          "indexed": false,
          "internalType": "bool",
          "name": "isLong",
          "type": "bool"
        },
        {
          "indexed": false,
          "internalType": "int256",
          "name": "delta",
          "type": "int256"
        },
        {
          "indexed": false,
          "internalType": "uint256",
          "name": "nextValue",
          "type": "uint256"
        }
      ],
      "name": "OpenInterestUpdated",
      "type": "event"
    },
    {
      "anonymous": false,
      "inputs": [
        {
          "indexed": false,
          "internalType": "address",
          "name": "token",
          "type": "address"
        },
        {
          "indexed": false,
          "internalType": "uint256",
          "name": "minPrice",
          "type": "uint256"
        },
        {
          "indexed": false,
          "internalType": "uint256",
          "name": "maxPrice",
          "type": "uint256"
        },
        {
          "indexed": false,
          "internalType": "bool",
          "name": "isPrimary",
          "type": "bool"
        },
        {
          "indexed": false,
          "internalType": "bool",
          "name": "isPriceFeed",
          "type": "bool"
        }
      ],
      "name": "OraclePriceUpdated",
      "type": "event"
    },
    {
      "anonymous": false,
      "inputs": [
        {
          "indexed": false,
          "internalType": "bytes32",
          "name": "key",
          "type": "bytes32"
        },
        {
          "indexed": false,
          "internalType": "bytes",
          "name": "reason",
          "type": "bytes"
        }
      ],
      "name": "OrderCancelled",
      "type": "event"
    },
    {
      "anonymous": false,
      "inputs": [
        {
          "indexed": false,
          "internalType": "bytes32",
          "name": "key",
          "type": "bytes32"
        },
        {
          "components": [
            {
              "components": [
                {
                  "internalType": "address",
                  "name": "account",
                  "type": "address"
                },
                {
                  "internalType": "address",
                  "name": "receiver",
                  "type": "address"
                },
                {
                  "internalType": "address",
                  "name": "callbackContract",
                  "type": "address"
                },
                {
                  "internalType": "address",
                  "name": "market",
                  "type": "address"
                },
                {
                  "internalType": "address",
                  "name": "initialCollateralToken",
                  "type": "address"
                },
                {
                  "internalType": "address[]",
                  "name": "swapPath",
                  "type": "address[]"
                }
              ],
              "internalType": "struct Order.Addresses",
              "name": "addresses",
              "type": "tuple"
            },
            {
              "components": [
                {
                  "internalType": "uint256",
                  "name": "sizeDeltaUsd",
                  "type": "uint256"
                },
                {
                  "internalType": "uint256",
                  "name": "initialCollateralDeltaAmount",
                  "type": "uint256"
                },
                {
                  "internalType": "uint256",
                  "name": "triggerPrice",
                  "type": "uint256"
                },
                {
                  "internalType": "uint256",
                  "name": "acceptablePrice",
                  "type": "uint256"
                },
                {
                  "internalType": "uint256",
                  "name": "executionFee",
                  "type": "uint256"
                },
                {
                  "internalType": "uint256",
                  "name": "callbackGasLimit",
                  "type": "uint256"
                },
                {
                  "internalType": "uint256",
                  "name": "minOutputAmount",
                  "type": "uint256"
                },
                {
                  "internalType": "uint256",
                  "name": "updatedAtBlock",
                  "type": "uint256"
                }
              ],
              "internalType": "struct Order.Numbers",
              "name": "numbers",
              "type": "tuple"
            },
            {
              "components": [
                {
                  "internalType": "enum Order.OrderType",
                  "name": "orderType",
                  "type": "uint8"
                },
                {
                  "internalType": "bool",
                  "name": "isLong",
                  "type": "bool"
                },
                {
                  "internalType": "bool",
                  "name": "shouldUnwrapNativeToken",
                  "type": "bool"
                },
                {
                  "internalType": "bool",
                  "name": "isFrozen",
                  "type": "bool"
                }
              ],
              "internalType": "struct Order.Flags",
              "name": "flags",
              "type": "tuple"
            },
            {
              "internalType": "bytes",
              "name": "data",
              "type": "bytes"
            }
          ],
          "indexed": false,
          "internalType": "struct Order.Props",
          "name": "order",
          "type": "tuple"
        }
      ],
      "name": "OrderCreated",
      "type": "event"
    },
    {
      "anonymous": false,
      "inputs": [
        {
          "indexed": false,
          "internalType": "bytes32",
          "name": "key",
          "type": "bytes32"
        }
      ],
      "name": "OrderExecuted",
      "type": "event"
    },
    {
      "anonymous": false,
      "inputs": [
        {
          "indexed": false,
          "internalType": "bytes32",
          "name": "key",
          "type": "bytes32"
        },
        {
          "indexed": false,
          "internalType": "bytes",
          "name": "reason",
          "type": "bytes"
        }
      ],
      "name": "OrderFrozen",
      "type": "event"
    },
    {
      "anonymous": false,
      "inputs": [
        {
          "indexed": false,
          "internalType": "bytes32",
          "name": "key",
          "type": "bytes32"
        },
        {
          "indexed": false,
          "internalType": "uint256",
          "name": "sizeDeltaUsd",
          "type": "uint256"
        },
        {
          "indexed": false,
          "internalType": "uint256",
          "name": "triggerPrice",
          "type": "uint256"
        },
        {
          "indexed": false,
          "internalType": "uint256",
          "name": "acceptablePrice",
          "type": "uint256"
        }
      ],
      "name": "OrderUpdated",
      "type": "event"
    },
    {
      "anonymous": false,
      "inputs": [
        {
          "indexed": false,
          "internalType": "address",
          "name": "market",
          "type": "address"
        },
        {
          "indexed": false,
          "internalType": "address",
          "name": "token",
          "type": "address"
        },
        {
          "indexed": false,
          "internalType": "int256",
          "name": "delta",
          "type": "int256"
        },
        {
          "indexed": false,
          "internalType": "uint256",
          "name": "nextValue",
          "type": "uint256"
        }
      ],
      "name": "PoolAmountUpdated",
      "type": "event"
    },
    {
      "anonymous": false,
      "inputs": [
        {
          "indexed": false,
          "internalType": "bytes32",
          "name": "key",
          "type": "bytes32"
        },
        {
          "indexed": true,
          "internalType": "address",
          "name": "account",
          "type": "address"
        },
        {
          "indexed": true,
          "internalType": "address",
          "name": "market",
          "type": "address"
        },
        {
          "indexed": false,
          "internalType": "address",
          "name": "collateralToken",
          "type": "address"
        },
        {
          "indexed": false,
          "internalType": "bool",
          "name": "isLong",
          "type": "bool"
        },
        {
          "indexed": false,
          "internalType": "uint256",
          "name": "executionPrice",
          "type": "uint256"
        },
        {
          "indexed": false,
          "internalType": "uint256",
          "name": "sizeDeltaInUsd",
          "type": "uint256"
        },
        {
          "indexed": false,
          "internalType": "uint256",
          "name": "sizeDeltaInTokens",
          "type": "uint256"
        },
        {
          "indexed": false,
          "internalType": "int256",
          "name": "collateralDeltaAmount",
          "type": "int256"
        },
        {
          "indexed": false,
          "internalType": "int256",
          "name": "pnlAmountForPool",
          "type": "int256"
        },
        {
          "indexed": false,
          "internalType": "int256",
          "name": "remainingCollateralAmount",
          "type": "int256"
        },
        {
          "indexed": false,
          "internalType": "uint256",
          "name": "outputAmount",
          "type": "uint256"
        },
        {
          "indexed": false,
          "internalType": "enum Order.OrderType",
          "name": "orderType",
          "type": "uint8"
        }
      ],
      "name": "PositionDecrease",
      "type": "event"
    },
    {
      "anonymous": false,
      "inputs": [
        {
          "indexed": false,
          "internalType": "bool",
          "name": "isIncrease",
          "type": "bool"
        },
        {
          "components": [
            {
              "components": [
                {
                  "internalType": "address",
                  "name": "affiliate",
                  "type": "address"
                },
                {
                  "internalType": "uint256",
                  "name": "traderDiscountAmount",
                  "type": "uint256"
                },
                {
                  "internalType": "uint256",
                  "name": "affiliateRewardAmount",
                  "type": "uint256"
                }
              ],
              "internalType": "struct PositionPricingUtils.PositionReferralFees",
              "name": "referral",
              "type": "tuple"
            },
            {
              "components": [
                {
                  "internalType": "uint256",
                  "name": "fundingFeeAmount",
                  "type": "uint256"
                },
                {
                  "internalType": "uint256",
                  "name": "claimableLongTokenAmount",
                  "type": "uint256"
                },
                {
                  "internalType": "uint256",
                  "name": "claimableShortTokenAmount",
                  "type": "uint256"
                },
                {
                  "internalType": "int256",
                  "name": "latestLongTokenFundingAmountPerSize",
                  "type": "int256"
                },
                {
                  "internalType": "int256",
                  "name": "latestShortTokenFundingAmountPerSize",
                  "type": "int256"
                },
                {
                  "internalType": "bool",
                  "name": "hasPendingLongTokenFundingFee",
                  "type": "bool"
                },
                {
                  "internalType": "bool",
                  "name": "hasPendingShortTokenFundingFee",
                  "type": "bool"
                }
              ],
              "internalType": "struct PositionPricingUtils.PositionFundingFees",
              "name": "funding",
              "type": "tuple"
            },
            {
              "internalType": "uint256",
              "name": "feeReceiverAmount",
              "type": "uint256"
            },
            {
              "internalType": "uint256",
              "name": "feesForPool",
              "type": "uint256"
            },
            {
              "internalType": "uint256",
              "name": "positionFeeAmountForPool",
              "type": "uint256"
            },
            {
              "internalType": "uint256",
              "name": "positionFeeAmount",
              "type": "uint256"
            },
            {
              "internalType": "uint256",
              "name": "borrowingFeeAmount",
              "type": "uint256"
            },
            {
              "internalType": "uint256",
              "name": "totalNetCostAmount",
              "type": "uint256"
            },
            {
              "internalType": "uint256",
              "name": "totalNetCostUsd",
              "type": "uint256"
            }
          ],
          "indexed": false,
          "internalType": "struct PositionPricingUtils.PositionFees",
          "name": "fees",
          "type": "tuple"
        }
      ],
      "name": "PositionFeesCollected",
      "type": "event"
    },
    {
      "anonymous": false,
      "inputs": [
        {
          "indexed": false,
          "internalType": "address",
          "name": "market",
          "type": "address"
        },
        {
          "indexed": false,
          "internalType": "int256",
          "name": "delta",
          "type": "int256"
        },
        {
          "indexed": false,
          "internalType": "uint256",
          "name": "nextValue",
          "type": "uint256"
        }
      ],
      "name": "PositionImpactPoolAmountUpdated",
      "type": "event"
    },
    {
      "anonymous": false,
      "inputs": [
        {
          "indexed": false,
          "internalType": "bytes32",
          "name": "key",
          "type": "bytes32"
        },
        {
          "indexed": true,
          "internalType": "address",
          "name": "account",
          "type": "address"
        },
        {
          "indexed": true,
          "internalType": "address",
          "name": "market",
          "type": "address"
        },
        {
          "indexed": false,
          "internalType": "address",
          "name": "collateralToken",
          "type": "address"
        },
        {
          "indexed": false,
          "internalType": "bool",
          "name": "isLong",
          "type": "bool"
        },
        {
          "indexed": false,
          "internalType": "uint256",
          "name": "executionPrice",
          "type": "uint256"
        },
        {
          "indexed": false,
          "internalType": "uint256",
          "name": "sizeDeltaInUsd",
          "type": "uint256"
        },
        {
          "indexed": false,
          "internalType": "uint256",
          "name": "sizeDeltaInTokens",
          "type": "uint256"
        },
        {
          "indexed": false,
          "internalType": "int256",
          "name": "collateralDeltaAmount",
          "type": "int256"
        },
        {
          "indexed": false,
          "internalType": "int256",
          "name": "remainingCollateralAmount",
          "type": "int256"
        },
        {
          "indexed": false,
          "internalType": "enum Order.OrderType",
          "name": "orderType",
          "type": "uint8"
        }
      ],
      "name": "PositionIncrease",
      "type": "event"
    },
    {
      "anonymous": false,
      "inputs": [
        {
          "indexed": false,
          "internalType": "address",
          "name": "prevGov",
          "type": "address"
        },
        {
          "indexed": false,
          "internalType": "address",
          "name": "nextGov",
          "type": "address"
        }
      ],
      "name": "SetGov",
      "type": "event"
    },
    {
      "anonymous": false,
      "inputs": [
        {
          "indexed": false,
          "internalType": "bytes32",
          "name": "action",
          "type": "bytes32"
        },
        {
          "components": [
            {
              "internalType": "uint256",
              "name": "feeReceiverAmount",
              "type": "uint256"
            },
            {
              "internalType": "uint256",
              "name": "feesForPool",
              "type": "uint256"
            },
            {
              "internalType": "uint256",
              "name": "amountAfterFees",
              "type": "uint256"
            }
          ],
          "indexed": false,
          "internalType": "struct SwapPricingUtils.SwapFees",
          "name": "fees",
          "type": "tuple"
        }
      ],
      "name": "SwapFeesCollected",
      "type": "event"
    },
    {
      "anonymous": false,
      "inputs": [
        {
          "indexed": false,
          "internalType": "address",
          "name": "market",
          "type": "address"
        },
        {
          "indexed": false,
          "internalType": "address",
          "name": "token",
          "type": "address"
        },
        {
          "indexed": false,
          "internalType": "int256",
          "name": "delta",
          "type": "int256"
        },
        {
          "indexed": false,
          "internalType": "uint256",
          "name": "nextValue",
          "type": "uint256"
        }
      ],
      "name": "SwapImpactPoolAmountUpdated",
      "type": "event"
    },
    {
      "anonymous": false,
      "inputs": [
        {
          "indexed": false,
          "internalType": "address",
          "name": "market",
          "type": "address"
        },
        {
          "indexed": false,
          "internalType": "address",
          "name": "token",
          "type": "address"
        },
        {
          "indexed": false,
          "internalType": "address",
          "name": "trader",
          "type": "address"
        },
        {
          "indexed": false,
          "internalType": "uint256",
          "name": "amount",
          "type": "uint256"
        }
      ],
      "name": "TraderReferralDiscountApplied",
      "type": "event"
    },
    {
      "anonymous": false,
      "inputs": [
        {
          "indexed": false,
          "internalType": "bytes32",
          "name": "key",
          "type": "bytes32"
        },
        {
          "indexed": false,
          "internalType": "bytes",
          "name": "reason",
          "type": "bytes"
        }
      ],
      "name": "WithdrawalCancelled",
      "type": "event"
    },
    {
      "anonymous": false,
      "inputs": [
        {
          "indexed": false,
          "internalType": "bytes32",
          "name": "key",
          "type": "bytes32"
        },
        {
          "components": [
            {
              "components": [
                {
                  "internalType": "address",
                  "name": "account",
                  "type": "address"
                },
                {
                  "internalType": "address",
                  "name": "receiver",
                  "type": "address"
                },
                {
                  "internalType": "address",
                  "name": "callbackContract",
                  "type": "address"
                },
                {
                  "internalType": "address",
                  "name": "market",
                  "type": "address"
                }
              ],
              "internalType": "struct Withdrawal.Addresses",
              "name": "addresses",
              "type": "tuple"
            },
            {
              "components": [
                {
                  "internalType": "uint256",
                  "name": "marketTokensLongAmount",
                  "type": "uint256"
                },
                {
                  "internalType": "uint256",
                  "name": "marketTokensShortAmount",
                  "type": "uint256"
                },
                {
                  "internalType": "uint256",
                  "name": "minLongTokenAmount",
                  "type": "uint256"
                },
                {
                  "internalType": "uint256",
                  "name": "minShortTokenAmount",
                  "type": "uint256"
                },
                {
                  "internalType": "uint256",
                  "name": "updatedAtBlock",
                  "type": "uint256"
                },
                {
                  "internalType": "uint256",
                  "name": "executionFee",
                  "type": "uint256"
                },
                {
                  "internalType": "uint256",
                  "name": "callbackGasLimit",
                  "type": "uint256"
                }
              ],
              "internalType": "struct Withdrawal.Numbers",
              "name": "numbers",
              "type": "tuple"
            },
            {
              "components": [
                {
                  "internalType": "bool",
                  "name": "shouldUnwrapNativeToken",
                  "type": "bool"
                }
              ],
              "internalType": "struct Withdrawal.Flags",
              "name": "flags",
              "type": "tuple"
            },
            {
              "internalType": "bytes",
              "name": "data",
              "type": "bytes"
            }
          ],
          "indexed": false,
          "internalType": "struct Withdrawal.Props",
          "name": "withdrawal",
          "type": "tuple"
        }
      ],
      "name": "WithdrawalCreated",
      "type": "event"
    },
    {
      "anonymous": false,
      "inputs": [
        {
          "indexed": false,
          "internalType": "bytes32",
          "name": "key",
          "type": "bytes32"
        }
      ],
      "name": "WithdrawalExecuted",
      "type": "event"
    },
    {
      "inputs": [
        {
          "internalType": "int256",
          "name": "pnlToPoolFactor",
          "type": "int256"
        },
        {
          "internalType": "uint256",
          "name": "maxPnlFactor",
          "type": "uint256"
        },
        {
          "internalType": "bool",
          "name": "shouldEnableAdl",
          "type": "bool"
        }
      ],
      "name": "emitAdlStateUpdated",
      "outputs": [],
      "stateMutability": "nonpayable",
      "type": "function"
    },
    {
      "inputs": [
        {
          "internalType": "address",
          "name": "market",
          "type": "address"
        },
        {
          "internalType": "address",
          "name": "token",
          "type": "address"
        },
        {
          "internalType": "address",
          "name": "account",
          "type": "address"
        },
        {
          "internalType": "address",
          "name": "receiver",
          "type": "address"
        },
        {
          "internalType": "uint256",
          "name": "amount",
          "type": "uint256"
        }
      ],
      "name": "emitAffiliateRewardClaimed",
      "outputs": [],
      "stateMutability": "nonpayable",
      "type": "function"
    },
    {
      "inputs": [
        {
          "internalType": "address",
          "name": "market",
          "type": "address"
        },
        {
          "internalType": "address",
          "name": "token",
          "type": "address"
        },
        {
          "internalType": "address",
          "name": "affiliate",
          "type": "address"
        },
        {
          "internalType": "address",
          "name": "trader",
          "type": "address"
        },
        {
          "internalType": "uint256",
          "name": "amount",
          "type": "uint256"
        }
      ],
      "name": "emitAffiliateRewardEarned",
      "outputs": [],
      "stateMutability": "nonpayable",
      "type": "function"
    },
    {
      "inputs": [
        {
          "internalType": "address",
          "name": "market",
          "type": "address"
        },
        {
          "internalType": "address",
          "name": "token",
          "type": "address"
        },
        {
          "internalType": "address",
          "name": "account",
          "type": "address"
        },
        {
          "internalType": "uint256",
          "name": "delta",
          "type": "uint256"
        },
        {
          "internalType": "uint256",
          "name": "nextValue",
          "type": "uint256"
        }
      ],
      "name": "emitClaimableFundingUpdated",
      "outputs": [],
      "stateMutability": "nonpayable",
      "type": "function"
    },
    {
      "inputs": [
        {
          "internalType": "address",
          "name": "market",
          "type": "address"
        },
        {
          "internalType": "address",
          "name": "collateralToken",
          "type": "address"
        },
        {
          "internalType": "bool",
          "name": "isLong",
          "type": "bool"
        },
        {
          "internalType": "int256",
          "name": "delta",
          "type": "int256"
        },
        {
          "internalType": "uint256",
          "name": "nextValue",
          "type": "uint256"
        }
      ],
      "name": "emitCollateralSumUpdated",
      "outputs": [],
      "stateMutability": "nonpayable",
      "type": "function"
    },
    {
      "inputs": [
        {
          "internalType": "bytes32",
          "name": "key",
          "type": "bytes32"
        },
        {
          "internalType": "bytes",
          "name": "reason",
          "type": "bytes"
        }
      ],
      "name": "emitDepositCancelled",
      "outputs": [],
      "stateMutability": "nonpayable",
      "type": "function"
    },
    {
      "inputs": [
        {
          "internalType": "bytes32",
          "name": "key",
          "type": "bytes32"
        },
        {
          "components": [
            {
              "components": [
                {
                  "internalType": "address",
                  "name": "account",
                  "type": "address"
                },
                {
                  "internalType": "address",
                  "name": "receiver",
                  "type": "address"
                },
                {
                  "internalType": "address",
                  "name": "callbackContract",
                  "type": "address"
                },
                {
                  "internalType": "address",
                  "name": "market",
                  "type": "address"
                }
              ],
              "internalType": "struct Deposit.Addresses",
              "name": "addresses",
              "type": "tuple"
            },
            {
              "components": [
                {
                  "internalType": "uint256",
                  "name": "longTokenAmount",
                  "type": "uint256"
                },
                {
                  "internalType": "uint256",
                  "name": "shortTokenAmount",
                  "type": "uint256"
                },
                {
                  "internalType": "uint256",
                  "name": "minMarketTokens",
                  "type": "uint256"
                },
                {
                  "internalType": "uint256",
                  "name": "updatedAtBlock",
                  "type": "uint256"
                },
                {
                  "internalType": "uint256",
                  "name": "executionFee",
                  "type": "uint256"
                },
                {
                  "internalType": "uint256",
                  "name": "callbackGasLimit",
                  "type": "uint256"
                }
              ],
              "internalType": "struct Deposit.Numbers",
              "name": "numbers",
              "type": "tuple"
            },
            {
              "components": [
                {
                  "internalType": "bool",
                  "name": "shouldUnwrapNativeToken",
                  "type": "bool"
                }
              ],
              "internalType": "struct Deposit.Flags",
              "name": "flags",
              "type": "tuple"
            },
            {
              "internalType": "bytes",
              "name": "data",
              "type": "bytes"
            }
          ],
          "internalType": "struct Deposit.Props",
          "name": "deposit",
          "type": "tuple"
        }
      ],
      "name": "emitDepositCreated",
      "outputs": [],
      "stateMutability": "nonpayable",
      "type": "function"
    },
    {
      "inputs": [
        {
          "internalType": "bytes32",
          "name": "key",
          "type": "bytes32"
        }
      ],
      "name": "emitDepositExecuted",
      "outputs": [],
      "stateMutability": "nonpayable",
      "type": "function"
    },
    {
      "inputs": [
        {
          "internalType": "address",
          "name": "market",
          "type": "address"
        },
        {
          "internalType": "address",
          "name": "token",
          "type": "address"
        },
        {
          "internalType": "address",
          "name": "account",
          "type": "address"
        },
        {
          "internalType": "address",
          "name": "receiver",
          "type": "address"
        },
        {
          "internalType": "uint256",
          "name": "amount",
          "type": "uint256"
        }
      ],
      "name": "emitFundingFeesClaimed",
      "outputs": [],
      "stateMutability": "nonpayable",
      "type": "function"
    },
    {
      "inputs": [
        {
          "internalType": "uint256",
          "name": "fundingFeeAmount",
          "type": "uint256"
        },
        {
          "internalType": "uint256",
          "name": "collateralAmount",
          "type": "uint256"
        }
      ],
      "name": "emitInsufficientFundingFeePayment",
      "outputs": [],
      "stateMutability": "nonpayable",
      "type": "function"
    },
    {
      "inputs": [
        {
          "internalType": "address",
          "name": "market",
          "type": "address"
        },
        {
          "internalType": "address",
          "name": "collateralToken",
          "type": "address"
        },
        {
          "internalType": "bool",
          "name": "isLong",
          "type": "bool"
        },
        {
          "internalType": "int256",
          "name": "delta",
          "type": "int256"
        },
        {
          "internalType": "uint256",
          "name": "nextValue",
          "type": "uint256"
        }
      ],
      "name": "emitOpenInterestInTokensUpdated",
      "outputs": [],
      "stateMutability": "nonpayable",
      "type": "function"
    },
    {
      "inputs": [
        {
          "internalType": "address",
          "name": "market",
          "type": "address"
        },
        {
          "internalType": "address",
          "name": "collateralToken",
          "type": "address"
        },
        {
          "internalType": "bool",
          "name": "isLong",
          "type": "bool"
        },
        {
          "internalType": "int256",
          "name": "delta",
          "type": "int256"
        },
        {
          "internalType": "uint256",
          "name": "nextValue",
          "type": "uint256"
        }
      ],
      "name": "emitOpenInterestUpdated",
      "outputs": [],
      "stateMutability": "nonpayable",
      "type": "function"
    },
    {
      "inputs": [
        {
          "internalType": "address",
          "name": "token",
          "type": "address"
        },
        {
          "internalType": "uint256",
          "name": "minPrice",
          "type": "uint256"
        },
        {
          "internalType": "uint256",
          "name": "maxPrice",
          "type": "uint256"
        },
        {
          "internalType": "bool",
          "name": "isPrimary",
          "type": "bool"
        },
        {
          "internalType": "bool",
          "name": "isPriceFeed",
          "type": "bool"
        }
      ],
      "name": "emitOraclePriceUpdated",
      "outputs": [],
      "stateMutability": "nonpayable",
      "type": "function"
    },
    {
      "inputs": [
        {
          "internalType": "bytes32",
          "name": "key",
          "type": "bytes32"
        },
        {
          "internalType": "bytes",
          "name": "reason",
          "type": "bytes"
        }
      ],
      "name": "emitOrderCancelled",
      "outputs": [],
      "stateMutability": "nonpayable",
      "type": "function"
    },
    {
      "inputs": [
        {
          "internalType": "bytes32",
          "name": "key",
          "type": "bytes32"
        },
        {
          "components": [
            {
              "components": [
                {
                  "internalType": "address",
                  "name": "account",
                  "type": "address"
                },
                {
                  "internalType": "address",
                  "name": "receiver",
                  "type": "address"
                },
                {
                  "internalType": "address",
                  "name": "callbackContract",
                  "type": "address"
                },
                {
                  "internalType": "address",
                  "name": "market",
                  "type": "address"
                },
                {
                  "internalType": "address",
                  "name": "initialCollateralToken",
                  "type": "address"
                },
                {
                  "internalType": "address[]",
                  "name": "swapPath",
                  "type": "address[]"
                }
              ],
              "internalType": "struct Order.Addresses",
              "name": "addresses",
              "type": "tuple"
            },
            {
              "components": [
                {
                  "internalType": "uint256",
                  "name": "sizeDeltaUsd",
                  "type": "uint256"
                },
                {
                  "internalType": "uint256",
                  "name": "initialCollateralDeltaAmount",
                  "type": "uint256"
                },
                {
                  "internalType": "uint256",
                  "name": "triggerPrice",
                  "type": "uint256"
                },
                {
                  "internalType": "uint256",
                  "name": "acceptablePrice",
                  "type": "uint256"
                },
                {
                  "internalType": "uint256",
                  "name": "executionFee",
                  "type": "uint256"
                },
                {
                  "internalType": "uint256",
                  "name": "callbackGasLimit",
                  "type": "uint256"
                },
                {
                  "internalType": "uint256",
                  "name": "minOutputAmount",
                  "type": "uint256"
                },
                {
                  "internalType": "uint256",
                  "name": "updatedAtBlock",
                  "type": "uint256"
                }
              ],
              "internalType": "struct Order.Numbers",
              "name": "numbers",
              "type": "tuple"
            },
            {
              "components": [
                {
                  "internalType": "enum Order.OrderType",
                  "name": "orderType",
                  "type": "uint8"
                },
                {
                  "internalType": "bool",
                  "name": "isLong",
                  "type": "bool"
                },
                {
                  "internalType": "bool",
                  "name": "shouldUnwrapNativeToken",
                  "type": "bool"
                },
                {
                  "internalType": "bool",
                  "name": "isFrozen",
                  "type": "bool"
                }
              ],
              "internalType": "struct Order.Flags",
              "name": "flags",
              "type": "tuple"
            },
            {
              "internalType": "bytes",
              "name": "data",
              "type": "bytes"
            }
          ],
          "internalType": "struct Order.Props",
          "name": "order",
          "type": "tuple"
        }
      ],
      "name": "emitOrderCreated",
      "outputs": [],
      "stateMutability": "nonpayable",
      "type": "function"
    },
    {
      "inputs": [
        {
          "internalType": "bytes32",
          "name": "key",
          "type": "bytes32"
        }
      ],
      "name": "emitOrderExecuted",
      "outputs": [],
      "stateMutability": "nonpayable",
      "type": "function"
    },
    {
      "inputs": [
        {
          "internalType": "bytes32",
          "name": "key",
          "type": "bytes32"
        },
        {
          "internalType": "bytes",
          "name": "reason",
          "type": "bytes"
        }
      ],
      "name": "emitOrderFrozen",
      "outputs": [],
      "stateMutability": "nonpayable",
      "type": "function"
    },
    {
      "inputs": [
        {
          "internalType": "bytes32",
          "name": "key",
          "type": "bytes32"
        },
        {
          "internalType": "uint256",
          "name": "sizeDeltaUsd",
          "type": "uint256"
        },
        {
          "internalType": "uint256",
          "name": "triggerPrice",
          "type": "uint256"
        },
        {
          "internalType": "uint256",
          "name": "acceptablePrice",
          "type": "uint256"
        }
      ],
      "name": "emitOrderUpdated",
      "outputs": [],
      "stateMutability": "nonpayable",
      "type": "function"
    },
    {
      "inputs": [
        {
          "internalType": "address",
          "name": "market",
          "type": "address"
        },
        {
          "internalType": "address",
          "name": "token",
          "type": "address"
        },
        {
          "internalType": "int256",
          "name": "delta",
          "type": "int256"
        },
        {
          "internalType": "uint256",
          "name": "nextValue",
          "type": "uint256"
        }
      ],
      "name": "emitPoolAmountUpdated",
      "outputs": [],
      "stateMutability": "nonpayable",
      "type": "function"
    },
    {
      "inputs": [
        {
          "components": [
            {
              "internalType": "bytes32",
              "name": "key",
              "type": "bytes32"
            },
            {
              "internalType": "address",
              "name": "account",
              "type": "address"
            },
            {
              "internalType": "address",
              "name": "market",
              "type": "address"
            },
            {
              "internalType": "address",
              "name": "collateralToken",
              "type": "address"
            },
            {
              "internalType": "bool",
              "name": "isLong",
              "type": "bool"
            }
          ],
          "internalType": "struct EventUtils.EmitPositionDecreaseParams",
          "name": "params",
          "type": "tuple"
        },
        {
          "internalType": "uint256",
          "name": "executionPrice",
          "type": "uint256"
        },
        {
          "internalType": "uint256",
          "name": "sizeDeltaUsd",
          "type": "uint256"
        },
        {
          "internalType": "uint256",
          "name": "sizeDeltaInTokens",
          "type": "uint256"
        },
        {
          "internalType": "int256",
          "name": "collateralDeltaAmount",
          "type": "int256"
        },
        {
          "internalType": "int256",
          "name": "pnlAmountForPool",
          "type": "int256"
        },
        {
          "internalType": "int256",
          "name": "remainingCollateralAmount",
          "type": "int256"
        },
        {
          "internalType": "uint256",
          "name": "outputAmount",
          "type": "uint256"
        },
        {
          "internalType": "enum Order.OrderType",
          "name": "orderType",
          "type": "uint8"
        }
      ],
      "name": "emitPositionDecrease",
      "outputs": [],
      "stateMutability": "nonpayable",
      "type": "function"
    },
    {
      "inputs": [
        {
          "internalType": "bool",
          "name": "isIncrease",
          "type": "bool"
        },
        {
          "components": [
            {
              "components": [
                {
                  "internalType": "address",
                  "name": "affiliate",
                  "type": "address"
                },
                {
                  "internalType": "uint256",
                  "name": "traderDiscountAmount",
                  "type": "uint256"
                },
                {
                  "internalType": "uint256",
                  "name": "affiliateRewardAmount",
                  "type": "uint256"
                }
              ],
              "internalType": "struct PositionPricingUtils.PositionReferralFees",
              "name": "referral",
              "type": "tuple"
            },
            {
              "components": [
                {
                  "internalType": "uint256",
                  "name": "fundingFeeAmount",
                  "type": "uint256"
                },
                {
                  "internalType": "uint256",
                  "name": "claimableLongTokenAmount",
                  "type": "uint256"
                },
                {
                  "internalType": "uint256",
                  "name": "claimableShortTokenAmount",
                  "type": "uint256"
                },
                {
                  "internalType": "int256",
                  "name": "latestLongTokenFundingAmountPerSize",
                  "type": "int256"
                },
                {
                  "internalType": "int256",
                  "name": "latestShortTokenFundingAmountPerSize",
                  "type": "int256"
                },
                {
                  "internalType": "bool",
                  "name": "hasPendingLongTokenFundingFee",
                  "type": "bool"
                },
                {
                  "internalType": "bool",
                  "name": "hasPendingShortTokenFundingFee",
                  "type": "bool"
                }
              ],
              "internalType": "struct PositionPricingUtils.PositionFundingFees",
              "name": "funding",
              "type": "tuple"
            },
            {
              "internalType": "uint256",
              "name": "feeReceiverAmount",
              "type": "uint256"
            },
            {
              "internalType": "uint256",
              "name": "feesForPool",
              "type": "uint256"
            },
            {
              "internalType": "uint256",
              "name": "positionFeeAmountForPool",
              "type": "uint256"
            },
            {
              "internalType": "uint256",
              "name": "positionFeeAmount",
              "type": "uint256"
            },
            {
              "internalType": "uint256",
              "name": "borrowingFeeAmount",
              "type": "uint256"
            },
            {
              "internalType": "uint256",
              "name": "totalNetCostAmount",
              "type": "uint256"
            },
            {
              "internalType": "uint256",
              "name": "totalNetCostUsd",
              "type": "uint256"
            }
          ],
          "internalType": "struct PositionPricingUtils.PositionFees",
          "name": "fees",
          "type": "tuple"
        }
      ],
      "name": "emitPositionFeesCollected",
      "outputs": [],
      "stateMutability": "nonpayable",
      "type": "function"
    },
    {
      "inputs": [
        {
          "internalType": "address",
          "name": "market",
          "type": "address"
        },
        {
          "internalType": "int256",
          "name": "delta",
          "type": "int256"
        },
        {
          "internalType": "uint256",
          "name": "nextValue",
          "type": "uint256"
        }
      ],
      "name": "emitPositionImpactPoolAmountUpdated",
      "outputs": [],
      "stateMutability": "nonpayable",
      "type": "function"
    },
    {
      "inputs": [
        {
          "internalType": "bytes32",
          "name": "key",
          "type": "bytes32"
        },
        {
          "internalType": "address",
          "name": "account",
          "type": "address"
        },
        {
          "internalType": "address",
          "name": "market",
          "type": "address"
        },
        {
          "internalType": "address",
          "name": "collateralToken",
          "type": "address"
        },
        {
          "internalType": "bool",
          "name": "isLong",
          "type": "bool"
        },
        {
          "internalType": "uint256",
          "name": "executionPrice",
          "type": "uint256"
        },
        {
          "internalType": "uint256",
          "name": "sizeDeltaUsd",
          "type": "uint256"
        },
        {
          "internalType": "uint256",
          "name": "sizeDeltaInTokens",
          "type": "uint256"
        },
        {
          "internalType": "int256",
          "name": "collateralDeltaAmount",
          "type": "int256"
        },
        {
          "internalType": "int256",
          "name": "remainingCollateralAmount",
          "type": "int256"
        },
        {
          "internalType": "enum Order.OrderType",
          "name": "orderType",
          "type": "uint8"
        }
      ],
      "name": "emitPositionIncrease",
      "outputs": [],
      "stateMutability": "nonpayable",
      "type": "function"
    },
    {
      "inputs": [
        {
          "internalType": "bytes32",
          "name": "action",
          "type": "bytes32"
        },
        {
          "components": [
            {
              "internalType": "uint256",
              "name": "feeReceiverAmount",
              "type": "uint256"
            },
            {
              "internalType": "uint256",
              "name": "feesForPool",
              "type": "uint256"
            },
            {
              "internalType": "uint256",
              "name": "amountAfterFees",
              "type": "uint256"
            }
          ],
          "internalType": "struct SwapPricingUtils.SwapFees",
          "name": "fees",
          "type": "tuple"
        }
      ],
      "name": "emitSwapFeesCollected",
      "outputs": [],
      "stateMutability": "nonpayable",
      "type": "function"
    },
    {
      "inputs": [
        {
          "internalType": "address",
          "name": "market",
          "type": "address"
        },
        {
          "internalType": "address",
          "name": "token",
          "type": "address"
        },
        {
          "internalType": "int256",
          "name": "delta",
          "type": "int256"
        },
        {
          "internalType": "uint256",
          "name": "nextValue",
          "type": "uint256"
        }
      ],
      "name": "emitSwapImpactPoolAmountUpdated",
      "outputs": [],
      "stateMutability": "nonpayable",
      "type": "function"
    },
    {
      "inputs": [
        {
          "internalType": "address",
          "name": "market",
          "type": "address"
        },
        {
          "internalType": "address",
          "name": "token",
          "type": "address"
        },
        {
          "internalType": "address",
          "name": "trader",
          "type": "address"
        },
        {
          "internalType": "uint256",
          "name": "amount",
          "type": "uint256"
        }
      ],
      "name": "emitTraderReferralDiscountApplied",
      "outputs": [],
      "stateMutability": "nonpayable",
      "type": "function"
    },
    {
      "inputs": [
        {
          "internalType": "bytes32",
          "name": "key",
          "type": "bytes32"
        },
        {
          "internalType": "bytes",
          "name": "reason",
          "type": "bytes"
        }
      ],
      "name": "emitWithdrawalCancelled",
      "outputs": [],
      "stateMutability": "nonpayable",
      "type": "function"
    },
    {
      "inputs": [
        {
          "internalType": "bytes32",
          "name": "key",
          "type": "bytes32"
        },
        {
          "components": [
            {
              "components": [
                {
                  "internalType": "address",
                  "name": "account",
                  "type": "address"
                },
                {
                  "internalType": "address",
                  "name": "receiver",
                  "type": "address"
                },
                {
                  "internalType": "address",
                  "name": "callbackContract",
                  "type": "address"
                },
                {
                  "internalType": "address",
                  "name": "market",
                  "type": "address"
                }
              ],
              "internalType": "struct Withdrawal.Addresses",
              "name": "addresses",
              "type": "tuple"
            },
            {
              "components": [
                {
                  "internalType": "uint256",
                  "name": "marketTokensLongAmount",
                  "type": "uint256"
                },
                {
                  "internalType": "uint256",
                  "name": "marketTokensShortAmount",
                  "type": "uint256"
                },
                {
                  "internalType": "uint256",
                  "name": "minLongTokenAmount",
                  "type": "uint256"
                },
                {
                  "internalType": "uint256",
                  "name": "minShortTokenAmount",
                  "type": "uint256"
                },
                {
                  "internalType": "uint256",
                  "name": "updatedAtBlock",
                  "type": "uint256"
                },
                {
                  "internalType": "uint256",
                  "name": "executionFee",
                  "type": "uint256"
                },
                {
                  "internalType": "uint256",
                  "name": "callbackGasLimit",
                  "type": "uint256"
                }
              ],
              "internalType": "struct Withdrawal.Numbers",
              "name": "numbers",
              "type": "tuple"
            },
            {
              "components": [
                {
                  "internalType": "bool",
                  "name": "shouldUnwrapNativeToken",
                  "type": "bool"
                }
              ],
              "internalType": "struct Withdrawal.Flags",
              "name": "flags",
              "type": "tuple"
            },
            {
              "internalType": "bytes",
              "name": "data",
              "type": "bytes"
            }
          ],
          "internalType": "struct Withdrawal.Props",
          "name": "withdrawal",
          "type": "tuple"
        }
      ],
      "name": "emitWithdrawalCreated",
      "outputs": [],
      "stateMutability": "nonpayable",
      "type": "function"
    },
    {
      "inputs": [
        {
          "internalType": "bytes32",
          "name": "key",
          "type": "bytes32"
        }
      ],
      "name": "emitWithdrawalExecuted",
      "outputs": [],
      "stateMutability": "nonpayable",
      "type": "function"
    },
    {
      "inputs": [],
      "name": "gov",
      "outputs": [
        {
          "internalType": "address",
          "name": "",
          "type": "address"
        }
      ],
      "stateMutability": "view",
      "type": "function"
    },
    {
      "inputs": [
        {
          "internalType": "bytes32",
          "name": "topic1",
          "type": "bytes32"
        },
        {
          "internalType": "bytes",
          "name": "data",
          "type": "bytes"
        }
      ],
      "name": "log1",
      "outputs": [],
      "stateMutability": "nonpayable",
      "type": "function"
    },
    {
      "inputs": [
        {
          "internalType": "bytes32",
          "name": "topic1",
          "type": "bytes32"
        },
        {
          "internalType": "bytes32",
          "name": "topic2",
          "type": "bytes32"
        },
        {
          "internalType": "bytes",
          "name": "data",
          "type": "bytes"
        }
      ],
      "name": "log2",
      "outputs": [],
      "stateMutability": "nonpayable",
      "type": "function"
    },
    {
      "inputs": [
        {
          "internalType": "bytes32",
          "name": "topic1",
          "type": "bytes32"
        },
        {
          "internalType": "bytes32",
          "name": "topic2",
          "type": "bytes32"
        },
        {
          "internalType": "bytes32",
          "name": "topic3",
          "type": "bytes32"
        },
        {
          "internalType": "bytes",
          "name": "data",
          "type": "bytes"
        }
      ],
      "name": "log3",
      "outputs": [],
      "stateMutability": "nonpayable",
      "type": "function"
    },
    {
      "inputs": [
        {
          "internalType": "bytes32",
          "name": "topic1",
          "type": "bytes32"
        },
        {
          "internalType": "bytes32",
          "name": "topic2",
          "type": "bytes32"
        },
        {
          "internalType": "bytes32",
          "name": "topic3",
          "type": "bytes32"
        },
        {
          "internalType": "bytes32",
          "name": "topic4",
          "type": "bytes32"
        },
        {
          "internalType": "bytes",
          "name": "data",
          "type": "bytes"
        }
      ],
      "name": "log4",
      "outputs": [],
      "stateMutability": "nonpayable",
      "type": "function"
    },
    {
      "inputs": [],
      "name": "roleStore",
      "outputs": [
        {
          "internalType": "contract RoleStore",
          "name": "",
          "type": "address"
        }
      ],
      "stateMutability": "view",
      "type": "function"
    },
    {
      "inputs": [
        {
          "internalType": "address",
          "name": "_gov",
          "type": "address"
        }
      ],
      "name": "setGov",
      "outputs": [],
      "stateMutability": "nonpayable",
      "type": "function"
    }
  ],
  "bytecode": "0x60a06040523480156200001157600080fd5b5060405162002418380380620024188339810160408190526200003491620000b4565b80620000403362000053565b6001600160a01b031660805250620000e6565b600080546001600160a01b038381166001600160a01b031983168117909355604080519190921680825260208201939093527f53351836099c03ffc3b1727d8abd4b0222afa87d4ed76ae3102d51369ef7f785910160405180910390a15050565b600060208284031215620000c757600080fd5b81516001600160a01b0381168114620000df57600080fd5b9392505050565b60805161230f62000109600039600081816102920152610f14015261230f6000f3fe608060405234801561001057600080fd5b50600436106101ac5760003560e01c80630380fb79146101b15780631069eb21146101c657806312d43a51146101d957806317489593146102085780631d2742b31461021b578063233737131461022e57806337bf7bff146102415780633be4b159146102545780633df204591461026757806347a3b4931461027a5780634a4a7b041461028d5780635bd480d0146102b45780636803aec0146102c7578063683bf79a146102da5780636d1896c6146102ed578063793a433a1461030057806379be1297146103135780637ea09cb61461032657806382edfb1f1461033957806390fc68f11461034c578063a288b7801461035f578063b167682114610372578063b1daa3f714610385578063b4a1b4a114610398578063be3121bc146103ab578063c2b7f0e3146103be578063c83c9c5d146103d1578063cdccb99d146103e4578063cfad57a2146103f7578063d555df611461040a578063e514ee331461041d578063eb59c7c114610430578063ecccd30314610443578063f670c91e14610456578063f79a52b714610469578063fb43e0ce1461047c575b600080fd5b6101c46101bf366004611006565b61048f565b005b6101c46101d4366004611162565b610516565b6000546101ec906001600160a01b031681565b6040516001600160a01b03909116815260200160405180910390f35b6101c4610216366004611288565b610538565b6101c4610229366004611392565b610587565b6101c461023c366004611006565b6105ad565b6101c461024f3660046113f5565b6105ef565b6101c46102623660046113f5565b610647565b6101c4610275366004611451565b610690565b6101c46102883660046114a8565b6106d9565b6101ec7f000000000000000000000000000000000000000000000000000000000000000081565b6101c46102c23660046114e0565b610737565b6101c46102d53660046113f5565b61077a565b6101c46102e8366004611526565b6107c3565b6101c46102fb3660046114e0565b6107e7565b6101c461030e36600461158e565b61082a565b6101c4610321366004611632565b6108a4565b6101c461033436600461166f565b610910565b6101c46103473660046116ba565b61097f565b6101c461035a3660046116ef565b6109c2565b6101c461036d3660046117fb565b610a0a565b6101c4610380366004611006565b610a4d565b6101c4610393366004611996565b610a8f565b6101c46103a6366004611451565b610aec565b6101c46103b93660046119cf565b610b35565b6101c46103cc366004611aaf565b610b78565b6101c46103df366004611b0c565b610be1565b6101c46103f2366004611be0565b610c71565b6101c4610405366004611c12565b610cc8565b6101c4610418366004611451565b610d22565b6101c461042b3660046114e0565b610d6b565b6101c461043e366004611c34565b610dae565b6101c4610451366004611c76565b610df5565b6101c46104643660046114e0565b610e4e565b6101c4610477366004611c34565b610e6e565b6101c461048a3660046114e0565b610eb5565b6104df6040516020016104a190611ca9565b604051602081830303815290604052805190602001206040518060400160405280600a81526020016921a7a72a2927a62622a960b11b815250610ef8565b6040518181527fa37adc857daa838329f1fb3194fe25210138201eef54e4f21a3275a0beccf649906020015b60405180910390a150565b6105286040516020016104a190611ca9565b805182848260208501a250505050565b61054a6040516020016104a190611ca9565b7f71414f25a219b1f5d60245267d183660027066e2457344a92caab48425c970bb828260405161057b929190611d46565b60405180910390a15050565b6105996040516020016104a190611ca9565b8051828486888460208701a4505050505050565b6105bf6040516020016104a190611ca9565b6040518181527fc0688adab4193f84179a2fda51c33be35f0be04eda978b688bb1a41ce2c7e8469060200161050b565b6106016040516020016104a190611ca9565b7fbbca9278ce019acfce15f1a16f85027072418bf43bbd0aecf4b456079f02632e8585858585604051610638959493929190611dea565b60405180910390a15050505050565b6106596040516020016104a190611ca9565b7fea55f8b1b145c31fda1b06deeb9c674c6b2495196f39aa279a526b152992eb058585858585604051610638959493929190611dea565b6106a26040516020016104a190611ca9565b7fd6c766414446d611e5badbb107bb048516f64c79135884c2b4e971cc93dcc52d8585858585604051610638959493929190611e1d565b6106eb6040516020016104a190611ca9565b604080518381528235602080830191909152830135818301529082013560608201527fbb09e5670edc8638406916c2998d2da7bfd015905c9c2e37634ff8346c251a0f9060800161057b565b6107496040516020016104a190611ca9565b7f40217364ea488b100789ef78a254ae64fa0849b996da5e5055a427285c6d2676828260405161057b929190611e4e565b61078c6040516020016104a190611ca9565b7f29e4f5f7c9b3d3f61ba802e6eb2f693361a13b167eb58fee22eb8150b2810df88585858585604051610638959493929190611dea565b6107d56040516020016104a190611ca9565b80518284868360208601a35050505050565b6107f96040516020016104a190611ca9565b7f661986b54cc5344ace2866bc264500acbcce980ea090b47de2562cdce775f4a6828260405161057b929190611e4e565b61083c6040516020016104a190611ca9565b886001600160a01b03168a6001600160a01b03167f8d65b9b7f211931259b88c52d0955d32ac3e8fc67b80e1f6eea5976a6b8e5c798d8b8b8b8b8b8b8b8b60405161088f99989796959493929190611e91565b60405180910390a35050505050505050505050565b6108b66040516020016104a190611ca9565b604080516001600160a01b038088168252808716602083015285169181019190915260608101839052608081018290527f9f8f8f7f8d3e0b6015c2c972b9014c73420c7b869d7dff8208a1f5ae6fbd0bd49060a001610638565b6109226040516020016104a190611ca9565b604080516001600160a01b0380871682528086166020830152841691810191909152606081018290527fd8ceba32b7e7926851e295a78eebcda8c52e4173b2ede165a396466f1a4ea292906080015b60405180910390a150505050565b6109916040516020016104a190611ca9565b7f01d072e8d92ab49a65ca35c7e0abe26ad8ee1773da47ed40b7dedd42046d7c67828260405161057b929190611f4b565b6109d46040516020016104a190611ca9565b60408051838152602081018390527fafff632165af717f6f6726697a5e9e7069340b8a930ed39b7544230a47ec5934910161057b565b610a1c6040516020016104a190611ca9565b7fb77d922f8328bfb5e65f71040880a26148ca8ca2f2e3dfdf75845bd484b13596828260405161057b929190612064565b610a5f6040516020016104a190611ca9565b6040518181527fe62bf00505a94450f807975aa95e190b09784a61d64cf3b07d27da679ff020659060200161050b565b610aa16040516020016104a190611ca9565b6040805184815260208101849052821515918101919091527f894742413c5a18f982109f79c8ff62b34a132ed076a65fb2fe412da8ce00fd5a906060015b60405180910390a1505050565b610afe6040516020016104a190611ca9565b7f6cb54443bce7666a301753c16ed1eba06c477ef3f06e4166ae4ef36c15c571528585858585604051610638959493929190611e1d565b610b476040516020016104a190611ca9565b7f132f6fc8168e0784298946dc8d32e8c1cf1ae965b82f19bfaf17245b080c5ca3828260405161057b929190612173565b610b8a6040516020016104a190611ca9565b604080516001600160a01b038716815260208101869052908101849052821515606082015281151560808201527fcd65b6b5b3133b97f770846c6e15bd5394b249d8b2f9733c982093af8681ef159060a001610638565b610bf36040516020016104a190611ca9565b88604001516001600160a01b031689602001516001600160a01b03167fb62b3780c9be38bb1594e422ae25df6131346dc207f8344ee9e97e46f97ef8168b600001518c606001518d608001518d8d8d8d8d8d8d8d604051610c5e9b9a99989796959493929190612203565b60405180910390a3505050505050505050565b610c836040516020016104a190611ca9565b6040805185815260208101859052908101839052606081018290527f6207908bb52231b7b8db48c0074b9245002c9404693f0cc84b75118911bbcc9990608001610971565b6000546001600160a01b03163314610d16576040805163a35b150b60e01b81523360048201526024810191909152600360448201526223a7ab60e91b60648201526084015b60405180910390fd5b610d1f81610fac565b50565b610d346040516020016104a190611ca9565b7fd7f148b13acc822c38719b54065a74fc41a0ceeb77a11d0fac1b6a21be3b53358585858585604051610638959493929190611e1d565b610d7d6040516020016104a190611ca9565b7fc00ba3b2997d291728cd879ef7f7a609c189da66449f56c1dca2877b46b7d5e7828260405161057b929190611e4e565b610dc06040516020016104a190611ca9565b7fe0cebb2c1e80b5fe6ba4d326f6287b299694b0fd742320b07eed21b53ab8c3cf84848484604051610971949392919061226f565b610e076040516020016104a190611ca9565b604080516001600160a01b0385168152602081018490529081018290527f7cc0b435e01d7bae9947cd4dfb73dfa6d0695526fcf6908151a6893c3c780d3a90606001610adf565b610e606040516020016104a190611ca9565b8051828160208401a1505050565b610e806040516020016104a190611ca9565b7f2c4a66296d0749e56ae853c8d48af1e0a2381d6ab6a81822337b4ad909aa846384848484604051610971949392919061226f565b610ec76040516020016104a190611ca9565b7f346e599e17955d2c2275bcc7b1b00ed80ce1c86705b5fff5c5188d208912f5da828260405161057b929190611e4e565b60405163ac4ab3fb60e01b8152336004820152602481018390527f00000000000000000000000000000000000000000000000000000000000000006001600160a01b03169063ac4ab3fb90604401602060405180830381865afa158015610f63573d6000803e3d6000fd5b505050506040513d601f19601f82011682018060405250810190610f879190612298565b610fa857338160405163a35b150b60e01b8152600401610d0d9291906122b5565b5050565b600080546001600160a01b038381166001600160a01b031983168117909355604080519190921680825260208201939093527f53351836099c03ffc3b1727d8abd4b0222afa87d4ed76ae3102d51369ef7f785910161057b565b60006020828403121561101857600080fd5b5035919050565b634e487b7160e01b600052604160045260246000fd5b604051608081016001600160401b03811182821017156110575761105761101f565b60405290565b60405160e081016001600160401b03811182821017156110575761105761101f565b60405160c081016001600160401b03811182821017156110575761105761101f565b60405160a081016001600160401b03811182821017156110575761105761101f565b604051601f8201601f191681016001600160401b03811182821017156110eb576110eb61101f565b604052919050565b600082601f83011261110457600080fd5b81356001600160401b0381111561111d5761111d61101f565b611130601f8201601f19166020016110c3565b81815284602083860101111561114557600080fd5b816020850160208301376000918101602001919091529392505050565b60008060006060848603121561117757600080fd5b833592506020840135915060408401356001600160401b0381111561119b57600080fd5b6111a7868287016110f3565b9150509250925092565b80356001600160a01b03811681146111c857600080fd5b919050565b6000608082840312156111df57600080fd5b6111e7611035565b90506111f2826111b1565b8152611200602083016111b1565b6020820152611211604083016111b1565b6040820152611222606083016111b1565b606082015292915050565b8015158114610d1f57600080fd5b60006020828403121561124d57600080fd5b604051602081016001600160401b038111828210171561126f5761126f61101f565b60405290508082356112808161122d565b905292915050565b6000806040838503121561129b57600080fd5b8235915060208301356001600160401b03808211156112b957600080fd5b908401908186036101a08112156112cf57600080fd5b6112d7611035565b6112e188856111cd565b815260e0607f19830112156112f557600080fd5b6112fd61105d565b91506080840135825260a0840135602083015260c0840135604083015260e08401356060830152610100840135608083015261012084013560a083015261014084013560c083015281602082015261135988610160860161123b565b604082015261018084013591508282111561137357600080fd5b61137f888386016110f3565b6060820152809450505050509250929050565b600080600080600060a086880312156113aa57600080fd5b8535945060208601359350604086013592506060860135915060808601356001600160401b038111156113dc57600080fd5b6113e8888289016110f3565b9150509295509295909350565b600080600080600060a0868803121561140d57600080fd5b611416866111b1565b9450611424602087016111b1565b9350611432604087016111b1565b9250611440606087016111b1565b949793965091946080013592915050565b600080600080600060a0868803121561146957600080fd5b611472866111b1565b9450611480602087016111b1565b935060408601356114908161122d565b94979396509394606081013594506080013592915050565b60008082840360808112156114bc57600080fd5b833592506060601f19820112156114d257600080fd5b506020830190509250929050565b600080604083850312156114f357600080fd5b8235915060208301356001600160401b0381111561151057600080fd5b61151c858286016110f3565b9150509250929050565b6000806000806080858703121561153c57600080fd5b84359350602085013592506040850135915060608501356001600160401b0381111561156757600080fd5b611573878288016110f3565b91505092959194509250565b8035600881106111c857600080fd5b60008060008060008060008060008060006101608c8e0312156115b057600080fd5b8b359a506115c060208d016111b1565b99506115ce60408d016111b1565b98506115dc60608d016111b1565b975060808c01356115ec8161122d565b965060a08c0135955060c08c0135945060e08c013593506101008c013592506101208c013591506116206101408d0161157f565b90509295989b509295989b9093969950565b600080600080600060a0868803121561164a57600080fd5b611653866111b1565b9450611661602087016111b1565b9350611490604087016111b1565b6000806000806080858703121561168557600080fd5b61168e856111b1565b935061169c602086016111b1565b92506116aa604086016111b1565b9396929550929360600135925050565b6000808284036102408112156116cf57600080fd5b83356116da8161122d565b9250610220601f19820112156114d257600080fd5b6000806040838503121561170257600080fd5b50508035926020909101359150565b600061010080838503121561172557600080fd5b604051908101906001600160401b03821181831017156117475761174761101f565b81604052809250833581526020840135602082015260408401356040820152606084013560608201526080840135608082015260a084013560a082015260c084013560c082015260e084013560e0820152505092915050565b6000608082840312156117b257600080fd5b6117ba611035565b90506117c58261157f565b815260208201356117d58161122d565b602082015260408201356117e88161122d565b604082015260608201356112228161122d565b6000806040838503121561180e57600080fd5b823591506020808401356001600160401b038082111561182d57600080fd5b908501906101c0828803121561184257600080fd5b61184a611035565b82358281111561185957600080fd5b830160c0818a03121561186b57600080fd5b61187361107f565b61187c826111b1565b81526118898683016111b1565b86820152611899604083016111b1565b60408201526118aa606083016111b1565b60608201526118bb608083016111b1565b608082015260a0820135848111156118d257600080fd5b80830192505089601f8301126118e757600080fd5b8135848111156118f9576118f961101f565b8060051b6119088882016110c3565b918252838101880191888101908d84111561192257600080fd5b948901945b8386101561194757611938866111b1565b82529489019490890190611927565b60a085015250505082525061195e88848601611711565b848201526119708861012085016117a0565b60408201526101a083013593508184111561198a57600080fd5b61137f888585016110f3565b6000806000606084860312156119ab57600080fd5b833592506020840135915060408401356119c48161122d565b809150509250925092565b600080604083850312156119e257600080fd5b8235915060208301356001600160401b0380821115611a0057600080fd5b90840190818603610180811215611a1657600080fd5b611a1e611035565b611a2888856111cd565b815260c0607f1983011215611a3c57600080fd5b611a4461107f565b91506080840135825260a0840135602083015260c0840135604083015260e08401356060830152610100840135608083015261012084013560a0830152816020820152611a9588610140860161123b565b604082015261016084013591508282111561137357600080fd5b600080600080600060a08688031215611ac757600080fd5b611ad0866111b1565b945060208601359350604086013592506060860135611aee8161122d565b91506080860135611afe8161122d565b809150509295509295909350565b6000806000806000806000806000898b036101a0811215611b2c57600080fd5b60a0811215611b3a57600080fd5b50611b436110a1565b8a358152611b5360208c016111b1565b6020820152611b6460408c016111b1565b6040820152611b7560608c016111b1565b606082015260808b0135611b888161122d565b6080820152985060a08a0135975060c08a0135965060e08a013595506101008a013594506101208a013593506101408a013592506101608a01359150611bd16101808b0161157f565b90509295985092959850929598565b60008060008060808587031215611bf657600080fd5b5050823594602084013594506040840135936060013592509050565b600060208284031215611c2457600080fd5b611c2d826111b1565b9392505050565b60008060008060808587031215611c4a57600080fd5b611c53856111b1565b9350611c61602086016111b1565b93969395505050506040820135916060013590565b600080600060608486031215611c8b57600080fd5b611c94846111b1565b95602085013595506040909401359392505050565b6020808252600a908201526921a7a72a2927a62622a960b11b604082015260600190565b80516001600160a01b03908116835260208083015182169084015260408083015182169084015260609182015116910152565b6000815180845260005b81811015611d2657602081850181015186830182015201611d0a565b506000602082860101526020601f19601f83011685010191505092915050565b82815260406020820152611d5e604082018351611ccd565b60006020830151805160c0840152602081015160e084015260408101516101008401526060810151610120840152608081015161014084015260a081015161016084015260c08101516101808401525060408301516101a0611dc4818501835115159052565b60608501519150806101c085015250611de16101e0840182611d00565b95945050505050565b6001600160a01b039586168152938516602085015291841660408401529092166060820152608081019190915260a00190565b6001600160a01b03958616815293909416602084015290151560408301526060820152608081019190915260a00190565b828152604060208201526000611e676040830184611d00565b949350505050565b60088110611e8d57634e487b7160e01b600052602160045260246000fd5b9052565b8981526001600160a01b03891660208201528715156040820152606081018790526080810186905260a0810185905260c0810184905260e081018390526101208101611ee1610100830184611e6f565b9a9950505050505050505050565b803582526020810135602083015260408101356040830152606081013560608301526080810135608083015260a0810135611f298161122d565b151560a083015260c0810135611f3e8161122d565b80151560c0840152505050565b821515815261024081016001600160a01b03611f66846111b1565b1660208301526020830135604083015260408301356060830152611f906080830160608501611eef565b6101606101408401358184015261018081850135818501526101a091508085013582850152506101c081850135818501526101e0915080850135828501525061020081850135818501528085013561022085015250509392505050565b600081518084526020808501945080840160005b838110156120265781516001600160a01b031687529582019590820190600101612001565b509495945050505050565b61203c828251611e6f565b6020810151151560208301526040810151151560408301526060810151151560608301525050565b8281526040602080830182905283516101c08385015280516001600160a01b039081166102008601529181015182166102208501529182015181166102408401526060820151811661026084015260808201511661028083015260a0015160c06102a08301526000906120db6102c0840182611fed565b905060208401516121386060850182805182526020810151602083015260408101516040830152606081015160608301526080810151608083015260a081015160a083015260c081015160c083015260e081015160e08301525050565b50604084015161214c610160850182612031565b506060840151838203603f19016101e08501526121698282611d00565b9695505050505050565b8281526040602082015261218b604082018351611ccd565b60006020830151805160c0840152602081015160e084015260408101516101008401526060810151610120840152608081015161014084015260a08101516101608401525060408301516101806121e6818501835115159052565b60608501519150806101a085015250611de16101c0840182611d00565b6000610160820190508c825260018060a01b038c1660208301528a151560408301528960608301528860808301528760a08301528660c08301528560e0830152846101008301528361012083015261225f610140830184611e6f565b9c9b505050505050505050505050565b6001600160a01b0394851681529290931660208301526040820152606081019190915260800190565b6000602082840312156122aa57600080fd5b8151611c2d8161122d565b6001600160a01b0383168152604060208201819052600090611e6790830184611d0056fea2646970667358221220a4cb022499b135ae5f7f86a3190a6de901cdf19af75f7212125a55e173fdc26264736f6c63430008100033",
  "linkReferences": {},
  "deployedLinkReferences": {}
}