{
  "_format": "hh-sol-artifact-1",
  "contractName": "EventEmitter",
  "sourceName": "contracts/event/EventEmitter.sol",
  "abi": [
    {
      "inputs": [
        {
          "internalType": "contract RoleStore",
          "name": "_roleStore",
          "type": "address"
        }
      ],
      "stateMutability": "nonpayable",
      "type": "constructor"
    },
    {
      "inputs": [
        {
          "internalType": "address",
          "name": "msgSender",
          "type": "address"
        },
        {
          "internalType": "string",
          "name": "role",
          "type": "string"
        }
      ],
      "name": "Unauthorized",
      "type": "error"
    },
    {
      "anonymous": false,
      "inputs": [
        {
          "indexed": false,
          "internalType": "int256",
          "name": "pnlToPoolFactor",
          "type": "int256"
        },
        {
          "indexed": false,
          "internalType": "uint256",
          "name": "maxPnlFactor",
          "type": "uint256"
        },
        {
          "indexed": false,
          "internalType": "bool",
          "name": "shouldEnableAdl",
          "type": "bool"
        }
      ],
      "name": "AdlStateUpdated",
      "type": "event"
    },
    {
      "anonymous": false,
      "inputs": [
        {
          "indexed": false,
          "internalType": "address",
          "name": "market",
          "type": "address"
        },
        {
          "indexed": false,
          "internalType": "address",
          "name": "token",
          "type": "address"
        },
        {
          "indexed": false,
          "internalType": "address",
          "name": "account",
          "type": "address"
        },
        {
          "indexed": false,
          "internalType": "address",
          "name": "receiver",
          "type": "address"
        },
        {
          "indexed": false,
          "internalType": "uint256",
          "name": "amount",
          "type": "uint256"
        }
      ],
      "name": "AffiliateRewardClaimed",
      "type": "event"
    },
    {
      "anonymous": false,
      "inputs": [
        {
          "indexed": false,
          "internalType": "address",
          "name": "market",
          "type": "address"
        },
        {
          "indexed": false,
          "internalType": "address",
          "name": "token",
          "type": "address"
        },
        {
          "indexed": false,
          "internalType": "address",
          "name": "affiliate",
          "type": "address"
        },
        {
          "indexed": false,
          "internalType": "address",
          "name": "trader",
          "type": "address"
        },
        {
          "indexed": false,
          "internalType": "uint256",
          "name": "amount",
          "type": "uint256"
        }
      ],
      "name": "AffiliateRewardEarned",
      "type": "event"
    },
    {
      "anonymous": false,
      "inputs": [
        {
          "indexed": false,
          "internalType": "address",
          "name": "market",
          "type": "address"
        },
        {
          "indexed": false,
          "internalType": "address",
          "name": "token",
          "type": "address"
        },
        {
          "indexed": false,
          "internalType": "address",
          "name": "account",
          "type": "address"
        },
        {
          "indexed": false,
          "internalType": "uint256",
          "name": "delta",
          "type": "uint256"
        },
        {
          "indexed": false,
          "internalType": "uint256",
          "name": "nextValue",
          "type": "uint256"
        }
      ],
      "name": "ClaimableFundingUpdated",
      "type": "event"
    },
    {
      "anonymous": false,
      "inputs": [
        {
          "indexed": false,
          "internalType": "address",
          "name": "market",
          "type": "address"
        },
        {
          "indexed": false,
          "internalType": "address",
          "name": "collateralToken",
          "type": "address"
        },
        {
          "indexed": false,
          "internalType": "bool",
          "name": "isLong",
          "type": "bool"
        },
        {
          "indexed": false,
          "internalType": "int256",
          "name": "delta",
          "type": "int256"
        },
        {
          "indexed": false,
          "internalType": "uint256",
          "name": "nextValue",
          "type": "uint256"
        }
      ],
      "name": "CollateralSumUpdated",
      "type": "event"
    },
    {
      "anonymous": false,
      "inputs": [
        {
          "indexed": false,
          "internalType": "bytes32",
          "name": "key",
          "type": "bytes32"
        },
        {
          "indexed": false,
          "internalType": "bytes",
          "name": "reason",
          "type": "bytes"
        }
      ],
      "name": "DepositCancelled",
      "type": "event"
    },
    {
      "anonymous": false,
      "inputs": [
        {
          "indexed": false,
          "internalType": "bytes32",
          "name": "key",
          "type": "bytes32"
        },
        {
          "components": [
            {
              "components": [
                {
                  "internalType": "address",
                  "name": "account",
                  "type": "address"
                },
                {
                  "internalType": "address",
                  "name": "receiver",
                  "type": "address"
                },
                {
                  "internalType": "address",
                  "name": "callbackContract",
                  "type": "address"
                },
                {
                  "internalType": "address",
                  "name": "market",
                  "type": "address"
                }
              ],
              "internalType": "struct Deposit.Addresses",
              "name": "addresses",
              "type": "tuple"
            },
            {
              "components": [
                {
                  "internalType": "uint256",
                  "name": "longTokenAmount",
                  "type": "uint256"
                },
                {
                  "internalType": "uint256",
                  "name": "shortTokenAmount",
                  "type": "uint256"
                },
                {
                  "internalType": "uint256",
                  "name": "minMarketTokens",
                  "type": "uint256"
                },
                {
                  "internalType": "uint256",
                  "name": "updatedAtBlock",
                  "type": "uint256"
                },
                {
                  "internalType": "uint256",
                  "name": "executionFee",
                  "type": "uint256"
                },
                {
                  "internalType": "uint256",
                  "name": "callbackGasLimit",
                  "type": "uint256"
                }
              ],
              "internalType": "struct Deposit.Numbers",
              "name": "numbers",
              "type": "tuple"
            },
            {
              "components": [
                {
                  "internalType": "bool",
                  "name": "shouldUnwrapNativeToken",
                  "type": "bool"
                }
              ],
              "internalType": "struct Deposit.Flags",
              "name": "flags",
              "type": "tuple"
            },
            {
              "internalType": "bytes",
              "name": "data",
              "type": "bytes"
            }
          ],
          "indexed": false,
          "internalType": "struct Deposit.Props",
          "name": "deposit",
          "type": "tuple"
        }
      ],
      "name": "DepositCreated",
      "type": "event"
    },
    {
      "anonymous": false,
      "inputs": [
        {
          "indexed": false,
          "internalType": "bytes32",
          "name": "key",
          "type": "bytes32"
        }
      ],
      "name": "DepositExecuted",
      "type": "event"
    },
    {
      "anonymous": false,
      "inputs": [
        {
          "indexed": false,
          "internalType": "address",
          "name": "market",
          "type": "address"
        },
        {
          "indexed": false,
          "internalType": "address",
          "name": "token",
          "type": "address"
        },
        {
          "indexed": false,
          "internalType": "address",
          "name": "account",
          "type": "address"
        },
        {
          "indexed": false,
          "internalType": "address",
          "name": "receiver",
          "type": "address"
        },
        {
          "indexed": false,
          "internalType": "uint256",
          "name": "amount",
          "type": "uint256"
        }
      ],
      "name": "FundingFeesClaimed",
      "type": "event"
    },
    {
      "anonymous": false,
      "inputs": [
        {
          "indexed": false,
          "internalType": "uint256",
          "name": "fundingFeeAmount",
          "type": "uint256"
        },
        {
          "indexed": false,
          "internalType": "uint256",
          "name": "collateralAmount",
          "type": "uint256"
        }
      ],
      "name": "InsufficientFundingFeePayment",
      "type": "event"
    },
    {
      "anonymous": false,
      "inputs": [
        {
          "indexed": false,
          "internalType": "address",
          "name": "market",
          "type": "address"
        },
        {
          "indexed": false,
          "internalType": "address",
          "name": "collateralToken",
          "type": "address"
        },
        {
          "indexed": false,
          "internalType": "bool",
          "name": "isLong",
          "type": "bool"
        },
        {
          "indexed": false,
          "internalType": "int256",
          "name": "delta",
          "type": "int256"
        },
        {
          "indexed": false,
          "internalType": "uint256",
          "name": "nextValue",
          "type": "uint256"
        }
      ],
      "name": "OpenInterestInTokensUpdated",
      "type": "event"
    },
    {
      "anonymous": false,
      "inputs": [
        {
          "indexed": false,
          "internalType": "address",
          "name": "market",
          "type": "address"
        },
        {
          "indexed": false,
          "internalType": "address",
          "name": "collateralToken",
          "type": "address"
        },
        {
          "indexed": false,
          "internalType": "bool",
          "name": "isLong",
          "type": "bool"
        },
        {
          "indexed": false,
          "internalType": "int256",
          "name": "delta",
          "type": "int256"
        },
        {
          "indexed": false,
          "internalType": "uint256",
          "name": "nextValue",
          "type": "uint256"
        }
      ],
      "name": "OpenInterestUpdated",
      "type": "event"
    },
    {
      "anonymous": false,
      "inputs": [
        {
          "indexed": false,
          "internalType": "address",
          "name": "token",
          "type": "address"
        },
        {
          "indexed": false,
          "internalType": "uint256",
          "name": "minPrice",
          "type": "uint256"
        },
        {
          "indexed": false,
          "internalType": "uint256",
          "name": "maxPrice",
          "type": "uint256"
        },
        {
          "indexed": false,
          "internalType": "bool",
          "name": "isPrimary",
          "type": "bool"
        },
        {
          "indexed": false,
          "internalType": "bool",
          "name": "isPriceFeed",
          "type": "bool"
        }
      ],
      "name": "OraclePriceUpdated",
      "type": "event"
    },
    {
      "anonymous": false,
      "inputs": [
        {
          "indexed": false,
          "internalType": "bytes32",
          "name": "key",
          "type": "bytes32"
        },
        {
          "indexed": false,
          "internalType": "string",
          "name": "reason",
          "type": "string"
        }
      ],
      "name": "OrderCancelled",
      "type": "event"
    },
    {
      "anonymous": false,
      "inputs": [
        {
          "indexed": false,
          "internalType": "bytes32",
          "name": "key",
          "type": "bytes32"
        },
        {
          "components": [
            {
              "components": [
                {
                  "internalType": "address",
                  "name": "account",
                  "type": "address"
                },
                {
                  "internalType": "address",
                  "name": "receiver",
                  "type": "address"
                },
                {
                  "internalType": "address",
                  "name": "callbackContract",
                  "type": "address"
                },
                {
                  "internalType": "address",
                  "name": "market",
                  "type": "address"
                },
                {
                  "internalType": "address",
                  "name": "initialCollateralToken",
                  "type": "address"
                },
                {
                  "internalType": "address[]",
                  "name": "swapPath",
                  "type": "address[]"
                }
              ],
              "internalType": "struct Order.Addresses",
              "name": "addresses",
              "type": "tuple"
            },
            {
              "components": [
                {
                  "internalType": "uint256",
                  "name": "sizeDeltaUsd",
                  "type": "uint256"
                },
                {
                  "internalType": "uint256",
                  "name": "initialCollateralDeltaAmount",
                  "type": "uint256"
                },
                {
                  "internalType": "uint256",
                  "name": "triggerPrice",
                  "type": "uint256"
                },
                {
                  "internalType": "uint256",
                  "name": "acceptablePrice",
                  "type": "uint256"
                },
                {
                  "internalType": "uint256",
                  "name": "executionFee",
                  "type": "uint256"
                },
                {
                  "internalType": "uint256",
                  "name": "callbackGasLimit",
                  "type": "uint256"
                },
                {
                  "internalType": "uint256",
                  "name": "minOutputAmount",
                  "type": "uint256"
                },
                {
                  "internalType": "uint256",
                  "name": "updatedAtBlock",
                  "type": "uint256"
                }
              ],
              "internalType": "struct Order.Numbers",
              "name": "numbers",
              "type": "tuple"
            },
            {
              "components": [
                {
                  "internalType": "enum Order.OrderType",
                  "name": "orderType",
                  "type": "uint8"
                },
                {
                  "internalType": "bool",
                  "name": "isLong",
                  "type": "bool"
                },
                {
                  "internalType": "bool",
                  "name": "shouldUnwrapNativeToken",
                  "type": "bool"
                },
                {
                  "internalType": "bool",
                  "name": "isFrozen",
                  "type": "bool"
                }
              ],
              "internalType": "struct Order.Flags",
              "name": "flags",
              "type": "tuple"
            },
            {
              "internalType": "bytes",
              "name": "data",
              "type": "bytes"
            }
          ],
          "indexed": false,
          "internalType": "struct Order.Props",
          "name": "order",
          "type": "tuple"
        }
      ],
      "name": "OrderCreated",
      "type": "event"
    },
    {
      "anonymous": false,
      "inputs": [
        {
          "indexed": false,
          "internalType": "bytes32",
          "name": "key",
          "type": "bytes32"
        }
      ],
      "name": "OrderExecuted",
      "type": "event"
    },
    {
      "anonymous": false,
      "inputs": [
        {
          "indexed": false,
          "internalType": "bytes32",
          "name": "key",
          "type": "bytes32"
        },
        {
          "indexed": false,
          "internalType": "string",
          "name": "reason",
          "type": "string"
        }
      ],
      "name": "OrderFrozen",
      "type": "event"
    },
    {
      "anonymous": false,
      "inputs": [
        {
          "indexed": false,
          "internalType": "bytes32",
          "name": "key",
          "type": "bytes32"
        },
        {
          "indexed": false,
          "internalType": "uint256",
          "name": "sizeDeltaUsd",
          "type": "uint256"
        },
        {
          "indexed": false,
          "internalType": "uint256",
          "name": "triggerPrice",
          "type": "uint256"
        },
        {
          "indexed": false,
          "internalType": "uint256",
          "name": "acceptablePrice",
          "type": "uint256"
        }
      ],
      "name": "OrderUpdated",
      "type": "event"
    },
    {
      "anonymous": false,
      "inputs": [
        {
          "indexed": false,
          "internalType": "address",
          "name": "market",
          "type": "address"
        },
        {
          "indexed": false,
          "internalType": "address",
          "name": "token",
          "type": "address"
        },
        {
          "indexed": false,
          "internalType": "int256",
          "name": "delta",
          "type": "int256"
        },
        {
          "indexed": false,
          "internalType": "uint256",
          "name": "nextValue",
          "type": "uint256"
        }
      ],
      "name": "PoolAmountUpdated",
      "type": "event"
    },
    {
      "anonymous": false,
      "inputs": [
        {
          "indexed": false,
          "internalType": "bytes32",
          "name": "key",
          "type": "bytes32"
        },
        {
          "indexed": true,
          "internalType": "address",
          "name": "account",
          "type": "address"
        },
        {
          "indexed": true,
          "internalType": "address",
          "name": "market",
          "type": "address"
        },
        {
          "indexed": false,
          "internalType": "address",
          "name": "collateralToken",
          "type": "address"
        },
        {
          "indexed": false,
          "internalType": "bool",
          "name": "isLong",
          "type": "bool"
        },
        {
          "indexed": false,
          "internalType": "uint256",
          "name": "executionPrice",
          "type": "uint256"
        },
        {
          "indexed": false,
          "internalType": "uint256",
          "name": "sizeDeltaInUsd",
          "type": "uint256"
        },
        {
          "indexed": false,
          "internalType": "int256",
          "name": "collateralDeltaAmount",
          "type": "int256"
        },
        {
          "indexed": false,
          "internalType": "int256",
          "name": "positionPnlUsd",
          "type": "int256"
        },
        {
          "indexed": false,
          "internalType": "int256",
          "name": "pnlAmountForPool",
          "type": "int256"
        },
        {
          "indexed": false,
          "internalType": "int256",
          "name": "remainingCollateralAmount",
          "type": "int256"
        },
        {
          "indexed": false,
          "internalType": "uint256",
          "name": "outputAmount",
          "type": "uint256"
        }
      ],
      "name": "PositionDecrease",
      "type": "event"
    },
    {
      "anonymous": false,
      "inputs": [
        {
          "indexed": false,
          "internalType": "bool",
          "name": "isIncrease",
          "type": "bool"
        },
        {
          "components": [
            {
              "components": [
                {
                  "internalType": "address",
                  "name": "affiliate",
                  "type": "address"
                },
                {
                  "internalType": "uint256",
                  "name": "traderDiscountAmount",
                  "type": "uint256"
                },
                {
                  "internalType": "uint256",
                  "name": "affiliateRewardAmount",
                  "type": "uint256"
                }
              ],
              "internalType": "struct PositionPricingUtils.PositionReferralFees",
              "name": "referral",
              "type": "tuple"
            },
            {
              "components": [
                {
                  "internalType": "uint256",
                  "name": "fundingFeeAmount",
                  "type": "uint256"
                },
                {
                  "internalType": "int256",
                  "name": "latestLongTokenFundingAmountPerSize",
                  "type": "int256"
                },
                {
                  "internalType": "int256",
                  "name": "latestShortTokenFundingAmountPerSize",
                  "type": "int256"
                },
                {
                  "internalType": "int256",
                  "name": "longTokenFundingFeeAmount",
                  "type": "int256"
                },
                {
                  "internalType": "int256",
                  "name": "shortTokenFundingFeeAmount",
                  "type": "int256"
                },
                {
                  "internalType": "bool",
                  "name": "hasPendingLongTokenFundingFee",
                  "type": "bool"
                },
                {
                  "internalType": "bool",
                  "name": "hasPendingShortTokenFundingFee",
                  "type": "bool"
                }
              ],
              "internalType": "struct PositionPricingUtils.PositionFundingFees",
              "name": "funding",
              "type": "tuple"
            },
            {
              "internalType": "uint256",
              "name": "feeReceiverAmount",
              "type": "uint256"
            },
            {
              "internalType": "uint256",
              "name": "feesForPool",
              "type": "uint256"
            },
            {
              "internalType": "uint256",
              "name": "positionFeeAmountForPool",
              "type": "uint256"
            },
            {
              "internalType": "uint256",
              "name": "positionFeeAmount",
              "type": "uint256"
            },
            {
              "internalType": "uint256",
              "name": "borrowingFeeAmount",
              "type": "uint256"
            },
            {
              "internalType": "uint256",
              "name": "totalNetCostAmount",
              "type": "uint256"
            },
            {
              "internalType": "uint256",
              "name": "totalNetCostUsd",
              "type": "uint256"
            }
          ],
          "indexed": false,
          "internalType": "struct PositionPricingUtils.PositionFees",
          "name": "fees",
          "type": "tuple"
        }
      ],
      "name": "PositionFeesCollected",
      "type": "event"
    },
    {
      "anonymous": false,
      "inputs": [
        {
          "indexed": false,
          "internalType": "address",
          "name": "market",
          "type": "address"
        },
        {
          "indexed": false,
          "internalType": "int256",
          "name": "delta",
          "type": "int256"
        },
        {
          "indexed": false,
          "internalType": "uint256",
          "name": "nextValue",
          "type": "uint256"
        }
      ],
      "name": "PositionImpactPoolAmountUpdated",
      "type": "event"
    },
    {
      "anonymous": false,
      "inputs": [
        {
          "indexed": false,
          "internalType": "bytes32",
          "name": "key",
          "type": "bytes32"
        },
        {
          "indexed": true,
          "internalType": "address",
          "name": "account",
          "type": "address"
        },
        {
          "indexed": true,
          "internalType": "address",
          "name": "market",
          "type": "address"
        },
        {
          "indexed": false,
          "internalType": "address",
          "name": "collateralToken",
          "type": "address"
        },
        {
          "indexed": false,
          "internalType": "bool",
          "name": "isLong",
          "type": "bool"
        },
        {
          "indexed": false,
          "internalType": "uint256",
          "name": "executionPrice",
          "type": "uint256"
        },
        {
          "indexed": false,
          "internalType": "uint256",
          "name": "sizeDeltaInUsd",
          "type": "uint256"
        },
        {
          "indexed": false,
          "internalType": "int256",
          "name": "collateralDeltaAmount",
          "type": "int256"
        }
      ],
      "name": "PositionIncrease",
      "type": "event"
    },
    {
      "anonymous": false,
      "inputs": [
        {
          "indexed": false,
          "internalType": "address",
          "name": "prevGov",
          "type": "address"
        },
        {
          "indexed": false,
          "internalType": "address",
          "name": "nextGov",
          "type": "address"
        }
      ],
      "name": "SetGov",
      "type": "event"
    },
    {
      "anonymous": false,
      "inputs": [
        {
          "indexed": false,
          "internalType": "bytes32",
          "name": "action",
          "type": "bytes32"
        },
        {
          "components": [
            {
              "internalType": "uint256",
              "name": "feeReceiverAmount",
              "type": "uint256"
            },
            {
              "internalType": "uint256",
              "name": "feesForPool",
              "type": "uint256"
            },
            {
              "internalType": "uint256",
              "name": "amountAfterFees",
              "type": "uint256"
            }
          ],
          "indexed": false,
          "internalType": "struct SwapPricingUtils.SwapFees",
          "name": "fees",
          "type": "tuple"
        }
      ],
      "name": "SwapFeesCollected",
      "type": "event"
    },
    {
      "anonymous": false,
      "inputs": [
        {
          "indexed": false,
          "internalType": "address",
          "name": "market",
          "type": "address"
        },
        {
          "indexed": false,
          "internalType": "address",
          "name": "token",
          "type": "address"
        },
        {
          "indexed": false,
          "internalType": "int256",
          "name": "delta",
          "type": "int256"
        },
        {
          "indexed": false,
          "internalType": "uint256",
          "name": "nextValue",
          "type": "uint256"
        }
      ],
      "name": "SwapImpactPoolAmountUpdated",
      "type": "event"
    },
    {
      "anonymous": false,
      "inputs": [
        {
          "indexed": false,
          "internalType": "address",
          "name": "market",
          "type": "address"
        },
        {
          "indexed": false,
          "internalType": "address",
          "name": "token",
          "type": "address"
        },
        {
          "indexed": false,
          "internalType": "address",
          "name": "trader",
          "type": "address"
        },
        {
          "indexed": false,
          "internalType": "uint256",
          "name": "amount",
          "type": "uint256"
        }
      ],
      "name": "TraderReferralDiscountApplied",
      "type": "event"
    },
    {
      "anonymous": false,
      "inputs": [
        {
          "indexed": false,
          "internalType": "bytes32",
          "name": "key",
          "type": "bytes32"
        },
        {
          "indexed": false,
          "internalType": "bytes",
          "name": "reason",
          "type": "bytes"
        }
      ],
      "name": "WithdrawalCancelled",
      "type": "event"
    },
    {
      "anonymous": false,
      "inputs": [
        {
          "indexed": false,
          "internalType": "bytes32",
          "name": "key",
          "type": "bytes32"
        },
        {
          "components": [
            {
              "components": [
                {
                  "internalType": "address",
                  "name": "account",
                  "type": "address"
                },
                {
                  "internalType": "address",
                  "name": "receiver",
                  "type": "address"
                },
                {
                  "internalType": "address",
                  "name": "callbackContract",
                  "type": "address"
                },
                {
                  "internalType": "address",
                  "name": "market",
                  "type": "address"
                }
              ],
              "internalType": "struct Withdrawal.Addresses",
              "name": "addresses",
              "type": "tuple"
            },
            {
              "components": [
                {
                  "internalType": "uint256",
                  "name": "marketTokensLongAmount",
                  "type": "uint256"
                },
                {
                  "internalType": "uint256",
                  "name": "marketTokensShortAmount",
                  "type": "uint256"
                },
                {
                  "internalType": "uint256",
                  "name": "minLongTokenAmount",
                  "type": "uint256"
                },
                {
                  "internalType": "uint256",
                  "name": "minShortTokenAmount",
                  "type": "uint256"
                },
                {
                  "internalType": "uint256",
                  "name": "updatedAtBlock",
                  "type": "uint256"
                },
                {
                  "internalType": "uint256",
                  "name": "executionFee",
                  "type": "uint256"
                },
                {
                  "internalType": "uint256",
                  "name": "callbackGasLimit",
                  "type": "uint256"
                }
              ],
              "internalType": "struct Withdrawal.Numbers",
              "name": "numbers",
              "type": "tuple"
            },
            {
              "components": [
                {
                  "internalType": "bool",
                  "name": "shouldUnwrapNativeToken",
                  "type": "bool"
                }
              ],
              "internalType": "struct Withdrawal.Flags",
              "name": "flags",
              "type": "tuple"
            },
            {
              "internalType": "bytes",
              "name": "data",
              "type": "bytes"
            }
          ],
          "indexed": false,
          "internalType": "struct Withdrawal.Props",
          "name": "withdrawal",
          "type": "tuple"
        }
      ],
      "name": "WithdrawalCreated",
      "type": "event"
    },
    {
      "anonymous": false,
      "inputs": [
        {
          "indexed": false,
          "internalType": "bytes32",
          "name": "key",
          "type": "bytes32"
        }
      ],
      "name": "WithdrawalExecuted",
      "type": "event"
    },
    {
      "inputs": [
        {
          "internalType": "int256",
          "name": "pnlToPoolFactor",
          "type": "int256"
        },
        {
          "internalType": "uint256",
          "name": "maxPnlFactor",
          "type": "uint256"
        },
        {
          "internalType": "bool",
          "name": "shouldEnableAdl",
          "type": "bool"
        }
      ],
      "name": "emitAdlStateUpdated",
      "outputs": [],
      "stateMutability": "nonpayable",
      "type": "function"
    },
    {
      "inputs": [
        {
          "internalType": "address",
          "name": "market",
          "type": "address"
        },
        {
          "internalType": "address",
          "name": "token",
          "type": "address"
        },
        {
          "internalType": "address",
          "name": "account",
          "type": "address"
        },
        {
          "internalType": "address",
          "name": "receiver",
          "type": "address"
        },
        {
          "internalType": "uint256",
          "name": "amount",
          "type": "uint256"
        }
      ],
      "name": "emitAffiliateRewardClaimed",
      "outputs": [],
      "stateMutability": "nonpayable",
      "type": "function"
    },
    {
      "inputs": [
        {
          "internalType": "address",
          "name": "market",
          "type": "address"
        },
        {
          "internalType": "address",
          "name": "token",
          "type": "address"
        },
        {
          "internalType": "address",
          "name": "affiliate",
          "type": "address"
        },
        {
          "internalType": "address",
          "name": "trader",
          "type": "address"
        },
        {
          "internalType": "uint256",
          "name": "amount",
          "type": "uint256"
        }
      ],
      "name": "emitAffiliateRewardEarned",
      "outputs": [],
      "stateMutability": "nonpayable",
      "type": "function"
    },
    {
      "inputs": [
        {
          "internalType": "address",
          "name": "market",
          "type": "address"
        },
        {
          "internalType": "address",
          "name": "token",
          "type": "address"
        },
        {
          "internalType": "address",
          "name": "account",
          "type": "address"
        },
        {
          "internalType": "uint256",
          "name": "delta",
          "type": "uint256"
        },
        {
          "internalType": "uint256",
          "name": "nextValue",
          "type": "uint256"
        }
      ],
      "name": "emitClaimableFundingUpdated",
      "outputs": [],
      "stateMutability": "nonpayable",
      "type": "function"
    },
    {
      "inputs": [
        {
          "internalType": "address",
          "name": "market",
          "type": "address"
        },
        {
          "internalType": "address",
          "name": "collateralToken",
          "type": "address"
        },
        {
          "internalType": "bool",
          "name": "isLong",
          "type": "bool"
        },
        {
          "internalType": "int256",
          "name": "delta",
          "type": "int256"
        },
        {
          "internalType": "uint256",
          "name": "nextValue",
          "type": "uint256"
        }
      ],
      "name": "emitCollateralSumUpdated",
      "outputs": [],
      "stateMutability": "nonpayable",
      "type": "function"
    },
    {
      "inputs": [
        {
          "internalType": "bytes32",
          "name": "key",
          "type": "bytes32"
        },
        {
          "internalType": "bytes",
          "name": "reason",
          "type": "bytes"
        }
      ],
      "name": "emitDepositCancelled",
      "outputs": [],
      "stateMutability": "nonpayable",
      "type": "function"
    },
    {
      "inputs": [
        {
          "internalType": "bytes32",
          "name": "key",
          "type": "bytes32"
        },
        {
          "components": [
            {
              "components": [
                {
                  "internalType": "address",
                  "name": "account",
                  "type": "address"
                },
                {
                  "internalType": "address",
                  "name": "receiver",
                  "type": "address"
                },
                {
                  "internalType": "address",
                  "name": "callbackContract",
                  "type": "address"
                },
                {
                  "internalType": "address",
                  "name": "market",
                  "type": "address"
                }
              ],
              "internalType": "struct Deposit.Addresses",
              "name": "addresses",
              "type": "tuple"
            },
            {
              "components": [
                {
                  "internalType": "uint256",
                  "name": "longTokenAmount",
                  "type": "uint256"
                },
                {
                  "internalType": "uint256",
                  "name": "shortTokenAmount",
                  "type": "uint256"
                },
                {
                  "internalType": "uint256",
                  "name": "minMarketTokens",
                  "type": "uint256"
                },
                {
                  "internalType": "uint256",
                  "name": "updatedAtBlock",
                  "type": "uint256"
                },
                {
                  "internalType": "uint256",
                  "name": "executionFee",
                  "type": "uint256"
                },
                {
                  "internalType": "uint256",
                  "name": "callbackGasLimit",
                  "type": "uint256"
                }
              ],
              "internalType": "struct Deposit.Numbers",
              "name": "numbers",
              "type": "tuple"
            },
            {
              "components": [
                {
                  "internalType": "bool",
                  "name": "shouldUnwrapNativeToken",
                  "type": "bool"
                }
              ],
              "internalType": "struct Deposit.Flags",
              "name": "flags",
              "type": "tuple"
            },
            {
              "internalType": "bytes",
              "name": "data",
              "type": "bytes"
            }
          ],
          "internalType": "struct Deposit.Props",
          "name": "deposit",
          "type": "tuple"
        }
      ],
      "name": "emitDepositCreated",
      "outputs": [],
      "stateMutability": "nonpayable",
      "type": "function"
    },
    {
      "inputs": [
        {
          "internalType": "bytes32",
          "name": "key",
          "type": "bytes32"
        }
      ],
      "name": "emitDepositExecuted",
      "outputs": [],
      "stateMutability": "nonpayable",
      "type": "function"
    },
    {
      "inputs": [
        {
          "internalType": "address",
          "name": "market",
          "type": "address"
        },
        {
          "internalType": "address",
          "name": "token",
          "type": "address"
        },
        {
          "internalType": "address",
          "name": "account",
          "type": "address"
        },
        {
          "internalType": "address",
          "name": "receiver",
          "type": "address"
        },
        {
          "internalType": "uint256",
          "name": "amount",
          "type": "uint256"
        }
      ],
      "name": "emitFundingFeesClaimed",
      "outputs": [],
      "stateMutability": "nonpayable",
      "type": "function"
    },
    {
      "inputs": [
        {
          "internalType": "uint256",
          "name": "fundingFeeAmount",
          "type": "uint256"
        },
        {
          "internalType": "uint256",
          "name": "collateralAmount",
          "type": "uint256"
        }
      ],
      "name": "emitInsufficientFundingFeePayment",
      "outputs": [],
      "stateMutability": "nonpayable",
      "type": "function"
    },
    {
      "inputs": [
        {
          "internalType": "address",
          "name": "market",
          "type": "address"
        },
        {
          "internalType": "address",
          "name": "collateralToken",
          "type": "address"
        },
        {
          "internalType": "bool",
          "name": "isLong",
          "type": "bool"
        },
        {
          "internalType": "int256",
          "name": "delta",
          "type": "int256"
        },
        {
          "internalType": "uint256",
          "name": "nextValue",
          "type": "uint256"
        }
      ],
      "name": "emitOpenInterestInTokensUpdated",
      "outputs": [],
      "stateMutability": "nonpayable",
      "type": "function"
    },
    {
      "inputs": [
        {
          "internalType": "address",
          "name": "market",
          "type": "address"
        },
        {
          "internalType": "address",
          "name": "collateralToken",
          "type": "address"
        },
        {
          "internalType": "bool",
          "name": "isLong",
          "type": "bool"
        },
        {
          "internalType": "int256",
          "name": "delta",
          "type": "int256"
        },
        {
          "internalType": "uint256",
          "name": "nextValue",
          "type": "uint256"
        }
      ],
      "name": "emitOpenInterestUpdated",
      "outputs": [],
      "stateMutability": "nonpayable",
      "type": "function"
    },
    {
      "inputs": [
        {
          "internalType": "address",
          "name": "token",
          "type": "address"
        },
        {
          "internalType": "uint256",
          "name": "minPrice",
          "type": "uint256"
        },
        {
          "internalType": "uint256",
          "name": "maxPrice",
          "type": "uint256"
        },
        {
          "internalType": "bool",
          "name": "isPrimary",
          "type": "bool"
        },
        {
          "internalType": "bool",
          "name": "isPriceFeed",
          "type": "bool"
        }
      ],
      "name": "emitOraclePriceUpdated",
      "outputs": [],
      "stateMutability": "nonpayable",
      "type": "function"
    },
    {
      "inputs": [
        {
          "internalType": "bytes32",
          "name": "key",
          "type": "bytes32"
        },
        {
          "internalType": "string",
          "name": "reason",
          "type": "string"
        }
      ],
      "name": "emitOrderCancelled",
      "outputs": [],
      "stateMutability": "nonpayable",
      "type": "function"
    },
    {
      "inputs": [
        {
          "internalType": "bytes32",
          "name": "key",
          "type": "bytes32"
        },
        {
          "components": [
            {
              "components": [
                {
                  "internalType": "address",
                  "name": "account",
                  "type": "address"
                },
                {
                  "internalType": "address",
                  "name": "receiver",
                  "type": "address"
                },
                {
                  "internalType": "address",
                  "name": "callbackContract",
                  "type": "address"
                },
                {
                  "internalType": "address",
                  "name": "market",
                  "type": "address"
                },
                {
                  "internalType": "address",
                  "name": "initialCollateralToken",
                  "type": "address"
                },
                {
                  "internalType": "address[]",
                  "name": "swapPath",
                  "type": "address[]"
                }
              ],
              "internalType": "struct Order.Addresses",
              "name": "addresses",
              "type": "tuple"
            },
            {
              "components": [
                {
                  "internalType": "uint256",
                  "name": "sizeDeltaUsd",
                  "type": "uint256"
                },
                {
                  "internalType": "uint256",
                  "name": "initialCollateralDeltaAmount",
                  "type": "uint256"
                },
                {
                  "internalType": "uint256",
                  "name": "triggerPrice",
                  "type": "uint256"
                },
                {
                  "internalType": "uint256",
                  "name": "acceptablePrice",
                  "type": "uint256"
                },
                {
                  "internalType": "uint256",
                  "name": "executionFee",
                  "type": "uint256"
                },
                {
                  "internalType": "uint256",
                  "name": "callbackGasLimit",
                  "type": "uint256"
                },
                {
                  "internalType": "uint256",
                  "name": "minOutputAmount",
                  "type": "uint256"
                },
                {
                  "internalType": "uint256",
                  "name": "updatedAtBlock",
                  "type": "uint256"
                }
              ],
              "internalType": "struct Order.Numbers",
              "name": "numbers",
              "type": "tuple"
            },
            {
              "components": [
                {
                  "internalType": "enum Order.OrderType",
                  "name": "orderType",
                  "type": "uint8"
                },
                {
                  "internalType": "bool",
                  "name": "isLong",
                  "type": "bool"
                },
                {
                  "internalType": "bool",
                  "name": "shouldUnwrapNativeToken",
                  "type": "bool"
                },
                {
                  "internalType": "bool",
                  "name": "isFrozen",
                  "type": "bool"
                }
              ],
              "internalType": "struct Order.Flags",
              "name": "flags",
              "type": "tuple"
            },
            {
              "internalType": "bytes",
              "name": "data",
              "type": "bytes"
            }
          ],
          "internalType": "struct Order.Props",
          "name": "order",
          "type": "tuple"
        }
      ],
      "name": "emitOrderCreated",
      "outputs": [],
      "stateMutability": "nonpayable",
      "type": "function"
    },
    {
      "inputs": [
        {
          "internalType": "bytes32",
          "name": "key",
          "type": "bytes32"
        }
      ],
      "name": "emitOrderExecuted",
      "outputs": [],
      "stateMutability": "nonpayable",
      "type": "function"
    },
    {
      "inputs": [
        {
          "internalType": "bytes32",
          "name": "key",
          "type": "bytes32"
        },
        {
          "internalType": "string",
          "name": "reason",
          "type": "string"
        }
      ],
      "name": "emitOrderFrozen",
      "outputs": [],
      "stateMutability": "nonpayable",
      "type": "function"
    },
    {
      "inputs": [
        {
          "internalType": "bytes32",
          "name": "key",
          "type": "bytes32"
        },
        {
          "internalType": "uint256",
          "name": "sizeDeltaUsd",
          "type": "uint256"
        },
        {
          "internalType": "uint256",
          "name": "triggerPrice",
          "type": "uint256"
        },
        {
          "internalType": "uint256",
          "name": "acceptablePrice",
          "type": "uint256"
        }
      ],
      "name": "emitOrderUpdated",
      "outputs": [],
      "stateMutability": "nonpayable",
      "type": "function"
    },
    {
      "inputs": [
        {
          "internalType": "address",
          "name": "market",
          "type": "address"
        },
        {
          "internalType": "address",
          "name": "token",
          "type": "address"
        },
        {
          "internalType": "int256",
          "name": "delta",
          "type": "int256"
        },
        {
          "internalType": "uint256",
          "name": "nextValue",
          "type": "uint256"
        }
      ],
      "name": "emitPoolAmountUpdated",
      "outputs": [],
      "stateMutability": "nonpayable",
      "type": "function"
    },
    {
      "inputs": [
        {
          "internalType": "bytes32",
          "name": "key",
          "type": "bytes32"
        },
        {
          "internalType": "address",
          "name": "account",
          "type": "address"
        },
        {
          "internalType": "address",
          "name": "market",
          "type": "address"
        },
        {
          "internalType": "address",
          "name": "collateralToken",
          "type": "address"
        },
        {
          "internalType": "bool",
          "name": "isLong",
          "type": "bool"
        },
        {
          "internalType": "uint256",
          "name": "executionPrice",
          "type": "uint256"
        },
        {
          "internalType": "uint256",
          "name": "sizeDeltaUsd",
          "type": "uint256"
        },
        {
          "internalType": "int256",
          "name": "collateralDeltaAmount",
          "type": "int256"
        },
        {
          "internalType": "int256",
          "name": "positionPnlUsd",
          "type": "int256"
        },
        {
          "internalType": "int256",
          "name": "pnlAmountForPool",
          "type": "int256"
        },
        {
          "internalType": "int256",
          "name": "remainingCollateralAmount",
          "type": "int256"
        },
        {
          "internalType": "uint256",
          "name": "outputAmount",
          "type": "uint256"
        }
      ],
      "name": "emitPositionDecrease",
      "outputs": [],
      "stateMutability": "nonpayable",
      "type": "function"
    },
    {
      "inputs": [
        {
          "internalType": "bool",
          "name": "isIncrease",
          "type": "bool"
        },
        {
          "components": [
            {
              "components": [
                {
                  "internalType": "address",
                  "name": "affiliate",
                  "type": "address"
                },
                {
                  "internalType": "uint256",
                  "name": "traderDiscountAmount",
                  "type": "uint256"
                },
                {
                  "internalType": "uint256",
                  "name": "affiliateRewardAmount",
                  "type": "uint256"
                }
              ],
              "internalType": "struct PositionPricingUtils.PositionReferralFees",
              "name": "referral",
              "type": "tuple"
            },
            {
              "components": [
                {
                  "internalType": "uint256",
                  "name": "fundingFeeAmount",
                  "type": "uint256"
                },
                {
                  "internalType": "int256",
                  "name": "latestLongTokenFundingAmountPerSize",
                  "type": "int256"
                },
                {
                  "internalType": "int256",
                  "name": "latestShortTokenFundingAmountPerSize",
                  "type": "int256"
                },
                {
                  "internalType": "int256",
                  "name": "longTokenFundingFeeAmount",
                  "type": "int256"
                },
                {
                  "internalType": "int256",
                  "name": "shortTokenFundingFeeAmount",
                  "type": "int256"
                },
                {
                  "internalType": "bool",
                  "name": "hasPendingLongTokenFundingFee",
                  "type": "bool"
                },
                {
                  "internalType": "bool",
                  "name": "hasPendingShortTokenFundingFee",
                  "type": "bool"
                }
              ],
              "internalType": "struct PositionPricingUtils.PositionFundingFees",
              "name": "funding",
              "type": "tuple"
            },
            {
              "internalType": "uint256",
              "name": "feeReceiverAmount",
              "type": "uint256"
            },
            {
              "internalType": "uint256",
              "name": "feesForPool",
              "type": "uint256"
            },
            {
              "internalType": "uint256",
              "name": "positionFeeAmountForPool",
              "type": "uint256"
            },
            {
              "internalType": "uint256",
              "name": "positionFeeAmount",
              "type": "uint256"
            },
            {
              "internalType": "uint256",
              "name": "borrowingFeeAmount",
              "type": "uint256"
            },
            {
              "internalType": "uint256",
              "name": "totalNetCostAmount",
              "type": "uint256"
            },
            {
              "internalType": "uint256",
              "name": "totalNetCostUsd",
              "type": "uint256"
            }
          ],
          "internalType": "struct PositionPricingUtils.PositionFees",
          "name": "fees",
          "type": "tuple"
        }
      ],
      "name": "emitPositionFeesCollected",
      "outputs": [],
      "stateMutability": "nonpayable",
      "type": "function"
    },
    {
      "inputs": [
        {
          "internalType": "address",
          "name": "market",
          "type": "address"
        },
        {
          "internalType": "int256",
          "name": "delta",
          "type": "int256"
        },
        {
          "internalType": "uint256",
          "name": "nextValue",
          "type": "uint256"
        }
      ],
      "name": "emitPositionImpactPoolAmountUpdated",
      "outputs": [],
      "stateMutability": "nonpayable",
      "type": "function"
    },
    {
      "inputs": [
        {
          "internalType": "bytes32",
          "name": "key",
          "type": "bytes32"
        },
        {
          "internalType": "address",
          "name": "account",
          "type": "address"
        },
        {
          "internalType": "address",
          "name": "market",
          "type": "address"
        },
        {
          "internalType": "address",
          "name": "collateralToken",
          "type": "address"
        },
        {
          "internalType": "bool",
          "name": "isLong",
          "type": "bool"
        },
        {
          "internalType": "uint256",
          "name": "executionPrice",
          "type": "uint256"
        },
        {
          "internalType": "uint256",
          "name": "sizeDeltaUsd",
          "type": "uint256"
        },
        {
          "internalType": "int256",
          "name": "collateralDeltaAmount",
          "type": "int256"
        }
      ],
      "name": "emitPositionIncrease",
      "outputs": [],
      "stateMutability": "nonpayable",
      "type": "function"
    },
    {
      "inputs": [
        {
          "internalType": "bytes32",
          "name": "action",
          "type": "bytes32"
        },
        {
          "components": [
            {
              "internalType": "uint256",
              "name": "feeReceiverAmount",
              "type": "uint256"
            },
            {
              "internalType": "uint256",
              "name": "feesForPool",
              "type": "uint256"
            },
            {
              "internalType": "uint256",
              "name": "amountAfterFees",
              "type": "uint256"
            }
          ],
          "internalType": "struct SwapPricingUtils.SwapFees",
          "name": "fees",
          "type": "tuple"
        }
      ],
      "name": "emitSwapFeesCollected",
      "outputs": [],
      "stateMutability": "nonpayable",
      "type": "function"
    },
    {
      "inputs": [
        {
          "internalType": "address",
          "name": "market",
          "type": "address"
        },
        {
          "internalType": "address",
          "name": "token",
          "type": "address"
        },
        {
          "internalType": "int256",
          "name": "delta",
          "type": "int256"
        },
        {
          "internalType": "uint256",
          "name": "nextValue",
          "type": "uint256"
        }
      ],
      "name": "emitSwapImpactPoolAmountUpdated",
      "outputs": [],
      "stateMutability": "nonpayable",
      "type": "function"
    },
    {
      "inputs": [
        {
          "internalType": "address",
          "name": "market",
          "type": "address"
        },
        {
          "internalType": "address",
          "name": "token",
          "type": "address"
        },
        {
          "internalType": "address",
          "name": "trader",
          "type": "address"
        },
        {
          "internalType": "uint256",
          "name": "amount",
          "type": "uint256"
        }
      ],
      "name": "emitTraderReferralDiscountApplied",
      "outputs": [],
      "stateMutability": "nonpayable",
      "type": "function"
    },
    {
      "inputs": [
        {
          "internalType": "bytes32",
          "name": "key",
          "type": "bytes32"
        },
        {
          "internalType": "bytes",
          "name": "reason",
          "type": "bytes"
        }
      ],
      "name": "emitWithdrawalCancelled",
      "outputs": [],
      "stateMutability": "nonpayable",
      "type": "function"
    },
    {
      "inputs": [
        {
          "internalType": "bytes32",
          "name": "key",
          "type": "bytes32"
        },
        {
          "components": [
            {
              "components": [
                {
                  "internalType": "address",
                  "name": "account",
                  "type": "address"
                },
                {
                  "internalType": "address",
                  "name": "receiver",
                  "type": "address"
                },
                {
                  "internalType": "address",
                  "name": "callbackContract",
                  "type": "address"
                },
                {
                  "internalType": "address",
                  "name": "market",
                  "type": "address"
                }
              ],
              "internalType": "struct Withdrawal.Addresses",
              "name": "addresses",
              "type": "tuple"
            },
            {
              "components": [
                {
                  "internalType": "uint256",
                  "name": "marketTokensLongAmount",
                  "type": "uint256"
                },
                {
                  "internalType": "uint256",
                  "name": "marketTokensShortAmount",
                  "type": "uint256"
                },
                {
                  "internalType": "uint256",
                  "name": "minLongTokenAmount",
                  "type": "uint256"
                },
                {
                  "internalType": "uint256",
                  "name": "minShortTokenAmount",
                  "type": "uint256"
                },
                {
                  "internalType": "uint256",
                  "name": "updatedAtBlock",
                  "type": "uint256"
                },
                {
                  "internalType": "uint256",
                  "name": "executionFee",
                  "type": "uint256"
                },
                {
                  "internalType": "uint256",
                  "name": "callbackGasLimit",
                  "type": "uint256"
                }
              ],
              "internalType": "struct Withdrawal.Numbers",
              "name": "numbers",
              "type": "tuple"
            },
            {
              "components": [
                {
                  "internalType": "bool",
                  "name": "shouldUnwrapNativeToken",
                  "type": "bool"
                }
              ],
              "internalType": "struct Withdrawal.Flags",
              "name": "flags",
              "type": "tuple"
            },
            {
              "internalType": "bytes",
              "name": "data",
              "type": "bytes"
            }
          ],
          "internalType": "struct Withdrawal.Props",
          "name": "withdrawal",
          "type": "tuple"
        }
      ],
      "name": "emitWithdrawalCreated",
      "outputs": [],
      "stateMutability": "nonpayable",
      "type": "function"
    },
    {
      "inputs": [
        {
          "internalType": "bytes32",
          "name": "key",
          "type": "bytes32"
        }
      ],
      "name": "emitWithdrawalExecuted",
      "outputs": [],
      "stateMutability": "nonpayable",
      "type": "function"
    },
    {
      "inputs": [],
      "name": "gov",
      "outputs": [
        {
          "internalType": "address",
          "name": "",
          "type": "address"
        }
      ],
      "stateMutability": "view",
      "type": "function"
    },
    {
      "inputs": [
        {
          "internalType": "bytes32",
          "name": "topic1",
          "type": "bytes32"
        },
        {
          "internalType": "bytes",
          "name": "data",
          "type": "bytes"
        }
      ],
      "name": "log1",
      "outputs": [],
      "stateMutability": "nonpayable",
      "type": "function"
    },
    {
      "inputs": [
        {
          "internalType": "bytes32",
          "name": "topic1",
          "type": "bytes32"
        },
        {
          "internalType": "bytes32",
          "name": "topic2",
          "type": "bytes32"
        },
        {
          "internalType": "bytes",
          "name": "data",
          "type": "bytes"
        }
      ],
      "name": "log2",
      "outputs": [],
      "stateMutability": "nonpayable",
      "type": "function"
    },
    {
      "inputs": [
        {
          "internalType": "bytes32",
          "name": "topic1",
          "type": "bytes32"
        },
        {
          "internalType": "bytes32",
          "name": "topic2",
          "type": "bytes32"
        },
        {
          "internalType": "bytes32",
          "name": "topic3",
          "type": "bytes32"
        },
        {
          "internalType": "bytes",
          "name": "data",
          "type": "bytes"
        }
      ],
      "name": "log3",
      "outputs": [],
      "stateMutability": "nonpayable",
      "type": "function"
    },
    {
      "inputs": [
        {
          "internalType": "bytes32",
          "name": "topic1",
          "type": "bytes32"
        },
        {
          "internalType": "bytes32",
          "name": "topic2",
          "type": "bytes32"
        },
        {
          "internalType": "bytes32",
          "name": "topic3",
          "type": "bytes32"
        },
        {
          "internalType": "bytes32",
          "name": "topic4",
          "type": "bytes32"
        },
        {
          "internalType": "bytes",
          "name": "data",
          "type": "bytes"
        }
      ],
      "name": "log4",
      "outputs": [],
      "stateMutability": "nonpayable",
      "type": "function"
    },
    {
      "inputs": [],
      "name": "roleStore",
      "outputs": [
        {
          "internalType": "contract RoleStore",
          "name": "",
          "type": "address"
        }
      ],
      "stateMutability": "view",
      "type": "function"
    },
    {
      "inputs": [
        {
          "internalType": "address",
          "name": "_gov",
          "type": "address"
        }
      ],
      "name": "setGov",
      "outputs": [],
      "stateMutability": "nonpayable",
      "type": "function"
    }
  ],
  "bytecode": "0x60a06040523480156200001157600080fd5b5060405162002330380380620023308339810160408190526200003491620000b4565b80620000403362000053565b6001600160a01b031660805250620000e6565b600080546001600160a01b038381166001600160a01b031983168117909355604080519190921680825260208201939093527f53351836099c03ffc3b1727d8abd4b0222afa87d4ed76ae3102d51369ef7f785910160405180910390a15050565b600060208284031215620000c757600080fd5b81516001600160a01b0381168114620000df57600080fd5b9392505050565b60805161222762000109600039600081816102b80152610f3301526122276000f3fe608060405234801561001057600080fd5b50600436106101ac5760003560e01c80630380fb79146101b15780631069eb21146101c657806312d43a51146101d957806314a4df2d14610208578063174895931461021b5780631d2742b31461022e578063233737131461024157806325bb64411461025457806337bf7bff146102675780633be4b1591461027a5780633df204591461028d57806347a3b493146102a05780634a4a7b04146102b35780634f19a220146102da578063661fa914146102ed5780636803aec014610300578063683bf79a146103135780636d1896c61461032657806379be1297146103395780637ea09cb61461034c57806390fc68f11461035f5780639fb90ed014610372578063a288b78014610385578063b167682114610398578063b1daa3f7146103ab578063b4a1b4a1146103be578063be3121bc146103d1578063c2b7f0e3146103e4578063cdccb99d146103f7578063cfad57a21461040a578063d555df611461041d578063eb59c7c114610430578063ecccd30314610443578063f670c91e14610456578063f79a52b714610469578063fb43e0ce1461047c575b600080fd5b6101c46101bf366004611025565b61048f565b005b6101c46101d436600461116e565b610516565b6000546101ec906001600160a01b031681565b6040516001600160a01b03909116815260200160405180910390f35b6101c46102163660046111bd565b610538565b6101c46102293660046112ee565b610587565b6101c461023c3660046113f8565b6105ca565b6101c461024f366004611025565b6105f0565b6101c461026236600461145b565b610632565b6101c46102753660046114fc565b6106d8565b6101c46102883660046114fc565b610730565b6101c461029b366004611558565b610779565b6101c46102ae3660046115af565b6107c2565b6101ec7f000000000000000000000000000000000000000000000000000000000000000081565b6101c46102e83660046115e7565b610820565b6101c46102fb3660046111bd565b6108a3565b6101c461030e3660046114fc565b6108e6565b6101c4610321366004611662565b61092f565b6101c46103343660046116bb565b610953565b6101c46103473660046116f7565b610996565b6101c461035a366004611734565b610a02565b6101c461036d36600461177f565b610a71565b6101c46103803660046117a1565b610ab9565b6101c46103933660046118c6565b610afc565b6101c46103a6366004611025565b610b3f565b6101c46103b9366004611a61565b610b81565b6101c46103cc366004611558565b610bde565b6101c46103df366004611a9a565b610c27565b6101c46103f2366004611b7a565b610c6a565b6101c4610405366004611bd7565b610cd3565b6101c4610418366004611c09565b610d2a565b6101c461042b366004611558565b610d84565b6101c461043e366004611c24565b610dcd565b6101c4610451366004611c66565b610e14565b6101c46104643660046116bb565b610e6d565b6101c4610477366004611c24565b610e8d565b6101c461048a3660046116bb565b610ed4565b6104df6040516020016104a190611c99565b604051602081830303815290604052805190602001206040518060400160405280600a81526020016921a7a72a2927a62622a960b11b815250610f17565b6040518181527fa37adc857daa838329f1fb3194fe25210138201eef54e4f21a3275a0beccf649906020015b60405180910390a150565b6105286040516020016104a190611c99565b805182848260208501a250505050565b61054a6040516020016104a190611c99565b7f386c4fc2fe51e17dd0f7b5bb6d38fca3a652d4e6fbcfa1a93283034acdc5843a828260405161057b929190611d03565b60405180910390a15050565b6105996040516020016104a190611c99565b7f71414f25a219b1f5d60245267d183660027066e2457344a92caab48425c970bb828260405161057b929190611d57565b6105dc6040516020016104a190611c99565b8051828486888460208701a4505050505050565b6106026040516020016104a190611c99565b6040518181527fc0688adab4193f84179a2fda51c33be35f0be04eda978b688bb1a41ce2c7e8469060200161050b565b6106446040516020016104a190611c99565b604080518d81526001600160a01b038b811660208301528a151582840152606082018a90526080820189905260a0820188905260c0820187905260e082018690526101008201859052610120820184905291518c8316928e16917fd737ff7a52ba0989ed1f19fea720e7cebcf01c5c8ab86c2a53fee3a2b29ef5e991908190036101400190a3505050505050505050505050565b6106ea6040516020016104a190611c99565b7fbbca9278ce019acfce15f1a16f85027072418bf43bbd0aecf4b456079f02632e8585858585604051610721959493929190611dfb565b60405180910390a15050505050565b6107426040516020016104a190611c99565b7fea55f8b1b145c31fda1b06deeb9c674c6b2495196f39aa279a526b152992eb058585858585604051610721959493929190611dfb565b61078b6040516020016104a190611c99565b7fd6c766414446d611e5badbb107bb048516f64c79135884c2b4e971cc93dcc52d8585858585604051610721959493929190611e2e565b6107d46040516020016104a190611c99565b604080518381528235602080830191909152830135818301529082013560608201527fbb09e5670edc8638406916c2998d2da7bfd015905c9c2e37634ff8346c251a0f9060800161057b565b6108326040516020016104a190611c99565b604080518981526001600160a01b03878116602083015286151582840152606082018690526080820185905260a082018490529151888316928a16917f3363093fcbd929b3334b687c013b2e3c091f042cda7ae08621b9e570fdaba029919081900360c00190a35050505050505050565b6108b56040516020016104a190611c99565b7fbbb7c10fb3500484418b8ffead9c5cd13270ecf3bd9a2ae8efb61043ef66c8f9828260405161057b929190611d03565b6108f86040516020016104a190611c99565b7f29e4f5f7c9b3d3f61ba802e6eb2f693361a13b167eb58fee22eb8150b2810df88585858585604051610721959493929190611dfb565b6109416040516020016104a190611c99565b80518284868360208601a35050505050565b6109656040516020016104a190611c99565b7f661986b54cc5344ace2866bc264500acbcce980ea090b47de2562cdce775f4a6828260405161057b929190611d03565b6109a86040516020016104a190611c99565b604080516001600160a01b038088168252808716602083015285169181019190915260608101839052608081018290527f9f8f8f7f8d3e0b6015c2c972b9014c73420c7b869d7dff8208a1f5ae6fbd0bd49060a001610721565b610a146040516020016104a190611c99565b604080516001600160a01b0380871682528086166020830152841691810191909152606081018290527fd8ceba32b7e7926851e295a78eebcda8c52e4173b2ede165a396466f1a4ea292906080015b60405180910390a150505050565b610a836040516020016104a190611c99565b60408051838152602081018390527fafff632165af717f6f6726697a5e9e7069340b8a930ed39b7544230a47ec5934910161057b565b610acb6040516020016104a190611c99565b7f078e639e7f6729fd51c3efd8f73fb07d7035dfa38392ab6dbe8e3568ecf5da21828260405161057b929190611ebb565b610b0e6040516020016104a190611c99565b7fb77d922f8328bfb5e65f71040880a26148ca8ca2f2e3dfdf75845bd484b13596828260405161057b929190611fe8565b610b516040516020016104a190611c99565b6040518181527fe62bf00505a94450f807975aa95e190b09784a61d64cf3b07d27da679ff020659060200161050b565b610b936040516020016104a190611c99565b6040805184815260208101849052821515918101919091527f894742413c5a18f982109f79c8ff62b34a132ed076a65fb2fe412da8ce00fd5a906060015b60405180910390a1505050565b610bf06040516020016104a190611c99565b7f6cb54443bce7666a301753c16ed1eba06c477ef3f06e4166ae4ef36c15c571528585858585604051610721959493929190611e2e565b610c396040516020016104a190611c99565b7f132f6fc8168e0784298946dc8d32e8c1cf1ae965b82f19bfaf17245b080c5ca3828260405161057b9291906120f7565b610c7c6040516020016104a190611c99565b604080516001600160a01b038716815260208101869052908101849052821515606082015281151560808201527fcd65b6b5b3133b97f770846c6e15bd5394b249d8b2f9733c982093af8681ef159060a001610721565b610ce56040516020016104a190611c99565b6040805185815260208101859052908101839052606081018290527f6207908bb52231b7b8db48c0074b9245002c9404693f0cc84b75118911bbcc9990608001610a63565b6000546001600160a01b03163314610d78576040805163a35b150b60e01b81523360048201526024810191909152600360448201526223a7ab60e91b60648201526084015b60405180910390fd5b610d8181610fcb565b50565b610d966040516020016104a190611c99565b7fd7f148b13acc822c38719b54065a74fc41a0ceeb77a11d0fac1b6a21be3b53358585858585604051610721959493929190611e2e565b610ddf6040516020016104a190611c99565b7fe0cebb2c1e80b5fe6ba4d326f6287b299694b0fd742320b07eed21b53ab8c3cf84848484604051610a639493929190612187565b610e266040516020016104a190611c99565b604080516001600160a01b0385168152602081018490529081018290527f7cc0b435e01d7bae9947cd4dfb73dfa6d0695526fcf6908151a6893c3c780d3a90606001610bd1565b610e7f6040516020016104a190611c99565b8051828160208401a1505050565b610e9f6040516020016104a190611c99565b7f2c4a66296d0749e56ae853c8d48af1e0a2381d6ab6a81822337b4ad909aa846384848484604051610a639493929190612187565b610ee66040516020016104a190611c99565b7f346e599e17955d2c2275bcc7b1b00ed80ce1c86705b5fff5c5188d208912f5da828260405161057b929190611d03565b60405163ac4ab3fb60e01b8152336004820152602481018390527f00000000000000000000000000000000000000000000000000000000000000006001600160a01b03169063ac4ab3fb90604401602060405180830381865afa158015610f82573d6000803e3d6000fd5b505050506040513d601f19601f82011682018060405250810190610fa691906121b0565b610fc757338160405163a35b150b60e01b8152600401610d6f9291906121cd565b5050565b600080546001600160a01b038381166001600160a01b031983168117909355604080519190921680825260208201939093527f53351836099c03ffc3b1727d8abd4b0222afa87d4ed76ae3102d51369ef7f785910161057b565b60006020828403121561103757600080fd5b5035919050565b634e487b7160e01b600052604160045260246000fd5b604051608081016001600160401b03811182821017156110765761107661103e565b60405290565b60405160e081016001600160401b03811182821017156110765761107661103e565b60405160c081016001600160401b03811182821017156110765761107661103e565b604051601f8201601f191681016001600160401b03811182821017156110e8576110e861103e565b604052919050565b60006001600160401b038311156111095761110961103e565b61111c601f8401601f19166020016110c0565b905082815283838301111561113057600080fd5b828260208301376000602084830101529392505050565b600082601f83011261115857600080fd5b611167838335602085016110f0565b9392505050565b60008060006060848603121561118357600080fd5b833592506020840135915060408401356001600160401b038111156111a757600080fd5b6111b386828701611147565b9150509250925092565b600080604083850312156111d057600080fd5b8235915060208301356001600160401b038111156111ed57600080fd5b8301601f810185136111fe57600080fd5b61120d858235602084016110f0565b9150509250929050565b80356001600160a01b038116811461122e57600080fd5b919050565b60006080828403121561124557600080fd5b61124d611054565b905061125882611217565b815261126660208301611217565b602082015261127760408301611217565b604082015261128860608301611217565b606082015292915050565b8015158114610d8157600080fd5b6000602082840312156112b357600080fd5b604051602081016001600160401b03811182821017156112d5576112d561103e565b60405290508082356112e681611293565b905292915050565b6000806040838503121561130157600080fd5b8235915060208301356001600160401b038082111561131f57600080fd5b908401908186036101a081121561133557600080fd5b61133d611054565b6113478885611233565b815260e0607f198301121561135b57600080fd5b61136361107c565b91506080840135825260a0840135602083015260c0840135604083015260e08401356060830152610100840135608083015261012084013560a083015261014084013560c08301528160208201526113bf8861016086016112a1565b60408201526101808401359150828211156113d957600080fd5b6113e588838601611147565b6060820152809450505050509250929050565b600080600080600060a0868803121561141057600080fd5b8535945060208601359350604086013592506060860135915060808601356001600160401b0381111561144257600080fd5b61144e88828901611147565b9150509295509295909350565b6000806000806000806000806000806000806101808d8f03121561147e57600080fd5b8c359b5061148e60208e01611217565b9a5061149c60408e01611217565b99506114aa60608e01611217565b985060808d01356114ba81611293565b9b9e9a9d50989b979a9960a0890135995060c08901359860e0810135985061010081013597506101208101359650610140810135955061016001359350915050565b600080600080600060a0868803121561151457600080fd5b61151d86611217565b945061152b60208701611217565b935061153960408701611217565b925061154760608701611217565b949793965091946080013592915050565b600080600080600060a0868803121561157057600080fd5b61157986611217565b945061158760208701611217565b9350604086013561159781611293565b94979396509394606081013594506080013592915050565b60008082840360808112156115c357600080fd5b833592506060601f19820112156115d957600080fd5b506020830190509250929050565b600080600080600080600080610100898b03121561160457600080fd5b8835975061161460208a01611217565b965061162260408a01611217565b955061163060608a01611217565b9450608089013561164081611293565b979a969950949793969560a0850135955060c08501359460e001359350915050565b6000806000806080858703121561167857600080fd5b84359350602085013592506040850135915060608501356001600160401b038111156116a357600080fd5b6116af87828801611147565b91505092959194509250565b600080604083850312156116ce57600080fd5b8235915060208301356001600160401b038111156116eb57600080fd5b61120d85828601611147565b600080600080600060a0868803121561170f57600080fd5b61171886611217565b945061172660208701611217565b935061159760408701611217565b6000806000806080858703121561174a57600080fd5b61175385611217565b935061176160208601611217565b925061176f60408601611217565b9396929550929360600135925050565b6000806040838503121561179257600080fd5b50508035926020909101359150565b6000808284036102408112156117b657600080fd5b83356117c181611293565b9250610220601f19820112156115d957600080fd5b60006101008083850312156117ea57600080fd5b604051908101906001600160401b038211818310171561180c5761180c61103e565b81604052809250833581526020840135602082015260408401356040820152606084013560608201526080840135608082015260a084013560a082015260c084013560c082015260e084013560e0820152505092915050565b60006080828403121561187757600080fd5b61187f611054565b905081356008811061189057600080fd5b815260208201356118a081611293565b602082015260408201356118b381611293565b6040820152606082013561128881611293565b600080604083850312156118d957600080fd5b823591506020808401356001600160401b03808211156118f857600080fd5b908501906101c0828803121561190d57600080fd5b611915611054565b82358281111561192457600080fd5b830160c0818a03121561193657600080fd5b61193e61109e565b61194782611217565b8152611954868301611217565b8682015261196460408301611217565b604082015261197560608301611217565b606082015261198660808301611217565b608082015260a08201358481111561199d57600080fd5b80830192505089601f8301126119b257600080fd5b8135848111156119c4576119c461103e565b8060051b6119d38882016110c0565b918252838101880191888101908d8411156119ed57600080fd5b948901945b83861015611a1257611a0386611217565b825294890194908901906119f2565b60a0850152505050825250611a29888486016117d6565b84820152611a3b886101208501611865565b60408201526101a0830135935081841115611a5557600080fd5b6113e588858501611147565b600080600060608486031215611a7657600080fd5b83359250602084013591506040840135611a8f81611293565b809150509250925092565b60008060408385031215611aad57600080fd5b8235915060208301356001600160401b0380821115611acb57600080fd5b90840190818603610180811215611ae157600080fd5b611ae9611054565b611af38885611233565b815260c0607f1983011215611b0757600080fd5b611b0f61109e565b91506080840135825260a0840135602083015260c0840135604083015260e08401356060830152610100840135608083015261012084013560a0830152816020820152611b608861014086016112a1565b60408201526101608401359150828211156113d957600080fd5b600080600080600060a08688031215611b9257600080fd5b611b9b86611217565b945060208601359350604086013592506060860135611bb981611293565b91506080860135611bc981611293565b809150509295509295909350565b60008060008060808587031215611bed57600080fd5b5050823594602084013594506040840135936060013592509050565b600060208284031215611c1b57600080fd5b61116782611217565b60008060008060808587031215611c3a57600080fd5b611c4385611217565b9350611c5160208601611217565b93969395505050506040820135916060013590565b600080600060608486031215611c7b57600080fd5b611c8484611217565b95602085013595506040909401359392505050565b6020808252600a908201526921a7a72a2927a62622a960b11b604082015260600190565b6000815180845260005b81811015611ce357602081850181015186830182015201611cc7565b506000602082860101526020601f19601f83011685010191505092915050565b828152604060208201526000611d1c6040830184611cbd565b949350505050565b80516001600160a01b03908116835260208083015182169084015260408083015182169084015260609182015116910152565b82815260406020820152611d6f604082018351611d24565b60006020830151805160c0840152602081015160e084015260408101516101008401526060810151610120840152608081015161014084015260a081015161016084015260c08101516101808401525060408301516101a0611dd5818501835115159052565b60608501519150806101c085015250611df26101e0840182611cbd565b95945050505050565b6001600160a01b039586168152938516602085015291841660408401529092166060820152608081019190915260a00190565b6001600160a01b03958616815293909416602084015290151560408301526060820152608081019190915260a00190565b803582526020810135602083015260408101356040830152606081013560608301526080810135608083015260a0810135611e9981611293565b151560a083015260c0810135611eae81611293565b80151560c0840152505050565b821515815261024081016001600160a01b03611ed684611217565b1660208301526020830135604083015260408301356060830152611f006080830160608501611e5f565b6101606101408401358184015261018081850135818501526101a091508085013582850152506101c081850135818501526101e0915080850135828501525061020081850135818501528085013561022085015250509392505050565b600081518084526020808501945080840160005b83811015611f965781516001600160a01b031687529582019590820190600101611f71565b509495945050505050565b805160088110611fc157634e487b7160e01b600052602160045260246000fd5b82526020818101511515908301526040808201511515908301526060908101511515910152565b8281526040602080830182905283516101c08385015280516001600160a01b039081166102008601529181015182166102208501529182015181166102408401526060820151811661026084015260808201511661028083015260a0015160c06102a083015260009061205f6102c0840182611f5d565b905060208401516120bc6060850182805182526020810151602083015260408101516040830152606081015160608301526080810151608083015260a081015160a083015260c081015160c083015260e081015160e08301525050565b5060408401516120d0610160850182611fa1565b506060840151838203603f19016101e08501526120ed8282611cbd565b9695505050505050565b8281526040602082015261210f604082018351611d24565b60006020830151805160c0840152602081015160e084015260408101516101008401526060810151610120840152608081015161014084015260a081015161016084015250604083015161018061216a818501835115159052565b60608501519150806101a085015250611df26101c0840182611cbd565b6001600160a01b0394851681529290931660208301526040820152606081019190915260800190565b6000602082840312156121c257600080fd5b815161116781611293565b6001600160a01b0383168152604060208201819052600090611d1c90830184611cbd56fea264697066735822122003faaaaf7531cff33e58932e01e8f3e49c067bf32d3a4704477864837c96c1f364736f6c63430008100033",
  "linkReferences": {},
  "deployedLinkReferences": {}
}