{
  "_format": "hh-sol-artifact-1",
  "contractName": "EventEmitter",
  "sourceName": "contracts/event/EventEmitter.sol",
  "abi": [
    {
      "inputs": [
        {
          "internalType": "contract RoleStore",
          "name": "_roleStore",
          "type": "address"
        }
      ],
      "stateMutability": "nonpayable",
      "type": "constructor"
    },
    {
      "inputs": [
        {
          "internalType": "address",
          "name": "msgSender",
          "type": "address"
        },
        {
          "internalType": "string",
          "name": "role",
          "type": "string"
        }
      ],
      "name": "Unauthorized",
      "type": "error"
    },
    {
      "anonymous": false,
      "inputs": [
        {
          "indexed": false,
          "internalType": "int256",
          "name": "pnlToPoolFactor",
          "type": "int256"
        },
        {
          "indexed": false,
          "internalType": "uint256",
          "name": "maxPnlFactor",
          "type": "uint256"
        },
        {
          "indexed": false,
          "internalType": "bool",
          "name": "shouldEnableAdl",
          "type": "bool"
        }
      ],
      "name": "AdlStateUpdated",
      "type": "event"
    },
    {
      "anonymous": false,
      "inputs": [
        {
          "indexed": false,
          "internalType": "address",
          "name": "market",
          "type": "address"
        },
        {
          "indexed": false,
          "internalType": "address",
          "name": "token",
          "type": "address"
        },
        {
          "indexed": false,
          "internalType": "address",
          "name": "account",
          "type": "address"
        },
        {
          "indexed": false,
          "internalType": "address",
          "name": "receiver",
          "type": "address"
        },
        {
          "indexed": false,
          "internalType": "uint256",
          "name": "amount",
          "type": "uint256"
        }
      ],
      "name": "AffiliateRewardClaimed",
      "type": "event"
    },
    {
      "anonymous": false,
      "inputs": [
        {
          "indexed": false,
          "internalType": "address",
          "name": "market",
          "type": "address"
        },
        {
          "indexed": false,
          "internalType": "address",
          "name": "token",
          "type": "address"
        },
        {
          "indexed": false,
          "internalType": "address",
          "name": "affiliate",
          "type": "address"
        },
        {
          "indexed": false,
          "internalType": "address",
          "name": "trader",
          "type": "address"
        },
        {
          "indexed": false,
          "internalType": "uint256",
          "name": "amount",
          "type": "uint256"
        }
      ],
      "name": "AffiliateRewardEarned",
      "type": "event"
    },
    {
      "anonymous": false,
      "inputs": [
        {
          "indexed": false,
          "internalType": "address",
          "name": "market",
          "type": "address"
        },
        {
          "indexed": false,
          "internalType": "address",
          "name": "token",
          "type": "address"
        },
        {
          "indexed": false,
          "internalType": "uint256",
          "name": "timeKey",
          "type": "uint256"
        },
        {
          "indexed": false,
          "internalType": "address",
          "name": "account",
          "type": "address"
        },
        {
          "indexed": false,
          "internalType": "uint256",
          "name": "delta",
          "type": "uint256"
        },
        {
          "indexed": false,
          "internalType": "uint256",
          "name": "nextValue",
          "type": "uint256"
        }
      ],
      "name": "ClaimableCollateralUpdated",
      "type": "event"
    },
    {
      "anonymous": false,
      "inputs": [
        {
          "indexed": false,
          "internalType": "address",
          "name": "market",
          "type": "address"
        },
        {
          "indexed": false,
          "internalType": "address",
          "name": "token",
          "type": "address"
        },
        {
          "indexed": false,
          "internalType": "address",
          "name": "account",
          "type": "address"
        },
        {
          "indexed": false,
          "internalType": "uint256",
          "name": "delta",
          "type": "uint256"
        },
        {
          "indexed": false,
          "internalType": "uint256",
          "name": "nextValue",
          "type": "uint256"
        }
      ],
      "name": "ClaimableFundingUpdated",
      "type": "event"
    },
    {
      "anonymous": false,
      "inputs": [
        {
          "indexed": false,
          "internalType": "address",
          "name": "market",
          "type": "address"
        },
        {
          "indexed": false,
          "internalType": "address",
          "name": "token",
          "type": "address"
        },
        {
          "indexed": false,
          "internalType": "uint256",
          "name": "timeKey",
          "type": "uint256"
        },
        {
          "indexed": false,
          "internalType": "address",
          "name": "account",
          "type": "address"
        },
        {
          "indexed": false,
          "internalType": "address",
          "name": "receiver",
          "type": "address"
        },
        {
          "indexed": false,
          "internalType": "uint256",
          "name": "amount",
          "type": "uint256"
        }
      ],
      "name": "CollateralClaimed",
      "type": "event"
    },
    {
      "anonymous": false,
      "inputs": [
        {
          "indexed": false,
          "internalType": "address",
          "name": "market",
          "type": "address"
        },
        {
          "indexed": false,
          "internalType": "address",
          "name": "collateralToken",
          "type": "address"
        },
        {
          "indexed": false,
          "internalType": "bool",
          "name": "isLong",
          "type": "bool"
        },
        {
          "indexed": false,
          "internalType": "int256",
          "name": "delta",
          "type": "int256"
        },
        {
          "indexed": false,
          "internalType": "uint256",
          "name": "nextValue",
          "type": "uint256"
        }
      ],
      "name": "CollateralSumUpdated",
      "type": "event"
    },
    {
      "anonymous": false,
      "inputs": [
        {
          "indexed": false,
          "internalType": "bytes32",
          "name": "key",
          "type": "bytes32"
        },
        {
          "indexed": false,
          "internalType": "bytes",
          "name": "reason",
          "type": "bytes"
        }
      ],
      "name": "DepositCancelled",
      "type": "event"
    },
    {
      "anonymous": false,
      "inputs": [
        {
          "indexed": false,
          "internalType": "bytes32",
          "name": "key",
          "type": "bytes32"
        },
        {
          "components": [
            {
              "components": [
                {
                  "internalType": "address",
                  "name": "account",
                  "type": "address"
                },
                {
                  "internalType": "address",
                  "name": "receiver",
                  "type": "address"
                },
                {
                  "internalType": "address",
                  "name": "callbackContract",
                  "type": "address"
                },
                {
                  "internalType": "address",
                  "name": "market",
                  "type": "address"
                }
              ],
              "internalType": "struct Deposit.Addresses",
              "name": "addresses",
              "type": "tuple"
            },
            {
              "components": [
                {
                  "internalType": "uint256",
                  "name": "longTokenAmount",
                  "type": "uint256"
                },
                {
                  "internalType": "uint256",
                  "name": "shortTokenAmount",
                  "type": "uint256"
                },
                {
                  "internalType": "uint256",
                  "name": "minMarketTokens",
                  "type": "uint256"
                },
                {
                  "internalType": "uint256",
                  "name": "updatedAtBlock",
                  "type": "uint256"
                },
                {
                  "internalType": "uint256",
                  "name": "executionFee",
                  "type": "uint256"
                },
                {
                  "internalType": "uint256",
                  "name": "callbackGasLimit",
                  "type": "uint256"
                }
              ],
              "internalType": "struct Deposit.Numbers",
              "name": "numbers",
              "type": "tuple"
            },
            {
              "components": [
                {
                  "internalType": "bool",
                  "name": "shouldUnwrapNativeToken",
                  "type": "bool"
                }
              ],
              "internalType": "struct Deposit.Flags",
              "name": "flags",
              "type": "tuple"
            },
            {
              "internalType": "bytes",
              "name": "data",
              "type": "bytes"
            }
          ],
          "indexed": false,
          "internalType": "struct Deposit.Props",
          "name": "deposit",
          "type": "tuple"
        }
      ],
      "name": "DepositCreated",
      "type": "event"
    },
    {
      "anonymous": false,
      "inputs": [
        {
          "indexed": false,
          "internalType": "bytes32",
          "name": "key",
          "type": "bytes32"
        }
      ],
      "name": "DepositExecuted",
      "type": "event"
    },
    {
      "anonymous": false,
      "inputs": [
        {
          "indexed": false,
          "internalType": "address",
          "name": "market",
          "type": "address"
        },
        {
          "indexed": false,
          "internalType": "address",
          "name": "token",
          "type": "address"
        },
        {
          "indexed": false,
          "internalType": "address",
          "name": "account",
          "type": "address"
        },
        {
          "indexed": false,
          "internalType": "address",
          "name": "receiver",
          "type": "address"
        },
        {
          "indexed": false,
          "internalType": "uint256",
          "name": "amount",
          "type": "uint256"
        }
      ],
      "name": "FundingFeesClaimed",
      "type": "event"
    },
    {
      "anonymous": false,
      "inputs": [
        {
          "indexed": false,
          "internalType": "uint256",
          "name": "fundingFeeAmount",
          "type": "uint256"
        },
        {
          "indexed": false,
          "internalType": "uint256",
          "name": "collateralAmount",
          "type": "uint256"
        }
      ],
      "name": "InsufficientFundingFeePayment",
      "type": "event"
    },
    {
      "anonymous": false,
      "inputs": [
        {
          "indexed": false,
          "internalType": "address",
          "name": "market",
          "type": "address"
        },
        {
          "indexed": false,
          "internalType": "address",
          "name": "collateralToken",
          "type": "address"
        },
        {
          "indexed": false,
          "internalType": "bool",
          "name": "isLong",
          "type": "bool"
        },
        {
          "indexed": false,
          "internalType": "int256",
          "name": "delta",
          "type": "int256"
        },
        {
          "indexed": false,
          "internalType": "uint256",
          "name": "nextValue",
          "type": "uint256"
        }
      ],
      "name": "OpenInterestInTokensUpdated",
      "type": "event"
    },
    {
      "anonymous": false,
      "inputs": [
        {
          "indexed": false,
          "internalType": "address",
          "name": "market",
          "type": "address"
        },
        {
          "indexed": false,
          "internalType": "address",
          "name": "collateralToken",
          "type": "address"
        },
        {
          "indexed": false,
          "internalType": "bool",
          "name": "isLong",
          "type": "bool"
        },
        {
          "indexed": false,
          "internalType": "int256",
          "name": "delta",
          "type": "int256"
        },
        {
          "indexed": false,
          "internalType": "uint256",
          "name": "nextValue",
          "type": "uint256"
        }
      ],
      "name": "OpenInterestUpdated",
      "type": "event"
    },
    {
      "anonymous": false,
      "inputs": [
        {
          "indexed": false,
          "internalType": "address",
          "name": "token",
          "type": "address"
        },
        {
          "indexed": false,
          "internalType": "uint256",
          "name": "minPrice",
          "type": "uint256"
        },
        {
          "indexed": false,
          "internalType": "uint256",
          "name": "maxPrice",
          "type": "uint256"
        },
        {
          "indexed": false,
          "internalType": "bool",
          "name": "isPrimary",
          "type": "bool"
        },
        {
          "indexed": false,
          "internalType": "bool",
          "name": "isPriceFeed",
          "type": "bool"
        }
      ],
      "name": "OraclePriceUpdated",
      "type": "event"
    },
    {
      "anonymous": false,
      "inputs": [
        {
          "indexed": false,
          "internalType": "bytes32",
          "name": "key",
          "type": "bytes32"
        },
        {
          "indexed": false,
          "internalType": "bytes",
          "name": "reason",
          "type": "bytes"
        }
      ],
      "name": "OrderCancelled",
      "type": "event"
    },
    {
      "anonymous": false,
      "inputs": [
        {
          "indexed": false,
          "internalType": "bytes32",
          "name": "key",
          "type": "bytes32"
        },
        {
          "components": [
            {
              "components": [
                {
                  "internalType": "address",
                  "name": "account",
                  "type": "address"
                },
                {
                  "internalType": "address",
                  "name": "receiver",
                  "type": "address"
                },
                {
                  "internalType": "address",
                  "name": "callbackContract",
                  "type": "address"
                },
                {
                  "internalType": "address",
                  "name": "market",
                  "type": "address"
                },
                {
                  "internalType": "address",
                  "name": "initialCollateralToken",
                  "type": "address"
                },
                {
                  "internalType": "address[]",
                  "name": "swapPath",
                  "type": "address[]"
                }
              ],
              "internalType": "struct Order.Addresses",
              "name": "addresses",
              "type": "tuple"
            },
            {
              "components": [
                {
                  "internalType": "uint256",
                  "name": "sizeDeltaUsd",
                  "type": "uint256"
                },
                {
                  "internalType": "uint256",
                  "name": "initialCollateralDeltaAmount",
                  "type": "uint256"
                },
                {
                  "internalType": "uint256",
                  "name": "triggerPrice",
                  "type": "uint256"
                },
                {
                  "internalType": "uint256",
                  "name": "acceptablePrice",
                  "type": "uint256"
                },
                {
                  "internalType": "uint256",
                  "name": "executionFee",
                  "type": "uint256"
                },
                {
                  "internalType": "uint256",
                  "name": "callbackGasLimit",
                  "type": "uint256"
                },
                {
                  "internalType": "uint256",
                  "name": "minOutputAmount",
                  "type": "uint256"
                },
                {
                  "internalType": "uint256",
                  "name": "updatedAtBlock",
                  "type": "uint256"
                }
              ],
              "internalType": "struct Order.Numbers",
              "name": "numbers",
              "type": "tuple"
            },
            {
              "components": [
                {
                  "internalType": "enum Order.OrderType",
                  "name": "orderType",
                  "type": "uint8"
                },
                {
                  "internalType": "bool",
                  "name": "isLong",
                  "type": "bool"
                },
                {
                  "internalType": "bool",
                  "name": "shouldUnwrapNativeToken",
                  "type": "bool"
                },
                {
                  "internalType": "bool",
                  "name": "isFrozen",
                  "type": "bool"
                }
              ],
              "internalType": "struct Order.Flags",
              "name": "flags",
              "type": "tuple"
            },
            {
              "internalType": "bytes",
              "name": "data",
              "type": "bytes"
            }
          ],
          "indexed": false,
          "internalType": "struct Order.Props",
          "name": "order",
          "type": "tuple"
        }
      ],
      "name": "OrderCreated",
      "type": "event"
    },
    {
      "anonymous": false,
      "inputs": [
        {
          "indexed": false,
          "internalType": "bytes32",
          "name": "key",
          "type": "bytes32"
        }
      ],
      "name": "OrderExecuted",
      "type": "event"
    },
    {
      "anonymous": false,
      "inputs": [
        {
          "indexed": false,
          "internalType": "bytes32",
          "name": "key",
          "type": "bytes32"
        },
        {
          "indexed": false,
          "internalType": "bytes",
          "name": "reason",
          "type": "bytes"
        }
      ],
      "name": "OrderFrozen",
      "type": "event"
    },
    {
      "anonymous": false,
      "inputs": [
        {
          "indexed": false,
          "internalType": "bytes32",
          "name": "key",
          "type": "bytes32"
        },
        {
          "indexed": false,
          "internalType": "uint256",
          "name": "sizeDeltaUsd",
          "type": "uint256"
        },
        {
          "indexed": false,
          "internalType": "uint256",
          "name": "triggerPrice",
          "type": "uint256"
        },
        {
          "indexed": false,
          "internalType": "uint256",
          "name": "acceptablePrice",
          "type": "uint256"
        }
      ],
      "name": "OrderUpdated",
      "type": "event"
    },
    {
      "anonymous": false,
      "inputs": [
        {
          "indexed": false,
          "internalType": "address",
          "name": "market",
          "type": "address"
        },
        {
          "indexed": false,
          "internalType": "address",
          "name": "token",
          "type": "address"
        },
        {
          "indexed": false,
          "internalType": "int256",
          "name": "delta",
          "type": "int256"
        },
        {
          "indexed": false,
          "internalType": "uint256",
          "name": "nextValue",
          "type": "uint256"
        }
      ],
      "name": "PoolAmountUpdated",
      "type": "event"
    },
    {
      "anonymous": false,
      "inputs": [
        {
          "indexed": false,
          "internalType": "bytes32",
          "name": "key",
          "type": "bytes32"
        },
        {
          "indexed": true,
          "internalType": "address",
          "name": "account",
          "type": "address"
        },
        {
          "indexed": true,
          "internalType": "address",
          "name": "market",
          "type": "address"
        },
        {
          "indexed": false,
          "internalType": "address",
          "name": "collateralToken",
          "type": "address"
        },
        {
          "indexed": false,
          "internalType": "bool",
          "name": "isLong",
          "type": "bool"
        },
        {
          "indexed": false,
          "internalType": "uint256",
          "name": "executionPrice",
          "type": "uint256"
        },
        {
          "indexed": false,
          "internalType": "uint256",
          "name": "sizeDeltaInUsd",
          "type": "uint256"
        },
        {
          "indexed": false,
          "internalType": "uint256",
          "name": "sizeDeltaInTokens",
          "type": "uint256"
        },
        {
          "indexed": false,
          "internalType": "int256",
          "name": "collateralDeltaAmount",
          "type": "int256"
        },
        {
          "indexed": false,
          "internalType": "int256",
          "name": "pnlAmountForPool",
          "type": "int256"
        },
        {
          "indexed": false,
          "internalType": "int256",
          "name": "remainingCollateralAmount",
          "type": "int256"
        },
        {
          "indexed": false,
          "internalType": "uint256",
          "name": "outputAmount",
          "type": "uint256"
        },
        {
          "indexed": false,
          "internalType": "enum Order.OrderType",
          "name": "orderType",
          "type": "uint8"
        }
      ],
      "name": "PositionDecrease",
      "type": "event"
    },
    {
      "anonymous": false,
      "inputs": [
        {
          "indexed": false,
          "internalType": "bool",
          "name": "isIncrease",
          "type": "bool"
        },
        {
          "components": [
            {
              "components": [
                {
                  "internalType": "address",
                  "name": "affiliate",
                  "type": "address"
                },
                {
                  "internalType": "uint256",
                  "name": "traderDiscountAmount",
                  "type": "uint256"
                },
                {
                  "internalType": "uint256",
                  "name": "affiliateRewardAmount",
                  "type": "uint256"
                }
              ],
              "internalType": "struct PositionPricingUtils.PositionReferralFees",
              "name": "referral",
              "type": "tuple"
            },
            {
              "components": [
                {
                  "internalType": "uint256",
                  "name": "fundingFeeAmount",
                  "type": "uint256"
                },
                {
                  "internalType": "uint256",
                  "name": "claimableLongTokenAmount",
                  "type": "uint256"
                },
                {
                  "internalType": "uint256",
                  "name": "claimableShortTokenAmount",
                  "type": "uint256"
                },
                {
                  "internalType": "int256",
                  "name": "latestLongTokenFundingAmountPerSize",
                  "type": "int256"
                },
                {
                  "internalType": "int256",
                  "name": "latestShortTokenFundingAmountPerSize",
                  "type": "int256"
                },
                {
                  "internalType": "bool",
                  "name": "hasPendingLongTokenFundingFee",
                  "type": "bool"
                },
                {
                  "internalType": "bool",
                  "name": "hasPendingShortTokenFundingFee",
                  "type": "bool"
                }
              ],
              "internalType": "struct PositionPricingUtils.PositionFundingFees",
              "name": "funding",
              "type": "tuple"
            },
            {
              "internalType": "uint256",
              "name": "feeReceiverAmount",
              "type": "uint256"
            },
            {
              "internalType": "uint256",
              "name": "feesForPool",
              "type": "uint256"
            },
            {
              "internalType": "uint256",
              "name": "positionFeeAmountForPool",
              "type": "uint256"
            },
            {
              "internalType": "uint256",
              "name": "positionFeeAmount",
              "type": "uint256"
            },
            {
              "internalType": "uint256",
              "name": "borrowingFeeAmount",
              "type": "uint256"
            },
            {
              "internalType": "uint256",
              "name": "totalNetCostAmount",
              "type": "uint256"
            },
            {
              "internalType": "uint256",
              "name": "totalNetCostUsd",
              "type": "uint256"
            }
          ],
          "indexed": false,
          "internalType": "struct PositionPricingUtils.PositionFees",
          "name": "fees",
          "type": "tuple"
        }
      ],
      "name": "PositionFeesCollected",
      "type": "event"
    },
    {
      "anonymous": false,
      "inputs": [
        {
          "indexed": false,
          "internalType": "address",
          "name": "market",
          "type": "address"
        },
        {
          "indexed": false,
          "internalType": "int256",
          "name": "delta",
          "type": "int256"
        },
        {
          "indexed": false,
          "internalType": "uint256",
          "name": "nextValue",
          "type": "uint256"
        }
      ],
      "name": "PositionImpactPoolAmountUpdated",
      "type": "event"
    },
    {
      "anonymous": false,
      "inputs": [
        {
          "indexed": false,
          "internalType": "bytes32",
          "name": "key",
          "type": "bytes32"
        },
        {
          "indexed": true,
          "internalType": "address",
          "name": "account",
          "type": "address"
        },
        {
          "indexed": true,
          "internalType": "address",
          "name": "market",
          "type": "address"
        },
        {
          "indexed": false,
          "internalType": "address",
          "name": "collateralToken",
          "type": "address"
        },
        {
          "indexed": false,
          "internalType": "bool",
          "name": "isLong",
          "type": "bool"
        },
        {
          "indexed": false,
          "internalType": "uint256",
          "name": "executionPrice",
          "type": "uint256"
        },
        {
          "indexed": false,
          "internalType": "uint256",
          "name": "sizeDeltaInUsd",
          "type": "uint256"
        },
        {
          "indexed": false,
          "internalType": "uint256",
          "name": "sizeDeltaInTokens",
          "type": "uint256"
        },
        {
          "indexed": false,
          "internalType": "int256",
          "name": "collateralDeltaAmount",
          "type": "int256"
        },
        {
          "indexed": false,
          "internalType": "int256",
          "name": "remainingCollateralAmount",
          "type": "int256"
        },
        {
          "indexed": false,
          "internalType": "enum Order.OrderType",
          "name": "orderType",
          "type": "uint8"
        }
      ],
      "name": "PositionIncrease",
      "type": "event"
    },
    {
      "anonymous": false,
      "inputs": [
        {
          "indexed": false,
          "internalType": "address",
          "name": "prevGov",
          "type": "address"
        },
        {
          "indexed": false,
          "internalType": "address",
          "name": "nextGov",
          "type": "address"
        }
      ],
      "name": "SetGov",
      "type": "event"
    },
    {
      "anonymous": false,
      "inputs": [
        {
          "indexed": false,
          "internalType": "bytes32",
          "name": "action",
          "type": "bytes32"
        },
        {
          "components": [
            {
              "internalType": "uint256",
              "name": "feeReceiverAmount",
              "type": "uint256"
            },
            {
              "internalType": "uint256",
              "name": "feesForPool",
              "type": "uint256"
            },
            {
              "internalType": "uint256",
              "name": "amountAfterFees",
              "type": "uint256"
            }
          ],
          "indexed": false,
          "internalType": "struct SwapPricingUtils.SwapFees",
          "name": "fees",
          "type": "tuple"
        }
      ],
      "name": "SwapFeesCollected",
      "type": "event"
    },
    {
      "anonymous": false,
      "inputs": [
        {
          "indexed": false,
          "internalType": "address",
          "name": "market",
          "type": "address"
        },
        {
          "indexed": false,
          "internalType": "address",
          "name": "token",
          "type": "address"
        },
        {
          "indexed": false,
          "internalType": "int256",
          "name": "delta",
          "type": "int256"
        },
        {
          "indexed": false,
          "internalType": "uint256",
          "name": "nextValue",
          "type": "uint256"
        }
      ],
      "name": "SwapImpactPoolAmountUpdated",
      "type": "event"
    },
    {
      "anonymous": false,
      "inputs": [
        {
          "indexed": false,
          "internalType": "address",
          "name": "market",
          "type": "address"
        },
        {
          "indexed": false,
          "internalType": "address",
          "name": "token",
          "type": "address"
        },
        {
          "indexed": false,
          "internalType": "address",
          "name": "trader",
          "type": "address"
        },
        {
          "indexed": false,
          "internalType": "uint256",
          "name": "amount",
          "type": "uint256"
        }
      ],
      "name": "TraderReferralDiscountApplied",
      "type": "event"
    },
    {
      "anonymous": false,
      "inputs": [
        {
          "indexed": false,
          "internalType": "bytes32",
          "name": "key",
          "type": "bytes32"
        },
        {
          "indexed": false,
          "internalType": "bytes",
          "name": "reason",
          "type": "bytes"
        }
      ],
      "name": "WithdrawalCancelled",
      "type": "event"
    },
    {
      "anonymous": false,
      "inputs": [
        {
          "indexed": false,
          "internalType": "bytes32",
          "name": "key",
          "type": "bytes32"
        },
        {
          "components": [
            {
              "components": [
                {
                  "internalType": "address",
                  "name": "account",
                  "type": "address"
                },
                {
                  "internalType": "address",
                  "name": "receiver",
                  "type": "address"
                },
                {
                  "internalType": "address",
                  "name": "callbackContract",
                  "type": "address"
                },
                {
                  "internalType": "address",
                  "name": "market",
                  "type": "address"
                }
              ],
              "internalType": "struct Withdrawal.Addresses",
              "name": "addresses",
              "type": "tuple"
            },
            {
              "components": [
                {
                  "internalType": "uint256",
                  "name": "marketTokenAmount",
                  "type": "uint256"
                },
                {
                  "internalType": "uint256",
                  "name": "minLongTokenAmount",
                  "type": "uint256"
                },
                {
                  "internalType": "uint256",
                  "name": "minShortTokenAmount",
                  "type": "uint256"
                },
                {
                  "internalType": "uint256",
                  "name": "updatedAtBlock",
                  "type": "uint256"
                },
                {
                  "internalType": "uint256",
                  "name": "executionFee",
                  "type": "uint256"
                },
                {
                  "internalType": "uint256",
                  "name": "callbackGasLimit",
                  "type": "uint256"
                }
              ],
              "internalType": "struct Withdrawal.Numbers",
              "name": "numbers",
              "type": "tuple"
            },
            {
              "components": [
                {
                  "internalType": "bool",
                  "name": "shouldUnwrapNativeToken",
                  "type": "bool"
                }
              ],
              "internalType": "struct Withdrawal.Flags",
              "name": "flags",
              "type": "tuple"
            },
            {
              "internalType": "bytes",
              "name": "data",
              "type": "bytes"
            }
          ],
          "indexed": false,
          "internalType": "struct Withdrawal.Props",
          "name": "withdrawal",
          "type": "tuple"
        }
      ],
      "name": "WithdrawalCreated",
      "type": "event"
    },
    {
      "anonymous": false,
      "inputs": [
        {
          "indexed": false,
          "internalType": "bytes32",
          "name": "key",
          "type": "bytes32"
        }
      ],
      "name": "WithdrawalExecuted",
      "type": "event"
    },
    {
      "inputs": [
        {
          "internalType": "int256",
          "name": "pnlToPoolFactor",
          "type": "int256"
        },
        {
          "internalType": "uint256",
          "name": "maxPnlFactor",
          "type": "uint256"
        },
        {
          "internalType": "bool",
          "name": "shouldEnableAdl",
          "type": "bool"
        }
      ],
      "name": "emitAdlStateUpdated",
      "outputs": [],
      "stateMutability": "nonpayable",
      "type": "function"
    },
    {
      "inputs": [
        {
          "internalType": "address",
          "name": "market",
          "type": "address"
        },
        {
          "internalType": "address",
          "name": "token",
          "type": "address"
        },
        {
          "internalType": "address",
          "name": "account",
          "type": "address"
        },
        {
          "internalType": "address",
          "name": "receiver",
          "type": "address"
        },
        {
          "internalType": "uint256",
          "name": "amount",
          "type": "uint256"
        }
      ],
      "name": "emitAffiliateRewardClaimed",
      "outputs": [],
      "stateMutability": "nonpayable",
      "type": "function"
    },
    {
      "inputs": [
        {
          "internalType": "address",
          "name": "market",
          "type": "address"
        },
        {
          "internalType": "address",
          "name": "token",
          "type": "address"
        },
        {
          "internalType": "address",
          "name": "affiliate",
          "type": "address"
        },
        {
          "internalType": "address",
          "name": "trader",
          "type": "address"
        },
        {
          "internalType": "uint256",
          "name": "amount",
          "type": "uint256"
        }
      ],
      "name": "emitAffiliateRewardEarned",
      "outputs": [],
      "stateMutability": "nonpayable",
      "type": "function"
    },
    {
      "inputs": [
        {
          "internalType": "address",
          "name": "market",
          "type": "address"
        },
        {
          "internalType": "address",
          "name": "token",
          "type": "address"
        },
        {
          "internalType": "uint256",
          "name": "timeKey",
          "type": "uint256"
        },
        {
          "internalType": "address",
          "name": "account",
          "type": "address"
        },
        {
          "internalType": "uint256",
          "name": "delta",
          "type": "uint256"
        },
        {
          "internalType": "uint256",
          "name": "nextValue",
          "type": "uint256"
        }
      ],
      "name": "emitClaimableCollateralUpdated",
      "outputs": [],
      "stateMutability": "nonpayable",
      "type": "function"
    },
    {
      "inputs": [
        {
          "internalType": "address",
          "name": "market",
          "type": "address"
        },
        {
          "internalType": "address",
          "name": "token",
          "type": "address"
        },
        {
          "internalType": "address",
          "name": "account",
          "type": "address"
        },
        {
          "internalType": "uint256",
          "name": "delta",
          "type": "uint256"
        },
        {
          "internalType": "uint256",
          "name": "nextValue",
          "type": "uint256"
        }
      ],
      "name": "emitClaimableFundingUpdated",
      "outputs": [],
      "stateMutability": "nonpayable",
      "type": "function"
    },
    {
      "inputs": [
        {
          "internalType": "address",
          "name": "market",
          "type": "address"
        },
        {
          "internalType": "address",
          "name": "token",
          "type": "address"
        },
        {
          "internalType": "uint256",
          "name": "timeKey",
          "type": "uint256"
        },
        {
          "internalType": "address",
          "name": "account",
          "type": "address"
        },
        {
          "internalType": "address",
          "name": "receiver",
          "type": "address"
        },
        {
          "internalType": "uint256",
          "name": "amount",
          "type": "uint256"
        }
      ],
      "name": "emitCollateralClaimed",
      "outputs": [],
      "stateMutability": "nonpayable",
      "type": "function"
    },
    {
      "inputs": [
        {
          "internalType": "address",
          "name": "market",
          "type": "address"
        },
        {
          "internalType": "address",
          "name": "collateralToken",
          "type": "address"
        },
        {
          "internalType": "bool",
          "name": "isLong",
          "type": "bool"
        },
        {
          "internalType": "int256",
          "name": "delta",
          "type": "int256"
        },
        {
          "internalType": "uint256",
          "name": "nextValue",
          "type": "uint256"
        }
      ],
      "name": "emitCollateralSumUpdated",
      "outputs": [],
      "stateMutability": "nonpayable",
      "type": "function"
    },
    {
      "inputs": [
        {
          "internalType": "bytes32",
          "name": "key",
          "type": "bytes32"
        },
        {
          "internalType": "bytes",
          "name": "reason",
          "type": "bytes"
        }
      ],
      "name": "emitDepositCancelled",
      "outputs": [],
      "stateMutability": "nonpayable",
      "type": "function"
    },
    {
      "inputs": [
        {
          "internalType": "bytes32",
          "name": "key",
          "type": "bytes32"
        },
        {
          "components": [
            {
              "components": [
                {
                  "internalType": "address",
                  "name": "account",
                  "type": "address"
                },
                {
                  "internalType": "address",
                  "name": "receiver",
                  "type": "address"
                },
                {
                  "internalType": "address",
                  "name": "callbackContract",
                  "type": "address"
                },
                {
                  "internalType": "address",
                  "name": "market",
                  "type": "address"
                }
              ],
              "internalType": "struct Deposit.Addresses",
              "name": "addresses",
              "type": "tuple"
            },
            {
              "components": [
                {
                  "internalType": "uint256",
                  "name": "longTokenAmount",
                  "type": "uint256"
                },
                {
                  "internalType": "uint256",
                  "name": "shortTokenAmount",
                  "type": "uint256"
                },
                {
                  "internalType": "uint256",
                  "name": "minMarketTokens",
                  "type": "uint256"
                },
                {
                  "internalType": "uint256",
                  "name": "updatedAtBlock",
                  "type": "uint256"
                },
                {
                  "internalType": "uint256",
                  "name": "executionFee",
                  "type": "uint256"
                },
                {
                  "internalType": "uint256",
                  "name": "callbackGasLimit",
                  "type": "uint256"
                }
              ],
              "internalType": "struct Deposit.Numbers",
              "name": "numbers",
              "type": "tuple"
            },
            {
              "components": [
                {
                  "internalType": "bool",
                  "name": "shouldUnwrapNativeToken",
                  "type": "bool"
                }
              ],
              "internalType": "struct Deposit.Flags",
              "name": "flags",
              "type": "tuple"
            },
            {
              "internalType": "bytes",
              "name": "data",
              "type": "bytes"
            }
          ],
          "internalType": "struct Deposit.Props",
          "name": "deposit",
          "type": "tuple"
        }
      ],
      "name": "emitDepositCreated",
      "outputs": [],
      "stateMutability": "nonpayable",
      "type": "function"
    },
    {
      "inputs": [
        {
          "internalType": "bytes32",
          "name": "key",
          "type": "bytes32"
        }
      ],
      "name": "emitDepositExecuted",
      "outputs": [],
      "stateMutability": "nonpayable",
      "type": "function"
    },
    {
      "inputs": [
        {
          "internalType": "address",
          "name": "market",
          "type": "address"
        },
        {
          "internalType": "address",
          "name": "token",
          "type": "address"
        },
        {
          "internalType": "address",
          "name": "account",
          "type": "address"
        },
        {
          "internalType": "address",
          "name": "receiver",
          "type": "address"
        },
        {
          "internalType": "uint256",
          "name": "amount",
          "type": "uint256"
        }
      ],
      "name": "emitFundingFeesClaimed",
      "outputs": [],
      "stateMutability": "nonpayable",
      "type": "function"
    },
    {
      "inputs": [
        {
          "internalType": "uint256",
          "name": "fundingFeeAmount",
          "type": "uint256"
        },
        {
          "internalType": "uint256",
          "name": "collateralAmount",
          "type": "uint256"
        }
      ],
      "name": "emitInsufficientFundingFeePayment",
      "outputs": [],
      "stateMutability": "nonpayable",
      "type": "function"
    },
    {
      "inputs": [
        {
          "internalType": "address",
          "name": "market",
          "type": "address"
        },
        {
          "internalType": "address",
          "name": "collateralToken",
          "type": "address"
        },
        {
          "internalType": "bool",
          "name": "isLong",
          "type": "bool"
        },
        {
          "internalType": "int256",
          "name": "delta",
          "type": "int256"
        },
        {
          "internalType": "uint256",
          "name": "nextValue",
          "type": "uint256"
        }
      ],
      "name": "emitOpenInterestInTokensUpdated",
      "outputs": [],
      "stateMutability": "nonpayable",
      "type": "function"
    },
    {
      "inputs": [
        {
          "internalType": "address",
          "name": "market",
          "type": "address"
        },
        {
          "internalType": "address",
          "name": "collateralToken",
          "type": "address"
        },
        {
          "internalType": "bool",
          "name": "isLong",
          "type": "bool"
        },
        {
          "internalType": "int256",
          "name": "delta",
          "type": "int256"
        },
        {
          "internalType": "uint256",
          "name": "nextValue",
          "type": "uint256"
        }
      ],
      "name": "emitOpenInterestUpdated",
      "outputs": [],
      "stateMutability": "nonpayable",
      "type": "function"
    },
    {
      "inputs": [
        {
          "internalType": "address",
          "name": "token",
          "type": "address"
        },
        {
          "internalType": "uint256",
          "name": "minPrice",
          "type": "uint256"
        },
        {
          "internalType": "uint256",
          "name": "maxPrice",
          "type": "uint256"
        },
        {
          "internalType": "bool",
          "name": "isPrimary",
          "type": "bool"
        },
        {
          "internalType": "bool",
          "name": "isPriceFeed",
          "type": "bool"
        }
      ],
      "name": "emitOraclePriceUpdated",
      "outputs": [],
      "stateMutability": "nonpayable",
      "type": "function"
    },
    {
      "inputs": [
        {
          "internalType": "bytes32",
          "name": "key",
          "type": "bytes32"
        },
        {
          "internalType": "bytes",
          "name": "reason",
          "type": "bytes"
        }
      ],
      "name": "emitOrderCancelled",
      "outputs": [],
      "stateMutability": "nonpayable",
      "type": "function"
    },
    {
      "inputs": [
        {
          "internalType": "bytes32",
          "name": "key",
          "type": "bytes32"
        },
        {
          "components": [
            {
              "components": [
                {
                  "internalType": "address",
                  "name": "account",
                  "type": "address"
                },
                {
                  "internalType": "address",
                  "name": "receiver",
                  "type": "address"
                },
                {
                  "internalType": "address",
                  "name": "callbackContract",
                  "type": "address"
                },
                {
                  "internalType": "address",
                  "name": "market",
                  "type": "address"
                },
                {
                  "internalType": "address",
                  "name": "initialCollateralToken",
                  "type": "address"
                },
                {
                  "internalType": "address[]",
                  "name": "swapPath",
                  "type": "address[]"
                }
              ],
              "internalType": "struct Order.Addresses",
              "name": "addresses",
              "type": "tuple"
            },
            {
              "components": [
                {
                  "internalType": "uint256",
                  "name": "sizeDeltaUsd",
                  "type": "uint256"
                },
                {
                  "internalType": "uint256",
                  "name": "initialCollateralDeltaAmount",
                  "type": "uint256"
                },
                {
                  "internalType": "uint256",
                  "name": "triggerPrice",
                  "type": "uint256"
                },
                {
                  "internalType": "uint256",
                  "name": "acceptablePrice",
                  "type": "uint256"
                },
                {
                  "internalType": "uint256",
                  "name": "executionFee",
                  "type": "uint256"
                },
                {
                  "internalType": "uint256",
                  "name": "callbackGasLimit",
                  "type": "uint256"
                },
                {
                  "internalType": "uint256",
                  "name": "minOutputAmount",
                  "type": "uint256"
                },
                {
                  "internalType": "uint256",
                  "name": "updatedAtBlock",
                  "type": "uint256"
                }
              ],
              "internalType": "struct Order.Numbers",
              "name": "numbers",
              "type": "tuple"
            },
            {
              "components": [
                {
                  "internalType": "enum Order.OrderType",
                  "name": "orderType",
                  "type": "uint8"
                },
                {
                  "internalType": "bool",
                  "name": "isLong",
                  "type": "bool"
                },
                {
                  "internalType": "bool",
                  "name": "shouldUnwrapNativeToken",
                  "type": "bool"
                },
                {
                  "internalType": "bool",
                  "name": "isFrozen",
                  "type": "bool"
                }
              ],
              "internalType": "struct Order.Flags",
              "name": "flags",
              "type": "tuple"
            },
            {
              "internalType": "bytes",
              "name": "data",
              "type": "bytes"
            }
          ],
          "internalType": "struct Order.Props",
          "name": "order",
          "type": "tuple"
        }
      ],
      "name": "emitOrderCreated",
      "outputs": [],
      "stateMutability": "nonpayable",
      "type": "function"
    },
    {
      "inputs": [
        {
          "internalType": "bytes32",
          "name": "key",
          "type": "bytes32"
        }
      ],
      "name": "emitOrderExecuted",
      "outputs": [],
      "stateMutability": "nonpayable",
      "type": "function"
    },
    {
      "inputs": [
        {
          "internalType": "bytes32",
          "name": "key",
          "type": "bytes32"
        },
        {
          "internalType": "bytes",
          "name": "reason",
          "type": "bytes"
        }
      ],
      "name": "emitOrderFrozen",
      "outputs": [],
      "stateMutability": "nonpayable",
      "type": "function"
    },
    {
      "inputs": [
        {
          "internalType": "bytes32",
          "name": "key",
          "type": "bytes32"
        },
        {
          "internalType": "uint256",
          "name": "sizeDeltaUsd",
          "type": "uint256"
        },
        {
          "internalType": "uint256",
          "name": "triggerPrice",
          "type": "uint256"
        },
        {
          "internalType": "uint256",
          "name": "acceptablePrice",
          "type": "uint256"
        }
      ],
      "name": "emitOrderUpdated",
      "outputs": [],
      "stateMutability": "nonpayable",
      "type": "function"
    },
    {
      "inputs": [
        {
          "internalType": "address",
          "name": "market",
          "type": "address"
        },
        {
          "internalType": "address",
          "name": "token",
          "type": "address"
        },
        {
          "internalType": "int256",
          "name": "delta",
          "type": "int256"
        },
        {
          "internalType": "uint256",
          "name": "nextValue",
          "type": "uint256"
        }
      ],
      "name": "emitPoolAmountUpdated",
      "outputs": [],
      "stateMutability": "nonpayable",
      "type": "function"
    },
    {
      "inputs": [
        {
          "components": [
            {
              "internalType": "bytes32",
              "name": "key",
              "type": "bytes32"
            },
            {
              "internalType": "address",
              "name": "account",
              "type": "address"
            },
            {
              "internalType": "address",
              "name": "market",
              "type": "address"
            },
            {
              "internalType": "address",
              "name": "collateralToken",
              "type": "address"
            },
            {
              "internalType": "bool",
              "name": "isLong",
              "type": "bool"
            }
          ],
          "internalType": "struct EventUtils.EmitPositionDecreaseParams",
          "name": "params",
          "type": "tuple"
        },
        {
          "internalType": "uint256",
          "name": "executionPrice",
          "type": "uint256"
        },
        {
          "internalType": "uint256",
          "name": "sizeDeltaUsd",
          "type": "uint256"
        },
        {
          "internalType": "uint256",
          "name": "sizeDeltaInTokens",
          "type": "uint256"
        },
        {
          "internalType": "int256",
          "name": "collateralDeltaAmount",
          "type": "int256"
        },
        {
          "internalType": "int256",
          "name": "pnlAmountForPool",
          "type": "int256"
        },
        {
          "internalType": "int256",
          "name": "remainingCollateralAmount",
          "type": "int256"
        },
        {
          "internalType": "uint256",
          "name": "outputAmount",
          "type": "uint256"
        },
        {
          "internalType": "enum Order.OrderType",
          "name": "orderType",
          "type": "uint8"
        }
      ],
      "name": "emitPositionDecrease",
      "outputs": [],
      "stateMutability": "nonpayable",
      "type": "function"
    },
    {
      "inputs": [
        {
          "internalType": "bool",
          "name": "isIncrease",
          "type": "bool"
        },
        {
          "components": [
            {
              "components": [
                {
                  "internalType": "address",
                  "name": "affiliate",
                  "type": "address"
                },
                {
                  "internalType": "uint256",
                  "name": "traderDiscountAmount",
                  "type": "uint256"
                },
                {
                  "internalType": "uint256",
                  "name": "affiliateRewardAmount",
                  "type": "uint256"
                }
              ],
              "internalType": "struct PositionPricingUtils.PositionReferralFees",
              "name": "referral",
              "type": "tuple"
            },
            {
              "components": [
                {
                  "internalType": "uint256",
                  "name": "fundingFeeAmount",
                  "type": "uint256"
                },
                {
                  "internalType": "uint256",
                  "name": "claimableLongTokenAmount",
                  "type": "uint256"
                },
                {
                  "internalType": "uint256",
                  "name": "claimableShortTokenAmount",
                  "type": "uint256"
                },
                {
                  "internalType": "int256",
                  "name": "latestLongTokenFundingAmountPerSize",
                  "type": "int256"
                },
                {
                  "internalType": "int256",
                  "name": "latestShortTokenFundingAmountPerSize",
                  "type": "int256"
                },
                {
                  "internalType": "bool",
                  "name": "hasPendingLongTokenFundingFee",
                  "type": "bool"
                },
                {
                  "internalType": "bool",
                  "name": "hasPendingShortTokenFundingFee",
                  "type": "bool"
                }
              ],
              "internalType": "struct PositionPricingUtils.PositionFundingFees",
              "name": "funding",
              "type": "tuple"
            },
            {
              "internalType": "uint256",
              "name": "feeReceiverAmount",
              "type": "uint256"
            },
            {
              "internalType": "uint256",
              "name": "feesForPool",
              "type": "uint256"
            },
            {
              "internalType": "uint256",
              "name": "positionFeeAmountForPool",
              "type": "uint256"
            },
            {
              "internalType": "uint256",
              "name": "positionFeeAmount",
              "type": "uint256"
            },
            {
              "internalType": "uint256",
              "name": "borrowingFeeAmount",
              "type": "uint256"
            },
            {
              "internalType": "uint256",
              "name": "totalNetCostAmount",
              "type": "uint256"
            },
            {
              "internalType": "uint256",
              "name": "totalNetCostUsd",
              "type": "uint256"
            }
          ],
          "internalType": "struct PositionPricingUtils.PositionFees",
          "name": "fees",
          "type": "tuple"
        }
      ],
      "name": "emitPositionFeesCollected",
      "outputs": [],
      "stateMutability": "nonpayable",
      "type": "function"
    },
    {
      "inputs": [
        {
          "internalType": "address",
          "name": "market",
          "type": "address"
        },
        {
          "internalType": "int256",
          "name": "delta",
          "type": "int256"
        },
        {
          "internalType": "uint256",
          "name": "nextValue",
          "type": "uint256"
        }
      ],
      "name": "emitPositionImpactPoolAmountUpdated",
      "outputs": [],
      "stateMutability": "nonpayable",
      "type": "function"
    },
    {
      "inputs": [
        {
          "internalType": "bytes32",
          "name": "key",
          "type": "bytes32"
        },
        {
          "internalType": "address",
          "name": "account",
          "type": "address"
        },
        {
          "internalType": "address",
          "name": "market",
          "type": "address"
        },
        {
          "internalType": "address",
          "name": "collateralToken",
          "type": "address"
        },
        {
          "internalType": "bool",
          "name": "isLong",
          "type": "bool"
        },
        {
          "internalType": "uint256",
          "name": "executionPrice",
          "type": "uint256"
        },
        {
          "internalType": "uint256",
          "name": "sizeDeltaUsd",
          "type": "uint256"
        },
        {
          "internalType": "uint256",
          "name": "sizeDeltaInTokens",
          "type": "uint256"
        },
        {
          "internalType": "int256",
          "name": "collateralDeltaAmount",
          "type": "int256"
        },
        {
          "internalType": "int256",
          "name": "remainingCollateralAmount",
          "type": "int256"
        },
        {
          "internalType": "enum Order.OrderType",
          "name": "orderType",
          "type": "uint8"
        }
      ],
      "name": "emitPositionIncrease",
      "outputs": [],
      "stateMutability": "nonpayable",
      "type": "function"
    },
    {
      "inputs": [
        {
          "internalType": "bytes32",
          "name": "action",
          "type": "bytes32"
        },
        {
          "components": [
            {
              "internalType": "uint256",
              "name": "feeReceiverAmount",
              "type": "uint256"
            },
            {
              "internalType": "uint256",
              "name": "feesForPool",
              "type": "uint256"
            },
            {
              "internalType": "uint256",
              "name": "amountAfterFees",
              "type": "uint256"
            }
          ],
          "internalType": "struct SwapPricingUtils.SwapFees",
          "name": "fees",
          "type": "tuple"
        }
      ],
      "name": "emitSwapFeesCollected",
      "outputs": [],
      "stateMutability": "nonpayable",
      "type": "function"
    },
    {
      "inputs": [
        {
          "internalType": "address",
          "name": "market",
          "type": "address"
        },
        {
          "internalType": "address",
          "name": "token",
          "type": "address"
        },
        {
          "internalType": "int256",
          "name": "delta",
          "type": "int256"
        },
        {
          "internalType": "uint256",
          "name": "nextValue",
          "type": "uint256"
        }
      ],
      "name": "emitSwapImpactPoolAmountUpdated",
      "outputs": [],
      "stateMutability": "nonpayable",
      "type": "function"
    },
    {
      "inputs": [
        {
          "internalType": "address",
          "name": "market",
          "type": "address"
        },
        {
          "internalType": "address",
          "name": "token",
          "type": "address"
        },
        {
          "internalType": "address",
          "name": "trader",
          "type": "address"
        },
        {
          "internalType": "uint256",
          "name": "amount",
          "type": "uint256"
        }
      ],
      "name": "emitTraderReferralDiscountApplied",
      "outputs": [],
      "stateMutability": "nonpayable",
      "type": "function"
    },
    {
      "inputs": [
        {
          "internalType": "bytes32",
          "name": "key",
          "type": "bytes32"
        },
        {
          "internalType": "bytes",
          "name": "reason",
          "type": "bytes"
        }
      ],
      "name": "emitWithdrawalCancelled",
      "outputs": [],
      "stateMutability": "nonpayable",
      "type": "function"
    },
    {
      "inputs": [
        {
          "internalType": "bytes32",
          "name": "key",
          "type": "bytes32"
        },
        {
          "components": [
            {
              "components": [
                {
                  "internalType": "address",
                  "name": "account",
                  "type": "address"
                },
                {
                  "internalType": "address",
                  "name": "receiver",
                  "type": "address"
                },
                {
                  "internalType": "address",
                  "name": "callbackContract",
                  "type": "address"
                },
                {
                  "internalType": "address",
                  "name": "market",
                  "type": "address"
                }
              ],
              "internalType": "struct Withdrawal.Addresses",
              "name": "addresses",
              "type": "tuple"
            },
            {
              "components": [
                {
                  "internalType": "uint256",
                  "name": "marketTokenAmount",
                  "type": "uint256"
                },
                {
                  "internalType": "uint256",
                  "name": "minLongTokenAmount",
                  "type": "uint256"
                },
                {
                  "internalType": "uint256",
                  "name": "minShortTokenAmount",
                  "type": "uint256"
                },
                {
                  "internalType": "uint256",
                  "name": "updatedAtBlock",
                  "type": "uint256"
                },
                {
                  "internalType": "uint256",
                  "name": "executionFee",
                  "type": "uint256"
                },
                {
                  "internalType": "uint256",
                  "name": "callbackGasLimit",
                  "type": "uint256"
                }
              ],
              "internalType": "struct Withdrawal.Numbers",
              "name": "numbers",
              "type": "tuple"
            },
            {
              "components": [
                {
                  "internalType": "bool",
                  "name": "shouldUnwrapNativeToken",
                  "type": "bool"
                }
              ],
              "internalType": "struct Withdrawal.Flags",
              "name": "flags",
              "type": "tuple"
            },
            {
              "internalType": "bytes",
              "name": "data",
              "type": "bytes"
            }
          ],
          "internalType": "struct Withdrawal.Props",
          "name": "withdrawal",
          "type": "tuple"
        }
      ],
      "name": "emitWithdrawalCreated",
      "outputs": [],
      "stateMutability": "nonpayable",
      "type": "function"
    },
    {
      "inputs": [
        {
          "internalType": "bytes32",
          "name": "key",
          "type": "bytes32"
        }
      ],
      "name": "emitWithdrawalExecuted",
      "outputs": [],
      "stateMutability": "nonpayable",
      "type": "function"
    },
    {
      "inputs": [],
      "name": "gov",
      "outputs": [
        {
          "internalType": "address",
          "name": "",
          "type": "address"
        }
      ],
      "stateMutability": "view",
      "type": "function"
    },
    {
      "inputs": [
        {
          "internalType": "bytes32",
          "name": "topic1",
          "type": "bytes32"
        },
        {
          "internalType": "bytes",
          "name": "data",
          "type": "bytes"
        }
      ],
      "name": "log1",
      "outputs": [],
      "stateMutability": "nonpayable",
      "type": "function"
    },
    {
      "inputs": [
        {
          "internalType": "bytes32",
          "name": "topic1",
          "type": "bytes32"
        },
        {
          "internalType": "bytes32",
          "name": "topic2",
          "type": "bytes32"
        },
        {
          "internalType": "bytes",
          "name": "data",
          "type": "bytes"
        }
      ],
      "name": "log2",
      "outputs": [],
      "stateMutability": "nonpayable",
      "type": "function"
    },
    {
      "inputs": [
        {
          "internalType": "bytes32",
          "name": "topic1",
          "type": "bytes32"
        },
        {
          "internalType": "bytes32",
          "name": "topic2",
          "type": "bytes32"
        },
        {
          "internalType": "bytes32",
          "name": "topic3",
          "type": "bytes32"
        },
        {
          "internalType": "bytes",
          "name": "data",
          "type": "bytes"
        }
      ],
      "name": "log3",
      "outputs": [],
      "stateMutability": "nonpayable",
      "type": "function"
    },
    {
      "inputs": [
        {
          "internalType": "bytes32",
          "name": "topic1",
          "type": "bytes32"
        },
        {
          "internalType": "bytes32",
          "name": "topic2",
          "type": "bytes32"
        },
        {
          "internalType": "bytes32",
          "name": "topic3",
          "type": "bytes32"
        },
        {
          "internalType": "bytes32",
          "name": "topic4",
          "type": "bytes32"
        },
        {
          "internalType": "bytes",
          "name": "data",
          "type": "bytes"
        }
      ],
      "name": "log4",
      "outputs": [],
      "stateMutability": "nonpayable",
      "type": "function"
    },
    {
      "inputs": [],
      "name": "roleStore",
      "outputs": [
        {
          "internalType": "contract RoleStore",
          "name": "",
          "type": "address"
        }
      ],
      "stateMutability": "view",
      "type": "function"
    },
    {
      "inputs": [
        {
          "internalType": "address",
          "name": "_gov",
          "type": "address"
        }
      ],
      "name": "setGov",
      "outputs": [],
      "stateMutability": "nonpayable",
      "type": "function"
    }
  ],
  "bytecode": "0x60a06040523480156200001157600080fd5b5060405162002476380380620024768339810160408190526200003491620000b4565b80620000403362000053565b6001600160a01b031660805250620000e6565b600080546001600160a01b038381166001600160a01b031983168117909355604080519190921680825260208201939093527f53351836099c03ffc3b1727d8abd4b0222afa87d4ed76ae3102d51369ef7f785910160405180910390a15050565b600060208284031215620000c757600080fd5b81516001600160a01b0381168114620000df57600080fd5b9392505050565b60805161236d62000109600039600081816102a8015261103f015261236d6000f3fe608060405234801561001057600080fd5b50600436106101c25760003560e01c80630380fb79146101c75780631069eb21146101dc57806312d43a51146101ef5780631d2742b31461021e578063233737131461023157806337bf7bff146102445780633be4b159146102575780633df204591461026a5780633f9779691461027d57806347a3b493146102905780634a4a7b04146102a35780635bd480d0146102ca5780636803aec0146102dd578063683bf79a146102f05780636d1896c614610303578063793a433a1461031657806379be1297146103295780637ea09cb61461033c57806382edfb1f1461034f57806390fc68f11461036257806399ff512714610375578063a288b78014610388578063b16768211461039b578063b1daa3f7146103ae578063b4a1b4a1146103c1578063be3121bc146103d4578063c0cb669c146103e7578063c2b7f0e3146103fa578063c83c9c5d1461040d578063cdccb99d14610420578063cfad57a214610433578063d555df6114610446578063e514ee3314610459578063eb59c7c11461046c578063ecccd3031461047f578063f670c91e14610492578063f79a52b7146104a5578063fb43e0ce146104b8575b600080fd5b6101da6101d5366004611131565b6104cb565b005b6101da6101ea36600461126b565b610552565b600054610202906001600160a01b031681565b6040516001600160a01b03909116815260200160405180910390f35b6101da61022c3660046112ba565b610574565b6101da61023f366004611131565b61059a565b6101da610252366004611339565b6105dc565b6101da610265366004611339565b610634565b6101da6102783660046113a3565b61067d565b6101da61028b36600461156b565b6106c6565b6101da61029e3660046115b1565b610715565b6102027f000000000000000000000000000000000000000000000000000000000000000081565b6101da6102d83660046115e9565b610773565b6101da6102eb366004611339565b6107b6565b6101da6102fe366004611625565b6107ff565b6101da6103113660046115e9565b610823565b6101da61032436600461168d565b610866565b6101da610337366004611731565b6108e0565b6101da61034a36600461176e565b61094c565b6101da61035d3660046117b9565b6109bb565b6101da6103703660046117ee565b6109fe565b6101da610383366004611810565b610a46565b6101da610396366004611964565b610ac3565b6101da6103a9366004611131565b610b06565b6101da6103bc366004611b12565b610b48565b6101da6103cf3660046113a3565b610ba5565b6101da6103e236600461156b565b610bee565b6101da6103f5366004611b4b565b610c31565b6101da610408366004611bb1565b610ca3565b6101da61041b366004611c0e565b610d0c565b6101da61042e366004611ce2565b610d9c565b6101da610441366004611d14565b610df3565b6101da6104543660046113a3565b610e4d565b6101da6104673660046115e9565b610e96565b6101da61047a366004611d36565b610ed9565b6101da61048d366004611d78565b610f20565b6101da6104a03660046115e9565b610f79565b6101da6104b3366004611d36565b610f99565b6101da6104c63660046115e9565b610fe0565b61051b6040516020016104dd90611dab565b604051602081830303815290604052805190602001206040518060400160405280600a81526020016921a7a72a2927a62622a960b11b815250611023565b6040518181527fa37adc857daa838329f1fb3194fe25210138201eef54e4f21a3275a0beccf649906020015b60405180910390a150565b6105646040516020016104dd90611dab565b805182848260208501a250505050565b6105866040516020016104dd90611dab565b8051828486888460208701a4505050505050565b6105ac6040516020016104dd90611dab565b6040518181527fc0688adab4193f84179a2fda51c33be35f0be04eda978b688bb1a41ce2c7e84690602001610547565b6105ee6040516020016104dd90611dab565b7fbbca9278ce019acfce15f1a16f85027072418bf43bbd0aecf4b456079f02632e8585858585604051610625959493929190611dcf565b60405180910390a15050505050565b6106466040516020016104dd90611dab565b7fea55f8b1b145c31fda1b06deeb9c674c6b2495196f39aa279a526b152992eb058585858585604051610625959493929190611dcf565b61068f6040516020016104dd90611dab565b7fd6c766414446d611e5badbb107bb048516f64c79135884c2b4e971cc93dcc52d8585858585604051610625959493929190611e02565b6106d86040516020016104dd90611dab565b7fd46e1b45a04229a1c84aed2955bf58a9c8762e205691ef0888e9f802b059a7e88282604051610709929190611f23565b60405180910390a15050565b6107276040516020016104dd90611dab565b604080518381528235602080830191909152830135818301529082013560608201527fbb09e5670edc8638406916c2998d2da7bfd015905c9c2e37634ff8346c251a0f90608001610709565b6107856040516020016104dd90611dab565b7f40217364ea488b100789ef78a254ae64fa0849b996da5e5055a427285c6d26768282604051610709929190611f44565b6107c86040516020016104dd90611dab565b7f29e4f5f7c9b3d3f61ba802e6eb2f693361a13b167eb58fee22eb8150b2810df88585858585604051610625959493929190611dcf565b6108116040516020016104dd90611dab565b80518284868360208601a35050505050565b6108356040516020016104dd90611dab565b7f661986b54cc5344ace2866bc264500acbcce980ea090b47de2562cdce775f4a68282604051610709929190611f44565b6108786040516020016104dd90611dab565b886001600160a01b03168a6001600160a01b03167f8d65b9b7f211931259b88c52d0955d32ac3e8fc67b80e1f6eea5976a6b8e5c798d8b8b8b8b8b8b8b8b6040516108cb99989796959493929190611f7f565b60405180910390a35050505050505050505050565b6108f26040516020016104dd90611dab565b604080516001600160a01b038088168252808716602083015285169181019190915260608101839052608081018290527f9f8f8f7f8d3e0b6015c2c972b9014c73420c7b869d7dff8208a1f5ae6fbd0bd49060a001610625565b61095e6040516020016104dd90611dab565b604080516001600160a01b0380871682528086166020830152841691810191909152606081018290527fd8ceba32b7e7926851e295a78eebcda8c52e4173b2ede165a396466f1a4ea292906080015b60405180910390a150505050565b6109cd6040516020016104dd90611dab565b7f01d072e8d92ab49a65ca35c7e0abe26ad8ee1773da47ed40b7dedd42046d7c678282604051610709929190612039565b610a106040516020016104dd90611dab565b60408051838152602081018390527fafff632165af717f6f6726697a5e9e7069340b8a930ed39b7544230a47ec59349101610709565b610a586040516020016104dd90611dab565b604080516001600160a01b038089168252808816602083015291810186905290841660608201526080810183905260a081018290527ffb96e522fc939da7f8273d921185fd308d0d60c984c80987e1923332dd94f2929060c0015b60405180910390a1505050505050565b610ad56040516020016104dd90611dab565b7fb77d922f8328bfb5e65f71040880a26148ca8ca2f2e3dfdf75845bd484b135968282604051610709929190612152565b610b186040516020016104dd90611dab565b6040518181527fe62bf00505a94450f807975aa95e190b09784a61d64cf3b07d27da679ff0206590602001610547565b610b5a6040516020016104dd90611dab565b6040805184815260208101849052821515918101919091527f894742413c5a18f982109f79c8ff62b34a132ed076a65fb2fe412da8ce00fd5a906060015b60405180910390a1505050565b610bb76040516020016104dd90611dab565b7f6cb54443bce7666a301753c16ed1eba06c477ef3f06e4166ae4ef36c15c571528585858585604051610625959493929190611e02565b610c006040516020016104dd90611dab565b7f132f6fc8168e0784298946dc8d32e8c1cf1ae965b82f19bfaf17245b080c5ca38282604051610709929190611f23565b610c436040516020016104dd90611dab565b604080516001600160a01b03808916825280881660208301529181018690528185166060820152908316608082015260a081018290527f1fe7eee1a63406e71688fe02f15522537f8c9b6689337dc86147a15d314eb14e9060c001610ab3565b610cb56040516020016104dd90611dab565b604080516001600160a01b038716815260208101869052908101849052821515606082015281151560808201527fcd65b6b5b3133b97f770846c6e15bd5394b249d8b2f9733c982093af8681ef159060a001610625565b610d1e6040516020016104dd90611dab565b88604001516001600160a01b031689602001516001600160a01b03167fb62b3780c9be38bb1594e422ae25df6131346dc207f8344ee9e97e46f97ef8168b600001518c606001518d608001518d8d8d8d8d8d8d8d604051610d899b9a99989796959493929190612261565b60405180910390a3505050505050505050565b610dae6040516020016104dd90611dab565b6040805185815260208101859052908101839052606081018290527f6207908bb52231b7b8db48c0074b9245002c9404693f0cc84b75118911bbcc99906080016109ad565b6000546001600160a01b03163314610e41576040805163a35b150b60e01b81523360048201526024810191909152600360448201526223a7ab60e91b60648201526084015b60405180910390fd5b610e4a816110d7565b50565b610e5f6040516020016104dd90611dab565b7fd7f148b13acc822c38719b54065a74fc41a0ceeb77a11d0fac1b6a21be3b53358585858585604051610625959493929190611e02565b610ea86040516020016104dd90611dab565b7fc00ba3b2997d291728cd879ef7f7a609c189da66449f56c1dca2877b46b7d5e78282604051610709929190611f44565b610eeb6040516020016104dd90611dab565b7fe0cebb2c1e80b5fe6ba4d326f6287b299694b0fd742320b07eed21b53ab8c3cf848484846040516109ad94939291906122cd565b610f326040516020016104dd90611dab565b604080516001600160a01b0385168152602081018490529081018290527f7cc0b435e01d7bae9947cd4dfb73dfa6d0695526fcf6908151a6893c3c780d3a90606001610b98565b610f8b6040516020016104dd90611dab565b8051828160208401a1505050565b610fab6040516020016104dd90611dab565b7f2c4a66296d0749e56ae853c8d48af1e0a2381d6ab6a81822337b4ad909aa8463848484846040516109ad94939291906122cd565b610ff26040516020016104dd90611dab565b7f346e599e17955d2c2275bcc7b1b00ed80ce1c86705b5fff5c5188d208912f5da8282604051610709929190611f44565b60405163ac4ab3fb60e01b8152336004820152602481018390527f00000000000000000000000000000000000000000000000000000000000000006001600160a01b03169063ac4ab3fb90604401602060405180830381865afa15801561108e573d6000803e3d6000fd5b505050506040513d601f19601f820116820180604052508101906110b291906122f6565b6110d357338160405163a35b150b60e01b8152600401610e38929190612313565b5050565b600080546001600160a01b038381166001600160a01b031983168117909355604080519190921680825260208201939093527f53351836099c03ffc3b1727d8abd4b0222afa87d4ed76ae3102d51369ef7f7859101610709565b60006020828403121561114357600080fd5b5035919050565b634e487b7160e01b600052604160045260246000fd5b604051608081016001600160401b03811182821017156111825761118261114a565b60405290565b60405160c081016001600160401b03811182821017156111825761118261114a565b60405160a081016001600160401b03811182821017156111825761118261114a565b604051601f8201601f191681016001600160401b03811182821017156111f4576111f461114a565b604052919050565b600082601f83011261120d57600080fd5b81356001600160401b038111156112265761122661114a565b611239601f8201601f19166020016111cc565b81815284602083860101111561124e57600080fd5b816020850160208301376000918101602001919091529392505050565b60008060006060848603121561128057600080fd5b833592506020840135915060408401356001600160401b038111156112a457600080fd5b6112b0868287016111fc565b9150509250925092565b600080600080600060a086880312156112d257600080fd5b8535945060208601359350604086013592506060860135915060808601356001600160401b0381111561130457600080fd5b611310888289016111fc565b9150509295509295909350565b80356001600160a01b038116811461133457600080fd5b919050565b600080600080600060a0868803121561135157600080fd5b61135a8661131d565b94506113686020870161131d565b93506113766040870161131d565b92506113846060870161131d565b949793965091946080013592915050565b8015158114610e4a57600080fd5b600080600080600060a086880312156113bb57600080fd5b6113c48661131d565b94506113d26020870161131d565b935060408601356113e281611395565b94979396509394606081013594506080013592915050565b600060c0828403121561140c57600080fd5b611414611188565b9050813581526020820135602082015260408201356040820152606082013560608201526080820135608082015260a082013560a082015292915050565b60006020828403121561146457600080fd5b604051602081016001600160401b03811182821017156114865761148661114a565b604052905080823561149781611395565b905292915050565b60008183036101808112156114b357600080fd5b6114bb611160565b915060808112156114cb57600080fd5b506114d4611160565b6114dd8361131d565b81526114eb6020840161131d565b60208201526114fc6040840161131d565b604082015261150d6060840161131d565b6060820152815261152183608084016113fa565b6020820152611534836101408401611452565b60408201526101608201356001600160401b0381111561155357600080fd5b61155f848285016111fc565b60608301525092915050565b6000806040838503121561157e57600080fd5b8235915060208301356001600160401b0381111561159b57600080fd5b6115a78582860161149f565b9150509250929050565b60008082840360808112156115c557600080fd5b833592506060601f19820112156115db57600080fd5b506020830190509250929050565b600080604083850312156115fc57600080fd5b8235915060208301356001600160401b0381111561161957600080fd5b6115a7858286016111fc565b6000806000806080858703121561163b57600080fd5b84359350602085013592506040850135915060608501356001600160401b0381111561166657600080fd5b611672878288016111fc565b91505092959194509250565b80356008811061133457600080fd5b60008060008060008060008060008060006101608c8e0312156116af57600080fd5b8b359a506116bf60208d0161131d565b99506116cd60408d0161131d565b98506116db60608d0161131d565b975060808c01356116eb81611395565b965060a08c0135955060c08c0135945060e08c013593506101008c013592506101208c0135915061171f6101408d0161167e565b90509295989b509295989b9093969950565b600080600080600060a0868803121561174957600080fd5b6117528661131d565b94506117606020870161131d565b93506113e26040870161131d565b6000806000806080858703121561178457600080fd5b61178d8561131d565b935061179b6020860161131d565b92506117a96040860161131d565b9396929550929360600135925050565b6000808284036102408112156117ce57600080fd5b83356117d981611395565b9250610220601f19820112156115db57600080fd5b6000806040838503121561180157600080fd5b50508035926020909101359150565b60008060008060008060c0878903121561182957600080fd5b6118328761131d565b95506118406020880161131d565b9450604087013593506118556060880161131d565b92506080870135915060a087013590509295509295509295565b600061010080838503121561188357600080fd5b604051908101906001600160401b03821181831017156118a5576118a561114a565b81604052809250833581526020840135602082015260408401356040820152606084013560608201526080840135608082015260a084013560a082015260c084013560c082015260e084013560e0820152505092915050565b60006080828403121561191057600080fd5b611918611160565b90506119238261167e565b8152602082013561193381611395565b6020820152604082013561194681611395565b6040820152606082013561195981611395565b606082015292915050565b6000806040838503121561197757600080fd5b823591506020808401356001600160401b038082111561199657600080fd5b908501906101c082880312156119ab57600080fd5b6119b3611160565b8235828111156119c257600080fd5b830160c0818a0312156119d457600080fd5b6119dc611188565b6119e58261131d565b81526119f286830161131d565b86820152611a026040830161131d565b6040820152611a136060830161131d565b6060820152611a246080830161131d565b608082015260a082013584811115611a3b57600080fd5b80830192505089601f830112611a5057600080fd5b813584811115611a6257611a6261114a565b8060051b611a718882016111cc565b918252838101880191888101908d841115611a8b57600080fd5b948901945b83861015611ab057611aa18661131d565b82529489019490890190611a90565b60a0850152505050825250611ac78884860161186f565b84820152611ad98861012085016118fe565b60408201526101a0830135935081841115611af357600080fd5b611aff888585016111fc565b6060820152809450505050509250929050565b600080600060608486031215611b2757600080fd5b83359250602084013591506040840135611b4081611395565b809150509250925092565b60008060008060008060c08789031215611b6457600080fd5b611b6d8761131d565b9550611b7b6020880161131d565b945060408701359350611b906060880161131d565b9250611b9e6080880161131d565b915060a087013590509295509295509295565b600080600080600060a08688031215611bc957600080fd5b611bd28661131d565b945060208601359350604086013592506060860135611bf081611395565b91506080860135611c0081611395565b809150509295509295909350565b6000806000806000806000806000898b036101a0811215611c2e57600080fd5b60a0811215611c3c57600080fd5b50611c456111aa565b8a358152611c5560208c0161131d565b6020820152611c6660408c0161131d565b6040820152611c7760608c0161131d565b606082015260808b0135611c8a81611395565b6080820152985060a08a0135975060c08a0135965060e08a013595506101008a013594506101208a013593506101408a013592506101608a01359150611cd36101808b0161167e565b90509295985092959850929598565b60008060008060808587031215611cf857600080fd5b5050823594602084013594506040840135936060013592509050565b600060208284031215611d2657600080fd5b611d2f8261131d565b9392505050565b60008060008060808587031215611d4c57600080fd5b611d558561131d565b9350611d636020860161131d565b93969395505050506040820135916060013590565b600080600060608486031215611d8d57600080fd5b611d968461131d565b95602085013595506040909401359392505050565b6020808252600a908201526921a7a72a2927a62622a960b11b604082015260600190565b6001600160a01b039586168152938516602085015291841660408401529092166060820152608081019190915260a00190565b6001600160a01b03958616815293909416602084015290151560408301526060820152608081019190915260a00190565b6000815180845260005b81811015611e5957602081850181015186830182015201611e3d565b506000602082860101526020601f19601f83011685010191505092915050565b6000610180825160018060a01b038082511686528060208301511660208701528060408301511660408701528060608301511660608701525050602083015180516080860152602081015160a0860152604081015160c0860152606081015160e0860152608081015161010086015260a0810151610120860152506040830151511515610140850152606083015181610160860152611f1a82860182611e33565b95945050505050565b828152604060208201526000611f3c6040830184611e79565b949350505050565b828152604060208201526000611f3c6040830184611e33565b60088110611f7b57634e487b7160e01b600052602160045260246000fd5b9052565b8981526001600160a01b03891660208201528715156040820152606081018790526080810186905260a0810185905260c0810184905260e081018390526101208101611fcf610100830184611f5d565b9a9950505050505050505050565b803582526020810135602083015260408101356040830152606081013560608301526080810135608083015260a081013561201781611395565b151560a083015260c081013561202c81611395565b80151560c0840152505050565b821515815261024081016001600160a01b036120548461131d565b166020830152602083013560408301526040830135606083015261207e6080830160608501611fdd565b6101606101408401358184015261018081850135818501526101a091508085013582850152506101c081850135818501526101e0915080850135828501525061020081850135818501528085013561022085015250509392505050565b600081518084526020808501945080840160005b838110156121145781516001600160a01b0316875295820195908201906001016120ef565b509495945050505050565b61212a828251611f5d565b6020810151151560208301526040810151151560408301526060810151151560608301525050565b8281526040602080830182905283516101c08385015280516001600160a01b039081166102008601529181015182166102208501529182015181166102408401526060820151811661026084015260808201511661028083015260a0015160c06102a08301526000906121c96102c08401826120db565b905060208401516122266060850182805182526020810151602083015260408101516040830152606081015160608301526080810151608083015260a081015160a083015260c081015160c083015260e081015160e08301525050565b50604084015161223a61016085018261211f565b506060840151838203603f19016101e08501526122578282611e33565b9695505050505050565b6000610160820190508c825260018060a01b038c1660208301528a151560408301528960608301528860808301528760a08301528660c08301528560e083015284610100830152836101208301526122bd610140830184611f5d565b9c9b505050505050505050505050565b6001600160a01b0394851681529290931660208301526040820152606081019190915260800190565b60006020828403121561230857600080fd5b8151611d2f81611395565b6001600160a01b0383168152604060208201819052600090611f3c90830184611e3356fea26469706673582212208f141646919ce73f7c6f3f6cb491fccd9a9783b9ceb2445bfa288a7c276d0bf564736f6c63430008100033",
  "linkReferences": {},
  "deployedLinkReferences": {}
}