{
  "_format": "hh-sol-artifact-1",
  "contractName": "ExchangeRouter",
  "sourceName": "contracts/router/ExchangeRouter.sol",
  "abi": [
    {
      "inputs": [
        {
          "internalType": "contract Router",
          "name": "_router",
          "type": "address"
        },
        {
          "internalType": "contract RoleStore",
          "name": "_roleStore",
          "type": "address"
        },
        {
          "internalType": "contract DataStore",
          "name": "_dataStore",
          "type": "address"
        },
        {
          "internalType": "contract EventEmitter",
          "name": "_eventEmitter",
          "type": "address"
        },
        {
          "internalType": "contract DepositHandler",
          "name": "_depositHandler",
          "type": "address"
        },
        {
          "internalType": "contract WithdrawalHandler",
          "name": "_withdrawalHandler",
          "type": "address"
        },
        {
          "internalType": "contract OrderHandler",
          "name": "_orderHandler",
          "type": "address"
        }
      ],
      "stateMutability": "nonpayable",
      "type": "constructor"
    },
    {
      "inputs": [
        {
          "internalType": "uint256",
          "name": "adjustedClaimableAmount",
          "type": "uint256"
        },
        {
          "internalType": "uint256",
          "name": "claimedAmount",
          "type": "uint256"
        }
      ],
      "name": "CollateralAlreadyClaimed",
      "type": "error"
    },
    {
      "inputs": [
        {
          "internalType": "bytes32",
          "name": "key",
          "type": "bytes32"
        }
      ],
      "name": "DisabledFeature",
      "type": "error"
    },
    {
      "inputs": [
        {
          "internalType": "address",
          "name": "market",
          "type": "address"
        }
      ],
      "name": "DisabledMarket",
      "type": "error"
    },
    {
      "inputs": [
        {
          "internalType": "address",
          "name": "market",
          "type": "address"
        },
        {
          "internalType": "address",
          "name": "token",
          "type": "address"
        }
      ],
      "name": "EmptyAddressInMarketTokenBalanceValidation",
      "type": "error"
    },
    {
      "inputs": [],
      "name": "EmptyDeposit",
      "type": "error"
    },
    {
      "inputs": [],
      "name": "EmptyHoldingAddress",
      "type": "error"
    },
    {
      "inputs": [],
      "name": "EmptyMarket",
      "type": "error"
    },
    {
      "inputs": [],
      "name": "EmptyOrder",
      "type": "error"
    },
    {
      "inputs": [],
      "name": "EmptyReceiver",
      "type": "error"
    },
    {
      "inputs": [
        {
          "internalType": "address",
          "name": "token",
          "type": "address"
        }
      ],
      "name": "EmptyTokenTranferGasLimit",
      "type": "error"
    },
    {
      "inputs": [
        {
          "internalType": "uint256",
          "name": "marketsLength",
          "type": "uint256"
        },
        {
          "internalType": "uint256",
          "name": "tokensLength",
          "type": "uint256"
        }
      ],
      "name": "InvalidClaimAffiliateRewardsInput",
      "type": "error"
    },
    {
      "inputs": [
        {
          "internalType": "uint256",
          "name": "marketsLength",
          "type": "uint256"
        },
        {
          "internalType": "uint256",
          "name": "tokensLength",
          "type": "uint256"
        },
        {
          "internalType": "uint256",
          "name": "timeKeysLength",
          "type": "uint256"
        }
      ],
      "name": "InvalidClaimCollateralInput",
      "type": "error"
    },
    {
      "inputs": [
        {
          "internalType": "uint256",
          "name": "marketsLength",
          "type": "uint256"
        },
        {
          "internalType": "uint256",
          "name": "tokensLength",
          "type": "uint256"
        }
      ],
      "name": "InvalidClaimFundingFeesInput",
      "type": "error"
    },
    {
      "inputs": [
        {
          "internalType": "uint256",
          "name": "marketsLength",
          "type": "uint256"
        },
        {
          "internalType": "uint256",
          "name": "tokensLength",
          "type": "uint256"
        }
      ],
      "name": "InvalidClaimUiFeesInput",
      "type": "error"
    },
    {
      "inputs": [
        {
          "internalType": "address",
          "name": "market",
          "type": "address"
        },
        {
          "internalType": "address",
          "name": "token",
          "type": "address"
        },
        {
          "internalType": "uint256",
          "name": "balance",
          "type": "uint256"
        },
        {
          "internalType": "uint256",
          "name": "expectedMinBalance",
          "type": "uint256"
        }
      ],
      "name": "InvalidMarketTokenBalance",
      "type": "error"
    },
    {
      "inputs": [
        {
          "internalType": "address",
          "name": "market",
          "type": "address"
        },
        {
          "internalType": "address",
          "name": "token",
          "type": "address"
        },
        {
          "internalType": "uint256",
          "name": "balance",
          "type": "uint256"
        },
        {
          "internalType": "uint256",
          "name": "claimableFundingFeeAmount",
          "type": "uint256"
        }
      ],
      "name": "InvalidMarketTokenBalanceForClaimableFunding",
      "type": "error"
    },
    {
      "inputs": [
        {
          "internalType": "uint256",
          "name": "uiFeeFactor",
          "type": "uint256"
        },
        {
          "internalType": "uint256",
          "name": "maxUiFeeFactor",
          "type": "uint256"
        }
      ],
      "name": "InvalidUiFeeFactor",
      "type": "error"
    },
    {
      "inputs": [
        {
          "internalType": "address",
          "name": "token",
          "type": "address"
        },
        {
          "internalType": "address",
          "name": "receiver",
          "type": "address"
        },
        {
          "internalType": "uint256",
          "name": "amount",
          "type": "uint256"
        }
      ],
      "name": "TokenTransferError",
      "type": "error"
    },
    {
      "inputs": [
        {
          "internalType": "address",
          "name": "msgSender",
          "type": "address"
        },
        {
          "internalType": "string",
          "name": "role",
          "type": "string"
        }
      ],
      "name": "Unauthorized",
      "type": "error"
    },
    {
      "inputs": [
        {
          "internalType": "bytes32",
          "name": "key",
          "type": "bytes32"
        }
      ],
      "name": "cancelDeposit",
      "outputs": [],
      "stateMutability": "payable",
      "type": "function"
    },
    {
      "inputs": [
        {
          "internalType": "bytes32",
          "name": "key",
          "type": "bytes32"
        }
      ],
      "name": "cancelOrder",
      "outputs": [],
      "stateMutability": "payable",
      "type": "function"
    },
    {
      "inputs": [
        {
          "internalType": "bytes32",
          "name": "key",
          "type": "bytes32"
        }
      ],
      "name": "cancelWithdrawal",
      "outputs": [],
      "stateMutability": "payable",
      "type": "function"
    },
    {
      "inputs": [
        {
          "internalType": "address[]",
          "name": "markets",
          "type": "address[]"
        },
        {
          "internalType": "address[]",
          "name": "tokens",
          "type": "address[]"
        },
        {
          "internalType": "address",
          "name": "receiver",
          "type": "address"
        }
      ],
      "name": "claimAffiliateRewards",
      "outputs": [],
      "stateMutability": "payable",
      "type": "function"
    },
    {
      "inputs": [
        {
          "internalType": "address[]",
          "name": "markets",
          "type": "address[]"
        },
        {
          "internalType": "address[]",
          "name": "tokens",
          "type": "address[]"
        },
        {
          "internalType": "uint256[]",
          "name": "timeKeys",
          "type": "uint256[]"
        },
        {
          "internalType": "address",
          "name": "receiver",
          "type": "address"
        }
      ],
      "name": "claimCollateral",
      "outputs": [],
      "stateMutability": "payable",
      "type": "function"
    },
    {
      "inputs": [
        {
          "internalType": "address[]",
          "name": "markets",
          "type": "address[]"
        },
        {
          "internalType": "address[]",
          "name": "tokens",
          "type": "address[]"
        },
        {
          "internalType": "address",
          "name": "receiver",
          "type": "address"
        }
      ],
      "name": "claimFundingFees",
      "outputs": [],
      "stateMutability": "payable",
      "type": "function"
    },
    {
      "inputs": [
        {
          "internalType": "address[]",
          "name": "markets",
          "type": "address[]"
        },
        {
          "internalType": "address[]",
          "name": "tokens",
          "type": "address[]"
        },
        {
          "internalType": "address",
          "name": "receiver",
          "type": "address"
        }
      ],
      "name": "claimUiFees",
      "outputs": [],
      "stateMutability": "payable",
      "type": "function"
    },
    {
      "inputs": [
        {
          "components": [
            {
              "internalType": "address",
              "name": "receiver",
              "type": "address"
            },
            {
              "internalType": "address",
              "name": "callbackContract",
              "type": "address"
            },
            {
              "internalType": "address",
              "name": "uiFeeReceiver",
              "type": "address"
            },
            {
              "internalType": "address",
              "name": "market",
              "type": "address"
            },
            {
              "internalType": "address",
              "name": "initialLongToken",
              "type": "address"
            },
            {
              "internalType": "address",
              "name": "initialShortToken",
              "type": "address"
            },
            {
              "internalType": "address[]",
              "name": "longTokenSwapPath",
              "type": "address[]"
            },
            {
              "internalType": "address[]",
              "name": "shortTokenSwapPath",
              "type": "address[]"
            },
            {
              "internalType": "uint256",
              "name": "minMarketTokens",
              "type": "uint256"
            },
            {
              "internalType": "bool",
              "name": "shouldUnwrapNativeToken",
              "type": "bool"
            },
            {
              "internalType": "uint256",
              "name": "executionFee",
              "type": "uint256"
            },
            {
              "internalType": "uint256",
              "name": "callbackGasLimit",
              "type": "uint256"
            }
          ],
          "internalType": "struct DepositUtils.CreateDepositParams",
          "name": "params",
          "type": "tuple"
        }
      ],
      "name": "createDeposit",
      "outputs": [
        {
          "internalType": "bytes32",
          "name": "",
          "type": "bytes32"
        }
      ],
      "stateMutability": "payable",
      "type": "function"
    },
    {
      "inputs": [
        {
          "components": [
            {
              "components": [
                {
                  "internalType": "address",
                  "name": "receiver",
                  "type": "address"
                },
                {
                  "internalType": "address",
                  "name": "callbackContract",
                  "type": "address"
                },
                {
                  "internalType": "address",
                  "name": "uiFeeReceiver",
                  "type": "address"
                },
                {
                  "internalType": "address",
                  "name": "market",
                  "type": "address"
                },
                {
                  "internalType": "address",
                  "name": "initialCollateralToken",
                  "type": "address"
                },
                {
                  "internalType": "address[]",
                  "name": "swapPath",
                  "type": "address[]"
                }
              ],
              "internalType": "struct BaseOrderUtils.CreateOrderParamsAddresses",
              "name": "addresses",
              "type": "tuple"
            },
            {
              "components": [
                {
                  "internalType": "uint256",
                  "name": "sizeDeltaUsd",
                  "type": "uint256"
                },
                {
                  "internalType": "uint256",
                  "name": "initialCollateralDeltaAmount",
                  "type": "uint256"
                },
                {
                  "internalType": "uint256",
                  "name": "triggerPrice",
                  "type": "uint256"
                },
                {
                  "internalType": "uint256",
                  "name": "acceptablePrice",
                  "type": "uint256"
                },
                {
                  "internalType": "uint256",
                  "name": "executionFee",
                  "type": "uint256"
                },
                {
                  "internalType": "uint256",
                  "name": "callbackGasLimit",
                  "type": "uint256"
                },
                {
                  "internalType": "uint256",
                  "name": "minOutputAmount",
                  "type": "uint256"
                }
              ],
              "internalType": "struct BaseOrderUtils.CreateOrderParamsNumbers",
              "name": "numbers",
              "type": "tuple"
            },
            {
              "internalType": "enum Order.OrderType",
              "name": "orderType",
              "type": "uint8"
            },
            {
              "internalType": "enum Order.DecreasePositionSwapType",
              "name": "decreasePositionSwapType",
              "type": "uint8"
            },
            {
              "internalType": "bool",
              "name": "isLong",
              "type": "bool"
            },
            {
              "internalType": "bool",
              "name": "shouldUnwrapNativeToken",
              "type": "bool"
            },
            {
              "internalType": "bytes32",
              "name": "referralCode",
              "type": "bytes32"
            }
          ],
          "internalType": "struct BaseOrderUtils.CreateOrderParams",
          "name": "params",
          "type": "tuple"
        }
      ],
      "name": "createOrder",
      "outputs": [
        {
          "internalType": "bytes32",
          "name": "",
          "type": "bytes32"
        }
      ],
      "stateMutability": "payable",
      "type": "function"
    },
    {
      "inputs": [
        {
          "components": [
            {
              "internalType": "address",
              "name": "receiver",
              "type": "address"
            },
            {
              "internalType": "address",
              "name": "callbackContract",
              "type": "address"
            },
            {
              "internalType": "address",
              "name": "uiFeeReceiver",
              "type": "address"
            },
            {
              "internalType": "address",
              "name": "market",
              "type": "address"
            },
            {
              "internalType": "address[]",
              "name": "longTokenSwapPath",
              "type": "address[]"
            },
            {
              "internalType": "address[]",
              "name": "shortTokenSwapPath",
              "type": "address[]"
            },
            {
              "internalType": "uint256",
              "name": "minLongTokenAmount",
              "type": "uint256"
            },
            {
              "internalType": "uint256",
              "name": "minShortTokenAmount",
              "type": "uint256"
            },
            {
              "internalType": "bool",
              "name": "shouldUnwrapNativeToken",
              "type": "bool"
            },
            {
              "internalType": "uint256",
              "name": "executionFee",
              "type": "uint256"
            },
            {
              "internalType": "uint256",
              "name": "callbackGasLimit",
              "type": "uint256"
            }
          ],
          "internalType": "struct WithdrawalUtils.CreateWithdrawalParams",
          "name": "params",
          "type": "tuple"
        }
      ],
      "name": "createWithdrawal",
      "outputs": [
        {
          "internalType": "bytes32",
          "name": "",
          "type": "bytes32"
        }
      ],
      "stateMutability": "payable",
      "type": "function"
    },
    {
      "inputs": [],
      "name": "dataStore",
      "outputs": [
        {
          "internalType": "contract DataStore",
          "name": "",
          "type": "address"
        }
      ],
      "stateMutability": "view",
      "type": "function"
    },
    {
      "inputs": [],
      "name": "depositHandler",
      "outputs": [
        {
          "internalType": "contract DepositHandler",
          "name": "",
          "type": "address"
        }
      ],
      "stateMutability": "view",
      "type": "function"
    },
    {
      "inputs": [],
      "name": "eventEmitter",
      "outputs": [
        {
          "internalType": "contract EventEmitter",
          "name": "",
          "type": "address"
        }
      ],
      "stateMutability": "view",
      "type": "function"
    },
    {
      "inputs": [
        {
          "internalType": "bytes[]",
          "name": "data",
          "type": "bytes[]"
        }
      ],
      "name": "multicall",
      "outputs": [
        {
          "internalType": "bytes[]",
          "name": "results",
          "type": "bytes[]"
        }
      ],
      "stateMutability": "payable",
      "type": "function"
    },
    {
      "inputs": [],
      "name": "orderHandler",
      "outputs": [
        {
          "internalType": "contract OrderHandler",
          "name": "",
          "type": "address"
        }
      ],
      "stateMutability": "view",
      "type": "function"
    },
    {
      "inputs": [],
      "name": "roleStore",
      "outputs": [
        {
          "internalType": "contract RoleStore",
          "name": "",
          "type": "address"
        }
      ],
      "stateMutability": "view",
      "type": "function"
    },
    {
      "inputs": [],
      "name": "router",
      "outputs": [
        {
          "internalType": "contract Router",
          "name": "",
          "type": "address"
        }
      ],
      "stateMutability": "view",
      "type": "function"
    },
    {
      "inputs": [
        {
          "internalType": "address",
          "name": "token",
          "type": "address"
        },
        {
          "internalType": "address",
          "name": "receiver",
          "type": "address"
        },
        {
          "internalType": "uint256",
          "name": "amount",
          "type": "uint256"
        }
      ],
      "name": "sendTokens",
      "outputs": [],
      "stateMutability": "payable",
      "type": "function"
    },
    {
      "inputs": [
        {
          "internalType": "address",
          "name": "receiver",
          "type": "address"
        },
        {
          "internalType": "uint256",
          "name": "amount",
          "type": "uint256"
        }
      ],
      "name": "sendWnt",
      "outputs": [],
      "stateMutability": "payable",
      "type": "function"
    },
    {
      "inputs": [
        {
          "internalType": "uint256",
          "name": "uiFeeFactor",
          "type": "uint256"
        }
      ],
      "name": "setUiFeeFactor",
      "outputs": [],
      "stateMutability": "payable",
      "type": "function"
    },
    {
      "inputs": [
        {
          "internalType": "bytes32",
          "name": "key",
          "type": "bytes32"
        },
        {
          "components": [
            {
              "internalType": "address[]",
              "name": "primaryTokens",
              "type": "address[]"
            },
            {
              "components": [
                {
                  "internalType": "uint256",
                  "name": "min",
                  "type": "uint256"
                },
                {
                  "internalType": "uint256",
                  "name": "max",
                  "type": "uint256"
                }
              ],
              "internalType": "struct Price.Props[]",
              "name": "primaryPrices",
              "type": "tuple[]"
            },
            {
              "internalType": "address[]",
              "name": "secondaryTokens",
              "type": "address[]"
            },
            {
              "components": [
                {
                  "internalType": "uint256",
                  "name": "min",
                  "type": "uint256"
                },
                {
                  "internalType": "uint256",
                  "name": "max",
                  "type": "uint256"
                }
              ],
              "internalType": "struct Price.Props[]",
              "name": "secondaryPrices",
              "type": "tuple[]"
            }
          ],
          "internalType": "struct OracleUtils.SimulatePricesParams",
          "name": "simulatedOracleParams",
          "type": "tuple"
        }
      ],
      "name": "simulateExecuteDeposit",
      "outputs": [],
      "stateMutability": "payable",
      "type": "function"
    },
    {
      "inputs": [
        {
          "internalType": "bytes32",
          "name": "key",
          "type": "bytes32"
        },
        {
          "components": [
            {
              "internalType": "address[]",
              "name": "primaryTokens",
              "type": "address[]"
            },
            {
              "components": [
                {
                  "internalType": "uint256",
                  "name": "min",
                  "type": "uint256"
                },
                {
                  "internalType": "uint256",
                  "name": "max",
                  "type": "uint256"
                }
              ],
              "internalType": "struct Price.Props[]",
              "name": "primaryPrices",
              "type": "tuple[]"
            },
            {
              "internalType": "address[]",
              "name": "secondaryTokens",
              "type": "address[]"
            },
            {
              "components": [
                {
                  "internalType": "uint256",
                  "name": "min",
                  "type": "uint256"
                },
                {
                  "internalType": "uint256",
                  "name": "max",
                  "type": "uint256"
                }
              ],
              "internalType": "struct Price.Props[]",
              "name": "secondaryPrices",
              "type": "tuple[]"
            }
          ],
          "internalType": "struct OracleUtils.SimulatePricesParams",
          "name": "simulatedOracleParams",
          "type": "tuple"
        }
      ],
      "name": "simulateExecuteOrder",
      "outputs": [],
      "stateMutability": "payable",
      "type": "function"
    },
    {
      "inputs": [
        {
          "internalType": "bytes32",
          "name": "key",
          "type": "bytes32"
        },
        {
          "components": [
            {
              "internalType": "address[]",
              "name": "primaryTokens",
              "type": "address[]"
            },
            {
              "components": [
                {
                  "internalType": "uint256",
                  "name": "min",
                  "type": "uint256"
                },
                {
                  "internalType": "uint256",
                  "name": "max",
                  "type": "uint256"
                }
              ],
              "internalType": "struct Price.Props[]",
              "name": "primaryPrices",
              "type": "tuple[]"
            },
            {
              "internalType": "address[]",
              "name": "secondaryTokens",
              "type": "address[]"
            },
            {
              "components": [
                {
                  "internalType": "uint256",
                  "name": "min",
                  "type": "uint256"
                },
                {
                  "internalType": "uint256",
                  "name": "max",
                  "type": "uint256"
                }
              ],
              "internalType": "struct Price.Props[]",
              "name": "secondaryPrices",
              "type": "tuple[]"
            }
          ],
          "internalType": "struct OracleUtils.SimulatePricesParams",
          "name": "simulatedOracleParams",
          "type": "tuple"
        }
      ],
      "name": "simulateExecuteWithdrawal",
      "outputs": [],
      "stateMutability": "payable",
      "type": "function"
    },
    {
      "inputs": [
        {
          "internalType": "bytes32",
          "name": "key",
          "type": "bytes32"
        },
        {
          "internalType": "uint256",
          "name": "sizeDeltaUsd",
          "type": "uint256"
        },
        {
          "internalType": "uint256",
          "name": "acceptablePrice",
          "type": "uint256"
        },
        {
          "internalType": "uint256",
          "name": "triggerPrice",
          "type": "uint256"
        },
        {
          "internalType": "uint256",
          "name": "minOutputAmount",
          "type": "uint256"
        }
      ],
      "name": "updateOrder",
      "outputs": [],
      "stateMutability": "payable",
      "type": "function"
    },
    {
      "inputs": [],
      "name": "withdrawalHandler",
      "outputs": [
        {
          "internalType": "contract WithdrawalHandler",
          "name": "",
          "type": "address"
        }
      ],
      "stateMutability": "view",
      "type": "function"
    }
  ],
  "bytecode": "0x6101606040523480156200001257600080fd5b50604051620061933803806200619383398101604081905262000035916200008a565b60016000556001600160a01b0395861660805295851660a05292841660c05290831660e052821661010052811661012052166101405262000135565b6001600160a01b03811681146200008757600080fd5b50565b600080600080600080600060e0888a031215620000a657600080fd5b8751620000b38162000071565b6020890151909750620000c68162000071565b6040890151909650620000d98162000071565b6060890151909550620000ec8162000071565b6080890151909450620000ff8162000071565b60a0890151909350620001128162000071565b60c0890151909250620001258162000071565b8091505092959891949750929550565b60805160a05160c05160e051610100516101205161014051615f31620002626000396000818161036b015281816107770152818161090b01528181610d780152610f4d01526000818161015201528181610bcd0152818161112c01526112c50152600081816102bd015281816106cb01528181610a4f01526115680152600081816102f1015281816104dd0152818161085d015281816109df0152818161121b01526114a40152600081816102500152818161047d015281816104bc015281816105ad015281816108020152818161083c015281816109be01528181610ade01528181610c5c01528181610de401528181610e62015281816111b7015281816111fa0152818161144001526114830152600081816103eb0152611363015260006101f60152615f316000f3fe6080604052600436106101265760003560e01c806301a9cbb21461012b5780632c2f3c0714610140578063314044841461018a5780633bc4de561461019d57806349287a22146101b05780634a393a41146101c35780634a4a7b04146101e45780635a03cd94146102185780635b4e95611461022b578063660d0d671461023e5780637213c5a0146102725780637489ec23146102855780637d39aaf1146102985780639c8b2cfb146102ab5780639ff78c30146102df578063aab286f814610313578063ac9650d814610326578063ad23c5a114610346578063b584830514610359578063c41b1ab31461038d578063ca18d490146103a0578063e6d66ac8146103b3578063e9249b57146103c6578063f887ea40146103d9578063fac77c701461040d575b600080fd5b61013e610139366004613e00565b610420565b005b34801561014c57600080fd5b506101747f000000000000000000000000000000000000000000000000000000000000000081565b6040516101819190613e77565b60405180910390f35b61013e610198366004613e8b565b610555565b61013e6101ab366004613f23565b610739565b61013e6101be366004613e00565b6107ae565b6101d66101d1366004614007565b6108c9565b604051908152602001610181565b3480156101f057600080fd5b506101747f000000000000000000000000000000000000000000000000000000000000000081565b61013e610226366004613e8b565b610991565b6101d6610239366004614042565b610a0e565b34801561024a57600080fd5b506101747f000000000000000000000000000000000000000000000000000000000000000081565b61013e610280366004613e8b565b610a86565b61013e610293366004613e8b565b610c04565b61013e6102a636600461407d565b610daf565b3480156102b757600080fd5b506101747f000000000000000000000000000000000000000000000000000000000000000081565b3480156102eb57600080fd5b506101747f000000000000000000000000000000000000000000000000000000000000000081565b61013e6103213660046140a9565b610e0a565b6103396103343660046140e4565b610fcb565b60405161018191906141a8565b6101d661035436600461420a565b6110ea565b34801561036557600080fd5b506101747f000000000000000000000000000000000000000000000000000000000000000081565b61013e61039b366004613e00565b611163565b61013e6103ae366004613f23565b611287565b61013e6103c1366004614245565b6112fc565b61013e6103d4366004614286565b6113cc565b3480156103e557600080fd5b506101747f000000000000000000000000000000000000000000000000000000000000000081565b61013e61041b366004613f23565b61152a565b60026000540361044b5760405162461bcd60e51b815260040161044290614374565b60405180910390fd5b6002600055815183511461047857825182516040516374cee48d60e01b81526004016104429291906143ab565b6104aa7f00000000000000000000000000000000000000000000000000000000000000006104a53061159f565b61162c565b3360005b8451811015610549576105377f00000000000000000000000000000000000000000000000000000000000000007f00000000000000000000000000000000000000000000000000000000000000008488858151811061050f5761050f6143b9565b6020026020010151888681518110610529576105296143b9565b60200260200101518861165b565b80610541816143e5565b9150506104ae565b50506001600055505050565b6002600054036105775760405162461bcd60e51b815260040161044290614374565b6002600090815560405163fdfc26f360e01b815273__$b63e253a228f0e32f671cc49c7fc32477c$__9063fdfc26f3906105d7907f00000000000000000000000000000000000000000000000000000000000000009086906004016143fe565b600060405180830381865af41580156105f4573d6000803e3d6000fd5b505050506040513d6000823e601f3d908101601f1916820160405261061c919081019061455c565b9050600061062982515190565b6001600160a01b031603610650576040516395b66fe960e01b815260040160405180910390fd5b3361065a82515190565b6001600160a01b0316146106b5576040805163a35b150b60e01b8152336004820152602481019190915260196044820152781858d8dbdd5b9d08199bdc8818d85b98d95b11195c1bdcda5d603a1b6064820152608401610442565b604051630c50112160e21b8152600481018390527f00000000000000000000000000000000000000000000000000000000000000006001600160a01b0316906331404484906024015b600060405180830381600087803b15801561071857600080fd5b505af115801561072c573d6000803e3d6000fd5b5050600160005550505050565b60026000540361075b5760405162461bcd60e51b815260040161044290614374565b6002600055604051631de26f2b60e11b81526001600160a01b037f00000000000000000000000000000000000000000000000000000000000000001690633bc4de56906106fe9085908590600401614742565b6002600054036107d05760405162461bcd60e51b815260040161044290614374565b600260005581518351146107fd5782518251604051635b3043dd60e01b81526004016104429291906143ab565b61082a7f00000000000000000000000000000000000000000000000000000000000000006104a5306118b9565b3360005b8451811015610549576108b77f00000000000000000000000000000000000000000000000000000000000000007f000000000000000000000000000000000000000000000000000000000000000087848151811061088e5761088e6143b9565b60200260200101518785815181106108a8576108a86143b9565b6020026020010151868861190d565b806108c1816143e5565b91505061082e565b60006002600054036108ed5760405162461bcd60e51b815260040161044290614374565b600260005560405163718a30b960e11b815233906001600160a01b037f0000000000000000000000000000000000000000000000000000000000000000169063e314617290610942908490879060040161494e565b6020604051808303816000875af1158015610961573d6000803e3d6000fd5b505050506040513d601f19601f820116820180604052508101906109859190614a6e565b60016000559392505050565b6002600054036109b35760405162461bcd60e51b815260040161044290614374565b600260005533610a057f00000000000000000000000000000000000000000000000000000000000000007f00000000000000000000000000000000000000000000000000000000000000008385611bc7565b50506001600055565b6000600260005403610a325760405162461bcd60e51b815260040161044290614374565b600260005560405162bd80c160e61b815233906001600160a01b037f00000000000000000000000000000000000000000000000000000000000000001690632f603040906109429084908790600401614a87565b600260005403610aa85760405162461bcd60e51b815260040161044290614374565b6002600090815560405163fdfc26f360e01b815273__$3dc24d71d6ebafc0c4ce8ac2f69cd1548a$__9063fdfc26f390610b08907f00000000000000000000000000000000000000000000000000000000000000009086906004016143fe565b600060405180830381865af4158015610b25573d6000803e3d6000fd5b505050506040513d6000823e601f3d908101601f19168201604052610b4d9190810190614bd3565b905033610b5982515190565b6001600160a01b031614610bb7576040805163a35b150b60e01b81523360048201526024810191909152601c60448201527b1858d8dbdd5b9d08199bdc8818d85b98d95b15da5d1a191c985dd85b60221b6064820152608401610442565b6040516303909e2d60e51b8152600481018390527f00000000000000000000000000000000000000000000000000000000000000006001600160a01b031690637213c5a0906024016106fe565b600260005403610c265760405162461bcd60e51b815260040161044290614374565b6002600090815560405163fdfc26f360e01b815273__$9dcb75ef0bb6c4288f2ccffe7dc492c4eb$__9063fdfc26f390610c86907f00000000000000000000000000000000000000000000000000000000000000009086906004016143fe565b600060405180830381865af4158015610ca3573d6000803e3d6000fd5b505050506040513d6000823e601f3d908101601f19168201604052610ccb9190810190614e07565b90506000610cd882515190565b6001600160a01b031603610cff57604051631630779760e01b815260040160405180910390fd5b33610d0982515190565b6001600160a01b031614610d62576040805163a35b150b60e01b81523360048201526024810191909152601760448201527630b1b1b7bab73a103337b91031b0b731b2b627b93232b960491b6064820152608401610442565b604051637489ec2360e01b8152600481018390527f00000000000000000000000000000000000000000000000000000000000000006001600160a01b031690637489ec23906024016106fe565b600260005403610dd15760405162461bcd60e51b815260040161044290614374565b6002600055610ddf82611d8a565b610a057f00000000000000000000000000000000000000000000000000000000000000008383611db4565b600260005403610e2c5760405162461bcd60e51b815260040161044290614374565b6002600090815560405163fdfc26f360e01b815273__$9dcb75ef0bb6c4288f2ccffe7dc492c4eb$__9063fdfc26f390610e8c907f0000000000000000000000000000000000000000000000000000000000000000908a906004016143fe565b600060405180830381865af4158015610ea9573d6000803e3d6000fd5b505050506040513d6000823e601f3d908101601f19168201604052610ed19190810190614e07565b905033610edd82515190565b6001600160a01b031614610f36576040805163a35b150b60e01b81523360048201526024810191909152601760448201527630b1b1b7bab73a103337b9103ab83230ba32a7b93232b960491b6064820152608401610442565b6040516396fe6a9360e01b81526001600160a01b037f000000000000000000000000000000000000000000000000000000000000000016906396fe6a9390610f8c90899089908990899089908990600401614f93565b600060405180830381600087803b158015610fa657600080fd5b505af1158015610fba573d6000803e3d6000fd5b505060016000555050505050505050565b6060816001600160401b03811115610fe557610fe5613c2a565b60405190808252806020026020018201604052801561101857816020015b60608152602001906001900390816110035790505b50905060005b828110156110e2576000803086868581811061103c5761103c6143b9565b905060200281019061104e919061508e565b60405161105c9291906150d4565b600060405180830381855af49150503d8060008114611097576040519150601f19603f3d011682016040523d82523d6000602084013e61109c565b606091505b5091509150816110af576110af81611e3d565b808484815181106110c2576110c26143b9565b6020026020010181905250505080806110da906143e5565b91505061101e565b505b92915050565b600060026000540361110e5760405162461bcd60e51b815260040161044290614374565b6002600055604051634c5a91e560e11b815233906001600160a01b037f000000000000000000000000000000000000000000000000000000000000000016906398b523ca9061094290849087906004016150e4565b6002600054036111855760405162461bcd60e51b815260040161044290614374565b600260005581518351146111b25782518251604051637363cfa560e01b81526004016104429291906143ab565b6111df7f00000000000000000000000000000000000000000000000000000000000000006104a530611e7b565b6111e881611d8a565b3360005b8451811015610549576112757f00000000000000000000000000000000000000000000000000000000000000007f000000000000000000000000000000000000000000000000000000000000000087848151811061124c5761124c6143b9565b6020026020010151878581518110611266576112666143b9565b60200260200101518688611eca565b8061127f816143e5565b9150506111ec565b6002600054036112a95760405162461bcd60e51b815260040161044290614374565b6002600055604051630ca18d4960e41b81526001600160a01b037f0000000000000000000000000000000000000000000000000000000000000000169063ca18d490906106fe9085908590600401614742565b60026000540361131e5760405162461bcd60e51b815260040161044290614374565b600260005561132c82611d8a565b6040516303704f0f60e31b81526001600160a01b0384811660048301523360248301819052848216604484015260648301849052917f000000000000000000000000000000000000000000000000000000000000000090911690631b82787890608401600060405180830381600087803b1580156113a957600080fd5b505af11580156113bd573d6000803e3d6000fd5b50506001600055505050505050565b6002600054036113ee5760405162461bcd60e51b815260040161044290614374565b60026000558251845114158061140657508151835114155b1561143b5783518351835160405163216068f960e11b8152600481019390935260248301919091526044820152606401610442565b6114687f00000000000000000000000000000000000000000000000000000000000000006104a5306120ea565b61147181611d8a565b3360005b855181101561072c576115187f00000000000000000000000000000000000000000000000000000000000000007f00000000000000000000000000000000000000000000000000000000000000008884815181106114d5576114d56143b9565b60200260200101518885815181106114ef576114ef6143b9565b6020026020010151888681518110611509576115096143b9565b60200260200101518789612137565b80611522816143e5565b915050611475565b60026000540361154c5760405162461bcd60e51b815260040161044290614374565b6002600055604051630fac77c760e41b81526001600160a01b037f0000000000000000000000000000000000000000000000000000000000000000169063fac77c70906106fe9085908590600401614742565b60006040516020016115e2906020808252601e908201527f434c41494d5f55495f464545535f464541545552455f44495341424c45440000604082015260600190565b60408051601f198184030181528282528051602091820120908301526001600160a01b03841690820152606001604051602081830303815290604052805190602001209050919050565b61163682826125b6565b156116575760405163dd70e0c960e01b815260048101829052602401610442565b5050565b61166481611d8a565b6000611671848487612629565b60405163bd02d0f560e01b8152600481018290529091506000906001600160a01b0389169063bd02d0f590602401602060405180830381865afa1580156116bc573d6000803e3d6000fd5b505050506040513d601f19601f820116820180604052508101906116e09190614a6e565b604051637152429d60e11b81529091506001600160a01b0389169063e2a4853a906117129085906000906004016143ab565b6020604051808303816000875af1158015611731573d6000803e3d6000fd5b505050506040513d601f19601f820116820180604052508101906117559190614a6e565b506000886001600160a01b031663e98aabc1611771888861269a565b846040518363ffffffff1660e01b815260040161178f9291906143ab565b6020604051808303816000875af11580156117ae573d6000803e3d6000fd5b505050506040513d601f19601f820116820180604052508101906117d29190614a6e565b60405163078d3b7960e01b81529091506001600160a01b0387169063078d3b7990611805908890889087906004016151ff565b600060405180830381600087803b15801561181f57600080fd5b505af1158015611833573d6000803e3d6000fd5b5050604051632c9800af60e11b815273__$e53db83827f4e07ebc418caf7145b8c2d5$__9250635930015e9150611870908c908a90600401615223565b60006040518083038186803b15801561188857600080fd5b505af415801561189c573d6000803e3d6000fd5b505050506118ae888888878686612701565b505050505050505050565b60006040516020016115e29060208082526028908201527f434c41494d5f414646494c494154455f524557415244535f464541545552455f604082015267111254d05093115160c21b606082015260800190565b600061191a8585856128a9565b60405163bd02d0f560e01b8152600481018290529091506000906001600160a01b0389169063bd02d0f590602401602060405180830381865afa158015611965573d6000803e3d6000fd5b505050506040513d601f19601f820116820180604052508101906119899190614a6e565b604051637152429d60e11b81529091506001600160a01b0389169063e2a4853a906119bb9085906000906004016143ab565b6020604051808303816000875af11580156119da573d6000803e3d6000fd5b505050506040513d601f19601f820116820180604052508101906119fe9190614a6e565b506000886001600160a01b031663e98aabc1611a1a89896128ba565b846040518363ffffffff1660e01b8152600401611a389291906143ab565b6020604051808303816000875af1158015611a57573d6000803e3d6000fd5b505050506040513d601f19601f82011682018060405250810190611a7b9190614a6e565b60405163078d3b7960e01b81529091506001600160a01b0388169063078d3b7990611aae908990889087906004016151ff565b600060405180830381600087803b158015611ac857600080fd5b505af1158015611adc573d6000803e3d6000fd5b5050604051632c9800af60e11b815273__$e53db83827f4e07ebc418caf7145b8c2d5$__9250635930015e9150611b19908c908b90600401615223565b60006040518083038186803b158015611b3157600080fd5b505af4158015611b45573d6000803e3d6000fd5b505060405163489e6a9160e11b815273__$c5242c1b4d0e7cbc87936b604afb77fd42$__925063913cd5229150611b8c908b908b908b908b908b908a908a9060040161523d565b60006040518083038186803b158015611ba457600080fd5b505af4158015611bb8573d6000803e3d6000fd5b50505050505050505050505050565b6000846001600160a01b031663bd02d0f5604051602001611c0d9060208082526011908201527026a0ac2faaa4afa322a2afa320a1aa27a960791b604082015260600190565b604051602081830303815290604052805190602001206040518263ffffffff1660e01b8152600401611c4191815260200190565b602060405180830381865afa158015611c5e573d6000803e3d6000fd5b505050506040513d601f19601f82011682018060405250810190611c829190614a6e565b905080821115611ca9578181604051638146813960e01b81526004016104429291906143ab565b846001600160a01b031663e2a4853a611cc1856128cb565b846040518363ffffffff1660e01b8152600401611cdf9291906143ab565b6020604051808303816000875af1158015611cfe573d6000803e3d6000fd5b505050506040513d601f19601f82011682018060405250810190611d229190614a6e565b506040516311bfdfd160e21b815273__$c1eebf06e53d0bd092f667687cf73e1ebf$__906346ff7f4490611d5e908790879087906004016151ff565b60006040518083038186803b158015611d7657600080fd5b505af41580156118ae573d6000803e3d6000fd5b6001600160a01b038116611db15760405163d551823d60e01b815260040160405180910390fd5b50565b80600003611dc157505050565b611dca82611d8a565b6000611dd5846128fe565b9050806001600160a01b031663d0e30db0836040518263ffffffff1660e01b81526004016000604051808303818588803b158015611e1257600080fd5b505af1158015611e26573d6000803e3d6000fd5b5050505050611e37848285856129ab565b50505050565b600080611e4983612be1565b915091508015611e6d578160405162461bcd60e51b81526004016104429190615280565b611e7683612c71565b505050565b60006040516020016115e29060208082526023908201527f434c41494d5f46554e44494e475f464545535f464541545552455f444953414260408201526213115160ea1b606082015260800190565b6000611ed7858585612c7a565b60405163bd02d0f560e01b8152600481018290529091506000906001600160a01b0389169063bd02d0f590602401602060405180830381865afa158015611f22573d6000803e3d6000fd5b505050506040513d601f19601f82011682018060405250810190611f469190614a6e565b604051637152429d60e11b81529091506001600160a01b0389169063e2a4853a90611f789085906000906004016143ab565b6020604051808303816000875af1158015611f97573d6000803e3d6000fd5b505050506040513d601f19601f82011682018060405250810190611fbb9190614a6e565b506000886001600160a01b031663e98aabc1611fd78989612c8b565b846040518363ffffffff1660e01b8152600401611ff59291906143ab565b6020604051808303816000875af1158015612014573d6000803e3d6000fd5b505050506040513d601f19601f820116820180604052508101906120389190614a6e565b60405163078d3b7960e01b81529091506001600160a01b0388169063078d3b799061206b908990889087906004016151ff565b600060405180830381600087803b15801561208557600080fd5b505af1158015612099573d6000803e3d6000fd5b505050506120a78988612c9c565b604051634ee4c83160e01b815273__$c1eebf06e53d0bd092f667687cf73e1ebf$__90634ee4c83190611b8c908b908b908b908b908b908a908a9060040161523d565b60006040516020016115e29060208082526021908201527f434c41494d5f434f4c4c41544552414c5f464541545552455f44495341424c456040820152601160fa1b606082015260800190565b6000876001600160a01b031663bd02d0f561215488888888612cb4565b6040518263ffffffff1660e01b815260040161217291815260200190565b602060405180830381865afa15801561218f573d6000803e3d6000fd5b505050506040513d601f19601f820116820180604052508101906121b39190614a6e565b90506000886001600160a01b031663bd02d0f56121d1898989612d2c565b6040518263ffffffff1660e01b81526004016121ef91815260200190565b602060405180830381865afa15801561220c573d6000803e3d6000fd5b505050506040513d601f19601f820116820180604052508101906122309190614a6e565b90506000896001600160a01b031663bd02d0f561224f8a8a8a8a612d81565b6040518263ffffffff1660e01b815260040161226d91815260200190565b602060405180830381865afa15801561228a573d6000803e3d6000fd5b505050506040513d601f19601f820116820180604052508101906122ae9190614a6e565b905060008183116122bf57816122c1565b825b905060008b6001600160a01b031663bd02d0f56122e08c8c8c8c612d92565b6040518263ffffffff1660e01b81526004016122fe91815260200190565b602060405180830381865afa15801561231b573d6000803e3d6000fd5b505050506040513d601f19601f8201168201806040525081019061233f9190614a6e565b9050600061234d8684612dd1565b9050818111612373578082604051631d8db13960e31b81526004016104429291906143ab565b600061237f8383615293565b90508d6001600160a01b031663e2a4853a61239c8e8e8e8e612d92565b846040518363ffffffff1660e01b81526004016123ba9291906143ab565b6020604051808303816000875af11580156123d9573d6000803e3d6000fd5b505050506040513d601f19601f820116820180604052508101906123fd9190614a6e565b5060008e6001600160a01b031663e98aabc16124198f8f612dea565b846040518363ffffffff1660e01b81526004016124379291906143ab565b6020604051808303816000875af1158015612456573d6000803e3d6000fd5b505050506040513d601f19601f8201168201806040525081019061247a9190614a6e565b60405163078d3b7960e01b81529091506001600160a01b038e169063078d3b79906124ad908f908d9087906004016151ff565b600060405180830381600087803b1580156124c757600080fd5b505af11580156124db573d6000803e3d6000fd5b505050506124e98f8e612c9c565b73__$c1eebf06e53d0bd092f667687cf73e1ebf$__63b3d188de8f8f8f8f8f8f89896040518963ffffffff1660e01b81526004016125759897969594939291906001600160a01b039889168152968816602088015294871660408701526060860193909352908516608085015290931660a083015260c082019290925260e08101919091526101000190565b60006040518083038186803b15801561258d57600080fd5b505af41580156125a1573d6000803e3d6000fd5b50505050505050505050505050505050505050565b604051633d70e7e560e11b8152600481018290526000906001600160a01b03841690637ae1cfca90602401602060405180830381865afa1580156125fe573d6000803e3d6000fd5b505050506040513d601f19601f8201168201806040525081019061262291906152a6565b9392505050565b600060405160200161263a906152c3565b60408051601f198184030181528282528051602091820120908301526001600160a01b038087169183019190915280851660608301528316608082015260a0015b6040516020818303038152906040528051906020012090509392505050565b60006040516020016126ab906152c3565b60408051601f198184030181528282528051602091820120908301526001600160a01b03808616918301919091528316606082015260800160405160208183030381529060405280519060200120905092915050565b612709613b39565b8051612716906003612dfb565b60408051808201909152600d81526c3ab4a332b2a932b1b2b4bb32b960991b602082015281516127499160009089612e60565b6040805180820190915260068152651b585c9ad95d60d21b602082015281516127759160019088612e60565b6040805180820190915260088152673932b1b2b4bb32b960c11b602082015281516127a39160029087612e60565b60208101516127b3906002612dfb565b6127f0600060405180604001604052806009815260200168199959505b5bdd5b9d60ba1b815250858460200151612ebd909392919063ffffffff16565b61283160016040518060400160405280600d81526020016c6e657874506f6f6c56616c756560981b815250848460200151612ebd909392919063ffffffff16565b866001600160a01b03166324de01e4612850876001600160a01b031690565b836040518363ffffffff1660e01b815260040161286e929190615b32565b600060405180830381600087803b15801561288857600080fd5b505af115801561289c573d6000803e3d6000fd5b5050505050505050505050565b600060405160200161263a90615c2d565b60006040516020016126ab90615c2d565b60006040516020016115e2906020808252600d908201526c2aa4afa322a2afa320a1aa27a960991b604082015260600190565b6000816001600160a01b03166321f8a7216040516020016129369060208082526003908201526215d39560ea1b604082015260600190565b604051602081830303815290604052805190602001206040518263ffffffff1660e01b815260040161296a91815260200190565b602060405180830381865afa158015612987573d6000803e3d6000fd5b505050506040513d601f19601f820116820180604052508101906110e49190615c57565b8015611e37576129ba82611d8a565b6000846001600160a01b031663bd02d0f56129d486612f10565b6040518263ffffffff1660e01b81526004016129f291815260200190565b602060405180830381865afa158015612a0f573d6000803e3d6000fd5b505050506040513d601f19601f82011682018060405250810190612a339190614a6e565b905080600003612a585783604051634fe14bfd60e11b81526004016104429190613e77565b6000612a6685858585612f4e565b5090508015612a76575050611e37565b6000866001600160a01b03166321f8a721604051602001612aba906020808252600f908201526e484f4c44494e475f4144445245535360881b604082015260600190565b604051602081830303815290604052805190602001206040518263ffffffff1660e01b8152600401612aee91815260200190565b602060405180830381865afa158015612b0b573d6000803e3d6000fd5b505050506040513d601f19601f82011682018060405250810190612b2f9190615c57565b90506001600160a01b038116612b5857604051633a6de2f560e21b815260040160405180910390fd5b600080612b6788848888612f4e565b915091508115612b7b575050505050611e37565b6000612b8682612be1565b5090507fc9f14d9a0a9b46470c7c0b6c508f8283abaab7f795f153953c58cd4250824dae8183604051612bba929190615c74565b60405180910390a188888860405163012f3b8f60e71b8152600401610442939291906151ff565b60606000604483511015612c08575050604080516020810190915260008082529092909150565b6000612c15846020015190565b90506307b9e43360e51b6001600160e01b0319821601612c545760048401935083806020019051810190612c499190615c99565b946001945092505050565b600060405180602001604052806000815250909250925050915091565b80518060208301fd5b600060405160200161263a90615d2c565b60006040516020016126ab90615d2c565b6000612ca883836130b6565b9050611e768382613163565b6000604051602001612cc590615d5e565b60408051601f198184030181528282528051602091820120908301526001600160a01b0380881691830191909152808616606083015260808201859052831660a082015260c001604051602081830303815290604052805190602001209050949350505050565b6000604051602001612d3d90615d93565b60408051601f198184030181528282528051602091820120908301526001600160a01b0380871691830191909152841660608201526080810183905260a00161267b565b6000604051602001612cc590615d93565b6000604051602001612cc59060208082526019908201527810d3105253515117d0d3d31310551154905317d05353d55395603a1b604082015260600190565b6000612622838368327cb2734119d3b7a9601e1b6131a6565b60006040516020016126ab90615d5e565b806001600160401b03811115612e1357612e13613c2a565b604051908082528060200260200182016040528015612e5957816020015b604080518082019091526060815260006020820152815260200190600190039081612e315790505b5090915250565b8184600001518481518110612e7757612e776143b9565b6020026020010151600001819052508084600001518481518110612e9d57612e9d6143b9565b6020908102919091018101516001600160a01b0390921691015250505050565b8184600001518481518110612ed457612ed46143b9565b6020026020010151600001819052508084600001518481518110612efa57612efa6143b9565b6020026020010151602001818152505050505050565b60006040516020016115e2906020808252601890820152771513d2d15397d514905394d1915497d1d054d7d31253525560421b604082015260600190565b60006060600063a9059cbb60e01b8686604051602401612f6f9291906143fe565b604051602081830303815290604052906001600160e01b0319166020820180516001600160e01b0383818316178352505050509050600080886001600160a01b03168684604051612fc09190615dc8565b60006040518083038160008787f1925050503d8060008114612ffe576040519150601f19603f3d011682016040523d82523d6000602084013e613003565b606091505b509150915081156130a4578051600003613061576001600160a01b0389163b6130615760006040518060400160405280601481526020017310d85b1b081d1bc81b9bdb8b58dbdb9d1c9858dd60621b815250945094505050506130ad565b6000815111801561308357508080602001905181019061308191906152a6565b155b15613096576000945092506130ad915050565b6001945092506130ad915050565b60009450925050505b94509492505050565b60408051608081018252600080825260208201819052918101829052606081019190915260405163a8d8fff560e01b815260009073__$ff439aa65a80c9eec648f15db20b189505$__9063a8d8fff5906131169087908790600401615223565b608060405180830381865af4158015613133573d6000803e3d6000fd5b505050506040513d601f19601f820116820180604052508101906131579190615de4565b9050612622848261327c565b61317282828360400151613345565b80606001516001600160a01b031681604001516001600160a01b031603613197575050565b61165782828360600151613345565b60008060006131b586866134e3565b9150915081156131d2576131c98482615e7e565b92505050612622565b6000808688116131e35786886131e6565b87875b9150915060006131fd8766038d7ea4c6800061352e565b905061321066038d7ea4c6800082615ea0565b821115613248576132218183615e7e565b61323266038d7ea4c6800085615e7e565b61323c9190615ea0565b95505050505050612622565b808261325b66038d7ea4c6800086615e7e565b6132659190615ea0565b61326f9190615e7e565b9998505050505050505050565b80516001600160a01b03166132a4576040516302fde0d760e11b815260040160405180910390fd5b6000826001600160a01b0316637ae1cfca6132c28460000151613551565b6040518263ffffffff1660e01b81526004016132e091815260200190565b602060405180830381865afa1580156132fd573d6000803e3d6000fd5b505050506040513d601f19601f8201168201806040525081019061332191906152a6565b90508015611e765781516040516309f8c93760e01b81526104429190600401613e77565b81516001600160a01b0316158061336357506001600160a01b038116155b1561338657815160405163e474a42560e01b815261044291908390600401615223565b81516040516370a0823160e01b81526000916001600160a01b038416916370a08231916133b591600401613e77565b602060405180830381865afa1580156133d2573d6000803e3d6000fd5b505050506040513d601f19601f820116820180604052508101906133f69190614a6e565b90506000613405858585613589565b9050808210156134315783516040516333a1ea6b60e01b81526104429190859085908590600401615ebf565b6000856001600160a01b031663bd02d0f5613450876000015187612c8b565b6040518263ffffffff1660e01b815260040161346e91815260200190565b602060405180830381865afa15801561348b573d6000803e3d6000fd5b505050506040513d601f19601f820116820180604052508101906134af9190614a6e565b9050808310156134db578451604051639dd026db60e01b81526104429190869086908590600401615ebf565b505050505050565b600080836000036134fa5750600190506000613527565b8383028385828161350d5761350d615e68565b0414613520576000809250925050613527565b6001925090505b9250929050565b600081600161353d8286615ee8565b6135479190615293565b6126229190615e7e565b60006040516020016115e2906020808252601290820152711254d7d3505492d15517d11254d05093115160721b604082015260600190565b60006135d360405180610100016040528060008152602001600081526020016000815260200160008152602001600081526020016000815260200160008152602001600081525090565b846001600160a01b031663bd02d0f56135f0866000015186613906565b6040518263ffffffff1660e01b815260040161360e91815260200190565b602060405180830381865afa15801561362b573d6000803e3d6000fd5b505050506040513d601f19601f8201168201806040525081019061364f9190614a6e565b8152835161366290869085600180613937565b602082015283516136799086908560006001613937565b6040820152835161368c908690856139c7565b606082015283516001600160a01b0386169063bd02d0f5906136ae9086612dea565b6040518263ffffffff1660e01b81526004016136cc91815260200190565b602060405180830381865afa1580156136e9573d6000803e3d6000fd5b505050506040513d601f19601f8201168201806040525081019061370d9190614a6e565b608082015283516001600160a01b0386169063bd02d0f59061372f9086613a49565b6040518263ffffffff1660e01b815260040161374d91815260200190565b602060405180830381865afa15801561376a573d6000803e3d6000fd5b505050506040513d601f19601f8201168201806040525081019061378e9190614a6e565b60a082015283516001600160a01b0386169063bd02d0f5906137b0908661269a565b6040518263ffffffff1660e01b81526004016137ce91815260200190565b602060405180830381865afa1580156137eb573d6000803e3d6000fd5b505050506040513d601f19601f8201168201806040525081019061380f9190614a6e565b60c082015283516001600160a01b0386169063bd02d0f59061383190866128ba565b6040518263ffffffff1660e01b815260040161384f91815260200190565b602060405180830381865afa15801561386c573d6000803e3d6000fd5b505050506040513d601f19601f820116820180604052508101906138909190614a6e565b60e0820181905260c082015160a0830151608084015160608501516040860151602087015187516138c19190615ee8565b6138cb9190615ee8565b6138d59190615ee8565b6138df9190615ee8565b6138e99190615ee8565b6138f39190615ee8565b6138fd9190615ee8565b95945050505050565b60006040516020016126ab906020808252600b908201526a1413d3d317d05353d5539560aa1b604082015260600190565b600081866001600160a01b031663bd02d0f5613954888888613a83565b6040518263ffffffff1660e01b815260040161397291815260200190565b602060405180830381865afa15801561398f573d6000803e3d6000fd5b505050506040513d601f19601f820116820180604052508101906139b39190614a6e565b6139bd9190615e7e565b9695505050505050565b6000836001600160a01b031663bd02d0f56139e28585613afc565b6040518263ffffffff1660e01b8152600401613a0091815260200190565b602060405180830381865afa158015613a1d573d6000803e3d6000fd5b505050506040513d601f19601f82011682018060405250810190613a419190614a6e565b949350505050565b60006040516020016126ab9060208082526014908201527310d31052535050931157d1915157d05353d5539560621b604082015260600190565b6000604051602001613ab7906020808252600e908201526d434f4c4c41544552414c5f53554d60901b604082015260600190565b60408051601f198184030181528282528051602091820120908301526001600160a01b038087169183019190915284166060820152821515608082015260a00161267b565b60006040516020016126ab9060208082526017908201527614d5d05417d253541050d517d413d3d317d05353d55395604a1b604082015260600190565b604080516101208101909152606060e0820181815261010083019190915281908152602001613b7b604051806040016040528060608152602001606081525090565b8152602001613b9d604051806040016040528060608152602001606081525090565b8152602001613bbf604051806040016040528060608152602001606081525090565b8152602001613be1604051806040016040528060608152602001606081525090565b8152602001613c03604051806040016040528060608152602001606081525090565b8152602001613c25604051806040016040528060608152602001606081525090565b905290565b634e487b7160e01b600052604160045260246000fd5b604080519081016001600160401b0381118282101715613c6257613c62613c2a565b60405290565b604051608081016001600160401b0381118282101715613c6257613c62613c2a565b604051606081016001600160401b0381118282101715613c6257613c62613c2a565b60405161012081016001600160401b0381118282101715613c6257613c62613c2a565b60405160e081016001600160401b0381118282101715613c6257613c62613c2a565b60405161014081016001600160401b0381118282101715613c6257613c62613c2a565b604051601f8201601f191681016001600160401b0381118282101715613d3c57613d3c613c2a565b604052919050565b60006001600160401b03821115613d5d57613d5d613c2a565b5060051b60200190565b6001600160a01b0381168114611db157600080fd5b8035613d8781613d67565b919050565b600082601f830112613d9d57600080fd5b81356020613db2613dad83613d44565b613d14565b82815260059290921b84018101918181019086841115613dd157600080fd5b8286015b84811015613df5578035613de881613d67565b8352918301918301613dd5565b509695505050505050565b600080600060608486031215613e1557600080fd5b83356001600160401b0380821115613e2c57600080fd5b613e3887838801613d8c565b94506020860135915080821115613e4e57600080fd5b50613e5b86828701613d8c565b9250506040840135613e6c81613d67565b809150509250925092565b6001600160a01b0391909116815260200190565b600060208284031215613e9d57600080fd5b5035919050565b600082601f830112613eb557600080fd5b81356020613ec5613dad83613d44565b82815260069290921b84018101918181019086841115613ee457600080fd5b8286015b84811015613df55760408189031215613f015760008081fd5b613f09613c40565b813581528482013585820152835291830191604001613ee8565b60008060408385031215613f3657600080fd5b8235915060208301356001600160401b0380821115613f5457600080fd5b9084019060808287031215613f6857600080fd5b613f70613c68565b823582811115613f7f57600080fd5b613f8b88828601613d8c565b825250602083013582811115613fa057600080fd5b613fac88828601613ea4565b602083015250604083013582811115613fc457600080fd5b613fd088828601613d8c565b604083015250606083013582811115613fe857600080fd5b613ff488828601613ea4565b6060830152508093505050509250929050565b60006020828403121561401957600080fd5b81356001600160401b0381111561402f57600080fd5b82016101a0818503121561262257600080fd5b60006020828403121561405457600080fd5b81356001600160401b0381111561406a57600080fd5b8201610180818503121561262257600080fd5b6000806040838503121561409057600080fd5b823561409b81613d67565b946020939093013593505050565b600080600080600060a086880312156140c157600080fd5b505083359560208501359550604085013594606081013594506080013592509050565b600080602083850312156140f757600080fd5b82356001600160401b038082111561410e57600080fd5b818501915085601f83011261412257600080fd5b81358181111561413157600080fd5b8660208260051b850101111561414657600080fd5b60209290920196919550909350505050565b60005b8381101561417357818101518382015260200161415b565b50506000910152565b60008151808452614194816020860160208601614158565b601f01601f19169290920160200192915050565b6000602080830181845280855180835260408601915060408160051b870101925083870160005b828110156141fd57603f198886030184526141eb85835161417c565b945092850192908501906001016141cf565b5092979650505050505050565b60006020828403121561421c57600080fd5b81356001600160401b0381111561423257600080fd5b8201610160818503121561262257600080fd5b60008060006060848603121561425a57600080fd5b833561426581613d67565b9250602084013561427581613d67565b929592945050506040919091013590565b6000806000806080858703121561429c57600080fd5b84356001600160401b03808211156142b357600080fd5b6142bf88838901613d8c565b95506020915081870135818111156142d657600080fd5b6142e289828a01613d8c565b9550506040870135818111156142f757600080fd5b87019050601f8101881361430a57600080fd5b8035614318613dad82613d44565b81815260059190911b8201830190838101908a83111561433757600080fd5b928401925b828410156143555783358252928401929084019061433c565b809650505050505061436960608601613d7c565b905092959194509250565b6020808252601f908201527f5265656e7472616e637947756172643a207265656e7472616e742063616c6c00604082015260600190565b918252602082015260400190565b634e487b7160e01b600052603260045260246000fd5b634e487b7160e01b600052601160045260246000fd5b6000600182016143f7576143f76143cf565b5060010190565b6001600160a01b03929092168252602082015260400190565b8051613d8781613d67565b600082601f83011261443357600080fd5b81516020614443613dad83613d44565b82815260059290921b8401810191818101908684111561446257600080fd5b8286015b84811015613df557805161447981613d67565b8352918301918301614466565b600060c0828403121561449857600080fd5b60405160c081016001600160401b03811182821017156144ba576144ba613c2a565b8060405250809150825181526020830151602082015260408301516040820152606083015160608201526080830151608082015260a083015160a08201525092915050565b8015158114611db157600080fd5b60006020828403121561451f57600080fd5b604051602081016001600160401b038111828210171561454157614541613c2a565b80604052508091508251614554816144ff565b905292915050565b60006020828403121561456e57600080fd5b81516001600160401b038082111561458557600080fd5b818401915061010080838703121561459c57600080fd5b6145a4613c8a565b8351838111156145b357600080fd5b840161012081890312156145c657600080fd5b6145ce613cac565b6145d782614417565b81526145e560208301614417565b60208201526145f660408301614417565b604082015261460760608301614417565b606082015261461860808301614417565b608082015261462960a08301614417565b60a082015261463a60c08301614417565b60c082015260e08201518581111561465157600080fd5b61465d8a828501614422565b60e083015250838201518581111561467457600080fd5b6146808a828501614422565b82860152508252506146958760208601614486565b60208201526146a78760e0860161450d565b60408201529695505050505050565b6001600160a01b03169052565b600081518084526020808501945080840160005b838110156146fc5781516001600160a01b0316875295820195908201906001016146d7565b509495945050505050565b600081518084526020808501945080840160005b838110156146fc57815180518852830151838801526040909601959082019060010161471b565b82815260406020820152600082516080604084015261476460c08401826146c3565b90506020840151603f19808584030160608601526147828383614707565b9250604086015191508085840301608086015261479f83836146c3565b925060608601519150808584030160a0860152506139bd8282614707565b6000808335601e198436030181126147d457600080fd5b83016020810192503590506001600160401b038111156147f357600080fd5b8060051b360382131561352757600080fd5b8183526000602080850194508260005b858110156146fc57813561482881613d67565b6001600160a01b031687529582019590820190600101614815565b6000813561485081613d67565b6001600160a01b03908116845260208301359061486c82613d67565b908116602085015260408301359061488382613d67565b908116604085015260608301359061489a82613d67565b90811660608501526080830135906148b182613d67565b1660808401526148c460a08301836147bd565b60c060a08601526138fd60c086018284614805565b60088110611db157600080fd5b8035613d87816148d9565b634e487b7160e01b600052602160045260246000fd5b60088110614917576149176148f1565b9052565b60038110611db157600080fd5b8035613d878161491b565b60038110614917576149176148f1565b8035613d87816144ff565b6001600160a01b038316815260406020820152600082353684900360be1901811261497857600080fd5b6101a08060408501526149916101e08501868401614843565b91506149e26060850160208701803582526020810135602083015260408101356040830152606081013560608301526080810135608083015260a081013560a083015260c081013560c08301525050565b6149ef61010086016148e6565b6101406149fe81870183614907565b614a0b6101208801614928565b9150610160614a1c81880184614933565b614a27828901614943565b92506101809150614a3b8288018415159052565b614a46818901614943565b925050614a568387018315159052565b808701356101c0870152505050809150509392505050565b600060208284031215614a8057600080fd5b5051919050565b6001600160a01b0383168152604060208201819052614ab0908201614aab84613d7c565b6146b6565b6000614abe60208401613d7c565b614acb60608401826146b6565b50614ad860408401613d7c565b614ae560808401826146b6565b50614af260608401613d7c565b614aff60a08401826146b6565b50614b0c60808401613d7c565b614b1960c08401826146b6565b50614b2660a08401613d7c565b614b3360e08401826146b6565b50614b4160c08401846147bd565b6101806101008181870152614b5b6101c087018486614805565b9350614b6a60e08801886147bd565b9350610120603f198887030181890152614b85868684614805565b955061014094508289013585890152614b9f818a01614943565b92505050610160614bb38188018315159052565b928701359186019190915250909301356101a09092019190915250919050565b600060208284031215614be557600080fd5b81516001600160401b0380821115614bfc57600080fd5b908301906101008286031215614c1157600080fd5b614c19613c8a565b825182811115614c2857600080fd5b830160e08188031215614c3a57600080fd5b614c42613ccf565b614c4b82614417565b8152614c5960208301614417565b6020820152614c6a60408301614417565b6040820152614c7b60608301614417565b6060820152614c8c60808301614417565b608082015260a082015184811115614ca357600080fd5b614caf89828501614422565b60a08301525060c082015184811115614cc757600080fd5b614cd389828501614422565b60c083015250825250614ce98660208501614486565b6020820152614cfb8660e0850161450d565b604082015295945050505050565b8051613d87816148d9565b8051613d878161491b565b60006101408284031215614d3257600080fd5b614d3a613cf1565b9050614d4582614d09565b8152614d5360208301614d14565b602082015260408201516040820152606082015160608201526080820151608082015260a082015160a082015260c082015160c082015260e082015160e082015261010080830151818301525061012080830151818301525092915050565b600060608284031215614dc457600080fd5b614dcc613c8a565b90508151614dd9816144ff565b81526020820151614de9816144ff565b60208201526040820151614dfc816144ff565b604082015292915050565b600060208284031215614e1957600080fd5b81516001600160401b0380821115614e3057600080fd5b908301906101c08286031215614e4557600080fd5b614e4d613c8a565b825182811115614e5c57600080fd5b830160e08188031215614e6e57600080fd5b614e76613ccf565b614e7f82614417565b8152614e8d60208301614417565b6020820152614e9e60408301614417565b6040820152614eaf60608301614417565b6060820152614ec060808301614417565b6080820152614ed160a08301614417565b60a082015260c082015184811115614ee857600080fd5b614ef489828501614422565b60c083015250825250614f0a8660208501614d1f565b6020820152614cfb866101608501614db2565b614f28828251614907565b6020810151614f3a6020840182614933565b5060408101516040830152606081015160608301526080810151608083015260a081015160a083015260c081015160c083015260e081015160e08301526101008082015181840152506101208082015181840152505050565b86815285602082015284604082015283606082015282608082015260c060a0820152600082516101c060c084015260018060a01b0380825116610280850152806020830151166102a0850152806040830151166102c08501525060608101516150006102e08501826146b6565b5060808101516150146103008501826146b6565b5060a08101516150286103208501826146b6565b5060c0015160e06103408401526150436103608401826146c3565b9050602084015161505760e0850182614f1d565b5060408481015180511515610220860152602081015115156102408601529081015115156102608501525098975050505050505050565b6000808335601e198436030181126150a557600080fd5b8301803591506001600160401b038211156150bf57600080fd5b60200191503681900382131561352757600080fd5b8183823760009101908152919050565b6001600160a01b0383168152604060208201819052615108908201614aab84613d7c565b600061511660208401613d7c565b61512360608401826146b6565b5061513060408401613d7c565b61513d60808401826146b6565b5061514a60608401613d7c565b61515760a08401826146b6565b5061516560808401846147bd565b6101608060c086015261517d6101a086018385614805565b925061518c60a08701876147bd565b868503603f190160e088015292506151a5848483614805565b935050610100915060c08601358286015261012060e0870135818701526151cd838801614943565b92506101406151df8188018515159052565b908701359186019190915290940135610180909301929092525092915050565b6001600160a01b039384168152919092166020820152604081019190915260600190565b6001600160a01b0392831681529116602082015260400190565b6001600160a01b039788168152958716602087015293861660408601529185166060850152909316608083015260a082019290925260c081019190915260e00190565b602081526000612622602083018461417c565b818103818111156110e4576110e46143cf565b6000602082840312156152b857600080fd5b8151612622816144ff565b60208082526017908201527610d31052535050931157d55257d1915157d05353d55395604a1b604082015260600190565b600081518084526020808501808196508360051b8101915082860160005b858110156153625782840389528151604081518187526153348288018261417c565b9150508682015191508581038787015261534e81836146c3565b9a87019a9550505090840190600101615312565b5091979650505050505050565b60006040808401835182865281815180845260608801915060608160051b89010193506020808401935060005b828110156153e657898603605f19018452845180518888526153c08989018261417c565b918401516001600160a01b0316978401979097529550938101939281019260010161539c565b50808801519550888503818a0152505050506138fd81836152f4565b600081518084526020808501808196508360051b810191508286016000805b86811015615494578385038a528251604081518188526154438289018261417c565b92890151888403898b01528051808552908a01938693508a0191505b8083101561547f578351825292890192600192909201919089019061545f565b509b88019b9650505091850191600101615421565b509298975050505050505050565b60006040808401835182865281815180845260608801915060608160051b89010193506020808401935060005b8281101561551057898603605f19018452845180518888526154f38989018261417c565b9184015197840197909752955093810193928101926001016154cf565b50808801519550888503818a0152505050506138fd8183615402565b600081518084526020808501808196508360051b810191508286016000805b86811015615494578385038a5282516040815181885261556d8289018261417c565b92890151888403898b01528051808552908a01938693508a0191505b808310156155a95783518252928901926001929092019190890190615589565b509b88019b965050509185019160010161554b565b60006040808401835182865281815180845260608801915060608160051b89010193506020808401935060005b8281101561562c57898603605f190184528451805188885261560f8989018261417c565b9184015197840197909752955093810193928101926001016155eb565b50808801519550888503818a0152505050506138fd818361552c565b600082825180855260208086019550808260051b8401018186016000805b858110156156df57601f19878503018a5282516040815181875261568c8288018261417c565b92880151878403888a0152805180855290890193869350890191505b808310156156ca578351151582529288019260019290920191908801906156a8565b509b87019b9550505091840191600101615666565b509198975050505050505050565b60006040808401835182865281815180845260608801915060608160051b89010193506020808401935060005b8281101561575d57898603605f190184528451805188885261573e8989018261417c565b918401511515978401979097529550938101939281019260010161571a565b50808801519550888503818a0152505050506138fd8183615648565b600081518084526020808501808196508360051b810191508286016000805b86811015615494578385038a528251604081518188526157ba8289018261417c565b92890151888403898b01528051808552908a01938693508a0191505b808310156157f657835182529289019260019290920191908901906157d6565b509b88019b9650505091850191600101615798565b60006040808401835182865281815180845260608801915060608160051b89010193506020808401935060005b8281101561587957898603605f190184528451805188885261585c8989018261417c565b918401519784019790975295509381019392810192600101615838565b50808801519550888503818a0152505050506138fd8183615779565b60008282518085526020808601955060058183821b8501018287016000805b8681101561594357601f1980898603018c528351604081518188526158db8289018261417c565b928a0151888403898c01528051808552908b019392508a83019150808a1b83018b01875b8281101561592b578685830301845261591982875161417c565b958d0195938d019391506001016158ff565b509f8b019f98505050948801945050506001016158b4565b50919998505050505050505050565b60006040808401835182865281815180845260608801915060608160051b89010193506020808401935060005b828110156159cf57898603605f19018452845180518888526159a38989018261417c565b91840151888303898601529190506159bb818361417c565b97505050938101939281019260010161597f565b50808801519550888503818a0152505050506138fd8183615895565b60008282518085526020808601955060058183821b8501018287016000805b8681101561594357601f1980898603018c52835160408151818852615a318289018261417c565b928a0151888403898c01528051808552908b019392508a83019150808a1b83018b01875b82811015615a815786858303018452615a6f82875161417c565b958d0195938d01939150600101615a55565b509f8b019f9850505094880194505050600101615a0a565b60006040808401835182865281815180845260608801915060608160051b89010193506020808401935060005b82811015615b1657898603605f1901845284518051888852615aea8989018261417c565b9184015188830389860152919050615b02818361417c565b975050509381019392810192600101615ac6565b50808801519550888503818a0152505050506138fd81836159eb565b60608152600d60608201526c155a5199595cd0db185a5b5959609a1b608082015282602082015260a060408201526000825160e060a0840152615b7961018084018261536f565b90506020840151609f19808584030160c0860152615b9783836154a2565b925060408601519150808584030160e0860152615bb483836155be565b9250606086015191508085840301610100860152615bd283836156ed565b9250608086015191508085840301610120860152615bf0838361580b565b925060a086015191508085840301610140860152615c0e8383615952565b925060c086015191508085840301610160860152506139bd8282615a99565b60208082526010908201526f10519192531250551157d49155d0549160821b604082015260600190565b600060208284031215615c6957600080fd5b815161262281613d67565b604081526000615c87604083018561417c565b82810360208401526138fd818561417c565b600060208284031215615cab57600080fd5b81516001600160401b0380821115615cc257600080fd5b818401915084601f830112615cd657600080fd5b815181811115615ce857615ce8613c2a565b615cfb601f8201601f1916602001613d14565b9150808252856020828501011115615d1257600080fd5b615d23816020840160208601614158565b50949350505050565b60208082526018908201527710d31052535050931157d1955391125391d7d05353d5539560421b604082015260600190565b6020808252601b908201527a10d31052535050931157d0d3d31310551154905317d05353d55395602a1b604082015260600190565b6020808252601b908201527a21a620a4a6a0a12622afa1a7a62620aa22a920a62fa320a1aa27a960291b604082015260600190565b60008251615dda818460208701614158565b9190910192915050565b600060808284031215615df657600080fd5b604051608081016001600160401b0381118282101715615e1857615e18613c2a565b6040528251615e2681613d67565b81526020830151615e3681613d67565b60208201526040830151615e4981613d67565b60408201526060830151615e5c81613d67565b60608201529392505050565b634e487b7160e01b600052601260045260246000fd5b600082615e9b57634e487b7160e01b600052601260045260246000fd5b500490565b6000816000190483118215151615615eba57615eba6143cf565b500290565b6001600160a01b0394851681529290931660208301526040820152606081019190915260800190565b808201808211156110e4576110e46143cf56fea26469706673582212200eb5ace95d9407340d6b32927c4476284c8046309581a890424a9185cd6ed23764736f6c63430008100033",
  "linkReferences": {
    "contracts/deposit/DepositStoreUtils.sol": {
      "DepositStoreUtils": [
        {
          "length": 20,
          "start": 2031
        }
      ]
    },
    "contracts/market/MarketEventUtils.sol": {
      "MarketEventUtils": [
        {
          "length": 20,
          "start": 8084
        },
        {
          "length": 20,
          "start": 8984
        },
        {
          "length": 20,
          "start": 10061
        }
      ]
    },
    "contracts/market/MarketStoreUtils.sol": {
      "MarketStoreUtils": [
        {
          "length": 20,
          "start": 13134
        }
      ]
    },
    "contracts/market/MarketUtils.sol": {
      "MarketUtils": [
        {
          "length": 20,
          "start": 6822
        },
        {
          "length": 20,
          "start": 7503
        }
      ]
    },
    "contracts/order/OrderStoreUtils.sol": {
      "OrderStoreUtils": [
        {
          "length": 20,
          "start": 3742
        },
        {
          "length": 20,
          "start": 4260
        }
      ]
    },
    "contracts/referral/ReferralEventUtils.sol": {
      "ReferralEventUtils": [
        {
          "length": 20,
          "start": 7608
        }
      ]
    },
    "contracts/withdrawal/WithdrawalStoreUtils.sol": {
      "WithdrawalStoreUtils": [
        {
          "length": 20,
          "start": 3360
        }
      ]
    }
  },
  "deployedLinkReferences": {
    "contracts/deposit/DepositStoreUtils.sol": {
      "DepositStoreUtils": [
        {
          "length": 20,
          "start": 1421
        }
      ]
    },
    "contracts/market/MarketEventUtils.sol": {
      "MarketEventUtils": [
        {
          "length": 20,
          "start": 7474
        },
        {
          "length": 20,
          "start": 8374
        },
        {
          "length": 20,
          "start": 9451
        }
      ]
    },
    "contracts/market/MarketStoreUtils.sol": {
      "MarketStoreUtils": [
        {
          "length": 20,
          "start": 12524
        }
      ]
    },
    "contracts/market/MarketUtils.sol": {
      "MarketUtils": [
        {
          "length": 20,
          "start": 6212
        },
        {
          "length": 20,
          "start": 6893
        }
      ]
    },
    "contracts/order/OrderStoreUtils.sol": {
      "OrderStoreUtils": [
        {
          "length": 20,
          "start": 3132
        },
        {
          "length": 20,
          "start": 3650
        }
      ]
    },
    "contracts/referral/ReferralEventUtils.sol": {
      "ReferralEventUtils": [
        {
          "length": 20,
          "start": 6998
        }
      ]
    },
    "contracts/withdrawal/WithdrawalStoreUtils.sol": {
      "WithdrawalStoreUtils": [
        {
          "length": 20,
          "start": 2750
        }
      ]
    }
  }
}