{
  "_format": "hh-sol-artifact-1",
  "contractName": "ExchangeRouter",
  "sourceName": "contracts/router/ExchangeRouter.sol",
  "abi": [
    {
      "inputs": [
        {
          "internalType": "contract Router",
          "name": "_router",
          "type": "address"
        },
        {
          "internalType": "contract RoleStore",
          "name": "_roleStore",
          "type": "address"
        },
        {
          "internalType": "contract DataStore",
          "name": "_dataStore",
          "type": "address"
        },
        {
          "internalType": "contract EventEmitter",
          "name": "_eventEmitter",
          "type": "address"
        },
        {
          "internalType": "contract DepositHandler",
          "name": "_depositHandler",
          "type": "address"
        },
        {
          "internalType": "contract WithdrawalHandler",
          "name": "_withdrawalHandler",
          "type": "address"
        },
        {
          "internalType": "contract OrderHandler",
          "name": "_orderHandler",
          "type": "address"
        }
      ],
      "stateMutability": "nonpayable",
      "type": "constructor"
    },
    {
      "inputs": [
        {
          "internalType": "uint256",
          "name": "adjustedClaimableAmount",
          "type": "uint256"
        },
        {
          "internalType": "uint256",
          "name": "claimedAmount",
          "type": "uint256"
        }
      ],
      "name": "CollateralAlreadyClaimed",
      "type": "error"
    },
    {
      "inputs": [
        {
          "internalType": "bytes32",
          "name": "key",
          "type": "bytes32"
        }
      ],
      "name": "DisabledFeature",
      "type": "error"
    },
    {
      "inputs": [
        {
          "internalType": "address",
          "name": "market",
          "type": "address"
        }
      ],
      "name": "DisabledMarket",
      "type": "error"
    },
    {
      "inputs": [
        {
          "internalType": "address",
          "name": "market",
          "type": "address"
        },
        {
          "internalType": "address",
          "name": "token",
          "type": "address"
        }
      ],
      "name": "EmptyAddressInMarketTokenBalanceValidation",
      "type": "error"
    },
    {
      "inputs": [],
      "name": "EmptyDeposit",
      "type": "error"
    },
    {
      "inputs": [],
      "name": "EmptyHoldingAddress",
      "type": "error"
    },
    {
      "inputs": [],
      "name": "EmptyMarket",
      "type": "error"
    },
    {
      "inputs": [],
      "name": "EmptyOrder",
      "type": "error"
    },
    {
      "inputs": [],
      "name": "EmptyReceiver",
      "type": "error"
    },
    {
      "inputs": [
        {
          "internalType": "address",
          "name": "token",
          "type": "address"
        }
      ],
      "name": "EmptyTokenTranferGasLimit",
      "type": "error"
    },
    {
      "inputs": [
        {
          "internalType": "uint256",
          "name": "marketsLength",
          "type": "uint256"
        },
        {
          "internalType": "uint256",
          "name": "tokensLength",
          "type": "uint256"
        }
      ],
      "name": "InvalidClaimAffiliateRewardsInput",
      "type": "error"
    },
    {
      "inputs": [
        {
          "internalType": "uint256",
          "name": "marketsLength",
          "type": "uint256"
        },
        {
          "internalType": "uint256",
          "name": "tokensLength",
          "type": "uint256"
        },
        {
          "internalType": "uint256",
          "name": "timeKeysLength",
          "type": "uint256"
        }
      ],
      "name": "InvalidClaimCollateralInput",
      "type": "error"
    },
    {
      "inputs": [
        {
          "internalType": "uint256",
          "name": "marketsLength",
          "type": "uint256"
        },
        {
          "internalType": "uint256",
          "name": "tokensLength",
          "type": "uint256"
        }
      ],
      "name": "InvalidClaimFundingFeesInput",
      "type": "error"
    },
    {
      "inputs": [
        {
          "internalType": "uint256",
          "name": "marketsLength",
          "type": "uint256"
        },
        {
          "internalType": "uint256",
          "name": "tokensLength",
          "type": "uint256"
        }
      ],
      "name": "InvalidClaimUiFeesInput",
      "type": "error"
    },
    {
      "inputs": [
        {
          "internalType": "address",
          "name": "market",
          "type": "address"
        },
        {
          "internalType": "address",
          "name": "token",
          "type": "address"
        },
        {
          "internalType": "uint256",
          "name": "balance",
          "type": "uint256"
        },
        {
          "internalType": "uint256",
          "name": "expectedMinBalance",
          "type": "uint256"
        }
      ],
      "name": "InvalidMarketTokenBalance",
      "type": "error"
    },
    {
      "inputs": [
        {
          "internalType": "address",
          "name": "market",
          "type": "address"
        },
        {
          "internalType": "address",
          "name": "token",
          "type": "address"
        },
        {
          "internalType": "uint256",
          "name": "balance",
          "type": "uint256"
        },
        {
          "internalType": "uint256",
          "name": "claimableFundingFeeAmount",
          "type": "uint256"
        }
      ],
      "name": "InvalidMarketTokenBalanceForClaimableFunding",
      "type": "error"
    },
    {
      "inputs": [
        {
          "internalType": "address",
          "name": "market",
          "type": "address"
        },
        {
          "internalType": "address",
          "name": "token",
          "type": "address"
        },
        {
          "internalType": "uint256",
          "name": "balance",
          "type": "uint256"
        },
        {
          "internalType": "uint256",
          "name": "collateralAmount",
          "type": "uint256"
        }
      ],
      "name": "InvalidMarketTokenBalanceForCollateralAmount",
      "type": "error"
    },
    {
      "inputs": [
        {
          "internalType": "uint256",
          "name": "uiFeeFactor",
          "type": "uint256"
        },
        {
          "internalType": "uint256",
          "name": "maxUiFeeFactor",
          "type": "uint256"
        }
      ],
      "name": "InvalidUiFeeFactor",
      "type": "error"
    },
    {
      "inputs": [
        {
          "internalType": "address",
          "name": "token",
          "type": "address"
        },
        {
          "internalType": "address",
          "name": "receiver",
          "type": "address"
        },
        {
          "internalType": "uint256",
          "name": "amount",
          "type": "uint256"
        }
      ],
      "name": "TokenTransferError",
      "type": "error"
    },
    {
      "inputs": [
        {
          "internalType": "address",
          "name": "msgSender",
          "type": "address"
        },
        {
          "internalType": "string",
          "name": "role",
          "type": "string"
        }
      ],
      "name": "Unauthorized",
      "type": "error"
    },
    {
      "inputs": [
        {
          "internalType": "bytes32",
          "name": "key",
          "type": "bytes32"
        }
      ],
      "name": "cancelDeposit",
      "outputs": [],
      "stateMutability": "payable",
      "type": "function"
    },
    {
      "inputs": [
        {
          "internalType": "bytes32",
          "name": "key",
          "type": "bytes32"
        }
      ],
      "name": "cancelOrder",
      "outputs": [],
      "stateMutability": "payable",
      "type": "function"
    },
    {
      "inputs": [
        {
          "internalType": "bytes32",
          "name": "key",
          "type": "bytes32"
        }
      ],
      "name": "cancelWithdrawal",
      "outputs": [],
      "stateMutability": "payable",
      "type": "function"
    },
    {
      "inputs": [
        {
          "internalType": "address[]",
          "name": "markets",
          "type": "address[]"
        },
        {
          "internalType": "address[]",
          "name": "tokens",
          "type": "address[]"
        },
        {
          "internalType": "address",
          "name": "receiver",
          "type": "address"
        }
      ],
      "name": "claimAffiliateRewards",
      "outputs": [],
      "stateMutability": "payable",
      "type": "function"
    },
    {
      "inputs": [
        {
          "internalType": "address[]",
          "name": "markets",
          "type": "address[]"
        },
        {
          "internalType": "address[]",
          "name": "tokens",
          "type": "address[]"
        },
        {
          "internalType": "uint256[]",
          "name": "timeKeys",
          "type": "uint256[]"
        },
        {
          "internalType": "address",
          "name": "receiver",
          "type": "address"
        }
      ],
      "name": "claimCollateral",
      "outputs": [],
      "stateMutability": "payable",
      "type": "function"
    },
    {
      "inputs": [
        {
          "internalType": "address[]",
          "name": "markets",
          "type": "address[]"
        },
        {
          "internalType": "address[]",
          "name": "tokens",
          "type": "address[]"
        },
        {
          "internalType": "address",
          "name": "receiver",
          "type": "address"
        }
      ],
      "name": "claimFundingFees",
      "outputs": [],
      "stateMutability": "payable",
      "type": "function"
    },
    {
      "inputs": [
        {
          "internalType": "address[]",
          "name": "markets",
          "type": "address[]"
        },
        {
          "internalType": "address[]",
          "name": "tokens",
          "type": "address[]"
        },
        {
          "internalType": "address",
          "name": "receiver",
          "type": "address"
        }
      ],
      "name": "claimUiFees",
      "outputs": [],
      "stateMutability": "payable",
      "type": "function"
    },
    {
      "inputs": [
        {
          "components": [
            {
              "internalType": "address",
              "name": "receiver",
              "type": "address"
            },
            {
              "internalType": "address",
              "name": "callbackContract",
              "type": "address"
            },
            {
              "internalType": "address",
              "name": "uiFeeReceiver",
              "type": "address"
            },
            {
              "internalType": "address",
              "name": "market",
              "type": "address"
            },
            {
              "internalType": "address",
              "name": "initialLongToken",
              "type": "address"
            },
            {
              "internalType": "address",
              "name": "initialShortToken",
              "type": "address"
            },
            {
              "internalType": "address[]",
              "name": "longTokenSwapPath",
              "type": "address[]"
            },
            {
              "internalType": "address[]",
              "name": "shortTokenSwapPath",
              "type": "address[]"
            },
            {
              "internalType": "uint256",
              "name": "minMarketTokens",
              "type": "uint256"
            },
            {
              "internalType": "bool",
              "name": "shouldUnwrapNativeToken",
              "type": "bool"
            },
            {
              "internalType": "uint256",
              "name": "executionFee",
              "type": "uint256"
            },
            {
              "internalType": "uint256",
              "name": "callbackGasLimit",
              "type": "uint256"
            }
          ],
          "internalType": "struct DepositUtils.CreateDepositParams",
          "name": "params",
          "type": "tuple"
        }
      ],
      "name": "createDeposit",
      "outputs": [
        {
          "internalType": "bytes32",
          "name": "",
          "type": "bytes32"
        }
      ],
      "stateMutability": "payable",
      "type": "function"
    },
    {
      "inputs": [
        {
          "components": [
            {
              "components": [
                {
                  "internalType": "address",
                  "name": "receiver",
                  "type": "address"
                },
                {
                  "internalType": "address",
                  "name": "callbackContract",
                  "type": "address"
                },
                {
                  "internalType": "address",
                  "name": "uiFeeReceiver",
                  "type": "address"
                },
                {
                  "internalType": "address",
                  "name": "market",
                  "type": "address"
                },
                {
                  "internalType": "address",
                  "name": "initialCollateralToken",
                  "type": "address"
                },
                {
                  "internalType": "address[]",
                  "name": "swapPath",
                  "type": "address[]"
                }
              ],
              "internalType": "struct BaseOrderUtils.CreateOrderParamsAddresses",
              "name": "addresses",
              "type": "tuple"
            },
            {
              "components": [
                {
                  "internalType": "uint256",
                  "name": "sizeDeltaUsd",
                  "type": "uint256"
                },
                {
                  "internalType": "uint256",
                  "name": "initialCollateralDeltaAmount",
                  "type": "uint256"
                },
                {
                  "internalType": "uint256",
                  "name": "triggerPrice",
                  "type": "uint256"
                },
                {
                  "internalType": "uint256",
                  "name": "acceptablePrice",
                  "type": "uint256"
                },
                {
                  "internalType": "uint256",
                  "name": "executionFee",
                  "type": "uint256"
                },
                {
                  "internalType": "uint256",
                  "name": "callbackGasLimit",
                  "type": "uint256"
                },
                {
                  "internalType": "uint256",
                  "name": "minOutputAmount",
                  "type": "uint256"
                }
              ],
              "internalType": "struct BaseOrderUtils.CreateOrderParamsNumbers",
              "name": "numbers",
              "type": "tuple"
            },
            {
              "internalType": "enum Order.OrderType",
              "name": "orderType",
              "type": "uint8"
            },
            {
              "internalType": "enum Order.DecreasePositionSwapType",
              "name": "decreasePositionSwapType",
              "type": "uint8"
            },
            {
              "internalType": "bool",
              "name": "isLong",
              "type": "bool"
            },
            {
              "internalType": "bool",
              "name": "shouldUnwrapNativeToken",
              "type": "bool"
            },
            {
              "internalType": "bytes32",
              "name": "referralCode",
              "type": "bytes32"
            }
          ],
          "internalType": "struct BaseOrderUtils.CreateOrderParams",
          "name": "params",
          "type": "tuple"
        }
      ],
      "name": "createOrder",
      "outputs": [
        {
          "internalType": "bytes32",
          "name": "",
          "type": "bytes32"
        }
      ],
      "stateMutability": "payable",
      "type": "function"
    },
    {
      "inputs": [
        {
          "components": [
            {
              "internalType": "address",
              "name": "receiver",
              "type": "address"
            },
            {
              "internalType": "address",
              "name": "callbackContract",
              "type": "address"
            },
            {
              "internalType": "address",
              "name": "uiFeeReceiver",
              "type": "address"
            },
            {
              "internalType": "address",
              "name": "market",
              "type": "address"
            },
            {
              "internalType": "address[]",
              "name": "longTokenSwapPath",
              "type": "address[]"
            },
            {
              "internalType": "address[]",
              "name": "shortTokenSwapPath",
              "type": "address[]"
            },
            {
              "internalType": "uint256",
              "name": "minLongTokenAmount",
              "type": "uint256"
            },
            {
              "internalType": "uint256",
              "name": "minShortTokenAmount",
              "type": "uint256"
            },
            {
              "internalType": "bool",
              "name": "shouldUnwrapNativeToken",
              "type": "bool"
            },
            {
              "internalType": "uint256",
              "name": "executionFee",
              "type": "uint256"
            },
            {
              "internalType": "uint256",
              "name": "callbackGasLimit",
              "type": "uint256"
            }
          ],
          "internalType": "struct WithdrawalUtils.CreateWithdrawalParams",
          "name": "params",
          "type": "tuple"
        }
      ],
      "name": "createWithdrawal",
      "outputs": [
        {
          "internalType": "bytes32",
          "name": "",
          "type": "bytes32"
        }
      ],
      "stateMutability": "payable",
      "type": "function"
    },
    {
      "inputs": [],
      "name": "dataStore",
      "outputs": [
        {
          "internalType": "contract DataStore",
          "name": "",
          "type": "address"
        }
      ],
      "stateMutability": "view",
      "type": "function"
    },
    {
      "inputs": [],
      "name": "depositHandler",
      "outputs": [
        {
          "internalType": "contract DepositHandler",
          "name": "",
          "type": "address"
        }
      ],
      "stateMutability": "view",
      "type": "function"
    },
    {
      "inputs": [],
      "name": "eventEmitter",
      "outputs": [
        {
          "internalType": "contract EventEmitter",
          "name": "",
          "type": "address"
        }
      ],
      "stateMutability": "view",
      "type": "function"
    },
    {
      "inputs": [
        {
          "internalType": "bytes[]",
          "name": "data",
          "type": "bytes[]"
        }
      ],
      "name": "multicall",
      "outputs": [
        {
          "internalType": "bytes[]",
          "name": "results",
          "type": "bytes[]"
        }
      ],
      "stateMutability": "payable",
      "type": "function"
    },
    {
      "inputs": [],
      "name": "orderHandler",
      "outputs": [
        {
          "internalType": "contract OrderHandler",
          "name": "",
          "type": "address"
        }
      ],
      "stateMutability": "view",
      "type": "function"
    },
    {
      "inputs": [],
      "name": "roleStore",
      "outputs": [
        {
          "internalType": "contract RoleStore",
          "name": "",
          "type": "address"
        }
      ],
      "stateMutability": "view",
      "type": "function"
    },
    {
      "inputs": [],
      "name": "router",
      "outputs": [
        {
          "internalType": "contract Router",
          "name": "",
          "type": "address"
        }
      ],
      "stateMutability": "view",
      "type": "function"
    },
    {
      "inputs": [
        {
          "internalType": "address",
          "name": "token",
          "type": "address"
        },
        {
          "internalType": "address",
          "name": "receiver",
          "type": "address"
        },
        {
          "internalType": "uint256",
          "name": "amount",
          "type": "uint256"
        }
      ],
      "name": "sendTokens",
      "outputs": [],
      "stateMutability": "payable",
      "type": "function"
    },
    {
      "inputs": [
        {
          "internalType": "address",
          "name": "receiver",
          "type": "address"
        },
        {
          "internalType": "uint256",
          "name": "amount",
          "type": "uint256"
        }
      ],
      "name": "sendWnt",
      "outputs": [],
      "stateMutability": "payable",
      "type": "function"
    },
    {
      "inputs": [
        {
          "internalType": "uint256",
          "name": "uiFeeFactor",
          "type": "uint256"
        }
      ],
      "name": "setUiFeeFactor",
      "outputs": [],
      "stateMutability": "payable",
      "type": "function"
    },
    {
      "inputs": [
        {
          "internalType": "bytes32",
          "name": "key",
          "type": "bytes32"
        },
        {
          "components": [
            {
              "internalType": "address[]",
              "name": "primaryTokens",
              "type": "address[]"
            },
            {
              "components": [
                {
                  "internalType": "uint256",
                  "name": "min",
                  "type": "uint256"
                },
                {
                  "internalType": "uint256",
                  "name": "max",
                  "type": "uint256"
                }
              ],
              "internalType": "struct Price.Props[]",
              "name": "primaryPrices",
              "type": "tuple[]"
            }
          ],
          "internalType": "struct OracleUtils.SimulatePricesParams",
          "name": "simulatedOracleParams",
          "type": "tuple"
        }
      ],
      "name": "simulateExecuteDeposit",
      "outputs": [],
      "stateMutability": "payable",
      "type": "function"
    },
    {
      "inputs": [
        {
          "internalType": "bytes32",
          "name": "key",
          "type": "bytes32"
        },
        {
          "components": [
            {
              "internalType": "address[]",
              "name": "primaryTokens",
              "type": "address[]"
            },
            {
              "components": [
                {
                  "internalType": "uint256",
                  "name": "min",
                  "type": "uint256"
                },
                {
                  "internalType": "uint256",
                  "name": "max",
                  "type": "uint256"
                }
              ],
              "internalType": "struct Price.Props[]",
              "name": "primaryPrices",
              "type": "tuple[]"
            }
          ],
          "internalType": "struct OracleUtils.SimulatePricesParams",
          "name": "simulatedOracleParams",
          "type": "tuple"
        }
      ],
      "name": "simulateExecuteOrder",
      "outputs": [],
      "stateMutability": "payable",
      "type": "function"
    },
    {
      "inputs": [
        {
          "internalType": "bytes32",
          "name": "key",
          "type": "bytes32"
        },
        {
          "components": [
            {
              "internalType": "address[]",
              "name": "primaryTokens",
              "type": "address[]"
            },
            {
              "components": [
                {
                  "internalType": "uint256",
                  "name": "min",
                  "type": "uint256"
                },
                {
                  "internalType": "uint256",
                  "name": "max",
                  "type": "uint256"
                }
              ],
              "internalType": "struct Price.Props[]",
              "name": "primaryPrices",
              "type": "tuple[]"
            }
          ],
          "internalType": "struct OracleUtils.SimulatePricesParams",
          "name": "simulatedOracleParams",
          "type": "tuple"
        }
      ],
      "name": "simulateExecuteWithdrawal",
      "outputs": [],
      "stateMutability": "payable",
      "type": "function"
    },
    {
      "inputs": [
        {
          "internalType": "bytes32",
          "name": "key",
          "type": "bytes32"
        },
        {
          "internalType": "uint256",
          "name": "sizeDeltaUsd",
          "type": "uint256"
        },
        {
          "internalType": "uint256",
          "name": "acceptablePrice",
          "type": "uint256"
        },
        {
          "internalType": "uint256",
          "name": "triggerPrice",
          "type": "uint256"
        },
        {
          "internalType": "uint256",
          "name": "minOutputAmount",
          "type": "uint256"
        }
      ],
      "name": "updateOrder",
      "outputs": [],
      "stateMutability": "payable",
      "type": "function"
    },
    {
      "inputs": [],
      "name": "withdrawalHandler",
      "outputs": [
        {
          "internalType": "contract WithdrawalHandler",
          "name": "",
          "type": "address"
        }
      ],
      "stateMutability": "view",
      "type": "function"
    }
  ],
  "bytecode": "0x6101606040523480156200001257600080fd5b506040516200603f3803806200603f83398101604081905262000035916200008a565b60016000556001600160a01b0395861660805295851660a05292841660c05290831660e052821661010052811661012052166101405262000135565b6001600160a01b03811681146200008757600080fd5b50565b600080600080600080600060e0888a031215620000a657600080fd5b8751620000b38162000071565b6020890151909750620000c68162000071565b6040890151909650620000d98162000071565b6060890151909550620000ec8162000071565b6080890151909450620000ff8162000071565b60a0890151909350620001128162000071565b60c0890151909250620001258162000071565b8091505092959891949750929550565b60805160a05160c05160e051610100516101205161014051615ddd620002626000396000818161037e015281816105930152818161090f01528181610df10152610fc601526000818161016501528181610ac801528181610c4601526111a50152600081816102d00152818161077b01528181610a53015261121a015260008181610304015281816104dd01528181610861015281816109e301528181611309015261151d0152600081816102630152818161047d015281816104bc0152818161065d0152818161080601528181610840015281816109c201528181610b5701528181610cd501528181610e5d01528181610edb015281816112a5015281816112e8015281816114b901526114fc0152600081816103fe01526113dc015260006101f60152615ddd6000f3fe6080604052600436106101265760003560e01c806301a9cbb21461012b578063263ea0fa146101405780632c2f3c0714610153578063314044841461019d57806349287a22146101b05780634a393a41146101c35780634a4a7b04146101e45780635a03cd94146102185780635b4e95611461022b5780636331d7a71461023e578063660d0d67146102515780637213c5a0146102855780637489ec23146102985780637d39aaf1146102ab5780639c8b2cfb146102be5780639ff78c30146102f2578063aab286f814610326578063ac9650d814610339578063ad23c5a114610359578063b58483051461036c578063b9e2f5ee146103a0578063c41b1ab3146103b3578063e6d66ac8146103c6578063e9249b57146103d9578063f887ea40146103ec575b600080fd5b61013e610139366004613d60565b610420565b005b61013e61014e366004613dd7565b610555565b34801561015f57600080fd5b506101877f000000000000000000000000000000000000000000000000000000000000000081565b6040516101949190613eef565b60405180910390f35b61013e6101ab366004613f03565b610605565b61013e6101be366004613d60565b6107b2565b6101d66101d1366004613f1c565b6108cd565b604051908152602001610194565b3480156101f057600080fd5b506101877f000000000000000000000000000000000000000000000000000000000000000081565b61013e610226366004613f03565b610995565b6101d6610239366004613f57565b610a12565b61013e61024c366004613dd7565b610a8a565b34801561025d57600080fd5b506101877f000000000000000000000000000000000000000000000000000000000000000081565b61013e610293366004613f03565b610aff565b61013e6102a6366004613f03565b610c7d565b61013e6102b9366004613f92565b610e28565b3480156102ca57600080fd5b506101877f000000000000000000000000000000000000000000000000000000000000000081565b3480156102fe57600080fd5b506101877f000000000000000000000000000000000000000000000000000000000000000081565b61013e610334366004613fbe565b610e83565b61034c610347366004613ff9565b611044565b60405161019491906140bd565b6101d661036736600461411f565b611163565b34801561037857600080fd5b506101877f000000000000000000000000000000000000000000000000000000000000000081565b61013e6103ae366004613dd7565b6111dc565b61013e6103c1366004613d60565b611251565b61013e6103d436600461415a565b611375565b61013e6103e736600461419b565b611445565b3480156103f857600080fd5b506101877f000000000000000000000000000000000000000000000000000000000000000081565b60026000540361044b5760405162461bcd60e51b815260040161044290614289565b60405180910390fd5b6002600055815183511461047857825182516040516374cee48d60e01b81526004016104429291906142c0565b6104aa7f00000000000000000000000000000000000000000000000000000000000000006104a5306115a3565b611630565b3360005b8451811015610549576105377f00000000000000000000000000000000000000000000000000000000000000007f00000000000000000000000000000000000000000000000000000000000000008488858151811061050f5761050f6142ce565b6020026020010151888681518110610529576105296142ce565b60200260200101518861165f565b80610541816142fa565b9150506104ae565b50506001600055505050565b6002600054036105775760405162461bcd60e51b815260040161044290614289565b600260005560405163131f507d60e11b81526001600160a01b037f0000000000000000000000000000000000000000000000000000000000000000169063263ea0fa906105ca9085908590600401614364565b600060405180830381600087803b1580156105e457600080fd5b505af11580156105f8573d6000803e3d6000fd5b5050600160005550505050565b6002600054036106275760405162461bcd60e51b815260040161044290614289565b6002600090815560405163fdfc26f360e01b815273__$b63e253a228f0e32f671cc49c7fc32477c$__9063fdfc26f390610687907f00000000000000000000000000000000000000000000000000000000000000009086906004016143dd565b600060405180830381865af41580156106a4573d6000803e3d6000fd5b505050506040513d6000823e601f3d908101601f191682016040526106cc919081019061453b565b905060006106d982515190565b6001600160a01b031603610700576040516395b66fe960e01b815260040160405180910390fd5b3361070a82515190565b6001600160a01b031614610765576040805163a35b150b60e01b8152336004820152602481019190915260196044820152781858d8dbdd5b9d08199bdc8818d85b98d95b11195c1bdcda5d603a1b6064820152608401610442565b604051630c50112160e21b8152600481018390527f00000000000000000000000000000000000000000000000000000000000000006001600160a01b0316906331404484906024016105ca565b6002600054036107d45760405162461bcd60e51b815260040161044290614289565b600260005581518351146108015782518251604051635b3043dd60e01b81526004016104429291906142c0565b61082e7f00000000000000000000000000000000000000000000000000000000000000006104a5306118bd565b3360005b8451811015610549576108bb7f00000000000000000000000000000000000000000000000000000000000000007f0000000000000000000000000000000000000000000000000000000000000000878481518110610892576108926142ce565b60200260200101518785815181106108ac576108ac6142ce565b60200260200101518688611911565b806108c5816142fa565b915050610832565b60006002600054036108f15760405162461bcd60e51b815260040161044290614289565b600260005560405163718a30b960e11b815233906001600160a01b037f0000000000000000000000000000000000000000000000000000000000000000169063e314617290610946908490879060040161482d565b6020604051808303816000875af1158015610965573d6000803e3d6000fd5b505050506040513d601f19601f82011682018060405250810190610989919061494d565b60016000559392505050565b6002600054036109b75760405162461bcd60e51b815260040161044290614289565b600260005533610a097f00000000000000000000000000000000000000000000000000000000000000007f00000000000000000000000000000000000000000000000000000000000000008385611bcb565b50506001600055565b6000600260005403610a365760405162461bcd60e51b815260040161044290614289565b600260005560405162bd80c160e61b815233906001600160a01b037f00000000000000000000000000000000000000000000000000000000000000001690632f603040906109469084908790600401614966565b600260005403610aac5760405162461bcd60e51b815260040161044290614289565b6002600055604051636331d7a760e01b81526001600160a01b037f00000000000000000000000000000000000000000000000000000000000000001690636331d7a7906105ca9085908590600401614364565b600260005403610b215760405162461bcd60e51b815260040161044290614289565b6002600090815560405163fdfc26f360e01b815273__$3dc24d71d6ebafc0c4ce8ac2f69cd1548a$__9063fdfc26f390610b81907f00000000000000000000000000000000000000000000000000000000000000009086906004016143dd565b600060405180830381865af4158015610b9e573d6000803e3d6000fd5b505050506040513d6000823e601f3d908101601f19168201604052610bc69190810190614ab2565b905033610bd282515190565b6001600160a01b031614610c30576040805163a35b150b60e01b81523360048201526024810191909152601c60448201527b1858d8dbdd5b9d08199bdc8818d85b98d95b15da5d1a191c985dd85b60221b6064820152608401610442565b6040516303909e2d60e51b8152600481018390527f00000000000000000000000000000000000000000000000000000000000000006001600160a01b031690637213c5a0906024016105ca565b600260005403610c9f5760405162461bcd60e51b815260040161044290614289565b6002600090815560405163fdfc26f360e01b815273__$9dcb75ef0bb6c4288f2ccffe7dc492c4eb$__9063fdfc26f390610cff907f00000000000000000000000000000000000000000000000000000000000000009086906004016143dd565b600060405180830381865af4158015610d1c573d6000803e3d6000fd5b505050506040513d6000823e601f3d908101601f19168201604052610d449190810190614ce6565b90506000610d5182515190565b6001600160a01b031603610d7857604051631630779760e01b815260040160405180910390fd5b33610d8282515190565b6001600160a01b031614610ddb576040805163a35b150b60e01b81523360048201526024810191909152601760448201527630b1b1b7bab73a103337b91031b0b731b2b627b93232b960491b6064820152608401610442565b604051637489ec2360e01b8152600481018390527f00000000000000000000000000000000000000000000000000000000000000006001600160a01b031690637489ec23906024016105ca565b600260005403610e4a5760405162461bcd60e51b815260040161044290614289565b6002600055610e5882611d8e565b610a097f00000000000000000000000000000000000000000000000000000000000000008383611db8565b600260005403610ea55760405162461bcd60e51b815260040161044290614289565b6002600090815560405163fdfc26f360e01b815273__$9dcb75ef0bb6c4288f2ccffe7dc492c4eb$__9063fdfc26f390610f05907f0000000000000000000000000000000000000000000000000000000000000000908a906004016143dd565b600060405180830381865af4158015610f22573d6000803e3d6000fd5b505050506040513d6000823e601f3d908101601f19168201604052610f4a9190810190614ce6565b905033610f5682515190565b6001600160a01b031614610faf576040805163a35b150b60e01b81523360048201526024810191909152601760448201527630b1b1b7bab73a103337b9103ab83230ba32a7b93232b960491b6064820152608401610442565b6040516396fe6a9360e01b81526001600160a01b037f000000000000000000000000000000000000000000000000000000000000000016906396fe6a939061100590899089908990899089908990600401614e72565b600060405180830381600087803b15801561101f57600080fd5b505af1158015611033573d6000803e3d6000fd5b505060016000555050505050505050565b6060816001600160401b0381111561105e5761105e613bac565b60405190808252806020026020018201604052801561109157816020015b606081526020019060019003908161107c5790505b50905060005b8281101561115b57600080308686858181106110b5576110b56142ce565b90506020028101906110c79190614f65565b6040516110d5929190614fab565b600060405180830381855af49150503d8060008114611110576040519150601f19603f3d011682016040523d82523d6000602084013e611115565b606091505b5091509150816111285761112881611e41565b8084848151811061113b5761113b6142ce565b602002602001018190525050508080611153906142fa565b915050611097565b505b92915050565b60006002600054036111875760405162461bcd60e51b815260040161044290614289565b6002600055604051634c5a91e560e11b815233906001600160a01b037f000000000000000000000000000000000000000000000000000000000000000016906398b523ca906109469084908790600401614fbb565b6002600054036111fe5760405162461bcd60e51b815260040161044290614289565b6002600055604051635cf17af760e11b81526001600160a01b037f0000000000000000000000000000000000000000000000000000000000000000169063b9e2f5ee906105ca9085908590600401614364565b6002600054036112735760405162461bcd60e51b815260040161044290614289565b600260005581518351146112a05782518251604051637363cfa560e01b81526004016104429291906142c0565b6112cd7f00000000000000000000000000000000000000000000000000000000000000006104a530611e7f565b6112d681611d8e565b3360005b8451811015610549576113637f00000000000000000000000000000000000000000000000000000000000000007f000000000000000000000000000000000000000000000000000000000000000087848151811061133a5761133a6142ce565b6020026020010151878581518110611354576113546142ce565b60200260200101518688611ece565b8061136d816142fa565b9150506112da565b6002600054036113975760405162461bcd60e51b815260040161044290614289565b60026000556113a582611d8e565b6040516303704f0f60e31b81526001600160a01b0384811660048301523360248301819052848216604484015260648301849052917f000000000000000000000000000000000000000000000000000000000000000090911690631b82787890608401600060405180830381600087803b15801561142257600080fd5b505af1158015611436573d6000803e3d6000fd5b50506001600055505050505050565b6002600054036114675760405162461bcd60e51b815260040161044290614289565b60026000558251845114158061147f57508151835114155b156114b45783518351835160405163216068f960e11b8152600481019390935260248301919091526044820152606401610442565b6114e17f00000000000000000000000000000000000000000000000000000000000000006104a5306120ee565b6114ea81611d8e565b3360005b85518110156105f8576115917f00000000000000000000000000000000000000000000000000000000000000007f000000000000000000000000000000000000000000000000000000000000000088848151811061154e5761154e6142ce565b6020026020010151888581518110611568576115686142ce565b6020026020010151888681518110611582576115826142ce565b6020026020010151878961213b565b8061159b816142fa565b9150506114ee565b60006040516020016115e6906020808252601e908201527f434c41494d5f55495f464545535f464541545552455f44495341424c45440000604082015260600190565b60408051601f198184030181528282528051602091820120908301526001600160a01b03841690820152606001604051602081830303815290604052805190602001209050919050565b61163a82826125ba565b1561165b5760405163dd70e0c960e01b815260048101829052602401610442565b5050565b61166881611d8e565b600061167584848761262d565b60405163bd02d0f560e01b8152600481018290529091506000906001600160a01b0389169063bd02d0f590602401602060405180830381865afa1580156116c0573d6000803e3d6000fd5b505050506040513d601f19601f820116820180604052508101906116e4919061494d565b604051637152429d60e11b81529091506001600160a01b0389169063e2a4853a906117169085906000906004016142c0565b6020604051808303816000875af1158015611735573d6000803e3d6000fd5b505050506040513d601f19601f82011682018060405250810190611759919061494d565b506000886001600160a01b031663e98aabc1611775888861269e565b846040518363ffffffff1660e01b81526004016117939291906142c0565b6020604051808303816000875af11580156117b2573d6000803e3d6000fd5b505050506040513d601f19601f820116820180604052508101906117d6919061494d565b60405163078d3b7960e01b81529091506001600160a01b0387169063078d3b7990611809908890889087906004016150d6565b600060405180830381600087803b15801561182357600080fd5b505af1158015611837573d6000803e3d6000fd5b5050604051632c9800af60e11b815273__$e53db83827f4e07ebc418caf7145b8c2d5$__9250635930015e9150611874908c908a906004016150fa565b60006040518083038186803b15801561188c57600080fd5b505af41580156118a0573d6000803e3d6000fd5b505050506118b2888888878686612705565b505050505050505050565b60006040516020016115e69060208082526028908201527f434c41494d5f414646494c494154455f524557415244535f464541545552455f604082015267111254d05093115160c21b606082015260800190565b600061191e8585856128ad565b60405163bd02d0f560e01b8152600481018290529091506000906001600160a01b0389169063bd02d0f590602401602060405180830381865afa158015611969573d6000803e3d6000fd5b505050506040513d601f19601f8201168201806040525081019061198d919061494d565b604051637152429d60e11b81529091506001600160a01b0389169063e2a4853a906119bf9085906000906004016142c0565b6020604051808303816000875af11580156119de573d6000803e3d6000fd5b505050506040513d601f19601f82011682018060405250810190611a02919061494d565b506000886001600160a01b031663e98aabc1611a1e89896128be565b846040518363ffffffff1660e01b8152600401611a3c9291906142c0565b6020604051808303816000875af1158015611a5b573d6000803e3d6000fd5b505050506040513d601f19601f82011682018060405250810190611a7f919061494d565b60405163078d3b7960e01b81529091506001600160a01b0388169063078d3b7990611ab2908990889087906004016150d6565b600060405180830381600087803b158015611acc57600080fd5b505af1158015611ae0573d6000803e3d6000fd5b5050604051632c9800af60e11b815273__$e53db83827f4e07ebc418caf7145b8c2d5$__9250635930015e9150611b1d908c908b906004016150fa565b60006040518083038186803b158015611b3557600080fd5b505af4158015611b49573d6000803e3d6000fd5b505060405163489e6a9160e11b815273__$c5242c1b4d0e7cbc87936b604afb77fd42$__925063913cd5229150611b90908b908b908b908b908b908a908a90600401615114565b60006040518083038186803b158015611ba857600080fd5b505af4158015611bbc573d6000803e3d6000fd5b50505050505050505050505050565b6000846001600160a01b031663bd02d0f5604051602001611c119060208082526011908201527026a0ac2faaa4afa322a2afa320a1aa27a960791b604082015260600190565b604051602081830303815290604052805190602001206040518263ffffffff1660e01b8152600401611c4591815260200190565b602060405180830381865afa158015611c62573d6000803e3d6000fd5b505050506040513d601f19601f82011682018060405250810190611c86919061494d565b905080821115611cad578181604051638146813960e01b81526004016104429291906142c0565b846001600160a01b031663e2a4853a611cc5856128cf565b846040518363ffffffff1660e01b8152600401611ce39291906142c0565b6020604051808303816000875af1158015611d02573d6000803e3d6000fd5b505050506040513d601f19601f82011682018060405250810190611d26919061494d565b506040516311bfdfd160e21b815273__$c1eebf06e53d0bd092f667687cf73e1ebf$__906346ff7f4490611d62908790879087906004016150d6565b60006040518083038186803b158015611d7a57600080fd5b505af41580156118b2573d6000803e3d6000fd5b6001600160a01b038116611db55760405163d551823d60e01b815260040160405180910390fd5b50565b80600003611dc557505050565b611dce82611d8e565b6000611dd984612902565b9050806001600160a01b031663d0e30db0836040518263ffffffff1660e01b81526004016000604051808303818588803b158015611e1657600080fd5b505af1158015611e2a573d6000803e3d6000fd5b5050505050611e3b848285856129af565b50505050565b600080611e4d83612be5565b915091508015611e71578160405162461bcd60e51b81526004016104429190615157565b611e7a83612c75565b505050565b60006040516020016115e69060208082526023908201527f434c41494d5f46554e44494e475f464545535f464541545552455f444953414260408201526213115160ea1b606082015260800190565b6000611edb858585612c7e565b60405163bd02d0f560e01b8152600481018290529091506000906001600160a01b0389169063bd02d0f590602401602060405180830381865afa158015611f26573d6000803e3d6000fd5b505050506040513d601f19601f82011682018060405250810190611f4a919061494d565b604051637152429d60e11b81529091506001600160a01b0389169063e2a4853a90611f7c9085906000906004016142c0565b6020604051808303816000875af1158015611f9b573d6000803e3d6000fd5b505050506040513d601f19601f82011682018060405250810190611fbf919061494d565b506000886001600160a01b031663e98aabc1611fdb8989612c8f565b846040518363ffffffff1660e01b8152600401611ff99291906142c0565b6020604051808303816000875af1158015612018573d6000803e3d6000fd5b505050506040513d601f19601f8201168201806040525081019061203c919061494d565b60405163078d3b7960e01b81529091506001600160a01b0388169063078d3b799061206f908990889087906004016150d6565b600060405180830381600087803b15801561208957600080fd5b505af115801561209d573d6000803e3d6000fd5b505050506120ab8988612ca0565b604051634ee4c83160e01b815273__$c1eebf06e53d0bd092f667687cf73e1ebf$__90634ee4c83190611b90908b908b908b908b908b908a908a90600401615114565b60006040516020016115e69060208082526021908201527f434c41494d5f434f4c4c41544552414c5f464541545552455f44495341424c456040820152601160fa1b606082015260800190565b6000876001600160a01b031663bd02d0f561215888888888612cb8565b6040518263ffffffff1660e01b815260040161217691815260200190565b602060405180830381865afa158015612193573d6000803e3d6000fd5b505050506040513d601f19601f820116820180604052508101906121b7919061494d565b90506000886001600160a01b031663bd02d0f56121d5898989612d30565b6040518263ffffffff1660e01b81526004016121f391815260200190565b602060405180830381865afa158015612210573d6000803e3d6000fd5b505050506040513d601f19601f82011682018060405250810190612234919061494d565b90506000896001600160a01b031663bd02d0f56122538a8a8a8a612d85565b6040518263ffffffff1660e01b815260040161227191815260200190565b602060405180830381865afa15801561228e573d6000803e3d6000fd5b505050506040513d601f19601f820116820180604052508101906122b2919061494d565b905060008183116122c357816122c5565b825b905060008b6001600160a01b031663bd02d0f56122e48c8c8c8c612d96565b6040518263ffffffff1660e01b815260040161230291815260200190565b602060405180830381865afa15801561231f573d6000803e3d6000fd5b505050506040513d601f19601f82011682018060405250810190612343919061494d565b905060006123518684612dd5565b9050818111612377578082604051631d8db13960e31b81526004016104429291906142c0565b6000612383838361516a565b90508d6001600160a01b031663e2a4853a6123a08e8e8e8e612d96565b846040518363ffffffff1660e01b81526004016123be9291906142c0565b6020604051808303816000875af11580156123dd573d6000803e3d6000fd5b505050506040513d601f19601f82011682018060405250810190612401919061494d565b5060008e6001600160a01b031663e98aabc161241d8f8f612dee565b846040518363ffffffff1660e01b815260040161243b9291906142c0565b6020604051808303816000875af115801561245a573d6000803e3d6000fd5b505050506040513d601f19601f8201168201806040525081019061247e919061494d565b60405163078d3b7960e01b81529091506001600160a01b038e169063078d3b79906124b1908f908d9087906004016150d6565b600060405180830381600087803b1580156124cb57600080fd5b505af11580156124df573d6000803e3d6000fd5b505050506124ed8f8e612ca0565b73__$c1eebf06e53d0bd092f667687cf73e1ebf$__63b3d188de8f8f8f8f8f8f89896040518963ffffffff1660e01b81526004016125799897969594939291906001600160a01b039889168152968816602088015294871660408701526060860193909352908516608085015290931660a083015260c082019290925260e08101919091526101000190565b60006040518083038186803b15801561259157600080fd5b505af41580156125a5573d6000803e3d6000fd5b50505050505050505050505050505050505050565b604051633d70e7e560e11b8152600481018290526000906001600160a01b03841690637ae1cfca90602401602060405180830381865afa158015612602573d6000803e3d6000fd5b505050506040513d601f19601f82011682018060405250810190612626919061517d565b9392505050565b600060405160200161263e9061519a565b60408051601f198184030181528282528051602091820120908301526001600160a01b038087169183019190915280851660608301528316608082015260a0015b6040516020818303038152906040528051906020012090509392505050565b60006040516020016126af9061519a565b60408051601f198184030181528282528051602091820120908301526001600160a01b03808616918301919091528316606082015260800160405160208183030381529060405280519060200120905092915050565b61270d613abb565b805161271a906003612dff565b60408051808201909152600d81526c3ab4a332b2a932b1b2b4bb32b960991b6020820152815161274d9160009089612e64565b6040805180820190915260068152651b585c9ad95d60d21b602082015281516127799160019088612e64565b6040805180820190915260088152673932b1b2b4bb32b960c11b602082015281516127a79160029087612e64565b60208101516127b7906002612dff565b6127f4600060405180604001604052806009815260200168199959505b5bdd5b9d60ba1b815250858460200151612ec1909392919063ffffffff16565b61283560016040518060400160405280600d81526020016c6e657874506f6f6c56616c756560981b815250848460200151612ec1909392919063ffffffff16565b866001600160a01b03166324de01e4612854876001600160a01b031690565b836040518363ffffffff1660e01b81526004016128729291906159fd565b600060405180830381600087803b15801561288c57600080fd5b505af11580156128a0573d6000803e3d6000fd5b5050505050505050505050565b600060405160200161263e90615af8565b60006040516020016126af90615af8565b60006040516020016115e6906020808252600d908201526c2aa4afa322a2afa320a1aa27a960991b604082015260600190565b6000816001600160a01b03166321f8a72160405160200161293a9060208082526003908201526215d39560ea1b604082015260600190565b604051602081830303815290604052805190602001206040518263ffffffff1660e01b815260040161296e91815260200190565b602060405180830381865afa15801561298b573d6000803e3d6000fd5b505050506040513d601f19601f8201168201806040525081019061115d9190615b22565b8015611e3b576129be82611d8e565b6000846001600160a01b031663bd02d0f56129d886612f14565b6040518263ffffffff1660e01b81526004016129f691815260200190565b602060405180830381865afa158015612a13573d6000803e3d6000fd5b505050506040513d601f19601f82011682018060405250810190612a37919061494d565b905080600003612a5c5783604051634fe14bfd60e11b81526004016104429190613eef565b6000612a6a85858585612f52565b5090508015612a7a575050611e3b565b6000866001600160a01b03166321f8a721604051602001612abe906020808252600f908201526e484f4c44494e475f4144445245535360881b604082015260600190565b604051602081830303815290604052805190602001206040518263ffffffff1660e01b8152600401612af291815260200190565b602060405180830381865afa158015612b0f573d6000803e3d6000fd5b505050506040513d601f19601f82011682018060405250810190612b339190615b22565b90506001600160a01b038116612b5c57604051633a6de2f560e21b815260040160405180910390fd5b600080612b6b88848888612f52565b915091508115612b7f575050505050611e3b565b6000612b8a82612be5565b5090507fc9f14d9a0a9b46470c7c0b6c508f8283abaab7f795f153953c58cd4250824dae8183604051612bbe929190615b3f565b60405180910390a188888860405163012f3b8f60e71b8152600401610442939291906150d6565b60606000604483511015612c0c575050604080516020810190915260008082529092909150565b6000612c19846020015190565b90506307b9e43360e51b6001600160e01b0319821601612c585760048401935083806020019051810190612c4d9190615b64565b946001945092505050565b600060405180602001604052806000815250909250925050915091565b80518060208301fd5b600060405160200161263e90615bf7565b60006040516020016126af90615bf7565b6000612cac83836130ba565b9050611e7a8382613167565b6000604051602001612cc990615c29565b60408051601f198184030181528282528051602091820120908301526001600160a01b0380881691830191909152808616606083015260808201859052831660a082015260c001604051602081830303815290604052805190602001209050949350505050565b6000604051602001612d4190615c5e565b60408051601f198184030181528282528051602091820120908301526001600160a01b0380871691830191909152841660608201526080810183905260a00161267f565b6000604051602001612cc990615c5e565b6000604051602001612cc99060208082526019908201527810d3105253515117d0d3d31310551154905317d05353d55395603a1b604082015260600190565b6000612626838368327cb2734119d3b7a9601e1b6131aa565b60006040516020016126af90615c29565b806001600160401b03811115612e1757612e17613bac565b604051908082528060200260200182016040528015612e5d57816020015b604080518082019091526060815260006020820152815260200190600190039081612e355790505b5090915250565b8184600001518481518110612e7b57612e7b6142ce565b6020026020010151600001819052508084600001518481518110612ea157612ea16142ce565b6020908102919091018101516001600160a01b0390921691015250505050565b8184600001518481518110612ed857612ed86142ce565b6020026020010151600001819052508084600001518481518110612efe57612efe6142ce565b6020026020010151602001818152505050505050565b60006040516020016115e6906020808252601890820152771513d2d15397d514905394d1915497d1d054d7d31253525560421b604082015260600190565b60006060600063a9059cbb60e01b8686604051602401612f739291906143dd565b604051602081830303815290604052906001600160e01b0319166020820180516001600160e01b0383818316178352505050509050600080886001600160a01b03168684604051612fc49190615c93565b60006040518083038160008787f1925050503d8060008114613002576040519150601f19603f3d011682016040523d82523d6000602084013e613007565b606091505b509150915081156130a8578051600003613065576001600160a01b0389163b6130655760006040518060400160405280601481526020017310d85b1b081d1bc81b9bdb8b58dbdb9d1c9858dd60621b815250945094505050506130b1565b60008151118015613087575080806020019051810190613085919061517d565b155b1561309a576000945092506130b1915050565b6001945092506130b1915050565b60009450925050505b94509492505050565b60408051608081018252600080825260208201819052918101829052606081019190915260405163a8d8fff560e01b815260009073__$ff439aa65a80c9eec648f15db20b189505$__9063a8d8fff59061311a90879087906004016150fa565b608060405180830381865af4158015613137573d6000803e3d6000fd5b505050506040513d601f19601f8201168201806040525081019061315b9190615caf565b905061262684826131bf565b61317682828360400151613288565b80606001516001600160a01b031681604001516001600160a01b03160361319b575050565b61165b82828360600151613288565b60006131b7848484613486565b949350505050565b80516001600160a01b03166131e7576040516302fde0d760e11b815260040160405180910390fd5b6000826001600160a01b0316637ae1cfca6132058460000151613535565b6040518263ffffffff1660e01b815260040161322391815260200190565b602060405180830381865afa158015613240573d6000803e3d6000fd5b505050506040513d601f19601f82011682018060405250810190613264919061517d565b90508015611e7a5781516040516309f8c93760e01b81526104429190600401613eef565b81516001600160a01b031615806132a657506001600160a01b038116155b156132c957815160405163e474a42560e01b8152610442919083906004016150fa565b81516040516370a0823160e01b81526000916001600160a01b038416916370a08231916132f891600401613eef565b602060405180830381865afa158015613315573d6000803e3d6000fd5b505050506040513d601f19601f82011682018060405250810190613339919061494d565b9050600061334885858561356d565b9050808210156133745783516040516333a1ea6b60e01b81526104429190859085908590600401615d33565b600061338886866000015186600180613890565b905061339d8686600001518660006001613890565b6133a79082615d5c565b9050808310156133d357845160405163808c464f60e01b81526104429190869086908590600401615d33565b6000866001600160a01b031663bd02d0f56133f2886000015188612c8f565b6040518263ffffffff1660e01b815260040161341091815260200190565b602060405180830381865afa15801561342d573d6000803e3d6000fd5b505050506040513d601f19601f82011682018060405250810190613451919061494d565b90508084101561347d578551604051639dd026db60e01b81526104429190879087908590600401615d33565b50505050505050565b60008080600019858709858702925082811083820303915050806000036134c0578382816134b6576134b6615d6f565b0492505050612626565b8084116134cc57600080fd5b60008486880960026001871981018816978890046003810283188082028403028082028403028082028403028082028403028082028403029081029092039091026000889003889004909101858311909403939093029303949094049190911702949350505050565b60006040516020016115e6906020808252601290820152711254d7d3505492d15517d11254d05093115160721b604082015260600190565b60006135a86040518060c001604052806000815260200160008152602001600081526020016000815260200160008152602001600081525090565b846001600160a01b031663bd02d0f56135c5866000015186613920565b6040518263ffffffff1660e01b81526004016135e391815260200190565b602060405180830381865afa158015613600573d6000803e3d6000fd5b505050506040513d601f19601f82011682018060405250810190613624919061494d565b8152835161363490869085613951565b602082015283516001600160a01b0386169063bd02d0f5906136569086612dee565b6040518263ffffffff1660e01b815260040161367491815260200190565b602060405180830381865afa158015613691573d6000803e3d6000fd5b505050506040513d601f19601f820116820180604052508101906136b5919061494d565b604082015283516001600160a01b0386169063bd02d0f5906136d790866139cb565b6040518263ffffffff1660e01b81526004016136f591815260200190565b602060405180830381865afa158015613712573d6000803e3d6000fd5b505050506040513d601f19601f82011682018060405250810190613736919061494d565b606082015283516001600160a01b0386169063bd02d0f590613758908661269e565b6040518263ffffffff1660e01b815260040161377691815260200190565b602060405180830381865afa158015613793573d6000803e3d6000fd5b505050506040513d601f19601f820116820180604052508101906137b7919061494d565b608082015283516001600160a01b0386169063bd02d0f5906137d990866128be565b6040518263ffffffff1660e01b81526004016137f791815260200190565b602060405180830381865afa158015613814573d6000803e3d6000fd5b505050506040513d601f19601f82011682018060405250810190613838919061494d565b60a082018190526080820151606083015160408401516020850151855161385f9190615d5c565b6138699190615d5c565b6138739190615d5c565b61387d9190615d5c565b6138879190615d5c565b95945050505050565b600081866001600160a01b031663bd02d0f56138ad888888613a05565b6040518263ffffffff1660e01b81526004016138cb91815260200190565b602060405180830381865afa1580156138e8573d6000803e3d6000fd5b505050506040513d601f19601f8201168201806040525081019061390c919061494d565b6139169190615d85565b9695505050505050565b60006040516020016126af906020808252600b908201526a1413d3d317d05353d5539560aa1b604082015260600190565b6000836001600160a01b031663bd02d0f561396c8585613a7e565b6040518263ffffffff1660e01b815260040161398a91815260200190565b602060405180830381865afa1580156139a7573d6000803e3d6000fd5b505050506040513d601f19601f820116820180604052508101906131b7919061494d565b60006040516020016126af9060208082526014908201527310d31052535050931157d1915157d05353d5539560621b604082015260600190565b6000604051602001613a39906020808252600e908201526d434f4c4c41544552414c5f53554d60901b604082015260600190565b60408051601f198184030181528282528051602091820120908301526001600160a01b038087169183019190915284166060820152821515608082015260a00161267f565b60006040516020016126af9060208082526017908201527614d5d05417d253541050d517d413d3d317d05353d55395604a1b604082015260600190565b604080516101208101909152606060e0820181815261010083019190915281908152602001613afd604051806040016040528060608152602001606081525090565b8152602001613b1f604051806040016040528060608152602001606081525090565b8152602001613b41604051806040016040528060608152602001606081525090565b8152602001613b63604051806040016040528060608152602001606081525090565b8152602001613b85604051806040016040528060608152602001606081525090565b8152602001613ba7604051806040016040528060608152602001606081525090565b905290565b634e487b7160e01b600052604160045260246000fd5b604080519081016001600160401b0381118282101715613be457613be4613bac565b60405290565b604051606081016001600160401b0381118282101715613be457613be4613bac565b60405161012081016001600160401b0381118282101715613be457613be4613bac565b60405160e081016001600160401b0381118282101715613be457613be4613bac565b60405161014081016001600160401b0381118282101715613be457613be4613bac565b604051601f8201601f191681016001600160401b0381118282101715613c9c57613c9c613bac565b604052919050565b60006001600160401b03821115613cbd57613cbd613bac565b5060051b60200190565b6001600160a01b0381168114611db557600080fd5b8035613ce781613cc7565b919050565b600082601f830112613cfd57600080fd5b81356020613d12613d0d83613ca4565b613c74565b82815260059290921b84018101918181019086841115613d3157600080fd5b8286015b84811015613d55578035613d4881613cc7565b8352918301918301613d35565b509695505050505050565b600080600060608486031215613d7557600080fd5b83356001600160401b0380821115613d8c57600080fd5b613d9887838801613cec565b94506020860135915080821115613dae57600080fd5b50613dbb86828701613cec565b9250506040840135613dcc81613cc7565b809150509250925092565b6000806040808486031215613deb57600080fd5b833592506020808501356001600160401b0380821115613e0a57600080fd5b8187019150838289031215613e1e57600080fd5b613e26613bc2565b823582811115613e3557600080fd5b613e418a828601613cec565b8252508383013582811115613e5557600080fd5b80840193505088601f840112613e6a57600080fd5b82359150613e7a613d0d83613ca4565b82815260069290921b8301840191848101908a841115613e9957600080fd5b938501935b83851015613ed95786858c031215613eb65760008081fd5b613ebe613bc2565b85358152868601358782015282529386019390850190613e9e565b8086840152505080955050505050509250929050565b6001600160a01b0391909116815260200190565b600060208284031215613f1557600080fd5b5035919050565b600060208284031215613f2e57600080fd5b81356001600160401b03811115613f4457600080fd5b82016101a0818503121561262657600080fd5b600060208284031215613f6957600080fd5b81356001600160401b03811115613f7f57600080fd5b8201610180818503121561262657600080fd5b60008060408385031215613fa557600080fd5b8235613fb081613cc7565b946020939093013593505050565b600080600080600060a08688031215613fd657600080fd5b505083359560208501359550604085013594606081013594506080013592509050565b6000806020838503121561400c57600080fd5b82356001600160401b038082111561402357600080fd5b818501915085601f83011261403757600080fd5b81358181111561404657600080fd5b8660208260051b850101111561405b57600080fd5b60209290920196919550909350505050565b60005b83811015614088578181015183820152602001614070565b50506000910152565b600081518084526140a981602086016020860161406d565b601f01601f19169290920160200192915050565b6000602080830181845280855180835260408601915060408160051b870101925083870160005b8281101561411257603f19888603018452614100858351614091565b945092850192908501906001016140e4565b5092979650505050505050565b60006020828403121561413157600080fd5b81356001600160401b0381111561414757600080fd5b8201610160818503121561262657600080fd5b60008060006060848603121561416f57600080fd5b833561417a81613cc7565b9250602084013561418a81613cc7565b929592945050506040919091013590565b600080600080608085870312156141b157600080fd5b84356001600160401b03808211156141c857600080fd5b6141d488838901613cec565b95506020915081870135818111156141eb57600080fd5b6141f789828a01613cec565b95505060408701358181111561420c57600080fd5b87019050601f8101881361421f57600080fd5b803561422d613d0d82613ca4565b81815260059190911b8201830190838101908a83111561424c57600080fd5b928401925b8284101561426a57833582529284019290840190614251565b809650505050505061427e60608601613cdc565b905092959194509250565b6020808252601f908201527f5265656e7472616e637947756172643a207265656e7472616e742063616c6c00604082015260600190565b918252602082015260400190565b634e487b7160e01b600052603260045260246000fd5b634e487b7160e01b600052601160045260246000fd5b60006001820161430c5761430c6142e4565b5060010190565b6001600160a01b03169052565b600081518084526020808501945080840160005b838110156143595781516001600160a01b031687529582019590820190600101614334565b509495945050505050565b6000604084835260208181850152845182838601526143866080860182614320565b86830151868203603f19016060880152805180835290840192506000918401905b808310156143d057835180518352850151858301529284019260019290920191908501906143a7565b5098975050505050505050565b6001600160a01b03929092168252602082015260400190565b8051613ce781613cc7565b600082601f83011261441257600080fd5b81516020614422613d0d83613ca4565b82815260059290921b8401810191818101908684111561444157600080fd5b8286015b84811015613d5557805161445881613cc7565b8352918301918301614445565b600060c0828403121561447757600080fd5b60405160c081016001600160401b038111828210171561449957614499613bac565b8060405250809150825181526020830151602082015260408301516040820152606083015160608201526080830151608082015260a083015160a08201525092915050565b8015158114611db557600080fd5b6000602082840312156144fe57600080fd5b604051602081016001600160401b038111828210171561452057614520613bac565b80604052508091508251614533816144de565b905292915050565b60006020828403121561454d57600080fd5b81516001600160401b038082111561456457600080fd5b818401915061010080838703121561457b57600080fd5b614583613bea565b83518381111561459257600080fd5b840161012081890312156145a557600080fd5b6145ad613c0c565b6145b6826143f6565b81526145c4602083016143f6565b60208201526145d5604083016143f6565b60408201526145e6606083016143f6565b60608201526145f7608083016143f6565b608082015261460860a083016143f6565b60a082015261461960c083016143f6565b60c082015260e08201518581111561463057600080fd5b61463c8a828501614401565b60e083015250838201518581111561465357600080fd5b61465f8a828501614401565b82860152508252506146748760208601614465565b60208201526146868760e086016144ec565b60408201529695505050505050565b6000808335601e198436030181126146ac57600080fd5b83016020810192503590506001600160401b038111156146cb57600080fd5b8060051b36038213156146dd57600080fd5b9250929050565b8183526000602080850194508260005b8581101561435957813561470781613cc7565b6001600160a01b0316875295820195908201906001016146f4565b6000813561472f81613cc7565b6001600160a01b03908116845260208301359061474b82613cc7565b908116602085015260408301359061476282613cc7565b908116604085015260608301359061477982613cc7565b908116606085015260808301359061479082613cc7565b1660808401526147a360a0830183614695565b60c060a086015261388760c0860182846146e4565b60088110611db557600080fd5b8035613ce7816147b8565b634e487b7160e01b600052602160045260246000fd5b600881106147f6576147f66147d0565b9052565b60038110611db557600080fd5b8035613ce7816147fa565b600381106147f6576147f66147d0565b8035613ce7816144de565b6001600160a01b038316815260406020820152600082353684900360be1901811261485757600080fd5b6101a08060408501526148706101e08501868401614722565b91506148c16060850160208701803582526020810135602083015260408101356040830152606081013560608301526080810135608083015260a081013560a083015260c081013560c08301525050565b6148ce61010086016147c5565b6101406148dd818701836147e6565b6148ea6101208801614807565b91506101606148fb81880184614812565b614906828901614822565b9250610180915061491a8288018415159052565b614925818901614822565b9250506149358387018315159052565b808701356101c0870152505050809150509392505050565b60006020828403121561495f57600080fd5b5051919050565b6001600160a01b038316815260406020820181905261498f90820161498a84613cdc565b614313565b600061499d60208401613cdc565b6149aa6060840182614313565b506149b760408401613cdc565b6149c46080840182614313565b506149d160608401613cdc565b6149de60a0840182614313565b506149eb60808401613cdc565b6149f860c0840182614313565b50614a0560a08401613cdc565b614a1260e0840182614313565b50614a2060c0840184614695565b6101806101008181870152614a3a6101c0870184866146e4565b9350614a4960e0880188614695565b9350610120603f198887030181890152614a648686846146e4565b955061014094508289013585890152614a7e818a01614822565b92505050610160614a928188018315159052565b928701359186019190915250909301356101a09092019190915250919050565b600060208284031215614ac457600080fd5b81516001600160401b0380821115614adb57600080fd5b908301906101008286031215614af057600080fd5b614af8613bea565b825182811115614b0757600080fd5b830160e08188031215614b1957600080fd5b614b21613c2f565b614b2a826143f6565b8152614b38602083016143f6565b6020820152614b49604083016143f6565b6040820152614b5a606083016143f6565b6060820152614b6b608083016143f6565b608082015260a082015184811115614b8257600080fd5b614b8e89828501614401565b60a08301525060c082015184811115614ba657600080fd5b614bb289828501614401565b60c083015250825250614bc88660208501614465565b6020820152614bda8660e085016144ec565b604082015295945050505050565b8051613ce7816147b8565b8051613ce7816147fa565b60006101408284031215614c1157600080fd5b614c19613c51565b9050614c2482614be8565b8152614c3260208301614bf3565b602082015260408201516040820152606082015160608201526080820151608082015260a082015160a082015260c082015160c082015260e082015160e082015261010080830151818301525061012080830151818301525092915050565b600060608284031215614ca357600080fd5b614cab613bea565b90508151614cb8816144de565b81526020820151614cc8816144de565b60208201526040820151614cdb816144de565b604082015292915050565b600060208284031215614cf857600080fd5b81516001600160401b0380821115614d0f57600080fd5b908301906101c08286031215614d2457600080fd5b614d2c613bea565b825182811115614d3b57600080fd5b830160e08188031215614d4d57600080fd5b614d55613c2f565b614d5e826143f6565b8152614d6c602083016143f6565b6020820152614d7d604083016143f6565b6040820152614d8e606083016143f6565b6060820152614d9f608083016143f6565b6080820152614db060a083016143f6565b60a082015260c082015184811115614dc757600080fd5b614dd389828501614401565b60c083015250825250614de98660208501614bfe565b6020820152614bda866101608501614c91565b614e078282516147e6565b6020810151614e196020840182614812565b5060408101516040830152606081015160608301526080810151608083015260a081015160a083015260c081015160c083015260e081015160e08301526101008082015181840152506101208082015181840152505050565b86815285602082015284604082015283606082015282608082015260c060a0820152600082516101c060c084015260018060a01b0380825116610280850152806020830151166102a0850152806040830151166102c0850152506060810151614edf6102e0850182614313565b506080810151614ef3610300850182614313565b5060a0810151614f07610320850182614313565b5060c0015160e0610340840152614f22610360840182614320565b90506020840151614f3660e0850182614dfc565b5060408481015180511515610220860152602081015115156102408601529081015115156102608501526143d0565b6000808335601e19843603018112614f7c57600080fd5b8301803591506001600160401b03821115614f9657600080fd5b6020019150368190038213156146dd57600080fd5b8183823760009101908152919050565b6001600160a01b0383168152604060208201819052614fdf90820161498a84613cdc565b6000614fed60208401613cdc565b614ffa6060840182614313565b5061500760408401613cdc565b6150146080840182614313565b5061502160608401613cdc565b61502e60a0840182614313565b5061503c6080840184614695565b6101608060c08601526150546101a0860183856146e4565b925061506360a0870187614695565b868503603f190160e0880152925061507c8484836146e4565b935050610100915060c08601358286015261012060e0870135818701526150a4838801614822565b92506101406150b68188018515159052565b908701359186019190915290940135610180909301929092525092915050565b6001600160a01b039384168152919092166020820152604081019190915260600190565b6001600160a01b0392831681529116602082015260400190565b6001600160a01b039788168152958716602087015293861660408601529185166060850152909316608083015260a082019290925260c081019190915260e00190565b6020815260006126266020830184614091565b8181038181111561115d5761115d6142e4565b60006020828403121561518f57600080fd5b8151612626816144de565b60208082526017908201527610d31052535050931157d55257d1915157d05353d55395604a1b604082015260600190565b6000815180845260208085019450848260051b860182860160005b8581101561523657838303895281516040815181865261520882870182614091565b915050868201519150848103878601526152228183614320565b9a87019a94505050908401906001016151e6565b5090979650505050505050565b60006040808401835182865281815180845260608801915060608160051b89010193506020808401935060005b828110156152ba57898603605f190184528451805188885261529489890182614091565b918401516001600160a01b03169784019790975295509381019392810192600101615270565b50808801519550888503818a01525050505061388781836151cb565b600082825180855260208086019550808260051b8401018186016000805b8581101561536b57601f19878503018a5282516040815181875261531a82880182614091565b92880151878403888a0152805180855290890193869350890191505b808310156153565783518252928801926001929092019190880190615336565b509b87019b95505050918401916001016152f4565b509198975050505050505050565b60006040808401835182865281815180845260608801915060608160051b89010193506020808401935060005b828110156153e757898603605f19018452845180518888526153ca89890182614091565b9184015197840197909752955093810193928101926001016153a6565b50808801519550888503818a01525050505061388781836152d6565b6000815180845260208085019450848260051b86018286016000805b8681101561536b578484038a5282516040815181875261544182880182614091565b92890151878403888b01528051808552908a01938693508a0191505b8083101561547d578351825292890192600192909201919089019061545d565b509b88019b955050509185019160010161541f565b60006040808401835182865281815180845260608801915060608160051b89010193506020808401935060005b8281101561550057898603605f19018452845180518888526154e389890182614091565b9184015197840197909752955093810193928101926001016154bf565b50808801519550888503818a0152505050506138878183615403565b600081518084526020808501808196508360051b810191508286016000805b868110156155b0578385038a5282516040815181885261555d82890182614091565b92890151888403898b01528051808552908a01938693508a0191505b8083101561559b57835115158252928901926001929092019190890190615579565b509b88019b965050509185019160010161553b565b509298975050505050505050565b60006040808401835182865281815180845260608801915060608160051b89010193506020808401935060005b8281101561562e57898603605f190184528451805188885261560f89890182614091565b91840151151597840197909752955093810193928101926001016155eb565b50808801519550888503818a015250505050613887818361551c565b600081518084526020808501808196508360051b810191508286016000805b868110156155b0578385038a5282516040815181885261568b82890182614091565b92890151888403898b01528051808552908a01938693508a0191505b808310156156c757835182529289019260019290920191908901906156a7565b509b88019b9650505091850191600101615669565b60006040808401835182865281815180845260608801915060608160051b89010193506020808401935060005b8281101561574a57898603605f190184528451805188885261572d89890182614091565b918401519784019790975295509381019392810192600101615709565b50808801519550888503818a015250505050613887818361564a565b600081518084526020808501808196506005915083821b81018387016000805b87811015615811578484038b528251604081518187526157a882880182614091565b928a0151878403888c01528051808552908b019392508a83019150808a1b83018b01865b828110156157fa57601f198583030184526157e8828751614091565b958d0195938d019391506001016157cc565b509e8b019e97505050938801935050600101615786565b50919998505050505050505050565b60006040808401835182865281815180845260608801915060608160051b89010193506020808401935060005b8281101561589d57898603605f190184528451805188885261587189890182614091565b91840151888303898601529190506158898183614091565b97505050938101939281019260010161584d565b50808801519550888503818a0152505050506138878183615766565b600081518084526020808501808196506005915083821b81018387016000805b87811015615811578484038b528251604081518187526158fb82880182614091565b928a0151878403888c01528051808552908b019392508a83019150808a1b83018b01865b8281101561594d57601f1985830301845261593b828751614091565b958d0195938d0193915060010161591f565b509e8b019e975050509388019350506001016158d9565b60006040808401835182865281815180845260608801915060608160051b89010193506020808401935060005b828110156159e157898603605f19018452845180518888526159b589890182614091565b91840151888303898601529190506159cd8183614091565b975050509381019392810192600101615991565b50808801519550888503818a01525050505061388781836158b9565b60608152600d60608201526c155a5199595cd0db185a5b5959609a1b608082015282602082015260a060408201526000825160e060a0840152615a44610180840182615243565b90506020840151609f19808584030160c0860152615a628383615379565b925060408601519150808584030160e0860152615a7f8383615492565b9250606086015191508085840301610100860152615a9d83836155be565b9250608086015191508085840301610120860152615abb83836156dc565b925060a086015191508085840301610140860152615ad98383615820565b925060c086015191508085840301610160860152506139168282615964565b60208082526010908201526f10519192531250551157d49155d0549160821b604082015260600190565b600060208284031215615b3457600080fd5b815161262681613cc7565b604081526000615b526040830185614091565b82810360208401526138878185614091565b600060208284031215615b7657600080fd5b81516001600160401b0380821115615b8d57600080fd5b818401915084601f830112615ba157600080fd5b815181811115615bb357615bb3613bac565b615bc6601f8201601f1916602001613c74565b9150808252856020828501011115615bdd57600080fd5b615bee81602084016020860161406d565b50949350505050565b60208082526018908201527710d31052535050931157d1955391125391d7d05353d5539560421b604082015260600190565b6020808252601b908201527a10d31052535050931157d0d3d31310551154905317d05353d55395602a1b604082015260600190565b6020808252601b908201527a21a620a4a6a0a12622afa1a7a62620aa22a920a62fa320a1aa27a960291b604082015260600190565b60008251615ca581846020870161406d565b9190910192915050565b600060808284031215615cc157600080fd5b604051608081016001600160401b0381118282101715615ce357615ce3613bac565b6040528251615cf181613cc7565b81526020830151615d0181613cc7565b60208201526040830151615d1481613cc7565b60408201526060830151615d2781613cc7565b60608201529392505050565b6001600160a01b0394851681529290931660208301526040820152606081019190915260800190565b8082018082111561115d5761115d6142e4565b634e487b7160e01b600052601260045260246000fd5b600082615da257634e487b7160e01b600052601260045260246000fd5b50049056fea26469706673582212209ba9931f614d20b059a6df7ebb235736ef1c7c4701d66aee76e43d93f0f9643664736f6c63430008130033",
  "linkReferences": {
    "contracts/deposit/DepositStoreUtils.sol": {
      "DepositStoreUtils": [
        {
          "length": 20,
          "start": 2207
        }
      ]
    },
    "contracts/market/MarketEventUtils.sol": {
      "MarketEventUtils": [
        {
          "length": 20,
          "start": 8088
        },
        {
          "length": 20,
          "start": 8988
        },
        {
          "length": 20,
          "start": 10065
        }
      ]
    },
    "contracts/market/MarketStoreUtils.sol": {
      "MarketStoreUtils": [
        {
          "length": 20,
          "start": 13138
        }
      ]
    },
    "contracts/market/MarketUtils.sol": {
      "MarketUtils": [
        {
          "length": 20,
          "start": 6826
        },
        {
          "length": 20,
          "start": 7507
        }
      ]
    },
    "contracts/order/OrderStoreUtils.sol": {
      "OrderStoreUtils": [
        {
          "length": 20,
          "start": 3863
        },
        {
          "length": 20,
          "start": 4381
        }
      ]
    },
    "contracts/referral/ReferralEventUtils.sol": {
      "ReferralEventUtils": [
        {
          "length": 20,
          "start": 7612
        }
      ]
    },
    "contracts/withdrawal/WithdrawalStoreUtils.sol": {
      "WithdrawalStoreUtils": [
        {
          "length": 20,
          "start": 3481
        }
      ]
    }
  },
  "deployedLinkReferences": {
    "contracts/deposit/DepositStoreUtils.sol": {
      "DepositStoreUtils": [
        {
          "length": 20,
          "start": 1597
        }
      ]
    },
    "contracts/market/MarketEventUtils.sol": {
      "MarketEventUtils": [
        {
          "length": 20,
          "start": 7478
        },
        {
          "length": 20,
          "start": 8378
        },
        {
          "length": 20,
          "start": 9455
        }
      ]
    },
    "contracts/market/MarketStoreUtils.sol": {
      "MarketStoreUtils": [
        {
          "length": 20,
          "start": 12528
        }
      ]
    },
    "contracts/market/MarketUtils.sol": {
      "MarketUtils": [
        {
          "length": 20,
          "start": 6216
        },
        {
          "length": 20,
          "start": 6897
        }
      ]
    },
    "contracts/order/OrderStoreUtils.sol": {
      "OrderStoreUtils": [
        {
          "length": 20,
          "start": 3253
        },
        {
          "length": 20,
          "start": 3771
        }
      ]
    },
    "contracts/referral/ReferralEventUtils.sol": {
      "ReferralEventUtils": [
        {
          "length": 20,
          "start": 7002
        }
      ]
    },
    "contracts/withdrawal/WithdrawalStoreUtils.sol": {
      "WithdrawalStoreUtils": [
        {
          "length": 20,
          "start": 2871
        }
      ]
    }
  }
}