{
  "_format": "hh-sol-artifact-1",
  "contractName": "ExchangeRouter",
  "sourceName": "contracts/router/ExchangeRouter.sol",
  "abi": [
    {
      "inputs": [
        {
          "internalType": "contract Router",
          "name": "_router",
          "type": "address"
        },
        {
          "internalType": "contract RoleStore",
          "name": "_roleStore",
          "type": "address"
        },
        {
          "internalType": "contract DataStore",
          "name": "_dataStore",
          "type": "address"
        },
        {
          "internalType": "contract EventEmitter",
          "name": "_eventEmitter",
          "type": "address"
        },
        {
          "internalType": "contract DepositHandler",
          "name": "_depositHandler",
          "type": "address"
        },
        {
          "internalType": "contract WithdrawalHandler",
          "name": "_withdrawalHandler",
          "type": "address"
        },
        {
          "internalType": "contract OrderHandler",
          "name": "_orderHandler",
          "type": "address"
        },
        {
          "internalType": "contract IReferralStorage",
          "name": "_referralStorage",
          "type": "address"
        }
      ],
      "stateMutability": "nonpayable",
      "type": "constructor"
    },
    {
      "inputs": [
        {
          "internalType": "address",
          "name": "token",
          "type": "address"
        },
        {
          "internalType": "address",
          "name": "receiver",
          "type": "address"
        },
        {
          "internalType": "uint256",
          "name": "amount",
          "type": "uint256"
        }
      ],
      "name": "TokenTransferError",
      "type": "error"
    },
    {
      "inputs": [
        {
          "internalType": "address",
          "name": "msgSender",
          "type": "address"
        },
        {
          "internalType": "string",
          "name": "role",
          "type": "string"
        }
      ],
      "name": "Unauthorized",
      "type": "error"
    },
    {
      "inputs": [
        {
          "internalType": "bytes32",
          "name": "key",
          "type": "bytes32"
        }
      ],
      "name": "cancelDeposit",
      "outputs": [],
      "stateMutability": "payable",
      "type": "function"
    },
    {
      "inputs": [
        {
          "internalType": "bytes32",
          "name": "key",
          "type": "bytes32"
        }
      ],
      "name": "cancelOrder",
      "outputs": [],
      "stateMutability": "payable",
      "type": "function"
    },
    {
      "inputs": [
        {
          "internalType": "bytes32",
          "name": "key",
          "type": "bytes32"
        }
      ],
      "name": "cancelWithdrawal",
      "outputs": [],
      "stateMutability": "payable",
      "type": "function"
    },
    {
      "inputs": [
        {
          "internalType": "address[]",
          "name": "markets",
          "type": "address[]"
        },
        {
          "internalType": "address[]",
          "name": "tokens",
          "type": "address[]"
        },
        {
          "internalType": "address",
          "name": "receiver",
          "type": "address"
        }
      ],
      "name": "claimAffiliateRewards",
      "outputs": [],
      "stateMutability": "payable",
      "type": "function"
    },
    {
      "inputs": [
        {
          "internalType": "address[]",
          "name": "markets",
          "type": "address[]"
        },
        {
          "internalType": "address[]",
          "name": "tokens",
          "type": "address[]"
        },
        {
          "internalType": "uint256[]",
          "name": "timeKeys",
          "type": "uint256[]"
        },
        {
          "internalType": "address",
          "name": "receiver",
          "type": "address"
        }
      ],
      "name": "claimCollateral",
      "outputs": [],
      "stateMutability": "payable",
      "type": "function"
    },
    {
      "inputs": [
        {
          "internalType": "address[]",
          "name": "markets",
          "type": "address[]"
        },
        {
          "internalType": "address[]",
          "name": "tokens",
          "type": "address[]"
        },
        {
          "internalType": "address",
          "name": "receiver",
          "type": "address"
        }
      ],
      "name": "claimFundingFees",
      "outputs": [],
      "stateMutability": "payable",
      "type": "function"
    },
    {
      "inputs": [
        {
          "components": [
            {
              "internalType": "address",
              "name": "receiver",
              "type": "address"
            },
            {
              "internalType": "address",
              "name": "callbackContract",
              "type": "address"
            },
            {
              "internalType": "address",
              "name": "market",
              "type": "address"
            },
            {
              "internalType": "address",
              "name": "initialLongToken",
              "type": "address"
            },
            {
              "internalType": "address",
              "name": "initialShortToken",
              "type": "address"
            },
            {
              "internalType": "address[]",
              "name": "longTokenSwapPath",
              "type": "address[]"
            },
            {
              "internalType": "address[]",
              "name": "shortTokenSwapPath",
              "type": "address[]"
            },
            {
              "internalType": "uint256",
              "name": "minMarketTokens",
              "type": "uint256"
            },
            {
              "internalType": "bool",
              "name": "shouldUnwrapNativeToken",
              "type": "bool"
            },
            {
              "internalType": "uint256",
              "name": "executionFee",
              "type": "uint256"
            },
            {
              "internalType": "uint256",
              "name": "callbackGasLimit",
              "type": "uint256"
            }
          ],
          "internalType": "struct DepositUtils.CreateDepositParams",
          "name": "params",
          "type": "tuple"
        }
      ],
      "name": "createDeposit",
      "outputs": [
        {
          "internalType": "bytes32",
          "name": "",
          "type": "bytes32"
        }
      ],
      "stateMutability": "payable",
      "type": "function"
    },
    {
      "inputs": [
        {
          "components": [
            {
              "components": [
                {
                  "internalType": "address",
                  "name": "receiver",
                  "type": "address"
                },
                {
                  "internalType": "address",
                  "name": "callbackContract",
                  "type": "address"
                },
                {
                  "internalType": "address",
                  "name": "market",
                  "type": "address"
                },
                {
                  "internalType": "address",
                  "name": "initialCollateralToken",
                  "type": "address"
                },
                {
                  "internalType": "address[]",
                  "name": "swapPath",
                  "type": "address[]"
                }
              ],
              "internalType": "struct BaseOrderUtils.CreateOrderParamsAddresses",
              "name": "addresses",
              "type": "tuple"
            },
            {
              "components": [
                {
                  "internalType": "uint256",
                  "name": "sizeDeltaUsd",
                  "type": "uint256"
                },
                {
                  "internalType": "uint256",
                  "name": "initialCollateralDeltaAmount",
                  "type": "uint256"
                },
                {
                  "internalType": "uint256",
                  "name": "triggerPrice",
                  "type": "uint256"
                },
                {
                  "internalType": "uint256",
                  "name": "acceptablePrice",
                  "type": "uint256"
                },
                {
                  "internalType": "uint256",
                  "name": "executionFee",
                  "type": "uint256"
                },
                {
                  "internalType": "uint256",
                  "name": "callbackGasLimit",
                  "type": "uint256"
                },
                {
                  "internalType": "uint256",
                  "name": "minOutputAmount",
                  "type": "uint256"
                }
              ],
              "internalType": "struct BaseOrderUtils.CreateOrderParamsNumbers",
              "name": "numbers",
              "type": "tuple"
            },
            {
              "internalType": "enum Order.OrderType",
              "name": "orderType",
              "type": "uint8"
            },
            {
              "internalType": "enum Order.DecreasePositionSwapType",
              "name": "decreasePositionSwapType",
              "type": "uint8"
            },
            {
              "internalType": "bool",
              "name": "isLong",
              "type": "bool"
            },
            {
              "internalType": "bool",
              "name": "shouldUnwrapNativeToken",
              "type": "bool"
            }
          ],
          "internalType": "struct BaseOrderUtils.CreateOrderParams",
          "name": "params",
          "type": "tuple"
        },
        {
          "internalType": "bytes32",
          "name": "referralCode",
          "type": "bytes32"
        }
      ],
      "name": "createOrder",
      "outputs": [
        {
          "internalType": "bytes32",
          "name": "",
          "type": "bytes32"
        }
      ],
      "stateMutability": "payable",
      "type": "function"
    },
    {
      "inputs": [
        {
          "components": [
            {
              "internalType": "address",
              "name": "receiver",
              "type": "address"
            },
            {
              "internalType": "address",
              "name": "callbackContract",
              "type": "address"
            },
            {
              "internalType": "address",
              "name": "market",
              "type": "address"
            },
            {
              "internalType": "address[]",
              "name": "longTokenSwapPath",
              "type": "address[]"
            },
            {
              "internalType": "address[]",
              "name": "shortTokenSwapPath",
              "type": "address[]"
            },
            {
              "internalType": "uint256",
              "name": "marketTokenAmount",
              "type": "uint256"
            },
            {
              "internalType": "uint256",
              "name": "minLongTokenAmount",
              "type": "uint256"
            },
            {
              "internalType": "uint256",
              "name": "minShortTokenAmount",
              "type": "uint256"
            },
            {
              "internalType": "bool",
              "name": "shouldUnwrapNativeToken",
              "type": "bool"
            },
            {
              "internalType": "uint256",
              "name": "executionFee",
              "type": "uint256"
            },
            {
              "internalType": "uint256",
              "name": "callbackGasLimit",
              "type": "uint256"
            }
          ],
          "internalType": "struct WithdrawalUtils.CreateWithdrawalParams",
          "name": "params",
          "type": "tuple"
        }
      ],
      "name": "createWithdrawal",
      "outputs": [
        {
          "internalType": "bytes32",
          "name": "",
          "type": "bytes32"
        }
      ],
      "stateMutability": "payable",
      "type": "function"
    },
    {
      "inputs": [],
      "name": "dataStore",
      "outputs": [
        {
          "internalType": "contract DataStore",
          "name": "",
          "type": "address"
        }
      ],
      "stateMutability": "view",
      "type": "function"
    },
    {
      "inputs": [],
      "name": "depositHandler",
      "outputs": [
        {
          "internalType": "contract DepositHandler",
          "name": "",
          "type": "address"
        }
      ],
      "stateMutability": "view",
      "type": "function"
    },
    {
      "inputs": [],
      "name": "eventEmitter",
      "outputs": [
        {
          "internalType": "contract EventEmitter",
          "name": "",
          "type": "address"
        }
      ],
      "stateMutability": "view",
      "type": "function"
    },
    {
      "inputs": [
        {
          "internalType": "bytes[]",
          "name": "data",
          "type": "bytes[]"
        }
      ],
      "name": "multicall",
      "outputs": [
        {
          "internalType": "bytes[]",
          "name": "results",
          "type": "bytes[]"
        }
      ],
      "stateMutability": "payable",
      "type": "function"
    },
    {
      "inputs": [],
      "name": "orderHandler",
      "outputs": [
        {
          "internalType": "contract OrderHandler",
          "name": "",
          "type": "address"
        }
      ],
      "stateMutability": "view",
      "type": "function"
    },
    {
      "inputs": [],
      "name": "referralStorage",
      "outputs": [
        {
          "internalType": "contract IReferralStorage",
          "name": "",
          "type": "address"
        }
      ],
      "stateMutability": "view",
      "type": "function"
    },
    {
      "inputs": [],
      "name": "roleStore",
      "outputs": [
        {
          "internalType": "contract RoleStore",
          "name": "",
          "type": "address"
        }
      ],
      "stateMutability": "view",
      "type": "function"
    },
    {
      "inputs": [],
      "name": "router",
      "outputs": [
        {
          "internalType": "contract Router",
          "name": "",
          "type": "address"
        }
      ],
      "stateMutability": "view",
      "type": "function"
    },
    {
      "inputs": [
        {
          "internalType": "address",
          "name": "token",
          "type": "address"
        },
        {
          "internalType": "address",
          "name": "receiver",
          "type": "address"
        },
        {
          "internalType": "uint256",
          "name": "amount",
          "type": "uint256"
        }
      ],
      "name": "sendTokens",
      "outputs": [],
      "stateMutability": "payable",
      "type": "function"
    },
    {
      "inputs": [
        {
          "internalType": "address",
          "name": "receiver",
          "type": "address"
        },
        {
          "internalType": "uint256",
          "name": "amount",
          "type": "uint256"
        }
      ],
      "name": "sendWnt",
      "outputs": [],
      "stateMutability": "payable",
      "type": "function"
    },
    {
      "inputs": [
        {
          "internalType": "bytes32",
          "name": "key",
          "type": "bytes32"
        },
        {
          "components": [
            {
              "internalType": "address[]",
              "name": "primaryTokens",
              "type": "address[]"
            },
            {
              "components": [
                {
                  "internalType": "uint256",
                  "name": "min",
                  "type": "uint256"
                },
                {
                  "internalType": "uint256",
                  "name": "max",
                  "type": "uint256"
                }
              ],
              "internalType": "struct Price.Props[]",
              "name": "primaryPrices",
              "type": "tuple[]"
            },
            {
              "internalType": "address[]",
              "name": "secondaryTokens",
              "type": "address[]"
            },
            {
              "components": [
                {
                  "internalType": "uint256",
                  "name": "min",
                  "type": "uint256"
                },
                {
                  "internalType": "uint256",
                  "name": "max",
                  "type": "uint256"
                }
              ],
              "internalType": "struct Price.Props[]",
              "name": "secondaryPrices",
              "type": "tuple[]"
            }
          ],
          "internalType": "struct OracleUtils.SimulatePricesParams",
          "name": "simulatedOracleParams",
          "type": "tuple"
        }
      ],
      "name": "simulateExecuteDeposit",
      "outputs": [],
      "stateMutability": "payable",
      "type": "function"
    },
    {
      "inputs": [
        {
          "internalType": "bytes32",
          "name": "key",
          "type": "bytes32"
        },
        {
          "components": [
            {
              "internalType": "address[]",
              "name": "primaryTokens",
              "type": "address[]"
            },
            {
              "components": [
                {
                  "internalType": "uint256",
                  "name": "min",
                  "type": "uint256"
                },
                {
                  "internalType": "uint256",
                  "name": "max",
                  "type": "uint256"
                }
              ],
              "internalType": "struct Price.Props[]",
              "name": "primaryPrices",
              "type": "tuple[]"
            },
            {
              "internalType": "address[]",
              "name": "secondaryTokens",
              "type": "address[]"
            },
            {
              "components": [
                {
                  "internalType": "uint256",
                  "name": "min",
                  "type": "uint256"
                },
                {
                  "internalType": "uint256",
                  "name": "max",
                  "type": "uint256"
                }
              ],
              "internalType": "struct Price.Props[]",
              "name": "secondaryPrices",
              "type": "tuple[]"
            }
          ],
          "internalType": "struct OracleUtils.SimulatePricesParams",
          "name": "simulatedOracleParams",
          "type": "tuple"
        }
      ],
      "name": "simulateExecuteOrder",
      "outputs": [],
      "stateMutability": "payable",
      "type": "function"
    },
    {
      "inputs": [
        {
          "internalType": "bytes32",
          "name": "key",
          "type": "bytes32"
        },
        {
          "components": [
            {
              "internalType": "address[]",
              "name": "primaryTokens",
              "type": "address[]"
            },
            {
              "components": [
                {
                  "internalType": "uint256",
                  "name": "min",
                  "type": "uint256"
                },
                {
                  "internalType": "uint256",
                  "name": "max",
                  "type": "uint256"
                }
              ],
              "internalType": "struct Price.Props[]",
              "name": "primaryPrices",
              "type": "tuple[]"
            },
            {
              "internalType": "address[]",
              "name": "secondaryTokens",
              "type": "address[]"
            },
            {
              "components": [
                {
                  "internalType": "uint256",
                  "name": "min",
                  "type": "uint256"
                },
                {
                  "internalType": "uint256",
                  "name": "max",
                  "type": "uint256"
                }
              ],
              "internalType": "struct Price.Props[]",
              "name": "secondaryPrices",
              "type": "tuple[]"
            }
          ],
          "internalType": "struct OracleUtils.SimulatePricesParams",
          "name": "simulatedOracleParams",
          "type": "tuple"
        }
      ],
      "name": "simulateExecuteWithdrawal",
      "outputs": [],
      "stateMutability": "payable",
      "type": "function"
    },
    {
      "inputs": [
        {
          "internalType": "bytes32",
          "name": "key",
          "type": "bytes32"
        },
        {
          "internalType": "uint256",
          "name": "sizeDeltaUsd",
          "type": "uint256"
        },
        {
          "internalType": "uint256",
          "name": "acceptablePrice",
          "type": "uint256"
        },
        {
          "internalType": "uint256",
          "name": "triggerPrice",
          "type": "uint256"
        },
        {
          "internalType": "uint256",
          "name": "minOutputAmount",
          "type": "uint256"
        }
      ],
      "name": "updateOrder",
      "outputs": [],
      "stateMutability": "payable",
      "type": "function"
    },
    {
      "inputs": [],
      "name": "withdrawalHandler",
      "outputs": [
        {
          "internalType": "contract WithdrawalHandler",
          "name": "",
          "type": "address"
        }
      ],
      "stateMutability": "view",
      "type": "function"
    }
  ],
  "bytecode": "0x6101806040523480156200001257600080fd5b5060405162003d8e38038062003d8e833981016040819052620000359162000090565b60016000556001600160a01b0396871660805296861660a05293851660c05291841660e052831661010052821661012052811661014052166101605262000151565b6001600160a01b03811681146200008d57600080fd5b50565b600080600080600080600080610100898b031215620000ae57600080fd5b8851620000bb8162000077565b60208a0151909850620000ce8162000077565b60408a0151909750620000e18162000077565b60608a0151909650620000f48162000077565b60808a0151909550620001078162000077565b60a08a01519094506200011a8162000077565b60c08a01519093506200012d8162000077565b60e08a0151909250620001408162000077565b809150509295985092959890939650565b60805160a05160c05160e05161010051610120516101405161016051613b36620002586000396000818161013101526107c8015260008181610361015281816105f20152818161080501528181610ae30152610d730152600081816101820152818161099c01528181610bdd01526110790152600081816102b301528181610542015281816110f2015261138a0152600081816102e7015281816106a401528181610fcf01526112c60152600081816102460152818161048a01528181610683015281816108e401528181610a2b01528181610b6c01528181610cbb01528181610fae01526112a50152600081816103f401526111ad015260006101f10152613b366000f3fe60806040526004361061011a5760003560e01c80626cc35e1461011f5780632c2f3c071461017057806331404484146101a45780633bc4de56146101b957806349287a22146101cc5780634a4a7b04146101df57806353e8f19c14610213578063660d0d67146102345780637213c5a0146102685780637489ec231461027b5780637d39aaf11461028e5780639c8b2cfb146102a15780639ff78c30146102d5578063a6cc89eb14610309578063aab286f81461031c578063ac9650d81461032f578063b58483051461034f578063c41b1ab314610383578063ca18d49014610396578063da0c7ce1146103a9578063e6d66ac8146103bc578063e9249b57146103cf578063f887ea40146103e2578063fac77c7014610416575b600080fd5b34801561012b57600080fd5b506101537f000000000000000000000000000000000000000000000000000000000000000081565b6040516001600160a01b0390911681526020015b60405180910390f35b34801561017c57600080fd5b506101537f000000000000000000000000000000000000000000000000000000000000000081565b6101b76101b2366004612205565b610429565b005b6101b76101c7366004612476565b6105b4565b6101b76101da36600461255a565b610629565b3480156101eb57600080fd5b506101537f000000000000000000000000000000000000000000000000000000000000000081565b6102266102213660046125d1565b61071c565b604051908152602001610167565b34801561024057600080fd5b506101537f000000000000000000000000000000000000000000000000000000000000000081565b6101b7610276366004612205565b61088c565b6101b7610289366004612205565b6109d3565b6101b761029c36600461261b565b610b1a565b3480156102ad57600080fd5b506101537f000000000000000000000000000000000000000000000000000000000000000081565b3480156102e157600080fd5b506101537f000000000000000000000000000000000000000000000000000000000000000081565b610226610317366004612652565b610b9b565b6101b761032a36600461268e565b610c63565b61034261033d3660046126c9565b610df1565b604051610167919061278d565b34801561035b57600080fd5b506101537f000000000000000000000000000000000000000000000000000000000000000081565b6101b761039136600461255a565b610f2e565b6101b76103a4366004612476565b61103b565b6102266103b7366004612652565b6110b0565b6101b76103ca3660046127ef565b611129565b6101b76103dd366004612830565b611216565b3480156103ee57600080fd5b506101537f000000000000000000000000000000000000000000000000000000000000000081565b6101b7610424366004612476565b61134c565b6002600054036104545760405162461bcd60e51b815260040161044b9061291e565b60405180910390fd5b6002600090815560405163fdfc26f360e01b815273__$b63e253a228f0e32f671cc49c7fc32477c$__9063fdfc26f3906104b4907f0000000000000000000000000000000000000000000000000000000000000000908690600401612955565b600060405180830381865af41580156104d1573d6000803e3d6000fd5b505050506040513d6000823e601f3d908101601f191682016040526104f99190810190612a92565b90503361050582515190565b6001600160a01b03161461052b5760405162461bcd60e51b815260040161044b90612bde565b604051633cca317960e01b81526001600160a01b037f00000000000000000000000000000000000000000000000000000000000000001690633cca3179906105799085908590600401612c62565b600060405180830381600087803b15801561059357600080fd5b505af11580156105a7573d6000803e3d6000fd5b5050600160005550505050565b6002600054036105d65760405162461bcd60e51b815260040161044b9061291e565b6002600055604051631de26f2b60e11b81526001600160a01b037f00000000000000000000000000000000000000000000000000000000000000001690633bc4de56906105799085908590600401612dc8565b60026000540361064b5760405162461bcd60e51b815260040161044b9061291e565b600260005581518351146106715760405162461bcd60e51b815260040161044b90612e4d565b3360005b8451811015610710576106fe7f00000000000000000000000000000000000000000000000000000000000000007f00000000000000000000000000000000000000000000000000000000000000008784815181106106d5576106d5612e74565b60200260200101518785815181106106ef576106ef612e74565b602002602001015186886113c1565b8061070881612ea0565b915050610675565b50506001600055505050565b60006002600054036107405760405162461bcd60e51b815260040161044b9061291e565b6002600055600761075961012085016101008601612ee7565b600781111561076a5761076a612eb9565b036107c25760405162461bcd60e51b815260206004820152602260248201527f45786368616e6765526f757465723a20696e76616c6964206f72646572207479604482015261706560f01b606482015260840161044b565b336107ee7f00000000000000000000000000000000000000000000000000000000000000008285611590565b6040516304a172d560e51b81526001600160a01b037f0000000000000000000000000000000000000000000000000000000000000000169063942e5aa09061083c9084908890600401612fd8565b6020604051808303816000875af115801561085b573d6000803e3d6000fd5b505050506040513d601f19601f8201168201806040525081019061087f919061314f565b6001600055949350505050565b6002600054036108ae5760405162461bcd60e51b815260040161044b9061291e565b6002600090815560405163fdfc26f360e01b815273__$3dc24d71d6ebafc0c4ce8ac2f69cd1548a$__9063fdfc26f39061090e907f0000000000000000000000000000000000000000000000000000000000000000908690600401612955565b600060405180830381865af415801561092b573d6000803e3d6000fd5b505050506040513d6000823e601f3d908101601f191682016040526109539190810190613168565b90503361095f82515190565b6001600160a01b0316146109855760405162461bcd60e51b815260040161044b90612bde565b604051632e2d5fcd60e11b81526001600160a01b037f00000000000000000000000000000000000000000000000000000000000000001690635c5abf9a90610579908590859060040161328d565b6002600054036109f55760405162461bcd60e51b815260040161044b9061291e565b6002600090815560405163fdfc26f360e01b815273__$9dcb75ef0bb6c4288f2ccffe7dc492c4eb$__9063fdfc26f390610a55907f0000000000000000000000000000000000000000000000000000000000000000908690600401612955565b600060405180830381865af4158015610a72573d6000803e3d6000fd5b505050506040513d6000823e601f3d908101601f19168201604052610a9a9190810190613416565b905033610aa682515190565b6001600160a01b031614610acc5760405162461bcd60e51b815260040161044b90612bde565b6040516337d41f3b60e01b81526001600160a01b037f000000000000000000000000000000000000000000000000000000000000000016906337d41f3b906105799085908590600401613649565b600260005403610b3c5760405162461bcd60e51b815260040161044b9061291e565b60026000556001600160a01b038216610b675760405162461bcd60e51b815260040161044b90613662565b610b927f000000000000000000000000000000000000000000000000000000000000000083836115ff565b50506001600055565b6000600260005403610bbf5760405162461bcd60e51b815260040161044b9061291e565b6002600055604051630527e11d60e31b815233906001600160a01b037f0000000000000000000000000000000000000000000000000000000000000000169063293f08e890610c14908490879060040161368c565b6020604051808303816000875af1158015610c33573d6000803e3d6000fd5b505050506040513d601f19601f82011682018060405250810190610c57919061314f565b60016000559392505050565b600260005403610c855760405162461bcd60e51b815260040161044b9061291e565b6002600090815560405163fdfc26f360e01b815273__$9dcb75ef0bb6c4288f2ccffe7dc492c4eb$__9063fdfc26f390610ce5907f0000000000000000000000000000000000000000000000000000000000000000908a90600401612955565b600060405180830381865af4158015610d02573d6000803e3d6000fd5b505050506040513d6000823e601f3d908101601f19168201604052610d2a9190810190613416565b905033610d3682515190565b6001600160a01b031614610d5c5760405162461bcd60e51b815260040161044b90612bde565b604051633df858a360e01b81526001600160a01b037f00000000000000000000000000000000000000000000000000000000000000001690633df858a390610db29089908990899089908990899060040161379c565b600060405180830381600087803b158015610dcc57600080fd5b505af1158015610de0573d6000803e3d6000fd5b505060016000555050505050505050565b6060816001600160401b03811115610e0b57610e0b61221e565b604051908082528060200260200182016040528015610e3e57816020015b6060815260200190600190039081610e295790505b50905060005b82811015610f265760008030868685818110610e6257610e62612e74565b9050602002810190610e7491906137d9565b604051610e8292919061381f565b600060405180830381855af49150503d8060008114610ebd576040519150601f19603f3d011682016040523d82523d6000602084013e610ec2565b606091505b509150915081610ef3576000610ed7826116a5565b90508060405162461bcd60e51b815260040161044b919061382f565b80848481518110610f0657610f06612e74565b602002602001018190525050508080610f1e90612ea0565b915050610e44565b505b92915050565b600260005403610f505760405162461bcd60e51b815260040161044b9061291e565b60026000558151835114610f765760405162461bcd60e51b815260040161044b90612e4d565b6001600160a01b038116610f9c5760405162461bcd60e51b815260040161044b90613662565b3360005b8451811015610710576110297f00000000000000000000000000000000000000000000000000000000000000007f000000000000000000000000000000000000000000000000000000000000000087848151811061100057611000612e74565b602002602001015187858151811061101a5761101a612e74565b602002602001015186886116fb565b8061103381612ea0565b915050610fa0565b60026000540361105d5760405162461bcd60e51b815260040161044b9061291e565b6002600055604051630ca18d4960e41b81526001600160a01b037f0000000000000000000000000000000000000000000000000000000000000000169063ca18d490906105799085908590600401612dc8565b60006002600054036110d45760405162461bcd60e51b815260040161044b9061291e565b6002600055604051630ff7831560e31b815233906001600160a01b037f00000000000000000000000000000000000000000000000000000000000000001690637fbc18a890610c149084908790600401613842565b60026000540361114b5760405162461bcd60e51b815260040161044b9061291e565b60026000556001600160a01b0382166111765760405162461bcd60e51b815260040161044b90613662565b6040516303704f0f60e31b81526001600160a01b0384811660048301523360248301819052848216604484015260648301849052917f000000000000000000000000000000000000000000000000000000000000000090911690631b82787890608401600060405180830381600087803b1580156111f357600080fd5b505af1158015611207573d6000803e3d6000fd5b50506001600055505050505050565b6002600054036112385760405162461bcd60e51b815260040161044b9061291e565b60026000558251845114158061125057508151835114155b1561126d5760405162461bcd60e51b815260040161044b90612e4d565b6001600160a01b0381166112935760405162461bcd60e51b815260040161044b90613662565b3360005b85518110156105a75761133a7f00000000000000000000000000000000000000000000000000000000000000007f00000000000000000000000000000000000000000000000000000000000000008884815181106112f7576112f7612e74565b602002602001015188858151811061131157611311612e74565b602002602001015188868151811061132b5761132b612e74565b60200260200101518789611890565b8061134481612ea0565b915050611297565b60026000540361136e5760405162461bcd60e51b815260040161044b9061291e565b6002600055604051630fac77c760e41b81526001600160a01b037f0000000000000000000000000000000000000000000000000000000000000000169063fac77c70906105799085908590600401612dc8565b60006113ce858585611c01565b60405163bd02d0f560e01b8152600481018290529091506000906001600160a01b0389169063bd02d0f590602401602060405180830381865afa158015611419573d6000803e3d6000fd5b505050506040513d601f19601f8201168201806040525081019061143d919061314f565b604051637152429d60e11b815260048101849052600060248201529091506001600160a01b0389169063e2a4853a906044016020604051808303816000875af115801561148e573d6000803e3d6000fd5b505050506040513d601f19601f820116820180604052508101906114b2919061314f565b5060405163078d3b7960e01b81526001600160a01b0387169063078d3b79906114e39088908790869060040161396d565b600060405180830381600087803b1580156114fd57600080fd5b505af1158015611511573d6000803e3d6000fd5b505060405163aa1fcbb960e01b815273__$c5242c1b4d0e7cbc87936b604afb77fd42$__925063aa1fcbb99150611556908a908a908a908a908a908990600401613991565b60006040518083038186803b15801561156e57600080fd5b505af4158015611582573d6000803e3d6000fd5b505050505050505050505050565b8061159a57505050565b6040516356b4b2ad60e01b81526001600160a01b038416906356b4b2ad906115c89085908590600401612955565b600060405180830381600087803b1580156115e257600080fd5b505af11580156115f6573d6000803e3d6000fd5b50505050505050565b8060000361160c57505050565b6001600160a01b0382166116325760405162461bcd60e51b815260040161044b90613662565b600061163d84611c96565b9050806001600160a01b031663d0e30db0836040518263ffffffff1660e01b81526004016000604051808303818588803b15801561167a57600080fd5b505af115801561168e573d6000803e3d6000fd5b505050505061169f84828585611d43565b50505050565b60606044825110156116e1575050604080518082019091526014815273456d70747920726576657274206d65737361676560601b602082015290565b60048201915081806020019051810190610f2891906139cc565b6000611708858585611e85565b60405163bd02d0f560e01b8152600481018290529091506000906001600160a01b0389169063bd02d0f590602401602060405180830381865afa158015611753573d6000803e3d6000fd5b505050506040513d601f19601f82011682018060405250810190611777919061314f565b604051637152429d60e11b815260048101849052600060248201529091506001600160a01b0389169063e2a4853a906044016020604051808303816000875af11580156117c8573d6000803e3d6000fd5b505050506040513d601f19601f820116820180604052508101906117ec919061314f565b5060405163078d3b7960e01b81526001600160a01b0387169063078d3b799061181d9088908790869060040161396d565b600060405180830381600087803b15801561183757600080fd5b505af115801561184b573d6000803e3d6000fd5b50506040516305d7953560e01b815273__$c1eebf06e53d0bd092f667687cf73e1ebf$__92506305d795359150611556908a908a908a908a908a908990600401613991565b6000876001600160a01b031663bd02d0f56118ad88888888611ec3565b6040518263ffffffff1660e01b81526004016118cb91815260200190565b602060405180830381865afa1580156118e8573d6000803e3d6000fd5b505050506040513d601f19601f8201168201806040525081019061190c919061314f565b90506000886001600160a01b031663bd02d0f561192b89898989611f6b565b6040518263ffffffff1660e01b815260040161194991815260200190565b602060405180830381865afa158015611966573d6000803e3d6000fd5b505050506040513d601f19601f8201168201806040525081019061198a919061314f565b90506000896001600160a01b031663bd02d0f56119a98a8a8a8a611fac565b6040518263ffffffff1660e01b81526004016119c791815260200190565b602060405180830381865afa1580156119e4573d6000803e3d6000fd5b505050506040513d601f19601f82011682018060405250810190611a08919061314f565b90506000611a168484611feb565b9050818111611a645760405162461bcd60e51b815260206004820152601a60248201527910dbdb1b185d195c985b08185b1c9958591e4818db185a5b595960321b604482015260640161044b565b6000611a708383613a56565b90508b6001600160a01b031663e2a4853a611a8d8c8c8c8c611fac565b846040518363ffffffff1660e01b8152600401611ab4929190918252602082015260400190565b6020604051808303816000875af1158015611ad3573d6000803e3d6000fd5b505050506040513d601f19601f82011682018060405250810190611af7919061314f565b5060405163078d3b7960e01b81526001600160a01b038b169063078d3b7990611b28908c908a90869060040161396d565b600060405180830381600087803b158015611b4257600080fd5b505af1158015611b56573d6000803e3d6000fd5b505060405163420348a760e01b81526001600160a01b03808f166004830152808e166024830152808d166044830152606482018c9052808b166084830152891660a482015260c4810184905273__$c1eebf06e53d0bd092f667687cf73e1ebf$__925063420348a7915060e40160006040518083038186803b158015611bdb57600080fd5b505af4158015611bef573d6000803e3d6000fd5b50505050505050505050505050505050565b6000604051602001611c379060208082526010908201526f10519192531250551157d49155d0549160821b604082015260600190565b60408051601f198184030181528282528051602091820120908301526001600160a01b038087169183019190915280851660608301528316608082015260a0016040516020818303038152906040528051906020012090509392505050565b6000816001600160a01b03166321f8a721604051602001611cce9060208082526003908201526215d39560ea1b604082015260600190565b604051602081830303815290604052805190602001206040518263ffffffff1660e01b8152600401611d0291815260200190565b602060405180830381865afa158015611d1f573d6000803e3d6000fd5b505050506040513d601f19601f82011682018060405250810190610f289190613a69565b801561169f576001600160a01b038216611d6f5760405162461bcd60e51b815260040161044b90613662565b6000846001600160a01b031663bd02d0f5611d8986612015565b6040518263ffffffff1660e01b8152600401611da791815260200190565b602060405180830381865afa158015611dc4573d6000803e3d6000fd5b505050506040513d601f19601f82011682018060405250810190611de8919061314f565b9050600080611df98686868661209d565b915091508115611e0b5750505061169f565b600081604051602001611e1e919061382f565b60405160208183030381529060405290507f9db60cdf21cde7f760995e23662841725e6aa63be48799796db12b7b2e6b17e281604051611e5e919061382f565b60405180910390a186868660405163012f3b8f60e71b815260040161044b9392919061396d565b6000604051602001611c379060208082526018908201527710d31052535050931157d1955391125391d7d05353d5539560421b604082015260600190565b6000604051602001611f04906020808252601b908201527a10d31052535050931157d0d3d31310551154905317d05353d55395602a1b604082015260600190565b60408051601f198184030181528282528051602091820120908301526001600160a01b0380881691830191909152808616606083015260808201859052831660a082015260c001604051602081830303815290604052805190602001209050949350505050565b6000604051602001611f04906020808252601b908201527a21a620a4a6a0a12622afa1a7a62620aa22a920a62fa320a1aa27a960291b604082015260600190565b6000604051602001611f049060208082526019908201527810d3105253515117d0d3d31310551154905317d05353d55395603a1b604082015260600190565b600068327cb2734119d3b7a9601e1b6120048385613a86565b61200e9190613aa5565b9392505050565b6000604051602001612053906020808252601890820152771513d2d15397d514905394d1915497d1d054d7d31253525560421b604082015260600190565b60408051601f198184030181528282528051602091820120908301526001600160a01b03841690820152606001604051602081830303815290604052805190602001209050919050565b60006060600063a9059cbb60e01b86866040516024016120be929190612955565b604051602081830303815290604052906001600160e01b0319166020820180516001600160e01b0383818316178352505050509050600080886001600160a01b0316868460405161210f9190613ac7565b60006040518083038160008787f1925050503d806000811461214d576040519150601f19603f3d011682016040523d82523d6000602084013e612152565b606091505b509150915081156121f35780516000036121b0576001600160a01b0389163b6121b05760006040518060400160405280601481526020017310d85b1b081d1bc81b9bdb8b58dbdb9d1c9858dd60621b815250945094505050506121fc565b600081511180156121d25750808060200190518101906121d09190613ae3565b155b156121e5576000945092506121fc915050565b6001945092506121fc915050565b60009450925050505b94509492505050565b60006020828403121561221757600080fd5b5035919050565b634e487b7160e01b600052604160045260246000fd5b604080519081016001600160401b03811182821017156122565761225661221e565b60405290565b604051608081016001600160401b03811182821017156122565761225661221e565b60405160c081016001600160401b03811182821017156122565761225661221e565b604051606081016001600160401b03811182821017156122565761225661221e565b60405161010081016001600160401b03811182821017156122565761225661221e565b60405161014081016001600160401b03811182821017156122565761225661221e565b604051601f8201601f191681016001600160401b03811182821017156123305761233061221e565b604052919050565b60006001600160401b038211156123515761235161221e565b5060051b60200190565b6001600160a01b038116811461237057600080fd5b50565b803561237e8161235b565b919050565b600082601f83011261239457600080fd5b813560206123a96123a483612338565b612308565b82815260059290921b840181019181810190868411156123c857600080fd5b8286015b848110156123ec5780356123df8161235b565b83529183019183016123cc565b509695505050505050565b600082601f83011261240857600080fd5b813560206124186123a483612338565b82815260069290921b8401810191818101908684111561243757600080fd5b8286015b848110156123ec57604081890312156124545760008081fd5b61245c612234565b81358152848201358582015283529183019160400161243b565b6000806040838503121561248957600080fd5b8235915060208301356001600160401b03808211156124a757600080fd5b90840190608082870312156124bb57600080fd5b6124c361225c565b8235828111156124d257600080fd5b6124de88828601612383565b8252506020830135828111156124f357600080fd5b6124ff888286016123f7565b60208301525060408301358281111561251757600080fd5b61252388828601612383565b60408301525060608301358281111561253b57600080fd5b612547888286016123f7565b6060830152508093505050509250929050565b60008060006060848603121561256f57600080fd5b83356001600160401b038082111561258657600080fd5b61259287838801612383565b945060208601359150808211156125a857600080fd5b506125b586828701612383565b92505060408401356125c68161235b565b809150509250925092565b600080604083850312156125e457600080fd5b82356001600160401b038111156125fa57600080fd5b8301610180818603121561260d57600080fd5b946020939093013593505050565b6000806040838503121561262e57600080fd5b823561260d8161235b565b6000610160828403121561264c57600080fd5b50919050565b60006020828403121561266457600080fd5b81356001600160401b0381111561267a57600080fd5b61268684828501612639565b949350505050565b600080600080600060a086880312156126a657600080fd5b505083359560208501359550604085013594606081013594506080013592509050565b600080602083850312156126dc57600080fd5b82356001600160401b03808211156126f357600080fd5b818501915085601f83011261270757600080fd5b81358181111561271657600080fd5b8660208260051b850101111561272b57600080fd5b60209290920196919550909350505050565b60005b83811015612758578181015183820152602001612740565b50506000910152565b6000815180845261277981602086016020860161273d565b601f01601f19169290920160200192915050565b6000602080830181845280855180835260408601915060408160051b870101925083870160005b828110156127e257603f198886030184526127d0858351612761565b945092850192908501906001016127b4565b5092979650505050505050565b60008060006060848603121561280457600080fd5b833561280f8161235b565b9250602084013561281f8161235b565b929592945050506040919091013590565b6000806000806080858703121561284657600080fd5b84356001600160401b038082111561285d57600080fd5b61286988838901612383565b955060209150818701358181111561288057600080fd5b61288c89828a01612383565b9550506040870135818111156128a157600080fd5b87019050601f810188136128b457600080fd5b80356128c26123a482612338565b81815260059190911b8201830190838101908a8311156128e157600080fd5b928401925b828410156128ff578335825292840192908401906128e6565b809650505050505061291360608601612373565b905092959194509250565b6020808252601f908201527f5265656e7472616e637947756172643a207265656e7472616e742063616c6c00604082015260600190565b6001600160a01b03929092168252602082015260400190565b805161237e8161235b565b600082601f83011261298a57600080fd5b8151602061299a6123a483612338565b82815260059290921b840181019181810190868411156129b957600080fd5b8286015b848110156123ec5780516129d08161235b565b83529183019183016129bd565b600060c082840312156129ef57600080fd5b6129f761227e565b9050815181526020820151602082015260408201516040820152606082015160608201526080820151608082015260a082015160a082015292915050565b801515811461237057600080fd5b600060208284031215612a5557600080fd5b604051602081016001600160401b0381118282101715612a7757612a7761221e565b80604052508091508251612a8a81612a35565b905292915050565b600060208284031215612aa457600080fd5b81516001600160401b0380821115612abb57600080fd5b8184019150610100808387031215612ad257600080fd5b612ada6122a0565b835183811115612ae957600080fd5b8401808803831315612afa57600080fd5b612b026122c2565b9250612b0d8161296e565b8352612b1b6020820161296e565b6020840152612b2c6040820161296e565b6040840152612b3d6060820161296e565b6060840152612b4e6080820161296e565b6080840152612b5f60a0820161296e565b60a084015260c081015184811115612b7657600080fd5b612b8289828401612979565b60c08501525060e081015184811115612b9a57600080fd5b612ba689828401612979565b60e08501525050818152612bbd87602086016129dd565b6020820152612bcf8760e08601612a43565b60408201529695505050505050565b60208082526019908201527822bc31b430b733b2a937baba32b91d103337b93134b23232b760391b604082015260600190565b6001600160a01b03169052565b600081518084526020808501945080840160005b83811015612c575781516001600160a01b031687529582019590820190600101612c32565b509495945050505050565b828152604060208201526000825161010080604085015260018060a01b038251166101408501526020820151612c9c610160860182612c11565b506040820151612cb0610180860182612c11565b506060820151612cc46101a0860182612c11565b506080820151612cd86101c0860182612c11565b5060a0820151612cec6101e0860182612c11565b5060c082015181610200860152612d07610240860182612c1e565b91505060e0820151915061013f1984820301610220850152612d298183612c1e565b9150506020840151612d736060850182805182526020810151602083015260408101516040830152606081015160608301526080810151608083015260a081015160a08301525050565b506040840151805115156101208501525b50949350505050565b600081518084526020808501945080840160005b83811015612c57578151805188528301518388015260409096019590820190600101612da1565b828152604060208201526000825160806040840152612dea60c0840182612c1e565b90506020840151603f1980858403016060860152612e088383612d8d565b92506040860151915080858403016080860152612e258383612c1e565b925060608601519150808584030160a086015250612e438282612d8d565b9695505050505050565b6020808252600d908201526c125b9d985b1a59081a5b9c1d5d609a1b604082015260600190565b634e487b7160e01b600052603260045260246000fd5b634e487b7160e01b600052601160045260246000fd5b600060018201612eb257612eb2612e8a565b5060010190565b634e487b7160e01b600052602160045260246000fd5b6008811061237057600080fd5b803561237e81612ecf565b600060208284031215612ef957600080fd5b813561200e81612ecf565b6000808335601e19843603018112612f1b57600080fd5b83016020810192503590506001600160401b03811115612f3a57600080fd5b8060051b3603821315612f4c57600080fd5b9250929050565b8183526000602080850194508260005b85811015612c57578135612f768161235b565b6001600160a01b031687529582019590820190600101612f63565b60088110612fa157612fa1612eb9565b9052565b6003811061237057600080fd5b803561237e81612fa5565b60038110612fa157612fa1612eb9565b803561237e81612a35565b6001600160a01b03838116825260406020830152600090833536859003609e1901811261300457600080fd5b8481019050610180806040860152813561301d8161235b565b83166101c086015260208201356130338161235b565b83166101e086015260408201356130498161235b565b8316610200860152606082013561305f8161235b565b83166102208601526130746080830183612f04565b9350915060a061024086015261308f61026086018484612f53565b92506130e06060860160208801803582526020810135602083015260408101356040830152606081013560608301526080810135608083015260a081013560a083015260c081013560c08301525050565b6130ed6101008701612edc565b91506101406130fe81870184612f91565b61310b6101208801612fb2565b925061016061311c81880185612fbd565b613127828901612fcd565b80151588850152935061313b818901612fcd565b9350505050612d846101a085018215159052565b60006020828403121561316157600080fd5b5051919050565b60006020828403121561317a57600080fd5b81516001600160401b038082111561319157600080fd5b9083019061010082860312156131a657600080fd5b6131ae6122a0565b8251828111156131bd57600080fd5b830160c081880312156131cf57600080fd5b6131d761227e565b6131e08261296e565b81526131ee6020830161296e565b60208201526131ff6040830161296e565b60408201526132106060830161296e565b606082015260808201518481111561322757600080fd5b61323389828501612979565b60808301525060a08201518481111561324b57600080fd5b61325789828501612979565b60a08301525082525061326d86602085016129dd565b602082015261327f8660e08501612a43565b604082015295945050505050565b8281526040602082015260008251610100604084015260018060a01b03808251166101408501528060208301511661016085015280604083015116610180850152806060830151166101a085015250608081015160c06101c08501526132f7610200850182612c1e565b905060a0820151915061013f19848203016101e0850152612d298183612c1e565b805161237e81612ecf565b805161237e81612fa5565b6000610140828403121561334157600080fd5b6133496122e5565b905061335482613318565b815261336260208301613323565b602082015260408201516040820152606082015160608201526080820151608082015260a082015160a082015260c082015160c082015260e082015160e082015261010080830151818301525061012080830151818301525092915050565b6000606082840312156133d357600080fd5b6133db6122a0565b905081516133e881612a35565b815260208201516133f881612a35565b6020820152604082015161340b81612a35565b604082015292915050565b60006020828403121561342857600080fd5b81516001600160401b038082111561343f57600080fd5b908301906101c0828603121561345457600080fd5b61345c6122a0565b82518281111561346b57600080fd5b830160c0818803121561347d57600080fd5b61348561227e565b81516134908161235b565b815260208201516134a08161235b565b602082015260408201516134b38161235b565b60408201526134c46060830161296e565b60608201526134d56080830161296e565b608082015260a0820151848111156134ec57600080fd5b6134f889828501612979565b60a08301525082525061350e866020850161332e565b602082015261327f8661016085016133c1565b61352c828251612f91565b602081015161353e6020840182612fbd565b5060408101516040830152606081015160608301526080810151608083015260a081015160a083015260c081015160c083015260e081015160e08301526101008082015181840152506101208082015181840152505050565b80516101c080845281516001600160a01b0390811691850191909152602082015181166101e0850152604082015181166102008501526060820151811661022085015260808201511661024084015260a0015160c0610260840152600090613603610280850182612c1e565b905060208301516136176020860182613521565b5060408381015180511515610160870152602081015115156101808701529081015115156101a0860152509392505050565b8281526040602082015260006126866040830184613597565b60208082526010908201526f24b73b30b634b2103932b1b2b4bb32b960811b604082015260600190565b6001600160a01b03831681526040602082018190526136b59082016136b084612373565b612c11565b60006136c360208401612373565b6136d06060840182612c11565b506136dd60408401612373565b6136ea6080840182612c11565b506136f86060840184612f04565b6101608060a08601526137106101a086018385612f53565b925061371f6080870187612f04565b868503603f190160c08801529250613738848483612f53565b93505060a086013560e0860152610100915060c08601358286015261012060e08701358187015261376a838801612fcd565b925061014061377c8188018515159052565b908701359186019190915290940135610180909301929092525092915050565b86815285602082015284604082015283606082015282608082015260c060a082015260006137cd60c0830184613597565b98975050505050505050565b6000808335601e198436030181126137f057600080fd5b8301803591506001600160401b0382111561380a57600080fd5b602001915036819003821315612f4c57600080fd5b8183823760009101908152919050565b60208152600061200e6020830184612761565b6001600160a01b03831681526040602082018190526138669082016136b084612373565b600061387460208401612373565b6138816060840182612c11565b5061388e60408401612373565b61389b6080840182612c11565b506138a860608401612373565b6138b560a0840182612c11565b506138c260808401612373565b6138cf60c0840182612c11565b506138dd60a0840184612f04565b6101608060e08601526138f56101a086018385612f53565b925061390460c0870187612f04565b9250610100603f19878603018188015261391f858584612f53565b9450610120935060e08801358488015261393a818901612fcd565b91505061014061394d8188018315159052565b928701359186019190915250909301356101809092019190915250919050565b6001600160a01b039384168152919092166020820152604081019190915260600190565b6001600160a01b039687168152948616602086015292851660408501529084166060840152909216608082015260a081019190915260c00190565b6000602082840312156139de57600080fd5b81516001600160401b03808211156139f557600080fd5b818401915084601f830112613a0957600080fd5b815181811115613a1b57613a1b61221e565b613a2e601f8201601f1916602001612308565b9150808252856020828501011115613a4557600080fd5b612d8481602084016020860161273d565b81810381811115610f2857610f28612e8a565b600060208284031215613a7b57600080fd5b815161200e8161235b565b6000816000190483118215151615613aa057613aa0612e8a565b500290565b600082613ac257634e487b7160e01b600052601260045260246000fd5b500490565b60008251613ad981846020870161273d565b9190910192915050565b600060208284031215613af557600080fd5b815161200e81612a3556fea26469706673582212205193d1a4e3ab3b19ed83d5d8eb6256329e703a76df1cf7842dafc0e3636c115064736f6c63430008100033",
  "linkReferences": {
    "contracts/deposit/DepositStoreUtils.sol": {
      "DepositStoreUtils": [
        {
          "length": 20,
          "start": 1730
        }
      ]
    },
    "contracts/market/MarketEventUtils.sol": {
      "MarketEventUtils": [
        {
          "length": 20,
          "start": 6836
        },
        {
          "length": 20,
          "start": 7676
        }
      ]
    },
    "contracts/order/OrderStoreUtils.sol": {
      "OrderStoreUtils": [
        {
          "length": 20,
          "start": 3171
        },
        {
          "length": 20,
          "start": 3827
        }
      ]
    },
    "contracts/referral/ReferralEventUtils.sol": {
      "ReferralEventUtils": [
        {
          "length": 20,
          "start": 6010
        }
      ]
    },
    "contracts/withdrawal/WithdrawalStoreUtils.sol": {
      "WithdrawalStoreUtils": [
        {
          "length": 20,
          "start": 2844
        }
      ]
    }
  },
  "deployedLinkReferences": {
    "contracts/deposit/DepositStoreUtils.sol": {
      "DepositStoreUtils": [
        {
          "length": 20,
          "start": 1130
        }
      ]
    },
    "contracts/market/MarketEventUtils.sol": {
      "MarketEventUtils": [
        {
          "length": 20,
          "start": 6236
        },
        {
          "length": 20,
          "start": 7076
        }
      ]
    },
    "contracts/order/OrderStoreUtils.sol": {
      "OrderStoreUtils": [
        {
          "length": 20,
          "start": 2571
        },
        {
          "length": 20,
          "start": 3227
        }
      ]
    },
    "contracts/referral/ReferralEventUtils.sol": {
      "ReferralEventUtils": [
        {
          "length": 20,
          "start": 5410
        }
      ]
    },
    "contracts/withdrawal/WithdrawalStoreUtils.sol": {
      "WithdrawalStoreUtils": [
        {
          "length": 20,
          "start": 2244
        }
      ]
    }
  }
}