{
  "_format": "hh-sol-artifact-1",
  "contractName": "ExchangeRouter",
  "sourceName": "contracts/router/ExchangeRouter.sol",
  "abi": [
    {
      "inputs": [
        {
          "internalType": "contract Router",
          "name": "_router",
          "type": "address"
        },
        {
          "internalType": "contract RoleStore",
          "name": "_roleStore",
          "type": "address"
        },
        {
          "internalType": "contract DataStore",
          "name": "_dataStore",
          "type": "address"
        },
        {
          "internalType": "contract EventEmitter",
          "name": "_eventEmitter",
          "type": "address"
        },
        {
          "internalType": "contract DepositHandler",
          "name": "_depositHandler",
          "type": "address"
        },
        {
          "internalType": "contract WithdrawalHandler",
          "name": "_withdrawalHandler",
          "type": "address"
        },
        {
          "internalType": "contract OrderHandler",
          "name": "_orderHandler",
          "type": "address"
        },
        {
          "internalType": "contract MarketStore",
          "name": "_marketStore",
          "type": "address"
        },
        {
          "internalType": "contract DepositStore",
          "name": "_depositStore",
          "type": "address"
        },
        {
          "internalType": "contract WithdrawalStore",
          "name": "_withdrawalStore",
          "type": "address"
        },
        {
          "internalType": "contract OrderStore",
          "name": "_orderStore",
          "type": "address"
        },
        {
          "internalType": "contract IReferralStorage",
          "name": "_referralStorage",
          "type": "address"
        }
      ],
      "stateMutability": "nonpayable",
      "type": "constructor"
    },
    {
      "inputs": [
        {
          "internalType": "address",
          "name": "token",
          "type": "address"
        },
        {
          "internalType": "address",
          "name": "receiver",
          "type": "address"
        },
        {
          "internalType": "uint256",
          "name": "amount",
          "type": "uint256"
        }
      ],
      "name": "TokenTransferError",
      "type": "error"
    },
    {
      "inputs": [
        {
          "internalType": "address",
          "name": "msgSender",
          "type": "address"
        },
        {
          "internalType": "string",
          "name": "role",
          "type": "string"
        }
      ],
      "name": "Unauthorized",
      "type": "error"
    },
    {
      "anonymous": false,
      "inputs": [
        {
          "indexed": false,
          "internalType": "address",
          "name": "prevGov",
          "type": "address"
        },
        {
          "indexed": false,
          "internalType": "address",
          "name": "nextGov",
          "type": "address"
        }
      ],
      "name": "SetGov",
      "type": "event"
    },
    {
      "inputs": [
        {
          "internalType": "bytes32",
          "name": "key",
          "type": "bytes32"
        }
      ],
      "name": "cancelDeposit",
      "outputs": [],
      "stateMutability": "payable",
      "type": "function"
    },
    {
      "inputs": [
        {
          "internalType": "bytes32",
          "name": "key",
          "type": "bytes32"
        }
      ],
      "name": "cancelOrder",
      "outputs": [],
      "stateMutability": "payable",
      "type": "function"
    },
    {
      "inputs": [
        {
          "internalType": "bytes32",
          "name": "key",
          "type": "bytes32"
        }
      ],
      "name": "cancelWithdrawal",
      "outputs": [],
      "stateMutability": "payable",
      "type": "function"
    },
    {
      "inputs": [
        {
          "internalType": "address[]",
          "name": "markets",
          "type": "address[]"
        },
        {
          "internalType": "address[]",
          "name": "tokens",
          "type": "address[]"
        },
        {
          "internalType": "address",
          "name": "receiver",
          "type": "address"
        }
      ],
      "name": "claimAffiliateRewards",
      "outputs": [],
      "stateMutability": "payable",
      "type": "function"
    },
    {
      "inputs": [
        {
          "internalType": "address[]",
          "name": "markets",
          "type": "address[]"
        },
        {
          "internalType": "address[]",
          "name": "tokens",
          "type": "address[]"
        },
        {
          "internalType": "address",
          "name": "receiver",
          "type": "address"
        }
      ],
      "name": "claimFundingFees",
      "outputs": [],
      "stateMutability": "payable",
      "type": "function"
    },
    {
      "inputs": [
        {
          "components": [
            {
              "internalType": "address",
              "name": "receiver",
              "type": "address"
            },
            {
              "internalType": "address",
              "name": "callbackContract",
              "type": "address"
            },
            {
              "internalType": "address",
              "name": "market",
              "type": "address"
            },
            {
              "internalType": "uint256",
              "name": "minMarketTokens",
              "type": "uint256"
            },
            {
              "internalType": "bool",
              "name": "shouldUnwrapNativeToken",
              "type": "bool"
            },
            {
              "internalType": "uint256",
              "name": "executionFee",
              "type": "uint256"
            },
            {
              "internalType": "uint256",
              "name": "callbackGasLimit",
              "type": "uint256"
            }
          ],
          "internalType": "struct DepositUtils.CreateDepositParams",
          "name": "params",
          "type": "tuple"
        }
      ],
      "name": "createDeposit",
      "outputs": [
        {
          "internalType": "bytes32",
          "name": "",
          "type": "bytes32"
        }
      ],
      "stateMutability": "payable",
      "type": "function"
    },
    {
      "inputs": [
        {
          "components": [
            {
              "components": [
                {
                  "internalType": "address",
                  "name": "receiver",
                  "type": "address"
                },
                {
                  "internalType": "address",
                  "name": "callbackContract",
                  "type": "address"
                },
                {
                  "internalType": "address",
                  "name": "market",
                  "type": "address"
                },
                {
                  "internalType": "address",
                  "name": "initialCollateralToken",
                  "type": "address"
                },
                {
                  "internalType": "address[]",
                  "name": "swapPath",
                  "type": "address[]"
                }
              ],
              "internalType": "struct OrderBaseUtils.CreateOrderParamsAddresses",
              "name": "addresses",
              "type": "tuple"
            },
            {
              "components": [
                {
                  "internalType": "uint256",
                  "name": "sizeDeltaUsd",
                  "type": "uint256"
                },
                {
                  "internalType": "uint256",
                  "name": "triggerPrice",
                  "type": "uint256"
                },
                {
                  "internalType": "uint256",
                  "name": "acceptablePrice",
                  "type": "uint256"
                },
                {
                  "internalType": "uint256",
                  "name": "executionFee",
                  "type": "uint256"
                },
                {
                  "internalType": "uint256",
                  "name": "callbackGasLimit",
                  "type": "uint256"
                },
                {
                  "internalType": "uint256",
                  "name": "minOutputAmount",
                  "type": "uint256"
                }
              ],
              "internalType": "struct OrderBaseUtils.CreateOrderParamsNumbers",
              "name": "numbers",
              "type": "tuple"
            },
            {
              "internalType": "enum Order.OrderType",
              "name": "orderType",
              "type": "uint8"
            },
            {
              "internalType": "bool",
              "name": "isLong",
              "type": "bool"
            },
            {
              "internalType": "bool",
              "name": "shouldUnwrapNativeToken",
              "type": "bool"
            }
          ],
          "internalType": "struct OrderBaseUtils.CreateOrderParams",
          "name": "params",
          "type": "tuple"
        },
        {
          "internalType": "bytes32",
          "name": "referralCode",
          "type": "bytes32"
        }
      ],
      "name": "createOrder",
      "outputs": [
        {
          "internalType": "bytes32",
          "name": "",
          "type": "bytes32"
        }
      ],
      "stateMutability": "payable",
      "type": "function"
    },
    {
      "inputs": [
        {
          "components": [
            {
              "internalType": "address",
              "name": "receiver",
              "type": "address"
            },
            {
              "internalType": "address",
              "name": "callbackContract",
              "type": "address"
            },
            {
              "internalType": "address",
              "name": "market",
              "type": "address"
            },
            {
              "internalType": "uint256",
              "name": "marketTokensLongAmount",
              "type": "uint256"
            },
            {
              "internalType": "uint256",
              "name": "marketTokensShortAmount",
              "type": "uint256"
            },
            {
              "internalType": "uint256",
              "name": "minLongTokenAmount",
              "type": "uint256"
            },
            {
              "internalType": "uint256",
              "name": "minShortTokenAmount",
              "type": "uint256"
            },
            {
              "internalType": "bool",
              "name": "shouldUnwrapNativeToken",
              "type": "bool"
            },
            {
              "internalType": "uint256",
              "name": "executionFee",
              "type": "uint256"
            },
            {
              "internalType": "uint256",
              "name": "callbackGasLimit",
              "type": "uint256"
            }
          ],
          "internalType": "struct WithdrawalUtils.CreateWithdrawalParams",
          "name": "params",
          "type": "tuple"
        }
      ],
      "name": "createWithdrawal",
      "outputs": [
        {
          "internalType": "bytes32",
          "name": "",
          "type": "bytes32"
        }
      ],
      "stateMutability": "payable",
      "type": "function"
    },
    {
      "inputs": [],
      "name": "dataStore",
      "outputs": [
        {
          "internalType": "contract DataStore",
          "name": "",
          "type": "address"
        }
      ],
      "stateMutability": "view",
      "type": "function"
    },
    {
      "inputs": [],
      "name": "depositHandler",
      "outputs": [
        {
          "internalType": "contract DepositHandler",
          "name": "",
          "type": "address"
        }
      ],
      "stateMutability": "view",
      "type": "function"
    },
    {
      "inputs": [],
      "name": "depositStore",
      "outputs": [
        {
          "internalType": "contract DepositStore",
          "name": "",
          "type": "address"
        }
      ],
      "stateMutability": "view",
      "type": "function"
    },
    {
      "inputs": [],
      "name": "eventEmitter",
      "outputs": [
        {
          "internalType": "contract EventEmitter",
          "name": "",
          "type": "address"
        }
      ],
      "stateMutability": "view",
      "type": "function"
    },
    {
      "inputs": [],
      "name": "gov",
      "outputs": [
        {
          "internalType": "address",
          "name": "",
          "type": "address"
        }
      ],
      "stateMutability": "view",
      "type": "function"
    },
    {
      "inputs": [],
      "name": "marketStore",
      "outputs": [
        {
          "internalType": "contract MarketStore",
          "name": "",
          "type": "address"
        }
      ],
      "stateMutability": "view",
      "type": "function"
    },
    {
      "inputs": [
        {
          "internalType": "bytes[]",
          "name": "data",
          "type": "bytes[]"
        }
      ],
      "name": "multicall",
      "outputs": [
        {
          "internalType": "bytes[]",
          "name": "results",
          "type": "bytes[]"
        }
      ],
      "stateMutability": "payable",
      "type": "function"
    },
    {
      "inputs": [],
      "name": "orderHandler",
      "outputs": [
        {
          "internalType": "contract OrderHandler",
          "name": "",
          "type": "address"
        }
      ],
      "stateMutability": "view",
      "type": "function"
    },
    {
      "inputs": [],
      "name": "orderStore",
      "outputs": [
        {
          "internalType": "contract OrderStore",
          "name": "",
          "type": "address"
        }
      ],
      "stateMutability": "view",
      "type": "function"
    },
    {
      "inputs": [],
      "name": "referralStorage",
      "outputs": [
        {
          "internalType": "contract IReferralStorage",
          "name": "",
          "type": "address"
        }
      ],
      "stateMutability": "view",
      "type": "function"
    },
    {
      "inputs": [],
      "name": "roleStore",
      "outputs": [
        {
          "internalType": "contract RoleStore",
          "name": "",
          "type": "address"
        }
      ],
      "stateMutability": "view",
      "type": "function"
    },
    {
      "inputs": [],
      "name": "router",
      "outputs": [
        {
          "internalType": "contract Router",
          "name": "",
          "type": "address"
        }
      ],
      "stateMutability": "view",
      "type": "function"
    },
    {
      "inputs": [
        {
          "internalType": "address",
          "name": "token",
          "type": "address"
        },
        {
          "internalType": "address",
          "name": "receiver",
          "type": "address"
        },
        {
          "internalType": "uint256",
          "name": "amount",
          "type": "uint256"
        }
      ],
      "name": "sendTokens",
      "outputs": [],
      "stateMutability": "payable",
      "type": "function"
    },
    {
      "inputs": [
        {
          "internalType": "address",
          "name": "receiver",
          "type": "address"
        },
        {
          "internalType": "uint256",
          "name": "amount",
          "type": "uint256"
        }
      ],
      "name": "sendWnt",
      "outputs": [],
      "stateMutability": "payable",
      "type": "function"
    },
    {
      "inputs": [
        {
          "internalType": "address",
          "name": "_gov",
          "type": "address"
        }
      ],
      "name": "setGov",
      "outputs": [],
      "stateMutability": "nonpayable",
      "type": "function"
    },
    {
      "inputs": [
        {
          "internalType": "bytes32",
          "name": "key",
          "type": "bytes32"
        },
        {
          "components": [
            {
              "internalType": "address[]",
              "name": "primaryTokens",
              "type": "address[]"
            },
            {
              "components": [
                {
                  "internalType": "uint256",
                  "name": "min",
                  "type": "uint256"
                },
                {
                  "internalType": "uint256",
                  "name": "max",
                  "type": "uint256"
                }
              ],
              "internalType": "struct Price.Props[]",
              "name": "primaryPrices",
              "type": "tuple[]"
            },
            {
              "internalType": "address[]",
              "name": "secondaryTokens",
              "type": "address[]"
            },
            {
              "components": [
                {
                  "internalType": "uint256",
                  "name": "min",
                  "type": "uint256"
                },
                {
                  "internalType": "uint256",
                  "name": "max",
                  "type": "uint256"
                }
              ],
              "internalType": "struct Price.Props[]",
              "name": "secondaryPrices",
              "type": "tuple[]"
            }
          ],
          "internalType": "struct OracleUtils.SimulatePricesParams",
          "name": "simulatedOracleParams",
          "type": "tuple"
        }
      ],
      "name": "simulateExecuteOrder",
      "outputs": [],
      "stateMutability": "payable",
      "type": "function"
    },
    {
      "inputs": [
        {
          "internalType": "bytes32",
          "name": "key",
          "type": "bytes32"
        },
        {
          "internalType": "uint256",
          "name": "sizeDeltaUsd",
          "type": "uint256"
        },
        {
          "internalType": "uint256",
          "name": "acceptablePrice",
          "type": "uint256"
        },
        {
          "internalType": "uint256",
          "name": "triggerPrice",
          "type": "uint256"
        }
      ],
      "name": "updateOrder",
      "outputs": [],
      "stateMutability": "payable",
      "type": "function"
    },
    {
      "inputs": [],
      "name": "withdrawalHandler",
      "outputs": [
        {
          "internalType": "contract WithdrawalHandler",
          "name": "",
          "type": "address"
        }
      ],
      "stateMutability": "view",
      "type": "function"
    },
    {
      "inputs": [],
      "name": "withdrawalStore",
      "outputs": [
        {
          "internalType": "contract WithdrawalStore",
          "name": "",
          "type": "address"
        }
      ],
      "stateMutability": "view",
      "type": "function"
    }
  ],
  "bytecode": "0x6102006040523480156200001257600080fd5b50604051620034933803806200349383398101604081905262000035916200012d565b60016000558a6200004633620000a1565b6001600160a01b039081166080529b8c1660a052988b1660c052968a1660e05294891661010052928816610120529087166101405286166101605285166101805284166101a05283166101c0529091166101e0525062000233565b600180546001600160a01b038381166001600160a01b031983168117909355604080519190921680825260208201939093527f53351836099c03ffc3b1727d8abd4b0222afa87d4ed76ae3102d51369ef7f785910160405180910390a15050565b6001600160a01b03811681146200011857600080fd5b50565b8051620001288162000102565b919050565b6000806000806000806000806000806000806101808d8f0312156200015157600080fd5b8c516200015e8162000102565b60208e0151909c50620001718162000102565b60408e0151909b50620001848162000102565b60608e0151909a50620001978162000102565b60808e0151909950620001aa8162000102565b60a08e0151909850620001bd8162000102565b9650620001cd60c08e016200011b565b9550620001dd60e08e016200011b565b9450620001ee6101008e016200011b565b9350620001ff6101208e016200011b565b9250620002106101408e016200011b565b9150620002216101608e016200011b565b90509295989b509295989b509295989b565b60805160a05160c05160e05161010051610120516101405161016051610180516101a0516101c0516101e0516131496200034a600039600081816101520152610e300152600081816101e401528181610ab90152610c4a01526000818161049801526109830152600081816103b601526106310152600061045101526000818161041d015281816107a101528181610b7901528181610d0a0152610e6d0152600081816102180152818161056c0152610a4301526000818161034e015281816106f1015261081a015260008181610382015281816108cc01526110c60152600081816102ce015281816108ab01528181610bdc01526110a50152600081816104ff01526111e50152600061029a01526131496000f3fe60806040526004361061013b5760003560e01c80626cc35e1461014057806312d43a51146101915780631b5c2de1146101b15780632ac38dbd146101d25780632c2f3c0714610206578063314044841461023a5780633bc4de561461024f5780634845aaca1461026257806349287a22146102755780634a4a7b0414610288578063660d0d67146102bc5780637213c5a0146102f05780637489ec23146103035780637d39aaf1146103165780638792e621146103295780639c8b2cfb1461033c5780639ff78c3014610370578063a25dfba7146103a4578063a9dca678146103d8578063ac9650d8146103eb578063b58483051461040b578063b8d2c6931461043f578063c41b1ab314610473578063c4d74c4214610486578063cfad57a2146104ba578063e6d66ac8146104da578063f887ea40146104ed575b600080fd5b34801561014c57600080fd5b506101747f000000000000000000000000000000000000000000000000000000000000000081565b6040516001600160a01b0390911681526020015b60405180910390f35b34801561019d57600080fd5b50600154610174906001600160a01b031681565b6101c46101bf366004611ba3565b610521565b604051908152602001610188565b3480156101de57600080fd5b506101747f000000000000000000000000000000000000000000000000000000000000000081565b34801561021257600080fd5b506101747f000000000000000000000000000000000000000000000000000000000000000081565b61024d610248366004611bc0565b6105f2565b005b61024d61025d366004611de8565b610763565b6101c4610270366004611ecc565b6107d8565b61024d610283366004611ede565b610851565b34801561029457600080fd5b506101747f000000000000000000000000000000000000000000000000000000000000000081565b3480156102c857600080fd5b506101747f000000000000000000000000000000000000000000000000000000000000000081565b61024d6102fe366004611bc0565b610944565b61024d610311366004611bc0565b610a7a565b61024d610324366004611f55565b610bb0565b61024d610337366004611f81565b610c0b565b34801561034857600080fd5b506101747f000000000000000000000000000000000000000000000000000000000000000081565b34801561037c57600080fd5b506101747f000000000000000000000000000000000000000000000000000000000000000081565b3480156103b057600080fd5b506101747f000000000000000000000000000000000000000000000000000000000000000081565b6101c46103e6366004611fb3565b610d85565b6103fe6103f9366004611ff7565b610ef4565b60405161018891906120bb565b34801561041757600080fd5b506101747f000000000000000000000000000000000000000000000000000000000000000081565b34801561044b57600080fd5b506101747f000000000000000000000000000000000000000000000000000000000000000081565b61024d610481366004611ede565b61104b565b34801561049257600080fd5b506101747f000000000000000000000000000000000000000000000000000000000000000081565b3480156104c657600080fd5b5061024d6104d536600461211d565b611132565b61024d6104e836600461213a565b611187565b3480156104f957600080fd5b506101747f000000000000000000000000000000000000000000000000000000000000000081565b600060026000540361054e5760405162461bcd60e51b81526004016105459061217b565b60405180910390fd5b60026000556040516379eb74fb60e11b815233906001600160a01b037f0000000000000000000000000000000000000000000000000000000000000000169063f3d6e9f6906105a390849087906004016121cb565b6020604051808303816000875af11580156105c2573d6000803e3d6000fd5b505050506040513d601f19601f820116820180604052508101906105e69190612289565b60016000559392505050565b6002600054036106145760405162461bcd60e51b81526004016105459061217b565b6002600090815560405163023aa9ab60e61b8152600481018390527f00000000000000000000000000000000000000000000000000000000000000006001600160a01b031690638eaa6ac090602401600060405180830381865afa158015610680573d6000803e3d6000fd5b505050506040513d6000823e601f3d908101601f191682016040526106a891908101906123d2565b9050336106b482515190565b6001600160a01b0316146106da5760405162461bcd60e51b8152600401610545906124c5565b60405163896402d960e01b81526001600160a01b037f0000000000000000000000000000000000000000000000000000000000000000169063896402d990610728908590859060040161252b565b600060405180830381600087803b15801561074257600080fd5b505af1158015610756573d6000803e3d6000fd5b5050600160005550505050565b6002600054036107855760405162461bcd60e51b81526004016105459061217b565b6002600055604051631de26f2b60e11b81526001600160a01b037f00000000000000000000000000000000000000000000000000000000000000001690633bc4de56906107289085908590600401612643565b60006002600054036107fc5760405162461bcd60e51b81526004016105459061217b565b6002600055604051634b1a07a760e11b815233906001600160a01b037f000000000000000000000000000000000000000000000000000000000000000016906396340f4e906105a390849087906004016126c8565b6002600054036108735760405162461bcd60e51b81526004016105459061217b565b600260005581518351146108995760405162461bcd60e51b81526004016105459061275a565b3360005b8451811015610938576109267f00000000000000000000000000000000000000000000000000000000000000007f00000000000000000000000000000000000000000000000000000000000000008784815181106108fd576108fd612781565b602002602001015187858151811061091757610917612781565b6020026020010151868861124e565b8061093081612797565b91505061089d565b50506001600055505050565b6002600054036109665760405162461bcd60e51b81526004016105459061217b565b6002600090815560405163023aa9ab60e61b8152600481018390527f00000000000000000000000000000000000000000000000000000000000000006001600160a01b031690638eaa6ac090602401600060405180830381865afa1580156109d2573d6000803e3d6000fd5b505050506040513d6000823e601f3d908101601f191682016040526109fa91908101906127be565b905033610a0682515190565b6001600160a01b031614610a2c5760405162461bcd60e51b8152600401610545906124c5565b604051630541459b60e11b81526001600160a01b037f00000000000000000000000000000000000000000000000000000000000000001690630a828b369061072890859085906004016128a1565b600260005403610a9c5760405162461bcd60e51b81526004016105459061217b565b6002600090815560405163023aa9ab60e61b8152600481018390527f00000000000000000000000000000000000000000000000000000000000000006001600160a01b031690638eaa6ac090602401600060405180830381865afa158015610b08573d6000803e3d6000fd5b505050506040513d6000823e601f3d908101601f19168201604052610b309190810190612a99565b905033610b3c82515190565b6001600160a01b031614610b625760405162461bcd60e51b8152600401610545906124c5565b6040516313083f0560e21b81526001600160a01b037f00000000000000000000000000000000000000000000000000000000000000001690634c20fc14906107289085908590600401612d38565b600260005403610bd25760405162461bcd60e51b81526004016105459061217b565b6002600055610c027f00000000000000000000000000000000000000000000000000000000000000008383611412565b50506001600055565b600260005403610c2d5760405162461bcd60e51b81526004016105459061217b565b6002600090815560405163023aa9ab60e61b8152600481018690527f00000000000000000000000000000000000000000000000000000000000000006001600160a01b031690638eaa6ac090602401600060405180830381865afa158015610c99573d6000803e3d6000fd5b505050506040513d6000823e601f3d908101601f19168201604052610cc19190810190612a99565b905033610ccd82515190565b6001600160a01b031614610cf35760405162461bcd60e51b8152600401610545906124c5565b6040516323552f1d60e01b81526001600160a01b037f000000000000000000000000000000000000000000000000000000000000000016906323552f1d90610d479088908890889088908890600401612d59565b600060405180830381600087803b158015610d6157600080fd5b505af1158015610d75573d6000803e3d6000fd5b5050600160005550505050505050565b6000600260005403610da95760405162461bcd60e51b81526004016105459061217b565b60026000556007610dc1610100850160e08601612d9a565b6007811115610dd257610dd2612bd7565b03610e2a5760405162461bcd60e51b815260206004820152602260248201527f45786368616e6765526f757465723a20696e76616c6964206f72646572207479604482015261706560f01b6064820152608401610545565b33610e567f00000000000000000000000000000000000000000000000000000000000000008285611492565b604051638cef9feb60e01b81526001600160a01b037f00000000000000000000000000000000000000000000000000000000000000001690638cef9feb90610ea49084908890600401612e44565b6020604051808303816000875af1158015610ec3573d6000803e3d6000fd5b505050506040513d601f19601f82011682018060405250810190610ee79190612289565b6001600055949350505050565b6060816001600160401b03811115610f0e57610f0e611bd9565b604051908082528060200260200182016040528015610f4157816020015b6060815260200190600190039081610f2c5790505b50905060005b828110156110445760008030868685818110610f6557610f65612781565b9050602002810190610f779190612f9c565b604051610f85929190612fe2565b600060405180830381855af49150503d8060008114610fc0576040519150601f19603f3d011682016040523d82523d6000602084013e610fc5565b606091505b50915091508161101157604481511015610fde57600080fd5b60048101905080806020019051810190610ff89190612ff2565b60405162461bcd60e51b8152600401610545919061303a565b8084848151811061102457611024612781565b60200260200101819052505050808061103c90612797565b915050610f47565b5092915050565b60026000540361106d5760405162461bcd60e51b81526004016105459061217b565b600260005581518351146110935760405162461bcd60e51b81526004016105459061275a565b3360005b8451811015610938576111207f00000000000000000000000000000000000000000000000000000000000000007f00000000000000000000000000000000000000000000000000000000000000008784815181106110f7576110f7612781565b602002602001015187858151811061111157611111612781565b60200260200101518688611501565b8061112a81612797565b915050611097565b6001546001600160a01b0316331461117b576040805163a35b150b60e01b81523360048201526024810191909152600360448201526223a7ab60e91b6064820152608401610545565b61118481611689565b50565b6002600054036111a95760405162461bcd60e51b81526004016105459061217b565b60026000556040516303704f0f60e31b81526001600160a01b0384811660048301523360248301819052848216604484015260648301849052917f000000000000000000000000000000000000000000000000000000000000000090911690631b82787890608401600060405180830381600087803b15801561122b57600080fd5b505af115801561123f573d6000803e3d6000fd5b50506001600055505050505050565b600061125b8585856116ea565b60405163bd02d0f560e01b8152600481018290529091506000906001600160a01b0389169063bd02d0f590602401602060405180830381865afa1580156112a6573d6000803e3d6000fd5b505050506040513d601f19601f820116820180604052508101906112ca9190612289565b604051637152429d60e11b815260048101849052600060248201529091506001600160a01b0389169063e2a4853a906044016020604051808303816000875af115801561131b573d6000803e3d6000fd5b505050506040513d601f19601f8201168201806040525081019061133f9190612289565b5060405163078d3b7960e01b81526001600160a01b0387169063078d3b79906113709088908790869060040161304d565b600060405180830381600087803b15801561138a57600080fd5b505af115801561139e573d6000803e3d6000fd5b5050604051633be4b15960e01b81526001600160a01b038a169250633be4b15991506113d69089908990899089908890600401613071565b600060405180830381600087803b1580156113f057600080fd5b505af1158015611404573d6000803e3d6000fd5b505050505050505050505050565b8060000361141f57505050565b600061142a84611780565b9050806001600160a01b031663d0e30db0836040518263ffffffff1660e01b81526004016000604051808303818588803b15801561146757600080fd5b505af115801561147b573d6000803e3d6000fd5b505050505061148c84828585611833565b50505050565b8061149c57505050565b6040516356b4b2ad60e01b81526001600160a01b038416906356b4b2ad906114ca90859085906004016130a4565b600060405180830381600087803b1580156114e457600080fd5b505af11580156114f8573d6000803e3d6000fd5b50505050505050565b600061150e85858561194f565b60405163bd02d0f560e01b8152600481018290529091506000906001600160a01b0389169063bd02d0f590602401602060405180830381865afa158015611559573d6000803e3d6000fd5b505050506040513d601f19601f8201168201806040525081019061157d9190612289565b604051637152429d60e11b815260048101849052600060248201529091506001600160a01b0389169063e2a4853a906044016020604051808303816000875af11580156115ce573d6000803e3d6000fd5b505050506040513d601f19601f820116820180604052508101906115f29190612289565b5060405163078d3b7960e01b81526001600160a01b0387169063078d3b79906116239088908790869060040161304d565b600060405180830381600087803b15801561163d57600080fd5b505af1158015611651573d6000803e3d6000fd5b50506040516337bf7bff60e01b81526001600160a01b038a1692506337bf7bff91506113d69089908990899089908890600401613071565b600180546001600160a01b038381166001600160a01b031983168117909355604080519190921680825260208201939093527f53351836099c03ffc3b1727d8abd4b0222afa87d4ed76ae3102d51369ef7f785910160405180910390a15050565b60006040516020016117209060208082526010908201526f10519192531250551157d49155d0549160821b604082015260600190565b60408051601f198184030181528282528051602091820120908301526001600160a01b038087169183019190915280851660608301528316608082015260a0016040516020818303038152906040528051906020012090505b9392505050565b6000816001600160a01b03166321f8a7216040516020016117b89060208082526003908201526215d39560ea1b604082015260600190565b604051602081830303815290604052805190602001206040518263ffffffff1660e01b81526004016117ec91815260200190565b602060405180830381865afa158015611809573d6000803e3d6000fd5b505050506040513d601f19601f8201168201806040525081019061182d91906130bd565b92915050565b801561148c576000846001600160a01b031663bd02d0f56118538661198d565b6040518263ffffffff1660e01b815260040161187191815260200190565b602060405180830381865afa15801561188e573d6000803e3d6000fd5b505050506040513d601f19601f820116820180604052508101906118b29190612289565b90506000806118c386868686611a15565b9150915081156118d55750505061148c565b6000816040516020016118e8919061303a565b60405160208183030381529060405290507f9db60cdf21cde7f760995e23662841725e6aa63be48799796db12b7b2e6b17e281604051611928919061303a565b60405180910390a186868660405163012f3b8f60e71b81526004016105459392919061304d565b60006040516020016117209060208082526018908201527710d31052535050931157d1955391125391d7d05353d5539560421b604082015260600190565b60006040516020016119cb906020808252601890820152771513d2d15397d514905394d1915497d1d054d7d31253525560421b604082015260600190565b60408051601f198184030181528282528051602091820120908301526001600160a01b03841690820152606001604051602081830303815290604052805190602001209050919050565b60006060600063a9059cbb60e01b8686604051602401611a369291906130a4565b604051602081830303815290604052906001600160e01b0319166020820180516001600160e01b0383818316178352505050509050600080886001600160a01b03168684604051611a8791906130da565b60006040518083038160008787f1925050503d8060008114611ac5576040519150601f19603f3d011682016040523d82523d6000602084013e611aca565b606091505b50915091508115611b6b578051600003611b28576001600160a01b0389163b611b285760006040518060400160405280601481526020017310d85b1b081d1bc81b9bdb8b58dbdb9d1c9858dd60621b81525094509450505050611b74565b60008151118015611b4a575080806020019051810190611b4891906130f6565b155b15611b5d57600094509250611b74915050565b600194509250611b74915050565b60009450925050505b94509492505050565b6001600160a01b03169052565b60006101408284031215611b9d57600080fd5b50919050565b60006101408284031215611bb657600080fd5b6117798383611b8a565b600060208284031215611bd257600080fd5b5035919050565b634e487b7160e01b600052604160045260246000fd5b604080519081016001600160401b0381118282101715611c1157611c11611bd9565b60405290565b604051608081016001600160401b0381118282101715611c1157611c11611bd9565b60405160c081016001600160401b0381118282101715611c1157611c11611bd9565b60405160e081016001600160401b0381118282101715611c1157611c11611bd9565b604051601f8201601f191681016001600160401b0381118282101715611ca557611ca5611bd9565b604052919050565b60006001600160401b03821115611cc657611cc6611bd9565b5060051b60200190565b6001600160a01b038116811461118457600080fd5b8035611cf081611cd0565b919050565b600082601f830112611d0657600080fd5b81356020611d1b611d1683611cad565b611c7d565b82815260059290921b84018101918181019086841115611d3a57600080fd5b8286015b84811015611d5e578035611d5181611cd0565b8352918301918301611d3e565b509695505050505050565b600082601f830112611d7a57600080fd5b81356020611d8a611d1683611cad565b82815260069290921b84018101918181019086841115611da957600080fd5b8286015b84811015611d5e5760408189031215611dc65760008081fd5b611dce611bef565b813581528482013585820152835291830191604001611dad565b60008060408385031215611dfb57600080fd5b8235915060208301356001600160401b0380821115611e1957600080fd5b9084019060808287031215611e2d57600080fd5b611e35611c17565b823582811115611e4457600080fd5b611e5088828601611cf5565b825250602083013582811115611e6557600080fd5b611e7188828601611d69565b602083015250604083013582811115611e8957600080fd5b611e9588828601611cf5565b604083015250606083013582811115611ead57600080fd5b611eb988828601611d69565b6060830152508093505050509250929050565b600060e08284031215611b9d57600080fd5b600080600060608486031215611ef357600080fd5b83356001600160401b0380821115611f0a57600080fd5b611f1687838801611cf5565b94506020860135915080821115611f2c57600080fd5b50611f3986828701611cf5565b9250506040840135611f4a81611cd0565b809150509250925092565b60008060408385031215611f6857600080fd5b8235611f7381611cd0565b946020939093013593505050565b60008060008060808587031215611f9757600080fd5b5050823594602084013594506040840135936060013592509050565b60008060408385031215611fc657600080fd5b82356001600160401b03811115611fdc57600080fd5b611fe885828601611b8a565b95602094909401359450505050565b6000806020838503121561200a57600080fd5b82356001600160401b038082111561202157600080fd5b818501915085601f83011261203557600080fd5b81358181111561204457600080fd5b8660208260051b850101111561205957600080fd5b60209290920196919550909350505050565b60005b8381101561208657818101518382015260200161206e565b50506000910152565b600081518084526120a781602086016020860161206b565b601f01601f19169290920160200192915050565b6000602080830181845280855180835260408601915060408160051b870101925083870160005b8281101561211057603f198886030184526120fe85835161208f565b945092850192908501906001016120e2565b5092979650505050505050565b60006020828403121561212f57600080fd5b813561177981611cd0565b60008060006060848603121561214f57600080fd5b833561215a81611cd0565b9250602084013561216a81611cd0565b929592945050506040919091013590565b6020808252601f908201527f5265656e7472616e637947756172643a207265656e7472616e742063616c6c00604082015260600190565b801515811461118457600080fd5b8035611cf0816121b2565b6001600160a01b038316815261016081016121f1602083016121ec85611ce5565b611b7d565b6121fd60208401611ce5565b61220a6040840182611b7d565b5061221760408401611ce5565b6122246060840182611b7d565b5060608301356080830152608083013560a083015260a083013560c083015260c083013560e083015261225960e084016121c0565b6101006122698185018315159052565b610120915080850135828501525080840135610140840152509392505050565b60006020828403121561229b57600080fd5b5051919050565b8051611cf081611cd0565b6000608082840312156122bf57600080fd5b6122c7611c17565b905081516122d481611cd0565b815260208201516122e481611cd0565b602082015260408201516122f781611cd0565b6040820152606082015161230a81611cd0565b606082015292915050565b60006020828403121561232757600080fd5b604051602081016001600160401b038111828210171561234957612349611bd9565b8060405250809150825161235c816121b2565b905292915050565b60006001600160401b0383111561237d5761237d611bd9565b612390601f8401601f1916602001611c7d565b90508281528383830111156123a457600080fd5b61177983602083018461206b565b600082601f8301126123c357600080fd5b61177983835160208501612364565b6000602082840312156123e457600080fd5b81516001600160401b03808211156123fb57600080fd5b9083019081850361018081121561241157600080fd5b612419611c17565b61242387856122ad565b815260c0607f198301121561243757600080fd5b61243f611c39565b91506080840151825260a0840151602083015260c0840151604083015260e08401516060830152610100840151608083015261012084015160a0830152816020820152612490876101408601612315565b60408201526101608401519150828211156124aa57600080fd5b6124b6878386016123b2565b60608201529695505050505050565b60208082526019908201527822bc31b430b733b2a937baba32b91d103337b93134b23232b760391b604082015260600190565b80516001600160a01b03908116835260208083015182169084015260408083015182169084015260609182015116910152565b828152604060208201526125436040820183516124f8565b60006020830151805160c0840152602081015160e084015260408101516101008401526060810151610120840152608081015161014084015260a081015161016084015250604083015161018061259e818501835115159052565b60608501519150806101a0850152506125bb6101c084018261208f565b95945050505050565b600081518084526020808501945080840160005b838110156125fd5781516001600160a01b0316875295820195908201906001016125d8565b509495945050505050565b600081518084526020808501945080840160005b838110156125fd57815180518852830151838801526040909601959082019060010161261c565b82815260406020820152600082516080604084015261266560c08401826125c4565b90506020840151603f19808584030160608601526126838383612608565b925060408601519150808584030160808601526126a083836125c4565b925060608601519150808584030160a0860152506126be8282612608565b9695505050505050565b6001600160a01b03838116825261010082019083356126e681611cd0565b81811660208501525060208401356126fd81611cd0565b818116604085015250604084013561271481611cd0565b81811660608501525050606083013560808301526080830135612736816121b2565b80151560a08401525060a083013560c083015260c083013560e08301529392505050565b6020808252600d908201526c125b9d985b1a59081a5b9c1d5d609a1b604082015260600190565b634e487b7160e01b600052603260045260246000fd5b6000600182016127b757634e487b7160e01b600052601160045260246000fd5b5060010190565b6000602082840312156127d057600080fd5b81516001600160401b03808211156127e757600080fd5b908301908185036101a08112156127fd57600080fd5b612805611c17565b61280f87856122ad565b815260e0607f198301121561282357600080fd5b61282b611c5b565b91506080840151825260a0840151602083015260c0840151604083015260e08401516060830152610100840151608083015261012084015160a083015261014084015160c0830152816020820152612887876101608601612315565b60408201526101808401519150828211156124aa57600080fd5b828152604060208201526128b96040820183516124f8565b60006020830151805160c0840152602081015160e084015260408101516101008401526060810151610120840152608081015161014084015260a081015161016084015260c08101516101808401525060408301516101a061291f818501835115159052565b60608501519150806101c0850152506125bb6101e084018261208f565b600082601f83011261294d57600080fd5b8151602061295d611d1683611cad565b82815260059290921b8401810191818101908684111561297c57600080fd5b8286015b84811015611d5e57805161299381611cd0565b8352918301918301612980565b60006101008083850312156129b457600080fd5b604051908101906001600160401b03821181831017156129d6576129d6611bd9565b81604052809250835181526020840151602082015260408401516040820152606084015160608201526080840151608082015260a084015160a082015260c084015160c082015260e084015160e0820152505092915050565b6008811061118457600080fd5b600060808284031215612a4e57600080fd5b612a56611c17565b90508151612a6381612a2f565b81526020820151612a73816121b2565b60208201526040820151612a86816121b2565b6040820152606082015161230a816121b2565b600060208284031215612aab57600080fd5b81516001600160401b0380821115612ac257600080fd5b908301906101c08286031215612ad757600080fd5b612adf611c17565b825182811115612aee57600080fd5b830160c08188031215612b0057600080fd5b612b08611c39565b8151612b1381611cd0565b81526020820151612b2381611cd0565b60208201526040820151612b3681611cd0565b6040820152612b47606083016122a2565b6060820152612b58608083016122a2565b608082015260a082015184811115612b6f57600080fd5b612b7b8982850161293c565b60a083015250825250612b9186602085016129a0565b6020820152612ba4866101208501612a3c565b60408201526101a083015182811115612bbc57600080fd5b612bc8878286016123b2565b60608301525095945050505050565b634e487b7160e01b600052602160045260246000fd5b60088110612c0b57634e487b7160e01b600052602160045260246000fd5b9052565b612c1a828251612bed565b6020810151151560208301526040810151151560408301526060810151151560608301525050565b80516101c080845281516001600160a01b0390811691850191909152602082015181166101e0850152604082015181166102008501526060820151811661022085015260808201511661024084015260a0015160c0610260840152600090612cae6102808501826125c4565b90506020830151612d0b6020860182805182526020810151602083015260408101516040830152606081015160608301526080810151608083015260a081015160a083015260c081015160c083015260e081015160e08301525050565b506040830151612d1f610120860182612c0f565b5060608301518482036101a08601526125bb828261208f565b828152604060208201526000612d516040830184612c42565b949350505050565b85815284602082015283604082015282606082015260a060808201526000612d8460a0830184612c42565b979650505050505050565b8035611cf081612a2f565b600060208284031215612dac57600080fd5b813561177981612a2f565b6000808335601e19843603018112612dce57600080fd5b83016020810192503590506001600160401b03811115612ded57600080fd5b8060051b3603821315612dff57600080fd5b9250929050565b8183526000602080850194508260005b858110156125fd578135612e2981611cd0565b6001600160a01b031687529582019590820190600101612e16565b6001600160a01b03838116825260406020830152600090833536859003609e19018112612e7057600080fd5b84810190506101408060408601528135612e8981611cd0565b83166101808601526020820135612e9f81611cd0565b83166101a08601526040820135612eb581611cd0565b83166101c08601526060820135612ecb81611cd0565b83166101e0860152612ee06080830183612db7565b9350915060a0610200860152612efb61022086018484612e06565b9250612f426060860160208801803582526020810135602083015260408101356040830152606081013560608301526080810135608083015260a081013560a08301525050565b612f4e60e08701612d8f565b9150610120612f5f81870184612bed565b612f6c61010088016121c0565b801515878401529250612f808188016121c0565b92505050612f9361016085018215159052565b50949350505050565b6000808335601e19843603018112612fb357600080fd5b8301803591506001600160401b03821115612fcd57600080fd5b602001915036819003821315612dff57600080fd5b8183823760009101908152919050565b60006020828403121561300457600080fd5b81516001600160401b0381111561301a57600080fd5b8201601f8101841361302b57600080fd5b612d5184825160208401612364565b602081526000611779602083018461208f565b6001600160a01b039384168152919092166020820152604081019190915260600190565b6001600160a01b039586168152938516602085015291841660408401529092166060820152608081019190915260a00190565b6001600160a01b03929092168252602082015260400190565b6000602082840312156130cf57600080fd5b815161177981611cd0565b600082516130ec81846020870161206b565b9190910192915050565b60006020828403121561310857600080fd5b8151611779816121b256fea26469706673582212208e65ba4b888ffa84fba7fdc152856fb599c8d7ec38f7d97fc0ebb4048d4ab90964736f6c63430008100033",
  "linkReferences": {},
  "deployedLinkReferences": {}
}