{
  "_format": "hh-sol-artifact-1",
  "contractName": "ExchangeRouter",
  "sourceName": "contracts/router/ExchangeRouter.sol",
  "abi": [
    {
      "inputs": [
        {
          "internalType": "contract Router",
          "name": "_router",
          "type": "address"
        },
        {
          "internalType": "contract RoleStore",
          "name": "_roleStore",
          "type": "address"
        },
        {
          "internalType": "contract DataStore",
          "name": "_dataStore",
          "type": "address"
        },
        {
          "internalType": "contract EventEmitter",
          "name": "_eventEmitter",
          "type": "address"
        },
        {
          "internalType": "contract DepositHandler",
          "name": "_depositHandler",
          "type": "address"
        },
        {
          "internalType": "contract WithdrawalHandler",
          "name": "_withdrawalHandler",
          "type": "address"
        },
        {
          "internalType": "contract OrderHandler",
          "name": "_orderHandler",
          "type": "address"
        }
      ],
      "stateMutability": "nonpayable",
      "type": "constructor"
    },
    {
      "inputs": [
        {
          "internalType": "uint256",
          "name": "adjustedClaimableAmount",
          "type": "uint256"
        },
        {
          "internalType": "uint256",
          "name": "claimedAmount",
          "type": "uint256"
        }
      ],
      "name": "CollateralAlreadyClaimed",
      "type": "error"
    },
    {
      "inputs": [],
      "name": "EmptyDeposit",
      "type": "error"
    },
    {
      "inputs": [],
      "name": "EmptyHoldingAddress",
      "type": "error"
    },
    {
      "inputs": [],
      "name": "EmptyOrder",
      "type": "error"
    },
    {
      "inputs": [],
      "name": "EmptyReceiver",
      "type": "error"
    },
    {
      "inputs": [
        {
          "internalType": "address",
          "name": "token",
          "type": "address"
        }
      ],
      "name": "EmptyTokenTranferGasLimit",
      "type": "error"
    },
    {
      "inputs": [
        {
          "internalType": "uint256",
          "name": "marketsLength",
          "type": "uint256"
        },
        {
          "internalType": "uint256",
          "name": "tokensLength",
          "type": "uint256"
        }
      ],
      "name": "InvalidClaimAffiliateRewardsInput",
      "type": "error"
    },
    {
      "inputs": [
        {
          "internalType": "uint256",
          "name": "marketsLength",
          "type": "uint256"
        },
        {
          "internalType": "uint256",
          "name": "tokensLength",
          "type": "uint256"
        },
        {
          "internalType": "uint256",
          "name": "timeKeysLength",
          "type": "uint256"
        }
      ],
      "name": "InvalidClaimCollateralInput",
      "type": "error"
    },
    {
      "inputs": [
        {
          "internalType": "uint256",
          "name": "marketsLength",
          "type": "uint256"
        },
        {
          "internalType": "uint256",
          "name": "tokensLength",
          "type": "uint256"
        }
      ],
      "name": "InvalidClaimFundingFeesInput",
      "type": "error"
    },
    {
      "inputs": [
        {
          "internalType": "address",
          "name": "token",
          "type": "address"
        },
        {
          "internalType": "address",
          "name": "receiver",
          "type": "address"
        },
        {
          "internalType": "uint256",
          "name": "amount",
          "type": "uint256"
        }
      ],
      "name": "TokenTransferError",
      "type": "error"
    },
    {
      "inputs": [
        {
          "internalType": "address",
          "name": "msgSender",
          "type": "address"
        },
        {
          "internalType": "string",
          "name": "role",
          "type": "string"
        }
      ],
      "name": "Unauthorized",
      "type": "error"
    },
    {
      "inputs": [
        {
          "internalType": "bytes32",
          "name": "key",
          "type": "bytes32"
        }
      ],
      "name": "cancelDeposit",
      "outputs": [],
      "stateMutability": "payable",
      "type": "function"
    },
    {
      "inputs": [
        {
          "internalType": "bytes32",
          "name": "key",
          "type": "bytes32"
        }
      ],
      "name": "cancelOrder",
      "outputs": [],
      "stateMutability": "payable",
      "type": "function"
    },
    {
      "inputs": [
        {
          "internalType": "bytes32",
          "name": "key",
          "type": "bytes32"
        }
      ],
      "name": "cancelWithdrawal",
      "outputs": [],
      "stateMutability": "payable",
      "type": "function"
    },
    {
      "inputs": [
        {
          "internalType": "address[]",
          "name": "markets",
          "type": "address[]"
        },
        {
          "internalType": "address[]",
          "name": "tokens",
          "type": "address[]"
        },
        {
          "internalType": "address",
          "name": "receiver",
          "type": "address"
        }
      ],
      "name": "claimAffiliateRewards",
      "outputs": [],
      "stateMutability": "payable",
      "type": "function"
    },
    {
      "inputs": [
        {
          "internalType": "address[]",
          "name": "markets",
          "type": "address[]"
        },
        {
          "internalType": "address[]",
          "name": "tokens",
          "type": "address[]"
        },
        {
          "internalType": "uint256[]",
          "name": "timeKeys",
          "type": "uint256[]"
        },
        {
          "internalType": "address",
          "name": "receiver",
          "type": "address"
        }
      ],
      "name": "claimCollateral",
      "outputs": [],
      "stateMutability": "payable",
      "type": "function"
    },
    {
      "inputs": [
        {
          "internalType": "address[]",
          "name": "markets",
          "type": "address[]"
        },
        {
          "internalType": "address[]",
          "name": "tokens",
          "type": "address[]"
        },
        {
          "internalType": "address",
          "name": "receiver",
          "type": "address"
        }
      ],
      "name": "claimFundingFees",
      "outputs": [],
      "stateMutability": "payable",
      "type": "function"
    },
    {
      "inputs": [
        {
          "components": [
            {
              "internalType": "address",
              "name": "receiver",
              "type": "address"
            },
            {
              "internalType": "address",
              "name": "callbackContract",
              "type": "address"
            },
            {
              "internalType": "address",
              "name": "market",
              "type": "address"
            },
            {
              "internalType": "address",
              "name": "initialLongToken",
              "type": "address"
            },
            {
              "internalType": "address",
              "name": "initialShortToken",
              "type": "address"
            },
            {
              "internalType": "address[]",
              "name": "longTokenSwapPath",
              "type": "address[]"
            },
            {
              "internalType": "address[]",
              "name": "shortTokenSwapPath",
              "type": "address[]"
            },
            {
              "internalType": "uint256",
              "name": "minMarketTokens",
              "type": "uint256"
            },
            {
              "internalType": "bool",
              "name": "shouldUnwrapNativeToken",
              "type": "bool"
            },
            {
              "internalType": "uint256",
              "name": "executionFee",
              "type": "uint256"
            },
            {
              "internalType": "uint256",
              "name": "callbackGasLimit",
              "type": "uint256"
            }
          ],
          "internalType": "struct DepositUtils.CreateDepositParams",
          "name": "params",
          "type": "tuple"
        }
      ],
      "name": "createDeposit",
      "outputs": [
        {
          "internalType": "bytes32",
          "name": "",
          "type": "bytes32"
        }
      ],
      "stateMutability": "payable",
      "type": "function"
    },
    {
      "inputs": [
        {
          "components": [
            {
              "components": [
                {
                  "internalType": "address",
                  "name": "receiver",
                  "type": "address"
                },
                {
                  "internalType": "address",
                  "name": "callbackContract",
                  "type": "address"
                },
                {
                  "internalType": "address",
                  "name": "market",
                  "type": "address"
                },
                {
                  "internalType": "address",
                  "name": "initialCollateralToken",
                  "type": "address"
                },
                {
                  "internalType": "address[]",
                  "name": "swapPath",
                  "type": "address[]"
                }
              ],
              "internalType": "struct BaseOrderUtils.CreateOrderParamsAddresses",
              "name": "addresses",
              "type": "tuple"
            },
            {
              "components": [
                {
                  "internalType": "uint256",
                  "name": "sizeDeltaUsd",
                  "type": "uint256"
                },
                {
                  "internalType": "uint256",
                  "name": "initialCollateralDeltaAmount",
                  "type": "uint256"
                },
                {
                  "internalType": "uint256",
                  "name": "triggerPrice",
                  "type": "uint256"
                },
                {
                  "internalType": "uint256",
                  "name": "acceptablePrice",
                  "type": "uint256"
                },
                {
                  "internalType": "uint256",
                  "name": "executionFee",
                  "type": "uint256"
                },
                {
                  "internalType": "uint256",
                  "name": "callbackGasLimit",
                  "type": "uint256"
                },
                {
                  "internalType": "uint256",
                  "name": "minOutputAmount",
                  "type": "uint256"
                }
              ],
              "internalType": "struct BaseOrderUtils.CreateOrderParamsNumbers",
              "name": "numbers",
              "type": "tuple"
            },
            {
              "internalType": "enum Order.OrderType",
              "name": "orderType",
              "type": "uint8"
            },
            {
              "internalType": "enum Order.DecreasePositionSwapType",
              "name": "decreasePositionSwapType",
              "type": "uint8"
            },
            {
              "internalType": "bool",
              "name": "isLong",
              "type": "bool"
            },
            {
              "internalType": "bool",
              "name": "shouldUnwrapNativeToken",
              "type": "bool"
            },
            {
              "internalType": "bytes32",
              "name": "referralCode",
              "type": "bytes32"
            }
          ],
          "internalType": "struct BaseOrderUtils.CreateOrderParams",
          "name": "params",
          "type": "tuple"
        }
      ],
      "name": "createOrder",
      "outputs": [
        {
          "internalType": "bytes32",
          "name": "",
          "type": "bytes32"
        }
      ],
      "stateMutability": "payable",
      "type": "function"
    },
    {
      "inputs": [
        {
          "components": [
            {
              "internalType": "address",
              "name": "receiver",
              "type": "address"
            },
            {
              "internalType": "address",
              "name": "callbackContract",
              "type": "address"
            },
            {
              "internalType": "address",
              "name": "market",
              "type": "address"
            },
            {
              "internalType": "address[]",
              "name": "longTokenSwapPath",
              "type": "address[]"
            },
            {
              "internalType": "address[]",
              "name": "shortTokenSwapPath",
              "type": "address[]"
            },
            {
              "internalType": "uint256",
              "name": "marketTokenAmount",
              "type": "uint256"
            },
            {
              "internalType": "uint256",
              "name": "minLongTokenAmount",
              "type": "uint256"
            },
            {
              "internalType": "uint256",
              "name": "minShortTokenAmount",
              "type": "uint256"
            },
            {
              "internalType": "bool",
              "name": "shouldUnwrapNativeToken",
              "type": "bool"
            },
            {
              "internalType": "uint256",
              "name": "executionFee",
              "type": "uint256"
            },
            {
              "internalType": "uint256",
              "name": "callbackGasLimit",
              "type": "uint256"
            }
          ],
          "internalType": "struct WithdrawalUtils.CreateWithdrawalParams",
          "name": "params",
          "type": "tuple"
        }
      ],
      "name": "createWithdrawal",
      "outputs": [
        {
          "internalType": "bytes32",
          "name": "",
          "type": "bytes32"
        }
      ],
      "stateMutability": "payable",
      "type": "function"
    },
    {
      "inputs": [],
      "name": "dataStore",
      "outputs": [
        {
          "internalType": "contract DataStore",
          "name": "",
          "type": "address"
        }
      ],
      "stateMutability": "view",
      "type": "function"
    },
    {
      "inputs": [],
      "name": "depositHandler",
      "outputs": [
        {
          "internalType": "contract DepositHandler",
          "name": "",
          "type": "address"
        }
      ],
      "stateMutability": "view",
      "type": "function"
    },
    {
      "inputs": [],
      "name": "eventEmitter",
      "outputs": [
        {
          "internalType": "contract EventEmitter",
          "name": "",
          "type": "address"
        }
      ],
      "stateMutability": "view",
      "type": "function"
    },
    {
      "inputs": [
        {
          "internalType": "bytes[]",
          "name": "data",
          "type": "bytes[]"
        }
      ],
      "name": "multicall",
      "outputs": [
        {
          "internalType": "bytes[]",
          "name": "results",
          "type": "bytes[]"
        }
      ],
      "stateMutability": "payable",
      "type": "function"
    },
    {
      "inputs": [],
      "name": "orderHandler",
      "outputs": [
        {
          "internalType": "contract OrderHandler",
          "name": "",
          "type": "address"
        }
      ],
      "stateMutability": "view",
      "type": "function"
    },
    {
      "inputs": [],
      "name": "roleStore",
      "outputs": [
        {
          "internalType": "contract RoleStore",
          "name": "",
          "type": "address"
        }
      ],
      "stateMutability": "view",
      "type": "function"
    },
    {
      "inputs": [],
      "name": "router",
      "outputs": [
        {
          "internalType": "contract Router",
          "name": "",
          "type": "address"
        }
      ],
      "stateMutability": "view",
      "type": "function"
    },
    {
      "inputs": [
        {
          "internalType": "address",
          "name": "token",
          "type": "address"
        },
        {
          "internalType": "address",
          "name": "receiver",
          "type": "address"
        },
        {
          "internalType": "uint256",
          "name": "amount",
          "type": "uint256"
        }
      ],
      "name": "sendTokens",
      "outputs": [],
      "stateMutability": "payable",
      "type": "function"
    },
    {
      "inputs": [
        {
          "internalType": "address",
          "name": "receiver",
          "type": "address"
        },
        {
          "internalType": "uint256",
          "name": "amount",
          "type": "uint256"
        }
      ],
      "name": "sendWnt",
      "outputs": [],
      "stateMutability": "payable",
      "type": "function"
    },
    {
      "inputs": [
        {
          "internalType": "bytes32",
          "name": "key",
          "type": "bytes32"
        },
        {
          "components": [
            {
              "internalType": "address[]",
              "name": "primaryTokens",
              "type": "address[]"
            },
            {
              "components": [
                {
                  "internalType": "uint256",
                  "name": "min",
                  "type": "uint256"
                },
                {
                  "internalType": "uint256",
                  "name": "max",
                  "type": "uint256"
                }
              ],
              "internalType": "struct Price.Props[]",
              "name": "primaryPrices",
              "type": "tuple[]"
            },
            {
              "internalType": "address[]",
              "name": "secondaryTokens",
              "type": "address[]"
            },
            {
              "components": [
                {
                  "internalType": "uint256",
                  "name": "min",
                  "type": "uint256"
                },
                {
                  "internalType": "uint256",
                  "name": "max",
                  "type": "uint256"
                }
              ],
              "internalType": "struct Price.Props[]",
              "name": "secondaryPrices",
              "type": "tuple[]"
            }
          ],
          "internalType": "struct OracleUtils.SimulatePricesParams",
          "name": "simulatedOracleParams",
          "type": "tuple"
        }
      ],
      "name": "simulateExecuteDeposit",
      "outputs": [],
      "stateMutability": "payable",
      "type": "function"
    },
    {
      "inputs": [
        {
          "internalType": "bytes32",
          "name": "key",
          "type": "bytes32"
        },
        {
          "components": [
            {
              "internalType": "address[]",
              "name": "primaryTokens",
              "type": "address[]"
            },
            {
              "components": [
                {
                  "internalType": "uint256",
                  "name": "min",
                  "type": "uint256"
                },
                {
                  "internalType": "uint256",
                  "name": "max",
                  "type": "uint256"
                }
              ],
              "internalType": "struct Price.Props[]",
              "name": "primaryPrices",
              "type": "tuple[]"
            },
            {
              "internalType": "address[]",
              "name": "secondaryTokens",
              "type": "address[]"
            },
            {
              "components": [
                {
                  "internalType": "uint256",
                  "name": "min",
                  "type": "uint256"
                },
                {
                  "internalType": "uint256",
                  "name": "max",
                  "type": "uint256"
                }
              ],
              "internalType": "struct Price.Props[]",
              "name": "secondaryPrices",
              "type": "tuple[]"
            }
          ],
          "internalType": "struct OracleUtils.SimulatePricesParams",
          "name": "simulatedOracleParams",
          "type": "tuple"
        }
      ],
      "name": "simulateExecuteOrder",
      "outputs": [],
      "stateMutability": "payable",
      "type": "function"
    },
    {
      "inputs": [
        {
          "internalType": "bytes32",
          "name": "key",
          "type": "bytes32"
        },
        {
          "components": [
            {
              "internalType": "address[]",
              "name": "primaryTokens",
              "type": "address[]"
            },
            {
              "components": [
                {
                  "internalType": "uint256",
                  "name": "min",
                  "type": "uint256"
                },
                {
                  "internalType": "uint256",
                  "name": "max",
                  "type": "uint256"
                }
              ],
              "internalType": "struct Price.Props[]",
              "name": "primaryPrices",
              "type": "tuple[]"
            },
            {
              "internalType": "address[]",
              "name": "secondaryTokens",
              "type": "address[]"
            },
            {
              "components": [
                {
                  "internalType": "uint256",
                  "name": "min",
                  "type": "uint256"
                },
                {
                  "internalType": "uint256",
                  "name": "max",
                  "type": "uint256"
                }
              ],
              "internalType": "struct Price.Props[]",
              "name": "secondaryPrices",
              "type": "tuple[]"
            }
          ],
          "internalType": "struct OracleUtils.SimulatePricesParams",
          "name": "simulatedOracleParams",
          "type": "tuple"
        }
      ],
      "name": "simulateExecuteWithdrawal",
      "outputs": [],
      "stateMutability": "payable",
      "type": "function"
    },
    {
      "inputs": [
        {
          "internalType": "bytes32",
          "name": "key",
          "type": "bytes32"
        },
        {
          "internalType": "uint256",
          "name": "sizeDeltaUsd",
          "type": "uint256"
        },
        {
          "internalType": "uint256",
          "name": "acceptablePrice",
          "type": "uint256"
        },
        {
          "internalType": "uint256",
          "name": "triggerPrice",
          "type": "uint256"
        },
        {
          "internalType": "uint256",
          "name": "minOutputAmount",
          "type": "uint256"
        }
      ],
      "name": "updateOrder",
      "outputs": [],
      "stateMutability": "payable",
      "type": "function"
    },
    {
      "inputs": [],
      "name": "withdrawalHandler",
      "outputs": [
        {
          "internalType": "contract WithdrawalHandler",
          "name": "",
          "type": "address"
        }
      ],
      "stateMutability": "view",
      "type": "function"
    }
  ],
  "bytecode": "0x6101606040523480156200001257600080fd5b5060405162003c9e38038062003c9e83398101604081905262000035916200008a565b60016000556001600160a01b0395861660805295851660a05292841660c05290831660e052821661010052811661012052166101405262000135565b6001600160a01b03811681146200008757600080fd5b50565b600080600080600080600060e0888a031215620000a657600080fd5b8751620000b38162000071565b6020890151909750620000c68162000071565b6040890151909650620000d98162000071565b6060890151909550620000ec8162000071565b6080890151909450620000ff8162000071565b60a0890151909350620001128162000071565b60c0890151909250620001258162000071565b8091505092959891949750929550565b60805160a05160c05160e051610100516101205161014051613a746200022a600039600081816103090152818161060f01528181610a3201528181610cd80152610eb70152600081816101270152818161088701528181610b0f015261102301526000818161024d015281816105630152818161109c0152611312015260008181610281015281816106c801528181610f79015261124e0152600081816101e001528181610445015281816106a7015281816107980152818161091601528181610a9e01528181610bed01528181610f58015261122d0152600081816103af015261113a015260006101ac0152613a746000f3fe6080604052600436106101105760003560e01c80632c2f3c0714610115578063314044841461015f5780633bc4de561461017457806349287a22146101875780634a4a7b041461019a578063660d0d67146101ce5780637213c5a0146102025780637489ec23146102155780637d39aaf1146102285780639c8b2cfb1461023b5780639ff78c301461026f578063a6cc89eb146102a3578063aab286f8146102c4578063ac9650d8146102d7578063b5848305146102f7578063b9606fef1461032b578063c41b1ab31461033e578063ca18d49014610351578063da0c7ce114610364578063e6d66ac814610377578063e9249b571461038a578063f887ea401461039d578063fac77c70146103d1575b600080fd5b34801561012157600080fd5b506101497f000000000000000000000000000000000000000000000000000000000000000081565b6040516101569190612333565b60405180910390f35b61017261016d366004612347565b6103e4565b005b6101726101823660046125b5565b6105d1565b610172610195366004612699565b610646565b3480156101a657600080fd5b506101497f000000000000000000000000000000000000000000000000000000000000000081565b3480156101da57600080fd5b506101497f000000000000000000000000000000000000000000000000000000000000000081565b610172610210366004612347565b610740565b610172610223366004612347565b6108be565b610172610236366004612710565b610a69565b34801561024757600080fd5b506101497f000000000000000000000000000000000000000000000000000000000000000081565b34801561027b57600080fd5b506101497f000000000000000000000000000000000000000000000000000000000000000081565b6102b66102b1366004612755565b610acd565b604051908152602001610156565b6101726102d2366004612791565b610b95565b6102ea6102e53660046127cc565b610d56565b6040516101569190612890565b34801561030357600080fd5b506101497f000000000000000000000000000000000000000000000000000000000000000081565b6102b66103393660046128f2565b610e75565b61017261034c366004612699565b610eee565b61017261035f3660046125b5565b610fe5565b6102b6610372366004612755565b61105a565b610172610385366004612934565b6110d3565b610172610398366004612975565b6111a3565b3480156103a957600080fd5b506101497f000000000000000000000000000000000000000000000000000000000000000081565b6101726103df3660046125b5565b6112d4565b60026000540361040f5760405162461bcd60e51b815260040161040690612a63565b60405180910390fd5b6002600090815560405163fdfc26f360e01b815273__$b63e253a228f0e32f671cc49c7fc32477c$__9063fdfc26f39061046f907f0000000000000000000000000000000000000000000000000000000000000000908690600401612a9a565b600060405180830381865af415801561048c573d6000803e3d6000fd5b505050506040513d6000823e601f3d908101601f191682016040526104b49190810190612bd7565b905060006104c182515190565b6001600160a01b0316036104e8576040516395b66fe960e01b815260040160405180910390fd5b336104f282515190565b6001600160a01b03161461054d576040805163a35b150b60e01b8152336004820152602481019190915260196044820152781858d8dbdd5b9d08199bdc8818d85b98d95b11195c1bdcda5d603a1b6064820152608401610406565b604051630c50112160e21b8152600481018390527f00000000000000000000000000000000000000000000000000000000000000006001600160a01b0316906331404484906024015b600060405180830381600087803b1580156105b057600080fd5b505af11580156105c4573d6000803e3d6000fd5b5050600160005550505050565b6002600054036105f35760405162461bcd60e51b815260040161040690612a63565b6002600055604051631de26f2b60e11b81526001600160a01b037f00000000000000000000000000000000000000000000000000000000000000001690633bc4de56906105969085908590600401612daf565b6002600054036106685760405162461bcd60e51b815260040161040690612a63565b600260005581518351146106955782518251604051635b3043dd60e01b8152600401610406929190612e34565b3360005b8451811015610734576107227f00000000000000000000000000000000000000000000000000000000000000007f00000000000000000000000000000000000000000000000000000000000000008784815181106106f9576106f9612e42565b602002602001015187858151811061071357610713612e42565b60200260200101518688611349565b8061072c81612e6e565b915050610699565b50506001600055505050565b6002600054036107625760405162461bcd60e51b815260040161040690612a63565b6002600090815560405163fdfc26f360e01b815273__$3dc24d71d6ebafc0c4ce8ac2f69cd1548a$__9063fdfc26f3906107c2907f0000000000000000000000000000000000000000000000000000000000000000908690600401612a9a565b600060405180830381865af41580156107df573d6000803e3d6000fd5b505050506040513d6000823e601f3d908101601f191682016040526108079190810190612e87565b90503361081382515190565b6001600160a01b031614610871576040805163a35b150b60e01b81523360048201526024810191909152601c60448201527b1858d8dbdd5b9d08199bdc8818d85b98d95b15da5d1a191c985dd85b60221b6064820152608401610406565b6040516303909e2d60e51b8152600481018390527f00000000000000000000000000000000000000000000000000000000000000006001600160a01b031690637213c5a090602401610596565b6002600054036108e05760405162461bcd60e51b815260040161040690612a63565b6002600090815560405163fdfc26f360e01b815273__$9dcb75ef0bb6c4288f2ccffe7dc492c4eb$__9063fdfc26f390610940907f0000000000000000000000000000000000000000000000000000000000000000908690600401612a9a565b600060405180830381865af415801561095d573d6000803e3d6000fd5b505050506040513d6000823e601f3d908101601f1916820160405261098591908101906130c4565b9050600061099282515190565b6001600160a01b0316036109b957604051631630779760e01b815260040160405180910390fd5b336109c382515190565b6001600160a01b031614610a1c576040805163a35b150b60e01b81523360048201526024810191909152601760448201527630b1b1b7bab73a103337b91031b0b731b2b627b93232b960491b6064820152608401610406565b604051637489ec2360e01b8152600481018390527f00000000000000000000000000000000000000000000000000000000000000006001600160a01b031690637489ec2390602401610596565b600260005403610a8b5760405162461bcd60e51b815260040161040690612a63565b6002600055610a9982611518565b610ac47f00000000000000000000000000000000000000000000000000000000000000008383611542565b50506001600055565b6000600260005403610af15760405162461bcd60e51b815260040161040690612a63565b6002600055604051630527e11d60e31b815233906001600160a01b037f0000000000000000000000000000000000000000000000000000000000000000169063293f08e890610b469084908790600401613260565b6020604051808303816000875af1158015610b65573d6000803e3d6000fd5b505050506040513d601f19601f82011682018060405250810190610b899190613370565b60016000559392505050565b600260005403610bb75760405162461bcd60e51b815260040161040690612a63565b6002600090815560405163fdfc26f360e01b815273__$9dcb75ef0bb6c4288f2ccffe7dc492c4eb$__9063fdfc26f390610c17907f0000000000000000000000000000000000000000000000000000000000000000908a90600401612a9a565b600060405180830381865af4158015610c34573d6000803e3d6000fd5b505050506040513d6000823e601f3d908101601f19168201604052610c5c91908101906130c4565b905033610c6882515190565b6001600160a01b031614610cc1576040805163a35b150b60e01b81523360048201526024810191909152601760448201527630b1b1b7bab73a103337b9103ab83230ba32a7b93232b960491b6064820152608401610406565b604051633df858a360e01b81526001600160a01b037f00000000000000000000000000000000000000000000000000000000000000001690633df858a390610d1790899089908990899089908990600401613439565b600060405180830381600087803b158015610d3157600080fd5b505af1158015610d45573d6000803e3d6000fd5b505060016000555050505050505050565b6060816001600160401b03811115610d7057610d70612360565b604051908082528060200260200182016040528015610da357816020015b6060815260200190600190039081610d8e5790505b50905060005b82811015610e6d5760008030868685818110610dc757610dc7612e42565b9050602002810190610dd99190613515565b604051610de792919061355b565b600060405180830381855af49150503d8060008114610e22576040519150601f19603f3d011682016040523d82523d6000602084013e610e27565b606091505b509150915081610e3a57610e3a816115cb565b80848481518110610e4d57610e4d612e42565b602002602001018190525050508080610e6590612e6e565b915050610da9565b505b92915050565b6000600260005403610e995760405162461bcd60e51b815260040161040690612a63565b6002600055604051630ce7660560e01b815233906001600160a01b037f00000000000000000000000000000000000000000000000000000000000000001690630ce7660590610b469084908790600401613609565b600260005403610f105760405162461bcd60e51b815260040161040690612a63565b60026000558151835114610f3d5782518251604051637363cfa560e01b8152600401610406929190612e34565b610f4681611518565b3360005b845181101561073457610fd37f00000000000000000000000000000000000000000000000000000000000000007f0000000000000000000000000000000000000000000000000000000000000000878481518110610faa57610faa612e42565b6020026020010151878581518110610fc457610fc4612e42565b60200260200101518688611609565b80610fdd81612e6e565b915050610f4a565b6002600054036110075760405162461bcd60e51b815260040161040690612a63565b6002600055604051630ca18d4960e41b81526001600160a01b037f0000000000000000000000000000000000000000000000000000000000000000169063ca18d490906105969085908590600401612daf565b600060026000540361107e5760405162461bcd60e51b815260040161040690612a63565b6002600055604051630ff7831560e31b815233906001600160a01b037f00000000000000000000000000000000000000000000000000000000000000001690637fbc18a890610b469084908790600401613729565b6002600054036110f55760405162461bcd60e51b815260040161040690612a63565b600260005561110382611518565b6040516303704f0f60e31b81526001600160a01b0384811660048301523360248301819052848216604484015260648301849052917f000000000000000000000000000000000000000000000000000000000000000090911690631b82787890608401600060405180830381600087803b15801561118057600080fd5b505af1158015611194573d6000803e3d6000fd5b50506001600055505050505050565b6002600054036111c55760405162461bcd60e51b815260040161040690612a63565b6002600055825184511415806111dd57508151835114155b156112125783518351835160405163216068f960e11b8152600481019390935260248301919091526044820152606401610406565b61121b81611518565b3360005b85518110156105c4576112c27f00000000000000000000000000000000000000000000000000000000000000007f000000000000000000000000000000000000000000000000000000000000000088848151811061127f5761127f612e42565b602002602001015188858151811061129957611299612e42565b60200260200101518886815181106112b3576112b3612e42565b6020026020010151878961179e565b806112cc81612e6e565b91505061121f565b6002600054036112f65760405162461bcd60e51b815260040161040690612a63565b6002600055604051630fac77c760e41b81526001600160a01b037f0000000000000000000000000000000000000000000000000000000000000000169063fac77c70906105969085908590600401612daf565b6000611356858585611ade565b60405163bd02d0f560e01b8152600481018290529091506000906001600160a01b0389169063bd02d0f590602401602060405180830381865afa1580156113a1573d6000803e3d6000fd5b505050506040513d601f19601f820116820180604052508101906113c59190613370565b604051637152429d60e11b81529091506001600160a01b0389169063e2a4853a906113f7908590600090600401612e34565b6020604051808303816000875af1158015611416573d6000803e3d6000fd5b505050506040513d601f19601f8201168201806040525081019061143a9190613370565b5060405163078d3b7960e01b81526001600160a01b0387169063078d3b799061146b90889087908690600401613854565b600060405180830381600087803b15801561148557600080fd5b505af1158015611499573d6000803e3d6000fd5b505060405163aa1fcbb960e01b815273__$c5242c1b4d0e7cbc87936b604afb77fd42$__925063aa1fcbb991506114de908a908a908a908a908a908990600401613878565b60006040518083038186803b1580156114f657600080fd5b505af415801561150a573d6000803e3d6000fd5b505050505050505050505050565b6001600160a01b03811661153f5760405163d551823d60e01b815260040160405180910390fd5b50565b8060000361154f57505050565b61155882611518565b600061156384611b73565b9050806001600160a01b031663d0e30db0836040518263ffffffff1660e01b81526004016000604051808303818588803b1580156115a057600080fd5b505af11580156115b4573d6000803e3d6000fd5b50505050506115c584828585611c20565b50505050565b6000806115d783611e56565b9150915080156115fb578160405162461bcd60e51b815260040161040691906138b3565b61160483611ee6565b505050565b6000611616858585611eef565b60405163bd02d0f560e01b8152600481018290529091506000906001600160a01b0389169063bd02d0f590602401602060405180830381865afa158015611661573d6000803e3d6000fd5b505050506040513d601f19601f820116820180604052508101906116859190613370565b604051637152429d60e11b81529091506001600160a01b0389169063e2a4853a906116b7908590600090600401612e34565b6020604051808303816000875af11580156116d6573d6000803e3d6000fd5b505050506040513d601f19601f820116820180604052508101906116fa9190613370565b5060405163078d3b7960e01b81526001600160a01b0387169063078d3b799061172b90889087908690600401613854565b600060405180830381600087803b15801561174557600080fd5b505af1158015611759573d6000803e3d6000fd5b50506040516305d7953560e01b815273__$c1eebf06e53d0bd092f667687cf73e1ebf$__92506305d7953591506114de908a908a908a908a908a908990600401613878565b6000876001600160a01b031663bd02d0f56117bb88888888611f2d565b6040518263ffffffff1660e01b81526004016117d991815260200190565b602060405180830381865afa1580156117f6573d6000803e3d6000fd5b505050506040513d601f19601f8201168201806040525081019061181a9190613370565b90506000886001600160a01b031663bd02d0f561183989898989611fd5565b6040518263ffffffff1660e01b815260040161185791815260200190565b602060405180830381865afa158015611874573d6000803e3d6000fd5b505050506040513d601f19601f820116820180604052508101906118989190613370565b90506000896001600160a01b031663bd02d0f56118b78a8a8a8a612016565b6040518263ffffffff1660e01b81526004016118d591815260200190565b602060405180830381865afa1580156118f2573d6000803e3d6000fd5b505050506040513d601f19601f820116820180604052508101906119169190613370565b905060006119248484612055565b905081811161194a578082604051631d8db13960e31b8152600401610406929190612e34565b600061195683836138c6565b90508b6001600160a01b031663e2a4853a6119738c8c8c8c612016565b846040518363ffffffff1660e01b8152600401611991929190612e34565b6020604051808303816000875af11580156119b0573d6000803e3d6000fd5b505050506040513d601f19601f820116820180604052508101906119d49190613370565b5060405163078d3b7960e01b81526001600160a01b038b169063078d3b7990611a05908c908a908690600401613854565b600060405180830381600087803b158015611a1f57600080fd5b505af1158015611a33573d6000803e3d6000fd5b505060405163420348a760e01b81526001600160a01b03808f166004830152808e166024830152808d166044830152606482018c9052808b166084830152891660a482015260c4810184905273__$c1eebf06e53d0bd092f667687cf73e1ebf$__925063420348a7915060e40160006040518083038186803b158015611ab857600080fd5b505af4158015611acc573d6000803e3d6000fd5b50505050505050505050505050505050565b6000604051602001611b149060208082526010908201526f10519192531250551157d49155d0549160821b604082015260600190565b60408051601f198184030181528282528051602091820120908301526001600160a01b038087169183019190915280851660608301528316608082015260a0016040516020818303038152906040528051906020012090509392505050565b6000816001600160a01b03166321f8a721604051602001611bab9060208082526003908201526215d39560ea1b604082015260600190565b604051602081830303815290604052805190602001206040518263ffffffff1660e01b8152600401611bdf91815260200190565b602060405180830381865afa158015611bfc573d6000803e3d6000fd5b505050506040513d601f19601f82011682018060405250810190610e6f91906138d9565b80156115c557611c2f82611518565b6000846001600160a01b031663bd02d0f5611c49866120f8565b6040518263ffffffff1660e01b8152600401611c6791815260200190565b602060405180830381865afa158015611c84573d6000803e3d6000fd5b505050506040513d601f19601f82011682018060405250810190611ca89190613370565b905080600003611ccd5783604051634fe14bfd60e11b81526004016104069190612333565b6000611cdb85858585612180565b5090508015611ceb5750506115c5565b6000866001600160a01b03166321f8a721604051602001611d2f906020808252600f908201526e484f4c44494e475f4144445245535360881b604082015260600190565b604051602081830303815290604052805190602001206040518263ffffffff1660e01b8152600401611d6391815260200190565b602060405180830381865afa158015611d80573d6000803e3d6000fd5b505050506040513d601f19601f82011682018060405250810190611da491906138d9565b90506001600160a01b038116611dcd57604051633a6de2f560e21b815260040160405180910390fd5b600080611ddc88848888612180565b915091508115611df05750505050506115c5565b6000611dfb82611e56565b5090507fc9f14d9a0a9b46470c7c0b6c508f8283abaab7f795f153953c58cd4250824dae8183604051611e2f9291906138f6565b60405180910390a188888860405163012f3b8f60e71b815260040161040693929190613854565b60606000604483511015611e7d575050604080516020810190915260008082529092909150565b6000611e8a846020015190565b90506307b9e43360e51b6001600160e01b0319821601611ec95760048401935083806020019051810190611ebe919061391b565b946001945092505050565b600060405180602001604052806000815250909250925050915091565b80518060208301fd5b6000604051602001611b149060208082526018908201527710d31052535050931157d1955391125391d7d05353d5539560421b604082015260600190565b6000604051602001611f6e906020808252601b908201527a10d31052535050931157d0d3d31310551154905317d05353d55395602a1b604082015260600190565b60408051601f198184030181528282528051602091820120908301526001600160a01b0380881691830191909152808616606083015260808201859052831660a082015260c001604051602081830303815290604052805190602001209050949350505050565b6000604051602001611f6e906020808252601b908201527a21a620a4a6a0a12622afa1a7a62620aa22a920a62fa320a1aa27a960291b604082015260600190565b6000604051602001611f6e9060208082526019908201527810d3105253515117d0d3d31310551154905317d05353d55395603a1b604082015260600190565b600080600061206485856122e8565b91509150811561208d5761208468327cb2734119d3b7a9601e1b826139c4565b92505050610e6f565b60008085871161209e5785876120a1565b86865b90925090506120c568056bc75e2d6310000068327cb2734119d3b7a9601e1b6139c4565b816120d968056bc75e2d63100000856139c4565b6120e391906139e6565b6120ed91906139c4565b979650505050505050565b6000604051602001612136906020808252601890820152771513d2d15397d514905394d1915497d1d054d7d31253525560421b604082015260600190565b60408051601f198184030181528282528051602091820120908301526001600160a01b03841690820152606001604051602081830303815290604052805190602001209050919050565b60006060600063a9059cbb60e01b86866040516024016121a1929190612a9a565b604051602081830303815290604052906001600160e01b0319166020820180516001600160e01b0383818316178352505050509050600080886001600160a01b031686846040516121f29190613a05565b60006040518083038160008787f1925050503d8060008114612230576040519150601f19603f3d011682016040523d82523d6000602084013e612235565b606091505b509150915081156122d6578051600003612293576001600160a01b0389163b6122935760006040518060400160405280601481526020017310d85b1b081d1bc81b9bdb8b58dbdb9d1c9858dd60621b815250945094505050506122df565b600081511180156122b55750808060200190518101906122b39190613a21565b155b156122c8576000945092506122df915050565b6001945092506122df915050565b60009450925050505b94509492505050565b600080836000036122ff575060019050600061232c565b83830283858281612312576123126139ae565b041461232557600080925092505061232c565b6001925090505b9250929050565b6001600160a01b0391909116815260200190565b60006020828403121561235957600080fd5b5035919050565b634e487b7160e01b600052604160045260246000fd5b604080519081016001600160401b038111828210171561239857612398612360565b60405290565b604051608081016001600160401b038111828210171561239857612398612360565b60405160c081016001600160401b038111828210171561239857612398612360565b604051606081016001600160401b038111828210171561239857612398612360565b60405161010081016001600160401b038111828210171561239857612398612360565b60405161014081016001600160401b038111828210171561239857612398612360565b604051601f8201601f191681016001600160401b038111828210171561247257612472612360565b604052919050565b60006001600160401b0382111561249357612493612360565b5060051b60200190565b6001600160a01b038116811461153f57600080fd5b80356124bd8161249d565b919050565b600082601f8301126124d357600080fd5b813560206124e86124e38361247a565b61244a565b82815260059290921b8401810191818101908684111561250757600080fd5b8286015b8481101561252b57803561251e8161249d565b835291830191830161250b565b509695505050505050565b600082601f83011261254757600080fd5b813560206125576124e38361247a565b82815260069290921b8401810191818101908684111561257657600080fd5b8286015b8481101561252b57604081890312156125935760008081fd5b61259b612376565b81358152848201358582015283529183019160400161257a565b600080604083850312156125c857600080fd5b8235915060208301356001600160401b03808211156125e657600080fd5b90840190608082870312156125fa57600080fd5b61260261239e565b82358281111561261157600080fd5b61261d888286016124c2565b82525060208301358281111561263257600080fd5b61263e88828601612536565b60208301525060408301358281111561265657600080fd5b612662888286016124c2565b60408301525060608301358281111561267a57600080fd5b61268688828601612536565b6060830152508093505050509250929050565b6000806000606084860312156126ae57600080fd5b83356001600160401b03808211156126c557600080fd5b6126d1878388016124c2565b945060208601359150808211156126e757600080fd5b506126f4868287016124c2565b92505060408401356127058161249d565b809150509250925092565b6000806040838503121561272357600080fd5b823561272e8161249d565b946020939093013593505050565b6000610160828403121561274f57600080fd5b50919050565b60006020828403121561276757600080fd5b81356001600160401b0381111561277d57600080fd5b6127898482850161273c565b949350505050565b600080600080600060a086880312156127a957600080fd5b505083359560208501359550604085013594606081013594506080013592509050565b600080602083850312156127df57600080fd5b82356001600160401b03808211156127f657600080fd5b818501915085601f83011261280a57600080fd5b81358181111561281957600080fd5b8660208260051b850101111561282e57600080fd5b60209290920196919550909350505050565b60005b8381101561285b578181015183820152602001612843565b50506000910152565b6000815180845261287c816020860160208601612840565b601f01601f19169290920160200192915050565b6000602080830181845280855180835260408601915060408160051b870101925083870160005b828110156128e557603f198886030184526128d3858351612864565b945092850192908501906001016128b7565b5092979650505050505050565b60006020828403121561290457600080fd5b81356001600160401b0381111561291a57600080fd5b82016101a0818503121561292d57600080fd5b9392505050565b60008060006060848603121561294957600080fd5b83356129548161249d565b925060208401356129648161249d565b929592945050506040919091013590565b6000806000806080858703121561298b57600080fd5b84356001600160401b03808211156129a257600080fd5b6129ae888389016124c2565b95506020915081870135818111156129c557600080fd5b6129d189828a016124c2565b9550506040870135818111156129e657600080fd5b87019050601f810188136129f957600080fd5b8035612a076124e38261247a565b81815260059190911b8201830190838101908a831115612a2657600080fd5b928401925b82841015612a4457833582529284019290840190612a2b565b8096505050505050612a58606086016124b2565b905092959194509250565b6020808252601f908201527f5265656e7472616e637947756172643a207265656e7472616e742063616c6c00604082015260600190565b6001600160a01b03929092168252602082015260400190565b80516124bd8161249d565b600082601f830112612acf57600080fd5b81516020612adf6124e38361247a565b82815260059290921b84018101918181019086841115612afe57600080fd5b8286015b8481101561252b578051612b158161249d565b8352918301918301612b02565b600060c08284031215612b3457600080fd5b612b3c6123c0565b9050815181526020820151602082015260408201516040820152606082015160608201526080820151608082015260a082015160a082015292915050565b801515811461153f57600080fd5b600060208284031215612b9a57600080fd5b604051602081016001600160401b0381118282101715612bbc57612bbc612360565b80604052508091508251612bcf81612b7a565b905292915050565b600060208284031215612be957600080fd5b81516001600160401b0380821115612c0057600080fd5b8184019150610100808387031215612c1757600080fd5b612c1f6123e2565b835183811115612c2e57600080fd5b8401808803831315612c3f57600080fd5b612c47612404565b9250612c5281612ab3565b8352612c6060208201612ab3565b6020840152612c7160408201612ab3565b6040840152612c8260608201612ab3565b6060840152612c9360808201612ab3565b6080840152612ca460a08201612ab3565b60a084015260c081015184811115612cbb57600080fd5b612cc789828401612abe565b60c08501525060e081015184811115612cdf57600080fd5b612ceb89828401612abe565b60e08501525050818152612d028760208601612b22565b6020820152612d148760e08601612b88565b60408201529695505050505050565b6001600160a01b03169052565b600081518084526020808501945080840160005b83811015612d695781516001600160a01b031687529582019590820190600101612d44565b509495945050505050565b600081518084526020808501945080840160005b83811015612d69578151805188528301518388015260409096019590820190600101612d88565b828152604060208201526000825160806040840152612dd160c0840182612d30565b90506020840151603f1980858403016060860152612def8383612d74565b92506040860151915080858403016080860152612e0c8383612d30565b925060608601519150808584030160a086015250612e2a8282612d74565b9695505050505050565b918252602082015260400190565b634e487b7160e01b600052603260045260246000fd5b634e487b7160e01b600052601160045260246000fd5b600060018201612e8057612e80612e58565b5060010190565b600060208284031215612e9957600080fd5b81516001600160401b0380821115612eb057600080fd5b908301906101008286031215612ec557600080fd5b612ecd6123e2565b825182811115612edc57600080fd5b830160c08188031215612eee57600080fd5b612ef66123c0565b612eff82612ab3565b8152612f0d60208301612ab3565b6020820152612f1e60408301612ab3565b6040820152612f2f60608301612ab3565b6060820152608082015184811115612f4657600080fd5b612f5289828501612abe565b60808301525060a082015184811115612f6a57600080fd5b612f7689828501612abe565b60a083015250825250612f8c8660208501612b22565b6020820152612f9e8660e08501612b88565b604082015295945050505050565b6008811061153f57600080fd5b80516124bd81612fac565b6003811061153f57600080fd5b80516124bd81612fc4565b60006101408284031215612fef57600080fd5b612ff7612427565b905061300282612fb9565b815261301060208301612fd1565b602082015260408201516040820152606082015160608201526080820151608082015260a082015160a082015260c082015160c082015260e082015160e082015261010080830151818301525061012080830151818301525092915050565b60006060828403121561308157600080fd5b6130896123e2565b9050815161309681612b7a565b815260208201516130a681612b7a565b602082015260408201516130b981612b7a565b604082015292915050565b6000602082840312156130d657600080fd5b81516001600160401b03808211156130ed57600080fd5b908301906101c0828603121561310257600080fd5b61310a6123e2565b82518281111561311957600080fd5b830160c0818803121561312b57600080fd5b6131336123c0565b815161313e8161249d565b8152602082015161314e8161249d565b602082015260408201516131618161249d565b604082015261317260608301612ab3565b606082015261318360808301612ab3565b608082015260a08201518481111561319a57600080fd5b6131a689828501612abe565b60a0830152508252506131bc8660208501612fdc565b6020820152612f9e86610160850161306f565b6000808335601e198436030181126131e657600080fd5b83016020810192503590506001600160401b0381111561320557600080fd5b8060051b360382131561232c57600080fd5b8183526000602080850194508260005b85811015612d6957813561323a8161249d565b6001600160a01b031687529582019590820190600101613227565b80356124bd81612b7a565b6001600160a01b0383168152604060208201819052613289908201613284846124b2565b612d23565b6000613297602084016124b2565b6132a46060840182612d23565b506132b1604084016124b2565b6132be6080840182612d23565b506132cc60608401846131cf565b6101608060a08601526132e46101a086018385613217565b92506132f360808701876131cf565b868503603f190160c0880152925061330c848483613217565b93505060a086013560e0860152610100915060c08601358286015261012060e08701358187015261333e838801613255565b92506101406133508188018515159052565b908701359186019190915290940135610180909301929092525092915050565b60006020828403121561338257600080fd5b5051919050565b634e487b7160e01b600052602160045260246000fd5b600881106133af576133af613389565b9052565b600381106133af576133af613389565b6133ce82825161339f565b60208101516133e060208401826133b3565b5060408101516040830152606081015160608301526080810151608083015260a081015160a083015260c081015160c083015260e081015160e08301526101008082015181840152506101208082015181840152505050565b86815285602082015284604082015283606082015282608082015260c060a0820152600082516101c060c084015260018060a01b0380825116610280850152806020830151166102a0850152806040830151166102c0850152806060830151166102e0850152806080830151166103008501525060a0810151905060c06103208401526134ca610340840182612d30565b905060208401516134de60e08501826133c3565b5060408481015180511515610220860152602081015115156102408601529081015115156102608501525098975050505050505050565b6000808335601e1984360301811261352c57600080fd5b8301803591506001600160401b0382111561354657600080fd5b60200191503681900382131561232c57600080fd5b8183823760009101908152919050565b600081356135788161249d565b6001600160a01b0390811684526020830135906135948261249d565b90811660208501526040830135906135ab8261249d565b90811660408501526060830135906135c28261249d565b1660608401526135d560808301836131cf565b60a060808601526135ea60a086018284613217565b95945050505050565b80356124bd81612fac565b80356124bd81612fc4565b6001600160a01b0383168152604060208201526000823536849003609e1901811261363357600080fd5b6101a080604085015261364c6101e0850186840161356b565b915061369d6060850160208701803582526020810135602083015260408101356040830152606081013560608301526080810135608083015260a081013560a083015260c081013560c08301525050565b6136aa61010086016135f3565b6101406136b98187018361339f565b6136c661012088016135fe565b91506101606136d7818801846133b3565b6136e2828901613255565b925061018091506136f68288018415159052565b613701818901613255565b9250506137118387018315159052565b808701356101c0870152505050809150509392505050565b6001600160a01b038316815260406020820181905261374d908201613284846124b2565b600061375b602084016124b2565b6137686060840182612d23565b50613775604084016124b2565b6137826080840182612d23565b5061378f606084016124b2565b61379c60a0840182612d23565b506137a9608084016124b2565b6137b660c0840182612d23565b506137c460a08401846131cf565b6101608060e08601526137dc6101a086018385613217565b92506137eb60c08701876131cf565b9250610100603f198786030181880152613806858584613217565b9450610120935060e088013584880152613821818901613255565b9150506101406138348188018315159052565b928701359186019190915250909301356101809092019190915250919050565b6001600160a01b039384168152919092166020820152604081019190915260600190565b6001600160a01b039687168152948616602086015292851660408501529084166060840152909216608082015260a081019190915260c00190565b60208152600061292d6020830184612864565b81810381811115610e6f57610e6f612e58565b6000602082840312156138eb57600080fd5b815161292d8161249d565b6040815260006139096040830185612864565b82810360208401526135ea8185612864565b60006020828403121561392d57600080fd5b81516001600160401b038082111561394457600080fd5b818401915084601f83011261395857600080fd5b81518181111561396a5761396a612360565b61397d601f8201601f191660200161244a565b915080825285602082850101111561399457600080fd5b6139a5816020840160208601612840565b50949350505050565b634e487b7160e01b600052601260045260246000fd5b6000826139e157634e487b7160e01b600052601260045260246000fd5b500490565b6000816000190483118215151615613a0057613a00612e58565b500290565b60008251613a17818460208701612840565b9190910192915050565b600060208284031215613a3357600080fd5b815161292d81612b7a56fea2646970667358221220bafdbc6a06e59af6a2c29b87ea3680e3cc278049451e667664d7e0970b64414064736f6c63430008100033",
  "linkReferences": {
    "contracts/deposit/DepositStoreUtils.sol": {
      "DepositStoreUtils": [
        {
          "length": 20,
          "start": 1615
        }
      ]
    },
    "contracts/market/MarketEventUtils.sol": {
      "MarketEventUtils": [
        {
          "length": 20,
          "start": 6548
        },
        {
          "length": 20,
          "start": 7339
        }
      ]
    },
    "contracts/order/OrderStoreUtils.sol": {
      "OrderStoreUtils": [
        {
          "length": 20,
          "start": 2848
        },
        {
          "length": 20,
          "start": 3575
        }
      ]
    },
    "contracts/referral/ReferralEventUtils.sol": {
      "ReferralEventUtils": [
        {
          "length": 20,
          "start": 5844
        }
      ]
    },
    "contracts/withdrawal/WithdrawalStoreUtils.sol": {
      "WithdrawalStoreUtils": [
        {
          "length": 20,
          "start": 2466
        }
      ]
    }
  },
  "deployedLinkReferences": {
    "contracts/deposit/DepositStoreUtils.sol": {
      "DepositStoreUtils": [
        {
          "length": 20,
          "start": 1061
        }
      ]
    },
    "contracts/market/MarketEventUtils.sol": {
      "MarketEventUtils": [
        {
          "length": 20,
          "start": 5994
        },
        {
          "length": 20,
          "start": 6785
        }
      ]
    },
    "contracts/order/OrderStoreUtils.sol": {
      "OrderStoreUtils": [
        {
          "length": 20,
          "start": 2294
        },
        {
          "length": 20,
          "start": 3021
        }
      ]
    },
    "contracts/referral/ReferralEventUtils.sol": {
      "ReferralEventUtils": [
        {
          "length": 20,
          "start": 5290
        }
      ]
    },
    "contracts/withdrawal/WithdrawalStoreUtils.sol": {
      "WithdrawalStoreUtils": [
        {
          "length": 20,
          "start": 1912
        }
      ]
    }
  }
}