{
  "_format": "hh-sol-artifact-1",
  "contractName": "ExchangeRouter",
  "sourceName": "contracts/router/ExchangeRouter.sol",
  "abi": [
    {
      "inputs": [
        {
          "internalType": "contract Router",
          "name": "_router",
          "type": "address"
        },
        {
          "internalType": "contract RoleStore",
          "name": "_roleStore",
          "type": "address"
        },
        {
          "internalType": "contract DataStore",
          "name": "_dataStore",
          "type": "address"
        },
        {
          "internalType": "contract EventEmitter",
          "name": "_eventEmitter",
          "type": "address"
        },
        {
          "internalType": "contract DepositHandler",
          "name": "_depositHandler",
          "type": "address"
        },
        {
          "internalType": "contract WithdrawalHandler",
          "name": "_withdrawalHandler",
          "type": "address"
        },
        {
          "internalType": "contract OrderHandler",
          "name": "_orderHandler",
          "type": "address"
        },
        {
          "internalType": "contract DepositStore",
          "name": "_depositStore",
          "type": "address"
        },
        {
          "internalType": "contract WithdrawalStore",
          "name": "_withdrawalStore",
          "type": "address"
        },
        {
          "internalType": "contract OrderStore",
          "name": "_orderStore",
          "type": "address"
        },
        {
          "internalType": "contract IReferralStorage",
          "name": "_referralStorage",
          "type": "address"
        }
      ],
      "stateMutability": "nonpayable",
      "type": "constructor"
    },
    {
      "inputs": [
        {
          "internalType": "bytes32",
          "name": "key",
          "type": "bytes32"
        }
      ],
      "name": "BlockedFeature",
      "type": "error"
    },
    {
      "inputs": [],
      "name": "EmptyOrder",
      "type": "error"
    },
    {
      "inputs": [
        {
          "internalType": "uint256",
          "name": "minExecutionFee",
          "type": "uint256"
        },
        {
          "internalType": "uint256",
          "name": "executionFee",
          "type": "uint256"
        }
      ],
      "name": "InsufficientExecutionFee",
      "type": "error"
    },
    {
      "inputs": [
        {
          "internalType": "address",
          "name": "msgSender",
          "type": "address"
        },
        {
          "internalType": "string",
          "name": "role",
          "type": "string"
        }
      ],
      "name": "Unauthorized",
      "type": "error"
    },
    {
      "inputs": [],
      "name": "UnsupportedOrderType",
      "type": "error"
    },
    {
      "anonymous": false,
      "inputs": [
        {
          "indexed": false,
          "internalType": "address",
          "name": "prevGov",
          "type": "address"
        },
        {
          "indexed": false,
          "internalType": "address",
          "name": "nextGov",
          "type": "address"
        }
      ],
      "name": "SetGov",
      "type": "event"
    },
    {
      "inputs": [
        {
          "internalType": "bytes32",
          "name": "key",
          "type": "bytes32"
        }
      ],
      "name": "cancelOrder",
      "outputs": [],
      "stateMutability": "nonpayable",
      "type": "function"
    },
    {
      "inputs": [
        {
          "internalType": "address[]",
          "name": "markets",
          "type": "address[]"
        },
        {
          "internalType": "address[]",
          "name": "tokens",
          "type": "address[]"
        },
        {
          "internalType": "address",
          "name": "receiver",
          "type": "address"
        }
      ],
      "name": "claimAffiliateRewards",
      "outputs": [],
      "stateMutability": "nonpayable",
      "type": "function"
    },
    {
      "inputs": [
        {
          "internalType": "address[]",
          "name": "markets",
          "type": "address[]"
        },
        {
          "internalType": "address[]",
          "name": "tokens",
          "type": "address[]"
        },
        {
          "internalType": "address",
          "name": "receiver",
          "type": "address"
        }
      ],
      "name": "claimFundingFees",
      "outputs": [],
      "stateMutability": "nonpayable",
      "type": "function"
    },
    {
      "inputs": [
        {
          "internalType": "address",
          "name": "longToken",
          "type": "address"
        },
        {
          "internalType": "address",
          "name": "shortToken",
          "type": "address"
        },
        {
          "internalType": "uint256",
          "name": "longTokenAmount",
          "type": "uint256"
        },
        {
          "internalType": "uint256",
          "name": "shortTokenAmount",
          "type": "uint256"
        },
        {
          "components": [
            {
              "internalType": "address",
              "name": "receiver",
              "type": "address"
            },
            {
              "internalType": "address",
              "name": "callbackContract",
              "type": "address"
            },
            {
              "internalType": "address",
              "name": "market",
              "type": "address"
            },
            {
              "internalType": "uint256",
              "name": "minMarketTokens",
              "type": "uint256"
            },
            {
              "internalType": "bool",
              "name": "shouldUnwrapNativeToken",
              "type": "bool"
            },
            {
              "internalType": "uint256",
              "name": "executionFee",
              "type": "uint256"
            },
            {
              "internalType": "uint256",
              "name": "callbackGasLimit",
              "type": "uint256"
            }
          ],
          "internalType": "struct DepositUtils.CreateDepositParams",
          "name": "params",
          "type": "tuple"
        }
      ],
      "name": "createDeposit",
      "outputs": [
        {
          "internalType": "bytes32",
          "name": "",
          "type": "bytes32"
        }
      ],
      "stateMutability": "payable",
      "type": "function"
    },
    {
      "inputs": [
        {
          "internalType": "uint256",
          "name": "amountIn",
          "type": "uint256"
        },
        {
          "components": [
            {
              "internalType": "address",
              "name": "receiver",
              "type": "address"
            },
            {
              "internalType": "address",
              "name": "callbackContract",
              "type": "address"
            },
            {
              "internalType": "address",
              "name": "market",
              "type": "address"
            },
            {
              "internalType": "address",
              "name": "initialCollateralToken",
              "type": "address"
            },
            {
              "internalType": "address[]",
              "name": "swapPath",
              "type": "address[]"
            },
            {
              "internalType": "uint256",
              "name": "sizeDeltaUsd",
              "type": "uint256"
            },
            {
              "internalType": "uint256",
              "name": "triggerPrice",
              "type": "uint256"
            },
            {
              "internalType": "uint256",
              "name": "acceptablePrice",
              "type": "uint256"
            },
            {
              "internalType": "uint256",
              "name": "executionFee",
              "type": "uint256"
            },
            {
              "internalType": "uint256",
              "name": "callbackGasLimit",
              "type": "uint256"
            },
            {
              "internalType": "uint256",
              "name": "minOutputAmount",
              "type": "uint256"
            },
            {
              "internalType": "enum Order.OrderType",
              "name": "orderType",
              "type": "uint8"
            },
            {
              "internalType": "bool",
              "name": "isLong",
              "type": "bool"
            },
            {
              "internalType": "bool",
              "name": "shouldUnwrapNativeToken",
              "type": "bool"
            }
          ],
          "internalType": "struct OrderBaseUtils.CreateOrderParams",
          "name": "params",
          "type": "tuple"
        },
        {
          "internalType": "bytes32",
          "name": "referralCode",
          "type": "bytes32"
        }
      ],
      "name": "createOrder",
      "outputs": [
        {
          "internalType": "bytes32",
          "name": "",
          "type": "bytes32"
        }
      ],
      "stateMutability": "payable",
      "type": "function"
    },
    {
      "inputs": [
        {
          "components": [
            {
              "internalType": "address",
              "name": "receiver",
              "type": "address"
            },
            {
              "internalType": "address",
              "name": "callbackContract",
              "type": "address"
            },
            {
              "internalType": "address",
              "name": "market",
              "type": "address"
            },
            {
              "internalType": "uint256",
              "name": "marketTokensLongAmount",
              "type": "uint256"
            },
            {
              "internalType": "uint256",
              "name": "marketTokensShortAmount",
              "type": "uint256"
            },
            {
              "internalType": "uint256",
              "name": "minLongTokenAmount",
              "type": "uint256"
            },
            {
              "internalType": "uint256",
              "name": "minShortTokenAmount",
              "type": "uint256"
            },
            {
              "internalType": "bool",
              "name": "shouldUnwrapNativeToken",
              "type": "bool"
            },
            {
              "internalType": "uint256",
              "name": "executionFee",
              "type": "uint256"
            },
            {
              "internalType": "uint256",
              "name": "callbackGasLimit",
              "type": "uint256"
            }
          ],
          "internalType": "struct WithdrawalUtils.CreateWithdrawalParams",
          "name": "params",
          "type": "tuple"
        }
      ],
      "name": "createWithdrawal",
      "outputs": [
        {
          "internalType": "bytes32",
          "name": "",
          "type": "bytes32"
        }
      ],
      "stateMutability": "payable",
      "type": "function"
    },
    {
      "inputs": [],
      "name": "dataStore",
      "outputs": [
        {
          "internalType": "contract DataStore",
          "name": "",
          "type": "address"
        }
      ],
      "stateMutability": "view",
      "type": "function"
    },
    {
      "inputs": [],
      "name": "depositHandler",
      "outputs": [
        {
          "internalType": "contract DepositHandler",
          "name": "",
          "type": "address"
        }
      ],
      "stateMutability": "view",
      "type": "function"
    },
    {
      "inputs": [],
      "name": "depositStore",
      "outputs": [
        {
          "internalType": "contract DepositStore",
          "name": "",
          "type": "address"
        }
      ],
      "stateMutability": "view",
      "type": "function"
    },
    {
      "inputs": [],
      "name": "eventEmitter",
      "outputs": [
        {
          "internalType": "contract EventEmitter",
          "name": "",
          "type": "address"
        }
      ],
      "stateMutability": "view",
      "type": "function"
    },
    {
      "inputs": [],
      "name": "gov",
      "outputs": [
        {
          "internalType": "address",
          "name": "",
          "type": "address"
        }
      ],
      "stateMutability": "view",
      "type": "function"
    },
    {
      "inputs": [
        {
          "internalType": "bytes[]",
          "name": "data",
          "type": "bytes[]"
        }
      ],
      "name": "multicall",
      "outputs": [
        {
          "internalType": "bytes[]",
          "name": "results",
          "type": "bytes[]"
        }
      ],
      "stateMutability": "nonpayable",
      "type": "function"
    },
    {
      "inputs": [],
      "name": "orderHandler",
      "outputs": [
        {
          "internalType": "contract OrderHandler",
          "name": "",
          "type": "address"
        }
      ],
      "stateMutability": "view",
      "type": "function"
    },
    {
      "inputs": [],
      "name": "orderStore",
      "outputs": [
        {
          "internalType": "contract OrderStore",
          "name": "",
          "type": "address"
        }
      ],
      "stateMutability": "view",
      "type": "function"
    },
    {
      "inputs": [],
      "name": "referralStorage",
      "outputs": [
        {
          "internalType": "contract IReferralStorage",
          "name": "",
          "type": "address"
        }
      ],
      "stateMutability": "view",
      "type": "function"
    },
    {
      "inputs": [],
      "name": "roleStore",
      "outputs": [
        {
          "internalType": "contract RoleStore",
          "name": "",
          "type": "address"
        }
      ],
      "stateMutability": "view",
      "type": "function"
    },
    {
      "inputs": [],
      "name": "router",
      "outputs": [
        {
          "internalType": "contract Router",
          "name": "",
          "type": "address"
        }
      ],
      "stateMutability": "view",
      "type": "function"
    },
    {
      "inputs": [
        {
          "internalType": "address",
          "name": "_gov",
          "type": "address"
        }
      ],
      "name": "setGov",
      "outputs": [],
      "stateMutability": "nonpayable",
      "type": "function"
    },
    {
      "inputs": [
        {
          "internalType": "bytes32",
          "name": "key",
          "type": "bytes32"
        },
        {
          "internalType": "uint256",
          "name": "sizeDeltaUsd",
          "type": "uint256"
        },
        {
          "internalType": "uint256",
          "name": "triggerPrice",
          "type": "uint256"
        },
        {
          "internalType": "uint256",
          "name": "acceptablePrice",
          "type": "uint256"
        }
      ],
      "name": "updateOrder",
      "outputs": [],
      "stateMutability": "payable",
      "type": "function"
    },
    {
      "inputs": [],
      "name": "withdrawalHandler",
      "outputs": [
        {
          "internalType": "contract WithdrawalHandler",
          "name": "",
          "type": "address"
        }
      ],
      "stateMutability": "view",
      "type": "function"
    },
    {
      "inputs": [],
      "name": "withdrawalStore",
      "outputs": [
        {
          "internalType": "contract WithdrawalStore",
          "name": "",
          "type": "address"
        }
      ],
      "stateMutability": "view",
      "type": "function"
    }
  ],
  "bytecode": "0x6101e06040523480156200001257600080fd5b5060405162003cb538038062003cb5833981016040819052620000359162000126565b60016000558962000046336200009a565b6001600160a01b039081166080529a8b1660a052978a1660c05295891660e052938816610100529187166101205286166101405285166101605284166101805283166101a0529091166101c0525062000223565b600180546001600160a01b038381166001600160a01b031983168117909355604080519190921680825260208201939093527f53351836099c03ffc3b1727d8abd4b0222afa87d4ed76ae3102d51369ef7f785910160405180910390a15050565b6001600160a01b03811681146200011157600080fd5b50565b80516200012181620000fb565b919050565b60008060008060008060008060008060006101608c8e0312156200014957600080fd5b8b516200015681620000fb565b60208d0151909b506200016981620000fb565b60408d0151909a506200017c81620000fb565b60608d01519099506200018f81620000fb565b60808d0151909850620001a281620000fb565b60a08d0151909750620001b581620000fb565b60c08d0151909650620001c881620000fb565b60e08d0151909550620001db81620000fb565b6101008d0151909450620001ef81620000fb565b9250620002006101208d0162000114565b9150620002116101408d0162000114565b90509295989b509295989b9093969950565b60805160a05160c05160e05161010051610120516101405161016051610180516101a0516101c051613940620003756000396000818161011001526111010152600081816101a2015281816106d101528181610846015281816108e50152818161114d01526111ba0152600081816103f701526104d901526000818161032f0152610d1701526000818161039001526112430152600081816101d601526105150152600081816102c70152610e8e0152600081816102fb015281816106160152818161082501528181610b810152610f94015260008181610260015281816104b8015281816105f501528181610754015281816108040152818161096601528181610a3901528181610a8f01528181610abb01528181610d3b01528181610f73015261112c01526000818161045e01528181610d7e01528181610e0901526111820152600061022c01526139406000f3fe6080604052600436106100f95760003560e01c80626cc35e146100fe57806312d43a511461014f5780631b5c2de11461016f5780632ac38dbd146101905780632c2f3c07146101c457806349287a22146101f85780634a4a7b041461021a578063660d0d671461024e5780637489ec23146102825780638792e621146102a25780639c8b2cfb146102b55780639ff78c30146102e9578063a25dfba71461031d578063ac9650d814610351578063b58483051461037e578063b912d4a9146103b2578063c41b1ab3146103c5578063c4d74c42146103e5578063cfad57a214610419578063f17a3ccf14610439578063f887ea401461044c575b600080fd5b34801561010a57600080fd5b506101327f000000000000000000000000000000000000000000000000000000000000000081565b6040516001600160a01b0390911681526020015b60405180910390f35b34801561015b57600080fd5b50600154610132906001600160a01b031681565b61018261017d3660046129b3565b610480565b604051908152602001610146565b34801561019c57600080fd5b506101327f000000000000000000000000000000000000000000000000000000000000000081565b3480156101d057600080fd5b506101327f000000000000000000000000000000000000000000000000000000000000000081565b34801561020457600080fd5b50610218610213366004612b18565b61059b565b005b34801561022657600080fd5b506101327f000000000000000000000000000000000000000000000000000000000000000081565b34801561025a57600080fd5b506101327f000000000000000000000000000000000000000000000000000000000000000081565b34801561028e57600080fd5b5061021861029d366004612b8f565b61068e565b6102186102b0366004612ba8565b6108a6565b3480156102c157600080fd5b506101327f000000000000000000000000000000000000000000000000000000000000000081565b3480156102f557600080fd5b506101327f000000000000000000000000000000000000000000000000000000000000000081565b34801561032957600080fd5b506101327f000000000000000000000000000000000000000000000000000000000000000081565b34801561035d57600080fd5b5061037161036c366004612bda565b610bf6565b6040516101469190612c9e565b34801561038a57600080fd5b506101327f000000000000000000000000000000000000000000000000000000000000000081565b6101826103c0366004612d00565b610ceb565b3480156103d157600080fd5b506102186103e0366004612b18565b610f19565b3480156103f157600080fd5b506101327f000000000000000000000000000000000000000000000000000000000000000081565b34801561042557600080fd5b50610218610434366004612d68565b611000565b610182610447366004612d85565b611055565b34801561045857600080fd5b506101327f000000000000000000000000000000000000000000000000000000000000000081565b60006002600054036104ad5760405162461bcd60e51b81526004016104a490612ddb565b60405180910390fd5b6002600055336104fd7f00000000000000000000000000000000000000000000000000000000000000007f00000000000000000000000000000000000000000000000000000000000000006112cb565b506040516379eb74fb60e11b81526001600160a01b037f0000000000000000000000000000000000000000000000000000000000000000169063f3d6e9f69061054c9084908790600401612e2b565b6020604051808303816000875af115801561056b573d6000803e3d6000fd5b505050506040513d601f19601f8201168201806040525081019061058f9190612ee9565b60016000559392505050565b6002600054036105bd5760405162461bcd60e51b81526004016104a490612ddb565b600260005581518351146105e35760405162461bcd60e51b81526004016104a490612f02565b3360005b8451811015610682576106707f00000000000000000000000000000000000000000000000000000000000000007f000000000000000000000000000000000000000000000000000000000000000087848151811061064757610647612f29565b602002602001015187858151811061066157610661612f29565b6020026020010151868861135d565b8061067a81612f55565b9150506105e7565b50506001600055505050565b6002600054036106b05760405162461bcd60e51b81526004016104a490612ddb565b600260009081555a60405163023aa9ab60e61b8152600481018490529091507f0000000000000000000000000000000000000000000000000000000000000000906000906001600160a01b03831690638eaa6ac090602401600060405180830381865afa158015610725573d6000803e3d6000fd5b505050506040513d6000823e601f3d908101601f1916820160405261074d9190810190613144565b905061079e7f00000000000000000000000000000000000000000000000000000000000000006107993061078385604001515190565b600781111561079457610794613282565b611521565b6115ad565b336107a882515190565b6001600160a01b0316146107ce5760405162461bcd60e51b81526004016104a490613298565b6107e26107dd82604001515190565b6115dc565b156107ff5760405162461bcd60e51b81526004016104a4906132cb565b61089b7f00000000000000000000000000000000000000000000000000000000000000007f00000000000000000000000000000000000000000000000000000000000000007f0000000000000000000000000000000000000000000000000000000000000000873388604051806040016040528060158152602001741554d15497d2539255125055115117d0d05390d153605a1b81525061164d565b505060016000555050565b6002600054036108c85760405162461bcd60e51b81526004016104a490612ddb565b6002600090815560405163023aa9ab60e61b8152600481018690527f000000000000000000000000000000000000000000000000000000000000000091906001600160a01b03831690638eaa6ac090602401600060405180830381865afa158015610937573d6000803e3d6000fd5b505050506040513d6000823e601f3d908101601f1916820160405261095f9190810190613144565b90506109ab7f00000000000000000000000000000000000000000000000000000000000000006107993061099585604001515190565b60078111156109a6576109a6613282565b611945565b336109b582515190565b6001600160a01b0316146109db5760405162461bcd60e51b81526004016104a490613298565b6109ea6107dd82604001515190565b15610a075760405162461bcd60e51b81526004016104a4906132cb565b602081015185905260208101516040018490526020810151606001839052604081015160006060909101526000610a5e7f0000000000000000000000000000000000000000000000000000000000000000846112cb565b9050610a8881610a7384602001516080015190565b610a7d919061330c565b602084015160800152565b6000610ab47f00000000000000000000000000000000000000000000000000000000000000008461197f565b9050610aef7f000000000000000000000000000000000000000000000000000000000000000082610aea86602001516080015190565b6119ef565b610af883611a3d565b60405163e04b68ad60e01b81526001600160a01b0385169063e04b68ad90610b26908b9087906004016133b8565b600060405180830381600087803b158015610b4057600080fd5b505af1158015610b54573d6000803e3d6000fd5b505060405163cdccb99d60e01b8152600481018b9052602481018a905260448101899052606481018890527f00000000000000000000000000000000000000000000000000000000000000006001600160a01b0316925063cdccb99d9150608401600060405180830381600087803b158015610bcf57600080fd5b505af1158015610be3573d6000803e3d6000fd5b5050600160005550505050505050505050565b6060816001600160401b03811115610c1057610c106129cc565b604051908082528060200260200182016040528015610c4357816020015b6060815260200190600190039081610c2e5790505b50905060005b82811015610ce357610cb330858584818110610c6757610c67612f29565b9050602002810190610c7991906134bd565b8080601f016020809104026020016040519081016040528093929190818152602001838380828437600092019190915250611a5392505050565b828281518110610cc557610cc5612f29565b60200260200101819052508080610cdb90612f55565b915050610c49565b505b92915050565b6000600260005403610d0f5760405162461bcd60e51b81526004016104a490612ddb565b6002600055337f0000000000000000000000000000000000000000000000000000000000000000610d607f0000000000000000000000000000000000000000000000000000000000000000826112cb565b508515610dec576040516303704f0f60e31b81526001600160a01b037f00000000000000000000000000000000000000000000000000000000000000001690631b82787890610db9908b90869086908c9060040161350a565b600060405180830381600087803b158015610dd357600080fd5b505af1158015610de7573d6000803e3d6000fd5b505050505b8415610e77576040516303704f0f60e31b81526001600160a01b037f00000000000000000000000000000000000000000000000000000000000000001690631b82787890610e44908a90869086908b9060040161350a565b600060405180830381600087803b158015610e5e57600080fd5b505af1158015610e72573d6000803e3d6000fd5b505050505b604051634b1a07a760e11b81526001600160a01b037f000000000000000000000000000000000000000000000000000000000000000016906396340f4e90610ec59085908890600401613534565b6020604051808303816000875af1158015610ee4573d6000803e3d6000fd5b505050506040513d601f19601f82011682018060405250810190610f089190612ee9565b600160005598975050505050505050565b600260005403610f3b5760405162461bcd60e51b81526004016104a490612ddb565b60026000558151835114610f615760405162461bcd60e51b81526004016104a490612f02565b3360005b845181101561068257610fee7f00000000000000000000000000000000000000000000000000000000000000007f0000000000000000000000000000000000000000000000000000000000000000878481518110610fc557610fc5612f29565b6020026020010151878581518110610fdf57610fdf612f29565b60200260200101518688611a7f565b80610ff881612f55565b915050610f65565b6001546001600160a01b03163314611049576040805163a35b150b60e01b81523360048201526024810191909152600360448201526223a7ab60e91b60648201526084016104a4565b61105281611c07565b50565b60006002600054036110795760405162461bcd60e51b81526004016104a490612ddb565b60026000556007611092610180850161016086016135d1565b60078111156110a3576110a3613282565b036110fb5760405162461bcd60e51b815260206004820152602260248201527f45786368616e6765526f757465723a20696e76616c6964206f72646572207479604482015261706560f01b60648201526084016104a4565b336111277f00000000000000000000000000000000000000000000000000000000000000008285611c68565b6111717f00000000000000000000000000000000000000000000000000000000000000007f00000000000000000000000000000000000000000000000000000000000000006112cb565b50841561122c576001600160a01b037f000000000000000000000000000000000000000000000000000000000000000016631b8278786111b76080870160608801612d68565b837f0000000000000000000000000000000000000000000000000000000000000000896040518563ffffffff1660e01b81526004016111f9949392919061350a565b600060405180830381600087803b15801561121357600080fd5b505af1158015611227573d6000803e3d6000fd5b505050505b60405163e7683e6560e01b81526001600160a01b037f0000000000000000000000000000000000000000000000000000000000000000169063e7683e659061127a9084908890600401613674565b6020604051808303816000875af1158015611299573d6000803e3d6000fd5b505050506040513d601f19601f820116820180604052508101906112bd9190612ee9565b600160005595945050505050565b6000346000036112dd57506000610ce5565b60006112e884611cd7565b9050806001600160a01b031663d0e30db0346040518263ffffffff1660e01b81526004016000604051808303818588803b15801561132557600080fd5b505af1158015611339573d6000803e3d6000fd5b50611354935050506001600160a01b03831690508434611d84565b50349392505050565b600061136a858585611ddf565b60405163bd02d0f560e01b8152600481018290529091506000906001600160a01b0389169063bd02d0f590602401602060405180830381865afa1580156113b5573d6000803e3d6000fd5b505050506040513d601f19601f820116820180604052508101906113d99190612ee9565b604051637152429d60e11b815260048101849052600060248201529091506001600160a01b0389169063e2a4853a906044016020604051808303816000875af115801561142a573d6000803e3d6000fd5b505050506040513d601f19601f8201168201806040525081019061144e9190612ee9565b506040516316c48fdd60e11b81526001600160a01b03871690632d891fba9061147f908890859088906004016137b1565b600060405180830381600087803b15801561149957600080fd5b505af11580156114ad573d6000803e3d6000fd5b5050604051633be4b15960e01b81526001600160a01b038a169250633be4b15991506114e590899089908990899088906004016137d4565b600060405180830381600087803b1580156114ff57600080fd5b505af1158015611513573d6000803e3d6000fd5b505050505050505050505050565b600060405160200161155b9060208082526014908201527343414e43454c5f4f524445525f4645415455524560601b604082015260600190565b60408051601f198184030181528282528051602091820120908301526001600160a01b038516908201526060810183905260800160405160208183030381529060405280519060200120905092915050565b6115b78282611e74565b156115d857604051630827f79760e41b8152600481018290526024016104a4565b5050565b6000808260078111156115f1576115f1613282565b148061160e5750600282600781111561160c5761160c613282565b145b8061162b575060045b82600781111561162957611629613282565b145b80610ce5575060075b82600781111561164657611646613282565b1492915050565b60405163023aa9ab60e61b8152600481018590526000906001600160a01b03871690638eaa6ac090602401600060405180830381865afa158015611695573d6000803e3d6000fd5b505050506040513d6000823e601f3d908101601f191682016040526116bd9190810190613144565b90506116c881611ee0565b6116dc6116d782604001515190565b611f12565b806116f657506116f66116f182604001515190565b611f36565b156117b3576020818101510151156117b357856001600160a01b031663f94989386117208a611cd7565b8351608001516020808601510151855151604080880151015160405160e087901b6001600160e01b03191681526001600160a01b039586166004820152938516602485015260448401929092529092166064820152901515608482015260a401600060405180830381600087803b15801561179a57600080fd5b505af11580156117ae573d6000803e3d6000fd5b505050505b856001600160a01b0316632874528e866117cc84515190565b6040516001600160e01b031960e085901b16815260048101929092526001600160a01b03166024820152604401600060405180830381600087803b15801561181357600080fd5b505af1158015611827573d6000803e3d6000fd5b50506040516314a4df2d60e01b81526001600160a01b038a1692506314a4df2d91506118599088908690600401613807565b600060405180830381600087803b15801561187357600080fd5b505af1158015611887573d6000803e3d6000fd5b505050506118958582611f59565b73__$60bb1dd4670b1e26e5010aaaf2f65694d3$__635a3911ca89886118c085602001516080015190565b87896118cb88515190565b60405160e088901b6001600160e01b03191681526001600160a01b0396871660048201529486166024860152604485019390935260648401919091528316608483015290911660a482015260c40160006040518083038186803b15801561193157600080fd5b505af4158015611513573d6000803e3d6000fd5b600060405160200161155b906020808252601490820152735550444154455f4f524445525f4645415455524560601b604082015260600190565b60006119906116d783604001515190565b156119a65761199f8383611ff8565b9050610ce5565b6119ba6119b583604001515190565b612125565b156119c95761199f8383612165565b6119d86116f183604001515190565b156119e75761199f8383612217565b610ce56122c9565b60006119fb84846122e2565b90506000611a093a83613820565b905080831015611a3657604051635dac504d60e01b815260048101829052602481018490526044016104a4565b5050505050565b611052611a48612494565b602083015160e00152565b6060611a7883836040518060600160405280602781526020016138e46027913961251a565b9392505050565b6000611a8c8585856125eb565b60405163bd02d0f560e01b8152600481018290529091506000906001600160a01b0389169063bd02d0f590602401602060405180830381865afa158015611ad7573d6000803e3d6000fd5b505050506040513d601f19601f82011682018060405250810190611afb9190612ee9565b604051637152429d60e11b815260048101849052600060248201529091506001600160a01b0389169063e2a4853a906044016020604051808303816000875af1158015611b4c573d6000803e3d6000fd5b505050506040513d601f19601f82011682018060405250810190611b709190612ee9565b506040516316c48fdd60e11b81526001600160a01b03871690632d891fba90611ba1908890859088906004016137b1565b600060405180830381600087803b158015611bbb57600080fd5b505af1158015611bcf573d6000803e3d6000fd5b50506040516337bf7bff60e01b81526001600160a01b038a1692506337bf7bff91506114e590899089908990899088906004016137d4565b600180546001600160a01b038381166001600160a01b031983168117909355604080519190921680825260208201939093527f53351836099c03ffc3b1727d8abd4b0222afa87d4ed76ae3102d51369ef7f785910160405180910390a15050565b80611c7257505050565b6040516356b4b2ad60e01b81526001600160a01b038416906356b4b2ad90611ca0908590859060040161383f565b600060405180830381600087803b158015611cba57600080fd5b505af1158015611cce573d6000803e3d6000fd5b50505050505050565b6000816001600160a01b03166321f8a721604051602001611d0f9060208082526003908201526215d39560ea1b604082015260600190565b604051602081830303815290604052805190602001206040518263ffffffff1660e01b8152600401611d4391815260200190565b602060405180830381865afa158015611d60573d6000803e3d6000fd5b505050506040513d601f19601f82011682018060405250810190610ce59190613858565b611dda8363a9059cbb60e01b8484604051602401611da392919061383f565b60408051601f198184030181529190526020810180516001600160e01b03166001600160e01b031990931692909217909152612629565b505050565b6000604051602001611e159060208082526010908201526f10519192531250551157d49155d0549160821b604082015260600190565b60408051601f198184030181528282528051602091820120908301526001600160a01b038087169183019190915280851660608301528316608082015260a0016040516020818303038152906040528051906020012090509392505050565b604051633d70e7e560e11b8152600481018290526000906001600160a01b03841690637ae1cfca90602401602060405180830381865afa158015611ebc573d6000803e3d6000fd5b505050506040513d601f19601f82011682018060405250810190611a789190613875565b6000611eeb82515190565b6001600160a01b03160361105257604051631630779760e01b815260040160405180910390fd5b60006002826007811115611f2857611f28613282565b1480610ce557506003611634565b600080826007811115611f4b57611f4b613282565b1480610ce557506001611634565b611f6d611f6882516040015190565b6126fb565b611f75575050565b8051604001516001600160a01b031663d19db5266002611f9a846020015160a0015190565b611fa49190613892565b84846040518463ffffffff1660e01b8152600401611fc39291906133b8565b600060405180830381600088803b158015611fdd57600080fd5b5087f193505050508015611fef575060015b156115d8575050565b600080836001600160a01b031663bd02d0f5612012612739565b6040518263ffffffff1660e01b815260040161203091815260200190565b602060405180830381865afa15801561204d573d6000803e3d6000fd5b505050506040513d601f19601f820116820180604052508101906120719190612ee9565b9050612082836020015160a0015190565b835160a00151516120939083613820565b856001600160a01b031663bd02d0f56120aa6127ac565b6040518263ffffffff1660e01b81526004016120c891815260200190565b602060405180830381865afa1580156120e5573d6000803e3d6000fd5b505050506040513d601f19601f820116820180604052508101906121099190612ee9565b612113919061330c565b61211d919061330c565b949350505050565b6000600482600781111561213b5761213b613282565b14806121585750600582600781111561215657612156613282565b145b8061162b57506006611617565b600080836001600160a01b031663bd02d0f561217f612739565b6040518263ffffffff1660e01b815260040161219d91815260200190565b602060405180830381865afa1580156121ba573d6000803e3d6000fd5b505050506040513d601f19601f820116820180604052508101906121de9190612ee9565b90506121ef836020015160a0015190565b835160a00151516122009083613820565b856001600160a01b031663bd02d0f56120aa6127ea565b600080836001600160a01b031663bd02d0f5612231612739565b6040518263ffffffff1660e01b815260040161224f91815260200190565b602060405180830381865afa15801561226c573d6000803e3d6000fd5b505050506040513d601f19601f820116820180604052508101906122909190612ee9565b90506122a1836020015160a0015190565b835160a00151516122b29083613820565b856001600160a01b031663bd02d0f56120aa612828565b60405163c1c0083160e01b815260040160405180910390fd5b600080836001600160a01b031663bd02d0f5604051602001612334906020808252601c908201527b1154d512535055115117d1915157d09054d157d1d054d7d31253525560221b604082015260600190565b604051602081830303815290604052805190602001206040518263ffffffff1660e01b815260040161236891815260200190565b602060405180830381865afa158015612385573d6000803e3d6000fd5b505050506040513d601f19601f820116820180604052508101906123a99190612ee9565b90506000846001600160a01b031663bd02d0f56040516020016123fd906020808252601f908201527f455354494d415445445f4645455f4d554c5449504c4945525f464143544f5200604082015260600190565b604051602081830303815290604052805190602001206040518263ffffffff1660e01b815260040161243191815260200190565b602060405180830381865afa15801561244e573d6000803e3d6000fd5b505050506040513d601f19601f820116820180604052508101906124729190612ee9565b905060006124808583612862565b61248a908461330c565b9695505050505050565b600061a4b14614806124a8575062066eeb46145b156125155760646001600160a01b031663a3b1b31d6040518163ffffffff1660e01b8152600401602060405180830381865afa1580156124ec573d6000803e3d6000fd5b505050506040513d601f19601f820116820180604052508101906125109190612ee9565b905090565b504390565b606061252584612885565b6125805760405162461bcd60e51b815260206004820152602660248201527f416464726573733a2064656c65676174652063616c6c20746f206e6f6e2d636f6044820152651b9d1c9858dd60d21b60648201526084016104a4565b600080856001600160a01b03168560405161259b91906138b4565b600060405180830381855af49150503d80600081146125d6576040519150601f19603f3d011682016040523d82523d6000602084013e6125db565b606091505b509150915061248a828286612894565b6000604051602001611e159060208082526018908201527710d31052535050931157d1955391125391d7d05353d5539560421b604082015260600190565b600061267e826040518060400160405280602081526020017f5361666545524332303a206c6f772d6c6576656c2063616c6c206661696c6564815250856001600160a01b03166128cd9092919063ffffffff16565b805190915015611dda578080602001905181019061269c9190613875565b611dda5760405162461bcd60e51b815260206004820152602a60248201527f5361666545524332303a204552433230206f7065726174696f6e20646964206e6044820152691bdd081cdd58d8d9595960b21b60648201526084016104a4565b60006001600160a01b03821661271357506000919050565b612725826001600160a01b0316612885565b61273157506000919050565b506001919050565b60006040516020016127749060208082526015908201527414d25391d31157d4d5d05417d1d054d7d312535255605a1b604082015260600190565b60408051601f198184030181528282528051602091820120908301520160405160208183030381529060405280519060200120905090565b600060405160200161277490602080825260189082015277125390d4915054d157d3d491115497d1d054d7d31253525560421b604082015260600190565b600060405160200161277490602080825260189082015277111150d4915054d157d3d491115497d1d054d7d31253525560421b604082015260600190565b60006040516020016127749060208082526014908201527314d5d05417d3d491115497d1d054d7d31253525560621b604082015260600190565b600068327cb2734119d3b7a9601e1b61287b8385613820565b611a789190613892565b6001600160a01b03163b151590565b606083156128a3575081611a78565b8251156128b35782518084602001fd5b8160405162461bcd60e51b81526004016104a491906138d0565b606061211d8484600085856128e185612885565b61292d5760405162461bcd60e51b815260206004820152601d60248201527f416464726573733a2063616c6c20746f206e6f6e2d636f6e747261637400000060448201526064016104a4565b600080866001600160a01b0316858760405161294991906138b4565b60006040518083038185875af1925050503d8060008114612986576040519150601f19603f3d011682016040523d82523d6000602084013e61298b565b606091505b509150915061299b828286612894565b979650505050505050565b6001600160a01b03169052565b600061014082840312156129c657600080fd5b50919050565b634e487b7160e01b600052604160045260246000fd5b604051608081016001600160401b0381118282101715612a0457612a046129cc565b60405290565b60405160c081016001600160401b0381118282101715612a0457612a046129cc565b604051601f8201601f191681016001600160401b0381118282101715612a5457612a546129cc565b604052919050565b60006001600160401b03821115612a7557612a756129cc565b5060051b60200190565b6001600160a01b038116811461105257600080fd5b8035612a9f81612a7f565b919050565b600082601f830112612ab557600080fd5b81356020612aca612ac583612a5c565b612a2c565b82815260059290921b84018101918181019086841115612ae957600080fd5b8286015b84811015612b0d578035612b0081612a7f565b8352918301918301612aed565b509695505050505050565b600080600060608486031215612b2d57600080fd5b83356001600160401b0380821115612b4457600080fd5b612b5087838801612aa4565b94506020860135915080821115612b6657600080fd5b50612b7386828701612aa4565b9250506040840135612b8481612a7f565b809150509250925092565b600060208284031215612ba157600080fd5b5035919050565b60008060008060808587031215612bbe57600080fd5b5050823594602084013594506040840135936060013592509050565b60008060208385031215612bed57600080fd5b82356001600160401b0380821115612c0457600080fd5b818501915085601f830112612c1857600080fd5b813581811115612c2757600080fd5b8660208260051b8501011115612c3c57600080fd5b60209290920196919550909350505050565b60005b83811015612c69578181015183820152602001612c51565b50506000910152565b60008151808452612c8a816020860160208601612c4e565b601f01601f19169290920160200192915050565b6000602080830181845280855180835260408601915060408160051b870101925083870160005b82811015612cf357603f19888603018452612ce1858351612c72565b94509285019290850190600101612cc5565b5092979650505050505050565b6000806000806000858703610160811215612d1a57600080fd5b8635612d2581612a7f565b95506020870135612d3581612a7f565b9450604087013593506060870135925060e0607f1982011215612d5757600080fd5b506080860190509295509295909350565b600060208284031215612d7a57600080fd5b8135611a7881612a7f565b600080600060608486031215612d9a57600080fd5b8335925060208401356001600160401b03811115612db757600080fd5b84016101c08187031215612dca57600080fd5b929592945050506040919091013590565b6020808252601f908201527f5265656e7472616e637947756172643a207265656e7472616e742063616c6c00604082015260600190565b801515811461105257600080fd5b8035612a9f81612e12565b6001600160a01b03831681526101608101612e5160208301612e4c85612a94565b6129a6565b612e5d60208401612a94565b612e6a60408401826129a6565b50612e7760408401612a94565b612e8460608401826129a6565b5060608301356080830152608083013560a083015260a083013560c083015260c083013560e0830152612eb960e08401612e20565b610100612ec98185018315159052565b610120915080850135828501525080840135610140840152509392505050565b600060208284031215612efb57600080fd5b5051919050565b6020808252600d908201526c125b9d985b1a59081a5b9c1d5d609a1b604082015260600190565b634e487b7160e01b600052603260045260246000fd5b634e487b7160e01b600052601160045260246000fd5b600060018201612f6757612f67612f3f565b5060010190565b8051612a9f81612a7f565b600082601f830112612f8a57600080fd5b81516020612f9a612ac583612a5c565b82815260059290921b84018101918181019086841115612fb957600080fd5b8286015b84811015612b0d578051612fd081612a7f565b8352918301918301612fbd565b6000610100808385031215612ff157600080fd5b604051908101906001600160401b0382118183101715613013576130136129cc565b81604052809250835181526020840151602082015260408401516040820152606084015160608201526080840151608082015260a084015160a082015260c084015160c082015260e084015160e0820152505092915050565b6008811061105257600080fd5b60006080828403121561308b57600080fd5b6130936129e2565b905081516130a08161306c565b815260208201516130b081612e12565b602082015260408201516130c381612e12565b604082015260608201516130d681612e12565b606082015292915050565b600082601f8301126130f257600080fd5b81516001600160401b0381111561310b5761310b6129cc565b61311e601f8201601f1916602001612a2c565b81815284602083860101111561313357600080fd5b61211d826020830160208701612c4e565b60006020828403121561315657600080fd5b81516001600160401b038082111561316d57600080fd5b908301906101c0828603121561318257600080fd5b61318a6129e2565b82518281111561319957600080fd5b830160c081880312156131ab57600080fd5b6131b3612a0a565b81516131be81612a7f565b815260208201516131ce81612a7f565b602082015260408201516131e181612a7f565b60408201526131f260608301612f6e565b606082015261320360808301612f6e565b608082015260a08201518481111561321a57600080fd5b61322689828501612f79565b60a08301525082525061323c8660208501612fdd565b602082015261324f866101208501613079565b60408201526101a08301518281111561326757600080fd5b613273878286016130e1565b60608301525095945050505050565b634e487b7160e01b600052602160045260246000fd5b60208082526019908201527822bc31b430b733b2a937baba32b91d103337b93134b23232b760391b604082015260600190565b60208082526021908201527f45786368616e6765526f757465723a20696e76616c6964206f726465725479706040820152606560f81b606082015260800190565b80820180821115610ce557610ce5612f3f565b600081518084526020808501945080840160005b838110156133585781516001600160a01b031687529582019590820190600101613333565b509495945050505050565b6008811061338157634e487b7160e01b600052602160045260246000fd5b9052565b613390828251613363565b6020810151151560208301526040810151151560408301526060810151151560608301525050565b8281526040602080830182905283516101c08385015280516001600160a01b039081166102008601529181015182166102208501529182015181166102408401526060820151811661026084015260808201511661028083015260a0015160c06102a083015260009061342f6102c084018261331f565b9050602084015161348c6060850182805182526020810151602083015260408101516040830152606081015160608301526080810151608083015260a081015160a083015260c081015160c083015260e081015160e08301525050565b5060408401516134a0610160850182613385565b506060840151838203603f19016101e085015261248a8282612c72565b6000808335601e198436030181126134d457600080fd5b8301803591506001600160401b038211156134ee57600080fd5b60200191503681900382131561350357600080fd5b9250929050565b6001600160a01b039485168152928416602084015292166040820152606081019190915260800190565b6001600160a01b038381168252610100820190833561355281612a7f565b818116602085015250602084013561356981612a7f565b818116604085015250604084013561358081612a7f565b818116606085015250506060830135608083015260808301356135a281612e12565b80151560a08401525060a083013560c083015260c083013560e08301529392505050565b8035612a9f8161306c565b6000602082840312156135e357600080fd5b8135611a788161306c565b6000808335601e1984360301811261360557600080fd5b83016020810192503590506001600160401b0381111561362457600080fd5b8060051b360382131561350357600080fd5b8183526000602080850194508260005b8581101561335857813561365981612a7f565b6001600160a01b031687529582019590820190600101613646565b6001600160a01b0383168152604060208201819052613698908201612e4c84612a94565b60006136a660208401612a94565b6136b360608401826129a6565b506136c060408401612a94565b6136cd60808401826129a6565b506136da60608401612a94565b6136e760a08401826129a6565b506136f560808401846135ee565b6101c08060c086015261370d61020086018385613636565b925060a086013560e0860152610100915060c08601358286015261012060e08701358187015261014083880135818801526101609350818801358488015261018091508088013582880152506137648388016135c6565b92506101a061377581880185613363565b613780828901612e20565b801515888501529350613794818901612e20565b93505050506137a86101e085018215159052565b50949350505050565b6001600160a01b0393841681526020810192909252909116604082015260600190565b6001600160a01b039586168152938516602085015291841660408401529092166060820152608081019190915260a00190565b82815260406020820152600061211d6040830184612c72565b600081600019048311821515161561383a5761383a612f3f565b500290565b6001600160a01b03929092168252602082015260400190565b60006020828403121561386a57600080fd5b8151611a7881612a7f565b60006020828403121561388757600080fd5b8151611a7881612e12565b6000826138af57634e487b7160e01b600052601260045260246000fd5b500490565b600082516138c6818460208701612c4e565b9190910192915050565b602081526000611a786020830184612c7256fe416464726573733a206c6f772d6c6576656c2064656c65676174652063616c6c206661696c6564a2646970667358221220ea6dd6f2fd117f7aafe028baac20ab31f9db05ee7d5a19ac7423dfbee5f0e33364736f6c63430008100033",
  "linkReferences": {
    "contracts/gas/GasUtils.sol": {
      "GasUtils": [
        {
          "length": 20,
          "start": 7180
        }
      ]
    }
  },
  "deployedLinkReferences": {
    "contracts/gas/GasUtils.sol": {
      "GasUtils": [
        {
          "length": 20,
          "start": 6295
        }
      ]
    }
  }
}