{
  "_format": "hh-sol-artifact-1",
  "contractName": "ExchangeRouter",
  "sourceName": "contracts/router/ExchangeRouter.sol",
  "abi": [
    {
      "inputs": [
        {
          "internalType": "contract Router",
          "name": "_router",
          "type": "address"
        },
        {
          "internalType": "contract RoleStore",
          "name": "_roleStore",
          "type": "address"
        },
        {
          "internalType": "contract DataStore",
          "name": "_dataStore",
          "type": "address"
        },
        {
          "internalType": "contract EventEmitter",
          "name": "_eventEmitter",
          "type": "address"
        },
        {
          "internalType": "contract DepositHandler",
          "name": "_depositHandler",
          "type": "address"
        },
        {
          "internalType": "contract WithdrawalHandler",
          "name": "_withdrawalHandler",
          "type": "address"
        },
        {
          "internalType": "contract OrderHandler",
          "name": "_orderHandler",
          "type": "address"
        }
      ],
      "stateMutability": "nonpayable",
      "type": "constructor"
    },
    {
      "inputs": [
        {
          "internalType": "uint256",
          "name": "adjustedClaimableAmount",
          "type": "uint256"
        },
        {
          "internalType": "uint256",
          "name": "claimedAmount",
          "type": "uint256"
        }
      ],
      "name": "CollateralAlreadyClaimed",
      "type": "error"
    },
    {
      "inputs": [],
      "name": "EmptyReceiver",
      "type": "error"
    },
    {
      "inputs": [
        {
          "internalType": "uint256",
          "name": "marketsLength",
          "type": "uint256"
        },
        {
          "internalType": "uint256",
          "name": "tokensLength",
          "type": "uint256"
        }
      ],
      "name": "InvalidClaimAffiliateRewardsInput",
      "type": "error"
    },
    {
      "inputs": [
        {
          "internalType": "uint256",
          "name": "marketsLength",
          "type": "uint256"
        },
        {
          "internalType": "uint256",
          "name": "tokensLength",
          "type": "uint256"
        },
        {
          "internalType": "uint256",
          "name": "timeKeysLength",
          "type": "uint256"
        }
      ],
      "name": "InvalidClaimCollateralInput",
      "type": "error"
    },
    {
      "inputs": [
        {
          "internalType": "uint256",
          "name": "marketsLength",
          "type": "uint256"
        },
        {
          "internalType": "uint256",
          "name": "tokensLength",
          "type": "uint256"
        }
      ],
      "name": "InvalidClaimFundingFeesInput",
      "type": "error"
    },
    {
      "inputs": [
        {
          "internalType": "address",
          "name": "token",
          "type": "address"
        },
        {
          "internalType": "address",
          "name": "receiver",
          "type": "address"
        },
        {
          "internalType": "uint256",
          "name": "amount",
          "type": "uint256"
        }
      ],
      "name": "TokenTransferError",
      "type": "error"
    },
    {
      "inputs": [
        {
          "internalType": "address",
          "name": "msgSender",
          "type": "address"
        },
        {
          "internalType": "string",
          "name": "role",
          "type": "string"
        }
      ],
      "name": "Unauthorized",
      "type": "error"
    },
    {
      "inputs": [
        {
          "internalType": "bytes32",
          "name": "key",
          "type": "bytes32"
        }
      ],
      "name": "cancelDeposit",
      "outputs": [],
      "stateMutability": "payable",
      "type": "function"
    },
    {
      "inputs": [
        {
          "internalType": "bytes32",
          "name": "key",
          "type": "bytes32"
        }
      ],
      "name": "cancelOrder",
      "outputs": [],
      "stateMutability": "payable",
      "type": "function"
    },
    {
      "inputs": [
        {
          "internalType": "bytes32",
          "name": "key",
          "type": "bytes32"
        }
      ],
      "name": "cancelWithdrawal",
      "outputs": [],
      "stateMutability": "payable",
      "type": "function"
    },
    {
      "inputs": [
        {
          "internalType": "address[]",
          "name": "markets",
          "type": "address[]"
        },
        {
          "internalType": "address[]",
          "name": "tokens",
          "type": "address[]"
        },
        {
          "internalType": "address",
          "name": "receiver",
          "type": "address"
        }
      ],
      "name": "claimAffiliateRewards",
      "outputs": [],
      "stateMutability": "payable",
      "type": "function"
    },
    {
      "inputs": [
        {
          "internalType": "address[]",
          "name": "markets",
          "type": "address[]"
        },
        {
          "internalType": "address[]",
          "name": "tokens",
          "type": "address[]"
        },
        {
          "internalType": "uint256[]",
          "name": "timeKeys",
          "type": "uint256[]"
        },
        {
          "internalType": "address",
          "name": "receiver",
          "type": "address"
        }
      ],
      "name": "claimCollateral",
      "outputs": [],
      "stateMutability": "payable",
      "type": "function"
    },
    {
      "inputs": [
        {
          "internalType": "address[]",
          "name": "markets",
          "type": "address[]"
        },
        {
          "internalType": "address[]",
          "name": "tokens",
          "type": "address[]"
        },
        {
          "internalType": "address",
          "name": "receiver",
          "type": "address"
        }
      ],
      "name": "claimFundingFees",
      "outputs": [],
      "stateMutability": "payable",
      "type": "function"
    },
    {
      "inputs": [
        {
          "components": [
            {
              "internalType": "address",
              "name": "receiver",
              "type": "address"
            },
            {
              "internalType": "address",
              "name": "callbackContract",
              "type": "address"
            },
            {
              "internalType": "address",
              "name": "market",
              "type": "address"
            },
            {
              "internalType": "address",
              "name": "initialLongToken",
              "type": "address"
            },
            {
              "internalType": "address",
              "name": "initialShortToken",
              "type": "address"
            },
            {
              "internalType": "address[]",
              "name": "longTokenSwapPath",
              "type": "address[]"
            },
            {
              "internalType": "address[]",
              "name": "shortTokenSwapPath",
              "type": "address[]"
            },
            {
              "internalType": "uint256",
              "name": "minMarketTokens",
              "type": "uint256"
            },
            {
              "internalType": "bool",
              "name": "shouldUnwrapNativeToken",
              "type": "bool"
            },
            {
              "internalType": "uint256",
              "name": "executionFee",
              "type": "uint256"
            },
            {
              "internalType": "uint256",
              "name": "callbackGasLimit",
              "type": "uint256"
            }
          ],
          "internalType": "struct DepositUtils.CreateDepositParams",
          "name": "params",
          "type": "tuple"
        }
      ],
      "name": "createDeposit",
      "outputs": [
        {
          "internalType": "bytes32",
          "name": "",
          "type": "bytes32"
        }
      ],
      "stateMutability": "payable",
      "type": "function"
    },
    {
      "inputs": [
        {
          "components": [
            {
              "components": [
                {
                  "internalType": "address",
                  "name": "receiver",
                  "type": "address"
                },
                {
                  "internalType": "address",
                  "name": "callbackContract",
                  "type": "address"
                },
                {
                  "internalType": "address",
                  "name": "market",
                  "type": "address"
                },
                {
                  "internalType": "address",
                  "name": "initialCollateralToken",
                  "type": "address"
                },
                {
                  "internalType": "address[]",
                  "name": "swapPath",
                  "type": "address[]"
                }
              ],
              "internalType": "struct BaseOrderUtils.CreateOrderParamsAddresses",
              "name": "addresses",
              "type": "tuple"
            },
            {
              "components": [
                {
                  "internalType": "uint256",
                  "name": "sizeDeltaUsd",
                  "type": "uint256"
                },
                {
                  "internalType": "uint256",
                  "name": "initialCollateralDeltaAmount",
                  "type": "uint256"
                },
                {
                  "internalType": "uint256",
                  "name": "triggerPrice",
                  "type": "uint256"
                },
                {
                  "internalType": "uint256",
                  "name": "acceptablePrice",
                  "type": "uint256"
                },
                {
                  "internalType": "uint256",
                  "name": "executionFee",
                  "type": "uint256"
                },
                {
                  "internalType": "uint256",
                  "name": "callbackGasLimit",
                  "type": "uint256"
                },
                {
                  "internalType": "uint256",
                  "name": "minOutputAmount",
                  "type": "uint256"
                }
              ],
              "internalType": "struct BaseOrderUtils.CreateOrderParamsNumbers",
              "name": "numbers",
              "type": "tuple"
            },
            {
              "internalType": "enum Order.OrderType",
              "name": "orderType",
              "type": "uint8"
            },
            {
              "internalType": "enum Order.DecreasePositionSwapType",
              "name": "decreasePositionSwapType",
              "type": "uint8"
            },
            {
              "internalType": "bool",
              "name": "isLong",
              "type": "bool"
            },
            {
              "internalType": "bool",
              "name": "shouldUnwrapNativeToken",
              "type": "bool"
            },
            {
              "internalType": "bytes32",
              "name": "referralCode",
              "type": "bytes32"
            }
          ],
          "internalType": "struct BaseOrderUtils.CreateOrderParams",
          "name": "params",
          "type": "tuple"
        }
      ],
      "name": "createOrder",
      "outputs": [
        {
          "internalType": "bytes32",
          "name": "",
          "type": "bytes32"
        }
      ],
      "stateMutability": "payable",
      "type": "function"
    },
    {
      "inputs": [
        {
          "components": [
            {
              "internalType": "address",
              "name": "receiver",
              "type": "address"
            },
            {
              "internalType": "address",
              "name": "callbackContract",
              "type": "address"
            },
            {
              "internalType": "address",
              "name": "market",
              "type": "address"
            },
            {
              "internalType": "address[]",
              "name": "longTokenSwapPath",
              "type": "address[]"
            },
            {
              "internalType": "address[]",
              "name": "shortTokenSwapPath",
              "type": "address[]"
            },
            {
              "internalType": "uint256",
              "name": "marketTokenAmount",
              "type": "uint256"
            },
            {
              "internalType": "uint256",
              "name": "minLongTokenAmount",
              "type": "uint256"
            },
            {
              "internalType": "uint256",
              "name": "minShortTokenAmount",
              "type": "uint256"
            },
            {
              "internalType": "bool",
              "name": "shouldUnwrapNativeToken",
              "type": "bool"
            },
            {
              "internalType": "uint256",
              "name": "executionFee",
              "type": "uint256"
            },
            {
              "internalType": "uint256",
              "name": "callbackGasLimit",
              "type": "uint256"
            }
          ],
          "internalType": "struct WithdrawalUtils.CreateWithdrawalParams",
          "name": "params",
          "type": "tuple"
        }
      ],
      "name": "createWithdrawal",
      "outputs": [
        {
          "internalType": "bytes32",
          "name": "",
          "type": "bytes32"
        }
      ],
      "stateMutability": "payable",
      "type": "function"
    },
    {
      "inputs": [],
      "name": "dataStore",
      "outputs": [
        {
          "internalType": "contract DataStore",
          "name": "",
          "type": "address"
        }
      ],
      "stateMutability": "view",
      "type": "function"
    },
    {
      "inputs": [],
      "name": "depositHandler",
      "outputs": [
        {
          "internalType": "contract DepositHandler",
          "name": "",
          "type": "address"
        }
      ],
      "stateMutability": "view",
      "type": "function"
    },
    {
      "inputs": [],
      "name": "eventEmitter",
      "outputs": [
        {
          "internalType": "contract EventEmitter",
          "name": "",
          "type": "address"
        }
      ],
      "stateMutability": "view",
      "type": "function"
    },
    {
      "inputs": [
        {
          "internalType": "bytes[]",
          "name": "data",
          "type": "bytes[]"
        }
      ],
      "name": "multicall",
      "outputs": [
        {
          "internalType": "bytes[]",
          "name": "results",
          "type": "bytes[]"
        }
      ],
      "stateMutability": "payable",
      "type": "function"
    },
    {
      "inputs": [],
      "name": "orderHandler",
      "outputs": [
        {
          "internalType": "contract OrderHandler",
          "name": "",
          "type": "address"
        }
      ],
      "stateMutability": "view",
      "type": "function"
    },
    {
      "inputs": [],
      "name": "roleStore",
      "outputs": [
        {
          "internalType": "contract RoleStore",
          "name": "",
          "type": "address"
        }
      ],
      "stateMutability": "view",
      "type": "function"
    },
    {
      "inputs": [],
      "name": "router",
      "outputs": [
        {
          "internalType": "contract Router",
          "name": "",
          "type": "address"
        }
      ],
      "stateMutability": "view",
      "type": "function"
    },
    {
      "inputs": [
        {
          "internalType": "address",
          "name": "token",
          "type": "address"
        },
        {
          "internalType": "address",
          "name": "receiver",
          "type": "address"
        },
        {
          "internalType": "uint256",
          "name": "amount",
          "type": "uint256"
        }
      ],
      "name": "sendTokens",
      "outputs": [],
      "stateMutability": "payable",
      "type": "function"
    },
    {
      "inputs": [
        {
          "internalType": "address",
          "name": "receiver",
          "type": "address"
        },
        {
          "internalType": "uint256",
          "name": "amount",
          "type": "uint256"
        }
      ],
      "name": "sendWnt",
      "outputs": [],
      "stateMutability": "payable",
      "type": "function"
    },
    {
      "inputs": [
        {
          "internalType": "bytes32",
          "name": "key",
          "type": "bytes32"
        },
        {
          "components": [
            {
              "internalType": "address[]",
              "name": "primaryTokens",
              "type": "address[]"
            },
            {
              "components": [
                {
                  "internalType": "uint256",
                  "name": "min",
                  "type": "uint256"
                },
                {
                  "internalType": "uint256",
                  "name": "max",
                  "type": "uint256"
                }
              ],
              "internalType": "struct Price.Props[]",
              "name": "primaryPrices",
              "type": "tuple[]"
            },
            {
              "internalType": "address[]",
              "name": "secondaryTokens",
              "type": "address[]"
            },
            {
              "components": [
                {
                  "internalType": "uint256",
                  "name": "min",
                  "type": "uint256"
                },
                {
                  "internalType": "uint256",
                  "name": "max",
                  "type": "uint256"
                }
              ],
              "internalType": "struct Price.Props[]",
              "name": "secondaryPrices",
              "type": "tuple[]"
            }
          ],
          "internalType": "struct OracleUtils.SimulatePricesParams",
          "name": "simulatedOracleParams",
          "type": "tuple"
        }
      ],
      "name": "simulateExecuteDeposit",
      "outputs": [],
      "stateMutability": "payable",
      "type": "function"
    },
    {
      "inputs": [
        {
          "internalType": "bytes32",
          "name": "key",
          "type": "bytes32"
        },
        {
          "components": [
            {
              "internalType": "address[]",
              "name": "primaryTokens",
              "type": "address[]"
            },
            {
              "components": [
                {
                  "internalType": "uint256",
                  "name": "min",
                  "type": "uint256"
                },
                {
                  "internalType": "uint256",
                  "name": "max",
                  "type": "uint256"
                }
              ],
              "internalType": "struct Price.Props[]",
              "name": "primaryPrices",
              "type": "tuple[]"
            },
            {
              "internalType": "address[]",
              "name": "secondaryTokens",
              "type": "address[]"
            },
            {
              "components": [
                {
                  "internalType": "uint256",
                  "name": "min",
                  "type": "uint256"
                },
                {
                  "internalType": "uint256",
                  "name": "max",
                  "type": "uint256"
                }
              ],
              "internalType": "struct Price.Props[]",
              "name": "secondaryPrices",
              "type": "tuple[]"
            }
          ],
          "internalType": "struct OracleUtils.SimulatePricesParams",
          "name": "simulatedOracleParams",
          "type": "tuple"
        }
      ],
      "name": "simulateExecuteOrder",
      "outputs": [],
      "stateMutability": "payable",
      "type": "function"
    },
    {
      "inputs": [
        {
          "internalType": "bytes32",
          "name": "key",
          "type": "bytes32"
        },
        {
          "components": [
            {
              "internalType": "address[]",
              "name": "primaryTokens",
              "type": "address[]"
            },
            {
              "components": [
                {
                  "internalType": "uint256",
                  "name": "min",
                  "type": "uint256"
                },
                {
                  "internalType": "uint256",
                  "name": "max",
                  "type": "uint256"
                }
              ],
              "internalType": "struct Price.Props[]",
              "name": "primaryPrices",
              "type": "tuple[]"
            },
            {
              "internalType": "address[]",
              "name": "secondaryTokens",
              "type": "address[]"
            },
            {
              "components": [
                {
                  "internalType": "uint256",
                  "name": "min",
                  "type": "uint256"
                },
                {
                  "internalType": "uint256",
                  "name": "max",
                  "type": "uint256"
                }
              ],
              "internalType": "struct Price.Props[]",
              "name": "secondaryPrices",
              "type": "tuple[]"
            }
          ],
          "internalType": "struct OracleUtils.SimulatePricesParams",
          "name": "simulatedOracleParams",
          "type": "tuple"
        }
      ],
      "name": "simulateExecuteWithdrawal",
      "outputs": [],
      "stateMutability": "payable",
      "type": "function"
    },
    {
      "inputs": [
        {
          "internalType": "bytes32",
          "name": "key",
          "type": "bytes32"
        },
        {
          "internalType": "uint256",
          "name": "sizeDeltaUsd",
          "type": "uint256"
        },
        {
          "internalType": "uint256",
          "name": "acceptablePrice",
          "type": "uint256"
        },
        {
          "internalType": "uint256",
          "name": "triggerPrice",
          "type": "uint256"
        },
        {
          "internalType": "uint256",
          "name": "minOutputAmount",
          "type": "uint256"
        }
      ],
      "name": "updateOrder",
      "outputs": [],
      "stateMutability": "payable",
      "type": "function"
    },
    {
      "inputs": [],
      "name": "withdrawalHandler",
      "outputs": [
        {
          "internalType": "contract WithdrawalHandler",
          "name": "",
          "type": "address"
        }
      ],
      "stateMutability": "view",
      "type": "function"
    }
  ],
  "bytecode": "0x6101606040523480156200001257600080fd5b5060405162003b0838038062003b0883398101604081905262000035916200008a565b60016000556001600160a01b0395861660805295851660a05292841660c05290831660e052821661010052811661012052166101405262000135565b6001600160a01b03811681146200008757600080fd5b50565b600080600080600080600060e0888a031215620000a657600080fd5b8751620000b38162000071565b6020890151909750620000c68162000071565b6040890151909650620000d98162000071565b6060890151909550620000ec8162000071565b6080890151909450620000ff8162000071565b60a0890151909350620001128162000071565b60c0890151909250620001258162000071565b8091505092959891949750929550565b60805160a05160c05160e0516101005161012051610140516138de6200022a60003960008181610310015281816105e4015281816109d501528181610c7b0152610e5a0152600081816101270152818161085c01528181610ab20152610fc6015260008181610254015281816105380152818161103f01526112b50152600081816102880152818161069d01528181610f1c01526111f10152600081816101e70152818161044c0152818161067c0152818161076d015281816108eb01528181610a4101528181610b9001528181610efb01526111d00152600081816103b601526110dd015260006101b301526138de6000f3fe6080604052600436106101105760003560e01c80632c2f3c071461011557806331404484146101665780633bc4de561461017b57806349287a221461018e5780634a4a7b04146101a1578063660d0d67146101d55780637213c5a0146102095780637489ec231461021c5780637d39aaf11461022f5780639c8b2cfb146102425780639ff78c3014610276578063a6cc89eb146102aa578063aab286f8146102cb578063ac9650d8146102de578063b5848305146102fe578063b9606fef14610332578063c41b1ab314610345578063ca18d49014610358578063da0c7ce11461036b578063e6d66ac81461037e578063e9249b5714610391578063f887ea40146103a4578063fac77c70146103d8575b600080fd5b34801561012157600080fd5b506101497f000000000000000000000000000000000000000000000000000000000000000081565b6040516001600160a01b0390911681526020015b60405180910390f35b6101796101743660046121b1565b6103eb565b005b61017961018936600461241f565b6105a6565b61017961019c366004612503565b61061b565b3480156101ad57600080fd5b506101497f000000000000000000000000000000000000000000000000000000000000000081565b3480156101e157600080fd5b506101497f000000000000000000000000000000000000000000000000000000000000000081565b6101796102173660046121b1565b610715565b61017961022a3660046121b1565b610893565b61017961023d36600461257a565b610a0c565b34801561024e57600080fd5b506101497f000000000000000000000000000000000000000000000000000000000000000081565b34801561028257600080fd5b506101497f000000000000000000000000000000000000000000000000000000000000000081565b6102bd6102b83660046125bf565b610a70565b60405190815260200161015d565b6101796102d93660046125fb565b610b38565b6102f16102ec366004612636565b610cf9565b60405161015d91906126fa565b34801561030a57600080fd5b506101497f000000000000000000000000000000000000000000000000000000000000000081565b6102bd61034036600461275c565b610e18565b610179610353366004612503565b610e91565b61017961036636600461241f565b610f88565b6102bd6103793660046125bf565b610ffd565b61017961038c36600461279e565b611076565b61017961039f3660046127df565b611146565b3480156103b057600080fd5b506101497f000000000000000000000000000000000000000000000000000000000000000081565b6101796103e636600461241f565b611277565b6002600054036104165760405162461bcd60e51b815260040161040d906128cd565b60405180910390fd5b6002600090815560405163fdfc26f360e01b815273__$b63e253a228f0e32f671cc49c7fc32477c$__9063fdfc26f390610476907f0000000000000000000000000000000000000000000000000000000000000000908690600401612904565b600060405180830381865af4158015610493573d6000803e3d6000fd5b505050506040513d6000823e601f3d908101601f191682016040526104bb9190810190612a41565b9050336104c782515190565b6001600160a01b031614610522576040805163a35b150b60e01b8152336004820152602481019190915260196044820152781858d8dbdd5b9d08199bdc8818d85b98d95b11195c1bdcda5d603a1b606482015260840161040d565b604051630c50112160e21b8152600481018390527f00000000000000000000000000000000000000000000000000000000000000006001600160a01b0316906331404484906024015b600060405180830381600087803b15801561058557600080fd5b505af1158015610599573d6000803e3d6000fd5b5050600160005550505050565b6002600054036105c85760405162461bcd60e51b815260040161040d906128cd565b6002600055604051631de26f2b60e11b81526001600160a01b037f00000000000000000000000000000000000000000000000000000000000000001690633bc4de569061056b9085908590600401612c19565b60026000540361063d5760405162461bcd60e51b815260040161040d906128cd565b6002600055815183511461066a5782518251604051635b3043dd60e01b815260040161040d929190612c9e565b3360005b8451811015610709576106f77f00000000000000000000000000000000000000000000000000000000000000007f00000000000000000000000000000000000000000000000000000000000000008784815181106106ce576106ce612cac565b60200260200101518785815181106106e8576106e8612cac565b602002602001015186886112ec565b8061070181612cd8565b91505061066e565b50506001600055505050565b6002600054036107375760405162461bcd60e51b815260040161040d906128cd565b6002600090815560405163fdfc26f360e01b815273__$3dc24d71d6ebafc0c4ce8ac2f69cd1548a$__9063fdfc26f390610797907f0000000000000000000000000000000000000000000000000000000000000000908690600401612904565b600060405180830381865af41580156107b4573d6000803e3d6000fd5b505050506040513d6000823e601f3d908101601f191682016040526107dc9190810190612cf1565b9050336107e882515190565b6001600160a01b031614610846576040805163a35b150b60e01b81523360048201526024810191909152601c60448201527b1858d8dbdd5b9d08199bdc8818d85b98d95b15da5d1a191c985dd85b60221b606482015260840161040d565b6040516303909e2d60e51b8152600481018390527f00000000000000000000000000000000000000000000000000000000000000006001600160a01b031690637213c5a09060240161056b565b6002600054036108b55760405162461bcd60e51b815260040161040d906128cd565b6002600090815560405163fdfc26f360e01b815273__$9dcb75ef0bb6c4288f2ccffe7dc492c4eb$__9063fdfc26f390610915907f0000000000000000000000000000000000000000000000000000000000000000908690600401612904565b600060405180830381865af4158015610932573d6000803e3d6000fd5b505050506040513d6000823e601f3d908101601f1916820160405261095a9190810190612f2e565b90503361096682515190565b6001600160a01b0316146109bf576040805163a35b150b60e01b81523360048201526024810191909152601760448201527630b1b1b7bab73a103337b91031b0b731b2b627b93232b960491b606482015260840161040d565b604051637489ec2360e01b8152600481018390527f00000000000000000000000000000000000000000000000000000000000000006001600160a01b031690637489ec239060240161056b565b600260005403610a2e5760405162461bcd60e51b815260040161040d906128cd565b6002600055610a3c826114bb565b610a677f000000000000000000000000000000000000000000000000000000000000000083836114e5565b50506001600055565b6000600260005403610a945760405162461bcd60e51b815260040161040d906128cd565b6002600055604051630527e11d60e31b815233906001600160a01b037f0000000000000000000000000000000000000000000000000000000000000000169063293f08e890610ae990849087906004016130ca565b6020604051808303816000875af1158015610b08573d6000803e3d6000fd5b505050506040513d601f19601f82011682018060405250810190610b2c91906131da565b60016000559392505050565b600260005403610b5a5760405162461bcd60e51b815260040161040d906128cd565b6002600090815560405163fdfc26f360e01b815273__$9dcb75ef0bb6c4288f2ccffe7dc492c4eb$__9063fdfc26f390610bba907f0000000000000000000000000000000000000000000000000000000000000000908a90600401612904565b600060405180830381865af4158015610bd7573d6000803e3d6000fd5b505050506040513d6000823e601f3d908101601f19168201604052610bff9190810190612f2e565b905033610c0b82515190565b6001600160a01b031614610c64576040805163a35b150b60e01b81523360048201526024810191909152601760448201527630b1b1b7bab73a103337b9103ab83230ba32a7b93232b960491b606482015260840161040d565b604051633df858a360e01b81526001600160a01b037f00000000000000000000000000000000000000000000000000000000000000001690633df858a390610cba908990899089908990899089906004016132a3565b600060405180830381600087803b158015610cd457600080fd5b505af1158015610ce8573d6000803e3d6000fd5b505060016000555050505050505050565b6060816001600160401b03811115610d1357610d136121ca565b604051908082528060200260200182016040528015610d4657816020015b6060815260200190600190039081610d315790505b50905060005b82811015610e105760008030868685818110610d6a57610d6a612cac565b9050602002810190610d7c919061337f565b604051610d8a9291906133c5565b600060405180830381855af49150503d8060008114610dc5576040519150601f19603f3d011682016040523d82523d6000602084013e610dca565b606091505b509150915081610ddd57610ddd8161156e565b80848481518110610df057610df0612cac565b602002602001018190525050508080610e0890612cd8565b915050610d4c565b505b92915050565b6000600260005403610e3c5760405162461bcd60e51b815260040161040d906128cd565b6002600055604051630ce7660560e01b815233906001600160a01b037f00000000000000000000000000000000000000000000000000000000000000001690630ce7660590610ae99084908790600401613473565b600260005403610eb35760405162461bcd60e51b815260040161040d906128cd565b60026000558151835114610ee05782518251604051637363cfa560e01b815260040161040d929190612c9e565b610ee9816114bb565b3360005b845181101561070957610f767f00000000000000000000000000000000000000000000000000000000000000007f0000000000000000000000000000000000000000000000000000000000000000878481518110610f4d57610f4d612cac565b6020026020010151878581518110610f6757610f67612cac565b602002602001015186886115ac565b80610f8081612cd8565b915050610eed565b600260005403610faa5760405162461bcd60e51b815260040161040d906128cd565b6002600055604051630ca18d4960e41b81526001600160a01b037f0000000000000000000000000000000000000000000000000000000000000000169063ca18d4909061056b9085908590600401612c19565b60006002600054036110215760405162461bcd60e51b815260040161040d906128cd565b6002600055604051630ff7831560e31b815233906001600160a01b037f00000000000000000000000000000000000000000000000000000000000000001690637fbc18a890610ae99084908790600401613593565b6002600054036110985760405162461bcd60e51b815260040161040d906128cd565b60026000556110a6826114bb565b6040516303704f0f60e31b81526001600160a01b0384811660048301523360248301819052848216604484015260648301849052917f000000000000000000000000000000000000000000000000000000000000000090911690631b82787890608401600060405180830381600087803b15801561112357600080fd5b505af1158015611137573d6000803e3d6000fd5b50506001600055505050505050565b6002600054036111685760405162461bcd60e51b815260040161040d906128cd565b60026000558251845114158061118057508151835114155b156111b55783518351835160405163216068f960e11b815260048101939093526024830191909152604482015260640161040d565b6111be816114bb565b3360005b8551811015610599576112657f00000000000000000000000000000000000000000000000000000000000000007f000000000000000000000000000000000000000000000000000000000000000088848151811061122257611222612cac565b602002602001015188858151811061123c5761123c612cac565b602002602001015188868151811061125657611256612cac565b60200260200101518789611741565b8061126f81612cd8565b9150506111c2565b6002600054036112995760405162461bcd60e51b815260040161040d906128cd565b6002600055604051630fac77c760e41b81526001600160a01b037f0000000000000000000000000000000000000000000000000000000000000000169063fac77c709061056b9085908590600401612c19565b60006112f9858585611a81565b60405163bd02d0f560e01b8152600481018290529091506000906001600160a01b0389169063bd02d0f590602401602060405180830381865afa158015611344573d6000803e3d6000fd5b505050506040513d601f19601f8201168201806040525081019061136891906131da565b604051637152429d60e11b81529091506001600160a01b0389169063e2a4853a9061139a908590600090600401612c9e565b6020604051808303816000875af11580156113b9573d6000803e3d6000fd5b505050506040513d601f19601f820116820180604052508101906113dd91906131da565b5060405163078d3b7960e01b81526001600160a01b0387169063078d3b799061140e908890879086906004016136be565b600060405180830381600087803b15801561142857600080fd5b505af115801561143c573d6000803e3d6000fd5b505060405163aa1fcbb960e01b815273__$c5242c1b4d0e7cbc87936b604afb77fd42$__925063aa1fcbb99150611481908a908a908a908a908a9089906004016136e2565b60006040518083038186803b15801561149957600080fd5b505af41580156114ad573d6000803e3d6000fd5b505050505050505050505050565b6001600160a01b0381166114e25760405163d551823d60e01b815260040160405180910390fd5b50565b806000036114f257505050565b6114fb826114bb565b600061150684611b16565b9050806001600160a01b031663d0e30db0836040518263ffffffff1660e01b81526004016000604051808303818588803b15801561154357600080fd5b505af1158015611557573d6000803e3d6000fd5b505050505061156884828585611bc3565b50505050565b60008061157a83611cd4565b91509150801561159e578160405162461bcd60e51b815260040161040d919061371d565b6115a783611d64565b505050565b60006115b9858585611d6d565b60405163bd02d0f560e01b8152600481018290529091506000906001600160a01b0389169063bd02d0f590602401602060405180830381865afa158015611604573d6000803e3d6000fd5b505050506040513d601f19601f8201168201806040525081019061162891906131da565b604051637152429d60e11b81529091506001600160a01b0389169063e2a4853a9061165a908590600090600401612c9e565b6020604051808303816000875af1158015611679573d6000803e3d6000fd5b505050506040513d601f19601f8201168201806040525081019061169d91906131da565b5060405163078d3b7960e01b81526001600160a01b0387169063078d3b79906116ce908890879086906004016136be565b600060405180830381600087803b1580156116e857600080fd5b505af11580156116fc573d6000803e3d6000fd5b50506040516305d7953560e01b815273__$c1eebf06e53d0bd092f667687cf73e1ebf$__92506305d795359150611481908a908a908a908a908a9089906004016136e2565b6000876001600160a01b031663bd02d0f561175e88888888611dab565b6040518263ffffffff1660e01b815260040161177c91815260200190565b602060405180830381865afa158015611799573d6000803e3d6000fd5b505050506040513d601f19601f820116820180604052508101906117bd91906131da565b90506000886001600160a01b031663bd02d0f56117dc89898989611e53565b6040518263ffffffff1660e01b81526004016117fa91815260200190565b602060405180830381865afa158015611817573d6000803e3d6000fd5b505050506040513d601f19601f8201168201806040525081019061183b91906131da565b90506000896001600160a01b031663bd02d0f561185a8a8a8a8a611e94565b6040518263ffffffff1660e01b815260040161187891815260200190565b602060405180830381865afa158015611895573d6000803e3d6000fd5b505050506040513d601f19601f820116820180604052508101906118b991906131da565b905060006118c78484611ed3565b90508181106118ed578082604051631d8db13960e31b815260040161040d929190612c9e565b60006118f98383613730565b90508b6001600160a01b031663e2a4853a6119168c8c8c8c611e94565b846040518363ffffffff1660e01b8152600401611934929190612c9e565b6020604051808303816000875af1158015611953573d6000803e3d6000fd5b505050506040513d601f19601f8201168201806040525081019061197791906131da565b5060405163078d3b7960e01b81526001600160a01b038b169063078d3b79906119a8908c908a9086906004016136be565b600060405180830381600087803b1580156119c257600080fd5b505af11580156119d6573d6000803e3d6000fd5b505060405163420348a760e01b81526001600160a01b03808f166004830152808e166024830152808d166044830152606482018c9052808b166084830152891660a482015260c4810184905273__$c1eebf06e53d0bd092f667687cf73e1ebf$__925063420348a7915060e40160006040518083038186803b158015611a5b57600080fd5b505af4158015611a6f573d6000803e3d6000fd5b50505050505050505050505050505050565b6000604051602001611ab79060208082526010908201526f10519192531250551157d49155d0549160821b604082015260600190565b60408051601f198184030181528282528051602091820120908301526001600160a01b038087169183019190915280851660608301528316608082015260a0016040516020818303038152906040528051906020012090509392505050565b6000816001600160a01b03166321f8a721604051602001611b4e9060208082526003908201526215d39560ea1b604082015260600190565b604051602081830303815290604052805190602001206040518263ffffffff1660e01b8152600401611b8291815260200190565b602060405180830381865afa158015611b9f573d6000803e3d6000fd5b505050506040513d601f19601f82011682018060405250810190610e129190613743565b801561156857611bd2826114bb565b6000846001600160a01b031663bd02d0f5611bec86611f76565b6040518263ffffffff1660e01b8152600401611c0a91815260200190565b602060405180830381865afa158015611c27573d6000803e3d6000fd5b505050506040513d601f19601f82011682018060405250810190611c4b91906131da565b9050600080611c5c86868686611ffe565b915091508115611c6e57505050611568565b6000611c7982611cd4565b5090507fc9f14d9a0a9b46470c7c0b6c508f8283abaab7f795f153953c58cd4250824dae8183604051611cad929190613760565b60405180910390a186868660405163012f3b8f60e71b815260040161040d939291906136be565b60606000604483511015611cfb575050604080516020810190915260008082529092909150565b6000611d08846020015190565b90506307b9e43360e51b6001600160e01b0319821601611d475760048401935083806020019051810190611d3c9190613785565b946001945092505050565b600060405180602001604052806000815250909250925050915091565b80518060208301fd5b6000604051602001611ab79060208082526018908201527710d31052535050931157d1955391125391d7d05353d5539560421b604082015260600190565b6000604051602001611dec906020808252601b908201527a10d31052535050931157d0d3d31310551154905317d05353d55395602a1b604082015260600190565b60408051601f198184030181528282528051602091820120908301526001600160a01b0380881691830191909152808616606083015260808201859052831660a082015260c001604051602081830303815290604052805190602001209050949350505050565b6000604051602001611dec906020808252601b908201527a21a620a4a6a0a12622afa1a7a62620aa22a920a62fa320a1aa27a960291b604082015260600190565b6000604051602001611dec9060208082526019908201527810d3105253515117d0d3d31310551154905317d05353d55395603a1b604082015260600190565b6000806000611ee28585612166565b915091508115611f0b57611f0268327cb2734119d3b7a9601e1b8261382e565b92505050610e12565b600080858711611f1c578587611f1f565b86865b9092509050611f4368056bc75e2d6310000068327cb2734119d3b7a9601e1b61382e565b81611f5768056bc75e2d631000008561382e565b611f619190613850565b611f6b919061382e565b979650505050505050565b6000604051602001611fb4906020808252601890820152771513d2d15397d514905394d1915497d1d054d7d31253525560421b604082015260600190565b60408051601f198184030181528282528051602091820120908301526001600160a01b03841690820152606001604051602081830303815290604052805190602001209050919050565b60006060600063a9059cbb60e01b868660405160240161201f929190612904565b604051602081830303815290604052906001600160e01b0319166020820180516001600160e01b0383818316178352505050509050600080886001600160a01b03168684604051612070919061386f565b60006040518083038160008787f1925050503d80600081146120ae576040519150601f19603f3d011682016040523d82523d6000602084013e6120b3565b606091505b50915091508115612154578051600003612111576001600160a01b0389163b6121115760006040518060400160405280601481526020017310d85b1b081d1bc81b9bdb8b58dbdb9d1c9858dd60621b8152509450945050505061215d565b60008151118015612133575080806020019051810190612131919061388b565b155b156121465760009450925061215d915050565b60019450925061215d915050565b60009450925050505b94509492505050565b6000808360000361217d57506001905060006121aa565b8383028385828161219057612190613818565b04146121a35760008092509250506121aa565b6001925090505b9250929050565b6000602082840312156121c357600080fd5b5035919050565b634e487b7160e01b600052604160045260246000fd5b604080519081016001600160401b0381118282101715612202576122026121ca565b60405290565b604051608081016001600160401b0381118282101715612202576122026121ca565b60405160c081016001600160401b0381118282101715612202576122026121ca565b604051606081016001600160401b0381118282101715612202576122026121ca565b60405161010081016001600160401b0381118282101715612202576122026121ca565b60405161014081016001600160401b0381118282101715612202576122026121ca565b604051601f8201601f191681016001600160401b03811182821017156122dc576122dc6121ca565b604052919050565b60006001600160401b038211156122fd576122fd6121ca565b5060051b60200190565b6001600160a01b03811681146114e257600080fd5b803561232781612307565b919050565b600082601f83011261233d57600080fd5b8135602061235261234d836122e4565b6122b4565b82815260059290921b8401810191818101908684111561237157600080fd5b8286015b8481101561239557803561238881612307565b8352918301918301612375565b509695505050505050565b600082601f8301126123b157600080fd5b813560206123c161234d836122e4565b82815260069290921b840181019181810190868411156123e057600080fd5b8286015b8481101561239557604081890312156123fd5760008081fd5b6124056121e0565b8135815284820135858201528352918301916040016123e4565b6000806040838503121561243257600080fd5b8235915060208301356001600160401b038082111561245057600080fd5b908401906080828703121561246457600080fd5b61246c612208565b82358281111561247b57600080fd5b6124878882860161232c565b82525060208301358281111561249c57600080fd5b6124a8888286016123a0565b6020830152506040830135828111156124c057600080fd5b6124cc8882860161232c565b6040830152506060830135828111156124e457600080fd5b6124f0888286016123a0565b6060830152508093505050509250929050565b60008060006060848603121561251857600080fd5b83356001600160401b038082111561252f57600080fd5b61253b8783880161232c565b9450602086013591508082111561255157600080fd5b5061255e8682870161232c565b925050604084013561256f81612307565b809150509250925092565b6000806040838503121561258d57600080fd5b823561259881612307565b946020939093013593505050565b600061016082840312156125b957600080fd5b50919050565b6000602082840312156125d157600080fd5b81356001600160401b038111156125e757600080fd5b6125f3848285016125a6565b949350505050565b600080600080600060a0868803121561261357600080fd5b505083359560208501359550604085013594606081013594506080013592509050565b6000806020838503121561264957600080fd5b82356001600160401b038082111561266057600080fd5b818501915085601f83011261267457600080fd5b81358181111561268357600080fd5b8660208260051b850101111561269857600080fd5b60209290920196919550909350505050565b60005b838110156126c55781810151838201526020016126ad565b50506000910152565b600081518084526126e68160208601602086016126aa565b601f01601f19169290920160200192915050565b6000602080830181845280855180835260408601915060408160051b870101925083870160005b8281101561274f57603f1988860301845261273d8583516126ce565b94509285019290850190600101612721565b5092979650505050505050565b60006020828403121561276e57600080fd5b81356001600160401b0381111561278457600080fd5b82016101a0818503121561279757600080fd5b9392505050565b6000806000606084860312156127b357600080fd5b83356127be81612307565b925060208401356127ce81612307565b929592945050506040919091013590565b600080600080608085870312156127f557600080fd5b84356001600160401b038082111561280c57600080fd5b6128188883890161232c565b955060209150818701358181111561282f57600080fd5b61283b89828a0161232c565b95505060408701358181111561285057600080fd5b87019050601f8101881361286357600080fd5b803561287161234d826122e4565b81815260059190911b8201830190838101908a83111561289057600080fd5b928401925b828410156128ae57833582529284019290840190612895565b80965050505050506128c26060860161231c565b905092959194509250565b6020808252601f908201527f5265656e7472616e637947756172643a207265656e7472616e742063616c6c00604082015260600190565b6001600160a01b03929092168252602082015260400190565b805161232781612307565b600082601f83011261293957600080fd5b8151602061294961234d836122e4565b82815260059290921b8401810191818101908684111561296857600080fd5b8286015b8481101561239557805161297f81612307565b835291830191830161296c565b600060c0828403121561299e57600080fd5b6129a661222a565b9050815181526020820151602082015260408201516040820152606082015160608201526080820151608082015260a082015160a082015292915050565b80151581146114e257600080fd5b600060208284031215612a0457600080fd5b604051602081016001600160401b0381118282101715612a2657612a266121ca565b80604052508091508251612a39816129e4565b905292915050565b600060208284031215612a5357600080fd5b81516001600160401b0380821115612a6a57600080fd5b8184019150610100808387031215612a8157600080fd5b612a8961224c565b835183811115612a9857600080fd5b8401808803831315612aa957600080fd5b612ab161226e565b9250612abc8161291d565b8352612aca6020820161291d565b6020840152612adb6040820161291d565b6040840152612aec6060820161291d565b6060840152612afd6080820161291d565b6080840152612b0e60a0820161291d565b60a084015260c081015184811115612b2557600080fd5b612b3189828401612928565b60c08501525060e081015184811115612b4957600080fd5b612b5589828401612928565b60e08501525050818152612b6c876020860161298c565b6020820152612b7e8760e086016129f2565b60408201529695505050505050565b6001600160a01b03169052565b600081518084526020808501945080840160005b83811015612bd35781516001600160a01b031687529582019590820190600101612bae565b509495945050505050565b600081518084526020808501945080840160005b83811015612bd3578151805188528301518388015260409096019590820190600101612bf2565b828152604060208201526000825160806040840152612c3b60c0840182612b9a565b90506020840151603f1980858403016060860152612c598383612bde565b92506040860151915080858403016080860152612c768383612b9a565b925060608601519150808584030160a086015250612c948282612bde565b9695505050505050565b918252602082015260400190565b634e487b7160e01b600052603260045260246000fd5b634e487b7160e01b600052601160045260246000fd5b600060018201612cea57612cea612cc2565b5060010190565b600060208284031215612d0357600080fd5b81516001600160401b0380821115612d1a57600080fd5b908301906101008286031215612d2f57600080fd5b612d3761224c565b825182811115612d4657600080fd5b830160c08188031215612d5857600080fd5b612d6061222a565b612d698261291d565b8152612d776020830161291d565b6020820152612d886040830161291d565b6040820152612d996060830161291d565b6060820152608082015184811115612db057600080fd5b612dbc89828501612928565b60808301525060a082015184811115612dd457600080fd5b612de089828501612928565b60a083015250825250612df6866020850161298c565b6020820152612e088660e085016129f2565b604082015295945050505050565b600881106114e257600080fd5b805161232781612e16565b600381106114e257600080fd5b805161232781612e2e565b60006101408284031215612e5957600080fd5b612e61612291565b9050612e6c82612e23565b8152612e7a60208301612e3b565b602082015260408201516040820152606082015160608201526080820151608082015260a082015160a082015260c082015160c082015260e082015160e082015261010080830151818301525061012080830151818301525092915050565b600060608284031215612eeb57600080fd5b612ef361224c565b90508151612f00816129e4565b81526020820151612f10816129e4565b60208201526040820151612f23816129e4565b604082015292915050565b600060208284031215612f4057600080fd5b81516001600160401b0380821115612f5757600080fd5b908301906101c08286031215612f6c57600080fd5b612f7461224c565b825182811115612f8357600080fd5b830160c08188031215612f9557600080fd5b612f9d61222a565b8151612fa881612307565b81526020820151612fb881612307565b60208201526040820151612fcb81612307565b6040820152612fdc6060830161291d565b6060820152612fed6080830161291d565b608082015260a08201518481111561300457600080fd5b61301089828501612928565b60a0830152508252506130268660208501612e46565b6020820152612e08866101608501612ed9565b6000808335601e1984360301811261305057600080fd5b83016020810192503590506001600160401b0381111561306f57600080fd5b8060051b36038213156121aa57600080fd5b8183526000602080850194508260005b85811015612bd35781356130a481612307565b6001600160a01b031687529582019590820190600101613091565b8035612327816129e4565b6001600160a01b03831681526040602082018190526130f39082016130ee8461231c565b612b8d565b60006131016020840161231c565b61310e6060840182612b8d565b5061311b6040840161231c565b6131286080840182612b8d565b506131366060840184613039565b6101608060a086015261314e6101a086018385613081565b925061315d6080870187613039565b868503603f190160c08801529250613176848483613081565b93505060a086013560e0860152610100915060c08601358286015261012060e0870135818701526131a88388016130bf565b92506101406131ba8188018515159052565b908701359186019190915290940135610180909301929092525092915050565b6000602082840312156131ec57600080fd5b5051919050565b634e487b7160e01b600052602160045260246000fd5b60088110613219576132196131f3565b9052565b60038110613219576132196131f3565b613238828251613209565b602081015161324a602084018261321d565b5060408101516040830152606081015160608301526080810151608083015260a081015160a083015260c081015160c083015260e081015160e08301526101008082015181840152506101208082015181840152505050565b86815285602082015284604082015283606082015282608082015260c060a0820152600082516101c060c084015260018060a01b0380825116610280850152806020830151166102a0850152806040830151166102c0850152806060830151166102e0850152806080830151166103008501525060a0810151905060c0610320840152613334610340840182612b9a565b9050602084015161334860e085018261322d565b5060408481015180511515610220860152602081015115156102408601529081015115156102608501525098975050505050505050565b6000808335601e1984360301811261339657600080fd5b8301803591506001600160401b038211156133b057600080fd5b6020019150368190038213156121aa57600080fd5b8183823760009101908152919050565b600081356133e281612307565b6001600160a01b0390811684526020830135906133fe82612307565b908116602085015260408301359061341582612307565b908116604085015260608301359061342c82612307565b16606084015261343f6080830183613039565b60a0608086015261345460a086018284613081565b95945050505050565b803561232781612e16565b803561232781612e2e565b6001600160a01b0383168152604060208201526000823536849003609e1901811261349d57600080fd5b6101a08060408501526134b66101e085018684016133d5565b91506135076060850160208701803582526020810135602083015260408101356040830152606081013560608301526080810135608083015260a081013560a083015260c081013560c08301525050565b613514610100860161345d565b61014061352381870183613209565b6135306101208801613468565b91506101606135418188018461321d565b61354c8289016130bf565b925061018091506135608288018415159052565b61356b8189016130bf565b92505061357b8387018315159052565b808701356101c0870152505050809150509392505050565b6001600160a01b03831681526040602082018190526135b79082016130ee8461231c565b60006135c56020840161231c565b6135d26060840182612b8d565b506135df6040840161231c565b6135ec6080840182612b8d565b506135f96060840161231c565b61360660a0840182612b8d565b506136136080840161231c565b61362060c0840182612b8d565b5061362e60a0840184613039565b6101608060e08601526136466101a086018385613081565b925061365560c0870187613039565b9250610100603f198786030181880152613670858584613081565b9450610120935060e08801358488015261368b8189016130bf565b91505061014061369e8188018315159052565b928701359186019190915250909301356101809092019190915250919050565b6001600160a01b039384168152919092166020820152604081019190915260600190565b6001600160a01b039687168152948616602086015292851660408501529084166060840152909216608082015260a081019190915260c00190565b60208152600061279760208301846126ce565b81810381811115610e1257610e12612cc2565b60006020828403121561375557600080fd5b815161279781612307565b60408152600061377360408301856126ce565b828103602084015261345481856126ce565b60006020828403121561379757600080fd5b81516001600160401b03808211156137ae57600080fd5b818401915084601f8301126137c257600080fd5b8151818111156137d4576137d46121ca565b6137e7601f8201601f19166020016122b4565b91508082528560208285010111156137fe57600080fd5b61380f8160208401602086016126aa565b50949350505050565b634e487b7160e01b600052601260045260246000fd5b60008261384b57634e487b7160e01b600052601260045260246000fd5b500490565b600081600019048311821515161561386a5761386a612cc2565b500290565b600082516138818184602087016126aa565b9190910192915050565b60006020828403121561389d57600080fd5b8151612797816129e456fea264697066735822122008e8cd3ced7ab6e156914edf491c0acc5a84958c40fe905ba77e47932e75a03964736f6c63430008100033",
  "linkReferences": {
    "contracts/deposit/DepositStoreUtils.sol": {
      "DepositStoreUtils": [
        {
          "length": 20,
          "start": 1622
        }
      ]
    },
    "contracts/market/MarketEventUtils.sol": {
      "MarketEventUtils": [
        {
          "length": 20,
          "start": 6455
        },
        {
          "length": 20,
          "start": 7246
        }
      ]
    },
    "contracts/order/OrderStoreUtils.sol": {
      "OrderStoreUtils": [
        {
          "length": 20,
          "start": 2805
        },
        {
          "length": 20,
          "start": 3482
        }
      ]
    },
    "contracts/referral/ReferralEventUtils.sol": {
      "ReferralEventUtils": [
        {
          "length": 20,
          "start": 5751
        }
      ]
    },
    "contracts/withdrawal/WithdrawalStoreUtils.sol": {
      "WithdrawalStoreUtils": [
        {
          "length": 20,
          "start": 2423
        }
      ]
    }
  },
  "deployedLinkReferences": {
    "contracts/deposit/DepositStoreUtils.sol": {
      "DepositStoreUtils": [
        {
          "length": 20,
          "start": 1068
        }
      ]
    },
    "contracts/market/MarketEventUtils.sol": {
      "MarketEventUtils": [
        {
          "length": 20,
          "start": 5901
        },
        {
          "length": 20,
          "start": 6692
        }
      ]
    },
    "contracts/order/OrderStoreUtils.sol": {
      "OrderStoreUtils": [
        {
          "length": 20,
          "start": 2251
        },
        {
          "length": 20,
          "start": 2928
        }
      ]
    },
    "contracts/referral/ReferralEventUtils.sol": {
      "ReferralEventUtils": [
        {
          "length": 20,
          "start": 5197
        }
      ]
    },
    "contracts/withdrawal/WithdrawalStoreUtils.sol": {
      "WithdrawalStoreUtils": [
        {
          "length": 20,
          "start": 1869
        }
      ]
    }
  }
}