{
  "address": "0x69C527fC77291722b52649E45c838e41be8Bf5d5",
  "abi": [
    {
      "inputs": [
        {
          "internalType": "contract Router",
          "name": "_router",
          "type": "address"
        },
        {
          "internalType": "contract RoleStore",
          "name": "_roleStore",
          "type": "address"
        },
        {
          "internalType": "contract DataStore",
          "name": "_dataStore",
          "type": "address"
        },
        {
          "internalType": "contract EventEmitter",
          "name": "_eventEmitter",
          "type": "address"
        },
        {
          "internalType": "contract IDepositHandler",
          "name": "_depositHandler",
          "type": "address"
        },
        {
          "internalType": "contract IWithdrawalHandler",
          "name": "_withdrawalHandler",
          "type": "address"
        },
        {
          "internalType": "contract IShiftHandler",
          "name": "_shiftHandler",
          "type": "address"
        },
        {
          "internalType": "contract IOrderHandler",
          "name": "_orderHandler",
          "type": "address"
        },
        {
          "internalType": "contract IExternalHandler",
          "name": "_externalHandler",
          "type": "address"
        }
      ],
      "stateMutability": "nonpayable",
      "type": "constructor"
    },
    {
      "inputs": [
        {
          "internalType": "uint256",
          "name": "adjustedClaimableAmount",
          "type": "uint256"
        },
        {
          "internalType": "uint256",
          "name": "claimedAmount",
          "type": "uint256"
        }
      ],
      "name": "CollateralAlreadyClaimed",
      "type": "error"
    },
    {
      "inputs": [
        {
          "internalType": "bytes32",
          "name": "key",
          "type": "bytes32"
        }
      ],
      "name": "DisabledFeature",
      "type": "error"
    },
    {
      "inputs": [
        {
          "internalType": "address",
          "name": "market",
          "type": "address"
        }
      ],
      "name": "DisabledMarket",
      "type": "error"
    },
    {
      "inputs": [
        {
          "internalType": "address",
          "name": "market",
          "type": "address"
        },
        {
          "internalType": "address",
          "name": "token",
          "type": "address"
        }
      ],
      "name": "EmptyAddressInMarketTokenBalanceValidation",
      "type": "error"
    },
    {
      "inputs": [],
      "name": "EmptyDeposit",
      "type": "error"
    },
    {
      "inputs": [],
      "name": "EmptyHoldingAddress",
      "type": "error"
    },
    {
      "inputs": [],
      "name": "EmptyMarket",
      "type": "error"
    },
    {
      "inputs": [],
      "name": "EmptyOrder",
      "type": "error"
    },
    {
      "inputs": [],
      "name": "EmptyReceiver",
      "type": "error"
    },
    {
      "inputs": [
        {
          "internalType": "address",
          "name": "token",
          "type": "address"
        }
      ],
      "name": "EmptyTokenTranferGasLimit",
      "type": "error"
    },
    {
      "inputs": [
        {
          "internalType": "uint256",
          "name": "marketsLength",
          "type": "uint256"
        },
        {
          "internalType": "uint256",
          "name": "tokensLength",
          "type": "uint256"
        }
      ],
      "name": "InvalidClaimAffiliateRewardsInput",
      "type": "error"
    },
    {
      "inputs": [
        {
          "internalType": "uint256",
          "name": "marketsLength",
          "type": "uint256"
        },
        {
          "internalType": "uint256",
          "name": "tokensLength",
          "type": "uint256"
        },
        {
          "internalType": "uint256",
          "name": "timeKeysLength",
          "type": "uint256"
        }
      ],
      "name": "InvalidClaimCollateralInput",
      "type": "error"
    },
    {
      "inputs": [
        {
          "internalType": "uint256",
          "name": "marketsLength",
          "type": "uint256"
        },
        {
          "internalType": "uint256",
          "name": "tokensLength",
          "type": "uint256"
        }
      ],
      "name": "InvalidClaimFundingFeesInput",
      "type": "error"
    },
    {
      "inputs": [
        {
          "internalType": "uint256",
          "name": "marketsLength",
          "type": "uint256"
        },
        {
          "internalType": "uint256",
          "name": "tokensLength",
          "type": "uint256"
        }
      ],
      "name": "InvalidClaimUiFeesInput",
      "type": "error"
    },
    {
      "inputs": [
        {
          "internalType": "uint256",
          "name": "value",
          "type": "uint256"
        }
      ],
      "name": "InvalidClaimableFactor",
      "type": "error"
    },
    {
      "inputs": [
        {
          "internalType": "address",
          "name": "market",
          "type": "address"
        },
        {
          "internalType": "address",
          "name": "token",
          "type": "address"
        },
        {
          "internalType": "uint256",
          "name": "balance",
          "type": "uint256"
        },
        {
          "internalType": "uint256",
          "name": "expectedMinBalance",
          "type": "uint256"
        }
      ],
      "name": "InvalidMarketTokenBalance",
      "type": "error"
    },
    {
      "inputs": [
        {
          "internalType": "address",
          "name": "market",
          "type": "address"
        },
        {
          "internalType": "address",
          "name": "token",
          "type": "address"
        },
        {
          "internalType": "uint256",
          "name": "balance",
          "type": "uint256"
        },
        {
          "internalType": "uint256",
          "name": "claimableFundingFeeAmount",
          "type": "uint256"
        }
      ],
      "name": "InvalidMarketTokenBalanceForClaimableFunding",
      "type": "error"
    },
    {
      "inputs": [
        {
          "internalType": "address",
          "name": "market",
          "type": "address"
        },
        {
          "internalType": "address",
          "name": "token",
          "type": "address"
        },
        {
          "internalType": "uint256",
          "name": "balance",
          "type": "uint256"
        },
        {
          "internalType": "uint256",
          "name": "collateralAmount",
          "type": "uint256"
        }
      ],
      "name": "InvalidMarketTokenBalanceForCollateralAmount",
      "type": "error"
    },
    {
      "inputs": [
        {
          "internalType": "uint256",
          "name": "uiFeeFactor",
          "type": "uint256"
        },
        {
          "internalType": "uint256",
          "name": "maxUiFeeFactor",
          "type": "uint256"
        }
      ],
      "name": "InvalidUiFeeFactor",
      "type": "error"
    },
    {
      "inputs": [
        {
          "internalType": "address",
          "name": "token",
          "type": "address"
        },
        {
          "internalType": "address",
          "name": "receiver",
          "type": "address"
        },
        {
          "internalType": "uint256",
          "name": "amount",
          "type": "uint256"
        }
      ],
      "name": "TokenTransferError",
      "type": "error"
    },
    {
      "inputs": [
        {
          "internalType": "address",
          "name": "msgSender",
          "type": "address"
        },
        {
          "internalType": "string",
          "name": "role",
          "type": "string"
        }
      ],
      "name": "Unauthorized",
      "type": "error"
    },
    {
      "inputs": [
        {
          "internalType": "bytes32",
          "name": "key",
          "type": "bytes32"
        }
      ],
      "name": "cancelDeposit",
      "outputs": [],
      "stateMutability": "payable",
      "type": "function"
    },
    {
      "inputs": [
        {
          "internalType": "bytes32",
          "name": "key",
          "type": "bytes32"
        }
      ],
      "name": "cancelOrder",
      "outputs": [],
      "stateMutability": "payable",
      "type": "function"
    },
    {
      "inputs": [
        {
          "internalType": "bytes32",
          "name": "key",
          "type": "bytes32"
        }
      ],
      "name": "cancelShift",
      "outputs": [],
      "stateMutability": "payable",
      "type": "function"
    },
    {
      "inputs": [
        {
          "internalType": "bytes32",
          "name": "key",
          "type": "bytes32"
        }
      ],
      "name": "cancelWithdrawal",
      "outputs": [],
      "stateMutability": "payable",
      "type": "function"
    },
    {
      "inputs": [
        {
          "internalType": "address[]",
          "name": "markets",
          "type": "address[]"
        },
        {
          "internalType": "address[]",
          "name": "tokens",
          "type": "address[]"
        },
        {
          "internalType": "address",
          "name": "receiver",
          "type": "address"
        }
      ],
      "name": "claimAffiliateRewards",
      "outputs": [
        {
          "internalType": "uint256[]",
          "name": "",
          "type": "uint256[]"
        }
      ],
      "stateMutability": "payable",
      "type": "function"
    },
    {
      "inputs": [
        {
          "internalType": "address[]",
          "name": "markets",
          "type": "address[]"
        },
        {
          "internalType": "address[]",
          "name": "tokens",
          "type": "address[]"
        },
        {
          "internalType": "uint256[]",
          "name": "timeKeys",
          "type": "uint256[]"
        },
        {
          "internalType": "address",
          "name": "receiver",
          "type": "address"
        }
      ],
      "name": "claimCollateral",
      "outputs": [
        {
          "internalType": "uint256[]",
          "name": "",
          "type": "uint256[]"
        }
      ],
      "stateMutability": "payable",
      "type": "function"
    },
    {
      "inputs": [
        {
          "internalType": "address[]",
          "name": "markets",
          "type": "address[]"
        },
        {
          "internalType": "address[]",
          "name": "tokens",
          "type": "address[]"
        },
        {
          "internalType": "address",
          "name": "receiver",
          "type": "address"
        }
      ],
      "name": "claimFundingFees",
      "outputs": [
        {
          "internalType": "uint256[]",
          "name": "",
          "type": "uint256[]"
        }
      ],
      "stateMutability": "payable",
      "type": "function"
    },
    {
      "inputs": [
        {
          "internalType": "address[]",
          "name": "markets",
          "type": "address[]"
        },
        {
          "internalType": "address[]",
          "name": "tokens",
          "type": "address[]"
        },
        {
          "internalType": "address",
          "name": "receiver",
          "type": "address"
        }
      ],
      "name": "claimUiFees",
      "outputs": [
        {
          "internalType": "uint256[]",
          "name": "",
          "type": "uint256[]"
        }
      ],
      "stateMutability": "payable",
      "type": "function"
    },
    {
      "inputs": [
        {
          "components": [
            {
              "internalType": "address",
              "name": "receiver",
              "type": "address"
            },
            {
              "internalType": "address",
              "name": "callbackContract",
              "type": "address"
            },
            {
              "internalType": "address",
              "name": "uiFeeReceiver",
              "type": "address"
            },
            {
              "internalType": "address",
              "name": "market",
              "type": "address"
            },
            {
              "internalType": "address",
              "name": "initialLongToken",
              "type": "address"
            },
            {
              "internalType": "address",
              "name": "initialShortToken",
              "type": "address"
            },
            {
              "internalType": "address[]",
              "name": "longTokenSwapPath",
              "type": "address[]"
            },
            {
              "internalType": "address[]",
              "name": "shortTokenSwapPath",
              "type": "address[]"
            },
            {
              "internalType": "uint256",
              "name": "minMarketTokens",
              "type": "uint256"
            },
            {
              "internalType": "bool",
              "name": "shouldUnwrapNativeToken",
              "type": "bool"
            },
            {
              "internalType": "uint256",
              "name": "executionFee",
              "type": "uint256"
            },
            {
              "internalType": "uint256",
              "name": "callbackGasLimit",
              "type": "uint256"
            }
          ],
          "internalType": "struct DepositUtils.CreateDepositParams",
          "name": "params",
          "type": "tuple"
        }
      ],
      "name": "createDeposit",
      "outputs": [
        {
          "internalType": "bytes32",
          "name": "",
          "type": "bytes32"
        }
      ],
      "stateMutability": "payable",
      "type": "function"
    },
    {
      "inputs": [
        {
          "components": [
            {
              "components": [
                {
                  "internalType": "address",
                  "name": "receiver",
                  "type": "address"
                },
                {
                  "internalType": "address",
                  "name": "cancellationReceiver",
                  "type": "address"
                },
                {
                  "internalType": "address",
                  "name": "callbackContract",
                  "type": "address"
                },
                {
                  "internalType": "address",
                  "name": "uiFeeReceiver",
                  "type": "address"
                },
                {
                  "internalType": "address",
                  "name": "market",
                  "type": "address"
                },
                {
                  "internalType": "address",
                  "name": "initialCollateralToken",
                  "type": "address"
                },
                {
                  "internalType": "address[]",
                  "name": "swapPath",
                  "type": "address[]"
                }
              ],
              "internalType": "struct IBaseOrderUtils.CreateOrderParamsAddresses",
              "name": "addresses",
              "type": "tuple"
            },
            {
              "components": [
                {
                  "internalType": "uint256",
                  "name": "sizeDeltaUsd",
                  "type": "uint256"
                },
                {
                  "internalType": "uint256",
                  "name": "initialCollateralDeltaAmount",
                  "type": "uint256"
                },
                {
                  "internalType": "uint256",
                  "name": "triggerPrice",
                  "type": "uint256"
                },
                {
                  "internalType": "uint256",
                  "name": "acceptablePrice",
                  "type": "uint256"
                },
                {
                  "internalType": "uint256",
                  "name": "executionFee",
                  "type": "uint256"
                },
                {
                  "internalType": "uint256",
                  "name": "callbackGasLimit",
                  "type": "uint256"
                },
                {
                  "internalType": "uint256",
                  "name": "minOutputAmount",
                  "type": "uint256"
                }
              ],
              "internalType": "struct IBaseOrderUtils.CreateOrderParamsNumbers",
              "name": "numbers",
              "type": "tuple"
            },
            {
              "internalType": "enum Order.OrderType",
              "name": "orderType",
              "type": "uint8"
            },
            {
              "internalType": "enum Order.DecreasePositionSwapType",
              "name": "decreasePositionSwapType",
              "type": "uint8"
            },
            {
              "internalType": "bool",
              "name": "isLong",
              "type": "bool"
            },
            {
              "internalType": "bool",
              "name": "shouldUnwrapNativeToken",
              "type": "bool"
            },
            {
              "internalType": "bool",
              "name": "autoCancel",
              "type": "bool"
            },
            {
              "internalType": "bytes32",
              "name": "referralCode",
              "type": "bytes32"
            }
          ],
          "internalType": "struct IBaseOrderUtils.CreateOrderParams",
          "name": "params",
          "type": "tuple"
        }
      ],
      "name": "createOrder",
      "outputs": [
        {
          "internalType": "bytes32",
          "name": "",
          "type": "bytes32"
        }
      ],
      "stateMutability": "payable",
      "type": "function"
    },
    {
      "inputs": [
        {
          "components": [
            {
              "internalType": "address",
              "name": "receiver",
              "type": "address"
            },
            {
              "internalType": "address",
              "name": "callbackContract",
              "type": "address"
            },
            {
              "internalType": "address",
              "name": "uiFeeReceiver",
              "type": "address"
            },
            {
              "internalType": "address",
              "name": "fromMarket",
              "type": "address"
            },
            {
              "internalType": "address",
              "name": "toMarket",
              "type": "address"
            },
            {
              "internalType": "uint256",
              "name": "minMarketTokens",
              "type": "uint256"
            },
            {
              "internalType": "uint256",
              "name": "executionFee",
              "type": "uint256"
            },
            {
              "internalType": "uint256",
              "name": "callbackGasLimit",
              "type": "uint256"
            }
          ],
          "internalType": "struct ShiftUtils.CreateShiftParams",
          "name": "params",
          "type": "tuple"
        }
      ],
      "name": "createShift",
      "outputs": [
        {
          "internalType": "bytes32",
          "name": "",
          "type": "bytes32"
        }
      ],
      "stateMutability": "payable",
      "type": "function"
    },
    {
      "inputs": [
        {
          "components": [
            {
              "internalType": "address",
              "name": "receiver",
              "type": "address"
            },
            {
              "internalType": "address",
              "name": "callbackContract",
              "type": "address"
            },
            {
              "internalType": "address",
              "name": "uiFeeReceiver",
              "type": "address"
            },
            {
              "internalType": "address",
              "name": "market",
              "type": "address"
            },
            {
              "internalType": "address[]",
              "name": "longTokenSwapPath",
              "type": "address[]"
            },
            {
              "internalType": "address[]",
              "name": "shortTokenSwapPath",
              "type": "address[]"
            },
            {
              "internalType": "uint256",
              "name": "minLongTokenAmount",
              "type": "uint256"
            },
            {
              "internalType": "uint256",
              "name": "minShortTokenAmount",
              "type": "uint256"
            },
            {
              "internalType": "bool",
              "name": "shouldUnwrapNativeToken",
              "type": "bool"
            },
            {
              "internalType": "uint256",
              "name": "executionFee",
              "type": "uint256"
            },
            {
              "internalType": "uint256",
              "name": "callbackGasLimit",
              "type": "uint256"
            }
          ],
          "internalType": "struct WithdrawalUtils.CreateWithdrawalParams",
          "name": "params",
          "type": "tuple"
        }
      ],
      "name": "createWithdrawal",
      "outputs": [
        {
          "internalType": "bytes32",
          "name": "",
          "type": "bytes32"
        }
      ],
      "stateMutability": "payable",
      "type": "function"
    },
    {
      "inputs": [],
      "name": "dataStore",
      "outputs": [
        {
          "internalType": "contract DataStore",
          "name": "",
          "type": "address"
        }
      ],
      "stateMutability": "view",
      "type": "function"
    },
    {
      "inputs": [],
      "name": "depositHandler",
      "outputs": [
        {
          "internalType": "contract IDepositHandler",
          "name": "",
          "type": "address"
        }
      ],
      "stateMutability": "view",
      "type": "function"
    },
    {
      "inputs": [],
      "name": "eventEmitter",
      "outputs": [
        {
          "internalType": "contract EventEmitter",
          "name": "",
          "type": "address"
        }
      ],
      "stateMutability": "view",
      "type": "function"
    },
    {
      "inputs": [
        {
          "components": [
            {
              "internalType": "address",
              "name": "receiver",
              "type": "address"
            },
            {
              "internalType": "address",
              "name": "callbackContract",
              "type": "address"
            },
            {
              "internalType": "address",
              "name": "uiFeeReceiver",
              "type": "address"
            },
            {
              "internalType": "address",
              "name": "market",
              "type": "address"
            },
            {
              "internalType": "address[]",
              "name": "longTokenSwapPath",
              "type": "address[]"
            },
            {
              "internalType": "address[]",
              "name": "shortTokenSwapPath",
              "type": "address[]"
            },
            {
              "internalType": "uint256",
              "name": "minLongTokenAmount",
              "type": "uint256"
            },
            {
              "internalType": "uint256",
              "name": "minShortTokenAmount",
              "type": "uint256"
            },
            {
              "internalType": "bool",
              "name": "shouldUnwrapNativeToken",
              "type": "bool"
            },
            {
              "internalType": "uint256",
              "name": "executionFee",
              "type": "uint256"
            },
            {
              "internalType": "uint256",
              "name": "callbackGasLimit",
              "type": "uint256"
            }
          ],
          "internalType": "struct WithdrawalUtils.CreateWithdrawalParams",
          "name": "params",
          "type": "tuple"
        },
        {
          "components": [
            {
              "internalType": "address[]",
              "name": "tokens",
              "type": "address[]"
            },
            {
              "internalType": "address[]",
              "name": "providers",
              "type": "address[]"
            },
            {
              "internalType": "bytes[]",
              "name": "data",
              "type": "bytes[]"
            }
          ],
          "internalType": "struct OracleUtils.SetPricesParams",
          "name": "oracleParams",
          "type": "tuple"
        }
      ],
      "name": "executeAtomicWithdrawal",
      "outputs": [],
      "stateMutability": "payable",
      "type": "function"
    },
    {
      "inputs": [],
      "name": "externalHandler",
      "outputs": [
        {
          "internalType": "contract IExternalHandler",
          "name": "",
          "type": "address"
        }
      ],
      "stateMutability": "view",
      "type": "function"
    },
    {
      "inputs": [
        {
          "internalType": "address[]",
          "name": "externalCallTargets",
          "type": "address[]"
        },
        {
          "internalType": "bytes[]",
          "name": "externalCallDataList",
          "type": "bytes[]"
        },
        {
          "internalType": "address[]",
          "name": "refundTokens",
          "type": "address[]"
        },
        {
          "internalType": "address[]",
          "name": "refundReceivers",
          "type": "address[]"
        }
      ],
      "name": "makeExternalCalls",
      "outputs": [],
      "stateMutability": "nonpayable",
      "type": "function"
    },
    {
      "inputs": [
        {
          "internalType": "bytes[]",
          "name": "data",
          "type": "bytes[]"
        }
      ],
      "name": "multicall",
      "outputs": [
        {
          "internalType": "bytes[]",
          "name": "results",
          "type": "bytes[]"
        }
      ],
      "stateMutability": "payable",
      "type": "function"
    },
    {
      "inputs": [],
      "name": "orderHandler",
      "outputs": [
        {
          "internalType": "contract IOrderHandler",
          "name": "",
          "type": "address"
        }
      ],
      "stateMutability": "view",
      "type": "function"
    },
    {
      "inputs": [],
      "name": "roleStore",
      "outputs": [
        {
          "internalType": "contract RoleStore",
          "name": "",
          "type": "address"
        }
      ],
      "stateMutability": "view",
      "type": "function"
    },
    {
      "inputs": [],
      "name": "router",
      "outputs": [
        {
          "internalType": "contract Router",
          "name": "",
          "type": "address"
        }
      ],
      "stateMutability": "view",
      "type": "function"
    },
    {
      "inputs": [
        {
          "internalType": "address",
          "name": "receiver",
          "type": "address"
        },
        {
          "internalType": "uint256",
          "name": "amount",
          "type": "uint256"
        }
      ],
      "name": "sendNativeToken",
      "outputs": [],
      "stateMutability": "payable",
      "type": "function"
    },
    {
      "inputs": [
        {
          "internalType": "address",
          "name": "token",
          "type": "address"
        },
        {
          "internalType": "address",
          "name": "receiver",
          "type": "address"
        },
        {
          "internalType": "uint256",
          "name": "amount",
          "type": "uint256"
        }
      ],
      "name": "sendTokens",
      "outputs": [],
      "stateMutability": "payable",
      "type": "function"
    },
    {
      "inputs": [
        {
          "internalType": "address",
          "name": "receiver",
          "type": "address"
        },
        {
          "internalType": "uint256",
          "name": "amount",
          "type": "uint256"
        }
      ],
      "name": "sendWnt",
      "outputs": [],
      "stateMutability": "payable",
      "type": "function"
    },
    {
      "inputs": [
        {
          "internalType": "address",
          "name": "market",
          "type": "address"
        },
        {
          "internalType": "address",
          "name": "callbackContract",
          "type": "address"
        }
      ],
      "name": "setSavedCallbackContract",
      "outputs": [],
      "stateMutability": "payable",
      "type": "function"
    },
    {
      "inputs": [
        {
          "internalType": "uint256",
          "name": "uiFeeFactor",
          "type": "uint256"
        }
      ],
      "name": "setUiFeeFactor",
      "outputs": [],
      "stateMutability": "payable",
      "type": "function"
    },
    {
      "inputs": [],
      "name": "shiftHandler",
      "outputs": [
        {
          "internalType": "contract IShiftHandler",
          "name": "",
          "type": "address"
        }
      ],
      "stateMutability": "view",
      "type": "function"
    },
    {
      "inputs": [
        {
          "internalType": "bytes32",
          "name": "key",
          "type": "bytes32"
        },
        {
          "components": [
            {
              "internalType": "address[]",
              "name": "primaryTokens",
              "type": "address[]"
            },
            {
              "components": [
                {
                  "internalType": "uint256",
                  "name": "min",
                  "type": "uint256"
                },
                {
                  "internalType": "uint256",
                  "name": "max",
                  "type": "uint256"
                }
              ],
              "internalType": "struct Price.Props[]",
              "name": "primaryPrices",
              "type": "tuple[]"
            },
            {
              "internalType": "uint256",
              "name": "minTimestamp",
              "type": "uint256"
            },
            {
              "internalType": "uint256",
              "name": "maxTimestamp",
              "type": "uint256"
            }
          ],
          "internalType": "struct OracleUtils.SimulatePricesParams",
          "name": "simulatedOracleParams",
          "type": "tuple"
        }
      ],
      "name": "simulateExecuteDeposit",
      "outputs": [],
      "stateMutability": "payable",
      "type": "function"
    },
    {
      "inputs": [
        {
          "internalType": "bytes32",
          "name": "key",
          "type": "bytes32"
        },
        {
          "components": [
            {
              "internalType": "address[]",
              "name": "primaryTokens",
              "type": "address[]"
            },
            {
              "components": [
                {
                  "internalType": "uint256",
                  "name": "min",
                  "type": "uint256"
                },
                {
                  "internalType": "uint256",
                  "name": "max",
                  "type": "uint256"
                }
              ],
              "internalType": "struct Price.Props[]",
              "name": "primaryPrices",
              "type": "tuple[]"
            },
            {
              "internalType": "uint256",
              "name": "minTimestamp",
              "type": "uint256"
            },
            {
              "internalType": "uint256",
              "name": "maxTimestamp",
              "type": "uint256"
            }
          ],
          "internalType": "struct OracleUtils.SimulatePricesParams",
          "name": "simulatedOracleParams",
          "type": "tuple"
        }
      ],
      "name": "simulateExecuteOrder",
      "outputs": [],
      "stateMutability": "payable",
      "type": "function"
    },
    {
      "inputs": [
        {
          "internalType": "bytes32",
          "name": "key",
          "type": "bytes32"
        },
        {
          "components": [
            {
              "internalType": "address[]",
              "name": "primaryTokens",
              "type": "address[]"
            },
            {
              "components": [
                {
                  "internalType": "uint256",
                  "name": "min",
                  "type": "uint256"
                },
                {
                  "internalType": "uint256",
                  "name": "max",
                  "type": "uint256"
                }
              ],
              "internalType": "struct Price.Props[]",
              "name": "primaryPrices",
              "type": "tuple[]"
            },
            {
              "internalType": "uint256",
              "name": "minTimestamp",
              "type": "uint256"
            },
            {
              "internalType": "uint256",
              "name": "maxTimestamp",
              "type": "uint256"
            }
          ],
          "internalType": "struct OracleUtils.SimulatePricesParams",
          "name": "simulatedOracleParams",
          "type": "tuple"
        }
      ],
      "name": "simulateExecuteShift",
      "outputs": [],
      "stateMutability": "payable",
      "type": "function"
    },
    {
      "inputs": [
        {
          "internalType": "bytes32",
          "name": "key",
          "type": "bytes32"
        },
        {
          "components": [
            {
              "internalType": "address[]",
              "name": "primaryTokens",
              "type": "address[]"
            },
            {
              "components": [
                {
                  "internalType": "uint256",
                  "name": "min",
                  "type": "uint256"
                },
                {
                  "internalType": "uint256",
                  "name": "max",
                  "type": "uint256"
                }
              ],
              "internalType": "struct Price.Props[]",
              "name": "primaryPrices",
              "type": "tuple[]"
            },
            {
              "internalType": "uint256",
              "name": "minTimestamp",
              "type": "uint256"
            },
            {
              "internalType": "uint256",
              "name": "maxTimestamp",
              "type": "uint256"
            }
          ],
          "internalType": "struct OracleUtils.SimulatePricesParams",
          "name": "simulatedOracleParams",
          "type": "tuple"
        },
        {
          "internalType": "enum ISwapPricingUtils.SwapPricingType",
          "name": "swapPricingType",
          "type": "uint8"
        }
      ],
      "name": "simulateExecuteWithdrawal",
      "outputs": [],
      "stateMutability": "payable",
      "type": "function"
    },
    {
      "inputs": [
        {
          "internalType": "bytes32",
          "name": "key",
          "type": "bytes32"
        },
        {
          "internalType": "uint256",
          "name": "sizeDeltaUsd",
          "type": "uint256"
        },
        {
          "internalType": "uint256",
          "name": "acceptablePrice",
          "type": "uint256"
        },
        {
          "internalType": "uint256",
          "name": "triggerPrice",
          "type": "uint256"
        },
        {
          "internalType": "uint256",
          "name": "minOutputAmount",
          "type": "uint256"
        },
        {
          "internalType": "bool",
          "name": "autoCancel",
          "type": "bool"
        }
      ],
      "name": "updateOrder",
      "outputs": [],
      "stateMutability": "payable",
      "type": "function"
    },
    {
      "inputs": [],
      "name": "withdrawalHandler",
      "outputs": [
        {
          "internalType": "contract IWithdrawalHandler",
          "name": "",
          "type": "address"
        }
      ],
      "stateMutability": "view",
      "type": "function"
    }
  ],
  "transactionHash": "0x723bba33993a46238da285f8900a6c411564432b8af409c3dc8d3b1f6d5c7167",
  "args": [
    "0x7452c558d45f8afC8c83dAe62C3f8A5BE19c71f6",
    "0x3c3d99FD298f679DBC2CEcd132b4eC4d0F5e6e72",
    "0xFD70de6b91282D8017aA4E741e9Ae325CAb992d8",
    "0xC8ee91A54287DB53897056e12D9819156D3822Fb",
    "0x321f3739983CC3E911fd67a83d1ee76238894Bd0",
    "0xA19fA3F0D8E7b7A8963420De504b624167e709B2",
    "0xEa90EC1228F7D1b3D47D84d1c9D46dBDFEfF7709",
    "0xB0Fc2a48b873da40e7bc25658e5E6137616AC2Ee",
    "0x389CEf541397e872dC04421f166B5Bc2E0b374a5"
  ],
  "numDeployments": 6,
  "solcInputHash": "292dd15f99d7c1e4e4b27476672071d7",
  "bytecode": "0x6101a06040523480156200001257600080fd5b5060405162005ec238038062005ec2833981016040819052620000359162000097565b60016000556001600160a01b0397881660805297871660a05294861660c05292851660e0529084166101005283166101205282166101405281166101605216610180526200016e565b6001600160a01b03811681146200009457600080fd5b50565b60008060008060008060008060006101208a8c031215620000b757600080fd5b8951620000c4816200007e565b60208b0151909950620000d7816200007e565b60408b0151909850620000ea816200007e565b60608b0151909750620000fd816200007e565b60808b015190965062000110816200007e565b60a08b015190955062000123816200007e565b60c08b015190945062000136816200007e565b60e08b015190935062000149816200007e565b6101008b01519092506200015d816200007e565b809150509295985092959850929598565b60805160a05160c05160e0516101005161012051610140516101605161018051615bd9620002e96000396000818161025301526117c50152600081816104810152818161085f015281816111b40152818161139e0152611bcb0152600081816104fb01528181610d3101528181611348015261157101526000818161021201528181610e88015281816110270152818161151701526115c70152600081816103c00152818161090a01528181610ac70152610e300152600081816103f40152818161068a01528181610c2c01528181610ddd0152818161172501526119ed01526000818161032d015281816105ca01528181610669015281816107a4015281816109a901528181610b7101528181610c0b01528181610d7e01528181610dbc01528181610f38015281816110980152818161120101528181611261015281816116780152818161170401528181611940015281816119cc0152611ae00152600081816105680152611880015260006102c00152615bd96000f3fe6080604052600436106101895760003560e01c806301a9cbb21461018e578063073fb09e146101b7578063083cfcee146101cc5780632a3db3eb146101ed5780632c2f3c07146102005780632e944bd614610241578063314044841461027557806349287a221461028857806349e587991461029b5780634a4a7b04146102ae57806353ead2d3146102e25780635a03cd94146102f55780635b4e956114610308578063660d0d671461031b5780636b5341a11461034f5780637213c5a0146103625780637489ec23146103755780637d39aaf11461038857806396be28981461039b5780639c8b2cfb146103ae5780639ff78c30146103e2578063a7115fa814610416578063ac9650d814610429578063ad23c5a114610449578063b1f906b91461045c578063b58483051461046f578063bc190c14146104a3578063c41b1ab3146104b6578063d59922b0146104c9578063e65c9ae1146104e9578063e6d66ac81461051d578063e9249b5714610530578063f82a227214610543578063f887ea4014610556575b600080fd5b6101a161019c366004613de7565b61058a565b6040516101ae9190613e5e565b60405180910390f35b6101ca6101c5366004613ea2565b610785565b005b6101df6101da366004613edb565b61083c565b6040519081526020016101ae565b6101ca6101fb366004614013565b6108eb565b34801561020c57600080fd5b506102347f000000000000000000000000000000000000000000000000000000000000000081565b6040516101ae9190614059565b34801561024d57600080fd5b506102347f000000000000000000000000000000000000000000000000000000000000000081565b6101ca61028336600461406d565b61096f565b6101a1610296366004613de7565b610b3a565b6101ca6102a9366004614013565b610d12565b3480156102ba57600080fd5b506102347f000000000000000000000000000000000000000000000000000000000000000081565b6101ca6102f0366004614086565b610d68565b6101ca61030336600461406d565b610dae565b6101df6103163660046140b2565b610e0e565b34801561032757600080fd5b506102347f000000000000000000000000000000000000000000000000000000000000000081565b6101ca61035d366004614106565b610e67565b6101ca61037036600461406d565b610efe565b6101ca61038336600461406d565b61105e565b6101ca610396366004614086565b6111eb565b6101ca6103a936600461406d565b611227565b3480156103ba57600080fd5b506102347f000000000000000000000000000000000000000000000000000000000000000081565b3480156103ee57600080fd5b506102347f000000000000000000000000000000000000000000000000000000000000000081565b6101ca610424366004614013565b61137f565b61043c610437366004614165565b6113d5565b6040516101ae919061427e565b6101df610457366004614291565b6114f4565b6101df61046a3660046142c5565b61154e565b34801561047b57600080fd5b506102347f000000000000000000000000000000000000000000000000000000000000000081565b6101ca6104b13660046142f0565b6115a8565b6101a16104c4366004613de7565b611641565b3480156104d557600080fd5b506101ca6104e4366004614366565b6117ae565b3480156104f557600080fd5b506102347f000000000000000000000000000000000000000000000000000000000000000081565b6101ca61052b3660046144bd565b611838565b6101a161053e3660046144fe565b6118e9565b6101ca610551366004614605565b611aa6565b34801561056257600080fd5b506102347f000000000000000000000000000000000000000000000000000000000000000081565b6060610594611c51565b82518451146105c557835183516040516374cee48d60e01b81526004016105bc92919061465a565b60405180910390fd5b6105f77f00000000000000000000000000000000000000000000000000000000000000006105f230611caa565b611d37565b835133906000906001600160401b0381111561061557610615613bd1565b60405190808252806020026020018201604052801561063e578160200160208202803683370190505b50905060005b865181101561077057737Fd8d13A778a22F5c2acB67226A193C7d0b0a336637ed7d8ea7f00000000000000000000000000000000000000000000000000000000000000007f0000000000000000000000000000000000000000000000000000000000000000868b86815181106106bc576106bc614668565b60200260200101518b87815181106106d6576106d6614668565b60200260200101518b6040518763ffffffff1660e01b81526004016107009695949392919061468b565b602060405180830381865af415801561071d573d6000803e3d6000fd5b505050506040513d601f19601f8201168201806040525081019061074191906146c5565b82828151811061075357610753614668565b602090810291909101015280610768816146f4565b915050610644565b5091505061077e6001600055565b9392505050565b61078d611c51565b60405163b3678d5b60e01b81526001600160a01b037f00000000000000000000000000000000000000000000000000000000000000008116600483015233602483015280841660448301528216606482015273501e34E31f1594ffbd3D0C17634D6de6C6C5c7A39063b3678d5b9060840160006040518083038186803b15801561081657600080fd5b505af415801561082a573d6000803e3d6000fd5b505050506108386001600055565b5050565b6000610846611c51565b6040516323a1002f60e21b815233906001600160a01b037f00000000000000000000000000000000000000000000000000000000000000001690638e8400bc9061089690849087906004016148b0565b6020604051808303816000875af11580156108b5573d6000803e3d6000fd5b505050506040513d601f19601f820116820180604052508101906108d991906146c5565b9150506108e66001600055565b919050565b6108f3611c51565b604051632a3db3eb60e01b81526001600160a01b037f00000000000000000000000000000000000000000000000000000000000000001690632a3db3eb906109419085908590600401614aa2565b600060405180830381600087803b15801561095b57600080fd5b505af115801561082a573d6000803e3d6000fd5b610977611c51565b60405163fdfc26f360e01b8152600090733063A99D2df2A871068D47041eB8d089E5DE1Cdc9063fdfc26f3906109d3907f0000000000000000000000000000000000000000000000000000000000000000908690600401614abb565b600060405180830381865af41580156109f0573d6000803e3d6000fd5b505050506040513d6000823e601f3d908101601f19168201604052610a189190810190614bf4565b90506000610a2582515190565b6001600160a01b031603610a4c576040516395b66fe960e01b815260040160405180910390fd5b33610a5682515190565b6001600160a01b031614610ab1576040805163a35b150b60e01b8152336004820152602481019190915260196044820152781858d8dbdd5b9d08199bdc8818d85b98d95b11195c1bdcda5d603a1b60648201526084016105bc565b604051630c50112160e21b8152600481018390527f00000000000000000000000000000000000000000000000000000000000000006001600160a01b0316906331404484906024015b600060405180830381600087803b158015610b1457600080fd5b505af1158015610b28573d6000803e3d6000fd5b5050505050610b376001600055565b50565b6060610b44611c51565b8251845114610b6c5783518351604051635b3043dd60e01b81526004016105bc92919061465a565b610b997f00000000000000000000000000000000000000000000000000000000000000006105f230611d62565b835133906000906001600160401b03811115610bb757610bb7613bd1565b604051908082528060200260200182016040528015610be0578160200160208202803683370190505b50905060005b8651811015610770577327346Fdab142e2b8B6C6d2ecFe73e75B5e249A5763d57d53997f00000000000000000000000000000000000000000000000000000000000000007f00000000000000000000000000000000000000000000000000000000000000008a8581518110610c5d57610c5d614668565b60200260200101518a8681518110610c7757610c77614668565b6020026020010151888b6040518763ffffffff1660e01b8152600401610ca29695949392919061468b565b602060405180830381865af4158015610cbf573d6000803e3d6000fd5b505050506040513d601f19601f82011682018060405250810190610ce391906146c5565b828281518110610cf557610cf5614668565b602090810291909101015280610d0a816146f4565b915050610be6565b610d1a611c51565b6040516349e5879960e01b81526001600160a01b037f000000000000000000000000000000000000000000000000000000000000000016906349e58799906109419085908590600401614aa2565b610d70611c51565b610d7982611db6565b610da47f00000000000000000000000000000000000000000000000000000000000000008383611ddd565b6108386001600055565b610db6611c51565b33610e037f00000000000000000000000000000000000000000000000000000000000000007f00000000000000000000000000000000000000000000000000000000000000008385611ee9565b50610b376001600055565b6000610e18611c51565b60405162bd80c160e61b815233906001600160a01b037f00000000000000000000000000000000000000000000000000000000000000001690632f603040906108969084908790600401614d53565b610e6f611c51565b60405163021bb5a760e61b815233906001600160a01b037f000000000000000000000000000000000000000000000000000000000000000016906386ed69c090610ec190849087908790600401614fb6565b600060405180830381600087803b158015610edb57600080fd5b505af1158015610eef573d6000803e3d6000fd5b50505050506108386001600055565b610f06611c51565b60405163fdfc26f360e01b815260009073D521Cb31B14bB9F70D9a59b47D8763336CAD03959063fdfc26f390610f62907f0000000000000000000000000000000000000000000000000000000000000000908690600401614abb565b600060405180830381865af4158015610f7f573d6000803e3d6000fd5b505050506040513d6000823e601f3d908101601f19168201604052610fa791908101906150d0565b905033610fb382515190565b6001600160a01b031614611011576040805163a35b150b60e01b81523360048201526024810191909152601c60448201527b1858d8dbdd5b9d08199bdc8818d85b98d95b15da5d1a191c985dd85b60221b60648201526084016105bc565b6040516303909e2d60e51b8152600481018390527f00000000000000000000000000000000000000000000000000000000000000006001600160a01b031690637213c5a090602401610afa565b611066611c51565b60405163fdfc26f360e01b81526000907367040c411C1b3195361801E9Ad8a91D1Fe9C0BC29063fdfc26f3906110c2907f0000000000000000000000000000000000000000000000000000000000000000908690600401614abb565b600060405180830381865af41580156110df573d6000803e3d6000fd5b505050506040513d6000823e601f3d908101601f191682016040526111079190810190615324565b9050600061111482515190565b6001600160a01b03160361113b57604051631630779760e01b815260040160405180910390fd5b3361114582515190565b6001600160a01b03161461119e576040805163a35b150b60e01b81523360048201526024810191909152601760448201527630b1b1b7bab73a103337b91031b0b731b2b627b93232b960491b60648201526084016105bc565b604051637489ec2360e01b8152600481018390527f00000000000000000000000000000000000000000000000000000000000000006001600160a01b031690637489ec2390602401610afa565b6111f3611c51565b6111fc82611db6565b610da47f000000000000000000000000000000000000000000000000000000000000000083836120b7565b61122f611c51565b60405163fdfc26f360e01b815260009073Cfad9CB2a681b63884AEf98af28458692137c9E39063fdfc26f39061128b907f0000000000000000000000000000000000000000000000000000000000000000908690600401614abb565b61016060405180830381865af41580156112a9573d6000803e3d6000fd5b505050506040513d601f19601f820116820180604052508101906112cd91906154bb565b9050336112d982515190565b6001600160a01b031614611332576040805163a35b150b60e01b8152336004820152602481019190915260176044820152761858d8dbdd5b9d08199bdc8818d85b98d95b14da1a599d604a1b60648201526084016105bc565b6040516312d7c51360e31b8152600481018390527f00000000000000000000000000000000000000000000000000000000000000006001600160a01b0316906396be289890602401610afa565b611387611c51565b6040516314e22bf560e31b81526001600160a01b037f0000000000000000000000000000000000000000000000000000000000000000169063a7115fa8906109419085908590600401614aa2565b6060816001600160401b038111156113ef576113ef613bd1565b60405190808252806020026020018201604052801561142257816020015b606081526020019060019003908161140d5790505b50905060005b828110156114ec576000803086868581811061144657611446614668565b90506020028101906114589190615578565b6040516114669291906155be565b600060405180830381855af49150503d80600081146114a1576040519150601f19603f3d011682016040523d82523d6000602084013e6114a6565b606091505b5091509150816114b9576114b981612140565b808484815181106114cc576114cc614668565b6020026020010181905250505080806114e4906146f4565b915050611428565b505b92915050565b60006114fe611c51565b604051634c5a91e560e11b815233906001600160a01b037f000000000000000000000000000000000000000000000000000000000000000016906398b523ca9061089690849087906004016155ce565b6000611558611c51565b60405163074ed6cf60e21b815233906001600160a01b037f00000000000000000000000000000000000000000000000000000000000000001690631d3b5b3c9061089690849087906004016155f2565b6115b0611c51565b604051632f06430560e21b81526001600160a01b037f0000000000000000000000000000000000000000000000000000000000000000169063bc190c1490611600908690869086906004016156a5565b600060405180830381600087803b15801561161a57600080fd5b505af115801561162e573d6000803e3d6000fd5b5050505061163c6001600055565b505050565b606061164b611c51565b82518451146116735783518351604051637363cfa560e01b81526004016105bc92919061465a565b6116a07f00000000000000000000000000000000000000000000000000000000000000006105f230612179565b6116a982611db6565b835133906000906001600160401b038111156116c7576116c7613bd1565b6040519080825280602002602001820160405280156116f0578160200160208202803683370190505b50905060005b86518110156107705761177f7f00000000000000000000000000000000000000000000000000000000000000007f000000000000000000000000000000000000000000000000000000000000000089848151811061175657611756614668565b602002602001015189858151811061177057611770614668565b6020026020010151878a6121c8565b82828151811061179157611791614668565b6020908102919091010152806117a6816146f4565b9150506116f6565b604051630d59922b60e41b81526001600160a01b037f0000000000000000000000000000000000000000000000000000000000000000169063d59922b0906118009087908790879087906004016156d7565b600060405180830381600087803b15801561181a57600080fd5b505af115801561182e573d6000803e3d6000fd5b5050505050505050565b611840611c51565b61184982611db6565b6040516303704f0f60e31b81526001600160a01b0384811660048301523360248301819052848216604484015260648301849052917f000000000000000000000000000000000000000000000000000000000000000090911690631b82787890608401600060405180830381600087803b1580156118c657600080fd5b505af11580156118da573d6000803e3d6000fd5b505050505061163c6001600055565b60606118f3611c51565b8351855114158061190657508251845114155b1561193b5784518451845160405163216068f960e11b81526004810193909352602483019190915260448201526064016105bc565b6119687f00000000000000000000000000000000000000000000000000000000000000006105f23061244d565b61197182611db6565b845133906000906001600160401b0381111561198f5761198f613bd1565b6040519080825280602002602001820160405280156119b8578160200160208202803683370190505b50905060005b8751811015611a9057611a617f00000000000000000000000000000000000000000000000000000000000000007f00000000000000000000000000000000000000000000000000000000000000008a8481518110611a1e57611a1e614668565b60200260200101518a8581518110611a3857611a38614668565b60200260200101518a8681518110611a5257611a52614668565b6020026020010151888b61249a565b828281518110611a7357611a73614668565b602090810291909101015280611a88816146f4565b9150506119be565b50915050611a9e6001600055565b949350505050565b611aae611c51565b60405163fdfc26f360e01b81526000907367040c411C1b3195361801E9Ad8a91D1Fe9C0BC29063fdfc26f390611b0a907f0000000000000000000000000000000000000000000000000000000000000000908b90600401614abb565b600060405180830381865af4158015611b27573d6000803e3d6000fd5b505050506040513d6000823e601f3d908101601f19168201604052611b4f9190810190615324565b905033611b5b82515190565b6001600160a01b031614611bb4576040805163a35b150b60e01b81523360048201526024810191909152601760448201527630b1b1b7bab73a103337b9103ab83230ba32a7b93232b960491b60648201526084016105bc565b60405163f302f86f60e01b81526001600160a01b037f0000000000000000000000000000000000000000000000000000000000000000169063f302f86f90611c0c908a908a908a908a908a908a908a906004016157b1565b600060405180830381600087803b158015611c2657600080fd5b505af1158015611c3a573d6000803e3d6000fd5b5050505050611c496001600055565b505050505050565b600260005403611ca35760405162461bcd60e51b815260206004820152601f60248201527f5265656e7472616e637947756172643a207265656e7472616e742063616c6c0060448201526064016105bc565b6002600055565b6000604051602001611ced906020808252601e908201527f434c41494d5f55495f464545535f464541545552455f44495341424c45440000604082015260600190565b60408051601f198184030181528282528051602091820120908301526001600160a01b03841690820152606001604051602081830303815290604052805190602001209050919050565b611d418282612932565b156108385760405163dd70e0c960e01b8152600481018290526024016105bc565b6000604051602001611ced9060208082526028908201527f434c41494d5f414646494c494154455f524557415244535f464541545552455f604082015267111254d05093115160c21b606082015260800190565b6001600160a01b038116610b375760405163d551823d60e01b815260040160405180910390fd5b80600003611dea57505050565b611df382611db6565b6000836001600160a01b031663bd02d0f5604051602001611e45906020808252601f908201527f4e41544956455f544f4b454e5f5452414e534645525f4741535f4c494d495400604082015260600190565b604051602081830303815290604052805190602001206040518263ffffffff1660e01b8152600401611e7991815260200190565b602060405180830381865afa158015611e96573d6000803e3d6000fd5b505050506040513d601f19601f82011682018060405250810190611eba91906146c5565b90506000806000806000868887f190508015611ed7575050505050565b611ee28585856120b7565b5050505050565b6000846001600160a01b031663bd02d0f5604051602001611f2f9060208082526011908201527026a0ac2faaa4afa322a2afa320a1aa27a960791b604082015260600190565b604051602081830303815290604052805190602001206040518263ffffffff1660e01b8152600401611f6391815260200190565b602060405180830381865afa158015611f80573d6000803e3d6000fd5b505050506040513d601f19601f82011682018060405250810190611fa491906146c5565b905080821115611fcb578181604051638146813960e01b81526004016105bc92919061465a565b846001600160a01b031663e2a4853a611fe38561299e565b846040518363ffffffff1660e01b815260040161200192919061465a565b6020604051808303816000875af1158015612020573d6000803e3d6000fd5b505050506040513d601f19601f8201168201806040525081019061204491906146c5565b506040516311bfdfd160e21b8152731F493E17bcF5390d3e5E49eE0bce17d4d068f90b906346ff7f4490612080908790879087906004016158e0565b60006040518083038186803b15801561209857600080fd5b505af41580156120ac573d6000803e3d6000fd5b505050505050505050565b806000036120c457505050565b6120cd82611db6565b60006120d8846129d1565b9050806001600160a01b031663d0e30db0836040518263ffffffff1660e01b81526004016000604051808303818588803b15801561211557600080fd5b505af1158015612129573d6000803e3d6000fd5b505050505061213a84828585612a7e565b50505050565b60008061214c83612cb4565b915091508015612170578160405162461bcd60e51b81526004016105bc9190615904565b61163c83612d44565b6000604051602001611ced9060208082526023908201527f434c41494d5f46554e44494e475f464545535f464541545552455f444953414260408201526213115160ea1b606082015260800190565b6000806121d6868686612d4d565b60405163bd02d0f560e01b8152600481018290529091506000906001600160a01b038a169063bd02d0f590602401602060405180830381865afa158015612221573d6000803e3d6000fd5b505050506040513d601f19601f8201168201806040525081019061224591906146c5565b604051637152429d60e11b81529091506001600160a01b038a169063e2a4853a9061227790859060009060040161465a565b6020604051808303816000875af1158015612296573d6000803e3d6000fd5b505050506040513d601f19601f820116820180604052508101906122ba91906146c5565b506000896001600160a01b031663e98aabc16122d68a8a612dbe565b846040518363ffffffff1660e01b81526004016122f492919061465a565b6020604051808303816000875af1158015612313573d6000803e3d6000fd5b505050506040513d601f19601f8201168201806040525081019061233791906146c5565b60405163078d3b7960e01b81529091506001600160a01b0389169063078d3b799061236a908a90899087906004016158e0565b600060405180830381600087803b15801561238457600080fd5b505af1158015612398573d6000803e3d6000fd5b505050506123a68a89612e25565b604051634ee4c83160e01b81526001600160a01b03808b166004830152808a166024830152808916604483015280881660648301528616608482015260a4810183905260c48101829052731F493E17bcF5390d3e5E49eE0bce17d4d068f90b90634ee4c8319060e40160006040518083038186803b15801561242757600080fd5b505af415801561243b573d6000803e3d6000fd5b50939c9b505050505050505050505050565b6000604051602001611ced9060208082526021908201527f434c41494d5f434f4c4c41544552414c5f464541545552455f44495341424c456040820152601160fa1b606082015260800190565b600080886001600160a01b031663bd02d0f56124b889898989612e3d565b6040518263ffffffff1660e01b81526004016124d691815260200190565b602060405180830381865afa1580156124f3573d6000803e3d6000fd5b505050506040513d601f19601f8201168201806040525081019061251791906146c5565b90506000808a6001600160a01b031663bd02d0f56125368b8b8b612eb5565b6040518263ffffffff1660e01b815260040161255491815260200190565b602060405180830381865afa158015612571573d6000803e3d6000fd5b505050506040513d601f19601f8201168201806040525081019061259591906146c5565b905060008b6001600160a01b031663bd02d0f56125b48c8c8c8c612f0a565b6040518263ffffffff1660e01b81526004016125d291815260200190565b602060405180830381865afa1580156125ef573d6000803e3d6000fd5b505050506040513d601f19601f8201168201806040525081019061261391906146c5565b90508082116126225780612624565b815b9250505068327cb2734119d3b7a9601e1b81111561265857604051636c2738d360e01b8152600481018290526024016105bc565b60008a6001600160a01b031663bd02d0f56126758b8b8b8b612f1b565b6040518263ffffffff1660e01b815260040161269391815260200190565b602060405180830381865afa1580156126b0573d6000803e3d6000fd5b505050506040513d601f19601f820116820180604052508101906126d491906146c5565b905060006126e28484612f5a565b9050818111612708578082604051631d8db13960e31b81526004016105bc92919061465a565b60006127148383615917565b90508c6001600160a01b031663e2a4853a6127318d8d8d8d612f1b565b846040518363ffffffff1660e01b815260040161274f92919061465a565b6020604051808303816000875af115801561276e573d6000803e3d6000fd5b505050506040513d601f19601f8201168201806040525081019061279291906146c5565b5060008d6001600160a01b031663e98aabc16127ae8e8e612f73565b846040518363ffffffff1660e01b81526004016127cc92919061465a565b6020604051808303816000875af11580156127eb573d6000803e3d6000fd5b505050506040513d601f19601f8201168201806040525081019061280f91906146c5565b60405163078d3b7960e01b81529091506001600160a01b038d169063078d3b7990612842908e908c9087906004016158e0565b600060405180830381600087803b15801561285c57600080fd5b505af1158015612870573d6000803e3d6000fd5b5050505061287e8e8d612e25565b6040516359e8c46f60e11b81526001600160a01b03808f166004830152808e166024830152808d166044830152606482018c9052808b166084830152891660a482015260c4810183905260e48101829052731F493E17bcF5390d3e5E49eE0bce17d4d068f90b9063b3d188de906101040160006040518083038186803b15801561290757600080fd5b505af415801561291b573d6000803e3d6000fd5b509398505050505050505050979650505050505050565b604051633d70e7e560e11b8152600481018290526000906001600160a01b03841690637ae1cfca90602401602060405180830381865afa15801561297a573d6000803e3d6000fd5b505050506040513d601f19601f8201168201806040525081019061077e919061592a565b6000604051602001611ced906020808252600d908201526c2aa4afa322a2afa320a1aa27a960991b604082015260600190565b6000816001600160a01b03166321f8a721604051602001612a099060208082526003908201526215d39560ea1b604082015260600190565b604051602081830303815290604052805190602001206040518263ffffffff1660e01b8152600401612a3d91815260200190565b602060405180830381865afa158015612a5a573d6000803e3d6000fd5b505050506040513d601f19601f820116820180604052508101906114ee9190615947565b801561213a57612a8d82611db6565b6000846001600160a01b031663bd02d0f5612aa786612f84565b6040518263ffffffff1660e01b8152600401612ac591815260200190565b602060405180830381865afa158015612ae2573d6000803e3d6000fd5b505050506040513d601f19601f82011682018060405250810190612b0691906146c5565b905080600003612b2b5783604051634fe14bfd60e11b81526004016105bc9190614059565b6000612b3985858585612fc2565b5090508015612b4957505061213a565b6000866001600160a01b03166321f8a721604051602001612b8d906020808252600f908201526e484f4c44494e475f4144445245535360881b604082015260600190565b604051602081830303815290604052805190602001206040518263ffffffff1660e01b8152600401612bc191815260200190565b602060405180830381865afa158015612bde573d6000803e3d6000fd5b505050506040513d601f19601f82011682018060405250810190612c029190615947565b90506001600160a01b038116612c2b57604051633a6de2f560e21b815260040160405180910390fd5b600080612c3a88848888612fc2565b915091508115612c4e57505050505061213a565b6000612c5982612cb4565b5090507fc9f14d9a0a9b46470c7c0b6c508f8283abaab7f795f153953c58cd4250824dae8183604051612c8d929190615964565b60405180910390a188888860405163012f3b8f60e71b81526004016105bc939291906158e0565b60606000604483511015612cdb575050604080516020810190915260008082529092909150565b6000612ce8846020015190565b90506307b9e43360e51b6001600160e01b0319821601612d275760048401935083806020019051810190612d1c9190615989565b946001945092505050565b600060405180602001604052806000815250909250925050915091565b80518060208301fd5b6000604051602001612d5e906159f6565b60408051601f198184030181528282528051602091820120908301526001600160a01b038087169183019190915280851660608301528316608082015260a0015b6040516020818303038152906040528051906020012090509392505050565b6000604051602001612dcf906159f6565b60408051601f198184030181528282528051602091820120908301526001600160a01b03808616918301919091528316606082015260800160405160208183030381529060405280519060200120905092915050565b6000612e31838361312a565b905061163c83826131d7565b6000604051602001612e4e90615a28565b60408051601f198184030181528282528051602091820120908301526001600160a01b0380881691830191909152808616606083015260808201859052831660a082015260c001604051602081830303815290604052805190602001209050949350505050565b6000604051602001612ec690615a5d565b60408051601f198184030181528282528051602091820120908301526001600160a01b0380871691830191909152841660608201526080810183905260a001612d9f565b6000604051602001612e4e90615a5d565b6000604051602001612e4e9060208082526019908201527810d3105253515117d0d3d31310551154905317d05353d55395603a1b604082015260600190565b600061077e838368327cb2734119d3b7a9601e1b61321a565b6000604051602001612dcf90615a28565b6000604051602001611ced906020808252601890820152771513d2d15397d514905394d1915497d1d054d7d31253525560421b604082015260600190565b60006060600063a9059cbb60e01b8686604051602401612fe3929190614abb565b604051602081830303815290604052906001600160e01b0319166020820180516001600160e01b0383818316178352505050509050600080886001600160a01b031686846040516130349190615a92565b60006040518083038160008787f1925050503d8060008114613072576040519150601f19603f3d011682016040523d82523d6000602084013e613077565b606091505b509150915081156131185780516000036130d5576001600160a01b0389163b6130d55760006040518060400160405280601481526020017310d85b1b081d1bc81b9bdb8b58dbdb9d1c9858dd60621b81525094509450505050613121565b600081511180156130f75750808060200190518101906130f5919061592a565b155b1561310a57600094509250613121915050565b600194509250613121915050565b60009450925050505b94509492505050565b60408051608081018252600080825260208201819052918101829052606081019190915260405163a8d8fff560e01b815260009073bbf05cF8e1c6548092A6a02c4c5330E76BF0fE2D9063a8d8fff59061318a9087908790600401615aae565b608060405180830381865af41580156131a7573d6000803e3d6000fd5b505050506040513d601f19601f820116820180604052508101906131cb9190615ac8565b905061077e8482613227565b6131e6828283604001516132f0565b80606001516001600160a01b031681604001516001600160a01b03160361320b575050565b610838828283606001516132f0565b6000611a9e8484846134ee565b80516001600160a01b031661324f576040516302fde0d760e11b815260040160405180910390fd5b6000826001600160a01b0316637ae1cfca61326d84600001516135d8565b6040518263ffffffff1660e01b815260040161328b91815260200190565b602060405180830381865afa1580156132a8573d6000803e3d6000fd5b505050506040513d601f19601f820116820180604052508101906132cc919061592a565b9050801561163c5781516040516309f8c93760e01b81526105bc9190600401614059565b81516001600160a01b0316158061330e57506001600160a01b038116155b1561333157815160405163e474a42560e01b81526105bc91908390600401615aae565b81516040516370a0823160e01b81526000916001600160a01b038416916370a082319161336091600401614059565b602060405180830381865afa15801561337d573d6000803e3d6000fd5b505050506040513d601f19601f820116820180604052508101906133a191906146c5565b905060006133b0858585613610565b9050808210156133dc5783516040516333a1ea6b60e01b81526105bc9190859085908590600401615b2f565b60006133f086866000015186600180613933565b90506134058686600001518660006001613933565b61340f9082615b58565b90508083101561343b57845160405163808c464f60e01b81526105bc9190869086908590600401615b2f565b6000866001600160a01b031663bd02d0f561345a886000015188612dbe565b6040518263ffffffff1660e01b815260040161347891815260200190565b602060405180830381865afa158015613495573d6000803e3d6000fd5b505050506040513d601f19601f820116820180604052508101906134b991906146c5565b9050808410156134e5578551604051639dd026db60e01b81526105bc9190879087908590600401615b2f565b50505050505050565b60008080600019858709858702925082811083820303915050806000036135285783828161351e5761351e615b6b565b049250505061077e565b80841161356f5760405162461bcd60e51b81526020600482015260156024820152744d6174683a206d756c446976206f766572666c6f7760581b60448201526064016105bc565b60008486880960026001871981018816978890046003810283188082028403028082028403028082028403028082028403028082028403029081029092039091026000889003889004909101858311909403939093029303949094049190911702949350505050565b6000604051602001611ced906020808252601290820152711254d7d3505492d15517d11254d05093115160721b604082015260600190565b600061364b6040518060c001604052806000815260200160008152602001600081526020016000815260200160008152602001600081525090565b846001600160a01b031663bd02d0f56136688660000151866139c3565b6040518263ffffffff1660e01b815260040161368691815260200190565b602060405180830381865afa1580156136a3573d6000803e3d6000fd5b505050506040513d601f19601f820116820180604052508101906136c791906146c5565b815283516136d7908690856139f4565b602082015283516001600160a01b0386169063bd02d0f5906136f99086612f73565b6040518263ffffffff1660e01b815260040161371791815260200190565b602060405180830381865afa158015613734573d6000803e3d6000fd5b505050506040513d601f19601f8201168201806040525081019061375891906146c5565b604082015283516001600160a01b0386169063bd02d0f59061377a9086613a6e565b6040518263ffffffff1660e01b815260040161379891815260200190565b602060405180830381865afa1580156137b5573d6000803e3d6000fd5b505050506040513d601f19601f820116820180604052508101906137d991906146c5565b606082015283516001600160a01b0386169063bd02d0f5906137fb9086613aa8565b6040518263ffffffff1660e01b815260040161381991815260200190565b602060405180830381865afa158015613836573d6000803e3d6000fd5b505050506040513d601f19601f8201168201806040525081019061385a91906146c5565b608082015283516001600160a01b0386169063bd02d0f59061387c9086613ae5565b6040518263ffffffff1660e01b815260040161389a91815260200190565b602060405180830381865afa1580156138b7573d6000803e3d6000fd5b505050506040513d601f19601f820116820180604052508101906138db91906146c5565b60a08201819052608082015160608301516040840151602085015185516139029190615b58565b61390c9190615b58565b6139169190615b58565b6139209190615b58565b61392a9190615b58565b95945050505050565b600081866001600160a01b031663bd02d0f5613950888888613b1b565b6040518263ffffffff1660e01b815260040161396e91815260200190565b602060405180830381865afa15801561398b573d6000803e3d6000fd5b505050506040513d601f19601f820116820180604052508101906139af91906146c5565b6139b99190615b81565b9695505050505050565b6000604051602001612dcf906020808252600b908201526a1413d3d317d05353d5539560aa1b604082015260600190565b6000836001600160a01b031663bd02d0f5613a0f8585613b94565b6040518263ffffffff1660e01b8152600401613a2d91815260200190565b602060405180830381865afa158015613a4a573d6000803e3d6000fd5b505050506040513d601f19601f82011682018060405250810190611a9e91906146c5565b6000604051602001612dcf9060208082526014908201527310d31052535050931157d1915157d05353d5539560621b604082015260600190565b6000604051602001612dcf9060208082526017908201527610d31052535050931157d55257d1915157d05353d55395604a1b604082015260600190565b6000604051602001612dcf9060208082526010908201526f10519192531250551157d49155d0549160821b604082015260600190565b6000604051602001613b4f906020808252600e908201526d434f4c4c41544552414c5f53554d60901b604082015260600190565b60408051601f198184030181528282528051602091820120908301526001600160a01b038087169183019190915284166060820152821515608082015260a001612d9f565b6000604051602001612dcf9060208082526017908201527614d5d05417d253541050d517d413d3d317d05353d55395604a1b604082015260600190565b634e487b7160e01b600052604160045260246000fd5b604051608081016001600160401b0381118282101715613c0957613c09613bd1565b60405290565b604080519081016001600160401b0381118282101715613c0957613c09613bd1565b60405160e081016001600160401b0381118282101715613c0957613c09613bd1565b604051606081016001600160401b0381118282101715613c0957613c09613bd1565b60405161012081016001600160401b0381118282101715613c0957613c09613bd1565b60405161016081016001600160401b0381118282101715613c0957613c09613bd1565b60405161010081016001600160401b0381118282101715613c0957613c09613bd1565b60405160c081016001600160401b0381118282101715613c0957613c09613bd1565b604051601f8201601f191681016001600160401b0381118282101715613d2857613d28613bd1565b604052919050565b60006001600160401b03821115613d4957613d49613bd1565b5060051b60200190565b6001600160a01b0381168114610b3757600080fd5b80356108e681613d53565b600082601f830112613d8457600080fd5b81356020613d99613d9483613d30565b613d00565b82815260059290921b84018101918181019086841115613db857600080fd5b8286015b84811015613ddc578035613dcf81613d53565b8352918301918301613dbc565b509695505050505050565b600080600060608486031215613dfc57600080fd5b83356001600160401b0380821115613e1357600080fd5b613e1f87838801613d73565b94506020860135915080821115613e3557600080fd5b50613e4286828701613d73565b9250506040840135613e5381613d53565b809150509250925092565b6020808252825182820181905260009190848201906040850190845b81811015613e9657835183529284019291840191600101613e7a565b50909695505050505050565b60008060408385031215613eb557600080fd5b8235613ec081613d53565b91506020830135613ed081613d53565b809150509250929050565b600060208284031215613eed57600080fd5b81356001600160401b03811115613f0357600080fd5b82016101c0818503121561077e57600080fd5b600060808284031215613f2857600080fd5b613f30613be7565b905081356001600160401b0380821115613f4957600080fd5b613f5585838601613d73565b8352602091508184013581811115613f6c57600080fd5b84019050601f81018513613f7f57600080fd5b8035613f8d613d9482613d30565b81815260069190911b82018301908381019087831115613fac57600080fd5b928401925b82841015613fef5760408489031215613fca5760008081fd5b613fd2613c0f565b843581528585013586820152825260409093019290840190613fb1565b80858701525050505050604082013560408201526060820135606082015292915050565b6000806040838503121561402657600080fd5b8235915060208301356001600160401b0381111561404357600080fd5b61404f85828601613f16565b9150509250929050565b6001600160a01b0391909116815260200190565b60006020828403121561407f57600080fd5b5035919050565b6000806040838503121561409957600080fd5b82356140a481613d53565b946020939093013593505050565b6000602082840312156140c457600080fd5b81356001600160401b038111156140da57600080fd5b8201610180818503121561077e57600080fd5b6000610160828403121561410057600080fd5b50919050565b6000806040838503121561411957600080fd5b82356001600160401b038082111561413057600080fd5b61413c868387016140ed565b9350602085013591508082111561415257600080fd5b50830160608186031215613ed057600080fd5b6000806020838503121561417857600080fd5b82356001600160401b038082111561418f57600080fd5b818501915085601f8301126141a357600080fd5b8135818111156141b257600080fd5b8660208260051b85010111156141c757600080fd5b60209290920196919550909350505050565b60005b838110156141f45781810151838201526020016141dc565b50506000910152565b600081518084526142158160208601602086016141d9565b601f01601f19169290920160200192915050565b600081518084526020808501808196508360051b8101915082860160005b8581101561427157828403895261425f8483516141fd565b98850198935090840190600101614247565b5091979650505050505050565b60208152600061077e6020830184614229565b6000602082840312156142a357600080fd5b81356001600160401b038111156142b957600080fd5b611a9e848285016140ed565b6000610100828403121561410057600080fd5b60038110610b3757600080fd5b80356108e6816142d8565b60008060006060848603121561430557600080fd5b8335925060208401356001600160401b0381111561432257600080fd5b61432e86828701613f16565b9250506040840135613e53816142d8565b60006001600160401b0382111561435857614358613bd1565b50601f01601f191660200190565b6000806000806080858703121561437c57600080fd5b84356001600160401b038082111561439357600080fd5b61439f88838901613d73565b95506020915081870135818111156143b657600080fd5b8701601f810189136143c757600080fd5b80356143d5613d9482613d30565b81815260059190911b8201840190848101908b8311156143f457600080fd5b8584015b838110156144685780358681111561440f57600080fd5b8501603f81018e1361442057600080fd5b87810135614430613d948261433f565b8181528f60408385010111156144465760008081fd5b81604084018b83013760009181018a01919091528452509186019186016143f8565b509750505050604087013591508082111561448257600080fd5b61448e88838901613d73565b935060608701359150808211156144a457600080fd5b506144b187828801613d73565b91505092959194509250565b6000806000606084860312156144d257600080fd5b83356144dd81613d53565b925060208401356144ed81613d53565b929592945050506040919091013590565b6000806000806080858703121561451457600080fd5b84356001600160401b038082111561452b57600080fd5b61453788838901613d73565b955060209150818701358181111561454e57600080fd5b61455a89828a01613d73565b95505060408701358181111561456f57600080fd5b87019050601f8101881361458257600080fd5b8035614590613d9482613d30565b81815260059190911b8201830190838101908a8311156145af57600080fd5b928401925b828410156145cd578335825292840192908401906145b4565b80965050505050506145e160608601613d68565b905092959194509250565b8015158114610b3757600080fd5b80356108e6816145ec565b60008060008060008060c0878903121561461e57600080fd5b863595506020870135945060408701359350606087013592506080870135915060a087013561464c816145ec565b809150509295509295509295565b918252602082015260400190565b634e487b7160e01b600052603260045260246000fd5b6001600160a01b03169052565b6001600160a01b0396871681529486166020860152928516604085015290841660608401528316608083015290911660a082015260c00190565b6000602082840312156146d757600080fd5b5051919050565b634e487b7160e01b600052601160045260246000fd5b600060018201614706576147066146de565b5060010190565b6000808335601e1984360301811261472457600080fd5b83016020810192503590506001600160401b0381111561474357600080fd5b8060051b360382131561475557600080fd5b9250929050565b8183526000602080850194508260005b8581101561479a57813561477f81613d53565b6001600160a01b03168752958201959082019060010161476c565b509495945050505050565b600081356147b281613d53565b6001600160a01b0390811684526020830135906147ce82613d53565b90811660208501526040830135906147e582613d53565b90811660408501526060830135906147fc82613d53565b908116606085015260808301359061481382613d53565b16608084015261482560a08301613d68565b61483260a085018261467e565b5061484060c083018361470d565b60e060c086015261392a60e08601828461475c565b60088110610b3757600080fd5b80356108e681614855565b634e487b7160e01b600052602160045260246000fd5b600881106148935761489361486d565b9052565b60038110610b3757610b3761486d565b61489381614897565b6001600160a01b038316815260406020820152600082353684900360de190181126148da57600080fd5b6101c08060408501526148f361020085018684016147a5565b91506149446060850160208701803582526020810135602083015260408101356040830152606081013560608301526080810135608083015260a081013560a083015260c081013560c08301525050565b6149516101008601614862565b61014061496081870183614883565b61496d61012088016142e5565b915061016061497e818801846148a7565b6149898289016145fa565b9250610180915061499d8288018415159052565b6149a88189016145fa565b9250506101a06149bb8188018415159052565b6149c68289016145fa565b151593870193909352505093909301356101e09092019190915250919050565b600081518084526020808501945080840160005b8381101561479a5781516001600160a01b0316875295820195908201906001016149fa565b6000815160808452614a3460808501826149e6565b60208481015186830387830152805180845290820193509091600091908301905b80831015614a8057845180518352840151848301529383019360019290920191604090910190614a55565b5060408601516040880152606086015160608801528094505050505092915050565b828152604060208201526000611a9e6040830184614a1f565b6001600160a01b03929092168252602082015260400190565b80516108e681613d53565b600082601f830112614af057600080fd5b81516020614b00613d9483613d30565b82815260059290921b84018101918181019086841115614b1f57600080fd5b8286015b84811015613ddc578051614b3681613d53565b8352918301918301614b23565b600060e08284031215614b5557600080fd5b614b5d613c31565b9050815181526020820151602082015260408201516040820152606082015160608201526080820151608082015260a082015160a082015260c082015160c082015292915050565b600060208284031215614bb757600080fd5b604051602081016001600160401b0381118282101715614bd957614bd9613bd1565b80604052508091508251614bec816145ec565b905292915050565b600060208284031215614c0657600080fd5b81516001600160401b0380821115614c1d57600080fd5b8184019150610120808387031215614c3457600080fd5b614c3c613c53565b835183811115614c4b57600080fd5b8401808803831315614c5c57600080fd5b614c64613c75565b9250614c6f81614ad4565b8352614c7d60208201614ad4565b6020840152614c8e60408201614ad4565b6040840152614c9f60608201614ad4565b6060840152614cb060808201614ad4565b6080840152614cc160a08201614ad4565b60a0840152614cd260c08201614ad4565b60c084015260e081015184811115614ce957600080fd5b614cf589828401614adf565b60e0850152506101008082015185811115614d0f57600080fd5b614d1b8a828501614adf565b8286015250838352614d308960208801614b43565b6020840152614d4189828801614ba5565b60408401525090979650505050505050565b6001600160a01b0383168152604060208201819052614d7c908201614d7784613d68565b61467e565b6000614d8a60208401613d68565b614d97606084018261467e565b50614da460408401613d68565b614db1608084018261467e565b50614dbe60608401613d68565b614dcb60a084018261467e565b50614dd860808401613d68565b614de560c084018261467e565b50614df260a08401613d68565b614dff60e084018261467e565b50614e0d60c084018461470d565b6101806101008181870152614e276101c08701848661475c565b9350614e3660e088018861470d565b9350610120603f198887030181890152614e5186868461475c565b955061014094508289013585890152614e6b818a016145fa565b92505050610160614e7f8188018315159052565b928701359186019190915250909301356101a09092019190915250919050565b6000610160614eb184614d7785613d68565b614ebd60208401613d68565b614eca602086018261467e565b50614ed760408401613d68565b614ee4604086018261467e565b50614ef160608401613d68565b614efe606086018261467e565b50614f0c608084018461470d565b826080870152614f1f838701828461475c565b92505050614f3060a084018461470d565b85830360a0870152614f4383828461475c565b9250505060c083013560c085015260e083013560e0850152610100614f698185016145fa565b15159085015261012083810135908501526101409283013592909301919091525090565b81835281816020850137506000828201602090810191909152601f909101601f19169091010190565b6001600160a01b038416815260606020808301829052600091614fdb90840186614e9f565b8381036040850152614fed858661470d565b60608352614fff60608401828461475c565b91505061500e8387018761470d565b8383038585015261502083828461475c565b92505050615031604087018761470d565b83830360408501528293508083528483019350848160051b8401018260005b838110156150bf57858303601f19018752813536869003601e1901811261507657600080fd5b850188810190356001600160401b0381111561509157600080fd5b8036038213156150a057600080fd5b6150ab858284614f8d565b988a01989450505090870190600101615050565b50909b9a5050505050505050505050565b6000602082840312156150e257600080fd5b81516001600160401b03808211156150f957600080fd5b90830190610120828603121561510e57600080fd5b615116613c53565b82518281111561512557600080fd5b830160e0818803121561513757600080fd5b61513f613c31565b61514882614ad4565b815261515660208301614ad4565b602082015261516760408301614ad4565b604082015261517860608301614ad4565b606082015261518960808301614ad4565b608082015260a0820151848111156151a057600080fd5b6151ac89828501614adf565b60a08301525060c0820151848111156151c457600080fd5b6151d089828501614adf565b60c0830152508252506151e68660208501614b43565b60208201526151f9866101008501614ba5565b604082015295945050505050565b80516108e681614855565b80516108e6816142d8565b6000610160828403121561523057600080fd5b615238613c98565b905061524382615207565b815261525160208301615212565b602082015260408201516040820152606082015160608201526080820151608082015260a082015160a082015260c082015160c082015260e082015160e082015261010080830151818301525061012080830151818301525061014080830151818301525092915050565b6000608082840312156152ce57600080fd5b6152d6613be7565b905081516152e3816145ec565b815260208201516152f3816145ec565b60208201526040820151615306816145ec565b60408201526060820151615319816145ec565b606082015292915050565b60006020828403121561533657600080fd5b81516001600160401b038082111561534d57600080fd5b90830190610200828603121561536257600080fd5b61536a613c53565b82518281111561537957600080fd5b8301610100818803121561538c57600080fd5b615394613cbb565b61539d82614ad4565b81526153ab60208301614ad4565b60208201526153bc60408301614ad4565b60408201526153cd60608301614ad4565b60608201526153de60808301614ad4565b60808201526153ef60a08301614ad4565b60a082015261540060c08301614ad4565b60c082015260e08201518481111561541757600080fd5b61542389828501614adf565b60e083015250825250615439866020850161521d565b60208201526151f98661018085016152bc565b600060a0828403121561545e57600080fd5b60405160a081016001600160401b038111828210171561548057615480613bd1565b806040525080915082518152602083015160208201526040830151604082015260608301516060820152608083015160808201525092915050565b60008183036101608112156154cf57600080fd5b6154d7613c0f565b60c08212156154e557600080fd5b6154ed613cde565b915083516154fa81613d53565b8252602084015161550a81613d53565b6020830152604084015161551d81613d53565b6040830152606084015161553081613d53565b6060830152608084015161554381613d53565b608083015260a084015161555681613d53565b60a083015281815261556b8560c0860161544c565b6020820152949350505050565b6000808335601e1984360301811261558f57600080fd5b8301803591506001600160401b038211156155a957600080fd5b60200191503681900382131561475557600080fd5b8183823760009101908152919050565b6001600160a01b0383168152604060208201819052600090611a9e90830184614e9f565b6001600160a01b038381168252610120820190833561561081613d53565b818116602085015250602084013561562781613d53565b8181166040850152505061563d60408401613d68565b61564a606084018261467e565b5061565760608401613d68565b615664608084018261467e565b5061567160808401613d68565b61567e60a084018261467e565b5060a083013560c083015260c083013560e083015260e08301356101008301529392505050565b8381526060602082015260006156be6060830185614a1f565b90506156c983614897565b826040830152949350505050565b6080815260006156ea60808301876149e6565b82810360208401526156fc8187614229565b9050828103604084015261571081866149e6565b9050828103606084015261572481856149e6565b979650505050505050565b61573a828251614883565b602081015161574c60208401826148a7565b5060408101516040830152606081015160608301526080810151608083015260a081015160a083015260c081015160c083015260e081015160e08301526101008082015181840152506101208082015181840152506101408082015181840152505050565b87815286602082015285604082015284606082015283608082015282151560a082015260e060c08201526000825161020060e084015260018060a01b03808251166102e08501528060208301511661030085015250604081015161581961032085018261467e565b50606081015161582d61034085018261467e565b50608081015161584161036085018261467e565b5060a081015161585561038085018261467e565b5060c08101516158696103a085018261467e565b5060e001516101006103c084018190526158876103e08501836149e6565b9150602085015161589a8286018261572f565b505060408481015180511515610260860152602081015115156102808601529081015115156102a0850152606081015115156102c0850152509998505050505050505050565b6001600160a01b039384168152919092166020820152604081019190915260600190565b60208152600061077e60208301846141fd565b818103818111156114ee576114ee6146de565b60006020828403121561593c57600080fd5b815161077e816145ec565b60006020828403121561595957600080fd5b815161077e81613d53565b60408152600061597760408301856141fd565b828103602084015261392a81856141fd565b60006020828403121561599b57600080fd5b81516001600160401b038111156159b157600080fd5b8201601f810184136159c257600080fd5b80516159d0613d948261433f565b8181528560208385010111156159e557600080fd5b61392a8260208301602086016141d9565b60208082526018908201527710d31052535050931157d1955391125391d7d05353d5539560421b604082015260600190565b6020808252601b908201527a10d31052535050931157d0d3d31310551154905317d05353d55395602a1b604082015260600190565b6020808252601b908201527a21a620a4a6a0a12622afa1a7a62620aa22a920a62fa320a1aa27a960291b604082015260600190565b60008251615aa48184602087016141d9565b9190910192915050565b6001600160a01b0392831681529116602082015260400190565b600060808284031215615ada57600080fd5b615ae2613be7565b8251615aed81613d53565b81526020830151615afd81613d53565b60208201526040830151615b1081613d53565b60408201526060830151615b2381613d53565b60608201529392505050565b6001600160a01b0394851681529290931660208301526040820152606081019190915260800190565b808201808211156114ee576114ee6146de565b634e487b7160e01b600052601260045260246000fd5b600082615b9e57634e487b7160e01b600052601260045260246000fd5b50049056fea2646970667358221220b3505dbb633df15d3c9fd0319c0c887d7c7295f3774b1c28ba73ae83f2a28b2964736f6c63430008120033",
  "deployedBytecode": "0x6080604052600436106101895760003560e01c806301a9cbb21461018e578063073fb09e146101b7578063083cfcee146101cc5780632a3db3eb146101ed5780632c2f3c07146102005780632e944bd614610241578063314044841461027557806349287a221461028857806349e587991461029b5780634a4a7b04146102ae57806353ead2d3146102e25780635a03cd94146102f55780635b4e956114610308578063660d0d671461031b5780636b5341a11461034f5780637213c5a0146103625780637489ec23146103755780637d39aaf11461038857806396be28981461039b5780639c8b2cfb146103ae5780639ff78c30146103e2578063a7115fa814610416578063ac9650d814610429578063ad23c5a114610449578063b1f906b91461045c578063b58483051461046f578063bc190c14146104a3578063c41b1ab3146104b6578063d59922b0146104c9578063e65c9ae1146104e9578063e6d66ac81461051d578063e9249b5714610530578063f82a227214610543578063f887ea4014610556575b600080fd5b6101a161019c366004613de7565b61058a565b6040516101ae9190613e5e565b60405180910390f35b6101ca6101c5366004613ea2565b610785565b005b6101df6101da366004613edb565b61083c565b6040519081526020016101ae565b6101ca6101fb366004614013565b6108eb565b34801561020c57600080fd5b506102347f000000000000000000000000000000000000000000000000000000000000000081565b6040516101ae9190614059565b34801561024d57600080fd5b506102347f000000000000000000000000000000000000000000000000000000000000000081565b6101ca61028336600461406d565b61096f565b6101a1610296366004613de7565b610b3a565b6101ca6102a9366004614013565b610d12565b3480156102ba57600080fd5b506102347f000000000000000000000000000000000000000000000000000000000000000081565b6101ca6102f0366004614086565b610d68565b6101ca61030336600461406d565b610dae565b6101df6103163660046140b2565b610e0e565b34801561032757600080fd5b506102347f000000000000000000000000000000000000000000000000000000000000000081565b6101ca61035d366004614106565b610e67565b6101ca61037036600461406d565b610efe565b6101ca61038336600461406d565b61105e565b6101ca610396366004614086565b6111eb565b6101ca6103a936600461406d565b611227565b3480156103ba57600080fd5b506102347f000000000000000000000000000000000000000000000000000000000000000081565b3480156103ee57600080fd5b506102347f000000000000000000000000000000000000000000000000000000000000000081565b6101ca610424366004614013565b61137f565b61043c610437366004614165565b6113d5565b6040516101ae919061427e565b6101df610457366004614291565b6114f4565b6101df61046a3660046142c5565b61154e565b34801561047b57600080fd5b506102347f000000000000000000000000000000000000000000000000000000000000000081565b6101ca6104b13660046142f0565b6115a8565b6101a16104c4366004613de7565b611641565b3480156104d557600080fd5b506101ca6104e4366004614366565b6117ae565b3480156104f557600080fd5b506102347f000000000000000000000000000000000000000000000000000000000000000081565b6101ca61052b3660046144bd565b611838565b6101a161053e3660046144fe565b6118e9565b6101ca610551366004614605565b611aa6565b34801561056257600080fd5b506102347f000000000000000000000000000000000000000000000000000000000000000081565b6060610594611c51565b82518451146105c557835183516040516374cee48d60e01b81526004016105bc92919061465a565b60405180910390fd5b6105f77f00000000000000000000000000000000000000000000000000000000000000006105f230611caa565b611d37565b835133906000906001600160401b0381111561061557610615613bd1565b60405190808252806020026020018201604052801561063e578160200160208202803683370190505b50905060005b86518110156107705773__$00d18be641c3a4f9ed15a2e39383149bb3$__637ed7d8ea7f00000000000000000000000000000000000000000000000000000000000000007f0000000000000000000000000000000000000000000000000000000000000000868b86815181106106bc576106bc614668565b60200260200101518b87815181106106d6576106d6614668565b60200260200101518b6040518763ffffffff1660e01b81526004016107009695949392919061468b565b602060405180830381865af415801561071d573d6000803e3d6000fd5b505050506040513d601f19601f8201168201806040525081019061074191906146c5565b82828151811061075357610753614668565b602090810291909101015280610768816146f4565b915050610644565b5091505061077e6001600055565b9392505050565b61078d611c51565b60405163b3678d5b60e01b81526001600160a01b037f00000000000000000000000000000000000000000000000000000000000000008116600483015233602483015280841660448301528216606482015273__$d7e28679fbfe4f4a6e86262d9995c4a909$__9063b3678d5b9060840160006040518083038186803b15801561081657600080fd5b505af415801561082a573d6000803e3d6000fd5b505050506108386001600055565b5050565b6000610846611c51565b6040516323a1002f60e21b815233906001600160a01b037f00000000000000000000000000000000000000000000000000000000000000001690638e8400bc9061089690849087906004016148b0565b6020604051808303816000875af11580156108b5573d6000803e3d6000fd5b505050506040513d601f19601f820116820180604052508101906108d991906146c5565b9150506108e66001600055565b919050565b6108f3611c51565b604051632a3db3eb60e01b81526001600160a01b037f00000000000000000000000000000000000000000000000000000000000000001690632a3db3eb906109419085908590600401614aa2565b600060405180830381600087803b15801561095b57600080fd5b505af115801561082a573d6000803e3d6000fd5b610977611c51565b60405163fdfc26f360e01b815260009073__$b63e253a228f0e32f671cc49c7fc32477c$__9063fdfc26f3906109d3907f0000000000000000000000000000000000000000000000000000000000000000908690600401614abb565b600060405180830381865af41580156109f0573d6000803e3d6000fd5b505050506040513d6000823e601f3d908101601f19168201604052610a189190810190614bf4565b90506000610a2582515190565b6001600160a01b031603610a4c576040516395b66fe960e01b815260040160405180910390fd5b33610a5682515190565b6001600160a01b031614610ab1576040805163a35b150b60e01b8152336004820152602481019190915260196044820152781858d8dbdd5b9d08199bdc8818d85b98d95b11195c1bdcda5d603a1b60648201526084016105bc565b604051630c50112160e21b8152600481018390527f00000000000000000000000000000000000000000000000000000000000000006001600160a01b0316906331404484906024015b600060405180830381600087803b158015610b1457600080fd5b505af1158015610b28573d6000803e3d6000fd5b5050505050610b376001600055565b50565b6060610b44611c51565b8251845114610b6c5783518351604051635b3043dd60e01b81526004016105bc92919061465a565b610b997f00000000000000000000000000000000000000000000000000000000000000006105f230611d62565b835133906000906001600160401b03811115610bb757610bb7613bd1565b604051908082528060200260200182016040528015610be0578160200160208202803683370190505b50905060005b86518110156107705773__$9d4130ea52f4c58807a0c72df3e6362e69$__63d57d53997f00000000000000000000000000000000000000000000000000000000000000007f00000000000000000000000000000000000000000000000000000000000000008a8581518110610c5d57610c5d614668565b60200260200101518a8681518110610c7757610c77614668565b6020026020010151888b6040518763ffffffff1660e01b8152600401610ca29695949392919061468b565b602060405180830381865af4158015610cbf573d6000803e3d6000fd5b505050506040513d601f19601f82011682018060405250810190610ce391906146c5565b828281518110610cf557610cf5614668565b602090810291909101015280610d0a816146f4565b915050610be6565b610d1a611c51565b6040516349e5879960e01b81526001600160a01b037f000000000000000000000000000000000000000000000000000000000000000016906349e58799906109419085908590600401614aa2565b610d70611c51565b610d7982611db6565b610da47f00000000000000000000000000000000000000000000000000000000000000008383611ddd565b6108386001600055565b610db6611c51565b33610e037f00000000000000000000000000000000000000000000000000000000000000007f00000000000000000000000000000000000000000000000000000000000000008385611ee9565b50610b376001600055565b6000610e18611c51565b60405162bd80c160e61b815233906001600160a01b037f00000000000000000000000000000000000000000000000000000000000000001690632f603040906108969084908790600401614d53565b610e6f611c51565b60405163021bb5a760e61b815233906001600160a01b037f000000000000000000000000000000000000000000000000000000000000000016906386ed69c090610ec190849087908790600401614fb6565b600060405180830381600087803b158015610edb57600080fd5b505af1158015610eef573d6000803e3d6000fd5b50505050506108386001600055565b610f06611c51565b60405163fdfc26f360e01b815260009073__$3dc24d71d6ebafc0c4ce8ac2f69cd1548a$__9063fdfc26f390610f62907f0000000000000000000000000000000000000000000000000000000000000000908690600401614abb565b600060405180830381865af4158015610f7f573d6000803e3d6000fd5b505050506040513d6000823e601f3d908101601f19168201604052610fa791908101906150d0565b905033610fb382515190565b6001600160a01b031614611011576040805163a35b150b60e01b81523360048201526024810191909152601c60448201527b1858d8dbdd5b9d08199bdc8818d85b98d95b15da5d1a191c985dd85b60221b60648201526084016105bc565b6040516303909e2d60e51b8152600481018390527f00000000000000000000000000000000000000000000000000000000000000006001600160a01b031690637213c5a090602401610afa565b611066611c51565b60405163fdfc26f360e01b815260009073__$9dcb75ef0bb6c4288f2ccffe7dc492c4eb$__9063fdfc26f3906110c2907f0000000000000000000000000000000000000000000000000000000000000000908690600401614abb565b600060405180830381865af41580156110df573d6000803e3d6000fd5b505050506040513d6000823e601f3d908101601f191682016040526111079190810190615324565b9050600061111482515190565b6001600160a01b03160361113b57604051631630779760e01b815260040160405180910390fd5b3361114582515190565b6001600160a01b03161461119e576040805163a35b150b60e01b81523360048201526024810191909152601760448201527630b1b1b7bab73a103337b91031b0b731b2b627b93232b960491b60648201526084016105bc565b604051637489ec2360e01b8152600481018390527f00000000000000000000000000000000000000000000000000000000000000006001600160a01b031690637489ec2390602401610afa565b6111f3611c51565b6111fc82611db6565b610da47f000000000000000000000000000000000000000000000000000000000000000083836120b7565b61122f611c51565b60405163fdfc26f360e01b815260009073__$17bbc74b36df540d4a9b171eb59c5012db$__9063fdfc26f39061128b907f0000000000000000000000000000000000000000000000000000000000000000908690600401614abb565b61016060405180830381865af41580156112a9573d6000803e3d6000fd5b505050506040513d601f19601f820116820180604052508101906112cd91906154bb565b9050336112d982515190565b6001600160a01b031614611332576040805163a35b150b60e01b8152336004820152602481019190915260176044820152761858d8dbdd5b9d08199bdc8818d85b98d95b14da1a599d604a1b60648201526084016105bc565b6040516312d7c51360e31b8152600481018390527f00000000000000000000000000000000000000000000000000000000000000006001600160a01b0316906396be289890602401610afa565b611387611c51565b6040516314e22bf560e31b81526001600160a01b037f0000000000000000000000000000000000000000000000000000000000000000169063a7115fa8906109419085908590600401614aa2565b6060816001600160401b038111156113ef576113ef613bd1565b60405190808252806020026020018201604052801561142257816020015b606081526020019060019003908161140d5790505b50905060005b828110156114ec576000803086868581811061144657611446614668565b90506020028101906114589190615578565b6040516114669291906155be565b600060405180830381855af49150503d80600081146114a1576040519150601f19603f3d011682016040523d82523d6000602084013e6114a6565b606091505b5091509150816114b9576114b981612140565b808484815181106114cc576114cc614668565b6020026020010181905250505080806114e4906146f4565b915050611428565b505b92915050565b60006114fe611c51565b604051634c5a91e560e11b815233906001600160a01b037f000000000000000000000000000000000000000000000000000000000000000016906398b523ca9061089690849087906004016155ce565b6000611558611c51565b60405163074ed6cf60e21b815233906001600160a01b037f00000000000000000000000000000000000000000000000000000000000000001690631d3b5b3c9061089690849087906004016155f2565b6115b0611c51565b604051632f06430560e21b81526001600160a01b037f0000000000000000000000000000000000000000000000000000000000000000169063bc190c1490611600908690869086906004016156a5565b600060405180830381600087803b15801561161a57600080fd5b505af115801561162e573d6000803e3d6000fd5b5050505061163c6001600055565b505050565b606061164b611c51565b82518451146116735783518351604051637363cfa560e01b81526004016105bc92919061465a565b6116a07f00000000000000000000000000000000000000000000000000000000000000006105f230612179565b6116a982611db6565b835133906000906001600160401b038111156116c7576116c7613bd1565b6040519080825280602002602001820160405280156116f0578160200160208202803683370190505b50905060005b86518110156107705761177f7f00000000000000000000000000000000000000000000000000000000000000007f000000000000000000000000000000000000000000000000000000000000000089848151811061175657611756614668565b602002602001015189858151811061177057611770614668565b6020026020010151878a6121c8565b82828151811061179157611791614668565b6020908102919091010152806117a6816146f4565b9150506116f6565b604051630d59922b60e41b81526001600160a01b037f0000000000000000000000000000000000000000000000000000000000000000169063d59922b0906118009087908790879087906004016156d7565b600060405180830381600087803b15801561181a57600080fd5b505af115801561182e573d6000803e3d6000fd5b5050505050505050565b611840611c51565b61184982611db6565b6040516303704f0f60e31b81526001600160a01b0384811660048301523360248301819052848216604484015260648301849052917f000000000000000000000000000000000000000000000000000000000000000090911690631b82787890608401600060405180830381600087803b1580156118c657600080fd5b505af11580156118da573d6000803e3d6000fd5b505050505061163c6001600055565b60606118f3611c51565b8351855114158061190657508251845114155b1561193b5784518451845160405163216068f960e11b81526004810193909352602483019190915260448201526064016105bc565b6119687f00000000000000000000000000000000000000000000000000000000000000006105f23061244d565b61197182611db6565b845133906000906001600160401b0381111561198f5761198f613bd1565b6040519080825280602002602001820160405280156119b8578160200160208202803683370190505b50905060005b8751811015611a9057611a617f00000000000000000000000000000000000000000000000000000000000000007f00000000000000000000000000000000000000000000000000000000000000008a8481518110611a1e57611a1e614668565b60200260200101518a8581518110611a3857611a38614668565b60200260200101518a8681518110611a5257611a52614668565b6020026020010151888b61249a565b828281518110611a7357611a73614668565b602090810291909101015280611a88816146f4565b9150506119be565b50915050611a9e6001600055565b949350505050565b611aae611c51565b60405163fdfc26f360e01b815260009073__$9dcb75ef0bb6c4288f2ccffe7dc492c4eb$__9063fdfc26f390611b0a907f0000000000000000000000000000000000000000000000000000000000000000908b90600401614abb565b600060405180830381865af4158015611b27573d6000803e3d6000fd5b505050506040513d6000823e601f3d908101601f19168201604052611b4f9190810190615324565b905033611b5b82515190565b6001600160a01b031614611bb4576040805163a35b150b60e01b81523360048201526024810191909152601760448201527630b1b1b7bab73a103337b9103ab83230ba32a7b93232b960491b60648201526084016105bc565b60405163f302f86f60e01b81526001600160a01b037f0000000000000000000000000000000000000000000000000000000000000000169063f302f86f90611c0c908a908a908a908a908a908a908a906004016157b1565b600060405180830381600087803b158015611c2657600080fd5b505af1158015611c3a573d6000803e3d6000fd5b5050505050611c496001600055565b505050505050565b600260005403611ca35760405162461bcd60e51b815260206004820152601f60248201527f5265656e7472616e637947756172643a207265656e7472616e742063616c6c0060448201526064016105bc565b6002600055565b6000604051602001611ced906020808252601e908201527f434c41494d5f55495f464545535f464541545552455f44495341424c45440000604082015260600190565b60408051601f198184030181528282528051602091820120908301526001600160a01b03841690820152606001604051602081830303815290604052805190602001209050919050565b611d418282612932565b156108385760405163dd70e0c960e01b8152600481018290526024016105bc565b6000604051602001611ced9060208082526028908201527f434c41494d5f414646494c494154455f524557415244535f464541545552455f604082015267111254d05093115160c21b606082015260800190565b6001600160a01b038116610b375760405163d551823d60e01b815260040160405180910390fd5b80600003611dea57505050565b611df382611db6565b6000836001600160a01b031663bd02d0f5604051602001611e45906020808252601f908201527f4e41544956455f544f4b454e5f5452414e534645525f4741535f4c494d495400604082015260600190565b604051602081830303815290604052805190602001206040518263ffffffff1660e01b8152600401611e7991815260200190565b602060405180830381865afa158015611e96573d6000803e3d6000fd5b505050506040513d601f19601f82011682018060405250810190611eba91906146c5565b90506000806000806000868887f190508015611ed7575050505050565b611ee28585856120b7565b5050505050565b6000846001600160a01b031663bd02d0f5604051602001611f2f9060208082526011908201527026a0ac2faaa4afa322a2afa320a1aa27a960791b604082015260600190565b604051602081830303815290604052805190602001206040518263ffffffff1660e01b8152600401611f6391815260200190565b602060405180830381865afa158015611f80573d6000803e3d6000fd5b505050506040513d601f19601f82011682018060405250810190611fa491906146c5565b905080821115611fcb578181604051638146813960e01b81526004016105bc92919061465a565b846001600160a01b031663e2a4853a611fe38561299e565b846040518363ffffffff1660e01b815260040161200192919061465a565b6020604051808303816000875af1158015612020573d6000803e3d6000fd5b505050506040513d601f19601f8201168201806040525081019061204491906146c5565b506040516311bfdfd160e21b815273__$c1eebf06e53d0bd092f667687cf73e1ebf$__906346ff7f4490612080908790879087906004016158e0565b60006040518083038186803b15801561209857600080fd5b505af41580156120ac573d6000803e3d6000fd5b505050505050505050565b806000036120c457505050565b6120cd82611db6565b60006120d8846129d1565b9050806001600160a01b031663d0e30db0836040518263ffffffff1660e01b81526004016000604051808303818588803b15801561211557600080fd5b505af1158015612129573d6000803e3d6000fd5b505050505061213a84828585612a7e565b50505050565b60008061214c83612cb4565b915091508015612170578160405162461bcd60e51b81526004016105bc9190615904565b61163c83612d44565b6000604051602001611ced9060208082526023908201527f434c41494d5f46554e44494e475f464545535f464541545552455f444953414260408201526213115160ea1b606082015260800190565b6000806121d6868686612d4d565b60405163bd02d0f560e01b8152600481018290529091506000906001600160a01b038a169063bd02d0f590602401602060405180830381865afa158015612221573d6000803e3d6000fd5b505050506040513d601f19601f8201168201806040525081019061224591906146c5565b604051637152429d60e11b81529091506001600160a01b038a169063e2a4853a9061227790859060009060040161465a565b6020604051808303816000875af1158015612296573d6000803e3d6000fd5b505050506040513d601f19601f820116820180604052508101906122ba91906146c5565b506000896001600160a01b031663e98aabc16122d68a8a612dbe565b846040518363ffffffff1660e01b81526004016122f492919061465a565b6020604051808303816000875af1158015612313573d6000803e3d6000fd5b505050506040513d601f19601f8201168201806040525081019061233791906146c5565b60405163078d3b7960e01b81529091506001600160a01b0389169063078d3b799061236a908a90899087906004016158e0565b600060405180830381600087803b15801561238457600080fd5b505af1158015612398573d6000803e3d6000fd5b505050506123a68a89612e25565b604051634ee4c83160e01b81526001600160a01b03808b166004830152808a166024830152808916604483015280881660648301528616608482015260a4810183905260c4810182905273__$c1eebf06e53d0bd092f667687cf73e1ebf$__90634ee4c8319060e40160006040518083038186803b15801561242757600080fd5b505af415801561243b573d6000803e3d6000fd5b50939c9b505050505050505050505050565b6000604051602001611ced9060208082526021908201527f434c41494d5f434f4c4c41544552414c5f464541545552455f44495341424c456040820152601160fa1b606082015260800190565b600080886001600160a01b031663bd02d0f56124b889898989612e3d565b6040518263ffffffff1660e01b81526004016124d691815260200190565b602060405180830381865afa1580156124f3573d6000803e3d6000fd5b505050506040513d601f19601f8201168201806040525081019061251791906146c5565b90506000808a6001600160a01b031663bd02d0f56125368b8b8b612eb5565b6040518263ffffffff1660e01b815260040161255491815260200190565b602060405180830381865afa158015612571573d6000803e3d6000fd5b505050506040513d601f19601f8201168201806040525081019061259591906146c5565b905060008b6001600160a01b031663bd02d0f56125b48c8c8c8c612f0a565b6040518263ffffffff1660e01b81526004016125d291815260200190565b602060405180830381865afa1580156125ef573d6000803e3d6000fd5b505050506040513d601f19601f8201168201806040525081019061261391906146c5565b90508082116126225780612624565b815b9250505068327cb2734119d3b7a9601e1b81111561265857604051636c2738d360e01b8152600481018290526024016105bc565b60008a6001600160a01b031663bd02d0f56126758b8b8b8b612f1b565b6040518263ffffffff1660e01b815260040161269391815260200190565b602060405180830381865afa1580156126b0573d6000803e3d6000fd5b505050506040513d601f19601f820116820180604052508101906126d491906146c5565b905060006126e28484612f5a565b9050818111612708578082604051631d8db13960e31b81526004016105bc92919061465a565b60006127148383615917565b90508c6001600160a01b031663e2a4853a6127318d8d8d8d612f1b565b846040518363ffffffff1660e01b815260040161274f92919061465a565b6020604051808303816000875af115801561276e573d6000803e3d6000fd5b505050506040513d601f19601f8201168201806040525081019061279291906146c5565b5060008d6001600160a01b031663e98aabc16127ae8e8e612f73565b846040518363ffffffff1660e01b81526004016127cc92919061465a565b6020604051808303816000875af11580156127eb573d6000803e3d6000fd5b505050506040513d601f19601f8201168201806040525081019061280f91906146c5565b60405163078d3b7960e01b81529091506001600160a01b038d169063078d3b7990612842908e908c9087906004016158e0565b600060405180830381600087803b15801561285c57600080fd5b505af1158015612870573d6000803e3d6000fd5b5050505061287e8e8d612e25565b6040516359e8c46f60e11b81526001600160a01b03808f166004830152808e166024830152808d166044830152606482018c9052808b166084830152891660a482015260c4810183905260e4810182905273__$c1eebf06e53d0bd092f667687cf73e1ebf$__9063b3d188de906101040160006040518083038186803b15801561290757600080fd5b505af415801561291b573d6000803e3d6000fd5b509398505050505050505050979650505050505050565b604051633d70e7e560e11b8152600481018290526000906001600160a01b03841690637ae1cfca90602401602060405180830381865afa15801561297a573d6000803e3d6000fd5b505050506040513d601f19601f8201168201806040525081019061077e919061592a565b6000604051602001611ced906020808252600d908201526c2aa4afa322a2afa320a1aa27a960991b604082015260600190565b6000816001600160a01b03166321f8a721604051602001612a099060208082526003908201526215d39560ea1b604082015260600190565b604051602081830303815290604052805190602001206040518263ffffffff1660e01b8152600401612a3d91815260200190565b602060405180830381865afa158015612a5a573d6000803e3d6000fd5b505050506040513d601f19601f820116820180604052508101906114ee9190615947565b801561213a57612a8d82611db6565b6000846001600160a01b031663bd02d0f5612aa786612f84565b6040518263ffffffff1660e01b8152600401612ac591815260200190565b602060405180830381865afa158015612ae2573d6000803e3d6000fd5b505050506040513d601f19601f82011682018060405250810190612b0691906146c5565b905080600003612b2b5783604051634fe14bfd60e11b81526004016105bc9190614059565b6000612b3985858585612fc2565b5090508015612b4957505061213a565b6000866001600160a01b03166321f8a721604051602001612b8d906020808252600f908201526e484f4c44494e475f4144445245535360881b604082015260600190565b604051602081830303815290604052805190602001206040518263ffffffff1660e01b8152600401612bc191815260200190565b602060405180830381865afa158015612bde573d6000803e3d6000fd5b505050506040513d601f19601f82011682018060405250810190612c029190615947565b90506001600160a01b038116612c2b57604051633a6de2f560e21b815260040160405180910390fd5b600080612c3a88848888612fc2565b915091508115612c4e57505050505061213a565b6000612c5982612cb4565b5090507fc9f14d9a0a9b46470c7c0b6c508f8283abaab7f795f153953c58cd4250824dae8183604051612c8d929190615964565b60405180910390a188888860405163012f3b8f60e71b81526004016105bc939291906158e0565b60606000604483511015612cdb575050604080516020810190915260008082529092909150565b6000612ce8846020015190565b90506307b9e43360e51b6001600160e01b0319821601612d275760048401935083806020019051810190612d1c9190615989565b946001945092505050565b600060405180602001604052806000815250909250925050915091565b80518060208301fd5b6000604051602001612d5e906159f6565b60408051601f198184030181528282528051602091820120908301526001600160a01b038087169183019190915280851660608301528316608082015260a0015b6040516020818303038152906040528051906020012090509392505050565b6000604051602001612dcf906159f6565b60408051601f198184030181528282528051602091820120908301526001600160a01b03808616918301919091528316606082015260800160405160208183030381529060405280519060200120905092915050565b6000612e31838361312a565b905061163c83826131d7565b6000604051602001612e4e90615a28565b60408051601f198184030181528282528051602091820120908301526001600160a01b0380881691830191909152808616606083015260808201859052831660a082015260c001604051602081830303815290604052805190602001209050949350505050565b6000604051602001612ec690615a5d565b60408051601f198184030181528282528051602091820120908301526001600160a01b0380871691830191909152841660608201526080810183905260a001612d9f565b6000604051602001612e4e90615a5d565b6000604051602001612e4e9060208082526019908201527810d3105253515117d0d3d31310551154905317d05353d55395603a1b604082015260600190565b600061077e838368327cb2734119d3b7a9601e1b61321a565b6000604051602001612dcf90615a28565b6000604051602001611ced906020808252601890820152771513d2d15397d514905394d1915497d1d054d7d31253525560421b604082015260600190565b60006060600063a9059cbb60e01b8686604051602401612fe3929190614abb565b604051602081830303815290604052906001600160e01b0319166020820180516001600160e01b0383818316178352505050509050600080886001600160a01b031686846040516130349190615a92565b60006040518083038160008787f1925050503d8060008114613072576040519150601f19603f3d011682016040523d82523d6000602084013e613077565b606091505b509150915081156131185780516000036130d5576001600160a01b0389163b6130d55760006040518060400160405280601481526020017310d85b1b081d1bc81b9bdb8b58dbdb9d1c9858dd60621b81525094509450505050613121565b600081511180156130f75750808060200190518101906130f5919061592a565b155b1561310a57600094509250613121915050565b600194509250613121915050565b60009450925050505b94509492505050565b60408051608081018252600080825260208201819052918101829052606081019190915260405163a8d8fff560e01b815260009073__$ff439aa65a80c9eec648f15db20b189505$__9063a8d8fff59061318a9087908790600401615aae565b608060405180830381865af41580156131a7573d6000803e3d6000fd5b505050506040513d601f19601f820116820180604052508101906131cb9190615ac8565b905061077e8482613227565b6131e6828283604001516132f0565b80606001516001600160a01b031681604001516001600160a01b03160361320b575050565b610838828283606001516132f0565b6000611a9e8484846134ee565b80516001600160a01b031661324f576040516302fde0d760e11b815260040160405180910390fd5b6000826001600160a01b0316637ae1cfca61326d84600001516135d8565b6040518263ffffffff1660e01b815260040161328b91815260200190565b602060405180830381865afa1580156132a8573d6000803e3d6000fd5b505050506040513d601f19601f820116820180604052508101906132cc919061592a565b9050801561163c5781516040516309f8c93760e01b81526105bc9190600401614059565b81516001600160a01b0316158061330e57506001600160a01b038116155b1561333157815160405163e474a42560e01b81526105bc91908390600401615aae565b81516040516370a0823160e01b81526000916001600160a01b038416916370a082319161336091600401614059565b602060405180830381865afa15801561337d573d6000803e3d6000fd5b505050506040513d601f19601f820116820180604052508101906133a191906146c5565b905060006133b0858585613610565b9050808210156133dc5783516040516333a1ea6b60e01b81526105bc9190859085908590600401615b2f565b60006133f086866000015186600180613933565b90506134058686600001518660006001613933565b61340f9082615b58565b90508083101561343b57845160405163808c464f60e01b81526105bc9190869086908590600401615b2f565b6000866001600160a01b031663bd02d0f561345a886000015188612dbe565b6040518263ffffffff1660e01b815260040161347891815260200190565b602060405180830381865afa158015613495573d6000803e3d6000fd5b505050506040513d601f19601f820116820180604052508101906134b991906146c5565b9050808410156134e5578551604051639dd026db60e01b81526105bc9190879087908590600401615b2f565b50505050505050565b60008080600019858709858702925082811083820303915050806000036135285783828161351e5761351e615b6b565b049250505061077e565b80841161356f5760405162461bcd60e51b81526020600482015260156024820152744d6174683a206d756c446976206f766572666c6f7760581b60448201526064016105bc565b60008486880960026001871981018816978890046003810283188082028403028082028403028082028403028082028403028082028403029081029092039091026000889003889004909101858311909403939093029303949094049190911702949350505050565b6000604051602001611ced906020808252601290820152711254d7d3505492d15517d11254d05093115160721b604082015260600190565b600061364b6040518060c001604052806000815260200160008152602001600081526020016000815260200160008152602001600081525090565b846001600160a01b031663bd02d0f56136688660000151866139c3565b6040518263ffffffff1660e01b815260040161368691815260200190565b602060405180830381865afa1580156136a3573d6000803e3d6000fd5b505050506040513d601f19601f820116820180604052508101906136c791906146c5565b815283516136d7908690856139f4565b602082015283516001600160a01b0386169063bd02d0f5906136f99086612f73565b6040518263ffffffff1660e01b815260040161371791815260200190565b602060405180830381865afa158015613734573d6000803e3d6000fd5b505050506040513d601f19601f8201168201806040525081019061375891906146c5565b604082015283516001600160a01b0386169063bd02d0f59061377a9086613a6e565b6040518263ffffffff1660e01b815260040161379891815260200190565b602060405180830381865afa1580156137b5573d6000803e3d6000fd5b505050506040513d601f19601f820116820180604052508101906137d991906146c5565b606082015283516001600160a01b0386169063bd02d0f5906137fb9086613aa8565b6040518263ffffffff1660e01b815260040161381991815260200190565b602060405180830381865afa158015613836573d6000803e3d6000fd5b505050506040513d601f19601f8201168201806040525081019061385a91906146c5565b608082015283516001600160a01b0386169063bd02d0f59061387c9086613ae5565b6040518263ffffffff1660e01b815260040161389a91815260200190565b602060405180830381865afa1580156138b7573d6000803e3d6000fd5b505050506040513d601f19601f820116820180604052508101906138db91906146c5565b60a08201819052608082015160608301516040840151602085015185516139029190615b58565b61390c9190615b58565b6139169190615b58565b6139209190615b58565b61392a9190615b58565b95945050505050565b600081866001600160a01b031663bd02d0f5613950888888613b1b565b6040518263ffffffff1660e01b815260040161396e91815260200190565b602060405180830381865afa15801561398b573d6000803e3d6000fd5b505050506040513d601f19601f820116820180604052508101906139af91906146c5565b6139b99190615b81565b9695505050505050565b6000604051602001612dcf906020808252600b908201526a1413d3d317d05353d5539560aa1b604082015260600190565b6000836001600160a01b031663bd02d0f5613a0f8585613b94565b6040518263ffffffff1660e01b8152600401613a2d91815260200190565b602060405180830381865afa158015613a4a573d6000803e3d6000fd5b505050506040513d601f19601f82011682018060405250810190611a9e91906146c5565b6000604051602001612dcf9060208082526014908201527310d31052535050931157d1915157d05353d5539560621b604082015260600190565b6000604051602001612dcf9060208082526017908201527610d31052535050931157d55257d1915157d05353d55395604a1b604082015260600190565b6000604051602001612dcf9060208082526010908201526f10519192531250551157d49155d0549160821b604082015260600190565b6000604051602001613b4f906020808252600e908201526d434f4c4c41544552414c5f53554d60901b604082015260600190565b60408051601f198184030181528282528051602091820120908301526001600160a01b038087169183019190915284166060820152821515608082015260a001612d9f565b6000604051602001612dcf9060208082526017908201527614d5d05417d253541050d517d413d3d317d05353d55395604a1b604082015260600190565b634e487b7160e01b600052604160045260246000fd5b604051608081016001600160401b0381118282101715613c0957613c09613bd1565b60405290565b604080519081016001600160401b0381118282101715613c0957613c09613bd1565b60405160e081016001600160401b0381118282101715613c0957613c09613bd1565b604051606081016001600160401b0381118282101715613c0957613c09613bd1565b60405161012081016001600160401b0381118282101715613c0957613c09613bd1565b60405161016081016001600160401b0381118282101715613c0957613c09613bd1565b60405161010081016001600160401b0381118282101715613c0957613c09613bd1565b60405160c081016001600160401b0381118282101715613c0957613c09613bd1565b604051601f8201601f191681016001600160401b0381118282101715613d2857613d28613bd1565b604052919050565b60006001600160401b03821115613d4957613d49613bd1565b5060051b60200190565b6001600160a01b0381168114610b3757600080fd5b80356108e681613d53565b600082601f830112613d8457600080fd5b81356020613d99613d9483613d30565b613d00565b82815260059290921b84018101918181019086841115613db857600080fd5b8286015b84811015613ddc578035613dcf81613d53565b8352918301918301613dbc565b509695505050505050565b600080600060608486031215613dfc57600080fd5b83356001600160401b0380821115613e1357600080fd5b613e1f87838801613d73565b94506020860135915080821115613e3557600080fd5b50613e4286828701613d73565b9250506040840135613e5381613d53565b809150509250925092565b6020808252825182820181905260009190848201906040850190845b81811015613e9657835183529284019291840191600101613e7a565b50909695505050505050565b60008060408385031215613eb557600080fd5b8235613ec081613d53565b91506020830135613ed081613d53565b809150509250929050565b600060208284031215613eed57600080fd5b81356001600160401b03811115613f0357600080fd5b82016101c0818503121561077e57600080fd5b600060808284031215613f2857600080fd5b613f30613be7565b905081356001600160401b0380821115613f4957600080fd5b613f5585838601613d73565b8352602091508184013581811115613f6c57600080fd5b84019050601f81018513613f7f57600080fd5b8035613f8d613d9482613d30565b81815260069190911b82018301908381019087831115613fac57600080fd5b928401925b82841015613fef5760408489031215613fca5760008081fd5b613fd2613c0f565b843581528585013586820152825260409093019290840190613fb1565b80858701525050505050604082013560408201526060820135606082015292915050565b6000806040838503121561402657600080fd5b8235915060208301356001600160401b0381111561404357600080fd5b61404f85828601613f16565b9150509250929050565b6001600160a01b0391909116815260200190565b60006020828403121561407f57600080fd5b5035919050565b6000806040838503121561409957600080fd5b82356140a481613d53565b946020939093013593505050565b6000602082840312156140c457600080fd5b81356001600160401b038111156140da57600080fd5b8201610180818503121561077e57600080fd5b6000610160828403121561410057600080fd5b50919050565b6000806040838503121561411957600080fd5b82356001600160401b038082111561413057600080fd5b61413c868387016140ed565b9350602085013591508082111561415257600080fd5b50830160608186031215613ed057600080fd5b6000806020838503121561417857600080fd5b82356001600160401b038082111561418f57600080fd5b818501915085601f8301126141a357600080fd5b8135818111156141b257600080fd5b8660208260051b85010111156141c757600080fd5b60209290920196919550909350505050565b60005b838110156141f45781810151838201526020016141dc565b50506000910152565b600081518084526142158160208601602086016141d9565b601f01601f19169290920160200192915050565b600081518084526020808501808196508360051b8101915082860160005b8581101561427157828403895261425f8483516141fd565b98850198935090840190600101614247565b5091979650505050505050565b60208152600061077e6020830184614229565b6000602082840312156142a357600080fd5b81356001600160401b038111156142b957600080fd5b611a9e848285016140ed565b6000610100828403121561410057600080fd5b60038110610b3757600080fd5b80356108e6816142d8565b60008060006060848603121561430557600080fd5b8335925060208401356001600160401b0381111561432257600080fd5b61432e86828701613f16565b9250506040840135613e53816142d8565b60006001600160401b0382111561435857614358613bd1565b50601f01601f191660200190565b6000806000806080858703121561437c57600080fd5b84356001600160401b038082111561439357600080fd5b61439f88838901613d73565b95506020915081870135818111156143b657600080fd5b8701601f810189136143c757600080fd5b80356143d5613d9482613d30565b81815260059190911b8201840190848101908b8311156143f457600080fd5b8584015b838110156144685780358681111561440f57600080fd5b8501603f81018e1361442057600080fd5b87810135614430613d948261433f565b8181528f60408385010111156144465760008081fd5b81604084018b83013760009181018a01919091528452509186019186016143f8565b509750505050604087013591508082111561448257600080fd5b61448e88838901613d73565b935060608701359150808211156144a457600080fd5b506144b187828801613d73565b91505092959194509250565b6000806000606084860312156144d257600080fd5b83356144dd81613d53565b925060208401356144ed81613d53565b929592945050506040919091013590565b6000806000806080858703121561451457600080fd5b84356001600160401b038082111561452b57600080fd5b61453788838901613d73565b955060209150818701358181111561454e57600080fd5b61455a89828a01613d73565b95505060408701358181111561456f57600080fd5b87019050601f8101881361458257600080fd5b8035614590613d9482613d30565b81815260059190911b8201830190838101908a8311156145af57600080fd5b928401925b828410156145cd578335825292840192908401906145b4565b80965050505050506145e160608601613d68565b905092959194509250565b8015158114610b3757600080fd5b80356108e6816145ec565b60008060008060008060c0878903121561461e57600080fd5b863595506020870135945060408701359350606087013592506080870135915060a087013561464c816145ec565b809150509295509295509295565b918252602082015260400190565b634e487b7160e01b600052603260045260246000fd5b6001600160a01b03169052565b6001600160a01b0396871681529486166020860152928516604085015290841660608401528316608083015290911660a082015260c00190565b6000602082840312156146d757600080fd5b5051919050565b634e487b7160e01b600052601160045260246000fd5b600060018201614706576147066146de565b5060010190565b6000808335601e1984360301811261472457600080fd5b83016020810192503590506001600160401b0381111561474357600080fd5b8060051b360382131561475557600080fd5b9250929050565b8183526000602080850194508260005b8581101561479a57813561477f81613d53565b6001600160a01b03168752958201959082019060010161476c565b509495945050505050565b600081356147b281613d53565b6001600160a01b0390811684526020830135906147ce82613d53565b90811660208501526040830135906147e582613d53565b90811660408501526060830135906147fc82613d53565b908116606085015260808301359061481382613d53565b16608084015261482560a08301613d68565b61483260a085018261467e565b5061484060c083018361470d565b60e060c086015261392a60e08601828461475c565b60088110610b3757600080fd5b80356108e681614855565b634e487b7160e01b600052602160045260246000fd5b600881106148935761489361486d565b9052565b60038110610b3757610b3761486d565b61489381614897565b6001600160a01b038316815260406020820152600082353684900360de190181126148da57600080fd5b6101c08060408501526148f361020085018684016147a5565b91506149446060850160208701803582526020810135602083015260408101356040830152606081013560608301526080810135608083015260a081013560a083015260c081013560c08301525050565b6149516101008601614862565b61014061496081870183614883565b61496d61012088016142e5565b915061016061497e818801846148a7565b6149898289016145fa565b9250610180915061499d8288018415159052565b6149a88189016145fa565b9250506101a06149bb8188018415159052565b6149c68289016145fa565b151593870193909352505093909301356101e09092019190915250919050565b600081518084526020808501945080840160005b8381101561479a5781516001600160a01b0316875295820195908201906001016149fa565b6000815160808452614a3460808501826149e6565b60208481015186830387830152805180845290820193509091600091908301905b80831015614a8057845180518352840151848301529383019360019290920191604090910190614a55565b5060408601516040880152606086015160608801528094505050505092915050565b828152604060208201526000611a9e6040830184614a1f565b6001600160a01b03929092168252602082015260400190565b80516108e681613d53565b600082601f830112614af057600080fd5b81516020614b00613d9483613d30565b82815260059290921b84018101918181019086841115614b1f57600080fd5b8286015b84811015613ddc578051614b3681613d53565b8352918301918301614b23565b600060e08284031215614b5557600080fd5b614b5d613c31565b9050815181526020820151602082015260408201516040820152606082015160608201526080820151608082015260a082015160a082015260c082015160c082015292915050565b600060208284031215614bb757600080fd5b604051602081016001600160401b0381118282101715614bd957614bd9613bd1565b80604052508091508251614bec816145ec565b905292915050565b600060208284031215614c0657600080fd5b81516001600160401b0380821115614c1d57600080fd5b8184019150610120808387031215614c3457600080fd5b614c3c613c53565b835183811115614c4b57600080fd5b8401808803831315614c5c57600080fd5b614c64613c75565b9250614c6f81614ad4565b8352614c7d60208201614ad4565b6020840152614c8e60408201614ad4565b6040840152614c9f60608201614ad4565b6060840152614cb060808201614ad4565b6080840152614cc160a08201614ad4565b60a0840152614cd260c08201614ad4565b60c084015260e081015184811115614ce957600080fd5b614cf589828401614adf565b60e0850152506101008082015185811115614d0f57600080fd5b614d1b8a828501614adf565b8286015250838352614d308960208801614b43565b6020840152614d4189828801614ba5565b60408401525090979650505050505050565b6001600160a01b0383168152604060208201819052614d7c908201614d7784613d68565b61467e565b6000614d8a60208401613d68565b614d97606084018261467e565b50614da460408401613d68565b614db1608084018261467e565b50614dbe60608401613d68565b614dcb60a084018261467e565b50614dd860808401613d68565b614de560c084018261467e565b50614df260a08401613d68565b614dff60e084018261467e565b50614e0d60c084018461470d565b6101806101008181870152614e276101c08701848661475c565b9350614e3660e088018861470d565b9350610120603f198887030181890152614e5186868461475c565b955061014094508289013585890152614e6b818a016145fa565b92505050610160614e7f8188018315159052565b928701359186019190915250909301356101a09092019190915250919050565b6000610160614eb184614d7785613d68565b614ebd60208401613d68565b614eca602086018261467e565b50614ed760408401613d68565b614ee4604086018261467e565b50614ef160608401613d68565b614efe606086018261467e565b50614f0c608084018461470d565b826080870152614f1f838701828461475c565b92505050614f3060a084018461470d565b85830360a0870152614f4383828461475c565b9250505060c083013560c085015260e083013560e0850152610100614f698185016145fa565b15159085015261012083810135908501526101409283013592909301919091525090565b81835281816020850137506000828201602090810191909152601f909101601f19169091010190565b6001600160a01b038416815260606020808301829052600091614fdb90840186614e9f565b8381036040850152614fed858661470d565b60608352614fff60608401828461475c565b91505061500e8387018761470d565b8383038585015261502083828461475c565b92505050615031604087018761470d565b83830360408501528293508083528483019350848160051b8401018260005b838110156150bf57858303601f19018752813536869003601e1901811261507657600080fd5b850188810190356001600160401b0381111561509157600080fd5b8036038213156150a057600080fd5b6150ab858284614f8d565b988a01989450505090870190600101615050565b50909b9a5050505050505050505050565b6000602082840312156150e257600080fd5b81516001600160401b03808211156150f957600080fd5b90830190610120828603121561510e57600080fd5b615116613c53565b82518281111561512557600080fd5b830160e0818803121561513757600080fd5b61513f613c31565b61514882614ad4565b815261515660208301614ad4565b602082015261516760408301614ad4565b604082015261517860608301614ad4565b606082015261518960808301614ad4565b608082015260a0820151848111156151a057600080fd5b6151ac89828501614adf565b60a08301525060c0820151848111156151c457600080fd5b6151d089828501614adf565b60c0830152508252506151e68660208501614b43565b60208201526151f9866101008501614ba5565b604082015295945050505050565b80516108e681614855565b80516108e6816142d8565b6000610160828403121561523057600080fd5b615238613c98565b905061524382615207565b815261525160208301615212565b602082015260408201516040820152606082015160608201526080820151608082015260a082015160a082015260c082015160c082015260e082015160e082015261010080830151818301525061012080830151818301525061014080830151818301525092915050565b6000608082840312156152ce57600080fd5b6152d6613be7565b905081516152e3816145ec565b815260208201516152f3816145ec565b60208201526040820151615306816145ec565b60408201526060820151615319816145ec565b606082015292915050565b60006020828403121561533657600080fd5b81516001600160401b038082111561534d57600080fd5b90830190610200828603121561536257600080fd5b61536a613c53565b82518281111561537957600080fd5b8301610100818803121561538c57600080fd5b615394613cbb565b61539d82614ad4565b81526153ab60208301614ad4565b60208201526153bc60408301614ad4565b60408201526153cd60608301614ad4565b60608201526153de60808301614ad4565b60808201526153ef60a08301614ad4565b60a082015261540060c08301614ad4565b60c082015260e08201518481111561541757600080fd5b61542389828501614adf565b60e083015250825250615439866020850161521d565b60208201526151f98661018085016152bc565b600060a0828403121561545e57600080fd5b60405160a081016001600160401b038111828210171561548057615480613bd1565b806040525080915082518152602083015160208201526040830151604082015260608301516060820152608083015160808201525092915050565b60008183036101608112156154cf57600080fd5b6154d7613c0f565b60c08212156154e557600080fd5b6154ed613cde565b915083516154fa81613d53565b8252602084015161550a81613d53565b6020830152604084015161551d81613d53565b6040830152606084015161553081613d53565b6060830152608084015161554381613d53565b608083015260a084015161555681613d53565b60a083015281815261556b8560c0860161544c565b6020820152949350505050565b6000808335601e1984360301811261558f57600080fd5b8301803591506001600160401b038211156155a957600080fd5b60200191503681900382131561475557600080fd5b8183823760009101908152919050565b6001600160a01b0383168152604060208201819052600090611a9e90830184614e9f565b6001600160a01b038381168252610120820190833561561081613d53565b818116602085015250602084013561562781613d53565b8181166040850152505061563d60408401613d68565b61564a606084018261467e565b5061565760608401613d68565b615664608084018261467e565b5061567160808401613d68565b61567e60a084018261467e565b5060a083013560c083015260c083013560e083015260e08301356101008301529392505050565b8381526060602082015260006156be6060830185614a1f565b90506156c983614897565b826040830152949350505050565b6080815260006156ea60808301876149e6565b82810360208401526156fc8187614229565b9050828103604084015261571081866149e6565b9050828103606084015261572481856149e6565b979650505050505050565b61573a828251614883565b602081015161574c60208401826148a7565b5060408101516040830152606081015160608301526080810151608083015260a081015160a083015260c081015160c083015260e081015160e08301526101008082015181840152506101208082015181840152506101408082015181840152505050565b87815286602082015285604082015284606082015283608082015282151560a082015260e060c08201526000825161020060e084015260018060a01b03808251166102e08501528060208301511661030085015250604081015161581961032085018261467e565b50606081015161582d61034085018261467e565b50608081015161584161036085018261467e565b5060a081015161585561038085018261467e565b5060c08101516158696103a085018261467e565b5060e001516101006103c084018190526158876103e08501836149e6565b9150602085015161589a8286018261572f565b505060408481015180511515610260860152602081015115156102808601529081015115156102a0850152606081015115156102c0850152509998505050505050505050565b6001600160a01b039384168152919092166020820152604081019190915260600190565b60208152600061077e60208301846141fd565b818103818111156114ee576114ee6146de565b60006020828403121561593c57600080fd5b815161077e816145ec565b60006020828403121561595957600080fd5b815161077e81613d53565b60408152600061597760408301856141fd565b828103602084015261392a81856141fd565b60006020828403121561599b57600080fd5b81516001600160401b038111156159b157600080fd5b8201601f810184136159c257600080fd5b80516159d0613d948261433f565b8181528560208385010111156159e557600080fd5b61392a8260208301602086016141d9565b60208082526018908201527710d31052535050931157d1955391125391d7d05353d5539560421b604082015260600190565b6020808252601b908201527a10d31052535050931157d0d3d31310551154905317d05353d55395602a1b604082015260600190565b6020808252601b908201527a21a620a4a6a0a12622afa1a7a62620aa22a920a62fa320a1aa27a960291b604082015260600190565b60008251615aa48184602087016141d9565b9190910192915050565b6001600160a01b0392831681529116602082015260400190565b600060808284031215615ada57600080fd5b615ae2613be7565b8251615aed81613d53565b81526020830151615afd81613d53565b60208201526040830151615b1081613d53565b60408201526060830151615b2381613d53565b60608201529392505050565b6001600160a01b0394851681529290931660208301526040820152606081019190915260800190565b808201808211156114ee576114ee6146de565b634e487b7160e01b600052601260045260246000fd5b600082615b9e57634e487b7160e01b600052601260045260246000fd5b50049056fea2646970667358221220b3505dbb633df15d3c9fd0319c0c887d7c7295f3774b1c28ba73ae83f2a28b2964736f6c63430008120033",
  "libraries": {
    "CallbackUtils": "0x501e34E31f1594ffbd3D0C17634D6de6C6C5c7A3",
    "DepositStoreUtils": "0x3063A99D2df2A871068D47041eB8d089E5DE1Cdc",
    "FeeUtils": "0x7Fd8d13A778a22F5c2acB67226A193C7d0b0a336",
    "MarketEventUtils": "0x1F493E17bcF5390d3e5E49eE0bce17d4d068f90b",
    "MarketStoreUtils": "0xbbf05cF8e1c6548092A6a02c4c5330E76BF0fE2D",
    "OrderStoreUtils": "0x67040c411C1b3195361801E9Ad8a91D1Fe9C0BC2",
    "ReferralUtils": "0x27346Fdab142e2b8B6C6d2ecFe73e75B5e249A57",
    "ShiftStoreUtils": "0xCfad9CB2a681b63884AEf98af28458692137c9E3",
    "WithdrawalStoreUtils": "0xD521Cb31B14bB9F70D9a59b47D8763336CAD0395"
  },
  "devdoc": {
    "details": "Router for exchange functions, supports functions which require token transfers from the user IMPORTANT: PayableMulticall uses delegatecall, msg.value will be the same for each delegatecall extra care should be taken when using msg.value in any of the functions in this contract To avoid front-running issues, most actions require two steps to execute: - User sends transaction with request details, e.g. deposit / withdraw liquidity, swap, increase / decrease position - Keepers listen for the transactions, include the prices for the request then send a transaction to execute the request Prices are provided by an off-chain oracle system: - Oracle keepers continually check the latest blocks - When there is a new block, oracle keepers fetch the latest prices from reference exchanges - Oracle keepers then sign the median price for each token together with the block hash - Oracle keepers then send the data and signature to archive nodes - Archive nodes display this information for anyone to query Example: - Block 100 is finalized on the blockchain - Oracle keepers observe this block - Oracle keepers pull the latest prices from reference exchanges, token A: price 20,000, token B: price 80,000 - Oracle keepers sign [chainId, blockhash(100), 20,000], [chainId, blockhash(100), 80,000] - If in block 100, there was a market order to open a long position for token A, the market order would have a block number of 100 - The prices signed at block 100 can be used to execute this order - Order keepers would bundle the signature and price data for token A then execute the order",
    "kind": "dev",
    "methods": {
      "cancelOrder(bytes32)": {
        "details": "Cancels the given order. The `cancelOrder()` feature must be enabled for the given order type. The caller must be the owner of the order, and the order must not be a market order. The order is cancelled by calling the `cancelOrder()` function in the `OrderUtils` contract. This function also records the starting gas amount and the reason for cancellation, which is passed to the `cancelOrder()` function.",
        "params": {
          "key": "The unique ID of the order to be cancelled"
        }
      },
      "claimAffiliateRewards(address[],address[],address)": {
        "details": "Claims affiliate rewards for the given markets and tokens on behalf of the caller, and sends the rewards to the specified receiver. The length of the `markets` and `tokens` arrays must be the same. For each market-token pair, the `claimAffiliateReward()` function in the `ReferralUtils` contract is called to claim the rewards for the caller.",
        "params": {
          "markets": "An array of market addresses",
          "receiver": "The address to which the claimed rewards should be sent",
          "tokens": "An array of token addresses, corresponding to the given markets"
        }
      },
      "claimFundingFees(address[],address[],address)": {
        "details": "Claims funding fees for the given markets and tokens on behalf of the caller, and sends the fees to the specified receiver. The length of the `markets` and `tokens` arrays must be the same. For each market-token pair, the `claimFundingFees()` function in the `MarketUtils` contract is called to claim the fees for the caller.",
        "params": {
          "markets": "An array of market addresses",
          "receiver": "The address to which the claimed fees should be sent",
          "tokens": "An array of token addresses, corresponding to the given markets"
        }
      },
      "createDeposit((address,address,address,address,address,address,address[],address[],uint256,bool,uint256,uint256))": {
        "details": "Creates a new deposit with the given long token, short token, long token amount, short token amount, and deposit parameters. The deposit is created by transferring the specified amounts of long and short tokens from the caller's account to the deposit store, and then calling the `createDeposit()` function on the deposit handler contract.",
        "params": {
          "params": "The deposit parameters, as specified in the `DepositUtils.CreateDepositParams` struct"
        },
        "returns": {
          "_0": "The unique ID of the newly created deposit"
        }
      },
      "createOrder(((address,address,address,address,address,address,address[]),(uint256,uint256,uint256,uint256,uint256,uint256,uint256),uint8,uint8,bool,bool,bool,bytes32))": {
        "details": "Creates a new order with the given amount, order parameters. The order is created by transferring the specified amount of collateral tokens from the caller's account to the order store, and then calling the `createOrder()` function on the order handler contract. The referral code is also set on the caller's account using the referral storage contract."
      },
      "multicall(bytes[])": {
        "details": "Receives and executes a batch of function calls on this contract."
      },
      "updateOrder(bytes32,uint256,uint256,uint256,uint256,bool)": {
        "details": "Updates the given order with the specified size delta, acceptable price, and trigger price. The `updateOrder()` feature must be enabled for the given order type. The caller must be the owner of the order, and the order must not be a market order. The size delta, trigger price, and acceptable price are updated on the order, and the order is unfrozen. Any additional WNT that is transferred to the contract is added to the order's execution fee. The updated order is then saved in the order store, and an `OrderUpdated` event is emitted.",
        "params": {
          "acceptablePrice": "The new acceptable price for the order",
          "key": "The unique ID of the order to be updated",
          "sizeDeltaUsd": "The new size delta for the order",
          "triggerPrice": "The new trigger price for the order"
        }
      }
    },
    "title": "ExchangeRouter",
    "version": 1
  },
  "userdoc": {
    "kind": "user",
    "methods": {},
    "version": 1
  },
  "storageLayout": {
    "storage": [
      {
        "astId": 115,
        "contract": "contracts/router/ExchangeRouter.sol:ExchangeRouter",
        "label": "_status",
        "offset": 0,
        "slot": "0",
        "type": "t_uint256"
      }
    ],
    "types": {
      "t_uint256": {
        "encoding": "inplace",
        "label": "uint256",
        "numberOfBytes": "32"
      }
    }
  }
}