{
  "_format": "hh-sol-artifact-1",
  "contractName": "ExchangeRouter",
  "sourceName": "contracts/router/ExchangeRouter.sol",
  "abi": [
    {
      "inputs": [
        {
          "internalType": "contract Router",
          "name": "_router",
          "type": "address"
        },
        {
          "internalType": "contract RoleStore",
          "name": "_roleStore",
          "type": "address"
        },
        {
          "internalType": "contract DataStore",
          "name": "_dataStore",
          "type": "address"
        },
        {
          "internalType": "contract EventEmitter",
          "name": "_eventEmitter",
          "type": "address"
        },
        {
          "internalType": "contract DepositHandler",
          "name": "_depositHandler",
          "type": "address"
        },
        {
          "internalType": "contract WithdrawalHandler",
          "name": "_withdrawalHandler",
          "type": "address"
        },
        {
          "internalType": "contract OrderHandler",
          "name": "_orderHandler",
          "type": "address"
        },
        {
          "internalType": "contract MarketStore",
          "name": "_marketStore",
          "type": "address"
        },
        {
          "internalType": "contract DepositStore",
          "name": "_depositStore",
          "type": "address"
        },
        {
          "internalType": "contract WithdrawalStore",
          "name": "_withdrawalStore",
          "type": "address"
        },
        {
          "internalType": "contract OrderStore",
          "name": "_orderStore",
          "type": "address"
        },
        {
          "internalType": "contract IReferralStorage",
          "name": "_referralStorage",
          "type": "address"
        }
      ],
      "stateMutability": "nonpayable",
      "type": "constructor"
    },
    {
      "inputs": [
        {
          "internalType": "address",
          "name": "token",
          "type": "address"
        },
        {
          "internalType": "address",
          "name": "receiver",
          "type": "address"
        },
        {
          "internalType": "uint256",
          "name": "amount",
          "type": "uint256"
        }
      ],
      "name": "TokenTransferError",
      "type": "error"
    },
    {
      "inputs": [
        {
          "internalType": "address",
          "name": "msgSender",
          "type": "address"
        },
        {
          "internalType": "string",
          "name": "role",
          "type": "string"
        }
      ],
      "name": "Unauthorized",
      "type": "error"
    },
    {
      "anonymous": false,
      "inputs": [
        {
          "indexed": false,
          "internalType": "address",
          "name": "prevGov",
          "type": "address"
        },
        {
          "indexed": false,
          "internalType": "address",
          "name": "nextGov",
          "type": "address"
        }
      ],
      "name": "SetGov",
      "type": "event"
    },
    {
      "inputs": [
        {
          "internalType": "bytes32",
          "name": "key",
          "type": "bytes32"
        }
      ],
      "name": "cancelDeposit",
      "outputs": [],
      "stateMutability": "payable",
      "type": "function"
    },
    {
      "inputs": [
        {
          "internalType": "bytes32",
          "name": "key",
          "type": "bytes32"
        }
      ],
      "name": "cancelOrder",
      "outputs": [],
      "stateMutability": "payable",
      "type": "function"
    },
    {
      "inputs": [
        {
          "internalType": "bytes32",
          "name": "key",
          "type": "bytes32"
        }
      ],
      "name": "cancelWithdrawal",
      "outputs": [],
      "stateMutability": "payable",
      "type": "function"
    },
    {
      "inputs": [
        {
          "internalType": "address[]",
          "name": "markets",
          "type": "address[]"
        },
        {
          "internalType": "address[]",
          "name": "tokens",
          "type": "address[]"
        },
        {
          "internalType": "address",
          "name": "receiver",
          "type": "address"
        }
      ],
      "name": "claimAffiliateRewards",
      "outputs": [],
      "stateMutability": "payable",
      "type": "function"
    },
    {
      "inputs": [
        {
          "internalType": "address[]",
          "name": "markets",
          "type": "address[]"
        },
        {
          "internalType": "address[]",
          "name": "tokens",
          "type": "address[]"
        },
        {
          "internalType": "uint256[]",
          "name": "timeKeys",
          "type": "uint256[]"
        },
        {
          "internalType": "address",
          "name": "receiver",
          "type": "address"
        }
      ],
      "name": "claimCollateral",
      "outputs": [],
      "stateMutability": "payable",
      "type": "function"
    },
    {
      "inputs": [
        {
          "internalType": "address[]",
          "name": "markets",
          "type": "address[]"
        },
        {
          "internalType": "address[]",
          "name": "tokens",
          "type": "address[]"
        },
        {
          "internalType": "address",
          "name": "receiver",
          "type": "address"
        }
      ],
      "name": "claimFundingFees",
      "outputs": [],
      "stateMutability": "payable",
      "type": "function"
    },
    {
      "inputs": [
        {
          "components": [
            {
              "internalType": "address",
              "name": "receiver",
              "type": "address"
            },
            {
              "internalType": "address",
              "name": "callbackContract",
              "type": "address"
            },
            {
              "internalType": "address",
              "name": "market",
              "type": "address"
            },
            {
              "internalType": "uint256",
              "name": "minMarketTokens",
              "type": "uint256"
            },
            {
              "internalType": "bool",
              "name": "shouldUnwrapNativeToken",
              "type": "bool"
            },
            {
              "internalType": "uint256",
              "name": "executionFee",
              "type": "uint256"
            },
            {
              "internalType": "uint256",
              "name": "callbackGasLimit",
              "type": "uint256"
            }
          ],
          "internalType": "struct DepositUtils.CreateDepositParams",
          "name": "params",
          "type": "tuple"
        }
      ],
      "name": "createDeposit",
      "outputs": [
        {
          "internalType": "bytes32",
          "name": "",
          "type": "bytes32"
        }
      ],
      "stateMutability": "payable",
      "type": "function"
    },
    {
      "inputs": [
        {
          "components": [
            {
              "components": [
                {
                  "internalType": "address",
                  "name": "receiver",
                  "type": "address"
                },
                {
                  "internalType": "address",
                  "name": "callbackContract",
                  "type": "address"
                },
                {
                  "internalType": "address",
                  "name": "market",
                  "type": "address"
                },
                {
                  "internalType": "address",
                  "name": "initialCollateralToken",
                  "type": "address"
                },
                {
                  "internalType": "address[]",
                  "name": "swapPath",
                  "type": "address[]"
                }
              ],
              "internalType": "struct OrderBaseUtils.CreateOrderParamsAddresses",
              "name": "addresses",
              "type": "tuple"
            },
            {
              "components": [
                {
                  "internalType": "uint256",
                  "name": "sizeDeltaUsd",
                  "type": "uint256"
                },
                {
                  "internalType": "uint256",
                  "name": "triggerPrice",
                  "type": "uint256"
                },
                {
                  "internalType": "uint256",
                  "name": "acceptablePrice",
                  "type": "uint256"
                },
                {
                  "internalType": "uint256",
                  "name": "executionFee",
                  "type": "uint256"
                },
                {
                  "internalType": "uint256",
                  "name": "callbackGasLimit",
                  "type": "uint256"
                },
                {
                  "internalType": "uint256",
                  "name": "minOutputAmount",
                  "type": "uint256"
                }
              ],
              "internalType": "struct OrderBaseUtils.CreateOrderParamsNumbers",
              "name": "numbers",
              "type": "tuple"
            },
            {
              "internalType": "enum Order.OrderType",
              "name": "orderType",
              "type": "uint8"
            },
            {
              "internalType": "bool",
              "name": "isLong",
              "type": "bool"
            },
            {
              "internalType": "bool",
              "name": "shouldUnwrapNativeToken",
              "type": "bool"
            }
          ],
          "internalType": "struct OrderBaseUtils.CreateOrderParams",
          "name": "params",
          "type": "tuple"
        },
        {
          "internalType": "bytes32",
          "name": "referralCode",
          "type": "bytes32"
        }
      ],
      "name": "createOrder",
      "outputs": [
        {
          "internalType": "bytes32",
          "name": "",
          "type": "bytes32"
        }
      ],
      "stateMutability": "payable",
      "type": "function"
    },
    {
      "inputs": [
        {
          "components": [
            {
              "internalType": "address",
              "name": "receiver",
              "type": "address"
            },
            {
              "internalType": "address",
              "name": "callbackContract",
              "type": "address"
            },
            {
              "internalType": "address",
              "name": "market",
              "type": "address"
            },
            {
              "internalType": "uint256",
              "name": "marketTokenAmount",
              "type": "uint256"
            },
            {
              "internalType": "uint256",
              "name": "minLongTokenAmount",
              "type": "uint256"
            },
            {
              "internalType": "uint256",
              "name": "minShortTokenAmount",
              "type": "uint256"
            },
            {
              "internalType": "bool",
              "name": "shouldUnwrapNativeToken",
              "type": "bool"
            },
            {
              "internalType": "uint256",
              "name": "executionFee",
              "type": "uint256"
            },
            {
              "internalType": "uint256",
              "name": "callbackGasLimit",
              "type": "uint256"
            }
          ],
          "internalType": "struct WithdrawalUtils.CreateWithdrawalParams",
          "name": "params",
          "type": "tuple"
        }
      ],
      "name": "createWithdrawal",
      "outputs": [
        {
          "internalType": "bytes32",
          "name": "",
          "type": "bytes32"
        }
      ],
      "stateMutability": "payable",
      "type": "function"
    },
    {
      "inputs": [],
      "name": "dataStore",
      "outputs": [
        {
          "internalType": "contract DataStore",
          "name": "",
          "type": "address"
        }
      ],
      "stateMutability": "view",
      "type": "function"
    },
    {
      "inputs": [],
      "name": "depositHandler",
      "outputs": [
        {
          "internalType": "contract DepositHandler",
          "name": "",
          "type": "address"
        }
      ],
      "stateMutability": "view",
      "type": "function"
    },
    {
      "inputs": [],
      "name": "depositStore",
      "outputs": [
        {
          "internalType": "contract DepositStore",
          "name": "",
          "type": "address"
        }
      ],
      "stateMutability": "view",
      "type": "function"
    },
    {
      "inputs": [],
      "name": "eventEmitter",
      "outputs": [
        {
          "internalType": "contract EventEmitter",
          "name": "",
          "type": "address"
        }
      ],
      "stateMutability": "view",
      "type": "function"
    },
    {
      "inputs": [],
      "name": "gov",
      "outputs": [
        {
          "internalType": "address",
          "name": "",
          "type": "address"
        }
      ],
      "stateMutability": "view",
      "type": "function"
    },
    {
      "inputs": [],
      "name": "marketStore",
      "outputs": [
        {
          "internalType": "contract MarketStore",
          "name": "",
          "type": "address"
        }
      ],
      "stateMutability": "view",
      "type": "function"
    },
    {
      "inputs": [
        {
          "internalType": "bytes[]",
          "name": "data",
          "type": "bytes[]"
        }
      ],
      "name": "multicall",
      "outputs": [
        {
          "internalType": "bytes[]",
          "name": "results",
          "type": "bytes[]"
        }
      ],
      "stateMutability": "payable",
      "type": "function"
    },
    {
      "inputs": [],
      "name": "orderHandler",
      "outputs": [
        {
          "internalType": "contract OrderHandler",
          "name": "",
          "type": "address"
        }
      ],
      "stateMutability": "view",
      "type": "function"
    },
    {
      "inputs": [],
      "name": "orderStore",
      "outputs": [
        {
          "internalType": "contract OrderStore",
          "name": "",
          "type": "address"
        }
      ],
      "stateMutability": "view",
      "type": "function"
    },
    {
      "inputs": [],
      "name": "referralStorage",
      "outputs": [
        {
          "internalType": "contract IReferralStorage",
          "name": "",
          "type": "address"
        }
      ],
      "stateMutability": "view",
      "type": "function"
    },
    {
      "inputs": [],
      "name": "roleStore",
      "outputs": [
        {
          "internalType": "contract RoleStore",
          "name": "",
          "type": "address"
        }
      ],
      "stateMutability": "view",
      "type": "function"
    },
    {
      "inputs": [],
      "name": "router",
      "outputs": [
        {
          "internalType": "contract Router",
          "name": "",
          "type": "address"
        }
      ],
      "stateMutability": "view",
      "type": "function"
    },
    {
      "inputs": [
        {
          "internalType": "address",
          "name": "token",
          "type": "address"
        },
        {
          "internalType": "address",
          "name": "receiver",
          "type": "address"
        },
        {
          "internalType": "uint256",
          "name": "amount",
          "type": "uint256"
        }
      ],
      "name": "sendTokens",
      "outputs": [],
      "stateMutability": "payable",
      "type": "function"
    },
    {
      "inputs": [
        {
          "internalType": "address",
          "name": "receiver",
          "type": "address"
        },
        {
          "internalType": "uint256",
          "name": "amount",
          "type": "uint256"
        }
      ],
      "name": "sendWnt",
      "outputs": [],
      "stateMutability": "payable",
      "type": "function"
    },
    {
      "inputs": [
        {
          "internalType": "address",
          "name": "_gov",
          "type": "address"
        }
      ],
      "name": "setGov",
      "outputs": [],
      "stateMutability": "nonpayable",
      "type": "function"
    },
    {
      "inputs": [
        {
          "internalType": "bytes32",
          "name": "key",
          "type": "bytes32"
        },
        {
          "components": [
            {
              "internalType": "address[]",
              "name": "primaryTokens",
              "type": "address[]"
            },
            {
              "components": [
                {
                  "internalType": "uint256",
                  "name": "min",
                  "type": "uint256"
                },
                {
                  "internalType": "uint256",
                  "name": "max",
                  "type": "uint256"
                }
              ],
              "internalType": "struct Price.Props[]",
              "name": "primaryPrices",
              "type": "tuple[]"
            },
            {
              "internalType": "address[]",
              "name": "secondaryTokens",
              "type": "address[]"
            },
            {
              "components": [
                {
                  "internalType": "uint256",
                  "name": "min",
                  "type": "uint256"
                },
                {
                  "internalType": "uint256",
                  "name": "max",
                  "type": "uint256"
                }
              ],
              "internalType": "struct Price.Props[]",
              "name": "secondaryPrices",
              "type": "tuple[]"
            }
          ],
          "internalType": "struct OracleUtils.SimulatePricesParams",
          "name": "simulatedOracleParams",
          "type": "tuple"
        }
      ],
      "name": "simulateExecuteOrder",
      "outputs": [],
      "stateMutability": "payable",
      "type": "function"
    },
    {
      "inputs": [
        {
          "internalType": "bytes32",
          "name": "key",
          "type": "bytes32"
        },
        {
          "internalType": "uint256",
          "name": "sizeDeltaUsd",
          "type": "uint256"
        },
        {
          "internalType": "uint256",
          "name": "acceptablePrice",
          "type": "uint256"
        },
        {
          "internalType": "uint256",
          "name": "triggerPrice",
          "type": "uint256"
        }
      ],
      "name": "updateOrder",
      "outputs": [],
      "stateMutability": "payable",
      "type": "function"
    },
    {
      "inputs": [],
      "name": "withdrawalHandler",
      "outputs": [
        {
          "internalType": "contract WithdrawalHandler",
          "name": "",
          "type": "address"
        }
      ],
      "stateMutability": "view",
      "type": "function"
    },
    {
      "inputs": [],
      "name": "withdrawalStore",
      "outputs": [
        {
          "internalType": "contract WithdrawalStore",
          "name": "",
          "type": "address"
        }
      ],
      "stateMutability": "view",
      "type": "function"
    }
  ],
  "bytecode": "0x6102006040523480156200001257600080fd5b50604051620039e9380380620039e983398101604081905262000035916200012d565b60016000558a6200004633620000a1565b6001600160a01b039081166080529b8c1660a052988b1660c052968a1660e05294891661010052928816610120529087166101405286166101605285166101805284166101a05283166101c0529091166101e0525062000233565b600180546001600160a01b038381166001600160a01b031983168117909355604080519190921680825260208201939093527f53351836099c03ffc3b1727d8abd4b0222afa87d4ed76ae3102d51369ef7f785910160405180910390a15050565b6001600160a01b03811681146200011857600080fd5b50565b8051620001288162000102565b919050565b6000806000806000806000806000806000806101808d8f0312156200015157600080fd5b8c516200015e8162000102565b60208e0151909c50620001718162000102565b60408e0151909b50620001848162000102565b60608e0151909a50620001978162000102565b60808e0151909950620001aa8162000102565b60a08e0151909850620001bd8162000102565b9650620001cd60c08e016200011b565b9550620001dd60e08e016200011b565b9450620001ee6101008e016200011b565b9350620001ff6101208e016200011b565b9250620002106101408e016200011b565b9150620002216101608e016200011b565b90509295989b509295989b509295989b565b60805160a05160c05160e05161010051610120516101405161016051610180516101a0516101c0516101e051613691620003586000396000818161015d0152610e4e0152600081816101ef01528181610ad70152610c680152600081816104a301526109a10152600081816103c1015261064f0152600061045c015260008181610428015281816107bf01528181610b9701528181610d280152610e8b0152600081816102230152818161058a0152610a610152600081816103590152818161070f015261083801526000818161038d015281816108ea015281816110e501526112f70152600081816102d9015281816108c901528181610bfa015281816110c401526112d601526000818161051d0152611204015260006102a501526136916000f3fe6080604052600436106101465760003560e01c80626cc35e1461014b57806312d43a511461019c57806316b3b00d146101bc5780632ac38dbd146101dd5780632c2f3c071461021157806331404484146102455780633bc4de561461025a5780634845aaca1461026d57806349287a22146102805780634a4a7b0414610293578063660d0d67146102c75780637213c5a0146102fb5780637489ec231461030e5780637d39aaf1146103215780638792e621146103345780639c8b2cfb146103475780639ff78c301461037b578063a25dfba7146103af578063a9dca678146103e3578063ac9650d8146103f6578063b584830514610416578063b8d2c6931461044a578063c41b1ab31461047e578063c4d74c4214610491578063cfad57a2146104c5578063e6d66ac8146104e5578063e9249b57146104f8578063f887ea401461050b575b600080fd5b34801561015757600080fd5b5061017f7f000000000000000000000000000000000000000000000000000000000000000081565b6040516001600160a01b0390911681526020015b60405180910390f35b3480156101a857600080fd5b5060015461017f906001600160a01b031681565b6101cf6101ca366004612157565b61053f565b604051908152602001610193565b3480156101e957600080fd5b5061017f7f000000000000000000000000000000000000000000000000000000000000000081565b34801561021d57600080fd5b5061017f7f000000000000000000000000000000000000000000000000000000000000000081565b610258610253366004612170565b610610565b005b610258610268366004612376565b610781565b6101cf61027b36600461245a565b6107f6565b61025861028e36600461246c565b61086f565b34801561029f57600080fd5b5061017f7f000000000000000000000000000000000000000000000000000000000000000081565b3480156102d357600080fd5b5061017f7f000000000000000000000000000000000000000000000000000000000000000081565b610258610309366004612170565b610962565b61025861031c366004612170565b610a98565b61025861032f3660046124e3565b610bce565b61025861034236600461250f565b610c29565b34801561035357600080fd5b5061017f7f000000000000000000000000000000000000000000000000000000000000000081565b34801561038757600080fd5b5061017f7f000000000000000000000000000000000000000000000000000000000000000081565b3480156103bb57600080fd5b5061017f7f000000000000000000000000000000000000000000000000000000000000000081565b6101cf6103f1366004612541565b610da3565b61040961040436600461257d565b610f12565b6040516101939190612641565b34801561042257600080fd5b5061017f7f000000000000000000000000000000000000000000000000000000000000000081565b34801561045657600080fd5b5061017f7f000000000000000000000000000000000000000000000000000000000000000081565b61025861048c36600461246c565b61106a565b34801561049d57600080fd5b5061017f7f000000000000000000000000000000000000000000000000000000000000000081565b3480156104d157600080fd5b506102586104e03660046126a3565b611151565b6102586104f33660046126c0565b6111a6565b610258610506366004612701565b61126d565b34801561051757600080fd5b5061017f7f000000000000000000000000000000000000000000000000000000000000000081565b600060026000540361056c5760405162461bcd60e51b8152600401610563906127ef565b60405180910390fd5b60026000556040516305aa599f60e21b815233906001600160a01b037f000000000000000000000000000000000000000000000000000000000000000016906316a9667c906105c1908490879060040161283f565b6020604051808303816000875af11580156105e0573d6000803e3d6000fd5b505050506040513d601f19601f8201168201806040525081019061060491906128ec565b60016000559392505050565b6002600054036106325760405162461bcd60e51b8152600401610563906127ef565b6002600090815560405163023aa9ab60e61b8152600481018390527f00000000000000000000000000000000000000000000000000000000000000006001600160a01b031690638eaa6ac090602401600060405180830381865afa15801561069e573d6000803e3d6000fd5b505050506040513d6000823e601f3d908101601f191682016040526106c69190810190612af9565b9050336106d282515190565b6001600160a01b0316146106f85760405162461bcd60e51b815260040161056390612b35565b60405163896402d960e01b81526001600160a01b037f0000000000000000000000000000000000000000000000000000000000000000169063896402d9906107469085908590600401612c12565b600060405180830381600087803b15801561076057600080fd5b505af1158015610774573d6000803e3d6000fd5b5050600160005550505050565b6002600054036107a35760405162461bcd60e51b8152600401610563906127ef565b6002600055604051631de26f2b60e11b81526001600160a01b037f00000000000000000000000000000000000000000000000000000000000000001690633bc4de56906107469085908590600401612caa565b600060026000540361081a5760405162461bcd60e51b8152600401610563906127ef565b6002600055604051634b1a07a760e11b815233906001600160a01b037f000000000000000000000000000000000000000000000000000000000000000016906396340f4e906105c19084908790600401612d2f565b6002600054036108915760405162461bcd60e51b8152600401610563906127ef565b600260005581518351146108b75760405162461bcd60e51b815260040161056390612dc1565b3360005b8451811015610956576109447f00000000000000000000000000000000000000000000000000000000000000007f000000000000000000000000000000000000000000000000000000000000000087848151811061091b5761091b612de8565b602002602001015187858151811061093557610935612de8565b6020026020010151868861137d565b8061094e81612e14565b9150506108bb565b50506001600055505050565b6002600054036109845760405162461bcd60e51b8152600401610563906127ef565b6002600090815560405163023aa9ab60e61b8152600481018390527f00000000000000000000000000000000000000000000000000000000000000006001600160a01b031690638eaa6ac090602401600060405180830381865afa1580156109f0573d6000803e3d6000fd5b505050506040513d6000823e601f3d908101601f19168201604052610a189190810190612af9565b905033610a2482515190565b6001600160a01b031614610a4a5760405162461bcd60e51b815260040161056390612b35565b604051634b3d628560e01b81526001600160a01b037f00000000000000000000000000000000000000000000000000000000000000001690634b3d6285906107469085908590600401612c12565b600260005403610aba5760405162461bcd60e51b8152600401610563906127ef565b6002600090815560405163023aa9ab60e61b8152600481018390527f00000000000000000000000000000000000000000000000000000000000000006001600160a01b031690638eaa6ac090602401600060405180830381865afa158015610b26573d6000803e3d6000fd5b505050506040513d6000823e601f3d908101601f19168201604052610b4e9190810190612f95565b905033610b5a82515190565b6001600160a01b031614610b805760405162461bcd60e51b815260040161056390612b35565b6040516313083f0560e21b81526001600160a01b037f00000000000000000000000000000000000000000000000000000000000000001690634c20fc14906107469085908590600401613234565b600260005403610bf05760405162461bcd60e51b8152600401610563906127ef565b6002600055610c207f00000000000000000000000000000000000000000000000000000000000000008383611541565b50506001600055565b600260005403610c4b5760405162461bcd60e51b8152600401610563906127ef565b6002600090815560405163023aa9ab60e61b8152600481018690527f00000000000000000000000000000000000000000000000000000000000000006001600160a01b031690638eaa6ac090602401600060405180830381865afa158015610cb7573d6000803e3d6000fd5b505050506040513d6000823e601f3d908101601f19168201604052610cdf9190810190612f95565b905033610ceb82515190565b6001600160a01b031614610d115760405162461bcd60e51b815260040161056390612b35565b6040516323552f1d60e01b81526001600160a01b037f000000000000000000000000000000000000000000000000000000000000000016906323552f1d90610d65908890889088908890889060040161324d565b600060405180830381600087803b158015610d7f57600080fd5b505af1158015610d93573d6000803e3d6000fd5b5050600160005550505050505050565b6000600260005403610dc75760405162461bcd60e51b8152600401610563906127ef565b60026000556007610ddf610100850160e0860161328e565b6007811115610df057610df06130d3565b03610e485760405162461bcd60e51b815260206004820152602260248201527f45786368616e6765526f757465723a20696e76616c6964206f72646572207479604482015261706560f01b6064820152608401610563565b33610e747f000000000000000000000000000000000000000000000000000000000000000082856115c1565b604051638cef9feb60e01b81526001600160a01b037f00000000000000000000000000000000000000000000000000000000000000001690638cef9feb90610ec29084908890600401613338565b6020604051808303816000875af1158015610ee1573d6000803e3d6000fd5b505050506040513d601f19601f82011682018060405250810190610f0591906128ec565b6001600055949350505050565b6060816001600160401b03811115610f2c57610f2c612189565b604051908082528060200260200182016040528015610f5f57816020015b6060815260200190600190039081610f4a5790505b50905060005b828110156110625760008030868685818110610f8357610f83612de8565b9050602002810190610f959190613490565b604051610fa39291906134d6565b600060405180830381855af49150503d8060008114610fde576040519150601f19603f3d011682016040523d82523d6000602084013e610fe3565b606091505b50915091508161102f57604481511015610ffc57600080fd5b6004810190508080602001905181019061101691906134e6565b60405162461bcd60e51b8152600401610563919061352e565b8084848151811061104257611042612de8565b60200260200101819052505050808061105a90612e14565b915050610f65565b505b92915050565b60026000540361108c5760405162461bcd60e51b8152600401610563906127ef565b600260005581518351146110b25760405162461bcd60e51b815260040161056390612dc1565b3360005b84518110156109565761113f7f00000000000000000000000000000000000000000000000000000000000000007f000000000000000000000000000000000000000000000000000000000000000087848151811061111657611116612de8565b602002602001015187858151811061113057611130612de8565b60200260200101518688611630565b8061114981612e14565b9150506110b6565b6001546001600160a01b0316331461119a576040805163a35b150b60e01b81523360048201526024810191909152600360448201526223a7ab60e91b6064820152608401610563565b6111a3816117b8565b50565b6002600054036111c85760405162461bcd60e51b8152600401610563906127ef565b60026000556040516303704f0f60e31b81526001600160a01b0384811660048301523360248301819052848216604484015260648301849052917f000000000000000000000000000000000000000000000000000000000000000090911690631b82787890608401600060405180830381600087803b15801561124a57600080fd5b505af115801561125e573d6000803e3d6000fd5b50506001600055505050505050565b60026000540361128f5760405162461bcd60e51b8152600401610563906127ef565b6002600055825184511415806112a757508151835114155b156112c45760405162461bcd60e51b815260040161056390612dc1565b3360005b85518110156107745761136b7f00000000000000000000000000000000000000000000000000000000000000007f000000000000000000000000000000000000000000000000000000000000000088848151811061132857611328612de8565b602002602001015188858151811061134257611342612de8565b602002602001015188868151811061135c5761135c612de8565b60200260200101518789611819565b8061137581612e14565b9150506112c8565b600061138a858585611b72565b60405163bd02d0f560e01b8152600481018290529091506000906001600160a01b0389169063bd02d0f590602401602060405180830381865afa1580156113d5573d6000803e3d6000fd5b505050506040513d601f19601f820116820180604052508101906113f991906128ec565b604051637152429d60e11b815260048101849052600060248201529091506001600160a01b0389169063e2a4853a906044016020604051808303816000875af115801561144a573d6000803e3d6000fd5b505050506040513d601f19601f8201168201806040525081019061146e91906128ec565b5060405163078d3b7960e01b81526001600160a01b0387169063078d3b799061149f90889087908690600401613541565b600060405180830381600087803b1580156114b957600080fd5b505af11580156114cd573d6000803e3d6000fd5b5050604051633be4b15960e01b81526001600160a01b038a169250633be4b15991506115059089908990899089908890600401613565565b600060405180830381600087803b15801561151f57600080fd5b505af1158015611533573d6000803e3d6000fd5b505050505050505050505050565b8060000361154e57505050565b600061155984611c08565b9050806001600160a01b031663d0e30db0836040518263ffffffff1660e01b81526004016000604051808303818588803b15801561159657600080fd5b505af11580156115aa573d6000803e3d6000fd5b50505050506115bb84828585611cb5565b50505050565b806115cb57505050565b6040516356b4b2ad60e01b81526001600160a01b038416906356b4b2ad906115f99085908590600401613598565b600060405180830381600087803b15801561161357600080fd5b505af1158015611627573d6000803e3d6000fd5b50505050505050565b600061163d858585611dd1565b60405163bd02d0f560e01b8152600481018290529091506000906001600160a01b0389169063bd02d0f590602401602060405180830381865afa158015611688573d6000803e3d6000fd5b505050506040513d601f19601f820116820180604052508101906116ac91906128ec565b604051637152429d60e11b815260048101849052600060248201529091506001600160a01b0389169063e2a4853a906044016020604051808303816000875af11580156116fd573d6000803e3d6000fd5b505050506040513d601f19601f8201168201806040525081019061172191906128ec565b5060405163078d3b7960e01b81526001600160a01b0387169063078d3b799061175290889087908690600401613541565b600060405180830381600087803b15801561176c57600080fd5b505af1158015611780573d6000803e3d6000fd5b50506040516337bf7bff60e01b81526001600160a01b038a1692506337bf7bff91506115059089908990899089908890600401613565565b600180546001600160a01b038381166001600160a01b031983168117909355604080519190921680825260208201939093527f53351836099c03ffc3b1727d8abd4b0222afa87d4ed76ae3102d51369ef7f785910160405180910390a15050565b6000876001600160a01b031663bd02d0f561183688888888611e0f565b6040518263ffffffff1660e01b815260040161185491815260200190565b602060405180830381865afa158015611871573d6000803e3d6000fd5b505050506040513d601f19601f8201168201806040525081019061189591906128ec565b90506000886001600160a01b031663bd02d0f56118b489898989611eb7565b6040518263ffffffff1660e01b81526004016118d291815260200190565b602060405180830381865afa1580156118ef573d6000803e3d6000fd5b505050506040513d601f19601f8201168201806040525081019061191391906128ec565b90506000896001600160a01b031663bd02d0f56119328a8a8a8a611ef8565b6040518263ffffffff1660e01b815260040161195091815260200190565b602060405180830381865afa15801561196d573d6000803e3d6000fd5b505050506040513d601f19601f8201168201806040525081019061199191906128ec565b9050600061199f8484611f37565b90508181116119ed5760405162461bcd60e51b815260206004820152601a60248201527910dbdb1b185d195c985b08185b1c9958591e4818db185a5b595960321b6044820152606401610563565b60006119f983836135b1565b90508b6001600160a01b031663e2a4853a611a168c8c8c8c611ef8565b846040518363ffffffff1660e01b8152600401611a3d929190918252602082015260400190565b6020604051808303816000875af1158015611a5c573d6000803e3d6000fd5b505050506040513d601f19601f82011682018060405250810190611a8091906128ec565b5060405163078d3b7960e01b81526001600160a01b038b169063078d3b7990611ab1908c908a908690600401613541565b600060405180830381600087803b158015611acb57600080fd5b505af1158015611adf573d6000803e3d6000fd5b5050604051633032d9a760e21b81526001600160a01b038d811660048301528c81166024830152604482018c90528a81166064830152898116608483015260a482018590528e16925063c0cb669c915060c401600060405180830381600087803b158015611b4c57600080fd5b505af1158015611b60573d6000803e3d6000fd5b50505050505050505050505050505050565b6000604051602001611ba89060208082526010908201526f10519192531250551157d49155d0549160821b604082015260600190565b60408051601f198184030181528282528051602091820120908301526001600160a01b038087169183019190915280851660608301528316608082015260a0016040516020818303038152906040528051906020012090505b9392505050565b6000816001600160a01b03166321f8a721604051602001611c409060208082526003908201526215d39560ea1b604082015260600190565b604051602081830303815290604052805190602001206040518263ffffffff1660e01b8152600401611c7491815260200190565b602060405180830381865afa158015611c91573d6000803e3d6000fd5b505050506040513d601f19601f8201168201806040525081019061106491906135c4565b80156115bb576000846001600160a01b031663bd02d0f5611cd586611f5a565b6040518263ffffffff1660e01b8152600401611cf391815260200190565b602060405180830381865afa158015611d10573d6000803e3d6000fd5b505050506040513d601f19601f82011682018060405250810190611d3491906128ec565b9050600080611d4586868686611fe2565b915091508115611d57575050506115bb565b600081604051602001611d6a919061352e565b60405160208183030381529060405290507f9db60cdf21cde7f760995e23662841725e6aa63be48799796db12b7b2e6b17e281604051611daa919061352e565b60405180910390a186868660405163012f3b8f60e71b815260040161056393929190613541565b6000604051602001611ba89060208082526018908201527710d31052535050931157d1955391125391d7d05353d5539560421b604082015260600190565b6000604051602001611e50906020808252601b908201527a10d31052535050931157d0d3d31310551154905317d05353d55395602a1b604082015260600190565b60408051601f198184030181528282528051602091820120908301526001600160a01b0380881691830191909152808616606083015260808201859052831660a082015260c001604051602081830303815290604052805190602001209050949350505050565b6000604051602001611e50906020808252601b908201527a21a620a4a6a0a12622afa1a7a62620aa22a920a62fa320a1aa27a960291b604082015260600190565b6000604051602001611e509060208082526019908201527810d3105253515117d0d3d31310551154905317d05353d55395603a1b604082015260600190565b600068327cb2734119d3b7a9601e1b611f5083856135e1565b611c019190613600565b6000604051602001611f98906020808252601890820152771513d2d15397d514905394d1915497d1d054d7d31253525560421b604082015260600190565b60408051601f198184030181528282528051602091820120908301526001600160a01b03841690820152606001604051602081830303815290604052805190602001209050919050565b60006060600063a9059cbb60e01b8686604051602401612003929190613598565b604051602081830303815290604052906001600160e01b0319166020820180516001600160e01b0383818316178352505050509050600080886001600160a01b031686846040516120549190613622565b60006040518083038160008787f1925050503d8060008114612092576040519150601f19603f3d011682016040523d82523d6000602084013e612097565b606091505b509150915081156121385780516000036120f5576001600160a01b0389163b6120f55760006040518060400160405280601481526020017310d85b1b081d1bc81b9bdb8b58dbdb9d1c9858dd60621b81525094509450505050612141565b60008151118015612117575080806020019051810190612115919061363e565b155b1561212a57600094509250612141915050565b600194509250612141915050565b60009450925050505b94509492505050565b6001600160a01b03169052565b6000610120828403121561216a57600080fd5b50919050565b60006020828403121561218257600080fd5b5035919050565b634e487b7160e01b600052604160045260246000fd5b604080519081016001600160401b03811182821017156121c1576121c1612189565b60405290565b604051608081016001600160401b03811182821017156121c1576121c1612189565b60405160c081016001600160401b03811182821017156121c1576121c1612189565b604051601f8201601f191681016001600160401b038111828210171561223357612233612189565b604052919050565b60006001600160401b0382111561225457612254612189565b5060051b60200190565b6001600160a01b03811681146111a357600080fd5b803561227e8161225e565b919050565b600082601f83011261229457600080fd5b813560206122a96122a48361223b565b61220b565b82815260059290921b840181019181810190868411156122c857600080fd5b8286015b848110156122ec5780356122df8161225e565b83529183019183016122cc565b509695505050505050565b600082601f83011261230857600080fd5b813560206123186122a48361223b565b82815260069290921b8401810191818101908684111561233757600080fd5b8286015b848110156122ec57604081890312156123545760008081fd5b61235c61219f565b81358152848201358582015283529183019160400161233b565b6000806040838503121561238957600080fd5b8235915060208301356001600160401b03808211156123a757600080fd5b90840190608082870312156123bb57600080fd5b6123c36121c7565b8235828111156123d257600080fd5b6123de88828601612283565b8252506020830135828111156123f357600080fd5b6123ff888286016122f7565b60208301525060408301358281111561241757600080fd5b61242388828601612283565b60408301525060608301358281111561243b57600080fd5b612447888286016122f7565b6060830152508093505050509250929050565b600060e0828403121561216a57600080fd5b60008060006060848603121561248157600080fd5b83356001600160401b038082111561249857600080fd5b6124a487838801612283565b945060208601359150808211156124ba57600080fd5b506124c786828701612283565b92505060408401356124d88161225e565b809150509250925092565b600080604083850312156124f657600080fd5b82356125018161225e565b946020939093013593505050565b6000806000806080858703121561252557600080fd5b5050823594602084013594506040840135936060013592509050565b6000806040838503121561255457600080fd5b82356001600160401b0381111561256a57600080fd5b8301610140818603121561250157600080fd5b6000806020838503121561259057600080fd5b82356001600160401b03808211156125a757600080fd5b818501915085601f8301126125bb57600080fd5b8135818111156125ca57600080fd5b8660208260051b85010111156125df57600080fd5b60209290920196919550909350505050565b60005b8381101561260c5781810151838201526020016125f4565b50506000910152565b6000815180845261262d8160208601602086016125f1565b601f01601f19169290920160200192915050565b6000602080830181845280855180835260408601915060408160051b870101925083870160005b8281101561269657603f19888603018452612684858351612615565b94509285019290850190600101612668565b5092979650505050505050565b6000602082840312156126b557600080fd5b8135611c018161225e565b6000806000606084860312156126d557600080fd5b83356126e08161225e565b925060208401356126f08161225e565b929592945050506040919091013590565b6000806000806080858703121561271757600080fd5b84356001600160401b038082111561272e57600080fd5b61273a88838901612283565b955060209150818701358181111561275157600080fd5b61275d89828a01612283565b95505060408701358181111561277257600080fd5b87019050601f8101881361278557600080fd5b80356127936122a48261223b565b81815260059190911b8201830190838101908a8311156127b257600080fd5b928401925b828410156127d0578335825292840192908401906127b7565b80965050505050506127e460608601612273565b905092959194509250565b6020808252601f908201527f5265656e7472616e637947756172643a207265656e7472616e742063616c6c00604082015260600190565b80151581146111a357600080fd5b803561227e81612826565b6001600160a01b038381168252610140820190833561285d8161225e565b8181166020850152505061287360208401612273565b612880604084018261214a565b5061288d60408401612273565b61289a606084018261214a565b5060608301356080830152608083013560a083015260a083013560c08301526128c560c08401612834565b80151560e08401525061010060e08401358184015280840135610120840152509392505050565b6000602082840312156128fe57600080fd5b5051919050565b805161227e8161225e565b600060c0828403121561292257600080fd5b61292a6121e9565b9050815181526020820151602082015260408201516040820152606082015160608201526080820151608082015260a082015160a082015292915050565b60006020828403121561297a57600080fd5b604051602081016001600160401b038111828210171561299c5761299c612189565b806040525080915082516129af81612826565b905292915050565b60006001600160401b038311156129d0576129d0612189565b6129e3601f8401601f191660200161220b565b90508281528383830111156129f757600080fd5b611c018360208301846125f1565b600082601f830112612a1657600080fd5b611c01838351602085016129b7565b6000818303610180811215612a3957600080fd5b612a416121c7565b91506080811215612a5157600080fd5b50612a5a6121c7565b8251612a658161225e565b81526020830151612a758161225e565b60208201526040830151612a888161225e565b60408201526060830151612a9b8161225e565b60608201528152612aaf8360808401612910565b6020820152612ac2836101408401612968565b60408201526101608201516001600160401b03811115612ae157600080fd5b612aed84828501612a05565b60608301525092915050565b600060208284031215612b0b57600080fd5b81516001600160401b03811115612b2157600080fd5b612b2d84828501612a25565b949350505050565b60208082526019908201527822bc31b430b733b2a937baba32b91d103337b93134b23232b760391b604082015260600190565b6000610180825160018060a01b038082511686528060208301511660208701528060408301511660408701528060608301511660608701525050602083015180516080860152602081015160a0860152604081015160c0860152606081015160e0860152608081015161010086015260a0810151610120860152506040830151511515610140850152606083015181610160860152612c0982860182612615565b95945050505050565b828152604060208201526000612b2d6040830184612b68565b600081518084526020808501945080840160005b83811015612c645781516001600160a01b031687529582019590820190600101612c3f565b509495945050505050565b600081518084526020808501945080840160005b83811015612c64578151805188528301518388015260409096019590820190600101612c83565b828152604060208201526000825160806040840152612ccc60c0840182612c2b565b90506020840151603f1980858403016060860152612cea8383612c6f565b92506040860151915080858403016080860152612d078383612c2b565b925060608601519150808584030160a086015250612d258282612c6f565b9695505050505050565b6001600160a01b0383811682526101008201908335612d4d8161225e565b8181166020850152506020840135612d648161225e565b8181166040850152506040840135612d7b8161225e565b81811660608501525050606083013560808301526080830135612d9d81612826565b80151560a08401525060a083013560c083015260c083013560e08301529392505050565b6020808252600d908201526c125b9d985b1a59081a5b9c1d5d609a1b604082015260600190565b634e487b7160e01b600052603260045260246000fd5b634e487b7160e01b600052601160045260246000fd5b600060018201612e2657612e26612dfe565b5060010190565b600082601f830112612e3e57600080fd5b81516020612e4e6122a48361223b565b82815260059290921b84018101918181019086841115612e6d57600080fd5b8286015b848110156122ec578051612e848161225e565b8352918301918301612e71565b6000610100808385031215612ea557600080fd5b604051908101906001600160401b0382118183101715612ec757612ec7612189565b81604052809250835181526020840151602082015260408401516040820152606084015160608201526080840151608082015260a084015160a082015260c084015160c082015260e084015160e0820152505092915050565b600881106111a357600080fd5b600060808284031215612f3f57600080fd5b612f476121c7565b90508151612f5481612f20565b81526020820151612f6481612826565b60208201526040820151612f7781612826565b60408201526060820151612f8a81612826565b606082015292915050565b600060208284031215612fa757600080fd5b81516001600160401b0380821115612fbe57600080fd5b908301906101c08286031215612fd357600080fd5b612fdb6121c7565b825182811115612fea57600080fd5b830160c08188031215612ffc57600080fd5b6130046121e9565b815161300f8161225e565b8152602082015161301f8161225e565b602082015260408201516130328161225e565b604082015261304360608301612905565b606082015261305460808301612905565b608082015260a08201518481111561306b57600080fd5b61307789828501612e2d565b60a08301525082525061308d8660208501612e91565b60208201526130a0866101208501612f2d565b60408201526101a0830151828111156130b857600080fd5b6130c487828601612a05565b60608301525095945050505050565b634e487b7160e01b600052602160045260246000fd5b6008811061310757634e487b7160e01b600052602160045260246000fd5b9052565b6131168282516130e9565b6020810151151560208301526040810151151560408301526060810151151560608301525050565b80516101c080845281516001600160a01b0390811691850191909152602082015181166101e0850152604082015181166102008501526060820151811661022085015260808201511661024084015260a0015160c06102608401526000906131aa610280850182612c2b565b905060208301516132076020860182805182526020810151602083015260408101516040830152606081015160608301526080810151608083015260a081015160a083015260c081015160c083015260e081015160e08301525050565b50604083015161321b61012086018261310b565b5060608301518482036101a0860152612c098282612615565b828152604060208201526000612b2d604083018461313e565b85815284602082015283604082015282606082015260a06080820152600061327860a083018461313e565b979650505050505050565b803561227e81612f20565b6000602082840312156132a057600080fd5b8135611c0181612f20565b6000808335601e198436030181126132c257600080fd5b83016020810192503590506001600160401b038111156132e157600080fd5b8060051b36038213156132f357600080fd5b9250929050565b8183526000602080850194508260005b85811015612c6457813561331d8161225e565b6001600160a01b03168752958201959082019060010161330a565b6001600160a01b03838116825260406020830152600090833536859003609e1901811261336457600080fd5b8481019050610140806040860152813561337d8161225e565b831661018086015260208201356133938161225e565b83166101a086015260408201356133a98161225e565b83166101c086015260608201356133bf8161225e565b83166101e08601526133d460808301836132ab565b9350915060a06102008601526133ef610220860184846132fa565b92506134366060860160208801803582526020810135602083015260408101356040830152606081013560608301526080810135608083015260a081013560a08301525050565b61344260e08701613283565b9150610120613453818701846130e9565b6134606101008801612834565b801515878401529250613474818801612834565b9250505061348761016085018215159052565b50949350505050565b6000808335601e198436030181126134a757600080fd5b8301803591506001600160401b038211156134c157600080fd5b6020019150368190038213156132f357600080fd5b8183823760009101908152919050565b6000602082840312156134f857600080fd5b81516001600160401b0381111561350e57600080fd5b8201601f8101841361351f57600080fd5b612b2d848251602084016129b7565b602081526000611c016020830184612615565b6001600160a01b039384168152919092166020820152604081019190915260600190565b6001600160a01b039586168152938516602085015291841660408401529092166060820152608081019190915260a00190565b6001600160a01b03929092168252602082015260400190565b8181038181111561106457611064612dfe565b6000602082840312156135d657600080fd5b8151611c018161225e565b60008160001904831182151516156135fb576135fb612dfe565b500290565b60008261361d57634e487b7160e01b600052601260045260246000fd5b500490565b600082516136348184602087016125f1565b9190910192915050565b60006020828403121561365057600080fd5b8151611c018161282656fea2646970667358221220f96ba72af31bc107305bb9c7193d387962a1ae80e657b03a85d753df73f7e95e64736f6c63430008100033",
  "linkReferences": {},
  "deployedLinkReferences": {}
}