{
  "_format": "hh-sol-artifact-1",
  "contractName": "ExchangeRouter",
  "sourceName": "contracts/router/ExchangeRouter.sol",
  "abi": [
    {
      "inputs": [
        {
          "internalType": "contract Router",
          "name": "_router",
          "type": "address"
        },
        {
          "internalType": "contract RoleStore",
          "name": "_roleStore",
          "type": "address"
        },
        {
          "internalType": "contract DataStore",
          "name": "_dataStore",
          "type": "address"
        },
        {
          "internalType": "contract EventEmitter",
          "name": "_eventEmitter",
          "type": "address"
        },
        {
          "internalType": "contract DepositHandler",
          "name": "_depositHandler",
          "type": "address"
        },
        {
          "internalType": "contract WithdrawalHandler",
          "name": "_withdrawalHandler",
          "type": "address"
        },
        {
          "internalType": "contract OrderHandler",
          "name": "_orderHandler",
          "type": "address"
        },
        {
          "internalType": "contract MarketStore",
          "name": "_marketStore",
          "type": "address"
        },
        {
          "internalType": "contract DepositStore",
          "name": "_depositStore",
          "type": "address"
        },
        {
          "internalType": "contract WithdrawalStore",
          "name": "_withdrawalStore",
          "type": "address"
        },
        {
          "internalType": "contract OrderStore",
          "name": "_orderStore",
          "type": "address"
        },
        {
          "internalType": "contract IReferralStorage",
          "name": "_referralStorage",
          "type": "address"
        }
      ],
      "stateMutability": "nonpayable",
      "type": "constructor"
    },
    {
      "inputs": [
        {
          "internalType": "address",
          "name": "token",
          "type": "address"
        },
        {
          "internalType": "address",
          "name": "receiver",
          "type": "address"
        },
        {
          "internalType": "uint256",
          "name": "amount",
          "type": "uint256"
        }
      ],
      "name": "TokenTransferError",
      "type": "error"
    },
    {
      "inputs": [
        {
          "internalType": "address",
          "name": "msgSender",
          "type": "address"
        },
        {
          "internalType": "string",
          "name": "role",
          "type": "string"
        }
      ],
      "name": "Unauthorized",
      "type": "error"
    },
    {
      "anonymous": false,
      "inputs": [
        {
          "indexed": false,
          "internalType": "address",
          "name": "prevGov",
          "type": "address"
        },
        {
          "indexed": false,
          "internalType": "address",
          "name": "nextGov",
          "type": "address"
        }
      ],
      "name": "SetGov",
      "type": "event"
    },
    {
      "inputs": [
        {
          "internalType": "bytes32",
          "name": "key",
          "type": "bytes32"
        }
      ],
      "name": "cancelDeposit",
      "outputs": [],
      "stateMutability": "payable",
      "type": "function"
    },
    {
      "inputs": [
        {
          "internalType": "bytes32",
          "name": "key",
          "type": "bytes32"
        }
      ],
      "name": "cancelOrder",
      "outputs": [],
      "stateMutability": "payable",
      "type": "function"
    },
    {
      "inputs": [
        {
          "internalType": "bytes32",
          "name": "key",
          "type": "bytes32"
        }
      ],
      "name": "cancelWithdrawal",
      "outputs": [],
      "stateMutability": "payable",
      "type": "function"
    },
    {
      "inputs": [
        {
          "internalType": "address[]",
          "name": "markets",
          "type": "address[]"
        },
        {
          "internalType": "address[]",
          "name": "tokens",
          "type": "address[]"
        },
        {
          "internalType": "address",
          "name": "receiver",
          "type": "address"
        }
      ],
      "name": "claimAffiliateRewards",
      "outputs": [],
      "stateMutability": "payable",
      "type": "function"
    },
    {
      "inputs": [
        {
          "internalType": "address[]",
          "name": "markets",
          "type": "address[]"
        },
        {
          "internalType": "address[]",
          "name": "tokens",
          "type": "address[]"
        },
        {
          "internalType": "uint256[]",
          "name": "timeKeys",
          "type": "uint256[]"
        },
        {
          "internalType": "address",
          "name": "receiver",
          "type": "address"
        }
      ],
      "name": "claimCollateral",
      "outputs": [],
      "stateMutability": "payable",
      "type": "function"
    },
    {
      "inputs": [
        {
          "internalType": "address[]",
          "name": "markets",
          "type": "address[]"
        },
        {
          "internalType": "address[]",
          "name": "tokens",
          "type": "address[]"
        },
        {
          "internalType": "address",
          "name": "receiver",
          "type": "address"
        }
      ],
      "name": "claimFundingFees",
      "outputs": [],
      "stateMutability": "payable",
      "type": "function"
    },
    {
      "inputs": [
        {
          "components": [
            {
              "internalType": "address",
              "name": "receiver",
              "type": "address"
            },
            {
              "internalType": "address",
              "name": "callbackContract",
              "type": "address"
            },
            {
              "internalType": "address",
              "name": "market",
              "type": "address"
            },
            {
              "internalType": "uint256",
              "name": "minMarketTokens",
              "type": "uint256"
            },
            {
              "internalType": "bool",
              "name": "shouldUnwrapNativeToken",
              "type": "bool"
            },
            {
              "internalType": "uint256",
              "name": "executionFee",
              "type": "uint256"
            },
            {
              "internalType": "uint256",
              "name": "callbackGasLimit",
              "type": "uint256"
            }
          ],
          "internalType": "struct DepositUtils.CreateDepositParams",
          "name": "params",
          "type": "tuple"
        }
      ],
      "name": "createDeposit",
      "outputs": [
        {
          "internalType": "bytes32",
          "name": "",
          "type": "bytes32"
        }
      ],
      "stateMutability": "payable",
      "type": "function"
    },
    {
      "inputs": [
        {
          "components": [
            {
              "components": [
                {
                  "internalType": "address",
                  "name": "receiver",
                  "type": "address"
                },
                {
                  "internalType": "address",
                  "name": "callbackContract",
                  "type": "address"
                },
                {
                  "internalType": "address",
                  "name": "market",
                  "type": "address"
                },
                {
                  "internalType": "address",
                  "name": "initialCollateralToken",
                  "type": "address"
                },
                {
                  "internalType": "address[]",
                  "name": "swapPath",
                  "type": "address[]"
                }
              ],
              "internalType": "struct OrderBaseUtils.CreateOrderParamsAddresses",
              "name": "addresses",
              "type": "tuple"
            },
            {
              "components": [
                {
                  "internalType": "uint256",
                  "name": "sizeDeltaUsd",
                  "type": "uint256"
                },
                {
                  "internalType": "uint256",
                  "name": "initialCollateralDeltaAmount",
                  "type": "uint256"
                },
                {
                  "internalType": "uint256",
                  "name": "triggerPrice",
                  "type": "uint256"
                },
                {
                  "internalType": "uint256",
                  "name": "acceptablePrice",
                  "type": "uint256"
                },
                {
                  "internalType": "uint256",
                  "name": "executionFee",
                  "type": "uint256"
                },
                {
                  "internalType": "uint256",
                  "name": "callbackGasLimit",
                  "type": "uint256"
                },
                {
                  "internalType": "uint256",
                  "name": "minOutputAmount",
                  "type": "uint256"
                }
              ],
              "internalType": "struct OrderBaseUtils.CreateOrderParamsNumbers",
              "name": "numbers",
              "type": "tuple"
            },
            {
              "internalType": "enum Order.OrderType",
              "name": "orderType",
              "type": "uint8"
            },
            {
              "internalType": "bool",
              "name": "isLong",
              "type": "bool"
            },
            {
              "internalType": "bool",
              "name": "shouldUnwrapNativeToken",
              "type": "bool"
            }
          ],
          "internalType": "struct OrderBaseUtils.CreateOrderParams",
          "name": "params",
          "type": "tuple"
        },
        {
          "internalType": "bytes32",
          "name": "referralCode",
          "type": "bytes32"
        }
      ],
      "name": "createOrder",
      "outputs": [
        {
          "internalType": "bytes32",
          "name": "",
          "type": "bytes32"
        }
      ],
      "stateMutability": "payable",
      "type": "function"
    },
    {
      "inputs": [
        {
          "components": [
            {
              "internalType": "address",
              "name": "receiver",
              "type": "address"
            },
            {
              "internalType": "address",
              "name": "callbackContract",
              "type": "address"
            },
            {
              "internalType": "address",
              "name": "market",
              "type": "address"
            },
            {
              "internalType": "uint256",
              "name": "marketTokenAmount",
              "type": "uint256"
            },
            {
              "internalType": "uint256",
              "name": "minLongTokenAmount",
              "type": "uint256"
            },
            {
              "internalType": "uint256",
              "name": "minShortTokenAmount",
              "type": "uint256"
            },
            {
              "internalType": "bool",
              "name": "shouldUnwrapNativeToken",
              "type": "bool"
            },
            {
              "internalType": "uint256",
              "name": "executionFee",
              "type": "uint256"
            },
            {
              "internalType": "uint256",
              "name": "callbackGasLimit",
              "type": "uint256"
            }
          ],
          "internalType": "struct WithdrawalUtils.CreateWithdrawalParams",
          "name": "params",
          "type": "tuple"
        }
      ],
      "name": "createWithdrawal",
      "outputs": [
        {
          "internalType": "bytes32",
          "name": "",
          "type": "bytes32"
        }
      ],
      "stateMutability": "payable",
      "type": "function"
    },
    {
      "inputs": [],
      "name": "dataStore",
      "outputs": [
        {
          "internalType": "contract DataStore",
          "name": "",
          "type": "address"
        }
      ],
      "stateMutability": "view",
      "type": "function"
    },
    {
      "inputs": [],
      "name": "depositHandler",
      "outputs": [
        {
          "internalType": "contract DepositHandler",
          "name": "",
          "type": "address"
        }
      ],
      "stateMutability": "view",
      "type": "function"
    },
    {
      "inputs": [],
      "name": "depositStore",
      "outputs": [
        {
          "internalType": "contract DepositStore",
          "name": "",
          "type": "address"
        }
      ],
      "stateMutability": "view",
      "type": "function"
    },
    {
      "inputs": [],
      "name": "eventEmitter",
      "outputs": [
        {
          "internalType": "contract EventEmitter",
          "name": "",
          "type": "address"
        }
      ],
      "stateMutability": "view",
      "type": "function"
    },
    {
      "inputs": [],
      "name": "gov",
      "outputs": [
        {
          "internalType": "address",
          "name": "",
          "type": "address"
        }
      ],
      "stateMutability": "view",
      "type": "function"
    },
    {
      "inputs": [],
      "name": "marketStore",
      "outputs": [
        {
          "internalType": "contract MarketStore",
          "name": "",
          "type": "address"
        }
      ],
      "stateMutability": "view",
      "type": "function"
    },
    {
      "inputs": [
        {
          "internalType": "bytes[]",
          "name": "data",
          "type": "bytes[]"
        }
      ],
      "name": "multicall",
      "outputs": [
        {
          "internalType": "bytes[]",
          "name": "results",
          "type": "bytes[]"
        }
      ],
      "stateMutability": "payable",
      "type": "function"
    },
    {
      "inputs": [],
      "name": "orderHandler",
      "outputs": [
        {
          "internalType": "contract OrderHandler",
          "name": "",
          "type": "address"
        }
      ],
      "stateMutability": "view",
      "type": "function"
    },
    {
      "inputs": [],
      "name": "orderStore",
      "outputs": [
        {
          "internalType": "contract OrderStore",
          "name": "",
          "type": "address"
        }
      ],
      "stateMutability": "view",
      "type": "function"
    },
    {
      "inputs": [],
      "name": "referralStorage",
      "outputs": [
        {
          "internalType": "contract IReferralStorage",
          "name": "",
          "type": "address"
        }
      ],
      "stateMutability": "view",
      "type": "function"
    },
    {
      "inputs": [],
      "name": "roleStore",
      "outputs": [
        {
          "internalType": "contract RoleStore",
          "name": "",
          "type": "address"
        }
      ],
      "stateMutability": "view",
      "type": "function"
    },
    {
      "inputs": [],
      "name": "router",
      "outputs": [
        {
          "internalType": "contract Router",
          "name": "",
          "type": "address"
        }
      ],
      "stateMutability": "view",
      "type": "function"
    },
    {
      "inputs": [
        {
          "internalType": "address",
          "name": "token",
          "type": "address"
        },
        {
          "internalType": "address",
          "name": "receiver",
          "type": "address"
        },
        {
          "internalType": "uint256",
          "name": "amount",
          "type": "uint256"
        }
      ],
      "name": "sendTokens",
      "outputs": [],
      "stateMutability": "payable",
      "type": "function"
    },
    {
      "inputs": [
        {
          "internalType": "address",
          "name": "receiver",
          "type": "address"
        },
        {
          "internalType": "uint256",
          "name": "amount",
          "type": "uint256"
        }
      ],
      "name": "sendWnt",
      "outputs": [],
      "stateMutability": "payable",
      "type": "function"
    },
    {
      "inputs": [
        {
          "internalType": "address",
          "name": "_gov",
          "type": "address"
        }
      ],
      "name": "setGov",
      "outputs": [],
      "stateMutability": "nonpayable",
      "type": "function"
    },
    {
      "inputs": [
        {
          "internalType": "bytes32",
          "name": "key",
          "type": "bytes32"
        },
        {
          "components": [
            {
              "internalType": "address[]",
              "name": "primaryTokens",
              "type": "address[]"
            },
            {
              "components": [
                {
                  "internalType": "uint256",
                  "name": "min",
                  "type": "uint256"
                },
                {
                  "internalType": "uint256",
                  "name": "max",
                  "type": "uint256"
                }
              ],
              "internalType": "struct Price.Props[]",
              "name": "primaryPrices",
              "type": "tuple[]"
            },
            {
              "internalType": "address[]",
              "name": "secondaryTokens",
              "type": "address[]"
            },
            {
              "components": [
                {
                  "internalType": "uint256",
                  "name": "min",
                  "type": "uint256"
                },
                {
                  "internalType": "uint256",
                  "name": "max",
                  "type": "uint256"
                }
              ],
              "internalType": "struct Price.Props[]",
              "name": "secondaryPrices",
              "type": "tuple[]"
            }
          ],
          "internalType": "struct OracleUtils.SimulatePricesParams",
          "name": "simulatedOracleParams",
          "type": "tuple"
        }
      ],
      "name": "simulateExecuteOrder",
      "outputs": [],
      "stateMutability": "payable",
      "type": "function"
    },
    {
      "inputs": [
        {
          "internalType": "bytes32",
          "name": "key",
          "type": "bytes32"
        },
        {
          "internalType": "uint256",
          "name": "sizeDeltaUsd",
          "type": "uint256"
        },
        {
          "internalType": "uint256",
          "name": "acceptablePrice",
          "type": "uint256"
        },
        {
          "internalType": "uint256",
          "name": "triggerPrice",
          "type": "uint256"
        }
      ],
      "name": "updateOrder",
      "outputs": [],
      "stateMutability": "payable",
      "type": "function"
    },
    {
      "inputs": [],
      "name": "withdrawalHandler",
      "outputs": [
        {
          "internalType": "contract WithdrawalHandler",
          "name": "",
          "type": "address"
        }
      ],
      "stateMutability": "view",
      "type": "function"
    },
    {
      "inputs": [],
      "name": "withdrawalStore",
      "outputs": [
        {
          "internalType": "contract WithdrawalStore",
          "name": "",
          "type": "address"
        }
      ],
      "stateMutability": "view",
      "type": "function"
    }
  ],
  "bytecode": "0x6102006040523480156200001257600080fd5b50604051620039f5380380620039f583398101604081905262000035916200012d565b60016000558a6200004633620000a1565b6001600160a01b039081166080529b8c1660a052988b1660c052968a1660e05294891661010052928816610120529087166101405286166101605285166101805284166101a05283166101c0529091166101e0525062000233565b600180546001600160a01b038381166001600160a01b031983168117909355604080519190921680825260208201939093527f53351836099c03ffc3b1727d8abd4b0222afa87d4ed76ae3102d51369ef7f785910160405180910390a15050565b6001600160a01b03811681146200011857600080fd5b50565b8051620001288162000102565b919050565b6000806000806000806000806000806000806101808d8f0312156200015157600080fd5b8c516200015e8162000102565b60208e0151909c50620001718162000102565b60408e0151909b50620001848162000102565b60608e0151909a50620001978162000102565b60808e0151909950620001aa8162000102565b60a08e0151909850620001bd8162000102565b9650620001cd60c08e016200011b565b9550620001dd60e08e016200011b565b9450620001ee6101008e016200011b565b9350620001ff6101208e016200011b565b9250620002106101408e016200011b565b9150620002216101608e016200011b565b90509295989b509295989b509295989b565b60805160a05160c05160e05161010051610120516101405161016051610180516101a0516101c0516101e05161369d620003586000396000818161015d01526110e30152600081816101ef01528181610ad70152610c6801526000818161049001526109a10152600081816103c1015261064f01526000610449015260008181610415015281816107bf01528181610b9701528181610d2801526111200152600081816102230152818161058a0152610a610152600081816103590152818161070f015261083801526000818161038d015281816108ea01528181610f7601526112f80152600081816102d9015281816108c901528181610bfa01528181610f5501526112d701526000818161051d0152611205015260006102a5015261369d6000f3fe6080604052600436106101465760003560e01c80626cc35e1461014b57806312d43a511461019c57806316b3b00d146101bc5780632ac38dbd146101dd5780632c2f3c071461021157806331404484146102455780633bc4de561461025a5780634845aaca1461026d57806349287a22146102805780634a4a7b0414610293578063660d0d67146102c75780637213c5a0146102fb5780637489ec231461030e5780637d39aaf1146103215780638792e621146103345780639c8b2cfb146103475780639ff78c301461037b578063a25dfba7146103af578063ac9650d8146103e3578063b584830514610403578063b8d2c69314610437578063c41b1ab31461046b578063c4d74c421461047e578063cfad57a2146104b2578063e57519f0146104d2578063e6d66ac8146104e5578063e9249b57146104f8578063f887ea401461050b575b600080fd5b34801561015757600080fd5b5061017f7f000000000000000000000000000000000000000000000000000000000000000081565b6040516001600160a01b0390911681526020015b60405180910390f35b3480156101a857600080fd5b5060015461017f906001600160a01b031681565b6101cf6101ca366004612158565b61053f565b604051908152602001610193565b3480156101e957600080fd5b5061017f7f000000000000000000000000000000000000000000000000000000000000000081565b34801561021d57600080fd5b5061017f7f000000000000000000000000000000000000000000000000000000000000000081565b610258610253366004612171565b610610565b005b610258610268366004612377565b610781565b6101cf61027b36600461245b565b6107f6565b61025861028e36600461246d565b61086f565b34801561029f57600080fd5b5061017f7f000000000000000000000000000000000000000000000000000000000000000081565b3480156102d357600080fd5b5061017f7f000000000000000000000000000000000000000000000000000000000000000081565b610258610309366004612171565b610962565b61025861031c366004612171565b610a98565b61025861032f3660046124e4565b610bce565b610258610342366004612510565b610c29565b34801561035357600080fd5b5061017f7f000000000000000000000000000000000000000000000000000000000000000081565b34801561038757600080fd5b5061017f7f000000000000000000000000000000000000000000000000000000000000000081565b3480156103bb57600080fd5b5061017f7f000000000000000000000000000000000000000000000000000000000000000081565b6103f66103f1366004612542565b610da3565b6040516101939190612606565b34801561040f57600080fd5b5061017f7f000000000000000000000000000000000000000000000000000000000000000081565b34801561044357600080fd5b5061017f7f000000000000000000000000000000000000000000000000000000000000000081565b61025861047936600461246d565b610efb565b34801561048a57600080fd5b5061017f7f000000000000000000000000000000000000000000000000000000000000000081565b3480156104be57600080fd5b506102586104cd366004612668565b610fe2565b6101cf6104e0366004612685565b611037565b6102586104f33660046126c1565b6111a7565b610258610506366004612702565b61126e565b34801561051757600080fd5b5061017f7f000000000000000000000000000000000000000000000000000000000000000081565b600060026000540361056c5760405162461bcd60e51b8152600401610563906127f0565b60405180910390fd5b60026000556040516305aa599f60e21b815233906001600160a01b037f000000000000000000000000000000000000000000000000000000000000000016906316a9667c906105c19084908790600401612840565b6020604051808303816000875af11580156105e0573d6000803e3d6000fd5b505050506040513d601f19601f8201168201806040525081019061060491906128ed565b60016000559392505050565b6002600054036106325760405162461bcd60e51b8152600401610563906127f0565b6002600090815560405163023aa9ab60e61b8152600481018390527f00000000000000000000000000000000000000000000000000000000000000006001600160a01b031690638eaa6ac090602401600060405180830381865afa15801561069e573d6000803e3d6000fd5b505050506040513d6000823e601f3d908101601f191682016040526106c69190810190612afa565b9050336106d282515190565b6001600160a01b0316146106f85760405162461bcd60e51b815260040161056390612b36565b60405163896402d960e01b81526001600160a01b037f0000000000000000000000000000000000000000000000000000000000000000169063896402d9906107469085908590600401612c13565b600060405180830381600087803b15801561076057600080fd5b505af1158015610774573d6000803e3d6000fd5b5050600160005550505050565b6002600054036107a35760405162461bcd60e51b8152600401610563906127f0565b6002600055604051631de26f2b60e11b81526001600160a01b037f00000000000000000000000000000000000000000000000000000000000000001690633bc4de56906107469085908590600401612cab565b600060026000540361081a5760405162461bcd60e51b8152600401610563906127f0565b6002600055604051634b1a07a760e11b815233906001600160a01b037f000000000000000000000000000000000000000000000000000000000000000016906396340f4e906105c19084908790600401612d30565b6002600054036108915760405162461bcd60e51b8152600401610563906127f0565b600260005581518351146108b75760405162461bcd60e51b815260040161056390612dc2565b3360005b8451811015610956576109447f00000000000000000000000000000000000000000000000000000000000000007f000000000000000000000000000000000000000000000000000000000000000087848151811061091b5761091b612de9565b602002602001015187858151811061093557610935612de9565b6020026020010151868861137e565b8061094e81612e15565b9150506108bb565b50506001600055505050565b6002600054036109845760405162461bcd60e51b8152600401610563906127f0565b6002600090815560405163023aa9ab60e61b8152600481018390527f00000000000000000000000000000000000000000000000000000000000000006001600160a01b031690638eaa6ac090602401600060405180830381865afa1580156109f0573d6000803e3d6000fd5b505050506040513d6000823e601f3d908101601f19168201604052610a189190810190612afa565b905033610a2482515190565b6001600160a01b031614610a4a5760405162461bcd60e51b815260040161056390612b36565b604051634b3d628560e01b81526001600160a01b037f00000000000000000000000000000000000000000000000000000000000000001690634b3d6285906107469085908590600401612c13565b600260005403610aba5760405162461bcd60e51b8152600401610563906127f0565b6002600090815560405163023aa9ab60e61b8152600481018390527f00000000000000000000000000000000000000000000000000000000000000006001600160a01b031690638eaa6ac090602401600060405180830381865afa158015610b26573d6000803e3d6000fd5b505050506040513d6000823e601f3d908101601f19168201604052610b4e9190810190612f96565b905033610b5a82515190565b6001600160a01b031614610b805760405162461bcd60e51b815260040161056390612b36565b6040516313083f0560e21b81526001600160a01b037f00000000000000000000000000000000000000000000000000000000000000001690634c20fc14906107469085908590600401613235565b600260005403610bf05760405162461bcd60e51b8152600401610563906127f0565b6002600055610c207f00000000000000000000000000000000000000000000000000000000000000008383611542565b50506001600055565b600260005403610c4b5760405162461bcd60e51b8152600401610563906127f0565b6002600090815560405163023aa9ab60e61b8152600481018690527f00000000000000000000000000000000000000000000000000000000000000006001600160a01b031690638eaa6ac090602401600060405180830381865afa158015610cb7573d6000803e3d6000fd5b505050506040513d6000823e601f3d908101601f19168201604052610cdf9190810190612f96565b905033610ceb82515190565b6001600160a01b031614610d115760405162461bcd60e51b815260040161056390612b36565b6040516323552f1d60e01b81526001600160a01b037f000000000000000000000000000000000000000000000000000000000000000016906323552f1d90610d65908890889088908890889060040161324e565b600060405180830381600087803b158015610d7f57600080fd5b505af1158015610d93573d6000803e3d6000fd5b5050600160005550505050505050565b6060816001600160401b03811115610dbd57610dbd61218a565b604051908082528060200260200182016040528015610df057816020015b6060815260200190600190039081610ddb5790505b50905060005b82811015610ef35760008030868685818110610e1457610e14612de9565b9050602002810190610e269190613284565b604051610e349291906132d1565b600060405180830381855af49150503d8060008114610e6f576040519150601f19603f3d011682016040523d82523d6000602084013e610e74565b606091505b509150915081610ec057604481511015610e8d57600080fd5b60048101905080806020019051810190610ea791906132e1565b60405162461bcd60e51b81526004016105639190613329565b80848481518110610ed357610ed3612de9565b602002602001018190525050508080610eeb90612e15565b915050610df6565b505b92915050565b600260005403610f1d5760405162461bcd60e51b8152600401610563906127f0565b60026000558151835114610f435760405162461bcd60e51b815260040161056390612dc2565b3360005b845181101561095657610fd07f00000000000000000000000000000000000000000000000000000000000000007f0000000000000000000000000000000000000000000000000000000000000000878481518110610fa757610fa7612de9565b6020026020010151878581518110610fc157610fc1612de9565b602002602001015186886115c2565b80610fda81612e15565b915050610f47565b6001546001600160a01b0316331461102b576040805163a35b150b60e01b81523360048201526024810191909152600360448201526223a7ab60e91b6064820152608401610563565b6110348161174a565b50565b600060026000540361105b5760405162461bcd60e51b8152600401610563906127f0565b6002600055600761107461012085016101008601613347565b6007811115611085576110856130d4565b036110dd5760405162461bcd60e51b815260206004820152602260248201527f45786368616e6765526f757465723a20696e76616c6964206f72646572207479604482015261706560f01b6064820152608401610563565b336111097f000000000000000000000000000000000000000000000000000000000000000082856117ab565b6040516364c506b560e11b81526001600160a01b037f0000000000000000000000000000000000000000000000000000000000000000169063c98a0d6a9061115790849088906004016133ea565b6020604051808303816000875af1158015611176573d6000803e3d6000fd5b505050506040513d601f19601f8201168201806040525081019061119a91906128ed565b6001600055949350505050565b6002600054036111c95760405162461bcd60e51b8152600401610563906127f0565b60026000556040516303704f0f60e31b81526001600160a01b0384811660048301523360248301819052848216604484015260648301849052917f000000000000000000000000000000000000000000000000000000000000000090911690631b82787890608401600060405180830381600087803b15801561124b57600080fd5b505af115801561125f573d6000803e3d6000fd5b50506001600055505050505050565b6002600054036112905760405162461bcd60e51b8152600401610563906127f0565b6002600055825184511415806112a857508151835114155b156112c55760405162461bcd60e51b815260040161056390612dc2565b3360005b85518110156107745761136c7f00000000000000000000000000000000000000000000000000000000000000007f000000000000000000000000000000000000000000000000000000000000000088848151811061132957611329612de9565b602002602001015188858151811061134357611343612de9565b602002602001015188868151811061135d5761135d612de9565b6020026020010151878961181a565b8061137681612e15565b9150506112c9565b600061138b858585611b73565b60405163bd02d0f560e01b8152600481018290529091506000906001600160a01b0389169063bd02d0f590602401602060405180830381865afa1580156113d6573d6000803e3d6000fd5b505050506040513d601f19601f820116820180604052508101906113fa91906128ed565b604051637152429d60e11b815260048101849052600060248201529091506001600160a01b0389169063e2a4853a906044016020604051808303816000875af115801561144b573d6000803e3d6000fd5b505050506040513d601f19601f8201168201806040525081019061146f91906128ed565b5060405163078d3b7960e01b81526001600160a01b0387169063078d3b79906114a09088908790869060040161354d565b600060405180830381600087803b1580156114ba57600080fd5b505af11580156114ce573d6000803e3d6000fd5b5050604051633be4b15960e01b81526001600160a01b038a169250633be4b15991506115069089908990899089908890600401613571565b600060405180830381600087803b15801561152057600080fd5b505af1158015611534573d6000803e3d6000fd5b505050505050505050505050565b8060000361154f57505050565b600061155a84611c09565b9050806001600160a01b031663d0e30db0836040518263ffffffff1660e01b81526004016000604051808303818588803b15801561159757600080fd5b505af11580156115ab573d6000803e3d6000fd5b50505050506115bc84828585611cb6565b50505050565b60006115cf858585611dd2565b60405163bd02d0f560e01b8152600481018290529091506000906001600160a01b0389169063bd02d0f590602401602060405180830381865afa15801561161a573d6000803e3d6000fd5b505050506040513d601f19601f8201168201806040525081019061163e91906128ed565b604051637152429d60e11b815260048101849052600060248201529091506001600160a01b0389169063e2a4853a906044016020604051808303816000875af115801561168f573d6000803e3d6000fd5b505050506040513d601f19601f820116820180604052508101906116b391906128ed565b5060405163078d3b7960e01b81526001600160a01b0387169063078d3b79906116e49088908790869060040161354d565b600060405180830381600087803b1580156116fe57600080fd5b505af1158015611712573d6000803e3d6000fd5b50506040516337bf7bff60e01b81526001600160a01b038a1692506337bf7bff91506115069089908990899089908890600401613571565b600180546001600160a01b038381166001600160a01b031983168117909355604080519190921680825260208201939093527f53351836099c03ffc3b1727d8abd4b0222afa87d4ed76ae3102d51369ef7f785910160405180910390a15050565b806117b557505050565b6040516356b4b2ad60e01b81526001600160a01b038416906356b4b2ad906117e390859085906004016135a4565b600060405180830381600087803b1580156117fd57600080fd5b505af1158015611811573d6000803e3d6000fd5b50505050505050565b6000876001600160a01b031663bd02d0f561183788888888611e10565b6040518263ffffffff1660e01b815260040161185591815260200190565b602060405180830381865afa158015611872573d6000803e3d6000fd5b505050506040513d601f19601f8201168201806040525081019061189691906128ed565b90506000886001600160a01b031663bd02d0f56118b589898989611eb8565b6040518263ffffffff1660e01b81526004016118d391815260200190565b602060405180830381865afa1580156118f0573d6000803e3d6000fd5b505050506040513d601f19601f8201168201806040525081019061191491906128ed565b90506000896001600160a01b031663bd02d0f56119338a8a8a8a611ef9565b6040518263ffffffff1660e01b815260040161195191815260200190565b602060405180830381865afa15801561196e573d6000803e3d6000fd5b505050506040513d601f19601f8201168201806040525081019061199291906128ed565b905060006119a08484611f38565b90508181116119ee5760405162461bcd60e51b815260206004820152601a60248201527910dbdb1b185d195c985b08185b1c9958591e4818db185a5b595960321b6044820152606401610563565b60006119fa83836135bd565b90508b6001600160a01b031663e2a4853a611a178c8c8c8c611ef9565b846040518363ffffffff1660e01b8152600401611a3e929190918252602082015260400190565b6020604051808303816000875af1158015611a5d573d6000803e3d6000fd5b505050506040513d601f19601f82011682018060405250810190611a8191906128ed565b5060405163078d3b7960e01b81526001600160a01b038b169063078d3b7990611ab2908c908a90869060040161354d565b600060405180830381600087803b158015611acc57600080fd5b505af1158015611ae0573d6000803e3d6000fd5b5050604051633032d9a760e21b81526001600160a01b038d811660048301528c81166024830152604482018c90528a81166064830152898116608483015260a482018590528e16925063c0cb669c915060c401600060405180830381600087803b158015611b4d57600080fd5b505af1158015611b61573d6000803e3d6000fd5b50505050505050505050505050505050565b6000604051602001611ba99060208082526010908201526f10519192531250551157d49155d0549160821b604082015260600190565b60408051601f198184030181528282528051602091820120908301526001600160a01b038087169183019190915280851660608301528316608082015260a0016040516020818303038152906040528051906020012090505b9392505050565b6000816001600160a01b03166321f8a721604051602001611c419060208082526003908201526215d39560ea1b604082015260600190565b604051602081830303815290604052805190602001206040518263ffffffff1660e01b8152600401611c7591815260200190565b602060405180830381865afa158015611c92573d6000803e3d6000fd5b505050506040513d601f19601f82011682018060405250810190610ef591906135d0565b80156115bc576000846001600160a01b031663bd02d0f5611cd686611f5b565b6040518263ffffffff1660e01b8152600401611cf491815260200190565b602060405180830381865afa158015611d11573d6000803e3d6000fd5b505050506040513d601f19601f82011682018060405250810190611d3591906128ed565b9050600080611d4686868686611fe3565b915091508115611d58575050506115bc565b600081604051602001611d6b9190613329565b60405160208183030381529060405290507f9db60cdf21cde7f760995e23662841725e6aa63be48799796db12b7b2e6b17e281604051611dab9190613329565b60405180910390a186868660405163012f3b8f60e71b81526004016105639392919061354d565b6000604051602001611ba99060208082526018908201527710d31052535050931157d1955391125391d7d05353d5539560421b604082015260600190565b6000604051602001611e51906020808252601b908201527a10d31052535050931157d0d3d31310551154905317d05353d55395602a1b604082015260600190565b60408051601f198184030181528282528051602091820120908301526001600160a01b0380881691830191909152808616606083015260808201859052831660a082015260c001604051602081830303815290604052805190602001209050949350505050565b6000604051602001611e51906020808252601b908201527a21a620a4a6a0a12622afa1a7a62620aa22a920a62fa320a1aa27a960291b604082015260600190565b6000604051602001611e519060208082526019908201527810d3105253515117d0d3d31310551154905317d05353d55395603a1b604082015260600190565b600068327cb2734119d3b7a9601e1b611f5183856135ed565b611c02919061360c565b6000604051602001611f99906020808252601890820152771513d2d15397d514905394d1915497d1d054d7d31253525560421b604082015260600190565b60408051601f198184030181528282528051602091820120908301526001600160a01b03841690820152606001604051602081830303815290604052805190602001209050919050565b60006060600063a9059cbb60e01b86866040516024016120049291906135a4565b604051602081830303815290604052906001600160e01b0319166020820180516001600160e01b0383818316178352505050509050600080886001600160a01b03168684604051612055919061362e565b60006040518083038160008787f1925050503d8060008114612093576040519150601f19603f3d011682016040523d82523d6000602084013e612098565b606091505b509150915081156121395780516000036120f6576001600160a01b0389163b6120f65760006040518060400160405280601481526020017310d85b1b081d1bc81b9bdb8b58dbdb9d1c9858dd60621b81525094509450505050612142565b60008151118015612118575080806020019051810190612116919061364a565b155b1561212b57600094509250612142915050565b600194509250612142915050565b60009450925050505b94509492505050565b6001600160a01b03169052565b6000610120828403121561216b57600080fd5b50919050565b60006020828403121561218357600080fd5b5035919050565b634e487b7160e01b600052604160045260246000fd5b604080519081016001600160401b03811182821017156121c2576121c261218a565b60405290565b604051608081016001600160401b03811182821017156121c2576121c261218a565b60405160c081016001600160401b03811182821017156121c2576121c261218a565b604051601f8201601f191681016001600160401b03811182821017156122345761223461218a565b604052919050565b60006001600160401b038211156122555761225561218a565b5060051b60200190565b6001600160a01b038116811461103457600080fd5b803561227f8161225f565b919050565b600082601f83011261229557600080fd5b813560206122aa6122a58361223c565b61220c565b82815260059290921b840181019181810190868411156122c957600080fd5b8286015b848110156122ed5780356122e08161225f565b83529183019183016122cd565b509695505050505050565b600082601f83011261230957600080fd5b813560206123196122a58361223c565b82815260069290921b8401810191818101908684111561233857600080fd5b8286015b848110156122ed57604081890312156123555760008081fd5b61235d6121a0565b81358152848201358582015283529183019160400161233c565b6000806040838503121561238a57600080fd5b8235915060208301356001600160401b03808211156123a857600080fd5b90840190608082870312156123bc57600080fd5b6123c46121c8565b8235828111156123d357600080fd5b6123df88828601612284565b8252506020830135828111156123f457600080fd5b612400888286016122f8565b60208301525060408301358281111561241857600080fd5b61242488828601612284565b60408301525060608301358281111561243c57600080fd5b612448888286016122f8565b6060830152508093505050509250929050565b600060e0828403121561216b57600080fd5b60008060006060848603121561248257600080fd5b83356001600160401b038082111561249957600080fd5b6124a587838801612284565b945060208601359150808211156124bb57600080fd5b506124c886828701612284565b92505060408401356124d98161225f565b809150509250925092565b600080604083850312156124f757600080fd5b82356125028161225f565b946020939093013593505050565b6000806000806080858703121561252657600080fd5b5050823594602084013594506040840135936060013592509050565b6000806020838503121561255557600080fd5b82356001600160401b038082111561256c57600080fd5b818501915085601f83011261258057600080fd5b81358181111561258f57600080fd5b8660208260051b85010111156125a457600080fd5b60209290920196919550909350505050565b60005b838110156125d15781810151838201526020016125b9565b50506000910152565b600081518084526125f28160208601602086016125b6565b601f01601f19169290920160200192915050565b6000602080830181845280855180835260408601915060408160051b870101925083870160005b8281101561265b57603f198886030184526126498583516125da565b9450928501929085019060010161262d565b5092979650505050505050565b60006020828403121561267a57600080fd5b8135611c028161225f565b6000806040838503121561269857600080fd5b82356001600160401b038111156126ae57600080fd5b8301610160818603121561250257600080fd5b6000806000606084860312156126d657600080fd5b83356126e18161225f565b925060208401356126f18161225f565b929592945050506040919091013590565b6000806000806080858703121561271857600080fd5b84356001600160401b038082111561272f57600080fd5b61273b88838901612284565b955060209150818701358181111561275257600080fd5b61275e89828a01612284565b95505060408701358181111561277357600080fd5b87019050601f8101881361278657600080fd5b80356127946122a58261223c565b81815260059190911b8201830190838101908a8311156127b357600080fd5b928401925b828410156127d1578335825292840192908401906127b8565b80965050505050506127e560608601612274565b905092959194509250565b6020808252601f908201527f5265656e7472616e637947756172643a207265656e7472616e742063616c6c00604082015260600190565b801515811461103457600080fd5b803561227f81612827565b6001600160a01b038381168252610140820190833561285e8161225f565b8181166020850152505061287460208401612274565b612881604084018261214b565b5061288e60408401612274565b61289b606084018261214b565b5060608301356080830152608083013560a083015260a083013560c08301526128c660c08401612835565b80151560e08401525061010060e08401358184015280840135610120840152509392505050565b6000602082840312156128ff57600080fd5b5051919050565b805161227f8161225f565b600060c0828403121561292357600080fd5b61292b6121ea565b9050815181526020820151602082015260408201516040820152606082015160608201526080820151608082015260a082015160a082015292915050565b60006020828403121561297b57600080fd5b604051602081016001600160401b038111828210171561299d5761299d61218a565b806040525080915082516129b081612827565b905292915050565b60006001600160401b038311156129d1576129d161218a565b6129e4601f8401601f191660200161220c565b90508281528383830111156129f857600080fd5b611c028360208301846125b6565b600082601f830112612a1757600080fd5b611c02838351602085016129b8565b6000818303610180811215612a3a57600080fd5b612a426121c8565b91506080811215612a5257600080fd5b50612a5b6121c8565b8251612a668161225f565b81526020830151612a768161225f565b60208201526040830151612a898161225f565b60408201526060830151612a9c8161225f565b60608201528152612ab08360808401612911565b6020820152612ac3836101408401612969565b60408201526101608201516001600160401b03811115612ae257600080fd5b612aee84828501612a06565b60608301525092915050565b600060208284031215612b0c57600080fd5b81516001600160401b03811115612b2257600080fd5b612b2e84828501612a26565b949350505050565b60208082526019908201527822bc31b430b733b2a937baba32b91d103337b93134b23232b760391b604082015260600190565b6000610180825160018060a01b038082511686528060208301511660208701528060408301511660408701528060608301511660608701525050602083015180516080860152602081015160a0860152604081015160c0860152606081015160e0860152608081015161010086015260a0810151610120860152506040830151511515610140850152606083015181610160860152612c0a828601826125da565b95945050505050565b828152604060208201526000612b2e6040830184612b69565b600081518084526020808501945080840160005b83811015612c655781516001600160a01b031687529582019590820190600101612c40565b509495945050505050565b600081518084526020808501945080840160005b83811015612c65578151805188528301518388015260409096019590820190600101612c84565b828152604060208201526000825160806040840152612ccd60c0840182612c2c565b90506020840151603f1980858403016060860152612ceb8383612c70565b92506040860151915080858403016080860152612d088383612c2c565b925060608601519150808584030160a086015250612d268282612c70565b9695505050505050565b6001600160a01b0383811682526101008201908335612d4e8161225f565b8181166020850152506020840135612d658161225f565b8181166040850152506040840135612d7c8161225f565b81811660608501525050606083013560808301526080830135612d9e81612827565b80151560a08401525060a083013560c083015260c083013560e08301529392505050565b6020808252600d908201526c125b9d985b1a59081a5b9c1d5d609a1b604082015260600190565b634e487b7160e01b600052603260045260246000fd5b634e487b7160e01b600052601160045260246000fd5b600060018201612e2757612e27612dff565b5060010190565b600082601f830112612e3f57600080fd5b81516020612e4f6122a58361223c565b82815260059290921b84018101918181019086841115612e6e57600080fd5b8286015b848110156122ed578051612e858161225f565b8352918301918301612e72565b6000610100808385031215612ea657600080fd5b604051908101906001600160401b0382118183101715612ec857612ec861218a565b81604052809250835181526020840151602082015260408401516040820152606084015160608201526080840151608082015260a084015160a082015260c084015160c082015260e084015160e0820152505092915050565b6008811061103457600080fd5b600060808284031215612f4057600080fd5b612f486121c8565b90508151612f5581612f21565b81526020820151612f6581612827565b60208201526040820151612f7881612827565b60408201526060820151612f8b81612827565b606082015292915050565b600060208284031215612fa857600080fd5b81516001600160401b0380821115612fbf57600080fd5b908301906101c08286031215612fd457600080fd5b612fdc6121c8565b825182811115612feb57600080fd5b830160c08188031215612ffd57600080fd5b6130056121ea565b81516130108161225f565b815260208201516130208161225f565b602082015260408201516130338161225f565b604082015261304460608301612906565b606082015261305560808301612906565b608082015260a08201518481111561306c57600080fd5b61307889828501612e2e565b60a08301525082525061308e8660208501612e92565b60208201526130a1866101208501612f2e565b60408201526101a0830151828111156130b957600080fd5b6130c587828601612a06565b60608301525095945050505050565b634e487b7160e01b600052602160045260246000fd5b6008811061310857634e487b7160e01b600052602160045260246000fd5b9052565b6131178282516130ea565b6020810151151560208301526040810151151560408301526060810151151560608301525050565b80516101c080845281516001600160a01b0390811691850191909152602082015181166101e0850152604082015181166102008501526060820151811661022085015260808201511661024084015260a0015160c06102608401526000906131ab610280850182612c2c565b905060208301516132086020860182805182526020810151602083015260408101516040830152606081015160608301526080810151608083015260a081015160a083015260c081015160c083015260e081015160e08301525050565b50604083015161321c61012086018261310c565b5060608301518482036101a0860152612c0a82826125da565b828152604060208201526000612b2e604083018461313f565b85815284602082015283604082015282606082015260a06080820152600061327960a083018461313f565b979650505050505050565b6000808335601e1984360301811261329b57600080fd5b8301803591506001600160401b038211156132b557600080fd5b6020019150368190038213156132ca57600080fd5b9250929050565b8183823760009101908152919050565b6000602082840312156132f357600080fd5b81516001600160401b0381111561330957600080fd5b8201601f8101841361331a57600080fd5b612b2e848251602084016129b8565b602081526000611c0260208301846125da565b803561227f81612f21565b60006020828403121561335957600080fd5b8135611c0281612f21565b6000808335601e1984360301811261337b57600080fd5b83016020810192503590506001600160401b0381111561339a57600080fd5b8060051b36038213156132ca57600080fd5b8183526000602080850194508260005b85811015612c655781356133cf8161225f565b6001600160a01b0316875295820195908201906001016133bc565b6001600160a01b03838116825260406020830152600090833536859003609e1901811261341657600080fd5b8481019050610160806040860152813561342f8161225f565b83166101a086015260208201356134458161225f565b83166101c0860152604082013561345b8161225f565b83166101e086015260608201356134718161225f565b83166102008601526134866080830183613364565b9350915060a06102208601526134a1610240860184846133ac565b92506134f26060860160208801803582526020810135602083015260408101356040830152606081013560608301526080810135608083015260a081013560a083015260c081013560c08301525050565b6134ff610100870161333c565b9150610140613510818701846130ea565b61351d6101208801612835565b801515878401529250613531818801612835565b9250505061354461018085018215159052565b50949350505050565b6001600160a01b039384168152919092166020820152604081019190915260600190565b6001600160a01b039586168152938516602085015291841660408401529092166060820152608081019190915260a00190565b6001600160a01b03929092168252602082015260400190565b81810381811115610ef557610ef5612dff565b6000602082840312156135e257600080fd5b8151611c028161225f565b600081600019048311821515161561360757613607612dff565b500290565b60008261362957634e487b7160e01b600052601260045260246000fd5b500490565b600082516136408184602087016125b6565b9190910192915050565b60006020828403121561365c57600080fd5b8151611c028161282756fea264697066735822122095ecd5757a3dca42167d6216bcc0feb562380dc76674f012ba3a8f03ac6fb45964736f6c63430008100033",
  "linkReferences": {},
  "deployedLinkReferences": {}
}