{
  "_format": "hh-sol-artifact-1",
  "contractName": "GlpManager",
  "sourceName": "contracts/core/GlpManager.sol",
  "abi": [
    {
      "inputs": [
        {
          "internalType": "address",
          "name": "_vault",
          "type": "address"
        },
        {
          "internalType": "address",
          "name": "_usdg",
          "type": "address"
        },
        {
          "internalType": "address",
          "name": "_glp",
          "type": "address"
        },
        {
          "internalType": "uint256",
          "name": "_cooldownDuration",
          "type": "uint256"
        }
      ],
      "stateMutability": "nonpayable",
      "type": "constructor"
    },
    {
      "anonymous": false,
      "inputs": [
        {
          "indexed": false,
          "internalType": "address",
          "name": "account",
          "type": "address"
        },
        {
          "indexed": false,
          "internalType": "address",
          "name": "token",
          "type": "address"
        },
        {
          "indexed": false,
          "internalType": "uint256",
          "name": "amount",
          "type": "uint256"
        },
        {
          "indexed": false,
          "internalType": "uint256",
          "name": "aumInUsdg",
          "type": "uint256"
        },
        {
          "indexed": false,
          "internalType": "uint256",
          "name": "glpSupply",
          "type": "uint256"
        },
        {
          "indexed": false,
          "internalType": "uint256",
          "name": "usdgAmount",
          "type": "uint256"
        },
        {
          "indexed": false,
          "internalType": "uint256",
          "name": "mintAmount",
          "type": "uint256"
        }
      ],
      "name": "AddLiquidity",
      "type": "event"
    },
    {
      "anonymous": false,
      "inputs": [
        {
          "indexed": false,
          "internalType": "address",
          "name": "account",
          "type": "address"
        },
        {
          "indexed": false,
          "internalType": "address",
          "name": "token",
          "type": "address"
        },
        {
          "indexed": false,
          "internalType": "uint256",
          "name": "glpAmount",
          "type": "uint256"
        },
        {
          "indexed": false,
          "internalType": "uint256",
          "name": "aumInUsdg",
          "type": "uint256"
        },
        {
          "indexed": false,
          "internalType": "uint256",
          "name": "glpSupply",
          "type": "uint256"
        },
        {
          "indexed": false,
          "internalType": "uint256",
          "name": "usdgAmount",
          "type": "uint256"
        },
        {
          "indexed": false,
          "internalType": "uint256",
          "name": "amountOut",
          "type": "uint256"
        }
      ],
      "name": "RemoveLiquidity",
      "type": "event"
    },
    {
      "inputs": [],
      "name": "MAX_COOLDOWN_DURATION",
      "outputs": [
        {
          "internalType": "uint256",
          "name": "",
          "type": "uint256"
        }
      ],
      "stateMutability": "view",
      "type": "function"
    },
    {
      "inputs": [],
      "name": "PRICE_PRECISION",
      "outputs": [
        {
          "internalType": "uint256",
          "name": "",
          "type": "uint256"
        }
      ],
      "stateMutability": "view",
      "type": "function"
    },
    {
      "inputs": [],
      "name": "USDG_DECIMALS",
      "outputs": [
        {
          "internalType": "uint256",
          "name": "",
          "type": "uint256"
        }
      ],
      "stateMutability": "view",
      "type": "function"
    },
    {
      "inputs": [
        {
          "internalType": "address",
          "name": "_token",
          "type": "address"
        },
        {
          "internalType": "uint256",
          "name": "_amount",
          "type": "uint256"
        },
        {
          "internalType": "uint256",
          "name": "_minUsdg",
          "type": "uint256"
        },
        {
          "internalType": "uint256",
          "name": "_minGlp",
          "type": "uint256"
        }
      ],
      "name": "addLiquidity",
      "outputs": [
        {
          "internalType": "uint256",
          "name": "",
          "type": "uint256"
        }
      ],
      "stateMutability": "nonpayable",
      "type": "function"
    },
    {
      "inputs": [
        {
          "internalType": "address",
          "name": "_fundingAccount",
          "type": "address"
        },
        {
          "internalType": "address",
          "name": "_account",
          "type": "address"
        },
        {
          "internalType": "address",
          "name": "_token",
          "type": "address"
        },
        {
          "internalType": "uint256",
          "name": "_amount",
          "type": "uint256"
        },
        {
          "internalType": "uint256",
          "name": "_minUsdg",
          "type": "uint256"
        },
        {
          "internalType": "uint256",
          "name": "_minGlp",
          "type": "uint256"
        }
      ],
      "name": "addLiquidityForAccount",
      "outputs": [
        {
          "internalType": "uint256",
          "name": "",
          "type": "uint256"
        }
      ],
      "stateMutability": "nonpayable",
      "type": "function"
    },
    {
      "inputs": [],
      "name": "aumAddition",
      "outputs": [
        {
          "internalType": "uint256",
          "name": "",
          "type": "uint256"
        }
      ],
      "stateMutability": "view",
      "type": "function"
    },
    {
      "inputs": [],
      "name": "aumDeduction",
      "outputs": [
        {
          "internalType": "uint256",
          "name": "",
          "type": "uint256"
        }
      ],
      "stateMutability": "view",
      "type": "function"
    },
    {
      "inputs": [],
      "name": "cooldownDuration",
      "outputs": [
        {
          "internalType": "uint256",
          "name": "",
          "type": "uint256"
        }
      ],
      "stateMutability": "view",
      "type": "function"
    },
    {
      "inputs": [
        {
          "internalType": "bool",
          "name": "maximise",
          "type": "bool"
        }
      ],
      "name": "getAum",
      "outputs": [
        {
          "internalType": "uint256",
          "name": "",
          "type": "uint256"
        }
      ],
      "stateMutability": "view",
      "type": "function"
    },
    {
      "inputs": [
        {
          "internalType": "bool",
          "name": "maximise",
          "type": "bool"
        }
      ],
      "name": "getAumInUsdg",
      "outputs": [
        {
          "internalType": "uint256",
          "name": "",
          "type": "uint256"
        }
      ],
      "stateMutability": "view",
      "type": "function"
    },
    {
      "inputs": [],
      "name": "getAums",
      "outputs": [
        {
          "internalType": "uint256[]",
          "name": "",
          "type": "uint256[]"
        }
      ],
      "stateMutability": "view",
      "type": "function"
    },
    {
      "inputs": [],
      "name": "glp",
      "outputs": [
        {
          "internalType": "address",
          "name": "",
          "type": "address"
        }
      ],
      "stateMutability": "view",
      "type": "function"
    },
    {
      "inputs": [],
      "name": "gov",
      "outputs": [
        {
          "internalType": "address",
          "name": "",
          "type": "address"
        }
      ],
      "stateMutability": "view",
      "type": "function"
    },
    {
      "inputs": [],
      "name": "inPrivateMode",
      "outputs": [
        {
          "internalType": "bool",
          "name": "",
          "type": "bool"
        }
      ],
      "stateMutability": "view",
      "type": "function"
    },
    {
      "inputs": [
        {
          "internalType": "address",
          "name": "",
          "type": "address"
        }
      ],
      "name": "isHandler",
      "outputs": [
        {
          "internalType": "bool",
          "name": "",
          "type": "bool"
        }
      ],
      "stateMutability": "view",
      "type": "function"
    },
    {
      "inputs": [
        {
          "internalType": "address",
          "name": "",
          "type": "address"
        }
      ],
      "name": "lastAddedAt",
      "outputs": [
        {
          "internalType": "uint256",
          "name": "",
          "type": "uint256"
        }
      ],
      "stateMutability": "view",
      "type": "function"
    },
    {
      "inputs": [
        {
          "internalType": "address",
          "name": "_tokenOut",
          "type": "address"
        },
        {
          "internalType": "uint256",
          "name": "_glpAmount",
          "type": "uint256"
        },
        {
          "internalType": "uint256",
          "name": "_minOut",
          "type": "uint256"
        },
        {
          "internalType": "address",
          "name": "_receiver",
          "type": "address"
        }
      ],
      "name": "removeLiquidity",
      "outputs": [
        {
          "internalType": "uint256",
          "name": "",
          "type": "uint256"
        }
      ],
      "stateMutability": "nonpayable",
      "type": "function"
    },
    {
      "inputs": [
        {
          "internalType": "address",
          "name": "_account",
          "type": "address"
        },
        {
          "internalType": "address",
          "name": "_tokenOut",
          "type": "address"
        },
        {
          "internalType": "uint256",
          "name": "_glpAmount",
          "type": "uint256"
        },
        {
          "internalType": "uint256",
          "name": "_minOut",
          "type": "uint256"
        },
        {
          "internalType": "address",
          "name": "_receiver",
          "type": "address"
        }
      ],
      "name": "removeLiquidityForAccount",
      "outputs": [
        {
          "internalType": "uint256",
          "name": "",
          "type": "uint256"
        }
      ],
      "stateMutability": "nonpayable",
      "type": "function"
    },
    {
      "inputs": [
        {
          "internalType": "uint256",
          "name": "_aumAddition",
          "type": "uint256"
        },
        {
          "internalType": "uint256",
          "name": "_aumDeduction",
          "type": "uint256"
        }
      ],
      "name": "setAumAdjustment",
      "outputs": [],
      "stateMutability": "nonpayable",
      "type": "function"
    },
    {
      "inputs": [
        {
          "internalType": "uint256",
          "name": "_cooldownDuration",
          "type": "uint256"
        }
      ],
      "name": "setCooldownDuration",
      "outputs": [],
      "stateMutability": "nonpayable",
      "type": "function"
    },
    {
      "inputs": [
        {
          "internalType": "address",
          "name": "_gov",
          "type": "address"
        }
      ],
      "name": "setGov",
      "outputs": [],
      "stateMutability": "nonpayable",
      "type": "function"
    },
    {
      "inputs": [
        {
          "internalType": "address",
          "name": "_handler",
          "type": "address"
        },
        {
          "internalType": "bool",
          "name": "_isActive",
          "type": "bool"
        }
      ],
      "name": "setHandler",
      "outputs": [],
      "stateMutability": "nonpayable",
      "type": "function"
    },
    {
      "inputs": [
        {
          "internalType": "bool",
          "name": "_inPrivateMode",
          "type": "bool"
        }
      ],
      "name": "setInPrivateMode",
      "outputs": [],
      "stateMutability": "nonpayable",
      "type": "function"
    },
    {
      "inputs": [],
      "name": "usdg",
      "outputs": [
        {
          "internalType": "address",
          "name": "",
          "type": "address"
        }
      ],
      "stateMutability": "view",
      "type": "function"
    },
    {
      "inputs": [],
      "name": "vault",
      "outputs": [
        {
          "internalType": "contract IVault",
          "name": "",
          "type": "address"
        }
      ],
      "stateMutability": "view",
      "type": "function"
    }
  ],
  "bytecode": "0x608060405234801561001057600080fd5b506040516120c03803806120c08339818101604052608081101561003357600080fd5b50805160208201516040830151606090930151600160008181558154336001600160a01b031991821681178216179092556002805483166001600160a01b03968716179055600380548316948616949094179093556004805490911693909416929092179092556005556120139081906100ad90396000f3fe608060405234801561001057600080fd5b50600436106101335760003560e01c80630339147614610138578063070eacee1461016957806312d43a511461018557806317eb2a15146101a9578063196b68cb146101f15780631e9049cf146101f95780631ece366a14610201578063352693151461023957806346ea87af1461024157806368a0a3e0146102675780636a86da191461028657806371d597ad146102a757806378a207ee146102eb578063870d917c146102f35780638b770e11146102fb5780638fed0b2c146103215780639116c4ae1461035b57806395082d251461037e578063966be075146103865780639cb7de4b146103a3578063b172bb0c146103d1578063cfad57a2146103d9578063ed0d1c04146103ff578063f5b91b7b14610457578063fbfa77cf1461045f575b600080fd5b6101576004803603602081101561014e57600080fd5b50351515610467565b60408051918252519081900360200190f35b610171610b88565b604080519115158252519081900360200190f35b61018d610b91565b604080516001600160a01b039092168252519081900360200190f35b610157600480360360c08110156101bf57600080fd5b506001600160a01b03813581169160208101358216916040820135169060608101359060808101359060a00135610ba0565b610157610c13565b610157610c19565b6101576004803603608081101561021757600080fd5b506001600160a01b038135169060208101359060408101359060600135610c20565b610157610ccf565b6101716004803603602081101561025757600080fd5b50356001600160a01b0316610cd5565b6101576004803603602081101561027d57600080fd5b50351515610cea565b6102a56004803603602081101561029c57600080fd5b50351515610d21565b005b610157600480360360a08110156102bd57600080fd5b506001600160a01b038135811691602081013582169160408201359160608101359160809091013516610d81565b61018d610df2565b610157610e01565b6101576004803603602081101561031157600080fd5b50356001600160a01b0316610e06565b6101576004803603608081101561033757600080fd5b506001600160a01b0381358116916020810135916040820135916060013516610e18565b6102a56004803603604081101561037157600080fd5b5080359060200135610eb8565b610157610f10565b6102a56004803603602081101561039c57600080fd5b5035610f20565b6102a5600480360360408110156103b957600080fd5b506001600160a01b0381351690602001351515610fb4565b61015761102c565b6102a5600480360360208110156103ef57600080fd5b50356001600160a01b0316611032565b6104076110a1565b60408051602080825283518183015283519192839290830191858101910280838360005b8381101561044357818101518382015260200161042b565b505050509050019250505060405180910390f35b61018d61110f565b61018d61111e565b600080600260009054906101000a90046001600160a01b03166001600160a01b0316630842b0766040518163ffffffff1660e01b815260040160206040518083038186803b1580156104b857600080fd5b505afa1580156104cc573d6000803e3d6000fd5b505050506040513d60208110156104e257600080fd5b50516007549091506000805b83811015610b445760025460408051630e468baf60e41b81526004810184905290516000926001600160a01b03169163e468baf0916024808301926020929190829003018186803b15801561054257600080fd5b505afa158015610556573d6000803e3d6000fd5b505050506040513d602081101561056c57600080fd5b505160025460408051630daf9c2160e41b81526001600160a01b0380851660048301529151939450600093919092169163daf9c210916024808301926020929190829003018186803b1580156105c157600080fd5b505afa1580156105d5573d6000803e3d6000fd5b505050506040513d60208110156105eb57600080fd5b50519050806105fb575050610b3c565b60008861068057600254604080516340d3096b60e11b81526001600160a01b038681166004830152915191909216916381a612d6916024808301926020929190829003018186803b15801561064f57600080fd5b505afa158015610663573d6000803e3d6000fd5b505050506040513d602081101561067957600080fd5b50516106fa565b60025460408051637092736960e11b81526001600160a01b0386811660048301529151919092169163e124e6d2916024808301926020929190829003018186803b1580156106cd57600080fd5b505afa1580156106e1573d6000803e3d6000fd5b505050506040513d60208110156106f757600080fd5b50515b600254604080516352f55eed60e01b81526001600160a01b038781166004830152915193945060009391909216916352f55eed916024808301926020929190829003018186803b15801561074d57600080fd5b505afa158015610761573d6000803e3d6000fd5b505050506040513d602081101561077757600080fd5b5051600254604080516323b95ceb60e21b81526001600160a01b03888116600483015291519394506000939190921691638ee573ac916024808301926020929190829003018186803b1580156107cc57600080fd5b505afa1580156107e0573d6000803e3d6000fd5b505050506040513d60208110156107f657600080fd5b5051600254604080516342b60b0360e01b81526001600160a01b03898116600483015291519394509116916342b60b0391602480820192602092909190829003018186803b15801561084757600080fd5b505afa15801561085b573d6000803e3d6000fd5b505050506040513d602081101561087157600080fd5b5051156108a15761089a610893600a83900a61088d858761112d565b9061118f565b89906111ce565b9750610b36565b6002546040805163114f1b5560e31b81526001600160a01b03888116600483015291516000939290921691638a78daa891602480820192602092909190829003018186803b1580156108f257600080fd5b505afa158015610906573d6000803e3d6000fd5b505050506040513d602081101561091c57600080fd5b505190508015610a055760025460408051636274980360e01b81526001600160a01b03898116600483015291516000939290921691636274980391602480820192602092909190829003018186803b15801561097757600080fd5b505afa15801561098b573d6000803e3d6000fd5b505050506040513d60208110156109a157600080fd5b5051905060008582116109bd576109b88683611226565b6109c7565b6109c78287611226565b905060006109d98361088d868561112d565b9050828711156109f4576109ed8c826111ce565b9b50610a01565b6109fe8b826111ce565b9a505b5050505b6002546040805163783a2b6760e11b81526001600160a01b0389811660048301529151610a8a93929092169163f07456ce91602480820192602092909190829003018186803b158015610a5757600080fd5b505afa158015610a6b573d6000803e3d6000fd5b505050506040513d6020811015610a8157600080fd5b50518a906111ce565b6002546040805163c3c7b9e960e01b81526001600160a01b038a811660048301529151939c50600093919092169163c3c7b9e9916024808301926020929190829003018186803b158015610add57600080fd5b505afa158015610af1573d6000803e3d6000fd5b505050506040513d6020811015610b0757600080fd5b50519050610b31610b2a600a85900a61088d88610b248987611226565b9061112d565b8b906111ce565b995050505b50505050505b6001016104ee565b50818111610b5b57610b568282611226565b610b5e565b60005b91508160085411610b7c57600854610b77908390611226565b610b7f565b60005b95945050505050565b60095460ff1681565b6001546001600160a01b031681565b600060026000541415610be8576040805162461bcd60e51b815260206004820152601f6024820152600080516020611e9a833981519152604482015290519081900360640190fd5b6002600055610bf5611268565b610c038787878787876112c6565b6001600055979650505050505050565b60075481565b6202a30081565b600060026000541415610c68576040805162461bcd60e51b815260206004820152601f6024820152600080516020611e9a833981519152604482015290519081900360640190fd5b600260005560095460ff1615610cb3576040805162461bcd60e51b815260206004820152601e6024820152600080516020611f00833981519152604482015290519081900360640190fd5b610cc13333878787876112c6565b600160005595945050505050565b60055481565b600a6020526000908152604090205460ff1681565b600080610cf683610467565b9050610d1a68327cb2734119d3b7a9601e1b61088d83670de0b6b3a764000061112d565b9392505050565b6001546001600160a01b03163314610d6e576040805162461bcd60e51b81526020600482015260156024820152600080516020611eba833981519152604482015290519081900360640190fd5b6009805460ff1916911515919091179055565b600060026000541415610dc9576040805162461bcd60e51b815260206004820152601f6024820152600080516020611e9a833981519152604482015290519081900360640190fd5b6002600055610dd6611268565b610de386868686866115e3565b60016000559695505050505050565b6004546001600160a01b031681565b601281565b60066020526000908152604090205481565b600060026000541415610e60576040805162461bcd60e51b815260206004820152601f6024820152600080516020611e9a833981519152604482015290519081900360640190fd5b600260005560095460ff1615610eab576040805162461bcd60e51b815260206004820152601e6024820152600080516020611f00833981519152604482015290519081900360640190fd5b610cc133868686866115e3565b6001546001600160a01b03163314610f05576040805162461bcd60e51b81526020600482015260156024820152600080516020611eba833981519152604482015290519081900360640190fd5b600791909155600855565b68327cb2734119d3b7a9601e1b81565b6001546001600160a01b03163314610f6d576040805162461bcd60e51b81526020600482015260156024820152600080516020611eba833981519152604482015290519081900360640190fd5b6202a300811115610faf5760405162461bcd60e51b8152600401808060200182810382526025815260200180611e756025913960400191505060405180910390fd5b600555565b6001546001600160a01b03163314611001576040805162461bcd60e51b81526020600482015260156024820152600080516020611eba833981519152604482015290519081900360640190fd5b6001600160a01b03919091166000908152600a60205260409020805460ff1916911515919091179055565b60085481565b6001546001600160a01b0316331461107f576040805162461bcd60e51b81526020600482015260156024820152600080516020611eba833981519152604482015290519081900360640190fd5b600180546001600160a01b0319166001600160a01b0392909216919091179055565b6040805160028082526060808301845292839291906020830190803683370190505090506110cf6001610467565b816000815181106110dc57fe5b6020026020010181815250506110f26000610467565b816001815181106110ff57fe5b6020908102919091010152905090565b6003546001600160a01b031681565b6002546001600160a01b031681565b60008261113c57506000611189565b8282028284828161114957fe5b04146111865760405162461bcd60e51b8152600401808060200182810382526021815260200180611f4c6021913960400191505060405180910390fd5b90505b92915050565b600061118683836040518060400160405280601a815260200179536166654d6174683a206469766973696f6e206279207a65726f60301b815250611a83565b600082820183811015611186576040805162461bcd60e51b815260206004820152601b60248201527a536166654d6174683a206164646974696f6e206f766572666c6f7760281b604482015290519081900360640190fd5b600061118683836040518060400160405280601e81526020017f536166654d6174683a207375627472616374696f6e206f766572666c6f770000815250611b25565b336000908152600a602052604090205460ff166112c4576040805162461bcd60e51b815260206004820152601560248201527423b63826b0b730b3b2b91d103337b93134b23232b760591b604482015290519081900360640190fd5b565b600080841161131a576040805162461bcd60e51b815260206004820152601b60248201527a11db1c13585b9859d95c8e881a5b9d985b1a590817d85b5bdd5b9d602a1b604482015290519081900360640190fd5b60006113266001610cea565b90506000600460009054906101000a90046001600160a01b03166001600160a01b03166318160ddd6040518163ffffffff1660e01b815260040160206040518083038186803b15801561137857600080fd5b505afa15801561138c573d6000803e3d6000fd5b505050506040513d60208110156113a257600080fd5b50516002549091506113c3906001600160a01b03898116918c911689611b7f565b6002546040805163817bb85760e01b81526001600160a01b038a811660048301523060248301529151600093929092169163817bb8579160448082019260209290919082900301818787803b15801561141b57600080fd5b505af115801561142f573d6000803e3d6000fd5b505050506040513d602081101561144557600080fd5b50519050858110156114885760405162461bcd60e51b8152600401808060200182810382526024815260200180611f906024913960400191505060405180910390fd5b600083156114a35761149e8461088d848661112d565b6114a5565b815b9050858110156114e65760405162461bcd60e51b8152600401808060200182810382526023815260200180611f6d6023913960400191505060405180910390fd5b60048054604080516340c10f1960e01b81526001600160a01b038e81169482019490945260248101859052905192909116916340c10f199160448082019260009290919082900301818387803b15801561153f57600080fd5b505af1158015611553573d6000803e3d6000fd5b5050506001600160a01b03808c166000818152600660209081526040918290204290558151928352928d16928201929092528082018b9052606081018790526080810186905260a0810185905260c0810184905290517f38dc38b96482be64113daffd8d464ebda93e856b70ccfc605e69ccf892ab981e92509081900360e00190a19a9950505050505050505050565b6000808411611639576040805162461bcd60e51b815260206004820152601e60248201527f476c704d616e616765723a20696e76616c6964205f676c70416d6f756e740000604482015290519081900360640190fd5b6005546001600160a01b038716600090815260066020526040902054429161166191906111ce565b111561169e5760405162461bcd60e51b815260040180806020018281038252602c815260200180611f20602c913960400191505060405180910390fd5b60006116aa6000610cea565b90506000600460009054906101000a90046001600160a01b03166001600160a01b03166318160ddd6040518163ffffffff1660e01b815260040160206040518083038186803b1580156116fc57600080fd5b505afa158015611710573d6000803e3d6000fd5b505050506040513d602081101561172657600080fd5b50519050600061173a8261088d898661112d565b600354604080516370a0823160e01b815230600482015290519293506000926001600160a01b03909216916370a0823191602480820192602092909190829003018186803b15801561178b57600080fd5b505afa15801561179f573d6000803e3d6000fd5b505050506040513d60208110156117b557600080fd5b505190508082111561183c576003546001600160a01b03166340c10f19306117dd8585611226565b6040518363ffffffff1660e01b815260040180836001600160a01b0316815260200182815260200192505050600060405180830381600087803b15801561182357600080fd5b505af1158015611837573d6000803e3d6000fd5b505050505b6004805460408051632770a7eb60e21b81526001600160a01b038e811694820194909452602481018c905290519290911691639dc29fac9160448082019260009290919082900301818387803b15801561189557600080fd5b505af11580156118a9573d6000803e3d6000fd5b50506003546002546040805163a9059cbb60e01b81526001600160a01b03928316600482015260248101889052905191909216935063a9059cbb925060448083019260209291908290030181600087803b15801561190657600080fd5b505af115801561191a573d6000803e3d6000fd5b505050506040513d602081101561193057600080fd5b505060025460408051630711e61960e41b81526001600160a01b038c8116600483015289811660248301529151600093929092169163711e61909160448082019260209290919082900301818787803b15801561198c57600080fd5b505af11580156119a0573d6000803e3d6000fd5b505050506040513d60208110156119b657600080fd5b5051905087811015611a0f576040805162461bcd60e51b815260206004820152601f60248201527f476c704d616e616765723a20696e73756666696369656e74206f757470757400604482015290519081900360640190fd5b604080516001600160a01b03808e1682528c1660208201528082018b9052606081018790526080810186905260a0810185905260c0810183905290517f87b9679bb9a4944bafa98c267e7cd4a00ab29fed48afdefae25f0fca5da279409181900360e00190a19a9950505050505050505050565b60008183611b0f5760405162461bcd60e51b81526004018080602001828103825283818151815260200191508051906020019080838360005b83811015611ad4578181015183820152602001611abc565b50505050905090810190601f168015611b015780820380516001836020036101000a031916815260200191505b509250505060405180910390fd5b506000838581611b1b57fe5b0495945050505050565b60008184841115611b775760405162461bcd60e51b8152602060048201818152835160248401528351909283926044909101919085019080838360008315611ad4578181015183820152602001611abc565b505050900390565b604080516001600160a01b0380861660248301528416604482015260648082018490528251808303909101815260849091019091526020810180516001600160e01b03166323b872dd60e01b179052611bd9908590611bdf565b50505050565b6060611c34826040518060400160405280602081526020017f5361666545524332303a206c6f772d6c6576656c2063616c6c206661696c6564815250856001600160a01b0316611c959092919063ffffffff16565b805190915015611c9057808060200190516020811015611c5357600080fd5b5051611c905760405162461bcd60e51b815260040180806020018281038252602a815260200180611fb4602a913960400191505060405180910390fd5b505050565b6060611ca48484600085611cac565b949350505050565b606082471015611ced5760405162461bcd60e51b8152600401808060200182810382526026815260200180611eda6026913960400191505060405180910390fd5b611cf685611e08565b611d47576040805162461bcd60e51b815260206004820152601d60248201527f416464726573733a2063616c6c20746f206e6f6e2d636f6e7472616374000000604482015290519081900360640190fd5b60006060866001600160a01b031685876040518082805190602001908083835b60208310611d865780518252601f199092019160209182019101611d67565b6001836020036101000a03801982511681845116808217855250505050505090500191505060006040518083038185875af1925050503d8060008114611de8576040519150601f19603f3d011682016040523d82523d6000602084013e611ded565b606091505b5091509150611dfd828286611e0e565b979650505050505050565b3b151590565b60608315611e1d575081610d1a565b825115611e2d5782518084602001fd5b60405162461bcd60e51b8152602060048201818152845160248401528451859391928392604401919085019080838360008315611ad4578181015183820152602001611abc56fe476c704d616e616765723a20696e76616c6964205f636f6f6c646f776e4475726174696f6e5265656e7472616e637947756172643a207265656e7472616e742063616c6c00476f7665726e61626c653a20666f7262696464656e0000000000000000000000416464726573733a20696e73756666696369656e742062616c616e636520666f722063616c6c476c704d616e616765723a20616374696f6e206e6f7420656e61626c65640000476c704d616e616765723a20636f6f6c646f776e206475726174696f6e206e6f742079657420706173736564536166654d6174683a206d756c7469706c69636174696f6e206f766572666c6f77476c704d616e616765723a20696e73756666696369656e7420474c50206f7574707574476c704d616e616765723a20696e73756666696369656e742055534447206f75747075745361666545524332303a204552433230206f7065726174696f6e20646964206e6f742073756363656564a26469706673582212208299b225bc892fe23dfc265df5e26e45bbb57009aabf7e0aea7d4629f371a10a64736f6c634300060c0033",
  "linkReferences": {},
  "deployedLinkReferences": {}
}