{
  "_format": "hh-sol-artifact-1",
  "contractName": "GMT",
  "sourceName": "contracts/gambit-token/GMT.sol",
  "abi": [
    {
      "inputs": [
        {
          "internalType": "uint256",
          "name": "_initialSupply",
          "type": "uint256"
        }
      ],
      "stateMutability": "nonpayable",
      "type": "constructor"
    },
    {
      "anonymous": false,
      "inputs": [
        {
          "indexed": true,
          "internalType": "address",
          "name": "owner",
          "type": "address"
        },
        {
          "indexed": true,
          "internalType": "address",
          "name": "spender",
          "type": "address"
        },
        {
          "indexed": false,
          "internalType": "uint256",
          "name": "value",
          "type": "uint256"
        }
      ],
      "name": "Approval",
      "type": "event"
    },
    {
      "anonymous": false,
      "inputs": [
        {
          "indexed": true,
          "internalType": "address",
          "name": "from",
          "type": "address"
        },
        {
          "indexed": true,
          "internalType": "address",
          "name": "to",
          "type": "address"
        },
        {
          "indexed": false,
          "internalType": "uint256",
          "name": "value",
          "type": "uint256"
        }
      ],
      "name": "Transfer",
      "type": "event"
    },
    {
      "inputs": [
        {
          "internalType": "address",
          "name": "_account",
          "type": "address"
        }
      ],
      "name": "addAdmin",
      "outputs": [],
      "stateMutability": "nonpayable",
      "type": "function"
    },
    {
      "inputs": [
        {
          "internalType": "address",
          "name": "_recipient",
          "type": "address"
        }
      ],
      "name": "addBlockedRecipient",
      "outputs": [],
      "stateMutability": "nonpayable",
      "type": "function"
    },
    {
      "inputs": [
        {
          "internalType": "address",
          "name": "_msgSender",
          "type": "address"
        }
      ],
      "name": "addMsgSender",
      "outputs": [],
      "stateMutability": "nonpayable",
      "type": "function"
    },
    {
      "inputs": [
        {
          "internalType": "address",
          "name": "",
          "type": "address"
        }
      ],
      "name": "admins",
      "outputs": [
        {
          "internalType": "bool",
          "name": "",
          "type": "bool"
        }
      ],
      "stateMutability": "view",
      "type": "function"
    },
    {
      "inputs": [
        {
          "internalType": "address",
          "name": "_owner",
          "type": "address"
        },
        {
          "internalType": "address",
          "name": "_spender",
          "type": "address"
        }
      ],
      "name": "allowance",
      "outputs": [
        {
          "internalType": "uint256",
          "name": "",
          "type": "uint256"
        }
      ],
      "stateMutability": "view",
      "type": "function"
    },
    {
      "inputs": [
        {
          "internalType": "address",
          "name": "",
          "type": "address"
        },
        {
          "internalType": "address",
          "name": "",
          "type": "address"
        }
      ],
      "name": "allowances",
      "outputs": [
        {
          "internalType": "uint256",
          "name": "",
          "type": "uint256"
        }
      ],
      "stateMutability": "view",
      "type": "function"
    },
    {
      "inputs": [
        {
          "internalType": "address",
          "name": "",
          "type": "address"
        }
      ],
      "name": "allowedMsgSenders",
      "outputs": [
        {
          "internalType": "bool",
          "name": "",
          "type": "bool"
        }
      ],
      "stateMutability": "view",
      "type": "function"
    },
    {
      "inputs": [
        {
          "internalType": "address",
          "name": "_spender",
          "type": "address"
        },
        {
          "internalType": "uint256",
          "name": "_amount",
          "type": "uint256"
        }
      ],
      "name": "approve",
      "outputs": [
        {
          "internalType": "bool",
          "name": "",
          "type": "bool"
        }
      ],
      "stateMutability": "nonpayable",
      "type": "function"
    },
    {
      "inputs": [
        {
          "internalType": "address",
          "name": "_account",
          "type": "address"
        }
      ],
      "name": "balanceOf",
      "outputs": [
        {
          "internalType": "uint256",
          "name": "",
          "type": "uint256"
        }
      ],
      "stateMutability": "view",
      "type": "function"
    },
    {
      "inputs": [
        {
          "internalType": "address",
          "name": "",
          "type": "address"
        }
      ],
      "name": "balances",
      "outputs": [
        {
          "internalType": "uint256",
          "name": "",
          "type": "uint256"
        }
      ],
      "stateMutability": "view",
      "type": "function"
    },
    {
      "inputs": [],
      "name": "beginMigration",
      "outputs": [],
      "stateMutability": "nonpayable",
      "type": "function"
    },
    {
      "inputs": [
        {
          "internalType": "address",
          "name": "",
          "type": "address"
        }
      ],
      "name": "blockedRecipients",
      "outputs": [
        {
          "internalType": "bool",
          "name": "",
          "type": "bool"
        }
      ],
      "stateMutability": "view",
      "type": "function"
    },
    {
      "inputs": [],
      "name": "decimals",
      "outputs": [
        {
          "internalType": "uint8",
          "name": "",
          "type": "uint8"
        }
      ],
      "stateMutability": "view",
      "type": "function"
    },
    {
      "inputs": [],
      "name": "endMigration",
      "outputs": [],
      "stateMutability": "nonpayable",
      "type": "function"
    },
    {
      "inputs": [],
      "name": "gov",
      "outputs": [
        {
          "internalType": "address",
          "name": "",
          "type": "address"
        }
      ],
      "stateMutability": "view",
      "type": "function"
    },
    {
      "inputs": [],
      "name": "hasActiveMigration",
      "outputs": [
        {
          "internalType": "bool",
          "name": "",
          "type": "bool"
        }
      ],
      "stateMutability": "view",
      "type": "function"
    },
    {
      "inputs": [],
      "name": "migrationTime",
      "outputs": [
        {
          "internalType": "uint256",
          "name": "",
          "type": "uint256"
        }
      ],
      "stateMutability": "view",
      "type": "function"
    },
    {
      "inputs": [],
      "name": "name",
      "outputs": [
        {
          "internalType": "string",
          "name": "",
          "type": "string"
        }
      ],
      "stateMutability": "view",
      "type": "function"
    },
    {
      "inputs": [
        {
          "internalType": "address",
          "name": "_account",
          "type": "address"
        }
      ],
      "name": "removeAdmin",
      "outputs": [],
      "stateMutability": "nonpayable",
      "type": "function"
    },
    {
      "inputs": [
        {
          "internalType": "address",
          "name": "_recipient",
          "type": "address"
        }
      ],
      "name": "removeBlockedRecipient",
      "outputs": [],
      "stateMutability": "nonpayable",
      "type": "function"
    },
    {
      "inputs": [
        {
          "internalType": "address",
          "name": "_msgSender",
          "type": "address"
        }
      ],
      "name": "removeMsgSender",
      "outputs": [],
      "stateMutability": "nonpayable",
      "type": "function"
    },
    {
      "inputs": [
        {
          "internalType": "address",
          "name": "_gov",
          "type": "address"
        }
      ],
      "name": "setGov",
      "outputs": [],
      "stateMutability": "nonpayable",
      "type": "function"
    },
    {
      "inputs": [
        {
          "internalType": "uint256",
          "name": "_migrationTime",
          "type": "uint256"
        }
      ],
      "name": "setNextMigrationTime",
      "outputs": [],
      "stateMutability": "nonpayable",
      "type": "function"
    },
    {
      "inputs": [],
      "name": "symbol",
      "outputs": [
        {
          "internalType": "string",
          "name": "",
          "type": "string"
        }
      ],
      "stateMutability": "view",
      "type": "function"
    },
    {
      "inputs": [],
      "name": "totalSupply",
      "outputs": [
        {
          "internalType": "uint256",
          "name": "",
          "type": "uint256"
        }
      ],
      "stateMutability": "view",
      "type": "function"
    },
    {
      "inputs": [
        {
          "internalType": "address",
          "name": "_recipient",
          "type": "address"
        },
        {
          "internalType": "uint256",
          "name": "_amount",
          "type": "uint256"
        }
      ],
      "name": "transfer",
      "outputs": [
        {
          "internalType": "bool",
          "name": "",
          "type": "bool"
        }
      ],
      "stateMutability": "nonpayable",
      "type": "function"
    },
    {
      "inputs": [
        {
          "internalType": "address",
          "name": "_sender",
          "type": "address"
        },
        {
          "internalType": "address",
          "name": "_recipient",
          "type": "address"
        },
        {
          "internalType": "uint256",
          "name": "_amount",
          "type": "uint256"
        }
      ],
      "name": "transferFrom",
      "outputs": [
        {
          "internalType": "bool",
          "name": "",
          "type": "bool"
        }
      ],
      "stateMutability": "nonpayable",
      "type": "function"
    },
    {
      "inputs": [
        {
          "internalType": "address",
          "name": "_token",
          "type": "address"
        },
        {
          "internalType": "address",
          "name": "_account",
          "type": "address"
        },
        {
          "internalType": "uint256",
          "name": "_amount",
          "type": "uint256"
        }
      ],
      "name": "withdrawToken",
      "outputs": [],
      "stateMutability": "nonpayable",
      "type": "function"
    }
  ],
  "bytecode": "0x608060405234801561001057600080fd5b506040516200143d3803806200143d8339818101604052602081101561003557600080fd5b5051600180546001600160a01b0319163390811782556000818152600560205260409020805460ff191690921790915561006f9082610075565b506101d3565b6001600160a01b0382166100d0576040805162461bcd60e51b815260206004820152601d60248201527f474d543a206d696e7420746f20746865207a65726f2061646472657373000000604482015290519081900360640190fd5b6100e98160005461017260201b610d231790919060201c565b60009081556001600160a01b03831681526003602090815260409091205461011a918390610d23610172821b17901c565b6001600160a01b03831660008181526003602090815260408083209490945583518581529351929391927fddf252ad1be2c89b69c2b068fc378daa952ba7f163c4a11628f55a4df523b3ef9281900390910190a35050565b6000828201838110156101cc576040805162461bcd60e51b815260206004820152601b60248201527f536166654d6174683a206164646974696f6e206f766572666c6f770000000000604482015290519081900360640190fd5b9392505050565b61125a80620001e36000396000f3fe608060405234801561001057600080fd5b50600436106101c45760003560e01c806355b6ed5c116100f9578063a9059cbb11610097578063cfad57a211610071578063cfad57a214610579578063dd62ed3e1461059f578063fe0194f2146105cd578063ff61a51c146105d5576101c4565b8063a9059cbb1461050a578063a92c6fae14610536578063b995245514610553576101c4565b806370480275116100d357806370480275146104b657806370a08231146104dc5780638fb998e11461050257806395d89b411461023b576101c4565b806355b6ed5c1461045a5780635ec080fc146104885780636c525d04146104ae576101c4565b806318160ddd1161016657806327e235e31161014057806327e235e3146103ca578063313ce567146103f0578063429b62e51461040e5780634d9567ee14610434576101c4565b806318160ddd14610354578063205b10a01461036e57806323b872dd14610394576101c4565b806308ebd96a116101a257806308ebd96a146102b8578063095ea7b3146102de57806312d43a511461030a5780631785f53c1461032e576101c4565b806301d060b0146101c957806301e336671461020357806306fdde031461023b575b600080fd5b6101ef600480360360208110156101df57600080fd5b50356001600160a01b03166105dd565b604080519115158252519081900360200190f35b6102396004803603606081101561021957600080fd5b506001600160a01b038135811691602081013590911690604001356105f2565b005b6102436106ca565b6040805160208082528351818301528351919283929083019185019080838360005b8381101561027d578181015183820152602001610265565b50505050905090810190601f1680156102aa5780820380516001836020036101000a031916815260200191505b509250505060405180910390f35b610239600480360360208110156102ce57600080fd5b50356001600160a01b03166106e9565b6101ef600480360360408110156102f457600080fd5b506001600160a01b03813516906020013561075d565b610312610773565b604080516001600160a01b039092168252519081900360200190f35b6102396004803603602081101561034457600080fd5b50356001600160a01b0316610782565b61035c6107f3565b60408051918252519081900360200190f35b6101ef6004803603602081101561038457600080fd5b50356001600160a01b03166107f9565b6101ef600480360360608110156103aa57600080fd5b506001600160a01b0381358116916020810135909116906040013561080e565b61035c600480360360208110156103e057600080fd5b50356001600160a01b031661087c565b6103f861088e565b6040805160ff9092168252519081900360200190f35b6101ef6004803603602081101561042457600080fd5b50356001600160a01b0316610893565b6102396004803603602081101561044a57600080fd5b50356001600160a01b03166108a8565b61035c6004803603604081101561047057600080fd5b506001600160a01b0381358116916020013516610919565b6102396004803603602081101561049e57600080fd5b50356001600160a01b0316610936565b6102396109a7565b610239600480360360208110156104cc57600080fd5b50356001600160a01b0316610a0b565b61035c600480360360208110156104f257600080fd5b50356001600160a01b0316610a7f565b6101ef610a9a565b6101ef6004803603604081101561052057600080fd5b506001600160a01b038135169060200135610aaa565b6102396004803603602081101561054c57600080fd5b5035610ab7565b6102396004803603602081101561056957600080fd5b50356001600160a01b0316610b62565b6102396004803603602081101561058f57600080fd5b50356001600160a01b0316610bd6565b61035c600480360360408110156105b557600080fd5b506001600160a01b0381358116916020013516610c48565b610239610c73565b61035c610d1d565b60076020526000908152604090205460ff1681565b6001546001600160a01b03163314610642576040805162461bcd60e51b815260206004820152600e60248201526d23a6aa1d103337b93134b23232b760911b604482015290519081900360640190fd5b826001600160a01b031663a9059cbb83836040518363ffffffff1660e01b815260040180836001600160a01b0316815260200182815260200192505050602060405180830381600087803b15801561069957600080fd5b505af11580156106ad573d6000803e3d6000fd5b505050506040513d60208110156106c357600080fd5b5050505050565b604051806040016040528060038152602001621611d560ea1b81525081565b6001546001600160a01b03163314610739576040805162461bcd60e51b815260206004820152600e60248201526d23a6aa1d103337b93134b23232b760911b604482015290519081900360640190fd5b6001600160a01b03166000908152600760205260409020805460ff19166001179055565b600061076a338484610d84565b50600192915050565b6001546001600160a01b031681565b6001546001600160a01b031633146107d2576040805162461bcd60e51b815260206004820152600e60248201526d23a6aa1d103337b93134b23232b760911b604482015290519081900360640190fd5b6001600160a01b03166000908152600560205260409020805460ff19169055565b60005481565b60066020526000908152604090205460ff1681565b60008061085983604051806060016040528060268152602001611175602691396001600160a01b03881660009081526004602090815260408083203384529091529020549190610e86565b9050610866853383610d84565b610871858585610f1d565b506001949350505050565b60036020526000908152604090205481565b601281565b60056020526000908152604090205460ff1681565b6001546001600160a01b031633146108f8576040805162461bcd60e51b815260206004820152600e60248201526d23a6aa1d103337b93134b23232b760911b604482015290519081900360640190fd5b6001600160a01b03166000908152600760205260409020805460ff19169055565b600460209081526000928352604080842090915290825290205481565b6001546001600160a01b03163314610986576040805162461bcd60e51b815260206004820152600e60248201526d23a6aa1d103337b93134b23232b760911b604482015290519081900360640190fd5b6001600160a01b03166000908152600660205260409020805460ff19169055565b3360009081526005602052604090205460ff166109fc576040805162461bcd60e51b815260206004820152600e60248201526d23a6aa1d103337b93134b23232b760911b604482015290519081900360640190fd5b6001805460ff60a01b19169055565b6001546001600160a01b03163314610a5b576040805162461bcd60e51b815260206004820152600e60248201526d23a6aa1d103337b93134b23232b760911b604482015290519081900360640190fd5b6001600160a01b03166000908152600560205260409020805460ff19166001179055565b6001600160a01b031660009081526003602052604090205490565b600154600160a01b900460ff1681565b600061076a338484610f1d565b6001546001600160a01b03163314610b07576040805162461bcd60e51b815260206004820152600e60248201526d23a6aa1d103337b93134b23232b760911b604482015290519081900360640190fd5b6002548111610b5d576040805162461bcd60e51b815260206004820152601b60248201527f474d543a20696e76616c6964205f6d6967726174696f6e54696d650000000000604482015290519081900360640190fd5b600255565b6001546001600160a01b03163314610bb2576040805162461bcd60e51b815260206004820152600e60248201526d23a6aa1d103337b93134b23232b760911b604482015290519081900360640190fd5b6001600160a01b03166000908152600660205260409020805460ff19166001179055565b6001546001600160a01b03163314610c26576040805162461bcd60e51b815260206004820152600e60248201526d23a6aa1d103337b93134b23232b760911b604482015290519081900360640190fd5b600180546001600160a01b0319166001600160a01b0392909216919091179055565b6001600160a01b03918216600090815260046020908152604080832093909416825291909152205490565b3360009081526005602052604090205460ff16610cc8576040805162461bcd60e51b815260206004820152600e60248201526d23a6aa1d103337b93134b23232b760911b604482015290519081900360640190fd5b6002544211610d085760405162461bcd60e51b81526004018080602001828103825260218152602001806111546021913960400191505060405180910390fd5b6001805460ff60a01b1916600160a01b179055565b60025481565b600082820183811015610d7d576040805162461bcd60e51b815260206004820152601b60248201527f536166654d6174683a206164646974696f6e206f766572666c6f770000000000604482015290519081900360640190fd5b9392505050565b6001600160a01b038316610dc95760405162461bcd60e51b81526004018080602001828103825260228152602001806111be6022913960400191505060405180910390fd5b6001600160a01b038216610e24576040805162461bcd60e51b815260206004820181905260248201527f474d543a20617070726f766520746f20746865207a65726f2061646472657373604482015290519081900360640190fd5b6001600160a01b03808416600081815260046020908152604080832094871680845294825291829020859055815185815291517f8c5be1e5ebec7d5bd14f71427d1e84f3dd0314c0f7b2291e5b200ac8c7c3b9259281900390910190a3505050565b60008184841115610f155760405162461bcd60e51b81526004018080602001828103825283818151815260200191508051906020019080838360005b83811015610eda578181015183820152602001610ec2565b50505050905090810190601f168015610f075780820380516001836020036101000a031916815260200191505b509250505060405180910390fd5b505050900390565b6001600160a01b038316610f625760405162461bcd60e51b815260040180806020018281038252602381526020018061119b6023913960400191505060405180910390fd5b6001600160a01b038216610fa75760405162461bcd60e51b81526004018080602001828103825260218152602001806112046021913960400191505060405180910390fd5b600154600160a01b900460ff161561108b573360009081526007602052604090205460ff1661101d576040805162461bcd60e51b815260206004820152601960248201527f474d543a20666f7262696464656e206d73672e73656e64657200000000000000604482015290519081900360640190fd5b6001600160a01b03821660009081526006602052604090205460ff161561108b576040805162461bcd60e51b815260206004820152601860248201527f474d543a20666f7262696464656e20726563697069656e740000000000000000604482015290519081900360640190fd5b6110c8816040518060600160405280602481526020016111e0602491396001600160a01b0386166000908152600360205260409020549190610e86565b6001600160a01b0380851660009081526003602052604080822093909355908416815220546110f79082610d23565b6001600160a01b0380841660008181526003602090815260409182902094909455805185815290519193928716927fddf252ad1be2c89b69c2b068fc378daa952ba7f163c4a11628f55a4df523b3ef92918290030190a350505056fe474d543a206d6967726174696f6e54696d65206e6f742079657420706173736564474d543a207472616e7366657220616d6f756e74206578636565647320616c6c6f77616e6365474d543a207472616e736665722066726f6d20746865207a65726f2061646472657373474d543a20617070726f76652066726f6d20746865207a65726f2061646472657373474d543a207472616e7366657220616d6f756e7420657863656564732062616c616e6365474d543a207472616e7366657220746f20746865207a65726f2061646472657373a2646970667358221220c7496c280b04631acccad508b6f8048fa338890ef9ede2dd69f94f408dacbc2564736f6c634300060c0033",
  "linkReferences": {},
  "deployedLinkReferences": {}
}