{
  "_format": "hh-sol-artifact-1",
  "contractName": "GmxMigrator",
  "sourceName": "contracts/gmx/GmxMigrator.sol",
  "abi": [
    {
      "inputs": [
        {
          "internalType": "uint256",
          "name": "_minAuthorizations",
          "type": "uint256"
        }
      ],
      "stateMutability": "nonpayable",
      "type": "constructor"
    },
    {
      "anonymous": false,
      "inputs": [
        {
          "indexed": false,
          "internalType": "bytes32",
          "name": "action",
          "type": "bytes32"
        },
        {
          "indexed": false,
          "internalType": "uint256",
          "name": "nonce",
          "type": "uint256"
        }
      ],
      "name": "ClearAction",
      "type": "event"
    },
    {
      "anonymous": false,
      "inputs": [
        {
          "indexed": false,
          "internalType": "bytes32",
          "name": "action",
          "type": "bytes32"
        },
        {
          "indexed": false,
          "internalType": "uint256",
          "name": "nonce",
          "type": "uint256"
        }
      ],
      "name": "SignAction",
      "type": "event"
    },
    {
      "anonymous": false,
      "inputs": [
        {
          "indexed": false,
          "internalType": "address",
          "name": "token",
          "type": "address"
        },
        {
          "indexed": false,
          "internalType": "address",
          "name": "spender",
          "type": "address"
        },
        {
          "indexed": false,
          "internalType": "uint256",
          "name": "amount",
          "type": "uint256"
        },
        {
          "indexed": false,
          "internalType": "bytes32",
          "name": "action",
          "type": "bytes32"
        },
        {
          "indexed": false,
          "internalType": "uint256",
          "name": "nonce",
          "type": "uint256"
        }
      ],
      "name": "SignalApprove",
      "type": "event"
    },
    {
      "anonymous": false,
      "inputs": [
        {
          "indexed": false,
          "internalType": "bytes32",
          "name": "action",
          "type": "bytes32"
        },
        {
          "indexed": false,
          "internalType": "uint256",
          "name": "nonce",
          "type": "uint256"
        }
      ],
      "name": "SignalPendingAction",
      "type": "event"
    },
    {
      "inputs": [],
      "name": "actionsNonce",
      "outputs": [
        {
          "internalType": "uint256",
          "name": "",
          "type": "uint256"
        }
      ],
      "stateMutability": "view",
      "type": "function"
    },
    {
      "inputs": [],
      "name": "admin",
      "outputs": [
        {
          "internalType": "address",
          "name": "",
          "type": "address"
        }
      ],
      "stateMutability": "view",
      "type": "function"
    },
    {
      "inputs": [],
      "name": "ammRouter",
      "outputs": [
        {
          "internalType": "address",
          "name": "",
          "type": "address"
        }
      ],
      "stateMutability": "view",
      "type": "function"
    },
    {
      "inputs": [
        {
          "internalType": "address",
          "name": "_token",
          "type": "address"
        },
        {
          "internalType": "address",
          "name": "_spender",
          "type": "address"
        },
        {
          "internalType": "uint256",
          "name": "_amount",
          "type": "uint256"
        },
        {
          "internalType": "uint256",
          "name": "_nonce",
          "type": "uint256"
        }
      ],
      "name": "approve",
      "outputs": [],
      "stateMutability": "nonpayable",
      "type": "function"
    },
    {
      "inputs": [
        {
          "internalType": "address",
          "name": "",
          "type": "address"
        }
      ],
      "name": "caps",
      "outputs": [
        {
          "internalType": "uint256",
          "name": "",
          "type": "uint256"
        }
      ],
      "stateMutability": "view",
      "type": "function"
    },
    {
      "inputs": [],
      "name": "endMigration",
      "outputs": [],
      "stateMutability": "nonpayable",
      "type": "function"
    },
    {
      "inputs": [
        {
          "internalType": "address",
          "name": "_token",
          "type": "address"
        }
      ],
      "name": "getIouToken",
      "outputs": [
        {
          "internalType": "address",
          "name": "",
          "type": "address"
        }
      ],
      "stateMutability": "view",
      "type": "function"
    },
    {
      "inputs": [
        {
          "internalType": "address[]",
          "name": "_tokens",
          "type": "address[]"
        }
      ],
      "name": "getTokenAmounts",
      "outputs": [
        {
          "internalType": "uint256[]",
          "name": "",
          "type": "uint256[]"
        }
      ],
      "stateMutability": "view",
      "type": "function"
    },
    {
      "inputs": [
        {
          "internalType": "address",
          "name": "_token",
          "type": "address"
        }
      ],
      "name": "getTokenPrice",
      "outputs": [
        {
          "internalType": "uint256",
          "name": "",
          "type": "uint256"
        }
      ],
      "stateMutability": "view",
      "type": "function"
    },
    {
      "inputs": [],
      "name": "gmxPrice",
      "outputs": [
        {
          "internalType": "uint256",
          "name": "",
          "type": "uint256"
        }
      ],
      "stateMutability": "view",
      "type": "function"
    },
    {
      "inputs": [
        {
          "internalType": "address",
          "name": "_ammRouter",
          "type": "address"
        },
        {
          "internalType": "uint256",
          "name": "_gmxPrice",
          "type": "uint256"
        },
        {
          "internalType": "address[]",
          "name": "_signers",
          "type": "address[]"
        },
        {
          "internalType": "address[]",
          "name": "_whitelistedTokens",
          "type": "address[]"
        },
        {
          "internalType": "address[]",
          "name": "_iouTokens",
          "type": "address[]"
        },
        {
          "internalType": "uint256[]",
          "name": "_prices",
          "type": "uint256[]"
        },
        {
          "internalType": "uint256[]",
          "name": "_caps",
          "type": "uint256[]"
        },
        {
          "internalType": "address[]",
          "name": "_lpTokens",
          "type": "address[]"
        },
        {
          "internalType": "address[]",
          "name": "_lpTokenAs",
          "type": "address[]"
        },
        {
          "internalType": "address[]",
          "name": "_lpTokenBs",
          "type": "address[]"
        }
      ],
      "name": "initialize",
      "outputs": [],
      "stateMutability": "nonpayable",
      "type": "function"
    },
    {
      "inputs": [
        {
          "internalType": "address",
          "name": "",
          "type": "address"
        }
      ],
      "name": "iouTokens",
      "outputs": [
        {
          "internalType": "address",
          "name": "",
          "type": "address"
        }
      ],
      "stateMutability": "view",
      "type": "function"
    },
    {
      "inputs": [],
      "name": "isInitialized",
      "outputs": [
        {
          "internalType": "bool",
          "name": "",
          "type": "bool"
        }
      ],
      "stateMutability": "view",
      "type": "function"
    },
    {
      "inputs": [],
      "name": "isMigrationActive",
      "outputs": [
        {
          "internalType": "bool",
          "name": "",
          "type": "bool"
        }
      ],
      "stateMutability": "view",
      "type": "function"
    },
    {
      "inputs": [
        {
          "internalType": "address",
          "name": "",
          "type": "address"
        }
      ],
      "name": "isSigner",
      "outputs": [
        {
          "internalType": "bool",
          "name": "",
          "type": "bool"
        }
      ],
      "stateMutability": "view",
      "type": "function"
    },
    {
      "inputs": [
        {
          "internalType": "address",
          "name": "",
          "type": "address"
        }
      ],
      "name": "lpTokenAs",
      "outputs": [
        {
          "internalType": "address",
          "name": "",
          "type": "address"
        }
      ],
      "stateMutability": "view",
      "type": "function"
    },
    {
      "inputs": [
        {
          "internalType": "address",
          "name": "",
          "type": "address"
        }
      ],
      "name": "lpTokenBs",
      "outputs": [
        {
          "internalType": "address",
          "name": "",
          "type": "address"
        }
      ],
      "stateMutability": "view",
      "type": "function"
    },
    {
      "inputs": [
        {
          "internalType": "address",
          "name": "",
          "type": "address"
        }
      ],
      "name": "lpTokens",
      "outputs": [
        {
          "internalType": "bool",
          "name": "",
          "type": "bool"
        }
      ],
      "stateMutability": "view",
      "type": "function"
    },
    {
      "inputs": [
        {
          "internalType": "address",
          "name": "_token",
          "type": "address"
        },
        {
          "internalType": "uint256",
          "name": "_tokenAmount",
          "type": "uint256"
        }
      ],
      "name": "migrate",
      "outputs": [],
      "stateMutability": "nonpayable",
      "type": "function"
    },
    {
      "inputs": [],
      "name": "minAuthorizations",
      "outputs": [
        {
          "internalType": "uint256",
          "name": "",
          "type": "uint256"
        }
      ],
      "stateMutability": "view",
      "type": "function"
    },
    {
      "inputs": [
        {
          "internalType": "bytes32",
          "name": "",
          "type": "bytes32"
        }
      ],
      "name": "pendingActions",
      "outputs": [
        {
          "internalType": "bool",
          "name": "",
          "type": "bool"
        }
      ],
      "stateMutability": "view",
      "type": "function"
    },
    {
      "inputs": [
        {
          "internalType": "address",
          "name": "",
          "type": "address"
        }
      ],
      "name": "prices",
      "outputs": [
        {
          "internalType": "uint256",
          "name": "",
          "type": "uint256"
        }
      ],
      "stateMutability": "view",
      "type": "function"
    },
    {
      "inputs": [
        {
          "internalType": "address",
          "name": "_token",
          "type": "address"
        },
        {
          "internalType": "address",
          "name": "_spender",
          "type": "address"
        },
        {
          "internalType": "uint256",
          "name": "_amount",
          "type": "uint256"
        },
        {
          "internalType": "uint256",
          "name": "_nonce",
          "type": "uint256"
        }
      ],
      "name": "signApprove",
      "outputs": [],
      "stateMutability": "nonpayable",
      "type": "function"
    },
    {
      "inputs": [
        {
          "internalType": "address",
          "name": "_token",
          "type": "address"
        },
        {
          "internalType": "address",
          "name": "_spender",
          "type": "address"
        },
        {
          "internalType": "uint256",
          "name": "_amount",
          "type": "uint256"
        }
      ],
      "name": "signalApprove",
      "outputs": [],
      "stateMutability": "nonpayable",
      "type": "function"
    },
    {
      "inputs": [
        {
          "internalType": "address",
          "name": "",
          "type": "address"
        },
        {
          "internalType": "bytes32",
          "name": "",
          "type": "bytes32"
        }
      ],
      "name": "signedActions",
      "outputs": [
        {
          "internalType": "bool",
          "name": "",
          "type": "bool"
        }
      ],
      "stateMutability": "view",
      "type": "function"
    },
    {
      "inputs": [
        {
          "internalType": "uint256",
          "name": "",
          "type": "uint256"
        }
      ],
      "name": "signers",
      "outputs": [
        {
          "internalType": "address",
          "name": "",
          "type": "address"
        }
      ],
      "stateMutability": "view",
      "type": "function"
    },
    {
      "inputs": [
        {
          "internalType": "address",
          "name": "",
          "type": "address"
        }
      ],
      "name": "tokenAmounts",
      "outputs": [
        {
          "internalType": "uint256",
          "name": "",
          "type": "uint256"
        }
      ],
      "stateMutability": "view",
      "type": "function"
    },
    {
      "inputs": [
        {
          "internalType": "address",
          "name": "",
          "type": "address"
        }
      ],
      "name": "whitelistedTokens",
      "outputs": [
        {
          "internalType": "bool",
          "name": "",
          "type": "bool"
        }
      ],
      "stateMutability": "view",
      "type": "function"
    }
  ],
  "bytecode": "0x60806040526001805461ff00191661010017905534801561001f57600080fd5b5060405161234e38038061234e8339818101604052602081101561004257600080fd5b50516001600055600680546001600160a01b031916331790556002556122e18061006d6000396000f3fe608060405234801561001057600080fd5b50600436106101545760003560e01c80630e913a6c146101595780632079fb9a14610175578063287800c9146101ae578063392e53cd146101c857806341410d4a146101d057806343b45f35146101f65780634dc5ecb31461021c57806364d4b1731461025a57806366d97b211461069f5780636c525d04146106c55780637b0365a7146106cd5780637df73e27146107be5780637efdec32146107e457806387c6d4f91461080a57806390b3c4e714610836578063a0e2e5f61461083e578063a4c04bb714610864578063a9d878ee1461086c578063ad68ebf714610874578063b17b658d146108a0578063cfed246b146108c6578063d02641a0146108ec578063daf9c21014610912578063dce6e18d14610938578063e30569e51461096e578063e699e0481461098b578063f52dc4f7146109b1578063f851a440146109ed575b600080fd5b6101616109f5565b604080519115158252519081900360200190f35b6101926004803603602081101561018b57600080fd5b5035610a03565b604080516001600160a01b039092168252519081900360200190f35b6101b6610a2a565b60408051918252519081900360200190f35b610161610a30565b610192600480360360208110156101e657600080fd5b50356001600160a01b0316610a39565b6101926004803603602081101561020c57600080fd5b50356001600160a01b0316610a54565b6102586004803603608081101561023257600080fd5b506001600160a01b03813581169160208101359091169060408101359060600135610a6f565b005b610258600480360361014081101561027157600080fd5b6001600160a01b0382351691602081013591810190606081016040820135600160201b8111156102a057600080fd5b8201836020820111156102b257600080fd5b803590602001918460208302840111600160201b831117156102d357600080fd5b9190808060200260200160405190810160405280939291908181526020018383602002808284376000920191909152509295949360208101935035915050600160201b81111561032257600080fd5b82018360208201111561033457600080fd5b803590602001918460208302840111600160201b8311171561035557600080fd5b9190808060200260200160405190810160405280939291908181526020018383602002808284376000920191909152509295949360208101935035915050600160201b8111156103a457600080fd5b8201836020820111156103b657600080fd5b803590602001918460208302840111600160201b831117156103d757600080fd5b9190808060200260200160405190810160405280939291908181526020018383602002808284376000920191909152509295949360208101935035915050600160201b81111561042657600080fd5b82018360208201111561043857600080fd5b803590602001918460208302840111600160201b8311171561045957600080fd5b9190808060200260200160405190810160405280939291908181526020018383602002808284376000920191909152509295949360208101935035915050600160201b8111156104a857600080fd5b8201836020820111156104ba57600080fd5b803590602001918460208302840111600160201b831117156104db57600080fd5b9190808060200260200160405190810160405280939291908181526020018383602002808284376000920191909152509295949360208101935035915050600160201b81111561052a57600080fd5b82018360208201111561053c57600080fd5b803590602001918460208302840111600160201b8311171561055d57600080fd5b9190808060200260200160405190810160405280939291908181526020018383602002808284376000920191909152509295949360208101935035915050600160201b8111156105ac57600080fd5b8201836020820111156105be57600080fd5b803590602001918460208302840111600160201b831117156105df57600080fd5b9190808060200260200160405190810160405280939291908181526020018383602002808284376000920191909152509295949360208101935035915050600160201b81111561062e57600080fd5b82018360208201111561064057600080fd5b803590602001918460208302840111600160201b8311171561066157600080fd5b919080806020026020016040519081016040528093929190818152602001838360200280828437600092019190915250929550610c0f945050505050565b6101b6600480360360208110156106b557600080fd5b50356001600160a01b03166110b8565b6102586110ca565b61076e600480360360208110156106e357600080fd5b810190602081018135600160201b8111156106fd57600080fd5b82018360208201111561070f57600080fd5b803590602001918460208302840111600160201b8311171561073057600080fd5b919080806020026020016040519081016040528093929190818152602001838360200280828437600092019190915250929550611124945050505050565b60408051602080825283518183015283519192839290830191858101910280838360005b838110156107aa578181015183820152602001610792565b505050509050019250505060405180910390f35b610161600480360360208110156107d457600080fd5b50356001600160a01b03166111dc565b610192600480360360208110156107fa57600080fd5b50356001600160a01b03166111f1565b6101616004803603604081101561082057600080fd5b506001600160a01b038135169060200135611266565b610192611286565b6101b66004803603602081101561085457600080fd5b50356001600160a01b0316611295565b6101b66112a7565b6101b66112ad565b6102586004803603604081101561088a57600080fd5b506001600160a01b0381351690602001356112b3565b610161600480360360208110156108b657600080fd5b50356001600160a01b031661184e565b6101b6600480360360208110156108dc57600080fd5b50356001600160a01b0316611863565b6101b66004803603602081101561090257600080fd5b50356001600160a01b0316611875565b6101616004803603602081101561092857600080fd5b50356001600160a01b03166118e0565b6102586004803603606081101561094e57600080fd5b506001600160a01b038135811691602081013590911690604001356118f5565b6101616004803603602081101561098457600080fd5b5035611a62565b610192600480360360208110156109a157600080fd5b50356001600160a01b0316611a77565b610258600480360360808110156109c757600080fd5b506001600160a01b03813581169160208101359091169060408101359060600135611a92565b610192611c6b565b600154610100900460ff1681565b60078181548110610a1057fe5b6000918252602090912001546001600160a01b0316905081565b60025481565b60015460ff1681565b600c602052600090815260409020546001600160a01b031681565b6010602052600090815260409020546001600160a01b031681565b60026000541415610ab5576040805162461bcd60e51b815260206004820152601f60248201526000805160206120df833981519152604482015290519081900360640190fd5b60026000556006546001600160a01b03163314610b07576040805162461bcd60e51b815260206004820152601660248201526000805160206121f0833981519152604482015290519081900360640190fd5b6040805166617070726f766560c81b6020808301919091526001600160601b0319606088811b8216602785015287901b16603b830152604f8201859052606f80830185905283518084039091018152608f9092019092528051910120610b6c81611c7a565b610b7581611cca565b846001600160a01b031663095ea7b385856040518363ffffffff1660e01b815260040180836001600160a01b0316815260200182815260200192505050602060405180830381600087803b158015610bcc57600080fd5b505af1158015610be0573d6000803e3d6000fd5b505050506040513d6020811015610bf657600080fd5b50610c0390508183611db0565b50506001600055505050565b6006546001600160a01b03163314610c5c576040805162461bcd60e51b815260206004820152601660248201526000805160206121f0833981519152604482015290519081900360640190fd5b60015460ff1615610cb4576040805162461bcd60e51b815260206004820181905260248201527f476d784d69677261746f723a20616c726561647920696e697469616c697a6564604482015290519081900360640190fd5b8551875114610cf45760405162461bcd60e51b81526004018080602001828103825260268152602001806122366026913960400191505060405180910390fd5b8451875114610d345760405162461bcd60e51b81526004018080602001828103825260238152602001806121cd6023913960400191505060405180910390fd5b8351875114610d745760405162461bcd60e51b81526004018080602001828103825260218152602001806121696021913960400191505060405180910390fd5b8151835114610db45760405162461bcd60e51b81526004018080602001828103825260268152602001806122106026913960400191505060405180910390fd5b8051835114610df45760405162461bcd60e51b815260040180806020018281038252602681526020018061225c6026913960400191505060405180910390fd5b6001805460ff191681179055600380546001600160a01b0319166001600160a01b038c1617905560048990558751610e339060079060208b019061205a565b5060005b8851811015610e8a576000898281518110610e4e57fe5b6020908102919091018101516001600160a01b03166000908152600890915260409020805460ff19166001908117909155919091019050610e37565b5060005b8751811015610fae576000888281518110610ea557fe5b6020908102919091018101516001600160a01b0381166000908152600b9092526040909120805460ff191660011790558851909150889083908110610ee657fe5b6020026020010151600c6000836001600160a01b03166001600160a01b0316815260200190815260200160002060006101000a8154816001600160a01b0302191690836001600160a01b03160217905550868281518110610f4357fe5b6020026020010151600d6000836001600160a01b03166001600160a01b0316815260200190815260200160002081905550858281518110610f8057fe5b6020908102919091018101516001600160a01b039092166000908152600e9091526040902055600101610e8e565b5060005b83518110156110ab576000848281518110610fc957fe5b6020908102919091018101516001600160a01b0381166000908152600f9092526040909120805460ff19166001179055845190915084908390811061100a57fe5b602002602001015160106000836001600160a01b03166001600160a01b0316815260200190815260200160002060006101000a8154816001600160a01b0302191690836001600160a01b0316021790555082828151811061106757fe5b6020908102919091018101516001600160a01b0392831660009081526011909252604090912080546001600160a01b03191692909116919091179055600101610fb2565b5050505050505050505050565b600e6020526000908152604090205481565b6006546001600160a01b03163314611117576040805162461bcd60e51b815260206004820152601660248201526000805160206121f0833981519152604482015290519081900360640190fd5b6001805461ff0019169055565b60608082516001600160401b038111801561113e57600080fd5b50604051908082528060200260200182016040528015611168578160200160208202803683370190505b50905060005b83518110156111d557600084828151811061118557fe5b6020026020010151905060126000826001600160a01b03166001600160a01b03168152602001908152602001600020548383815181106111c157fe5b60209081029190910101525060010161116e565b5092915050565b60086020526000908152604090205460ff1681565b6001600160a01b038082166000908152600c602052604081205490911680611260576040805162461bcd60e51b815260206004820152601e60248201527f476d784d69677261746f723a20696e76616c696420696f7520746f6b656e0000604482015290519081900360640190fd5b92915050565b600a60209081526000928352604080842090915290825290205460ff1681565b6003546001600160a01b031681565b60126020526000908152604090205481565b60055481565b60045481565b600260005414156112f9576040805162461bcd60e51b815260206004820152601f60248201526000805160206120df833981519152604482015290519081900360640190fd5b6002600055600154610100900460ff166113445760405162461bcd60e51b815260040180806020018281038252602a815260200180612282602a913960400191505060405180910390fd5b6001600160a01b0382166000908152600b602052604090205460ff1661139b5760405162461bcd60e51b815260040180806020018281038252602281526020018061218a6022913960400191505060405180910390fd5b600081116113f0576040805162461bcd60e51b815260206004820181905260248201527f476d784d69677261746f723a20696e76616c696420746f6b656e416d6f756e74604482015290519081900360640190fd5b60006113fb83611875565b9050600061141e6004546114188486611e6890919063ffffffff16565b90611ec8565b905060008111611475576040805162461bcd60e51b815260206004820152601f60248201527f476d784d69677261746f723a20696e76616c6964206d696e74416d6f756e7400604482015290519081900360640190fd5b6001600160a01b0384166000908152601260205260409020546114989084611f07565b6001600160a01b0385166000908152601260208181526040808420859055600e825290922054915211611512576040805162461bcd60e51b815260206004820152601f60248201527f476d784d69677261746f723a20746f6b656e2063617020657863656564656400604482015290519081900360640190fd5b604080516323b872dd60e01b81523360048201523060248201526044810185905290516001600160a01b038616916323b872dd9160648083019260209291908290030181600087803b15801561156757600080fd5b505af115801561157b573d6000803e3d6000fd5b505050506040513d602081101561159157600080fd5b50506001600160a01b0384166000908152600f602052604090205460ff16156117b2576001600160a01b0380851660009081526010602090815260408083205460119092529091205490821691168161162f576040805162461bcd60e51b815260206004820152601b60248201527a476d784d69677261746f723a20696e76616c696420746f6b656e4160281b604482015290519081900360640190fd5b6001600160a01b038116611688576040805162461bcd60e51b815260206004820152601b60248201527a23b6bc26b4b3b930ba37b91d1034b73b30b634b2103a37b5b2b72160291b604482015290519081900360640190fd5b6003546040805163095ea7b360e01b81526001600160a01b0392831660048201526024810188905290519188169163095ea7b3916044808201926020929091908290030181600087803b1580156116de57600080fd5b505af11580156116f2573d6000803e3d6000fd5b505050506040513d602081101561170857600080fd5b505060035460408051635d5155ef60e11b81526001600160a01b038581166004830152848116602483015260448201899052600060648301819052608483018190523060a48401524260c48401528351919094169363baa2abde9360e480850194919392918390030190829087803b15801561178357600080fd5b505af1158015611797573d6000803e3d6000fd5b505050506040513d60408110156117ad57600080fd5b505050505b60006117bd856111f1565b9050806001600160a01b03166340c10f1933846040518363ffffffff1660e01b815260040180836001600160a01b0316815260200182815260200192505050602060405180830381600087803b15801561181657600080fd5b505af115801561182a573d6000803e3d6000fd5b505050506040513d602081101561184057600080fd5b505060016000555050505050565b600f6020526000908152604090205460ff1681565b600d6020526000908152604090205481565b6001600160a01b0381166000908152600d602052604081205480611260576040805162461bcd60e51b815260206004820181905260248201527f476d784d69677261746f723a20696e76616c696420746f6b656e207072696365604482015290519081900360640190fd5b600b6020526000908152604090205460ff1681565b6002600054141561193b576040805162461bcd60e51b815260206004820152601f60248201526000805160206120df833981519152604482015290519081900360640190fd5b60026000556006546001600160a01b0316331461198d576040805162461bcd60e51b815260206004820152601660248201526000805160206121f0833981519152604482015290519081900360640190fd5b60058054600101908190556040805166617070726f766560c81b6020808301919091526001600160601b0319606088811b8216602785015287901b16603b830152604f8201859052606f80830185905283518084039091018152608f90920190925280519101206119fe8183611f5f565b604080516001600160a01b03808816825286166020820152808201859052606081018390526080810184905290517fc19251bf5f704ddc3d5babe6f4e5bde0dded20b19f7844716861821ab3163cd79181900360a00190a150506001600055505050565b60096020526000908152604090205460ff1681565b6011602052600090815260409020546001600160a01b031681565b60026000541415611ad8576040805162461bcd60e51b815260206004820152601f60248201526000805160206120df833981519152604482015290519081900360640190fd5b600260009081553381526008602052604090205460ff16611b2e576040805162461bcd60e51b815260206004820152601660248201526000805160206121f0833981519152604482015290519081900360640190fd5b6040805166617070726f766560c81b6020808301919091526001600160601b0319606088811b8216602785015287901b16603b830152604f8201859052606f80830185905283518084039091018152608f9092019092528051910120611b9381611c7a565b336000908152600a6020908152604080832084845290915290205460ff1615611c01576040805162461bcd60e51b815260206004820152601b60248201527a11db5e135a59dc985d1bdc8e88185b1c9958591e481cda59db9959602a1b604482015290519081900360640190fd5b336000908152600a60209081526040808320848452825291829020805460ff19166001179055815183815290810184905281517faae28fe5531fe5dfb8d12409392ec67b50c825dd06233312cb6aeaddd16cbd22929181900390910190a150506001600055505050565b6006546001600160a01b031681565b60008181526009602052604090205460ff16611cc75760405162461bcd60e51b81526004018080602001828103825260218152602001806120ff6021913960400191505060405180910390fd5b50565b6000805b600754811015611d2e57600060078281548110611ce757fe5b60009182526020808320909101546001600160a01b0316808352600a8252604080842088855290925291205490915060ff1615611d25576001909201915b50600101611cce565b5080611d6b5760405162461bcd60e51b81526004018080602001828103825260228152602001806121476022913960400191505060405180910390fd5b600254811015611dac5760405162461bcd60e51b81526004018080602001828103825260278152602001806121206027913960400191505060405180910390fd5b5050565b60008281526009602052604090205460ff16611e12576040805162461bcd60e51b815260206004820152601c60248201527b23b6bc26b4b3b930ba37b91d1034b73b30b634b2102fb0b1ba34b7b760211b604482015290519081900360640190fd5b600082815260096020908152604091829020805460ff19169055815184815290810183905281517ff4640d39061e643d9b802cb3725953405344555ad6dbb1cbdb0495f3eccb8e68929181900390910190a15050565b600082611e7757506000611260565b82820282848281611e8457fe5b0414611ec15760405162461bcd60e51b81526004018080602001828103825260218152602001806121ac6021913960400191505060405180910390fd5b9392505050565b6000611ec183836040518060400160405280601a815260200179536166654d6174683a206469766973696f6e206279207a65726f60301b815250611fb8565b600082820183811015611ec1576040805162461bcd60e51b815260206004820152601b60248201527a536166654d6174683a206164646974696f6e206f766572666c6f7760281b604482015290519081900360640190fd5b600082815260096020908152604091829020805460ff19166001179055815184815290810183905281517f64df01c46eb530dc540770a0b88cc32f0b8c2b371a546ae0b13cc8ca6671fff9929181900390910190a15050565b600081836120445760405162461bcd60e51b81526004018080602001828103825283818151815260200191508051906020019080838360005b83811015612009578181015183820152602001611ff1565b50505050905090810190601f1680156120365780820380516001836020036101000a031916815260200191505b509250505060405180910390fd5b50600083858161205057fe5b0495945050505050565b8280548282559060005260206000209081019282156120af579160200282015b828111156120af57825182546001600160a01b0319166001600160a01b0390911617825560209092019160019091019061207a565b506120bb9291506120bf565b5090565b5b808211156120bb5780546001600160a01b03191681556001016120c056fe5265656e7472616e637947756172643a207265656e7472616e742063616c6c00476d784d69677261746f723a20616374696f6e206e6f74207369676e616c6c6564476d784d69677261746f723a20696e73756666696369656e7420617574686f72697a6174696f6e476d784d69677261746f723a20616374696f6e206e6f7420617574686f72697a6564476d784d69677261746f723a20696e76616c6964205f636170732e6c656e677468476d784d69677261746f723a20746f6b656e206e6f742077686974656c6973746564536166654d6174683a206d756c7469706c69636174696f6e206f766572666c6f77476d784d69677261746f723a20696e76616c6964205f7072696365732e6c656e677468476d784d69677261746f723a20666f7262696464656e00000000000000000000476d784d69677261746f723a20696e76616c6964205f6c70546f6b656e41732e6c656e677468476d784d69677261746f723a20696e76616c6964205f696f75546f6b656e732e6c656e677468476d784d69677261746f723a20696e76616c6964205f6c70546f6b656e42732e6c656e677468476d784d69677261746f723a206d6967726174696f6e206973206e6f206c6f6e67657220616374697665a264697066735822122058dbfada37bad7a84b3d30e6f4e36c9b55cd28e697bc5eaed8c627008a2d902c64736f6c634300060c0033",
  "linkReferences": {},
  "deployedLinkReferences": {}
}