{
  "address": "0x2A29D3a792000750807cc401806d6fd539928481",
  "abi": [
    {
      "inputs": [
        {
          "internalType": "contract RoleStore",
          "name": "roleStore_",
          "type": "address"
        },
        {
          "internalType": "string",
          "name": "name_",
          "type": "string"
        },
        {
          "internalType": "string",
          "name": "symbol_",
          "type": "string"
        },
        {
          "internalType": "uint8",
          "name": "decimals_",
          "type": "uint8"
        }
      ],
      "stateMutability": "nonpayable",
      "type": "constructor"
    },
    {
      "inputs": [],
      "name": "InvalidShortString",
      "type": "error"
    },
    {
      "inputs": [
        {
          "internalType": "string",
          "name": "str",
          "type": "string"
        }
      ],
      "name": "StringTooLong",
      "type": "error"
    },
    {
      "inputs": [
        {
          "internalType": "address",
          "name": "msgSender",
          "type": "address"
        },
        {
          "internalType": "string",
          "name": "role",
          "type": "string"
        }
      ],
      "name": "Unauthorized",
      "type": "error"
    },
    {
      "anonymous": false,
      "inputs": [
        {
          "indexed": true,
          "internalType": "address",
          "name": "owner",
          "type": "address"
        },
        {
          "indexed": true,
          "internalType": "address",
          "name": "spender",
          "type": "address"
        },
        {
          "indexed": false,
          "internalType": "uint256",
          "name": "value",
          "type": "uint256"
        }
      ],
      "name": "Approval",
      "type": "event"
    },
    {
      "anonymous": false,
      "inputs": [
        {
          "indexed": true,
          "internalType": "address",
          "name": "delegator",
          "type": "address"
        },
        {
          "indexed": true,
          "internalType": "address",
          "name": "fromDelegate",
          "type": "address"
        },
        {
          "indexed": true,
          "internalType": "address",
          "name": "toDelegate",
          "type": "address"
        }
      ],
      "name": "DelegateChanged",
      "type": "event"
    },
    {
      "anonymous": false,
      "inputs": [
        {
          "indexed": true,
          "internalType": "address",
          "name": "delegate",
          "type": "address"
        },
        {
          "indexed": false,
          "internalType": "uint256",
          "name": "previousBalance",
          "type": "uint256"
        },
        {
          "indexed": false,
          "internalType": "uint256",
          "name": "newBalance",
          "type": "uint256"
        }
      ],
      "name": "DelegateVotesChanged",
      "type": "event"
    },
    {
      "anonymous": false,
      "inputs": [],
      "name": "EIP712DomainChanged",
      "type": "event"
    },
    {
      "anonymous": false,
      "inputs": [
        {
          "indexed": true,
          "internalType": "address",
          "name": "from",
          "type": "address"
        },
        {
          "indexed": true,
          "internalType": "address",
          "name": "to",
          "type": "address"
        },
        {
          "indexed": false,
          "internalType": "uint256",
          "name": "value",
          "type": "uint256"
        }
      ],
      "name": "Transfer",
      "type": "event"
    },
    {
      "inputs": [],
      "name": "CLOCK_MODE",
      "outputs": [
        {
          "internalType": "string",
          "name": "",
          "type": "string"
        }
      ],
      "stateMutability": "view",
      "type": "function"
    },
    {
      "inputs": [],
      "name": "DOMAIN_SEPARATOR",
      "outputs": [
        {
          "internalType": "bytes32",
          "name": "",
          "type": "bytes32"
        }
      ],
      "stateMutability": "view",
      "type": "function"
    },
    {
      "inputs": [
        {
          "internalType": "address",
          "name": "owner",
          "type": "address"
        },
        {
          "internalType": "address",
          "name": "spender",
          "type": "address"
        }
      ],
      "name": "allowance",
      "outputs": [
        {
          "internalType": "uint256",
          "name": "",
          "type": "uint256"
        }
      ],
      "stateMutability": "view",
      "type": "function"
    },
    {
      "inputs": [
        {
          "internalType": "address",
          "name": "spender",
          "type": "address"
        },
        {
          "internalType": "uint256",
          "name": "amount",
          "type": "uint256"
        }
      ],
      "name": "approve",
      "outputs": [
        {
          "internalType": "bool",
          "name": "",
          "type": "bool"
        }
      ],
      "stateMutability": "nonpayable",
      "type": "function"
    },
    {
      "inputs": [
        {
          "internalType": "address",
          "name": "account",
          "type": "address"
        }
      ],
      "name": "balanceOf",
      "outputs": [
        {
          "internalType": "uint256",
          "name": "",
          "type": "uint256"
        }
      ],
      "stateMutability": "view",
      "type": "function"
    },
    {
      "inputs": [
        {
          "internalType": "address",
          "name": "account",
          "type": "address"
        },
        {
          "internalType": "uint256",
          "name": "amount",
          "type": "uint256"
        }
      ],
      "name": "burn",
      "outputs": [],
      "stateMutability": "nonpayable",
      "type": "function"
    },
    {
      "inputs": [
        {
          "internalType": "address",
          "name": "account",
          "type": "address"
        },
        {
          "internalType": "uint32",
          "name": "pos",
          "type": "uint32"
        }
      ],
      "name": "checkpoints",
      "outputs": [
        {
          "components": [
            {
              "internalType": "uint32",
              "name": "fromBlock",
              "type": "uint32"
            },
            {
              "internalType": "uint224",
              "name": "votes",
              "type": "uint224"
            }
          ],
          "internalType": "struct ERC20Votes.Checkpoint",
          "name": "",
          "type": "tuple"
        }
      ],
      "stateMutability": "view",
      "type": "function"
    },
    {
      "inputs": [],
      "name": "clock",
      "outputs": [
        {
          "internalType": "uint48",
          "name": "",
          "type": "uint48"
        }
      ],
      "stateMutability": "view",
      "type": "function"
    },
    {
      "inputs": [],
      "name": "decimals",
      "outputs": [
        {
          "internalType": "uint8",
          "name": "",
          "type": "uint8"
        }
      ],
      "stateMutability": "view",
      "type": "function"
    },
    {
      "inputs": [
        {
          "internalType": "address",
          "name": "spender",
          "type": "address"
        },
        {
          "internalType": "uint256",
          "name": "subtractedValue",
          "type": "uint256"
        }
      ],
      "name": "decreaseAllowance",
      "outputs": [
        {
          "internalType": "bool",
          "name": "",
          "type": "bool"
        }
      ],
      "stateMutability": "nonpayable",
      "type": "function"
    },
    {
      "inputs": [
        {
          "internalType": "address",
          "name": "delegatee",
          "type": "address"
        }
      ],
      "name": "delegate",
      "outputs": [],
      "stateMutability": "nonpayable",
      "type": "function"
    },
    {
      "inputs": [
        {
          "internalType": "address",
          "name": "delegatee",
          "type": "address"
        },
        {
          "internalType": "uint256",
          "name": "nonce",
          "type": "uint256"
        },
        {
          "internalType": "uint256",
          "name": "expiry",
          "type": "uint256"
        },
        {
          "internalType": "uint8",
          "name": "v",
          "type": "uint8"
        },
        {
          "internalType": "bytes32",
          "name": "r",
          "type": "bytes32"
        },
        {
          "internalType": "bytes32",
          "name": "s",
          "type": "bytes32"
        }
      ],
      "name": "delegateBySig",
      "outputs": [],
      "stateMutability": "nonpayable",
      "type": "function"
    },
    {
      "inputs": [
        {
          "internalType": "address",
          "name": "account",
          "type": "address"
        }
      ],
      "name": "delegates",
      "outputs": [
        {
          "internalType": "address",
          "name": "",
          "type": "address"
        }
      ],
      "stateMutability": "view",
      "type": "function"
    },
    {
      "inputs": [],
      "name": "eip712Domain",
      "outputs": [
        {
          "internalType": "bytes1",
          "name": "fields",
          "type": "bytes1"
        },
        {
          "internalType": "string",
          "name": "name",
          "type": "string"
        },
        {
          "internalType": "string",
          "name": "version",
          "type": "string"
        },
        {
          "internalType": "uint256",
          "name": "chainId",
          "type": "uint256"
        },
        {
          "internalType": "address",
          "name": "verifyingContract",
          "type": "address"
        },
        {
          "internalType": "bytes32",
          "name": "salt",
          "type": "bytes32"
        },
        {
          "internalType": "uint256[]",
          "name": "extensions",
          "type": "uint256[]"
        }
      ],
      "stateMutability": "view",
      "type": "function"
    },
    {
      "inputs": [
        {
          "internalType": "uint256",
          "name": "timepoint",
          "type": "uint256"
        }
      ],
      "name": "getPastTotalSupply",
      "outputs": [
        {
          "internalType": "uint256",
          "name": "",
          "type": "uint256"
        }
      ],
      "stateMutability": "view",
      "type": "function"
    },
    {
      "inputs": [
        {
          "internalType": "address",
          "name": "account",
          "type": "address"
        },
        {
          "internalType": "uint256",
          "name": "timepoint",
          "type": "uint256"
        }
      ],
      "name": "getPastVotes",
      "outputs": [
        {
          "internalType": "uint256",
          "name": "",
          "type": "uint256"
        }
      ],
      "stateMutability": "view",
      "type": "function"
    },
    {
      "inputs": [
        {
          "internalType": "address",
          "name": "account",
          "type": "address"
        }
      ],
      "name": "getVotes",
      "outputs": [
        {
          "internalType": "uint256",
          "name": "",
          "type": "uint256"
        }
      ],
      "stateMutability": "view",
      "type": "function"
    },
    {
      "inputs": [
        {
          "internalType": "address",
          "name": "spender",
          "type": "address"
        },
        {
          "internalType": "uint256",
          "name": "addedValue",
          "type": "uint256"
        }
      ],
      "name": "increaseAllowance",
      "outputs": [
        {
          "internalType": "bool",
          "name": "",
          "type": "bool"
        }
      ],
      "stateMutability": "nonpayable",
      "type": "function"
    },
    {
      "inputs": [
        {
          "internalType": "address",
          "name": "account",
          "type": "address"
        },
        {
          "internalType": "uint256",
          "name": "amount",
          "type": "uint256"
        }
      ],
      "name": "mint",
      "outputs": [],
      "stateMutability": "nonpayable",
      "type": "function"
    },
    {
      "inputs": [],
      "name": "name",
      "outputs": [
        {
          "internalType": "string",
          "name": "",
          "type": "string"
        }
      ],
      "stateMutability": "view",
      "type": "function"
    },
    {
      "inputs": [
        {
          "internalType": "address",
          "name": "owner",
          "type": "address"
        }
      ],
      "name": "nonces",
      "outputs": [
        {
          "internalType": "uint256",
          "name": "",
          "type": "uint256"
        }
      ],
      "stateMutability": "view",
      "type": "function"
    },
    {
      "inputs": [
        {
          "internalType": "address",
          "name": "account",
          "type": "address"
        }
      ],
      "name": "numCheckpoints",
      "outputs": [
        {
          "internalType": "uint32",
          "name": "",
          "type": "uint32"
        }
      ],
      "stateMutability": "view",
      "type": "function"
    },
    {
      "inputs": [
        {
          "internalType": "address",
          "name": "owner",
          "type": "address"
        },
        {
          "internalType": "address",
          "name": "spender",
          "type": "address"
        },
        {
          "internalType": "uint256",
          "name": "value",
          "type": "uint256"
        },
        {
          "internalType": "uint256",
          "name": "deadline",
          "type": "uint256"
        },
        {
          "internalType": "uint8",
          "name": "v",
          "type": "uint8"
        },
        {
          "internalType": "bytes32",
          "name": "r",
          "type": "bytes32"
        },
        {
          "internalType": "bytes32",
          "name": "s",
          "type": "bytes32"
        }
      ],
      "name": "permit",
      "outputs": [],
      "stateMutability": "nonpayable",
      "type": "function"
    },
    {
      "inputs": [],
      "name": "roleStore",
      "outputs": [
        {
          "internalType": "contract RoleStore",
          "name": "",
          "type": "address"
        }
      ],
      "stateMutability": "view",
      "type": "function"
    },
    {
      "inputs": [],
      "name": "symbol",
      "outputs": [
        {
          "internalType": "string",
          "name": "",
          "type": "string"
        }
      ],
      "stateMutability": "view",
      "type": "function"
    },
    {
      "inputs": [],
      "name": "totalSupply",
      "outputs": [
        {
          "internalType": "uint256",
          "name": "",
          "type": "uint256"
        }
      ],
      "stateMutability": "view",
      "type": "function"
    },
    {
      "inputs": [
        {
          "internalType": "address",
          "name": "to",
          "type": "address"
        },
        {
          "internalType": "uint256",
          "name": "amount",
          "type": "uint256"
        }
      ],
      "name": "transfer",
      "outputs": [
        {
          "internalType": "bool",
          "name": "",
          "type": "bool"
        }
      ],
      "stateMutability": "nonpayable",
      "type": "function"
    },
    {
      "inputs": [
        {
          "internalType": "address",
          "name": "from",
          "type": "address"
        },
        {
          "internalType": "address",
          "name": "to",
          "type": "address"
        },
        {
          "internalType": "uint256",
          "name": "amount",
          "type": "uint256"
        }
      ],
      "name": "transferFrom",
      "outputs": [
        {
          "internalType": "bool",
          "name": "",
          "type": "bool"
        }
      ],
      "stateMutability": "nonpayable",
      "type": "function"
    }
  ],
  "transactionHash": "0xf41d2b874807c8dea4d0b21d1215669c990495bda5cdfa8ef7bb822e6edf3043",
  "args": [
    "0x3c3d99FD298f679DBC2CEcd132b4eC4d0F5e6e72",
    "GMX DAO",
    "GMX_DAO",
    18
  ],
  "numDeployments": 1,
  "solcInputHash": "ddb2cd26020caa6335eda5082c5c80ae",
  "bytecode": "0x6101806040523480156200001257600080fd5b5060405162002ab138038062002ab18339810160408190526200003591620002de565b838380604051806040016040528060018152602001603160f81b8152508686816003908162000065919062000411565b50600462000074828262000411565b505050620000926005836200017260201b62000c0b1790919060201c565b61012052620000af81600662000172602090811b62000c0b17901c565b61014052815160208084019190912060e052815190820120610100524660a0526200013d60e05161010051604080517f8b73c3c69bb8fe3d512ecc4cf759cc79239f7b179b0ffacaa9a75d522b39400f60208201529081019290925260608201524660808201523060a082015260009060c00160405160208183030381529060405280519060200120905090565b60805250503060c052506001600160a01b031661016052600c805460ff191660ff929092169190911790555062000537915050565b600060208351101562000192576200018a83620001c2565b9050620001bc565b82620001a9836200020e60201b62000c3c1760201c565b90620001b6908262000411565b5060ff90505b92915050565b600080829050601f81511115620001f9578260405163305a27a960e01b8152600401620001f09190620004dd565b60405180910390fd5b8051620002068262000512565b179392505050565b90565b634e487b7160e01b600052604160045260246000fd5b60005b83811015620002445781810151838201526020016200022a565b50506000910152565b600082601f8301126200025f57600080fd5b81516001600160401b03808211156200027c576200027c62000211565b604051601f8301601f19908116603f01168101908282118183101715620002a757620002a762000211565b81604052838152866020858801011115620002c157600080fd5b620002d484602083016020890162000227565b9695505050505050565b60008060008060808587031215620002f557600080fd5b84516001600160a01b03811681146200030d57600080fd5b60208601519094506001600160401b03808211156200032b57600080fd5b62000339888389016200024d565b945060408701519150808211156200035057600080fd5b506200035f878288016200024d565b925050606085015160ff811681146200037757600080fd5b939692955090935050565b600181811c908216806200039757607f821691505b602082108103620003b857634e487b7160e01b600052602260045260246000fd5b50919050565b601f8211156200040c57600081815260208120601f850160051c81016020861015620003e75750805b601f850160051c820191505b818110156200040857828155600101620003f3565b5050505b505050565b81516001600160401b038111156200042d576200042d62000211565b62000445816200043e845462000382565b84620003be565b602080601f8311600181146200047d5760008415620004645750858301515b600019600386901b1c1916600185901b17855562000408565b600085815260208120601f198616915b82811015620004ae578886015182559484019460019091019084016200048d565b5085821015620004cd5787850151600019600388901b60f8161c191681555b5050505050600190811b01905550565b6020815260008251806020840152620004fe81604085016020870162000227565b601f01601f19169190910160400192915050565b80516020808301519190811015620003b85760001960209190910360031b1b16919050565b60805160a05160c05160e0516101005161012051610140516101605161250d620005a46000396000818161021c0152611026015260006106fc015260006106d101526000610ed901526000610eb101526000610e0c01526000610e3601526000610e60015261250d6000f3fe608060405234801561001057600080fd5b50600436106101545760003560e01c806306fdde0314610159578063095ea7b31461017757806318160ddd1461019a57806323b872dd146101ac578063313ce567146101bf5780633644e515146101d457806339509351146101dc5780633a46b1a8146101ef57806340c10f19146102025780634a4a7b04146102175780634bf5d7e914610256578063587cde1e1461025e5780635c19a95c146102715780636fcfff451461028457806370a08231146102ac5780637ecebe00146102bf57806384b0196e146102d25780638e539e8c146102ed57806391ddadf41461030057806395d89b411461031f5780639ab24eb0146103275780639dc29fac1461033a578063a457c2d71461034d578063a9059cbb14610360578063c3cda52014610373578063d505accf14610386578063dd62ed3e14610399578063f1127ed8146103ac575b600080fd5b6101616103e9565b60405161016e9190611f28565b60405180910390f35b61018a610185366004611f57565b61047b565b604051901515815260200161016e565b6002545b60405190815260200161016e565b61018a6101ba366004611f81565b610495565b600c5460405160ff909116815260200161016e565b61019e6104b9565b61018a6101ea366004611f57565b6104c8565b61019e6101fd366004611f57565b6104ea565b610215610210366004611f57565b61054c565b005b61023e7f000000000000000000000000000000000000000000000000000000000000000081565b6040516001600160a01b03909116815260200161016e565b6101616105b4565b61023e61026c366004611fbd565b61063d565b61021561027f366004611fbd565b61065b565b610297610292366004611fbd565b610668565b60405163ffffffff909116815260200161016e565b61019e6102ba366004611fbd565b61068a565b61019e6102cd366004611fbd565b6106a5565b6102da6106c3565b60405161016e9796959493929190611fd8565b61019e6102fb36600461206e565b61074c565b610308610787565b60405165ffffffffffff909116815260200161016e565b610161610792565b61019e610335366004611fbd565b6107a1565b610215610348366004611f57565b610822565b61018a61035b366004611f57565b61083e565b61018a61036e366004611f57565b6108b9565b610215610381366004612098565b6108c7565b6102156103943660046120f0565b6109f9565b61019e6103a736600461215a565b610b5d565b6103bf6103ba36600461218d565b610b88565b60408051825163ffffffff1681526020928301516001600160e01b0316928101929092520161016e565b6060600380546103f8906121cd565b80601f0160208091040260200160405190810160405280929190818152602001828054610424906121cd565b80156104715780601f1061044657610100808354040283529160200191610471565b820191906000526020600020905b81548152906001019060200180831161045457829003601f168201915b5050505050905090565b600033610489818585610c3f565b60019150505b92915050565b6000336104a3858285610d63565b6104ae858585610ddd565b506001949350505050565b60006104c3610dff565b905090565b6000336104898185856104db8383610b5d565b6104e59190612217565b610c3f565b60006104f4610787565b65ffffffffffff1682106105235760405162461bcd60e51b815260040161051a9061222a565b60405180910390fd5b6001600160a01b0383166000908152600a602052604090206105459083610f2a565b9392505050565b6105a660405160200161055e9061225d565b604051602081830303815290604052805190602001206040518060400160405280601481526020017323a7ab2faa27a5a2a72fa1a7a72a2927a62622a960611b81525061100a565b6105b082826110ba565b5050565b6060426105bf610787565b65ffffffffffff16146106145760405162461bcd60e51b815260206004820152601d60248201527f4552433230566f7465733a2062726f6b656e20636c6f636b206d6f6465000000604482015260640161051a565b5060408051808201909152600e81526d06d6f64653d74696d657374616d760941b602082015290565b6001600160a01b039081166000908152600960205260409020541690565b61066533826110c4565b50565b6001600160a01b0381166000908152600a602052604081205461048f90611144565b6001600160a01b031660009081526020819052604090205490565b6001600160a01b03811660009081526007602052604081205461048f565b6000606080828080836106f77f000000000000000000000000000000000000000000000000000000000000000060056111ad565b6107227f000000000000000000000000000000000000000000000000000000000000000060066111ad565b60408051600080825260208201909252600f60f81b9b939a50919850469750309650945092509050565b6000610756610787565b65ffffffffffff16821061077c5760405162461bcd60e51b815260040161051a9061222a565b61048f600b83610f2a565b60006104c342611251565b6060600480546103f8906121cd565b6001600160a01b0381166000908152600a6020526040812054801561080f576001600160a01b0383166000908152600a60205260409020805460001983019081106107ee576107ee6122a1565b600091825260209091200154600160201b90046001600160e01b0316610812565b60005b6001600160e01b03169392505050565b61083460405160200161055e9061225d565b6105b082826112b8565b6000338161084c8286610b5d565b9050838110156108ac5760405162461bcd60e51b815260206004820152602560248201527f45524332303a2064656372656173656420616c6c6f77616e63652062656c6f77604482015264207a65726f60d81b606482015260840161051a565b6104ae8286868403610c3f565b600033610489818585610ddd565b834211156109175760405162461bcd60e51b815260206004820152601d60248201527f4552433230566f7465733a207369676e61747572652065787069726564000000604482015260640161051a565b604080517fe48329057bfd03d55e49b547132e39cffd9c1820ad7b9d4c5307691425d15adf60208201526001600160a01b038816918101919091526060810186905260808101859052600090610991906109899060a001604051602081830303815290604052805190602001206112c2565b8585856112ef565b905061099c81611317565b86146109e65760405162461bcd60e51b81526020600482015260196024820152784552433230566f7465733a20696e76616c6964206e6f6e636560381b604482015260640161051a565b6109f081886110c4565b50505050505050565b83421115610a495760405162461bcd60e51b815260206004820152601d60248201527f45524332305065726d69743a206578706972656420646561646c696e65000000604482015260640161051a565b60007f6e71edae12b1b97f4d1f60370fef10105fa2faae0126114a169c64845d6126c9888888610a788c611317565b6040805160208101969096526001600160a01b0394851690860152929091166060840152608083015260a082015260c0810186905260e0016040516020818303038152906040528051906020012090506000610ad3826112c2565b90506000610ae3828787876112ef565b9050896001600160a01b0316816001600160a01b031614610b465760405162461bcd60e51b815260206004820152601e60248201527f45524332305065726d69743a20696e76616c6964207369676e61747572650000604482015260640161051a565b610b518a8a8a610c3f565b50505050505050505050565b6001600160a01b03918216600090815260016020908152604080832093909416825291909152205490565b60408051808201909152600080825260208201526001600160a01b0383166000908152600a60205260409020805463ffffffff8416908110610bcc57610bcc6122a1565b60009182526020918290206040805180820190915291015463ffffffff81168252600160201b90046001600160e01b0316918101919091529392505050565b6000602083511015610c2757610c208361133f565b905061048f565b81610c328482612305565b5060ff905061048f565b90565b6001600160a01b038316610ca15760405162461bcd60e51b8152602060048201526024808201527f45524332303a20617070726f76652066726f6d20746865207a65726f206164646044820152637265737360e01b606482015260840161051a565b6001600160a01b038216610d025760405162461bcd60e51b815260206004820152602260248201527f45524332303a20617070726f766520746f20746865207a65726f206164647265604482015261737360f01b606482015260840161051a565b6001600160a01b0383811660008181526001602090815260408083209487168084529482529182902085905590518481527f8c5be1e5ebec7d5bd14f71427d1e84f3dd0314c0f7b2291e5b200ac8c7c3b925910160405180910390a3505050565b6000610d6f8484610b5d565b90506000198114610dd75781811015610dca5760405162461bcd60e51b815260206004820152601d60248201527f45524332303a20696e73756666696369656e7420616c6c6f77616e6365000000604482015260640161051a565b610dd78484848403610c3f565b50505050565b610def60405160200161055e9061225d565b610dfa83838361137d565b505050565b6000306001600160a01b037f000000000000000000000000000000000000000000000000000000000000000016148015610e5857507f000000000000000000000000000000000000000000000000000000000000000046145b15610e8257507f000000000000000000000000000000000000000000000000000000000000000090565b6104c3604080517f8b73c3c69bb8fe3d512ecc4cf759cc79239f7b179b0ffacaa9a75d522b39400f60208201527f0000000000000000000000000000000000000000000000000000000000000000918101919091527f000000000000000000000000000000000000000000000000000000000000000060608201524660808201523060a082015260009060c00160405160208183030381529060405280519060200120905090565b815460009081816005811115610f81576000610f4584611515565b610f4f90856123c4565b905085610f5c88836115fd565b5463ffffffff161115610f7157809150610f7f565b610f7c816001612217565b92505b505b80821015610fcb576000610f95838361160b565b905085610fa288836115fd565b5463ffffffff161115610fb757809150610fc5565b610fc2816001612217565b92505b50610f81565b8015610ff457610fde86600183036115fd565b54600160201b90046001600160e01b0316610ff7565b60005b6001600160e01b03169695505050505050565b60405163ac4ab3fb60e01b8152336004820152602481018390527f00000000000000000000000000000000000000000000000000000000000000006001600160a01b03169063ac4ab3fb90604401602060405180830381865afa158015611075573d6000803e3d6000fd5b505050506040513d601f19601f8201168201806040525081019061109991906123d7565b6105b057338160405163a35b150b60e01b815260040161051a9291906123f9565b6105b08282611626565b60006110cf8361063d565b905060006110dc8461068a565b6001600160a01b0385811660008181526009602052604080822080546001600160a01b031916898616908117909155905194955093928616927f3134e8a2e6d97e929a7e54011ea5485d7d196dd5f0ba4d4ef95803e8e3fc257f9190a4610dd78284836116b0565b600063ffffffff8211156111a95760405162461bcd60e51b815260206004820152602660248201527f53616665436173743a2076616c756520646f65736e27742066697420696e203360448201526532206269747360d01b606482015260840161051a565b5090565b606060ff83146111c057610c20836117c9565b8180546111cc906121cd565b80601f01602080910402602001604051908101604052809291908181526020018280546111f8906121cd565b80156112455780601f1061121a57610100808354040283529160200191611245565b820191906000526020600020905b81548152906001019060200180831161122857829003601f168201915b5050505050905061048f565b600065ffffffffffff8211156111a95760405162461bcd60e51b815260206004820152602660248201527f53616665436173743a2076616c756520646f65736e27742066697420696e203460448201526538206269747360d01b606482015260840161051a565b6105b08282611808565b600061048f6112cf610dff565b8360405161190160f01b8152600281019290925260228201526042902090565b600080600061130087878787611820565b9150915061130d816118da565b5095945050505050565b6001600160a01b03811660009081526007602052604090208054600181018255905b50919050565b600080829050601f8151111561136a578260405163305a27a960e01b815260040161051a9190611f28565b805161137582612425565b179392505050565b6001600160a01b0383166113e15760405162461bcd60e51b815260206004820152602560248201527f45524332303a207472616e736665722066726f6d20746865207a65726f206164604482015264647265737360d81b606482015260840161051a565b6001600160a01b0382166114435760405162461bcd60e51b815260206004820152602360248201527f45524332303a207472616e7366657220746f20746865207a65726f206164647260448201526265737360e81b606482015260840161051a565b6001600160a01b038316600090815260208190526040902054818110156114bb5760405162461bcd60e51b815260206004820152602660248201527f45524332303a207472616e7366657220616d6f756e7420657863656564732062604482015265616c616e636560d01b606482015260840161051a565b6001600160a01b0384811660008181526020818152604080832087870390559387168083529184902080548701905592518581529092600080516020612498833981519152910160405180910390a3610dd7848484611a1f565b60008160000361152757506000919050565b6000600161153484611a2a565b901c6001901b9050600181848161154d5761154d612449565b048201901c9050600181848161156557611565612449565b048201901c9050600181848161157d5761157d612449565b048201901c9050600181848161159557611595612449565b048201901c905060018184816115ad576115ad612449565b048201901c905060018184816115c5576115c5612449565b048201901c905060018184816115dd576115dd612449565b048201901c9050610545818285816115f7576115f7612449565b04611abe565b600091825260209091200190565b600061161a600284841861245f565b61054590848416612217565b6116308282611ad4565b6002546001600160e01b0310156116a25760405162461bcd60e51b815260206004820152603060248201527f4552433230566f7465733a20746f74616c20737570706c79207269736b73206f60448201526f766572666c6f77696e6720766f74657360801b606482015260840161051a565b610dd7600b611b8983611b95565b816001600160a01b0316836001600160a01b0316141580156116d25750600081115b15610dfa576001600160a01b0383161561174e576001600160a01b0383166000908152600a60205260408120819061170d90611d0385611b95565b91509150846001600160a01b03166000805160206124b88339815191528383604051611743929190918252602082015260400190565b60405180910390a250505b6001600160a01b03821615610dfa576001600160a01b0382166000908152600a60205260408120819061178490611b8985611b95565b91509150836001600160a01b03166000805160206124b883398151915283836040516117ba929190918252602082015260400190565b60405180910390a25050505050565b606060006117d683611d0f565b604080516020808252818301909252919250600091906020820181803683375050509182525060208101929092525090565b6118128282611d37565b610dd7600b611d0383611b95565b6000806fa2a8918ca85bafe22016d0b997e4df60600160ff1b0383111561184d57506000905060036118d1565b6040805160008082526020820180845289905260ff881692820192909252606081018690526080810185905260019060a0016020604051602081039080840390855afa1580156118a1573d6000803e3d6000fd5b5050604051601f1901519150506001600160a01b0381166118ca576000600192509250506118d1565b9150600090505b94509492505050565b60008160048111156118ee576118ee612481565b036118f65750565b600181600481111561190a5761190a612481565b036119525760405162461bcd60e51b815260206004820152601860248201527745434453413a20696e76616c6964207369676e617475726560401b604482015260640161051a565b600281600481111561196657611966612481565b036119b35760405162461bcd60e51b815260206004820152601f60248201527f45434453413a20696e76616c6964207369676e6174757265206c656e67746800604482015260640161051a565b60038160048111156119c7576119c7612481565b036106655760405162461bcd60e51b815260206004820152602260248201527f45434453413a20696e76616c6964207369676e6174757265202773272076616c604482015261756560f01b606482015260840161051a565b610dfa838383611e5e565b600080608083901c15611a3f57608092831c92015b604083901c15611a5157604092831c92015b602083901c15611a6357602092831c92015b601083901c15611a7557601092831c92015b600883901c15611a8757600892831c92015b600483901c15611a9957600492831c92015b600283901c15611aab57600292831c92015b600183901c1561048f5760010192915050565b6000818310611acd5781610545565b5090919050565b6001600160a01b038216611b2a5760405162461bcd60e51b815260206004820152601f60248201527f45524332303a206d696e7420746f20746865207a65726f206164647265737300604482015260640161051a565b8060026000828254611b3c9190612217565b90915550506001600160a01b03821660008181526020818152604080832080548601905551848152600080516020612498833981519152910160405180910390a36105b060008383611a1f565b60006105458284612217565b82546000908190818115611bdf57611bb087600184036115fd565b60408051808201909152905463ffffffff81168252600160201b90046001600160e01b03166020820152611bf4565b60408051808201909152600080825260208201525b905080602001516001600160e01b03169350611c1484868863ffffffff16565b9250600082118015611c3e5750611c29610787565b65ffffffffffff16816000015163ffffffff16145b15611c8057611c4c83611e79565b611c5988600185036115fd565b80546001600160e01b0392909216600160201b0263ffffffff909216919091179055611cf9565b866040518060400160405280611ca4611c97610787565b65ffffffffffff16611144565b63ffffffff168152602001611cb886611e79565b6001600160e01b039081169091528254600181018455600093845260209384902083519490930151909116600160201b0263ffffffff909316929092179101555b5050935093915050565b600061054582846123c4565b600060ff8216601f81111561048f57604051632cd44ac360e21b815260040160405180910390fd5b6001600160a01b038216611d975760405162461bcd60e51b815260206004820152602160248201527f45524332303a206275726e2066726f6d20746865207a65726f206164647265736044820152607360f81b606482015260840161051a565b6001600160a01b03821660009081526020819052604090205481811015611e0b5760405162461bcd60e51b815260206004820152602260248201527f45524332303a206275726e20616d6f756e7420657863656564732062616c616e604482015261636560f01b606482015260840161051a565b6001600160a01b038316600081815260208181526040808320868603905560028054879003905551858152919291600080516020612498833981519152910160405180910390a3610dfa83600084611a1f565b610dfa611e6a8461063d565b611e738461063d565b836116b0565b60006001600160e01b038211156111a95760405162461bcd60e51b815260206004820152602760248201527f53616665436173743a2076616c756520646f65736e27742066697420696e20326044820152663234206269747360c81b606482015260840161051a565b6000815180845260005b81811015611f0857602081850181015186830182015201611eec565b506000602082860101526020601f19601f83011685010191505092915050565b6020815260006105456020830184611ee2565b80356001600160a01b0381168114611f5257600080fd5b919050565b60008060408385031215611f6a57600080fd5b611f7383611f3b565b946020939093013593505050565b600080600060608486031215611f9657600080fd5b611f9f84611f3b565b9250611fad60208501611f3b565b9150604084013590509250925092565b600060208284031215611fcf57600080fd5b61054582611f3b565b60ff60f81b881681526000602060e081840152611ff860e084018a611ee2565b838103604085015261200a818a611ee2565b606085018990526001600160a01b038816608086015260a0850187905284810360c0860152855180825283870192509083019060005b8181101561205c57835183529284019291840191600101612040565b50909c9b505050505050505050505050565b60006020828403121561208057600080fd5b5035919050565b803560ff81168114611f5257600080fd5b60008060008060008060c087890312156120b157600080fd5b6120ba87611f3b565b955060208701359450604087013593506120d660608801612087565b92506080870135915060a087013590509295509295509295565b600080600080600080600060e0888a03121561210b57600080fd5b61211488611f3b565b965061212260208901611f3b565b9550604088013594506060880135935061213e60808901612087565b925060a0880135915060c0880135905092959891949750929550565b6000806040838503121561216d57600080fd5b61217683611f3b565b915061218460208401611f3b565b90509250929050565b600080604083850312156121a057600080fd5b6121a983611f3b565b9150602083013563ffffffff811681146121c257600080fd5b809150509250929050565b600181811c908216806121e157607f821691505b60208210810361133957634e487b7160e01b600052602260045260246000fd5b634e487b7160e01b600052601160045260246000fd5b8082018082111561048f5761048f612201565b60208082526019908201527804552433230566f7465733a20667574757265206c6f6f6b757603c1b604082015260600190565b60208082526014908201527323a7ab2faa27a5a2a72fa1a7a72a2927a62622a960611b604082015260600190565b634e487b7160e01b600052604160045260246000fd5b634e487b7160e01b600052603260045260246000fd5b601f821115610dfa57600081815260208120601f850160051c810160208610156122de5750805b601f850160051c820191505b818110156122fd578281556001016122ea565b505050505050565b81516001600160401b0381111561231e5761231e61228b565b6123328161232c84546121cd565b846122b7565b602080601f831160018114612367576000841561234f5750858301515b600019600386901b1c1916600185901b1785556122fd565b600085815260208120601f198616915b8281101561239657888601518255948401946001909101908401612377565b50858210156123b45787850151600019600388901b60f8161c191681555b5050505050600190811b01905550565b8181038181111561048f5761048f612201565b6000602082840312156123e957600080fd5b8151801515811461054557600080fd5b6001600160a01b038316815260406020820181905260009061241d90830184611ee2565b949350505050565b805160208083015191908110156113395760001960209190910360031b1b16919050565b634e487b7160e01b600052601260045260246000fd5b60008261247c57634e487b7160e01b600052601260045260246000fd5b500490565b634e487b7160e01b600052602160045260246000fdfeddf252ad1be2c89b69c2b068fc378daa952ba7f163c4a11628f55a4df523b3efdec2bacdd2f05b59de34da9b523dff8be42e5e38e818c82fdb0bae774387a724a2646970667358221220c08a6018c1dc0eb9560c9b929ea3a45671adc43966f20297f4a04127e2ac192264736f6c63430008120033",
  "libraries": {},
  "devdoc": {
    "events": {
      "Approval(address,address,uint256)": {
        "details": "Emitted when the allowance of a `spender` for an `owner` is set by a call to {approve}. `value` is the new allowance."
      },
      "DelegateChanged(address,address,address)": {
        "details": "Emitted when an account changes their delegate."
      },
      "DelegateVotesChanged(address,uint256,uint256)": {
        "details": "Emitted when a token transfer or delegate change results in changes to a delegate's number of votes."
      },
      "EIP712DomainChanged()": {
        "details": "MAY be emitted to signal that the domain could have changed."
      },
      "Transfer(address,address,uint256)": {
        "details": "Emitted when `value` tokens are moved from one account (`from`) to another (`to`). Note that `value` may be zero."
      }
    },
    "kind": "dev",
    "methods": {
      "CLOCK_MODE()": {
        "details": "Description of the clock"
      },
      "DOMAIN_SEPARATOR()": {
        "details": "See {IERC20Permit-DOMAIN_SEPARATOR}."
      },
      "allowance(address,address)": {
        "details": "See {IERC20-allowance}."
      },
      "approve(address,uint256)": {
        "details": "See {IERC20-approve}. NOTE: If `amount` is the maximum `uint256`, the allowance is not updated on `transferFrom`. This is semantically equivalent to an infinite approval. Requirements: - `spender` cannot be the zero address."
      },
      "balanceOf(address)": {
        "details": "See {IERC20-balanceOf}."
      },
      "checkpoints(address,uint32)": {
        "details": "Get the `pos`-th checkpoint for `account`."
      },
      "clock()": {
        "details": "Clock used for flagging checkpoints. Can be overridden to implement timestamp based checkpoints (and voting)."
      },
      "decimals()": {
        "details": "Returns the number of decimals used to get its user representation. For example, if `decimals` equals `2`, a balance of `505` tokens should be displayed to a user as `5.05` (`505 / 10 ** 2`). Tokens usually opt for a value of 18, imitating the relationship between Ether and Wei. This is the default value returned by this function, unless it's overridden. NOTE: This information is only used for _display_ purposes: it in no way affects any of the arithmetic of the contract, including {IERC20-balanceOf} and {IERC20-transfer}."
      },
      "decreaseAllowance(address,uint256)": {
        "details": "Atomically decreases the allowance granted to `spender` by the caller. This is an alternative to {approve} that can be used as a mitigation for problems described in {IERC20-approve}. Emits an {Approval} event indicating the updated allowance. Requirements: - `spender` cannot be the zero address. - `spender` must have allowance for the caller of at least `subtractedValue`."
      },
      "delegate(address)": {
        "details": "Delegate votes from the sender to `delegatee`."
      },
      "delegateBySig(address,uint256,uint256,uint8,bytes32,bytes32)": {
        "details": "Delegates votes from signer to `delegatee`"
      },
      "delegates(address)": {
        "details": "Get the address `account` is currently delegating to."
      },
      "eip712Domain()": {
        "details": "See {EIP-5267}. _Available since v4.9._"
      },
      "getPastTotalSupply(uint256)": {
        "details": "Retrieve the `totalSupply` at the end of `timepoint`. Note, this value is the sum of all balances. It is NOT the sum of all the delegated votes! Requirements: - `timepoint` must be in the past"
      },
      "getPastVotes(address,uint256)": {
        "details": "Retrieve the number of votes for `account` at the end of `timepoint`. Requirements: - `timepoint` must be in the past"
      },
      "getVotes(address)": {
        "details": "Gets the current votes balance for `account`"
      },
      "increaseAllowance(address,uint256)": {
        "details": "Atomically increases the allowance granted to `spender` by the caller. This is an alternative to {approve} that can be used as a mitigation for problems described in {IERC20-approve}. Emits an {Approval} event indicating the updated allowance. Requirements: - `spender` cannot be the zero address."
      },
      "name()": {
        "details": "Returns the name of the token."
      },
      "nonces(address)": {
        "details": "See {IERC20Permit-nonces}."
      },
      "numCheckpoints(address)": {
        "details": "Get number of checkpoints for `account`."
      },
      "permit(address,address,uint256,uint256,uint8,bytes32,bytes32)": {
        "details": "See {IERC20Permit-permit}."
      },
      "symbol()": {
        "details": "Returns the symbol of the token, usually a shorter version of the name."
      },
      "totalSupply()": {
        "details": "See {IERC20-totalSupply}."
      },
      "transfer(address,uint256)": {
        "details": "See {IERC20-transfer}. Requirements: - `to` cannot be the zero address. - the caller must have a balance of at least `amount`."
      },
      "transferFrom(address,address,uint256)": {
        "details": "See {IERC20-transferFrom}. Emits an {Approval} event indicating the updated allowance. This is not required by the EIP. See the note at the beginning of {ERC20}. NOTE: Does not update the allowance if the current allowance is the maximum `uint256`. Requirements: - `from` and `to` cannot be the zero address. - `from` must have a balance of at least `amount`. - the caller must have allowance for ``from``'s tokens of at least `amount`."
      }
    },
    "version": 1
  },
  "userdoc": {
    "kind": "user",
    "methods": {},
    "version": 1
  },
  "storageLayout": {
    "storage": [
      {
        "astId": 207,
        "contract": "contracts/gov/GovToken.sol:GovToken",
        "label": "_balances",
        "offset": 0,
        "slot": "0",
        "type": "t_mapping(t_address,t_uint256)"
      },
      {
        "astId": 213,
        "contract": "contracts/gov/GovToken.sol:GovToken",
        "label": "_allowances",
        "offset": 0,
        "slot": "1",
        "type": "t_mapping(t_address,t_mapping(t_address,t_uint256))"
      },
      {
        "astId": 215,
        "contract": "contracts/gov/GovToken.sol:GovToken",
        "label": "_totalSupply",
        "offset": 0,
        "slot": "2",
        "type": "t_uint256"
      },
      {
        "astId": 217,
        "contract": "contracts/gov/GovToken.sol:GovToken",
        "label": "_name",
        "offset": 0,
        "slot": "3",
        "type": "t_string_storage"
      },
      {
        "astId": 219,
        "contract": "contracts/gov/GovToken.sol:GovToken",
        "label": "_symbol",
        "offset": 0,
        "slot": "4",
        "type": "t_string_storage"
      },
      {
        "astId": 3579,
        "contract": "contracts/gov/GovToken.sol:GovToken",
        "label": "_nameFallback",
        "offset": 0,
        "slot": "5",
        "type": "t_string_storage"
      },
      {
        "astId": 3581,
        "contract": "contracts/gov/GovToken.sol:GovToken",
        "label": "_versionFallback",
        "offset": 0,
        "slot": "6",
        "type": "t_string_storage"
      },
      {
        "astId": 879,
        "contract": "contracts/gov/GovToken.sol:GovToken",
        "label": "_nonces",
        "offset": 0,
        "slot": "7",
        "type": "t_mapping(t_address,t_struct(Counter)2557_storage)"
      },
      {
        "astId": 887,
        "contract": "contracts/gov/GovToken.sol:GovToken",
        "label": "_PERMIT_TYPEHASH_DEPRECATED_SLOT",
        "offset": 0,
        "slot": "8",
        "type": "t_bytes32"
      },
      {
        "astId": 1054,
        "contract": "contracts/gov/GovToken.sol:GovToken",
        "label": "_delegates",
        "offset": 0,
        "slot": "9",
        "type": "t_mapping(t_address,t_address)"
      },
      {
        "astId": 1060,
        "contract": "contracts/gov/GovToken.sol:GovToken",
        "label": "_checkpoints",
        "offset": 0,
        "slot": "10",
        "type": "t_mapping(t_address,t_array(t_struct(Checkpoint)1045_storage)dyn_storage)"
      },
      {
        "astId": 1064,
        "contract": "contracts/gov/GovToken.sol:GovToken",
        "label": "_totalSupplyCheckpoints",
        "offset": 0,
        "slot": "11",
        "type": "t_array(t_struct(Checkpoint)1045_storage)dyn_storage"
      },
      {
        "astId": 27701,
        "contract": "contracts/gov/GovToken.sol:GovToken",
        "label": "_decimals",
        "offset": 0,
        "slot": "12",
        "type": "t_uint8"
      }
    ],
    "types": {
      "t_address": {
        "encoding": "inplace",
        "label": "address",
        "numberOfBytes": "20"
      },
      "t_array(t_struct(Checkpoint)1045_storage)dyn_storage": {
        "base": "t_struct(Checkpoint)1045_storage",
        "encoding": "dynamic_array",
        "label": "struct ERC20Votes.Checkpoint[]",
        "numberOfBytes": "32"
      },
      "t_bytes32": {
        "encoding": "inplace",
        "label": "bytes32",
        "numberOfBytes": "32"
      },
      "t_mapping(t_address,t_address)": {
        "encoding": "mapping",
        "key": "t_address",
        "label": "mapping(address => address)",
        "numberOfBytes": "32",
        "value": "t_address"
      },
      "t_mapping(t_address,t_array(t_struct(Checkpoint)1045_storage)dyn_storage)": {
        "encoding": "mapping",
        "key": "t_address",
        "label": "mapping(address => struct ERC20Votes.Checkpoint[])",
        "numberOfBytes": "32",
        "value": "t_array(t_struct(Checkpoint)1045_storage)dyn_storage"
      },
      "t_mapping(t_address,t_mapping(t_address,t_uint256))": {
        "encoding": "mapping",
        "key": "t_address",
        "label": "mapping(address => mapping(address => uint256))",
        "numberOfBytes": "32",
        "value": "t_mapping(t_address,t_uint256)"
      },
      "t_mapping(t_address,t_struct(Counter)2557_storage)": {
        "encoding": "mapping",
        "key": "t_address",
        "label": "mapping(address => struct Counters.Counter)",
        "numberOfBytes": "32",
        "value": "t_struct(Counter)2557_storage"
      },
      "t_mapping(t_address,t_uint256)": {
        "encoding": "mapping",
        "key": "t_address",
        "label": "mapping(address => uint256)",
        "numberOfBytes": "32",
        "value": "t_uint256"
      },
      "t_string_storage": {
        "encoding": "bytes",
        "label": "string",
        "numberOfBytes": "32"
      },
      "t_struct(Checkpoint)1045_storage": {
        "encoding": "inplace",
        "label": "struct ERC20Votes.Checkpoint",
        "members": [
          {
            "astId": 1042,
            "contract": "contracts/gov/GovToken.sol:GovToken",
            "label": "fromBlock",
            "offset": 0,
            "slot": "0",
            "type": "t_uint32"
          },
          {
            "astId": 1044,
            "contract": "contracts/gov/GovToken.sol:GovToken",
            "label": "votes",
            "offset": 4,
            "slot": "0",
            "type": "t_uint224"
          }
        ],
        "numberOfBytes": "32"
      },
      "t_struct(Counter)2557_storage": {
        "encoding": "inplace",
        "label": "struct Counters.Counter",
        "members": [
          {
            "astId": 2556,
            "contract": "contracts/gov/GovToken.sol:GovToken",
            "label": "_value",
            "offset": 0,
            "slot": "0",
            "type": "t_uint256"
          }
        ],
        "numberOfBytes": "32"
      },
      "t_uint224": {
        "encoding": "inplace",
        "label": "uint224",
        "numberOfBytes": "28"
      },
      "t_uint256": {
        "encoding": "inplace",
        "label": "uint256",
        "numberOfBytes": "32"
      },
      "t_uint32": {
        "encoding": "inplace",
        "label": "uint32",
        "numberOfBytes": "4"
      },
      "t_uint8": {
        "encoding": "inplace",
        "label": "uint8",
        "numberOfBytes": "1"
      }
    }
  }
}