{
  "_format": "hh-sol-artifact-1",
  "contractName": "MarketStore",
  "sourceName": "contracts/market/MarketStore.sol",
  "abi": [
    {
      "inputs": [
        {
          "internalType": "contract RoleStore",
          "name": "_roleStore",
          "type": "address"
        },
        {
          "internalType": "contract DataStore",
          "name": "_dataStore",
          "type": "address"
        }
      ],
      "stateMutability": "nonpayable",
      "type": "constructor"
    },
    {
      "inputs": [
        {
          "internalType": "address",
          "name": "receiver",
          "type": "address"
        },
        {
          "internalType": "uint256",
          "name": "amount",
          "type": "uint256"
        }
      ],
      "name": "NativeTokenTransferError",
      "type": "error"
    },
    {
      "inputs": [
        {
          "internalType": "address",
          "name": "token",
          "type": "address"
        },
        {
          "internalType": "address",
          "name": "receiver",
          "type": "address"
        },
        {
          "internalType": "uint256",
          "name": "amount",
          "type": "uint256"
        }
      ],
      "name": "TokenTransferError",
      "type": "error"
    },
    {
      "inputs": [
        {
          "internalType": "address",
          "name": "msgSender",
          "type": "address"
        },
        {
          "internalType": "string",
          "name": "role",
          "type": "string"
        }
      ],
      "name": "Unauthorized",
      "type": "error"
    },
    {
      "anonymous": false,
      "inputs": [
        {
          "indexed": false,
          "internalType": "address",
          "name": "prevGov",
          "type": "address"
        },
        {
          "indexed": false,
          "internalType": "address",
          "name": "nextGov",
          "type": "address"
        }
      ],
      "name": "SetGov",
      "type": "event"
    },
    {
      "inputs": [
        {
          "internalType": "address",
          "name": "marketToken",
          "type": "address"
        }
      ],
      "name": "contains",
      "outputs": [
        {
          "internalType": "bool",
          "name": "",
          "type": "bool"
        }
      ],
      "stateMutability": "view",
      "type": "function"
    },
    {
      "inputs": [],
      "name": "dataStore",
      "outputs": [
        {
          "internalType": "contract DataStore",
          "name": "",
          "type": "address"
        }
      ],
      "stateMutability": "view",
      "type": "function"
    },
    {
      "inputs": [
        {
          "internalType": "address",
          "name": "marketToken",
          "type": "address"
        }
      ],
      "name": "get",
      "outputs": [
        {
          "components": [
            {
              "internalType": "address",
              "name": "marketToken",
              "type": "address"
            },
            {
              "internalType": "address",
              "name": "indexToken",
              "type": "address"
            },
            {
              "internalType": "address",
              "name": "longToken",
              "type": "address"
            },
            {
              "internalType": "address",
              "name": "shortToken",
              "type": "address"
            },
            {
              "internalType": "bytes",
              "name": "data",
              "type": "bytes"
            }
          ],
          "internalType": "struct Market.Props",
          "name": "",
          "type": "tuple"
        }
      ],
      "stateMutability": "view",
      "type": "function"
    },
    {
      "inputs": [],
      "name": "getMarketCount",
      "outputs": [
        {
          "internalType": "uint256",
          "name": "",
          "type": "uint256"
        }
      ],
      "stateMutability": "view",
      "type": "function"
    },
    {
      "inputs": [
        {
          "internalType": "uint256",
          "name": "start",
          "type": "uint256"
        },
        {
          "internalType": "uint256",
          "name": "end",
          "type": "uint256"
        }
      ],
      "name": "getMarketKeys",
      "outputs": [
        {
          "internalType": "address[]",
          "name": "",
          "type": "address[]"
        }
      ],
      "stateMutability": "view",
      "type": "function"
    },
    {
      "inputs": [],
      "name": "gov",
      "outputs": [
        {
          "internalType": "address",
          "name": "",
          "type": "address"
        }
      ],
      "stateMutability": "view",
      "type": "function"
    },
    {
      "inputs": [
        {
          "internalType": "address",
          "name": "token",
          "type": "address"
        }
      ],
      "name": "recordTransferIn",
      "outputs": [
        {
          "internalType": "uint256",
          "name": "",
          "type": "uint256"
        }
      ],
      "stateMutability": "nonpayable",
      "type": "function"
    },
    {
      "inputs": [
        {
          "internalType": "address payable",
          "name": "receiver",
          "type": "address"
        },
        {
          "internalType": "uint256",
          "name": "amount",
          "type": "uint256"
        }
      ],
      "name": "recoverNativeToken",
      "outputs": [],
      "stateMutability": "nonpayable",
      "type": "function"
    },
    {
      "inputs": [
        {
          "internalType": "address",
          "name": "marketToken",
          "type": "address"
        }
      ],
      "name": "remove",
      "outputs": [],
      "stateMutability": "nonpayable",
      "type": "function"
    },
    {
      "inputs": [],
      "name": "roleStore",
      "outputs": [
        {
          "internalType": "contract RoleStore",
          "name": "",
          "type": "address"
        }
      ],
      "stateMutability": "view",
      "type": "function"
    },
    {
      "inputs": [
        {
          "internalType": "address",
          "name": "marketToken",
          "type": "address"
        },
        {
          "components": [
            {
              "internalType": "address",
              "name": "marketToken",
              "type": "address"
            },
            {
              "internalType": "address",
              "name": "indexToken",
              "type": "address"
            },
            {
              "internalType": "address",
              "name": "longToken",
              "type": "address"
            },
            {
              "internalType": "address",
              "name": "shortToken",
              "type": "address"
            },
            {
              "internalType": "bytes",
              "name": "data",
              "type": "bytes"
            }
          ],
          "internalType": "struct Market.Props",
          "name": "market",
          "type": "tuple"
        }
      ],
      "name": "set",
      "outputs": [],
      "stateMutability": "nonpayable",
      "type": "function"
    },
    {
      "inputs": [
        {
          "internalType": "address",
          "name": "_gov",
          "type": "address"
        }
      ],
      "name": "setGov",
      "outputs": [],
      "stateMutability": "nonpayable",
      "type": "function"
    },
    {
      "inputs": [
        {
          "internalType": "address",
          "name": "",
          "type": "address"
        }
      ],
      "name": "tokenBalances",
      "outputs": [
        {
          "internalType": "uint256",
          "name": "",
          "type": "uint256"
        }
      ],
      "stateMutability": "view",
      "type": "function"
    },
    {
      "inputs": [
        {
          "internalType": "address",
          "name": "token",
          "type": "address"
        },
        {
          "internalType": "address",
          "name": "receiver",
          "type": "address"
        },
        {
          "internalType": "uint256",
          "name": "amount",
          "type": "uint256"
        }
      ],
      "name": "transferOut",
      "outputs": [],
      "stateMutability": "nonpayable",
      "type": "function"
    },
    {
      "inputs": [
        {
          "internalType": "address",
          "name": "token",
          "type": "address"
        },
        {
          "internalType": "address",
          "name": "receiver",
          "type": "address"
        },
        {
          "internalType": "uint256",
          "name": "amount",
          "type": "uint256"
        },
        {
          "internalType": "bool",
          "name": "shouldUnwrapNativeToken",
          "type": "bool"
        }
      ],
      "name": "transferOut",
      "outputs": [],
      "stateMutability": "nonpayable",
      "type": "function"
    },
    {
      "inputs": [
        {
          "internalType": "address",
          "name": "receiver",
          "type": "address"
        },
        {
          "internalType": "uint256",
          "name": "amount",
          "type": "uint256"
        }
      ],
      "name": "transferOutNativeToken",
      "outputs": [],
      "stateMutability": "nonpayable",
      "type": "function"
    },
    {
      "stateMutability": "payable",
      "type": "receive"
    }
  ],
  "bytecode": "0x60c06040523480156200001157600080fd5b5060405162001bb638038062001bb68339810160408190526200003491620000e0565b81818181818181620000463362000066565b6001600160a01b039081166080521660a052506200011f95505050505050565b600080546001600160a01b038381166001600160a01b031983168117909355604080519190921680825260208201939093527f53351836099c03ffc3b1727d8abd4b0222afa87d4ed76ae3102d51369ef7f785910160405180910390a15050565b6001600160a01b0381168114620000dd57600080fd5b50565b60008060408385031215620000f457600080fd5b82516200010181620000c7565b60208401519092506200011481620000c7565b809150509250929050565b60805160a051611a476200016f600039600081816102690152818161045801528181610504015281816106be015281816109570152610a760152600081816101d801526108910152611a476000f3fe6080604052600436106100c75760003560e01c806301ab3988146100d3578063078d3b791461010957806312d43a511461012b57806329092d0e146101585780632fb1260514610178578063352f9aed146101985780634a4a7b04146101c6578063523fba7f146101fa5780635dbe47e814610227578063660d0d67146102575780636bd3d4511461028b578063c2bc2efc146102ab578063cfad57a2146102d8578063d443ca94146102f8578063e0ad663214610318578063fd69f3c21461033857600080fd5b366100ce57005b600080fd5b3480156100df57600080fd5b506100f36100ee36600461138d565b61034d565b60405161010091906113af565b60405180910390f35b34801561011557600080fd5b50610129610124366004611411565b610364565b005b34801561013757600080fd5b5060005461014b906001600160a01b031681565b6040516101009190611452565b34801561016457600080fd5b50610129610173366004611466565b6103c4565b34801561018457600080fd5b50610129610193366004611498565b61043f565b3480156101a457600080fd5b506101b86101b3366004611466565b6104c3565b604051908152602001610100565b3480156101d257600080fd5b5061014b7f000000000000000000000000000000000000000000000000000000000000000081565b34801561020657600080fd5b506101b8610215366004611466565b60016020526000908152604090205481565b34801561023357600080fd5b50610247610242366004611466565b6104e0565b6040519015158152602001610100565b34801561026357600080fd5b5061014b7f000000000000000000000000000000000000000000000000000000000000000081565b34801561029757600080fd5b506101296102a63660046114eb565b6104ed565b3480156102b757600080fd5b506102cb6102c6366004611466565b61052a565b6040516101009190611567565b3480156102e457600080fd5b506101296102f3366004611466565b61064b565b34801561030457600080fd5b506101296103133660046114eb565b6106a5565b34801561032457600080fd5b50610129610333366004611628565b6106ef565b34801561034457600080fd5b506101b861079c565b606061035b600384846107ad565b90505b92915050565b6103b460405160200161037690611749565b604051602081830303815290604052805190602001206040518060400160405280600a81526020016921a7a72a2927a62622a960b11b81525061087a565b6103bf83838361092a565b505050565b6103d660405160200161037690611749565b6001600160a01b0381166000908152600260208190526040822080546001600160a01b03199081168255600182018054821690559181018054831690556003810180549092169091559061042d600483018261133f565b5061043b9050600382610987565b5050565b61045160405160200161037690611749565b600061047c7f000000000000000000000000000000000000000000000000000000000000000061099c565b9050806001600160a01b0316856001600160a01b031614801561049c5750815b156104b1576104ac858585610a49565b6104bc565b6104bc85858561092a565b5050505050565b60006104d760405160200161037690611749565b61035e82610a9d565b600061035e600383610b4e565b6104ff60405160200161037690611749565b61043b7f00000000000000000000000000000000000000000000000000000000000000008383610b63565b6040805160a08101825260008082526020820181905291810182905260608082019290925260808101919091526001600160a01b03808316600090815260026020818152604092839020835160a081018552815486168152600182015486169281019290925291820154841692810192909252600381015490921660608201526004820180549192916080840191906105c29061176d565b80601f01602080910402602001604051908101604052809291908181526020018280546105ee9061176d565b801561063b5780601f106106105761010080835404028352916020019161063b565b820191906000526020600020905b81548152906001019060200180831161061e57829003601f168201915b5050505050815250509050919050565b6000546001600160a01b03163314610699576040805163a35b150b60e01b81523360048201526024810191909152600360448201526223a7ab60e91b60648201526084015b60405180910390fd5b6106a281610d1a565b50565b6106b760405160200161037690611749565b60006106e27f000000000000000000000000000000000000000000000000000000000000000061099c565b90506103bf818484610a49565b61070160405160200161037690611749565b6001600160a01b03808316600090815260026020818152604092839020855181549086166001600160a01b031991821617825591860151600182018054918716918416919091179055928501519183018054928516928216929092179091556060840151600383018054919094169116179091556080820151829190600482019061078c90826117f5565b506103bf91506003905083610d7b565b60006107a86003610d90565b905090565b606060006107ba85610d90565b9050808311156107c8578092505b60006107d485856118ca565b6001600160401b038111156107eb576107eb6115ba565b604051908082528060200260200182016040528015610814578160200160208202803683370190505b509050845b848110156108705761082b8782610d9a565b8261083688846118ca565b81518110610846576108466118dd565b6001600160a01b039092166020928302919091019091015280610868816118f3565b915050610819565b5095945050505050565b60405163ac4ab3fb60e01b81526001600160a01b037f0000000000000000000000000000000000000000000000000000000000000000169063ac4ab3fb906108c8903390869060040161190c565b602060405180830381865afa1580156108e5573d6000803e3d6000fd5b505050506040513d601f19601f820116820180604052508101906109099190611925565b61043b57338160405163a35b150b60e01b8152600401610690929190611942565b306001600160a01b038316036109525760405162461bcd60e51b815260040161069090611966565b61097e7f0000000000000000000000000000000000000000000000000000000000000000848484610da6565b6103bf83610edc565b600061035b836001600160a01b038416610f65565b6000816001600160a01b03166321f8a7216040516020016109d49060208082526003908201526215d39560ea1b604082015260600190565b604051602081830303815290604052805190602001206040518263ffffffff1660e01b8152600401610a0891815260200190565b602060405180830381865afa158015610a25573d6000803e3d6000fd5b505050506040513d601f19601f8201168201806040525081019061035e9190611996565b306001600160a01b03831603610a715760405162461bcd60e51b815260040161069090611966565b61097e7f0000000000000000000000000000000000000000000000000000000000000000848484611058565b6001600160a01b0381166000818152600160205260408082205490516370a0823160e01b8152919290918391906370a0823190610ade903090600401611452565b602060405180830381865afa158015610afb573d6000803e3d6000fd5b505050506040513d601f19601f82011682018060405250810190610b1f91906119b3565b6001600160a01b03851660009081526001602052604090208190559050610b4682826118ca565b949350505050565b600061035b836001600160a01b0384166110c3565b80600003610b7057505050565b6000836001600160a01b031663bd02d0f5604051602001610bc2906020808252601f908201527f4e41544956455f544f4b454e5f5452414e534645525f4741535f4c494d495400604082015260600190565b604051602081830303815290604052805190602001206040518263ffffffff1660e01b8152600401610bf691815260200190565b602060405180830381865afa158015610c13573d6000803e3d6000fd5b505050506040513d601f19601f82011682018060405250810190610c3791906119b3565b9050600080846001600160a01b0316848490604051600060405180830381858888f193505050503d8060008114610c8a576040519150601f19603f3d011682016040523d82523d6000602084013e610c8f565b606091505b50915091508115610ca257505050505050565b600081604051602001610cb591906119cc565b60405160208183030381529060405290507f6c4e9d88878940a822d239187b8b00d62a80dce222d53bc5f1fb072d9c34b68181604051610cf591906119cc565b60405180910390a18585604051633828654560e11b815260040161069092919061190c565b600080546001600160a01b038381166001600160a01b031983168117909355604080519190921680825260208201939093527f53351836099c03ffc3b1727d8abd4b0222afa87d4ed76ae3102d51369ef7f785910160405180910390a15050565b600061035b836001600160a01b0384166110db565b600061035e825490565b600061035b8383611125565b8015610ed6576000846001600160a01b031663bd02d0f5610dc68661114f565b6040518263ffffffff1660e01b8152600401610de491815260200190565b602060405180830381865afa158015610e01573d6000803e3d6000fd5b505050506040513d601f19601f82011682018060405250810190610e2591906119b3565b9050600080610e36868686866111d7565b915091508115610e4857505050610ed6565b600081604051602001610e5b91906119cc565b60405160208183030381529060405290507f9db60cdf21cde7f760995e23662841725e6aa63be48799796db12b7b2e6b17e281604051610e9b91906119cc565b60405180910390a160405163012f3b8f60e71b81526001600160a01b0380891660048301528716602482015260448101869052606401610690565b50505050565b6040516370a0823160e01b81526001600160a01b038216906370a0823190610f08903090600401611452565b602060405180830381865afa158015610f25573d6000803e3d6000fd5b505050506040513d601f19601f82011682018060405250810190610f4991906119b3565b6001600160a01b03909116600090815260016020526040902055565b6000818152600183016020526040812054801561104e576000610f896001836118ca565b8554909150600090610f9d906001906118ca565b9050818114611002576000866000018281548110610fbd57610fbd6118dd565b9060005260206000200154905080876000018481548110610fe057610fe06118dd565b6000918252602080832090910192909255918252600188019052604090208390555b8554869080611013576110136119df565b60019003818190600052602060002001600090559055856001016000868152602001908152602001600020600090556001935050505061035e565b600091505061035e565b8015610ed657604051632e1a7d4d60e01b8152600481018290526001600160a01b03841690632e1a7d4d90602401600060405180830381600087803b1580156110a057600080fd5b505af11580156110b4573d6000803e3d6000fd5b50505050610ed6848383610b63565b60009081526001919091016020526040902054151590565b60006110e783836110c3565b61111d5750815460018181018455600084815260208082209093018490558454848252828601909352604090209190915561035e565b50600061035e565b600082600001828154811061113c5761113c6118dd565b9060005260206000200154905092915050565b600060405160200161118d906020808252601890820152771513d2d15397d514905394d1915497d1d054d7d31253525560421b604082015260600190565b60408051601f198184030181528282528051602091820120908301526001600160a01b03841690820152606001604051602081830303815290604052805190602001209050919050565b60006060600063a9059cbb60e01b86866040516024016111f892919061190c565b604051602081830303815290604052906001600160e01b0319166020820180516001600160e01b0383818316178352505050509050600080886001600160a01b0316868460405161124991906119f5565b60006040518083038160008787f1925050503d8060008114611287576040519150601f19603f3d011682016040523d82523d6000602084013e61128c565b606091505b5091509150811561132d5780516000036112ea576001600160a01b0389163b6112ea5760006040518060400160405280601481526020017310d85b1b081d1bc81b9bdb8b58dbdb9d1c9858dd60621b81525094509450505050611336565b6000815111801561130c57508080602001905181019061130a9190611925565b155b1561131f57600094509250611336915050565b600194509250611336915050565b60009450925050505b94509492505050565b50805461134b9061176d565b6000825580601f1061135b575050565b601f0160209004906000526020600020908101906106a291905b808211156113895760008155600101611375565b5090565b600080604083850312156113a057600080fd5b50508035926020909101359150565b6020808252825182820181905260009190848201906040850190845b818110156113f05783516001600160a01b0316835292840192918401916001016113cb565b50909695505050505050565b6001600160a01b03811681146106a257600080fd5b60008060006060848603121561142657600080fd5b8335611431816113fc565b92506020840135611441816113fc565b929592945050506040919091013590565b6001600160a01b0391909116815260200190565b60006020828403121561147857600080fd5b8135611483816113fc565b9392505050565b80151581146106a257600080fd5b600080600080608085870312156114ae57600080fd5b84356114b9816113fc565b935060208501356114c9816113fc565b92506040850135915060608501356114e08161148a565b939692955090935050565b600080604083850312156114fe57600080fd5b8235611509816113fc565b946020939093013593505050565b60005b8381101561153257818101518382015260200161151a565b50506000910152565b60008151808452611553816020860160208601611517565b601f01601f19169290920160200192915050565b60208152600060018060a01b0380845116602084015280602085015116604084015280604085015116606084015280606085015116608084015250608083015160a080840152610b4660c084018261153b565b634e487b7160e01b600052604160045260246000fd5b60405160a081016001600160401b03811182821017156115f2576115f26115ba565b60405290565b604051601f8201601f191681016001600160401b0381118282101715611620576116206115ba565b604052919050565b6000806040838503121561163b57600080fd5b8235611646816113fc565b91506020838101356001600160401b038082111561166357600080fd5b9085019060a0828803121561167757600080fd5b61167f6115d0565b823561168a816113fc565b815282840135611699816113fc565b8185015260408301356116ab816113fc565b604082015260608301356116be816113fc565b60608201526080830135828111156116d557600080fd5b80840193505087601f8401126116ea57600080fd5b8235828111156116fc576116fc6115ba565b61170e601f8201601f191686016115f8565b9250808352888582860101111561172457600080fd5b8085850186850137600085828501015250816080820152809450505050509250929050565b6020808252600a908201526921a7a72a2927a62622a960b11b604082015260600190565b600181811c9082168061178157607f821691505b6020821081036117a157634e487b7160e01b600052602260045260246000fd5b50919050565b601f8211156103bf57600081815260208120601f850160051c810160208610156117ce5750805b601f850160051c820191505b818110156117ed578281556001016117da565b505050505050565b81516001600160401b0381111561180e5761180e6115ba565b6118228161181c845461176d565b846117a7565b602080601f831160018114611857576000841561183f5750858301515b600019600386901b1c1916600185901b1785556117ed565b600085815260208120601f198616915b8281101561188657888601518255948401946001909101908401611867565b50858210156118a45787850151600019600388901b60f8161c191681555b5050505050600190811b01905550565b634e487b7160e01b600052601160045260246000fd5b8181038181111561035e5761035e6118b4565b634e487b7160e01b600052603260045260246000fd5b600060018201611905576119056118b4565b5060010190565b6001600160a01b03929092168252602082015260400190565b60006020828403121561193757600080fd5b81516114838161148a565b6001600160a01b0383168152604060208201819052600090610b469083018461153b565b6020808252601690820152752130b7359d1034b73b30b634b2103932b1b2b4bb32b960511b604082015260600190565b6000602082840312156119a857600080fd5b8151611483816113fc565b6000602082840312156119c557600080fd5b5051919050565b60208152600061035b602083018461153b565b634e487b7160e01b600052603160045260246000fd5b60008251611a07818460208701611517565b919091019291505056fea2646970667358221220c62a13af96d9082199aac842987488b724a7503cda120c1042517912920814f564736f6c63430008100033",
  "linkReferences": {},
  "deployedLinkReferences": {}
}