{
  "_format": "hh-sol-artifact-1",
  "contractName": "OrderBookReader",
  "sourceName": "contracts/peripherals/OrderBookReader.sol",
  "abi": [
    {
      "inputs": [
        {
          "internalType": "address payable",
          "name": "_orderBookAddress",
          "type": "address"
        },
        {
          "internalType": "address",
          "name": "_account",
          "type": "address"
        },
        {
          "internalType": "uint256[]",
          "name": "_indices",
          "type": "uint256[]"
        }
      ],
      "name": "getDecreaseOrders",
      "outputs": [
        {
          "internalType": "uint256[]",
          "name": "",
          "type": "uint256[]"
        },
        {
          "internalType": "address[]",
          "name": "",
          "type": "address[]"
        }
      ],
      "stateMutability": "view",
      "type": "function"
    },
    {
      "inputs": [
        {
          "internalType": "address payable",
          "name": "_orderBookAddress",
          "type": "address"
        },
        {
          "internalType": "address",
          "name": "_account",
          "type": "address"
        },
        {
          "internalType": "uint256[]",
          "name": "_indices",
          "type": "uint256[]"
        }
      ],
      "name": "getIncreaseOrders",
      "outputs": [
        {
          "internalType": "uint256[]",
          "name": "",
          "type": "uint256[]"
        },
        {
          "internalType": "address[]",
          "name": "",
          "type": "address[]"
        }
      ],
      "stateMutability": "view",
      "type": "function"
    },
    {
      "inputs": [
        {
          "internalType": "address payable",
          "name": "_orderBookAddress",
          "type": "address"
        },
        {
          "internalType": "address",
          "name": "_account",
          "type": "address"
        },
        {
          "internalType": "uint256[]",
          "name": "_indices",
          "type": "uint256[]"
        }
      ],
      "name": "getSwapOrders",
      "outputs": [
        {
          "internalType": "uint256[]",
          "name": "",
          "type": "uint256[]"
        },
        {
          "internalType": "address[]",
          "name": "",
          "type": "address[]"
        }
      ],
      "stateMutability": "view",
      "type": "function"
    }
  ],
  "bytecode": "0x608060405234801561001057600080fd5b50610de7806100206000396000f3fe608060405234801561001057600080fd5b50600436106100415760003560e01c80630ce933b9146100465780632e18146914610199578063c38ccd5014610253575b600080fd5b6101006004803603606081101561005c57600080fd5b6001600160a01b038235811692602081013590911691810190606081016040820135600160201b81111561008f57600080fd5b8201836020820111156100a157600080fd5b803590602001918460208302840111600160201b831117156100c257600080fd5b91908080602002602001604051908101604052809392919081815260200183836020028082843760009201919091525092955061030d945050505050565b604051808060200180602001838103835285818151815260200191508051906020019060200280838360005b8381101561014457818101518382015260200161012c565b50505050905001838103825284818151815260200191508051906020019060200280838360005b8381101561018357818101518382015260200161016b565b5050505090500194505050505060405180910390f35b610100600480360360608110156101af57600080fd5b6001600160a01b038235811692602081013590911691810190606081016040820135600160201b8111156101e257600080fd5b8201836020820111156101f457600080fd5b803590602001918460208302840111600160201b8311171561021557600080fd5b919080806020026020016040519081016040528093929190818152602001838360200280828437600092019190915250929550610668945050505050565b6101006004803603606081101561026957600080fd5b6001600160a01b038235811692602081013590911691810190606081016040820135600160201b81111561029c57600080fd5b8201836020820111156102ae57600080fd5b803590602001918460208302840111600160201b831117156102cf57600080fd5b9190808060200260200160405190810160405280939291908181526020018383602002808284376000920191909152509295506109e2945050505050565b606080610318610d79565b6040518060a001604052806000815260200160008152602001866001600160a01b031681526020016005815260200160028152509050606084518260600151026001600160401b038111801561036d57600080fd5b50604051908082528060200260200182016040528015610397578160200160208202803683370190505b509050606085518360800151026001600160401b03811180156103b957600080fd5b506040519080825280602002602001820160405280156103e3578160200160208202803683370190505b509050875b86518451101561065a578684600001518151811061040257fe5b60200260200101518460200181815250506000806000806000806000876001600160a01b031663026032ee8c604001518d602001516040518363ffffffff1660e01b815260040180836001600160a01b031681526020018281526020019250505060e06040518083038186803b15801561047b57600080fd5b505afa15801561048f573d6000803e3d6000fd5b505050506040513d60e08110156104a557600080fd5b81019080805190602001909291908051906020019092919080519060200190929190805190602001909291908051906020019092919080519060200190929190805190602001909291905050509650965096509650965096509650858a8c606001518d60000151028151811061051757fe5b602002602001018181525050838a8c606001518d60000151026001018151811061053d57fe5b60200260200101818152505082610555576000610558565b60015b60ff168a8c606001518d60000151026002018151811061057457fe5b602002602001018181525050818a8c606001518d60000151026003018151811061059a57fe5b602002602001018181525050806105b25760006105b5565b60015b60ff168a8c606001518d6000015102600401815181106105d157fe5b60200260200101818152505086898c608001518d6000015102815181106105f457fe5b60200260200101906001600160a01b031690816001600160a01b03168152505084898c608001518d60000151026001018151811061062e57fe5b6001600160a01b0390921660209283029190910190910152505088516001018952506103e89350505050565b509097909650945050505050565b606080610673610d79565b6040518060a001604052806000815260200160008152602001866001600160a01b031681526020016005815260200160038152509050606084518260600151026001600160401b03811180156106c857600080fd5b506040519080825280602002602001820160405280156106f2578160200160208202803683370190505b509050606085518360800151026001600160401b038111801561071457600080fd5b5060405190808252806020026020018201604052801561073e578160200160208202803683370190505b509050875b86518451101561065a578684600001518151811061075d57fe5b60200260200101518460200181815250506000806000806000806000876001600160a01b031663d0d40cd68c604001518d602001516040518363ffffffff1660e01b815260040180836001600160a01b031681526020018281526020019250505060e06040518083038186803b1580156107d657600080fd5b505afa1580156107ea573d6000803e3d6000fd5b505050506040513d60e081101561080057600080fd5b81019080805190602001909291908051906020019092919080519060200190929190805190602001909291908051906020019092919080519060200190929190805190602001909291905050509650965096509650965096509650838a8c606001518d60000151028151811061087257fe5b602002602001018181525050828a8c606001518d60000151026001018151811061089857fe5b602002602001018181525050818a8c606001518d6000015102600201815181106108be57fe5b602002602001018181525050806108d65760006108d9565b60015b60ff168a8c606001518d6000015102600301815181106108f557fe5b6020026020010181815250508a602001518a8c606001518d60000151026004018151811061091f57fe5b60200260200101818152505086898c608001518d60000151028151811061094257fe5b60200260200101906001600160a01b031690816001600160a01b03168152505085898c608001518d60000151026001018151811061097c57fe5b60200260200101906001600160a01b031690816001600160a01b03168152505084898c608001518d6000015102600201815181106109b657fe5b6001600160a01b0390921660209283029190910190910152505088516001018952506107439350505050565b6060806109ed610d79565b6040518060a001604052806000815260200160008152602001866001600160a01b031681526020016005815260200160038152509050606084518260600151026001600160401b0381118015610a4257600080fd5b50604051908082528060200260200182016040528015610a6c578160200160208202803683370190505b509050606085518360800151026001600160401b0381118015610a8e57600080fd5b50604051908082528060200260200182016040528015610ab8578160200160208202803683370190505b509050875b86518451101561065a5786846000015181518110610ad757fe5b6020026020010151846020018181525050600080600080600080600080886001600160a01b031663d3bab1d18d604001518e602001516040518363ffffffff1660e01b815260040180836001600160a01b03168152602001828152602001925050506101006040518083038186803b158015610b5257600080fd5b505afa158015610b66573d6000803e3d6000fd5b505050506040513d610100811015610b7d57600080fd5b81019080805190602001909291908051906020019092919080519060200190929190805190602001909291908051906020019092919080519060200190929190805190602001909291908051906020019092919050505097509750975097509750975097509750868b8d606001518e600001510281518110610bfb57fe5b602002602001018181525050838b8d606001518e600001510260010181518110610c2157fe5b60200260200101818152505082610c39576000610c3c565b60015b60ff168b8d606001518e600001510260020181518110610c5857fe5b602002602001018181525050818b8d606001518e600001510260030181518110610c7e57fe5b60200260200101818152505080610c96576000610c99565b60015b60ff168b8d606001518e600001510260040181518110610cb557fe5b602002602001018181525050878a8d608001518e600001510281518110610cd857fe5b60200260200101906001600160a01b031690816001600160a01b031681525050858a8d608001518e600001510260010181518110610d1257fe5b60200260200101906001600160a01b031690816001600160a01b031681525050848a8d608001518e600001510260020181518110610d4c57fe5b6001600160a01b0390921660209283029190910190910152505089516001018a5250610abd945050505050565b6040518060a00160405280600081526020016000815260200160006001600160a01b031681526020016000815260200160008152509056fea2646970667358221220e6be77f8ff6b50edc20caf43be4cc5ffd3c695a2d6b51f5f73a3c667c7a99dde64736f6c634300060c0033",
  "linkReferences": {},
  "deployedLinkReferences": {}
}