{
  "_format": "hh-sol-artifact-1",
  "contractName": "OrderStore",
  "sourceName": "contracts/order/OrderStore.sol",
  "abi": [
    {
      "inputs": [
        {
          "internalType": "contract RoleStore",
          "name": "_roleStore",
          "type": "address"
        },
        {
          "internalType": "contract DataStore",
          "name": "_dataStore",
          "type": "address"
        }
      ],
      "stateMutability": "nonpayable",
      "type": "constructor"
    },
    {
      "inputs": [
        {
          "internalType": "address",
          "name": "receiver",
          "type": "address"
        },
        {
          "internalType": "uint256",
          "name": "amount",
          "type": "uint256"
        }
      ],
      "name": "NativeTokenTransferError",
      "type": "error"
    },
    {
      "inputs": [
        {
          "internalType": "address",
          "name": "token",
          "type": "address"
        },
        {
          "internalType": "address",
          "name": "receiver",
          "type": "address"
        },
        {
          "internalType": "uint256",
          "name": "amount",
          "type": "uint256"
        }
      ],
      "name": "TokenTransferError",
      "type": "error"
    },
    {
      "inputs": [
        {
          "internalType": "address",
          "name": "msgSender",
          "type": "address"
        },
        {
          "internalType": "string",
          "name": "role",
          "type": "string"
        }
      ],
      "name": "Unauthorized",
      "type": "error"
    },
    {
      "anonymous": false,
      "inputs": [
        {
          "indexed": false,
          "internalType": "address",
          "name": "prevGov",
          "type": "address"
        },
        {
          "indexed": false,
          "internalType": "address",
          "name": "nextGov",
          "type": "address"
        }
      ],
      "name": "SetGov",
      "type": "event"
    },
    {
      "inputs": [
        {
          "internalType": "bytes32",
          "name": "key",
          "type": "bytes32"
        }
      ],
      "name": "contains",
      "outputs": [
        {
          "internalType": "bool",
          "name": "",
          "type": "bool"
        }
      ],
      "stateMutability": "view",
      "type": "function"
    },
    {
      "inputs": [],
      "name": "dataStore",
      "outputs": [
        {
          "internalType": "contract DataStore",
          "name": "",
          "type": "address"
        }
      ],
      "stateMutability": "view",
      "type": "function"
    },
    {
      "inputs": [
        {
          "internalType": "bytes32",
          "name": "key",
          "type": "bytes32"
        }
      ],
      "name": "get",
      "outputs": [
        {
          "components": [
            {
              "components": [
                {
                  "internalType": "address",
                  "name": "account",
                  "type": "address"
                },
                {
                  "internalType": "address",
                  "name": "receiver",
                  "type": "address"
                },
                {
                  "internalType": "address",
                  "name": "callbackContract",
                  "type": "address"
                },
                {
                  "internalType": "address",
                  "name": "market",
                  "type": "address"
                },
                {
                  "internalType": "address",
                  "name": "initialCollateralToken",
                  "type": "address"
                },
                {
                  "internalType": "address[]",
                  "name": "swapPath",
                  "type": "address[]"
                }
              ],
              "internalType": "struct Order.Addresses",
              "name": "addresses",
              "type": "tuple"
            },
            {
              "components": [
                {
                  "internalType": "uint256",
                  "name": "sizeDeltaUsd",
                  "type": "uint256"
                },
                {
                  "internalType": "uint256",
                  "name": "initialCollateralDeltaAmount",
                  "type": "uint256"
                },
                {
                  "internalType": "uint256",
                  "name": "triggerPrice",
                  "type": "uint256"
                },
                {
                  "internalType": "uint256",
                  "name": "acceptablePrice",
                  "type": "uint256"
                },
                {
                  "internalType": "uint256",
                  "name": "executionFee",
                  "type": "uint256"
                },
                {
                  "internalType": "uint256",
                  "name": "callbackGasLimit",
                  "type": "uint256"
                },
                {
                  "internalType": "uint256",
                  "name": "minOutputAmount",
                  "type": "uint256"
                },
                {
                  "internalType": "uint256",
                  "name": "updatedAtBlock",
                  "type": "uint256"
                }
              ],
              "internalType": "struct Order.Numbers",
              "name": "numbers",
              "type": "tuple"
            },
            {
              "components": [
                {
                  "internalType": "enum Order.OrderType",
                  "name": "orderType",
                  "type": "uint8"
                },
                {
                  "internalType": "bool",
                  "name": "isLong",
                  "type": "bool"
                },
                {
                  "internalType": "bool",
                  "name": "shouldUnwrapNativeToken",
                  "type": "bool"
                },
                {
                  "internalType": "bool",
                  "name": "isFrozen",
                  "type": "bool"
                }
              ],
              "internalType": "struct Order.Flags",
              "name": "flags",
              "type": "tuple"
            },
            {
              "internalType": "bytes",
              "name": "data",
              "type": "bytes"
            }
          ],
          "internalType": "struct Order.Props",
          "name": "",
          "type": "tuple"
        }
      ],
      "stateMutability": "view",
      "type": "function"
    },
    {
      "inputs": [
        {
          "internalType": "address",
          "name": "account",
          "type": "address"
        }
      ],
      "name": "getAccountOrderCount",
      "outputs": [
        {
          "internalType": "uint256",
          "name": "",
          "type": "uint256"
        }
      ],
      "stateMutability": "view",
      "type": "function"
    },
    {
      "inputs": [
        {
          "internalType": "address",
          "name": "account",
          "type": "address"
        },
        {
          "internalType": "uint256",
          "name": "start",
          "type": "uint256"
        },
        {
          "internalType": "uint256",
          "name": "end",
          "type": "uint256"
        }
      ],
      "name": "getAccountOrderKeys",
      "outputs": [
        {
          "internalType": "bytes32[]",
          "name": "",
          "type": "bytes32[]"
        }
      ],
      "stateMutability": "view",
      "type": "function"
    },
    {
      "inputs": [],
      "name": "getOrderCount",
      "outputs": [
        {
          "internalType": "uint256",
          "name": "",
          "type": "uint256"
        }
      ],
      "stateMutability": "view",
      "type": "function"
    },
    {
      "inputs": [
        {
          "internalType": "uint256",
          "name": "start",
          "type": "uint256"
        },
        {
          "internalType": "uint256",
          "name": "end",
          "type": "uint256"
        }
      ],
      "name": "getOrderKeys",
      "outputs": [
        {
          "internalType": "bytes32[]",
          "name": "",
          "type": "bytes32[]"
        }
      ],
      "stateMutability": "view",
      "type": "function"
    },
    {
      "inputs": [],
      "name": "gov",
      "outputs": [
        {
          "internalType": "address",
          "name": "",
          "type": "address"
        }
      ],
      "stateMutability": "view",
      "type": "function"
    },
    {
      "inputs": [
        {
          "internalType": "bytes32",
          "name": "",
          "type": "bytes32"
        }
      ],
      "name": "orders",
      "outputs": [
        {
          "components": [
            {
              "internalType": "address",
              "name": "account",
              "type": "address"
            },
            {
              "internalType": "address",
              "name": "receiver",
              "type": "address"
            },
            {
              "internalType": "address",
              "name": "callbackContract",
              "type": "address"
            },
            {
              "internalType": "address",
              "name": "market",
              "type": "address"
            },
            {
              "internalType": "address",
              "name": "initialCollateralToken",
              "type": "address"
            },
            {
              "internalType": "address[]",
              "name": "swapPath",
              "type": "address[]"
            }
          ],
          "internalType": "struct Order.Addresses",
          "name": "addresses",
          "type": "tuple"
        },
        {
          "components": [
            {
              "internalType": "uint256",
              "name": "sizeDeltaUsd",
              "type": "uint256"
            },
            {
              "internalType": "uint256",
              "name": "initialCollateralDeltaAmount",
              "type": "uint256"
            },
            {
              "internalType": "uint256",
              "name": "triggerPrice",
              "type": "uint256"
            },
            {
              "internalType": "uint256",
              "name": "acceptablePrice",
              "type": "uint256"
            },
            {
              "internalType": "uint256",
              "name": "executionFee",
              "type": "uint256"
            },
            {
              "internalType": "uint256",
              "name": "callbackGasLimit",
              "type": "uint256"
            },
            {
              "internalType": "uint256",
              "name": "minOutputAmount",
              "type": "uint256"
            },
            {
              "internalType": "uint256",
              "name": "updatedAtBlock",
              "type": "uint256"
            }
          ],
          "internalType": "struct Order.Numbers",
          "name": "numbers",
          "type": "tuple"
        },
        {
          "components": [
            {
              "internalType": "enum Order.OrderType",
              "name": "orderType",
              "type": "uint8"
            },
            {
              "internalType": "bool",
              "name": "isLong",
              "type": "bool"
            },
            {
              "internalType": "bool",
              "name": "shouldUnwrapNativeToken",
              "type": "bool"
            },
            {
              "internalType": "bool",
              "name": "isFrozen",
              "type": "bool"
            }
          ],
          "internalType": "struct Order.Flags",
          "name": "flags",
          "type": "tuple"
        },
        {
          "internalType": "bytes",
          "name": "data",
          "type": "bytes"
        }
      ],
      "stateMutability": "view",
      "type": "function"
    },
    {
      "inputs": [
        {
          "internalType": "address",
          "name": "token",
          "type": "address"
        }
      ],
      "name": "recordTransferIn",
      "outputs": [
        {
          "internalType": "uint256",
          "name": "",
          "type": "uint256"
        }
      ],
      "stateMutability": "nonpayable",
      "type": "function"
    },
    {
      "inputs": [
        {
          "internalType": "address payable",
          "name": "receiver",
          "type": "address"
        },
        {
          "internalType": "uint256",
          "name": "amount",
          "type": "uint256"
        }
      ],
      "name": "recoverNativeToken",
      "outputs": [],
      "stateMutability": "nonpayable",
      "type": "function"
    },
    {
      "inputs": [
        {
          "internalType": "bytes32",
          "name": "key",
          "type": "bytes32"
        },
        {
          "internalType": "address",
          "name": "account",
          "type": "address"
        }
      ],
      "name": "remove",
      "outputs": [],
      "stateMutability": "nonpayable",
      "type": "function"
    },
    {
      "inputs": [],
      "name": "roleStore",
      "outputs": [
        {
          "internalType": "contract RoleStore",
          "name": "",
          "type": "address"
        }
      ],
      "stateMutability": "view",
      "type": "function"
    },
    {
      "inputs": [
        {
          "internalType": "bytes32",
          "name": "key",
          "type": "bytes32"
        },
        {
          "components": [
            {
              "components": [
                {
                  "internalType": "address",
                  "name": "account",
                  "type": "address"
                },
                {
                  "internalType": "address",
                  "name": "receiver",
                  "type": "address"
                },
                {
                  "internalType": "address",
                  "name": "callbackContract",
                  "type": "address"
                },
                {
                  "internalType": "address",
                  "name": "market",
                  "type": "address"
                },
                {
                  "internalType": "address",
                  "name": "initialCollateralToken",
                  "type": "address"
                },
                {
                  "internalType": "address[]",
                  "name": "swapPath",
                  "type": "address[]"
                }
              ],
              "internalType": "struct Order.Addresses",
              "name": "addresses",
              "type": "tuple"
            },
            {
              "components": [
                {
                  "internalType": "uint256",
                  "name": "sizeDeltaUsd",
                  "type": "uint256"
                },
                {
                  "internalType": "uint256",
                  "name": "initialCollateralDeltaAmount",
                  "type": "uint256"
                },
                {
                  "internalType": "uint256",
                  "name": "triggerPrice",
                  "type": "uint256"
                },
                {
                  "internalType": "uint256",
                  "name": "acceptablePrice",
                  "type": "uint256"
                },
                {
                  "internalType": "uint256",
                  "name": "executionFee",
                  "type": "uint256"
                },
                {
                  "internalType": "uint256",
                  "name": "callbackGasLimit",
                  "type": "uint256"
                },
                {
                  "internalType": "uint256",
                  "name": "minOutputAmount",
                  "type": "uint256"
                },
                {
                  "internalType": "uint256",
                  "name": "updatedAtBlock",
                  "type": "uint256"
                }
              ],
              "internalType": "struct Order.Numbers",
              "name": "numbers",
              "type": "tuple"
            },
            {
              "components": [
                {
                  "internalType": "enum Order.OrderType",
                  "name": "orderType",
                  "type": "uint8"
                },
                {
                  "internalType": "bool",
                  "name": "isLong",
                  "type": "bool"
                },
                {
                  "internalType": "bool",
                  "name": "shouldUnwrapNativeToken",
                  "type": "bool"
                },
                {
                  "internalType": "bool",
                  "name": "isFrozen",
                  "type": "bool"
                }
              ],
              "internalType": "struct Order.Flags",
              "name": "flags",
              "type": "tuple"
            },
            {
              "internalType": "bytes",
              "name": "data",
              "type": "bytes"
            }
          ],
          "internalType": "struct Order.Props",
          "name": "order",
          "type": "tuple"
        }
      ],
      "name": "set",
      "outputs": [],
      "stateMutability": "nonpayable",
      "type": "function"
    },
    {
      "inputs": [
        {
          "internalType": "address",
          "name": "_gov",
          "type": "address"
        }
      ],
      "name": "setGov",
      "outputs": [],
      "stateMutability": "nonpayable",
      "type": "function"
    },
    {
      "inputs": [
        {
          "internalType": "address",
          "name": "",
          "type": "address"
        }
      ],
      "name": "tokenBalances",
      "outputs": [
        {
          "internalType": "uint256",
          "name": "",
          "type": "uint256"
        }
      ],
      "stateMutability": "view",
      "type": "function"
    },
    {
      "inputs": [
        {
          "internalType": "address",
          "name": "token",
          "type": "address"
        },
        {
          "internalType": "address",
          "name": "receiver",
          "type": "address"
        },
        {
          "internalType": "uint256",
          "name": "amount",
          "type": "uint256"
        }
      ],
      "name": "transferOut",
      "outputs": [],
      "stateMutability": "nonpayable",
      "type": "function"
    },
    {
      "inputs": [
        {
          "internalType": "address",
          "name": "token",
          "type": "address"
        },
        {
          "internalType": "address",
          "name": "receiver",
          "type": "address"
        },
        {
          "internalType": "uint256",
          "name": "amount",
          "type": "uint256"
        },
        {
          "internalType": "bool",
          "name": "shouldUnwrapNativeToken",
          "type": "bool"
        }
      ],
      "name": "transferOut",
      "outputs": [],
      "stateMutability": "nonpayable",
      "type": "function"
    },
    {
      "inputs": [
        {
          "internalType": "address",
          "name": "receiver",
          "type": "address"
        },
        {
          "internalType": "uint256",
          "name": "amount",
          "type": "uint256"
        }
      ],
      "name": "transferOutNativeToken",
      "outputs": [],
      "stateMutability": "nonpayable",
      "type": "function"
    },
    {
      "stateMutability": "payable",
      "type": "receive"
    }
  ],
  "bytecode": "0x60c06040523480156200001157600080fd5b5060405162002710380380620027108339810160408190526200003491620000e0565b81818181818181620000463362000066565b6001600160a01b039081166080521660a052506200011f95505050505050565b600080546001600160a01b038381166001600160a01b031983168117909355604080519190921680825260208201939093527f53351836099c03ffc3b1727d8abd4b0222afa87d4ed76ae3102d51369ef7f785910160405180910390a15050565b6001600160a01b0381168114620000dd57600080fd5b50565b60008060408385031215620000f457600080fd5b82516200010181620000c7565b60208401519092506200011481620000c7565b809150509250929050565b60805160a0516125a16200016f6000396000818161025d0152818161055e0152818161060201528181610b8a01528181610e810152610fa30152600081816101fc0152610dbb01526125a16000f3fe6080604052600436106100e85760003560e01c8063078d3b79146100f457806312d43a51146101165780631d1a696d1461014c5780632874528e1461017c5780632fb126051461019c578063352f9aed146101bc5780634a4a7b04146101ea578063523fba7f1461021e578063660d0d671461024b5780636bd3d4511461027f5780636e343b2f1461029f5780638d0a5fbb146102cc5780638eaa6ac0146102e15780639227bac41461030e5780639c3f1e901461032e578063c5d9eb481461035e578063cfad57a21461037e578063d443ca941461039e578063e04b68ad146103be57600080fd5b366100ef57005b600080fd5b34801561010057600080fd5b5061011461010f366004611ab6565b6103de565b005b34801561012257600080fd5b50600054610136906001600160a01b031681565b6040516101439190611af7565b60405180910390f35b34801561015857600080fd5b5061016c610167366004611b0b565b61043e565b6040519015158152602001610143565b34801561018857600080fd5b50610114610197366004611b24565b610451565b3480156101a857600080fd5b506101146101b7366004611b62565b610545565b3480156101c857600080fd5b506101dc6101d7366004611bb5565b6105c9565b604051908152602001610143565b3480156101f657600080fd5b506101367f000000000000000000000000000000000000000000000000000000000000000081565b34801561022a57600080fd5b506101dc610239366004611bb5565b60016020526000908152604090205481565b34801561025757600080fd5b506101367f000000000000000000000000000000000000000000000000000000000000000081565b34801561028b57600080fd5b5061011461029a366004611bd2565b6105eb565b3480156102ab57600080fd5b506102bf6102ba366004611bfe565b61062c565b6040516101439190611c33565b3480156102d857600080fd5b506101dc61065a565b3480156102ed57600080fd5b506103016102fc366004611b0b565b61066b565b6040516101439190611e05565b34801561031a57600080fd5b506102bf610329366004611e71565b6108c3565b34801561033a57600080fd5b5061034e610349366004611b0b565b6108d8565b6040516101439493929190611e93565b34801561036a57600080fd5b506101dc610379366004611bb5565b610af6565b34801561038a57600080fd5b50610114610399366004611bb5565b610b17565b3480156103aa57600080fd5b506101146103b9366004611bd2565b610b71565b3480156103ca57600080fd5b506101146103d9366004612159565b610bbb565b61042e6040516020016103f0906122a3565b604051602081830303815290604052805190602001206040518060400160405280600a81526020016921a7a72a2927a62622a960b11b815250610da4565b610439838383610e54565b505050565b600061044b600383610eb1565b92915050565b6104636040516020016103f0906122a3565b6000828152600260208190526040822080546001600160a01b0319908116825560018201805482169055918101805483169055600381018054831690556004810180549092169091559081816104bc6005830182611906565b5050600060068301819055600783018190556008830181905560098301819055600a8301819055600b8301819055600c8301819055600d8301819055600e8301805463ffffffff1916905561051590600f840190611924565b50506001600160a01b03811660009081526005602052604090206105399083610ebd565b50610439600383610ebd565b6105576040516020016103f0906122a3565b60006105827f0000000000000000000000000000000000000000000000000000000000000000610ec9565b9050806001600160a01b0316856001600160a01b03161480156105a25750815b156105b7576105b2858585610f76565b6105c2565b6105c2858585610e54565b5050505050565b60006105dd6040516020016103f0906122a3565b61044b82610fca565b919050565b6105fd6040516020016103f0906122a3565b6106287f00000000000000000000000000000000000000000000000000000000000000008383611073565b5050565b6001600160a01b038316600090815260056020526040902060609061065290848461122a565b949350505050565b600061066660036112ea565b905090565b61067361195e565b60008281526002602081815260409283902083516101408101855281546001600160a01b03908116608083019081526001840154821660a084015294830154811660c08301526003830154811660e083015260048301541661010082015260058201805486518186028101860190975280875291959294869490938693610120870193919283018282801561073157602002820191906000526020600020905b81546001600160a01b03168152600190910190602001808311610713575b50505050508152505081526020016006820160405180610100016040529081600082015481526020016001820154815260200160028201548152602001600382015481526020016004820154815260200160058201548152602001600682015481526020016007820154815250508152602001600e82016040518060800160405290816000820160009054906101000a900460ff1660078111156107d7576107d7611d58565b60078111156107e8576107e8611d58565b8152905460ff6101008204811615156020808501919091526201000083048216151560408501526301000000909204161515606090920191909152908252600f83018054929091019161083a906122c7565b80601f0160208091040260200160405190810160405280929190818152602001828054610866906122c7565b80156108b35780601f10610888576101008083540402835291602001916108b3565b820191906000526020600020905b81548152906001019060200180831161089657829003601f168201915b5050505050815250509050919050565b60606108d16003848461122a565b9392505050565b600260208181526000928352604092839020835160c08101855281546001600160a01b039081168252600183015481168285015293820154841681860152600382015484166060820152600482015490931660808401526005810180548551818502810185019096528086529194859360a08601939192919083018282801561098a57602002820191906000526020600020905b81546001600160a01b0316815260019091019060200180831161096c575b505050919092525050604080516101008101825260068501548152600780860154602083015260088601548284015260098601546060830152600a860154608080840191909152600b87015460a0840152600c87015460c0840152600d87015460e08401528351908101909352600e860180549596929592945091839160ff90911690811115610a1c57610a1c611d58565b6007811115610a2d57610a2d611d58565b8152905460ff61010082048116151560208401526201000082048116151560408401526301000000909104161515606090910152600f82018054919291610a73906122c7565b80601f0160208091040260200160405190810160405280929190818152602001828054610a9f906122c7565b8015610aec5780601f10610ac157610100808354040283529160200191610aec565b820191906000526020600020905b815481529060010190602001808311610acf57829003601f168201915b5050505050905084565b6001600160a01b038116600090815260056020526040812061044b906112ea565b6000546001600160a01b03163314610b65576040805163a35b150b60e01b81523360048201526024810191909152600360448201526223a7ab60e91b60648201526084015b60405180910390fd5b610b6e816112f4565b50565b610b836040516020016103f0906122a3565b6000610bae7f0000000000000000000000000000000000000000000000000000000000000000610ec9565b9050610439818484610f76565b610bcd6040516020016103f0906122a3565b6000828152600260208181526040928390208451805182546001600160a01b03199081166001600160a01b0392831617845582850151600185018054831691841691909117905595820151948301805487169582169590951790945560608101516003830180548716918616919091179055608081015160048301805490961694169390931790935560a08201518051859493928492610c769260058501929190910190611a1c565b50505060208281015180516006840155908101516007808401919091556040808301516008850155606083015160098501556080830151600a85015560a0830151600b85015560c0830151600c85015560e090920151600d840155908301518051600e8401805492939092839160ff19909116906001908490811115610cfe57610cfe611d58565b0217905550602082015181546040840151606094850151151563010000000263ff00000019911515620100000262ff000019941515610100029490941662ffff0019909316929092179290921791909116179055820151600f820190610d64908261234f565b50905050610d988260056000610d7985515190565b6001600160a01b03168152602081019190915260400160002090611355565b50610439600383611355565b60405163ac4ab3fb60e01b81526001600160a01b037f0000000000000000000000000000000000000000000000000000000000000000169063ac4ab3fb90610df2903390869060040161240e565b602060405180830381865afa158015610e0f573d6000803e3d6000fd5b505050506040513d601f19601f82011682018060405250810190610e339190612427565b61062857338160405163a35b150b60e01b8152600401610b5c929190612444565b306001600160a01b03831603610e7c5760405162461bcd60e51b8152600401610b5c90612468565b610ea87f0000000000000000000000000000000000000000000000000000000000000000848484611361565b61043983611497565b60006108d18383611520565b60006108d18383611538565b6000816001600160a01b03166321f8a721604051602001610f019060208082526003908201526215d39560ea1b604082015260600190565b604051602081830303815290604052805190602001206040518263ffffffff1660e01b8152600401610f3591815260200190565b602060405180830381865afa158015610f52573d6000803e3d6000fd5b505050506040513d601f19601f8201168201806040525081019061044b9190612498565b306001600160a01b03831603610f9e5760405162461bcd60e51b8152600401610b5c90612468565b610ea87f000000000000000000000000000000000000000000000000000000000000000084848461162b565b6001600160a01b0381166000818152600160205260408082205490516370a0823160e01b8152919290918391906370a082319061100b903090600401611af7565b602060405180830381865afa158015611028573d6000803e3d6000fd5b505050506040513d601f19601f8201168201806040525081019061104c91906124b5565b6001600160a01b0385166000908152600160205260409020819055905061065282826124e4565b8060000361108057505050565b6000836001600160a01b031663bd02d0f56040516020016110d2906020808252601f908201527f4e41544956455f544f4b454e5f5452414e534645525f4741535f4c494d495400604082015260600190565b604051602081830303815290604052805190602001206040518263ffffffff1660e01b815260040161110691815260200190565b602060405180830381865afa158015611123573d6000803e3d6000fd5b505050506040513d601f19601f8201168201806040525081019061114791906124b5565b9050600080846001600160a01b0316848490604051600060405180830381858888f193505050503d806000811461119a576040519150601f19603f3d011682016040523d82523d6000602084013e61119f565b606091505b509150915081156111b257505050505050565b6000816040516020016111c591906124f7565b60405160208183030381529060405290507f6c4e9d88878940a822d239187b8b00d62a80dce222d53bc5f1fb072d9c34b6818160405161120591906124f7565b60405180910390a18585604051633828654560e11b8152600401610b5c92919061240e565b60606000611237856112ea565b905080831115611245578092505b600061125185856124e4565b6001600160401b0381111561126857611268611ee2565b604051908082528060200260200182016040528015611291578160200160208202803683370190505b509050845b848110156112e0576112a88782611696565b826112b388846124e4565b815181106112c3576112c361250a565b6020908102919091010152806112d881612520565b915050611296565b5095945050505050565b600061044b825490565b600080546001600160a01b038381166001600160a01b031983168117909355604080519190921680825260208201939093527f53351836099c03ffc3b1727d8abd4b0222afa87d4ed76ae3102d51369ef7f785910160405180910390a15050565b60006108d183836116a2565b8015611491576000846001600160a01b031663bd02d0f5611381866116ec565b6040518263ffffffff1660e01b815260040161139f91815260200190565b602060405180830381865afa1580156113bc573d6000803e3d6000fd5b505050506040513d601f19601f820116820180604052508101906113e091906124b5565b90506000806113f186868686611774565b91509150811561140357505050611491565b60008160405160200161141691906124f7565b60405160208183030381529060405290507f9db60cdf21cde7f760995e23662841725e6aa63be48799796db12b7b2e6b17e28160405161145691906124f7565b60405180910390a160405163012f3b8f60e71b81526001600160a01b0380891660048301528716602482015260448101869052606401610b5c565b50505050565b6040516370a0823160e01b81526001600160a01b038216906370a08231906114c3903090600401611af7565b602060405180830381865afa1580156114e0573d6000803e3d6000fd5b505050506040513d601f19601f8201168201806040525081019061150491906124b5565b6001600160a01b03909116600090815260016020526040902055565b60009081526001919091016020526040902054151590565b6000818152600183016020526040812054801561162157600061155c6001836124e4565b8554909150600090611570906001906124e4565b90508181146115d55760008660000182815481106115905761159061250a565b90600052602060002001549050808760000184815481106115b3576115b361250a565b6000918252602080832090910192909255918252600188019052604090208390555b85548690806115e6576115e6612539565b60019003818190600052602060002001600090559055856001016000868152602001908152602001600020600090556001935050505061044b565b600091505061044b565b801561149157604051632e1a7d4d60e01b8152600481018290526001600160a01b03841690632e1a7d4d90602401600060405180830381600087803b15801561167357600080fd5b505af1158015611687573d6000803e3d6000fd5b50505050611491848383611073565b60006108d183836118dc565b60006116ae8383611520565b6116e45750815460018181018455600084815260208082209093018490558454848252828601909352604090209190915561044b565b50600061044b565b600060405160200161172a906020808252601890820152771513d2d15397d514905394d1915497d1d054d7d31253525560421b604082015260600190565b60408051601f198184030181528282528051602091820120908301526001600160a01b03841690820152606001604051602081830303815290604052805190602001209050919050565b60006060600063a9059cbb60e01b868660405160240161179592919061240e565b604051602081830303815290604052906001600160e01b0319166020820180516001600160e01b0383818316178352505050509050600080886001600160a01b031686846040516117e6919061254f565b60006040518083038160008787f1925050503d8060008114611824576040519150601f19603f3d011682016040523d82523d6000602084013e611829565b606091505b509150915081156118ca578051600003611887576001600160a01b0389163b6118875760006040518060400160405280601481526020017310d85b1b081d1bc81b9bdb8b58dbdb9d1c9858dd60621b815250945094505050506118d3565b600081511180156118a95750808060200190518101906118a79190612427565b155b156118bc576000945092506118d3915050565b6001945092506118d3915050565b60009450925050505b94509492505050565b60008260000182815481106118f3576118f361250a565b9060005260206000200154905092915050565b5080546000825590600052602060002090810190610b6e9190611a81565b508054611930906122c7565b6000825580601f10611940575050565b601f016020900490600052602060002090810190610b6e9190611a81565b60408051610140810190915260006080820181815260a0830182905260c0830182905260e083018290526101008301919091526060610120830152819081526020016119e860405180610100016040528060008152602001600081526020016000815260200160008152602001600081526020016000815260200160008152602001600081525090565b8152604080516080810182526000808252602082810182905292820181905260608201529101908152602001606081525090565b828054828255906000526020600020908101928215611a71579160200282015b82811115611a7157825182546001600160a01b0319166001600160a01b03909116178255602090920191600190910190611a3c565b50611a7d929150611a81565b5090565b5b80821115611a7d5760008155600101611a82565b6001600160a01b0381168114610b6e57600080fd5b80356105e681611a96565b600080600060608486031215611acb57600080fd5b8335611ad681611a96565b92506020840135611ae681611a96565b929592945050506040919091013590565b6001600160a01b0391909116815260200190565b600060208284031215611b1d57600080fd5b5035919050565b60008060408385031215611b3757600080fd5b823591506020830135611b4981611a96565b809150509250929050565b8015158114610b6e57600080fd5b60008060008060808587031215611b7857600080fd5b8435611b8381611a96565b93506020850135611b9381611a96565b9250604085013591506060850135611baa81611b54565b939692955090935050565b600060208284031215611bc757600080fd5b81356108d181611a96565b60008060408385031215611be557600080fd5b8235611bf081611a96565b946020939093013593505050565b600080600060608486031215611c1357600080fd5b8335611c1e81611a96565b95602085013595506040909401359392505050565b6020808252825182820181905260009190848201906040850190845b81811015611c6b57835183529284019291840191600101611c4f565b50909695505050505050565b600060c0830160018060a01b0380845116855260208181860151168187015281604086015116604087015281606086015116606087015281608086015116608087015260a085015160c060a088015283815180865260e0890191508383019550600092505b80831015611cfe57855185168252948301946001929092019190830190611cdc565b50979650505050505050565b805182526020810151602083015260408101516040830152606081015160608301526080810151608083015260a081015160a083015260c081015160c083015260e081015160e08301525050565b634e487b7160e01b600052602160045260246000fd5b805160088110611d8e57634e487b7160e01b600052602160045260246000fd5b82526020818101511515908301526040808201511515908301526060908101511515910152565b60005b83811015611dd0578181015183820152602001611db8565b50506000910152565b60008151808452611df1816020860160208601611db5565b601f01601f19169290920160200192915050565b60208152600082516101c0806020850152611e246101e0850183611c77565b91506020850151611e386040860182611d0a565b506040850151611e4c610140860182611d6e565b506060850151848303601f190182860152611e678382611dd9565b9695505050505050565b60008060408385031215611e8457600080fd5b50508035926020909101359150565b60006101c0808352611ea781840188611c77565b9050611eb66020840187611d0a565b611ec4610120840186611d6e565b8281036101a0840152611ed78185611dd9565b979650505050505050565b634e487b7160e01b600052604160045260246000fd5b604051608081016001600160401b0381118282101715611f1a57611f1a611ee2565b60405290565b60405160c081016001600160401b0381118282101715611f1a57611f1a611ee2565b604051601f8201601f191681016001600160401b0381118282101715611f6a57611f6a611ee2565b604052919050565b600082601f830112611f8357600080fd5b813560206001600160401b03821115611f9e57611f9e611ee2565b8160051b611fad828201611f42565b9283528481018201928281019087851115611fc757600080fd5b83870192505b84831015611ed7578235611fe081611a96565b82529183019190830190611fcd565b600061010080838503121561200357600080fd5b604051908101906001600160401b038211818310171561202557612025611ee2565b81604052809250833581526020840135602082015260408401356040820152606084013560608201526080840135608082015260a084013560a082015260c084013560c082015260e084013560e0820152505092915050565b60006080828403121561209057600080fd5b612098611ef8565b90508135600881106120a957600080fd5b815260208201356120b981611b54565b602082015260408201356120cc81611b54565b604082015260608201356120df81611b54565b606082015292915050565b600082601f8301126120fb57600080fd5b81356001600160401b0381111561211457612114611ee2565b612127601f8201601f1916602001611f42565b81815284602083860101111561213c57600080fd5b816020850160208301376000918101602001919091529392505050565b6000806040838503121561216c57600080fd5b8235915060208301356001600160401b038082111561218a57600080fd5b908401906101c0828703121561219f57600080fd5b6121a7611ef8565b8235828111156121b657600080fd5b830160c081890312156121c857600080fd5b6121d0611f20565b81356121db81611a96565b815260208201356121eb81611a96565b602082015260408201356121fe81611a96565b604082015261220f60608301611aab565b606082015261222060808301611aab565b608082015260a08201358481111561223757600080fd5b6122438a828501611f72565b60a0830152508252506122598760208501611fef565b602082015261226c87610120850161207e565b60408201526101a08301358281111561228457600080fd5b612290888286016120ea565b6060830152508093505050509250929050565b6020808252600a908201526921a7a72a2927a62622a960b11b604082015260600190565b600181811c908216806122db57607f821691505b6020821081036122fb57634e487b7160e01b600052602260045260246000fd5b50919050565b601f82111561043957600081815260208120601f850160051c810160208610156123285750805b601f850160051c820191505b8181101561234757828155600101612334565b505050505050565b81516001600160401b0381111561236857612368611ee2565b61237c8161237684546122c7565b84612301565b602080601f8311600181146123b157600084156123995750858301515b600019600386901b1c1916600185901b178555612347565b600085815260208120601f198616915b828110156123e0578886015182559484019460019091019084016123c1565b50858210156123fe5787850151600019600388901b60f8161c191681555b5050505050600190811b01905550565b6001600160a01b03929092168252602082015260400190565b60006020828403121561243957600080fd5b81516108d181611b54565b6001600160a01b038316815260406020820181905260009061065290830184611dd9565b6020808252601690820152752130b7359d1034b73b30b634b2103932b1b2b4bb32b960511b604082015260600190565b6000602082840312156124aa57600080fd5b81516108d181611a96565b6000602082840312156124c757600080fd5b5051919050565b634e487b7160e01b600052601160045260246000fd5b8181038181111561044b5761044b6124ce565b6020815260006108d16020830184611dd9565b634e487b7160e01b600052603260045260246000fd5b600060018201612532576125326124ce565b5060010190565b634e487b7160e01b600052603160045260246000fd5b60008251612561818460208701611db5565b919091019291505056fea2646970667358221220d86d6de0d11f9dc69102acc0a7803bdd4adcac2ec56cb7b4c65c559d1320cdc364736f6c63430008100033",
  "linkReferences": {},
  "deployedLinkReferences": {}
}