{
  "_format": "hh-sol-artifact-1",
  "contractName": "PositionStore",
  "sourceName": "contracts/position/PositionStore.sol",
  "abi": [
    {
      "inputs": [
        {
          "internalType": "contract RoleStore",
          "name": "_roleStore",
          "type": "address"
        },
        {
          "internalType": "contract DataStore",
          "name": "_dataStore",
          "type": "address"
        }
      ],
      "stateMutability": "nonpayable",
      "type": "constructor"
    },
    {
      "inputs": [
        {
          "internalType": "address",
          "name": "receiver",
          "type": "address"
        },
        {
          "internalType": "uint256",
          "name": "amount",
          "type": "uint256"
        }
      ],
      "name": "NativeTokenTransferError",
      "type": "error"
    },
    {
      "inputs": [
        {
          "internalType": "address",
          "name": "token",
          "type": "address"
        },
        {
          "internalType": "address",
          "name": "receiver",
          "type": "address"
        },
        {
          "internalType": "uint256",
          "name": "amount",
          "type": "uint256"
        }
      ],
      "name": "TokenTransferError",
      "type": "error"
    },
    {
      "inputs": [
        {
          "internalType": "address",
          "name": "msgSender",
          "type": "address"
        },
        {
          "internalType": "string",
          "name": "role",
          "type": "string"
        }
      ],
      "name": "Unauthorized",
      "type": "error"
    },
    {
      "anonymous": false,
      "inputs": [
        {
          "indexed": false,
          "internalType": "address",
          "name": "prevGov",
          "type": "address"
        },
        {
          "indexed": false,
          "internalType": "address",
          "name": "nextGov",
          "type": "address"
        }
      ],
      "name": "SetGov",
      "type": "event"
    },
    {
      "inputs": [
        {
          "internalType": "bytes32",
          "name": "key",
          "type": "bytes32"
        }
      ],
      "name": "contains",
      "outputs": [
        {
          "internalType": "bool",
          "name": "",
          "type": "bool"
        }
      ],
      "stateMutability": "view",
      "type": "function"
    },
    {
      "inputs": [],
      "name": "dataStore",
      "outputs": [
        {
          "internalType": "contract DataStore",
          "name": "",
          "type": "address"
        }
      ],
      "stateMutability": "view",
      "type": "function"
    },
    {
      "inputs": [
        {
          "internalType": "bytes32",
          "name": "key",
          "type": "bytes32"
        }
      ],
      "name": "get",
      "outputs": [
        {
          "components": [
            {
              "components": [
                {
                  "internalType": "address",
                  "name": "account",
                  "type": "address"
                },
                {
                  "internalType": "address",
                  "name": "market",
                  "type": "address"
                },
                {
                  "internalType": "address",
                  "name": "collateralToken",
                  "type": "address"
                }
              ],
              "internalType": "struct Position.Addresses",
              "name": "addresses",
              "type": "tuple"
            },
            {
              "components": [
                {
                  "internalType": "uint256",
                  "name": "sizeInUsd",
                  "type": "uint256"
                },
                {
                  "internalType": "uint256",
                  "name": "sizeInTokens",
                  "type": "uint256"
                },
                {
                  "internalType": "uint256",
                  "name": "collateralAmount",
                  "type": "uint256"
                },
                {
                  "internalType": "uint256",
                  "name": "borrowingFactor",
                  "type": "uint256"
                },
                {
                  "internalType": "int256",
                  "name": "longTokenFundingAmountPerSize",
                  "type": "int256"
                },
                {
                  "internalType": "int256",
                  "name": "shortTokenFundingAmountPerSize",
                  "type": "int256"
                },
                {
                  "internalType": "uint256",
                  "name": "increasedAtBlock",
                  "type": "uint256"
                },
                {
                  "internalType": "uint256",
                  "name": "decreasedAtBlock",
                  "type": "uint256"
                }
              ],
              "internalType": "struct Position.Numbers",
              "name": "numbers",
              "type": "tuple"
            },
            {
              "components": [
                {
                  "internalType": "bool",
                  "name": "isLong",
                  "type": "bool"
                }
              ],
              "internalType": "struct Position.Flags",
              "name": "flags",
              "type": "tuple"
            },
            {
              "internalType": "bytes",
              "name": "data",
              "type": "bytes"
            }
          ],
          "internalType": "struct Position.Props",
          "name": "",
          "type": "tuple"
        }
      ],
      "stateMutability": "view",
      "type": "function"
    },
    {
      "inputs": [
        {
          "internalType": "address",
          "name": "account",
          "type": "address"
        }
      ],
      "name": "getAccountPositionCount",
      "outputs": [
        {
          "internalType": "uint256",
          "name": "",
          "type": "uint256"
        }
      ],
      "stateMutability": "view",
      "type": "function"
    },
    {
      "inputs": [
        {
          "internalType": "address",
          "name": "account",
          "type": "address"
        },
        {
          "internalType": "uint256",
          "name": "start",
          "type": "uint256"
        },
        {
          "internalType": "uint256",
          "name": "end",
          "type": "uint256"
        }
      ],
      "name": "getAccountPositionKeys",
      "outputs": [
        {
          "internalType": "bytes32[]",
          "name": "",
          "type": "bytes32[]"
        }
      ],
      "stateMutability": "view",
      "type": "function"
    },
    {
      "inputs": [],
      "name": "getPositionCount",
      "outputs": [
        {
          "internalType": "uint256",
          "name": "",
          "type": "uint256"
        }
      ],
      "stateMutability": "view",
      "type": "function"
    },
    {
      "inputs": [
        {
          "internalType": "uint256",
          "name": "start",
          "type": "uint256"
        },
        {
          "internalType": "uint256",
          "name": "end",
          "type": "uint256"
        }
      ],
      "name": "getPositionKeys",
      "outputs": [
        {
          "internalType": "bytes32[]",
          "name": "",
          "type": "bytes32[]"
        }
      ],
      "stateMutability": "view",
      "type": "function"
    },
    {
      "inputs": [],
      "name": "gov",
      "outputs": [
        {
          "internalType": "address",
          "name": "",
          "type": "address"
        }
      ],
      "stateMutability": "view",
      "type": "function"
    },
    {
      "inputs": [
        {
          "internalType": "address",
          "name": "token",
          "type": "address"
        }
      ],
      "name": "recordTransferIn",
      "outputs": [
        {
          "internalType": "uint256",
          "name": "",
          "type": "uint256"
        }
      ],
      "stateMutability": "nonpayable",
      "type": "function"
    },
    {
      "inputs": [
        {
          "internalType": "address payable",
          "name": "receiver",
          "type": "address"
        },
        {
          "internalType": "uint256",
          "name": "amount",
          "type": "uint256"
        }
      ],
      "name": "recoverNativeToken",
      "outputs": [],
      "stateMutability": "nonpayable",
      "type": "function"
    },
    {
      "inputs": [
        {
          "internalType": "bytes32",
          "name": "key",
          "type": "bytes32"
        },
        {
          "internalType": "address",
          "name": "account",
          "type": "address"
        }
      ],
      "name": "remove",
      "outputs": [],
      "stateMutability": "nonpayable",
      "type": "function"
    },
    {
      "inputs": [],
      "name": "roleStore",
      "outputs": [
        {
          "internalType": "contract RoleStore",
          "name": "",
          "type": "address"
        }
      ],
      "stateMutability": "view",
      "type": "function"
    },
    {
      "inputs": [
        {
          "internalType": "bytes32",
          "name": "key",
          "type": "bytes32"
        },
        {
          "internalType": "address",
          "name": "account",
          "type": "address"
        },
        {
          "components": [
            {
              "components": [
                {
                  "internalType": "address",
                  "name": "account",
                  "type": "address"
                },
                {
                  "internalType": "address",
                  "name": "market",
                  "type": "address"
                },
                {
                  "internalType": "address",
                  "name": "collateralToken",
                  "type": "address"
                }
              ],
              "internalType": "struct Position.Addresses",
              "name": "addresses",
              "type": "tuple"
            },
            {
              "components": [
                {
                  "internalType": "uint256",
                  "name": "sizeInUsd",
                  "type": "uint256"
                },
                {
                  "internalType": "uint256",
                  "name": "sizeInTokens",
                  "type": "uint256"
                },
                {
                  "internalType": "uint256",
                  "name": "collateralAmount",
                  "type": "uint256"
                },
                {
                  "internalType": "uint256",
                  "name": "borrowingFactor",
                  "type": "uint256"
                },
                {
                  "internalType": "int256",
                  "name": "longTokenFundingAmountPerSize",
                  "type": "int256"
                },
                {
                  "internalType": "int256",
                  "name": "shortTokenFundingAmountPerSize",
                  "type": "int256"
                },
                {
                  "internalType": "uint256",
                  "name": "increasedAtBlock",
                  "type": "uint256"
                },
                {
                  "internalType": "uint256",
                  "name": "decreasedAtBlock",
                  "type": "uint256"
                }
              ],
              "internalType": "struct Position.Numbers",
              "name": "numbers",
              "type": "tuple"
            },
            {
              "components": [
                {
                  "internalType": "bool",
                  "name": "isLong",
                  "type": "bool"
                }
              ],
              "internalType": "struct Position.Flags",
              "name": "flags",
              "type": "tuple"
            },
            {
              "internalType": "bytes",
              "name": "data",
              "type": "bytes"
            }
          ],
          "internalType": "struct Position.Props",
          "name": "position",
          "type": "tuple"
        }
      ],
      "name": "set",
      "outputs": [],
      "stateMutability": "nonpayable",
      "type": "function"
    },
    {
      "inputs": [
        {
          "internalType": "address",
          "name": "_gov",
          "type": "address"
        }
      ],
      "name": "setGov",
      "outputs": [],
      "stateMutability": "nonpayable",
      "type": "function"
    },
    {
      "inputs": [
        {
          "internalType": "address",
          "name": "",
          "type": "address"
        }
      ],
      "name": "tokenBalances",
      "outputs": [
        {
          "internalType": "uint256",
          "name": "",
          "type": "uint256"
        }
      ],
      "stateMutability": "view",
      "type": "function"
    },
    {
      "inputs": [
        {
          "internalType": "address",
          "name": "token",
          "type": "address"
        },
        {
          "internalType": "address",
          "name": "receiver",
          "type": "address"
        },
        {
          "internalType": "uint256",
          "name": "amount",
          "type": "uint256"
        }
      ],
      "name": "transferOut",
      "outputs": [],
      "stateMutability": "nonpayable",
      "type": "function"
    },
    {
      "inputs": [
        {
          "internalType": "address",
          "name": "token",
          "type": "address"
        },
        {
          "internalType": "address",
          "name": "receiver",
          "type": "address"
        },
        {
          "internalType": "uint256",
          "name": "amount",
          "type": "uint256"
        },
        {
          "internalType": "bool",
          "name": "shouldUnwrapNativeToken",
          "type": "bool"
        }
      ],
      "name": "transferOut",
      "outputs": [],
      "stateMutability": "nonpayable",
      "type": "function"
    },
    {
      "inputs": [
        {
          "internalType": "address",
          "name": "receiver",
          "type": "address"
        },
        {
          "internalType": "uint256",
          "name": "amount",
          "type": "uint256"
        }
      ],
      "name": "transferOutNativeToken",
      "outputs": [],
      "stateMutability": "nonpayable",
      "type": "function"
    },
    {
      "stateMutability": "payable",
      "type": "receive"
    }
  ],
  "bytecode": "0x60c06040523480156200001157600080fd5b5060405162001fef38038062001fef8339810160408190526200003491620000e0565b81818181818181620000463362000066565b6001600160a01b039081166080521660a052506200011f95505050505050565b600080546001600160a01b038381166001600160a01b031983168117909355604080519190921680825260208201939093527f53351836099c03ffc3b1727d8abd4b0222afa87d4ed76ae3102d51369ef7f785910160405180910390a15050565b6001600160a01b0381168114620000dd57600080fd5b50565b60008060408385031215620000f457600080fd5b82516200010181620000c7565b60208401519092506200011481620000c7565b809150509250929050565b60805160a051611e806200016f600039600081816102720152818161061c015281816106bb0152818161092201528181610a510152610b7f015260008181610211015261098b0152611e806000f3fe6080604052600436106100dd5760003560e01c8063078d3b79146100e957806312d43a511461010b57806319890c48146101415780631d1a696d146101615780632874528e146101915780632fb12605146101b1578063352f9aed146101d15780634a4a7b04146101ff578063523fba7f14610233578063660d0d67146102605780636bd3d451146102945780637f497d97146102b457806381683476146102e15780638c5ea9b8146102f65780638eaa6ac014610316578063cfad57a214610343578063d443ca9414610363578063e52764451461038357600080fd5b366100e457005b600080fd5b3480156100f557600080fd5b506101096101043660046115c6565b6103a3565b005b34801561011757600080fd5b5060005461012b906001600160a01b031681565b6040516101389190611607565b60405180910390f35b34801561014d57600080fd5b5061010961015c3660046117f1565b610403565b34801561016d57600080fd5b5061018161017c3660046118f9565b610527565b6040519015158152602001610138565b34801561019d57600080fd5b506101096101ac366004611912565b61053a565b3480156101bd57600080fd5b506101096101cc366004611942565b610603565b3480156101dd57600080fd5b506101f16101ec366004611995565b610687565b604051908152602001610138565b34801561020b57600080fd5b5061012b7f000000000000000000000000000000000000000000000000000000000000000081565b34801561023f57600080fd5b506101f161024e366004611995565b60016020526000908152604090205481565b34801561026c57600080fd5b5061012b7f000000000000000000000000000000000000000000000000000000000000000081565b3480156102a057600080fd5b506101096102af3660046119b2565b6106a4565b3480156102c057600080fd5b506102d46102cf3660046119de565b6106e5565b6040516101389190611a00565b3480156102ed57600080fd5b506101f16106fa565b34801561030257600080fd5b506102d4610311366004611a44565b61070b565b34801561032257600080fd5b506103366103313660046118f9565b610739565b6040516101389190611ac9565b34801561034f57600080fd5b5061010961035e366004611995565b6108af565b34801561036f57600080fd5b5061010961037e3660046119b2565b610909565b34801561038f57600080fd5b506101f161039e366004611995565b610953565b6103f36040516020016103b590611b82565b604051602081830303815290604052805190602001206040518060400160405280600a81526020016921a7a72a2927a62622a960b11b815250610974565b6103fe838383610a24565b505050565b6104156040516020016103b590611b82565b6000838152600260208181526040928390208451805182546001600160a01b03199081166001600160a01b03928316178455828501516001850180548316918416919091179055918601519483018054909216941693909317909255838101518051600384015590810151600483015580830151600583015560608082015160068401556080820151600784015560a0820151600884015560c0820151600984015560e090910151600a8301559183015151600b8201805460ff191691151591909117905590820151829190600c8201906104f09082611c2e565b5050506001600160a01b03821660009081526005602052604090206105159084610a81565b50610521600384610a81565b50505050565b6000610534600383610a8d565b92915050565b61054c6040516020016103b590611b82565b6000828152600260208190526040822080546001600160a01b0319908116825560018201805482169055918101805490921690915560038101829055600481018290556005810182905560068101829055600781018290556008810182905560098101829055600a8101829055600b8101805460ff19169055906105d3600c8301826114d0565b50506001600160a01b03811660009081526005602052604090206105f79083610a99565b506103fe600383610a99565b6106156040516020016103b590611b82565b60006106407f0000000000000000000000000000000000000000000000000000000000000000610aa5565b9050806001600160a01b0316856001600160a01b03161480156106605750815b1561067557610670858585610b52565b610680565b610680858585610a24565b5050505050565b600061069b6040516020016103b590611b82565b61053482610ba6565b6106b66040516020016103b590611b82565b6106e17f00000000000000000000000000000000000000000000000000000000000000008383610c4f565b5050565b60606106f360038484610e06565b9392505050565b60006107066003610ec6565b905090565b6001600160a01b0383166000908152600560205260409020606090610731908484610e06565b949350505050565b61074161150a565b600082815260026020818152604092839020835160e0808201865282546001600160a01b0390811660808085019182526001860154831660a0808701919091529786015490921660c080860191909152908452875161010081018952600386015481526004860154818801526005860154818a01526006860154606082810191909152600787015493820193909352600886015497810197909752600985015490870152600a840154918601919091528184019490945284519283018552600b82015460ff161515835293840191909152600c81018054919284019161082690611ba6565b80601f016020809104026020016040519081016040528092919081815260200182805461085290611ba6565b801561089f5780601f106108745761010080835404028352916020019161089f565b820191906000526020600020905b81548152906001019060200180831161088257829003601f168201915b5050505050815250509050919050565b6000546001600160a01b031633146108fd576040805163a35b150b60e01b81523360048201526024810191909152600360448201526223a7ab60e91b60648201526084015b60405180910390fd5b61090681610ed0565b50565b61091b6040516020016103b590611b82565b60006109467f0000000000000000000000000000000000000000000000000000000000000000610aa5565b90506103fe818484610b52565b6001600160a01b038116600090815260056020526040812061053490610ec6565b60405163ac4ab3fb60e01b81526001600160a01b037f0000000000000000000000000000000000000000000000000000000000000000169063ac4ab3fb906109c29033908690600401611ced565b602060405180830381865afa1580156109df573d6000803e3d6000fd5b505050506040513d601f19601f82011682018060405250810190610a039190611d06565b6106e157338160405163a35b150b60e01b81526004016108f4929190611d23565b306001600160a01b03831603610a4c5760405162461bcd60e51b81526004016108f490611d47565b610a787f0000000000000000000000000000000000000000000000000000000000000000848484610f31565b6103fe83611061565b60006106f383836110ea565b60006106f38383611134565b60006106f3838361114c565b6000816001600160a01b03166321f8a721604051602001610add9060208082526003908201526215d39560ea1b604082015260600190565b604051602081830303815290604052805190602001206040518263ffffffff1660e01b8152600401610b1191815260200190565b602060405180830381865afa158015610b2e573d6000803e3d6000fd5b505050506040513d601f19601f820116820180604052508101906105349190611d77565b306001600160a01b03831603610b7a5760405162461bcd60e51b81526004016108f490611d47565b610a787f000000000000000000000000000000000000000000000000000000000000000084848461123f565b6001600160a01b0381166000818152600160205260408082205490516370a0823160e01b8152919290918391906370a0823190610be7903090600401611607565b602060405180830381865afa158015610c04573d6000803e3d6000fd5b505050506040513d601f19601f82011682018060405250810190610c289190611d94565b6001600160a01b038516600090815260016020526040902081905590506107318282611dc3565b80600003610c5c57505050565b6000836001600160a01b031663bd02d0f5604051602001610cae906020808252601f908201527f4e41544956455f544f4b454e5f5452414e534645525f4741535f4c494d495400604082015260600190565b604051602081830303815290604052805190602001206040518263ffffffff1660e01b8152600401610ce291815260200190565b602060405180830381865afa158015610cff573d6000803e3d6000fd5b505050506040513d601f19601f82011682018060405250810190610d239190611d94565b9050600080846001600160a01b0316848490604051600060405180830381858888f193505050503d8060008114610d76576040519150601f19603f3d011682016040523d82523d6000602084013e610d7b565b606091505b50915091508115610d8e57505050505050565b600081604051602001610da19190611dd6565b60405160208183030381529060405290507f6c4e9d88878940a822d239187b8b00d62a80dce222d53bc5f1fb072d9c34b68181604051610de19190611dd6565b60405180910390a18585604051633828654560e11b81526004016108f4929190611ced565b60606000610e1385610ec6565b905080831115610e21578092505b6000610e2d8585611dc3565b6001600160401b03811115610e4457610e4461161b565b604051908082528060200260200182016040528015610e6d578160200160208202803683370190505b509050845b84811015610ebc57610e8487826112aa565b82610e8f8884611dc3565b81518110610e9f57610e9f611de9565b602090810291909101015280610eb481611dff565b915050610e72565b5095945050505050565b6000610534825490565b600080546001600160a01b038381166001600160a01b031983168117909355604080519190921680825260208201939093527f53351836099c03ffc3b1727d8abd4b0222afa87d4ed76ae3102d51369ef7f785910160405180910390a15050565b8015610521576000846001600160a01b031663bd02d0f5610f51866112b6565b6040518263ffffffff1660e01b8152600401610f6f91815260200190565b602060405180830381865afa158015610f8c573d6000803e3d6000fd5b505050506040513d601f19601f82011682018060405250810190610fb09190611d94565b9050600080610fc18686868661133e565b915091508115610fd357505050610521565b600081604051602001610fe69190611dd6565b60405160208183030381529060405290507f9db60cdf21cde7f760995e23662841725e6aa63be48799796db12b7b2e6b17e2816040516110269190611dd6565b60405180910390a160405163012f3b8f60e71b81526001600160a01b03808916600483015287166024820152604481018690526064016108f4565b6040516370a0823160e01b81526001600160a01b038216906370a082319061108d903090600401611607565b602060405180830381865afa1580156110aa573d6000803e3d6000fd5b505050506040513d601f19601f820116820180604052508101906110ce9190611d94565b6001600160a01b03909116600090815260016020526040902055565b60006110f68383611134565b61112c57508154600181810184556000848152602080822090930184905584548482528286019093526040902091909155610534565b506000610534565b60009081526001919091016020526040902054151590565b60008181526001830160205260408120548015611235576000611170600183611dc3565b855490915060009061118490600190611dc3565b90508181146111e95760008660000182815481106111a4576111a4611de9565b90600052602060002001549050808760000184815481106111c7576111c7611de9565b6000918252602080832090910192909255918252600188019052604090208390555b85548690806111fa576111fa611e18565b600190038181906000526020600020016000905590558560010160008681526020019081526020016000206000905560019350505050610534565b6000915050610534565b801561052157604051632e1a7d4d60e01b8152600481018290526001600160a01b03841690632e1a7d4d90602401600060405180830381600087803b15801561128757600080fd5b505af115801561129b573d6000803e3d6000fd5b50505050610521848383610c4f565b60006106f383836114a6565b60006040516020016112f4906020808252601890820152771513d2d15397d514905394d1915497d1d054d7d31253525560421b604082015260600190565b60408051601f198184030181528282528051602091820120908301526001600160a01b03841690820152606001604051602081830303815290604052805190602001209050919050565b60006060600063a9059cbb60e01b868660405160240161135f929190611ced565b604051602081830303815290604052906001600160e01b0319166020820180516001600160e01b0383818316178352505050509050600080886001600160a01b031686846040516113b09190611e2e565b60006040518083038160008787f1925050503d80600081146113ee576040519150601f19603f3d011682016040523d82523d6000602084013e6113f3565b606091505b50915091508115611494578051600003611451576001600160a01b0389163b6114515760006040518060400160405280601481526020017310d85b1b081d1bc81b9bdb8b58dbdb9d1c9858dd60621b8152509450945050505061149d565b600081511180156114735750808060200190518101906114719190611d06565b155b156114865760009450925061149d915050565b60019450925061149d915050565b60009450925050505b94509492505050565b60008260000182815481106114bd576114bd611de9565b9060005260206000200154905092915050565b5080546114dc90611ba6565b6000825580601f106114ec575050565b601f0160209004906000526020600020908101906109069190611598565b6040805160e0810190915260006080820181815260a0830182905260c08301919091528190815260200161157c60405180610100016040528060008152602001600081526020016000815260200160008152602001600081526020016000815260200160008152602001600081525090565b8152604080516020808201835260008252830152606091015290565b5b808211156115ad5760008155600101611599565b5090565b6001600160a01b038116811461090657600080fd5b6000806000606084860312156115db57600080fd5b83356115e6816115b1565b925060208401356115f6816115b1565b929592945050506040919091013590565b6001600160a01b0391909116815260200190565b634e487b7160e01b600052604160045260246000fd5b604051608081016001600160401b03811182821017156116535761165361161b565b60405290565b604051606081016001600160401b03811182821017156116535761165361161b565b600061010080838503121561168f57600080fd5b604051908101906001600160401b03821181831017156116b1576116b161161b565b81604052809250833581526020840135602082015260408401356040820152606084013560608201526080840135608082015260a084013560a082015260c084013560c082015260e084013560e0820152505092915050565b801515811461090657600080fd5b60006020828403121561172a57600080fd5b604051602081016001600160401b038111828210171561174c5761174c61161b565b604052905080823561175d8161170a565b905292915050565b600082601f83011261177657600080fd5b81356001600160401b03808211156117905761179061161b565b604051601f8301601f19908116603f011681019082821181831017156117b8576117b861161b565b816040528381528660208588010111156117d157600080fd5b836020870160208301376000602085830101528094505050505092915050565b60008060006060848603121561180657600080fd5b833592506020840135611818816115b1565b915060408401356001600160401b038082111561183457600080fd5b908501908187036101a081121561184a57600080fd5b611852611631565b606082121561186057600080fd5b611868611659565b91508335611875816115b1565b82526020840135611885816115b1565b60208301526040840135611898816115b1565b60408301528181526118ad896060860161167b565b60208201526118c0896101608601611718565b60408201526101808401359150828211156118da57600080fd5b6118e689838601611765565b6060820152809450505050509250925092565b60006020828403121561190b57600080fd5b5035919050565b6000806040838503121561192557600080fd5b823591506020830135611937816115b1565b809150509250929050565b6000806000806080858703121561195857600080fd5b8435611963816115b1565b93506020850135611973816115b1565b925060408501359150606085013561198a8161170a565b939692955090935050565b6000602082840312156119a757600080fd5b81356106f3816115b1565b600080604083850312156119c557600080fd5b82356119d0816115b1565b946020939093013593505050565b600080604083850312156119f157600080fd5b50508035926020909101359150565b6020808252825182820181905260009190848201906040850190845b81811015611a3857835183529284019291840191600101611a1c565b50909695505050505050565b600080600060608486031215611a5957600080fd5b8335611a64816115b1565b95602085013595506040909401359392505050565b60005b83811015611a94578181015183820152602001611a7c565b50506000910152565b60008151808452611ab5816020860160208601611a79565b601f01601f19169290920160200192915050565b602081526000825160018060a01b038082511660208501528060208301511660408501528060408301511660608501525050602083015180516080840152602081015160a0840152604081015160c0840152606081015160e0840152608081015161010084015260a081015161012084015260c081015161014084015260e0810151610160840152506040830151611b676101808401825115159052565b5060608301516101a0838101526107316101c0840182611a9d565b6020808252600a908201526921a7a72a2927a62622a960b11b604082015260600190565b600181811c90821680611bba57607f821691505b602082108103611bda57634e487b7160e01b600052602260045260246000fd5b50919050565b601f8211156103fe57600081815260208120601f850160051c81016020861015611c075750805b601f850160051c820191505b81811015611c2657828155600101611c13565b505050505050565b81516001600160401b03811115611c4757611c4761161b565b611c5b81611c558454611ba6565b84611be0565b602080601f831160018114611c905760008415611c785750858301515b600019600386901b1c1916600185901b178555611c26565b600085815260208120601f198616915b82811015611cbf57888601518255948401946001909101908401611ca0565b5085821015611cdd5787850151600019600388901b60f8161c191681555b5050505050600190811b01905550565b6001600160a01b03929092168252602082015260400190565b600060208284031215611d1857600080fd5b81516106f38161170a565b6001600160a01b038316815260406020820181905260009061073190830184611a9d565b6020808252601690820152752130b7359d1034b73b30b634b2103932b1b2b4bb32b960511b604082015260600190565b600060208284031215611d8957600080fd5b81516106f3816115b1565b600060208284031215611da657600080fd5b5051919050565b634e487b7160e01b600052601160045260246000fd5b8181038181111561053457610534611dad565b6020815260006106f36020830184611a9d565b634e487b7160e01b600052603260045260246000fd5b600060018201611e1157611e11611dad565b5060010190565b634e487b7160e01b600052603160045260246000fd5b60008251611e40818460208701611a79565b919091019291505056fea2646970667358221220376dce7d3af3f0c42010582bacaafe64cc21e2b8aa861587323f9f4200b19b2164736f6c63430008100033",
  "linkReferences": {},
  "deployedLinkReferences": {}
}