{
  "_format": "hh-sol-artifact-1",
  "contractName": "Reader",
  "sourceName": "contracts/peripherals/Reader.sol",
  "abi": [
    {
      "inputs": [],
      "name": "BASIS_POINTS_DIVISOR",
      "outputs": [
        {
          "internalType": "uint256",
          "name": "",
          "type": "uint256"
        }
      ],
      "stateMutability": "view",
      "type": "function"
    },
    {
      "inputs": [],
      "name": "POSITION_PROPS_LENGTH",
      "outputs": [
        {
          "internalType": "uint256",
          "name": "",
          "type": "uint256"
        }
      ],
      "stateMutability": "view",
      "type": "function"
    },
    {
      "inputs": [
        {
          "internalType": "contract IVault",
          "name": "_vault",
          "type": "address"
        },
        {
          "internalType": "address",
          "name": "_tokenIn",
          "type": "address"
        },
        {
          "internalType": "address",
          "name": "_tokenOut",
          "type": "address"
        },
        {
          "internalType": "uint256",
          "name": "_amountIn",
          "type": "uint256"
        }
      ],
      "name": "getAmountOut",
      "outputs": [
        {
          "internalType": "uint256",
          "name": "",
          "type": "uint256"
        },
        {
          "internalType": "uint256",
          "name": "",
          "type": "uint256"
        }
      ],
      "stateMutability": "view",
      "type": "function"
    },
    {
      "inputs": [
        {
          "internalType": "address",
          "name": "_vault",
          "type": "address"
        },
        {
          "internalType": "address[]",
          "name": "_tokens",
          "type": "address[]"
        }
      ],
      "name": "getFees",
      "outputs": [
        {
          "internalType": "uint256[]",
          "name": "",
          "type": "uint256[]"
        }
      ],
      "stateMutability": "view",
      "type": "function"
    },
    {
      "inputs": [
        {
          "internalType": "address",
          "name": "_vault",
          "type": "address"
        },
        {
          "internalType": "address",
          "name": "_weth",
          "type": "address"
        },
        {
          "internalType": "address[]",
          "name": "_tokens",
          "type": "address[]"
        }
      ],
      "name": "getFundingRates",
      "outputs": [
        {
          "internalType": "uint256[]",
          "name": "",
          "type": "uint256[]"
        }
      ],
      "stateMutability": "view",
      "type": "function"
    },
    {
      "inputs": [
        {
          "internalType": "contract IVault",
          "name": "_vault",
          "type": "address"
        },
        {
          "internalType": "address",
          "name": "_tokenIn",
          "type": "address"
        },
        {
          "internalType": "address",
          "name": "_tokenOut",
          "type": "address"
        }
      ],
      "name": "getMaxAmountIn",
      "outputs": [
        {
          "internalType": "uint256",
          "name": "",
          "type": "uint256"
        }
      ],
      "stateMutability": "view",
      "type": "function"
    },
    {
      "inputs": [
        {
          "internalType": "address",
          "name": "_factory",
          "type": "address"
        },
        {
          "internalType": "address[]",
          "name": "_tokens",
          "type": "address[]"
        }
      ],
      "name": "getPairInfo",
      "outputs": [
        {
          "internalType": "uint256[]",
          "name": "",
          "type": "uint256[]"
        }
      ],
      "stateMutability": "view",
      "type": "function"
    },
    {
      "inputs": [
        {
          "internalType": "address",
          "name": "_vault",
          "type": "address"
        },
        {
          "internalType": "address",
          "name": "_account",
          "type": "address"
        },
        {
          "internalType": "address[]",
          "name": "_collateralTokens",
          "type": "address[]"
        },
        {
          "internalType": "address[]",
          "name": "_indexTokens",
          "type": "address[]"
        },
        {
          "internalType": "bool[]",
          "name": "_isLong",
          "type": "bool[]"
        }
      ],
      "name": "getPositions",
      "outputs": [
        {
          "internalType": "uint256[]",
          "name": "",
          "type": "uint256[]"
        }
      ],
      "stateMutability": "view",
      "type": "function"
    },
    {
      "inputs": [
        {
          "internalType": "contract IVaultPriceFeed",
          "name": "_priceFeed",
          "type": "address"
        },
        {
          "internalType": "address[]",
          "name": "_tokens",
          "type": "address[]"
        }
      ],
      "name": "getPrices",
      "outputs": [
        {
          "internalType": "uint256[]",
          "name": "",
          "type": "uint256[]"
        }
      ],
      "stateMutability": "view",
      "type": "function"
    },
    {
      "inputs": [
        {
          "internalType": "address",
          "name": "_account",
          "type": "address"
        },
        {
          "internalType": "address[]",
          "name": "_yieldTrackers",
          "type": "address[]"
        }
      ],
      "name": "getStakingInfo",
      "outputs": [
        {
          "internalType": "uint256[]",
          "name": "",
          "type": "uint256[]"
        }
      ],
      "stateMutability": "view",
      "type": "function"
    },
    {
      "inputs": [
        {
          "internalType": "address",
          "name": "_account",
          "type": "address"
        },
        {
          "internalType": "address[]",
          "name": "_tokens",
          "type": "address[]"
        }
      ],
      "name": "getTokenBalances",
      "outputs": [
        {
          "internalType": "uint256[]",
          "name": "",
          "type": "uint256[]"
        }
      ],
      "stateMutability": "view",
      "type": "function"
    },
    {
      "inputs": [
        {
          "internalType": "address",
          "name": "_account",
          "type": "address"
        },
        {
          "internalType": "address[]",
          "name": "_tokens",
          "type": "address[]"
        }
      ],
      "name": "getTokenBalancesWithSupplies",
      "outputs": [
        {
          "internalType": "uint256[]",
          "name": "",
          "type": "uint256[]"
        }
      ],
      "stateMutability": "view",
      "type": "function"
    },
    {
      "inputs": [
        {
          "internalType": "contract IERC20",
          "name": "_token",
          "type": "address"
        },
        {
          "internalType": "address[]",
          "name": "_excludedAccounts",
          "type": "address[]"
        }
      ],
      "name": "getTokenSupply",
      "outputs": [
        {
          "internalType": "uint256",
          "name": "",
          "type": "uint256"
        }
      ],
      "stateMutability": "view",
      "type": "function"
    },
    {
      "inputs": [
        {
          "internalType": "address[]",
          "name": "_yieldTokens",
          "type": "address[]"
        }
      ],
      "name": "getTotalStaked",
      "outputs": [
        {
          "internalType": "uint256[]",
          "name": "",
          "type": "uint256[]"
        }
      ],
      "stateMutability": "view",
      "type": "function"
    },
    {
      "inputs": [
        {
          "internalType": "address",
          "name": "_vault",
          "type": "address"
        },
        {
          "internalType": "address",
          "name": "_weth",
          "type": "address"
        },
        {
          "internalType": "uint256",
          "name": "_usdgAmount",
          "type": "uint256"
        },
        {
          "internalType": "address[]",
          "name": "_tokens",
          "type": "address[]"
        }
      ],
      "name": "getVaultTokenInfo",
      "outputs": [
        {
          "internalType": "uint256[]",
          "name": "",
          "type": "uint256[]"
        }
      ],
      "stateMutability": "view",
      "type": "function"
    }
  ],
  "bytecode": "0x608060405234801561001057600080fd5b50612e45806100206000396000f3fe608060405234801561001057600080fd5b50600436106100c55760003560e01c8063126082cf146100ca57806320542568146100e45780632413c8c1146101f55780632ac0184c146102965780632e3e3342146103475780633613d527146103f857806386d4d0f5146104a9578063937a0be81461055a57806395a7535a1461060b578063a4543ead146106c5578063ad7e549714610776578063d7176ca91461077e578063d802178e146107d3578063dc383cab14610884578063f3535e6c14610a42575b600080fd5b6100d2610a7a565b60408051918252519081900360200190f35b6101a5600480360360808110156100fa57600080fd5b6001600160a01b03823581169260208101359091169160408201359190810190608081016060820135600160201b81111561013457600080fd5b82018360208201111561014657600080fd5b803590602001918460208302840111600160201b8311171561016757600080fd5b919080806020026020016040519081016040528093929190818152602001838360200280828437600092019190915250929550610a80945050505050565b60408051602080825283518183015283519192839290830191858101910280838360005b838110156101e15781810151838201526020016101c9565b505050509050019250505060405180910390f35b6101a56004803603602081101561020b57600080fd5b810190602081018135600160201b81111561022557600080fd5b82018360208201111561023757600080fd5b803590602001918460208302840111600160201b8311171561025857600080fd5b919080806020026020016040519081016040528093929190818152602001838360200280828437600092019190915250929550611112945050505050565b6100d2600480360360408110156102ac57600080fd5b6001600160a01b038235169190810190604081016020820135600160201b8111156102d657600080fd5b8201836020820111156102e857600080fd5b803590602001918460208302840111600160201b8311171561030957600080fd5b91908080602002602001604051908101604052809392919081815260200183836020028082843760009201919091525092955061120b945050505050565b6101a56004803603604081101561035d57600080fd5b6001600160a01b038235169190810190604081016020820135600160201b81111561038757600080fd5b82018360208201111561039957600080fd5b803590602001918460208302840111600160201b831117156103ba57600080fd5b919080806020026020016040519081016040528093929190818152602001838360200280828437600092019190915250929550611336945050505050565b6101a56004803603604081101561040e57600080fd5b6001600160a01b038235169190810190604081016020820135600160201b81111561043857600080fd5b82018360208201111561044a57600080fd5b803590602001918460208302840111600160201b8311171561046b57600080fd5b91908080602002602001604051908101604052809392919081815260200183836020028082843760009201919091525092955061153b945050505050565b6101a5600480360360408110156104bf57600080fd5b6001600160a01b038235169190810190604081016020820135600160201b8111156104e957600080fd5b8201836020820111156104fb57600080fd5b803590602001918460208302840111600160201b8311171561051c57600080fd5b919080806020026020016040519081016040528093929190818152602001838360200280828437600092019190915250929550611843945050505050565b6101a56004803603604081101561057057600080fd5b6001600160a01b038235169190810190604081016020820135600160201b81111561059a57600080fd5b8201836020820111156105ac57600080fd5b803590602001918460208302840111600160201b831117156105cd57600080fd5b919080806020026020016040519081016040528093929190818152602001838360200280828437600092019190915250929550611943945050505050565b6101a56004803603606081101561062157600080fd5b6001600160a01b038235811692602081013590911691810190606081016040820135600160201b81111561065457600080fd5b82018360208201111561066657600080fd5b803590602001918460208302840111600160201b8311171561068757600080fd5b919080806020026020016040519081016040528093929190818152602001838360200280828437600092019190915250929550611ad8945050505050565b6101a5600480360360408110156106db57600080fd5b6001600160a01b038235169190810190604081016020820135600160201b81111561070557600080fd5b82018360208201111561071757600080fd5b803590602001918460208302840111600160201b8311171561073857600080fd5b919080806020026020016040519081016040528093929190818152602001838360200280828437600092019190915250929550611ec2945050505050565b6100d261212e565b6107ba6004803603608081101561079457600080fd5b506001600160a01b03813581169160208101358216916040820135169060600135612133565b6040805192835260208301919091528051918290030190f35b6101a5600480360360408110156107e957600080fd5b6001600160a01b038235169190810190604081016020820135600160201b81111561081357600080fd5b82018360208201111561082557600080fd5b803590602001918460208302840111600160201b8311171561084657600080fd5b919080806020026020016040519081016040528093929190818152602001838360200280828437600092019190915250929550612456945050505050565b6101a5600480360360a081101561089a57600080fd5b6001600160a01b038235811692602081013590911691810190606081016040820135600160201b8111156108cd57600080fd5b8201836020820111156108df57600080fd5b803590602001918460208302840111600160201b8311171561090057600080fd5b9190808060200260200160405190810160405280939291908181526020018383602002808284376000920191909152509295949360208101935035915050600160201b81111561094f57600080fd5b82018360208201111561096157600080fd5b803590602001918460208302840111600160201b8311171561098257600080fd5b9190808060200260200160405190810160405280939291908181526020018383602002808284376000920191909152509295949360208101935035915050600160201b8111156109d157600080fd5b8201836020820111156109e357600080fd5b803590602001918460208302840111600160201b83111715610a0457600080fd5b9190808060200260200160405190810160405280939291908181526020018383602002808284376000920191909152509295506125a2945050505050565b6100d260048036036060811015610a5857600080fd5b506001600160a01b03813581169160208101358216916040909101351661299e565b61271081565b606060006009905060008690506000816001600160a01b031663741bef1a6040518163ffffffff1660e01b815260040160206040518083038186803b158015610ac857600080fd5b505afa158015610adc573d6000803e3d6000fd5b505050506040513d6020811015610af257600080fd5b5051855190915060609084026001600160401b0381118015610b1357600080fd5b50604051908082528060200260200182016040528015610b3d578160200160208202803683370190505b50905060005b8651811015611105576000878281518110610b5a57fe5b6020026020010151905060006001600160a01b0316816001600160a01b03161415610b825750885b846001600160a01b03166352f55eed826040518263ffffffff1660e01b815260040180826001600160a01b0316815260200191505060206040518083038186803b158015610bcf57600080fd5b505afa158015610be3573d6000803e3d6000fd5b505050506040513d6020811015610bf957600080fd5b505183518490848902908110610c0b57fe5b602002602001018181525050846001600160a01b031663c3c7b9e9826040518263ffffffff1660e01b815260040180826001600160a01b0316815260200191505060206040518083038186803b158015610c6457600080fd5b505afa158015610c78573d6000803e3d6000fd5b505050506040513d6020811015610c8e57600080fd5b5051835184906001858a0201908110610ca357fe5b602002602001018181525050846001600160a01b0316631aa4ace5826040518263ffffffff1660e01b815260040180826001600160a01b0316815260200191505060206040518083038186803b158015610cfc57600080fd5b505afa158015610d10573d6000803e3d6000fd5b505050506040513d6020811015610d2657600080fd5b5051835184906002858a0201908110610d3b57fe5b602002602001018181525050846001600160a01b0316632c668ec1828b6040518363ffffffff1660e01b815260040180836001600160a01b031681526020018281526020019250505060206040518083038186803b158015610d9c57600080fd5b505afa158015610db0573d6000803e3d6000fd5b505050506040513d6020811015610dc657600080fd5b5051835184906003858a0201908110610ddb57fe5b602002602001018181525050846001600160a01b03166381a612d6826040518263ffffffff1660e01b815260040180826001600160a01b0316815260200191505060206040518083038186803b158015610e3457600080fd5b505afa158015610e48573d6000803e3d6000fd5b505050506040513d6020811015610e5e57600080fd5b5051835184906004858a0201908110610e7357fe5b602002602001018181525050846001600160a01b031663e124e6d2826040518263ffffffff1660e01b815260040180826001600160a01b0316815260200191505060206040518083038186803b158015610ecc57600080fd5b505afa158015610ee0573d6000803e3d6000fd5b505050506040513d6020811015610ef657600080fd5b5051835184906005858a0201908110610f0b57fe5b602002602001018181525050846001600160a01b031663f07456ce826040518263ffffffff1660e01b815260040180826001600160a01b0316815260200191505060206040518083038186803b158015610f6457600080fd5b505afa158015610f78573d6000803e3d6000fd5b505050506040513d6020811015610f8e57600080fd5b5051835184906006858a0201908110610fa357fe5b602090810291909101810191909152604080516317e1d38560e11b81526001600160a01b038481166004830152600060248301819052604483018190526064830152915191871692632fc3a70a92608480840193829003018186803b15801561100b57600080fd5b505afa15801561101f573d6000803e3d6000fd5b505050506040513d602081101561103557600080fd5b5051835184906007858a020190811061104a57fe5b602090810291909101810191909152604080516317e1d38560e11b81526001600160a01b038481166004830152600160248301526000604483018190526064830152915191871692632fc3a70a92608480840193829003018186803b1580156110b257600080fd5b505afa1580156110c6573d6000803e3d6000fd5b505050506040513d60208110156110dc57600080fd5b5051835184906008858a02019081106110f157fe5b602090810291909101015250600101610b43565b5098975050505050505050565b60608082516001600160401b038111801561112c57600080fd5b50604051908082528060200260200182016040528015611156578160200160208202803683370190505b50905060005b835181101561120457600084828151811061117357fe5b60200260200101519050806001600160a01b031663817b1cd26040518163ffffffff1660e01b815260040160206040518083038186803b1580156111b657600080fd5b505afa1580156111ca573d6000803e3d6000fd5b505050506040513d60208110156111e057600080fd5b505183518490849081106111f057fe5b60209081029190910101525060010161115c565b5092915050565b600080836001600160a01b03166318160ddd6040518163ffffffff1660e01b815260040160206040518083038186803b15801561124757600080fd5b505afa15801561125b573d6000803e3d6000fd5b505050506040513d602081101561127157600080fd5b5051905060005b835181101561132c57600084828151811061128f57fe5b602002602001015190506000866001600160a01b03166370a08231836040518263ffffffff1660e01b815260040180826001600160a01b0316815260200191505060206040518083038186803b1580156112e857600080fd5b505afa1580156112fc573d6000803e3d6000fd5b505050506040513d602081101561131257600080fd5b505190506113208482612bb9565b93505050600101611278565b5090505b92915050565b60606000600290506060818451026001600160401b038111801561135957600080fd5b50604051908082528060200260200182016040528015611383578160200160208202803683370190505b50905060005b84518110156115325760008582815181106113a057fe5b6020026020010151905060006001600160a01b0316816001600160a01b0316141561140f57866001600160a01b03163183858402815181106113de57fe5b602002602001018181525050600083858402600101815181106113fd57fe5b6020026020010181815250505061152a565b806001600160a01b03166370a08231886040518263ffffffff1660e01b815260040180826001600160a01b0316815260200191505060206040518083038186803b15801561145c57600080fd5b505afa158015611470573d6000803e3d6000fd5b505050506040513d602081101561148657600080fd5b50518351849084870290811061149857fe5b602002602001018181525050806001600160a01b03166318160ddd6040518163ffffffff1660e01b815260040160206040518083038186803b1580156114dd57600080fd5b505afa1580156114f1573d6000803e3d6000fd5b505050506040513d602081101561150757600080fd5b50518351849060018588020190811061151c57fe5b602002602001018181525050505b600101611389565b50949350505050565b60606000600490506060818451026001600160401b038111801561155e57600080fd5b50604051908082528060200260200182016040528015611588578160200160208202803683370190505b50905060005b84518110156115325760008582815181106115a557fe5b602090810291909101810151604080516317e1d38560e11b81526001600160a01b0380841660048301526001602483018190526044830152600060648301529151929450908a1692632fc3a70a92608480840193829003018186803b15801561160d57600080fd5b505afa158015611621573d6000803e3d6000fd5b505050506040513d602081101561163757600080fd5b50518351849084870290811061164957fe5b602090810291909101810191909152604080516317e1d38560e11b81526001600160a01b0384811660048301526000602483018190526001604484015260648301529151918a1692632fc3a70a92608480840193829003018186803b1580156116b157600080fd5b505afa1580156116c5573d6000803e3d6000fd5b505050506040513d60208110156116db57600080fd5b5051835184906001858802019081106116f057fe5b602002602001018181525050866001600160a01b0316636ce8a44b826040518263ffffffff1660e01b815260040180826001600160a01b0316815260200191505060206040518083038186803b15801561174957600080fd5b505afa15801561175d573d6000803e3d6000fd5b505050506040513d602081101561177357600080fd5b5051611780576000611783565b60015b60ff16838584026002018151811061179757fe5b602002602001018181525050866001600160a01b03166348cac277826040518263ffffffff1660e01b815260040180826001600160a01b0316815260200191505060206040518083038186803b1580156117f057600080fd5b505afa158015611804573d6000803e3d6000fd5b505050506040513d602081101561181a57600080fd5b50518351849060038588020190811061182f57fe5b60209081029190910101525060010161158e565b60608082516001600160401b038111801561185d57600080fd5b50604051908082528060200260200182016040528015611887578160200160208202803683370190505b50905060005b835181101561132c57846001600160a01b0316631ce9cb8f8583815181106118b157fe5b60200260200101516040518263ffffffff1660e01b815260040180826001600160a01b0316815260200191505060206040518083038186803b1580156118f657600080fd5b505afa15801561190a573d6000803e3d6000fd5b505050506040513d602081101561192057600080fd5b5051825183908390811061193057fe5b602090810291909101015260010161188d565b60606000600290506060818451026001600160401b038111801561196657600080fd5b50604051908082528060200260200182016040528015611990578160200160208202803683370190505b50905060005b84518110156115325760008582815181106119ad57fe5b60200260200101519050806001600160a01b031663402914f5886040518263ffffffff1660e01b815260040180826001600160a01b0316815260200191505060206040518083038186803b158015611a0457600080fd5b505afa158015611a18573d6000803e3d6000fd5b505050506040513d6020811015611a2e57600080fd5b505183518490848702908110611a4057fe5b602002602001018181525050806001600160a01b0316632459f51d6040518163ffffffff1660e01b815260040160206040518083038186803b158015611a8557600080fd5b505afa158015611a99573d6000803e3d6000fd5b505050506040513d6020811015611aaf57600080fd5b505183518490600185880201908110611ac457fe5b602090810291909101015250600101611996565b60606000600290506060818451026001600160401b0381118015611afb57600080fd5b50604051908082528060200260200182016040528015611b25578160200160208202803683370190505b50905060008690506000816001600160a01b031663c4f718bf6040518163ffffffff1660e01b815260040160206040518083038186803b158015611b6857600080fd5b505afa158015611b7c573d6000803e3d6000fd5b505050506040513d6020811015611b9257600080fd5b5051905060005b8651811015611eb5576000878281518110611bb057fe5b6020026020010151905060006001600160a01b0316816001600160a01b03161415611bd85750875b6000846001600160a01b031663c3c7b9e9836040518263ffffffff1660e01b815260040180826001600160a01b0316815260200191505060206040518083038186803b158015611c2757600080fd5b505afa158015611c3b573d6000803e3d6000fd5b505050506040513d6020811015611c5157600080fd5b5051604080516352f55eed60e01b81526001600160a01b0385811660048301529151929350600092918816916352f55eed91602480820192602092909190829003018186803b158015611ca357600080fd5b505afa158015611cb7573d6000803e3d6000fd5b505050506040513d6020811015611ccd57600080fd5b505190508015611d0657611ceb81611ce58785612c02565b90612c5b565b8789860281518110611cf957fe5b6020026020010181815250505b6000866001600160a01b031663c65bc7b1856040518263ffffffff1660e01b815260040180826001600160a01b0316815260200191505060206040518083038186803b158015611d5557600080fd5b505afa158015611d69573d6000803e3d6000fd5b505050506040513d6020811015611d7f57600080fd5b50511115611eaa576000866001600160a01b031663a93acac2856040518263ffffffff1660e01b815260040180826001600160a01b0316815260200191505060206040518083038186803b158015611dd657600080fd5b505afa158015611dea573d6000803e3d6000fd5b505050506040513d6020811015611e0057600080fd5b50516040805163c65bc7b160e01b81526001600160a01b0387811660048301529151929350600092918a169163c65bc7b191602480820192602092909190829003018186803b158015611e5257600080fd5b505afa158015611e66573d6000803e3d6000fd5b505050506040513d6020811015611e7c57600080fd5b50519050611e8a8183612c9a565b898b880260010181518110611e9b57fe5b60200260200101818152505050505b505050600101611b99565b5091979650505050505050565b80516060906002908190839082900482026001600160401b0381118015611ee857600080fd5b50604051908082528060200260200182016040528015611f12578160200160208202803683370190505b50905060005b83865181611f2257fe5b048110156121245760008685830281518110611f3a57fe5b6020026020010151905060008786840260010181518110611f5757fe5b602002602001015190506000896001600160a01b031663e6a4390584846040518363ffffffff1660e01b815260040180836001600160a01b03168152602001826001600160a01b031681526020019250505060206040518083038186803b158015611fc157600080fd5b505afa158015611fd5573d6000803e3d6000fd5b505050506040513d6020811015611feb57600080fd5b5051604080516370a0823160e01b81526001600160a01b0380841660048301529151929350908516916370a0823191602480820192602092909190829003018186803b15801561203a57600080fd5b505afa15801561204e573d6000803e3d6000fd5b505050506040513d602081101561206457600080fd5b50518551869086890290811061207657fe5b602002602001018181525050816001600160a01b03166370a08231826040518263ffffffff1660e01b815260040180826001600160a01b0316815260200191505060206040518083038186803b1580156120cf57600080fd5b505afa1580156120e3573d6000803e3d6000fd5b505050506040513d60208110156120f957600080fd5b5051855186906001878a020190811061210e57fe5b6020908102919091010152505050600101611f18565b5095945050505050565b600981565b6000806000866001600160a01b03166381a612d6876040518263ffffffff1660e01b815260040180826001600160a01b0316815260200191505060206040518083038186803b15801561218557600080fd5b505afa158015612199573d6000803e3d6000fd5b505050506040513d60208110156121af57600080fd5b505160408051637092736960e11b81526001600160a01b0388811660048301529151929350600092918a169163e124e6d291602480820192602092909190829003018186803b15801561220157600080fd5b505afa158015612215573d6000803e3d6000fd5b505050506040513d602081101561222b57600080fd5b50519050600061223f82611ce58886612c02565b90506000896001600160a01b03166342b60b038a6040518263ffffffff1660e01b815260040180826001600160a01b0316815260200191505060206040518083038186803b15801561229057600080fd5b505afa1580156122a4573d6000803e3d6000fd5b505050506040513d60208110156122ba57600080fd5b5051801561233d5750896001600160a01b03166342b60b03896040518263ffffffff1660e01b815260040180826001600160a01b0316815260200191505060206040518083038186803b15801561231057600080fd5b505afa158015612324573d6000803e3d6000fd5b505050506040513d602081101561233a57600080fd5b50515b90506000816123b0578a6001600160a01b031663a22f23926040518163ffffffff1660e01b815260040160206040518083038186803b15801561237f57600080fd5b505afa158015612393573d6000803e3d6000fd5b505050506040513d60208110156123a957600080fd5b5051612416565b8a6001600160a01b031663df73a2676040518163ffffffff1660e01b815260040160206040518083038186803b1580156123e957600080fd5b505afa1580156123fd573d6000803e3d6000fd5b505050506040513d602081101561241357600080fd5b50515b90506000612434612710611ce561242d8286612bb9565b8790612c02565b905060006124428583612bb9565b919d919c50909a5050505050505050505050565b60608082516001600160401b038111801561247057600080fd5b5060405190808252806020026020018201604052801561249a578160200160208202803683370190505b50905060005b835181101561132c5760008482815181106124b757fe5b6020026020010151905060006001600160a01b0316816001600160a01b0316141561250557856001600160a01b0316318383815181106124f357fe5b6020026020010181815250505061259a565b806001600160a01b03166370a08231876040518263ffffffff1660e01b815260040180826001600160a01b0316815260200191505060206040518083038186803b15801561255257600080fd5b505afa158015612566573d6000803e3d6000fd5b505050506040513d602081101561257c57600080fd5b5051835184908490811061258c57fe5b602002602001018181525050505b6001016124a0565b60608060098551026001600160401b03811180156125bf57600080fd5b506040519080825280602002602001820160405280156125e9578160200160208202803683370190505b50905060005b85518110156129935760008060008060008060008e6001600160a01b0316634a3f088d8f8f8b8151811061261f57fe5b60200260200101518f8c8151811061263357fe5b60200260200101518f8d8151811061264757fe5b60200260200101516040518563ffffffff1660e01b815260040180856001600160a01b03168152602001846001600160a01b03168152602001836001600160a01b0316815260200182151581526020019450505050506101006040518083038186803b1580156126b657600080fd5b505afa1580156126ca573d6000803e3d6000fd5b505050506040513d6101008110156126e157600080fd5b50805160208201516040830151606084015160a085015160c086015160e0909601518f51959d50939b509199509750955091935090915087908a9060098b0290811061272957fe5b602002602001018181525050858960098a026001018151811061274857fe5b602002602001018181525050848960098a026002018151811061276757fe5b602002602001018181525050838960098a026003018151811061278657fe5b6020026020010181815250508161279e5760006127a1565b60015b60ff168960098a02600401815181106127b657fe5b602002602001018181525050828960098a02600501815181106127d557fe5b602002602001018181525050808960098a02600601815181106127f457fe5b60200260200101818152505050505050505050600082600983028151811061281857fe5b60200260200101519050600083600984026002018151811061283657fe5b60200260200101519050600084600985026006018151811061285457fe5b602002602001015190506000821115612988576000808c6001600160a01b0316635c07eaab8b888151811061288557fe5b602002602001015187878d8b8151811061289b57fe5b6020026020010151886040518663ffffffff1660e01b815260040180866001600160a01b03168152602001858152602001848152602001831515815260200182815260200195505050505050604080518083038186803b1580156128fe57600080fd5b505afa158015612912573d6000803e3d6000fd5b505050506040513d604081101561292857600080fd5b508051602090910151909250905081612942576000612945565b60015b60ff1687600988026007018151811061295a57fe5b6020026020010181815250508087600988026008018151811061297957fe5b60200260200101818152505050505b5050506001016125ef565b509695505050505050565b600080846001600160a01b03166381a612d6856040518263ffffffff1660e01b815260040180826001600160a01b0316815260200191505060206040518083038186803b1580156129ee57600080fd5b505afa158015612a02573d6000803e3d6000fd5b505050506040513d6020811015612a1857600080fd5b505160408051637092736960e11b81526001600160a01b03868116600483015291519293506000929188169163e124e6d291602480820192602092909190829003018186803b158015612a6a57600080fd5b505afa158015612a7e573d6000803e3d6000fd5b505050506040513d6020811015612a9457600080fd5b5051604080516352f55eed60e01b81526001600160a01b0387811660048301529151929350600092918916916352f55eed91602480820192602092909190829003018186803b158015612ae657600080fd5b505afa158015612afa573d6000803e3d6000fd5b505050506040513d6020811015612b1057600080fd5b50516040805163c3c7b9e960e01b81526001600160a01b0388811660048301529151929350600092918a169163c3c7b9e991602480820192602092909190829003018186803b158015612b6257600080fd5b505afa158015612b76573d6000803e3d6000fd5b505050506040513d6020811015612b8c57600080fd5b505190506000612b9c8383612bb9565b9050612bac85611ce58387612c02565b9998505050505050505050565b6000612bfb83836040518060400160405280601e81526020017f536166654d6174683a207375627472616374696f6e206f766572666c6f770000815250612cf2565b9392505050565b600082612c1157506000611330565b82820282848281612c1e57fe5b0414612bfb5760405162461bcd60e51b8152600401808060200182810382526021815260200180612def6021913960400191505060405180910390fd5b6000612bfb83836040518060400160405280601a815260200179536166654d6174683a206469766973696f6e206279207a65726f60301b815250612d89565b600082820183811015612bfb576040805162461bcd60e51b815260206004820152601b60248201527a536166654d6174683a206164646974696f6e206f766572666c6f7760281b604482015290519081900360640190fd5b60008184841115612d815760405162461bcd60e51b81526004018080602001828103825283818151815260200191508051906020019080838360005b83811015612d46578181015183820152602001612d2e565b50505050905090810190601f168015612d735780820380516001836020036101000a031916815260200191505b509250505060405180910390fd5b505050900390565b60008183612dd85760405162461bcd60e51b8152602060048201818152835160248401528351909283926044909101919085019080838360008315612d46578181015183820152602001612d2e565b506000838581612de457fe5b049594505050505056fe536166654d6174683a206d756c7469706c69636174696f6e206f766572666c6f77a2646970667358221220dd7c488a7941a80d9770d0ba0fcbc7de229e20e520203fc0cae2292208bba5de64736f6c634300060c0033",
  "linkReferences": {},
  "deployedLinkReferences": {}
}