{
  "_format": "hh-sol-artifact-1",
  "contractName": "Reader",
  "sourceName": "contracts/peripherals/Reader.sol",
  "abi": [
    {
      "inputs": [],
      "name": "BASIS_POINTS_DIVISOR",
      "outputs": [
        {
          "internalType": "uint256",
          "name": "",
          "type": "uint256"
        }
      ],
      "stateMutability": "view",
      "type": "function"
    },
    {
      "inputs": [],
      "name": "POSITION_PROPS_LENGTH",
      "outputs": [
        {
          "internalType": "uint256",
          "name": "",
          "type": "uint256"
        }
      ],
      "stateMutability": "view",
      "type": "function"
    },
    {
      "inputs": [],
      "name": "PRICE_PRECISION",
      "outputs": [
        {
          "internalType": "uint256",
          "name": "",
          "type": "uint256"
        }
      ],
      "stateMutability": "view",
      "type": "function"
    },
    {
      "inputs": [],
      "name": "USDG_DECIMALS",
      "outputs": [
        {
          "internalType": "uint256",
          "name": "",
          "type": "uint256"
        }
      ],
      "stateMutability": "view",
      "type": "function"
    },
    {
      "inputs": [
        {
          "internalType": "contract IVault",
          "name": "_vault",
          "type": "address"
        },
        {
          "internalType": "address",
          "name": "_tokenIn",
          "type": "address"
        },
        {
          "internalType": "address",
          "name": "_tokenOut",
          "type": "address"
        },
        {
          "internalType": "uint256",
          "name": "_amountIn",
          "type": "uint256"
        }
      ],
      "name": "getAmountOut",
      "outputs": [
        {
          "internalType": "uint256",
          "name": "",
          "type": "uint256"
        },
        {
          "internalType": "uint256",
          "name": "",
          "type": "uint256"
        }
      ],
      "stateMutability": "view",
      "type": "function"
    },
    {
      "inputs": [
        {
          "internalType": "contract IVault",
          "name": "_vault",
          "type": "address"
        },
        {
          "internalType": "address",
          "name": "_tokenIn",
          "type": "address"
        },
        {
          "internalType": "address",
          "name": "_tokenOut",
          "type": "address"
        },
        {
          "internalType": "uint256",
          "name": "_amountIn",
          "type": "uint256"
        }
      ],
      "name": "getFeeBasisPoints",
      "outputs": [
        {
          "internalType": "uint256",
          "name": "",
          "type": "uint256"
        },
        {
          "internalType": "uint256",
          "name": "",
          "type": "uint256"
        },
        {
          "internalType": "uint256",
          "name": "",
          "type": "uint256"
        }
      ],
      "stateMutability": "view",
      "type": "function"
    },
    {
      "inputs": [
        {
          "internalType": "address",
          "name": "_vault",
          "type": "address"
        },
        {
          "internalType": "address[]",
          "name": "_tokens",
          "type": "address[]"
        }
      ],
      "name": "getFees",
      "outputs": [
        {
          "internalType": "uint256[]",
          "name": "",
          "type": "uint256[]"
        }
      ],
      "stateMutability": "view",
      "type": "function"
    },
    {
      "inputs": [
        {
          "internalType": "address",
          "name": "_vault",
          "type": "address"
        },
        {
          "internalType": "address",
          "name": "_weth",
          "type": "address"
        },
        {
          "internalType": "uint256",
          "name": "_usdgAmount",
          "type": "uint256"
        },
        {
          "internalType": "address[]",
          "name": "_tokens",
          "type": "address[]"
        }
      ],
      "name": "getFullVaultTokenInfo",
      "outputs": [
        {
          "internalType": "uint256[]",
          "name": "",
          "type": "uint256[]"
        }
      ],
      "stateMutability": "view",
      "type": "function"
    },
    {
      "inputs": [
        {
          "internalType": "address",
          "name": "_vault",
          "type": "address"
        },
        {
          "internalType": "address",
          "name": "_weth",
          "type": "address"
        },
        {
          "internalType": "address[]",
          "name": "_tokens",
          "type": "address[]"
        }
      ],
      "name": "getFundingRates",
      "outputs": [
        {
          "internalType": "uint256[]",
          "name": "",
          "type": "uint256[]"
        }
      ],
      "stateMutability": "view",
      "type": "function"
    },
    {
      "inputs": [
        {
          "internalType": "contract IVault",
          "name": "_vault",
          "type": "address"
        },
        {
          "internalType": "address",
          "name": "_tokenIn",
          "type": "address"
        },
        {
          "internalType": "address",
          "name": "_tokenOut",
          "type": "address"
        }
      ],
      "name": "getMaxAmountIn",
      "outputs": [
        {
          "internalType": "uint256",
          "name": "",
          "type": "uint256"
        }
      ],
      "stateMutability": "view",
      "type": "function"
    },
    {
      "inputs": [
        {
          "internalType": "address",
          "name": "_factory",
          "type": "address"
        },
        {
          "internalType": "address[]",
          "name": "_tokens",
          "type": "address[]"
        }
      ],
      "name": "getPairInfo",
      "outputs": [
        {
          "internalType": "uint256[]",
          "name": "",
          "type": "uint256[]"
        }
      ],
      "stateMutability": "view",
      "type": "function"
    },
    {
      "inputs": [
        {
          "internalType": "address",
          "name": "_vault",
          "type": "address"
        },
        {
          "internalType": "address",
          "name": "_account",
          "type": "address"
        },
        {
          "internalType": "address[]",
          "name": "_collateralTokens",
          "type": "address[]"
        },
        {
          "internalType": "address[]",
          "name": "_indexTokens",
          "type": "address[]"
        },
        {
          "internalType": "bool[]",
          "name": "_isLong",
          "type": "bool[]"
        }
      ],
      "name": "getPositions",
      "outputs": [
        {
          "internalType": "uint256[]",
          "name": "",
          "type": "uint256[]"
        }
      ],
      "stateMutability": "view",
      "type": "function"
    },
    {
      "inputs": [
        {
          "internalType": "contract IVaultPriceFeed",
          "name": "_priceFeed",
          "type": "address"
        },
        {
          "internalType": "address[]",
          "name": "_tokens",
          "type": "address[]"
        }
      ],
      "name": "getPrices",
      "outputs": [
        {
          "internalType": "uint256[]",
          "name": "",
          "type": "uint256[]"
        }
      ],
      "stateMutability": "view",
      "type": "function"
    },
    {
      "inputs": [
        {
          "internalType": "address",
          "name": "_account",
          "type": "address"
        },
        {
          "internalType": "address[]",
          "name": "_yieldTrackers",
          "type": "address[]"
        }
      ],
      "name": "getStakingInfo",
      "outputs": [
        {
          "internalType": "uint256[]",
          "name": "",
          "type": "uint256[]"
        }
      ],
      "stateMutability": "view",
      "type": "function"
    },
    {
      "inputs": [
        {
          "internalType": "address",
          "name": "_account",
          "type": "address"
        },
        {
          "internalType": "address[]",
          "name": "_tokens",
          "type": "address[]"
        }
      ],
      "name": "getTokenBalances",
      "outputs": [
        {
          "internalType": "uint256[]",
          "name": "",
          "type": "uint256[]"
        }
      ],
      "stateMutability": "view",
      "type": "function"
    },
    {
      "inputs": [
        {
          "internalType": "address",
          "name": "_account",
          "type": "address"
        },
        {
          "internalType": "address[]",
          "name": "_tokens",
          "type": "address[]"
        }
      ],
      "name": "getTokenBalancesWithSupplies",
      "outputs": [
        {
          "internalType": "uint256[]",
          "name": "",
          "type": "uint256[]"
        }
      ],
      "stateMutability": "view",
      "type": "function"
    },
    {
      "inputs": [
        {
          "internalType": "contract IERC20",
          "name": "_token",
          "type": "address"
        },
        {
          "internalType": "address[]",
          "name": "_excludedAccounts",
          "type": "address[]"
        }
      ],
      "name": "getTokenSupply",
      "outputs": [
        {
          "internalType": "uint256",
          "name": "",
          "type": "uint256"
        }
      ],
      "stateMutability": "view",
      "type": "function"
    },
    {
      "inputs": [
        {
          "internalType": "address[]",
          "name": "_yieldTokens",
          "type": "address[]"
        }
      ],
      "name": "getTotalStaked",
      "outputs": [
        {
          "internalType": "uint256[]",
          "name": "",
          "type": "uint256[]"
        }
      ],
      "stateMutability": "view",
      "type": "function"
    },
    {
      "inputs": [
        {
          "internalType": "address",
          "name": "_vault",
          "type": "address"
        },
        {
          "internalType": "address",
          "name": "_weth",
          "type": "address"
        },
        {
          "internalType": "uint256",
          "name": "_usdgAmount",
          "type": "uint256"
        },
        {
          "internalType": "address[]",
          "name": "_tokens",
          "type": "address[]"
        }
      ],
      "name": "getVaultTokenInfo",
      "outputs": [
        {
          "internalType": "uint256[]",
          "name": "",
          "type": "uint256[]"
        }
      ],
      "stateMutability": "view",
      "type": "function"
    },
    {
      "inputs": [
        {
          "internalType": "address",
          "name": "_account",
          "type": "address"
        },
        {
          "internalType": "address[]",
          "name": "_vesters",
          "type": "address[]"
        }
      ],
      "name": "getVestingInfo",
      "outputs": [
        {
          "internalType": "uint256[]",
          "name": "",
          "type": "uint256[]"
        }
      ],
      "stateMutability": "view",
      "type": "function"
    }
  ],
  "bytecode": "0x608060405234801561001057600080fd5b50614895806100206000396000f3fe608060405234801561001057600080fd5b50600436106100fc5760003560e01c8063126082cf14610101578063205425681461011b5780632413c8c11461022c5780632ac0184c146102cd5780632e3e33421461037e5780633613d5271461042f578063440f018c146104e0578063482119341461053a5780637b906e93146105eb57806386d4d0f5146106ac578063870d917c1461075d578063937a0be81461076557806395082d251461081657806395a7535a1461081e578063a4543ead146108d8578063ad7e549714610989578063d7176ca914610991578063d802178e146109e6578063dc383cab14610a97578063f3535e6c14610c55575b600080fd5b610109610c8d565b60408051918252519081900360200190f35b6101dc6004803603608081101561013157600080fd5b6001600160a01b03823581169260208101359091169160408201359190810190608081016060820135600160201b81111561016b57600080fd5b82018360208201111561017d57600080fd5b803590602001918460208302840111600160201b8311171561019e57600080fd5b919080806020026020016040519081016040528093929190818152602001838360200280828437600092019190915250929550610c93945050505050565b60408051602080825283518183015283519192839290830191858101910280838360005b83811015610218578181015183820152602001610200565b505050509050019250505060405180910390f35b6101dc6004803603602081101561024257600080fd5b810190602081018135600160201b81111561025c57600080fd5b82018360208201111561026e57600080fd5b803590602001918460208302840111600160201b8311171561028f57600080fd5b9190808060200260200160405190810160405280939291908181526020018383602002808284376000920191909152509295506113bd945050505050565b610109600480360360408110156102e357600080fd5b6001600160a01b038235169190810190604081016020820135600160201b81111561030d57600080fd5b82018360208201111561031f57600080fd5b803590602001918460208302840111600160201b8311171561034057600080fd5b9190808060200260200160405190810160405280939291908181526020018383602002808284376000920191909152509295506114b6945050505050565b6101dc6004803603604081101561039457600080fd5b6001600160a01b038235169190810190604081016020820135600160201b8111156103be57600080fd5b8201836020820111156103d057600080fd5b803590602001918460208302840111600160201b831117156103f157600080fd5b9190808060200260200160405190810160405280939291908181526020018383602002808284376000920191909152509295506115e1945050505050565b6101dc6004803603604081101561044557600080fd5b6001600160a01b038235169190810190604081016020820135600160201b81111561046f57600080fd5b82018360208201111561048157600080fd5b803590602001918460208302840111600160201b831117156104a257600080fd5b9190808060200260200160405190810160405280939291908181526020018383602002808284376000920191909152509295506117e6945050505050565b61051c600480360360808110156104f657600080fd5b506001600160a01b03813581169160208101358216916040820135169060600135611c20565b60408051938452602084019290925282820152519081900360600190f35b6101dc6004803603604081101561055057600080fd5b6001600160a01b038235169190810190604081016020820135600160201b81111561057a57600080fd5b82018360208201111561058c57600080fd5b803590602001918460208302840111600160201b831117156105ad57600080fd5b919080806020026020016040519081016040528093929190818152602001838360200280828437600092019190915250929550612185945050505050565b6101dc6004803603608081101561060157600080fd5b6001600160a01b03823581169260208101359091169160408201359190810190608081016060820135600160201b81111561063b57600080fd5b82018360208201111561064d57600080fd5b803590602001918460208302840111600160201b8311171561066e57600080fd5b919080806020026020016040519081016040528093929190818152602001838360200280828437600092019190915250929550612509945050505050565b6101dc600480360360408110156106c257600080fd5b6001600160a01b038235169190810190604081016020820135600160201b8111156106ec57600080fd5b8201836020820111156106fe57600080fd5b803590602001918460208302840111600160201b8311171561071f57600080fd5b919080806020026020016040519081016040528093929190818152602001838360200280828437600092019190915250929550612d56945050505050565b610109612e56565b6101dc6004803603604081101561077b57600080fd5b6001600160a01b038235169190810190604081016020820135600160201b8111156107a557600080fd5b8201836020820111156107b757600080fd5b803590602001918460208302840111600160201b831117156107d857600080fd5b919080806020026020016040519081016040528093929190818152602001838360200280828437600092019190915250929550612e5b945050505050565b610109612ff0565b6101dc6004803603606081101561083457600080fd5b6001600160a01b038235811692602081013590911691810190606081016040820135600160201b81111561086757600080fd5b82018360208201111561087957600080fd5b803590602001918460208302840111600160201b8311171561089a57600080fd5b919080806020026020016040519081016040528093929190818152602001838360200280828437600092019190915250929550613000945050505050565b6101dc600480360360408110156108ee57600080fd5b6001600160a01b038235169190810190604081016020820135600160201b81111561091857600080fd5b82018360208201111561092a57600080fd5b803590602001918460208302840111600160201b8311171561094b57600080fd5b9190808060200260200160405190810160405280939291908181526020018383602002808284376000920191909152509295506133e4945050505050565b610109613650565b6109cd600480360360808110156109a757600080fd5b506001600160a01b03813581169160208101358216916040820135169060600135613655565b6040805192835260208301919091528051918290030190f35b6101dc600480360360408110156109fc57600080fd5b6001600160a01b038235169190810190604081016020820135600160201b811115610a2657600080fd5b820183602082011115610a3857600080fd5b803590602001918460208302840111600160201b83111715610a5957600080fd5b919080806020026020016040519081016040528093929190818152602001838360200280828437600092019190915250929550613d0b945050505050565b6101dc600480360360a0811015610aad57600080fd5b6001600160a01b038235811692602081013590911691810190606081016040820135600160201b811115610ae057600080fd5b820183602082011115610af257600080fd5b803590602001918460208302840111600160201b83111715610b1357600080fd5b9190808060200260200160405190810160405280939291908181526020018383602002808284376000920191909152509295949360208101935035915050600160201b811115610b6257600080fd5b820183602082011115610b7457600080fd5b803590602001918460208302840111600160201b83111715610b9557600080fd5b9190808060200260200160405190810160405280939291908181526020018383602002808284376000920191909152509295949360208101935035915050600160201b811115610be457600080fd5b820183602082011115610bf657600080fd5b803590602001918460208302840111600160201b83111715610c1757600080fd5b919080806020026020016040519081016040528093929190818152602001838360200280828437600092019190915250929550613e57945050505050565b61010960048036036060811015610c6b57600080fd5b506001600160a01b038135811691602081013582169160409091013516614253565b61271081565b60606000600a905060008690506000816001600160a01b031663741bef1a6040518163ffffffff1660e01b815260040160206040518083038186803b158015610cdb57600080fd5b505afa158015610cef573d6000803e3d6000fd5b505050506040513d6020811015610d0557600080fd5b5051855190915060609084026001600160401b0381118015610d2657600080fd5b50604051908082528060200260200182016040528015610d50578160200160208202803683370190505b50905060005b86518110156113b0576000878281518110610d6d57fe5b6020026020010151905060006001600160a01b0316816001600160a01b03161415610d955750885b846001600160a01b03166352f55eed826040518263ffffffff1660e01b815260040180826001600160a01b0316815260200191505060206040518083038186803b158015610de257600080fd5b505afa158015610df6573d6000803e3d6000fd5b505050506040513d6020811015610e0c57600080fd5b505183518490848902908110610e1e57fe5b602002602001018181525050846001600160a01b031663c3c7b9e9826040518263ffffffff1660e01b815260040180826001600160a01b0316815260200191505060206040518083038186803b158015610e7757600080fd5b505afa158015610e8b573d6000803e3d6000fd5b505050506040513d6020811015610ea157600080fd5b5051835184906001858a0201908110610eb657fe5b602002602001018181525050846001600160a01b0316631aa4ace5826040518263ffffffff1660e01b815260040180826001600160a01b0316815260200191505060206040518083038186803b158015610f0f57600080fd5b505afa158015610f23573d6000803e3d6000fd5b505050506040513d6020811015610f3957600080fd5b5051835184906002858a0201908110610f4e57fe5b602002602001018181525050846001600160a01b0316632c668ec1828b6040518363ffffffff1660e01b815260040180836001600160a01b031681526020018281526020019250505060206040518083038186803b158015610faf57600080fd5b505afa158015610fc3573d6000803e3d6000fd5b505050506040513d6020811015610fd957600080fd5b5051835184906003858a0201908110610fee57fe5b602002602001018181525050846001600160a01b031663ab2f3ad4826040518263ffffffff1660e01b815260040180826001600160a01b0316815260200191505060206040518083038186803b15801561104757600080fd5b505afa15801561105b573d6000803e3d6000fd5b505050506040513d602081101561107157600080fd5b5051835184906004858a020190811061108657fe5b602002602001018181525050846001600160a01b03166381a612d6826040518263ffffffff1660e01b815260040180826001600160a01b0316815260200191505060206040518083038186803b1580156110df57600080fd5b505afa1580156110f3573d6000803e3d6000fd5b505050506040513d602081101561110957600080fd5b5051835184906005858a020190811061111e57fe5b602002602001018181525050846001600160a01b031663e124e6d2826040518263ffffffff1660e01b815260040180826001600160a01b0316815260200191505060206040518083038186803b15801561117757600080fd5b505afa15801561118b573d6000803e3d6000fd5b505050506040513d60208110156111a157600080fd5b5051835184906006858a02019081106111b657fe5b602002602001018181525050846001600160a01b031663f07456ce826040518263ffffffff1660e01b815260040180826001600160a01b0316815260200191505060206040518083038186803b15801561120f57600080fd5b505afa158015611223573d6000803e3d6000fd5b505050506040513d602081101561123957600080fd5b5051835184906007858a020190811061124e57fe5b602090810291909101810191909152604080516317e1d38560e11b81526001600160a01b038481166004830152600060248301819052604483018190526064830152915191871692632fc3a70a92608480840193829003018186803b1580156112b657600080fd5b505afa1580156112ca573d6000803e3d6000fd5b505050506040513d60208110156112e057600080fd5b5051835184906008858a02019081106112f557fe5b602090810291909101810191909152604080516317e1d38560e11b81526001600160a01b038481166004830152600160248301526000604483018190526064830152915191871692632fc3a70a92608480840193829003018186803b15801561135d57600080fd5b505afa158015611371573d6000803e3d6000fd5b505050506040513d602081101561138757600080fd5b5051835184906009858a020190811061139c57fe5b602090810291909101015250600101610d56565b5098975050505050505050565b60608082516001600160401b03811180156113d757600080fd5b50604051908082528060200260200182016040528015611401578160200160208202803683370190505b50905060005b83518110156114af57600084828151811061141e57fe5b60200260200101519050806001600160a01b031663817b1cd26040518163ffffffff1660e01b815260040160206040518083038186803b15801561146157600080fd5b505afa158015611475573d6000803e3d6000fd5b505050506040513d602081101561148b57600080fd5b5051835184908490811061149b57fe5b602090810291909101015250600101611407565b5092915050565b600080836001600160a01b03166318160ddd6040518163ffffffff1660e01b815260040160206040518083038186803b1580156114f257600080fd5b505afa158015611506573d6000803e3d6000fd5b505050506040513d602081101561151c57600080fd5b5051905060005b83518110156115d757600084828151811061153a57fe5b602002602001015190506000866001600160a01b03166370a08231836040518263ffffffff1660e01b815260040180826001600160a01b0316815260200191505060206040518083038186803b15801561159357600080fd5b505afa1580156115a7573d6000803e3d6000fd5b505050506040513d60208110156115bd57600080fd5b505190506115cb8482614609565b93505050600101611523565b5090505b92915050565b60606000600290506060818451026001600160401b038111801561160457600080fd5b5060405190808252806020026020018201604052801561162e578160200160208202803683370190505b50905060005b84518110156117dd57600085828151811061164b57fe5b6020026020010151905060006001600160a01b0316816001600160a01b031614156116ba57866001600160a01b031631838584028151811061168957fe5b602002602001018181525050600083858402600101815181106116a857fe5b602002602001018181525050506117d5565b806001600160a01b03166370a08231886040518263ffffffff1660e01b815260040180826001600160a01b0316815260200191505060206040518083038186803b15801561170757600080fd5b505afa15801561171b573d6000803e3d6000fd5b505050506040513d602081101561173157600080fd5b50518351849084870290811061174357fe5b602002602001018181525050806001600160a01b03166318160ddd6040518163ffffffff1660e01b815260040160206040518083038186803b15801561178857600080fd5b505afa15801561179c573d6000803e3d6000fd5b505050506040513d60208110156117b257600080fd5b5051835184906001858802019081106117c757fe5b602002602001018181525050505b600101611634565b50949350505050565b60606000600690506060818451026001600160401b038111801561180957600080fd5b50604051908082528060200260200182016040528015611833578160200160208202803683370190505b50905060005b84518110156117dd57600085828151811061185057fe5b602090810291909101810151604080516317e1d38560e11b81526001600160a01b0380841660048301526001602483018190526044830152600060648301529151929450908a1692632fc3a70a92608480840193829003018186803b1580156118b857600080fd5b505afa1580156118cc573d6000803e3d6000fd5b505050506040513d60208110156118e257600080fd5b5051835184908487029081106118f457fe5b602090810291909101810191909152604080516317e1d38560e11b81526001600160a01b0384811660048301526000602483018190526001604484015260648301529151918a1692632fc3a70a92608480840193829003018186803b15801561195c57600080fd5b505afa158015611970573d6000803e3d6000fd5b505050506040513d602081101561198657600080fd5b50518351849060018588020190811061199b57fe5b602090810291909101810191909152604080516356c8c2c160e01b81526001600160a01b038481166004830152600160248301529151918a16926356c8c2c192604480840193829003018186803b1580156119f557600080fd5b505afa158015611a09573d6000803e3d6000fd5b505050506040513d6020811015611a1f57600080fd5b505183518490600285880201908110611a3457fe5b602090810291909101810191909152604080516356c8c2c160e01b81526001600160a01b038481166004830152600060248301529151918a16926356c8c2c192604480840193829003018186803b158015611a8e57600080fd5b505afa158015611aa2573d6000803e3d6000fd5b505050506040513d6020811015611ab857600080fd5b505183518490600385880201908110611acd57fe5b602002602001018181525050866001600160a01b0316636ce8a44b826040518263ffffffff1660e01b815260040180826001600160a01b0316815260200191505060206040518083038186803b158015611b2657600080fd5b505afa158015611b3a573d6000803e3d6000fd5b505050506040513d6020811015611b5057600080fd5b5051611b5d576000611b60565b60015b60ff168385840260040181518110611b7457fe5b602002602001018181525050866001600160a01b03166348cac277826040518263ffffffff1660e01b815260040180826001600160a01b0316815260200191505060206040518083038186803b158015611bcd57600080fd5b505afa158015611be1573d6000803e3d6000fd5b505050506040513d6020811015611bf757600080fd5b505183518490600585880201908110611c0c57fe5b602090810291909101015250600101611839565b600080600080876001600160a01b03166381a612d6886040518263ffffffff1660e01b815260040180826001600160a01b0316815260200191505060206040518083038186803b158015611c7357600080fd5b505afa158015611c87573d6000803e3d6000fd5b505050506040513d6020811015611c9d57600080fd5b5051604080516323b95ceb60e21b81526001600160a01b038a811660048301529151929350600092918b1691638ee573ac91602480820192602092909190829003018186803b158015611cef57600080fd5b505afa158015611d03573d6000803e3d6000fd5b505050506040513d6020811015611d1957600080fd5b505190506000611d3f68327cb2734119d3b7a9601e1b611d398986614652565b906146ab565b9050611d5b600a83900a611d3983670de0b6b3a7640000614652565b905060008a6001600160a01b03166342b60b038b6040518263ffffffff1660e01b815260040180826001600160a01b0316815260200191505060206040518083038186803b158015611dac57600080fd5b505afa158015611dc0573d6000803e3d6000fd5b505050506040513d6020811015611dd657600080fd5b50518015611e5957508a6001600160a01b03166342b60b038a6040518263ffffffff1660e01b815260040180826001600160a01b0316815260200191505060206040518083038186803b158015611e2c57600080fd5b505afa158015611e40573d6000803e3d6000fd5b505050506040513d6020811015611e5657600080fd5b50515b9050600081611ecc578b6001600160a01b031663a22f23926040518163ffffffff1660e01b815260040160206040518083038186803b158015611e9b57600080fd5b505afa158015611eaf573d6000803e3d6000fd5b505050506040513d6020811015611ec557600080fd5b5051611f32565b8b6001600160a01b031663df73a2676040518163ffffffff1660e01b815260040160206040518083038186803b158015611f0557600080fd5b505afa158015611f19573d6000803e3d6000fd5b505050506040513d6020811015611f2f57600080fd5b50515b9050600082611fa5578c6001600160a01b0316637a210a2b6040518163ffffffff1660e01b815260040160206040518083038186803b158015611f7457600080fd5b505afa158015611f88573d6000803e3d6000fd5b505050506040513d6020811015611f9e57600080fd5b505161200b565b8c6001600160a01b03166310eb56c26040518163ffffffff1660e01b815260040160206040518083038186803b158015611fde57600080fd5b505afa158015611ff2573d6000803e3d6000fd5b505050506040513d602081101561200857600080fd5b50515b905060008d6001600160a01b031663c7e074c38e87868660016040518663ffffffff1660e01b815260040180866001600160a01b0316815260200185815260200184815260200183815260200182151581526020019550505050505060206040518083038186803b15801561207f57600080fd5b505afa158015612093573d6000803e3d6000fd5b505050506040513d60208110156120a957600080fd5b8101908080519060200190929190505050905060008e6001600160a01b031663c7e074c38e88878760006040518663ffffffff1660e01b815260040180866001600160a01b0316815260200185815260200184815260200183815260200182151581526020019550505050505060206040518083038186803b15801561212e57600080fd5b505afa158015612142573d6000803e3d6000fd5b505050506040513d602081101561215857600080fd5b50519050600081831161216b578161216d565b825b9b509199509750505050505050509450945094915050565b60606000600590506060818451026001600160401b03811180156121a857600080fd5b506040519080825280602002602001820160405280156121d2578160200160208202803683370190505b50905060005b84518110156117dd5760008582815181106121ef57fe5b60200260200101519050806001600160a01b0316635d50e729886040518263ffffffff1660e01b815260040180826001600160a01b0316815260200191505060206040518083038186803b15801561224657600080fd5b505afa15801561225a573d6000803e3d6000fd5b505050506040513d602081101561227057600080fd5b50518351849084870290811061228257fe5b602002602001018181525050806001600160a01b031663d5a73fdd886040518263ffffffff1660e01b815260040180826001600160a01b0316815260200191505060206040518083038186803b1580156122db57600080fd5b505afa1580156122ef573d6000803e3d6000fd5b505050506040513d602081101561230557600080fd5b50518351849060018588020190811061231a57fe5b60200260200101818152505085828151811061233257fe5b60200260200101516001600160a01b03166370a08231886040518263ffffffff1660e01b815260040180826001600160a01b0316815260200191505060206040518083038186803b15801561238657600080fd5b505afa15801561239a573d6000803e3d6000fd5b505050506040513d60208110156123b057600080fd5b5051835184906002858802019081106123c557fe5b602002602001018181525050806001600160a01b03166371417b32886040518263ffffffff1660e01b815260040180826001600160a01b0316815260200191505060206040518083038186803b15801561241e57600080fd5b505afa158015612432573d6000803e3d6000fd5b505050506040513d602081101561244857600080fd5b50518351849060038588020190811061245d57fe5b602002602001018181525050806001600160a01b031663402914f5886040518263ffffffff1660e01b815260040180826001600160a01b0316815260200191505060206040518083038186803b1580156124b657600080fd5b505afa1580156124ca573d6000803e3d6000fd5b505050506040513d60208110156124e057600080fd5b5051835184906004858802019081106124f557fe5b6020908102919091010152506001016121d8565b60606000600c905060008690506000816001600160a01b031663741bef1a6040518163ffffffff1660e01b815260040160206040518083038186803b15801561255157600080fd5b505afa158015612565573d6000803e3d6000fd5b505050506040513d602081101561257b57600080fd5b5051855190915060609084026001600160401b038111801561259c57600080fd5b506040519080825280602002602001820160405280156125c6578160200160208202803683370190505b50905060005b86518110156113b05760008782815181106125e357fe5b6020026020010151905060006001600160a01b0316816001600160a01b0316141561260b5750885b846001600160a01b03166352f55eed826040518263ffffffff1660e01b815260040180826001600160a01b0316815260200191505060206040518083038186803b15801561265857600080fd5b505afa15801561266c573d6000803e3d6000fd5b505050506040513d602081101561268257600080fd5b50518351849084890290811061269457fe5b602002602001018181525050846001600160a01b031663c3c7b9e9826040518263ffffffff1660e01b815260040180826001600160a01b0316815260200191505060206040518083038186803b1580156126ed57600080fd5b505afa158015612701573d6000803e3d6000fd5b505050506040513d602081101561271757600080fd5b5051835184906001858a020190811061272c57fe5b602002602001018181525050846001600160a01b0316631aa4ace5826040518263ffffffff1660e01b815260040180826001600160a01b0316815260200191505060206040518083038186803b15801561278557600080fd5b505afa158015612799573d6000803e3d6000fd5b505050506040513d60208110156127af57600080fd5b5051835184906002858a02019081106127c457fe5b602002602001018181525050846001600160a01b0316632c668ec1828b6040518363ffffffff1660e01b815260040180836001600160a01b031681526020018281526020019250505060206040518083038186803b15801561282557600080fd5b505afa158015612839573d6000803e3d6000fd5b505050506040513d602081101561284f57600080fd5b5051835184906003858a020190811061286457fe5b602002602001018181525050846001600160a01b031663ab2f3ad4826040518263ffffffff1660e01b815260040180826001600160a01b0316815260200191505060206040518083038186803b1580156128bd57600080fd5b505afa1580156128d1573d6000803e3d6000fd5b505050506040513d60208110156128e757600080fd5b5051835184906004858a02019081106128fc57fe5b602002602001018181525050846001600160a01b0316634a993ee9826040518263ffffffff1660e01b815260040180826001600160a01b0316815260200191505060206040518083038186803b15801561295557600080fd5b505afa158015612969573d6000803e3d6000fd5b505050506040513d602081101561297f57600080fd5b5051835184906005858a020190811061299457fe5b602002602001018181525050846001600160a01b031663ad1e4f8d826040518263ffffffff1660e01b815260040180826001600160a01b0316815260200191505060206040518083038186803b1580156129ed57600080fd5b505afa158015612a01573d6000803e3d6000fd5b505050506040513d6020811015612a1757600080fd5b5051835184906006858a0201908110612a2c57fe5b602002602001018181525050846001600160a01b03166381a612d6826040518263ffffffff1660e01b815260040180826001600160a01b0316815260200191505060206040518083038186803b158015612a8557600080fd5b505afa158015612a99573d6000803e3d6000fd5b505050506040513d6020811015612aaf57600080fd5b5051835184906007858a0201908110612ac457fe5b602002602001018181525050846001600160a01b031663e124e6d2826040518263ffffffff1660e01b815260040180826001600160a01b0316815260200191505060206040518083038186803b158015612b1d57600080fd5b505afa158015612b31573d6000803e3d6000fd5b505050506040513d6020811015612b4757600080fd5b5051835184906008858a0201908110612b5c57fe5b602002602001018181525050846001600160a01b031663f07456ce826040518263ffffffff1660e01b815260040180826001600160a01b0316815260200191505060206040518083038186803b158015612bb557600080fd5b505afa158015612bc9573d6000803e3d6000fd5b505050506040513d6020811015612bdf57600080fd5b5051835184906009858a0201908110612bf457fe5b602090810291909101810191909152604080516317e1d38560e11b81526001600160a01b038481166004830152600060248301819052604483018190526064830152915191871692632fc3a70a92608480840193829003018186803b158015612c5c57600080fd5b505afa158015612c70573d6000803e3d6000fd5b505050506040513d6020811015612c8657600080fd5b505183518490600a858a0201908110612c9b57fe5b602090810291909101810191909152604080516317e1d38560e11b81526001600160a01b038481166004830152600160248301526000604483018190526064830152915191871692632fc3a70a92608480840193829003018186803b158015612d0357600080fd5b505afa158015612d17573d6000803e3d6000fd5b505050506040513d6020811015612d2d57600080fd5b505183518490600b858a0201908110612d4257fe5b6020908102919091010152506001016125cc565b60608082516001600160401b0381118015612d7057600080fd5b50604051908082528060200260200182016040528015612d9a578160200160208202803683370190505b50905060005b83518110156115d757846001600160a01b0316631ce9cb8f858381518110612dc457fe5b60200260200101516040518263ffffffff1660e01b815260040180826001600160a01b0316815260200191505060206040518083038186803b158015612e0957600080fd5b505afa158015612e1d573d6000803e3d6000fd5b505050506040513d6020811015612e3357600080fd5b50518251839083908110612e4357fe5b6020908102919091010152600101612da0565b601281565b60606000600290506060818451026001600160401b0381118015612e7e57600080fd5b50604051908082528060200260200182016040528015612ea8578160200160208202803683370190505b50905060005b84518110156117dd576000858281518110612ec557fe5b60200260200101519050806001600160a01b031663402914f5886040518263ffffffff1660e01b815260040180826001600160a01b0316815260200191505060206040518083038186803b158015612f1c57600080fd5b505afa158015612f30573d6000803e3d6000fd5b505050506040513d6020811015612f4657600080fd5b505183518490848702908110612f5857fe5b602002602001018181525050806001600160a01b0316632459f51d6040518163ffffffff1660e01b815260040160206040518083038186803b158015612f9d57600080fd5b505afa158015612fb1573d6000803e3d6000fd5b505050506040513d6020811015612fc757600080fd5b505183518490600185880201908110612fdc57fe5b602090810291909101015250600101612eae565b68327cb2734119d3b7a9601e1b81565b60606000600290506060818451026001600160401b038111801561302357600080fd5b5060405190808252806020026020018201604052801561304d578160200160208202803683370190505b50905060008690506000816001600160a01b031663c4f718bf6040518163ffffffff1660e01b815260040160206040518083038186803b15801561309057600080fd5b505afa1580156130a4573d6000803e3d6000fd5b505050506040513d60208110156130ba57600080fd5b5051905060005b86518110156133d75760008782815181106130d857fe5b6020026020010151905060006001600160a01b0316816001600160a01b031614156131005750875b6000846001600160a01b031663c3c7b9e9836040518263ffffffff1660e01b815260040180826001600160a01b0316815260200191505060206040518083038186803b15801561314f57600080fd5b505afa158015613163573d6000803e3d6000fd5b505050506040513d602081101561317957600080fd5b5051604080516352f55eed60e01b81526001600160a01b0385811660048301529151929350600092918816916352f55eed91602480820192602092909190829003018186803b1580156131cb57600080fd5b505afa1580156131df573d6000803e3d6000fd5b505050506040513d60208110156131f557600080fd5b5051905080156132285761320d81611d398785614652565b878986028151811061321b57fe5b6020026020010181815250505b6000866001600160a01b031663c65bc7b1856040518263ffffffff1660e01b815260040180826001600160a01b0316815260200191505060206040518083038186803b15801561327757600080fd5b505afa15801561328b573d6000803e3d6000fd5b505050506040513d60208110156132a157600080fd5b505111156133cc576000866001600160a01b031663a93acac2856040518263ffffffff1660e01b815260040180826001600160a01b0316815260200191505060206040518083038186803b1580156132f857600080fd5b505afa15801561330c573d6000803e3d6000fd5b505050506040513d602081101561332257600080fd5b50516040805163c65bc7b160e01b81526001600160a01b0387811660048301529151929350600092918a169163c65bc7b191602480820192602092909190829003018186803b15801561337457600080fd5b505afa158015613388573d6000803e3d6000fd5b505050506040513d602081101561339e57600080fd5b505190506133ac81836146ea565b898b8802600101815181106133bd57fe5b60200260200101818152505050505b5050506001016130c1565b5091979650505050505050565b80516060906002908190839082900482026001600160401b038111801561340a57600080fd5b50604051908082528060200260200182016040528015613434578160200160208202803683370190505b50905060005b8386518161344457fe5b04811015613646576000868583028151811061345c57fe5b602002602001015190506000878684026001018151811061347957fe5b602002602001015190506000896001600160a01b031663e6a4390584846040518363ffffffff1660e01b815260040180836001600160a01b03168152602001826001600160a01b031681526020019250505060206040518083038186803b1580156134e357600080fd5b505afa1580156134f7573d6000803e3d6000fd5b505050506040513d602081101561350d57600080fd5b5051604080516370a0823160e01b81526001600160a01b0380841660048301529151929350908516916370a0823191602480820192602092909190829003018186803b15801561355c57600080fd5b505afa158015613570573d6000803e3d6000fd5b505050506040513d602081101561358657600080fd5b50518551869086890290811061359857fe5b602002602001018181525050816001600160a01b03166370a08231826040518263ffffffff1660e01b815260040180826001600160a01b0316815260200191505060206040518083038186803b1580156135f157600080fd5b505afa158015613605573d6000803e3d6000fd5b505050506040513d602081101561361b57600080fd5b5051855186906001878a020190811061363057fe5b602090810291909101015250505060010161343a565b5095945050505050565b600981565b6000806000866001600160a01b03166381a612d6876040518263ffffffff1660e01b815260040180826001600160a01b0316815260200191505060206040518083038186803b1580156136a757600080fd5b505afa1580156136bb573d6000803e3d6000fd5b505050506040513d60208110156136d157600080fd5b5051604080516323b95ceb60e21b81526001600160a01b0389811660048301529151929350600092918a1691638ee573ac91602480820192602092909190829003018186803b15801561372357600080fd5b505afa158015613737573d6000803e3d6000fd5b505050506040513d602081101561374d57600080fd5b5051604080516323b95ceb60e21b81526001600160a01b0389811660048301529151929350600092918b1691638ee573ac91602480820192602092909190829003018186803b15801561379f57600080fd5b505afa1580156137b3573d6000803e3d6000fd5b505050506040513d60208110156137c957600080fd5b505190506000806137ea68327cb2734119d3b7a9601e1b611d398a88614652565b9050613806600a85900a611d3983670de0b6b3a7640000614652565b905060008b6001600160a01b03166342b60b038c6040518263ffffffff1660e01b815260040180826001600160a01b0316815260200191505060206040518083038186803b15801561385757600080fd5b505afa15801561386b573d6000803e3d6000fd5b505050506040513d602081101561388157600080fd5b5051801561390457508b6001600160a01b03166342b60b038b6040518263ffffffff1660e01b815260040180826001600160a01b0316815260200191505060206040518083038186803b1580156138d757600080fd5b505afa1580156138eb573d6000803e3d6000fd5b505050506040513d602081101561390157600080fd5b50515b9050600081613977578c6001600160a01b031663a22f23926040518163ffffffff1660e01b815260040160206040518083038186803b15801561394657600080fd5b505afa15801561395a573d6000803e3d6000fd5b505050506040513d602081101561397057600080fd5b50516139dd565b8c6001600160a01b031663df73a2676040518163ffffffff1660e01b815260040160206040518083038186803b1580156139b057600080fd5b505afa1580156139c4573d6000803e3d6000fd5b505050506040513d60208110156139da57600080fd5b50515b9050600082613a50578d6001600160a01b0316637a210a2b6040518163ffffffff1660e01b815260040160206040518083038186803b158015613a1f57600080fd5b505afa158015613a33573d6000803e3d6000fd5b505050506040513d6020811015613a4957600080fd5b5051613ab6565b8d6001600160a01b03166310eb56c26040518163ffffffff1660e01b815260040160206040518083038186803b158015613a8957600080fd5b505afa158015613a9d573d6000803e3d6000fd5b505050506040513d6020811015613ab357600080fd5b50515b905060008e6001600160a01b031663c7e074c38f87868660016040518663ffffffff1660e01b815260040180866001600160a01b0316815260200185815260200184815260200183815260200182151581526020019550505050505060206040518083038186803b158015613b2a57600080fd5b505afa158015613b3e573d6000803e3d6000fd5b505050506040513d6020811015613b5457600080fd5b8101908080519060200190929190505050905060008f6001600160a01b031663c7e074c38f88878760006040518663ffffffff1660e01b815260040180866001600160a01b0316815260200185815260200184815260200183815260200182151581526020019550505050505060206040518083038186803b158015613bd957600080fd5b505afa158015613bed573d6000803e3d6000fd5b505050506040513d6020811015613c0357600080fd5b50519050808211613c145780613c16565b815b965050505050505060008a6001600160a01b031663e124e6d28a6040518263ffffffff1660e01b815260040180826001600160a01b0316815260200191505060206040518083038186803b158015613c6d57600080fd5b505afa158015613c81573d6000803e3d6000fd5b505050506040513d6020811015613c9757600080fd5b505190506000613cab82611d398b89614652565b9050613cca85600a0a611d3986600a0a8461465290919063ffffffff16565b90506000613ce8612710611d39613ce18288614609565b8590614652565b90506000613cf68383614609565b919e919d50909b505050505050505050505050565b60608082516001600160401b0381118015613d2557600080fd5b50604051908082528060200260200182016040528015613d4f578160200160208202803683370190505b50905060005b83518110156115d7576000848281518110613d6c57fe5b6020026020010151905060006001600160a01b0316816001600160a01b03161415613dba57856001600160a01b031631838381518110613da857fe5b60200260200101818152505050613e4f565b806001600160a01b03166370a08231876040518263ffffffff1660e01b815260040180826001600160a01b0316815260200191505060206040518083038186803b158015613e0757600080fd5b505afa158015613e1b573d6000803e3d6000fd5b505050506040513d6020811015613e3157600080fd5b50518351849084908110613e4157fe5b602002602001018181525050505b600101613d55565b60608060098551026001600160401b0381118015613e7457600080fd5b50604051908082528060200260200182016040528015613e9e578160200160208202803683370190505b50905060005b85518110156142485760008060008060008060008e6001600160a01b0316634a3f088d8f8f8b81518110613ed457fe5b60200260200101518f8c81518110613ee857fe5b60200260200101518f8d81518110613efc57fe5b60200260200101516040518563ffffffff1660e01b815260040180856001600160a01b03168152602001846001600160a01b03168152602001836001600160a01b0316815260200182151581526020019450505050506101006040518083038186803b158015613f6b57600080fd5b505afa158015613f7f573d6000803e3d6000fd5b505050506040513d610100811015613f9657600080fd5b50805160208201516040830151606084015160a085015160c086015160e0909601518f51959d50939b509199509750955091935090915087908a9060098b02908110613fde57fe5b602002602001018181525050858960098a0260010181518110613ffd57fe5b602002602001018181525050848960098a026002018151811061401c57fe5b602002602001018181525050838960098a026003018151811061403b57fe5b60200260200101818152505081614053576000614056565b60015b60ff168960098a026004018151811061406b57fe5b602002602001018181525050828960098a026005018151811061408a57fe5b602002602001018181525050808960098a02600601815181106140a957fe5b6020026020010181815250505050505050505060008260098302815181106140cd57fe5b6020026020010151905060008360098402600201815181106140eb57fe5b60200260200101519050600084600985026006018151811061410957fe5b60200260200101519050600082111561423d576000808c6001600160a01b0316635c07eaab8b888151811061413a57fe5b602002602001015187878d8b8151811061415057fe5b6020026020010151886040518663ffffffff1660e01b815260040180866001600160a01b03168152602001858152602001848152602001831515815260200182815260200195505050505050604080518083038186803b1580156141b357600080fd5b505afa1580156141c7573d6000803e3d6000fd5b505050506040513d60408110156141dd57600080fd5b5080516020909101519092509050816141f75760006141fa565b60015b60ff1687600988026007018151811061420f57fe5b6020026020010181815250508087600988026008018151811061422e57fe5b60200260200101818152505050505b505050600101613ea4565b509695505050505050565b600080846001600160a01b03166381a612d6856040518263ffffffff1660e01b815260040180826001600160a01b0316815260200191505060206040518083038186803b1580156142a357600080fd5b505afa1580156142b7573d6000803e3d6000fd5b505050506040513d60208110156142cd57600080fd5b505160408051637092736960e11b81526001600160a01b03868116600483015291519293506000929188169163e124e6d291602480820192602092909190829003018186803b15801561431f57600080fd5b505afa158015614333573d6000803e3d6000fd5b505050506040513d602081101561434957600080fd5b5051604080516352f55eed60e01b81526001600160a01b0387811660048301529151929350600092918916916352f55eed91602480820192602092909190829003018186803b15801561439b57600080fd5b505afa1580156143af573d6000803e3d6000fd5b505050506040513d60208110156143c557600080fd5b50516040805163c3c7b9e960e01b81526001600160a01b0388811660048301529151929350600092918a169163c3c7b9e991602480820192602092909190829003018186803b15801561441757600080fd5b505afa15801561442b573d6000803e3d6000fd5b505050506040513d602081101561444157600080fd5b505160408051634a993ee960e01b81526001600160a01b0389811660048301529151929350600092918b1691634a993ee991602480820192602092909190829003018186803b15801561449357600080fd5b505afa1580156144a7573d6000803e3d6000fd5b505050506040513d60208110156144bd57600080fd5b5051905060006144dc8284116144d357826144d5565b835b8590614609565b905060008a6001600160a01b0316638ee573ac8b6040518263ffffffff1660e01b815260040180826001600160a01b0316815260200191505060206040518083038186803b15801561452d57600080fd5b505afa158015614541573d6000803e3d6000fd5b505050506040513d602081101561455757600080fd5b5051604080516323b95ceb60e21b81526001600160a01b038c811660048301529151929350600092918e1691638ee573ac91602480820192602092909190829003018186803b1580156145a957600080fd5b505afa1580156145bd573d6000803e3d6000fd5b505050506040513d60208110156145d357600080fd5b505190506145f9600a82810a90611d399085900a6145f38c83898e614652565b90614652565b9c9b505050505050505050505050565b600061464b83836040518060400160405280601e81526020017f536166654d6174683a207375627472616374696f6e206f766572666c6f770000815250614742565b9392505050565b600082614661575060006115db565b8282028284828161466e57fe5b041461464b5760405162461bcd60e51b815260040180806020018281038252602181526020018061483f6021913960400191505060405180910390fd5b600061464b83836040518060400160405280601a815260200179536166654d6174683a206469766973696f6e206279207a65726f60301b8152506147d9565b60008282018381101561464b576040805162461bcd60e51b815260206004820152601b60248201527a536166654d6174683a206164646974696f6e206f766572666c6f7760281b604482015290519081900360640190fd5b600081848411156147d15760405162461bcd60e51b81526004018080602001828103825283818151815260200191508051906020019080838360005b8381101561479657818101518382015260200161477e565b50505050905090810190601f1680156147c35780820380516001836020036101000a031916815260200191505b509250505060405180910390fd5b505050900390565b600081836148285760405162461bcd60e51b815260206004820181815283516024840152835190928392604490910191908501908083836000831561479657818101518382015260200161477e565b50600083858161483457fe5b049594505050505056fe536166654d6174683a206d756c7469706c69636174696f6e206f766572666c6f77a264697066735822122081e66f9de46556accc557476462ecac109740b2bb3bd0dc0c2e3ce36e66aad5164736f6c634300060c0033",
  "linkReferences": {},
  "deployedLinkReferences": {}
}