{
  "_format": "hh-sol-artifact-1",
  "contractName": "RewardRouter",
  "sourceName": "contracts/staking/RewardRouter.sol",
  "abi": [
    {
      "anonymous": false,
      "inputs": [
        {
          "indexed": false,
          "internalType": "address",
          "name": "account",
          "type": "address"
        },
        {
          "indexed": false,
          "internalType": "uint256",
          "name": "amount",
          "type": "uint256"
        }
      ],
      "name": "StakeGlp",
      "type": "event"
    },
    {
      "anonymous": false,
      "inputs": [
        {
          "indexed": false,
          "internalType": "address",
          "name": "account",
          "type": "address"
        },
        {
          "indexed": false,
          "internalType": "uint256",
          "name": "amount",
          "type": "uint256"
        }
      ],
      "name": "StakeGmx",
      "type": "event"
    },
    {
      "anonymous": false,
      "inputs": [
        {
          "indexed": false,
          "internalType": "address",
          "name": "account",
          "type": "address"
        },
        {
          "indexed": false,
          "internalType": "uint256",
          "name": "amount",
          "type": "uint256"
        }
      ],
      "name": "UnstakeGlp",
      "type": "event"
    },
    {
      "anonymous": false,
      "inputs": [
        {
          "indexed": false,
          "internalType": "address",
          "name": "account",
          "type": "address"
        },
        {
          "indexed": false,
          "internalType": "uint256",
          "name": "amount",
          "type": "uint256"
        }
      ],
      "name": "UnstakeGmx",
      "type": "event"
    },
    {
      "inputs": [
        {
          "internalType": "address[]",
          "name": "_accounts",
          "type": "address[]"
        }
      ],
      "name": "batchCompoundForAccounts",
      "outputs": [],
      "stateMutability": "nonpayable",
      "type": "function"
    },
    {
      "inputs": [
        {
          "internalType": "address[]",
          "name": "_accounts",
          "type": "address[]"
        },
        {
          "internalType": "uint256[]",
          "name": "_amounts",
          "type": "uint256[]"
        }
      ],
      "name": "batchStakeGmxForAccount",
      "outputs": [],
      "stateMutability": "nonpayable",
      "type": "function"
    },
    {
      "inputs": [],
      "name": "bnGmx",
      "outputs": [
        {
          "internalType": "address",
          "name": "",
          "type": "address"
        }
      ],
      "stateMutability": "view",
      "type": "function"
    },
    {
      "inputs": [],
      "name": "bonusGmxTracker",
      "outputs": [
        {
          "internalType": "address",
          "name": "",
          "type": "address"
        }
      ],
      "stateMutability": "view",
      "type": "function"
    },
    {
      "inputs": [],
      "name": "claim",
      "outputs": [],
      "stateMutability": "nonpayable",
      "type": "function"
    },
    {
      "inputs": [],
      "name": "claimEsGmx",
      "outputs": [],
      "stateMutability": "nonpayable",
      "type": "function"
    },
    {
      "inputs": [],
      "name": "claimFees",
      "outputs": [],
      "stateMutability": "nonpayable",
      "type": "function"
    },
    {
      "inputs": [],
      "name": "compound",
      "outputs": [],
      "stateMutability": "nonpayable",
      "type": "function"
    },
    {
      "inputs": [
        {
          "internalType": "address",
          "name": "_account",
          "type": "address"
        }
      ],
      "name": "compoundForAccount",
      "outputs": [],
      "stateMutability": "nonpayable",
      "type": "function"
    },
    {
      "inputs": [],
      "name": "esGmx",
      "outputs": [
        {
          "internalType": "address",
          "name": "",
          "type": "address"
        }
      ],
      "stateMutability": "view",
      "type": "function"
    },
    {
      "inputs": [],
      "name": "feeGlpTracker",
      "outputs": [
        {
          "internalType": "address",
          "name": "",
          "type": "address"
        }
      ],
      "stateMutability": "view",
      "type": "function"
    },
    {
      "inputs": [],
      "name": "feeGmxTracker",
      "outputs": [
        {
          "internalType": "address",
          "name": "",
          "type": "address"
        }
      ],
      "stateMutability": "view",
      "type": "function"
    },
    {
      "inputs": [],
      "name": "glp",
      "outputs": [
        {
          "internalType": "address",
          "name": "",
          "type": "address"
        }
      ],
      "stateMutability": "view",
      "type": "function"
    },
    {
      "inputs": [],
      "name": "glpManager",
      "outputs": [
        {
          "internalType": "address",
          "name": "",
          "type": "address"
        }
      ],
      "stateMutability": "view",
      "type": "function"
    },
    {
      "inputs": [],
      "name": "gmx",
      "outputs": [
        {
          "internalType": "address",
          "name": "",
          "type": "address"
        }
      ],
      "stateMutability": "view",
      "type": "function"
    },
    {
      "inputs": [],
      "name": "gov",
      "outputs": [
        {
          "internalType": "address",
          "name": "",
          "type": "address"
        }
      ],
      "stateMutability": "view",
      "type": "function"
    },
    {
      "inputs": [
        {
          "internalType": "address",
          "name": "_weth",
          "type": "address"
        },
        {
          "internalType": "address",
          "name": "_gmx",
          "type": "address"
        },
        {
          "internalType": "address",
          "name": "_esGmx",
          "type": "address"
        },
        {
          "internalType": "address",
          "name": "_bnGmx",
          "type": "address"
        },
        {
          "internalType": "address",
          "name": "_glp",
          "type": "address"
        },
        {
          "internalType": "address",
          "name": "_stakedGmxTracker",
          "type": "address"
        },
        {
          "internalType": "address",
          "name": "_bonusGmxTracker",
          "type": "address"
        },
        {
          "internalType": "address",
          "name": "_feeGmxTracker",
          "type": "address"
        },
        {
          "internalType": "address",
          "name": "_feeGlpTracker",
          "type": "address"
        },
        {
          "internalType": "address",
          "name": "_stakedGlpTracker",
          "type": "address"
        },
        {
          "internalType": "address",
          "name": "_glpManager",
          "type": "address"
        }
      ],
      "name": "initialize",
      "outputs": [],
      "stateMutability": "nonpayable",
      "type": "function"
    },
    {
      "inputs": [],
      "name": "isInitialized",
      "outputs": [
        {
          "internalType": "bool",
          "name": "",
          "type": "bool"
        }
      ],
      "stateMutability": "view",
      "type": "function"
    },
    {
      "inputs": [
        {
          "internalType": "address",
          "name": "_token",
          "type": "address"
        },
        {
          "internalType": "uint256",
          "name": "_amount",
          "type": "uint256"
        },
        {
          "internalType": "uint256",
          "name": "_minUsdg",
          "type": "uint256"
        },
        {
          "internalType": "uint256",
          "name": "_minGlp",
          "type": "uint256"
        }
      ],
      "name": "mintAndStakeGlp",
      "outputs": [
        {
          "internalType": "uint256",
          "name": "",
          "type": "uint256"
        }
      ],
      "stateMutability": "nonpayable",
      "type": "function"
    },
    {
      "inputs": [
        {
          "internalType": "uint256",
          "name": "_minUsdg",
          "type": "uint256"
        },
        {
          "internalType": "uint256",
          "name": "_minGlp",
          "type": "uint256"
        }
      ],
      "name": "mintAndStakeGlpETH",
      "outputs": [
        {
          "internalType": "uint256",
          "name": "",
          "type": "uint256"
        }
      ],
      "stateMutability": "payable",
      "type": "function"
    },
    {
      "inputs": [
        {
          "internalType": "address",
          "name": "_gov",
          "type": "address"
        }
      ],
      "name": "setGov",
      "outputs": [],
      "stateMutability": "nonpayable",
      "type": "function"
    },
    {
      "inputs": [
        {
          "internalType": "uint256",
          "name": "_amount",
          "type": "uint256"
        }
      ],
      "name": "stakeEsGmx",
      "outputs": [],
      "stateMutability": "nonpayable",
      "type": "function"
    },
    {
      "inputs": [
        {
          "internalType": "uint256",
          "name": "_amount",
          "type": "uint256"
        }
      ],
      "name": "stakeGmx",
      "outputs": [],
      "stateMutability": "nonpayable",
      "type": "function"
    },
    {
      "inputs": [
        {
          "internalType": "address",
          "name": "_account",
          "type": "address"
        },
        {
          "internalType": "uint256",
          "name": "_amount",
          "type": "uint256"
        }
      ],
      "name": "stakeGmxForAccount",
      "outputs": [],
      "stateMutability": "nonpayable",
      "type": "function"
    },
    {
      "inputs": [],
      "name": "stakedGlpTracker",
      "outputs": [
        {
          "internalType": "address",
          "name": "",
          "type": "address"
        }
      ],
      "stateMutability": "view",
      "type": "function"
    },
    {
      "inputs": [],
      "name": "stakedGmxTracker",
      "outputs": [
        {
          "internalType": "address",
          "name": "",
          "type": "address"
        }
      ],
      "stateMutability": "view",
      "type": "function"
    },
    {
      "inputs": [
        {
          "internalType": "address",
          "name": "_tokenOut",
          "type": "address"
        },
        {
          "internalType": "uint256",
          "name": "_glpAmount",
          "type": "uint256"
        },
        {
          "internalType": "uint256",
          "name": "_minOut",
          "type": "uint256"
        },
        {
          "internalType": "address",
          "name": "_receiver",
          "type": "address"
        }
      ],
      "name": "unstakeAndRedeemGlp",
      "outputs": [
        {
          "internalType": "uint256",
          "name": "",
          "type": "uint256"
        }
      ],
      "stateMutability": "nonpayable",
      "type": "function"
    },
    {
      "inputs": [
        {
          "internalType": "uint256",
          "name": "_glpAmount",
          "type": "uint256"
        },
        {
          "internalType": "uint256",
          "name": "_minOut",
          "type": "uint256"
        },
        {
          "internalType": "address payable",
          "name": "_receiver",
          "type": "address"
        }
      ],
      "name": "unstakeAndRedeemGlpETH",
      "outputs": [
        {
          "internalType": "uint256",
          "name": "",
          "type": "uint256"
        }
      ],
      "stateMutability": "nonpayable",
      "type": "function"
    },
    {
      "inputs": [
        {
          "internalType": "uint256",
          "name": "_amount",
          "type": "uint256"
        }
      ],
      "name": "unstakeEsGmx",
      "outputs": [],
      "stateMutability": "nonpayable",
      "type": "function"
    },
    {
      "inputs": [
        {
          "internalType": "uint256",
          "name": "_amount",
          "type": "uint256"
        }
      ],
      "name": "unstakeGmx",
      "outputs": [],
      "stateMutability": "nonpayable",
      "type": "function"
    },
    {
      "inputs": [],
      "name": "weth",
      "outputs": [
        {
          "internalType": "address",
          "name": "",
          "type": "address"
        }
      ],
      "stateMutability": "view",
      "type": "function"
    },
    {
      "inputs": [
        {
          "internalType": "address",
          "name": "_token",
          "type": "address"
        },
        {
          "internalType": "address",
          "name": "_account",
          "type": "address"
        },
        {
          "internalType": "uint256",
          "name": "_amount",
          "type": "uint256"
        }
      ],
      "name": "withdrawToken",
      "outputs": [],
      "stateMutability": "nonpayable",
      "type": "function"
    },
    {
      "stateMutability": "payable",
      "type": "receive"
    }
  ],
  "bytecode": "0x608060405234801561001057600080fd5b506001600081905580546001600160a01b0319163317905561304c806100376000396000f3fe6080604052600436106101775760003560e01c806301e33667146101db578063078580d21461021e5780630ce4018a146102485780630db79e52146102795780630f3aa554146103a957806312d43a51146104025780631af276a6146104175780631fcd60e5146104c55780632a9f4083146104da57806331e67c711461050d578063364e231114610522578063392e53cd146105675780633fc8cef3146105905780634e71d92d146105a557806351c3e3b4146105ba57806353a8aa03146105cf5780635da4b8dd146105f25780635fe3945f1461062b57806364f64467146106405780636a192a781461066a57806376902b831461067f57806378a207ee14610708578063abb5e5e21461071d578063af394d001461075c578063cfad57a214610771578063d294f093146107a4578063e102f564146107b9578063e1c363b7146107ce578063ef8c5994146107e3578063f3daeacc1461080d578063f69e204614610837578063fa6db1bc1461084c576101d6565b366101d6576002546001600160a01b031633146101d4576040805162461bcd60e51b81526020600482015260166024820152752937baba32b91d1034b73b30b634b21039b2b73232b960511b604482015290519081900360640190fd5b005b600080fd5b3480156101e757600080fd5b506101d4600480360360608110156101fe57600080fd5b506001600160a01b03813581169160208101359091169060400135610861565b34801561022a57600080fd5b506101d46004803603602081101561024157600080fd5b50356108c7565b34801561025457600080fd5b5061025d610932565b604080516001600160a01b039092168252519081900360200190f35b34801561028557600080fd5b506101d46004803603604081101561029c57600080fd5b810190602081018135600160201b8111156102b657600080fd5b8201836020820111156102c857600080fd5b803590602001918460208302840111600160201b831117156102e957600080fd5b9190808060200260200160405190810160405280939291908181526020018383602002808284376000920191909152509295949360208101935035915050600160201b81111561033857600080fd5b82018360208201111561034a57600080fd5b803590602001918460208302840111600160201b8311171561036b57600080fd5b919080806020026020016040519081016040528093929190818152602001838360200280828437600092019190915250929550610941945050505050565b3480156103b557600080fd5b506103f0600480360360808110156103cc57600080fd5b506001600160a01b0381358116916020810135916040820135916060013516610a36565b60408051918252519081900360200190f35b34801561040e57600080fd5b5061025d610ca6565b34801561042357600080fd5b506101d46004803603602081101561043a57600080fd5b810190602081018135600160201b81111561045457600080fd5b82018360208201111561046657600080fd5b803590602001918460208302840111600160201b8311171561048757600080fd5b919080806020026020016040519081016040528093929190818152602001838360200280828437600092019190915250929550610cb5945050505050565b3480156104d157600080fd5b5061025d610d86565b3480156104e657600080fd5b506101d4600480360360208110156104fd57600080fd5b50356001600160a01b0316610d95565b34801561051957600080fd5b5061025d610e36565b34801561052e57600080fd5b506103f06004803603608081101561054557600080fd5b506001600160a01b038135169060208101359060408101359060600135610e45565b34801561057357600080fd5b5061057c6110b3565b604080519115158252519081900360200190f35b34801561059c57600080fd5b5061025d6110c3565b3480156105b157600080fd5b506101d46110d2565b3480156105c657600080fd5b5061025d611331565b6103f0600480360360408110156105e557600080fd5b5080359060200135611340565b3480156105fe57600080fd5b506101d46004803603604081101561061557600080fd5b506001600160a01b0381351690602001356116ab565b34801561063757600080fd5b506101d461175d565b34801561064c57600080fd5b506101d46004803603602081101561066357600080fd5b5035611802565b34801561067657600080fd5b5061025d611865565b34801561068b57600080fd5b506101d460048036036101608110156106a357600080fd5b506001600160a01b038135811691602081013582169160408201358116916060810135821691608082013581169160a081013582169160c082013581169160e08101358216916101008201358116916101208101358216916101409091013516611874565b34801561071457600080fd5b5061025d6119db565b34801561072957600080fd5b506103f06004803603606081101561074057600080fd5b50803590602081013590604001356001600160a01b03166119ea565b34801561076857600080fd5b5061025d611cd3565b34801561077d57600080fd5b506101d46004803603602081101561079457600080fd5b50356001600160a01b0316611ce2565b3480156107b057600080fd5b506101d4611d51565b3480156107c557600080fd5b5061025d611e78565b3480156107da57600080fd5b5061025d611e87565b3480156107ef57600080fd5b506101d46004803603602081101561080657600080fd5b5035611e96565b34801561081957600080fd5b506101d46004803603602081101561083057600080fd5b5035611efb565b34801561084357600080fd5b506101d4611f60565b34801561085857600080fd5b5061025d611fbb565b6001546001600160a01b031633146108ae576040805162461bcd60e51b81526020600482015260156024820152600080516020612eab833981519152604482015290519081900360640190fd5b6108c26001600160a01b0384168383611fca565b505050565b6002600054141561090d576040805162461bcd60e51b815260206004820152601f6024820152600080516020612e8b833981519152604482015290519081900360640190fd5b600260005560035461092a9033906001600160a01b03168361201c565b506001600055565b6007546001600160a01b031681565b60026000541415610987576040805162461bcd60e51b815260206004820152601f6024820152600080516020612e8b833981519152604482015290519081900360640190fd5b60026000556001546001600160a01b031633146109d9576040805162461bcd60e51b81526020600482015260156024820152600080516020612eab833981519152604482015290519081900360640190fd5b6003546001600160a01b031660005b8351811015610a2b57610a2333858381518110610a0157fe5b602002602001015184868581518110610a1657fe5b6020026020010151612550565b6001016109e8565b505060016000555050565b600060026000541415610a7e576040805162461bcd60e51b815260206004820152601f6024820152600080516020612e8b833981519152604482015290519081900360640190fd5b600260005583610ac3576040805162461bcd60e51b81526020600482018190526024820152600080516020612fd7833981519152604482015290519081900360640190fd5b600a54600b546040805163098bf59d60e01b815233600482018190526001600160a01b039384166024830152604482018990526064820181905291519193929092169163098bf59d91608480830192600092919082900301818387803b158015610b2c57600080fd5b505af1158015610b40573d6000803e3d6000fd5b5050600b546006546040805163098bf59d60e01b81526001600160a01b03878116600483018190529381166024830152604482018c90526064820193909352905191909216935063098bf59d9250608480830192600092919082900301818387803b158015610bae57600080fd5b505af1158015610bc2573d6000803e3d6000fd5b5050600c54604080516371d597ad60e01b81526001600160a01b0386811660048301528b81166024830152604482018b9052606482018a905288811660848301529151600095509190921692506371d597ad9160a48082019260209290919082900301818787803b158015610c3657600080fd5b505af1158015610c4a573d6000803e3d6000fd5b505050506040513d6020811015610c6057600080fd5b5051604080516001600160a01b0385168152602081018990528151929350600080516020612f8d833981519152929081900390910190a160016000559695505050505050565b6001546001600160a01b031681565b60026000541415610cfb576040805162461bcd60e51b815260206004820152601f6024820152600080516020612e8b833981519152604482015290519081900360640190fd5b60026000556001546001600160a01b03163314610d4d576040805162461bcd60e51b81526020600482015260156024820152600080516020612eab833981519152604482015290519081900360640190fd5b60005b8151811015610d7d57610d75828281518110610d6857fe5b6020026020010151612758565b600101610d50565b50506001600055565b6008546001600160a01b031681565b60026000541415610ddb576040805162461bcd60e51b815260206004820152601f6024820152600080516020612e8b833981519152604482015290519081900360640190fd5b60026000556001546001600160a01b03163314610e2d576040805162461bcd60e51b81526020600482015260156024820152600080516020612eab833981519152604482015290519081900360640190fd5b61092a81612758565b6003546001600160a01b031681565b600060026000541415610e8d576040805162461bcd60e51b815260206004820152601f6024820152600080516020612e8b833981519152604482015290519081900360640190fd5b600260005583610ed2576040805162461bcd60e51b815260206004820152601d6024820152600080516020612ff7833981519152604482015290519081900360640190fd5b600c54604080516317eb2a1560e01b81523360048201819052602482018190526001600160a01b038981166044840152606483018990526084830188905260a483018790529251909360009316916317eb2a159160c480830192602092919082900301818787803b158015610f4657600080fd5b505af1158015610f5a573d6000803e3d6000fd5b505050506040513d6020811015610f7057600080fd5b5051600b5460065460408051631e42d69b60e21b81526001600160a01b03878116600483018190526024830152928316604482015260648101859052905193945091169163790b5a6c9160848082019260009290919082900301818387803b158015610fdb57600080fd5b505af1158015610fef573d6000803e3d6000fd5b5050600a54600b5460408051631e42d69b60e21b81526001600160a01b03888116600483018190526024830152928316604482015260648101879052905191909216935063790b5a6c9250608480830192600092919082900301818387803b15801561105a57600080fd5b505af115801561106e573d6000803e3d6000fd5b5050604080516001600160a01b0386168152602081018590528151600080516020612f6d8339815191529450908190039091019150a160016000559695505050505050565b600154600160a01b900460ff1681565b6002546001600160a01b031681565b60026000541415611118576040805162461bcd60e51b815260206004820152601f6024820152600080516020612e8b833981519152604482015290519081900360640190fd5b60026000908155600954604080516309f4173d60e11b8152336004820181905260248201819052915191936001600160a01b03909316926313e82e7a926044808401936020939083900390910190829087803b15801561117757600080fd5b505af115801561118b573d6000803e3d6000fd5b505050506040513d60208110156111a157600080fd5b5050600b54604080516309f4173d60e11b81526001600160a01b03848116600483018190526024830152915191909216916313e82e7a9160448083019260209291908290030181600087803b1580156111f957600080fd5b505af115801561120d573d6000803e3d6000fd5b505050506040513d602081101561122357600080fd5b5050600754604080516309f4173d60e11b81526001600160a01b03848116600483018190526024830152915191909216916313e82e7a9160448083019260209291908290030181600087803b15801561127b57600080fd5b505af115801561128f573d6000803e3d6000fd5b505050506040513d60208110156112a557600080fd5b5050600a54604080516309f4173d60e11b81526001600160a01b03848116600483018190526024830152915191909216916313e82e7a9160448083019260209291908290030181600087803b1580156112fd57600080fd5b505af1158015611311573d6000803e3d6000fd5b505050506040513d602081101561132757600080fd5b5050600160005550565b6009546001600160a01b031681565b600060026000541415611388576040805162461bcd60e51b815260206004820152601f6024820152600080516020612e8b833981519152604482015290519081900360640190fd5b6002600055346113df576040805162461bcd60e51b815260206004820152601f60248201527f526577617264526f757465723a20696e76616c6964206d73672e76616c756500604482015290519081900360640190fd5b600260009054906101000a90046001600160a01b03166001600160a01b031663d0e30db0346040518263ffffffff1660e01b81526004016000604051808303818588803b15801561142f57600080fd5b505af1158015611443573d6000803e3d6000fd5b5050600254600c546040805163095ea7b360e01b81526001600160a01b039283166004820152346024820152905191909216945063095ea7b39350604480830193506020928290030181600087803b15801561149e57600080fd5b505af11580156114b2573d6000803e3d6000fd5b505050506040513d60208110156114c857600080fd5b5050600c54600254604080516317eb2a1560e01b815230600482015233602482018190526001600160a01b0393841660448301523460648301526084820188905260a482018790529151919360009316916317eb2a159160c48082019260209290919082900301818787803b15801561154057600080fd5b505af1158015611554573d6000803e3d6000fd5b505050506040513d602081101561156a57600080fd5b5051600b5460065460408051631e42d69b60e21b81526001600160a01b03878116600483018190526024830152928316604482015260648101859052905193945091169163790b5a6c9160848082019260009290919082900301818387803b1580156115d557600080fd5b505af11580156115e9573d6000803e3d6000fd5b5050600a54600b5460408051631e42d69b60e21b81526001600160a01b03888116600483018190526024830152928316604482015260648101879052905191909216935063790b5a6c9250608480830192600092919082900301818387803b15801561165457600080fd5b505af1158015611668573d6000803e3d6000fd5b5050604080516001600160a01b0386168152602081018590528151600080516020612f6d8339815191529450908190039091019150a16001600055949350505050565b600260005414156116f1576040805162461bcd60e51b815260206004820152601f6024820152600080516020612e8b833981519152604482015290519081900360640190fd5b60026000556001546001600160a01b03163314611743576040805162461bcd60e51b81526020600482015260156024820152600080516020612eab833981519152604482015290519081900360640190fd5b600354610d7d90339084906001600160a01b031684612550565b600260005414156117a3576040805162461bcd60e51b815260206004820152601f6024820152600080516020612e8b833981519152604482015290519081900360640190fd5b60026000908155600754604080516309f4173d60e11b8152336004820181905260248201819052915191936001600160a01b03909316926313e82e7a926044808401936020939083900390910190829087803b15801561127b57600080fd5b60026000541415611848576040805162461bcd60e51b815260206004820152601f6024820152600080516020612e8b833981519152604482015290519081900360640190fd5b600260005560045461092a9033906001600160a01b03168361201c565b6004546001600160a01b031681565b6001546001600160a01b031633146118c1576040805162461bcd60e51b81526020600482015260156024820152600080516020612eab833981519152604482015290519081900360640190fd5b600154600160a01b900460ff161561190a5760405162461bcd60e51b8152600401808060200182810382526021815260200180612f056021913960400191505060405180910390fd5b60018054600160a01b60ff60a01b19909116179055600280546001600160a01b03199081166001600160a01b039d8e16179091556003805482169b8d169b909b17909a55600480548b16998c1699909917909855600580548a16978b1697909717909655600680548916958a169590951790945560078054881693891693909317909255600880548716918816919091179055600980548616918716919091179055600b80548516918616919091179055600a80548416918516919091179055600c80549092169216919091179055565b6006546001600160a01b031681565b600060026000541415611a32576040805162461bcd60e51b815260206004820152601f6024820152600080516020612e8b833981519152604482015290519081900360640190fd5b600260005583611a77576040805162461bcd60e51b81526020600482018190526024820152600080516020612fd7833981519152604482015290519081900360640190fd5b600a54600b546040805163098bf59d60e01b815233600482018190526001600160a01b039384166024830152604482018990526064820181905291519193929092169163098bf59d91608480830192600092919082900301818387803b158015611ae057600080fd5b505af1158015611af4573d6000803e3d6000fd5b5050600b546006546040805163098bf59d60e01b81526001600160a01b03878116600483018190529381166024830152604482018c90526064820193909352905191909216935063098bf59d9250608480830192600092919082900301818387803b158015611b6257600080fd5b505af1158015611b76573d6000803e3d6000fd5b5050600c54600254604080516371d597ad60e01b81526001600160a01b0387811660048301529283166024820152604481018b9052606481018a90523060848201529051600095509190921692506371d597ad9160a48082019260209290919082900301818787803b158015611beb57600080fd5b505af1158015611bff573d6000803e3d6000fd5b505050506040513d6020811015611c1557600080fd5b505160025460408051632e1a7d4d60e01b81526004810184905290519293506001600160a01b0390911691632e1a7d4d9160248082019260009290919082900301818387803b158015611c6757600080fd5b505af1158015611c7b573d6000803e3d6000fd5b50611c93925050506001600160a01b0385168261276d565b604080516001600160a01b0384168152602081018890528151600080516020612f8d833981519152929181900390910190a1600160005595945050505050565b600a546001600160a01b031681565b6001546001600160a01b03163314611d2f576040805162461bcd60e51b81526020600482015260156024820152600080516020612eab833981519152604482015290519081900360640190fd5b600180546001600160a01b0319166001600160a01b0392909216919091179055565b60026000541415611d97576040805162461bcd60e51b815260206004820152601f6024820152600080516020612e8b833981519152604482015290519081900360640190fd5b60026000908155600954604080516309f4173d60e11b8152336004820181905260248201819052915191936001600160a01b03909316926313e82e7a926044808401936020939083900390910190829087803b158015611df657600080fd5b505af1158015611e0a573d6000803e3d6000fd5b505050506040513d6020811015611e2057600080fd5b5050600b54604080516309f4173d60e11b81526001600160a01b03848116600483018190526024830152915191909216916313e82e7a9160448083019260209291908290030181600087803b1580156112fd57600080fd5b6005546001600160a01b031681565b600b546001600160a01b031681565b60026000541415611edc576040805162461bcd60e51b815260206004820152601f6024820152600080516020612e8b833981519152604482015290519081900360640190fd5b600260005560045461092a90339081906001600160a01b031684612550565b60026000541415611f41576040805162461bcd60e51b815260206004820152601f6024820152600080516020612e8b833981519152604482015290519081900360640190fd5b600260005560035461092a90339081906001600160a01b031684612550565b60026000541415611fa6576040805162461bcd60e51b815260206004820152601f6024820152600080516020612e8b833981519152604482015290519081900360640190fd5b6002600055611fb433612758565b6001600055565b600c546001600160a01b031681565b604080516001600160a01b038416602482015260448082018490528251808303909101815260649091019091526020810180516001600160e01b031663a9059cbb60e01b1790526108c2908490612852565b6000811161205f576040805162461bcd60e51b815260206004820152601d6024820152600080516020612ff7833981519152604482015290519081900360640190fd5b600754604080516310c1c10360e01b81526001600160a01b038681166004830152915160009392909216916310c1c10391602480820192602092909190829003018186803b1580156120b057600080fd5b505afa1580156120c4573d6000803e3d6000fd5b505050506040513d60208110156120da57600080fd5b50516009546008546040805163098bf59d60e01b81526001600160a01b03898116600483018190529381166024830152604482018890526064820193909352905193945091169163098bf59d9160848082019260009290919082900301818387803b15801561214857600080fd5b505af115801561215c573d6000803e3d6000fd5b50506008546007546040805163098bf59d60e01b81526001600160a01b038a8116600483018190529381166024830152604482018990526064820193909352905191909216935063098bf59d9250608480830192600092919082900301818387803b1580156121ca57600080fd5b505af11580156121de573d6000803e3d6000fd5b50506007546040805163098bf59d60e01b81526001600160a01b03898116600483018190528982166024840152604483018990526064830152915191909216935063098bf59d9250608480830192600092919082900301818387803b15801561224657600080fd5b505af115801561225a573d6000803e3d6000fd5b5050600854604080516309f4173d60e11b81526001600160a01b038981166004830181905260248301529151600095509190921692506313e82e7a9160448082019260209290919082900301818787803b1580156122b757600080fd5b505af11580156122cb573d6000803e3d6000fd5b505050506040513d60208110156122e157600080fd5b50519050801561236b5760095460055460408051631e42d69b60e21b81526001600160a01b038981166004830181905260248301529283166044820152606481018590529051919092169163790b5a6c91608480830192600092919082900301818387803b15801561235257600080fd5b505af1158015612366573d6000803e3d6000fd5b505050505b60095460055460408051637aeceb1f60e11b81526001600160a01b03898116600483015292831660248201529051600093929092169163f5d9d63e91604480820192602092909190829003018186803b1580156123c757600080fd5b505afa1580156123db573d6000803e3d6000fd5b505050506040513d60208110156123f157600080fd5b5051905080156125045760006124118461240b8488612903565b90612965565b6009546005546040805163098bf59d60e01b81526001600160a01b038c8116600483018190529381166024830152604482018690526064820193909352905193945091169163098bf59d9160848082019260009290919082900301818387803b15801561247d57600080fd5b505af1158015612491573d6000803e3d6000fd5b505060055460408051632770a7eb60e21b81526001600160a01b038c81166004830152602482018790529151919092169350639dc29fac9250604480830192600092919082900301818387803b1580156124ea57600080fd5b505af11580156124fe573d6000803e3d6000fd5b50505050505b604080516001600160a01b03881681526020810186905281517fe9da6f830e88eb523af6d57c34cc795daaafe1ab891b6ec4f276a550532124a5929181900390910190a1505050505050565b60008111612593576040805162461bcd60e51b815260206004820152601d6024820152600080516020612ff7833981519152604482015290519081900360640190fd5b60075460408051631e42d69b60e21b81526001600160a01b03878116600483015286811660248301528581166044830152606482018590529151919092169163790b5a6c91608480830192600092919082900301818387803b1580156125f857600080fd5b505af115801561260c573d6000803e3d6000fd5b505060085460075460408051631e42d69b60e21b81526001600160a01b03898116600483018190526024830152928316604482015260648101879052905191909216935063790b5a6c9250608480830192600092919082900301818387803b15801561267757600080fd5b505af115801561268b573d6000803e3d6000fd5b505060095460085460408051631e42d69b60e21b81526001600160a01b03898116600483018190526024830152928316604482015260648101879052905191909216935063790b5a6c9250608480830192600092919082900301818387803b1580156126f657600080fd5b505af115801561270a573d6000803e3d6000fd5b5050604080516001600160a01b03871681526020810185905281517f277a108bb56dcaa99fe060708d8fdf34a9ad95c3f857452c0a2621154ec90b789450908190039091019150a150505050565b612761816129a4565b61276a81612b5c565b50565b804710156127c2576040805162461bcd60e51b815260206004820152601d60248201527f416464726573733a20696e73756666696369656e742062616c616e6365000000604482015290519081900360640190fd5b6040516000906001600160a01b0384169083908381818185875af1925050503d806000811461280d576040519150601f19603f3d011682016040523d82523d6000602084013e612812565b606091505b50509050806108c25760405162461bcd60e51b815260040180806020018281038252603a815260200180612ecb603a913960400191505060405180910390fd5b60606128a7826040518060400160405280602081526020017f5361666545524332303a206c6f772d6c6576656c2063616c6c206661696c6564815250856001600160a01b0316612c079092919063ffffffff16565b8051909150156108c2578080602001905160208110156128c657600080fd5b50516108c25760405162461bcd60e51b815260040180806020018281038252602a815260200180612fad602a913960400191505060405180910390fd5b6000826129125750600061295f565b8282028284828161291f57fe5b041461295c5760405162461bcd60e51b8152600401808060200182810382526021815260200180612f4c6021913960400191505060405180910390fd5b90505b92915050565b600061295c83836040518060400160405280601a815260200179536166654d6174683a206469766973696f6e206279207a65726f60301b815250612c20565b600754604080516309f4173d60e11b81526001600160a01b03848116600483018190526024830152915160009392909216916313e82e7a9160448082019260209290919082900301818787803b1580156129fd57600080fd5b505af1158015612a11573d6000803e3d6000fd5b505050506040513d6020811015612a2757600080fd5b505190508015612a4b57600454612a4b90839081906001600160a01b031684612550565b600854604080516309f4173d60e11b81526001600160a01b03858116600483018190526024830152915160009392909216916313e82e7a9160448082019260209290919082900301818787803b158015612aa457600080fd5b505af1158015612ab8573d6000803e3d6000fd5b505050506040513d6020811015612ace57600080fd5b5051905080156108c25760095460055460408051631e42d69b60e21b81526001600160a01b038781166004830181905260248301529283166044820152606481018590529051919092169163790b5a6c91608480830192600092919082900301818387803b158015612b3f57600080fd5b505af1158015612b53573d6000803e3d6000fd5b50505050505050565b600a54604080516309f4173d60e11b81526001600160a01b03848116600483018190526024830152915160009392909216916313e82e7a9160448082019260209290919082900301818787803b158015612bb557600080fd5b505af1158015612bc9573d6000803e3d6000fd5b505050506040513d6020811015612bdf57600080fd5b505190508015612c0357600454612c0390839081906001600160a01b031684612550565b5050565b6060612c168484600085612cc2565b90505b9392505050565b60008183612cac5760405162461bcd60e51b81526004018080602001828103825283818151815260200191508051906020019080838360005b83811015612c71578181015183820152602001612c59565b50505050905090810190601f168015612c9e5780820380516001836020036101000a031916815260200191505b509250505060405180910390fd5b506000838581612cb857fe5b0495945050505050565b606082471015612d035760405162461bcd60e51b8152600401808060200182810382526026815260200180612f266026913960400191505060405180910390fd5b612d0c85612e1e565b612d5d576040805162461bcd60e51b815260206004820152601d60248201527f416464726573733a2063616c6c20746f206e6f6e2d636f6e7472616374000000604482015290519081900360640190fd5b60006060866001600160a01b031685876040518082805190602001908083835b60208310612d9c5780518252601f199092019160209182019101612d7d565b6001836020036101000a03801982511681845116808217855250505050505090500191505060006040518083038185875af1925050503d8060008114612dfe576040519150601f19603f3d011682016040523d82523d6000602084013e612e03565b606091505b5091509150612e13828286612e24565b979650505050505050565b3b151590565b60608315612e33575081612c19565b825115612e435782518084602001fd5b60405162461bcd60e51b8152602060048201818152845160248401528451859391928392604401919085019080838360008315612c71578181015183820152602001612c5956fe5265656e7472616e637947756172643a207265656e7472616e742063616c6c00476f7665726e61626c653a20666f7262696464656e0000000000000000000000416464726573733a20756e61626c6520746f2073656e642076616c75652c20726563697069656e74206d61792068617665207265766572746564526577617264526f757465723a20616c726561647920696e697469616c697a6564416464726573733a20696e73756666696369656e742062616c616e636520666f722063616c6c536166654d6174683a206d756c7469706c69636174696f6e206f766572666c6f77a4725d47fa458d9222498e4d63f34527cf7318c1506f89d9092b35fdbcb64f3a1cb6202519b6b6c72ba5ed11e2c3f53af3cea010f96bfc705584e53e75cf034c5361666545524332303a204552433230206f7065726174696f6e20646964206e6f742073756363656564526577617264526f757465723a20696e76616c6964205f676c70416d6f756e74526577617264526f757465723a20696e76616c6964205f616d6f756e74000000a264697066735822122042bf299e1a444b564c14d9e0ed393d463ef4b8631aee6be1a562b1ceb98be22064736f6c634300060c0033",
  "linkReferences": {},
  "deployedLinkReferences": {}
}