{
  "_format": "hh-sol-artifact-1",
  "contractName": "RewardReader",
  "sourceName": "contracts/peripherals/RewardReader.sol",
  "abi": [
    {
      "inputs": [
        {
          "internalType": "address",
          "name": "_account",
          "type": "address"
        },
        {
          "internalType": "address[]",
          "name": "_depositTokens",
          "type": "address[]"
        },
        {
          "internalType": "address[]",
          "name": "_rewardTrackers",
          "type": "address[]"
        }
      ],
      "name": "getDepositBalances",
      "outputs": [
        {
          "internalType": "uint256[]",
          "name": "",
          "type": "uint256[]"
        }
      ],
      "stateMutability": "view",
      "type": "function"
    },
    {
      "inputs": [
        {
          "internalType": "address",
          "name": "_account",
          "type": "address"
        },
        {
          "internalType": "address[]",
          "name": "_rewardTrackers",
          "type": "address[]"
        }
      ],
      "name": "getStakingInfo",
      "outputs": [
        {
          "internalType": "uint256[]",
          "name": "",
          "type": "uint256[]"
        }
      ],
      "stateMutability": "view",
      "type": "function"
    }
  ],
  "bytecode": "0x608060405234801561001057600080fd5b5061069d806100206000396000f3fe608060405234801561001057600080fd5b50600436106100365760003560e01c8063575157e41461003b578063937a0be8146101be575b600080fd5b61016e6004803603606081101561005157600080fd5b6001600160a01b038235169190810190604081016020820135600160201b81111561007b57600080fd5b82018360208201111561008d57600080fd5b803590602001918460208302840111600160201b831117156100ae57600080fd5b9190808060200260200160405190810160405280939291908181526020018383602002808284376000920191909152509295949360208101935035915050600160201b8111156100fd57600080fd5b82018360208201111561010f57600080fd5b803590602001918460208302840111600160201b8311171561013057600080fd5b91908080602002602001604051908101604052809392919081815260200183836020028082843760009201919091525092955061026f945050505050565b60408051602080825283518183015283519192839290830191858101910280838360005b838110156101aa578181015183820152602001610192565b505050509050019250505060405180910390f35b61016e600480360360408110156101d457600080fd5b6001600160a01b038235169190810190604081016020820135600160201b8111156101fe57600080fd5b82018360208201111561021057600080fd5b803590602001918460208302840111600160201b8311171561023157600080fd5b9190808060200260200160405190810160405280939291908181526020018383602002808284376000920191909152509295506103a2945050505050565b60608082516001600160401b038111801561028957600080fd5b506040519080825280602002602001820160405280156102b3578160200160208202803683370190505b50905060005b83518110156103995760008482815181106102d057fe5b60200260200101519050806001600160a01b031663f5d9d63e888885815181106102f657fe5b60200260200101516040518363ffffffff1660e01b815260040180836001600160a01b03168152602001826001600160a01b031681526020019250505060206040518083038186803b15801561034b57600080fd5b505afa15801561035f573d6000803e3d6000fd5b505050506040513d602081101561037557600080fd5b5051835184908490811061038557fe5b6020908102919091010152506001016102b9565b50949350505050565b60606000600490506060818451026001600160401b03811180156103c557600080fd5b506040519080825280602002602001820160405280156103ef578160200160208202803683370190505b50905060005b845181101561039957600085828151811061040c57fe5b60200260200101519050806001600160a01b031663402914f5886040518263ffffffff1660e01b815260040180826001600160a01b0316815260200191505060206040518083038186803b15801561046357600080fd5b505afa158015610477573d6000803e3d6000fd5b505050506040513d602081101561048d57600080fd5b50518351849084870290811061049f57fe5b602002602001018181525050806001600160a01b031663a8d936276040518163ffffffff1660e01b815260040160206040518083038186803b1580156104e457600080fd5b505afa1580156104f8573d6000803e3d6000fd5b505050506040513d602081101561050e57600080fd5b50518351849060018588020190811061052357fe5b602002602001018181525050806001600160a01b031663a3180217886040518263ffffffff1660e01b815260040180826001600160a01b0316815260200191505060206040518083038186803b15801561057c57600080fd5b505afa158015610590573d6000803e3d6000fd5b505050506040513d60208110156105a657600080fd5b5051835184906002858802019081106105bb57fe5b602002602001018181525050806001600160a01b0316633792def3886040518263ffffffff1660e01b815260040180826001600160a01b0316815260200191505060206040518083038186803b15801561061457600080fd5b505afa158015610628573d6000803e3d6000fd5b505050506040513d602081101561063e57600080fd5b50518351849060038588020190811061065357fe5b6020908102919091010152506001016103f556fea2646970667358221220dfd05d8c27977a9fcdfd879a8bec3305ce4cf129cf47628009d02b949be5d15b64736f6c634300060c0033",
  "linkReferences": {},
  "deployedLinkReferences": {}
}