{
  "address": "0xe5485a4fD6527911e9b82A75A1bFEd6e47BE2241",
  "abi": [
    {
      "inputs": [
        {
          "internalType": "contract Router",
          "name": "_router",
          "type": "address"
        },
        {
          "internalType": "contract RoleStore",
          "name": "_roleStore",
          "type": "address"
        },
        {
          "internalType": "contract DataStore",
          "name": "_dataStore",
          "type": "address"
        },
        {
          "internalType": "contract EventEmitter",
          "name": "_eventEmitter",
          "type": "address"
        },
        {
          "internalType": "contract IOrderHandler",
          "name": "_orderHandler",
          "type": "address"
        },
        {
          "internalType": "contract OrderVault",
          "name": "_orderVault",
          "type": "address"
        }
      ],
      "stateMutability": "nonpayable",
      "type": "constructor"
    },
    {
      "inputs": [
        {
          "internalType": "bytes32",
          "name": "key",
          "type": "bytes32"
        }
      ],
      "name": "DisabledFeature",
      "type": "error"
    },
    {
      "inputs": [],
      "name": "EmptyHoldingAddress",
      "type": "error"
    },
    {
      "inputs": [],
      "name": "EmptyOrder",
      "type": "error"
    },
    {
      "inputs": [],
      "name": "EmptyReceiver",
      "type": "error"
    },
    {
      "inputs": [
        {
          "internalType": "address",
          "name": "token",
          "type": "address"
        }
      ],
      "name": "EmptyTokenTranferGasLimit",
      "type": "error"
    },
    {
      "inputs": [
        {
          "internalType": "address",
          "name": "msgSender",
          "type": "address"
        }
      ],
      "name": "InvalidNativeTokenSender",
      "type": "error"
    },
    {
      "inputs": [
        {
          "internalType": "address",
          "name": "receiver",
          "type": "address"
        },
        {
          "internalType": "address",
          "name": "expectedReceiver",
          "type": "address"
        }
      ],
      "name": "InvalidReceiverForSubaccountOrder",
      "type": "error"
    },
    {
      "inputs": [
        {
          "internalType": "address",
          "name": "account",
          "type": "address"
        },
        {
          "internalType": "address",
          "name": "subaccount",
          "type": "address"
        },
        {
          "internalType": "uint256",
          "name": "count",
          "type": "uint256"
        },
        {
          "internalType": "uint256",
          "name": "maxCount",
          "type": "uint256"
        }
      ],
      "name": "MaxSubaccountActionCountExceeded",
      "type": "error"
    },
    {
      "inputs": [
        {
          "internalType": "address",
          "name": "account",
          "type": "address"
        },
        {
          "internalType": "address",
          "name": "subaccount",
          "type": "address"
        }
      ],
      "name": "SubaccountNotAuthorized",
      "type": "error"
    },
    {
      "inputs": [
        {
          "internalType": "address",
          "name": "token",
          "type": "address"
        },
        {
          "internalType": "address",
          "name": "receiver",
          "type": "address"
        },
        {
          "internalType": "uint256",
          "name": "amount",
          "type": "uint256"
        }
      ],
      "name": "TokenTransferError",
      "type": "error"
    },
    {
      "inputs": [
        {
          "internalType": "address",
          "name": "subaccount",
          "type": "address"
        }
      ],
      "name": "addSubaccount",
      "outputs": [],
      "stateMutability": "payable",
      "type": "function"
    },
    {
      "inputs": [
        {
          "internalType": "bytes32",
          "name": "key",
          "type": "bytes32"
        }
      ],
      "name": "cancelOrder",
      "outputs": [],
      "stateMutability": "payable",
      "type": "function"
    },
    {
      "inputs": [
        {
          "internalType": "address",
          "name": "account",
          "type": "address"
        },
        {
          "components": [
            {
              "components": [
                {
                  "internalType": "address",
                  "name": "receiver",
                  "type": "address"
                },
                {
                  "internalType": "address",
                  "name": "cancellationReceiver",
                  "type": "address"
                },
                {
                  "internalType": "address",
                  "name": "callbackContract",
                  "type": "address"
                },
                {
                  "internalType": "address",
                  "name": "uiFeeReceiver",
                  "type": "address"
                },
                {
                  "internalType": "address",
                  "name": "market",
                  "type": "address"
                },
                {
                  "internalType": "address",
                  "name": "initialCollateralToken",
                  "type": "address"
                },
                {
                  "internalType": "address[]",
                  "name": "swapPath",
                  "type": "address[]"
                }
              ],
              "internalType": "struct IBaseOrderUtils.CreateOrderParamsAddresses",
              "name": "addresses",
              "type": "tuple"
            },
            {
              "components": [
                {
                  "internalType": "uint256",
                  "name": "sizeDeltaUsd",
                  "type": "uint256"
                },
                {
                  "internalType": "uint256",
                  "name": "initialCollateralDeltaAmount",
                  "type": "uint256"
                },
                {
                  "internalType": "uint256",
                  "name": "triggerPrice",
                  "type": "uint256"
                },
                {
                  "internalType": "uint256",
                  "name": "acceptablePrice",
                  "type": "uint256"
                },
                {
                  "internalType": "uint256",
                  "name": "executionFee",
                  "type": "uint256"
                },
                {
                  "internalType": "uint256",
                  "name": "callbackGasLimit",
                  "type": "uint256"
                },
                {
                  "internalType": "uint256",
                  "name": "minOutputAmount",
                  "type": "uint256"
                }
              ],
              "internalType": "struct IBaseOrderUtils.CreateOrderParamsNumbers",
              "name": "numbers",
              "type": "tuple"
            },
            {
              "internalType": "enum Order.OrderType",
              "name": "orderType",
              "type": "uint8"
            },
            {
              "internalType": "enum Order.DecreasePositionSwapType",
              "name": "decreasePositionSwapType",
              "type": "uint8"
            },
            {
              "internalType": "bool",
              "name": "isLong",
              "type": "bool"
            },
            {
              "internalType": "bool",
              "name": "shouldUnwrapNativeToken",
              "type": "bool"
            },
            {
              "internalType": "bool",
              "name": "autoCancel",
              "type": "bool"
            },
            {
              "internalType": "bytes32",
              "name": "referralCode",
              "type": "bytes32"
            }
          ],
          "internalType": "struct IBaseOrderUtils.CreateOrderParams",
          "name": "params",
          "type": "tuple"
        }
      ],
      "name": "createOrder",
      "outputs": [
        {
          "internalType": "bytes32",
          "name": "",
          "type": "bytes32"
        }
      ],
      "stateMutability": "payable",
      "type": "function"
    },
    {
      "inputs": [],
      "name": "dataStore",
      "outputs": [
        {
          "internalType": "contract DataStore",
          "name": "",
          "type": "address"
        }
      ],
      "stateMutability": "view",
      "type": "function"
    },
    {
      "inputs": [],
      "name": "eventEmitter",
      "outputs": [
        {
          "internalType": "contract EventEmitter",
          "name": "",
          "type": "address"
        }
      ],
      "stateMutability": "view",
      "type": "function"
    },
    {
      "inputs": [
        {
          "internalType": "bytes[]",
          "name": "data",
          "type": "bytes[]"
        }
      ],
      "name": "multicall",
      "outputs": [
        {
          "internalType": "bytes[]",
          "name": "results",
          "type": "bytes[]"
        }
      ],
      "stateMutability": "payable",
      "type": "function"
    },
    {
      "inputs": [],
      "name": "orderHandler",
      "outputs": [
        {
          "internalType": "contract IOrderHandler",
          "name": "",
          "type": "address"
        }
      ],
      "stateMutability": "view",
      "type": "function"
    },
    {
      "inputs": [],
      "name": "orderVault",
      "outputs": [
        {
          "internalType": "contract OrderVault",
          "name": "",
          "type": "address"
        }
      ],
      "stateMutability": "view",
      "type": "function"
    },
    {
      "inputs": [
        {
          "internalType": "address",
          "name": "subaccount",
          "type": "address"
        }
      ],
      "name": "removeSubaccount",
      "outputs": [],
      "stateMutability": "payable",
      "type": "function"
    },
    {
      "inputs": [],
      "name": "roleStore",
      "outputs": [
        {
          "internalType": "contract RoleStore",
          "name": "",
          "type": "address"
        }
      ],
      "stateMutability": "view",
      "type": "function"
    },
    {
      "inputs": [],
      "name": "router",
      "outputs": [
        {
          "internalType": "contract Router",
          "name": "",
          "type": "address"
        }
      ],
      "stateMutability": "view",
      "type": "function"
    },
    {
      "inputs": [
        {
          "internalType": "address",
          "name": "receiver",
          "type": "address"
        },
        {
          "internalType": "uint256",
          "name": "amount",
          "type": "uint256"
        }
      ],
      "name": "sendNativeToken",
      "outputs": [],
      "stateMutability": "payable",
      "type": "function"
    },
    {
      "inputs": [
        {
          "internalType": "address",
          "name": "token",
          "type": "address"
        },
        {
          "internalType": "address",
          "name": "receiver",
          "type": "address"
        },
        {
          "internalType": "uint256",
          "name": "amount",
          "type": "uint256"
        }
      ],
      "name": "sendTokens",
      "outputs": [],
      "stateMutability": "payable",
      "type": "function"
    },
    {
      "inputs": [
        {
          "internalType": "address",
          "name": "receiver",
          "type": "address"
        },
        {
          "internalType": "uint256",
          "name": "amount",
          "type": "uint256"
        }
      ],
      "name": "sendWnt",
      "outputs": [],
      "stateMutability": "payable",
      "type": "function"
    },
    {
      "inputs": [
        {
          "internalType": "address",
          "name": "subaccount",
          "type": "address"
        },
        {
          "internalType": "bytes32",
          "name": "actionType",
          "type": "bytes32"
        },
        {
          "internalType": "uint256",
          "name": "maxAllowedCount",
          "type": "uint256"
        }
      ],
      "name": "setMaxAllowedSubaccountActionCount",
      "outputs": [],
      "stateMutability": "payable",
      "type": "function"
    },
    {
      "inputs": [
        {
          "internalType": "address",
          "name": "subaccount",
          "type": "address"
        },
        {
          "internalType": "uint256",
          "name": "amount",
          "type": "uint256"
        }
      ],
      "name": "setSubaccountAutoTopUpAmount",
      "outputs": [],
      "stateMutability": "payable",
      "type": "function"
    },
    {
      "inputs": [
        {
          "internalType": "bytes32",
          "name": "key",
          "type": "bytes32"
        },
        {
          "internalType": "uint256",
          "name": "sizeDeltaUsd",
          "type": "uint256"
        },
        {
          "internalType": "uint256",
          "name": "acceptablePrice",
          "type": "uint256"
        },
        {
          "internalType": "uint256",
          "name": "triggerPrice",
          "type": "uint256"
        },
        {
          "internalType": "uint256",
          "name": "minOutputAmount",
          "type": "uint256"
        },
        {
          "internalType": "bool",
          "name": "autoCancel",
          "type": "bool"
        }
      ],
      "name": "updateOrder",
      "outputs": [],
      "stateMutability": "payable",
      "type": "function"
    },
    {
      "stateMutability": "payable",
      "type": "receive"
    }
  ],
  "transactionHash": "0xe5b71c86f938f547820ca3262678fb70c379c15ef02430fbb773ee4d37e86e09",
  "args": [
    "0x820F5FfC5b525cD4d88Cd91aCf2c28F16530Cc68",
    "0xA44F830B6a2B6fa76657a3B92C1fe74fcB7C6AfD",
    "0x2F0b22339414ADeD7D5F06f9D604c7fF5b2fe3f6",
    "0xDb17B211c34240B014ab6d61d4A31FA0C0e20c26",
    "0x32A0258007a6ea78265a5AE4DBb28f176be4a8EB",
    "0xD3D60D22d415aD43b7e64b510D86A30f19B1B12C"
  ],
  "numDeployments": 3,
  "solcInputHash": "95ed34927f843d6700c121bcc6faf594",
  "bytecode": "0x6101406040523480156200001257600080fd5b50604051620043e8380380620043e8833981016040819052620000359162000083565b60016000556001600160a01b0394851660805294841660a05291831660c052821660e052811661010052166101205262000117565b6001600160a01b03811681146200008057600080fd5b50565b60008060008060008060c087890312156200009d57600080fd5b8651620000aa816200006a565b6020880151909650620000bd816200006a565b6040880151909550620000d0816200006a565b6060880151909450620000e3816200006a565b6080880151909350620000f6816200006a565b60a088015190925062000109816200006a565b809150509295509295509295565b60805160a05160c05160e05161010051610120516141b76200023160003960008181610275015261096c0152600081816102fd015281816106aa015281816109e50152610d420152600081816102a901528181610443015281816104a6015281816105570152818161075e015281816113f101526117c401526000818160de015281816101d40152818161042201528181610485015281816104f401528181610536015281816105a80152818161073d015281816107a601528181610c6901528181611372015281816113a5015281816113d00152818161141f0152818161145901526116df0152600081816103570152818161090e01528181610bc60152818161151f015261166d0152600061017701526141b76000f3fe6080604052600436106100d25760003560e01c80633914f2171461013f5780633e46b365146101525780634a4a7b041461016557806353ead2d3146101af578063660d0d67146101c2578063712182eb146101f65780637489ec231461020957806379a358a21461021c5780637d39aaf11461022f5780638e8400bc1461024257806393845e46146102635780639ff78c3014610297578063ac9650d8146102cb578063b5848305146102eb578063e6d66ac81461031f578063f82a227214610332578063f887ea401461034557600080fd5b3661013a5760006101027f0000000000000000000000000000000000000000000000000000000000000000610379565b9050336001600160a01b03821614610138573360405163738d28df60e11b815260040161012f91906128ff565b60405180910390fd5b005b600080fd5b61013861014d366004612938565b610414565b610138610160366004612955565b610477565b34801561017157600080fd5b506101997f000000000000000000000000000000000000000000000000000000000000000081565b6040516101a691906128ff565b60405180910390f35b6101386101bd36600461298a565b6104de565b3480156101ce57600080fd5b506101997f000000000000000000000000000000000000000000000000000000000000000081565b610138610204366004612938565b610528565b6101386102173660046129b6565b61057d565b61013861022a36600461298a565b61072f565b61013861023d36600461298a565b610790565b6102556102503660046129cf565b6107cc565b6040519081526020016101a6565b34801561026f57600080fd5b506101997f000000000000000000000000000000000000000000000000000000000000000081565b3480156102a357600080fd5b506101997f000000000000000000000000000000000000000000000000000000000000000081565b6102de6102d9366004612a26565b610a7e565b6040516101a69190612b3f565b3480156102f757600080fd5b506101997f000000000000000000000000000000000000000000000000000000000000000081565b61013861032d366004612b52565b610b9c565b610138610340366004612bac565b610c3e565b34801561035157600080fd5b506101997f000000000000000000000000000000000000000000000000000000000000000081565b6000816001600160a01b03166321f8a72160405160200161039990612c01565b604051602081830303815290604052805190602001206040518263ffffffff1660e01b81526004016103cd91815260200190565b602060405180830381865afa1580156103ea573d6000803e3d6000fd5b505050506040513d601f19601f8201168201806040525081019061040e9190612c29565b92915050565b61041c610dd5565b336104697f00000000000000000000000000000000000000000000000000000000000000007f00000000000000000000000000000000000000000000000000000000000000008385610e2e565b506104746001600055565b50565b61047f610dd5565b336104ce7f00000000000000000000000000000000000000000000000000000000000000007f000000000000000000000000000000000000000000000000000000000000000083878787610f88565b506104d96001600055565b505050565b6104e6610dd5565b6104ef8261114c565b61051a7f00000000000000000000000000000000000000000000000000000000000000008383611173565b6105246001600055565b5050565b610530610dd5565b336104697f00000000000000000000000000000000000000000000000000000000000000007f0000000000000000000000000000000000000000000000000000000000000000838561124d565b610585610dd5565b60005a9050600073805a15bf16582eC8d76841062A47dFfEa790313163fdfc26f37f0000000000000000000000000000000000000000000000000000000000000000856040518363ffffffff1660e01b81526004016105e5929190612c46565b600060405180830381865af4158015610602573d6000803e3d6000fd5b505050506040513d6000823e601f3d908101601f1916820160405261062a9190810190612ef4565b9050600061063782515190565b6001600160a01b03160361065e57604051631630779760e01b815260040160405180910390fd5b61069461066a82515190565b6040516020016106799061302a565b6040516020818303038152906040528051906020012061136d565b604051637489ec2360e01b8152600481018490527f00000000000000000000000000000000000000000000000000000000000000006001600160a01b031690637489ec2390602401600060405180830381600087803b1580156106f657600080fd5b505af115801561070a573d6000803e3d6000fd5b5050505061072361071a82515190565b33846000611418565b50506104746001600055565b610737610dd5565b336107857f00000000000000000000000000000000000000000000000000000000000000007f0000000000000000000000000000000000000000000000000000000000000000838686611828565b506105246001600055565b610798610dd5565b6107a18261114c565b61051a7f000000000000000000000000000000000000000000000000000000000000000083836119e1565b60006107d6610dd5565b60005a90506107ee846040516020016106799061302a565b6001600160a01b038416610802848061305b565b610810906020810190612938565b6001600160a01b03161461085257610828838061305b565b610836906020810190612938565b846040516325d55c0b60e11b815260040161012f92919061307b565b6000610866610120850161010086016130b6565b600781111561087757610877613095565b14806108a557506001610892610120850161010086016130b6565b60078111156108a3576108a3613095565b145b806108d2575060026108bf610120850161010086016130b6565b60078111156108d0576108d0613095565b145b806108ff575060036108ec610120850161010086016130b6565b60078111156108fd576108fd613095565b145b156109cb576001600160a01b037f000000000000000000000000000000000000000000000000000000000000000016631b82787861093d858061305b565b61094e9060c081019060a001612938565b604080516001600160e01b031960e085901b168152610998929189917f0000000000000000000000000000000000000000000000000000000000000000918a0135906004016130d3565b600060405180830381600087803b1580156109b257600080fd5b505af11580156109c6573d6000803e3d6000fd5b505050505b6040516323a1002f60e21b81526000906001600160a01b037f00000000000000000000000000000000000000000000000000000000000000001690638e8400bc90610a1c9088908890600401613274565b6020604051808303816000875af1158015610a3b573d6000803e3d6000fd5b505050506040513d601f19601f82011682018060405250810190610a5f91906133aa565b9050610a7185338460a0880135611418565b91505061040e6001600055565b6060816001600160401b03811115610a9857610a98612c5f565b604051908082528060200260200182016040528015610acb57816020015b6060815260200190600190039081610ab65790505b50905060005b82811015610b955760008030868685818110610aef57610aef6133c3565b9050602002810190610b0191906133d9565b604051610b0f92919061341f565b600060405180830381855af49150503d8060008114610b4a576040519150601f19603f3d011682016040523d82523d6000602084013e610b4f565b606091505b509150915081610b6257610b6281611a64565b80848481518110610b7557610b756133c3565b602002602001018190525050508080610b8d90613445565b915050610ad1565b5092915050565b610ba4610dd5565b610bad8261114c565b6040516303704f0f60e31b815233906001600160a01b037f00000000000000000000000000000000000000000000000000000000000000001690631b82787890610c019087908590889088906004016130d3565b600060405180830381600087803b158015610c1b57600080fd5b505af1158015610c2f573d6000803e3d6000fd5b50505050506104d96001600055565b610c46610dd5565b60005a9050600073805a15bf16582eC8d76841062A47dFfEa790313163fdfc26f37f00000000000000000000000000000000000000000000000000000000000000008a6040518363ffffffff1660e01b8152600401610ca6929190612c46565b600060405180830381865af4158015610cc3573d6000803e3d6000fd5b505050506040513d6000823e601f3d908101601f19168201604052610ceb9190810190612ef4565b90506000610cf882515190565b6001600160a01b031603610d1f57604051631630779760e01b815260040160405180910390fd5b610d2b61066a82515190565b60405163f302f86f60e01b81526001600160a01b037f0000000000000000000000000000000000000000000000000000000000000000169063f302f86f90610d83908b908b908b908b908b908b908a90600401613519565b600060405180830381600087803b158015610d9d57600080fd5b505af1158015610db1573d6000803e3d6000fd5b50505050610dc161071a82515190565b5050610dcd6001600055565b505050505050565b600260005403610e275760405162461bcd60e51b815260206004820152601f60248201527f5265656e7472616e637947756172643a207265656e7472616e742063616c6c00604482015260640161012f565b6002600055565b6000610e3983611a9d565b60405163b348e63960e01b81529091506001600160a01b0386169063b348e63990610e6a9084908690600401613648565b600060405180830381600087803b158015610e8457600080fd5b505af1158015610e98573d6000803e3d6000fd5b50505050610ea4612801565b8051610eb1906002611b17565b6040805180820190915260078152661858d8dbdd5b9d60ca1b60208201528151610ede9160009087611b7c565b60408051808201909152600a8152691cdd589858d8dbdd5b9d60b21b60208201528151610f0e9160019086611b7c565b846001600160a01b03166363d16363610f2686611bd9565b610f2f86611bd9565b846040518463ffffffff1660e01b8152600401610f4e93929190613e3e565b600060405180830381600087803b158015610f6857600080fd5b505af1158015610f7c573d6000803e3d6000fd5b50505050505050505050565b6000610f95858585611be5565b604051637152429d60e11b815260048101829052602481018490529091506001600160a01b0388169063e2a4853a906044016020604051808303816000875af1158015610fe6573d6000803e3d6000fd5b505050506040513d601f19601f8201168201806040525081019061100a91906133aa565b50611013612801565b8051611020906002611b17565b6040805180820190915260078152661858d8dbdd5b9d60ca1b6020820152815161104d9160009089611b7c565b60408051808201909152600a8152691cdd589858d8dbdd5b9d60b21b6020820152815161107d9160019088611b7c565b602081015161108d906001611b17565b6110d060006040518060400160405280600f81526020016e1b585e105b1b1bddd95910dbdd5b9d608a1b815250858460200151611c8b909392919063ffffffff16565b866001600160a01b03166363d163636110e888611bd9565b6110f188611bd9565b846040518463ffffffff1660e01b815260040161111093929190613e81565b600060405180830381600087803b15801561112a57600080fd5b505af115801561113e573d6000803e3d6000fd5b505050505050505050505050565b6001600160a01b0381166104745760405163d551823d60e01b815260040160405180910390fd5b8060000361118057505050565b6111898261114c565b6000836001600160a01b031663bd02d0f56040516020016111a990613edf565b604051602081830303815290604052805190602001206040518263ffffffff1660e01b81526004016111dd91815260200190565b602060405180830381865afa1580156111fa573d6000803e3d6000fd5b505050506040513d601f19601f8201168201806040525081019061121e91906133aa565b90506000806000806000868887f19050801561123b575050505050565b6112468585856119e1565b5050505050565b600061125883611a9d565b6040516369721d4160e01b81529091506001600160a01b038616906369721d41906112899084908690600401613648565b600060405180830381600087803b1580156112a357600080fd5b505af11580156112b7573d6000803e3d6000fd5b505050506112c3612801565b80516112d0906002611b17565b6040805180820190915260078152661858d8dbdd5b9d60ca1b602082015281516112fd9160009087611b7c565b60408051808201909152600a8152691cdd589858d8dbdd5b9d60b21b6020820152815161132d9160019086611b7c565b846001600160a01b03166363d1636361134586611bd9565b61134e86611bd9565b846040518463ffffffff1660e01b8152600401610f4e93929190613f16565b61139f7f000000000000000000000000000000000000000000000000000000000000000061139a30611cde565b611d1f565b336113cb7f00000000000000000000000000000000000000000000000000000000000000008483611d4a565b6104d97f00000000000000000000000000000000000000000000000000000000000000007f0000000000000000000000000000000000000000000000000000000000000000858486611de8565b60006114457f00000000000000000000000000000000000000000000000000000000000000008686611fbe565b9050806000036114555750611822565b60007f00000000000000000000000000000000000000000000000000000000000000006001600160a01b03166321f8a72160405160200161149590612c01565b604051602081830303815290604052805190602001206040518263ffffffff1660e01b81526004016114c991815260200190565b602060405180830381865afa1580156114e6573d6000803e3d6000fd5b505050506040513d601f19601f8201168201806040525081019061150a9190612c29565b905081816001600160a01b031663dd62ed3e887f00000000000000000000000000000000000000000000000000000000000000006040518363ffffffff1660e01b815260040161155b92919061307b565b602060405180830381865afa158015611578573d6000803e3d6000fd5b505050506040513d601f19601f8201168201806040525081019061159c91906133aa565b10156115a9575050611822565b6040516370a0823160e01b815282906001600160a01b038316906370a08231906115d7908a906004016128ff565b602060405180830381865afa1580156115f4573d6000803e3d6000fd5b505050506040513d601f19601f8201168201806040525081019061161891906133aa565b1015611625575050611822565b6000833a5a6116349088613f5c565b61163e9190613f6f565b6116489190613f86565b905082811015611656578092505b6040516303704f0f60e31b81526001600160a01b037f00000000000000000000000000000000000000000000000000000000000000001690631b827878906116a89085908b90309089906004016130d3565b600060405180830381600087803b1580156116c257600080fd5b505af11580156116d6573d6000803e3d6000fd5b505050506117067f0000000000000000000000000000000000000000000000000000000000000000838886612040565b61170e612801565b805161171b906002611b17565b6040805180820190915260078152661858d8dbdd5b9d60ca1b60208201528151611748916000908b611b7c565b60408051808201909152600a8152691cdd589858d8dbdd5b9d60b21b60208201528151611778916001908a611b7c565b6020810151611788906001611b17565b6117c2600060405180604001604052806006815260200165185b5bdd5b9d60d21b815250868460200151611c8b909392919063ffffffff16565b7f00000000000000000000000000000000000000000000000000000000000000006001600160a01b03166363d163636117fa8a611bd9565b6118038a611bd9565b846040518463ffffffff1660e01b815260040161111093929190613f99565b50505050565b60006118348484612166565b604051637152429d60e11b815260048101829052602481018490529091506001600160a01b0387169063e2a4853a906044016020604051808303816000875af1158015611885573d6000803e3d6000fd5b505050506040513d601f19601f820116820180604052508101906118a991906133aa565b506118b2612801565b80516118bf906002611b17565b6040805180820190915260078152661858d8dbdd5b9d60ca1b602082015281516118ec9160009088611b7c565b60408051808201909152600a8152691cdd589858d8dbdd5b9d60b21b6020820152815161191c9160019087611b7c565b602081015161192c906001611b17565b611966600060405180604001604052806006815260200165185b5bdd5b9d60d21b815250858460200151611c8b909392919063ffffffff16565b856001600160a01b03166363d1636361197e87611bd9565b61198787611bd9565b846040518463ffffffff1660e01b81526004016119a693929190613fe2565b600060405180830381600087803b1580156119c057600080fd5b505af11580156119d4573d6000803e3d6000fd5b5050505050505050505050565b806000036119ee57505050565b6119f78261114c565b6000611a0284610379565b9050806001600160a01b031663d0e30db0836040518263ffffffff1660e01b81526004016000604051808303818588803b158015611a3f57600080fd5b505af1158015611a53573d6000803e3d6000fd5b5050505050611822848285856121ff565b600080611a7083612449565b915091508015611a94578160405162461bcd60e51b815260040161012f9190614034565b6104d9836124d9565b6000604051602001611ad2906020808252600f908201526e14d5509050d0d3d5539517d31254d5608a1b604082015260600190565b6040516020818303038152906040528051906020012082604051602001611afa929190613648565b604051602081830303815290604052805190602001209050919050565b806001600160401b03811115611b2f57611b2f612c5f565b604051908082528060200260200182016040528015611b7557816020015b604080518082019091526060815260006020820152815260200190600190039081611b4d5790505b5090915250565b8184600001518481518110611b9357611b936133c3565b6020026020010151600001819052508084600001518481518110611bb957611bb96133c3565b6020908102919091018101516001600160a01b0390921691015250505050565b6001600160a01b031690565b6000604051602001611c349060208082526023908201527f4d41585f414c4c4f5745445f5355424143434f554e545f414354494f4e5f434f60408201526215539560ea1b606082015260800190565b60408051808303601f190181528282528051602091820120818401526001600160a01b03968716838301529490951660608201526080808201939093528451808203909301835260a0019093528051910120919050565b8184600001518481518110611ca257611ca26133c3565b6020026020010151600001819052508084600001518481518110611cc857611cc86133c3565b6020026020010151602001818152505050505050565b6000604051602001611ad2906020808252601b908201527a14d5509050d0d3d5539517d191505515549157d11254d050931151602a1b604082015260600190565b611d2982826124e2565b156105245760405163dd70e0c960e01b81526004810182905260240161012f565b6000611d5583611a9d565b60405163c769d1a160e01b81529091506001600160a01b0385169063c769d1a190611d869084908690600401613648565b602060405180830381865afa158015611da3573d6000803e3d6000fd5b505050506040513d601f19601f82011682018060405250810190611dc79190614047565b6118225782826040516326f8290f60e21b815260040161012f92919061307b565b6000611df5848484612555565b60405163340dbab360e01b815260048101829052600160248201529091506000906001600160a01b0388169063340dbab3906044016020604051808303816000875af1158015611e49573d6000803e3d6000fd5b505050506040513d601f19601f82011682018060405250810190611e6d91906133aa565b9050611e7c8786868685612592565b611e84612801565b8051611e91906002611b17565b6040805180820190915260078152661858d8dbdd5b9d60ca1b60208201528151611ebe9160009089611b7c565b60408051808201909152600a8152691cdd589858d8dbdd5b9d60b21b60208201528151611eee9160019088611b7c565b6020810151611efe906001611b17565b611f3b6000604051806040016040528060098152602001686e65787456616c756560b81b815250848460200151611c8b909392919063ffffffff16565b6080810151611f4b906001611b17565b60408051808201909152600a815269616374696f6e5479706560b01b60208201526080820151611f7e9160009087611c8b565b866001600160a01b03166363d16363611f9688611bd9565b611f9f88611bd9565b846040518463ffffffff1660e01b815260040161111093929190614064565b600080611fcb8484612166565b60405163bd02d0f560e01b8152600481018290529091506001600160a01b0386169063bd02d0f590602401602060405180830381865afa158015612013573d6000803e3d6000fd5b505050506040513d601f19601f8201168201806040525081019061203791906133aa565b95945050505050565b80156118225761204f8261114c565b604051632e1a7d4d60e01b8152600481018290526001600160a01b03841690632e1a7d4d90602401600060405180830381600087803b15801561209157600080fd5b505af11580156120a5573d6000803e3d6000fd5b505050506000846001600160a01b031663bd02d0f56040516020016120c990613edf565b604051602081830303815290604052805190602001206040518263ffffffff1660e01b81526004016120fd91815260200190565b602060405180830381865afa15801561211a573d6000803e3d6000fd5b505050506040513d601f19601f8201168201806040525081019061213e91906133aa565b90506000806000806000868887f19050801561215b575050611822565b610dcd8685856119e1565b60006040516020016121a9906020808252601d908201527f5355424143434f554e545f4155544f5f544f505f55505f414d4f554e54000000604082015260600190565b60408051601f198184030181528282528051602091820120908301526001600160a01b03808616918301919091528316606082015260800160405160208183030381529060405280519060200120905092915050565b80156118225761220e8261114c565b6000846001600160a01b031663bd02d0f56122288661265b565b6040518263ffffffff1660e01b815260040161224691815260200190565b602060405180830381865afa158015612263573d6000803e3d6000fd5b505050506040513d601f19601f8201168201806040525081019061228791906133aa565b9050806000036122ac5783604051634fe14bfd60e11b815260040161012f91906128ff565b60006122ba85858585612699565b50905080156122ca575050611822565b6000866001600160a01b03166321f8a72160405160200161230e906020808252600f908201526e484f4c44494e475f4144445245535360881b604082015260600190565b604051602081830303815290604052805190602001206040518263ffffffff1660e01b815260040161234291815260200190565b602060405180830381865afa15801561235f573d6000803e3d6000fd5b505050506040513d601f19601f820116820180604052508101906123839190612c29565b90506001600160a01b0381166123ac57604051633a6de2f560e21b815260040160405180910390fd5b6000806123bb88848888612699565b9150915081156123cf575050505050611822565b60006123da82612449565b5090507fc9f14d9a0a9b46470c7c0b6c508f8283abaab7f795f153953c58cd4250824dae818360405161240e9291906140b7565b60405180910390a160405163012f3b8f60e71b81526001600160a01b03808b166004830152891660248201526044810188905260640161012f565b60606000604483511015612470575050604080516020810190915260008082529092909150565b600061247d846020015190565b90506307b9e43360e51b6001600160e01b03198216016124bc57600484019350838060200190518101906124b191906140dc565b946001945092505050565b600060405180602001604052806000815250909250925050915091565b80518060208301fd5b604051633d70e7e560e11b8152600481018290526000906001600160a01b03841690637ae1cfca90602401602060405180830381865afa15801561252a573d6000803e3d6000fd5b505050506040513d601f19601f8201168201806040525081019061254e9190614047565b9392505050565b6000604051602001611c349060208082526017908201527614d5509050d0d3d5539517d050d51253d397d0d3d55395604a1b604082015260600190565b600061259f858585611be5565b60405163bd02d0f560e01b8152600481018290529091506000906001600160a01b0388169063bd02d0f590602401602060405180830381865afa1580156125ea573d6000803e3d6000fd5b505050506040513d601f19601f8201168201806040525081019061260e91906133aa565b9050808311156126525760405163519ba75360e01b81526001600160a01b03808816600483015286166024820152604481018490526064810182905260840161012f565b50505050505050565b6000604051602001611ad2906020808252601890820152771513d2d15397d514905394d1915497d1d054d7d31253525560421b604082015260600190565b60006060600063a9059cbb60e01b86866040516024016126ba929190612c46565b604051602081830303815290604052906001600160e01b0319166020820180516001600160e01b0383818316178352505050509050600080886001600160a01b0316868460405161270b919061416f565b60006040518083038160008787f1925050503d8060008114612749576040519150601f19603f3d011682016040523d82523d6000602084013e61274e565b606091505b509150915081156127ef5780516000036127ac576001600160a01b0389163b6127ac5760006040518060400160405280601481526020017310d85b1b081d1bc81b9bdb8b58dbdb9d1c9858dd60621b815250945094505050506127f8565b600081511180156127ce5750808060200190518101906127cc9190614047565b155b156127e1576000945092506127f8915050565b6001945092506127f8915050565b60009450925050505b94509492505050565b604080516101208101909152606060e0820181815261010083019190915281908152602001612843604051806040016040528060608152602001606081525090565b8152602001612865604051806040016040528060608152602001606081525090565b8152602001612887604051806040016040528060608152602001606081525090565b81526020016128a9604051806040016040528060608152602001606081525090565b81526020016128cb604051806040016040528060608152602001606081525090565b81526020016128ed604051806040016040528060608152602001606081525090565b905290565b6001600160a01b03169052565b6001600160a01b0391909116815260200190565b6001600160a01b038116811461047457600080fd5b803561293381612913565b919050565b60006020828403121561294a57600080fd5b813561254e81612913565b60008060006060848603121561296a57600080fd5b833561297581612913565b95602085013595506040909401359392505050565b6000806040838503121561299d57600080fd5b82356129a881612913565b946020939093013593505050565b6000602082840312156129c857600080fd5b5035919050565b600080604083850312156129e257600080fd5b82356129ed81612913565b915060208301356001600160401b03811115612a0857600080fd5b83016101c08186031215612a1b57600080fd5b809150509250929050565b60008060208385031215612a3957600080fd5b82356001600160401b0380821115612a5057600080fd5b818501915085601f830112612a6457600080fd5b813581811115612a7357600080fd5b8660208260051b8501011115612a8857600080fd5b60209290920196919550909350505050565b60005b83811015612ab5578181015183820152602001612a9d565b50506000910152565b60008151808452612ad6816020860160208601612a9a565b601f01601f19169290920160200192915050565b600081518084526020808501808196508360051b8101915082860160005b85811015612b32578284038952612b20848351612abe565b98850198935090840190600101612b08565b5091979650505050505050565b60208152600061254e6020830184612aea565b600080600060608486031215612b6757600080fd5b8335612b7281612913565b92506020840135612b8281612913565b929592945050506040919091013590565b801515811461047457600080fd5b803561293381612b93565b60008060008060008060c08789031215612bc557600080fd5b863595506020870135945060408701359350606087013592506080870135915060a0870135612bf381612b93565b809150509295509295509295565b60208082526003908201526215d39560ea1b604082015260600190565b805161293381612913565b600060208284031215612c3b57600080fd5b815161254e81612913565b6001600160a01b03929092168252602082015260400190565b634e487b7160e01b600052604160045260246000fd5b60405161016081016001600160401b0381118282101715612c9857612c98612c5f565b60405290565b604051606081016001600160401b0381118282101715612c9857612c98612c5f565b60405161010081016001600160401b0381118282101715612c9857612c98612c5f565b604051601f8201601f191681016001600160401b0381118282101715612d0b57612d0b612c5f565b604052919050565b600082601f830112612d2457600080fd5b815160206001600160401b03821115612d3f57612d3f612c5f565b8160051b612d4e828201612ce3565b9283528481018201928281019087851115612d6857600080fd5b83870192505b84831015612d90578251612d8181612913565b82529183019190830190612d6e565b979650505050505050565b6008811061047457600080fd5b805161293381612d9b565b6003811061047457600080fd5b805161293381612db3565b60006101608284031215612dde57600080fd5b612de6612c75565b9050612df182612da8565b8152612dff60208301612dc0565b602082015260408201516040820152606082015160608201526080820151608082015260a082015160a082015260c082015160c082015260e082015160e082015261010080830151818301525061012080830151818301525061014080830151818301525092915050565b600060808284031215612e7c57600080fd5b604051608081016001600160401b0381118282101715612e9e57612e9e612c5f565b80604052508091508251612eb181612b93565b81526020830151612ec181612b93565b60208201526040830151612ed481612b93565b60408201526060830151612ee781612b93565b6060919091015292915050565b600060208284031215612f0657600080fd5b81516001600160401b0380821115612f1d57600080fd5b908301906102008286031215612f3257600080fd5b612f3a612c9e565b825182811115612f4957600080fd5b83016101008188031215612f5c57600080fd5b612f64612cc0565b612f6d82612c1e565b8152612f7b60208301612c1e565b6020820152612f8c60408301612c1e565b6040820152612f9d60608301612c1e565b6060820152612fae60808301612c1e565b6080820152612fbf60a08301612c1e565b60a0820152612fd060c08301612c1e565b60c082015260e082015184811115612fe757600080fd5b612ff389828501612d13565b60e0830152508252506130098660208501612dcb565b602082015261301c866101808501612e6a565b604082015295945050505050565b60208082526017908201527629aaa120a1a1a7aaa72a2fa7a92222a92fa0a1aa24a7a760491b604082015260600190565b6000823560de1983360301811261307157600080fd5b9190910192915050565b6001600160a01b0392831681529116602082015260400190565b634e487b7160e01b600052602160045260246000fd5b803561293381612d9b565b6000602082840312156130c857600080fd5b813561254e81612d9b565b6001600160a01b039485168152928416602084015292166040820152606081019190915260800190565b6000808335601e1984360301811261311457600080fd5b83016020810192503590506001600160401b0381111561313357600080fd5b8060051b360382131561314557600080fd5b9250929050565b8183526000602080850194508260005b8581101561318a57813561316f81612913565b6001600160a01b03168752958201959082019060010161315c565b509495945050505050565b600081356131a281612913565b6001600160a01b0390811684526020830135906131be82612913565b90811660208501526040830135906131d582612913565b90811660408501526060830135906131ec82612913565b908116606085015260808301359061320382612913565b16608084015261321560a08301612928565b61322260a08501826128f2565b5061323060c08301836130fd565b60e060c086015261203760e08601828461314c565b6008811061325557613255613095565b9052565b803561293381612db3565b6003811061325557613255613095565b6001600160a01b038316815260406020820152600082353684900360de1901811261329e57600080fd5b6101c08060408501526132b76102008501868401613195565b91506133086060850160208701803582526020810135602083015260408101356040830152606081013560608301526080810135608083015260a081013560a083015260c081013560c08301525050565b61331561010086016130ab565b61014061332481870183613245565b6133316101208801613259565b915061016061334281880184613264565b61334d828901612ba1565b925061018091506133618288018415159052565b61336c818901612ba1565b9250506101a061337f8188018415159052565b61338a828901612ba1565b151593870193909352505093909301356101e09092019190915250919050565b6000602082840312156133bc57600080fd5b5051919050565b634e487b7160e01b600052603260045260246000fd5b6000808335601e198436030181126133f057600080fd5b8301803591506001600160401b0382111561340a57600080fd5b60200191503681900382131561314557600080fd5b8183823760009101908152919050565b634e487b7160e01b600052601160045260246000fd5b6000600182016134575761345761342f565b5060010190565b600081518084526020808501945080840160005b8381101561318a5781516001600160a01b031687529582019590820190600101613472565b6134a2828251613245565b60208101516134b46020840182613264565b5060408101516040830152606081015160608301526080810151608083015260a081015160a083015260c081015160c083015260e081015160e08301526101008082015181840152506101208082015181840152506101408082015181840152505050565b87815286602082015285604082015284606082015283608082015282151560a082015260e060c08201526000825161020060e084015260018060a01b03808251166102e0850152806020830151166103008501525060408101516135816103208501826128f2565b5060608101516135956103408501826128f2565b5060808101516135a96103608501826128f2565b5060a08101516135bd6103808501826128f2565b5060c08101516135d16103a08501826128f2565b5060e001516101006103c084018190526135ef6103e085018361345e565b9150602085015161360282860182613497565b505060408481015180511515610260860152602081015115156102808601529081015115156102a0850152606081015115156102c0850152509998505050505050505050565b9182526001600160a01b0316602082015260400190565b600081518084526020808501808196508360051b8101915082860160005b85811015612b3257828403895281516040815181875261369f82880182612abe565b915050868201519150858103878701526136b9818361345e565b9a87019a955050509084019060010161367d565b60006040808401835182865281815180845260608801915060608160051b89010193506020808401935060005b8281101561374457898603605f190184528451805188885261371e89890182612abe565b918401516001600160a01b031697840197909752955093810193928101926001016136fa565b50808801519550888503818a015250505050612037818361365f565b600081518084526020808501808196508360051b810191508286016000805b868110156137f2578385038a528251604081518188526137a182890182612abe565b92890151888403898b01528051808552908a01938693508a0191505b808310156137dd57835182529289019260019290920191908901906137bd565b509b88019b965050509185019160010161377f565b509298975050505050505050565b60006040808401835182865281815180845260608801915060608160051b89010193506020808401935060005b8281101561386e57898603605f190184528451805188885261385189890182612abe565b91840151978401979097529550938101939281019260010161382d565b50808801519550888503818a0152505050506120378183613760565b60006040808401835182865281815180845260608801915060608160051b89010193506020808401935060005b8281101561386e57898603605f19018452845180518888526138db89890182612abe565b9184015197840197909752955093810193928101926001016138b7565b600081518084526020808501808196508360051b810191508286016000805b868110156137f2578385038a5282516040815181885261393982890182612abe565b92890151888403898b01528051808552908a01938693508a0191505b8083101561397757835115158252928901926001929092019190890190613955565b509b88019b9650505091850191600101613917565b60006040808401835182865281815180845260608801915060608160051b89010193506020808401935060005b828110156139fc57898603605f19018452845180518888526139dd89890182612abe565b91840151151597840197909752955093810193928101926001016139b9565b50808801519550888503818a01525050505061203781836138f8565b600081518084526020808501808196508360051b810191508286016000805b868110156137f2578385038a52825160408151818852613a5982890182612abe565b92890151888403898b01528051808552908a01938693508a0191505b80831015613a955783518252928901926001929092019190890190613a75565b509b88019b9650505091850191600101613a37565b60006040808401835182865281815180845260608801915060608160051b89010193506020808401935060005b82811015613b1857898603605f1901845284518051888852613afb89890182612abe565b918401519784019790975295509381019392810192600101613ad7565b50808801519550888503818a0152505050506120378183613a18565b600081518084526020808501808196508360051b8101915082860160005b85811015612b32578284038952815160408151818752613b7482880182612abe565b91505086820151915085810387870152613b8e8183612aea565b9a87019a9550505090840190600101613b52565b60006040808401835182865281815180845260608801915060608160051b89010193506020808401935060005b82811015613c1f57898603605f1901845284518051888852613bf389890182612abe565b9184015188830389860152919050613c0b8183612abe565b975050509381019392810192600101613bcf565b50808801519550888503818a0152505050506120378183613b34565b600081518084526020808501808196506005915083821b81018387016000805b87811015613ce6578484038b52825160408151818752613c7d82880182612abe565b928a0151878403888c01528051808552908b019392508a83019150808a1b83018b01865b82811015613ccf57601f19858303018452613cbd828751612abe565b958d0195938d01939150600101613ca1565b509e8b019e97505050938801935050600101613c5b565b50919998505050505050505050565b60006040808401835182865281815180845260608801915060608160051b89010193506020808401935060005b82811015613d7257898603605f1901845284518051888852613d4689890182612abe565b9184015188830389860152919050613d5e8183612abe565b975050509381019392810192600101613d22565b50808801519550888503818a0152505050506120378183613c3b565b6000815160e08452613da360e08501826136cd565b905060208301518482036020860152613dbc8282613800565b91505060408301518482036040860152613dd6828261388a565b91505060608301518482036060860152613df0828261398c565b91505060808301518482036080860152613e0a8282613aaa565b91505060a083015184820360a0860152613e248282613ba2565b91505060c083015184820360c08601526120378282613cf5565b60808152600d60808201526c10591914dd589858d8dbdd5b9d609a1b60a082015283602082015282604082015260c06060820152600061203760c0830184613d8e565b60808152602260808201527f5365744d6178416c6c6f7765645375626163636f756e74416374696f6e436f7560a0820152611b9d60f21b60c082015283602082015282604082015260e06060820152600061203760e0830184613d8e565b6020808252601f908201527f4e41544956455f544f4b454e5f5452414e534645525f4741535f4c494d495400604082015260600190565b60808152601060808201526f14995b5bdd9954dd589858d8dbdd5b9d60821b60a082015283602082015282604082015260c06060820152600061203760c0830184613d8e565b8181038181111561040e5761040e61342f565b808202811582820484141761040e5761040e61342f565b8082018082111561040e5761040e61342f565b60808152601360808201527205375626163636f756e744175746f546f70557606c1b60a082015283602082015282604082015260c06060820152600061203760c0830184613d8e565b60808152601c60808201527b14d95d14dd589858d8dbdd5b9d105d5d1bd51bdc155c105b5bdd5b9d60221b60a082015283602082015282604082015260c06060820152600061203760c0830184613d8e565b60208152600061254e6020830184612abe565b60006020828403121561405957600080fd5b815161254e81612b93565b60808152601e60808201527f496e6372656d656e745375626163636f756e74416374696f6e436f756e74000060a082015283602082015282604082015260c06060820152600061203760c0830184613d8e565b6040815260006140ca6040830185612abe565b82810360208401526120378185612abe565b6000602082840312156140ee57600080fd5b81516001600160401b038082111561410557600080fd5b818401915084601f83011261411957600080fd5b81518181111561412b5761412b612c5f565b61413e601f8201601f1916602001612ce3565b915080825285602082850101111561415557600080fd5b614166816020840160208601612a9a565b50949350505050565b60008251613071818460208701612a9a56fea26469706673582212208460225a16613d359eeef0a8ecde75c99db228cf673c2052fe3ced1c9ab05d7d64736f6c63430008120033",
  "deployedBytecode": "0x6080604052600436106100d25760003560e01c80633914f2171461013f5780633e46b365146101525780634a4a7b041461016557806353ead2d3146101af578063660d0d67146101c2578063712182eb146101f65780637489ec231461020957806379a358a21461021c5780637d39aaf11461022f5780638e8400bc1461024257806393845e46146102635780639ff78c3014610297578063ac9650d8146102cb578063b5848305146102eb578063e6d66ac81461031f578063f82a227214610332578063f887ea401461034557600080fd5b3661013a5760006101027f0000000000000000000000000000000000000000000000000000000000000000610379565b9050336001600160a01b03821614610138573360405163738d28df60e11b815260040161012f91906128ff565b60405180910390fd5b005b600080fd5b61013861014d366004612938565b610414565b610138610160366004612955565b610477565b34801561017157600080fd5b506101997f000000000000000000000000000000000000000000000000000000000000000081565b6040516101a691906128ff565b60405180910390f35b6101386101bd36600461298a565b6104de565b3480156101ce57600080fd5b506101997f000000000000000000000000000000000000000000000000000000000000000081565b610138610204366004612938565b610528565b6101386102173660046129b6565b61057d565b61013861022a36600461298a565b61072f565b61013861023d36600461298a565b610790565b6102556102503660046129cf565b6107cc565b6040519081526020016101a6565b34801561026f57600080fd5b506101997f000000000000000000000000000000000000000000000000000000000000000081565b3480156102a357600080fd5b506101997f000000000000000000000000000000000000000000000000000000000000000081565b6102de6102d9366004612a26565b610a7e565b6040516101a69190612b3f565b3480156102f757600080fd5b506101997f000000000000000000000000000000000000000000000000000000000000000081565b61013861032d366004612b52565b610b9c565b610138610340366004612bac565b610c3e565b34801561035157600080fd5b506101997f000000000000000000000000000000000000000000000000000000000000000081565b6000816001600160a01b03166321f8a72160405160200161039990612c01565b604051602081830303815290604052805190602001206040518263ffffffff1660e01b81526004016103cd91815260200190565b602060405180830381865afa1580156103ea573d6000803e3d6000fd5b505050506040513d601f19601f8201168201806040525081019061040e9190612c29565b92915050565b61041c610dd5565b336104697f00000000000000000000000000000000000000000000000000000000000000007f00000000000000000000000000000000000000000000000000000000000000008385610e2e565b506104746001600055565b50565b61047f610dd5565b336104ce7f00000000000000000000000000000000000000000000000000000000000000007f000000000000000000000000000000000000000000000000000000000000000083878787610f88565b506104d96001600055565b505050565b6104e6610dd5565b6104ef8261114c565b61051a7f00000000000000000000000000000000000000000000000000000000000000008383611173565b6105246001600055565b5050565b610530610dd5565b336104697f00000000000000000000000000000000000000000000000000000000000000007f0000000000000000000000000000000000000000000000000000000000000000838561124d565b610585610dd5565b60005a9050600073__$9dcb75ef0bb6c4288f2ccffe7dc492c4eb$__63fdfc26f37f0000000000000000000000000000000000000000000000000000000000000000856040518363ffffffff1660e01b81526004016105e5929190612c46565b600060405180830381865af4158015610602573d6000803e3d6000fd5b505050506040513d6000823e601f3d908101601f1916820160405261062a9190810190612ef4565b9050600061063782515190565b6001600160a01b03160361065e57604051631630779760e01b815260040160405180910390fd5b61069461066a82515190565b6040516020016106799061302a565b6040516020818303038152906040528051906020012061136d565b604051637489ec2360e01b8152600481018490527f00000000000000000000000000000000000000000000000000000000000000006001600160a01b031690637489ec2390602401600060405180830381600087803b1580156106f657600080fd5b505af115801561070a573d6000803e3d6000fd5b5050505061072361071a82515190565b33846000611418565b50506104746001600055565b610737610dd5565b336107857f00000000000000000000000000000000000000000000000000000000000000007f0000000000000000000000000000000000000000000000000000000000000000838686611828565b506105246001600055565b610798610dd5565b6107a18261114c565b61051a7f000000000000000000000000000000000000000000000000000000000000000083836119e1565b60006107d6610dd5565b60005a90506107ee846040516020016106799061302a565b6001600160a01b038416610802848061305b565b610810906020810190612938565b6001600160a01b03161461085257610828838061305b565b610836906020810190612938565b846040516325d55c0b60e11b815260040161012f92919061307b565b6000610866610120850161010086016130b6565b600781111561087757610877613095565b14806108a557506001610892610120850161010086016130b6565b60078111156108a3576108a3613095565b145b806108d2575060026108bf610120850161010086016130b6565b60078111156108d0576108d0613095565b145b806108ff575060036108ec610120850161010086016130b6565b60078111156108fd576108fd613095565b145b156109cb576001600160a01b037f000000000000000000000000000000000000000000000000000000000000000016631b82787861093d858061305b565b61094e9060c081019060a001612938565b604080516001600160e01b031960e085901b168152610998929189917f0000000000000000000000000000000000000000000000000000000000000000918a0135906004016130d3565b600060405180830381600087803b1580156109b257600080fd5b505af11580156109c6573d6000803e3d6000fd5b505050505b6040516323a1002f60e21b81526000906001600160a01b037f00000000000000000000000000000000000000000000000000000000000000001690638e8400bc90610a1c9088908890600401613274565b6020604051808303816000875af1158015610a3b573d6000803e3d6000fd5b505050506040513d601f19601f82011682018060405250810190610a5f91906133aa565b9050610a7185338460a0880135611418565b91505061040e6001600055565b6060816001600160401b03811115610a9857610a98612c5f565b604051908082528060200260200182016040528015610acb57816020015b6060815260200190600190039081610ab65790505b50905060005b82811015610b955760008030868685818110610aef57610aef6133c3565b9050602002810190610b0191906133d9565b604051610b0f92919061341f565b600060405180830381855af49150503d8060008114610b4a576040519150601f19603f3d011682016040523d82523d6000602084013e610b4f565b606091505b509150915081610b6257610b6281611a64565b80848481518110610b7557610b756133c3565b602002602001018190525050508080610b8d90613445565b915050610ad1565b5092915050565b610ba4610dd5565b610bad8261114c565b6040516303704f0f60e31b815233906001600160a01b037f00000000000000000000000000000000000000000000000000000000000000001690631b82787890610c019087908590889088906004016130d3565b600060405180830381600087803b158015610c1b57600080fd5b505af1158015610c2f573d6000803e3d6000fd5b50505050506104d96001600055565b610c46610dd5565b60005a9050600073__$9dcb75ef0bb6c4288f2ccffe7dc492c4eb$__63fdfc26f37f00000000000000000000000000000000000000000000000000000000000000008a6040518363ffffffff1660e01b8152600401610ca6929190612c46565b600060405180830381865af4158015610cc3573d6000803e3d6000fd5b505050506040513d6000823e601f3d908101601f19168201604052610ceb9190810190612ef4565b90506000610cf882515190565b6001600160a01b031603610d1f57604051631630779760e01b815260040160405180910390fd5b610d2b61066a82515190565b60405163f302f86f60e01b81526001600160a01b037f0000000000000000000000000000000000000000000000000000000000000000169063f302f86f90610d83908b908b908b908b908b908b908a90600401613519565b600060405180830381600087803b158015610d9d57600080fd5b505af1158015610db1573d6000803e3d6000fd5b50505050610dc161071a82515190565b5050610dcd6001600055565b505050505050565b600260005403610e275760405162461bcd60e51b815260206004820152601f60248201527f5265656e7472616e637947756172643a207265656e7472616e742063616c6c00604482015260640161012f565b6002600055565b6000610e3983611a9d565b60405163b348e63960e01b81529091506001600160a01b0386169063b348e63990610e6a9084908690600401613648565b600060405180830381600087803b158015610e8457600080fd5b505af1158015610e98573d6000803e3d6000fd5b50505050610ea4612801565b8051610eb1906002611b17565b6040805180820190915260078152661858d8dbdd5b9d60ca1b60208201528151610ede9160009087611b7c565b60408051808201909152600a8152691cdd589858d8dbdd5b9d60b21b60208201528151610f0e9160019086611b7c565b846001600160a01b03166363d16363610f2686611bd9565b610f2f86611bd9565b846040518463ffffffff1660e01b8152600401610f4e93929190613e3e565b600060405180830381600087803b158015610f6857600080fd5b505af1158015610f7c573d6000803e3d6000fd5b50505050505050505050565b6000610f95858585611be5565b604051637152429d60e11b815260048101829052602481018490529091506001600160a01b0388169063e2a4853a906044016020604051808303816000875af1158015610fe6573d6000803e3d6000fd5b505050506040513d601f19601f8201168201806040525081019061100a91906133aa565b50611013612801565b8051611020906002611b17565b6040805180820190915260078152661858d8dbdd5b9d60ca1b6020820152815161104d9160009089611b7c565b60408051808201909152600a8152691cdd589858d8dbdd5b9d60b21b6020820152815161107d9160019088611b7c565b602081015161108d906001611b17565b6110d060006040518060400160405280600f81526020016e1b585e105b1b1bddd95910dbdd5b9d608a1b815250858460200151611c8b909392919063ffffffff16565b866001600160a01b03166363d163636110e888611bd9565b6110f188611bd9565b846040518463ffffffff1660e01b815260040161111093929190613e81565b600060405180830381600087803b15801561112a57600080fd5b505af115801561113e573d6000803e3d6000fd5b505050505050505050505050565b6001600160a01b0381166104745760405163d551823d60e01b815260040160405180910390fd5b8060000361118057505050565b6111898261114c565b6000836001600160a01b031663bd02d0f56040516020016111a990613edf565b604051602081830303815290604052805190602001206040518263ffffffff1660e01b81526004016111dd91815260200190565b602060405180830381865afa1580156111fa573d6000803e3d6000fd5b505050506040513d601f19601f8201168201806040525081019061121e91906133aa565b90506000806000806000868887f19050801561123b575050505050565b6112468585856119e1565b5050505050565b600061125883611a9d565b6040516369721d4160e01b81529091506001600160a01b038616906369721d41906112899084908690600401613648565b600060405180830381600087803b1580156112a357600080fd5b505af11580156112b7573d6000803e3d6000fd5b505050506112c3612801565b80516112d0906002611b17565b6040805180820190915260078152661858d8dbdd5b9d60ca1b602082015281516112fd9160009087611b7c565b60408051808201909152600a8152691cdd589858d8dbdd5b9d60b21b6020820152815161132d9160019086611b7c565b846001600160a01b03166363d1636361134586611bd9565b61134e86611bd9565b846040518463ffffffff1660e01b8152600401610f4e93929190613f16565b61139f7f000000000000000000000000000000000000000000000000000000000000000061139a30611cde565b611d1f565b336113cb7f00000000000000000000000000000000000000000000000000000000000000008483611d4a565b6104d97f00000000000000000000000000000000000000000000000000000000000000007f0000000000000000000000000000000000000000000000000000000000000000858486611de8565b60006114457f00000000000000000000000000000000000000000000000000000000000000008686611fbe565b9050806000036114555750611822565b60007f00000000000000000000000000000000000000000000000000000000000000006001600160a01b03166321f8a72160405160200161149590612c01565b604051602081830303815290604052805190602001206040518263ffffffff1660e01b81526004016114c991815260200190565b602060405180830381865afa1580156114e6573d6000803e3d6000fd5b505050506040513d601f19601f8201168201806040525081019061150a9190612c29565b905081816001600160a01b031663dd62ed3e887f00000000000000000000000000000000000000000000000000000000000000006040518363ffffffff1660e01b815260040161155b92919061307b565b602060405180830381865afa158015611578573d6000803e3d6000fd5b505050506040513d601f19601f8201168201806040525081019061159c91906133aa565b10156115a9575050611822565b6040516370a0823160e01b815282906001600160a01b038316906370a08231906115d7908a906004016128ff565b602060405180830381865afa1580156115f4573d6000803e3d6000fd5b505050506040513d601f19601f8201168201806040525081019061161891906133aa565b1015611625575050611822565b6000833a5a6116349088613f5c565b61163e9190613f6f565b6116489190613f86565b905082811015611656578092505b6040516303704f0f60e31b81526001600160a01b037f00000000000000000000000000000000000000000000000000000000000000001690631b827878906116a89085908b90309089906004016130d3565b600060405180830381600087803b1580156116c257600080fd5b505af11580156116d6573d6000803e3d6000fd5b505050506117067f0000000000000000000000000000000000000000000000000000000000000000838886612040565b61170e612801565b805161171b906002611b17565b6040805180820190915260078152661858d8dbdd5b9d60ca1b60208201528151611748916000908b611b7c565b60408051808201909152600a8152691cdd589858d8dbdd5b9d60b21b60208201528151611778916001908a611b7c565b6020810151611788906001611b17565b6117c2600060405180604001604052806006815260200165185b5bdd5b9d60d21b815250868460200151611c8b909392919063ffffffff16565b7f00000000000000000000000000000000000000000000000000000000000000006001600160a01b03166363d163636117fa8a611bd9565b6118038a611bd9565b846040518463ffffffff1660e01b815260040161111093929190613f99565b50505050565b60006118348484612166565b604051637152429d60e11b815260048101829052602481018490529091506001600160a01b0387169063e2a4853a906044016020604051808303816000875af1158015611885573d6000803e3d6000fd5b505050506040513d601f19601f820116820180604052508101906118a991906133aa565b506118b2612801565b80516118bf906002611b17565b6040805180820190915260078152661858d8dbdd5b9d60ca1b602082015281516118ec9160009088611b7c565b60408051808201909152600a8152691cdd589858d8dbdd5b9d60b21b6020820152815161191c9160019087611b7c565b602081015161192c906001611b17565b611966600060405180604001604052806006815260200165185b5bdd5b9d60d21b815250858460200151611c8b909392919063ffffffff16565b856001600160a01b03166363d1636361197e87611bd9565b61198787611bd9565b846040518463ffffffff1660e01b81526004016119a693929190613fe2565b600060405180830381600087803b1580156119c057600080fd5b505af11580156119d4573d6000803e3d6000fd5b5050505050505050505050565b806000036119ee57505050565b6119f78261114c565b6000611a0284610379565b9050806001600160a01b031663d0e30db0836040518263ffffffff1660e01b81526004016000604051808303818588803b158015611a3f57600080fd5b505af1158015611a53573d6000803e3d6000fd5b5050505050611822848285856121ff565b600080611a7083612449565b915091508015611a94578160405162461bcd60e51b815260040161012f9190614034565b6104d9836124d9565b6000604051602001611ad2906020808252600f908201526e14d5509050d0d3d5539517d31254d5608a1b604082015260600190565b6040516020818303038152906040528051906020012082604051602001611afa929190613648565b604051602081830303815290604052805190602001209050919050565b806001600160401b03811115611b2f57611b2f612c5f565b604051908082528060200260200182016040528015611b7557816020015b604080518082019091526060815260006020820152815260200190600190039081611b4d5790505b5090915250565b8184600001518481518110611b9357611b936133c3565b6020026020010151600001819052508084600001518481518110611bb957611bb96133c3565b6020908102919091018101516001600160a01b0390921691015250505050565b6001600160a01b031690565b6000604051602001611c349060208082526023908201527f4d41585f414c4c4f5745445f5355424143434f554e545f414354494f4e5f434f60408201526215539560ea1b606082015260800190565b60408051808303601f190181528282528051602091820120818401526001600160a01b03968716838301529490951660608201526080808201939093528451808203909301835260a0019093528051910120919050565b8184600001518481518110611ca257611ca26133c3565b6020026020010151600001819052508084600001518481518110611cc857611cc86133c3565b6020026020010151602001818152505050505050565b6000604051602001611ad2906020808252601b908201527a14d5509050d0d3d5539517d191505515549157d11254d050931151602a1b604082015260600190565b611d2982826124e2565b156105245760405163dd70e0c960e01b81526004810182905260240161012f565b6000611d5583611a9d565b60405163c769d1a160e01b81529091506001600160a01b0385169063c769d1a190611d869084908690600401613648565b602060405180830381865afa158015611da3573d6000803e3d6000fd5b505050506040513d601f19601f82011682018060405250810190611dc79190614047565b6118225782826040516326f8290f60e21b815260040161012f92919061307b565b6000611df5848484612555565b60405163340dbab360e01b815260048101829052600160248201529091506000906001600160a01b0388169063340dbab3906044016020604051808303816000875af1158015611e49573d6000803e3d6000fd5b505050506040513d601f19601f82011682018060405250810190611e6d91906133aa565b9050611e7c8786868685612592565b611e84612801565b8051611e91906002611b17565b6040805180820190915260078152661858d8dbdd5b9d60ca1b60208201528151611ebe9160009089611b7c565b60408051808201909152600a8152691cdd589858d8dbdd5b9d60b21b60208201528151611eee9160019088611b7c565b6020810151611efe906001611b17565b611f3b6000604051806040016040528060098152602001686e65787456616c756560b81b815250848460200151611c8b909392919063ffffffff16565b6080810151611f4b906001611b17565b60408051808201909152600a815269616374696f6e5479706560b01b60208201526080820151611f7e9160009087611c8b565b866001600160a01b03166363d16363611f9688611bd9565b611f9f88611bd9565b846040518463ffffffff1660e01b815260040161111093929190614064565b600080611fcb8484612166565b60405163bd02d0f560e01b8152600481018290529091506001600160a01b0386169063bd02d0f590602401602060405180830381865afa158015612013573d6000803e3d6000fd5b505050506040513d601f19601f8201168201806040525081019061203791906133aa565b95945050505050565b80156118225761204f8261114c565b604051632e1a7d4d60e01b8152600481018290526001600160a01b03841690632e1a7d4d90602401600060405180830381600087803b15801561209157600080fd5b505af11580156120a5573d6000803e3d6000fd5b505050506000846001600160a01b031663bd02d0f56040516020016120c990613edf565b604051602081830303815290604052805190602001206040518263ffffffff1660e01b81526004016120fd91815260200190565b602060405180830381865afa15801561211a573d6000803e3d6000fd5b505050506040513d601f19601f8201168201806040525081019061213e91906133aa565b90506000806000806000868887f19050801561215b575050611822565b610dcd8685856119e1565b60006040516020016121a9906020808252601d908201527f5355424143434f554e545f4155544f5f544f505f55505f414d4f554e54000000604082015260600190565b60408051601f198184030181528282528051602091820120908301526001600160a01b03808616918301919091528316606082015260800160405160208183030381529060405280519060200120905092915050565b80156118225761220e8261114c565b6000846001600160a01b031663bd02d0f56122288661265b565b6040518263ffffffff1660e01b815260040161224691815260200190565b602060405180830381865afa158015612263573d6000803e3d6000fd5b505050506040513d601f19601f8201168201806040525081019061228791906133aa565b9050806000036122ac5783604051634fe14bfd60e11b815260040161012f91906128ff565b60006122ba85858585612699565b50905080156122ca575050611822565b6000866001600160a01b03166321f8a72160405160200161230e906020808252600f908201526e484f4c44494e475f4144445245535360881b604082015260600190565b604051602081830303815290604052805190602001206040518263ffffffff1660e01b815260040161234291815260200190565b602060405180830381865afa15801561235f573d6000803e3d6000fd5b505050506040513d601f19601f820116820180604052508101906123839190612c29565b90506001600160a01b0381166123ac57604051633a6de2f560e21b815260040160405180910390fd5b6000806123bb88848888612699565b9150915081156123cf575050505050611822565b60006123da82612449565b5090507fc9f14d9a0a9b46470c7c0b6c508f8283abaab7f795f153953c58cd4250824dae818360405161240e9291906140b7565b60405180910390a160405163012f3b8f60e71b81526001600160a01b03808b166004830152891660248201526044810188905260640161012f565b60606000604483511015612470575050604080516020810190915260008082529092909150565b600061247d846020015190565b90506307b9e43360e51b6001600160e01b03198216016124bc57600484019350838060200190518101906124b191906140dc565b946001945092505050565b600060405180602001604052806000815250909250925050915091565b80518060208301fd5b604051633d70e7e560e11b8152600481018290526000906001600160a01b03841690637ae1cfca90602401602060405180830381865afa15801561252a573d6000803e3d6000fd5b505050506040513d601f19601f8201168201806040525081019061254e9190614047565b9392505050565b6000604051602001611c349060208082526017908201527614d5509050d0d3d5539517d050d51253d397d0d3d55395604a1b604082015260600190565b600061259f858585611be5565b60405163bd02d0f560e01b8152600481018290529091506000906001600160a01b0388169063bd02d0f590602401602060405180830381865afa1580156125ea573d6000803e3d6000fd5b505050506040513d601f19601f8201168201806040525081019061260e91906133aa565b9050808311156126525760405163519ba75360e01b81526001600160a01b03808816600483015286166024820152604481018490526064810182905260840161012f565b50505050505050565b6000604051602001611ad2906020808252601890820152771513d2d15397d514905394d1915497d1d054d7d31253525560421b604082015260600190565b60006060600063a9059cbb60e01b86866040516024016126ba929190612c46565b604051602081830303815290604052906001600160e01b0319166020820180516001600160e01b0383818316178352505050509050600080886001600160a01b0316868460405161270b919061416f565b60006040518083038160008787f1925050503d8060008114612749576040519150601f19603f3d011682016040523d82523d6000602084013e61274e565b606091505b509150915081156127ef5780516000036127ac576001600160a01b0389163b6127ac5760006040518060400160405280601481526020017310d85b1b081d1bc81b9bdb8b58dbdb9d1c9858dd60621b815250945094505050506127f8565b600081511180156127ce5750808060200190518101906127cc9190614047565b155b156127e1576000945092506127f8915050565b6001945092506127f8915050565b60009450925050505b94509492505050565b604080516101208101909152606060e0820181815261010083019190915281908152602001612843604051806040016040528060608152602001606081525090565b8152602001612865604051806040016040528060608152602001606081525090565b8152602001612887604051806040016040528060608152602001606081525090565b81526020016128a9604051806040016040528060608152602001606081525090565b81526020016128cb604051806040016040528060608152602001606081525090565b81526020016128ed604051806040016040528060608152602001606081525090565b905290565b6001600160a01b03169052565b6001600160a01b0391909116815260200190565b6001600160a01b038116811461047457600080fd5b803561293381612913565b919050565b60006020828403121561294a57600080fd5b813561254e81612913565b60008060006060848603121561296a57600080fd5b833561297581612913565b95602085013595506040909401359392505050565b6000806040838503121561299d57600080fd5b82356129a881612913565b946020939093013593505050565b6000602082840312156129c857600080fd5b5035919050565b600080604083850312156129e257600080fd5b82356129ed81612913565b915060208301356001600160401b03811115612a0857600080fd5b83016101c08186031215612a1b57600080fd5b809150509250929050565b60008060208385031215612a3957600080fd5b82356001600160401b0380821115612a5057600080fd5b818501915085601f830112612a6457600080fd5b813581811115612a7357600080fd5b8660208260051b8501011115612a8857600080fd5b60209290920196919550909350505050565b60005b83811015612ab5578181015183820152602001612a9d565b50506000910152565b60008151808452612ad6816020860160208601612a9a565b601f01601f19169290920160200192915050565b600081518084526020808501808196508360051b8101915082860160005b85811015612b32578284038952612b20848351612abe565b98850198935090840190600101612b08565b5091979650505050505050565b60208152600061254e6020830184612aea565b600080600060608486031215612b6757600080fd5b8335612b7281612913565b92506020840135612b8281612913565b929592945050506040919091013590565b801515811461047457600080fd5b803561293381612b93565b60008060008060008060c08789031215612bc557600080fd5b863595506020870135945060408701359350606087013592506080870135915060a0870135612bf381612b93565b809150509295509295509295565b60208082526003908201526215d39560ea1b604082015260600190565b805161293381612913565b600060208284031215612c3b57600080fd5b815161254e81612913565b6001600160a01b03929092168252602082015260400190565b634e487b7160e01b600052604160045260246000fd5b60405161016081016001600160401b0381118282101715612c9857612c98612c5f565b60405290565b604051606081016001600160401b0381118282101715612c9857612c98612c5f565b60405161010081016001600160401b0381118282101715612c9857612c98612c5f565b604051601f8201601f191681016001600160401b0381118282101715612d0b57612d0b612c5f565b604052919050565b600082601f830112612d2457600080fd5b815160206001600160401b03821115612d3f57612d3f612c5f565b8160051b612d4e828201612ce3565b9283528481018201928281019087851115612d6857600080fd5b83870192505b84831015612d90578251612d8181612913565b82529183019190830190612d6e565b979650505050505050565b6008811061047457600080fd5b805161293381612d9b565b6003811061047457600080fd5b805161293381612db3565b60006101608284031215612dde57600080fd5b612de6612c75565b9050612df182612da8565b8152612dff60208301612dc0565b602082015260408201516040820152606082015160608201526080820151608082015260a082015160a082015260c082015160c082015260e082015160e082015261010080830151818301525061012080830151818301525061014080830151818301525092915050565b600060808284031215612e7c57600080fd5b604051608081016001600160401b0381118282101715612e9e57612e9e612c5f565b80604052508091508251612eb181612b93565b81526020830151612ec181612b93565b60208201526040830151612ed481612b93565b60408201526060830151612ee781612b93565b6060919091015292915050565b600060208284031215612f0657600080fd5b81516001600160401b0380821115612f1d57600080fd5b908301906102008286031215612f3257600080fd5b612f3a612c9e565b825182811115612f4957600080fd5b83016101008188031215612f5c57600080fd5b612f64612cc0565b612f6d82612c1e565b8152612f7b60208301612c1e565b6020820152612f8c60408301612c1e565b6040820152612f9d60608301612c1e565b6060820152612fae60808301612c1e565b6080820152612fbf60a08301612c1e565b60a0820152612fd060c08301612c1e565b60c082015260e082015184811115612fe757600080fd5b612ff389828501612d13565b60e0830152508252506130098660208501612dcb565b602082015261301c866101808501612e6a565b604082015295945050505050565b60208082526017908201527629aaa120a1a1a7aaa72a2fa7a92222a92fa0a1aa24a7a760491b604082015260600190565b6000823560de1983360301811261307157600080fd5b9190910192915050565b6001600160a01b0392831681529116602082015260400190565b634e487b7160e01b600052602160045260246000fd5b803561293381612d9b565b6000602082840312156130c857600080fd5b813561254e81612d9b565b6001600160a01b039485168152928416602084015292166040820152606081019190915260800190565b6000808335601e1984360301811261311457600080fd5b83016020810192503590506001600160401b0381111561313357600080fd5b8060051b360382131561314557600080fd5b9250929050565b8183526000602080850194508260005b8581101561318a57813561316f81612913565b6001600160a01b03168752958201959082019060010161315c565b509495945050505050565b600081356131a281612913565b6001600160a01b0390811684526020830135906131be82612913565b90811660208501526040830135906131d582612913565b90811660408501526060830135906131ec82612913565b908116606085015260808301359061320382612913565b16608084015261321560a08301612928565b61322260a08501826128f2565b5061323060c08301836130fd565b60e060c086015261203760e08601828461314c565b6008811061325557613255613095565b9052565b803561293381612db3565b6003811061325557613255613095565b6001600160a01b038316815260406020820152600082353684900360de1901811261329e57600080fd5b6101c08060408501526132b76102008501868401613195565b91506133086060850160208701803582526020810135602083015260408101356040830152606081013560608301526080810135608083015260a081013560a083015260c081013560c08301525050565b61331561010086016130ab565b61014061332481870183613245565b6133316101208801613259565b915061016061334281880184613264565b61334d828901612ba1565b925061018091506133618288018415159052565b61336c818901612ba1565b9250506101a061337f8188018415159052565b61338a828901612ba1565b151593870193909352505093909301356101e09092019190915250919050565b6000602082840312156133bc57600080fd5b5051919050565b634e487b7160e01b600052603260045260246000fd5b6000808335601e198436030181126133f057600080fd5b8301803591506001600160401b0382111561340a57600080fd5b60200191503681900382131561314557600080fd5b8183823760009101908152919050565b634e487b7160e01b600052601160045260246000fd5b6000600182016134575761345761342f565b5060010190565b600081518084526020808501945080840160005b8381101561318a5781516001600160a01b031687529582019590820190600101613472565b6134a2828251613245565b60208101516134b46020840182613264565b5060408101516040830152606081015160608301526080810151608083015260a081015160a083015260c081015160c083015260e081015160e08301526101008082015181840152506101208082015181840152506101408082015181840152505050565b87815286602082015285604082015284606082015283608082015282151560a082015260e060c08201526000825161020060e084015260018060a01b03808251166102e0850152806020830151166103008501525060408101516135816103208501826128f2565b5060608101516135956103408501826128f2565b5060808101516135a96103608501826128f2565b5060a08101516135bd6103808501826128f2565b5060c08101516135d16103a08501826128f2565b5060e001516101006103c084018190526135ef6103e085018361345e565b9150602085015161360282860182613497565b505060408481015180511515610260860152602081015115156102808601529081015115156102a0850152606081015115156102c0850152509998505050505050505050565b9182526001600160a01b0316602082015260400190565b600081518084526020808501808196508360051b8101915082860160005b85811015612b3257828403895281516040815181875261369f82880182612abe565b915050868201519150858103878701526136b9818361345e565b9a87019a955050509084019060010161367d565b60006040808401835182865281815180845260608801915060608160051b89010193506020808401935060005b8281101561374457898603605f190184528451805188885261371e89890182612abe565b918401516001600160a01b031697840197909752955093810193928101926001016136fa565b50808801519550888503818a015250505050612037818361365f565b600081518084526020808501808196508360051b810191508286016000805b868110156137f2578385038a528251604081518188526137a182890182612abe565b92890151888403898b01528051808552908a01938693508a0191505b808310156137dd57835182529289019260019290920191908901906137bd565b509b88019b965050509185019160010161377f565b509298975050505050505050565b60006040808401835182865281815180845260608801915060608160051b89010193506020808401935060005b8281101561386e57898603605f190184528451805188885261385189890182612abe565b91840151978401979097529550938101939281019260010161382d565b50808801519550888503818a0152505050506120378183613760565b60006040808401835182865281815180845260608801915060608160051b89010193506020808401935060005b8281101561386e57898603605f19018452845180518888526138db89890182612abe565b9184015197840197909752955093810193928101926001016138b7565b600081518084526020808501808196508360051b810191508286016000805b868110156137f2578385038a5282516040815181885261393982890182612abe565b92890151888403898b01528051808552908a01938693508a0191505b8083101561397757835115158252928901926001929092019190890190613955565b509b88019b9650505091850191600101613917565b60006040808401835182865281815180845260608801915060608160051b89010193506020808401935060005b828110156139fc57898603605f19018452845180518888526139dd89890182612abe565b91840151151597840197909752955093810193928101926001016139b9565b50808801519550888503818a01525050505061203781836138f8565b600081518084526020808501808196508360051b810191508286016000805b868110156137f2578385038a52825160408151818852613a5982890182612abe565b92890151888403898b01528051808552908a01938693508a0191505b80831015613a955783518252928901926001929092019190890190613a75565b509b88019b9650505091850191600101613a37565b60006040808401835182865281815180845260608801915060608160051b89010193506020808401935060005b82811015613b1857898603605f1901845284518051888852613afb89890182612abe565b918401519784019790975295509381019392810192600101613ad7565b50808801519550888503818a0152505050506120378183613a18565b600081518084526020808501808196508360051b8101915082860160005b85811015612b32578284038952815160408151818752613b7482880182612abe565b91505086820151915085810387870152613b8e8183612aea565b9a87019a9550505090840190600101613b52565b60006040808401835182865281815180845260608801915060608160051b89010193506020808401935060005b82811015613c1f57898603605f1901845284518051888852613bf389890182612abe565b9184015188830389860152919050613c0b8183612abe565b975050509381019392810192600101613bcf565b50808801519550888503818a0152505050506120378183613b34565b600081518084526020808501808196506005915083821b81018387016000805b87811015613ce6578484038b52825160408151818752613c7d82880182612abe565b928a0151878403888c01528051808552908b019392508a83019150808a1b83018b01865b82811015613ccf57601f19858303018452613cbd828751612abe565b958d0195938d01939150600101613ca1565b509e8b019e97505050938801935050600101613c5b565b50919998505050505050505050565b60006040808401835182865281815180845260608801915060608160051b89010193506020808401935060005b82811015613d7257898603605f1901845284518051888852613d4689890182612abe565b9184015188830389860152919050613d5e8183612abe565b975050509381019392810192600101613d22565b50808801519550888503818a0152505050506120378183613c3b565b6000815160e08452613da360e08501826136cd565b905060208301518482036020860152613dbc8282613800565b91505060408301518482036040860152613dd6828261388a565b91505060608301518482036060860152613df0828261398c565b91505060808301518482036080860152613e0a8282613aaa565b91505060a083015184820360a0860152613e248282613ba2565b91505060c083015184820360c08601526120378282613cf5565b60808152600d60808201526c10591914dd589858d8dbdd5b9d609a1b60a082015283602082015282604082015260c06060820152600061203760c0830184613d8e565b60808152602260808201527f5365744d6178416c6c6f7765645375626163636f756e74416374696f6e436f7560a0820152611b9d60f21b60c082015283602082015282604082015260e06060820152600061203760e0830184613d8e565b6020808252601f908201527f4e41544956455f544f4b454e5f5452414e534645525f4741535f4c494d495400604082015260600190565b60808152601060808201526f14995b5bdd9954dd589858d8dbdd5b9d60821b60a082015283602082015282604082015260c06060820152600061203760c0830184613d8e565b8181038181111561040e5761040e61342f565b808202811582820484141761040e5761040e61342f565b8082018082111561040e5761040e61342f565b60808152601360808201527205375626163636f756e744175746f546f70557606c1b60a082015283602082015282604082015260c06060820152600061203760c0830184613d8e565b60808152601c60808201527b14d95d14dd589858d8dbdd5b9d105d5d1bd51bdc155c105b5bdd5b9d60221b60a082015283602082015282604082015260c06060820152600061203760c0830184613d8e565b60208152600061254e6020830184612abe565b60006020828403121561405957600080fd5b815161254e81612b93565b60808152601e60808201527f496e6372656d656e745375626163636f756e74416374696f6e436f756e74000060a082015283602082015282604082015260c06060820152600061203760c0830184613d8e565b6040815260006140ca6040830185612abe565b82810360208401526120378185612abe565b6000602082840312156140ee57600080fd5b81516001600160401b038082111561410557600080fd5b818401915084601f83011261411957600080fd5b81518181111561412b5761412b612c5f565b61413e601f8201601f1916602001612ce3565b915080825285602082850101111561415557600080fd5b614166816020840160208601612a9a565b50949350505050565b60008251613071818460208701612a9a56fea26469706673582212208460225a16613d359eeef0a8ecde75c99db228cf673c2052fe3ced1c9ab05d7d64736f6c63430008120033",
  "libraries": {
    "OrderStoreUtils": "0x805a15bf16582eC8d76841062A47dFfEa7903131"
  },
  "devdoc": {
    "kind": "dev",
    "methods": {
      "multicall(bytes[])": {
        "details": "Receives and executes a batch of function calls on this contract."
      }
    },
    "version": 1
  },
  "userdoc": {
    "kind": "user",
    "methods": {},
    "version": 1
  },
  "storageLayout": {
    "storage": [
      {
        "astId": 115,
        "contract": "contracts/router/SubaccountRouter.sol:SubaccountRouter",
        "label": "_status",
        "offset": 0,
        "slot": "0",
        "type": "t_uint256"
      }
    ],
    "types": {
      "t_uint256": {
        "encoding": "inplace",
        "label": "uint256",
        "numberOfBytes": "32"
      }
    }
  }
}