{
  "_format": "hh-sol-artifact-1",
  "contractName": "Reader",
  "sourceName": "contracts/reader/Reader.sol",
  "abi": [
    {
      "inputs": [
        {
          "internalType": "contract DataStore",
          "name": "dataStore",
          "type": "address"
        },
        {
          "components": [
            {
              "internalType": "address",
              "name": "marketToken",
              "type": "address"
            },
            {
              "internalType": "address",
              "name": "indexToken",
              "type": "address"
            },
            {
              "internalType": "address",
              "name": "longToken",
              "type": "address"
            },
            {
              "internalType": "address",
              "name": "shortToken",
              "type": "address"
            },
            {
              "internalType": "bytes",
              "name": "data",
              "type": "bytes"
            }
          ],
          "internalType": "struct Market.Props",
          "name": "market",
          "type": "tuple"
        },
        {
          "components": [
            {
              "internalType": "uint256",
              "name": "min",
              "type": "uint256"
            },
            {
              "internalType": "uint256",
              "name": "max",
              "type": "uint256"
            }
          ],
          "internalType": "struct Price.Props",
          "name": "longTokenPrice",
          "type": "tuple"
        },
        {
          "components": [
            {
              "internalType": "uint256",
              "name": "min",
              "type": "uint256"
            },
            {
              "internalType": "uint256",
              "name": "max",
              "type": "uint256"
            }
          ],
          "internalType": "struct Price.Props",
          "name": "shortTokenPrice",
          "type": "tuple"
        },
        {
          "components": [
            {
              "internalType": "uint256",
              "name": "min",
              "type": "uint256"
            },
            {
              "internalType": "uint256",
              "name": "max",
              "type": "uint256"
            }
          ],
          "internalType": "struct Price.Props",
          "name": "indexTokenPrice",
          "type": "tuple"
        },
        {
          "internalType": "bool",
          "name": "maximize",
          "type": "bool"
        }
      ],
      "name": "getMarketTokenPrice",
      "outputs": [
        {
          "internalType": "uint256",
          "name": "",
          "type": "uint256"
        }
      ],
      "stateMutability": "view",
      "type": "function"
    },
    {
      "inputs": [
        {
          "internalType": "contract DataStore",
          "name": "dataStore",
          "type": "address"
        },
        {
          "internalType": "address",
          "name": "market",
          "type": "address"
        },
        {
          "internalType": "address",
          "name": "token",
          "type": "address"
        }
      ],
      "name": "getPoolAmount",
      "outputs": [
        {
          "internalType": "uint256",
          "name": "",
          "type": "uint256"
        }
      ],
      "stateMutability": "view",
      "type": "function"
    },
    {
      "inputs": [
        {
          "internalType": "contract DataStore",
          "name": "dataStore",
          "type": "address"
        },
        {
          "internalType": "address",
          "name": "market",
          "type": "address"
        },
        {
          "internalType": "address",
          "name": "token",
          "type": "address"
        }
      ],
      "name": "getSwapImpactPoolAmount",
      "outputs": [
        {
          "internalType": "uint256",
          "name": "",
          "type": "uint256"
        }
      ],
      "stateMutability": "view",
      "type": "function"
    }
  ],
  "bytecode": "0x608060405234801561001057600080fd5b50610db3806100206000396000f3fe608060405234801561001057600080fd5b50600436106100415760003560e01c8063075612fc14610046578063a36eb91b1461006b578063b25f24da1461007e575b600080fd5b610059610054366004610acc565b610091565b60405190815260200160405180910390f35b610059610079366004610c31565b6100ae565b61005961008c366004610c31565b6100c5565b60006100a18787878787876100d2565b90505b9695505050505050565b60006100bb848484610132565b90505b9392505050565b60006100bb8484846101ac565b6000806100e38888888888886101c7565b9050806000036100f75760009150506100a4565b600061010688600001516102ed565b90508061011b670de0b6b3a764000084610c92565b6101259190610cb1565b9998505050505050505050565b6000836001600160a01b031663bd02d0f561014d8585610357565b6040518263ffffffff1660e01b815260040161016b91815260200190565b602060405180830381865afa158015610188573d6000803e3d6000fd5b505050506040513d601f19601f820116820180604052508101906100bb9190610cd3565b6000836001600160a01b031663bd02d0f561014d85856103df565b6000806101dd8888600001518960400151610132565b905060006101f48989600001518a60600151610132565b90506000610202888661041c565b61020c9084610c92565b9050610218878661041c565b6102229083610c92565b61022c9082610cec565b90506102488a8a600001518b604001518c606001516001610433565b6102529082610cec565b905061026e8a8a600001518b604001518c606001516000610433565b6102789082610cec565b9050600061028a8b8b60000151610478565b9050610296878761041c565b6102a09082610c92565b6102aa9083610cec565b915060006102c98c8c600001518d604001518e606001518c8c156104f1565b90506102dd836102d883610cff565b610524565b9c9b505050505050505050505050565b6000816001600160a01b03166318160ddd6040518163ffffffff1660e01b8152600401602060405180830381865afa15801561032d573d6000803e3d6000fd5b505050506040513d601f19601f820116820180604052508101906103519190610cd3565b92915050565b6000604051602001610388906020808252600b908201526a1413d3d317d05353d5539560aa1b604082015260600190565b60408051601f198184030181528282528051602091820120908301526001600160a01b0380861691830191909152831660608201526080015b60405160208183030381529060405280519060200120905092915050565b60006040516020016103889060208082526017908201527614d5d05417d253541050d517d413d3d317d05353d55395604a1b604082015260600190565b60008161042a5782516100be565b50506020015190565b600080610443878787878761055b565b90506000610452888886610592565b905060006104618989876105ad565b90508061046e8385610c92565b6101259190610d1b565b6000826001600160a01b031663bd02d0f5610492846105c8565b6040518263ffffffff1660e01b81526004016104b091815260200190565b602060405180830381865afa1580156104cd573d6000803e3d6000fd5b505050506040513d601f19601f820116820180604052508101906100be9190610cd3565b6000806105048888888888600189610653565b90506000610518898989898960008a610653565b90506101258183610d2e565b60008082131561054857610537826106ec565b6105419084610cec565b9050610351565b610551826106ec565b6100be9084610d1b565b60008061056a87878786610703565b9050600061057a88888787610703565b90506105868183610cec565b98975050505050505050565b6000836001600160a01b031663bd02d0f561014d8585610787565b6000836001600160a01b031663bd02d0f561014d8585610802565b6000604051602001610609906020808252601b908201527a1413d4d2551253d397d253541050d517d413d3d317d05353d55395602a1b604082015260600190565b60408051601f198184030181528282528051602091820120908301526001600160a01b03841690820152606001604051602081830303815290604052805190602001209050919050565b60008061066b6106668a8a8a8a8961055b565b610837565b9050600061067c8a8a8a8a896108a5565b9050811580610689575080155b15610699576000925050506106e1565b60006106a68787876108c4565b905060006106b76106668385610c92565b90506000876106cf576106ca8286610d56565b6106d9565b6106d98583610d56565b955050505050505b979650505050505050565b6000808212156106ff5781600003610351565b5090565b6000846001600160a01b031663bd02d0f561071f8686866108fd565b6040518263ffffffff1660e01b815260040161073d91815260200190565b602060405180830381865afa15801561075a573d6000803e3d6000fd5b505050506040513d601f19601f8201168201806040525081019061077e9190610cd3565b95945050505050565b60006040516020016107c8906020808252601b908201527a21aaa6aaa620aa24ab22afa127a92927aba4a723afa320a1aa27a960291b604082015260600190565b60408051601f198184030181528282528051602091820120908301526001600160a01b0385169082015282151560608201526080016103c1565b60006040516020016107c8906020808252600f908201526e544f54414c5f424f52524f57494e4760881b604082015260600190565b60006001600160ff1b038211156106ff5760405162461bcd60e51b815260206004820152602860248201527f53616665436173743a2076616c756520646f65736e27742066697420696e2061604482015267371034b73a191a9b60c11b606482015260840160405180910390fd5b6000806108b48787878661098f565b9050600061057a8888878761098f565b600082156108e557816108d85783516108de565b83602001515b90506100be565b816108f45783602001516100bb565b50509051919050565b6000604051602001610930906020808252600d908201526c13d4115397d2539511549154d5609a1b604082015260600190565b60408051601f198184030181528282528051602091820120908301526001600160a01b038087169183019190915284166060820152821515608082015260a0016040516020818303038152906040528051906020012090509392505050565b6000846001600160a01b031663bd02d0f561071f8686866000604051602001610930906020808252601790820152764f50454e5f494e5445524553545f494e5f544f4b454e5360481b604082015260600190565b6001600160a01b03811681146109f857600080fd5b50565b634e487b7160e01b600052604160045260246000fd5b60405160a081016001600160401b0381118282101715610a3357610a336109fb565b60405290565b604051601f8201601f191681016001600160401b0381118282101715610a6157610a616109fb565b604052919050565b600060408284031215610a7b57600080fd5b604080519081016001600160401b0381118282101715610a9d57610a9d6109fb565b604052823581526020928301359281019290925250919050565b80358015158114610ac757600080fd5b919050565b6000806000806000806101208789031215610ae657600080fd5b8635610af1816109e3565b95506020878101356001600160401b0380821115610b0e57600080fd5b9089019060a0828c031215610b2257600080fd5b610b2a610a11565b8235610b35816109e3565b815282840135610b44816109e3565b818501526040830135610b56816109e3565b60408201526060830135610b69816109e3565b6060820152608083013582811115610b8057600080fd5b8084019350508b601f840112610b9557600080fd5b823582811115610ba757610ba76109fb565b610bb9601f8201601f19168601610a39565b92508083528c85828601011115610bcf57600080fd5b80858501868501376000908301909401939093526080830152509450610bf88860408901610a69565b9350610c078860808901610a69565b9250610c168860c08901610a69565b9150610c256101008801610ab7565b90509295509295509295565b600080600060608486031215610c4657600080fd5b8335610c51816109e3565b92506020840135610c61816109e3565b91506040840135610c71816109e3565b809150509250925092565b634e487b7160e01b600052601160045260246000fd5b6000816000190483118215151615610cac57610cac610c7c565b500290565b600082610cce57634e487b7160e01b600052601260045260246000fd5b500490565b600060208284031215610ce557600080fd5b5051919050565b8082018082111561035157610351610c7c565b6000600160ff1b8201610d1457610d14610c7c565b5060000390565b8181038181111561035157610351610c7c565b8082018281126000831280158216821582161715610d4e57610d4e610c7c565b505092915050565b8181036000831280158383131683831282161715610d7657610d76610c7c565b509291505056fea26469706673582212204f29a7b17230541ac59fd2ddb632000e2cf3ae9153d9d7a85db11547a72509aa64736f6c63430008100033",
  "linkReferences": {},
  "deployedLinkReferences": {}
}