{
  "_format": "hh-sol-artifact-1",
  "contractName": "Reader",
  "sourceName": "contracts/reader/Reader.sol",
  "abi": [
    {
      "inputs": [
        {
          "internalType": "uint256",
          "name": "x",
          "type": "uint256"
        }
      ],
      "name": "PRBMathUD60x18__Exp2InputTooBig",
      "type": "error"
    },
    {
      "inputs": [
        {
          "internalType": "uint256",
          "name": "x",
          "type": "uint256"
        }
      ],
      "name": "PRBMathUD60x18__LogInputTooSmall",
      "type": "error"
    },
    {
      "inputs": [
        {
          "internalType": "uint256",
          "name": "prod1",
          "type": "uint256"
        }
      ],
      "name": "PRBMath__MulDivFixedPointOverflow",
      "type": "error"
    },
    {
      "inputs": [],
      "name": "UnableToGetBorrowingFactorEmptyPoolUsd",
      "type": "error"
    },
    {
      "inputs": [
        {
          "internalType": "contract DataStore",
          "name": "dataStore",
          "type": "address"
        },
        {
          "internalType": "address",
          "name": "account",
          "type": "address"
        },
        {
          "internalType": "uint256",
          "name": "start",
          "type": "uint256"
        },
        {
          "internalType": "uint256",
          "name": "end",
          "type": "uint256"
        }
      ],
      "name": "getAccountOrders",
      "outputs": [
        {
          "components": [
            {
              "components": [
                {
                  "internalType": "address",
                  "name": "account",
                  "type": "address"
                },
                {
                  "internalType": "address",
                  "name": "receiver",
                  "type": "address"
                },
                {
                  "internalType": "address",
                  "name": "callbackContract",
                  "type": "address"
                },
                {
                  "internalType": "address",
                  "name": "uiFeeReceiver",
                  "type": "address"
                },
                {
                  "internalType": "address",
                  "name": "market",
                  "type": "address"
                },
                {
                  "internalType": "address",
                  "name": "initialCollateralToken",
                  "type": "address"
                },
                {
                  "internalType": "address[]",
                  "name": "swapPath",
                  "type": "address[]"
                }
              ],
              "internalType": "struct Order.Addresses",
              "name": "addresses",
              "type": "tuple"
            },
            {
              "components": [
                {
                  "internalType": "enum Order.OrderType",
                  "name": "orderType",
                  "type": "uint8"
                },
                {
                  "internalType": "enum Order.DecreasePositionSwapType",
                  "name": "decreasePositionSwapType",
                  "type": "uint8"
                },
                {
                  "internalType": "uint256",
                  "name": "sizeDeltaUsd",
                  "type": "uint256"
                },
                {
                  "internalType": "uint256",
                  "name": "initialCollateralDeltaAmount",
                  "type": "uint256"
                },
                {
                  "internalType": "uint256",
                  "name": "triggerPrice",
                  "type": "uint256"
                },
                {
                  "internalType": "uint256",
                  "name": "acceptablePrice",
                  "type": "uint256"
                },
                {
                  "internalType": "uint256",
                  "name": "executionFee",
                  "type": "uint256"
                },
                {
                  "internalType": "uint256",
                  "name": "callbackGasLimit",
                  "type": "uint256"
                },
                {
                  "internalType": "uint256",
                  "name": "minOutputAmount",
                  "type": "uint256"
                },
                {
                  "internalType": "uint256",
                  "name": "updatedAtBlock",
                  "type": "uint256"
                }
              ],
              "internalType": "struct Order.Numbers",
              "name": "numbers",
              "type": "tuple"
            },
            {
              "components": [
                {
                  "internalType": "bool",
                  "name": "isLong",
                  "type": "bool"
                },
                {
                  "internalType": "bool",
                  "name": "shouldUnwrapNativeToken",
                  "type": "bool"
                },
                {
                  "internalType": "bool",
                  "name": "isFrozen",
                  "type": "bool"
                }
              ],
              "internalType": "struct Order.Flags",
              "name": "flags",
              "type": "tuple"
            }
          ],
          "internalType": "struct Order.Props[]",
          "name": "",
          "type": "tuple[]"
        }
      ],
      "stateMutability": "view",
      "type": "function"
    },
    {
      "inputs": [
        {
          "internalType": "contract DataStore",
          "name": "dataStore",
          "type": "address"
        },
        {
          "internalType": "contract IReferralStorage",
          "name": "referralStorage",
          "type": "address"
        },
        {
          "internalType": "bytes32[]",
          "name": "positionKeys",
          "type": "bytes32[]"
        },
        {
          "components": [
            {
              "components": [
                {
                  "internalType": "uint256",
                  "name": "min",
                  "type": "uint256"
                },
                {
                  "internalType": "uint256",
                  "name": "max",
                  "type": "uint256"
                }
              ],
              "internalType": "struct Price.Props",
              "name": "indexTokenPrice",
              "type": "tuple"
            },
            {
              "components": [
                {
                  "internalType": "uint256",
                  "name": "min",
                  "type": "uint256"
                },
                {
                  "internalType": "uint256",
                  "name": "max",
                  "type": "uint256"
                }
              ],
              "internalType": "struct Price.Props",
              "name": "longTokenPrice",
              "type": "tuple"
            },
            {
              "components": [
                {
                  "internalType": "uint256",
                  "name": "min",
                  "type": "uint256"
                },
                {
                  "internalType": "uint256",
                  "name": "max",
                  "type": "uint256"
                }
              ],
              "internalType": "struct Price.Props",
              "name": "shortTokenPrice",
              "type": "tuple"
            }
          ],
          "internalType": "struct MarketUtils.MarketPrices[]",
          "name": "prices",
          "type": "tuple[]"
        },
        {
          "internalType": "address",
          "name": "uiFeeReceiver",
          "type": "address"
        }
      ],
      "name": "getAccountPositionInfoList",
      "outputs": [
        {
          "components": [
            {
              "components": [
                {
                  "components": [
                    {
                      "internalType": "address",
                      "name": "account",
                      "type": "address"
                    },
                    {
                      "internalType": "address",
                      "name": "market",
                      "type": "address"
                    },
                    {
                      "internalType": "address",
                      "name": "collateralToken",
                      "type": "address"
                    }
                  ],
                  "internalType": "struct Position.Addresses",
                  "name": "addresses",
                  "type": "tuple"
                },
                {
                  "components": [
                    {
                      "internalType": "uint256",
                      "name": "sizeInUsd",
                      "type": "uint256"
                    },
                    {
                      "internalType": "uint256",
                      "name": "sizeInTokens",
                      "type": "uint256"
                    },
                    {
                      "internalType": "uint256",
                      "name": "collateralAmount",
                      "type": "uint256"
                    },
                    {
                      "internalType": "uint256",
                      "name": "borrowingFactor",
                      "type": "uint256"
                    },
                    {
                      "internalType": "int256",
                      "name": "longTokenFundingAmountPerSize",
                      "type": "int256"
                    },
                    {
                      "internalType": "int256",
                      "name": "shortTokenFundingAmountPerSize",
                      "type": "int256"
                    },
                    {
                      "internalType": "uint256",
                      "name": "increasedAtBlock",
                      "type": "uint256"
                    },
                    {
                      "internalType": "uint256",
                      "name": "decreasedAtBlock",
                      "type": "uint256"
                    }
                  ],
                  "internalType": "struct Position.Numbers",
                  "name": "numbers",
                  "type": "tuple"
                },
                {
                  "components": [
                    {
                      "internalType": "bool",
                      "name": "isLong",
                      "type": "bool"
                    }
                  ],
                  "internalType": "struct Position.Flags",
                  "name": "flags",
                  "type": "tuple"
                }
              ],
              "internalType": "struct Position.Props",
              "name": "position",
              "type": "tuple"
            },
            {
              "components": [
                {
                  "components": [
                    {
                      "internalType": "bytes32",
                      "name": "referralCode",
                      "type": "bytes32"
                    },
                    {
                      "internalType": "address",
                      "name": "affiliate",
                      "type": "address"
                    },
                    {
                      "internalType": "address",
                      "name": "trader",
                      "type": "address"
                    },
                    {
                      "internalType": "uint256",
                      "name": "totalRebateFactor",
                      "type": "uint256"
                    },
                    {
                      "internalType": "uint256",
                      "name": "traderDiscountFactor",
                      "type": "uint256"
                    },
                    {
                      "internalType": "uint256",
                      "name": "totalRebateAmount",
                      "type": "uint256"
                    },
                    {
                      "internalType": "uint256",
                      "name": "traderDiscountAmount",
                      "type": "uint256"
                    },
                    {
                      "internalType": "uint256",
                      "name": "affiliateRewardAmount",
                      "type": "uint256"
                    }
                  ],
                  "internalType": "struct PositionPricingUtils.PositionReferralFees",
                  "name": "referral",
                  "type": "tuple"
                },
                {
                  "components": [
                    {
                      "internalType": "uint256",
                      "name": "fundingFeeAmount",
                      "type": "uint256"
                    },
                    {
                      "internalType": "uint256",
                      "name": "claimableLongTokenAmount",
                      "type": "uint256"
                    },
                    {
                      "internalType": "uint256",
                      "name": "claimableShortTokenAmount",
                      "type": "uint256"
                    },
                    {
                      "internalType": "int256",
                      "name": "latestLongTokenFundingAmountPerSize",
                      "type": "int256"
                    },
                    {
                      "internalType": "int256",
                      "name": "latestShortTokenFundingAmountPerSize",
                      "type": "int256"
                    }
                  ],
                  "internalType": "struct PositionPricingUtils.PositionFundingFees",
                  "name": "funding",
                  "type": "tuple"
                },
                {
                  "components": [
                    {
                      "internalType": "uint256",
                      "name": "borrowingFeeUsd",
                      "type": "uint256"
                    },
                    {
                      "internalType": "uint256",
                      "name": "borrowingFeeAmount",
                      "type": "uint256"
                    },
                    {
                      "internalType": "uint256",
                      "name": "borrowingFeeReceiverFactor",
                      "type": "uint256"
                    },
                    {
                      "internalType": "uint256",
                      "name": "borrowingFeeAmountForFeeReceiver",
                      "type": "uint256"
                    }
                  ],
                  "internalType": "struct PositionPricingUtils.PositionBorrowingFees",
                  "name": "borrowing",
                  "type": "tuple"
                },
                {
                  "components": [
                    {
                      "internalType": "address",
                      "name": "uiFeeReceiver",
                      "type": "address"
                    },
                    {
                      "internalType": "uint256",
                      "name": "uiFeeReceiverFactor",
                      "type": "uint256"
                    },
                    {
                      "internalType": "uint256",
                      "name": "uiFeeAmount",
                      "type": "uint256"
                    }
                  ],
                  "internalType": "struct PositionPricingUtils.PositionUiFees",
                  "name": "ui",
                  "type": "tuple"
                },
                {
                  "components": [
                    {
                      "internalType": "uint256",
                      "name": "min",
                      "type": "uint256"
                    },
                    {
                      "internalType": "uint256",
                      "name": "max",
                      "type": "uint256"
                    }
                  ],
                  "internalType": "struct Price.Props",
                  "name": "collateralTokenPrice",
                  "type": "tuple"
                },
                {
                  "internalType": "uint256",
                  "name": "positionFeeFactor",
                  "type": "uint256"
                },
                {
                  "internalType": "uint256",
                  "name": "protocolFeeAmount",
                  "type": "uint256"
                },
                {
                  "internalType": "uint256",
                  "name": "positionFeeReceiverFactor",
                  "type": "uint256"
                },
                {
                  "internalType": "uint256",
                  "name": "feeReceiverAmount",
                  "type": "uint256"
                },
                {
                  "internalType": "uint256",
                  "name": "feeAmountForPool",
                  "type": "uint256"
                },
                {
                  "internalType": "uint256",
                  "name": "positionFeeAmountForPool",
                  "type": "uint256"
                },
                {
                  "internalType": "uint256",
                  "name": "positionFeeAmount",
                  "type": "uint256"
                },
                {
                  "internalType": "uint256",
                  "name": "totalCostAmountExcludingFunding",
                  "type": "uint256"
                },
                {
                  "internalType": "uint256",
                  "name": "totalCostAmount",
                  "type": "uint256"
                }
              ],
              "internalType": "struct PositionPricingUtils.PositionFees",
              "name": "fees",
              "type": "tuple"
            },
            {
              "components": [
                {
                  "internalType": "int256",
                  "name": "priceImpactUsd",
                  "type": "int256"
                },
                {
                  "internalType": "uint256",
                  "name": "priceImpactDiffUsd",
                  "type": "uint256"
                },
                {
                  "internalType": "uint256",
                  "name": "executionPrice",
                  "type": "uint256"
                }
              ],
              "internalType": "struct ReaderPricingUtils.ExecutionPriceResult",
              "name": "executionPriceResult",
              "type": "tuple"
            },
            {
              "internalType": "int256",
              "name": "basePnlUsd",
              "type": "int256"
            },
            {
              "internalType": "int256",
              "name": "pnlAfterPriceImpactUsd",
              "type": "int256"
            }
          ],
          "internalType": "struct ReaderUtils.PositionInfo[]",
          "name": "",
          "type": "tuple[]"
        }
      ],
      "stateMutability": "view",
      "type": "function"
    },
    {
      "inputs": [
        {
          "internalType": "contract DataStore",
          "name": "dataStore",
          "type": "address"
        },
        {
          "internalType": "address",
          "name": "account",
          "type": "address"
        },
        {
          "internalType": "uint256",
          "name": "start",
          "type": "uint256"
        },
        {
          "internalType": "uint256",
          "name": "end",
          "type": "uint256"
        }
      ],
      "name": "getAccountPositions",
      "outputs": [
        {
          "components": [
            {
              "components": [
                {
                  "internalType": "address",
                  "name": "account",
                  "type": "address"
                },
                {
                  "internalType": "address",
                  "name": "market",
                  "type": "address"
                },
                {
                  "internalType": "address",
                  "name": "collateralToken",
                  "type": "address"
                }
              ],
              "internalType": "struct Position.Addresses",
              "name": "addresses",
              "type": "tuple"
            },
            {
              "components": [
                {
                  "internalType": "uint256",
                  "name": "sizeInUsd",
                  "type": "uint256"
                },
                {
                  "internalType": "uint256",
                  "name": "sizeInTokens",
                  "type": "uint256"
                },
                {
                  "internalType": "uint256",
                  "name": "collateralAmount",
                  "type": "uint256"
                },
                {
                  "internalType": "uint256",
                  "name": "borrowingFactor",
                  "type": "uint256"
                },
                {
                  "internalType": "int256",
                  "name": "longTokenFundingAmountPerSize",
                  "type": "int256"
                },
                {
                  "internalType": "int256",
                  "name": "shortTokenFundingAmountPerSize",
                  "type": "int256"
                },
                {
                  "internalType": "uint256",
                  "name": "increasedAtBlock",
                  "type": "uint256"
                },
                {
                  "internalType": "uint256",
                  "name": "decreasedAtBlock",
                  "type": "uint256"
                }
              ],
              "internalType": "struct Position.Numbers",
              "name": "numbers",
              "type": "tuple"
            },
            {
              "components": [
                {
                  "internalType": "bool",
                  "name": "isLong",
                  "type": "bool"
                }
              ],
              "internalType": "struct Position.Flags",
              "name": "flags",
              "type": "tuple"
            }
          ],
          "internalType": "struct Position.Props[]",
          "name": "",
          "type": "tuple[]"
        }
      ],
      "stateMutability": "view",
      "type": "function"
    },
    {
      "inputs": [
        {
          "internalType": "contract DataStore",
          "name": "dataStore",
          "type": "address"
        },
        {
          "internalType": "bytes32",
          "name": "key",
          "type": "bytes32"
        }
      ],
      "name": "getDeposit",
      "outputs": [
        {
          "components": [
            {
              "components": [
                {
                  "internalType": "address",
                  "name": "account",
                  "type": "address"
                },
                {
                  "internalType": "address",
                  "name": "receiver",
                  "type": "address"
                },
                {
                  "internalType": "address",
                  "name": "callbackContract",
                  "type": "address"
                },
                {
                  "internalType": "address",
                  "name": "uiFeeReceiver",
                  "type": "address"
                },
                {
                  "internalType": "address",
                  "name": "market",
                  "type": "address"
                },
                {
                  "internalType": "address",
                  "name": "initialLongToken",
                  "type": "address"
                },
                {
                  "internalType": "address",
                  "name": "initialShortToken",
                  "type": "address"
                },
                {
                  "internalType": "address[]",
                  "name": "longTokenSwapPath",
                  "type": "address[]"
                },
                {
                  "internalType": "address[]",
                  "name": "shortTokenSwapPath",
                  "type": "address[]"
                }
              ],
              "internalType": "struct Deposit.Addresses",
              "name": "addresses",
              "type": "tuple"
            },
            {
              "components": [
                {
                  "internalType": "uint256",
                  "name": "initialLongTokenAmount",
                  "type": "uint256"
                },
                {
                  "internalType": "uint256",
                  "name": "initialShortTokenAmount",
                  "type": "uint256"
                },
                {
                  "internalType": "uint256",
                  "name": "minMarketTokens",
                  "type": "uint256"
                },
                {
                  "internalType": "uint256",
                  "name": "updatedAtBlock",
                  "type": "uint256"
                },
                {
                  "internalType": "uint256",
                  "name": "executionFee",
                  "type": "uint256"
                },
                {
                  "internalType": "uint256",
                  "name": "callbackGasLimit",
                  "type": "uint256"
                }
              ],
              "internalType": "struct Deposit.Numbers",
              "name": "numbers",
              "type": "tuple"
            },
            {
              "components": [
                {
                  "internalType": "bool",
                  "name": "shouldUnwrapNativeToken",
                  "type": "bool"
                }
              ],
              "internalType": "struct Deposit.Flags",
              "name": "flags",
              "type": "tuple"
            }
          ],
          "internalType": "struct Deposit.Props",
          "name": "",
          "type": "tuple"
        }
      ],
      "stateMutability": "view",
      "type": "function"
    },
    {
      "inputs": [
        {
          "internalType": "contract DataStore",
          "name": "dataStore",
          "type": "address"
        },
        {
          "internalType": "address",
          "name": "marketKey",
          "type": "address"
        },
        {
          "components": [
            {
              "internalType": "uint256",
              "name": "min",
              "type": "uint256"
            },
            {
              "internalType": "uint256",
              "name": "max",
              "type": "uint256"
            }
          ],
          "internalType": "struct Price.Props",
          "name": "indexTokenPrice",
          "type": "tuple"
        },
        {
          "internalType": "uint256",
          "name": "positionSizeInUsd",
          "type": "uint256"
        },
        {
          "internalType": "uint256",
          "name": "positionSizeInTokens",
          "type": "uint256"
        },
        {
          "internalType": "int256",
          "name": "sizeDeltaUsd",
          "type": "int256"
        },
        {
          "internalType": "bool",
          "name": "isLong",
          "type": "bool"
        }
      ],
      "name": "getExecutionPrice",
      "outputs": [
        {
          "components": [
            {
              "internalType": "int256",
              "name": "priceImpactUsd",
              "type": "int256"
            },
            {
              "internalType": "uint256",
              "name": "priceImpactDiffUsd",
              "type": "uint256"
            },
            {
              "internalType": "uint256",
              "name": "executionPrice",
              "type": "uint256"
            }
          ],
          "internalType": "struct ReaderPricingUtils.ExecutionPriceResult",
          "name": "",
          "type": "tuple"
        }
      ],
      "stateMutability": "view",
      "type": "function"
    },
    {
      "inputs": [
        {
          "internalType": "contract DataStore",
          "name": "dataStore",
          "type": "address"
        },
        {
          "internalType": "address",
          "name": "key",
          "type": "address"
        }
      ],
      "name": "getMarket",
      "outputs": [
        {
          "components": [
            {
              "internalType": "address",
              "name": "marketToken",
              "type": "address"
            },
            {
              "internalType": "address",
              "name": "indexToken",
              "type": "address"
            },
            {
              "internalType": "address",
              "name": "longToken",
              "type": "address"
            },
            {
              "internalType": "address",
              "name": "shortToken",
              "type": "address"
            }
          ],
          "internalType": "struct Market.Props",
          "name": "",
          "type": "tuple"
        }
      ],
      "stateMutability": "view",
      "type": "function"
    },
    {
      "inputs": [
        {
          "internalType": "contract DataStore",
          "name": "dataStore",
          "type": "address"
        },
        {
          "internalType": "bytes32",
          "name": "salt",
          "type": "bytes32"
        }
      ],
      "name": "getMarketBySalt",
      "outputs": [
        {
          "components": [
            {
              "internalType": "address",
              "name": "marketToken",
              "type": "address"
            },
            {
              "internalType": "address",
              "name": "indexToken",
              "type": "address"
            },
            {
              "internalType": "address",
              "name": "longToken",
              "type": "address"
            },
            {
              "internalType": "address",
              "name": "shortToken",
              "type": "address"
            }
          ],
          "internalType": "struct Market.Props",
          "name": "",
          "type": "tuple"
        }
      ],
      "stateMutability": "view",
      "type": "function"
    },
    {
      "inputs": [
        {
          "internalType": "contract DataStore",
          "name": "dataStore",
          "type": "address"
        },
        {
          "components": [
            {
              "components": [
                {
                  "internalType": "uint256",
                  "name": "min",
                  "type": "uint256"
                },
                {
                  "internalType": "uint256",
                  "name": "max",
                  "type": "uint256"
                }
              ],
              "internalType": "struct Price.Props",
              "name": "indexTokenPrice",
              "type": "tuple"
            },
            {
              "components": [
                {
                  "internalType": "uint256",
                  "name": "min",
                  "type": "uint256"
                },
                {
                  "internalType": "uint256",
                  "name": "max",
                  "type": "uint256"
                }
              ],
              "internalType": "struct Price.Props",
              "name": "longTokenPrice",
              "type": "tuple"
            },
            {
              "components": [
                {
                  "internalType": "uint256",
                  "name": "min",
                  "type": "uint256"
                },
                {
                  "internalType": "uint256",
                  "name": "max",
                  "type": "uint256"
                }
              ],
              "internalType": "struct Price.Props",
              "name": "shortTokenPrice",
              "type": "tuple"
            }
          ],
          "internalType": "struct MarketUtils.MarketPrices",
          "name": "prices",
          "type": "tuple"
        },
        {
          "internalType": "address",
          "name": "marketKey",
          "type": "address"
        }
      ],
      "name": "getMarketInfo",
      "outputs": [
        {
          "components": [
            {
              "components": [
                {
                  "internalType": "address",
                  "name": "marketToken",
                  "type": "address"
                },
                {
                  "internalType": "address",
                  "name": "indexToken",
                  "type": "address"
                },
                {
                  "internalType": "address",
                  "name": "longToken",
                  "type": "address"
                },
                {
                  "internalType": "address",
                  "name": "shortToken",
                  "type": "address"
                }
              ],
              "internalType": "struct Market.Props",
              "name": "market",
              "type": "tuple"
            },
            {
              "internalType": "uint256",
              "name": "borrowingFactorPerSecondForLongs",
              "type": "uint256"
            },
            {
              "internalType": "uint256",
              "name": "borrowingFactorPerSecondForShorts",
              "type": "uint256"
            },
            {
              "components": [
                {
                  "internalType": "bool",
                  "name": "longsPayShorts",
                  "type": "bool"
                },
                {
                  "internalType": "uint256",
                  "name": "fundingFactorPerSecond",
                  "type": "uint256"
                },
                {
                  "internalType": "int256",
                  "name": "fundingAmountPerSize_LongCollateral_LongPosition",
                  "type": "int256"
                },
                {
                  "internalType": "int256",
                  "name": "fundingAmountPerSize_LongCollateral_ShortPosition",
                  "type": "int256"
                },
                {
                  "internalType": "int256",
                  "name": "fundingAmountPerSize_ShortCollateral_LongPosition",
                  "type": "int256"
                },
                {
                  "internalType": "int256",
                  "name": "fundingAmountPerSize_ShortCollateral_ShortPosition",
                  "type": "int256"
                }
              ],
              "internalType": "struct MarketUtils.GetNextFundingAmountPerSizeResult",
              "name": "funding",
              "type": "tuple"
            },
            {
              "components": [
                {
                  "internalType": "uint256",
                  "name": "virtualPoolAmountForLongToken",
                  "type": "uint256"
                },
                {
                  "internalType": "uint256",
                  "name": "virtualPoolAmountForShortToken",
                  "type": "uint256"
                },
                {
                  "internalType": "int256",
                  "name": "virtualInventoryForPositions",
                  "type": "int256"
                }
              ],
              "internalType": "struct Reader.VirtualInventory",
              "name": "virtualInventory",
              "type": "tuple"
            },
            {
              "internalType": "bool",
              "name": "isDisabled",
              "type": "bool"
            }
          ],
          "internalType": "struct Reader.MarketInfo",
          "name": "",
          "type": "tuple"
        }
      ],
      "stateMutability": "view",
      "type": "function"
    },
    {
      "inputs": [
        {
          "internalType": "contract DataStore",
          "name": "dataStore",
          "type": "address"
        },
        {
          "components": [
            {
              "components": [
                {
                  "internalType": "uint256",
                  "name": "min",
                  "type": "uint256"
                },
                {
                  "internalType": "uint256",
                  "name": "max",
                  "type": "uint256"
                }
              ],
              "internalType": "struct Price.Props",
              "name": "indexTokenPrice",
              "type": "tuple"
            },
            {
              "components": [
                {
                  "internalType": "uint256",
                  "name": "min",
                  "type": "uint256"
                },
                {
                  "internalType": "uint256",
                  "name": "max",
                  "type": "uint256"
                }
              ],
              "internalType": "struct Price.Props",
              "name": "longTokenPrice",
              "type": "tuple"
            },
            {
              "components": [
                {
                  "internalType": "uint256",
                  "name": "min",
                  "type": "uint256"
                },
                {
                  "internalType": "uint256",
                  "name": "max",
                  "type": "uint256"
                }
              ],
              "internalType": "struct Price.Props",
              "name": "shortTokenPrice",
              "type": "tuple"
            }
          ],
          "internalType": "struct MarketUtils.MarketPrices[]",
          "name": "marketPricesList",
          "type": "tuple[]"
        },
        {
          "internalType": "uint256",
          "name": "start",
          "type": "uint256"
        },
        {
          "internalType": "uint256",
          "name": "end",
          "type": "uint256"
        }
      ],
      "name": "getMarketInfoList",
      "outputs": [
        {
          "components": [
            {
              "components": [
                {
                  "internalType": "address",
                  "name": "marketToken",
                  "type": "address"
                },
                {
                  "internalType": "address",
                  "name": "indexToken",
                  "type": "address"
                },
                {
                  "internalType": "address",
                  "name": "longToken",
                  "type": "address"
                },
                {
                  "internalType": "address",
                  "name": "shortToken",
                  "type": "address"
                }
              ],
              "internalType": "struct Market.Props",
              "name": "market",
              "type": "tuple"
            },
            {
              "internalType": "uint256",
              "name": "borrowingFactorPerSecondForLongs",
              "type": "uint256"
            },
            {
              "internalType": "uint256",
              "name": "borrowingFactorPerSecondForShorts",
              "type": "uint256"
            },
            {
              "components": [
                {
                  "internalType": "bool",
                  "name": "longsPayShorts",
                  "type": "bool"
                },
                {
                  "internalType": "uint256",
                  "name": "fundingFactorPerSecond",
                  "type": "uint256"
                },
                {
                  "internalType": "int256",
                  "name": "fundingAmountPerSize_LongCollateral_LongPosition",
                  "type": "int256"
                },
                {
                  "internalType": "int256",
                  "name": "fundingAmountPerSize_LongCollateral_ShortPosition",
                  "type": "int256"
                },
                {
                  "internalType": "int256",
                  "name": "fundingAmountPerSize_ShortCollateral_LongPosition",
                  "type": "int256"
                },
                {
                  "internalType": "int256",
                  "name": "fundingAmountPerSize_ShortCollateral_ShortPosition",
                  "type": "int256"
                }
              ],
              "internalType": "struct MarketUtils.GetNextFundingAmountPerSizeResult",
              "name": "funding",
              "type": "tuple"
            },
            {
              "components": [
                {
                  "internalType": "uint256",
                  "name": "virtualPoolAmountForLongToken",
                  "type": "uint256"
                },
                {
                  "internalType": "uint256",
                  "name": "virtualPoolAmountForShortToken",
                  "type": "uint256"
                },
                {
                  "internalType": "int256",
                  "name": "virtualInventoryForPositions",
                  "type": "int256"
                }
              ],
              "internalType": "struct Reader.VirtualInventory",
              "name": "virtualInventory",
              "type": "tuple"
            },
            {
              "internalType": "bool",
              "name": "isDisabled",
              "type": "bool"
            }
          ],
          "internalType": "struct Reader.MarketInfo[]",
          "name": "",
          "type": "tuple[]"
        }
      ],
      "stateMutability": "view",
      "type": "function"
    },
    {
      "inputs": [
        {
          "internalType": "contract DataStore",
          "name": "dataStore",
          "type": "address"
        },
        {
          "components": [
            {
              "internalType": "address",
              "name": "marketToken",
              "type": "address"
            },
            {
              "internalType": "address",
              "name": "indexToken",
              "type": "address"
            },
            {
              "internalType": "address",
              "name": "longToken",
              "type": "address"
            },
            {
              "internalType": "address",
              "name": "shortToken",
              "type": "address"
            }
          ],
          "internalType": "struct Market.Props",
          "name": "market",
          "type": "tuple"
        },
        {
          "components": [
            {
              "internalType": "uint256",
              "name": "min",
              "type": "uint256"
            },
            {
              "internalType": "uint256",
              "name": "max",
              "type": "uint256"
            }
          ],
          "internalType": "struct Price.Props",
          "name": "indexTokenPrice",
          "type": "tuple"
        },
        {
          "components": [
            {
              "internalType": "uint256",
              "name": "min",
              "type": "uint256"
            },
            {
              "internalType": "uint256",
              "name": "max",
              "type": "uint256"
            }
          ],
          "internalType": "struct Price.Props",
          "name": "longTokenPrice",
          "type": "tuple"
        },
        {
          "components": [
            {
              "internalType": "uint256",
              "name": "min",
              "type": "uint256"
            },
            {
              "internalType": "uint256",
              "name": "max",
              "type": "uint256"
            }
          ],
          "internalType": "struct Price.Props",
          "name": "shortTokenPrice",
          "type": "tuple"
        },
        {
          "internalType": "bytes32",
          "name": "pnlFactorType",
          "type": "bytes32"
        },
        {
          "internalType": "bool",
          "name": "maximize",
          "type": "bool"
        }
      ],
      "name": "getMarketTokenPrice",
      "outputs": [
        {
          "internalType": "int256",
          "name": "",
          "type": "int256"
        },
        {
          "components": [
            {
              "internalType": "int256",
              "name": "poolValue",
              "type": "int256"
            },
            {
              "internalType": "int256",
              "name": "longPnl",
              "type": "int256"
            },
            {
              "internalType": "int256",
              "name": "shortPnl",
              "type": "int256"
            },
            {
              "internalType": "int256",
              "name": "netPnl",
              "type": "int256"
            },
            {
              "internalType": "uint256",
              "name": "longTokenAmount",
              "type": "uint256"
            },
            {
              "internalType": "uint256",
              "name": "shortTokenAmount",
              "type": "uint256"
            },
            {
              "internalType": "uint256",
              "name": "longTokenUsd",
              "type": "uint256"
            },
            {
              "internalType": "uint256",
              "name": "shortTokenUsd",
              "type": "uint256"
            },
            {
              "internalType": "uint256",
              "name": "totalBorrowingFees",
              "type": "uint256"
            },
            {
              "internalType": "uint256",
              "name": "borrowingFeePoolFactor",
              "type": "uint256"
            },
            {
              "internalType": "uint256",
              "name": "impactPoolAmount",
              "type": "uint256"
            }
          ],
          "internalType": "struct MarketPoolValueInfo.Props",
          "name": "",
          "type": "tuple"
        }
      ],
      "stateMutability": "view",
      "type": "function"
    },
    {
      "inputs": [
        {
          "internalType": "contract DataStore",
          "name": "dataStore",
          "type": "address"
        },
        {
          "internalType": "uint256",
          "name": "start",
          "type": "uint256"
        },
        {
          "internalType": "uint256",
          "name": "end",
          "type": "uint256"
        }
      ],
      "name": "getMarkets",
      "outputs": [
        {
          "components": [
            {
              "internalType": "address",
              "name": "marketToken",
              "type": "address"
            },
            {
              "internalType": "address",
              "name": "indexToken",
              "type": "address"
            },
            {
              "internalType": "address",
              "name": "longToken",
              "type": "address"
            },
            {
              "internalType": "address",
              "name": "shortToken",
              "type": "address"
            }
          ],
          "internalType": "struct Market.Props[]",
          "name": "",
          "type": "tuple[]"
        }
      ],
      "stateMutability": "view",
      "type": "function"
    },
    {
      "inputs": [
        {
          "internalType": "contract DataStore",
          "name": "dataStore",
          "type": "address"
        },
        {
          "components": [
            {
              "internalType": "address",
              "name": "marketToken",
              "type": "address"
            },
            {
              "internalType": "address",
              "name": "indexToken",
              "type": "address"
            },
            {
              "internalType": "address",
              "name": "longToken",
              "type": "address"
            },
            {
              "internalType": "address",
              "name": "shortToken",
              "type": "address"
            }
          ],
          "internalType": "struct Market.Props",
          "name": "market",
          "type": "tuple"
        },
        {
          "components": [
            {
              "internalType": "uint256",
              "name": "min",
              "type": "uint256"
            },
            {
              "internalType": "uint256",
              "name": "max",
              "type": "uint256"
            }
          ],
          "internalType": "struct Price.Props",
          "name": "indexTokenPrice",
          "type": "tuple"
        },
        {
          "internalType": "bool",
          "name": "maximize",
          "type": "bool"
        }
      ],
      "name": "getNetPnl",
      "outputs": [
        {
          "internalType": "int256",
          "name": "",
          "type": "int256"
        }
      ],
      "stateMutability": "view",
      "type": "function"
    },
    {
      "inputs": [
        {
          "internalType": "contract DataStore",
          "name": "dataStore",
          "type": "address"
        },
        {
          "components": [
            {
              "internalType": "address",
              "name": "marketToken",
              "type": "address"
            },
            {
              "internalType": "address",
              "name": "indexToken",
              "type": "address"
            },
            {
              "internalType": "address",
              "name": "longToken",
              "type": "address"
            },
            {
              "internalType": "address",
              "name": "shortToken",
              "type": "address"
            }
          ],
          "internalType": "struct Market.Props",
          "name": "market",
          "type": "tuple"
        },
        {
          "components": [
            {
              "internalType": "uint256",
              "name": "min",
              "type": "uint256"
            },
            {
              "internalType": "uint256",
              "name": "max",
              "type": "uint256"
            }
          ],
          "internalType": "struct Price.Props",
          "name": "indexTokenPrice",
          "type": "tuple"
        },
        {
          "internalType": "bool",
          "name": "isLong",
          "type": "bool"
        },
        {
          "internalType": "bool",
          "name": "maximize",
          "type": "bool"
        }
      ],
      "name": "getOpenInterestWithPnl",
      "outputs": [
        {
          "internalType": "int256",
          "name": "",
          "type": "int256"
        }
      ],
      "stateMutability": "view",
      "type": "function"
    },
    {
      "inputs": [
        {
          "internalType": "contract DataStore",
          "name": "dataStore",
          "type": "address"
        },
        {
          "internalType": "bytes32",
          "name": "key",
          "type": "bytes32"
        }
      ],
      "name": "getOrder",
      "outputs": [
        {
          "components": [
            {
              "components": [
                {
                  "internalType": "address",
                  "name": "account",
                  "type": "address"
                },
                {
                  "internalType": "address",
                  "name": "receiver",
                  "type": "address"
                },
                {
                  "internalType": "address",
                  "name": "callbackContract",
                  "type": "address"
                },
                {
                  "internalType": "address",
                  "name": "uiFeeReceiver",
                  "type": "address"
                },
                {
                  "internalType": "address",
                  "name": "market",
                  "type": "address"
                },
                {
                  "internalType": "address",
                  "name": "initialCollateralToken",
                  "type": "address"
                },
                {
                  "internalType": "address[]",
                  "name": "swapPath",
                  "type": "address[]"
                }
              ],
              "internalType": "struct Order.Addresses",
              "name": "addresses",
              "type": "tuple"
            },
            {
              "components": [
                {
                  "internalType": "enum Order.OrderType",
                  "name": "orderType",
                  "type": "uint8"
                },
                {
                  "internalType": "enum Order.DecreasePositionSwapType",
                  "name": "decreasePositionSwapType",
                  "type": "uint8"
                },
                {
                  "internalType": "uint256",
                  "name": "sizeDeltaUsd",
                  "type": "uint256"
                },
                {
                  "internalType": "uint256",
                  "name": "initialCollateralDeltaAmount",
                  "type": "uint256"
                },
                {
                  "internalType": "uint256",
                  "name": "triggerPrice",
                  "type": "uint256"
                },
                {
                  "internalType": "uint256",
                  "name": "acceptablePrice",
                  "type": "uint256"
                },
                {
                  "internalType": "uint256",
                  "name": "executionFee",
                  "type": "uint256"
                },
                {
                  "internalType": "uint256",
                  "name": "callbackGasLimit",
                  "type": "uint256"
                },
                {
                  "internalType": "uint256",
                  "name": "minOutputAmount",
                  "type": "uint256"
                },
                {
                  "internalType": "uint256",
                  "name": "updatedAtBlock",
                  "type": "uint256"
                }
              ],
              "internalType": "struct Order.Numbers",
              "name": "numbers",
              "type": "tuple"
            },
            {
              "components": [
                {
                  "internalType": "bool",
                  "name": "isLong",
                  "type": "bool"
                },
                {
                  "internalType": "bool",
                  "name": "shouldUnwrapNativeToken",
                  "type": "bool"
                },
                {
                  "internalType": "bool",
                  "name": "isFrozen",
                  "type": "bool"
                }
              ],
              "internalType": "struct Order.Flags",
              "name": "flags",
              "type": "tuple"
            }
          ],
          "internalType": "struct Order.Props",
          "name": "",
          "type": "tuple"
        }
      ],
      "stateMutability": "view",
      "type": "function"
    },
    {
      "inputs": [
        {
          "internalType": "contract DataStore",
          "name": "dataStore",
          "type": "address"
        },
        {
          "components": [
            {
              "internalType": "address",
              "name": "marketToken",
              "type": "address"
            },
            {
              "internalType": "address",
              "name": "indexToken",
              "type": "address"
            },
            {
              "internalType": "address",
              "name": "longToken",
              "type": "address"
            },
            {
              "internalType": "address",
              "name": "shortToken",
              "type": "address"
            }
          ],
          "internalType": "struct Market.Props",
          "name": "market",
          "type": "tuple"
        },
        {
          "components": [
            {
              "internalType": "uint256",
              "name": "min",
              "type": "uint256"
            },
            {
              "internalType": "uint256",
              "name": "max",
              "type": "uint256"
            }
          ],
          "internalType": "struct Price.Props",
          "name": "indexTokenPrice",
          "type": "tuple"
        },
        {
          "internalType": "bool",
          "name": "isLong",
          "type": "bool"
        },
        {
          "internalType": "bool",
          "name": "maximize",
          "type": "bool"
        }
      ],
      "name": "getPnl",
      "outputs": [
        {
          "internalType": "int256",
          "name": "",
          "type": "int256"
        }
      ],
      "stateMutability": "view",
      "type": "function"
    },
    {
      "inputs": [
        {
          "internalType": "contract DataStore",
          "name": "dataStore",
          "type": "address"
        },
        {
          "internalType": "address",
          "name": "marketAddress",
          "type": "address"
        },
        {
          "components": [
            {
              "components": [
                {
                  "internalType": "uint256",
                  "name": "min",
                  "type": "uint256"
                },
                {
                  "internalType": "uint256",
                  "name": "max",
                  "type": "uint256"
                }
              ],
              "internalType": "struct Price.Props",
              "name": "indexTokenPrice",
              "type": "tuple"
            },
            {
              "components": [
                {
                  "internalType": "uint256",
                  "name": "min",
                  "type": "uint256"
                },
                {
                  "internalType": "uint256",
                  "name": "max",
                  "type": "uint256"
                }
              ],
              "internalType": "struct Price.Props",
              "name": "longTokenPrice",
              "type": "tuple"
            },
            {
              "components": [
                {
                  "internalType": "uint256",
                  "name": "min",
                  "type": "uint256"
                },
                {
                  "internalType": "uint256",
                  "name": "max",
                  "type": "uint256"
                }
              ],
              "internalType": "struct Price.Props",
              "name": "shortTokenPrice",
              "type": "tuple"
            }
          ],
          "internalType": "struct MarketUtils.MarketPrices",
          "name": "prices",
          "type": "tuple"
        },
        {
          "internalType": "bool",
          "name": "isLong",
          "type": "bool"
        },
        {
          "internalType": "bool",
          "name": "maximize",
          "type": "bool"
        }
      ],
      "name": "getPnlToPoolFactor",
      "outputs": [
        {
          "internalType": "int256",
          "name": "",
          "type": "int256"
        }
      ],
      "stateMutability": "view",
      "type": "function"
    },
    {
      "inputs": [
        {
          "internalType": "contract DataStore",
          "name": "dataStore",
          "type": "address"
        },
        {
          "internalType": "bytes32",
          "name": "key",
          "type": "bytes32"
        }
      ],
      "name": "getPosition",
      "outputs": [
        {
          "components": [
            {
              "components": [
                {
                  "internalType": "address",
                  "name": "account",
                  "type": "address"
                },
                {
                  "internalType": "address",
                  "name": "market",
                  "type": "address"
                },
                {
                  "internalType": "address",
                  "name": "collateralToken",
                  "type": "address"
                }
              ],
              "internalType": "struct Position.Addresses",
              "name": "addresses",
              "type": "tuple"
            },
            {
              "components": [
                {
                  "internalType": "uint256",
                  "name": "sizeInUsd",
                  "type": "uint256"
                },
                {
                  "internalType": "uint256",
                  "name": "sizeInTokens",
                  "type": "uint256"
                },
                {
                  "internalType": "uint256",
                  "name": "collateralAmount",
                  "type": "uint256"
                },
                {
                  "internalType": "uint256",
                  "name": "borrowingFactor",
                  "type": "uint256"
                },
                {
                  "internalType": "int256",
                  "name": "longTokenFundingAmountPerSize",
                  "type": "int256"
                },
                {
                  "internalType": "int256",
                  "name": "shortTokenFundingAmountPerSize",
                  "type": "int256"
                },
                {
                  "internalType": "uint256",
                  "name": "increasedAtBlock",
                  "type": "uint256"
                },
                {
                  "internalType": "uint256",
                  "name": "decreasedAtBlock",
                  "type": "uint256"
                }
              ],
              "internalType": "struct Position.Numbers",
              "name": "numbers",
              "type": "tuple"
            },
            {
              "components": [
                {
                  "internalType": "bool",
                  "name": "isLong",
                  "type": "bool"
                }
              ],
              "internalType": "struct Position.Flags",
              "name": "flags",
              "type": "tuple"
            }
          ],
          "internalType": "struct Position.Props",
          "name": "",
          "type": "tuple"
        }
      ],
      "stateMutability": "view",
      "type": "function"
    },
    {
      "inputs": [
        {
          "internalType": "contract DataStore",
          "name": "dataStore",
          "type": "address"
        },
        {
          "internalType": "contract IReferralStorage",
          "name": "referralStorage",
          "type": "address"
        },
        {
          "internalType": "bytes32",
          "name": "positionKey",
          "type": "bytes32"
        },
        {
          "components": [
            {
              "components": [
                {
                  "internalType": "uint256",
                  "name": "min",
                  "type": "uint256"
                },
                {
                  "internalType": "uint256",
                  "name": "max",
                  "type": "uint256"
                }
              ],
              "internalType": "struct Price.Props",
              "name": "indexTokenPrice",
              "type": "tuple"
            },
            {
              "components": [
                {
                  "internalType": "uint256",
                  "name": "min",
                  "type": "uint256"
                },
                {
                  "internalType": "uint256",
                  "name": "max",
                  "type": "uint256"
                }
              ],
              "internalType": "struct Price.Props",
              "name": "longTokenPrice",
              "type": "tuple"
            },
            {
              "components": [
                {
                  "internalType": "uint256",
                  "name": "min",
                  "type": "uint256"
                },
                {
                  "internalType": "uint256",
                  "name": "max",
                  "type": "uint256"
                }
              ],
              "internalType": "struct Price.Props",
              "name": "shortTokenPrice",
              "type": "tuple"
            }
          ],
          "internalType": "struct MarketUtils.MarketPrices",
          "name": "prices",
          "type": "tuple"
        },
        {
          "internalType": "uint256",
          "name": "sizeDeltaUsd",
          "type": "uint256"
        },
        {
          "internalType": "address",
          "name": "uiFeeReceiver",
          "type": "address"
        },
        {
          "internalType": "bool",
          "name": "usePositionSizeAsSizeDeltaUsd",
          "type": "bool"
        }
      ],
      "name": "getPositionInfo",
      "outputs": [
        {
          "components": [
            {
              "components": [
                {
                  "components": [
                    {
                      "internalType": "address",
                      "name": "account",
                      "type": "address"
                    },
                    {
                      "internalType": "address",
                      "name": "market",
                      "type": "address"
                    },
                    {
                      "internalType": "address",
                      "name": "collateralToken",
                      "type": "address"
                    }
                  ],
                  "internalType": "struct Position.Addresses",
                  "name": "addresses",
                  "type": "tuple"
                },
                {
                  "components": [
                    {
                      "internalType": "uint256",
                      "name": "sizeInUsd",
                      "type": "uint256"
                    },
                    {
                      "internalType": "uint256",
                      "name": "sizeInTokens",
                      "type": "uint256"
                    },
                    {
                      "internalType": "uint256",
                      "name": "collateralAmount",
                      "type": "uint256"
                    },
                    {
                      "internalType": "uint256",
                      "name": "borrowingFactor",
                      "type": "uint256"
                    },
                    {
                      "internalType": "int256",
                      "name": "longTokenFundingAmountPerSize",
                      "type": "int256"
                    },
                    {
                      "internalType": "int256",
                      "name": "shortTokenFundingAmountPerSize",
                      "type": "int256"
                    },
                    {
                      "internalType": "uint256",
                      "name": "increasedAtBlock",
                      "type": "uint256"
                    },
                    {
                      "internalType": "uint256",
                      "name": "decreasedAtBlock",
                      "type": "uint256"
                    }
                  ],
                  "internalType": "struct Position.Numbers",
                  "name": "numbers",
                  "type": "tuple"
                },
                {
                  "components": [
                    {
                      "internalType": "bool",
                      "name": "isLong",
                      "type": "bool"
                    }
                  ],
                  "internalType": "struct Position.Flags",
                  "name": "flags",
                  "type": "tuple"
                }
              ],
              "internalType": "struct Position.Props",
              "name": "position",
              "type": "tuple"
            },
            {
              "components": [
                {
                  "components": [
                    {
                      "internalType": "bytes32",
                      "name": "referralCode",
                      "type": "bytes32"
                    },
                    {
                      "internalType": "address",
                      "name": "affiliate",
                      "type": "address"
                    },
                    {
                      "internalType": "address",
                      "name": "trader",
                      "type": "address"
                    },
                    {
                      "internalType": "uint256",
                      "name": "totalRebateFactor",
                      "type": "uint256"
                    },
                    {
                      "internalType": "uint256",
                      "name": "traderDiscountFactor",
                      "type": "uint256"
                    },
                    {
                      "internalType": "uint256",
                      "name": "totalRebateAmount",
                      "type": "uint256"
                    },
                    {
                      "internalType": "uint256",
                      "name": "traderDiscountAmount",
                      "type": "uint256"
                    },
                    {
                      "internalType": "uint256",
                      "name": "affiliateRewardAmount",
                      "type": "uint256"
                    }
                  ],
                  "internalType": "struct PositionPricingUtils.PositionReferralFees",
                  "name": "referral",
                  "type": "tuple"
                },
                {
                  "components": [
                    {
                      "internalType": "uint256",
                      "name": "fundingFeeAmount",
                      "type": "uint256"
                    },
                    {
                      "internalType": "uint256",
                      "name": "claimableLongTokenAmount",
                      "type": "uint256"
                    },
                    {
                      "internalType": "uint256",
                      "name": "claimableShortTokenAmount",
                      "type": "uint256"
                    },
                    {
                      "internalType": "int256",
                      "name": "latestLongTokenFundingAmountPerSize",
                      "type": "int256"
                    },
                    {
                      "internalType": "int256",
                      "name": "latestShortTokenFundingAmountPerSize",
                      "type": "int256"
                    }
                  ],
                  "internalType": "struct PositionPricingUtils.PositionFundingFees",
                  "name": "funding",
                  "type": "tuple"
                },
                {
                  "components": [
                    {
                      "internalType": "uint256",
                      "name": "borrowingFeeUsd",
                      "type": "uint256"
                    },
                    {
                      "internalType": "uint256",
                      "name": "borrowingFeeAmount",
                      "type": "uint256"
                    },
                    {
                      "internalType": "uint256",
                      "name": "borrowingFeeReceiverFactor",
                      "type": "uint256"
                    },
                    {
                      "internalType": "uint256",
                      "name": "borrowingFeeAmountForFeeReceiver",
                      "type": "uint256"
                    }
                  ],
                  "internalType": "struct PositionPricingUtils.PositionBorrowingFees",
                  "name": "borrowing",
                  "type": "tuple"
                },
                {
                  "components": [
                    {
                      "internalType": "address",
                      "name": "uiFeeReceiver",
                      "type": "address"
                    },
                    {
                      "internalType": "uint256",
                      "name": "uiFeeReceiverFactor",
                      "type": "uint256"
                    },
                    {
                      "internalType": "uint256",
                      "name": "uiFeeAmount",
                      "type": "uint256"
                    }
                  ],
                  "internalType": "struct PositionPricingUtils.PositionUiFees",
                  "name": "ui",
                  "type": "tuple"
                },
                {
                  "components": [
                    {
                      "internalType": "uint256",
                      "name": "min",
                      "type": "uint256"
                    },
                    {
                      "internalType": "uint256",
                      "name": "max",
                      "type": "uint256"
                    }
                  ],
                  "internalType": "struct Price.Props",
                  "name": "collateralTokenPrice",
                  "type": "tuple"
                },
                {
                  "internalType": "uint256",
                  "name": "positionFeeFactor",
                  "type": "uint256"
                },
                {
                  "internalType": "uint256",
                  "name": "protocolFeeAmount",
                  "type": "uint256"
                },
                {
                  "internalType": "uint256",
                  "name": "positionFeeReceiverFactor",
                  "type": "uint256"
                },
                {
                  "internalType": "uint256",
                  "name": "feeReceiverAmount",
                  "type": "uint256"
                },
                {
                  "internalType": "uint256",
                  "name": "feeAmountForPool",
                  "type": "uint256"
                },
                {
                  "internalType": "uint256",
                  "name": "positionFeeAmountForPool",
                  "type": "uint256"
                },
                {
                  "internalType": "uint256",
                  "name": "positionFeeAmount",
                  "type": "uint256"
                },
                {
                  "internalType": "uint256",
                  "name": "totalCostAmountExcludingFunding",
                  "type": "uint256"
                },
                {
                  "internalType": "uint256",
                  "name": "totalCostAmount",
                  "type": "uint256"
                }
              ],
              "internalType": "struct PositionPricingUtils.PositionFees",
              "name": "fees",
              "type": "tuple"
            },
            {
              "components": [
                {
                  "internalType": "int256",
                  "name": "priceImpactUsd",
                  "type": "int256"
                },
                {
                  "internalType": "uint256",
                  "name": "priceImpactDiffUsd",
                  "type": "uint256"
                },
                {
                  "internalType": "uint256",
                  "name": "executionPrice",
                  "type": "uint256"
                }
              ],
              "internalType": "struct ReaderPricingUtils.ExecutionPriceResult",
              "name": "executionPriceResult",
              "type": "tuple"
            },
            {
              "internalType": "int256",
              "name": "basePnlUsd",
              "type": "int256"
            },
            {
              "internalType": "int256",
              "name": "pnlAfterPriceImpactUsd",
              "type": "int256"
            }
          ],
          "internalType": "struct ReaderUtils.PositionInfo",
          "name": "",
          "type": "tuple"
        }
      ],
      "stateMutability": "view",
      "type": "function"
    },
    {
      "inputs": [
        {
          "internalType": "contract DataStore",
          "name": "dataStore",
          "type": "address"
        },
        {
          "components": [
            {
              "internalType": "address",
              "name": "marketToken",
              "type": "address"
            },
            {
              "internalType": "address",
              "name": "indexToken",
              "type": "address"
            },
            {
              "internalType": "address",
              "name": "longToken",
              "type": "address"
            },
            {
              "internalType": "address",
              "name": "shortToken",
              "type": "address"
            }
          ],
          "internalType": "struct Market.Props",
          "name": "market",
          "type": "tuple"
        },
        {
          "components": [
            {
              "components": [
                {
                  "internalType": "uint256",
                  "name": "min",
                  "type": "uint256"
                },
                {
                  "internalType": "uint256",
                  "name": "max",
                  "type": "uint256"
                }
              ],
              "internalType": "struct Price.Props",
              "name": "indexTokenPrice",
              "type": "tuple"
            },
            {
              "components": [
                {
                  "internalType": "uint256",
                  "name": "min",
                  "type": "uint256"
                },
                {
                  "internalType": "uint256",
                  "name": "max",
                  "type": "uint256"
                }
              ],
              "internalType": "struct Price.Props",
              "name": "longTokenPrice",
              "type": "tuple"
            },
            {
              "components": [
                {
                  "internalType": "uint256",
                  "name": "min",
                  "type": "uint256"
                },
                {
                  "internalType": "uint256",
                  "name": "max",
                  "type": "uint256"
                }
              ],
              "internalType": "struct Price.Props",
              "name": "shortTokenPrice",
              "type": "tuple"
            }
          ],
          "internalType": "struct MarketUtils.MarketPrices",
          "name": "prices",
          "type": "tuple"
        },
        {
          "internalType": "bytes32",
          "name": "positionKey",
          "type": "bytes32"
        },
        {
          "internalType": "uint256",
          "name": "executionPrice",
          "type": "uint256"
        },
        {
          "internalType": "uint256",
          "name": "sizeDeltaUsd",
          "type": "uint256"
        }
      ],
      "name": "getPositionPnlUsd",
      "outputs": [
        {
          "internalType": "int256",
          "name": "",
          "type": "int256"
        },
        {
          "internalType": "uint256",
          "name": "",
          "type": "uint256"
        }
      ],
      "stateMutability": "view",
      "type": "function"
    },
    {
      "inputs": [
        {
          "internalType": "contract DataStore",
          "name": "dataStore",
          "type": "address"
        },
        {
          "components": [
            {
              "internalType": "address",
              "name": "marketToken",
              "type": "address"
            },
            {
              "internalType": "address",
              "name": "indexToken",
              "type": "address"
            },
            {
              "internalType": "address",
              "name": "longToken",
              "type": "address"
            },
            {
              "internalType": "address",
              "name": "shortToken",
              "type": "address"
            }
          ],
          "internalType": "struct Market.Props",
          "name": "market",
          "type": "tuple"
        },
        {
          "components": [
            {
              "components": [
                {
                  "internalType": "uint256",
                  "name": "min",
                  "type": "uint256"
                },
                {
                  "internalType": "uint256",
                  "name": "max",
                  "type": "uint256"
                }
              ],
              "internalType": "struct Price.Props",
              "name": "indexTokenPrice",
              "type": "tuple"
            },
            {
              "components": [
                {
                  "internalType": "uint256",
                  "name": "min",
                  "type": "uint256"
                },
                {
                  "internalType": "uint256",
                  "name": "max",
                  "type": "uint256"
                }
              ],
              "internalType": "struct Price.Props",
              "name": "longTokenPrice",
              "type": "tuple"
            },
            {
              "components": [
                {
                  "internalType": "uint256",
                  "name": "min",
                  "type": "uint256"
                },
                {
                  "internalType": "uint256",
                  "name": "max",
                  "type": "uint256"
                }
              ],
              "internalType": "struct Price.Props",
              "name": "shortTokenPrice",
              "type": "tuple"
            }
          ],
          "internalType": "struct MarketUtils.MarketPrices",
          "name": "prices",
          "type": "tuple"
        },
        {
          "internalType": "address",
          "name": "tokenIn",
          "type": "address"
        },
        {
          "internalType": "uint256",
          "name": "amountIn",
          "type": "uint256"
        },
        {
          "internalType": "address",
          "name": "uiFeeReceiver",
          "type": "address"
        }
      ],
      "name": "getSwapAmountOut",
      "outputs": [
        {
          "internalType": "uint256",
          "name": "",
          "type": "uint256"
        },
        {
          "internalType": "int256",
          "name": "",
          "type": "int256"
        },
        {
          "components": [
            {
              "internalType": "uint256",
              "name": "feeReceiverAmount",
              "type": "uint256"
            },
            {
              "internalType": "uint256",
              "name": "feeAmountForPool",
              "type": "uint256"
            },
            {
              "internalType": "uint256",
              "name": "amountAfterFees",
              "type": "uint256"
            },
            {
              "internalType": "address",
              "name": "uiFeeReceiver",
              "type": "address"
            },
            {
              "internalType": "uint256",
              "name": "uiFeeReceiverFactor",
              "type": "uint256"
            },
            {
              "internalType": "uint256",
              "name": "uiFeeAmount",
              "type": "uint256"
            }
          ],
          "internalType": "struct SwapPricingUtils.SwapFees",
          "name": "fees",
          "type": "tuple"
        }
      ],
      "stateMutability": "view",
      "type": "function"
    },
    {
      "inputs": [
        {
          "internalType": "contract DataStore",
          "name": "dataStore",
          "type": "address"
        },
        {
          "internalType": "address",
          "name": "marketKey",
          "type": "address"
        },
        {
          "internalType": "address",
          "name": "tokenIn",
          "type": "address"
        },
        {
          "internalType": "address",
          "name": "tokenOut",
          "type": "address"
        },
        {
          "internalType": "uint256",
          "name": "amountIn",
          "type": "uint256"
        },
        {
          "components": [
            {
              "internalType": "uint256",
              "name": "min",
              "type": "uint256"
            },
            {
              "internalType": "uint256",
              "name": "max",
              "type": "uint256"
            }
          ],
          "internalType": "struct Price.Props",
          "name": "tokenInPrice",
          "type": "tuple"
        },
        {
          "components": [
            {
              "internalType": "uint256",
              "name": "min",
              "type": "uint256"
            },
            {
              "internalType": "uint256",
              "name": "max",
              "type": "uint256"
            }
          ],
          "internalType": "struct Price.Props",
          "name": "tokenOutPrice",
          "type": "tuple"
        }
      ],
      "name": "getSwapPriceImpact",
      "outputs": [
        {
          "internalType": "int256",
          "name": "",
          "type": "int256"
        },
        {
          "internalType": "int256",
          "name": "",
          "type": "int256"
        }
      ],
      "stateMutability": "view",
      "type": "function"
    },
    {
      "inputs": [
        {
          "internalType": "contract DataStore",
          "name": "dataStore",
          "type": "address"
        },
        {
          "internalType": "bytes32",
          "name": "key",
          "type": "bytes32"
        }
      ],
      "name": "getWithdrawal",
      "outputs": [
        {
          "components": [
            {
              "components": [
                {
                  "internalType": "address",
                  "name": "account",
                  "type": "address"
                },
                {
                  "internalType": "address",
                  "name": "receiver",
                  "type": "address"
                },
                {
                  "internalType": "address",
                  "name": "callbackContract",
                  "type": "address"
                },
                {
                  "internalType": "address",
                  "name": "uiFeeReceiver",
                  "type": "address"
                },
                {
                  "internalType": "address",
                  "name": "market",
                  "type": "address"
                },
                {
                  "internalType": "address[]",
                  "name": "longTokenSwapPath",
                  "type": "address[]"
                },
                {
                  "internalType": "address[]",
                  "name": "shortTokenSwapPath",
                  "type": "address[]"
                }
              ],
              "internalType": "struct Withdrawal.Addresses",
              "name": "addresses",
              "type": "tuple"
            },
            {
              "components": [
                {
                  "internalType": "uint256",
                  "name": "marketTokenAmount",
                  "type": "uint256"
                },
                {
                  "internalType": "uint256",
                  "name": "minLongTokenAmount",
                  "type": "uint256"
                },
                {
                  "internalType": "uint256",
                  "name": "minShortTokenAmount",
                  "type": "uint256"
                },
                {
                  "internalType": "uint256",
                  "name": "updatedAtBlock",
                  "type": "uint256"
                },
                {
                  "internalType": "uint256",
                  "name": "executionFee",
                  "type": "uint256"
                },
                {
                  "internalType": "uint256",
                  "name": "callbackGasLimit",
                  "type": "uint256"
                }
              ],
              "internalType": "struct Withdrawal.Numbers",
              "name": "numbers",
              "type": "tuple"
            },
            {
              "components": [
                {
                  "internalType": "bool",
                  "name": "shouldUnwrapNativeToken",
                  "type": "bool"
                }
              ],
              "internalType": "struct Withdrawal.Flags",
              "name": "flags",
              "type": "tuple"
            }
          ],
          "internalType": "struct Withdrawal.Props",
          "name": "",
          "type": "tuple"
        }
      ],
      "stateMutability": "view",
      "type": "function"
    }
  ],
  "bytecode": "0x608060405234801561001057600080fd5b5061598280620000216000396000f3fe608060405234801561001057600080fd5b50600436106101125760003560e01c80630169a059146101175780630815bce114610144578063095ce6c5146101645780630fa8f5161461020d5780631485d2971461022d57806324c029e01461024d578063409f37c71461026e57806342a6f8d3146102e057806349651b6a146103005780635d2b44f9146103205780635d5c6efe14610340578063714af34b1461035357806377cfb16214610373578063847bb46914610393578063971de27d146103b3578063a0140938146103c6578063a4f0d550146103d9578063bc7b5bba146103ec578063ce3264bf1461040c578063ceeea3bf1461042c578063ece9e0c81461044c578063fd50649d1461046c575b600080fd5b61012a61012536600461386f565b61047f565b604080519283526020830191909152015b60405180910390f35b6101576101523660046138e4565b610593565b60405161013b9190613bf6565b610177610172366004613c05565b61062c565b60405161013b92919060006101808201905083825282516020830152602083015160408301526040830151606083015260608301516080830152608083015160a083015260a083015160c083015260c083015160e083015260e083015161010081818501528085015191505061012081818501528085015191505061014081818501528085015161016085015250509392505050565b61022061021b366004613c82565b610720565b60405161013b9190613cae565b61024061023b366004613c82565b6107ac565b60405161013b9190613d3b565b61026061025b366004613e3f565b610832565b60405190815260200161013b565b61028161027c366004613eb0565b61084d565b604080519384526020808501939093528151848201529181015160608085019190915291810151608080850191909152918101516001600160a01b031660a0808501919091529181015160c0840152015160e08201526101000161013b565b6102f36102ee366004613f2b565b610927565b60405161013b91906140f8565b61031361030e366004613c82565b610a76565b60405161013b919061415a565b61033361032e36600461416d565b610afc565b60405161013b91906141d8565b61012a61034e3660046141e6565b610c15565b610366610361366004614270565b610d2b565b60405161013b91906142dc565b610386610381366004613f2b565b610dad565b60405161013b91906142ea565b6103a66103a1366004614339565b610eec565b60405161013b9190614411565b6102606103c1366004614420565b6110db565b6102606103d4366004613e3f565b611172565b6103666103e7366004613c82565b611181565b6103ff6103fa36600461451d565b6111c2565b60405161013b919061457c565b61041f61041a3660046145bf565b6112af565b60405161013b91906145f4565b61043f61043a366004613c82565b6113fc565b60405161013b9190614636565b61045f61045a3660046146ff565b611482565b60405161013b91906147ef565b61026061047a366004614832565b61156b565b600080600073__$3d31b232fb363902662fbc281b11ab3357$__63fdfc26f38a886040518363ffffffff1660e01b81526004016104bd92919061488d565b61018060405180830381865af41580156104db573d6000803e3d6000fd5b505050506040513d601f19601f820116820180604052508101906104ff91906149eb565b6040516321ed73ef60e21b815290915073__$91a1a7f12f728c8759f4be979bae55555f$__906387b5cfbc90610543908c908c908c9087908c908c90600401614a38565b6040805180830381865af415801561055f573d6000803e3d6000fd5b505050506040513d601f19601f820116820180604052508101906105839190614aad565b9250925050965096945050505050565b61059b613133565b6040516306bc109960e31b815273__$7d62b333171909e88f9935bee8a07b01ad$__906335e084c8906105de908b908b908b908b908b908b908b90600401614ad1565b61060060405180830381865af41580156105fc573d6000803e3d6000fd5b505050506040513d601f19601f820116820180604052508101906106209190614ce8565b98975050505050505050565b600061068b60405180610160016040528060008152602001600081526020016000815260200160008152602001600081526020016000815260200160008152602001600081526020016000815260200160008152602001600081525090565b604051637d494dc360e01b815273__$e53db83827f4e07ebc418caf7145b8c2d5$__90637d494dc3906106ce908c908c908c908c908c908c908c90600401614e2b565b61018060405180830381865af41580156106ec573d6000803e3d6000fd5b505050506040513d601f19601f820116820180604052508101906107109190614e8d565b9150915097509795505050505050565b610728613174565b60405163fdfc26f360e01b815273__$3d31b232fb363902662fbc281b11ab3357$__9063fdfc26f390610761908690869060040161488d565b61018060405180830381865af415801561077f573d6000803e3d6000fd5b505050506040513d601f19601f820116820180604052508101906107a391906149eb565b90505b92915050565b6107b46131fe565b60405163fdfc26f360e01b815273__$b63e253a228f0e32f671cc49c7fc32477c$__9063fdfc26f3906107ed908690869060040161488d565b600060405180830381865af415801561080a573d6000803e3d6000fd5b505050506040513d6000823e601f3d908101601f191682016040526107a39190810190614ffd565b60006108418686868686611579565b90505b95945050505050565b6000806108926040518060c0016040528060008152602001600081526020016000815260200160006001600160a01b0316815260200160008152602001600081525090565b60405163dafa66bf60e01b815273__$ae023ddda47a46a9af6ec057a2ebe54454$__9063dafa66bf906108d3908c908c908c908c908c908c90600401615157565b61010060405180830381865af41580156108f1573d6000803e3d6000fd5b505050506040513d601f19601f8201168201806040525081019061091591906151a9565b92509250925096509650969350505050565b606060006109378686868661160a565b9050600081516001600160401b03811115610954576109546135b3565b60405190808252806020026020018201604052801561098d57816020015b61097a613290565b8152602001906001900390816109725790505b50905060005b8251811015610a695760008382815181106109b0576109b0615231565b6020026020010151905073__$9dcb75ef0bb6c4288f2ccffe7dc492c4eb$__63fdfc26f38a836040518363ffffffff1660e01b81526004016109f392919061488d565b600060405180830381865af4158015610a10573d6000803e3d6000fd5b505050506040513d6000823e601f3d908101601f19168201604052610a389190810190615342565b838381518110610a4a57610a4a615231565b6020026020010181905250508080610a619061547c565b915050610993565b509150505b949350505050565b610a7e613290565b60405163fdfc26f360e01b815273__$9dcb75ef0bb6c4288f2ccffe7dc492c4eb$__9063fdfc26f390610ab7908690869060040161488d565b600060405180830381865af4158015610ad4573d6000803e3d6000fd5b505050506040513d6000823e601f3d908101601f191682016040526107a39190810190615342565b610b04613351565b60405163a8d8fff560e01b815260009073__$ff439aa65a80c9eec648f15db20b189505$__9063a8d8fff590610b40908c908c90600401615495565b608060405180830381865af4158015610b5d573d6000803e3d6000fd5b505050506040513d601f19601f82011682018060405250810190610b8191906154af565b604051630a37d4c760e11b815290915073__$ae023ddda47a46a9af6ec057a2ebe54454$__9063146fa98e90610bc7908c9085908c908c908c908c908c90600401615516565b606060405180830381865af4158015610be4573d6000803e3d6000fd5b505050506040513d601f19601f82011682018060405250810190610c08919061556a565b9998505050505050505050565b600080600073__$ff439aa65a80c9eec648f15db20b189505$__63a8d8fff58b8b6040518363ffffffff1660e01b8152600401610c53929190615495565b608060405180830381865af4158015610c70573d6000803e3d6000fd5b505050506040513d601f19601f82011682018060405250810190610c9491906154af565b6040516340f5d44f60e11b815290915073__$ae023ddda47a46a9af6ec057a2ebe54454$__906381eba89e90610cda908d9085908d908d908d908d908d90600401615586565b6040805180830381865af4158015610cf6573d6000803e3d6000fd5b505050506040513d601f19601f82011682018060405250810190610d1a9190614aad565b925092505097509795505050505050565b610d33613372565b60405163a8d8fff560e01b815273__$ff439aa65a80c9eec648f15db20b189505$__9063a8d8fff590610d6c9086908690600401615495565b608060405180830381865af4158015610d89573d6000803e3d6000fd5b505050506040513d601f19601f820116820180604052508101906107a391906154af565b60606000610dbd86868686611696565b9050600081516001600160401b03811115610dda57610dda6135b3565b604051908082528060200260200182016040528015610e1357816020015b610e00613174565b815260200190600190039081610df85790505b50905060005b8251811015610a69576000838281518110610e3657610e36615231565b6020026020010151905073__$3d31b232fb363902662fbc281b11ab3357$__63fdfc26f38a836040518363ffffffff1660e01b8152600401610e7992919061488d565b61018060405180830381865af4158015610e97573d6000803e3d6000fd5b505050506040513d601f19601f82011682018060405250810190610ebb91906149eb565b838381518110610ecd57610ecd615231565b6020026020010181905250508080610ee49061547c565b915050610e19565b610ef4613399565b60405163a8d8fff560e01b815260009073__$ff439aa65a80c9eec648f15db20b189505$__9063a8d8fff590610f309088908790600401615495565b608060405180830381865af4158015610f4d573d6000803e3d6000fd5b505050506040513d601f19601f82011682018060405250810190610f7191906154af565b90506000610f8286838760016116b0565b90506000610f9387848860006116b0565b9050600073__$7d62b333171909e88f9935bee8a07b01ad$__630dc7f3eb89868a6040518463ffffffff1660e01b8152600401610fd2939291906155d8565b60c060405180830381865af4158015610fef573d6000803e3d6000fd5b505050506040513d601f19601f820116820180604052508101906110139190615603565b90506000611021898661189d565b90506000896001600160a01b0316637ae1cfca61104188600001516118f1565b6040518263ffffffff1660e01b815260040161105f91815260200190565b602060405180830381865afa15801561107c573d6000803e3d6000fd5b505050506040513d601f19601f820116820180604052508101906110a09190615668565b6040805160c0810182529788526020880196909652948601939093526060850191909152608084015250151560a082015290505b9392505050565b60008073__$ff439aa65a80c9eec648f15db20b189505$__63a8d8fff588886040518363ffffffff1660e01b8152600401611117929190615495565b608060405180830381865af4158015611134573d6000803e3d6000fd5b505050506040513d601f19601f8201168201806040525081019061115891906154af565b90506111678782878787611974565b979650505050505050565b600061084186868686866119b8565b611189613372565b6040516329bc01e160e11b815273__$ff439aa65a80c9eec648f15db20b189505$__9063537803c290610d6c908690869060040161488d565b606060006111d18685856119e3565b9050600081516001600160401b038111156111ee576111ee6135b3565b60405190808252806020026020018201604052801561122757816020015b611214613399565b81526020019060019003908161120c5790505b50905060005b8251811015610a6957600087828151811061124a5761124a615231565b60200260200101519050600084838151811061126857611268615231565b6020026020010151905061127d8a8383610eec565b84848151811061128f5761128f615231565b6020026020010181905250505080806112a79061547c565b91505061122d565b606060006112be8585856119e3565b9050600081516001600160401b038111156112db576112db6135b3565b60405190808252806020026020018201604052801561131457816020015b611301613372565b8152602001906001900390816112f95790505b50905060005b82518110156113f257600083828151811061133757611337615231565b60200260200101519050600073__$ff439aa65a80c9eec648f15db20b189505$__63a8d8fff58a846040518363ffffffff1660e01b815260040161137c929190615495565b608060405180830381865af4158015611399573d6000803e3d6000fd5b505050506040513d601f19601f820116820180604052508101906113bd91906154af565b9050808484815181106113d2576113d2615231565b6020026020010181905250505080806113ea9061547c565b91505061131a565b5095945050505050565b611404613414565b60405163fdfc26f360e01b815273__$3dc24d71d6ebafc0c4ce8ac2f69cd1548a$__9063fdfc26f39061143d908690869060040161488d565b600060405180830381865af415801561145a573d6000803e3d6000fd5b505050506040513d6000823e601f3d908101601f191682016040526107a39190810190615685565b6060600084516001600160401b0381111561149f5761149f6135b3565b6040519080825280602002602001820160405280156114d857816020015b6114c5613133565b8152602001906001900390816114bd5790505b50905060005b85518110156115605760008682815181106114fb576114fb615231565b6020026020010151905061152f89898389868151811061151d5761151d615231565b602002602001015160008a6001610593565b83838151811061154157611541615231565b60200260200101819052505080806115589061547c565b9150506114de565b509695505050505050565b600061084485858585611aa8565b60008061158f61158a888887611ad7565b611b2a565b9050600061159e888887611b9d565b90508115806115ab575080155b156115bb57600092505050610844565b60006115c8878787611be4565b905060006115d961158a83856157ad565b90506000876115f1576115ec82866157c4565b6115fb565b6115fb85836157c4565b9b9a5050505050505050505050565b6060846001600160a01b031663f069052a61162486611c1d565b6040516001600160e01b031960e084901b16815260048101919091526024810186905260448101859052606401600060405180830381865afa15801561166e573d6000803e3d6000fd5b505050506040513d6000823e601f3d908101601f1916820160405261084491908101906157eb565b6060846001600160a01b031663f069052a61162486611c55565b6000806116bf86868686611c90565b9050806000036116d3576000915050610a6e565b6000866001600160a01b0316637ae1cfca6040516020016117319060208082526023908201527f534b49505f424f52524f57494e475f4645455f464f525f534d414c4c45525f5360408201526249444560e81b606082015260800190565b604051602081830303815290604052805190602001206040518263ffffffff1660e01b815260040161176591815260200190565b602060405180830381865afa158015611782573d6000803e3d6000fd5b505050506040513d601f19601f820116820180604052508101906117a69190615668565b9050801561180e5760006117bc88886001611ad7565b905060006117cc89896000611ad7565b90508580156117da57508082105b156117ec576000945050505050610a6e565b851580156117f957508181105b1561180b576000945050505050610a6e565b50505b600061181e888888886000611ccc565b90508060000361184157604051630d5f5aef60e31b815260040160405180910390fd5b600061185289896000015188611d45565b905060006118608583611dbf565b9050600061186e8285611e1e565b905060006118818c8c600001518b611e2c565b905061188d8282611e47565b9c9b505050505050505050505050565b6118a5613351565b6000806118b6858560000151611e60565b925092505060006118cb868660200151611ff8565b604080516060810182529586526020860194909452928401929092525090949350505050565b6000604051602001611929906020808252601290820152711254d7d3505492d15517d11254d05093115160721b604082015260600190565b60408051601f198184030181528282528051602091820120908301526001600160a01b038416908201526060015b604051602081830303815290604052805190602001209050919050565b600080611985878787878715611ccc565b905080600003611999576000915050610844565b60006119ac888888600001518888611579565b9050610620818361210e565b6000806119c6878786611ad7565b905060006119d78888888888611579565b9050610620828261214d565b6060836001600160a01b031663e7e4148e604051602001611a23906020808252600b908201526a13505492d15517d31254d560aa1b604082015260600190565b60408051601f198184030181529082905280516020909101206001600160e01b031960e084901b16825260048201526024810186905260448101859052606401600060405180830381865afa158015611a80573d6000803e3d6000fd5b505050506040513d6000823e601f3d908101601f19168201604052610a6e9190810190615870565b600080611ab9868686600187611579565b90506000611acb878787600088611579565b905061116781836158a4565b600080611aec84604001518560600151612163565b90506000611b0586866000015187604001518786612192565b90506000611b1e87876000015188606001518887612192565b905061116781836158cc565b60006001600160ff1b03821115611b995760405162461bcd60e51b815260206004820152602860248201527f53616665436173743a2076616c756520646f65736e27742066697420696e2061604482015267371034b73a191a9b60c11b60648201526084015b60405180910390fd5b5090565b600080611bb284604001518560600151612163565b90506000611bcb86866000015187604001518786612218565b90506000611b1e87876000015188606001518887612218565b60008215611c055781611bf8578351611bfe565b83602001515b90506110d4565b81611c14578360200151610a6e565b50509051919050565b6000604051602001611929906020808252601290820152711050d0d3d5539517d3d491115497d31254d560721b604082015260600190565b6000604051602001611929906020808252601590820152741050d0d3d5539517d413d4d2551253d397d31254d5605a1b604082015260600190565b6000808215611cc1576000611ca6878786611b9d565b855160200151909150611cb990826157ad565b915050610844565b610841868685611ad7565b60008083611cde578560600151611ce4565b85604001515b90506000611cf3888884612235565b905060008415611d215785611d1057866040015160200151611d1a565b8660200151602001515b9050611d3b565b85611d3157604087015151611d38565b6020870151515b90505b610c0881836157ad565b6000836001600160a01b031663bd02d0f5611d6085856122d3565b6040518263ffffffff1660e01b8152600401611d7e91815260200190565b602060405180830381865afa158015611d9b573d6000803e3d6000fd5b505050506040513d601f19601f82011682018060405250810190610a6e91906158df565b600068327cb2734119d3b7a9601e1b831015611ddd575060006107a6565b68327cb2734119d3b7a9601e1b8203611df75750816107a6565b6000611e13611e0585612366565b611e0e85612366565b612377565b9050610a6e816123b9565b60006107a3838360006123ca565b6000836001600160a01b031663bd02d0f5611d608585612412565b60006107a3838368327cb2734119d3b7a9601e1b612448565b600080600080856001600160a01b031663a6ed563e611e7e87612455565b6040518263ffffffff1660e01b8152600401611e9c91815260200190565b602060405180830381865afa158015611eb9573d6000803e3d6000fd5b505050506040513d601f19601f82011682018060405250810190611edd91906158df565b905080611ef557600080600093509350935050611ff1565b6001866001600160a01b031663bd02d0f5611f1184600161248c565b6040518263ffffffff1660e01b8152600401611f2f91815260200190565b602060405180830381865afa158015611f4c573d6000803e3d6000fd5b505050506040513d601f19601f82011682018060405250810190611f7091906158df565b876001600160a01b031663bd02d0f5611f8a85600061248c565b6040518263ffffffff1660e01b8152600401611fa891815260200190565b602060405180830381865afa158015611fc5573d6000803e3d6000fd5b505050506040513d601f19601f82011682018060405250810190611fe991906158df565b935093509350505b9250925092565b6000806000846001600160a01b031663a6ed563e612015866124fe565b6040518263ffffffff1660e01b815260040161203391815260200190565b602060405180830381865afa158015612050573d6000803e3d6000fd5b505050506040513d601f19601f8201168201806040525081019061207491906158df565b905080612088576000809250925050612107565b6001856001600160a01b031663dc97d9626120a284612534565b6040518263ffffffff1660e01b81526004016120c091815260200190565b602060405180830381865afa1580156120dd573d6000803e3d6000fd5b505050506040513d601f19601f8201168201806040525081019061210191906158df565b92509250505b9250929050565b60008061212361211d856125a0565b84611e1e565b9050600084136121445761213681611b2a565b61213f906158f8565b610a6e565b610a6e81611b2a565b60008161215984611b2a565b6107a391906158a4565b6000816001600160a01b0316836001600160a01b031614612185576001612188565b60025b60ff169392505050565b600081866001600160a01b031663bd02d0f56121af8888886125b3565b6040518263ffffffff1660e01b81526004016121cd91815260200190565b602060405180830381865afa1580156121ea573d6000803e3d6000fd5b505050506040513d601f19601f8201168201806040525081019061220e91906158df565b610841919061592a565b600081866001600160a01b031663bd02d0f56121af888888612645565b60008061224a84604001518560600151612163565b905080856001600160a01b031663bd02d0f561226a876000015187612682565b6040518263ffffffff1660e01b815260040161228891815260200190565b602060405180830381865afa1580156122a5573d6000803e3d6000fd5b505050506040513d601f19601f820116820180604052508101906122c991906158df565b610844919061592a565b6000604051602001612312906020808252601990820152782127a92927aba4a723afa2ac2827a722a72a2fa320a1aa27a960391b604082015260600190565b60408051601f198184030181528282528051602091820120908301526001600160a01b0385169082015282151560608201526080015b60405160208183030381529060405280519060200120905092915050565b60006107a664e8d4a510008361592a565b60008260000361239f57811561238e576000612398565b670de0b6b3a76400005b90506107a6565b6107a36123b46123ae856126f0565b846127a6565b6127b2565b60006107a664e8d4a51000836157ad565b6000836000036123dc575060006110d4565b81156123fb57611bfe8468327cb2734119d3b7a9601e1b8560016127f8565b610a6e8468327cb2734119d3b7a9601e1b85612849565b60006040516020016123129060208082526010908201526f2127a92927aba4a723afa320a1aa27a960811b604082015260600190565b6000610a6e848484612849565b6000604051602001611929906020808252601190820152701592549515505317d3505492d15517d251607a1b604082015260600190565b60006040516020016124cd906020808252601b908201527a5649525455414c5f494e56454e544f52595f464f525f535741505360281b604082015260600190565b60408051601f1981840301815282825280516020918201209083015281018490528215156060820152608001612348565b60006040516020016119299060208082526010908201526f1592549515505317d513d2d15397d25160821b604082015260600190565b6000604051602001612577906020808252601f908201527f5649525455414c5f494e56454e544f52595f464f525f504f534954494f4e5300604082015260600190565b60408051601f198184030181528282528051602091820120908301528101839052606001611957565b600080821215611b9957816000036107a6565b60006040516020016125e6906020808252600d908201526c13d4115397d2539511549154d5609a1b604082015260600190565b60408051601f198184030181528282528051602091820120908301526001600160a01b038087169183019190915284166060820152821515608082015260a0016040516020818303038152906040528051906020012090509392505050565b60006040516020016125e6906020808252601790820152764f50454e5f494e5445524553545f494e5f544f4b454e5360481b604082015260600190565b60006040516020016126b3906020808252600b908201526a1413d3d317d05353d5539560aa1b604082015260600190565b60408051601f198184030181528282528051602091820120908301526001600160a01b038086169183019190915283166060820152608001612348565b6000670de0b6b3a764000082101561271e57604051633621413760e21b815260048101839052602401611b90565b6000612733670de0b6b3a764000084046128f8565b670de0b6b3a764000081029250905082811c670de0b6b3a763ffff19810161275c575050919050565b6706f05b59d3b200005b801561279e57670de0b6b3a7640000828002049150671bc16d674ec800008210612796579283019260019190911c905b60011c612766565b505050919050565b60006107a383836129db565b6000680a688906bd8b00000082106127e057604051634a4f26f160e01b815260048101839052602401611b90565b670de0b6b3a7640000604083901b046110d481612aa1565b600080612806868686612849565b9050600183600281111561281c5761281c613f71565b14801561283957506000848061283457612834615914565b868809115b15610844576108416001826158cc565b60008080600019858709858702925082811083820303915050806000036128835783828161287957612879615914565b04925050506110d4565b80841161288f57600080fd5b60008486880960026001871981018816978890046003810283188082028403028082028403028082028403028082028403028082028403029081029092039091026000889003889004909101858311909403939093029303949094049190911702949350505050565b6000600160801b821061291857608091821c9161291590826158cc565b90505b600160401b821061293657604091821c9161293390826158cc565b90505b600160201b821061295457602091821c9161295190826158cc565b90505b62010000821061297157601091821c9161296e90826158cc565b90505b610100821061298d57600891821c9161298a90826158cc565b90505b601082106129a857600491821c916129a590826158cc565b90505b600482106129c357600291821c916129c090826158cc565b90505b600282106129d6576107a66001826158cc565b919050565b60008080600019848609848602925082811083820303915050670de0b6b3a76400008110612a1f5760405163698d9a0160e11b815260048101829052602401611b90565b600080670de0b6b3a764000086880991506706f05b59d3b1ffff8211905082600003612a5d5780670de0b6b3a76400008504019450505050506107a6565b620400008285030493909111909103600160ee1b02919091177faccb18165bd6fe31ae1cf318dc5b51eee0e1ba569b88cd74c1773b91fac106690201905092915050565b600160bf1b6001603f1b821615612ac15768016a09e667f3bcc9090260401c5b6001603e1b821615612adc576801306fe0a31b7152df0260401c5b6001603d1b821615612af7576801172b83c7d517adce0260401c5b6001603c1b821615612b125768010b5586cf9890f62a0260401c5b6001603b1b821615612b2d576801059b0d31585743ae0260401c5b6001603a1b821615612b4857680102c9a3e778060ee70260401c5b600160391b821615612b635768010163da9fb33356d80260401c5b600160381b821615612b7e57680100b1afa5abcbed610260401c5b600160371b821615612b995768010058c86da1c09ea20260401c5b600160361b821615612bb4576801002c605e2e8cec500260401c5b600160351b821615612bcf57680100162f3904051fa10260401c5b600160341b821615612bea576801000b175effdc76ba0260401c5b600160331b821615612c0557680100058ba01fb9f96d0260401c5b600160321b821615612c205768010002c5cc37da94920260401c5b600160311b821615612c3b576801000162e525ee05470260401c5b600160301b821615612c565768010000b17255775c040260401c5b6001602f1b821615612c71576801000058b91b5bc9ae0260401c5b6001602e1b821615612c8c57680100002c5c89d5ec6d0260401c5b6001602d1b821615612ca75768010000162e43f4f8310260401c5b6001602c1b821615612cc257680100000b1721bcfc9a0260401c5b6001602b1b821615612cdd5768010000058b90cf1e6e0260401c5b6001602a1b821615612cf8576801000002c5c863b73f0260401c5b600160291b821615612d1357680100000162e430e5a20260401c5b600160281b821615612d2e576801000000b1721835510260401c5b600160271b821615612d4957680100000058b90c0b490260401c5b600160261b821615612d645768010000002c5c8601cc0260401c5b600160251b821615612d7f576801000000162e42fff00260401c5b600160241b821615612d9a5768010000000b17217fbb0260401c5b600160231b821615612db5576801000000058b90bfce0260401c5b600160221b821615612dd057680100000002c5c85fe30260401c5b600160211b821615612deb5768010000000162e42ff10260401c5b600160201b821615612e0657680100000000b17217f80260401c5b6380000000821615612e215768010000000058b90bfc0260401c5b6340000000821615612e3c576801000000002c5c85fe0260401c5b6320000000821615612e5757680100000000162e42ff0260401c5b6310000000821615612e72576801000000000b17217f0260401c5b6308000000821615612e8d57680100000000058b90c00260401c5b6304000000821615612ea85768010000000002c5c8600260401c5b6302000000821615612ec3576801000000000162e4300260401c5b6301000000821615612ede5768010000000000b172180260401c5b62800000821615612ef8576801000000000058b90c0260401c5b62400000821615612f1257680100000000002c5c860260401c5b62200000821615612f2c5768010000000000162e430260401c5b62100000821615612f4657680100000000000b17210260401c5b62080000821615612f605768010000000000058b910260401c5b62040000821615612f7a576801000000000002c5c80260401c5b62020000821615612f9457680100000000000162e40260401c5b62010000821615612fad5761b172600160401b010260401c5b618000821615612fc5576158b9600160401b010260401c5b614000821615612fdd57612c5d600160401b010260401c5b612000821615612ff55761162e600160401b010260401c5b61100082161561300d57610b17600160401b010260401c5b6108008216156130255761058c600160401b010260401c5b61040082161561303d576102c6600160401b010260401c5b61020082161561305557610163600160401b010260401c5b61010082161561306c5760b1600160401b010260401c5b6080821615613082576059600160401b010260401c5b604082161561309857602c600160401b010260401c5b60208216156130ae576016600160401b010260401c5b60108216156130c457600b600160401b010260401c5b60088216156130da576006600160401b010260401c5b60048216156130f0576003600160401b010260401c5b6002821615613106576001600160401b010260401c5b600182161561311c576001600160401b010260401c5b670de0b6b3a76400000260409190911c60bf031c90565b6040518060a00160405280613146613174565b815260200161315361345c565b8152602001613160613351565b815260200160008152602001600081525090565b6040805160c081019091526000606082018181526080830182905260a0830191909152819081526020016131e660405180610100016040528060008152602001600081526020016000815260200160008152602001600081526020016000815260200160008152602001600081525090565b81526040805160208181019092526000815291015290565b604080516101808101909152600060608083018281526080840183905260a0840183905260c0840183905260e084018390526101008401839052610120840192909252610140830181905261016083015281905b81526020016131e66040518060c001604052806000815260200160008152602001600081526020016000815260200160008152602001600081525090565b604080516101408101909152600060608083018281526080840183905260a0840183905260c0840183905260e0840183905261010084019290925261012083015281526020810161332e60408051610140810190915280600081526020016000815260200160008152602001600081526020016000815260200160008152602001600081526020016000815260200160008152602001600081525090565b815260408051606081018252600080825260208281018290529282015291015290565b60405180606001604052806000815260200160008152602001600081525090565b60408051608081018252600080825260208201819052918101829052606081019190915290565b6040518060c001604052806133ac613372565b815260200160008152602001600081526020016133fa6040518060c0016040528060001515815260200160008152602001600081526020016000815260200160008152602001600081525090565b8152602001613407613351565b8152600060209091015290565b604080516101408101909152600060608083018281526080840183905260a0840183905260c0840183905260e084019290925261010083018190526101208301528190613252565b604080516102c0810190915260006101c082018181526101e08301829052610200830182905261022083018290526102408301829052610260830182905261028083018290526102a0830191909152819081526020016134e46040518060a0016040528060008152602001600081526020016000815260200160008152602001600081525090565b81526020016135146040518060800160405280600081526020016000815260200160008152602001600081525090565b81526040805160608101825260008082526020828101829052928201529101908152602001613556604051806040016040528060008152602001600081525090565b81526020016000815260200160008152602001600081526020016000815260200160008152602001600081526020016000815260200160008152602001600081525090565b6001600160a01b03811681146135b057600080fd5b50565b634e487b7160e01b600052604160045260246000fd5b604051608081016001600160401b03811182821017156135eb576135eb6135b3565b60405290565b604080519081016001600160401b03811182821017156135eb576135eb6135b3565b604051606081016001600160401b03811182821017156135eb576135eb6135b3565b60405161010081016001600160401b03811182821017156135eb576135eb6135b3565b60405160a081016001600160401b03811182821017156135eb576135eb6135b3565b6040516101c081016001600160401b03811182821017156135eb576135eb6135b3565b60405161016081016001600160401b03811182821017156135eb576135eb6135b3565b60405160c081016001600160401b03811182821017156135eb576135eb6135b3565b60405161012081016001600160401b03811182821017156135eb576135eb6135b3565b60405161014081016001600160401b03811182821017156135eb576135eb6135b3565b60405160e081016001600160401b03811182821017156135eb576135eb6135b3565b604051601f8201601f191681016001600160401b0381118282101715613772576137726135b3565b604052919050565b80356129d68161359b565b60006080828403121561379757600080fd5b61379f6135c9565b905081356137ac8161359b565b815260208201356137bc8161359b565b602082015260408201356137cf8161359b565b604082015260608201356137e28161359b565b606082015292915050565b6000604082840312156137ff57600080fd5b6138076135f1565b9050813581526020820135602082015292915050565b600060c0828403121561382f57600080fd5b613837613613565b905061384383836137ed565b815261385283604084016137ed565b602082015261386483608084016137ed565b604082015292915050565b6000806000806000806101c0878903121561388957600080fd5b86356138948161359b565b95506138a38860208901613785565b94506138b28860a0890161381d565b9350610160870135925061018087013591506101a087013590509295509295509295565b80151581146135b057600080fd5b6000806000806000806000610180888a03121561390057600080fd5b873561390b8161359b565b9650602088013561391b8161359b565b9550604088013594506139318960608a0161381d565b9350610120880135925061014088013561394a8161359b565b915061016088013561395b816138d6565b8091505092959891949750929550565b6001600160a01b03169052565b80516001600160a01b03908116835260208083015182169084015260409182015116910152565b805182526020810151602083015260408101516040830152606081015160608301526080810151608083015260a081015160a083015260c081015160c083015260e081015160e08301525050565b6139f8828251613978565b6020810151613a0a606084018261399f565b50604001515115156101609190910152565b80518252602090810151910152565b8051825260208082015190830152604090810151910152565b613a4f8282516139ed565b6020818101518051805161018086810191909152928101516001600160a01b039081166101a08701526040820151166101c086015260608101516101e0860152608081015161020086015260a081015161022086015260c081015161024086015260e00151610260850152906020828101518051610280870152908101516102a086015260408101516102c086015260608101516102e08601526080810151610300860152506040828101518051610320870152602081015161034087015290810151610360860152606081015161038086015250606082015180516001600160a01b03166103a086015260208101516103c086015260408101516103e0860152506080820151613b64610400860182613a1c565b5060a082015161044085015260c082015161046085015260e08201516104808501526101008201516104a08501526101208201516104c08501526101408201516104e08501526101608201516105008501528101516105208401526101a001516105408301526040810151613bdd610560840182613a2b565b5060608101516105c0830152608001516105e090910152565b61060081016107a68284613a44565b60008060008060008060006101a0888a031215613c2157600080fd5b8735613c2c8161359b565b9650613c3b8960208a01613785565b9550613c4a8960a08a016137ed565b9450613c598960e08a016137ed565b9350613c69896101208a016137ed565b9250610160880135915061018088013561395b816138d6565b60008060408385031215613c9557600080fd5b8235613ca08161359b565b946020939093013593505050565b61018081016107a682846139ed565b600081518084526020808501945080840160005b83811015613cf65781516001600160a01b031687529582019590820190600101613cd1565b509495945050505050565b805182526020810151602083015260408101516040830152606081015160608301526080810151608083015260a081015160a08301525050565b6020815260006101208351610100806020860152613d5c838601835161396b565b6020820151613d6f61014087018261396b565b506040820151613d8361016087018261396b565b506060820151613d9761018087018261396b565b506080820151613dab6101a087018261396b565b5060a0820151613dbf6101c087018261396b565b5060c0820151613dd36101e087018261396b565b5060e082015183610200870152613dee610240870182613cbd565b9282015186840361011f1901610220880152929350613e0f90508383613cbd565b925060208601519150613e256040860183613d01565b6040860151805115158683015291505b5090949350505050565b60008060008060006101208688031215613e5857600080fd5b8535613e638161359b565b9450613e728760208801613785565b9350613e818760a088016137ed565b925060e0860135613e91816138d6565b9150610100860135613ea2816138d6565b809150509295509295909350565b6000806000806000806101c08789031215613eca57600080fd5b8635613ed58161359b565b9550613ee48860208901613785565b9450613ef38860a0890161381d565b9350610160870135613f048161359b565b925061018087013591506101a0870135613f1d8161359b565b809150509295509295509295565b60008060008060808587031215613f4157600080fd5b8435613f4c8161359b565b93506020850135613f5c8161359b565b93969395505050506040820135916060013590565b634e487b7160e01b600052602160045260246000fd5b60088110613f9757613f97613f71565b9052565b60038110613f9757613f97613f71565b613fb6828251613f87565b6020810151613fc86020840182613f9b565b5060408101516040830152606081015160608301526080810151608083015260a081015160a083015260c081015160c083015260e081015160e08301526101008082015181840152506101208082015181840152505050565b80516101c080845281516001600160a01b0390811691850191909152602082015181166101e0850152604082015116610200840152606081015160009161406c61022086018361396b565b6080810151915061408161024086018361396b565b60a0810151915061409661026086018361396b565b60c0015160e061028086015290506140b26102a0850182613cbd565b905060208301516140c66020860182613fab565b5060408381015180511515610160870152602081015115156101808701529081015115156101a0860152509392505050565b6000602080830181845280855180835260408601915060408160051b870101925083870160005b8281101561414d57603f1988860301845261413b858351614021565b9450928501929085019060010161411f565b5092979650505050505050565b6020815260006107a36020830184614021565b6000806000806000806000610100888a03121561418957600080fd5b87356141948161359b565b965060208801356141a48161359b565b95506141b38960408a016137ed565b94506080880135935060a0880135925060c0880135915060e088013561395b816138d6565b606081016107a68284613a2b565b6000806000806000806000610120888a03121561420257600080fd5b873561420d8161359b565b9650602088013561421d8161359b565b9550604088013561422d8161359b565b9450606088013561423d8161359b565b9350608088013592506142538960a08a016137ed565b91506142628960e08a016137ed565b905092959891949750929550565b6000806040838503121561428357600080fd5b823561428e8161359b565b9150602083013561429e8161359b565b809150509250929050565b80516001600160a01b03908116835260208083015182169084015260408083015182169084015260609182015116910152565b608081016107a682846142a9565b6020808252825182820181905260009190848201906040850190845b8181101561432d576143198385516139ed565b928401926101809290920191600101614306565b50909695505050505050565b6000806000610100848603121561434f57600080fd5b833561435a8161359b565b9250614369856020860161381d565b915060e08401356143798161359b565b809150509250925092565b61438f8282516142a9565b60208101516080830152604081015160a083015260608101518051151560c0840152602081015160e084015260408101516101008401526060810151610120840152608081015161014084015260a08101516101608401525060808101516143fb610180840182613a2b565b5060a0015115156101e09190910152565b505050565b61020081016107a68284614384565b6000806000806000610140868803121561443957600080fd5b85356144448161359b565b945060208601356144548161359b565b9350614463876040880161381d565b9250610100860135614474816138d6565b9150610120860135613ea2816138d6565b60006001600160401b0382111561449e5761449e6135b3565b5060051b60200190565b600082601f8301126144b957600080fd5b813560206144ce6144c983614485565b61374a565b82815260c092830285018201928282019190878511156144ed57600080fd5b8387015b8581101561451057614503898261381d565b84529284019281016144f1565b5090979650505050505050565b6000806000806080858703121561453357600080fd5b843561453e8161359b565b935060208501356001600160401b0381111561455957600080fd5b614565878288016144a8565b949794965050505060408301359260600135919050565b6020808252825182820181905260009190848201906040850190845b8181101561432d576145ab838551614384565b928401926102009290920191600101614598565b6000806000606084860312156145d457600080fd5b83356145df8161359b565b95602085013595506040909401359392505050565b6020808252825182820181905260009190848201906040850190845b8181101561432d576146238385516142a9565b9284019260809290920191600101614610565b602081526000825161010080602085015260018060a01b0380835116610120860152806020840151166101408601528060408401511661016086015250606082015161468661018086018261396b565b50608082015161469a6101a086018261396b565b5060a082015160e06101c08601526146b6610200860182613cbd565b905060c0830151925061011f19858203016101e08601526146d78184613cbd565b92505060208501516146ec6040860182613d01565b5060408501518051151585830152613e35565b600080600080600060a0868803121561471757600080fd5b85356147228161359b565b94506020868101356147338161359b565b945060408701356001600160401b038082111561474f57600080fd5b818901915089601f83011261476357600080fd5b81356147716144c982614485565b81815260059190911b8301840190848101908c83111561479057600080fd5b938501935b828510156147ae57843582529385019390850190614795565b9750505060608901359250808311156147c657600080fd5b50506147d4888289016144a8565b9250506147e36080870161377a565b90509295509295909350565b6020808252825182820181905260009190848201906040850190845b8181101561432d5761481e838551613a44565b92840192610600929092019160010161480b565b600080600080610100858703121561484957600080fd5b84356148548161359b565b93506148638660208701613785565b92506148728660a087016137ed565b915060e0850135614882816138d6565b939692955090935050565b6001600160a01b03929092168252602082015260400190565b80516129d68161359b565b6000602082840312156148c357600080fd5b604051602081016001600160401b03811182821017156148e5576148e56135b3565b806040525080915082516148f8816138d6565b905292915050565b600081830361018081121561491457600080fd5b61491c613613565b9150606081121561492c57600080fd5b614934613613565b835161493f8161359b565b8152602084015161494f8161359b565b602082015260408401516149628161359b565b60408201528252610100605f19820181131561497d57600080fd5b614985613635565b9150606084015182526080840151602083015260a0840151604083015260c0840151606083015260e084015160808301528084015160a08301525061012083015160c082015261014083015160e0820152806020830152506138648361016084016148b1565b600061018082840312156149fe57600080fd5b6107a38383614900565b614a13828251613a1c565b6020810151614a256040840182613a1c565b50604081015161440c6080840182613a1c565b6001600160a01b03871681526103208101614a5660208301886142a9565b614a6360a0830187614a08565b614a7261016083018651613978565b6020850151614a856101c084018261399f565b5060408501515115156102c0830152836102e083015282610300830152979650505050505050565b60008060408385031215614ac057600080fd5b505080516020909101519092909150565b6001600160a01b038881168252878116602083015260408201879052610180820190614b006060840188614a08565b856101208401528085166101408401525082151561016083015298975050505050505050565b60006101008284031215614b3957600080fd5b614b41613635565b9050815181526020820151614b558161359b565b60208201526040820151614b688161359b565b80604083015250606082015160608201526080820151608082015260a082015160a082015260c082015160c082015260e082015160e082015292915050565b600060a08284031215614bb957600080fd5b614bc1613658565b9050815181526020820151602082015260408201516040820152606082015160608201526080820151608082015292915050565b600060808284031215614c0757600080fd5b614c0f6135c9565b90508151815260208201516020820152604082015160408201526060820151606082015292915050565b600060608284031215614c4b57600080fd5b614c53613613565b90508151614c608161359b565b80825250602082015160208201526040820151604082015292915050565b600060408284031215614c9057600080fd5b614c986135f1565b9050815181526020820151602082015292915050565b600060608284031215614cc057600080fd5b614cc8613613565b905081518152602082015160208201526040820151604082015292915050565b6000818303610600811215614cfc57600080fd5b614d04613658565b614d0e8585614900565b81526101806103e061017f1984011215614d2757600080fd5b614d2f61367a565b9250614d3d86828701614b26565b8352614d4d866102808701614ba7565b6020840152614d60866103208701614bf5565b6040840152614d73866103a08701614c39565b6060840152614d86866104008701614c7e565b608084015261044085015160a084015261046085015160c084015261048085015160e08401526104a08501516101008401526104c08501516101208401526104e085015161014084015261050085015161016084015261052085015181840152506105408401516101a0830152816020820152614e07856105608601614cae565b60408201526105c084015160608201526105e0909301516080840152509092915050565b6001600160a01b03881681526101a08101614e4960208301896142a9565b614e5660a0830188613a1c565b614e6360e0830187613a1c565b614e71610120830186613a1c565b8361016083015282151561018083015298975050505050505050565b600080828403610180811215614ea257600080fd5b8351925061016080601f1983011215614eba57600080fd5b614ec261369d565b91506020850151825260408501516020830152606085015160408301526080850151606083015260a0850151608083015260c085015160a083015260e085015160c08301526101008086015160e08401526101208087015182850152610140915081870151818501525081860151818401525050809150509250929050565b600082601f830112614f5257600080fd5b81516020614f626144c983614485565b82815260059290921b84018101918181019086841115614f8157600080fd5b8286015b84811015611560578051614f988161359b565b8352918301918301614f85565b600060c08284031215614fb757600080fd5b614fbf6136c0565b9050815181526020820151602082015260408201516040820152606082015160608201526080820151608082015260a082015160a082015292915050565b60006020828403121561500f57600080fd5b81516001600160401b038082111561502657600080fd5b818401915061010080838703121561503d57600080fd5b615045613613565b83518381111561505457600080fd5b8401610120818903121561506757600080fd5b61506f6136e2565b615078826148a6565b8152615086602083016148a6565b6020820152615097604083016148a6565b60408201526150a8606083016148a6565b60608201526150b9608083016148a6565b60808201526150ca60a083016148a6565b60a08201526150db60c083016148a6565b60c082015260e0820151858111156150f257600080fd5b6150fe8a828501614f41565b60e083015250838201518581111561511557600080fd5b6151218a828501614f41565b82860152508252506151368760208601614fa5565b60208201526151488760e086016148b1565b60408201529695505050505050565b6001600160a01b0387811682526101c082019061517760208401896142a9565b61518460a0840188614a08565b808616610160840152846101808401528084166101a084015250979650505050505050565b60008060008385036101008112156151c057600080fd5b845193506020850151925060c0603f19820112156151dd57600080fd5b506151e66136c0565b60408501518152606085015160208201526080850151604082015260a085015161520f8161359b565b606082015260c0850151608082015260e09094015160a0850152509093909250565b634e487b7160e01b600052603260045260246000fd5b8051600881106129d657600080fd5b8051600381106129d657600080fd5b6000610140828403121561527857600080fd5b615280613705565b905061528b82615247565b815261529960208301615256565b602082015260408201516040820152606082015160608201526080820151608082015260a082015160a082015260c082015160c082015260e082015160e082015261010080830151818301525061012080830151818301525092915050565b60006060828403121561530a57600080fd5b615312613613565b9050815161531f816138d6565b8152602082015161532f816138d6565b60208201526040820151613864816138d6565b60006020828403121561535457600080fd5b81516001600160401b038082111561536b57600080fd5b908301906101c0828603121561538057600080fd5b615388613613565b82518281111561539757600080fd5b830160e081880312156153a957600080fd5b6153b1613728565b6153ba826148a6565b81526153c8602083016148a6565b60208201526153d9604083016148a6565b60408201526153ea606083016148a6565b60608201526153fb608083016148a6565b608082015261540c60a083016148a6565b60a082015260c08201518481111561542357600080fd5b61542f89828501614f41565b60c0830152508252506154458660208501615265565b60208201526154588661016085016152f8565b604082015295945050505050565b634e487b7160e01b600052601160045260246000fd5b60006001820161548e5761548e615466565b5060010190565b6001600160a01b0392831681529116602082015260400190565b6000608082840312156154c157600080fd5b6154c96135c9565b82516154d48161359b565b815260208301516154e48161359b565b602082015260408301516154f78161359b565b6040820152606083015161550a8161359b565b60608201529392505050565b6001600160a01b0388168152610160810161553460208301896142a9565b61554160a0830188613a1c565b8560e0830152846101008301528361012083015282151561014083015298975050505050505050565b60006060828403121561557c57600080fd5b6107a38383614cae565b6001600160a01b0388811682526101808201906155a6602084018a6142a9565b87811660a0840152861660c083015260e082018590526155ca610100830185613a1c565b610620610140830184613a1c565b6001600160a01b038416815261016081016155f660208301856142a9565b610a6e60a0830184614a08565b600060c0828403121561561557600080fd5b61561d6136c0565b8251615628816138d6565b808252506020830151602082015260408301516040820152606083015160608201526080830151608082015260a083015160a08201528091505092915050565b60006020828403121561567a57600080fd5b81516110d4816138d6565b60006020828403121561569757600080fd5b81516001600160401b03808211156156ae57600080fd5b9083019061010082860312156156c357600080fd5b6156cb613613565b8251828111156156da57600080fd5b830160e081880312156156ec57600080fd5b6156f4613728565b6156fd826148a6565b815261570b602083016148a6565b602082015261571c604083016148a6565b604082015261572d606083016148a6565b606082015261573e608083016148a6565b608082015260a08201518481111561575557600080fd5b61576189828501614f41565b60a08301525060c08201518481111561577957600080fd5b61578589828501614f41565b60c08301525082525061579b8660208501614fa5565b60208201526154588660e085016148b1565b80820281158282048414176107a6576107a6615466565b81810360008312801583831316838312821617156157e4576157e4615466565b5092915050565b600060208083850312156157fe57600080fd5b82516001600160401b0381111561581457600080fd5b8301601f8101851361582557600080fd5b80516158336144c982614485565b81815260059190911b8201830190838101908783111561585257600080fd5b928401925b8284101561116757835182529284019290840190615857565b60006020828403121561588257600080fd5b81516001600160401b0381111561589857600080fd5b610a6e84828501614f41565b80820182811260008312801582168215821617156158c4576158c4615466565b505092915050565b808201808211156107a6576107a6615466565b6000602082840312156158f157600080fd5b5051919050565b6000600160ff1b820161590d5761590d615466565b5060000390565b634e487b7160e01b600052601260045260246000fd5b60008261594757634e487b7160e01b600052601260045260246000fd5b50049056fea2646970667358221220b8036386ad1c39f67bda87a3c09172273bbbc1229cf8cb8371aaac5b7be8350b64736f6c63430008130033",
  "linkReferences": {
    "contracts/deposit/DepositStoreUtils.sol": {
      "DepositStoreUtils": [
        {
          "length": 20,
          "start": 2020
        }
      ]
    },
    "contracts/market/MarketStoreUtils.sol": {
      "MarketStoreUtils": [
        {
          "length": 20,
          "start": 2871
        },
        {
          "length": 20,
          "start": 3133
        },
        {
          "length": 20,
          "start": 3427
        },
        {
          "length": 20,
          "start": 3879
        },
        {
          "length": 20,
          "start": 4353
        },
        {
          "length": 20,
          "start": 4537
        },
        {
          "length": 20,
          "start": 4966
        }
      ]
    },
    "contracts/market/MarketUtils.sol": {
      "MarketUtils": [
        {
          "length": 20,
          "start": 1723
        }
      ]
    },
    "contracts/order/OrderStoreUtils.sol": {
      "OrderStoreUtils": [
        {
          "length": 20,
          "start": 2525
        },
        {
          "length": 20,
          "start": 2734
        }
      ]
    },
    "contracts/position/PositionStoreUtils.sol": {
      "PositionStoreUtils": [
        {
          "length": 20,
          "start": 1191
        },
        {
          "length": 20,
          "start": 1880
        },
        {
          "length": 20,
          "start": 3683
        }
      ]
    },
    "contracts/position/PositionUtils.sol": {
      "PositionUtils": [
        {
          "length": 20,
          "start": 1330
        }
      ]
    },
    "contracts/reader/ReaderPricingUtils.sol": {
      "ReaderPricingUtils": [
        {
          "length": 20,
          "start": 2242
        },
        {
          "length": 20,
          "start": 2996
        },
        {
          "length": 20,
          "start": 3271
        }
      ]
    },
    "contracts/reader/ReaderUtils.sol": {
      "ReaderUtils": [
        {
          "length": 20,
          "start": 1483
        },
        {
          "length": 20,
          "start": 4026
        }
      ]
    },
    "contracts/withdrawal/WithdrawalStoreUtils.sol": {
      "WithdrawalStoreUtils": [
        {
          "length": 20,
          "start": 5172
        }
      ]
    }
  },
  "deployedLinkReferences": {
    "contracts/deposit/DepositStoreUtils.sol": {
      "DepositStoreUtils": [
        {
          "length": 20,
          "start": 1987
        }
      ]
    },
    "contracts/market/MarketStoreUtils.sol": {
      "MarketStoreUtils": [
        {
          "length": 20,
          "start": 2838
        },
        {
          "length": 20,
          "start": 3100
        },
        {
          "length": 20,
          "start": 3394
        },
        {
          "length": 20,
          "start": 3846
        },
        {
          "length": 20,
          "start": 4320
        },
        {
          "length": 20,
          "start": 4504
        },
        {
          "length": 20,
          "start": 4933
        }
      ]
    },
    "contracts/market/MarketUtils.sol": {
      "MarketUtils": [
        {
          "length": 20,
          "start": 1690
        }
      ]
    },
    "contracts/order/OrderStoreUtils.sol": {
      "OrderStoreUtils": [
        {
          "length": 20,
          "start": 2492
        },
        {
          "length": 20,
          "start": 2701
        }
      ]
    },
    "contracts/position/PositionStoreUtils.sol": {
      "PositionStoreUtils": [
        {
          "length": 20,
          "start": 1158
        },
        {
          "length": 20,
          "start": 1847
        },
        {
          "length": 20,
          "start": 3650
        }
      ]
    },
    "contracts/position/PositionUtils.sol": {
      "PositionUtils": [
        {
          "length": 20,
          "start": 1297
        }
      ]
    },
    "contracts/reader/ReaderPricingUtils.sol": {
      "ReaderPricingUtils": [
        {
          "length": 20,
          "start": 2209
        },
        {
          "length": 20,
          "start": 2963
        },
        {
          "length": 20,
          "start": 3238
        }
      ]
    },
    "contracts/reader/ReaderUtils.sol": {
      "ReaderUtils": [
        {
          "length": 20,
          "start": 1450
        },
        {
          "length": 20,
          "start": 3993
        }
      ]
    },
    "contracts/withdrawal/WithdrawalStoreUtils.sol": {
      "WithdrawalStoreUtils": [
        {
          "length": 20,
          "start": 5139
        }
      ]
    }
  }
}