{
  "_format": "hh-sol-artifact-1",
  "contractName": "Reader",
  "sourceName": "contracts/reader/Reader.sol",
  "abi": [
    {
      "inputs": [
        {
          "internalType": "uint256",
          "name": "x",
          "type": "uint256"
        }
      ],
      "name": "PRBMathUD60x18__Exp2InputTooBig",
      "type": "error"
    },
    {
      "inputs": [
        {
          "internalType": "uint256",
          "name": "x",
          "type": "uint256"
        }
      ],
      "name": "PRBMathUD60x18__LogInputTooSmall",
      "type": "error"
    },
    {
      "inputs": [
        {
          "internalType": "uint256",
          "name": "prod1",
          "type": "uint256"
        }
      ],
      "name": "PRBMath__MulDivFixedPointOverflow",
      "type": "error"
    },
    {
      "inputs": [],
      "name": "UnableToGetBorrowingFactorEmptyPoolUsd",
      "type": "error"
    },
    {
      "inputs": [
        {
          "internalType": "contract DataStore",
          "name": "dataStore",
          "type": "address"
        },
        {
          "internalType": "address",
          "name": "account",
          "type": "address"
        },
        {
          "internalType": "uint256",
          "name": "start",
          "type": "uint256"
        },
        {
          "internalType": "uint256",
          "name": "end",
          "type": "uint256"
        }
      ],
      "name": "getAccountOrders",
      "outputs": [
        {
          "components": [
            {
              "components": [
                {
                  "internalType": "address",
                  "name": "account",
                  "type": "address"
                },
                {
                  "internalType": "address",
                  "name": "receiver",
                  "type": "address"
                },
                {
                  "internalType": "address",
                  "name": "callbackContract",
                  "type": "address"
                },
                {
                  "internalType": "address",
                  "name": "uiFeeReceiver",
                  "type": "address"
                },
                {
                  "internalType": "address",
                  "name": "market",
                  "type": "address"
                },
                {
                  "internalType": "address",
                  "name": "initialCollateralToken",
                  "type": "address"
                },
                {
                  "internalType": "address[]",
                  "name": "swapPath",
                  "type": "address[]"
                }
              ],
              "internalType": "struct Order.Addresses",
              "name": "addresses",
              "type": "tuple"
            },
            {
              "components": [
                {
                  "internalType": "enum Order.OrderType",
                  "name": "orderType",
                  "type": "uint8"
                },
                {
                  "internalType": "enum Order.DecreasePositionSwapType",
                  "name": "decreasePositionSwapType",
                  "type": "uint8"
                },
                {
                  "internalType": "uint256",
                  "name": "sizeDeltaUsd",
                  "type": "uint256"
                },
                {
                  "internalType": "uint256",
                  "name": "initialCollateralDeltaAmount",
                  "type": "uint256"
                },
                {
                  "internalType": "uint256",
                  "name": "triggerPrice",
                  "type": "uint256"
                },
                {
                  "internalType": "uint256",
                  "name": "acceptablePrice",
                  "type": "uint256"
                },
                {
                  "internalType": "uint256",
                  "name": "executionFee",
                  "type": "uint256"
                },
                {
                  "internalType": "uint256",
                  "name": "callbackGasLimit",
                  "type": "uint256"
                },
                {
                  "internalType": "uint256",
                  "name": "minOutputAmount",
                  "type": "uint256"
                },
                {
                  "internalType": "uint256",
                  "name": "updatedAtBlock",
                  "type": "uint256"
                }
              ],
              "internalType": "struct Order.Numbers",
              "name": "numbers",
              "type": "tuple"
            },
            {
              "components": [
                {
                  "internalType": "bool",
                  "name": "isLong",
                  "type": "bool"
                },
                {
                  "internalType": "bool",
                  "name": "shouldUnwrapNativeToken",
                  "type": "bool"
                },
                {
                  "internalType": "bool",
                  "name": "isFrozen",
                  "type": "bool"
                }
              ],
              "internalType": "struct Order.Flags",
              "name": "flags",
              "type": "tuple"
            }
          ],
          "internalType": "struct Order.Props[]",
          "name": "",
          "type": "tuple[]"
        }
      ],
      "stateMutability": "view",
      "type": "function"
    },
    {
      "inputs": [
        {
          "internalType": "contract DataStore",
          "name": "dataStore",
          "type": "address"
        },
        {
          "internalType": "contract IReferralStorage",
          "name": "referralStorage",
          "type": "address"
        },
        {
          "internalType": "bytes32[]",
          "name": "positionKeys",
          "type": "bytes32[]"
        },
        {
          "components": [
            {
              "components": [
                {
                  "internalType": "uint256",
                  "name": "min",
                  "type": "uint256"
                },
                {
                  "internalType": "uint256",
                  "name": "max",
                  "type": "uint256"
                }
              ],
              "internalType": "struct Price.Props",
              "name": "indexTokenPrice",
              "type": "tuple"
            },
            {
              "components": [
                {
                  "internalType": "uint256",
                  "name": "min",
                  "type": "uint256"
                },
                {
                  "internalType": "uint256",
                  "name": "max",
                  "type": "uint256"
                }
              ],
              "internalType": "struct Price.Props",
              "name": "longTokenPrice",
              "type": "tuple"
            },
            {
              "components": [
                {
                  "internalType": "uint256",
                  "name": "min",
                  "type": "uint256"
                },
                {
                  "internalType": "uint256",
                  "name": "max",
                  "type": "uint256"
                }
              ],
              "internalType": "struct Price.Props",
              "name": "shortTokenPrice",
              "type": "tuple"
            }
          ],
          "internalType": "struct MarketUtils.MarketPrices[]",
          "name": "prices",
          "type": "tuple[]"
        },
        {
          "internalType": "address",
          "name": "uiFeeReceiver",
          "type": "address"
        }
      ],
      "name": "getAccountPositionInfoList",
      "outputs": [
        {
          "components": [
            {
              "components": [
                {
                  "components": [
                    {
                      "internalType": "address",
                      "name": "account",
                      "type": "address"
                    },
                    {
                      "internalType": "address",
                      "name": "market",
                      "type": "address"
                    },
                    {
                      "internalType": "address",
                      "name": "collateralToken",
                      "type": "address"
                    }
                  ],
                  "internalType": "struct Position.Addresses",
                  "name": "addresses",
                  "type": "tuple"
                },
                {
                  "components": [
                    {
                      "internalType": "uint256",
                      "name": "sizeInUsd",
                      "type": "uint256"
                    },
                    {
                      "internalType": "uint256",
                      "name": "sizeInTokens",
                      "type": "uint256"
                    },
                    {
                      "internalType": "uint256",
                      "name": "collateralAmount",
                      "type": "uint256"
                    },
                    {
                      "internalType": "uint256",
                      "name": "borrowingFactor",
                      "type": "uint256"
                    },
                    {
                      "internalType": "uint256",
                      "name": "fundingFeeAmountPerSize",
                      "type": "uint256"
                    },
                    {
                      "internalType": "uint256",
                      "name": "longTokenClaimableFundingAmountPerSize",
                      "type": "uint256"
                    },
                    {
                      "internalType": "uint256",
                      "name": "shortTokenClaimableFundingAmountPerSize",
                      "type": "uint256"
                    },
                    {
                      "internalType": "uint256",
                      "name": "increasedAtBlock",
                      "type": "uint256"
                    },
                    {
                      "internalType": "uint256",
                      "name": "decreasedAtBlock",
                      "type": "uint256"
                    }
                  ],
                  "internalType": "struct Position.Numbers",
                  "name": "numbers",
                  "type": "tuple"
                },
                {
                  "components": [
                    {
                      "internalType": "bool",
                      "name": "isLong",
                      "type": "bool"
                    }
                  ],
                  "internalType": "struct Position.Flags",
                  "name": "flags",
                  "type": "tuple"
                }
              ],
              "internalType": "struct Position.Props",
              "name": "position",
              "type": "tuple"
            },
            {
              "components": [
                {
                  "components": [
                    {
                      "internalType": "bytes32",
                      "name": "referralCode",
                      "type": "bytes32"
                    },
                    {
                      "internalType": "address",
                      "name": "affiliate",
                      "type": "address"
                    },
                    {
                      "internalType": "address",
                      "name": "trader",
                      "type": "address"
                    },
                    {
                      "internalType": "uint256",
                      "name": "totalRebateFactor",
                      "type": "uint256"
                    },
                    {
                      "internalType": "uint256",
                      "name": "traderDiscountFactor",
                      "type": "uint256"
                    },
                    {
                      "internalType": "uint256",
                      "name": "totalRebateAmount",
                      "type": "uint256"
                    },
                    {
                      "internalType": "uint256",
                      "name": "traderDiscountAmount",
                      "type": "uint256"
                    },
                    {
                      "internalType": "uint256",
                      "name": "affiliateRewardAmount",
                      "type": "uint256"
                    }
                  ],
                  "internalType": "struct PositionPricingUtils.PositionReferralFees",
                  "name": "referral",
                  "type": "tuple"
                },
                {
                  "components": [
                    {
                      "internalType": "uint256",
                      "name": "fundingFeeAmount",
                      "type": "uint256"
                    },
                    {
                      "internalType": "uint256",
                      "name": "claimableLongTokenAmount",
                      "type": "uint256"
                    },
                    {
                      "internalType": "uint256",
                      "name": "claimableShortTokenAmount",
                      "type": "uint256"
                    },
                    {
                      "internalType": "uint256",
                      "name": "latestFundingFeeAmountPerSize",
                      "type": "uint256"
                    },
                    {
                      "internalType": "uint256",
                      "name": "latestLongTokenClaimableFundingAmountPerSize",
                      "type": "uint256"
                    },
                    {
                      "internalType": "uint256",
                      "name": "latestShortTokenClaimableFundingAmountPerSize",
                      "type": "uint256"
                    }
                  ],
                  "internalType": "struct PositionPricingUtils.PositionFundingFees",
                  "name": "funding",
                  "type": "tuple"
                },
                {
                  "components": [
                    {
                      "internalType": "uint256",
                      "name": "borrowingFeeUsd",
                      "type": "uint256"
                    },
                    {
                      "internalType": "uint256",
                      "name": "borrowingFeeAmount",
                      "type": "uint256"
                    },
                    {
                      "internalType": "uint256",
                      "name": "borrowingFeeReceiverFactor",
                      "type": "uint256"
                    },
                    {
                      "internalType": "uint256",
                      "name": "borrowingFeeAmountForFeeReceiver",
                      "type": "uint256"
                    }
                  ],
                  "internalType": "struct PositionPricingUtils.PositionBorrowingFees",
                  "name": "borrowing",
                  "type": "tuple"
                },
                {
                  "components": [
                    {
                      "internalType": "address",
                      "name": "uiFeeReceiver",
                      "type": "address"
                    },
                    {
                      "internalType": "uint256",
                      "name": "uiFeeReceiverFactor",
                      "type": "uint256"
                    },
                    {
                      "internalType": "uint256",
                      "name": "uiFeeAmount",
                      "type": "uint256"
                    }
                  ],
                  "internalType": "struct PositionPricingUtils.PositionUiFees",
                  "name": "ui",
                  "type": "tuple"
                },
                {
                  "components": [
                    {
                      "internalType": "uint256",
                      "name": "min",
                      "type": "uint256"
                    },
                    {
                      "internalType": "uint256",
                      "name": "max",
                      "type": "uint256"
                    }
                  ],
                  "internalType": "struct Price.Props",
                  "name": "collateralTokenPrice",
                  "type": "tuple"
                },
                {
                  "internalType": "uint256",
                  "name": "positionFeeFactor",
                  "type": "uint256"
                },
                {
                  "internalType": "uint256",
                  "name": "protocolFeeAmount",
                  "type": "uint256"
                },
                {
                  "internalType": "uint256",
                  "name": "positionFeeReceiverFactor",
                  "type": "uint256"
                },
                {
                  "internalType": "uint256",
                  "name": "feeReceiverAmount",
                  "type": "uint256"
                },
                {
                  "internalType": "uint256",
                  "name": "feeAmountForPool",
                  "type": "uint256"
                },
                {
                  "internalType": "uint256",
                  "name": "positionFeeAmountForPool",
                  "type": "uint256"
                },
                {
                  "internalType": "uint256",
                  "name": "positionFeeAmount",
                  "type": "uint256"
                },
                {
                  "internalType": "uint256",
                  "name": "totalCostAmountExcludingFunding",
                  "type": "uint256"
                },
                {
                  "internalType": "uint256",
                  "name": "totalCostAmount",
                  "type": "uint256"
                }
              ],
              "internalType": "struct PositionPricingUtils.PositionFees",
              "name": "fees",
              "type": "tuple"
            },
            {
              "components": [
                {
                  "internalType": "int256",
                  "name": "priceImpactUsd",
                  "type": "int256"
                },
                {
                  "internalType": "uint256",
                  "name": "priceImpactDiffUsd",
                  "type": "uint256"
                },
                {
                  "internalType": "uint256",
                  "name": "executionPrice",
                  "type": "uint256"
                }
              ],
              "internalType": "struct ReaderPricingUtils.ExecutionPriceResult",
              "name": "executionPriceResult",
              "type": "tuple"
            },
            {
              "internalType": "int256",
              "name": "basePnlUsd",
              "type": "int256"
            },
            {
              "internalType": "int256",
              "name": "pnlAfterPriceImpactUsd",
              "type": "int256"
            }
          ],
          "internalType": "struct ReaderUtils.PositionInfo[]",
          "name": "",
          "type": "tuple[]"
        }
      ],
      "stateMutability": "view",
      "type": "function"
    },
    {
      "inputs": [
        {
          "internalType": "contract DataStore",
          "name": "dataStore",
          "type": "address"
        },
        {
          "internalType": "address",
          "name": "account",
          "type": "address"
        },
        {
          "internalType": "uint256",
          "name": "start",
          "type": "uint256"
        },
        {
          "internalType": "uint256",
          "name": "end",
          "type": "uint256"
        }
      ],
      "name": "getAccountPositions",
      "outputs": [
        {
          "components": [
            {
              "components": [
                {
                  "internalType": "address",
                  "name": "account",
                  "type": "address"
                },
                {
                  "internalType": "address",
                  "name": "market",
                  "type": "address"
                },
                {
                  "internalType": "address",
                  "name": "collateralToken",
                  "type": "address"
                }
              ],
              "internalType": "struct Position.Addresses",
              "name": "addresses",
              "type": "tuple"
            },
            {
              "components": [
                {
                  "internalType": "uint256",
                  "name": "sizeInUsd",
                  "type": "uint256"
                },
                {
                  "internalType": "uint256",
                  "name": "sizeInTokens",
                  "type": "uint256"
                },
                {
                  "internalType": "uint256",
                  "name": "collateralAmount",
                  "type": "uint256"
                },
                {
                  "internalType": "uint256",
                  "name": "borrowingFactor",
                  "type": "uint256"
                },
                {
                  "internalType": "uint256",
                  "name": "fundingFeeAmountPerSize",
                  "type": "uint256"
                },
                {
                  "internalType": "uint256",
                  "name": "longTokenClaimableFundingAmountPerSize",
                  "type": "uint256"
                },
                {
                  "internalType": "uint256",
                  "name": "shortTokenClaimableFundingAmountPerSize",
                  "type": "uint256"
                },
                {
                  "internalType": "uint256",
                  "name": "increasedAtBlock",
                  "type": "uint256"
                },
                {
                  "internalType": "uint256",
                  "name": "decreasedAtBlock",
                  "type": "uint256"
                }
              ],
              "internalType": "struct Position.Numbers",
              "name": "numbers",
              "type": "tuple"
            },
            {
              "components": [
                {
                  "internalType": "bool",
                  "name": "isLong",
                  "type": "bool"
                }
              ],
              "internalType": "struct Position.Flags",
              "name": "flags",
              "type": "tuple"
            }
          ],
          "internalType": "struct Position.Props[]",
          "name": "",
          "type": "tuple[]"
        }
      ],
      "stateMutability": "view",
      "type": "function"
    },
    {
      "inputs": [
        {
          "internalType": "contract DataStore",
          "name": "dataStore",
          "type": "address"
        },
        {
          "internalType": "bytes32",
          "name": "key",
          "type": "bytes32"
        }
      ],
      "name": "getDeposit",
      "outputs": [
        {
          "components": [
            {
              "components": [
                {
                  "internalType": "address",
                  "name": "account",
                  "type": "address"
                },
                {
                  "internalType": "address",
                  "name": "receiver",
                  "type": "address"
                },
                {
                  "internalType": "address",
                  "name": "callbackContract",
                  "type": "address"
                },
                {
                  "internalType": "address",
                  "name": "uiFeeReceiver",
                  "type": "address"
                },
                {
                  "internalType": "address",
                  "name": "market",
                  "type": "address"
                },
                {
                  "internalType": "address",
                  "name": "initialLongToken",
                  "type": "address"
                },
                {
                  "internalType": "address",
                  "name": "initialShortToken",
                  "type": "address"
                },
                {
                  "internalType": "address[]",
                  "name": "longTokenSwapPath",
                  "type": "address[]"
                },
                {
                  "internalType": "address[]",
                  "name": "shortTokenSwapPath",
                  "type": "address[]"
                }
              ],
              "internalType": "struct Deposit.Addresses",
              "name": "addresses",
              "type": "tuple"
            },
            {
              "components": [
                {
                  "internalType": "uint256",
                  "name": "initialLongTokenAmount",
                  "type": "uint256"
                },
                {
                  "internalType": "uint256",
                  "name": "initialShortTokenAmount",
                  "type": "uint256"
                },
                {
                  "internalType": "uint256",
                  "name": "minMarketTokens",
                  "type": "uint256"
                },
                {
                  "internalType": "uint256",
                  "name": "updatedAtBlock",
                  "type": "uint256"
                },
                {
                  "internalType": "uint256",
                  "name": "executionFee",
                  "type": "uint256"
                },
                {
                  "internalType": "uint256",
                  "name": "callbackGasLimit",
                  "type": "uint256"
                }
              ],
              "internalType": "struct Deposit.Numbers",
              "name": "numbers",
              "type": "tuple"
            },
            {
              "components": [
                {
                  "internalType": "bool",
                  "name": "shouldUnwrapNativeToken",
                  "type": "bool"
                }
              ],
              "internalType": "struct Deposit.Flags",
              "name": "flags",
              "type": "tuple"
            }
          ],
          "internalType": "struct Deposit.Props",
          "name": "",
          "type": "tuple"
        }
      ],
      "stateMutability": "view",
      "type": "function"
    },
    {
      "inputs": [
        {
          "internalType": "contract DataStore",
          "name": "dataStore",
          "type": "address"
        },
        {
          "internalType": "address",
          "name": "marketKey",
          "type": "address"
        },
        {
          "components": [
            {
              "internalType": "uint256",
              "name": "min",
              "type": "uint256"
            },
            {
              "internalType": "uint256",
              "name": "max",
              "type": "uint256"
            }
          ],
          "internalType": "struct Price.Props",
          "name": "indexTokenPrice",
          "type": "tuple"
        },
        {
          "internalType": "uint256",
          "name": "positionSizeInUsd",
          "type": "uint256"
        },
        {
          "internalType": "uint256",
          "name": "positionSizeInTokens",
          "type": "uint256"
        },
        {
          "internalType": "int256",
          "name": "sizeDeltaUsd",
          "type": "int256"
        },
        {
          "internalType": "bool",
          "name": "isLong",
          "type": "bool"
        }
      ],
      "name": "getExecutionPrice",
      "outputs": [
        {
          "components": [
            {
              "internalType": "int256",
              "name": "priceImpactUsd",
              "type": "int256"
            },
            {
              "internalType": "uint256",
              "name": "priceImpactDiffUsd",
              "type": "uint256"
            },
            {
              "internalType": "uint256",
              "name": "executionPrice",
              "type": "uint256"
            }
          ],
          "internalType": "struct ReaderPricingUtils.ExecutionPriceResult",
          "name": "",
          "type": "tuple"
        }
      ],
      "stateMutability": "view",
      "type": "function"
    },
    {
      "inputs": [
        {
          "internalType": "contract DataStore",
          "name": "dataStore",
          "type": "address"
        },
        {
          "internalType": "address",
          "name": "key",
          "type": "address"
        }
      ],
      "name": "getMarket",
      "outputs": [
        {
          "components": [
            {
              "internalType": "address",
              "name": "marketToken",
              "type": "address"
            },
            {
              "internalType": "address",
              "name": "indexToken",
              "type": "address"
            },
            {
              "internalType": "address",
              "name": "longToken",
              "type": "address"
            },
            {
              "internalType": "address",
              "name": "shortToken",
              "type": "address"
            }
          ],
          "internalType": "struct Market.Props",
          "name": "",
          "type": "tuple"
        }
      ],
      "stateMutability": "view",
      "type": "function"
    },
    {
      "inputs": [
        {
          "internalType": "contract DataStore",
          "name": "dataStore",
          "type": "address"
        },
        {
          "internalType": "bytes32",
          "name": "salt",
          "type": "bytes32"
        }
      ],
      "name": "getMarketBySalt",
      "outputs": [
        {
          "components": [
            {
              "internalType": "address",
              "name": "marketToken",
              "type": "address"
            },
            {
              "internalType": "address",
              "name": "indexToken",
              "type": "address"
            },
            {
              "internalType": "address",
              "name": "longToken",
              "type": "address"
            },
            {
              "internalType": "address",
              "name": "shortToken",
              "type": "address"
            }
          ],
          "internalType": "struct Market.Props",
          "name": "",
          "type": "tuple"
        }
      ],
      "stateMutability": "view",
      "type": "function"
    },
    {
      "inputs": [
        {
          "internalType": "contract DataStore",
          "name": "dataStore",
          "type": "address"
        },
        {
          "components": [
            {
              "components": [
                {
                  "internalType": "uint256",
                  "name": "min",
                  "type": "uint256"
                },
                {
                  "internalType": "uint256",
                  "name": "max",
                  "type": "uint256"
                }
              ],
              "internalType": "struct Price.Props",
              "name": "indexTokenPrice",
              "type": "tuple"
            },
            {
              "components": [
                {
                  "internalType": "uint256",
                  "name": "min",
                  "type": "uint256"
                },
                {
                  "internalType": "uint256",
                  "name": "max",
                  "type": "uint256"
                }
              ],
              "internalType": "struct Price.Props",
              "name": "longTokenPrice",
              "type": "tuple"
            },
            {
              "components": [
                {
                  "internalType": "uint256",
                  "name": "min",
                  "type": "uint256"
                },
                {
                  "internalType": "uint256",
                  "name": "max",
                  "type": "uint256"
                }
              ],
              "internalType": "struct Price.Props",
              "name": "shortTokenPrice",
              "type": "tuple"
            }
          ],
          "internalType": "struct MarketUtils.MarketPrices",
          "name": "prices",
          "type": "tuple"
        },
        {
          "internalType": "address",
          "name": "marketKey",
          "type": "address"
        }
      ],
      "name": "getMarketInfo",
      "outputs": [
        {
          "components": [
            {
              "components": [
                {
                  "internalType": "address",
                  "name": "marketToken",
                  "type": "address"
                },
                {
                  "internalType": "address",
                  "name": "indexToken",
                  "type": "address"
                },
                {
                  "internalType": "address",
                  "name": "longToken",
                  "type": "address"
                },
                {
                  "internalType": "address",
                  "name": "shortToken",
                  "type": "address"
                }
              ],
              "internalType": "struct Market.Props",
              "name": "market",
              "type": "tuple"
            },
            {
              "internalType": "uint256",
              "name": "borrowingFactorPerSecondForLongs",
              "type": "uint256"
            },
            {
              "internalType": "uint256",
              "name": "borrowingFactorPerSecondForShorts",
              "type": "uint256"
            },
            {
              "components": [
                {
                  "components": [
                    {
                      "components": [
                        {
                          "internalType": "uint256",
                          "name": "longToken",
                          "type": "uint256"
                        },
                        {
                          "internalType": "uint256",
                          "name": "shortToken",
                          "type": "uint256"
                        }
                      ],
                      "internalType": "struct MarketUtils.CollateralType",
                      "name": "long",
                      "type": "tuple"
                    },
                    {
                      "components": [
                        {
                          "internalType": "uint256",
                          "name": "longToken",
                          "type": "uint256"
                        },
                        {
                          "internalType": "uint256",
                          "name": "shortToken",
                          "type": "uint256"
                        }
                      ],
                      "internalType": "struct MarketUtils.CollateralType",
                      "name": "short",
                      "type": "tuple"
                    }
                  ],
                  "internalType": "struct MarketUtils.PositionType",
                  "name": "fundingFeeAmountPerSize",
                  "type": "tuple"
                },
                {
                  "components": [
                    {
                      "components": [
                        {
                          "internalType": "uint256",
                          "name": "longToken",
                          "type": "uint256"
                        },
                        {
                          "internalType": "uint256",
                          "name": "shortToken",
                          "type": "uint256"
                        }
                      ],
                      "internalType": "struct MarketUtils.CollateralType",
                      "name": "long",
                      "type": "tuple"
                    },
                    {
                      "components": [
                        {
                          "internalType": "uint256",
                          "name": "longToken",
                          "type": "uint256"
                        },
                        {
                          "internalType": "uint256",
                          "name": "shortToken",
                          "type": "uint256"
                        }
                      ],
                      "internalType": "struct MarketUtils.CollateralType",
                      "name": "short",
                      "type": "tuple"
                    }
                  ],
                  "internalType": "struct MarketUtils.PositionType",
                  "name": "claimableFundingAmountPerSize",
                  "type": "tuple"
                }
              ],
              "internalType": "struct ReaderUtils.BaseFundingValues",
              "name": "baseFunding",
              "type": "tuple"
            },
            {
              "components": [
                {
                  "internalType": "bool",
                  "name": "longsPayShorts",
                  "type": "bool"
                },
                {
                  "internalType": "uint256",
                  "name": "fundingFactorPerSecond",
                  "type": "uint256"
                },
                {
                  "components": [
                    {
                      "components": [
                        {
                          "internalType": "uint256",
                          "name": "longToken",
                          "type": "uint256"
                        },
                        {
                          "internalType": "uint256",
                          "name": "shortToken",
                          "type": "uint256"
                        }
                      ],
                      "internalType": "struct MarketUtils.CollateralType",
                      "name": "long",
                      "type": "tuple"
                    },
                    {
                      "components": [
                        {
                          "internalType": "uint256",
                          "name": "longToken",
                          "type": "uint256"
                        },
                        {
                          "internalType": "uint256",
                          "name": "shortToken",
                          "type": "uint256"
                        }
                      ],
                      "internalType": "struct MarketUtils.CollateralType",
                      "name": "short",
                      "type": "tuple"
                    }
                  ],
                  "internalType": "struct MarketUtils.PositionType",
                  "name": "fundingFeeAmountPerSizeDelta",
                  "type": "tuple"
                },
                {
                  "components": [
                    {
                      "components": [
                        {
                          "internalType": "uint256",
                          "name": "longToken",
                          "type": "uint256"
                        },
                        {
                          "internalType": "uint256",
                          "name": "shortToken",
                          "type": "uint256"
                        }
                      ],
                      "internalType": "struct MarketUtils.CollateralType",
                      "name": "long",
                      "type": "tuple"
                    },
                    {
                      "components": [
                        {
                          "internalType": "uint256",
                          "name": "longToken",
                          "type": "uint256"
                        },
                        {
                          "internalType": "uint256",
                          "name": "shortToken",
                          "type": "uint256"
                        }
                      ],
                      "internalType": "struct MarketUtils.CollateralType",
                      "name": "short",
                      "type": "tuple"
                    }
                  ],
                  "internalType": "struct MarketUtils.PositionType",
                  "name": "claimableFundingAmountPerSizeDelta",
                  "type": "tuple"
                }
              ],
              "internalType": "struct MarketUtils.GetNextFundingAmountPerSizeResult",
              "name": "nextFunding",
              "type": "tuple"
            },
            {
              "components": [
                {
                  "internalType": "uint256",
                  "name": "virtualPoolAmountForLongToken",
                  "type": "uint256"
                },
                {
                  "internalType": "uint256",
                  "name": "virtualPoolAmountForShortToken",
                  "type": "uint256"
                },
                {
                  "internalType": "int256",
                  "name": "virtualInventoryForPositions",
                  "type": "int256"
                }
              ],
              "internalType": "struct Reader.VirtualInventory",
              "name": "virtualInventory",
              "type": "tuple"
            },
            {
              "internalType": "bool",
              "name": "isDisabled",
              "type": "bool"
            }
          ],
          "internalType": "struct Reader.MarketInfo",
          "name": "",
          "type": "tuple"
        }
      ],
      "stateMutability": "view",
      "type": "function"
    },
    {
      "inputs": [
        {
          "internalType": "contract DataStore",
          "name": "dataStore",
          "type": "address"
        },
        {
          "components": [
            {
              "components": [
                {
                  "internalType": "uint256",
                  "name": "min",
                  "type": "uint256"
                },
                {
                  "internalType": "uint256",
                  "name": "max",
                  "type": "uint256"
                }
              ],
              "internalType": "struct Price.Props",
              "name": "indexTokenPrice",
              "type": "tuple"
            },
            {
              "components": [
                {
                  "internalType": "uint256",
                  "name": "min",
                  "type": "uint256"
                },
                {
                  "internalType": "uint256",
                  "name": "max",
                  "type": "uint256"
                }
              ],
              "internalType": "struct Price.Props",
              "name": "longTokenPrice",
              "type": "tuple"
            },
            {
              "components": [
                {
                  "internalType": "uint256",
                  "name": "min",
                  "type": "uint256"
                },
                {
                  "internalType": "uint256",
                  "name": "max",
                  "type": "uint256"
                }
              ],
              "internalType": "struct Price.Props",
              "name": "shortTokenPrice",
              "type": "tuple"
            }
          ],
          "internalType": "struct MarketUtils.MarketPrices[]",
          "name": "marketPricesList",
          "type": "tuple[]"
        },
        {
          "internalType": "uint256",
          "name": "start",
          "type": "uint256"
        },
        {
          "internalType": "uint256",
          "name": "end",
          "type": "uint256"
        }
      ],
      "name": "getMarketInfoList",
      "outputs": [
        {
          "components": [
            {
              "components": [
                {
                  "internalType": "address",
                  "name": "marketToken",
                  "type": "address"
                },
                {
                  "internalType": "address",
                  "name": "indexToken",
                  "type": "address"
                },
                {
                  "internalType": "address",
                  "name": "longToken",
                  "type": "address"
                },
                {
                  "internalType": "address",
                  "name": "shortToken",
                  "type": "address"
                }
              ],
              "internalType": "struct Market.Props",
              "name": "market",
              "type": "tuple"
            },
            {
              "internalType": "uint256",
              "name": "borrowingFactorPerSecondForLongs",
              "type": "uint256"
            },
            {
              "internalType": "uint256",
              "name": "borrowingFactorPerSecondForShorts",
              "type": "uint256"
            },
            {
              "components": [
                {
                  "components": [
                    {
                      "components": [
                        {
                          "internalType": "uint256",
                          "name": "longToken",
                          "type": "uint256"
                        },
                        {
                          "internalType": "uint256",
                          "name": "shortToken",
                          "type": "uint256"
                        }
                      ],
                      "internalType": "struct MarketUtils.CollateralType",
                      "name": "long",
                      "type": "tuple"
                    },
                    {
                      "components": [
                        {
                          "internalType": "uint256",
                          "name": "longToken",
                          "type": "uint256"
                        },
                        {
                          "internalType": "uint256",
                          "name": "shortToken",
                          "type": "uint256"
                        }
                      ],
                      "internalType": "struct MarketUtils.CollateralType",
                      "name": "short",
                      "type": "tuple"
                    }
                  ],
                  "internalType": "struct MarketUtils.PositionType",
                  "name": "fundingFeeAmountPerSize",
                  "type": "tuple"
                },
                {
                  "components": [
                    {
                      "components": [
                        {
                          "internalType": "uint256",
                          "name": "longToken",
                          "type": "uint256"
                        },
                        {
                          "internalType": "uint256",
                          "name": "shortToken",
                          "type": "uint256"
                        }
                      ],
                      "internalType": "struct MarketUtils.CollateralType",
                      "name": "long",
                      "type": "tuple"
                    },
                    {
                      "components": [
                        {
                          "internalType": "uint256",
                          "name": "longToken",
                          "type": "uint256"
                        },
                        {
                          "internalType": "uint256",
                          "name": "shortToken",
                          "type": "uint256"
                        }
                      ],
                      "internalType": "struct MarketUtils.CollateralType",
                      "name": "short",
                      "type": "tuple"
                    }
                  ],
                  "internalType": "struct MarketUtils.PositionType",
                  "name": "claimableFundingAmountPerSize",
                  "type": "tuple"
                }
              ],
              "internalType": "struct ReaderUtils.BaseFundingValues",
              "name": "baseFunding",
              "type": "tuple"
            },
            {
              "components": [
                {
                  "internalType": "bool",
                  "name": "longsPayShorts",
                  "type": "bool"
                },
                {
                  "internalType": "uint256",
                  "name": "fundingFactorPerSecond",
                  "type": "uint256"
                },
                {
                  "components": [
                    {
                      "components": [
                        {
                          "internalType": "uint256",
                          "name": "longToken",
                          "type": "uint256"
                        },
                        {
                          "internalType": "uint256",
                          "name": "shortToken",
                          "type": "uint256"
                        }
                      ],
                      "internalType": "struct MarketUtils.CollateralType",
                      "name": "long",
                      "type": "tuple"
                    },
                    {
                      "components": [
                        {
                          "internalType": "uint256",
                          "name": "longToken",
                          "type": "uint256"
                        },
                        {
                          "internalType": "uint256",
                          "name": "shortToken",
                          "type": "uint256"
                        }
                      ],
                      "internalType": "struct MarketUtils.CollateralType",
                      "name": "short",
                      "type": "tuple"
                    }
                  ],
                  "internalType": "struct MarketUtils.PositionType",
                  "name": "fundingFeeAmountPerSizeDelta",
                  "type": "tuple"
                },
                {
                  "components": [
                    {
                      "components": [
                        {
                          "internalType": "uint256",
                          "name": "longToken",
                          "type": "uint256"
                        },
                        {
                          "internalType": "uint256",
                          "name": "shortToken",
                          "type": "uint256"
                        }
                      ],
                      "internalType": "struct MarketUtils.CollateralType",
                      "name": "long",
                      "type": "tuple"
                    },
                    {
                      "components": [
                        {
                          "internalType": "uint256",
                          "name": "longToken",
                          "type": "uint256"
                        },
                        {
                          "internalType": "uint256",
                          "name": "shortToken",
                          "type": "uint256"
                        }
                      ],
                      "internalType": "struct MarketUtils.CollateralType",
                      "name": "short",
                      "type": "tuple"
                    }
                  ],
                  "internalType": "struct MarketUtils.PositionType",
                  "name": "claimableFundingAmountPerSizeDelta",
                  "type": "tuple"
                }
              ],
              "internalType": "struct MarketUtils.GetNextFundingAmountPerSizeResult",
              "name": "nextFunding",
              "type": "tuple"
            },
            {
              "components": [
                {
                  "internalType": "uint256",
                  "name": "virtualPoolAmountForLongToken",
                  "type": "uint256"
                },
                {
                  "internalType": "uint256",
                  "name": "virtualPoolAmountForShortToken",
                  "type": "uint256"
                },
                {
                  "internalType": "int256",
                  "name": "virtualInventoryForPositions",
                  "type": "int256"
                }
              ],
              "internalType": "struct Reader.VirtualInventory",
              "name": "virtualInventory",
              "type": "tuple"
            },
            {
              "internalType": "bool",
              "name": "isDisabled",
              "type": "bool"
            }
          ],
          "internalType": "struct Reader.MarketInfo[]",
          "name": "",
          "type": "tuple[]"
        }
      ],
      "stateMutability": "view",
      "type": "function"
    },
    {
      "inputs": [
        {
          "internalType": "contract DataStore",
          "name": "dataStore",
          "type": "address"
        },
        {
          "components": [
            {
              "internalType": "address",
              "name": "marketToken",
              "type": "address"
            },
            {
              "internalType": "address",
              "name": "indexToken",
              "type": "address"
            },
            {
              "internalType": "address",
              "name": "longToken",
              "type": "address"
            },
            {
              "internalType": "address",
              "name": "shortToken",
              "type": "address"
            }
          ],
          "internalType": "struct Market.Props",
          "name": "market",
          "type": "tuple"
        },
        {
          "components": [
            {
              "internalType": "uint256",
              "name": "min",
              "type": "uint256"
            },
            {
              "internalType": "uint256",
              "name": "max",
              "type": "uint256"
            }
          ],
          "internalType": "struct Price.Props",
          "name": "indexTokenPrice",
          "type": "tuple"
        },
        {
          "components": [
            {
              "internalType": "uint256",
              "name": "min",
              "type": "uint256"
            },
            {
              "internalType": "uint256",
              "name": "max",
              "type": "uint256"
            }
          ],
          "internalType": "struct Price.Props",
          "name": "longTokenPrice",
          "type": "tuple"
        },
        {
          "components": [
            {
              "internalType": "uint256",
              "name": "min",
              "type": "uint256"
            },
            {
              "internalType": "uint256",
              "name": "max",
              "type": "uint256"
            }
          ],
          "internalType": "struct Price.Props",
          "name": "shortTokenPrice",
          "type": "tuple"
        },
        {
          "internalType": "bytes32",
          "name": "pnlFactorType",
          "type": "bytes32"
        },
        {
          "internalType": "bool",
          "name": "maximize",
          "type": "bool"
        }
      ],
      "name": "getMarketTokenPrice",
      "outputs": [
        {
          "internalType": "int256",
          "name": "",
          "type": "int256"
        },
        {
          "components": [
            {
              "internalType": "int256",
              "name": "poolValue",
              "type": "int256"
            },
            {
              "internalType": "int256",
              "name": "longPnl",
              "type": "int256"
            },
            {
              "internalType": "int256",
              "name": "shortPnl",
              "type": "int256"
            },
            {
              "internalType": "int256",
              "name": "netPnl",
              "type": "int256"
            },
            {
              "internalType": "uint256",
              "name": "longTokenAmount",
              "type": "uint256"
            },
            {
              "internalType": "uint256",
              "name": "shortTokenAmount",
              "type": "uint256"
            },
            {
              "internalType": "uint256",
              "name": "longTokenUsd",
              "type": "uint256"
            },
            {
              "internalType": "uint256",
              "name": "shortTokenUsd",
              "type": "uint256"
            },
            {
              "internalType": "uint256",
              "name": "totalBorrowingFees",
              "type": "uint256"
            },
            {
              "internalType": "uint256",
              "name": "borrowingFeePoolFactor",
              "type": "uint256"
            },
            {
              "internalType": "uint256",
              "name": "impactPoolAmount",
              "type": "uint256"
            }
          ],
          "internalType": "struct MarketPoolValueInfo.Props",
          "name": "",
          "type": "tuple"
        }
      ],
      "stateMutability": "view",
      "type": "function"
    },
    {
      "inputs": [
        {
          "internalType": "contract DataStore",
          "name": "dataStore",
          "type": "address"
        },
        {
          "internalType": "uint256",
          "name": "start",
          "type": "uint256"
        },
        {
          "internalType": "uint256",
          "name": "end",
          "type": "uint256"
        }
      ],
      "name": "getMarkets",
      "outputs": [
        {
          "components": [
            {
              "internalType": "address",
              "name": "marketToken",
              "type": "address"
            },
            {
              "internalType": "address",
              "name": "indexToken",
              "type": "address"
            },
            {
              "internalType": "address",
              "name": "longToken",
              "type": "address"
            },
            {
              "internalType": "address",
              "name": "shortToken",
              "type": "address"
            }
          ],
          "internalType": "struct Market.Props[]",
          "name": "",
          "type": "tuple[]"
        }
      ],
      "stateMutability": "view",
      "type": "function"
    },
    {
      "inputs": [
        {
          "internalType": "contract DataStore",
          "name": "dataStore",
          "type": "address"
        },
        {
          "components": [
            {
              "internalType": "address",
              "name": "marketToken",
              "type": "address"
            },
            {
              "internalType": "address",
              "name": "indexToken",
              "type": "address"
            },
            {
              "internalType": "address",
              "name": "longToken",
              "type": "address"
            },
            {
              "internalType": "address",
              "name": "shortToken",
              "type": "address"
            }
          ],
          "internalType": "struct Market.Props",
          "name": "market",
          "type": "tuple"
        },
        {
          "components": [
            {
              "internalType": "uint256",
              "name": "min",
              "type": "uint256"
            },
            {
              "internalType": "uint256",
              "name": "max",
              "type": "uint256"
            }
          ],
          "internalType": "struct Price.Props",
          "name": "indexTokenPrice",
          "type": "tuple"
        },
        {
          "internalType": "bool",
          "name": "maximize",
          "type": "bool"
        }
      ],
      "name": "getNetPnl",
      "outputs": [
        {
          "internalType": "int256",
          "name": "",
          "type": "int256"
        }
      ],
      "stateMutability": "view",
      "type": "function"
    },
    {
      "inputs": [
        {
          "internalType": "contract DataStore",
          "name": "dataStore",
          "type": "address"
        },
        {
          "components": [
            {
              "internalType": "address",
              "name": "marketToken",
              "type": "address"
            },
            {
              "internalType": "address",
              "name": "indexToken",
              "type": "address"
            },
            {
              "internalType": "address",
              "name": "longToken",
              "type": "address"
            },
            {
              "internalType": "address",
              "name": "shortToken",
              "type": "address"
            }
          ],
          "internalType": "struct Market.Props",
          "name": "market",
          "type": "tuple"
        },
        {
          "components": [
            {
              "internalType": "uint256",
              "name": "min",
              "type": "uint256"
            },
            {
              "internalType": "uint256",
              "name": "max",
              "type": "uint256"
            }
          ],
          "internalType": "struct Price.Props",
          "name": "indexTokenPrice",
          "type": "tuple"
        },
        {
          "internalType": "bool",
          "name": "isLong",
          "type": "bool"
        },
        {
          "internalType": "bool",
          "name": "maximize",
          "type": "bool"
        }
      ],
      "name": "getOpenInterestWithPnl",
      "outputs": [
        {
          "internalType": "int256",
          "name": "",
          "type": "int256"
        }
      ],
      "stateMutability": "view",
      "type": "function"
    },
    {
      "inputs": [
        {
          "internalType": "contract DataStore",
          "name": "dataStore",
          "type": "address"
        },
        {
          "internalType": "bytes32",
          "name": "key",
          "type": "bytes32"
        }
      ],
      "name": "getOrder",
      "outputs": [
        {
          "components": [
            {
              "components": [
                {
                  "internalType": "address",
                  "name": "account",
                  "type": "address"
                },
                {
                  "internalType": "address",
                  "name": "receiver",
                  "type": "address"
                },
                {
                  "internalType": "address",
                  "name": "callbackContract",
                  "type": "address"
                },
                {
                  "internalType": "address",
                  "name": "uiFeeReceiver",
                  "type": "address"
                },
                {
                  "internalType": "address",
                  "name": "market",
                  "type": "address"
                },
                {
                  "internalType": "address",
                  "name": "initialCollateralToken",
                  "type": "address"
                },
                {
                  "internalType": "address[]",
                  "name": "swapPath",
                  "type": "address[]"
                }
              ],
              "internalType": "struct Order.Addresses",
              "name": "addresses",
              "type": "tuple"
            },
            {
              "components": [
                {
                  "internalType": "enum Order.OrderType",
                  "name": "orderType",
                  "type": "uint8"
                },
                {
                  "internalType": "enum Order.DecreasePositionSwapType",
                  "name": "decreasePositionSwapType",
                  "type": "uint8"
                },
                {
                  "internalType": "uint256",
                  "name": "sizeDeltaUsd",
                  "type": "uint256"
                },
                {
                  "internalType": "uint256",
                  "name": "initialCollateralDeltaAmount",
                  "type": "uint256"
                },
                {
                  "internalType": "uint256",
                  "name": "triggerPrice",
                  "type": "uint256"
                },
                {
                  "internalType": "uint256",
                  "name": "acceptablePrice",
                  "type": "uint256"
                },
                {
                  "internalType": "uint256",
                  "name": "executionFee",
                  "type": "uint256"
                },
                {
                  "internalType": "uint256",
                  "name": "callbackGasLimit",
                  "type": "uint256"
                },
                {
                  "internalType": "uint256",
                  "name": "minOutputAmount",
                  "type": "uint256"
                },
                {
                  "internalType": "uint256",
                  "name": "updatedAtBlock",
                  "type": "uint256"
                }
              ],
              "internalType": "struct Order.Numbers",
              "name": "numbers",
              "type": "tuple"
            },
            {
              "components": [
                {
                  "internalType": "bool",
                  "name": "isLong",
                  "type": "bool"
                },
                {
                  "internalType": "bool",
                  "name": "shouldUnwrapNativeToken",
                  "type": "bool"
                },
                {
                  "internalType": "bool",
                  "name": "isFrozen",
                  "type": "bool"
                }
              ],
              "internalType": "struct Order.Flags",
              "name": "flags",
              "type": "tuple"
            }
          ],
          "internalType": "struct Order.Props",
          "name": "",
          "type": "tuple"
        }
      ],
      "stateMutability": "view",
      "type": "function"
    },
    {
      "inputs": [
        {
          "internalType": "contract DataStore",
          "name": "dataStore",
          "type": "address"
        },
        {
          "components": [
            {
              "internalType": "address",
              "name": "marketToken",
              "type": "address"
            },
            {
              "internalType": "address",
              "name": "indexToken",
              "type": "address"
            },
            {
              "internalType": "address",
              "name": "longToken",
              "type": "address"
            },
            {
              "internalType": "address",
              "name": "shortToken",
              "type": "address"
            }
          ],
          "internalType": "struct Market.Props",
          "name": "market",
          "type": "tuple"
        },
        {
          "components": [
            {
              "internalType": "uint256",
              "name": "min",
              "type": "uint256"
            },
            {
              "internalType": "uint256",
              "name": "max",
              "type": "uint256"
            }
          ],
          "internalType": "struct Price.Props",
          "name": "indexTokenPrice",
          "type": "tuple"
        },
        {
          "internalType": "bool",
          "name": "isLong",
          "type": "bool"
        },
        {
          "internalType": "bool",
          "name": "maximize",
          "type": "bool"
        }
      ],
      "name": "getPnl",
      "outputs": [
        {
          "internalType": "int256",
          "name": "",
          "type": "int256"
        }
      ],
      "stateMutability": "view",
      "type": "function"
    },
    {
      "inputs": [
        {
          "internalType": "contract DataStore",
          "name": "dataStore",
          "type": "address"
        },
        {
          "internalType": "address",
          "name": "marketAddress",
          "type": "address"
        },
        {
          "components": [
            {
              "components": [
                {
                  "internalType": "uint256",
                  "name": "min",
                  "type": "uint256"
                },
                {
                  "internalType": "uint256",
                  "name": "max",
                  "type": "uint256"
                }
              ],
              "internalType": "struct Price.Props",
              "name": "indexTokenPrice",
              "type": "tuple"
            },
            {
              "components": [
                {
                  "internalType": "uint256",
                  "name": "min",
                  "type": "uint256"
                },
                {
                  "internalType": "uint256",
                  "name": "max",
                  "type": "uint256"
                }
              ],
              "internalType": "struct Price.Props",
              "name": "longTokenPrice",
              "type": "tuple"
            },
            {
              "components": [
                {
                  "internalType": "uint256",
                  "name": "min",
                  "type": "uint256"
                },
                {
                  "internalType": "uint256",
                  "name": "max",
                  "type": "uint256"
                }
              ],
              "internalType": "struct Price.Props",
              "name": "shortTokenPrice",
              "type": "tuple"
            }
          ],
          "internalType": "struct MarketUtils.MarketPrices",
          "name": "prices",
          "type": "tuple"
        },
        {
          "internalType": "bool",
          "name": "isLong",
          "type": "bool"
        },
        {
          "internalType": "bool",
          "name": "maximize",
          "type": "bool"
        }
      ],
      "name": "getPnlToPoolFactor",
      "outputs": [
        {
          "internalType": "int256",
          "name": "",
          "type": "int256"
        }
      ],
      "stateMutability": "view",
      "type": "function"
    },
    {
      "inputs": [
        {
          "internalType": "contract DataStore",
          "name": "dataStore",
          "type": "address"
        },
        {
          "internalType": "bytes32",
          "name": "key",
          "type": "bytes32"
        }
      ],
      "name": "getPosition",
      "outputs": [
        {
          "components": [
            {
              "components": [
                {
                  "internalType": "address",
                  "name": "account",
                  "type": "address"
                },
                {
                  "internalType": "address",
                  "name": "market",
                  "type": "address"
                },
                {
                  "internalType": "address",
                  "name": "collateralToken",
                  "type": "address"
                }
              ],
              "internalType": "struct Position.Addresses",
              "name": "addresses",
              "type": "tuple"
            },
            {
              "components": [
                {
                  "internalType": "uint256",
                  "name": "sizeInUsd",
                  "type": "uint256"
                },
                {
                  "internalType": "uint256",
                  "name": "sizeInTokens",
                  "type": "uint256"
                },
                {
                  "internalType": "uint256",
                  "name": "collateralAmount",
                  "type": "uint256"
                },
                {
                  "internalType": "uint256",
                  "name": "borrowingFactor",
                  "type": "uint256"
                },
                {
                  "internalType": "uint256",
                  "name": "fundingFeeAmountPerSize",
                  "type": "uint256"
                },
                {
                  "internalType": "uint256",
                  "name": "longTokenClaimableFundingAmountPerSize",
                  "type": "uint256"
                },
                {
                  "internalType": "uint256",
                  "name": "shortTokenClaimableFundingAmountPerSize",
                  "type": "uint256"
                },
                {
                  "internalType": "uint256",
                  "name": "increasedAtBlock",
                  "type": "uint256"
                },
                {
                  "internalType": "uint256",
                  "name": "decreasedAtBlock",
                  "type": "uint256"
                }
              ],
              "internalType": "struct Position.Numbers",
              "name": "numbers",
              "type": "tuple"
            },
            {
              "components": [
                {
                  "internalType": "bool",
                  "name": "isLong",
                  "type": "bool"
                }
              ],
              "internalType": "struct Position.Flags",
              "name": "flags",
              "type": "tuple"
            }
          ],
          "internalType": "struct Position.Props",
          "name": "",
          "type": "tuple"
        }
      ],
      "stateMutability": "view",
      "type": "function"
    },
    {
      "inputs": [
        {
          "internalType": "contract DataStore",
          "name": "dataStore",
          "type": "address"
        },
        {
          "internalType": "contract IReferralStorage",
          "name": "referralStorage",
          "type": "address"
        },
        {
          "internalType": "bytes32",
          "name": "positionKey",
          "type": "bytes32"
        },
        {
          "components": [
            {
              "components": [
                {
                  "internalType": "uint256",
                  "name": "min",
                  "type": "uint256"
                },
                {
                  "internalType": "uint256",
                  "name": "max",
                  "type": "uint256"
                }
              ],
              "internalType": "struct Price.Props",
              "name": "indexTokenPrice",
              "type": "tuple"
            },
            {
              "components": [
                {
                  "internalType": "uint256",
                  "name": "min",
                  "type": "uint256"
                },
                {
                  "internalType": "uint256",
                  "name": "max",
                  "type": "uint256"
                }
              ],
              "internalType": "struct Price.Props",
              "name": "longTokenPrice",
              "type": "tuple"
            },
            {
              "components": [
                {
                  "internalType": "uint256",
                  "name": "min",
                  "type": "uint256"
                },
                {
                  "internalType": "uint256",
                  "name": "max",
                  "type": "uint256"
                }
              ],
              "internalType": "struct Price.Props",
              "name": "shortTokenPrice",
              "type": "tuple"
            }
          ],
          "internalType": "struct MarketUtils.MarketPrices",
          "name": "prices",
          "type": "tuple"
        },
        {
          "internalType": "uint256",
          "name": "sizeDeltaUsd",
          "type": "uint256"
        },
        {
          "internalType": "address",
          "name": "uiFeeReceiver",
          "type": "address"
        },
        {
          "internalType": "bool",
          "name": "usePositionSizeAsSizeDeltaUsd",
          "type": "bool"
        }
      ],
      "name": "getPositionInfo",
      "outputs": [
        {
          "components": [
            {
              "components": [
                {
                  "components": [
                    {
                      "internalType": "address",
                      "name": "account",
                      "type": "address"
                    },
                    {
                      "internalType": "address",
                      "name": "market",
                      "type": "address"
                    },
                    {
                      "internalType": "address",
                      "name": "collateralToken",
                      "type": "address"
                    }
                  ],
                  "internalType": "struct Position.Addresses",
                  "name": "addresses",
                  "type": "tuple"
                },
                {
                  "components": [
                    {
                      "internalType": "uint256",
                      "name": "sizeInUsd",
                      "type": "uint256"
                    },
                    {
                      "internalType": "uint256",
                      "name": "sizeInTokens",
                      "type": "uint256"
                    },
                    {
                      "internalType": "uint256",
                      "name": "collateralAmount",
                      "type": "uint256"
                    },
                    {
                      "internalType": "uint256",
                      "name": "borrowingFactor",
                      "type": "uint256"
                    },
                    {
                      "internalType": "uint256",
                      "name": "fundingFeeAmountPerSize",
                      "type": "uint256"
                    },
                    {
                      "internalType": "uint256",
                      "name": "longTokenClaimableFundingAmountPerSize",
                      "type": "uint256"
                    },
                    {
                      "internalType": "uint256",
                      "name": "shortTokenClaimableFundingAmountPerSize",
                      "type": "uint256"
                    },
                    {
                      "internalType": "uint256",
                      "name": "increasedAtBlock",
                      "type": "uint256"
                    },
                    {
                      "internalType": "uint256",
                      "name": "decreasedAtBlock",
                      "type": "uint256"
                    }
                  ],
                  "internalType": "struct Position.Numbers",
                  "name": "numbers",
                  "type": "tuple"
                },
                {
                  "components": [
                    {
                      "internalType": "bool",
                      "name": "isLong",
                      "type": "bool"
                    }
                  ],
                  "internalType": "struct Position.Flags",
                  "name": "flags",
                  "type": "tuple"
                }
              ],
              "internalType": "struct Position.Props",
              "name": "position",
              "type": "tuple"
            },
            {
              "components": [
                {
                  "components": [
                    {
                      "internalType": "bytes32",
                      "name": "referralCode",
                      "type": "bytes32"
                    },
                    {
                      "internalType": "address",
                      "name": "affiliate",
                      "type": "address"
                    },
                    {
                      "internalType": "address",
                      "name": "trader",
                      "type": "address"
                    },
                    {
                      "internalType": "uint256",
                      "name": "totalRebateFactor",
                      "type": "uint256"
                    },
                    {
                      "internalType": "uint256",
                      "name": "traderDiscountFactor",
                      "type": "uint256"
                    },
                    {
                      "internalType": "uint256",
                      "name": "totalRebateAmount",
                      "type": "uint256"
                    },
                    {
                      "internalType": "uint256",
                      "name": "traderDiscountAmount",
                      "type": "uint256"
                    },
                    {
                      "internalType": "uint256",
                      "name": "affiliateRewardAmount",
                      "type": "uint256"
                    }
                  ],
                  "internalType": "struct PositionPricingUtils.PositionReferralFees",
                  "name": "referral",
                  "type": "tuple"
                },
                {
                  "components": [
                    {
                      "internalType": "uint256",
                      "name": "fundingFeeAmount",
                      "type": "uint256"
                    },
                    {
                      "internalType": "uint256",
                      "name": "claimableLongTokenAmount",
                      "type": "uint256"
                    },
                    {
                      "internalType": "uint256",
                      "name": "claimableShortTokenAmount",
                      "type": "uint256"
                    },
                    {
                      "internalType": "uint256",
                      "name": "latestFundingFeeAmountPerSize",
                      "type": "uint256"
                    },
                    {
                      "internalType": "uint256",
                      "name": "latestLongTokenClaimableFundingAmountPerSize",
                      "type": "uint256"
                    },
                    {
                      "internalType": "uint256",
                      "name": "latestShortTokenClaimableFundingAmountPerSize",
                      "type": "uint256"
                    }
                  ],
                  "internalType": "struct PositionPricingUtils.PositionFundingFees",
                  "name": "funding",
                  "type": "tuple"
                },
                {
                  "components": [
                    {
                      "internalType": "uint256",
                      "name": "borrowingFeeUsd",
                      "type": "uint256"
                    },
                    {
                      "internalType": "uint256",
                      "name": "borrowingFeeAmount",
                      "type": "uint256"
                    },
                    {
                      "internalType": "uint256",
                      "name": "borrowingFeeReceiverFactor",
                      "type": "uint256"
                    },
                    {
                      "internalType": "uint256",
                      "name": "borrowingFeeAmountForFeeReceiver",
                      "type": "uint256"
                    }
                  ],
                  "internalType": "struct PositionPricingUtils.PositionBorrowingFees",
                  "name": "borrowing",
                  "type": "tuple"
                },
                {
                  "components": [
                    {
                      "internalType": "address",
                      "name": "uiFeeReceiver",
                      "type": "address"
                    },
                    {
                      "internalType": "uint256",
                      "name": "uiFeeReceiverFactor",
                      "type": "uint256"
                    },
                    {
                      "internalType": "uint256",
                      "name": "uiFeeAmount",
                      "type": "uint256"
                    }
                  ],
                  "internalType": "struct PositionPricingUtils.PositionUiFees",
                  "name": "ui",
                  "type": "tuple"
                },
                {
                  "components": [
                    {
                      "internalType": "uint256",
                      "name": "min",
                      "type": "uint256"
                    },
                    {
                      "internalType": "uint256",
                      "name": "max",
                      "type": "uint256"
                    }
                  ],
                  "internalType": "struct Price.Props",
                  "name": "collateralTokenPrice",
                  "type": "tuple"
                },
                {
                  "internalType": "uint256",
                  "name": "positionFeeFactor",
                  "type": "uint256"
                },
                {
                  "internalType": "uint256",
                  "name": "protocolFeeAmount",
                  "type": "uint256"
                },
                {
                  "internalType": "uint256",
                  "name": "positionFeeReceiverFactor",
                  "type": "uint256"
                },
                {
                  "internalType": "uint256",
                  "name": "feeReceiverAmount",
                  "type": "uint256"
                },
                {
                  "internalType": "uint256",
                  "name": "feeAmountForPool",
                  "type": "uint256"
                },
                {
                  "internalType": "uint256",
                  "name": "positionFeeAmountForPool",
                  "type": "uint256"
                },
                {
                  "internalType": "uint256",
                  "name": "positionFeeAmount",
                  "type": "uint256"
                },
                {
                  "internalType": "uint256",
                  "name": "totalCostAmountExcludingFunding",
                  "type": "uint256"
                },
                {
                  "internalType": "uint256",
                  "name": "totalCostAmount",
                  "type": "uint256"
                }
              ],
              "internalType": "struct PositionPricingUtils.PositionFees",
              "name": "fees",
              "type": "tuple"
            },
            {
              "components": [
                {
                  "internalType": "int256",
                  "name": "priceImpactUsd",
                  "type": "int256"
                },
                {
                  "internalType": "uint256",
                  "name": "priceImpactDiffUsd",
                  "type": "uint256"
                },
                {
                  "internalType": "uint256",
                  "name": "executionPrice",
                  "type": "uint256"
                }
              ],
              "internalType": "struct ReaderPricingUtils.ExecutionPriceResult",
              "name": "executionPriceResult",
              "type": "tuple"
            },
            {
              "internalType": "int256",
              "name": "basePnlUsd",
              "type": "int256"
            },
            {
              "internalType": "int256",
              "name": "pnlAfterPriceImpactUsd",
              "type": "int256"
            }
          ],
          "internalType": "struct ReaderUtils.PositionInfo",
          "name": "",
          "type": "tuple"
        }
      ],
      "stateMutability": "view",
      "type": "function"
    },
    {
      "inputs": [
        {
          "internalType": "contract DataStore",
          "name": "dataStore",
          "type": "address"
        },
        {
          "components": [
            {
              "internalType": "address",
              "name": "marketToken",
              "type": "address"
            },
            {
              "internalType": "address",
              "name": "indexToken",
              "type": "address"
            },
            {
              "internalType": "address",
              "name": "longToken",
              "type": "address"
            },
            {
              "internalType": "address",
              "name": "shortToken",
              "type": "address"
            }
          ],
          "internalType": "struct Market.Props",
          "name": "market",
          "type": "tuple"
        },
        {
          "components": [
            {
              "components": [
                {
                  "internalType": "uint256",
                  "name": "min",
                  "type": "uint256"
                },
                {
                  "internalType": "uint256",
                  "name": "max",
                  "type": "uint256"
                }
              ],
              "internalType": "struct Price.Props",
              "name": "indexTokenPrice",
              "type": "tuple"
            },
            {
              "components": [
                {
                  "internalType": "uint256",
                  "name": "min",
                  "type": "uint256"
                },
                {
                  "internalType": "uint256",
                  "name": "max",
                  "type": "uint256"
                }
              ],
              "internalType": "struct Price.Props",
              "name": "longTokenPrice",
              "type": "tuple"
            },
            {
              "components": [
                {
                  "internalType": "uint256",
                  "name": "min",
                  "type": "uint256"
                },
                {
                  "internalType": "uint256",
                  "name": "max",
                  "type": "uint256"
                }
              ],
              "internalType": "struct Price.Props",
              "name": "shortTokenPrice",
              "type": "tuple"
            }
          ],
          "internalType": "struct MarketUtils.MarketPrices",
          "name": "prices",
          "type": "tuple"
        },
        {
          "internalType": "bytes32",
          "name": "positionKey",
          "type": "bytes32"
        },
        {
          "internalType": "uint256",
          "name": "executionPrice",
          "type": "uint256"
        },
        {
          "internalType": "uint256",
          "name": "sizeDeltaUsd",
          "type": "uint256"
        }
      ],
      "name": "getPositionPnlUsd",
      "outputs": [
        {
          "internalType": "int256",
          "name": "",
          "type": "int256"
        },
        {
          "internalType": "uint256",
          "name": "",
          "type": "uint256"
        }
      ],
      "stateMutability": "view",
      "type": "function"
    },
    {
      "inputs": [
        {
          "internalType": "contract DataStore",
          "name": "dataStore",
          "type": "address"
        },
        {
          "components": [
            {
              "internalType": "address",
              "name": "marketToken",
              "type": "address"
            },
            {
              "internalType": "address",
              "name": "indexToken",
              "type": "address"
            },
            {
              "internalType": "address",
              "name": "longToken",
              "type": "address"
            },
            {
              "internalType": "address",
              "name": "shortToken",
              "type": "address"
            }
          ],
          "internalType": "struct Market.Props",
          "name": "market",
          "type": "tuple"
        },
        {
          "components": [
            {
              "components": [
                {
                  "internalType": "uint256",
                  "name": "min",
                  "type": "uint256"
                },
                {
                  "internalType": "uint256",
                  "name": "max",
                  "type": "uint256"
                }
              ],
              "internalType": "struct Price.Props",
              "name": "indexTokenPrice",
              "type": "tuple"
            },
            {
              "components": [
                {
                  "internalType": "uint256",
                  "name": "min",
                  "type": "uint256"
                },
                {
                  "internalType": "uint256",
                  "name": "max",
                  "type": "uint256"
                }
              ],
              "internalType": "struct Price.Props",
              "name": "longTokenPrice",
              "type": "tuple"
            },
            {
              "components": [
                {
                  "internalType": "uint256",
                  "name": "min",
                  "type": "uint256"
                },
                {
                  "internalType": "uint256",
                  "name": "max",
                  "type": "uint256"
                }
              ],
              "internalType": "struct Price.Props",
              "name": "shortTokenPrice",
              "type": "tuple"
            }
          ],
          "internalType": "struct MarketUtils.MarketPrices",
          "name": "prices",
          "type": "tuple"
        },
        {
          "internalType": "address",
          "name": "tokenIn",
          "type": "address"
        },
        {
          "internalType": "uint256",
          "name": "amountIn",
          "type": "uint256"
        },
        {
          "internalType": "address",
          "name": "uiFeeReceiver",
          "type": "address"
        }
      ],
      "name": "getSwapAmountOut",
      "outputs": [
        {
          "internalType": "uint256",
          "name": "",
          "type": "uint256"
        },
        {
          "internalType": "int256",
          "name": "",
          "type": "int256"
        },
        {
          "components": [
            {
              "internalType": "uint256",
              "name": "feeReceiverAmount",
              "type": "uint256"
            },
            {
              "internalType": "uint256",
              "name": "feeAmountForPool",
              "type": "uint256"
            },
            {
              "internalType": "uint256",
              "name": "amountAfterFees",
              "type": "uint256"
            },
            {
              "internalType": "address",
              "name": "uiFeeReceiver",
              "type": "address"
            },
            {
              "internalType": "uint256",
              "name": "uiFeeReceiverFactor",
              "type": "uint256"
            },
            {
              "internalType": "uint256",
              "name": "uiFeeAmount",
              "type": "uint256"
            }
          ],
          "internalType": "struct SwapPricingUtils.SwapFees",
          "name": "fees",
          "type": "tuple"
        }
      ],
      "stateMutability": "view",
      "type": "function"
    },
    {
      "inputs": [
        {
          "internalType": "contract DataStore",
          "name": "dataStore",
          "type": "address"
        },
        {
          "internalType": "address",
          "name": "marketKey",
          "type": "address"
        },
        {
          "internalType": "address",
          "name": "tokenIn",
          "type": "address"
        },
        {
          "internalType": "address",
          "name": "tokenOut",
          "type": "address"
        },
        {
          "internalType": "uint256",
          "name": "amountIn",
          "type": "uint256"
        },
        {
          "components": [
            {
              "internalType": "uint256",
              "name": "min",
              "type": "uint256"
            },
            {
              "internalType": "uint256",
              "name": "max",
              "type": "uint256"
            }
          ],
          "internalType": "struct Price.Props",
          "name": "tokenInPrice",
          "type": "tuple"
        },
        {
          "components": [
            {
              "internalType": "uint256",
              "name": "min",
              "type": "uint256"
            },
            {
              "internalType": "uint256",
              "name": "max",
              "type": "uint256"
            }
          ],
          "internalType": "struct Price.Props",
          "name": "tokenOutPrice",
          "type": "tuple"
        }
      ],
      "name": "getSwapPriceImpact",
      "outputs": [
        {
          "internalType": "int256",
          "name": "",
          "type": "int256"
        },
        {
          "internalType": "int256",
          "name": "",
          "type": "int256"
        }
      ],
      "stateMutability": "view",
      "type": "function"
    },
    {
      "inputs": [
        {
          "internalType": "contract DataStore",
          "name": "dataStore",
          "type": "address"
        },
        {
          "internalType": "bytes32",
          "name": "key",
          "type": "bytes32"
        }
      ],
      "name": "getWithdrawal",
      "outputs": [
        {
          "components": [
            {
              "components": [
                {
                  "internalType": "address",
                  "name": "account",
                  "type": "address"
                },
                {
                  "internalType": "address",
                  "name": "receiver",
                  "type": "address"
                },
                {
                  "internalType": "address",
                  "name": "callbackContract",
                  "type": "address"
                },
                {
                  "internalType": "address",
                  "name": "uiFeeReceiver",
                  "type": "address"
                },
                {
                  "internalType": "address",
                  "name": "market",
                  "type": "address"
                },
                {
                  "internalType": "address[]",
                  "name": "longTokenSwapPath",
                  "type": "address[]"
                },
                {
                  "internalType": "address[]",
                  "name": "shortTokenSwapPath",
                  "type": "address[]"
                }
              ],
              "internalType": "struct Withdrawal.Addresses",
              "name": "addresses",
              "type": "tuple"
            },
            {
              "components": [
                {
                  "internalType": "uint256",
                  "name": "marketTokenAmount",
                  "type": "uint256"
                },
                {
                  "internalType": "uint256",
                  "name": "minLongTokenAmount",
                  "type": "uint256"
                },
                {
                  "internalType": "uint256",
                  "name": "minShortTokenAmount",
                  "type": "uint256"
                },
                {
                  "internalType": "uint256",
                  "name": "updatedAtBlock",
                  "type": "uint256"
                },
                {
                  "internalType": "uint256",
                  "name": "executionFee",
                  "type": "uint256"
                },
                {
                  "internalType": "uint256",
                  "name": "callbackGasLimit",
                  "type": "uint256"
                }
              ],
              "internalType": "struct Withdrawal.Numbers",
              "name": "numbers",
              "type": "tuple"
            },
            {
              "components": [
                {
                  "internalType": "bool",
                  "name": "shouldUnwrapNativeToken",
                  "type": "bool"
                }
              ],
              "internalType": "struct Withdrawal.Flags",
              "name": "flags",
              "type": "tuple"
            }
          ],
          "internalType": "struct Withdrawal.Props",
          "name": "",
          "type": "tuple"
        }
      ],
      "stateMutability": "view",
      "type": "function"
    }
  ],
  "bytecode": "0x608060405234801561001057600080fd5b50615ad380620000216000396000f3fe608060405234801561001057600080fd5b50600436106101125760003560e01c80630169a059146101175780630815bce114610144578063095ce6c5146101645780630fa8f5161461020d5780631485d2971461022d57806324c029e01461024d578063409f37c71461026e57806342a6f8d3146102e057806349651b6a146103005780635d2b44f9146103205780635d5c6efe14610340578063714af34b1461035357806377cfb16214610373578063847bb46914610393578063971de27d146103b3578063a0140938146103c6578063a4f0d550146103d9578063bc7b5bba146103ec578063ce3264bf1461040c578063ceeea3bf1461042c578063ece9e0c81461044c578063fd50649d1461046c575b600080fd5b61012a610125366004613938565b61047f565b604080519283526020830191909152015b60405180910390f35b6101576101523660046139ad565b610593565b60405161013b9190613cda565b610177610172366004613ce9565b61062c565b60405161013b92919060006101808201905083825282516020830152602083015160408301526040830151606083015260608301516080830152608083015160a083015260a083015160c083015260c083015160e083015260e083015161010081818501528085015191505061012081818501528085015191505061014081818501528085015161016085015250509392505050565b61022061021b366004613d66565b610720565b60405161013b9190613d92565b61024061023b366004613d66565b6107ac565b60405161013b9190613de5565b61026061025b366004613ee9565b610832565b60405190815260200161013b565b61028161027c366004613f5a565b61084d565b604080519384526020808501939093528151848201529181015160608085019190915291810151608080850191909152918101516001600160a01b031660a0808501919091529181015160c0840152015160e08201526101000161013b565b6102f36102ee366004613fd5565b610927565b60405161013b91906141a2565b61031361030e366004613d66565b610a76565b60405161013b9190614204565b61033361032e366004614217565b610afc565b60405161013b9190614282565b61012a61034e366004614290565b610c15565b61036661036136600461431a565b610d2b565b60405161013b9190614386565b610386610381366004613fd5565b610dad565b60405161013b9190614394565b6103a66103a13660046143e3565b610eec565b60405161013b91906144fa565b6102606103c1366004614509565b611160565b6102606103d4366004613ee9565b6111f7565b6103666103e7366004613d66565b611206565b6103ff6103fa366004614606565b611247565b60405161013b9190614665565b61041f61041a3660046146a8565b611334565b60405161013b91906146dd565b61043f61043a366004613d66565b611481565b60405161013b919061471f565b61045f61045a3660046147e8565b611507565b60405161013b91906148d8565b61026061047a36600461491b565b6115f0565b600080600073__$3d31b232fb363902662fbc281b11ab3357$__63fdfc26f38a886040518363ffffffff1660e01b81526004016104bd929190614976565b6101a060405180830381865af41580156104db573d6000803e3d6000fd5b505050506040513d601f19601f820116820180604052508101906104ff9190614ae0565b6040516321ed73ef60e21b815290915073__$91a1a7f12f728c8759f4be979bae55555f$__906387b5cfbc90610543908c908c908c9087908c908c90600401614b2d565b6040805180830381865af415801561055f573d6000803e3d6000fd5b505050506040513d601f19601f820116820180604052508101906105839190614ba2565b9250925050965096945050505050565b61059b6131b8565b6040516306bc109960e31b815273__$7d62b333171909e88f9935bee8a07b01ad$__906335e084c8906105de908b908b908b908b908b908b908b90600401614bc6565b61064060405180830381865af41580156105fc573d6000803e3d6000fd5b505050506040513d601f19601f820116820180604052508101906106209190614e08565b98975050505050505050565b600061068b60405180610160016040528060008152602001600081526020016000815260200160008152602001600081526020016000815260200160008152602001600081526020016000815260200160008152602001600081525090565b604051637d494dc360e01b815273__$e53db83827f4e07ebc418caf7145b8c2d5$__90637d494dc3906106ce908c908c908c908c908c908c908c90600401614f4b565b61018060405180830381865af41580156106ec573d6000803e3d6000fd5b505050506040513d601f19601f820116820180604052508101906107109190614fad565b9150915097509795505050505050565b6107286131f9565b60405163fdfc26f360e01b815273__$3d31b232fb363902662fbc281b11ab3357$__9063fdfc26f3906107619086908690600401614976565b6101a060405180830381865af415801561077f573d6000803e3d6000fd5b505050506040513d601f19601f820116820180604052508101906107a39190614ae0565b90505b92915050565b6107b461328f565b60405163fdfc26f360e01b815273__$b63e253a228f0e32f671cc49c7fc32477c$__9063fdfc26f3906107ed9086908690600401614976565b600060405180830381865af415801561080a573d6000803e3d6000fd5b505050506040513d6000823e601f3d908101601f191682016040526107a391908101906150c5565b600061084186868686866115fe565b90505b95945050505050565b6000806108926040518060c0016040528060008152602001600081526020016000815260200160006001600160a01b0316815260200160008152602001600081525090565b60405163dafa66bf60e01b815273__$ae023ddda47a46a9af6ec057a2ebe54454$__9063dafa66bf906108d3908c908c908c908c908c908c9060040161521f565b61010060405180830381865af41580156108f1573d6000803e3d6000fd5b505050506040513d601f19601f820116820180604052508101906109159190615271565b92509250925096509650969350505050565b606060006109378686868661168f565b9050600081516001600160401b038111156109545761095461369f565b60405190808252806020026020018201604052801561098d57816020015b61097a613321565b8152602001906001900390816109725790505b50905060005b8251811015610a695760008382815181106109b0576109b06152f9565b6020026020010151905073__$9dcb75ef0bb6c4288f2ccffe7dc492c4eb$__63fdfc26f38a836040518363ffffffff1660e01b81526004016109f3929190614976565b600060405180830381865af4158015610a10573d6000803e3d6000fd5b505050506040513d6000823e601f3d908101601f19168201604052610a38919081019061540a565b838381518110610a4a57610a4a6152f9565b6020026020010181905250508080610a6190615544565b915050610993565b509150505b949350505050565b610a7e613321565b60405163fdfc26f360e01b815273__$9dcb75ef0bb6c4288f2ccffe7dc492c4eb$__9063fdfc26f390610ab79086908690600401614976565b600060405180830381865af4158015610ad4573d6000803e3d6000fd5b505050506040513d6000823e601f3d908101601f191682016040526107a3919081019061540a565b610b046133e2565b60405163a8d8fff560e01b815260009073__$ff439aa65a80c9eec648f15db20b189505$__9063a8d8fff590610b40908c908c9060040161555d565b608060405180830381865af4158015610b5d573d6000803e3d6000fd5b505050506040513d601f19601f82011682018060405250810190610b819190615577565b604051630a37d4c760e11b815290915073__$ae023ddda47a46a9af6ec057a2ebe54454$__9063146fa98e90610bc7908c9085908c908c908c908c908c906004016155de565b606060405180830381865af4158015610be4573d6000803e3d6000fd5b505050506040513d601f19601f82011682018060405250810190610c089190615632565b9998505050505050505050565b600080600073__$ff439aa65a80c9eec648f15db20b189505$__63a8d8fff58b8b6040518363ffffffff1660e01b8152600401610c5392919061555d565b608060405180830381865af4158015610c70573d6000803e3d6000fd5b505050506040513d601f19601f82011682018060405250810190610c949190615577565b6040516340f5d44f60e11b815290915073__$ae023ddda47a46a9af6ec057a2ebe54454$__906381eba89e90610cda908d9085908d908d908d908d908d9060040161564e565b6040805180830381865af4158015610cf6573d6000803e3d6000fd5b505050506040513d601f19601f82011682018060405250810190610d1a9190614ba2565b925092505097509795505050505050565b610d33613403565b60405163a8d8fff560e01b815273__$ff439aa65a80c9eec648f15db20b189505$__9063a8d8fff590610d6c908690869060040161555d565b608060405180830381865af4158015610d89573d6000803e3d6000fd5b505050506040513d601f19601f820116820180604052508101906107a39190615577565b60606000610dbd8686868661171b565b9050600081516001600160401b03811115610dda57610dda61369f565b604051908082528060200260200182016040528015610e1357816020015b610e006131f9565b815260200190600190039081610df85790505b50905060005b8251811015610a69576000838281518110610e3657610e366152f9565b6020026020010151905073__$3d31b232fb363902662fbc281b11ab3357$__63fdfc26f38a836040518363ffffffff1660e01b8152600401610e79929190614976565b6101a060405180830381865af4158015610e97573d6000803e3d6000fd5b505050506040513d601f19601f82011682018060405250810190610ebb9190614ae0565b838381518110610ecd57610ecd6152f9565b6020026020010181905250508080610ee490615544565b915050610e19565b610ef461342a565b60405163a8d8fff560e01b815260009073__$ff439aa65a80c9eec648f15db20b189505$__9063a8d8fff590610f30908890879060040161555d565b608060405180830381865af4158015610f4d573d6000803e3d6000fd5b505050506040513d601f19601f82011682018060405250810190610f719190615577565b90506000610f828683876001611735565b90506000610f938784886000611735565b9050600073__$7d62b333171909e88f9935bee8a07b01ad$__6310366e3589866040518363ffffffff1660e01b8152600401610fd09291906156a0565b61010060405180830381865af4158015610fee573d6000803e3d6000fd5b505050506040513d601f19601f8201168201806040525081019061101291906156fd565b9050600073__$7d62b333171909e88f9935bee8a07b01ad$__630dc7f3eb8a878b6040518463ffffffff1660e01b81526004016110519392919061573d565b61014060405180830381865af415801561106f573d6000803e3d6000fd5b505050506040513d601f19601f820116820180604052508101906110939190615768565b905060006110a18a87611922565b905060008a6001600160a01b0316637ae1cfca6110c18960000151611976565b6040518263ffffffff1660e01b81526004016110df91815260200190565b602060405180830381865afa1580156110fc573d6000803e3d6000fd5b505050506040513d601f19601f8201168201806040525081019061112091906157b9565b6040805160e0810182529889526020890197909752958701949094526060860192909252608085015260a084015250151560c082015290505b9392505050565b60008073__$ff439aa65a80c9eec648f15db20b189505$__63a8d8fff588886040518363ffffffff1660e01b815260040161119c92919061555d565b608060405180830381865af41580156111b9573d6000803e3d6000fd5b505050506040513d601f19601f820116820180604052508101906111dd9190615577565b90506111ec87828787876119f9565b979650505050505050565b60006108418686868686611a3d565b61120e613403565b6040516329bc01e160e11b815273__$ff439aa65a80c9eec648f15db20b189505$__9063537803c290610d6c9086908690600401614976565b60606000611256868585611a68565b9050600081516001600160401b038111156112735761127361369f565b6040519080825280602002602001820160405280156112ac57816020015b61129961342a565b8152602001906001900390816112915790505b50905060005b8251811015610a695760008782815181106112cf576112cf6152f9565b6020026020010151905060008483815181106112ed576112ed6152f9565b602002602001015190506113028a8383610eec565b848481518110611314576113146152f9565b60200260200101819052505050808061132c90615544565b9150506112b2565b60606000611343858585611a68565b9050600081516001600160401b038111156113605761136061369f565b60405190808252806020026020018201604052801561139957816020015b611386613403565b81526020019060019003908161137e5790505b50905060005b82518110156114775760008382815181106113bc576113bc6152f9565b60200260200101519050600073__$ff439aa65a80c9eec648f15db20b189505$__63a8d8fff58a846040518363ffffffff1660e01b815260040161140192919061555d565b608060405180830381865af415801561141e573d6000803e3d6000fd5b505050506040513d601f19601f820116820180604052508101906114429190615577565b905080848481518110611457576114576152f9565b60200260200101819052505050808061146f90615544565b91505061139f565b5095945050505050565b61148961347f565b60405163fdfc26f360e01b815273__$3dc24d71d6ebafc0c4ce8ac2f69cd1548a$__9063fdfc26f3906114c29086908690600401614976565b600060405180830381865af41580156114df573d6000803e3d6000fd5b505050506040513d6000823e601f3d908101601f191682016040526107a391908101906157d6565b6060600084516001600160401b038111156115245761152461369f565b60405190808252806020026020018201604052801561155d57816020015b61154a6131b8565b8152602001906001900390816115425790505b50905060005b85518110156115e5576000868281518110611580576115806152f9565b602002602001015190506115b48989838986815181106115a2576115a26152f9565b602002602001015160008a6001610593565b8383815181106115c6576115c66152f9565b60200260200101819052505080806115dd90615544565b915050611563565b509695505050505050565b600061084485858585611b2d565b60008061161461160f888887611b5c565b611baf565b90506000611623888887611c22565b9050811580611630575080155b1561164057600092505050610844565b600061164d878787611c69565b9050600061165e61160f83856158fe565b9050600087611676576116718286615915565b611680565b6116808583615915565b9b9a5050505050505050505050565b6060846001600160a01b031663f069052a6116a986611ca2565b6040516001600160e01b031960e084901b16815260048101919091526024810186905260448101859052606401600060405180830381865afa1580156116f3573d6000803e3d6000fd5b505050506040513d6000823e601f3d908101601f19168201604052610844919081019061593c565b6060846001600160a01b031663f069052a6116a986611cda565b60008061174486868686611d15565b905080600003611758576000915050610a6e565b6000866001600160a01b0316637ae1cfca6040516020016117b69060208082526023908201527f534b49505f424f52524f57494e475f4645455f464f525f534d414c4c45525f5360408201526249444560e81b606082015260800190565b604051602081830303815290604052805190602001206040518263ffffffff1660e01b81526004016117ea91815260200190565b602060405180830381865afa158015611807573d6000803e3d6000fd5b505050506040513d601f19601f8201168201806040525081019061182b91906157b9565b9050801561189357600061184188886001611b5c565b9050600061185189896000611b5c565b905085801561185f57508082105b15611871576000945050505050610a6e565b8515801561187e57508181105b15611890576000945050505050610a6e565b50505b60006118a3888888886000611d51565b9050806000036118c657604051630d5f5aef60e31b815260040160405180910390fd5b60006118d789896000015188611dca565b905060006118e58583611e44565b905060006118f38285611ea3565b905060006119068c8c600001518b611eb1565b90506119128282611ecc565b9c9b505050505050505050505050565b61192a6133e2565b60008061193b858560000151611ee5565b9250925050600061195086866020015161207d565b604080516060810182529586526020860194909452928401929092525090949350505050565b60006040516020016119ae906020808252601290820152711254d7d3505492d15517d11254d05093115160721b604082015260600190565b60408051601f198184030181528282528051602091820120908301526001600160a01b038416908201526060015b604051602081830303815290604052805190602001209050919050565b600080611a0a878787878715611d51565b905080600003611a1e576000915050610844565b6000611a318888886000015188886115fe565b90506106208183612193565b600080611a4b878786611b5c565b90506000611a5c88888888886115fe565b905061062082826121d2565b6060836001600160a01b031663e7e4148e604051602001611aa8906020808252600b908201526a13505492d15517d31254d560aa1b604082015260600190565b60408051601f198184030181529082905280516020909101206001600160e01b031960e084901b16825260048201526024810186905260448101859052606401600060405180830381865afa158015611b05573d6000803e3d6000fd5b505050506040513d6000823e601f3d908101601f19168201604052610a6e91908101906159c1565b600080611b3e8686866001876115fe565b90506000611b508787876000886115fe565b90506111ec81836159f5565b600080611b71846040015185606001516121e8565b90506000611b8a86866000015187604001518786612217565b90506000611ba387876000015188606001518887612217565b90506111ec8183615a1d565b60006001600160ff1b03821115611c1e5760405162461bcd60e51b815260206004820152602860248201527f53616665436173743a2076616c756520646f65736e27742066697420696e2061604482015267371034b73a191a9b60c11b60648201526084015b60405180910390fd5b5090565b600080611c37846040015185606001516121e8565b90506000611c508686600001518760400151878661229d565b90506000611ba38787600001518860600151888761229d565b60008215611c8a5781611c7d578351611c83565b83602001515b9050611159565b81611c99578360200151610a6e565b50509051919050565b60006040516020016119ae906020808252601290820152711050d0d3d5539517d3d491115497d31254d560721b604082015260600190565b60006040516020016119ae906020808252601590820152741050d0d3d5539517d413d4d2551253d397d31254d5605a1b604082015260600190565b6000808215611d46576000611d2b878786611c22565b855160200151909150611d3e90826158fe565b915050610844565b610841868685611b5c565b60008083611d63578560600151611d69565b85604001515b90506000611d788888846122ba565b905060008415611da65785611d9557866040015160200151611d9f565b8660200151602001515b9050611dc0565b85611db657604087015151611dbd565b6020870151515b90505b610c0881836158fe565b6000836001600160a01b031663bd02d0f5611de58585612358565b6040518263ffffffff1660e01b8152600401611e0391815260200190565b602060405180830381865afa158015611e20573d6000803e3d6000fd5b505050506040513d601f19601f82011682018060405250810190610a6e9190615a30565b600068327cb2734119d3b7a9601e1b831015611e62575060006107a6565b68327cb2734119d3b7a9601e1b8203611e7c5750816107a6565b6000611e98611e8a856123eb565b611e93856123eb565b6123fc565b9050610a6e8161243e565b60006107a38383600061244f565b6000836001600160a01b031663bd02d0f5611de58585612497565b60006107a3838368327cb2734119d3b7a9601e1b6124cd565b600080600080856001600160a01b031663a6ed563e611f03876124da565b6040518263ffffffff1660e01b8152600401611f2191815260200190565b602060405180830381865afa158015611f3e573d6000803e3d6000fd5b505050506040513d601f19601f82011682018060405250810190611f629190615a30565b905080611f7a57600080600093509350935050612076565b6001866001600160a01b031663bd02d0f5611f96846001612511565b6040518263ffffffff1660e01b8152600401611fb491815260200190565b602060405180830381865afa158015611fd1573d6000803e3d6000fd5b505050506040513d601f19601f82011682018060405250810190611ff59190615a30565b876001600160a01b031663bd02d0f561200f856000612511565b6040518263ffffffff1660e01b815260040161202d91815260200190565b602060405180830381865afa15801561204a573d6000803e3d6000fd5b505050506040513d601f19601f8201168201806040525081019061206e9190615a30565b935093509350505b9250925092565b6000806000846001600160a01b031663a6ed563e61209a86612583565b6040518263ffffffff1660e01b81526004016120b891815260200190565b602060405180830381865afa1580156120d5573d6000803e3d6000fd5b505050506040513d601f19601f820116820180604052508101906120f99190615a30565b90508061210d57600080925092505061218c565b6001856001600160a01b031663dc97d962612127846125b9565b6040518263ffffffff1660e01b815260040161214591815260200190565b602060405180830381865afa158015612162573d6000803e3d6000fd5b505050506040513d601f19601f820116820180604052508101906121869190615a30565b92509250505b9250929050565b6000806121a86121a285612625565b84611ea3565b9050600084136121c9576121bb81611baf565b6121c490615a49565b610a6e565b610a6e81611baf565b6000816121de84611baf565b6107a391906159f5565b6000816001600160a01b0316836001600160a01b03161461220a57600161220d565b60025b60ff169392505050565b600081866001600160a01b031663bd02d0f5612234888888612638565b6040518263ffffffff1660e01b815260040161225291815260200190565b602060405180830381865afa15801561226f573d6000803e3d6000fd5b505050506040513d601f19601f820116820180604052508101906122939190615a30565b6108419190615a7b565b600081866001600160a01b031663bd02d0f56122348888886126ca565b6000806122cf846040015185606001516121e8565b905080856001600160a01b031663bd02d0f56122ef876000015187612707565b6040518263ffffffff1660e01b815260040161230d91815260200190565b602060405180830381865afa15801561232a573d6000803e3d6000fd5b505050506040513d601f19601f8201168201806040525081019061234e9190615a30565b6108449190615a7b565b6000604051602001612397906020808252601990820152782127a92927aba4a723afa2ac2827a722a72a2fa320a1aa27a960391b604082015260600190565b60408051601f198184030181528282528051602091820120908301526001600160a01b0385169082015282151560608201526080015b60405160208183030381529060405280519060200120905092915050565b60006107a664e8d4a5100083615a7b565b60008260000361242457811561241357600061241d565b670de0b6b3a76400005b90506107a6565b6107a361243961243385612775565b8461282b565b612837565b60006107a664e8d4a51000836158fe565b60008360000361246157506000611159565b811561248057611c838468327cb2734119d3b7a9601e1b85600161287d565b610a6e8468327cb2734119d3b7a9601e1b856128ce565b60006040516020016123979060208082526010908201526f2127a92927aba4a723afa320a1aa27a960811b604082015260600190565b6000610a6e8484846128ce565b60006040516020016119ae906020808252601190820152701592549515505317d3505492d15517d251607a1b604082015260600190565b6000604051602001612552906020808252601b908201527a5649525455414c5f494e56454e544f52595f464f525f535741505360281b604082015260600190565b60408051601f19818403018152828252805160209182012090830152810184905282151560608201526080016123cd565b60006040516020016119ae9060208082526010908201526f1592549515505317d513d2d15397d25160821b604082015260600190565b60006040516020016125fc906020808252601f908201527f5649525455414c5f494e56454e544f52595f464f525f504f534954494f4e5300604082015260600190565b60408051601f1981840301815282825280516020918201209083015281018390526060016119dc565b600080821215611c1e57816000036107a6565b600060405160200161266b906020808252600d908201526c13d4115397d2539511549154d5609a1b604082015260600190565b60408051601f198184030181528282528051602091820120908301526001600160a01b038087169183019190915284166060820152821515608082015260a0016040516020818303038152906040528051906020012090509392505050565b600060405160200161266b906020808252601790820152764f50454e5f494e5445524553545f494e5f544f4b454e5360481b604082015260600190565b6000604051602001612738906020808252600b908201526a1413d3d317d05353d5539560aa1b604082015260600190565b60408051601f198184030181528282528051602091820120908301526001600160a01b0380861691830191909152831660608201526080016123cd565b6000670de0b6b3a76400008210156127a357604051633621413760e21b815260048101839052602401611c15565b60006127b8670de0b6b3a7640000840461297d565b670de0b6b3a764000081029250905082811c670de0b6b3a763ffff1981016127e1575050919050565b6706f05b59d3b200005b801561282357670de0b6b3a7640000828002049150671bc16d674ec80000821061281b579283019260019190911c905b60011c6127eb565b505050919050565b60006107a38383612a60565b6000680a688906bd8b000000821061286557604051634a4f26f160e01b815260048101839052602401611c15565b670de0b6b3a7640000604083901b0461115981612b26565b60008061288b8686866128ce565b905060018360028111156128a1576128a161401b565b1480156128be5750600084806128b9576128b9615a65565b868809115b1561084457610841600182615a1d565b6000808060001985870985870292508281108382030391505080600003612908578382816128fe576128fe615a65565b0492505050611159565b80841161291457600080fd5b60008486880960026001871981018816978890046003810283188082028403028082028403028082028403028082028403028082028403029081029092039091026000889003889004909101858311909403939093029303949094049190911702949350505050565b6000600160801b821061299d57608091821c9161299a9082615a1d565b90505b600160401b82106129bb57604091821c916129b89082615a1d565b90505b600160201b82106129d957602091821c916129d69082615a1d565b90505b6201000082106129f657601091821c916129f39082615a1d565b90505b6101008210612a1257600891821c91612a0f9082615a1d565b90505b60108210612a2d57600491821c91612a2a9082615a1d565b90505b60048210612a4857600291821c91612a459082615a1d565b90505b60028210612a5b576107a6600182615a1d565b919050565b60008080600019848609848602925082811083820303915050670de0b6b3a76400008110612aa45760405163698d9a0160e11b815260048101829052602401611c15565b600080670de0b6b3a764000086880991506706f05b59d3b1ffff8211905082600003612ae25780670de0b6b3a76400008504019450505050506107a6565b620400008285030493909111909103600160ee1b02919091177faccb18165bd6fe31ae1cf318dc5b51eee0e1ba569b88cd74c1773b91fac106690201905092915050565b600160bf1b6001603f1b821615612b465768016a09e667f3bcc9090260401c5b6001603e1b821615612b61576801306fe0a31b7152df0260401c5b6001603d1b821615612b7c576801172b83c7d517adce0260401c5b6001603c1b821615612b975768010b5586cf9890f62a0260401c5b6001603b1b821615612bb2576801059b0d31585743ae0260401c5b6001603a1b821615612bcd57680102c9a3e778060ee70260401c5b600160391b821615612be85768010163da9fb33356d80260401c5b600160381b821615612c0357680100b1afa5abcbed610260401c5b600160371b821615612c1e5768010058c86da1c09ea20260401c5b600160361b821615612c39576801002c605e2e8cec500260401c5b600160351b821615612c5457680100162f3904051fa10260401c5b600160341b821615612c6f576801000b175effdc76ba0260401c5b600160331b821615612c8a57680100058ba01fb9f96d0260401c5b600160321b821615612ca55768010002c5cc37da94920260401c5b600160311b821615612cc0576801000162e525ee05470260401c5b600160301b821615612cdb5768010000b17255775c040260401c5b6001602f1b821615612cf6576801000058b91b5bc9ae0260401c5b6001602e1b821615612d1157680100002c5c89d5ec6d0260401c5b6001602d1b821615612d2c5768010000162e43f4f8310260401c5b6001602c1b821615612d4757680100000b1721bcfc9a0260401c5b6001602b1b821615612d625768010000058b90cf1e6e0260401c5b6001602a1b821615612d7d576801000002c5c863b73f0260401c5b600160291b821615612d9857680100000162e430e5a20260401c5b600160281b821615612db3576801000000b1721835510260401c5b600160271b821615612dce57680100000058b90c0b490260401c5b600160261b821615612de95768010000002c5c8601cc0260401c5b600160251b821615612e04576801000000162e42fff00260401c5b600160241b821615612e1f5768010000000b17217fbb0260401c5b600160231b821615612e3a576801000000058b90bfce0260401c5b600160221b821615612e5557680100000002c5c85fe30260401c5b600160211b821615612e705768010000000162e42ff10260401c5b600160201b821615612e8b57680100000000b17217f80260401c5b6380000000821615612ea65768010000000058b90bfc0260401c5b6340000000821615612ec1576801000000002c5c85fe0260401c5b6320000000821615612edc57680100000000162e42ff0260401c5b6310000000821615612ef7576801000000000b17217f0260401c5b6308000000821615612f1257680100000000058b90c00260401c5b6304000000821615612f2d5768010000000002c5c8600260401c5b6302000000821615612f48576801000000000162e4300260401c5b6301000000821615612f635768010000000000b172180260401c5b62800000821615612f7d576801000000000058b90c0260401c5b62400000821615612f9757680100000000002c5c860260401c5b62200000821615612fb15768010000000000162e430260401c5b62100000821615612fcb57680100000000000b17210260401c5b62080000821615612fe55768010000000000058b910260401c5b62040000821615612fff576801000000000002c5c80260401c5b6202000082161561301957680100000000000162e40260401c5b620100008216156130325761b172600160401b010260401c5b61800082161561304a576158b9600160401b010260401c5b61400082161561306257612c5d600160401b010260401c5b61200082161561307a5761162e600160401b010260401c5b61100082161561309257610b17600160401b010260401c5b6108008216156130aa5761058c600160401b010260401c5b6104008216156130c2576102c6600160401b010260401c5b6102008216156130da57610163600160401b010260401c5b6101008216156130f15760b1600160401b010260401c5b6080821615613107576059600160401b010260401c5b604082161561311d57602c600160401b010260401c5b6020821615613133576016600160401b010260401c5b601082161561314957600b600160401b010260401c5b600882161561315f576006600160401b010260401c5b6004821615613175576003600160401b010260401c5b600282161561318b576001600160401b010260401c5b60018216156131a1576001600160401b010260401c5b670de0b6b3a76400000260409190911c60bf031c90565b6040518060a001604052806131cb6131f9565b81526020016131d86134c7565b81526020016131e56133e2565b815260200160008152602001600081525090565b6040805160c081019091526000606082018181526080830182905260a0830191909152819081526020016132726040518061012001604052806000815260200160008152602001600081526020016000815260200160008152602001600081526020016000815260200160008152602001600081525090565b81526040805160208181019092526000815291015290565b905290565b604080516101808101909152600060608083018281526080840183905260a0840183905260c0840183905260e084018390526101008401839052610120840192909252610140830181905261016083015281905b81526020016132726040518060c001604052806000815260200160008152602001600081526020016000815260200160008152602001600081525090565b604080516101408101909152600060608083018281526080840183905260a0840183905260c0840183905260e084018390526101008401929092526101208301528152602081016133bf60408051610140810190915280600081526020016000815260200160008152602001600081526020016000815260200160008152602001600081526020016000815260200160008152602001600081525090565b815260408051606081018252600080825260208281018290529282015291015290565b60405180606001604052806000815260200160008152602001600081525090565b60408051608081018252600080825260208201819052918101829052606081019190915290565b6040518060e0016040528061343d613403565b8152602001600081526020016000815260200161345861360d565b815260200161346561362d565b81526020016134726133e2565b8152600060209091015290565b604080516101408101909152600060608083018281526080840183905260a0840183905260c0840183905260e0840192909252610100830181905261012083015281906132e3565b604080516102c0810190915260006101c082018181526101e08301829052610200830182905261022083018290526102408301829052610260830182905261028083018290526102a0830191909152819081526020016135566040518060c001604052806000815260200160008152602001600081526020016000815260200160008152602001600081525090565b81526020016135866040518060800160405280600081526020016000815260200160008152602001600081525090565b815260408051606081018252600080825260208281018290529282015291019081526020016135c8604051806040016040528060008152602001600081525090565b81526020016000815260200160008152602001600081526020016000815260200160008152602001600081526020016000815260200160008152602001600081525090565b6040518060400160405280613620613648565b815260200161328a613648565b60408051608081018252600080825260208201529081016136205b6040805160808101825260009181018281526060820192909252908190815260200161328a604051806040016040528060008152602001600081525090565b6001600160a01b038116811461369c57600080fd5b50565b634e487b7160e01b600052604160045260246000fd5b604051608081016001600160401b03811182821017156136d7576136d761369f565b60405290565b604080519081016001600160401b03811182821017156136d7576136d761369f565b604051606081016001600160401b03811182821017156136d7576136d761369f565b60405161012081016001600160401b03811182821017156136d7576136d761369f565b60405160c081016001600160401b03811182821017156136d7576136d761369f565b60405160a081016001600160401b03811182821017156136d7576136d761369f565b6040516101c081016001600160401b03811182821017156136d7576136d761369f565b60405161016081016001600160401b03811182821017156136d7576136d761369f565b60405161014081016001600160401b03811182821017156136d7576136d761369f565b60405160e081016001600160401b03811182821017156136d7576136d761369f565b604051601f8201601f191681016001600160401b038111828210171561383b5761383b61369f565b604052919050565b8035612a5b81613687565b60006080828403121561386057600080fd5b6138686136b5565b9050813561387581613687565b8152602082013561388581613687565b6020820152604082013561389881613687565b604082015260608201356138ab81613687565b606082015292915050565b6000604082840312156138c857600080fd5b6138d06136dd565b9050813581526020820135602082015292915050565b600060c082840312156138f857600080fd5b6139006136ff565b905061390c83836138b6565b815261391b83604084016138b6565b602082015261392d83608084016138b6565b604082015292915050565b6000806000806000806101c0878903121561395257600080fd5b863561395d81613687565b955061396c886020890161384e565b945061397b8860a089016138e6565b9350610160870135925061018087013591506101a087013590509295509295509295565b801515811461369c57600080fd5b6000806000806000806000610180888a0312156139c957600080fd5b87356139d481613687565b965060208801356139e481613687565b9550604088013594506139fa8960608a016138e6565b93506101208801359250610140880135613a1381613687565b9150610160880135613a248161399f565b8091505092959891949750929550565b6001600160a01b03169052565b80516001600160a01b03908116835260208083015182169084015260409182015116910152565b805182526020810151602083015260408101516040830152606081015160608301526080810151608083015260a081015160a083015260c081015160c083015260e081015160e08301526101008082015181840152505050565b613acd828251613a41565b6020810151613adf6060840182613a68565b50604001515115156101809190910152565b805182526020810151602083015260408101516040830152606081015160608301526080810151608083015260a081015160a08301525050565b80518252602090810151910152565b8051825260208082015190830152604090810151910152565b613b5e828251613ac2565b602081810151805180516101a086810191909152928101516001600160a01b039081166101c08701526040820151166101e08601526060810151610200860152608081015161022086015260a081015161024086015260c081015161026086015260e00151610280850152906020820151613bdd6102a0860182613af1565b506040828101518051610360870152602080820151610380880152818301516103a08801526060918201516103c08801529084015180516001600160a01b03166103e08801529081015161040087015201516104208501526080820151613c48610440860182613b2b565b5060a082015161048085015260c08201516104a085015260e08201516104c08501526101008201516104e085015261012082015161050085015261014082015161052085015261016082015161054085015261018082015161056085015201516105808301526040810151613cc16105a0840182613b3a565b5060608101516106008301526080015161062090910152565b61064081016107a68284613b53565b60008060008060008060006101a0888a031215613d0557600080fd5b8735613d1081613687565b9650613d1f8960208a0161384e565b9550613d2e8960a08a016138b6565b9450613d3d8960e08a016138b6565b9350613d4d896101208a016138b6565b92506101608801359150610180880135613a248161399f565b60008060408385031215613d7957600080fd5b8235613d8481613687565b946020939093013593505050565b6101a081016107a68284613ac2565b600081518084526020808501945080840160005b83811015613dda5781516001600160a01b031687529582019590820190600101613db5565b509495945050505050565b6020815260006101208351610100806020860152613e068386018351613a34565b6020820151613e19610140870182613a34565b506040820151613e2d610160870182613a34565b506060820151613e41610180870182613a34565b506080820151613e556101a0870182613a34565b5060a0820151613e696101c0870182613a34565b5060c0820151613e7d6101e0870182613a34565b5060e082015183610200870152613e98610240870182613da1565b9282015186840361011f1901610220880152929350613eb990508383613da1565b925060208601519150613ecf6040860183613af1565b6040860151805115158683015291505b5090949350505050565b60008060008060006101208688031215613f0257600080fd5b8535613f0d81613687565b9450613f1c876020880161384e565b9350613f2b8760a088016138b6565b925060e0860135613f3b8161399f565b9150610100860135613f4c8161399f565b809150509295509295909350565b6000806000806000806101c08789031215613f7457600080fd5b8635613f7f81613687565b9550613f8e886020890161384e565b9450613f9d8860a089016138e6565b9350610160870135613fae81613687565b925061018087013591506101a0870135613fc781613687565b809150509295509295509295565b60008060008060808587031215613feb57600080fd5b8435613ff681613687565b9350602085013561400681613687565b93969395505050506040820135916060013590565b634e487b7160e01b600052602160045260246000fd5b600881106140415761404161401b565b9052565b600381106140415761404161401b565b614060828251614031565b60208101516140726020840182614045565b5060408101516040830152606081015160608301526080810151608083015260a081015160a083015260c081015160c083015260e081015160e08301526101008082015181840152506101208082015181840152505050565b80516101c080845281516001600160a01b0390811691850191909152602082015181166101e08501526040820151166102008401526060810151600091614116610220860183613a34565b6080810151915061412b610240860183613a34565b60a08101519150614140610260860183613a34565b60c0015160e0610280860152905061415c6102a0850182613da1565b905060208301516141706020860182614055565b5060408381015180511515610160870152602081015115156101808701529081015115156101a0860152509392505050565b6000602080830181845280855180835260408601915060408160051b870101925083870160005b828110156141f757603f198886030184526141e58583516140cb565b945092850192908501906001016141c9565b5092979650505050505050565b6020815260006107a360208301846140cb565b6000806000806000806000610100888a03121561423357600080fd5b873561423e81613687565b9650602088013561424e81613687565b955061425d8960408a016138b6565b94506080880135935060a0880135925060c0880135915060e0880135613a248161399f565b606081016107a68284613b3a565b6000806000806000806000610120888a0312156142ac57600080fd5b87356142b781613687565b965060208801356142c781613687565b955060408801356142d781613687565b945060608801356142e781613687565b9350608088013592506142fd8960a08a016138b6565b915061430c8960e08a016138b6565b905092959891949750929550565b6000806040838503121561432d57600080fd5b823561433881613687565b9150602083013561434881613687565b809150509250929050565b80516001600160a01b03908116835260208083015182169084015260408083015182169084015260609182015116910152565b608081016107a68284614353565b6020808252825182820181905260009190848201906040850190845b818110156143d7576143c3838551613ac2565b928401926101a092909201916001016143b0565b50909695505050505050565b600080600061010084860312156143f957600080fd5b833561440481613687565b925061441385602086016138e6565b915060e084013561442381613687565b809150509250925092565b614439828251613b2b565b602081015161444b6040840182613b2b565b505050565b61445b828251614353565b60208101516080830152604081015160a0830152606081015161448260c08401825161442e565b6020015161449461014084018261442e565b506080810151805115156101c084015260208101516101e084015260408101516144c261020085018261442e565b50606001516144d561028084018261442e565b5060a08101516144e9610300840182613b3a565b5060c0015115156103609190910152565b61038081016107a68284614450565b6000806000806000610140868803121561452257600080fd5b853561452d81613687565b9450602086013561453d81613687565b935061454c87604088016138e6565b925061010086013561455d8161399f565b9150610120860135613f4c8161399f565b60006001600160401b038211156145875761458761369f565b5060051b60200190565b600082601f8301126145a257600080fd5b813560206145b76145b28361456e565b613813565b82815260c092830285018201928282019190878511156145d657600080fd5b8387015b858110156145f9576145ec89826138e6565b84529284019281016145da565b5090979650505050505050565b6000806000806080858703121561461c57600080fd5b843561462781613687565b935060208501356001600160401b0381111561464257600080fd5b61464e87828801614591565b949794965050505060408301359260600135919050565b6020808252825182820181905260009190848201906040850190845b818110156143d757614694838551614450565b928401926103809290920191600101614681565b6000806000606084860312156146bd57600080fd5b83356146c881613687565b95602085013595506040909401359392505050565b6020808252825182820181905260009190848201906040850190845b818110156143d75761470c838551614353565b92840192608092909201916001016146f9565b602081526000825161010080602085015260018060a01b0380835116610120860152806020840151166101408601528060408401511661016086015250606082015161476f610180860182613a34565b5060808201516147836101a0860182613a34565b5060a082015160e06101c086015261479f610200860182613da1565b905060c0830151925061011f19858203016101e08601526147c08184613da1565b92505060208501516147d56040860182613af1565b5060408501518051151585830152613edf565b600080600080600060a0868803121561480057600080fd5b853561480b81613687565b945060208681013561481c81613687565b945060408701356001600160401b038082111561483857600080fd5b818901915089601f83011261484c57600080fd5b813561485a6145b28261456e565b81815260059190911b8301840190848101908c83111561487957600080fd5b938501935b828510156148975784358252938501939085019061487e565b9750505060608901359250808311156148af57600080fd5b50506148bd88828901614591565b9250506148cc60808701613843565b90509295509295909350565b6020808252825182820181905260009190848201906040850190845b818110156143d757614907838551613b53565b9284019261064092909201916001016148f4565b600080600080610100858703121561493257600080fd5b843561493d81613687565b935061494c866020870161384e565b925061495b8660a087016138b6565b915060e085013561496b8161399f565b939692955090935050565b6001600160a01b03929092168252602082015260400190565b8051612a5b81613687565b6000602082840312156149ac57600080fd5b604051602081016001600160401b03811182821017156149ce576149ce61369f565b806040525080915082516149e18161399f565b905292915050565b60008183036101a08112156149fd57600080fd5b614a056136ff565b91506060811215614a1557600080fd5b614a1d6136ff565b8351614a2881613687565b81526020840151614a3881613687565b60208201526040840151614a4b81613687565b60408201528252610120605f198201811315614a6657600080fd5b614a6e613721565b9150606084015182526080840151602083015260a0840151604083015260c0840151606083015260e084015160808301526101008085015160a08401528185015160c084015261014085015160e08401526101608501518184015250508060208301525061392d83610180840161499a565b60006101a08284031215614af357600080fd5b6107a383836149e9565b614b08828251613b2b565b6020810151614b1a6040840182613b2b565b50604081015161444b6080840182613b2b565b6001600160a01b03871681526103408101614b4b6020830188614353565b614b5860a0830187614afd565b614b6761016083018651613a41565b6020850151614b7a6101c0840182613a68565b5060408501515115156102e08301528361030083015282610320830152979650505050505050565b60008060408385031215614bb557600080fd5b505080516020909101519092909150565b6001600160a01b038881168252878116602083015260408201879052610180820190614bf56060840188614afd565b856101208401528085166101408401525082151561016083015298975050505050505050565b6000610100808385031215614c2f57600080fd5b604051908101906001600160401b0382118183101715614c5157614c5161369f565b816040528092508351815260208401519150614c6c82613687565b816020820152614c7e6040850161498f565b6040820152606084015160608201526080840151608082015260a084015160a082015260c084015160c082015260e084015160e0820152505092915050565b600060c08284031215614ccf57600080fd5b614cd7613744565b9050815181526020820151602082015260408201516040820152606082015160608201526080820151608082015260a082015160a082015292915050565b600060808284031215614d2757600080fd5b614d2f6136b5565b90508151815260208201516020820152604082015160408201526060820151606082015292915050565b600060608284031215614d6b57600080fd5b614d736136ff565b90508151614d8081613687565b80825250602082015160208201526040820151604082015292915050565b600060408284031215614db057600080fd5b614db86136dd565b9050815181526020820151602082015292915050565b600060608284031215614de057600080fd5b614de86136ff565b905081518152602082015160208201526040820151604082015292915050565b6000818303610640811215614e1c57600080fd5b614e24613766565b614e2e85856149e9565b81526101a061040061019f1984011215614e4757600080fd5b614e4f613788565b9250614e5d86828701614c1b565b8352614e6d866102a08701614cbd565b6020840152614e80866103608701614d15565b6040840152614e93866103e08701614d59565b6060840152614ea6866104408701614d9e565b608084015261048085015160a08401526104a085015160c08401526104c085015160e08401526104e08501516101008401526105008501516101208401526105208501516101408401526105408501516101608401526105608501516101808401526105808501518184015250816020820152614f27856105a08601614dce565b60408201526106008401516060820152610620909301516080840152509092915050565b6001600160a01b03881681526101a08101614f696020830189614353565b614f7660a0830188613b2b565b614f8360e0830187613b2b565b614f91610120830186613b2b565b8361016083015282151561018083015298975050505050505050565b600080828403610180811215614fc257600080fd5b8351925061016080601f1983011215614fda57600080fd5b614fe26137ab565b91506020850151825260408501516020830152606085015160408301526080850151606083015260a0850151608083015260c085015160a083015260e085015160c08301526101008086015160e08401526101208087015182850152610140915081870151818501525081860151818401525050809150509250929050565b600082601f83011261507257600080fd5b815160206150826145b28361456e565b82815260059290921b840181019181810190868411156150a157600080fd5b8286015b848110156115e55780516150b881613687565b83529183019183016150a5565b6000602082840312156150d757600080fd5b81516001600160401b03808211156150ee57600080fd5b818401915061010080838703121561510557600080fd5b61510d6136ff565b83518381111561511c57600080fd5b8401610120818903121561512f57600080fd5b615137613721565b6151408261498f565b815261514e6020830161498f565b602082015261515f6040830161498f565b60408201526151706060830161498f565b60608201526151816080830161498f565b608082015261519260a0830161498f565b60a08201526151a360c0830161498f565b60c082015260e0820151858111156151ba57600080fd5b6151c68a828501615061565b60e08301525083820151858111156151dd57600080fd5b6151e98a828501615061565b82860152508252506151fe8760208601614cbd565b60208201526152108760e0860161499a565b60408201529695505050505050565b6001600160a01b0387811682526101c082019061523f6020840189614353565b61524c60a0840188614afd565b808616610160840152846101808401528084166101a084015250979650505050505050565b600080600083850361010081121561528857600080fd5b845193506020850151925060c0603f19820112156152a557600080fd5b506152ae613744565b60408501518152606085015160208201526080850151604082015260a08501516152d781613687565b606082015260c0850151608082015260e09094015160a0850152509093909250565b634e487b7160e01b600052603260045260246000fd5b805160088110612a5b57600080fd5b805160038110612a5b57600080fd5b6000610140828403121561534057600080fd5b6153486137ce565b90506153538261530f565b81526153616020830161531e565b602082015260408201516040820152606082015160608201526080820151608082015260a082015160a082015260c082015160c082015260e082015160e082015261010080830151818301525061012080830151818301525092915050565b6000606082840312156153d257600080fd5b6153da6136ff565b905081516153e78161399f565b815260208201516153f78161399f565b6020820152604082015161392d8161399f565b60006020828403121561541c57600080fd5b81516001600160401b038082111561543357600080fd5b908301906101c0828603121561544857600080fd5b6154506136ff565b82518281111561545f57600080fd5b830160e0818803121561547157600080fd5b6154796137f1565b6154828261498f565b81526154906020830161498f565b60208201526154a16040830161498f565b60408201526154b26060830161498f565b60608201526154c36080830161498f565b60808201526154d460a0830161498f565b60a082015260c0820151848111156154eb57600080fd5b6154f789828501615061565b60c08301525082525061550d866020850161532d565b60208201526155208661016085016153c0565b604082015295945050505050565b634e487b7160e01b600052601160045260246000fd5b6000600182016155565761555661552e565b5060010190565b6001600160a01b0392831681529116602082015260400190565b60006080828403121561558957600080fd5b6155916136b5565b825161559c81613687565b815260208301516155ac81613687565b602082015260408301516155bf81613687565b604082015260608301516155d281613687565b60608201529392505050565b6001600160a01b038816815261016081016155fc6020830189614353565b61560960a0830188613b2b565b8560e0830152846101008301528361012083015282151561014083015298975050505050505050565b60006060828403121561564457600080fd5b6107a38383614dce565b6001600160a01b03888116825261018082019061566e602084018a614353565b87811660a0840152861660c083015260e08201859052615692610100830185613b2b565b610620610140830184613b2b565b6001600160a01b038316815260a081016111596020830184614353565b6000608082840312156156cf57600080fd5b6156d76136dd565b90506156e38383614d9e565b81526156f28360408401614d9e565b602082015292915050565b6000610100828403121561571057600080fd5b6157186136dd565b61572284846156bd565b815261573184608085016156bd565b60208201529392505050565b6001600160a01b0384168152610160810161575b6020830185614353565b610a6e60a0830184614afd565b6000610140828403121561577b57600080fd5b6157836136b5565b825161578e8161399f565b8152602083810151908201526157a784604085016156bd565b60408201526155d28460c085016156bd565b6000602082840312156157cb57600080fd5b81516111598161399f565b6000602082840312156157e857600080fd5b81516001600160401b03808211156157ff57600080fd5b90830190610100828603121561581457600080fd5b61581c6136ff565b82518281111561582b57600080fd5b830160e0818803121561583d57600080fd5b6158456137f1565b61584e8261498f565b815261585c6020830161498f565b602082015261586d6040830161498f565b604082015261587e6060830161498f565b606082015261588f6080830161498f565b608082015260a0820151848111156158a657600080fd5b6158b289828501615061565b60a08301525060c0820151848111156158ca57600080fd5b6158d689828501615061565b60c0830152508252506158ec8660208501614cbd565b60208201526155208660e0850161499a565b80820281158282048414176107a6576107a661552e565b81810360008312801583831316838312821617156159355761593561552e565b5092915050565b6000602080838503121561594f57600080fd5b82516001600160401b0381111561596557600080fd5b8301601f8101851361597657600080fd5b80516159846145b28261456e565b81815260059190911b820183019083810190878311156159a357600080fd5b928401925b828410156111ec578351825292840192908401906159a8565b6000602082840312156159d357600080fd5b81516001600160401b038111156159e957600080fd5b610a6e84828501615061565b8082018281126000831280158216821582161715615a1557615a1561552e565b505092915050565b808201808211156107a6576107a661552e565b600060208284031215615a4257600080fd5b5051919050565b6000600160ff1b8201615a5e57615a5e61552e565b5060000390565b634e487b7160e01b600052601260045260246000fd5b600082615a9857634e487b7160e01b600052601260045260246000fd5b50049056fea264697066735822122083e66f5496148f03074d0878bc2faff9bd3342dc2dbf639843e2b09bc9520f5264736f6c63430008120033",
  "linkReferences": {
    "contracts/deposit/DepositStoreUtils.sol": {
      "DepositStoreUtils": [
        {
          "length": 20,
          "start": 2020
        }
      ]
    },
    "contracts/market/MarketStoreUtils.sol": {
      "MarketStoreUtils": [
        {
          "length": 20,
          "start": 2871
        },
        {
          "length": 20,
          "start": 3133
        },
        {
          "length": 20,
          "start": 3427
        },
        {
          "length": 20,
          "start": 3879
        },
        {
          "length": 20,
          "start": 4486
        },
        {
          "length": 20,
          "start": 4670
        },
        {
          "length": 20,
          "start": 5099
        }
      ]
    },
    "contracts/market/MarketUtils.sol": {
      "MarketUtils": [
        {
          "length": 20,
          "start": 1723
        }
      ]
    },
    "contracts/order/OrderStoreUtils.sol": {
      "OrderStoreUtils": [
        {
          "length": 20,
          "start": 2525
        },
        {
          "length": 20,
          "start": 2734
        }
      ]
    },
    "contracts/position/PositionStoreUtils.sol": {
      "PositionStoreUtils": [
        {
          "length": 20,
          "start": 1191
        },
        {
          "length": 20,
          "start": 1880
        },
        {
          "length": 20,
          "start": 3683
        }
      ]
    },
    "contracts/position/PositionUtils.sol": {
      "PositionUtils": [
        {
          "length": 20,
          "start": 1330
        }
      ]
    },
    "contracts/reader/ReaderPricingUtils.sol": {
      "ReaderPricingUtils": [
        {
          "length": 20,
          "start": 2242
        },
        {
          "length": 20,
          "start": 2996
        },
        {
          "length": 20,
          "start": 3271
        }
      ]
    },
    "contracts/reader/ReaderUtils.sol": {
      "ReaderUtils": [
        {
          "length": 20,
          "start": 1483
        },
        {
          "length": 20,
          "start": 4026
        },
        {
          "length": 20,
          "start": 4153
        }
      ]
    },
    "contracts/withdrawal/WithdrawalStoreUtils.sol": {
      "WithdrawalStoreUtils": [
        {
          "length": 20,
          "start": 5305
        }
      ]
    }
  },
  "deployedLinkReferences": {
    "contracts/deposit/DepositStoreUtils.sol": {
      "DepositStoreUtils": [
        {
          "length": 20,
          "start": 1987
        }
      ]
    },
    "contracts/market/MarketStoreUtils.sol": {
      "MarketStoreUtils": [
        {
          "length": 20,
          "start": 2838
        },
        {
          "length": 20,
          "start": 3100
        },
        {
          "length": 20,
          "start": 3394
        },
        {
          "length": 20,
          "start": 3846
        },
        {
          "length": 20,
          "start": 4453
        },
        {
          "length": 20,
          "start": 4637
        },
        {
          "length": 20,
          "start": 5066
        }
      ]
    },
    "contracts/market/MarketUtils.sol": {
      "MarketUtils": [
        {
          "length": 20,
          "start": 1690
        }
      ]
    },
    "contracts/order/OrderStoreUtils.sol": {
      "OrderStoreUtils": [
        {
          "length": 20,
          "start": 2492
        },
        {
          "length": 20,
          "start": 2701
        }
      ]
    },
    "contracts/position/PositionStoreUtils.sol": {
      "PositionStoreUtils": [
        {
          "length": 20,
          "start": 1158
        },
        {
          "length": 20,
          "start": 1847
        },
        {
          "length": 20,
          "start": 3650
        }
      ]
    },
    "contracts/position/PositionUtils.sol": {
      "PositionUtils": [
        {
          "length": 20,
          "start": 1297
        }
      ]
    },
    "contracts/reader/ReaderPricingUtils.sol": {
      "ReaderPricingUtils": [
        {
          "length": 20,
          "start": 2209
        },
        {
          "length": 20,
          "start": 2963
        },
        {
          "length": 20,
          "start": 3238
        }
      ]
    },
    "contracts/reader/ReaderUtils.sol": {
      "ReaderUtils": [
        {
          "length": 20,
          "start": 1450
        },
        {
          "length": 20,
          "start": 3993
        },
        {
          "length": 20,
          "start": 4120
        }
      ]
    },
    "contracts/withdrawal/WithdrawalStoreUtils.sol": {
      "WithdrawalStoreUtils": [
        {
          "length": 20,
          "start": 5272
        }
      ]
    }
  }
}