{
  "_format": "hh-sol-artifact-1",
  "contractName": "Reader",
  "sourceName": "contracts/reader/Reader.sol",
  "abi": [
    {
      "inputs": [
        {
          "internalType": "uint256",
          "name": "x",
          "type": "uint256"
        }
      ],
      "name": "PRBMathUD60x18__Exp2InputTooBig",
      "type": "error"
    },
    {
      "inputs": [
        {
          "internalType": "uint256",
          "name": "x",
          "type": "uint256"
        }
      ],
      "name": "PRBMathUD60x18__LogInputTooSmall",
      "type": "error"
    },
    {
      "inputs": [
        {
          "internalType": "uint256",
          "name": "prod1",
          "type": "uint256"
        }
      ],
      "name": "PRBMath__MulDivFixedPointOverflow",
      "type": "error"
    },
    {
      "inputs": [],
      "name": "UnableToGetBorrowingFactorEmptyPoolUsd",
      "type": "error"
    },
    {
      "inputs": [],
      "name": "UnableToGetFundingFactorEmptyOpenInterest",
      "type": "error"
    },
    {
      "inputs": [
        {
          "internalType": "uint256",
          "name": "positionBorrowingFactor",
          "type": "uint256"
        },
        {
          "internalType": "uint256",
          "name": "cumulativeBorrowingFactor",
          "type": "uint256"
        }
      ],
      "name": "UnexpectedBorrowingFactor",
      "type": "error"
    },
    {
      "inputs": [
        {
          "internalType": "int256",
          "name": "poolValue",
          "type": "int256"
        }
      ],
      "name": "UnexpectedPoolValueForTokenPriceCalculation",
      "type": "error"
    },
    {
      "inputs": [],
      "name": "UnexpectedSupplyForTokenPriceCalculation",
      "type": "error"
    },
    {
      "inputs": [
        {
          "internalType": "contract DataStore",
          "name": "dataStore",
          "type": "address"
        },
        {
          "internalType": "address",
          "name": "account",
          "type": "address"
        },
        {
          "internalType": "uint256",
          "name": "start",
          "type": "uint256"
        },
        {
          "internalType": "uint256",
          "name": "end",
          "type": "uint256"
        }
      ],
      "name": "getAccountOrders",
      "outputs": [
        {
          "components": [
            {
              "components": [
                {
                  "internalType": "address",
                  "name": "account",
                  "type": "address"
                },
                {
                  "internalType": "address",
                  "name": "receiver",
                  "type": "address"
                },
                {
                  "internalType": "address",
                  "name": "callbackContract",
                  "type": "address"
                },
                {
                  "internalType": "address",
                  "name": "market",
                  "type": "address"
                },
                {
                  "internalType": "address",
                  "name": "initialCollateralToken",
                  "type": "address"
                },
                {
                  "internalType": "address[]",
                  "name": "swapPath",
                  "type": "address[]"
                }
              ],
              "internalType": "struct Order.Addresses",
              "name": "addresses",
              "type": "tuple"
            },
            {
              "components": [
                {
                  "internalType": "enum Order.OrderType",
                  "name": "orderType",
                  "type": "uint8"
                },
                {
                  "internalType": "enum Order.DecreasePositionSwapType",
                  "name": "decreasePositionSwapType",
                  "type": "uint8"
                },
                {
                  "internalType": "uint256",
                  "name": "sizeDeltaUsd",
                  "type": "uint256"
                },
                {
                  "internalType": "uint256",
                  "name": "initialCollateralDeltaAmount",
                  "type": "uint256"
                },
                {
                  "internalType": "uint256",
                  "name": "triggerPrice",
                  "type": "uint256"
                },
                {
                  "internalType": "uint256",
                  "name": "acceptablePrice",
                  "type": "uint256"
                },
                {
                  "internalType": "uint256",
                  "name": "executionFee",
                  "type": "uint256"
                },
                {
                  "internalType": "uint256",
                  "name": "callbackGasLimit",
                  "type": "uint256"
                },
                {
                  "internalType": "uint256",
                  "name": "minOutputAmount",
                  "type": "uint256"
                },
                {
                  "internalType": "uint256",
                  "name": "updatedAtBlock",
                  "type": "uint256"
                }
              ],
              "internalType": "struct Order.Numbers",
              "name": "numbers",
              "type": "tuple"
            },
            {
              "components": [
                {
                  "internalType": "bool",
                  "name": "isLong",
                  "type": "bool"
                },
                {
                  "internalType": "bool",
                  "name": "shouldUnwrapNativeToken",
                  "type": "bool"
                },
                {
                  "internalType": "bool",
                  "name": "isFrozen",
                  "type": "bool"
                }
              ],
              "internalType": "struct Order.Flags",
              "name": "flags",
              "type": "tuple"
            }
          ],
          "internalType": "struct Order.Props[]",
          "name": "",
          "type": "tuple[]"
        }
      ],
      "stateMutability": "view",
      "type": "function"
    },
    {
      "inputs": [
        {
          "internalType": "contract DataStore",
          "name": "dataStore",
          "type": "address"
        },
        {
          "internalType": "bytes32[]",
          "name": "positionKeys",
          "type": "bytes32[]"
        },
        {
          "components": [
            {
              "components": [
                {
                  "internalType": "uint256",
                  "name": "min",
                  "type": "uint256"
                },
                {
                  "internalType": "uint256",
                  "name": "max",
                  "type": "uint256"
                }
              ],
              "internalType": "struct Price.Props",
              "name": "indexTokenPrice",
              "type": "tuple"
            },
            {
              "components": [
                {
                  "internalType": "uint256",
                  "name": "min",
                  "type": "uint256"
                },
                {
                  "internalType": "uint256",
                  "name": "max",
                  "type": "uint256"
                }
              ],
              "internalType": "struct Price.Props",
              "name": "longTokenPrice",
              "type": "tuple"
            },
            {
              "components": [
                {
                  "internalType": "uint256",
                  "name": "min",
                  "type": "uint256"
                },
                {
                  "internalType": "uint256",
                  "name": "max",
                  "type": "uint256"
                }
              ],
              "internalType": "struct Price.Props",
              "name": "shortTokenPrice",
              "type": "tuple"
            }
          ],
          "internalType": "struct MarketUtils.MarketPrices[]",
          "name": "prices",
          "type": "tuple[]"
        }
      ],
      "name": "getAccountPositionInfoList",
      "outputs": [
        {
          "components": [
            {
              "components": [
                {
                  "components": [
                    {
                      "internalType": "address",
                      "name": "account",
                      "type": "address"
                    },
                    {
                      "internalType": "address",
                      "name": "market",
                      "type": "address"
                    },
                    {
                      "internalType": "address",
                      "name": "collateralToken",
                      "type": "address"
                    }
                  ],
                  "internalType": "struct Position.Addresses",
                  "name": "addresses",
                  "type": "tuple"
                },
                {
                  "components": [
                    {
                      "internalType": "uint256",
                      "name": "sizeInUsd",
                      "type": "uint256"
                    },
                    {
                      "internalType": "uint256",
                      "name": "sizeInTokens",
                      "type": "uint256"
                    },
                    {
                      "internalType": "uint256",
                      "name": "collateralAmount",
                      "type": "uint256"
                    },
                    {
                      "internalType": "uint256",
                      "name": "borrowingFactor",
                      "type": "uint256"
                    },
                    {
                      "internalType": "int256",
                      "name": "longTokenFundingAmountPerSize",
                      "type": "int256"
                    },
                    {
                      "internalType": "int256",
                      "name": "shortTokenFundingAmountPerSize",
                      "type": "int256"
                    },
                    {
                      "internalType": "uint256",
                      "name": "increasedAtBlock",
                      "type": "uint256"
                    },
                    {
                      "internalType": "uint256",
                      "name": "decreasedAtBlock",
                      "type": "uint256"
                    }
                  ],
                  "internalType": "struct Position.Numbers",
                  "name": "numbers",
                  "type": "tuple"
                },
                {
                  "components": [
                    {
                      "internalType": "bool",
                      "name": "isLong",
                      "type": "bool"
                    }
                  ],
                  "internalType": "struct Position.Flags",
                  "name": "flags",
                  "type": "tuple"
                }
              ],
              "internalType": "struct Position.Props",
              "name": "position",
              "type": "tuple"
            },
            {
              "internalType": "uint256",
              "name": "pendingBorrowingFees",
              "type": "uint256"
            },
            {
              "components": [
                {
                  "internalType": "uint256",
                  "name": "fundingFeeAmount",
                  "type": "uint256"
                },
                {
                  "internalType": "uint256",
                  "name": "claimableLongTokenAmount",
                  "type": "uint256"
                },
                {
                  "internalType": "uint256",
                  "name": "claimableShortTokenAmount",
                  "type": "uint256"
                },
                {
                  "internalType": "int256",
                  "name": "latestLongTokenFundingAmountPerSize",
                  "type": "int256"
                },
                {
                  "internalType": "int256",
                  "name": "latestShortTokenFundingAmountPerSize",
                  "type": "int256"
                },
                {
                  "internalType": "bool",
                  "name": "hasPendingLongTokenFundingFee",
                  "type": "bool"
                },
                {
                  "internalType": "bool",
                  "name": "hasPendingShortTokenFundingFee",
                  "type": "bool"
                }
              ],
              "internalType": "struct PositionPricingUtils.PositionFundingFees",
              "name": "pendingFundingFees",
              "type": "tuple"
            }
          ],
          "internalType": "struct Reader.PositionInfo[]",
          "name": "",
          "type": "tuple[]"
        }
      ],
      "stateMutability": "view",
      "type": "function"
    },
    {
      "inputs": [
        {
          "internalType": "contract DataStore",
          "name": "dataStore",
          "type": "address"
        },
        {
          "internalType": "address",
          "name": "account",
          "type": "address"
        },
        {
          "internalType": "uint256",
          "name": "start",
          "type": "uint256"
        },
        {
          "internalType": "uint256",
          "name": "end",
          "type": "uint256"
        }
      ],
      "name": "getAccountPositions",
      "outputs": [
        {
          "components": [
            {
              "components": [
                {
                  "internalType": "address",
                  "name": "account",
                  "type": "address"
                },
                {
                  "internalType": "address",
                  "name": "market",
                  "type": "address"
                },
                {
                  "internalType": "address",
                  "name": "collateralToken",
                  "type": "address"
                }
              ],
              "internalType": "struct Position.Addresses",
              "name": "addresses",
              "type": "tuple"
            },
            {
              "components": [
                {
                  "internalType": "uint256",
                  "name": "sizeInUsd",
                  "type": "uint256"
                },
                {
                  "internalType": "uint256",
                  "name": "sizeInTokens",
                  "type": "uint256"
                },
                {
                  "internalType": "uint256",
                  "name": "collateralAmount",
                  "type": "uint256"
                },
                {
                  "internalType": "uint256",
                  "name": "borrowingFactor",
                  "type": "uint256"
                },
                {
                  "internalType": "int256",
                  "name": "longTokenFundingAmountPerSize",
                  "type": "int256"
                },
                {
                  "internalType": "int256",
                  "name": "shortTokenFundingAmountPerSize",
                  "type": "int256"
                },
                {
                  "internalType": "uint256",
                  "name": "increasedAtBlock",
                  "type": "uint256"
                },
                {
                  "internalType": "uint256",
                  "name": "decreasedAtBlock",
                  "type": "uint256"
                }
              ],
              "internalType": "struct Position.Numbers",
              "name": "numbers",
              "type": "tuple"
            },
            {
              "components": [
                {
                  "internalType": "bool",
                  "name": "isLong",
                  "type": "bool"
                }
              ],
              "internalType": "struct Position.Flags",
              "name": "flags",
              "type": "tuple"
            }
          ],
          "internalType": "struct Position.Props[]",
          "name": "",
          "type": "tuple[]"
        }
      ],
      "stateMutability": "view",
      "type": "function"
    },
    {
      "inputs": [
        {
          "internalType": "contract DataStore",
          "name": "dataStore",
          "type": "address"
        },
        {
          "internalType": "bytes32",
          "name": "key",
          "type": "bytes32"
        }
      ],
      "name": "getDeposit",
      "outputs": [
        {
          "components": [
            {
              "components": [
                {
                  "internalType": "address",
                  "name": "account",
                  "type": "address"
                },
                {
                  "internalType": "address",
                  "name": "receiver",
                  "type": "address"
                },
                {
                  "internalType": "address",
                  "name": "callbackContract",
                  "type": "address"
                },
                {
                  "internalType": "address",
                  "name": "market",
                  "type": "address"
                },
                {
                  "internalType": "address",
                  "name": "initialLongToken",
                  "type": "address"
                },
                {
                  "internalType": "address",
                  "name": "initialShortToken",
                  "type": "address"
                },
                {
                  "internalType": "address[]",
                  "name": "longTokenSwapPath",
                  "type": "address[]"
                },
                {
                  "internalType": "address[]",
                  "name": "shortTokenSwapPath",
                  "type": "address[]"
                }
              ],
              "internalType": "struct Deposit.Addresses",
              "name": "addresses",
              "type": "tuple"
            },
            {
              "components": [
                {
                  "internalType": "uint256",
                  "name": "initialLongTokenAmount",
                  "type": "uint256"
                },
                {
                  "internalType": "uint256",
                  "name": "initialShortTokenAmount",
                  "type": "uint256"
                },
                {
                  "internalType": "uint256",
                  "name": "minMarketTokens",
                  "type": "uint256"
                },
                {
                  "internalType": "uint256",
                  "name": "updatedAtBlock",
                  "type": "uint256"
                },
                {
                  "internalType": "uint256",
                  "name": "executionFee",
                  "type": "uint256"
                },
                {
                  "internalType": "uint256",
                  "name": "callbackGasLimit",
                  "type": "uint256"
                }
              ],
              "internalType": "struct Deposit.Numbers",
              "name": "numbers",
              "type": "tuple"
            },
            {
              "components": [
                {
                  "internalType": "bool",
                  "name": "shouldUnwrapNativeToken",
                  "type": "bool"
                }
              ],
              "internalType": "struct Deposit.Flags",
              "name": "flags",
              "type": "tuple"
            }
          ],
          "internalType": "struct Deposit.Props",
          "name": "",
          "type": "tuple"
        }
      ],
      "stateMutability": "view",
      "type": "function"
    },
    {
      "inputs": [
        {
          "internalType": "contract DataStore",
          "name": "dataStore",
          "type": "address"
        },
        {
          "internalType": "address",
          "name": "key",
          "type": "address"
        }
      ],
      "name": "getMarket",
      "outputs": [
        {
          "components": [
            {
              "internalType": "address",
              "name": "marketToken",
              "type": "address"
            },
            {
              "internalType": "address",
              "name": "indexToken",
              "type": "address"
            },
            {
              "internalType": "address",
              "name": "longToken",
              "type": "address"
            },
            {
              "internalType": "address",
              "name": "shortToken",
              "type": "address"
            }
          ],
          "internalType": "struct Market.Props",
          "name": "",
          "type": "tuple"
        }
      ],
      "stateMutability": "view",
      "type": "function"
    },
    {
      "inputs": [
        {
          "internalType": "contract DataStore",
          "name": "dataStore",
          "type": "address"
        },
        {
          "components": [
            {
              "components": [
                {
                  "internalType": "uint256",
                  "name": "min",
                  "type": "uint256"
                },
                {
                  "internalType": "uint256",
                  "name": "max",
                  "type": "uint256"
                }
              ],
              "internalType": "struct Price.Props",
              "name": "indexTokenPrice",
              "type": "tuple"
            },
            {
              "components": [
                {
                  "internalType": "uint256",
                  "name": "min",
                  "type": "uint256"
                },
                {
                  "internalType": "uint256",
                  "name": "max",
                  "type": "uint256"
                }
              ],
              "internalType": "struct Price.Props",
              "name": "longTokenPrice",
              "type": "tuple"
            },
            {
              "components": [
                {
                  "internalType": "uint256",
                  "name": "min",
                  "type": "uint256"
                },
                {
                  "internalType": "uint256",
                  "name": "max",
                  "type": "uint256"
                }
              ],
              "internalType": "struct Price.Props",
              "name": "shortTokenPrice",
              "type": "tuple"
            }
          ],
          "internalType": "struct MarketUtils.MarketPrices",
          "name": "prices",
          "type": "tuple"
        },
        {
          "internalType": "address",
          "name": "marketKey",
          "type": "address"
        }
      ],
      "name": "getMarketInfo",
      "outputs": [
        {
          "components": [
            {
              "components": [
                {
                  "internalType": "address",
                  "name": "marketToken",
                  "type": "address"
                },
                {
                  "internalType": "address",
                  "name": "indexToken",
                  "type": "address"
                },
                {
                  "internalType": "address",
                  "name": "longToken",
                  "type": "address"
                },
                {
                  "internalType": "address",
                  "name": "shortToken",
                  "type": "address"
                }
              ],
              "internalType": "struct Market.Props",
              "name": "market",
              "type": "tuple"
            },
            {
              "internalType": "uint256",
              "name": "borrowingFactorPerSecondForLongs",
              "type": "uint256"
            },
            {
              "internalType": "uint256",
              "name": "borrowingFactorPerSecondForShorts",
              "type": "uint256"
            },
            {
              "components": [
                {
                  "internalType": "bool",
                  "name": "longsPayShorts",
                  "type": "bool"
                },
                {
                  "internalType": "uint256",
                  "name": "fundingFactorPerSecond",
                  "type": "uint256"
                },
                {
                  "internalType": "int256",
                  "name": "fundingAmountPerSize_LongCollateral_LongPosition",
                  "type": "int256"
                },
                {
                  "internalType": "int256",
                  "name": "fundingAmountPerSize_LongCollateral_ShortPosition",
                  "type": "int256"
                },
                {
                  "internalType": "int256",
                  "name": "fundingAmountPerSize_ShortCollateral_LongPosition",
                  "type": "int256"
                },
                {
                  "internalType": "int256",
                  "name": "fundingAmountPerSize_ShortCollateral_ShortPosition",
                  "type": "int256"
                }
              ],
              "internalType": "struct MarketUtils.GetNextFundingAmountPerSizeResult",
              "name": "funding",
              "type": "tuple"
            }
          ],
          "internalType": "struct Reader.MarketInfo",
          "name": "",
          "type": "tuple"
        }
      ],
      "stateMutability": "view",
      "type": "function"
    },
    {
      "inputs": [
        {
          "internalType": "contract DataStore",
          "name": "dataStore",
          "type": "address"
        },
        {
          "components": [
            {
              "components": [
                {
                  "internalType": "uint256",
                  "name": "min",
                  "type": "uint256"
                },
                {
                  "internalType": "uint256",
                  "name": "max",
                  "type": "uint256"
                }
              ],
              "internalType": "struct Price.Props",
              "name": "indexTokenPrice",
              "type": "tuple"
            },
            {
              "components": [
                {
                  "internalType": "uint256",
                  "name": "min",
                  "type": "uint256"
                },
                {
                  "internalType": "uint256",
                  "name": "max",
                  "type": "uint256"
                }
              ],
              "internalType": "struct Price.Props",
              "name": "longTokenPrice",
              "type": "tuple"
            },
            {
              "components": [
                {
                  "internalType": "uint256",
                  "name": "min",
                  "type": "uint256"
                },
                {
                  "internalType": "uint256",
                  "name": "max",
                  "type": "uint256"
                }
              ],
              "internalType": "struct Price.Props",
              "name": "shortTokenPrice",
              "type": "tuple"
            }
          ],
          "internalType": "struct MarketUtils.MarketPrices[]",
          "name": "marketPricesList",
          "type": "tuple[]"
        },
        {
          "internalType": "uint256",
          "name": "start",
          "type": "uint256"
        },
        {
          "internalType": "uint256",
          "name": "end",
          "type": "uint256"
        }
      ],
      "name": "getMarketInfoList",
      "outputs": [
        {
          "components": [
            {
              "components": [
                {
                  "internalType": "address",
                  "name": "marketToken",
                  "type": "address"
                },
                {
                  "internalType": "address",
                  "name": "indexToken",
                  "type": "address"
                },
                {
                  "internalType": "address",
                  "name": "longToken",
                  "type": "address"
                },
                {
                  "internalType": "address",
                  "name": "shortToken",
                  "type": "address"
                }
              ],
              "internalType": "struct Market.Props",
              "name": "market",
              "type": "tuple"
            },
            {
              "internalType": "uint256",
              "name": "borrowingFactorPerSecondForLongs",
              "type": "uint256"
            },
            {
              "internalType": "uint256",
              "name": "borrowingFactorPerSecondForShorts",
              "type": "uint256"
            },
            {
              "components": [
                {
                  "internalType": "bool",
                  "name": "longsPayShorts",
                  "type": "bool"
                },
                {
                  "internalType": "uint256",
                  "name": "fundingFactorPerSecond",
                  "type": "uint256"
                },
                {
                  "internalType": "int256",
                  "name": "fundingAmountPerSize_LongCollateral_LongPosition",
                  "type": "int256"
                },
                {
                  "internalType": "int256",
                  "name": "fundingAmountPerSize_LongCollateral_ShortPosition",
                  "type": "int256"
                },
                {
                  "internalType": "int256",
                  "name": "fundingAmountPerSize_ShortCollateral_LongPosition",
                  "type": "int256"
                },
                {
                  "internalType": "int256",
                  "name": "fundingAmountPerSize_ShortCollateral_ShortPosition",
                  "type": "int256"
                }
              ],
              "internalType": "struct MarketUtils.GetNextFundingAmountPerSizeResult",
              "name": "funding",
              "type": "tuple"
            }
          ],
          "internalType": "struct Reader.MarketInfo[]",
          "name": "",
          "type": "tuple[]"
        }
      ],
      "stateMutability": "view",
      "type": "function"
    },
    {
      "inputs": [
        {
          "internalType": "contract DataStore",
          "name": "dataStore",
          "type": "address"
        },
        {
          "components": [
            {
              "internalType": "address",
              "name": "marketToken",
              "type": "address"
            },
            {
              "internalType": "address",
              "name": "indexToken",
              "type": "address"
            },
            {
              "internalType": "address",
              "name": "longToken",
              "type": "address"
            },
            {
              "internalType": "address",
              "name": "shortToken",
              "type": "address"
            }
          ],
          "internalType": "struct Market.Props",
          "name": "market",
          "type": "tuple"
        },
        {
          "components": [
            {
              "internalType": "uint256",
              "name": "min",
              "type": "uint256"
            },
            {
              "internalType": "uint256",
              "name": "max",
              "type": "uint256"
            }
          ],
          "internalType": "struct Price.Props",
          "name": "indexTokenPrice",
          "type": "tuple"
        },
        {
          "components": [
            {
              "internalType": "uint256",
              "name": "min",
              "type": "uint256"
            },
            {
              "internalType": "uint256",
              "name": "max",
              "type": "uint256"
            }
          ],
          "internalType": "struct Price.Props",
          "name": "longTokenPrice",
          "type": "tuple"
        },
        {
          "components": [
            {
              "internalType": "uint256",
              "name": "min",
              "type": "uint256"
            },
            {
              "internalType": "uint256",
              "name": "max",
              "type": "uint256"
            }
          ],
          "internalType": "struct Price.Props",
          "name": "shortTokenPrice",
          "type": "tuple"
        },
        {
          "internalType": "bytes32",
          "name": "pnlFactorType",
          "type": "bytes32"
        },
        {
          "internalType": "bool",
          "name": "maximize",
          "type": "bool"
        }
      ],
      "name": "getMarketTokenPrice",
      "outputs": [
        {
          "internalType": "int256",
          "name": "",
          "type": "int256"
        }
      ],
      "stateMutability": "view",
      "type": "function"
    },
    {
      "inputs": [
        {
          "internalType": "contract DataStore",
          "name": "dataStore",
          "type": "address"
        },
        {
          "internalType": "uint256",
          "name": "start",
          "type": "uint256"
        },
        {
          "internalType": "uint256",
          "name": "end",
          "type": "uint256"
        }
      ],
      "name": "getMarkets",
      "outputs": [
        {
          "components": [
            {
              "internalType": "address",
              "name": "marketToken",
              "type": "address"
            },
            {
              "internalType": "address",
              "name": "indexToken",
              "type": "address"
            },
            {
              "internalType": "address",
              "name": "longToken",
              "type": "address"
            },
            {
              "internalType": "address",
              "name": "shortToken",
              "type": "address"
            }
          ],
          "internalType": "struct Market.Props[]",
          "name": "",
          "type": "tuple[]"
        }
      ],
      "stateMutability": "view",
      "type": "function"
    },
    {
      "inputs": [
        {
          "internalType": "contract DataStore",
          "name": "dataStore",
          "type": "address"
        },
        {
          "internalType": "address",
          "name": "market",
          "type": "address"
        },
        {
          "internalType": "address",
          "name": "longToken",
          "type": "address"
        },
        {
          "internalType": "address",
          "name": "shortToken",
          "type": "address"
        },
        {
          "components": [
            {
              "internalType": "uint256",
              "name": "min",
              "type": "uint256"
            },
            {
              "internalType": "uint256",
              "name": "max",
              "type": "uint256"
            }
          ],
          "internalType": "struct Price.Props",
          "name": "indexTokenPrice",
          "type": "tuple"
        },
        {
          "internalType": "bool",
          "name": "maximize",
          "type": "bool"
        }
      ],
      "name": "getNetPnl",
      "outputs": [
        {
          "internalType": "int256",
          "name": "",
          "type": "int256"
        }
      ],
      "stateMutability": "view",
      "type": "function"
    },
    {
      "inputs": [
        {
          "internalType": "contract DataStore",
          "name": "dataStore",
          "type": "address"
        },
        {
          "internalType": "address",
          "name": "market",
          "type": "address"
        },
        {
          "internalType": "address",
          "name": "longToken",
          "type": "address"
        },
        {
          "internalType": "address",
          "name": "shortToken",
          "type": "address"
        },
        {
          "components": [
            {
              "internalType": "uint256",
              "name": "min",
              "type": "uint256"
            },
            {
              "internalType": "uint256",
              "name": "max",
              "type": "uint256"
            }
          ],
          "internalType": "struct Price.Props",
          "name": "indexTokenPrice",
          "type": "tuple"
        },
        {
          "internalType": "bool",
          "name": "isLong",
          "type": "bool"
        },
        {
          "internalType": "bool",
          "name": "maximize",
          "type": "bool"
        }
      ],
      "name": "getOpenInterestWithPnl",
      "outputs": [
        {
          "internalType": "int256",
          "name": "",
          "type": "int256"
        }
      ],
      "stateMutability": "view",
      "type": "function"
    },
    {
      "inputs": [
        {
          "internalType": "contract DataStore",
          "name": "dataStore",
          "type": "address"
        },
        {
          "internalType": "bytes32",
          "name": "key",
          "type": "bytes32"
        }
      ],
      "name": "getOrder",
      "outputs": [
        {
          "components": [
            {
              "components": [
                {
                  "internalType": "address",
                  "name": "account",
                  "type": "address"
                },
                {
                  "internalType": "address",
                  "name": "receiver",
                  "type": "address"
                },
                {
                  "internalType": "address",
                  "name": "callbackContract",
                  "type": "address"
                },
                {
                  "internalType": "address",
                  "name": "market",
                  "type": "address"
                },
                {
                  "internalType": "address",
                  "name": "initialCollateralToken",
                  "type": "address"
                },
                {
                  "internalType": "address[]",
                  "name": "swapPath",
                  "type": "address[]"
                }
              ],
              "internalType": "struct Order.Addresses",
              "name": "addresses",
              "type": "tuple"
            },
            {
              "components": [
                {
                  "internalType": "enum Order.OrderType",
                  "name": "orderType",
                  "type": "uint8"
                },
                {
                  "internalType": "enum Order.DecreasePositionSwapType",
                  "name": "decreasePositionSwapType",
                  "type": "uint8"
                },
                {
                  "internalType": "uint256",
                  "name": "sizeDeltaUsd",
                  "type": "uint256"
                },
                {
                  "internalType": "uint256",
                  "name": "initialCollateralDeltaAmount",
                  "type": "uint256"
                },
                {
                  "internalType": "uint256",
                  "name": "triggerPrice",
                  "type": "uint256"
                },
                {
                  "internalType": "uint256",
                  "name": "acceptablePrice",
                  "type": "uint256"
                },
                {
                  "internalType": "uint256",
                  "name": "executionFee",
                  "type": "uint256"
                },
                {
                  "internalType": "uint256",
                  "name": "callbackGasLimit",
                  "type": "uint256"
                },
                {
                  "internalType": "uint256",
                  "name": "minOutputAmount",
                  "type": "uint256"
                },
                {
                  "internalType": "uint256",
                  "name": "updatedAtBlock",
                  "type": "uint256"
                }
              ],
              "internalType": "struct Order.Numbers",
              "name": "numbers",
              "type": "tuple"
            },
            {
              "components": [
                {
                  "internalType": "bool",
                  "name": "isLong",
                  "type": "bool"
                },
                {
                  "internalType": "bool",
                  "name": "shouldUnwrapNativeToken",
                  "type": "bool"
                },
                {
                  "internalType": "bool",
                  "name": "isFrozen",
                  "type": "bool"
                }
              ],
              "internalType": "struct Order.Flags",
              "name": "flags",
              "type": "tuple"
            }
          ],
          "internalType": "struct Order.Props",
          "name": "",
          "type": "tuple"
        }
      ],
      "stateMutability": "view",
      "type": "function"
    },
    {
      "inputs": [
        {
          "internalType": "contract DataStore",
          "name": "dataStore",
          "type": "address"
        },
        {
          "internalType": "address",
          "name": "market",
          "type": "address"
        },
        {
          "internalType": "address",
          "name": "longToken",
          "type": "address"
        },
        {
          "internalType": "address",
          "name": "shortToken",
          "type": "address"
        },
        {
          "components": [
            {
              "internalType": "uint256",
              "name": "min",
              "type": "uint256"
            },
            {
              "internalType": "uint256",
              "name": "max",
              "type": "uint256"
            }
          ],
          "internalType": "struct Price.Props",
          "name": "indexTokenPrice",
          "type": "tuple"
        },
        {
          "internalType": "bool",
          "name": "isLong",
          "type": "bool"
        },
        {
          "internalType": "bool",
          "name": "maximize",
          "type": "bool"
        }
      ],
      "name": "getPnl",
      "outputs": [
        {
          "internalType": "int256",
          "name": "",
          "type": "int256"
        }
      ],
      "stateMutability": "view",
      "type": "function"
    },
    {
      "inputs": [
        {
          "internalType": "contract DataStore",
          "name": "dataStore",
          "type": "address"
        },
        {
          "internalType": "address",
          "name": "marketAddress",
          "type": "address"
        },
        {
          "components": [
            {
              "components": [
                {
                  "internalType": "uint256",
                  "name": "min",
                  "type": "uint256"
                },
                {
                  "internalType": "uint256",
                  "name": "max",
                  "type": "uint256"
                }
              ],
              "internalType": "struct Price.Props",
              "name": "indexTokenPrice",
              "type": "tuple"
            },
            {
              "components": [
                {
                  "internalType": "uint256",
                  "name": "min",
                  "type": "uint256"
                },
                {
                  "internalType": "uint256",
                  "name": "max",
                  "type": "uint256"
                }
              ],
              "internalType": "struct Price.Props",
              "name": "longTokenPrice",
              "type": "tuple"
            },
            {
              "components": [
                {
                  "internalType": "uint256",
                  "name": "min",
                  "type": "uint256"
                },
                {
                  "internalType": "uint256",
                  "name": "max",
                  "type": "uint256"
                }
              ],
              "internalType": "struct Price.Props",
              "name": "shortTokenPrice",
              "type": "tuple"
            }
          ],
          "internalType": "struct MarketUtils.MarketPrices",
          "name": "prices",
          "type": "tuple"
        },
        {
          "internalType": "bool",
          "name": "isLong",
          "type": "bool"
        },
        {
          "internalType": "bool",
          "name": "maximize",
          "type": "bool"
        }
      ],
      "name": "getPnlToPoolFactor",
      "outputs": [
        {
          "internalType": "int256",
          "name": "",
          "type": "int256"
        }
      ],
      "stateMutability": "view",
      "type": "function"
    },
    {
      "inputs": [
        {
          "internalType": "contract DataStore",
          "name": "dataStore",
          "type": "address"
        },
        {
          "internalType": "bytes32",
          "name": "key",
          "type": "bytes32"
        }
      ],
      "name": "getPosition",
      "outputs": [
        {
          "components": [
            {
              "components": [
                {
                  "internalType": "address",
                  "name": "account",
                  "type": "address"
                },
                {
                  "internalType": "address",
                  "name": "market",
                  "type": "address"
                },
                {
                  "internalType": "address",
                  "name": "collateralToken",
                  "type": "address"
                }
              ],
              "internalType": "struct Position.Addresses",
              "name": "addresses",
              "type": "tuple"
            },
            {
              "components": [
                {
                  "internalType": "uint256",
                  "name": "sizeInUsd",
                  "type": "uint256"
                },
                {
                  "internalType": "uint256",
                  "name": "sizeInTokens",
                  "type": "uint256"
                },
                {
                  "internalType": "uint256",
                  "name": "collateralAmount",
                  "type": "uint256"
                },
                {
                  "internalType": "uint256",
                  "name": "borrowingFactor",
                  "type": "uint256"
                },
                {
                  "internalType": "int256",
                  "name": "longTokenFundingAmountPerSize",
                  "type": "int256"
                },
                {
                  "internalType": "int256",
                  "name": "shortTokenFundingAmountPerSize",
                  "type": "int256"
                },
                {
                  "internalType": "uint256",
                  "name": "increasedAtBlock",
                  "type": "uint256"
                },
                {
                  "internalType": "uint256",
                  "name": "decreasedAtBlock",
                  "type": "uint256"
                }
              ],
              "internalType": "struct Position.Numbers",
              "name": "numbers",
              "type": "tuple"
            },
            {
              "components": [
                {
                  "internalType": "bool",
                  "name": "isLong",
                  "type": "bool"
                }
              ],
              "internalType": "struct Position.Flags",
              "name": "flags",
              "type": "tuple"
            }
          ],
          "internalType": "struct Position.Props",
          "name": "",
          "type": "tuple"
        }
      ],
      "stateMutability": "view",
      "type": "function"
    },
    {
      "inputs": [
        {
          "internalType": "contract DataStore",
          "name": "dataStore",
          "type": "address"
        },
        {
          "internalType": "contract IReferralStorage",
          "name": "referralStorage",
          "type": "address"
        },
        {
          "internalType": "bytes32",
          "name": "positionKey",
          "type": "bytes32"
        },
        {
          "components": [
            {
              "internalType": "uint256",
              "name": "min",
              "type": "uint256"
            },
            {
              "internalType": "uint256",
              "name": "max",
              "type": "uint256"
            }
          ],
          "internalType": "struct Price.Props",
          "name": "collateralTokenPrice",
          "type": "tuple"
        },
        {
          "internalType": "address",
          "name": "longToken",
          "type": "address"
        },
        {
          "internalType": "address",
          "name": "shortToken",
          "type": "address"
        },
        {
          "internalType": "uint256",
          "name": "sizeDeltaUsd",
          "type": "uint256"
        }
      ],
      "name": "getPositionFees",
      "outputs": [
        {
          "components": [
            {
              "components": [
                {
                  "internalType": "address",
                  "name": "affiliate",
                  "type": "address"
                },
                {
                  "internalType": "uint256",
                  "name": "traderDiscountAmount",
                  "type": "uint256"
                },
                {
                  "internalType": "uint256",
                  "name": "affiliateRewardAmount",
                  "type": "uint256"
                }
              ],
              "internalType": "struct PositionPricingUtils.PositionReferralFees",
              "name": "referral",
              "type": "tuple"
            },
            {
              "components": [
                {
                  "internalType": "uint256",
                  "name": "fundingFeeAmount",
                  "type": "uint256"
                },
                {
                  "internalType": "uint256",
                  "name": "claimableLongTokenAmount",
                  "type": "uint256"
                },
                {
                  "internalType": "uint256",
                  "name": "claimableShortTokenAmount",
                  "type": "uint256"
                },
                {
                  "internalType": "int256",
                  "name": "latestLongTokenFundingAmountPerSize",
                  "type": "int256"
                },
                {
                  "internalType": "int256",
                  "name": "latestShortTokenFundingAmountPerSize",
                  "type": "int256"
                },
                {
                  "internalType": "bool",
                  "name": "hasPendingLongTokenFundingFee",
                  "type": "bool"
                },
                {
                  "internalType": "bool",
                  "name": "hasPendingShortTokenFundingFee",
                  "type": "bool"
                }
              ],
              "internalType": "struct PositionPricingUtils.PositionFundingFees",
              "name": "funding",
              "type": "tuple"
            },
            {
              "internalType": "uint256",
              "name": "feeReceiverAmount",
              "type": "uint256"
            },
            {
              "internalType": "uint256",
              "name": "feeAmountForPool",
              "type": "uint256"
            },
            {
              "internalType": "uint256",
              "name": "positionFeeAmountForPool",
              "type": "uint256"
            },
            {
              "internalType": "uint256",
              "name": "positionFeeAmount",
              "type": "uint256"
            },
            {
              "internalType": "uint256",
              "name": "borrowingFeeAmount",
              "type": "uint256"
            },
            {
              "internalType": "uint256",
              "name": "totalNetCostAmount",
              "type": "uint256"
            },
            {
              "internalType": "uint256",
              "name": "totalNetCostUsd",
              "type": "uint256"
            }
          ],
          "internalType": "struct PositionPricingUtils.PositionFees",
          "name": "",
          "type": "tuple"
        }
      ],
      "stateMutability": "view",
      "type": "function"
    },
    {
      "inputs": [
        {
          "internalType": "contract DataStore",
          "name": "dataStore",
          "type": "address"
        },
        {
          "internalType": "bytes32",
          "name": "positionKey",
          "type": "bytes32"
        },
        {
          "components": [
            {
              "components": [
                {
                  "internalType": "uint256",
                  "name": "min",
                  "type": "uint256"
                },
                {
                  "internalType": "uint256",
                  "name": "max",
                  "type": "uint256"
                }
              ],
              "internalType": "struct Price.Props",
              "name": "indexTokenPrice",
              "type": "tuple"
            },
            {
              "components": [
                {
                  "internalType": "uint256",
                  "name": "min",
                  "type": "uint256"
                },
                {
                  "internalType": "uint256",
                  "name": "max",
                  "type": "uint256"
                }
              ],
              "internalType": "struct Price.Props",
              "name": "longTokenPrice",
              "type": "tuple"
            },
            {
              "components": [
                {
                  "internalType": "uint256",
                  "name": "min",
                  "type": "uint256"
                },
                {
                  "internalType": "uint256",
                  "name": "max",
                  "type": "uint256"
                }
              ],
              "internalType": "struct Price.Props",
              "name": "shortTokenPrice",
              "type": "tuple"
            }
          ],
          "internalType": "struct MarketUtils.MarketPrices",
          "name": "prices",
          "type": "tuple"
        }
      ],
      "name": "getPositionInfo",
      "outputs": [
        {
          "components": [
            {
              "components": [
                {
                  "components": [
                    {
                      "internalType": "address",
                      "name": "account",
                      "type": "address"
                    },
                    {
                      "internalType": "address",
                      "name": "market",
                      "type": "address"
                    },
                    {
                      "internalType": "address",
                      "name": "collateralToken",
                      "type": "address"
                    }
                  ],
                  "internalType": "struct Position.Addresses",
                  "name": "addresses",
                  "type": "tuple"
                },
                {
                  "components": [
                    {
                      "internalType": "uint256",
                      "name": "sizeInUsd",
                      "type": "uint256"
                    },
                    {
                      "internalType": "uint256",
                      "name": "sizeInTokens",
                      "type": "uint256"
                    },
                    {
                      "internalType": "uint256",
                      "name": "collateralAmount",
                      "type": "uint256"
                    },
                    {
                      "internalType": "uint256",
                      "name": "borrowingFactor",
                      "type": "uint256"
                    },
                    {
                      "internalType": "int256",
                      "name": "longTokenFundingAmountPerSize",
                      "type": "int256"
                    },
                    {
                      "internalType": "int256",
                      "name": "shortTokenFundingAmountPerSize",
                      "type": "int256"
                    },
                    {
                      "internalType": "uint256",
                      "name": "increasedAtBlock",
                      "type": "uint256"
                    },
                    {
                      "internalType": "uint256",
                      "name": "decreasedAtBlock",
                      "type": "uint256"
                    }
                  ],
                  "internalType": "struct Position.Numbers",
                  "name": "numbers",
                  "type": "tuple"
                },
                {
                  "components": [
                    {
                      "internalType": "bool",
                      "name": "isLong",
                      "type": "bool"
                    }
                  ],
                  "internalType": "struct Position.Flags",
                  "name": "flags",
                  "type": "tuple"
                }
              ],
              "internalType": "struct Position.Props",
              "name": "position",
              "type": "tuple"
            },
            {
              "internalType": "uint256",
              "name": "pendingBorrowingFees",
              "type": "uint256"
            },
            {
              "components": [
                {
                  "internalType": "uint256",
                  "name": "fundingFeeAmount",
                  "type": "uint256"
                },
                {
                  "internalType": "uint256",
                  "name": "claimableLongTokenAmount",
                  "type": "uint256"
                },
                {
                  "internalType": "uint256",
                  "name": "claimableShortTokenAmount",
                  "type": "uint256"
                },
                {
                  "internalType": "int256",
                  "name": "latestLongTokenFundingAmountPerSize",
                  "type": "int256"
                },
                {
                  "internalType": "int256",
                  "name": "latestShortTokenFundingAmountPerSize",
                  "type": "int256"
                },
                {
                  "internalType": "bool",
                  "name": "hasPendingLongTokenFundingFee",
                  "type": "bool"
                },
                {
                  "internalType": "bool",
                  "name": "hasPendingShortTokenFundingFee",
                  "type": "bool"
                }
              ],
              "internalType": "struct PositionPricingUtils.PositionFundingFees",
              "name": "pendingFundingFees",
              "type": "tuple"
            }
          ],
          "internalType": "struct Reader.PositionInfo",
          "name": "",
          "type": "tuple"
        }
      ],
      "stateMutability": "view",
      "type": "function"
    },
    {
      "inputs": [
        {
          "internalType": "contract DataStore",
          "name": "dataStore",
          "type": "address"
        },
        {
          "internalType": "bytes32",
          "name": "key",
          "type": "bytes32"
        }
      ],
      "name": "getWithdrawal",
      "outputs": [
        {
          "components": [
            {
              "components": [
                {
                  "internalType": "address",
                  "name": "account",
                  "type": "address"
                },
                {
                  "internalType": "address",
                  "name": "receiver",
                  "type": "address"
                },
                {
                  "internalType": "address",
                  "name": "callbackContract",
                  "type": "address"
                },
                {
                  "internalType": "address",
                  "name": "market",
                  "type": "address"
                },
                {
                  "internalType": "address[]",
                  "name": "longTokenSwapPath",
                  "type": "address[]"
                },
                {
                  "internalType": "address[]",
                  "name": "shortTokenSwapPath",
                  "type": "address[]"
                }
              ],
              "internalType": "struct Withdrawal.Addresses",
              "name": "addresses",
              "type": "tuple"
            },
            {
              "components": [
                {
                  "internalType": "uint256",
                  "name": "marketTokenAmount",
                  "type": "uint256"
                },
                {
                  "internalType": "uint256",
                  "name": "minLongTokenAmount",
                  "type": "uint256"
                },
                {
                  "internalType": "uint256",
                  "name": "minShortTokenAmount",
                  "type": "uint256"
                },
                {
                  "internalType": "uint256",
                  "name": "updatedAtBlock",
                  "type": "uint256"
                },
                {
                  "internalType": "uint256",
                  "name": "executionFee",
                  "type": "uint256"
                },
                {
                  "internalType": "uint256",
                  "name": "callbackGasLimit",
                  "type": "uint256"
                }
              ],
              "internalType": "struct Withdrawal.Numbers",
              "name": "numbers",
              "type": "tuple"
            },
            {
              "components": [
                {
                  "internalType": "bool",
                  "name": "shouldUnwrapNativeToken",
                  "type": "bool"
                }
              ],
              "internalType": "struct Withdrawal.Flags",
              "name": "flags",
              "type": "tuple"
            }
          ],
          "internalType": "struct Withdrawal.Props",
          "name": "",
          "type": "tuple"
        }
      ],
      "stateMutability": "view",
      "type": "function"
    }
  ],
  "bytecode": "0x608060405234801561001057600080fd5b50615d1b80620000216000396000f3fe608060405234801561001057600080fd5b50600436106100e65760003560e01c8063095ce6c5146100eb5780630fa8f516146101115780631485d29714610131578063257c65691461015157806342a6f8d31461017157806349651b6a146101915780634bc14b2a146101b1578063714af34b146101d157806377cfb162146101f15780637b59691014610211578063847bb4691461022457806396764e6f14610244578063971de27d14610257578063a43ca83d1461026a578063bc7b5bba1461028a578063beb9bd9a146102aa578063ce3264bf146102bd578063ceeea3bf146102dd575b600080fd5b6100fe6100f93660046144ba565b6102fd565b6040519081526020015b60405180910390f35b61012461011f36600461459b565b61031c565b604051610108919061466d565b61014461013f36600461459b565b6103a8565b60405161010891906146c0565b61016461015f366004614834565b61042e565b60405161010891906148e5565b61018461017f3660046148f4565b6105d5565b6040516101089190614a9c565b6101a461019f36600461459b565b610724565b6040516101089190614afe565b6101c46101bf366004614b11565b6107aa565b6040516101089190614b95565b6101e46101df366004614c23565b61084e565b6040516101089190614c8f565b6102046101ff3660046148f4565b6108d0565b6040516101089190614c9d565b6100fe61021f366004614cec565b610a0f565b610237610232366004614d82565b610a20565b6040516101089190614e35565b6100fe610252366004614cec565b610b00565b6100fe610265366004614e44565b610b11565b61027d610278366004614f42565b610baa565b604051610108919061500e565b61029d610298366004615051565b610c8b565b60405161010891906150b0565b6100fe6102b83660046150f3565b610d78565b6102d06102cb366004615174565b610d95565b60405161010891906151a9565b6102f06102eb36600461459b565b610ee2565b60405161010891906151eb565b600061030e888887878a8888610f68565b90505b979650505050505050565b610324613ec1565b60405163fdfc26f360e01b815273__$3d31b232fb363902662fbc281b11ab3357$__9063fdfc26f39061035d9086908690600401615271565b61018060405180830381865af415801561037b573d6000803e3d6000fd5b505050506040513d601f19601f8201168201806040525081019061039f91906152e4565b90505b92915050565b6103b0613f50565b60405163fdfc26f360e01b815273__$b63e253a228f0e32f671cc49c7fc32477c$__9063fdfc26f3906103e99086908690600401615271565b600060405180830381865af4158015610406573d6000803e3d6000fd5b505050506040513d6000823e601f3d908101601f1916820160405261039f91908101906154a0565b610436613fda565b60405163fdfc26f360e01b815260009073__$3d31b232fb363902662fbc281b11ab3357$__9063fdfc26f3906104729088908890600401615271565b61018060405180830381865af4158015610490573d6000803e3d6000fd5b505050506040513d601f19601f820116820180604052508101906104b491906152e4565b9050600073__$ff439aa65a80c9eec648f15db20b189505$__63a8d8fff5876104df85516020015190565b6040518363ffffffff1660e01b81526004016104fc9291906155ec565b608060405180830381865af4158015610519573d6000803e3d6000fd5b505050506040513d601f19601f8201168201806040525081019061053d9190615606565b9050600061054d87848488611026565b9050600061055c8884886110b9565b905060008061056d86604001515190565b1561058357505060408101516080820151610590565b5050606081015160a08201515b60006105a787876040015188606001518686611560565b90506040518060600160405280888152602001868152602001828152509750505050505050505b9392505050565b606060006105e58686868661168e565b9050600081516001600160401b038111156106025761060261435b565b60405190808252806020026020018201604052801561063b57816020015b610628614001565b8152602001906001900390816106205790505b50905060005b825181101561071757600083828151811061065e5761065e61568a565b6020026020010151905073__$9dcb75ef0bb6c4288f2ccffe7dc492c4eb$__63fdfc26f38a836040518363ffffffff1660e01b81526004016106a1929190615271565b600060405180830381865af41580156106be573d6000803e3d6000fd5b505050506040513d6000823e601f3d908101601f191682016040526106e6919081019061579b565b8383815181106106f8576106f861568a565b602002602001018190525050808061070f906158ca565b915050610641565b509150505b949350505050565b61072c614001565b60405163fdfc26f360e01b815273__$9dcb75ef0bb6c4288f2ccffe7dc492c4eb$__9063fdfc26f3906107659086908690600401615271565b600060405180830381865af4158015610782573d6000803e3d6000fd5b505050506040513d6000823e601f3d908101601f1916820160405261039f919081019061579b565b6107b26140ba565b60405163fdfc26f360e01b815260009073__$3d31b232fb363902662fbc281b11ab3357$__9063fdfc26f3906107ee908c908b90600401615271565b61018060405180830381865af415801561080c573d6000803e3d6000fd5b505050506040513d601f19601f8201168201806040525081019061083091906152e4565b90506108418989838989898961171a565b9998505050505050505050565b610856614126565b60405163a8d8fff560e01b815273__$ff439aa65a80c9eec648f15db20b189505$__9063a8d8fff59061088f90869086906004016155ec565b608060405180830381865af41580156108ac573d6000803e3d6000fd5b505050506040513d601f19601f8201168201806040525081019061039f9190615606565b606060006108e08686868661193d565b9050600081516001600160401b038111156108fd576108fd61435b565b60405190808252806020026020018201604052801561093657816020015b610923613ec1565b81526020019060019003908161091b5790505b50905060005b82518110156107175760008382815181106109595761095961568a565b6020026020010151905073__$3d31b232fb363902662fbc281b11ab3357$__63fdfc26f38a836040518363ffffffff1660e01b815260040161099c929190615271565b61018060405180830381865af41580156109ba573d6000803e3d6000fd5b505050506040513d601f19601f820116820180604052508101906109de91906152e4565b8383815181106109f0576109f061568a565b6020026020010181905250508080610a07906158ca565b91505061093c565b600061030e88888888888888611957565b610a2861414d565b60405163a8d8fff560e01b815260009073__$ff439aa65a80c9eec648f15db20b189505$__9063a8d8fff590610a6490889087906004016155ec565b608060405180830381865af4158015610a81573d6000803e3d6000fd5b505050506040513d601f19601f82011682018060405250810190610aa59190615606565b90506000610ab68683876001611986565b90506000610ac78784886000611986565b90506000610ad68885896110b9565b60408051608081018252958652602086019490945292840191909152506060820152949350505050565b600061030e88888888888888611a36565b60008073__$ff439aa65a80c9eec648f15db20b189505$__63a8d8fff588886040518363ffffffff1660e01b8152600401610b4d9291906155ec565b608060405180830381865af4158015610b6a573d6000803e3d6000fd5b505050506040513d601f19601f82011682018060405250810190610b8e9190615606565b9050610b9d8782878787611acd565b9150505b95945050505050565b6060600083516001600160401b03811115610bc757610bc761435b565b604051908082528060200260200182016040528015610c0057816020015b610bed613fda565b815260200190600190039081610be55790505b50905060005b8451811015610c82576000858281518110610c2357610c2361568a565b60200260200101519050610c518782878581518110610c4457610c4461568a565b602002602001015161042e565b838381518110610c6357610c6361568a565b6020026020010181905250508080610c7a906158ca565b915050610c06565b50949350505050565b60606000610c9a868585611b29565b9050600081516001600160401b03811115610cb757610cb761435b565b604051908082528060200260200182016040528015610cf057816020015b610cdd61414d565b815260200190600190039081610cd55790505b50905060005b8251811015610717576000878281518110610d1357610d1361568a565b602002602001015190506000848381518110610d3157610d3161568a565b60200260200101519050610d468a8383610a20565b848481518110610d5857610d5861568a565b602002602001018190525050508080610d70906158ca565b915050610cf6565b6000610d88878787878787611bee565b90505b9695505050505050565b60606000610da4858585611b29565b9050600081516001600160401b03811115610dc157610dc161435b565b604051908082528060200260200182016040528015610dfa57816020015b610de7614126565b815260200190600190039081610ddf5790505b50905060005b8251811015610ed8576000838281518110610e1d57610e1d61568a565b60200260200101519050600073__$ff439aa65a80c9eec648f15db20b189505$__63a8d8fff58a846040518363ffffffff1660e01b8152600401610e629291906155ec565b608060405180830381865af4158015610e7f573d6000803e3d6000fd5b505050506040513d601f19601f82011682018060405250810190610ea39190615606565b905080848481518110610eb857610eb861568a565b602002602001018190525050508080610ed0906158ca565b915050610e00565b5095945050505050565b610eea61417b565b60405163fdfc26f360e01b815273__$3dc24d71d6ebafc0c4ce8ac2f69cd1548a$__9063fdfc26f390610f239086908690600401615271565b600060405180830381865af4158015610f40573d6000803e3d6000fd5b505050506040513d6000823e601f3d908101601f1916820160405261039f91908101906158e3565b600080610f7a89898989898989611c21565b905080600003610f8e576000915050610311565b6000811215610fb8576040516322222b7560e21b8152600481018290526024015b60405180910390fd5b6000610fc78960000151611efc565b905080600003610fea5760405163b5218c5360e01b815260040160405180910390fd5b610ff381611f60565b611004670de0b6b3a7640000611f60565b61100e90846159fa565b6110189190615a95565b9a9950505050505050505050565b60008061104086858561103b89604001515190565b611fce565b5090508061105386602001516060015190565b1115611087576020850151606001515b604051634cd96ac160e11b8152600481019190915260248101829052604401610faf565b600061109886602001516060015190565b6110a29083615ac3565b90506103116110b387602001515190565b82612032565b6110c16141bb565b6110c96141bb565b6110d16141f3565b6110e6868660000151876040015160016120ca565b815152845160608601516110fd91889160016120ca565b8151602001528451604086015161111791889160006120ca565b8151604001528451606086015161113191889160006120ca565b81516060015280516020810151905161114a9190615ad6565b815160800152805160608101516040909101516111679190615ad6565b815160a00152845160408601516111819188916001612145565b82604001818152505061119f86866000015187604001516000612145565b8260600181815250506111bd86866000015187606001516001612145565b6080830152845160608601516111d69188916000612145565b60a083015280516080015115806111f05750805160a00151155b156111fd575090506105ce565b61120b868660000151612161565b60408201528051608081015160a09091015161122791906121f9565b6060820152805160a08101516080909101516112439190615ad6565b608080830191909152815160a08101519101511161126657805160a0015161126d565b8051608001515b60a082015284516060820151608083015161128b928992909161221b565b60208301819052604082015160a08301516112b39068327cb2734119d3b7a9601e1b90615ae9565b6112bd9190615afd565b6112c79190615afd565b60c0820152805160a0810151608090910151118083521561133a5780516080810151905160c08301516112fa9190615afd565b6113049190615ae9565b60e08201528051608081015160209091015160c08301516113259190615afd565b61132f9190615ae9565b610100820152611392565b805160a081015160409091015160c08301516113569190615afd565b6113609190615ae9565b60e0820152805160a081015160609091015160c08301516113819190615afd565b61138b9190615ae9565b6101008201525b6113b88460200151602001518260e001516113ad9190615ae9565b825160800151612290565b6020808301516080019190915284810151015160e08201516113e8916113dd91615ae9565b825160a00151612290565b60208083015160c001919091526040850151015161010082015161140f916113ad91615ae9565b60208083015160a0019190915260408501510151610100820151611436916113dd91615ae9565b602082015160e001528151156114d657611464826040015161145f836020015160800151611f60565b61229c565b60408301526060820151602082015160c0015161148a919061148590611f60565b612355565b60608301526080820151602082015160a001516114ab919061145f90611f60565b608083015260a0820151602082015160e001516114cc919061148590611f60565b60a0830152610c82565b6114ef8260400151611485836020015160800151611f60565b60408301526060820151602082015160c00151611510919061145f90611f60565b60608301526080820151602082015160a00151611531919061148590611f60565b608083015260a0820151602082015160e00151611552919061145f90611f60565b60a083015250949350505050565b611568614285565b611570614285565b606081018490526080810183905260008061159f866115948b602001516080015190565b60208c01515161240f565b90151560a085015260808401519092506115c2906115948b6020015160a0015190565b90151560c0850152905060008212156115ec576115e66115e183615b1c565b612446565b60208401525b6000811215611607576116016115e182615b1c565b60408401525b876001600160a01b031661161d8a516040015190565b6001600160a01b03161480156116335750600082135b156116445761164182612446565b83525b866001600160a01b031661165a8a516040015190565b6001600160a01b03161480156116705750600081135b156116815761167e81612446565b83525b5090979650505050505050565b6060846001600160a01b031663f069052a6116a886612498565b6040516001600160e01b031960e084901b16815260048101919091526024810186905260448101859052606401600060405180830381865afa1580156116f2573d6000803e3d6000fd5b505050506040513d6000823e601f3d908101601f19168201604052610ba19190810190615b38565b6117226140ba565b61172a6140ba565b6117458989886117398b515190565b8b51602001518861251a565b855160808701919091526040808701929092529081019190915260208101919091526001600160a01b03909116905285516117808a8961277c565b61178a9190615ae9565b60c08201526040516000906001600160a01b038b169063bd02d0f5906117b290602001615bbd565b604051602081830303815290604052805190602001206040518263ffffffff1660e01b81526004016117e691815260200190565b602060405180830381865afa158015611803573d6000803e3d6000fd5b505050506040513d601f19601f820116820180604052508101906118279190615bf4565b905060006118398360c0015183612032565b9050808360c0015184608001516118509190615ad6565b61185a9190615ac3565b6060840152604083018051829190611873908390615ad6565b905250600061189a8c6118888c516020015190565b8a6118958e604001515190565b612145565b905060006118bb8d6118ae8d516020015190565b8a6118958f604001515190565b90506118ca8b8a8a8585611560565b6020860181905260c0860151905160808701516040808901518951909101516118f39190615ad6565b6118fd9190615ad6565b6119079190615ad6565b6119119190615ad6565b60e0860181905260208b015161192691615afd565b61010086015250929b9a5050505050505050505050565b6060846001600160a01b031663f069052a6116a8866127ec565b6000806119678989898988612827565b9050600061197a8a8a8a8a8a8a8a611a36565b90506110188282612852565b60008061199886866000015185612868565b905060006119a8878787876128e2565b9050806000036119bd5760009250505061071c565b60006119cb8888888861293a565b9050806000036119ee57604051630d5f5aef60e31b815260040160405180910390fd5b60006119ff8989600001518861298c565b90506000611a0d84836129a7565b90506000611a1b8285612a06565b9050611a278187612032565b9b9a5050505050505050505050565b600080611a4e611a498a8a8a8a89612827565b611f60565b90506000611a5f8a8a8a8a89612ab3565b9050811580611a6c575080155b15611a7c57600092505050610311565b6000611a89878787612ad2565b90506000611a9a611a498385615afd565b9050600087611ab257611aad8286615c0d565b611abc565b611abc8583615c0d565b9d9c50505050505050505050505050565b600080611adc8787878761293a565b905080600003611af0576000915050610ba1565b6000611b1188886000015189604001518a606001518a600001518a8a611a36565b9050611b1d8183612b0b565b98975050505050505050565b6060836001600160a01b031663e7e4148e604051602001611b69906020808252600b908201526a13505492d15517d31254d560aa1b604082015260600190565b60408051601f198184030181529082905280516020909101206001600160e01b031960e084901b16825260048201526024810186905260448101859052606401600060405180830381865afa158015611bc6573d6000803e3d6000fd5b505050506040513d6000823e601f3d908101601f1916820160405261071c9190810190615c34565b600080611c018888888888600189611a36565b90506000611c15898989898960008a611a36565b90506108418183615c68565b6000611c8060405180610160016040528060008152602001600081526020016000815260200160008152602001600081526020016000815260200160008152602001600081526020016000815260200160008152602001600081525090565b611c938989600001518a60400151612b4a565b602082015287516060890151611caa918b91612b4a565b6040820152611cb98784612b65565b8160200151611cc89190615afd565b6060820152611cd78684612b65565b8160400151611ce69190615afd565b608082018190526060820151611cfc9190615ad6565b81528751604089015160608a0151611d19928c9290916001612b7c565b60a08201528751604089015160608a0151611d39928c9290916000612b7c565b8160a001818151611d4a9190615ad6565b9052506040516001600160a01b038a169063bd02d0f590611d6d90602001615bbd565b604051602081830303815290604052805190602001206040518263ffffffff1660e01b8152600401611da191815260200190565b602060405180830381865afa158015611dbe573d6000803e3d6000fd5b505050506040513d601f19601f82011682018060405250810190611de29190615bf4565b60c0820181905260a0820151611df791612032565b81518290611e06908390615ad6565b9052508751611e16908a90612bc1565b60e0820152611e258584612b65565b8160e00151611e349190615afd565b81518290611e43908390615ad6565b9052508751604089015160608a0151611e64928c9290918960018915611a36565b610100820181905288516060830151611e84928c92916001919089612c3a565b6101008201528751604089015160608a0151611ea8928c9290918960008915611a36565b610120820181905288516080830151611ec8928c92916000919089612c3a565b6101208201819052610100820151611ee09190615c68565b6101408201819052815161084191611ef790615b1c565b612852565b6000816001600160a01b03166318160ddd6040518163ffffffff1660e01b8152600401602060405180830381865afa158015611f3c573d6000803e3d6000fd5b505050506040513d601f19601f820116820180604052508101906103a29190615bf4565b60006001600160ff1b03821115611fca5760405162461bcd60e51b815260206004820152602860248201527f53616665436173743a2076616c756520646f65736e27742066697420696e2061604482015267371034b73a191a9b60c11b6064820152608401610faf565b5090565b6000806000611fe287876000015186612c79565b90506000611ff288888888611986565b9050600061200589896000015188612ca5565b905060006120138385615afd565b905060006120218284615ad6565b9b919a509098505050505050505050565b60008060006120418585612cc0565b91509150811561206a5761206168327cb2734119d3b7a9601e1b82615ae9565b925050506103a2565b60008085871161207b57858761207e565b86865b90925090506120a268056bc75e2d6310000068327cb2734119d3b7a9601e1b615ae9565b816120b668056bc75e2d6310000085615ae9565b6120c09190615afd565b6103119190615ae9565b6000846001600160a01b031663bd02d0f56120e6868686612d0b565b6040518263ffffffff1660e01b815260040161210491815260200190565b602060405180830381865afa158015612121573d6000803e3d6000fd5b505050506040513d601f19601f82011682018060405250810190610ba19190615bf4565b6000846001600160a01b031663dc97d9626120e6868686612d9e565b600080836001600160a01b031663bd02d0f561217c85612ddb565b6040518263ffffffff1660e01b815260040161219a91815260200190565b602060405180830381865afa1580156121b7573d6000803e3d6000fd5b505050506040513d601f19601f820116820180604052508101906121db9190615bf4565b9050806000036121ef5760009150506103a2565b61071c8142615ac3565b60008183116122115761220c8383615ac3565b61039f565b61039f8284615ac3565b60008260000361222d5750600061071c565b8160000361224e576040516311423d9560e01b815260040160405180910390fd5b600061225a8686612e13565b905060006122688787612e2d565b9050600061227686836129a7565b905060006122848287612a06565b90506108418185612032565b600061039f8383612a06565b60008215806122a9575081155b806122bf57506000831280156122bf5750600082135b806122d557506000831380156122d55750600082125b156122eb576122e48284615c68565b90506103a2565b600083128015612308575061230483600160ff1b615c0d565b8213155b156123185750600160ff1b6103a2565b6000831380156123385750612334836001600160ff1b03615c0d565b8212155b1561234b57506001600160ff1b036103a2565b61039f8284615c68565b6000821580612362575081155b8061237857506000831380156123785750600082135b8061238e575060008312801561238e5750600082125b1561239d576122e48284615c0d565b6000831380156123c557506123b9836001600160ff1b03615c0d565b6123c283615b1c565b12155b156123d857506001600160ff1b036103a2565b6000831280156123f557506123f183600160ff1b615c0d565b8213155b156124055750600160ff1b6103a2565b61039f8284615c0d565b6000808061241d8587615c0d565b9050600061242b8583612e47565b9050811580159061243a575080155b97909650945050505050565b600080821215611fca5760405162461bcd60e51b815260206004820181905260248201527f53616665436173743a2076616c7565206d75737420626520706f7369746976656044820152606401610faf565b60006040516020016124d0906020808252601290820152711050d0d3d5539517d3d491115497d31254d560721b604082015260600190565b60408051601f198184030181528282528051602091820120908301526001600160a01b03841690820152606001604051602081830303815290604052805190602001209050919050565b600080600080600061252a6142c6565b6125348b8a612e6f565b8351604081019190915260208101919091526001600160a01b0391821690528c1663bd02d0f56125638a6130db565b6040518263ffffffff1660e01b815260040161258191815260200190565b602060405180830381865afa15801561259e573d6000803e3d6000fd5b505050506040513d601f19601f820116820180604052508101906125c29190615bf4565b602082018190528a51906125d7908990612032565b6125e19190615ae9565b604082018190528151602001516125f89190612032565b81516060908101919091528151908101516040909101516126199190612032565b815160809081019190915281519081015160609091015161263a9190615ac3565b815160a0015280516060015160408201516126559190615ac3565b60608201526040516001600160a01b038d169063bd02d0f5906126ab906020016020808252601c908201527b2827a9a4aa24a7a72fa322a2afa922a1a2a4ab22a92fa320a1aa27a960211b604082015260600190565b604051602081830303815290604052805190602001206040518263ffffffff1660e01b81526004016126df91815260200190565b602060405180830381865afa1580156126fc573d6000803e3d6000fd5b505050506040513d601f19601f820116820180604052508101906127209190615bf4565b60808201819052606082015161273591612032565b60a08201819052606082015161274b9190615ac3565b60c0820181905281518051608082015160a0928301519290940151909f939e50909c509a5098509650505050505050565b60008061279a8461278f85516020015190565b604086015151612ca5565b9050806127ac84602001516060015190565b11156127c057602083015160600151611063565b60006127d184602001516060015190565b6127db9083615ac3565b9050610ba16110b385602001515190565b60006040516020016124d0906020808252601590820152741050d0d3d5539517d413d4d2551253d397d31254d5605a1b604082015260600190565b600080612836878787866120ca565b90506000612846888887876120ca565b9050611b1d8183615ad6565b60008161285e84611f60565b61039f9190615c68565b6000836001600160a01b031663bd02d0f56128838585613114565b6040518263ffffffff1660e01b81526004016128a191815260200190565b602060405180830381865afa1580156128be573d6000803e3d6000fd5b505050506040513d601f19601f8201168201806040525081019061071c9190615bf4565b60008082156129215760006129068787600001518860400151896060015188612ab3565b8551602001519091506129199082615afd565b915050610ba1565b610d8b8686600001518760400151886060015187612827565b6000808261294c578460600151612952565b84604001515b9050600061296587876000015184612b4a565b905060008461297957604086015151612980565b6020860151515b9050611b1d8183615afd565b6000836001600160a01b031663bd02d0f5612883858561319e565b600068327cb2734119d3b7a9601e1b8310156129c5575060006103a2565b68327cb2734119d3b7a9601e1b82036129df5750816103a2565b60006129fb6129ed856131dd565b6129f6856131dd565b6131ee565b905061071c8161322e565b6000806000612a218568327cb2734119d3b7a9601e1b612cc0565b915091508115612a35576120618482615ae9565b68327cb2734119d3b7a9601e1b612a5568056bc75e2d6310000087615ae9565b612a5f9190615afd565b90506b1d6329f1c35ca4bfabb9f56160281b841115612a9557612a8b68056bc75e2d6310000085615ae9565b6120619082615ae9565b68056bc75e2d63100000612aa98583615ae9565b610ba19190615afd565b600080612ac28787878661323f565b905060006128468888878761323f565b60008215612af35781612ae6578351612aec565b83602001515b90506105ce565b81612b0257836020015161071c565b50509051919050565b600080612b20612b1a8561325b565b84612a06565b905060008413612b4157612b3381611f60565b612b3c90615b1c565b61071c565b61071c81611f60565b6000836001600160a01b031663bd02d0f5612883858561326e565b600081612b7357825161039f565b50506020015190565b600080612b8c8787878787612827565b90506000612b9b888886612ca5565b90506000612baa8989876132dc565b905080612bb78385615afd565b6108419190615ac3565b6000826001600160a01b031663bd02d0f5612bdb846132f7565b6040518263ffffffff1660e01b8152600401612bf991815260200190565b602060405180830381865afa158015612c16573d6000803e3d6000fd5b505050506040513d601f19601f8201168201806040525081019061039f9190615bf4565b600080841215612c4b575082610d8b565b6000612c5988848989613338565b90506000612c6a611a498684612032565b9050808613611b1d5785610841565b600080612c87858585613354565b905080600003612c9b5760009150506105ce565b610ba18142615ac3565b6000836001600160a01b031663bd02d0f5612883858561336f565b60008083600003612cd75750600190506000612d04565b83830283858281612cea57612cea615a7f565b0414612cfd576000809250925050612d04565b6001925090505b9250929050565b6000604051602001612d3e906020808252600d908201526c13d4115397d2539511549154d5609a1b604082015260600190565b60408051601f198184030181528282528051602091820120908301526001600160a01b038087169183019190915284166060820152821515608082015260a0015b6040516020818303038152906040528051906020012090509392505050565b6000604051602001612d3e9060208082526017908201527646554e44494e475f414d4f554e545f5045525f53495a4560481b604082015260600190565b60006040516020016124d09060208082526012908201527111955391125391d7d554111055115117d05560721b604082015260600190565b6000826001600160a01b031663bd02d0f5612bdb846133b0565b6000826001600160a01b031663bd02d0f5612bdb846133e4565b600080612e5c84612e578561325b565b612032565b905060008313612b4157612b3381611f60565b600080600080856001600160a01b03166385725b58866040518263ffffffff1660e01b8152600401612ea19190615c90565b602060405180830381865afa158015612ebe573d6000803e3d6000fd5b505050506040513d601f19601f82011682018060405250810190612ee29190615bf4565b90506000808083156130b7576040516306459e2360e51b8152600481018590526001600160a01b038a169063c8b3c46090602401602060405180830381865afa158015612f33573d6000803e3d6000fd5b505050506040513d601f19601f82011682018060405250810190612f579190615ca4565b92506000896001600160a01b0316631582a018856040518263ffffffff1660e01b8152600401612f879190615c90565b602060405180830381865afa158015612fa4573d6000803e3d6000fd5b505050506040513d601f19601f82011682018060405250810190612fc89190615bf4565b60405163039af9eb60e01b8152600481018290529091506001600160a01b038b169063039af9eb906024016040805180830381865afa15801561300f573d6000803e3d6000fd5b505050506040513d601f19601f820116820180604052508101906130339190615cc1565b60405163071a6a7960e41b815291945092506000906001600160a01b038c16906371a6a79090613067908890600401615c90565b602060405180830381865afa158015613084573d6000803e3d6000fd5b505050506040513d601f19601f820116820180604052508101906130a89190615bf4565b905080156130b4578092505b50505b826130c183613421565b6130ca83613421565b965096509650505050509250925092565b60006040516020016124d0906020808252601390820152722827a9a4aa24a7a72fa322a2afa320a1aa27a960691b604082015260600190565b600060405160200161314a9060208082526010908201526f2127a92927aba4a723afa320a1aa27a960811b604082015260600190565b60408051601f198184030181528282528051602091820120908301526001600160a01b0385169082015282151560608201526080015b60405160208183030381529060405280519060200120905092915050565b600060405160200161314a906020808252601990820152782127a92927aba4a723afa2ac2827a722a72a2fa320a1aa27a960391b604082015260600190565b60006103a264e8d4a5100083615ae9565b6000826000036132145781156132055760006122e4565b50670de0b6b3a76400006103a2565b61039f61322961322385613446565b846134fc565b613508565b60006103a264e8d4a5100083615afd565b6000846001600160a01b031663bd02d0f56120e686868661354e565b600080821215611fca57816000036103a2565b600060405160200161329f906020808252600b908201526a1413d3d317d05353d5539560aa1b604082015260600190565b60408051601f198184030181528282528051602091820120908301526001600160a01b038086169183019190915283166060820152608001613180565b6000836001600160a01b031663bd02d0f5612883858561358b565b60006040516020016124d0906020808252601b908201527a1413d4d2551253d397d253541050d517d413d3d317d05353d55395602a1b604082015260600190565b6000846001600160a01b031663bd02d0f56120e68686866135c0565b6000836001600160a01b031663bd02d0f56128838585613634565b600060405160200161314a906020808252601b908201527a21aaa6aaa620aa24ab22afa127a92927aba4a723afa320a1aa27a960291b604082015260600190565b60006040516020016124d0906020808252600e908201526d232aa72224a723afa320a1aa27a960911b604082015260600190565b60006040516020016124d090602080825260179082015276232aa72224a723afa2ac2827a722a72a2fa320a1aa27a960491b604082015260600190565b600061271061343c68327cb2734119d3b7a9601e1b84615afd565b6103a29190615ae9565b6000670de0b6b3a764000082101561347457604051633621413760e21b815260048101839052602401610faf565b6000613489670de0b6b3a76400008404613686565b670de0b6b3a764000081029250905082811c670de0b6b3a763ffff1981016134b2575050919050565b6706f05b59d3b200005b80156134f457670de0b6b3a7640000828002049150671bc16d674ec8000082106134ec579283019260019190911c905b60011c6134bc565b505050919050565b600061039f8383613769565b6000680a688906bd8b000000821061353657604051634a4f26f160e01b815260048101839052602401610faf565b670de0b6b3a7640000604083901b046105ce8161382f565b6000604051602001612d3e906020808252601790820152764f50454e5f494e5445524553545f494e5f544f4b454e5360481b604082015260600190565b600060405160200161314a906020808252600f908201526e544f54414c5f424f52524f57494e4760881b604082015260600190565b60006040516020016135f4906020808252600e908201526d26a0ac2fa827262fa320a1aa27a960911b604082015260600190565b60408051601f1981840301815282825280516020918201209083015281018590526001600160a01b0384166060820152821515608082015260a001612d7f565b600060405160200161314a9060208082526026908201527f43554d554c41544956455f424f52524f57494e475f464143544f525f5550444160408201526515115117d05560d21b606082015260800190565b6000600160801b82106136a657608091821c916136a39082615ad6565b90505b600160401b82106136c457604091821c916136c19082615ad6565b90505b600160201b82106136e257602091821c916136df9082615ad6565b90505b6201000082106136ff57601091821c916136fc9082615ad6565b90505b610100821061371b57600891821c916137189082615ad6565b90505b6010821061373657600491821c916137339082615ad6565b90505b6004821061375157600291821c9161374e9082615ad6565b90505b60028210613764576103a2600182615ad6565b919050565b60008080600019848609848602925082811083820303915050670de0b6b3a764000081106137ad5760405163698d9a0160e11b815260048101829052602401610faf565b600080670de0b6b3a764000086880991506706f05b59d3b1ffff82119050826000036137eb5780670de0b6b3a76400008504019450505050506103a2565b620400008285030493909111909103600160ee1b02919091177faccb18165bd6fe31ae1cf318dc5b51eee0e1ba569b88cd74c1773b91fac106690201905092915050565b600160bf1b6001603f1b82161561384f5768016a09e667f3bcc9090260401c5b6001603e1b82161561386a576801306fe0a31b7152df0260401c5b6001603d1b821615613885576801172b83c7d517adce0260401c5b6001603c1b8216156138a05768010b5586cf9890f62a0260401c5b6001603b1b8216156138bb576801059b0d31585743ae0260401c5b6001603a1b8216156138d657680102c9a3e778060ee70260401c5b600160391b8216156138f15768010163da9fb33356d80260401c5b600160381b82161561390c57680100b1afa5abcbed610260401c5b600160371b8216156139275768010058c86da1c09ea20260401c5b600160361b821615613942576801002c605e2e8cec500260401c5b600160351b82161561395d57680100162f3904051fa10260401c5b600160341b821615613978576801000b175effdc76ba0260401c5b600160331b82161561399357680100058ba01fb9f96d0260401c5b600160321b8216156139ae5768010002c5cc37da94920260401c5b600160311b8216156139c9576801000162e525ee05470260401c5b600160301b8216156139e45768010000b17255775c040260401c5b6001602f1b8216156139ff576801000058b91b5bc9ae0260401c5b6001602e1b821615613a1a57680100002c5c89d5ec6d0260401c5b6001602d1b821615613a355768010000162e43f4f8310260401c5b6001602c1b821615613a5057680100000b1721bcfc9a0260401c5b6001602b1b821615613a6b5768010000058b90cf1e6e0260401c5b6001602a1b821615613a86576801000002c5c863b73f0260401c5b600160291b821615613aa157680100000162e430e5a20260401c5b600160281b821615613abc576801000000b1721835510260401c5b600160271b821615613ad757680100000058b90c0b490260401c5b600160261b821615613af25768010000002c5c8601cc0260401c5b600160251b821615613b0d576801000000162e42fff00260401c5b600160241b821615613b285768010000000b17217fbb0260401c5b600160231b821615613b43576801000000058b90bfce0260401c5b600160221b821615613b5e57680100000002c5c85fe30260401c5b600160211b821615613b795768010000000162e42ff10260401c5b600160201b821615613b9457680100000000b17217f80260401c5b6380000000821615613baf5768010000000058b90bfc0260401c5b6340000000821615613bca576801000000002c5c85fe0260401c5b6320000000821615613be557680100000000162e42ff0260401c5b6310000000821615613c00576801000000000b17217f0260401c5b6308000000821615613c1b57680100000000058b90c00260401c5b6304000000821615613c365768010000000002c5c8600260401c5b6302000000821615613c51576801000000000162e4300260401c5b6301000000821615613c6c5768010000000000b172180260401c5b62800000821615613c86576801000000000058b90c0260401c5b62400000821615613ca057680100000000002c5c860260401c5b62200000821615613cba5768010000000000162e430260401c5b62100000821615613cd457680100000000000b17210260401c5b62080000821615613cee5768010000000000058b910260401c5b62040000821615613d08576801000000000002c5c80260401c5b62020000821615613d2257680100000000000162e40260401c5b62010000821615613d3b5761b172600160401b010260401c5b618000821615613d53576158b9600160401b010260401c5b614000821615613d6b57612c5d600160401b010260401c5b612000821615613d835761162e600160401b010260401c5b611000821615613d9b57610b17600160401b010260401c5b610800821615613db35761058c600160401b010260401c5b610400821615613dcb576102c6600160401b010260401c5b610200821615613de357610163600160401b010260401c5b610100821615613dfa5760b1600160401b010260401c5b6080821615613e10576059600160401b010260401c5b6040821615613e2657602c600160401b010260401c5b6020821615613e3c576016600160401b010260401c5b6010821615613e5257600b600160401b010260401c5b6008821615613e68576006600160401b010260401c5b6004821615613e7e576003600160401b010260401c5b6002821615613e94576001600160401b010260401c5b6001821615613eaa576001600160401b010260401c5b670de0b6b3a76400000260409190911c60bf031c90565b6040805160c081019091526000606082018181526080830182905260a083019190915281908152602001613f3360405180610100016040528060008152602001600081526020016000815260200160008152602001600081526020016000815260200160008152602001600081525090565b81526040805160208181019092526000815291015290565b905290565b604080516101608101909152600060608083018281526080840183905260a0840183905260c0840183905260e08401839052610100840192909252610120830181905261014083015281905b8152602001613f336040518060c001604052806000815260200160008152602001600081526020016000815260200160008152602001600081525090565b6040518060600160405280613fed613ec1565b815260200160008152602001613f4b614285565b604080516101208101909152600060608083018281526080840183905260a0840183905260c0840183905260e084019290925261010083015281526020810161409760408051610140810190915280600081526020016000815260200160008152602001600081526020016000815260200160008152602001600081526020016000815260200160008152602001600081525090565b815260408051606081018252600080825260208281018290529282015291015290565b6040805161018081019091526000610120820181815261014083018290526101608301919091528152602081016140ef614285565b8152602001600081526020016000815260200160008152602001600081526020016000815260200160008152602001600081525090565b60408051608081018252600080825260208201819052918101829052606081019190915290565b6040518060800160405280614160614126565b81526020016000815260200160008152602001613f4b6141bb565b604080516101208101909152600060608083018281526080840183905260a0840183905260c084019290925260e083018190526101008301528190613f9c565b6040518060c0016040528060001515815260200160008152602001600081526020016000815260200160008152602001600081525090565b6040518061012001604052806142386040518060c001604052806000815260200160008152602001600081526020016000815260200160008152602001600081525090565b81526020016140ef60405180610100016040528060008152602001600081526020016000815260200160008152602001600081526020016000815260200160008152602001600081525090565b6040518060e0016040528060008152602001600081526020016000815260200160008152602001600081526020016000151581526020016000151581525090565b6040518060e001604052806143136040518060c0016040528060006001600160a01b0316815260200160008152602001600081526020016000815260200160008152602001600081525090565b81526020016000815260200160008152602001600081526020016000815260200160008152602001600081525090565b6001600160a01b038116811461435857600080fd5b50565b634e487b7160e01b600052604160045260246000fd5b604051608081016001600160401b03811182821017156143935761439361435b565b60405290565b604051606081016001600160401b03811182821017156143935761439361435b565b60405161010081016001600160401b03811182821017156143935761439361435b565b60405160c081016001600160401b03811182821017156143935761439361435b565b60405161014081016001600160401b03811182821017156143935761439361435b565b604051601f8201601f191681016001600160401b038111828210171561444b5761444b61435b565b604052919050565b60006040828403121561446557600080fd5b604080519081016001600160401b03811182821017156144875761448761435b565b604052823581526020928301359281019290925250919050565b801515811461435857600080fd5b8035613764816144a1565b60008060008060008060008789036101a08112156144d757600080fd5b88356144e281614343565b97506080601f19820112156144f657600080fd5b506144ff614371565b602089013561450d81614343565b8152604089013561451d81614343565b6020820152606089013561453081614343565b6040820152608089013561454381614343565b606082015295506145578960a08a01614453565b94506145668960e08a01614453565b9350614576896101208a01614453565b9250610160880135915061458d61018089016144af565b905092959891949750929550565b600080604083850312156145ae57600080fd5b82356145b981614343565b946020939093013593505050565b6001600160a01b03169052565b805160018060a01b03808251168452806020830151166020850152806040830151166040850152505060208101518051606084015260208101516080840152604081015160a0840152606081015160c0840152608081015160e084015260a081015161010084015260c081015161012084015260e08101516101408401525060408101516146686101608401825115159052565b505050565b61018081016103a282846145d4565b600081518084526020808501945080840160005b838110156146b55781516001600160a01b031687529582019590820190600101614690565b509495945050505050565b602081526000825161010080602085015260018060a01b0382511661012085015260208201516146f46101408601826145c7565b5060408201516147086101608601826145c7565b50606082015161471c6101808601826145c7565b5060808201516147306101a08601826145c7565b5060a08201516147446101c08601826145c7565b5060c0820151816101e086015261475f61022086018261467c565b905060e0830151925061011f1985820301610200860152614780818461467c565b92505060208501516147ca6040860182805182526020810151602083015260408101516040830152606081015160608301526080810151608083015260a081015160a08301525050565b50604085015180511515858301525090949350505050565b600060c082840312156147f457600080fd5b6147fc614399565b90506148088383614453565b81526148178360408401614453565b60208201526148298360808401614453565b604082015292915050565b6000806000610100848603121561484a57600080fd5b833561485581614343565b92506020840135915061486b85604086016147e2565b90509250925092565b805182526020810151602083015260408101516040830152606081015160608301526080810151608083015260a0810151151560a083015260c0810151151560c08301525050565b6148c78282516145d4565b602081015161018083015260408101516146686101a0840182614874565b61028081016103a282846148bc565b6000806000806080858703121561490a57600080fd5b843561491581614343565b9350602085013561492581614343565b93969395505050506040820135916060013590565b634e487b7160e01b600052602160045260246000fd5b600881106149605761496061493a565b9052565b600381106149605761496061493a565b61497f828251614950565b60208101516149916020840182614964565b5060408101516040830152606081015160608301526080810151608083015260a081015160a083015260c081015160c083015260e081015160e08301526101008082015181840152506101208082015181840152505050565b80516101c080845281516001600160a01b0390811691850191909152602082015181166101e0850152604082015181166102008501526060820151811661022085015260808201511661024084015260a0015160c0610260840152600090614a5661028085018261467c565b90506020830151614a6a6020860182614974565b5060408381015180511515610160870152602081015115156101808701529081015115156101a0860152509392505050565b6000602080830181845280855180835260408601915060408160051b870101925083870160005b82811015614af157603f19888603018452614adf8583516149ea565b94509285019290850190600101614ac3565b5092979650505050505050565b60208152600061039f60208301846149ea565b6000806000806000806000610100888a031215614b2d57600080fd5b8735614b3881614343565b96506020880135614b4881614343565b955060408801359450614b5e8960608a01614453565b935060a0880135614b6e81614343565b925060c0880135614b7e81614343565b8092505060e0880135905092959891949750929550565b815180516001600160a01b03168252602080820151908301526040908101519082015261022081016020830151614bcf6060840182614874565b5060408301516101408301526060830151610160830152608083015161018083015260a08301516101a083015260c08301516101c083015260e08301516101e0830152610100909201516102009091015290565b60008060408385031215614c3657600080fd5b8235614c4181614343565b91506020830135614c5181614343565b809150509250929050565b80516001600160a01b03908116835260208083015182169084015260408083015182169084015260609182015116910152565b608081016103a28284614c5c565b6020808252825182820181905260009190848201906040850190845b81811015614ce057614ccc8385516145d4565b928401926101809290920191600101614cb9565b50909695505050505050565b6000806000806000806000610100888a031215614d0857600080fd5b8735614d1381614343565b96506020880135614d2381614343565b95506040880135614d3381614343565b94506060880135614d4381614343565b9350614d528960808a01614453565b925060c0880135614d62816144a1565b915060e0880135614d72816144a1565b8091505092959891949750929550565b60008060006101008486031215614d9857600080fd5b8335614da381614343565b9250614db285602086016147e2565b915060e0840135614dc281614343565b809150509250925092565b614dd8828251614c5c565b60208101516080830152604081015160a083015260608101518051151560c0840152602081015160e084015260408101516101008401526060810151610120840152608081015161014084015260a0810151610160840152505050565b61018081016103a28284614dcd565b60008060008060006101408688031215614e5d57600080fd5b8535614e6881614343565b94506020860135614e7881614343565b9350614e8787604088016147e2565b9250610100860135614e98816144a1565b9150610120860135614ea9816144a1565b809150509295509295909350565b60006001600160401b03821115614ed057614ed061435b565b5060051b60200190565b600082601f830112614eeb57600080fd5b81356020614f00614efb83614eb7565b614423565b82815260c09283028501820192828201919087851115614f1f57600080fd5b8387015b8581101561168157614f3589826147e2565b8452928401928101614f23565b600080600060608486031215614f5757600080fd5b8335614f6281614343565b92506020848101356001600160401b0380821115614f7f57600080fd5b818701915087601f830112614f9357600080fd5b8135614fa1614efb82614eb7565b81815260059190911b8301840190848101908a831115614fc057600080fd5b938501935b82851015614fde57843582529385019390850190614fc5565b965050506040870135925080831115614ff657600080fd5b505061500486828701614eda565b9150509250925092565b6020808252825182820181905260009190848201906040850190845b81811015614ce05761503d8385516148bc565b92840192610280929092019160010161502a565b6000806000806080858703121561506757600080fd5b843561507281614343565b935060208501356001600160401b0381111561508d57600080fd5b61509987828801614eda565b949794965050505060408301359260600135919050565b6020808252825182820181905260009190848201906040850190845b81811015614ce0576150df838551614dcd565b9284019261018092909201916001016150cc565b60008060008060008060e0878903121561510c57600080fd5b863561511781614343565b9550602087013561512781614343565b9450604087013561513781614343565b9350606087013561514781614343565b92506151568860808901614453565b915060c0870135615166816144a1565b809150509295509295509295565b60008060006060848603121561518957600080fd5b833561519481614343565b95602085013595506040909401359392505050565b6020808252825182820181905260009190848201906040850190845b81811015614ce0576151d8838551614c5c565b92840192608092909201916001016151c5565b602081526000825161010080602085015260018060a01b038083511661012086015280602084015116610140860152806040840151166101608601528060608401511661018086015250608082015160c06101a08601526152506101e086018261467c565b905060a0830151925061011f19858203016101c0860152614780818461467c565b6001600160a01b03929092168252602082015260400190565b805161376481614343565b6000602082840312156152a757600080fd5b604051602081016001600160401b03811182821017156152c9576152c961435b565b806040525080915082516152dc816144a1565b905292915050565b60008183036101808112156152f857600080fd5b615300614399565b606082121561530e57600080fd5b615316614399565b845161532181614343565b8152602085015161533181614343565b6020820152604085015161534481614343565b60408201528152610100605f19830181131561535f57600080fd5b6153676143bb565b9250606085015183526080850151602084015260a0850151604084015260c0850151606084015260e085015160808401528085015160a08401525061012084015160c083015261014084015160e08301528160208201526153cc856101608601615295565b6040820152949350505050565b600082601f8301126153ea57600080fd5b815160206153fa614efb83614eb7565b82815260059290921b8401810191818101908684111561541957600080fd5b8286015b8481101561543d57805161543081614343565b835291830191830161541d565b509695505050505050565b600060c0828403121561545a57600080fd5b6154626143de565b9050815181526020820151602082015260408201516040820152606082015160608201526080820151608082015260a082015160a082015292915050565b6000602082840312156154b257600080fd5b81516001600160401b03808211156154c957600080fd5b81840191506101008083870312156154e057600080fd5b6154e8614399565b8351838111156154f757600080fd5b840180880383131561550857600080fd5b6155106143bb565b925061551b8161528a565b83526155296020820161528a565b602084015261553a6040820161528a565b604084015261554b6060820161528a565b606084015261555c6080820161528a565b608084015261556d60a0820161528a565b60a084015260c08101518481111561558457600080fd5b615590898284016153d9565b60c08501525060e0810151848111156155a857600080fd5b6155b4898284016153d9565b60e085015250508181526155cb8760208601615448565b60208201526155dd8760e08601615295565b60408201529695505050505050565b6001600160a01b0392831681529116602082015260400190565b60006080828403121561561857600080fd5b604051608081016001600160401b038111828210171561563a5761563a61435b565b604052825161564881614343565b8152602083015161565881614343565b6020820152604083015161566b81614343565b6040820152606083015161567e81614343565b60608201529392505050565b634e487b7160e01b600052603260045260246000fd5b80516008811061376457600080fd5b80516003811061376457600080fd5b600061014082840312156156d157600080fd5b6156d9614400565b90506156e4826156a0565b81526156f2602083016156af565b602082015260408201516040820152606082015160608201526080820151608082015260a082015160a082015260c082015160c082015260e082015160e082015261010080830151818301525061012080830151818301525092915050565b60006060828403121561576357600080fd5b61576b614399565b90508151615778816144a1565b81526020820151615788816144a1565b60208201526040820151614829816144a1565b6000602082840312156157ad57600080fd5b81516001600160401b03808211156157c457600080fd5b908301906101c082860312156157d957600080fd5b6157e1614399565b8251828111156157f057600080fd5b830160c0818803121561580257600080fd5b61580a6143de565b815161581581614343565b8152602082015161582581614343565b6020820152604082015161583881614343565b60408201526158496060830161528a565b606082015261585a6080830161528a565b608082015260a08201518481111561587157600080fd5b61587d898285016153d9565b60a08301525082525061589386602085016156be565b60208201526158a6866101608501615751565b604082015295945050505050565b634e487b7160e01b600052601160045260246000fd5b6000600182016158dc576158dc6158b4565b5060010190565b6000602082840312156158f557600080fd5b81516001600160401b038082111561590c57600080fd5b90830190610100828603121561592157600080fd5b615929614399565b82518281111561593857600080fd5b830160c0818803121561594a57600080fd5b6159526143de565b61595b8261528a565b81526159696020830161528a565b602082015261597a6040830161528a565b604082015261598b6060830161528a565b60608201526080820151848111156159a257600080fd5b6159ae898285016153d9565b60808301525060a0820151848111156159c657600080fd5b6159d2898285016153d9565b60a0830152508252506159e88660208501615448565b60208201526158a68660e08501615295565b60006001600160ff1b0381841382841380821686840486111615615a2057615a206158b4565b600160ff1b6000871282811687830589121615615a3f57615a3f6158b4565b60008712925087820587128484161615615a5b57615a5b6158b4565b87850587128184161615615a7157615a716158b4565b505050929093029392505050565b634e487b7160e01b600052601260045260246000fd5b600082615aa457615aa4615a7f565b600160ff1b821460001984141615615abe57615abe6158b4565b500590565b818103818111156103a2576103a26158b4565b808201808211156103a2576103a26158b4565b600082615af857615af8615a7f565b500490565b6000816000190483118215151615615b1757615b176158b4565b500290565b6000600160ff1b8201615b3157615b316158b4565b5060000390565b60006020808385031215615b4b57600080fd5b82516001600160401b03811115615b6157600080fd5b8301601f81018513615b7257600080fd5b8051615b80614efb82614eb7565b81815260059190911b82018301908381019087831115615b9f57600080fd5b928401925b8284101561031157835182529284019290840190615ba4565b6020808252601d908201527f424f52524f57494e475f4645455f52454345495645525f464143544f52000000604082015260600190565b600060208284031215615c0657600080fd5b5051919050565b8181036000831280158383131683831282161715615c2d57615c2d6158b4565b5092915050565b600060208284031215615c4657600080fd5b81516001600160401b03811115615c5c57600080fd5b61071c848285016153d9565b8082018281126000831280158216821582161715615c8857615c886158b4565b505092915050565b6001600160a01b0391909116815260200190565b600060208284031215615cb657600080fd5b81516105ce81614343565b60008060408385031215615cd457600080fd5b50508051602090910151909290915056fea2646970667358221220d7a11636d7b42a0941efd3931ce9de9a46bc554b666ecb3cca1f2502c988af5f64736f6c63430008100033",
  "linkReferences": {
    "contracts/deposit/DepositStoreUtils.sol": {
      "DepositStoreUtils": [
        {
          "length": 20,
          "start": 992
        }
      ]
    },
    "contracts/market/MarketStoreUtils.sol": {
      "MarketStoreUtils": [
        {
          "length": 20,
          "start": 1243
        },
        {
          "length": 20,
          "start": 2182
        },
        {
          "length": 20,
          "start": 2651
        },
        {
          "length": 20,
          "start": 2871
        },
        {
          "length": 20,
          "start": 3660
        }
      ]
    },
    "contracts/order/OrderStoreUtils.sol": {
      "OrderStoreUtils": [
        {
          "length": 20,
          "start": 1675
        },
        {
          "length": 20,
          "start": 1884
        }
      ]
    },
    "contracts/position/PositionStoreUtils.sol": {
      "PositionStoreUtils": [
        {
          "length": 20,
          "start": 852
        },
        {
          "length": 20,
          "start": 1129
        },
        {
          "length": 20,
          "start": 2021
        },
        {
          "length": 20,
          "start": 2438
        }
      ]
    },
    "contracts/withdrawal/WithdrawalStoreUtils.sol": {
      "WithdrawalStoreUtils": [
        {
          "length": 20,
          "start": 3866
        }
      ]
    }
  },
  "deployedLinkReferences": {
    "contracts/deposit/DepositStoreUtils.sol": {
      "DepositStoreUtils": [
        {
          "length": 20,
          "start": 959
        }
      ]
    },
    "contracts/market/MarketStoreUtils.sol": {
      "MarketStoreUtils": [
        {
          "length": 20,
          "start": 1210
        },
        {
          "length": 20,
          "start": 2149
        },
        {
          "length": 20,
          "start": 2618
        },
        {
          "length": 20,
          "start": 2838
        },
        {
          "length": 20,
          "start": 3627
        }
      ]
    },
    "contracts/order/OrderStoreUtils.sol": {
      "OrderStoreUtils": [
        {
          "length": 20,
          "start": 1642
        },
        {
          "length": 20,
          "start": 1851
        }
      ]
    },
    "contracts/position/PositionStoreUtils.sol": {
      "PositionStoreUtils": [
        {
          "length": 20,
          "start": 819
        },
        {
          "length": 20,
          "start": 1096
        },
        {
          "length": 20,
          "start": 1988
        },
        {
          "length": 20,
          "start": 2405
        }
      ]
    },
    "contracts/withdrawal/WithdrawalStoreUtils.sol": {
      "WithdrawalStoreUtils": [
        {
          "length": 20,
          "start": 3833
        }
      ]
    }
  }
}