{
  "_format": "hh-sol-artifact-1",
  "contractName": "Reader",
  "sourceName": "contracts/reader/Reader.sol",
  "abi": [
    {
      "inputs": [
        {
          "internalType": "uint256",
          "name": "x",
          "type": "uint256"
        }
      ],
      "name": "PRBMathUD60x18__Exp2InputTooBig",
      "type": "error"
    },
    {
      "inputs": [
        {
          "internalType": "uint256",
          "name": "x",
          "type": "uint256"
        }
      ],
      "name": "PRBMathUD60x18__LogInputTooSmall",
      "type": "error"
    },
    {
      "inputs": [
        {
          "internalType": "uint256",
          "name": "prod1",
          "type": "uint256"
        }
      ],
      "name": "PRBMath__MulDivFixedPointOverflow",
      "type": "error"
    },
    {
      "inputs": [],
      "name": "UnableToGetBorrowingFactorEmptyPoolUsd",
      "type": "error"
    },
    {
      "inputs": [
        {
          "internalType": "address",
          "name": "token",
          "type": "address"
        },
        {
          "internalType": "address",
          "name": "market",
          "type": "address"
        }
      ],
      "name": "UnableToGetCachedTokenPrice",
      "type": "error"
    },
    {
      "inputs": [
        {
          "internalType": "uint256",
          "name": "positionBorrowingFactor",
          "type": "uint256"
        },
        {
          "internalType": "uint256",
          "name": "cumulativeBorrowingFactor",
          "type": "uint256"
        }
      ],
      "name": "UnexpectedBorrowingFactor",
      "type": "error"
    },
    {
      "inputs": [
        {
          "internalType": "contract DataStore",
          "name": "dataStore",
          "type": "address"
        },
        {
          "internalType": "address",
          "name": "account",
          "type": "address"
        },
        {
          "internalType": "uint256",
          "name": "start",
          "type": "uint256"
        },
        {
          "internalType": "uint256",
          "name": "end",
          "type": "uint256"
        }
      ],
      "name": "getAccountOrders",
      "outputs": [
        {
          "components": [
            {
              "components": [
                {
                  "internalType": "address",
                  "name": "account",
                  "type": "address"
                },
                {
                  "internalType": "address",
                  "name": "receiver",
                  "type": "address"
                },
                {
                  "internalType": "address",
                  "name": "callbackContract",
                  "type": "address"
                },
                {
                  "internalType": "address",
                  "name": "uiFeeReceiver",
                  "type": "address"
                },
                {
                  "internalType": "address",
                  "name": "market",
                  "type": "address"
                },
                {
                  "internalType": "address",
                  "name": "initialCollateralToken",
                  "type": "address"
                },
                {
                  "internalType": "address[]",
                  "name": "swapPath",
                  "type": "address[]"
                }
              ],
              "internalType": "struct Order.Addresses",
              "name": "addresses",
              "type": "tuple"
            },
            {
              "components": [
                {
                  "internalType": "enum Order.OrderType",
                  "name": "orderType",
                  "type": "uint8"
                },
                {
                  "internalType": "enum Order.DecreasePositionSwapType",
                  "name": "decreasePositionSwapType",
                  "type": "uint8"
                },
                {
                  "internalType": "uint256",
                  "name": "sizeDeltaUsd",
                  "type": "uint256"
                },
                {
                  "internalType": "uint256",
                  "name": "initialCollateralDeltaAmount",
                  "type": "uint256"
                },
                {
                  "internalType": "uint256",
                  "name": "triggerPrice",
                  "type": "uint256"
                },
                {
                  "internalType": "uint256",
                  "name": "acceptablePrice",
                  "type": "uint256"
                },
                {
                  "internalType": "uint256",
                  "name": "executionFee",
                  "type": "uint256"
                },
                {
                  "internalType": "uint256",
                  "name": "callbackGasLimit",
                  "type": "uint256"
                },
                {
                  "internalType": "uint256",
                  "name": "minOutputAmount",
                  "type": "uint256"
                },
                {
                  "internalType": "uint256",
                  "name": "updatedAtBlock",
                  "type": "uint256"
                }
              ],
              "internalType": "struct Order.Numbers",
              "name": "numbers",
              "type": "tuple"
            },
            {
              "components": [
                {
                  "internalType": "bool",
                  "name": "isLong",
                  "type": "bool"
                },
                {
                  "internalType": "bool",
                  "name": "shouldUnwrapNativeToken",
                  "type": "bool"
                },
                {
                  "internalType": "bool",
                  "name": "isFrozen",
                  "type": "bool"
                }
              ],
              "internalType": "struct Order.Flags",
              "name": "flags",
              "type": "tuple"
            }
          ],
          "internalType": "struct Order.Props[]",
          "name": "",
          "type": "tuple[]"
        }
      ],
      "stateMutability": "view",
      "type": "function"
    },
    {
      "inputs": [
        {
          "internalType": "contract DataStore",
          "name": "dataStore",
          "type": "address"
        },
        {
          "internalType": "contract IReferralStorage",
          "name": "referralStorage",
          "type": "address"
        },
        {
          "internalType": "bytes32[]",
          "name": "positionKeys",
          "type": "bytes32[]"
        },
        {
          "components": [
            {
              "components": [
                {
                  "internalType": "uint256",
                  "name": "min",
                  "type": "uint256"
                },
                {
                  "internalType": "uint256",
                  "name": "max",
                  "type": "uint256"
                }
              ],
              "internalType": "struct Price.Props",
              "name": "indexTokenPrice",
              "type": "tuple"
            },
            {
              "components": [
                {
                  "internalType": "uint256",
                  "name": "min",
                  "type": "uint256"
                },
                {
                  "internalType": "uint256",
                  "name": "max",
                  "type": "uint256"
                }
              ],
              "internalType": "struct Price.Props",
              "name": "longTokenPrice",
              "type": "tuple"
            },
            {
              "components": [
                {
                  "internalType": "uint256",
                  "name": "min",
                  "type": "uint256"
                },
                {
                  "internalType": "uint256",
                  "name": "max",
                  "type": "uint256"
                }
              ],
              "internalType": "struct Price.Props",
              "name": "shortTokenPrice",
              "type": "tuple"
            }
          ],
          "internalType": "struct MarketUtils.MarketPrices[]",
          "name": "prices",
          "type": "tuple[]"
        },
        {
          "internalType": "address",
          "name": "uiFeeReceiver",
          "type": "address"
        }
      ],
      "name": "getAccountPositionInfoList",
      "outputs": [
        {
          "components": [
            {
              "components": [
                {
                  "components": [
                    {
                      "internalType": "address",
                      "name": "account",
                      "type": "address"
                    },
                    {
                      "internalType": "address",
                      "name": "market",
                      "type": "address"
                    },
                    {
                      "internalType": "address",
                      "name": "collateralToken",
                      "type": "address"
                    }
                  ],
                  "internalType": "struct Position.Addresses",
                  "name": "addresses",
                  "type": "tuple"
                },
                {
                  "components": [
                    {
                      "internalType": "uint256",
                      "name": "sizeInUsd",
                      "type": "uint256"
                    },
                    {
                      "internalType": "uint256",
                      "name": "sizeInTokens",
                      "type": "uint256"
                    },
                    {
                      "internalType": "uint256",
                      "name": "collateralAmount",
                      "type": "uint256"
                    },
                    {
                      "internalType": "uint256",
                      "name": "borrowingFactor",
                      "type": "uint256"
                    },
                    {
                      "internalType": "int256",
                      "name": "longTokenFundingAmountPerSize",
                      "type": "int256"
                    },
                    {
                      "internalType": "int256",
                      "name": "shortTokenFundingAmountPerSize",
                      "type": "int256"
                    },
                    {
                      "internalType": "uint256",
                      "name": "increasedAtBlock",
                      "type": "uint256"
                    },
                    {
                      "internalType": "uint256",
                      "name": "decreasedAtBlock",
                      "type": "uint256"
                    }
                  ],
                  "internalType": "struct Position.Numbers",
                  "name": "numbers",
                  "type": "tuple"
                },
                {
                  "components": [
                    {
                      "internalType": "bool",
                      "name": "isLong",
                      "type": "bool"
                    }
                  ],
                  "internalType": "struct Position.Flags",
                  "name": "flags",
                  "type": "tuple"
                }
              ],
              "internalType": "struct Position.Props",
              "name": "position",
              "type": "tuple"
            },
            {
              "components": [
                {
                  "components": [
                    {
                      "internalType": "bytes32",
                      "name": "referralCode",
                      "type": "bytes32"
                    },
                    {
                      "internalType": "address",
                      "name": "affiliate",
                      "type": "address"
                    },
                    {
                      "internalType": "address",
                      "name": "trader",
                      "type": "address"
                    },
                    {
                      "internalType": "uint256",
                      "name": "totalRebateFactor",
                      "type": "uint256"
                    },
                    {
                      "internalType": "uint256",
                      "name": "traderDiscountFactor",
                      "type": "uint256"
                    },
                    {
                      "internalType": "uint256",
                      "name": "totalRebateAmount",
                      "type": "uint256"
                    },
                    {
                      "internalType": "uint256",
                      "name": "traderDiscountAmount",
                      "type": "uint256"
                    },
                    {
                      "internalType": "uint256",
                      "name": "affiliateRewardAmount",
                      "type": "uint256"
                    }
                  ],
                  "internalType": "struct PositionPricingUtils.PositionReferralFees",
                  "name": "referral",
                  "type": "tuple"
                },
                {
                  "components": [
                    {
                      "internalType": "uint256",
                      "name": "fundingFeeAmount",
                      "type": "uint256"
                    },
                    {
                      "internalType": "uint256",
                      "name": "claimableLongTokenAmount",
                      "type": "uint256"
                    },
                    {
                      "internalType": "uint256",
                      "name": "claimableShortTokenAmount",
                      "type": "uint256"
                    },
                    {
                      "internalType": "int256",
                      "name": "latestLongTokenFundingAmountPerSize",
                      "type": "int256"
                    },
                    {
                      "internalType": "int256",
                      "name": "latestShortTokenFundingAmountPerSize",
                      "type": "int256"
                    }
                  ],
                  "internalType": "struct PositionPricingUtils.PositionFundingFees",
                  "name": "funding",
                  "type": "tuple"
                },
                {
                  "components": [
                    {
                      "internalType": "uint256",
                      "name": "borrowingFeeUsd",
                      "type": "uint256"
                    },
                    {
                      "internalType": "uint256",
                      "name": "borrowingFeeAmount",
                      "type": "uint256"
                    },
                    {
                      "internalType": "uint256",
                      "name": "borrowingFeeReceiverFactor",
                      "type": "uint256"
                    },
                    {
                      "internalType": "uint256",
                      "name": "borrowingFeeAmountForFeeReceiver",
                      "type": "uint256"
                    }
                  ],
                  "internalType": "struct PositionPricingUtils.PositionBorrowingFees",
                  "name": "borrowing",
                  "type": "tuple"
                },
                {
                  "components": [
                    {
                      "internalType": "address",
                      "name": "uiFeeReceiver",
                      "type": "address"
                    },
                    {
                      "internalType": "uint256",
                      "name": "uiFeeReceiverFactor",
                      "type": "uint256"
                    },
                    {
                      "internalType": "uint256",
                      "name": "uiFeeAmount",
                      "type": "uint256"
                    }
                  ],
                  "internalType": "struct PositionPricingUtils.PositionUiFees",
                  "name": "ui",
                  "type": "tuple"
                },
                {
                  "components": [
                    {
                      "internalType": "uint256",
                      "name": "min",
                      "type": "uint256"
                    },
                    {
                      "internalType": "uint256",
                      "name": "max",
                      "type": "uint256"
                    }
                  ],
                  "internalType": "struct Price.Props",
                  "name": "collateralTokenPrice",
                  "type": "tuple"
                },
                {
                  "internalType": "uint256",
                  "name": "positionFeeFactor",
                  "type": "uint256"
                },
                {
                  "internalType": "uint256",
                  "name": "protocolFeeAmount",
                  "type": "uint256"
                },
                {
                  "internalType": "uint256",
                  "name": "positionFeeReceiverFactor",
                  "type": "uint256"
                },
                {
                  "internalType": "uint256",
                  "name": "feeReceiverAmount",
                  "type": "uint256"
                },
                {
                  "internalType": "uint256",
                  "name": "feeAmountForPool",
                  "type": "uint256"
                },
                {
                  "internalType": "uint256",
                  "name": "positionFeeAmountForPool",
                  "type": "uint256"
                },
                {
                  "internalType": "uint256",
                  "name": "positionFeeAmount",
                  "type": "uint256"
                },
                {
                  "internalType": "uint256",
                  "name": "totalNetCostAmount",
                  "type": "uint256"
                },
                {
                  "internalType": "uint256",
                  "name": "collateralCostAmount",
                  "type": "uint256"
                }
              ],
              "internalType": "struct PositionPricingUtils.PositionFees",
              "name": "fees",
              "type": "tuple"
            }
          ],
          "internalType": "struct Reader.PositionInfo[]",
          "name": "",
          "type": "tuple[]"
        }
      ],
      "stateMutability": "view",
      "type": "function"
    },
    {
      "inputs": [
        {
          "internalType": "contract DataStore",
          "name": "dataStore",
          "type": "address"
        },
        {
          "internalType": "address",
          "name": "account",
          "type": "address"
        },
        {
          "internalType": "uint256",
          "name": "start",
          "type": "uint256"
        },
        {
          "internalType": "uint256",
          "name": "end",
          "type": "uint256"
        }
      ],
      "name": "getAccountPositions",
      "outputs": [
        {
          "components": [
            {
              "components": [
                {
                  "internalType": "address",
                  "name": "account",
                  "type": "address"
                },
                {
                  "internalType": "address",
                  "name": "market",
                  "type": "address"
                },
                {
                  "internalType": "address",
                  "name": "collateralToken",
                  "type": "address"
                }
              ],
              "internalType": "struct Position.Addresses",
              "name": "addresses",
              "type": "tuple"
            },
            {
              "components": [
                {
                  "internalType": "uint256",
                  "name": "sizeInUsd",
                  "type": "uint256"
                },
                {
                  "internalType": "uint256",
                  "name": "sizeInTokens",
                  "type": "uint256"
                },
                {
                  "internalType": "uint256",
                  "name": "collateralAmount",
                  "type": "uint256"
                },
                {
                  "internalType": "uint256",
                  "name": "borrowingFactor",
                  "type": "uint256"
                },
                {
                  "internalType": "int256",
                  "name": "longTokenFundingAmountPerSize",
                  "type": "int256"
                },
                {
                  "internalType": "int256",
                  "name": "shortTokenFundingAmountPerSize",
                  "type": "int256"
                },
                {
                  "internalType": "uint256",
                  "name": "increasedAtBlock",
                  "type": "uint256"
                },
                {
                  "internalType": "uint256",
                  "name": "decreasedAtBlock",
                  "type": "uint256"
                }
              ],
              "internalType": "struct Position.Numbers",
              "name": "numbers",
              "type": "tuple"
            },
            {
              "components": [
                {
                  "internalType": "bool",
                  "name": "isLong",
                  "type": "bool"
                }
              ],
              "internalType": "struct Position.Flags",
              "name": "flags",
              "type": "tuple"
            }
          ],
          "internalType": "struct Position.Props[]",
          "name": "",
          "type": "tuple[]"
        }
      ],
      "stateMutability": "view",
      "type": "function"
    },
    {
      "inputs": [
        {
          "internalType": "contract DataStore",
          "name": "dataStore",
          "type": "address"
        },
        {
          "internalType": "bytes32",
          "name": "key",
          "type": "bytes32"
        }
      ],
      "name": "getDeposit",
      "outputs": [
        {
          "components": [
            {
              "components": [
                {
                  "internalType": "address",
                  "name": "account",
                  "type": "address"
                },
                {
                  "internalType": "address",
                  "name": "receiver",
                  "type": "address"
                },
                {
                  "internalType": "address",
                  "name": "callbackContract",
                  "type": "address"
                },
                {
                  "internalType": "address",
                  "name": "uiFeeReceiver",
                  "type": "address"
                },
                {
                  "internalType": "address",
                  "name": "market",
                  "type": "address"
                },
                {
                  "internalType": "address",
                  "name": "initialLongToken",
                  "type": "address"
                },
                {
                  "internalType": "address",
                  "name": "initialShortToken",
                  "type": "address"
                },
                {
                  "internalType": "address[]",
                  "name": "longTokenSwapPath",
                  "type": "address[]"
                },
                {
                  "internalType": "address[]",
                  "name": "shortTokenSwapPath",
                  "type": "address[]"
                }
              ],
              "internalType": "struct Deposit.Addresses",
              "name": "addresses",
              "type": "tuple"
            },
            {
              "components": [
                {
                  "internalType": "uint256",
                  "name": "initialLongTokenAmount",
                  "type": "uint256"
                },
                {
                  "internalType": "uint256",
                  "name": "initialShortTokenAmount",
                  "type": "uint256"
                },
                {
                  "internalType": "uint256",
                  "name": "minMarketTokens",
                  "type": "uint256"
                },
                {
                  "internalType": "uint256",
                  "name": "updatedAtBlock",
                  "type": "uint256"
                },
                {
                  "internalType": "uint256",
                  "name": "executionFee",
                  "type": "uint256"
                },
                {
                  "internalType": "uint256",
                  "name": "callbackGasLimit",
                  "type": "uint256"
                }
              ],
              "internalType": "struct Deposit.Numbers",
              "name": "numbers",
              "type": "tuple"
            },
            {
              "components": [
                {
                  "internalType": "bool",
                  "name": "shouldUnwrapNativeToken",
                  "type": "bool"
                }
              ],
              "internalType": "struct Deposit.Flags",
              "name": "flags",
              "type": "tuple"
            }
          ],
          "internalType": "struct Deposit.Props",
          "name": "",
          "type": "tuple"
        }
      ],
      "stateMutability": "view",
      "type": "function"
    },
    {
      "inputs": [
        {
          "internalType": "contract DataStore",
          "name": "dataStore",
          "type": "address"
        },
        {
          "internalType": "address",
          "name": "key",
          "type": "address"
        }
      ],
      "name": "getMarket",
      "outputs": [
        {
          "components": [
            {
              "internalType": "address",
              "name": "marketToken",
              "type": "address"
            },
            {
              "internalType": "address",
              "name": "indexToken",
              "type": "address"
            },
            {
              "internalType": "address",
              "name": "longToken",
              "type": "address"
            },
            {
              "internalType": "address",
              "name": "shortToken",
              "type": "address"
            }
          ],
          "internalType": "struct Market.Props",
          "name": "",
          "type": "tuple"
        }
      ],
      "stateMutability": "view",
      "type": "function"
    },
    {
      "inputs": [
        {
          "internalType": "contract DataStore",
          "name": "dataStore",
          "type": "address"
        },
        {
          "internalType": "bytes32",
          "name": "salt",
          "type": "bytes32"
        }
      ],
      "name": "getMarketBySalt",
      "outputs": [
        {
          "components": [
            {
              "internalType": "address",
              "name": "marketToken",
              "type": "address"
            },
            {
              "internalType": "address",
              "name": "indexToken",
              "type": "address"
            },
            {
              "internalType": "address",
              "name": "longToken",
              "type": "address"
            },
            {
              "internalType": "address",
              "name": "shortToken",
              "type": "address"
            }
          ],
          "internalType": "struct Market.Props",
          "name": "",
          "type": "tuple"
        }
      ],
      "stateMutability": "view",
      "type": "function"
    },
    {
      "inputs": [
        {
          "internalType": "contract DataStore",
          "name": "dataStore",
          "type": "address"
        },
        {
          "components": [
            {
              "components": [
                {
                  "internalType": "uint256",
                  "name": "min",
                  "type": "uint256"
                },
                {
                  "internalType": "uint256",
                  "name": "max",
                  "type": "uint256"
                }
              ],
              "internalType": "struct Price.Props",
              "name": "indexTokenPrice",
              "type": "tuple"
            },
            {
              "components": [
                {
                  "internalType": "uint256",
                  "name": "min",
                  "type": "uint256"
                },
                {
                  "internalType": "uint256",
                  "name": "max",
                  "type": "uint256"
                }
              ],
              "internalType": "struct Price.Props",
              "name": "longTokenPrice",
              "type": "tuple"
            },
            {
              "components": [
                {
                  "internalType": "uint256",
                  "name": "min",
                  "type": "uint256"
                },
                {
                  "internalType": "uint256",
                  "name": "max",
                  "type": "uint256"
                }
              ],
              "internalType": "struct Price.Props",
              "name": "shortTokenPrice",
              "type": "tuple"
            }
          ],
          "internalType": "struct MarketUtils.MarketPrices",
          "name": "prices",
          "type": "tuple"
        },
        {
          "internalType": "address",
          "name": "marketKey",
          "type": "address"
        }
      ],
      "name": "getMarketInfo",
      "outputs": [
        {
          "components": [
            {
              "components": [
                {
                  "internalType": "address",
                  "name": "marketToken",
                  "type": "address"
                },
                {
                  "internalType": "address",
                  "name": "indexToken",
                  "type": "address"
                },
                {
                  "internalType": "address",
                  "name": "longToken",
                  "type": "address"
                },
                {
                  "internalType": "address",
                  "name": "shortToken",
                  "type": "address"
                }
              ],
              "internalType": "struct Market.Props",
              "name": "market",
              "type": "tuple"
            },
            {
              "internalType": "uint256",
              "name": "borrowingFactorPerSecondForLongs",
              "type": "uint256"
            },
            {
              "internalType": "uint256",
              "name": "borrowingFactorPerSecondForShorts",
              "type": "uint256"
            },
            {
              "components": [
                {
                  "internalType": "bool",
                  "name": "longsPayShorts",
                  "type": "bool"
                },
                {
                  "internalType": "uint256",
                  "name": "fundingFactorPerSecond",
                  "type": "uint256"
                },
                {
                  "internalType": "int256",
                  "name": "fundingAmountPerSize_LongCollateral_LongPosition",
                  "type": "int256"
                },
                {
                  "internalType": "int256",
                  "name": "fundingAmountPerSize_LongCollateral_ShortPosition",
                  "type": "int256"
                },
                {
                  "internalType": "int256",
                  "name": "fundingAmountPerSize_ShortCollateral_LongPosition",
                  "type": "int256"
                },
                {
                  "internalType": "int256",
                  "name": "fundingAmountPerSize_ShortCollateral_ShortPosition",
                  "type": "int256"
                }
              ],
              "internalType": "struct MarketUtils.GetNextFundingAmountPerSizeResult",
              "name": "funding",
              "type": "tuple"
            }
          ],
          "internalType": "struct Reader.MarketInfo",
          "name": "",
          "type": "tuple"
        }
      ],
      "stateMutability": "view",
      "type": "function"
    },
    {
      "inputs": [
        {
          "internalType": "contract DataStore",
          "name": "dataStore",
          "type": "address"
        },
        {
          "components": [
            {
              "components": [
                {
                  "internalType": "uint256",
                  "name": "min",
                  "type": "uint256"
                },
                {
                  "internalType": "uint256",
                  "name": "max",
                  "type": "uint256"
                }
              ],
              "internalType": "struct Price.Props",
              "name": "indexTokenPrice",
              "type": "tuple"
            },
            {
              "components": [
                {
                  "internalType": "uint256",
                  "name": "min",
                  "type": "uint256"
                },
                {
                  "internalType": "uint256",
                  "name": "max",
                  "type": "uint256"
                }
              ],
              "internalType": "struct Price.Props",
              "name": "longTokenPrice",
              "type": "tuple"
            },
            {
              "components": [
                {
                  "internalType": "uint256",
                  "name": "min",
                  "type": "uint256"
                },
                {
                  "internalType": "uint256",
                  "name": "max",
                  "type": "uint256"
                }
              ],
              "internalType": "struct Price.Props",
              "name": "shortTokenPrice",
              "type": "tuple"
            }
          ],
          "internalType": "struct MarketUtils.MarketPrices[]",
          "name": "marketPricesList",
          "type": "tuple[]"
        },
        {
          "internalType": "uint256",
          "name": "start",
          "type": "uint256"
        },
        {
          "internalType": "uint256",
          "name": "end",
          "type": "uint256"
        }
      ],
      "name": "getMarketInfoList",
      "outputs": [
        {
          "components": [
            {
              "components": [
                {
                  "internalType": "address",
                  "name": "marketToken",
                  "type": "address"
                },
                {
                  "internalType": "address",
                  "name": "indexToken",
                  "type": "address"
                },
                {
                  "internalType": "address",
                  "name": "longToken",
                  "type": "address"
                },
                {
                  "internalType": "address",
                  "name": "shortToken",
                  "type": "address"
                }
              ],
              "internalType": "struct Market.Props",
              "name": "market",
              "type": "tuple"
            },
            {
              "internalType": "uint256",
              "name": "borrowingFactorPerSecondForLongs",
              "type": "uint256"
            },
            {
              "internalType": "uint256",
              "name": "borrowingFactorPerSecondForShorts",
              "type": "uint256"
            },
            {
              "components": [
                {
                  "internalType": "bool",
                  "name": "longsPayShorts",
                  "type": "bool"
                },
                {
                  "internalType": "uint256",
                  "name": "fundingFactorPerSecond",
                  "type": "uint256"
                },
                {
                  "internalType": "int256",
                  "name": "fundingAmountPerSize_LongCollateral_LongPosition",
                  "type": "int256"
                },
                {
                  "internalType": "int256",
                  "name": "fundingAmountPerSize_LongCollateral_ShortPosition",
                  "type": "int256"
                },
                {
                  "internalType": "int256",
                  "name": "fundingAmountPerSize_ShortCollateral_LongPosition",
                  "type": "int256"
                },
                {
                  "internalType": "int256",
                  "name": "fundingAmountPerSize_ShortCollateral_ShortPosition",
                  "type": "int256"
                }
              ],
              "internalType": "struct MarketUtils.GetNextFundingAmountPerSizeResult",
              "name": "funding",
              "type": "tuple"
            }
          ],
          "internalType": "struct Reader.MarketInfo[]",
          "name": "",
          "type": "tuple[]"
        }
      ],
      "stateMutability": "view",
      "type": "function"
    },
    {
      "inputs": [
        {
          "internalType": "contract DataStore",
          "name": "dataStore",
          "type": "address"
        },
        {
          "components": [
            {
              "internalType": "address",
              "name": "marketToken",
              "type": "address"
            },
            {
              "internalType": "address",
              "name": "indexToken",
              "type": "address"
            },
            {
              "internalType": "address",
              "name": "longToken",
              "type": "address"
            },
            {
              "internalType": "address",
              "name": "shortToken",
              "type": "address"
            }
          ],
          "internalType": "struct Market.Props",
          "name": "market",
          "type": "tuple"
        },
        {
          "components": [
            {
              "internalType": "uint256",
              "name": "min",
              "type": "uint256"
            },
            {
              "internalType": "uint256",
              "name": "max",
              "type": "uint256"
            }
          ],
          "internalType": "struct Price.Props",
          "name": "indexTokenPrice",
          "type": "tuple"
        },
        {
          "components": [
            {
              "internalType": "uint256",
              "name": "min",
              "type": "uint256"
            },
            {
              "internalType": "uint256",
              "name": "max",
              "type": "uint256"
            }
          ],
          "internalType": "struct Price.Props",
          "name": "longTokenPrice",
          "type": "tuple"
        },
        {
          "components": [
            {
              "internalType": "uint256",
              "name": "min",
              "type": "uint256"
            },
            {
              "internalType": "uint256",
              "name": "max",
              "type": "uint256"
            }
          ],
          "internalType": "struct Price.Props",
          "name": "shortTokenPrice",
          "type": "tuple"
        },
        {
          "internalType": "bytes32",
          "name": "pnlFactorType",
          "type": "bytes32"
        },
        {
          "internalType": "bool",
          "name": "maximize",
          "type": "bool"
        }
      ],
      "name": "getMarketTokenPrice",
      "outputs": [
        {
          "internalType": "int256",
          "name": "",
          "type": "int256"
        },
        {
          "components": [
            {
              "internalType": "int256",
              "name": "poolValue",
              "type": "int256"
            },
            {
              "internalType": "int256",
              "name": "longPnl",
              "type": "int256"
            },
            {
              "internalType": "int256",
              "name": "shortPnl",
              "type": "int256"
            },
            {
              "internalType": "int256",
              "name": "netPnl",
              "type": "int256"
            },
            {
              "internalType": "uint256",
              "name": "longTokenAmount",
              "type": "uint256"
            },
            {
              "internalType": "uint256",
              "name": "shortTokenAmount",
              "type": "uint256"
            },
            {
              "internalType": "uint256",
              "name": "longTokenUsd",
              "type": "uint256"
            },
            {
              "internalType": "uint256",
              "name": "shortTokenUsd",
              "type": "uint256"
            },
            {
              "internalType": "uint256",
              "name": "totalBorrowingFees",
              "type": "uint256"
            },
            {
              "internalType": "uint256",
              "name": "borrowingFeePoolFactor",
              "type": "uint256"
            },
            {
              "internalType": "uint256",
              "name": "impactPoolAmount",
              "type": "uint256"
            }
          ],
          "internalType": "struct MarketPoolValueInfo.Props",
          "name": "",
          "type": "tuple"
        }
      ],
      "stateMutability": "view",
      "type": "function"
    },
    {
      "inputs": [
        {
          "internalType": "contract DataStore",
          "name": "dataStore",
          "type": "address"
        },
        {
          "internalType": "uint256",
          "name": "start",
          "type": "uint256"
        },
        {
          "internalType": "uint256",
          "name": "end",
          "type": "uint256"
        }
      ],
      "name": "getMarkets",
      "outputs": [
        {
          "components": [
            {
              "internalType": "address",
              "name": "marketToken",
              "type": "address"
            },
            {
              "internalType": "address",
              "name": "indexToken",
              "type": "address"
            },
            {
              "internalType": "address",
              "name": "longToken",
              "type": "address"
            },
            {
              "internalType": "address",
              "name": "shortToken",
              "type": "address"
            }
          ],
          "internalType": "struct Market.Props[]",
          "name": "",
          "type": "tuple[]"
        }
      ],
      "stateMutability": "view",
      "type": "function"
    },
    {
      "inputs": [
        {
          "internalType": "contract DataStore",
          "name": "dataStore",
          "type": "address"
        },
        {
          "components": [
            {
              "internalType": "address",
              "name": "marketToken",
              "type": "address"
            },
            {
              "internalType": "address",
              "name": "indexToken",
              "type": "address"
            },
            {
              "internalType": "address",
              "name": "longToken",
              "type": "address"
            },
            {
              "internalType": "address",
              "name": "shortToken",
              "type": "address"
            }
          ],
          "internalType": "struct Market.Props",
          "name": "market",
          "type": "tuple"
        },
        {
          "components": [
            {
              "internalType": "uint256",
              "name": "min",
              "type": "uint256"
            },
            {
              "internalType": "uint256",
              "name": "max",
              "type": "uint256"
            }
          ],
          "internalType": "struct Price.Props",
          "name": "indexTokenPrice",
          "type": "tuple"
        },
        {
          "internalType": "bool",
          "name": "maximize",
          "type": "bool"
        }
      ],
      "name": "getNetPnl",
      "outputs": [
        {
          "internalType": "int256",
          "name": "",
          "type": "int256"
        }
      ],
      "stateMutability": "view",
      "type": "function"
    },
    {
      "inputs": [
        {
          "internalType": "contract DataStore",
          "name": "dataStore",
          "type": "address"
        },
        {
          "components": [
            {
              "internalType": "address",
              "name": "marketToken",
              "type": "address"
            },
            {
              "internalType": "address",
              "name": "indexToken",
              "type": "address"
            },
            {
              "internalType": "address",
              "name": "longToken",
              "type": "address"
            },
            {
              "internalType": "address",
              "name": "shortToken",
              "type": "address"
            }
          ],
          "internalType": "struct Market.Props",
          "name": "market",
          "type": "tuple"
        },
        {
          "components": [
            {
              "internalType": "uint256",
              "name": "min",
              "type": "uint256"
            },
            {
              "internalType": "uint256",
              "name": "max",
              "type": "uint256"
            }
          ],
          "internalType": "struct Price.Props",
          "name": "indexTokenPrice",
          "type": "tuple"
        },
        {
          "internalType": "bool",
          "name": "isLong",
          "type": "bool"
        },
        {
          "internalType": "bool",
          "name": "maximize",
          "type": "bool"
        }
      ],
      "name": "getOpenInterestWithPnl",
      "outputs": [
        {
          "internalType": "int256",
          "name": "",
          "type": "int256"
        }
      ],
      "stateMutability": "view",
      "type": "function"
    },
    {
      "inputs": [
        {
          "internalType": "contract DataStore",
          "name": "dataStore",
          "type": "address"
        },
        {
          "internalType": "bytes32",
          "name": "key",
          "type": "bytes32"
        }
      ],
      "name": "getOrder",
      "outputs": [
        {
          "components": [
            {
              "components": [
                {
                  "internalType": "address",
                  "name": "account",
                  "type": "address"
                },
                {
                  "internalType": "address",
                  "name": "receiver",
                  "type": "address"
                },
                {
                  "internalType": "address",
                  "name": "callbackContract",
                  "type": "address"
                },
                {
                  "internalType": "address",
                  "name": "uiFeeReceiver",
                  "type": "address"
                },
                {
                  "internalType": "address",
                  "name": "market",
                  "type": "address"
                },
                {
                  "internalType": "address",
                  "name": "initialCollateralToken",
                  "type": "address"
                },
                {
                  "internalType": "address[]",
                  "name": "swapPath",
                  "type": "address[]"
                }
              ],
              "internalType": "struct Order.Addresses",
              "name": "addresses",
              "type": "tuple"
            },
            {
              "components": [
                {
                  "internalType": "enum Order.OrderType",
                  "name": "orderType",
                  "type": "uint8"
                },
                {
                  "internalType": "enum Order.DecreasePositionSwapType",
                  "name": "decreasePositionSwapType",
                  "type": "uint8"
                },
                {
                  "internalType": "uint256",
                  "name": "sizeDeltaUsd",
                  "type": "uint256"
                },
                {
                  "internalType": "uint256",
                  "name": "initialCollateralDeltaAmount",
                  "type": "uint256"
                },
                {
                  "internalType": "uint256",
                  "name": "triggerPrice",
                  "type": "uint256"
                },
                {
                  "internalType": "uint256",
                  "name": "acceptablePrice",
                  "type": "uint256"
                },
                {
                  "internalType": "uint256",
                  "name": "executionFee",
                  "type": "uint256"
                },
                {
                  "internalType": "uint256",
                  "name": "callbackGasLimit",
                  "type": "uint256"
                },
                {
                  "internalType": "uint256",
                  "name": "minOutputAmount",
                  "type": "uint256"
                },
                {
                  "internalType": "uint256",
                  "name": "updatedAtBlock",
                  "type": "uint256"
                }
              ],
              "internalType": "struct Order.Numbers",
              "name": "numbers",
              "type": "tuple"
            },
            {
              "components": [
                {
                  "internalType": "bool",
                  "name": "isLong",
                  "type": "bool"
                },
                {
                  "internalType": "bool",
                  "name": "shouldUnwrapNativeToken",
                  "type": "bool"
                },
                {
                  "internalType": "bool",
                  "name": "isFrozen",
                  "type": "bool"
                }
              ],
              "internalType": "struct Order.Flags",
              "name": "flags",
              "type": "tuple"
            }
          ],
          "internalType": "struct Order.Props",
          "name": "",
          "type": "tuple"
        }
      ],
      "stateMutability": "view",
      "type": "function"
    },
    {
      "inputs": [
        {
          "internalType": "contract DataStore",
          "name": "dataStore",
          "type": "address"
        },
        {
          "components": [
            {
              "internalType": "address",
              "name": "marketToken",
              "type": "address"
            },
            {
              "internalType": "address",
              "name": "indexToken",
              "type": "address"
            },
            {
              "internalType": "address",
              "name": "longToken",
              "type": "address"
            },
            {
              "internalType": "address",
              "name": "shortToken",
              "type": "address"
            }
          ],
          "internalType": "struct Market.Props",
          "name": "market",
          "type": "tuple"
        },
        {
          "components": [
            {
              "internalType": "uint256",
              "name": "min",
              "type": "uint256"
            },
            {
              "internalType": "uint256",
              "name": "max",
              "type": "uint256"
            }
          ],
          "internalType": "struct Price.Props",
          "name": "indexTokenPrice",
          "type": "tuple"
        },
        {
          "internalType": "bool",
          "name": "isLong",
          "type": "bool"
        },
        {
          "internalType": "bool",
          "name": "maximize",
          "type": "bool"
        }
      ],
      "name": "getPnl",
      "outputs": [
        {
          "internalType": "int256",
          "name": "",
          "type": "int256"
        }
      ],
      "stateMutability": "view",
      "type": "function"
    },
    {
      "inputs": [
        {
          "internalType": "contract DataStore",
          "name": "dataStore",
          "type": "address"
        },
        {
          "internalType": "address",
          "name": "marketAddress",
          "type": "address"
        },
        {
          "components": [
            {
              "components": [
                {
                  "internalType": "uint256",
                  "name": "min",
                  "type": "uint256"
                },
                {
                  "internalType": "uint256",
                  "name": "max",
                  "type": "uint256"
                }
              ],
              "internalType": "struct Price.Props",
              "name": "indexTokenPrice",
              "type": "tuple"
            },
            {
              "components": [
                {
                  "internalType": "uint256",
                  "name": "min",
                  "type": "uint256"
                },
                {
                  "internalType": "uint256",
                  "name": "max",
                  "type": "uint256"
                }
              ],
              "internalType": "struct Price.Props",
              "name": "longTokenPrice",
              "type": "tuple"
            },
            {
              "components": [
                {
                  "internalType": "uint256",
                  "name": "min",
                  "type": "uint256"
                },
                {
                  "internalType": "uint256",
                  "name": "max",
                  "type": "uint256"
                }
              ],
              "internalType": "struct Price.Props",
              "name": "shortTokenPrice",
              "type": "tuple"
            }
          ],
          "internalType": "struct MarketUtils.MarketPrices",
          "name": "prices",
          "type": "tuple"
        },
        {
          "internalType": "bool",
          "name": "isLong",
          "type": "bool"
        },
        {
          "internalType": "bool",
          "name": "maximize",
          "type": "bool"
        }
      ],
      "name": "getPnlToPoolFactor",
      "outputs": [
        {
          "internalType": "int256",
          "name": "",
          "type": "int256"
        }
      ],
      "stateMutability": "view",
      "type": "function"
    },
    {
      "inputs": [
        {
          "internalType": "contract DataStore",
          "name": "dataStore",
          "type": "address"
        },
        {
          "internalType": "bytes32",
          "name": "key",
          "type": "bytes32"
        }
      ],
      "name": "getPosition",
      "outputs": [
        {
          "components": [
            {
              "components": [
                {
                  "internalType": "address",
                  "name": "account",
                  "type": "address"
                },
                {
                  "internalType": "address",
                  "name": "market",
                  "type": "address"
                },
                {
                  "internalType": "address",
                  "name": "collateralToken",
                  "type": "address"
                }
              ],
              "internalType": "struct Position.Addresses",
              "name": "addresses",
              "type": "tuple"
            },
            {
              "components": [
                {
                  "internalType": "uint256",
                  "name": "sizeInUsd",
                  "type": "uint256"
                },
                {
                  "internalType": "uint256",
                  "name": "sizeInTokens",
                  "type": "uint256"
                },
                {
                  "internalType": "uint256",
                  "name": "collateralAmount",
                  "type": "uint256"
                },
                {
                  "internalType": "uint256",
                  "name": "borrowingFactor",
                  "type": "uint256"
                },
                {
                  "internalType": "int256",
                  "name": "longTokenFundingAmountPerSize",
                  "type": "int256"
                },
                {
                  "internalType": "int256",
                  "name": "shortTokenFundingAmountPerSize",
                  "type": "int256"
                },
                {
                  "internalType": "uint256",
                  "name": "increasedAtBlock",
                  "type": "uint256"
                },
                {
                  "internalType": "uint256",
                  "name": "decreasedAtBlock",
                  "type": "uint256"
                }
              ],
              "internalType": "struct Position.Numbers",
              "name": "numbers",
              "type": "tuple"
            },
            {
              "components": [
                {
                  "internalType": "bool",
                  "name": "isLong",
                  "type": "bool"
                }
              ],
              "internalType": "struct Position.Flags",
              "name": "flags",
              "type": "tuple"
            }
          ],
          "internalType": "struct Position.Props",
          "name": "",
          "type": "tuple"
        }
      ],
      "stateMutability": "view",
      "type": "function"
    },
    {
      "inputs": [
        {
          "internalType": "contract DataStore",
          "name": "dataStore",
          "type": "address"
        },
        {
          "internalType": "contract IReferralStorage",
          "name": "referralStorage",
          "type": "address"
        },
        {
          "internalType": "bytes32",
          "name": "positionKey",
          "type": "bytes32"
        },
        {
          "components": [
            {
              "components": [
                {
                  "internalType": "uint256",
                  "name": "min",
                  "type": "uint256"
                },
                {
                  "internalType": "uint256",
                  "name": "max",
                  "type": "uint256"
                }
              ],
              "internalType": "struct Price.Props",
              "name": "indexTokenPrice",
              "type": "tuple"
            },
            {
              "components": [
                {
                  "internalType": "uint256",
                  "name": "min",
                  "type": "uint256"
                },
                {
                  "internalType": "uint256",
                  "name": "max",
                  "type": "uint256"
                }
              ],
              "internalType": "struct Price.Props",
              "name": "longTokenPrice",
              "type": "tuple"
            },
            {
              "components": [
                {
                  "internalType": "uint256",
                  "name": "min",
                  "type": "uint256"
                },
                {
                  "internalType": "uint256",
                  "name": "max",
                  "type": "uint256"
                }
              ],
              "internalType": "struct Price.Props",
              "name": "shortTokenPrice",
              "type": "tuple"
            }
          ],
          "internalType": "struct MarketUtils.MarketPrices",
          "name": "prices",
          "type": "tuple"
        },
        {
          "internalType": "uint256",
          "name": "sizeDeltaUsd",
          "type": "uint256"
        },
        {
          "internalType": "address",
          "name": "uiFeeReceiver",
          "type": "address"
        },
        {
          "internalType": "bool",
          "name": "usePositionSizeAsSizeDeltaUsd",
          "type": "bool"
        }
      ],
      "name": "getPositionInfo",
      "outputs": [
        {
          "components": [
            {
              "components": [
                {
                  "components": [
                    {
                      "internalType": "address",
                      "name": "account",
                      "type": "address"
                    },
                    {
                      "internalType": "address",
                      "name": "market",
                      "type": "address"
                    },
                    {
                      "internalType": "address",
                      "name": "collateralToken",
                      "type": "address"
                    }
                  ],
                  "internalType": "struct Position.Addresses",
                  "name": "addresses",
                  "type": "tuple"
                },
                {
                  "components": [
                    {
                      "internalType": "uint256",
                      "name": "sizeInUsd",
                      "type": "uint256"
                    },
                    {
                      "internalType": "uint256",
                      "name": "sizeInTokens",
                      "type": "uint256"
                    },
                    {
                      "internalType": "uint256",
                      "name": "collateralAmount",
                      "type": "uint256"
                    },
                    {
                      "internalType": "uint256",
                      "name": "borrowingFactor",
                      "type": "uint256"
                    },
                    {
                      "internalType": "int256",
                      "name": "longTokenFundingAmountPerSize",
                      "type": "int256"
                    },
                    {
                      "internalType": "int256",
                      "name": "shortTokenFundingAmountPerSize",
                      "type": "int256"
                    },
                    {
                      "internalType": "uint256",
                      "name": "increasedAtBlock",
                      "type": "uint256"
                    },
                    {
                      "internalType": "uint256",
                      "name": "decreasedAtBlock",
                      "type": "uint256"
                    }
                  ],
                  "internalType": "struct Position.Numbers",
                  "name": "numbers",
                  "type": "tuple"
                },
                {
                  "components": [
                    {
                      "internalType": "bool",
                      "name": "isLong",
                      "type": "bool"
                    }
                  ],
                  "internalType": "struct Position.Flags",
                  "name": "flags",
                  "type": "tuple"
                }
              ],
              "internalType": "struct Position.Props",
              "name": "position",
              "type": "tuple"
            },
            {
              "components": [
                {
                  "components": [
                    {
                      "internalType": "bytes32",
                      "name": "referralCode",
                      "type": "bytes32"
                    },
                    {
                      "internalType": "address",
                      "name": "affiliate",
                      "type": "address"
                    },
                    {
                      "internalType": "address",
                      "name": "trader",
                      "type": "address"
                    },
                    {
                      "internalType": "uint256",
                      "name": "totalRebateFactor",
                      "type": "uint256"
                    },
                    {
                      "internalType": "uint256",
                      "name": "traderDiscountFactor",
                      "type": "uint256"
                    },
                    {
                      "internalType": "uint256",
                      "name": "totalRebateAmount",
                      "type": "uint256"
                    },
                    {
                      "internalType": "uint256",
                      "name": "traderDiscountAmount",
                      "type": "uint256"
                    },
                    {
                      "internalType": "uint256",
                      "name": "affiliateRewardAmount",
                      "type": "uint256"
                    }
                  ],
                  "internalType": "struct PositionPricingUtils.PositionReferralFees",
                  "name": "referral",
                  "type": "tuple"
                },
                {
                  "components": [
                    {
                      "internalType": "uint256",
                      "name": "fundingFeeAmount",
                      "type": "uint256"
                    },
                    {
                      "internalType": "uint256",
                      "name": "claimableLongTokenAmount",
                      "type": "uint256"
                    },
                    {
                      "internalType": "uint256",
                      "name": "claimableShortTokenAmount",
                      "type": "uint256"
                    },
                    {
                      "internalType": "int256",
                      "name": "latestLongTokenFundingAmountPerSize",
                      "type": "int256"
                    },
                    {
                      "internalType": "int256",
                      "name": "latestShortTokenFundingAmountPerSize",
                      "type": "int256"
                    }
                  ],
                  "internalType": "struct PositionPricingUtils.PositionFundingFees",
                  "name": "funding",
                  "type": "tuple"
                },
                {
                  "components": [
                    {
                      "internalType": "uint256",
                      "name": "borrowingFeeUsd",
                      "type": "uint256"
                    },
                    {
                      "internalType": "uint256",
                      "name": "borrowingFeeAmount",
                      "type": "uint256"
                    },
                    {
                      "internalType": "uint256",
                      "name": "borrowingFeeReceiverFactor",
                      "type": "uint256"
                    },
                    {
                      "internalType": "uint256",
                      "name": "borrowingFeeAmountForFeeReceiver",
                      "type": "uint256"
                    }
                  ],
                  "internalType": "struct PositionPricingUtils.PositionBorrowingFees",
                  "name": "borrowing",
                  "type": "tuple"
                },
                {
                  "components": [
                    {
                      "internalType": "address",
                      "name": "uiFeeReceiver",
                      "type": "address"
                    },
                    {
                      "internalType": "uint256",
                      "name": "uiFeeReceiverFactor",
                      "type": "uint256"
                    },
                    {
                      "internalType": "uint256",
                      "name": "uiFeeAmount",
                      "type": "uint256"
                    }
                  ],
                  "internalType": "struct PositionPricingUtils.PositionUiFees",
                  "name": "ui",
                  "type": "tuple"
                },
                {
                  "components": [
                    {
                      "internalType": "uint256",
                      "name": "min",
                      "type": "uint256"
                    },
                    {
                      "internalType": "uint256",
                      "name": "max",
                      "type": "uint256"
                    }
                  ],
                  "internalType": "struct Price.Props",
                  "name": "collateralTokenPrice",
                  "type": "tuple"
                },
                {
                  "internalType": "uint256",
                  "name": "positionFeeFactor",
                  "type": "uint256"
                },
                {
                  "internalType": "uint256",
                  "name": "protocolFeeAmount",
                  "type": "uint256"
                },
                {
                  "internalType": "uint256",
                  "name": "positionFeeReceiverFactor",
                  "type": "uint256"
                },
                {
                  "internalType": "uint256",
                  "name": "feeReceiverAmount",
                  "type": "uint256"
                },
                {
                  "internalType": "uint256",
                  "name": "feeAmountForPool",
                  "type": "uint256"
                },
                {
                  "internalType": "uint256",
                  "name": "positionFeeAmountForPool",
                  "type": "uint256"
                },
                {
                  "internalType": "uint256",
                  "name": "positionFeeAmount",
                  "type": "uint256"
                },
                {
                  "internalType": "uint256",
                  "name": "totalNetCostAmount",
                  "type": "uint256"
                },
                {
                  "internalType": "uint256",
                  "name": "collateralCostAmount",
                  "type": "uint256"
                }
              ],
              "internalType": "struct PositionPricingUtils.PositionFees",
              "name": "fees",
              "type": "tuple"
            }
          ],
          "internalType": "struct Reader.PositionInfo",
          "name": "",
          "type": "tuple"
        }
      ],
      "stateMutability": "view",
      "type": "function"
    },
    {
      "inputs": [
        {
          "internalType": "contract DataStore",
          "name": "dataStore",
          "type": "address"
        },
        {
          "internalType": "bytes32",
          "name": "key",
          "type": "bytes32"
        }
      ],
      "name": "getWithdrawal",
      "outputs": [
        {
          "components": [
            {
              "components": [
                {
                  "internalType": "address",
                  "name": "account",
                  "type": "address"
                },
                {
                  "internalType": "address",
                  "name": "receiver",
                  "type": "address"
                },
                {
                  "internalType": "address",
                  "name": "callbackContract",
                  "type": "address"
                },
                {
                  "internalType": "address",
                  "name": "uiFeeReceiver",
                  "type": "address"
                },
                {
                  "internalType": "address",
                  "name": "market",
                  "type": "address"
                },
                {
                  "internalType": "address[]",
                  "name": "longTokenSwapPath",
                  "type": "address[]"
                },
                {
                  "internalType": "address[]",
                  "name": "shortTokenSwapPath",
                  "type": "address[]"
                }
              ],
              "internalType": "struct Withdrawal.Addresses",
              "name": "addresses",
              "type": "tuple"
            },
            {
              "components": [
                {
                  "internalType": "uint256",
                  "name": "marketTokenAmount",
                  "type": "uint256"
                },
                {
                  "internalType": "uint256",
                  "name": "minLongTokenAmount",
                  "type": "uint256"
                },
                {
                  "internalType": "uint256",
                  "name": "minShortTokenAmount",
                  "type": "uint256"
                },
                {
                  "internalType": "uint256",
                  "name": "updatedAtBlock",
                  "type": "uint256"
                },
                {
                  "internalType": "uint256",
                  "name": "executionFee",
                  "type": "uint256"
                },
                {
                  "internalType": "uint256",
                  "name": "callbackGasLimit",
                  "type": "uint256"
                }
              ],
              "internalType": "struct Withdrawal.Numbers",
              "name": "numbers",
              "type": "tuple"
            },
            {
              "components": [
                {
                  "internalType": "bool",
                  "name": "shouldUnwrapNativeToken",
                  "type": "bool"
                }
              ],
              "internalType": "struct Withdrawal.Flags",
              "name": "flags",
              "type": "tuple"
            }
          ],
          "internalType": "struct Withdrawal.Props",
          "name": "",
          "type": "tuple"
        }
      ],
      "stateMutability": "view",
      "type": "function"
    }
  ],
  "bytecode": "0x608060405234801561001057600080fd5b50615b8580620000216000396000f3fe608060405234801561001057600080fd5b50600436106100e65760003560e01c80630815bce1146100eb578063095ce6c5146101145780630fa8f516146101bd5780631485d297146101dd57806324c029e0146101fd57806342a6f8d31461021e57806349651b6a1461023e578063714af34b1461025e57806377cfb1621461027e578063847bb4691461029e578063971de27d146102be578063a0140938146102d1578063a4f0d550146102e4578063bc7b5bba146102f7578063ce3264bf14610317578063ceeea3bf14610337578063ece9e0c814610357578063fd50649d14610377575b600080fd5b6100fe6100f9366004613f79565b61038a565b60405161010b919061423a565b60405180910390f35b6101276101223660046142d1565b6107f6565b60405161010b92919060006101808201905083825282516020830152602083015160408301526040830151606083015260608301516080830152608083015160a083015260a083015160c083015260c083015160e083015260e083015161010081818501528085015191505061012081818501528085015191505061014081818501528085015161016085015250509392505050565b6101d06101cb36600461434e565b6108ea565b60405161010b919061437a565b6101f06101eb36600461434e565b610976565b60405161010b9190614407565b61021061020b36600461450b565b6109fc565b60405190815260200161010b565b61023161022c36600461457c565b610a17565b60405161010b9190614749565b61025161024c36600461434e565b610b66565b60405161010b91906147ab565b61027161026c3660046147be565b610bec565b60405161010b919061482a565b61029161028c36600461457c565b610c6e565b60405161010b9190614838565b6102b16102ac366004614887565b610dad565b60405161010b919061493a565b6102106102cc366004614949565b610f00565b6102106102df36600461450b565b610f97565b6102716102f236600461434e565b610fa6565b61030a610305366004614a39565b610fe7565b60405161010b9190614a98565b61032a610325366004614adb565b6110d4565b60405161010b9190614b10565b61034a61034536600461434e565b611221565b60405161010b9190614b52565b61036a610365366004614c1b565b6112a7565b60405161010b9190614d0b565b610210610385366004614d4e565b611390565b6103926138ec565b61039a613911565b60405163fdfc26f360e01b815273__$3d31b232fb363902662fbc281b11ab3357$__9063fdfc26f3906103d3908c908b90600401614da9565b61018060405180830381865af41580156103f1573d6000803e3d6000fd5b505050506040513d601f19601f820116820180604052508101906104159190614e1c565b808252516020015160405163a8d8fff560e01b815273__$ff439aa65a80c9eec648f15db20b189505$__9163a8d8fff591610454918d91600401614f11565b608060405180830381865af4158015610471573d6000803e3d6000fd5b505050506040513d601f19601f820116820180604052508101906104959190614f2b565b60208201819052815151604001516104ad918861139e565b604082015282156104c2578051602001515194505b60006040518061010001604052808b6001600160a01b031681526020018a6001600160a01b0316815260200183600001518152602001836040015181526020018360200151604001516001600160a01b031681526020018360200151606001516001600160a01b03168152602001878152602001866001600160a01b03168152509050600061055082611441565b905073__$7d62b333171909e88f9935bee8a07b01ad$__639a33387a8c856000015186602001518c6040518563ffffffff1660e01b81526004016105979493929190614fc7565b602060405180830381865af41580156105b4573d6000803e3d6000fd5b505050506040513d601f19601f820116820180604052508101906105d89190615001565b83606001818152505073__$7d62b333171909e88f9935bee8a07b01ad$__63f41d75578c856040015186606001516040518463ffffffff1660e01b81526004016106249392919061501a565b608060405180830381865af4158015610641573d6000803e3d6000fd5b505050506040513d601f19601f820116820180604052508101906106659190615045565b8160400181905250600073__$7d62b333171909e88f9935bee8a07b01ad$__630dc7f3eb8d86602001518c6040518463ffffffff1660e01b81526004016106ae9392919061508b565b60c060405180830381865af41580156106cb573d6000803e3d6000fd5b505050506040513d601f19601f820116820180604052508101906106ef91906150b6565b845160400151519091501561071957604081015160808086019190915281015160a085015261072e565b6060810151608085015260a080820151908501525b73__$7d62b333171909e88f9935bee8a07b01ad$__639a48d9f0856000015186602001516040015187602001516060015188608001518960a001516040518663ffffffff1660e01b8152600401610789959493929190615138565b60a060405180830381865af41580156107a6573d6000803e3d6000fd5b505050506040513d601f19601f820116820180604052508101906107ca919061517a565b602083810191909152604080518082019091529451855284019190915250909998505050505050505050565b600061085560405180610160016040528060008152602001600081526020016000815260200160008152602001600081526020016000815260200160008152602001600081526020016000815260200160008152602001600081525090565b604051637d494dc360e01b815273__$e53db83827f4e07ebc418caf7145b8c2d5$__90637d494dc390610898908c908c908c908c908c908c908c906004016151e9565b61018060405180830381865af41580156108b6573d6000803e3d6000fd5b505050506040513d601f19601f820116820180604052508101906108da919061524b565b9150915097509795505050505050565b6108f2613959565b60405163fdfc26f360e01b815273__$3d31b232fb363902662fbc281b11ab3357$__9063fdfc26f39061092b9086908690600401614da9565b61018060405180830381865af4158015610949573d6000803e3d6000fd5b505050506040513d601f19601f8201168201806040525081019061096d9190614e1c565b90505b92915050565b61097e6139e3565b60405163fdfc26f360e01b815273__$b63e253a228f0e32f671cc49c7fc32477c$__9063fdfc26f3906109b79086908690600401614da9565b600060405180830381865af41580156109d4573d6000803e3d6000fd5b505050506040513d6000823e601f3d908101601f1916820160405261096d91908101906153dc565b6000610a0b86868686866115f6565b90505b95945050505050565b60606000610a2786868686611687565b9050600081516001600160401b03811115610a4457610a44613d82565b604051908082528060200260200182016040528015610a7d57816020015b610a6a613a75565b815260200190600190039081610a625790505b50905060005b8251811015610b59576000838281518110610aa057610aa0615536565b6020026020010151905073__$9dcb75ef0bb6c4288f2ccffe7dc492c4eb$__63fdfc26f38a836040518363ffffffff1660e01b8152600401610ae3929190614da9565b600060405180830381865af4158015610b00573d6000803e3d6000fd5b505050506040513d6000823e601f3d908101601f19168201604052610b289190810190615647565b838381518110610b3a57610b3a615536565b6020026020010181905250508080610b5190615773565b915050610a83565b509150505b949350505050565b610b6e613a75565b60405163fdfc26f360e01b815273__$9dcb75ef0bb6c4288f2ccffe7dc492c4eb$__9063fdfc26f390610ba79086908690600401614da9565b600060405180830381865af4158015610bc4573d6000803e3d6000fd5b505050506040513d6000823e601f3d908101601f1916820160405261096d9190810190615647565b610bf4613b36565b60405163a8d8fff560e01b815273__$ff439aa65a80c9eec648f15db20b189505$__9063a8d8fff590610c2d9086908690600401614f11565b608060405180830381865af4158015610c4a573d6000803e3d6000fd5b505050506040513d601f19601f8201168201806040525081019061096d9190614f2b565b60606000610c7e86868686611713565b9050600081516001600160401b03811115610c9b57610c9b613d82565b604051908082528060200260200182016040528015610cd457816020015b610cc1613959565b815260200190600190039081610cb95790505b50905060005b8251811015610b59576000838281518110610cf757610cf7615536565b6020026020010151905073__$3d31b232fb363902662fbc281b11ab3357$__63fdfc26f38a836040518363ffffffff1660e01b8152600401610d3a929190614da9565b61018060405180830381865af4158015610d58573d6000803e3d6000fd5b505050506040513d601f19601f82011682018060405250810190610d7c9190614e1c565b838381518110610d8e57610d8e615536565b6020026020010181905250508080610da590615773565b915050610cda565b610db5613b5d565b60405163a8d8fff560e01b815260009073__$ff439aa65a80c9eec648f15db20b189505$__9063a8d8fff590610df19088908790600401614f11565b608060405180830381865af4158015610e0e573d6000803e3d6000fd5b505050506040513d601f19601f82011682018060405250810190610e329190614f2b565b90506000610e43868387600161172d565b90506000610e54878488600061172d565b9050600073__$7d62b333171909e88f9935bee8a07b01ad$__630dc7f3eb89868a6040518463ffffffff1660e01b8152600401610e939392919061508b565b60c060405180830381865af4158015610eb0573d6000803e3d6000fd5b505050506040513d601f19601f82011682018060405250810190610ed491906150b6565b6040805160808101825295865260208601949094529284019190915250606082015290505b9392505050565b60008073__$ff439aa65a80c9eec648f15db20b189505$__63a8d8fff588886040518363ffffffff1660e01b8152600401610f3c929190614f11565b608060405180830381865af4158015610f59573d6000803e3d6000fd5b505050506040513d601f19601f82011682018060405250810190610f7d9190614f2b565b9050610f8c87828787876117ce565b979650505050505050565b6000610a0b868686868661181c565b610fae613b36565b6040516329bc01e160e11b815273__$ff439aa65a80c9eec648f15db20b189505$__9063537803c290610c2d9086908690600401614da9565b60606000610ff6868585611847565b9050600081516001600160401b0381111561101357611013613d82565b60405190808252806020026020018201604052801561104c57816020015b611039613b5d565b8152602001906001900390816110315790505b50905060005b8251811015610b5957600087828151811061106f5761106f615536565b60200260200101519050600084838151811061108d5761108d615536565b602002602001015190506110a28a8383610dad565b8484815181106110b4576110b4615536565b6020026020010181905250505080806110cc90615773565b915050611052565b606060006110e3858585611847565b9050600081516001600160401b0381111561110057611100613d82565b60405190808252806020026020018201604052801561113957816020015b611126613b36565b81526020019060019003908161111e5790505b50905060005b825181101561121757600083828151811061115c5761115c615536565b60200260200101519050600073__$ff439aa65a80c9eec648f15db20b189505$__63a8d8fff58a846040518363ffffffff1660e01b81526004016111a1929190614f11565b608060405180830381865af41580156111be573d6000803e3d6000fd5b505050506040513d601f19601f820116820180604052508101906111e29190614f2b565b9050808484815181106111f7576111f7615536565b60200260200101819052505050808061120f90615773565b91505061113f565b5095945050505050565b611229613bbe565b60405163fdfc26f360e01b815273__$3dc24d71d6ebafc0c4ce8ac2f69cd1548a$__9063fdfc26f3906112629086908690600401614da9565b600060405180830381865af415801561127f573d6000803e3d6000fd5b505050506040513d6000823e601f3d908101601f1916820160405261096d919081019061578c565b6060600084516001600160401b038111156112c4576112c4613d82565b6040519080825280602002602001820160405280156112fd57816020015b6112ea6138ec565b8152602001906001900390816112e25790505b50905060005b855181101561138557600086828151811061132057611320615536565b6020026020010151905061135489898389868151811061134257611342615536565b602002602001015160008a600161038a565b83838151811061136657611366615536565b602002602001018190525050808061137d90615773565b915050611303565b509695505050505050565b6000610a0e8585858561190c565b6113a6613c06565b82604001516001600160a01b0316846001600160a01b0316036113ce57506020810151610ef9565b82606001516001600160a01b0316846001600160a01b0316036113f657506040810151610ef9565b82602001516001600160a01b0316846001600160a01b03160361141b57508051610ef9565b8251604051635f2394d160e11b8152611438918691600401614f11565b60405180910390fd5b611449613c20565b600061147e83600001518460200151856060015161146a8760400151515190565b604088015151602001518860c0015161193b565b9050600061149484600001518560400151611ba0565b90506114a98460000151856060015183611c35565b6040830181905260608101516020909101516101408401516114cb91906158b4565b6114d591906158c7565b610120830152604082015160600151610100830180516114f69083906158b4565b90525083516040850151516020015160009161151f9160808801516040808a0151015151611d44565b9050600061154e866000015161153b8860400151516020015190565b60a08901516040808b0151015151611d44565b9050611569866040015187608001518860a001518585611dbf565b60208501528551606087015160c088015160e089015161158b93929190611ee7565b60608501819052845160c001516040918201519186015160209081015190870151516101608801519293926115c091906158b4565b6115ca91906158b4565b6115d491906158b4565b6115de91906158c7565b61018085018190526101a08501525091949350505050565b60008061160c611607888887611f4f565b611fa2565b9050600061161b888887612010565b9050811580611628575080155b1561163857600092505050610a0e565b6000611645878787612057565b9050600061165661160783856158da565b905060008761166e5761166982866158f9565b611678565b61167885836158f9565b9b9a5050505050505050505050565b6060846001600160a01b031663f069052a6116a186612090565b6040516001600160e01b031960e084901b16815260048101919091526024810186905260448101859052606401600060405180830381865afa1580156116eb573d6000803e3d6000fd5b505050506040513d6000823e601f3d908101601f19168201604052610a0e9190810190615920565b6060846001600160a01b031663f069052a6116a186612112565b60008061173f8686600001518561214d565b9050600061174f878787876121c7565b90508060000361176457600092505050610b5e565b600061177288888888612203565b90508060000361179557604051630d5f5aef60e31b815260040160405180910390fd5b60006117a689896000015188612251565b905060006117b4848361226c565b905060006117c282856122cb565b905061167881876122d9565b6000806117dd87878787612203565b9050806000036117f1576000915050610a0e565b60006118048888886000015188886115f6565b905061181081836122f2565b98975050505050505050565b60008061182a878786611f4f565b9050600061183b88888888886115f6565b90506118108282612331565b6060836001600160a01b031663e7e4148e604051602001611887906020808252600b908201526a13505492d15517d31254d560aa1b604082015260600190565b60408051601f198184030181529082905280516020909101206001600160e01b031960e084901b16825260048201526024810186905260448101859052606401600060405180830381865afa1580156118e4573d6000803e3d6000fd5b505050506040513d6000823e601f3d908101601f19168201604052610b5e91908101906159a5565b60008061191d8686866001876115f6565b9050600061192f8787876000886115f6565b9050610f8c81836159d9565b611943613c20565b61194b613c20565b6080810186905280516001600160a01b03861660409091015261196e8786612347565b8451608081019190915260608101919091526001600160a01b03918216602082015291909152881663bd02d0f56119a4866125b9565b6040518263ffffffff1660e01b81526004016119c291815260200190565b602060405180830381865afa1580156119df573d6000803e3d6000fd5b505050506040513d601f19601f82011682018060405250810190611a039190615001565b60a08201819052865190611a189085906122d9565b611a229190615a17565b6101608201819052815160600151611a3a91906122d9565b815160a090810191909152815190810151608090910151611a5b91906122d9565b815160c09081019190915281519081015160a090910151611a7c91906158c7565b815160e00152805160a00151610160820151611a9891906158c7565b60c08201526040516001600160a01b0389169063bd02d0f590611aee906020016020808252601c908201527b2827a9a4aa24a7a72fa322a2afa922a1a2a4ab22a92fa320a1aa27a960211b604082015260600190565b604051602081830303815290604052805190602001206040518263ffffffff1660e01b8152600401611b2291815260200190565b602060405180830381865afa158015611b3f573d6000803e3d6000fd5b505050506040513d601f19601f82011682018060405250810190611b639190615001565b60e0820181905260c0820151611b78916122d9565b610100820181905260c0820151611b8f91906158c7565b610140820152979650505050505050565b600080611bbe84611bb385516020015190565b6040860151516125f2565b905080611bd084602001516060015190565b1115611c0357602083015160600151604051634cd96ac160e11b8152600481019190915260248101829052604401611438565b6000611c1484602001516060015190565b611c1e90836158c7565b9050610a0e611c2f85602001515190565b826122d9565b611c3d613ce9565b611c45613ce9565b8281528351611c549084615a17565b816020018181525050846001600160a01b031663bd02d0f5604051602001611cad906020808252601d908201527f424f52524f57494e475f4645455f52454345495645525f464143544f52000000604082015260600190565b604051602081830303815290604052805190602001206040518263ffffffff1660e01b8152600401611ce191815260200190565b602060405180830381865afa158015611cfe573d6000803e3d6000fd5b505050506040513d601f19601f82011682018060405250810190611d229190615001565b604082018190526020820151611d37916122d9565b6060820152949350505050565b6000846001600160a01b031663dc97d962611d6086868661260d565b6040518263ffffffff1660e01b8152600401611d7e91815260200190565b602060405180830381865afa158015611d9b573d6000803e3d6000fd5b505050506040513d601f19601f82011682018060405250810190610a0e9190615001565b611dc7613d11565b611dcf613d11565b60608101849052608081018390526000611dfd85611df28a602001516080015190565b60208b0151516126a9565b90506000611e238360800151611e188b6020015160a0015190565b60208c0151516126a9565b90506000821215611e4557611e3f611e3a83615a2b565b612741565b60208401525b6000811215611e6057611e5a611e3a82615a2b565b60408401525b876001600160a01b0316611e768a516040015190565b6001600160a01b0316148015611e8c5750600082135b15611e9d57611e9a82612741565b83525b866001600160a01b0316611eb38a516040015190565b6001600160a01b0316148015611ec95750600081135b15611eda57611ed781612741565b83525b5090979650505050505050565b611eef613d40565b611ef7613d40565b6001600160a01b038316611f0c579050610b5e565b6001600160a01b0383168152611f228684612793565b60208201819052855190611f379086906122d9565b611f419190615a17565b604082015295945050505050565b600080611f64846040015185606001516128d9565b90506000611f7d86866000015187604001518786612908565b90506000611f9687876000015188606001518887612908565b9050610f8c81836158b4565b60006001600160ff1b0382111561200c5760405162461bcd60e51b815260206004820152602860248201527f53616665436173743a2076616c756520646f65736e27742066697420696e2061604482015267371034b73a191a9b60c11b6064820152608401611438565b5090565b600080612025846040015185606001516128d9565b9050600061203e8686600001518760400151878661298e565b90506000611f968787600001518860600151888761298e565b60008215612078578161206b578351612071565b83602001515b9050610ef9565b81612087578360200151610b5e565b50509051919050565b60006040516020016120c8906020808252601290820152711050d0d3d5539517d3d491115497d31254d560721b604082015260600190565b60408051601f198184030181528282528051602091820120908301526001600160a01b03841690820152606001604051602081830303815290604052805190602001209050919050565b60006040516020016120c8906020808252601590820152741050d0d3d5539517d413d4d2551253d397d31254d5605a1b604082015260600190565b6000836001600160a01b031663bd02d0f561216885856129ab565b6040518263ffffffff1660e01b815260040161218691815260200190565b602060405180830381865afa1580156121a3573d6000803e3d6000fd5b505050506040513d601f19601f82011682018060405250810190610b5e9190615001565b60008082156121f85760006121dd878786612010565b8551602001519091506121f090826158da565b915050610a0e565b610a0b868685611f4f565b6000808261221557846060015161221b565b84604001515b9050600061222a878784612a35565b905060008461223e57604086015151612245565b6020860151515b905061181081836158da565b6000836001600160a01b031663bd02d0f56121688585612ad3565b600068327cb2734119d3b7a9601e1b83101561228a57506000610970565b68327cb2734119d3b7a9601e1b82036122a4575081610970565b60006122c06122b285612b12565b6122bb85612b12565b612b23565b9050610b5e81612b65565b600061096d83836000612b76565b600061096d838368327cb2734119d3b7a9601e1b612c77565b60008061230761230185612d44565b846122cb565b9050600084136123285761231a81611fa2565b61232390615a2b565b610b5e565b610b5e81611fa2565b60008161233d84611fa2565b61096d91906159d9565b6000806000806000866001600160a01b03166385725b58876040518263ffffffff1660e01b815260040161237b9190615a47565b602060405180830381865afa158015612398573d6000803e3d6000fd5b505050506040513d601f19601f820116820180604052508101906123bc9190615001565b9050600080808315612591576040516306459e2360e51b8152600481018590526001600160a01b038b169063c8b3c46090602401602060405180830381865afa15801561240d573d6000803e3d6000fd5b505050506040513d601f19601f820116820180604052508101906124319190615a5b565b925060008a6001600160a01b0316631582a018856040518263ffffffff1660e01b81526004016124619190615a47565b602060405180830381865afa15801561247e573d6000803e3d6000fd5b505050506040513d601f19601f820116820180604052508101906124a29190615001565b60405163039af9eb60e01b8152600481018290529091506001600160a01b038c169063039af9eb906024016040805180830381865afa1580156124e9573d6000803e3d6000fd5b505050506040513d601f19601f8201168201806040525081019061250d9190615a78565b60405163071a6a7960e41b815291945092506000906001600160a01b038d16906371a6a79090612541908890600401615a47565b602060405180830381865afa15801561255e573d6000803e3d6000fd5b505050506040513d601f19601f820116820180604052508101906125829190615001565b9050801561258e578092505b50505b838361259c84612d57565b6125a584612d57565b929d919c509a509098509650505050505050565b60006040516020016120c8906020808252601390820152722827a9a4aa24a7a72fa322a2afa320a1aa27a960691b604082015260600190565b6000836001600160a01b031663bd02d0f56121688585612d7c565b600060405160200161264a9060208082526017908201527646554e44494e475f414d4f554e545f5045525f53495a4560481b604082015260600190565b60408051601f198184030181528282528051602091820120908301526001600160a01b038087169183019190915284166060820152821515608082015260a0016040516020818303038152906040528051906020012090509392505050565b6000806126b684866158f9565b905060006126cb66038d7ea4c6800085615a17565b90506000826126d983611fa2565b6126e39190615a9c565b9050806000036126f95760009350505050610ef9565b600081121561272b5761271768327cb2734119d3b7a9601e1b611fa2565b6127219082615b21565b9350505050610ef9565b610f8c8168327cb2734119d3b7a9601e1b612dbd565b60008082121561200c5760405162461bcd60e51b815260206004820181905260248201527f53616665436173743a2076616c7565206d75737420626520706f7369746976656044820152606401611438565b600080836001600160a01b031663bd02d0f56040516020016127da9060208082526011908201527026a0ac2faaa4afa322a2afa320a1aa27a960791b604082015260600190565b604051602081830303815290604052805190602001206040518263ffffffff1660e01b815260040161280e91815260200190565b602060405180830381865afa15801561282b573d6000803e3d6000fd5b505050506040513d601f19601f8201168201806040525081019061284f9190615001565b90506000846001600160a01b031663bd02d0f561286b86612e2a565b6040518263ffffffff1660e01b815260040161288991815260200190565b602060405180830381865afa1580156128a6573d6000803e3d6000fd5b505050506040513d601f19601f820116820180604052508101906128ca9190615001565b9050818110610b5e5781610a0e565b6000816001600160a01b0316836001600160a01b0316146128fb5760016128fe565b60025b60ff169392505050565b600081866001600160a01b031663bd02d0f5612925888888612e5d565b6040518263ffffffff1660e01b815260040161294391815260200190565b602060405180830381865afa158015612960573d6000803e3d6000fd5b505050506040513d601f19601f820116820180604052508101906129849190615001565b610a0b9190615a17565b600081866001600160a01b031663bd02d0f5612925888888612e90565b60006040516020016129e19060208082526010908201526f2127a92927aba4a723afa320a1aa27a960811b604082015260600190565b60408051601f198184030181528282528051602091820120908301526001600160a01b0385169082015282151560608201526080015b60405160208183030381529060405280519060200120905092915050565b600080612a4a846040015185606001516128d9565b905080856001600160a01b031663bd02d0f5612a6a876000015187612ecd565b6040518263ffffffff1660e01b8152600401612a8891815260200190565b602060405180830381865afa158015612aa5573d6000803e3d6000fd5b505050506040513d601f19601f82011682018060405250810190612ac99190615001565b610a0e9190615a17565b60006040516020016129e1906020808252601990820152782127a92927aba4a723afa2ac2827a722a72a2fa320a1aa27a960391b604082015260600190565b600061097064e8d4a5100083615a17565b600082600003612b4b578115612b3a576000612b44565b670de0b6b3a76400005b9050610970565b61096d612b60612b5a85612f3b565b84612ff1565b612ffd565b600061097064e8d4a51000836158da565b600083600003612b8857506000610ef9565b600080612ba18668327cb2734119d3b7a9601e1b613043565b915091508115612bce578315612bc457612bbb818661308e565b92505050610ef9565b612bbb8582615a17565b612bdf66038d7ea4c68000876158da565b90506a084595161401484a000000851115612c2f578315612c1457612bbb81612c0f66038d7ea4c6800088615a17565b61308e565b612c2566038d7ea4c6800086615a17565b612bbb9082615a17565b8315612c515766038d7ea4c68000612c47828761308e565b612bbb91906158da565b66038d7ea4c68000612c638683615a17565b612c6d91906158da565b9695505050505050565b6000806000612c868686613043565b915091508115612c9a57612bbb8482615a17565b600080868811612cab578688612cae565b87875b915091506000612cc58766038d7ea4c6800061308e565b9050612cd866038d7ea4c68000826158da565b821115612d1057612ce98183615a17565b612cfa66038d7ea4c6800085615a17565b612d0491906158da565b95505050505050610ef9565b8082612d2366038d7ea4c6800086615a17565b612d2d91906158da565b612d379190615a17565b9998505050505050505050565b60008082121561200c5781600003610970565b6000612710612d7268327cb2734119d3b7a9601e1b846158da565b6109709190615a17565b60006040516020016129e1906020808252601b908201527a21aaa6aaa620aa24ab22afa127a92927aba4a723afa320a1aa27a960291b604082015260600190565b600080831215612df857612dd082611fa2565b612dd983611fa2565b612de390856158f9565b612dee9060016159d9565b612b449190615b21565b612e0182611fa2565b6001612e0c84611fa2565b612e1690866159d9565b612e2091906158f9565b61096d9190615b21565b60006040516020016120c8906020808252600d908201526c2aa4afa322a2afa320a1aa27a960991b604082015260600190565b600060405160200161264a906020808252600d908201526c13d4115397d2539511549154d5609a1b604082015260600190565b600060405160200161264a906020808252601790820152764f50454e5f494e5445524553545f494e5f544f4b454e5360481b604082015260600190565b6000604051602001612efe906020808252600b908201526a1413d3d317d05353d5539560aa1b604082015260600190565b60408051601f198184030181528282528051602091820120908301526001600160a01b038086169183019190915283166060820152608001612a17565b6000670de0b6b3a7640000821015612f6957604051633621413760e21b815260048101839052602401611438565b6000612f7e670de0b6b3a764000084046130b1565b670de0b6b3a764000081029250905082811c670de0b6b3a763ffff198101612fa7575050919050565b6706f05b59d3b200005b8015612fe957670de0b6b3a7640000828002049150671bc16d674ec800008210612fe1579283019260019190911c905b60011c612fb1565b505050919050565b600061096d8383613194565b6000680a688906bd8b000000821061302b57604051634a4f26f160e01b815260048101839052602401611438565b670de0b6b3a7640000604083901b04610ef98161325a565b6000808360000361305a5750600190506000613087565b8383028385828161306d5761306d615a01565b0414613080576000809250925050613087565b6001925090505b9250929050565b600081600161309d82866158b4565b6130a791906158c7565b61096d9190615a17565b6000600160801b82106130d157608091821c916130ce90826158b4565b90505b600160401b82106130ef57604091821c916130ec90826158b4565b90505b600160201b821061310d57602091821c9161310a90826158b4565b90505b62010000821061312a57601091821c9161312790826158b4565b90505b610100821061314657600891821c9161314390826158b4565b90505b6010821061316157600491821c9161315e90826158b4565b90505b6004821061317c57600291821c9161317990826158b4565b90505b6002821061318f576109706001826158b4565b919050565b60008080600019848609848602925082811083820303915050670de0b6b3a764000081106131d85760405163698d9a0160e11b815260048101829052602401611438565b600080670de0b6b3a764000086880991506706f05b59d3b1ffff82119050826000036132165780670de0b6b3a7640000850401945050505050610970565b620400008285030493909111909103600160ee1b02919091177faccb18165bd6fe31ae1cf318dc5b51eee0e1ba569b88cd74c1773b91fac106690201905092915050565b600160bf1b6001603f1b82161561327a5768016a09e667f3bcc9090260401c5b6001603e1b821615613295576801306fe0a31b7152df0260401c5b6001603d1b8216156132b0576801172b83c7d517adce0260401c5b6001603c1b8216156132cb5768010b5586cf9890f62a0260401c5b6001603b1b8216156132e6576801059b0d31585743ae0260401c5b6001603a1b82161561330157680102c9a3e778060ee70260401c5b600160391b82161561331c5768010163da9fb33356d80260401c5b600160381b82161561333757680100b1afa5abcbed610260401c5b600160371b8216156133525768010058c86da1c09ea20260401c5b600160361b82161561336d576801002c605e2e8cec500260401c5b600160351b82161561338857680100162f3904051fa10260401c5b600160341b8216156133a3576801000b175effdc76ba0260401c5b600160331b8216156133be57680100058ba01fb9f96d0260401c5b600160321b8216156133d95768010002c5cc37da94920260401c5b600160311b8216156133f4576801000162e525ee05470260401c5b600160301b82161561340f5768010000b17255775c040260401c5b6001602f1b82161561342a576801000058b91b5bc9ae0260401c5b6001602e1b82161561344557680100002c5c89d5ec6d0260401c5b6001602d1b8216156134605768010000162e43f4f8310260401c5b6001602c1b82161561347b57680100000b1721bcfc9a0260401c5b6001602b1b8216156134965768010000058b90cf1e6e0260401c5b6001602a1b8216156134b1576801000002c5c863b73f0260401c5b600160291b8216156134cc57680100000162e430e5a20260401c5b600160281b8216156134e7576801000000b1721835510260401c5b600160271b82161561350257680100000058b90c0b490260401c5b600160261b82161561351d5768010000002c5c8601cc0260401c5b600160251b821615613538576801000000162e42fff00260401c5b600160241b8216156135535768010000000b17217fbb0260401c5b600160231b82161561356e576801000000058b90bfce0260401c5b600160221b82161561358957680100000002c5c85fe30260401c5b600160211b8216156135a45768010000000162e42ff10260401c5b600160201b8216156135bf57680100000000b17217f80260401c5b63800000008216156135da5768010000000058b90bfc0260401c5b63400000008216156135f5576801000000002c5c85fe0260401c5b632000000082161561361057680100000000162e42ff0260401c5b631000000082161561362b576801000000000b17217f0260401c5b630800000082161561364657680100000000058b90c00260401c5b63040000008216156136615768010000000002c5c8600260401c5b630200000082161561367c576801000000000162e4300260401c5b63010000008216156136975768010000000000b172180260401c5b628000008216156136b1576801000000000058b90c0260401c5b624000008216156136cb57680100000000002c5c860260401c5b622000008216156136e55768010000000000162e430260401c5b621000008216156136ff57680100000000000b17210260401c5b620800008216156137195768010000000000058b910260401c5b62040000821615613733576801000000000002c5c80260401c5b6202000082161561374d57680100000000000162e40260401c5b620100008216156137665761b172600160401b010260401c5b61800082161561377e576158b9600160401b010260401c5b61400082161561379657612c5d600160401b010260401c5b6120008216156137ae5761162e600160401b010260401c5b6110008216156137c657610b17600160401b010260401c5b6108008216156137de5761058c600160401b010260401c5b6104008216156137f6576102c6600160401b010260401c5b61020082161561380e57610163600160401b010260401c5b6101008216156138255760b1600160401b010260401c5b608082161561383b576059600160401b010260401c5b604082161561385157602c600160401b010260401c5b6020821615613867576016600160401b010260401c5b601082161561387d57600b600160401b010260401c5b6008821615613893576006600160401b010260401c5b60048216156138a9576003600160401b010260401c5b60028216156138bf576001600160401b010260401c5b60018216156138d5576001600160401b010260401c5b670de0b6b3a76400000260409190911c60bf031c90565b60405180604001604052806138ff613959565b815260200161390c613c20565b905290565b6040518060c00160405280613924613959565b8152602001613931613b36565b815260200161393e613c06565b81526020016000815260200160008152602001600081525090565b6040805160c081019091526000606082018181526080830182905260a0830191909152819081526020016139cb60405180610100016040528060008152602001600081526020016000815260200160008152602001600081526020016000815260200160008152602001600081525090565b81526040805160208181019092526000815291015290565b604080516101808101909152600060608083018281526080840183905260a0840183905260c0840183905260e084018390526101008401839052610120840192909252610140830181905261016083015281905b81526020016139cb6040518060c001604052806000815260200160008152602001600081526020016000815260200160008152602001600081525090565b604080516101408101909152600060608083018281526080840183905260a0840183905260c0840183905260e08401839052610100840192909252610120830152815260208101613b1360408051610140810190915280600081526020016000815260200160008152602001600081526020016000815260200160008152602001600081526020016000815260200160008152602001600081525090565b815260408051606081018252600080825260208281018290529282015291015290565b60408051608081018252600080825260208201819052918101829052606081019190915290565b6040518060800160405280613b70613b36565b8152602001600081526020016000815260200161390c6040518060c0016040528060001515815260200160008152602001600081526020016000815260200160008152602001600081525090565b604080516101408101909152600060608083018281526080840183905260a0840183905260c0840183905260e084019290925261010083018190526101208301528190613a37565b604051806040016040528060008152602001600081525090565b604080516102c0810190915260006101c082018181526101e08301829052610200830182905261022083018290526102408301829052610260830182905261028083018290526102a0830191909152815260208101613c7d613d11565b8152602001613c8a613ce9565b8152602001613c97613d40565b8152602001613ca4613c06565b81526020016000815260200160008152602001600081526020016000815260200160008152602001600081526020016000815260200160008152602001600081525090565b6040518060800160405280600081526020016000815260200160008152602001600081525090565b6040518060a0016040528060008152602001600081526020016000815260200160008152602001600081525090565b604051806060016040528060006001600160a01b0316815260200160008152602001600081525090565b6001600160a01b0381168114613d7f57600080fd5b50565b634e487b7160e01b600052604160045260246000fd5b604051606081016001600160401b0381118282101715613dba57613dba613d82565b60405290565b60405161010081016001600160401b0381118282101715613dba57613dba613d82565b604051608081016001600160401b0381118282101715613dba57613dba613d82565b60405161016081016001600160401b0381118282101715613dba57613dba613d82565b60405161012081016001600160401b0381118282101715613dba57613dba613d82565b60405161014081016001600160401b0381118282101715613dba57613dba613d82565b60405160e081016001600160401b0381118282101715613dba57613dba613d82565b604051601f8201601f191681016001600160401b0381118282101715613eb857613eb8613d82565b604052919050565b600060408284031215613ed257600080fd5b604080519081016001600160401b0381118282101715613ef457613ef4613d82565b604052823581526020928301359281019290925250919050565b600060c08284031215613f2057600080fd5b613f28613d98565b9050613f348383613ec0565b8152613f438360408401613ec0565b6020820152613f558360808401613ec0565b604082015292915050565b803561318f81613d6a565b8015158114613d7f57600080fd5b6000806000806000806000610180888a031215613f9557600080fd5b8735613fa081613d6a565b96506020880135613fb081613d6a565b955060408801359450613fc68960608a01613f0e565b93506101208801359250610140880135613fdf81613d6a565b9150610160880135613ff081613f6b565b8091505092959891949750929550565b6001600160a01b03169052565b805160018060a01b03808251168452806020830151166020850152806040830151166040850152505060208101518051606084015260208101516080840152604081015160a0840152606081015160c0840152608081015160e084015260a081015161010084015260c081015161012084015260e08101516101408401525060408101515115156101608301525050565b80518252602090810151910152565b6140b882825161400d565b6020818101518051805161018086810191909152928101516001600160a01b039081166101a08701526040820151166101c086015260608101516101e0860152608081015161020086015260a081015161022086015260c081015161024086015260e00151610260850152906020828101518051610280870152908101516102a086015260408101516102c086015260608101516102e08601526080810151610300860152506040828101518051610320870152602081015161034087015290810151610360860152606081015161038086015250606082015180516001600160a01b03166103a086015260208101516103c086015260408101516103e08601525060808201516141cd61040086018261409e565b5060a082015161044085015260c082015161046085015260e08201516104808501526101008201516104a08501526101208201516104c08501526101408201516104e08501526101608201516105008501528101516105208401526101a001516105409092019190915250565b610560810161097082846140ad565b60006080828403121561425b57600080fd5b604051608081016001600160401b038111828210171561427d5761427d613d82565b604052905080823561428e81613d6a565b8152602083013561429e81613d6a565b602082015260408301356142b181613d6a565b604082015260608301356142c481613d6a565b6060919091015292915050565b60008060008060008060006101a0888a0312156142ed57600080fd5b87356142f881613d6a565b96506143078960208a01614249565b95506143168960a08a01613ec0565b94506143258960e08a01613ec0565b9350614335896101208a01613ec0565b92506101608801359150610180880135613ff081613f6b565b6000806040838503121561436157600080fd5b823561436c81613d6a565b946020939093013593505050565b6101808101610970828461400d565b600081518084526020808501945080840160005b838110156143c25781516001600160a01b03168752958201959082019060010161439d565b509495945050505050565b805182526020810151602083015260408101516040830152606081015160608301526080810151608083015260a081015160a08301525050565b60208152600061012083516101008060208601526144288386018351614000565b602082015161443b610140870182614000565b50604082015161444f610160870182614000565b506060820151614463610180870182614000565b5060808201516144776101a0870182614000565b5060a082015161448b6101c0870182614000565b5060c082015161449f6101e0870182614000565b5060e0820151836102008701526144ba610240870182614389565b9282015186840361011f19016102208801529293506144db90508383614389565b9250602086015191506144f160408601836143cd565b6040860151805115158683015291505b5090949350505050565b6000806000806000610120868803121561452457600080fd5b853561452f81613d6a565b945061453e8760208801614249565b935061454d8760a08801613ec0565b925060e086013561455d81613f6b565b915061010086013561456e81613f6b565b809150509295509295909350565b6000806000806080858703121561459257600080fd5b843561459d81613d6a565b935060208501356145ad81613d6a565b93969395505050506040820135916060013590565b634e487b7160e01b600052602160045260246000fd5b600881106145e8576145e86145c2565b9052565b600381106145e8576145e86145c2565b6146078282516145d8565b602081015161461960208401826145ec565b5060408101516040830152606081015160608301526080810151608083015260a081015160a083015260c081015160c083015260e081015160e08301526101008082015181840152506101208082015181840152505050565b80516101c080845281516001600160a01b0390811691850191909152602082015181166101e085015260408201511661020084015260608101516000916146bd610220860183614000565b608081015191506146d2610240860183614000565b60a081015191506146e7610260860183614000565b60c0015160e061028086015290506147036102a0850182614389565b9050602083015161471760208601826145fc565b5060408381015180511515610160870152602081015115156101808701529081015115156101a0860152509392505050565b6000602080830181845280855180835260408601915060408160051b870101925083870160005b8281101561479e57603f1988860301845261478c858351614672565b94509285019290850190600101614770565b5092979650505050505050565b60208152600061096d6020830184614672565b600080604083850312156147d157600080fd5b82356147dc81613d6a565b915060208301356147ec81613d6a565b809150509250929050565b80516001600160a01b03908116835260208083015182169084015260408083015182169084015260609182015116910152565b6080810161097082846147f7565b6020808252825182820181905260009190848201906040850190845b8181101561487b5761486783855161400d565b928401926101809290920191600101614854565b50909695505050505050565b6000806000610100848603121561489d57600080fd5b83356148a881613d6a565b92506148b78560208601613f0e565b915060e08401356148c781613d6a565b809150509250925092565b6148dd8282516147f7565b60208101516080830152604081015160a083015260608101518051151560c0840152602081015160e084015260408101516101008401526060810151610120840152608081015161014084015260a0810151610160840152505050565b610180810161097082846148d2565b6000806000806000610140868803121561496257600080fd5b853561496d81613d6a565b9450602086013561497d81613d6a565b935061498c8760408801613f0e565b925061010086013561499d81613f6b565b915061012086013561456e81613f6b565b60006001600160401b038211156149c7576149c7613d82565b5060051b60200190565b600082601f8301126149e257600080fd5b813560206149f76149f2836149ae565b613e90565b82815260c09283028501820192828201919087851115614a1657600080fd5b8387015b85811015611eda57614a2c8982613f0e565b8452928401928101614a1a565b60008060008060808587031215614a4f57600080fd5b8435614a5a81613d6a565b935060208501356001600160401b03811115614a7557600080fd5b614a81878288016149d1565b949794965050505060408301359260600135919050565b6020808252825182820181905260009190848201906040850190845b8181101561487b57614ac78385516148d2565b928401926101809290920191600101614ab4565b600080600060608486031215614af057600080fd5b8335614afb81613d6a565b95602085013595506040909401359392505050565b6020808252825182820181905260009190848201906040850190845b8181101561487b57614b3f8385516147f7565b9284019260809290920191600101614b2c565b602081526000825161010080602085015260018060a01b03808351166101208601528060208401511661014086015280604084015116610160860152506060820151614ba2610180860182614000565b506080820151614bb66101a0860182614000565b5060a082015160e06101c0860152614bd2610200860182614389565b905060c0830151925061011f19858203016101e0860152614bf38184614389565b9250506020850151614c0860408601826143cd565b5060408501518051151585830152614501565b600080600080600060a08688031215614c3357600080fd5b8535614c3e81613d6a565b9450602086810135614c4f81613d6a565b945060408701356001600160401b0380821115614c6b57600080fd5b818901915089601f830112614c7f57600080fd5b8135614c8d6149f2826149ae565b81815260059190911b8301840190848101908c831115614cac57600080fd5b938501935b82851015614cca57843582529385019390850190614cb1565b975050506060890135925080831115614ce257600080fd5b5050614cf0888289016149d1565b925050614cff60808701613f60565b90509295509295909350565b6020808252825182820181905260009190848201906040850190845b8181101561487b57614d3a8385516140ad565b928401926105609290920191600101614d27565b6000806000806101008587031215614d6557600080fd5b8435614d7081613d6a565b9350614d7f8660208701614249565b9250614d8e8660a08701613ec0565b915060e0850135614d9e81613f6b565b939692955090935050565b6001600160a01b03929092168252602082015260400190565b805161318f81613d6a565b600060208284031215614ddf57600080fd5b604051602081016001600160401b0381118282101715614e0157614e01613d82565b80604052508091508251614e1481613f6b565b905292915050565b6000818303610180811215614e3057600080fd5b614e38613d98565b6060821215614e4657600080fd5b614e4e613d98565b8451614e5981613d6a565b81526020850151614e6981613d6a565b60208201526040850151614e7c81613d6a565b60408201528152610100605f198301811315614e9757600080fd5b614e9f613dc0565b9250606085015183526080850151602084015260a0850151604084015260c0850151606084015260e085015160808401528085015160a08401525061012084015160c083015261014084015160e0830152816020820152614f04856101608601614dcd565b6040820152949350505050565b6001600160a01b0392831681529116602082015260400190565b600060808284031215614f3d57600080fd5b614f45613de3565b8251614f5081613d6a565b81526020830151614f6081613d6a565b60208201526040830151614f7381613d6a565b60408201526060830151614f8681613d6a565b60608201529392505050565b614f9d82825161409e565b6020810151614faf604084018261409e565b506040810151614fc2608084018261409e565b505050565b6001600160a01b03851681526102e08101614fe5602083018661400d565b614ff36101a08301856147f7565b610a0e610220830184614f92565b60006020828403121561501357600080fd5b5051919050565b6001600160a01b038416815260808101615037602083018561409e565b826060830152949350505050565b60006080828403121561505757600080fd5b61505f613de3565b825181526020830151602082015260408301516040820152606083015160608201528091505092915050565b6001600160a01b038416815261016081016150a960208301856147f7565b610b5e60a0830184614f92565b600060c082840312156150c857600080fd5b60405160c081016001600160401b03811182821017156150ea576150ea613d82565b60405282516150f881613f6b565b808252506020830151602082015260408301516040820152606083015160608201526080830151608082015260a083015160a08201528091505092915050565b6102008101615147828861400d565b6001600160a01b03958616610180830152939094166101a08501526101c08401919091526101e090920191909152919050565b600060a0828403121561518c57600080fd5b60405160a081016001600160401b03811182821017156151ae576151ae613d82565b806040525082518152602083015160208201526040830151604082015260608301516060820152608083015160808201528091505092915050565b6001600160a01b03881681526101a0810161520760208301896147f7565b61521460a083018861409e565b61522160e083018761409e565b61522f61012083018661409e565b8361016083015282151561018083015298975050505050505050565b60008082840361018081121561526057600080fd5b8351925061016080601f198301121561527857600080fd5b615280613e05565b91506020850151825260408501516020830152606085015160408301526080850151606083015260a0850151608083015260c085015160a083015260e085015160c08301526101008086015160e08401526101208087015182850152610140915081870151818501525081860151818401525050809150509250929050565b600082601f83011261531057600080fd5b815160206153206149f2836149ae565b82815260059290921b8401810191818101908684111561533f57600080fd5b8286015b8481101561138557805161535681613d6a565b8352918301918301615343565b600060c0828403121561537557600080fd5b60405160c081016001600160401b038111828210171561539757615397613d82565b8060405250809150825181526020830151602082015260408301516040820152606083015160608201526080830151608082015260a083015160a08201525092915050565b6000602082840312156153ee57600080fd5b81516001600160401b038082111561540557600080fd5b818401915061010080838703121561541c57600080fd5b615424613d98565b83518381111561543357600080fd5b8401610120818903121561544657600080fd5b61544e613e28565b61545782614dc2565b815261546560208301614dc2565b602082015261547660408301614dc2565b604082015261548760608301614dc2565b606082015261549860808301614dc2565b60808201526154a960a08301614dc2565b60a08201526154ba60c08301614dc2565b60c082015260e0820151858111156154d157600080fd5b6154dd8a8285016152ff565b60e08301525083820151858111156154f457600080fd5b6155008a8285016152ff565b82860152508252506155158760208601615363565b60208201526155278760e08601614dcd565b60408201529695505050505050565b634e487b7160e01b600052603260045260246000fd5b80516008811061318f57600080fd5b80516003811061318f57600080fd5b6000610140828403121561557d57600080fd5b615585613e4b565b90506155908261554c565b815261559e6020830161555b565b602082015260408201516040820152606082015160608201526080820151608082015260a082015160a082015260c082015160c082015260e082015160e082015261010080830151818301525061012080830151818301525092915050565b60006060828403121561560f57600080fd5b615617613d98565b9050815161562481613f6b565b8152602082015161563481613f6b565b60208201526040820151613f5581613f6b565b60006020828403121561565957600080fd5b81516001600160401b038082111561567057600080fd5b908301906101c0828603121561568557600080fd5b61568d613d98565b82518281111561569c57600080fd5b830160e081880312156156ae57600080fd5b6156b6613e6e565b6156bf82614dc2565b81526156cd60208301614dc2565b60208201526156de60408301614dc2565b60408201526156ef60608301614dc2565b606082015261570060808301614dc2565b608082015261571160a08301614dc2565b60a082015260c08201518481111561572857600080fd5b615734898285016152ff565b60c08301525082525061574a866020850161556a565b6020820152611f418661016085016155fd565b634e487b7160e01b600052601160045260246000fd5b6000600182016157855761578561575d565b5060010190565b60006020828403121561579e57600080fd5b81516001600160401b03808211156157b557600080fd5b9083019061010082860312156157ca57600080fd5b6157d2613d98565b8251828111156157e157600080fd5b830160e081880312156157f357600080fd5b6157fb613e6e565b61580482614dc2565b815261581260208301614dc2565b602082015261582360408301614dc2565b604082015261583460608301614dc2565b606082015261584560808301614dc2565b608082015260a08201518481111561585c57600080fd5b615868898285016152ff565b60a08301525060c08201518481111561588057600080fd5b61588c898285016152ff565b60c0830152508252506158a28660208501615363565b6020820152611f418660e08501614dcd565b808201808211156109705761097061575d565b818103818111156109705761097061575d565b60008160001904831182151516156158f4576158f461575d565b500290565b81810360008312801583831316838312821617156159195761591961575d565b5092915050565b6000602080838503121561593357600080fd5b82516001600160401b0381111561594957600080fd5b8301601f8101851361595a57600080fd5b80516159686149f2826149ae565b81815260059190911b8201830190838101908783111561598757600080fd5b928401925b82841015610f8c5783518252928401929084019061598c565b6000602082840312156159b757600080fd5b81516001600160401b038111156159cd57600080fd5b610b5e848285016152ff565b80820182811260008312801582168215821617156159f9576159f961575d565b505092915050565b634e487b7160e01b600052601260045260246000fd5b600082615a2657615a26615a01565b500490565b6000600160ff1b8201615a4057615a4061575d565b5060000390565b6001600160a01b0391909116815260200190565b600060208284031215615a6d57600080fd5b8151610ef981613d6a565b60008060408385031215615a8b57600080fd5b505080516020909101519092909150565b60006001600160ff1b0381841382841380821686840486111615615ac257615ac261575d565b600160ff1b6000871282811687830589121615615ae157615ae161575d565b60008712925087820587128484161615615afd57615afd61575d565b87850587128184161615615b1357615b1361575d565b505050929093029392505050565b600082615b3057615b30615a01565b600160ff1b821460001984141615615b4a57615b4a61575d565b50059056fea26469706673582212200650ed3bc0c4b6f878f76ea57f6b3258af2fe694fb6e542fa288b2a529ef034c64736f6c63430008100033",
  "linkReferences": {
    "contracts/deposit/DepositStoreUtils.sol": {
      "DepositStoreUtils": [
        {
          "length": 20,
          "start": 2478
        }
      ]
    },
    "contracts/market/MarketStoreUtils.sol": {
      "MarketStoreUtils": [
        {
          "length": 20,
          "start": 1101
        },
        {
          "length": 20,
          "start": 3108
        },
        {
          "length": 20,
          "start": 3560
        },
        {
          "length": 20,
          "start": 3878
        },
        {
          "length": 20,
          "start": 4062
        },
        {
          "length": 20,
          "start": 4491
        }
      ]
    },
    "contracts/market/MarketUtils.sol": {
      "MarketUtils": [
        {
          "length": 20,
          "start": 2181
        }
      ]
    },
    "contracts/order/OrderStoreUtils.sol": {
      "OrderStoreUtils": [
        {
          "length": 20,
          "start": 2765
        },
        {
          "length": 20,
          "start": 2974
        }
      ]
    },
    "contracts/position/PositionStoreUtils.sol": {
      "PositionStoreUtils": [
        {
          "length": 20,
          "start": 970
        },
        {
          "length": 20,
          "start": 2338
        },
        {
          "length": 20,
          "start": 3364
        }
      ]
    },
    "contracts/reader/ReaderUtils.sol": {
      "ReaderUtils": [
        {
          "length": 20,
          "start": 1397
        },
        {
          "length": 20,
          "start": 1540
        },
        {
          "length": 20,
          "start": 1682
        },
        {
          "length": 20,
          "start": 1873
        },
        {
          "length": 20,
          "start": 3707
        }
      ]
    },
    "contracts/withdrawal/WithdrawalStoreUtils.sol": {
      "WithdrawalStoreUtils": [
        {
          "length": 20,
          "start": 4697
        }
      ]
    }
  },
  "deployedLinkReferences": {
    "contracts/deposit/DepositStoreUtils.sol": {
      "DepositStoreUtils": [
        {
          "length": 20,
          "start": 2445
        }
      ]
    },
    "contracts/market/MarketStoreUtils.sol": {
      "MarketStoreUtils": [
        {
          "length": 20,
          "start": 1068
        },
        {
          "length": 20,
          "start": 3075
        },
        {
          "length": 20,
          "start": 3527
        },
        {
          "length": 20,
          "start": 3845
        },
        {
          "length": 20,
          "start": 4029
        },
        {
          "length": 20,
          "start": 4458
        }
      ]
    },
    "contracts/market/MarketUtils.sol": {
      "MarketUtils": [
        {
          "length": 20,
          "start": 2148
        }
      ]
    },
    "contracts/order/OrderStoreUtils.sol": {
      "OrderStoreUtils": [
        {
          "length": 20,
          "start": 2732
        },
        {
          "length": 20,
          "start": 2941
        }
      ]
    },
    "contracts/position/PositionStoreUtils.sol": {
      "PositionStoreUtils": [
        {
          "length": 20,
          "start": 937
        },
        {
          "length": 20,
          "start": 2305
        },
        {
          "length": 20,
          "start": 3331
        }
      ]
    },
    "contracts/reader/ReaderUtils.sol": {
      "ReaderUtils": [
        {
          "length": 20,
          "start": 1364
        },
        {
          "length": 20,
          "start": 1507
        },
        {
          "length": 20,
          "start": 1649
        },
        {
          "length": 20,
          "start": 1840
        },
        {
          "length": 20,
          "start": 3674
        }
      ]
    },
    "contracts/withdrawal/WithdrawalStoreUtils.sol": {
      "WithdrawalStoreUtils": [
        {
          "length": 20,
          "start": 4664
        }
      ]
    }
  }
}