{
  "address": "0x9eB4F3EC3194901f61C78E86081A73e627e0f269",
  "abi": [
    {
      "inputs": [
        {
          "internalType": "address",
          "name": "market",
          "type": "address"
        }
      ],
      "name": "DisabledMarket",
      "type": "error"
    },
    {
      "inputs": [],
      "name": "EmptyMarket",
      "type": "error"
    },
    {
      "inputs": [
        {
          "internalType": "contract DataStore",
          "name": "dataStore",
          "type": "address"
        },
        {
          "internalType": "address",
          "name": "account",
          "type": "address"
        },
        {
          "internalType": "uint256",
          "name": "start",
          "type": "uint256"
        },
        {
          "internalType": "uint256",
          "name": "end",
          "type": "uint256"
        }
      ],
      "name": "getAccountOrders",
      "outputs": [
        {
          "components": [
            {
              "components": [
                {
                  "internalType": "address",
                  "name": "account",
                  "type": "address"
                },
                {
                  "internalType": "address",
                  "name": "receiver",
                  "type": "address"
                },
                {
                  "internalType": "address",
                  "name": "callbackContract",
                  "type": "address"
                },
                {
                  "internalType": "address",
                  "name": "uiFeeReceiver",
                  "type": "address"
                },
                {
                  "internalType": "address",
                  "name": "market",
                  "type": "address"
                },
                {
                  "internalType": "address",
                  "name": "initialCollateralToken",
                  "type": "address"
                },
                {
                  "internalType": "address[]",
                  "name": "swapPath",
                  "type": "address[]"
                }
              ],
              "internalType": "struct Order.Addresses",
              "name": "addresses",
              "type": "tuple"
            },
            {
              "components": [
                {
                  "internalType": "enum Order.OrderType",
                  "name": "orderType",
                  "type": "uint8"
                },
                {
                  "internalType": "enum Order.DecreasePositionSwapType",
                  "name": "decreasePositionSwapType",
                  "type": "uint8"
                },
                {
                  "internalType": "uint256",
                  "name": "sizeDeltaUsd",
                  "type": "uint256"
                },
                {
                  "internalType": "uint256",
                  "name": "initialCollateralDeltaAmount",
                  "type": "uint256"
                },
                {
                  "internalType": "uint256",
                  "name": "triggerPrice",
                  "type": "uint256"
                },
                {
                  "internalType": "uint256",
                  "name": "acceptablePrice",
                  "type": "uint256"
                },
                {
                  "internalType": "uint256",
                  "name": "executionFee",
                  "type": "uint256"
                },
                {
                  "internalType": "uint256",
                  "name": "callbackGasLimit",
                  "type": "uint256"
                },
                {
                  "internalType": "uint256",
                  "name": "minOutputAmount",
                  "type": "uint256"
                },
                {
                  "internalType": "uint256",
                  "name": "updatedAtBlock",
                  "type": "uint256"
                },
                {
                  "internalType": "uint256",
                  "name": "updatedAtTime",
                  "type": "uint256"
                }
              ],
              "internalType": "struct Order.Numbers",
              "name": "numbers",
              "type": "tuple"
            },
            {
              "components": [
                {
                  "internalType": "bool",
                  "name": "isLong",
                  "type": "bool"
                },
                {
                  "internalType": "bool",
                  "name": "shouldUnwrapNativeToken",
                  "type": "bool"
                },
                {
                  "internalType": "bool",
                  "name": "isFrozen",
                  "type": "bool"
                },
                {
                  "internalType": "bool",
                  "name": "autoCancel",
                  "type": "bool"
                }
              ],
              "internalType": "struct Order.Flags",
              "name": "flags",
              "type": "tuple"
            }
          ],
          "internalType": "struct Order.Props[]",
          "name": "",
          "type": "tuple[]"
        }
      ],
      "stateMutability": "view",
      "type": "function"
    },
    {
      "inputs": [
        {
          "internalType": "contract DataStore",
          "name": "dataStore",
          "type": "address"
        },
        {
          "internalType": "contract IReferralStorage",
          "name": "referralStorage",
          "type": "address"
        },
        {
          "internalType": "bytes32[]",
          "name": "positionKeys",
          "type": "bytes32[]"
        },
        {
          "components": [
            {
              "components": [
                {
                  "internalType": "uint256",
                  "name": "min",
                  "type": "uint256"
                },
                {
                  "internalType": "uint256",
                  "name": "max",
                  "type": "uint256"
                }
              ],
              "internalType": "struct Price.Props",
              "name": "indexTokenPrice",
              "type": "tuple"
            },
            {
              "components": [
                {
                  "internalType": "uint256",
                  "name": "min",
                  "type": "uint256"
                },
                {
                  "internalType": "uint256",
                  "name": "max",
                  "type": "uint256"
                }
              ],
              "internalType": "struct Price.Props",
              "name": "longTokenPrice",
              "type": "tuple"
            },
            {
              "components": [
                {
                  "internalType": "uint256",
                  "name": "min",
                  "type": "uint256"
                },
                {
                  "internalType": "uint256",
                  "name": "max",
                  "type": "uint256"
                }
              ],
              "internalType": "struct Price.Props",
              "name": "shortTokenPrice",
              "type": "tuple"
            }
          ],
          "internalType": "struct MarketUtils.MarketPrices[]",
          "name": "prices",
          "type": "tuple[]"
        },
        {
          "internalType": "address",
          "name": "uiFeeReceiver",
          "type": "address"
        }
      ],
      "name": "getAccountPositionInfoList",
      "outputs": [
        {
          "components": [
            {
              "components": [
                {
                  "components": [
                    {
                      "internalType": "address",
                      "name": "account",
                      "type": "address"
                    },
                    {
                      "internalType": "address",
                      "name": "market",
                      "type": "address"
                    },
                    {
                      "internalType": "address",
                      "name": "collateralToken",
                      "type": "address"
                    }
                  ],
                  "internalType": "struct Position.Addresses",
                  "name": "addresses",
                  "type": "tuple"
                },
                {
                  "components": [
                    {
                      "internalType": "uint256",
                      "name": "sizeInUsd",
                      "type": "uint256"
                    },
                    {
                      "internalType": "uint256",
                      "name": "sizeInTokens",
                      "type": "uint256"
                    },
                    {
                      "internalType": "uint256",
                      "name": "collateralAmount",
                      "type": "uint256"
                    },
                    {
                      "internalType": "uint256",
                      "name": "borrowingFactor",
                      "type": "uint256"
                    },
                    {
                      "internalType": "uint256",
                      "name": "fundingFeeAmountPerSize",
                      "type": "uint256"
                    },
                    {
                      "internalType": "uint256",
                      "name": "longTokenClaimableFundingAmountPerSize",
                      "type": "uint256"
                    },
                    {
                      "internalType": "uint256",
                      "name": "shortTokenClaimableFundingAmountPerSize",
                      "type": "uint256"
                    },
                    {
                      "internalType": "uint256",
                      "name": "increasedAtBlock",
                      "type": "uint256"
                    },
                    {
                      "internalType": "uint256",
                      "name": "decreasedAtBlock",
                      "type": "uint256"
                    },
                    {
                      "internalType": "uint256",
                      "name": "increasedAtTime",
                      "type": "uint256"
                    },
                    {
                      "internalType": "uint256",
                      "name": "decreasedAtTime",
                      "type": "uint256"
                    }
                  ],
                  "internalType": "struct Position.Numbers",
                  "name": "numbers",
                  "type": "tuple"
                },
                {
                  "components": [
                    {
                      "internalType": "bool",
                      "name": "isLong",
                      "type": "bool"
                    }
                  ],
                  "internalType": "struct Position.Flags",
                  "name": "flags",
                  "type": "tuple"
                }
              ],
              "internalType": "struct Position.Props",
              "name": "position",
              "type": "tuple"
            },
            {
              "components": [
                {
                  "components": [
                    {
                      "internalType": "bytes32",
                      "name": "referralCode",
                      "type": "bytes32"
                    },
                    {
                      "internalType": "address",
                      "name": "affiliate",
                      "type": "address"
                    },
                    {
                      "internalType": "address",
                      "name": "trader",
                      "type": "address"
                    },
                    {
                      "internalType": "uint256",
                      "name": "totalRebateFactor",
                      "type": "uint256"
                    },
                    {
                      "internalType": "uint256",
                      "name": "traderDiscountFactor",
                      "type": "uint256"
                    },
                    {
                      "internalType": "uint256",
                      "name": "totalRebateAmount",
                      "type": "uint256"
                    },
                    {
                      "internalType": "uint256",
                      "name": "traderDiscountAmount",
                      "type": "uint256"
                    },
                    {
                      "internalType": "uint256",
                      "name": "affiliateRewardAmount",
                      "type": "uint256"
                    }
                  ],
                  "internalType": "struct PositionPricingUtils.PositionReferralFees",
                  "name": "referral",
                  "type": "tuple"
                },
                {
                  "components": [
                    {
                      "internalType": "uint256",
                      "name": "fundingFeeAmount",
                      "type": "uint256"
                    },
                    {
                      "internalType": "uint256",
                      "name": "claimableLongTokenAmount",
                      "type": "uint256"
                    },
                    {
                      "internalType": "uint256",
                      "name": "claimableShortTokenAmount",
                      "type": "uint256"
                    },
                    {
                      "internalType": "uint256",
                      "name": "latestFundingFeeAmountPerSize",
                      "type": "uint256"
                    },
                    {
                      "internalType": "uint256",
                      "name": "latestLongTokenClaimableFundingAmountPerSize",
                      "type": "uint256"
                    },
                    {
                      "internalType": "uint256",
                      "name": "latestShortTokenClaimableFundingAmountPerSize",
                      "type": "uint256"
                    }
                  ],
                  "internalType": "struct PositionPricingUtils.PositionFundingFees",
                  "name": "funding",
                  "type": "tuple"
                },
                {
                  "components": [
                    {
                      "internalType": "uint256",
                      "name": "borrowingFeeUsd",
                      "type": "uint256"
                    },
                    {
                      "internalType": "uint256",
                      "name": "borrowingFeeAmount",
                      "type": "uint256"
                    },
                    {
                      "internalType": "uint256",
                      "name": "borrowingFeeReceiverFactor",
                      "type": "uint256"
                    },
                    {
                      "internalType": "uint256",
                      "name": "borrowingFeeAmountForFeeReceiver",
                      "type": "uint256"
                    }
                  ],
                  "internalType": "struct PositionPricingUtils.PositionBorrowingFees",
                  "name": "borrowing",
                  "type": "tuple"
                },
                {
                  "components": [
                    {
                      "internalType": "address",
                      "name": "uiFeeReceiver",
                      "type": "address"
                    },
                    {
                      "internalType": "uint256",
                      "name": "uiFeeReceiverFactor",
                      "type": "uint256"
                    },
                    {
                      "internalType": "uint256",
                      "name": "uiFeeAmount",
                      "type": "uint256"
                    }
                  ],
                  "internalType": "struct PositionPricingUtils.PositionUiFees",
                  "name": "ui",
                  "type": "tuple"
                },
                {
                  "components": [
                    {
                      "internalType": "uint256",
                      "name": "min",
                      "type": "uint256"
                    },
                    {
                      "internalType": "uint256",
                      "name": "max",
                      "type": "uint256"
                    }
                  ],
                  "internalType": "struct Price.Props",
                  "name": "collateralTokenPrice",
                  "type": "tuple"
                },
                {
                  "internalType": "uint256",
                  "name": "positionFeeFactor",
                  "type": "uint256"
                },
                {
                  "internalType": "uint256",
                  "name": "protocolFeeAmount",
                  "type": "uint256"
                },
                {
                  "internalType": "uint256",
                  "name": "positionFeeReceiverFactor",
                  "type": "uint256"
                },
                {
                  "internalType": "uint256",
                  "name": "feeReceiverAmount",
                  "type": "uint256"
                },
                {
                  "internalType": "uint256",
                  "name": "feeAmountForPool",
                  "type": "uint256"
                },
                {
                  "internalType": "uint256",
                  "name": "positionFeeAmountForPool",
                  "type": "uint256"
                },
                {
                  "internalType": "uint256",
                  "name": "positionFeeAmount",
                  "type": "uint256"
                },
                {
                  "internalType": "uint256",
                  "name": "totalCostAmountExcludingFunding",
                  "type": "uint256"
                },
                {
                  "internalType": "uint256",
                  "name": "totalCostAmount",
                  "type": "uint256"
                }
              ],
              "internalType": "struct PositionPricingUtils.PositionFees",
              "name": "fees",
              "type": "tuple"
            },
            {
              "components": [
                {
                  "internalType": "int256",
                  "name": "priceImpactUsd",
                  "type": "int256"
                },
                {
                  "internalType": "uint256",
                  "name": "priceImpactDiffUsd",
                  "type": "uint256"
                },
                {
                  "internalType": "uint256",
                  "name": "executionPrice",
                  "type": "uint256"
                }
              ],
              "internalType": "struct ReaderPricingUtils.ExecutionPriceResult",
              "name": "executionPriceResult",
              "type": "tuple"
            },
            {
              "internalType": "int256",
              "name": "basePnlUsd",
              "type": "int256"
            },
            {
              "internalType": "int256",
              "name": "uncappedBasePnlUsd",
              "type": "int256"
            },
            {
              "internalType": "int256",
              "name": "pnlAfterPriceImpactUsd",
              "type": "int256"
            }
          ],
          "internalType": "struct ReaderUtils.PositionInfo[]",
          "name": "",
          "type": "tuple[]"
        }
      ],
      "stateMutability": "view",
      "type": "function"
    },
    {
      "inputs": [
        {
          "internalType": "contract DataStore",
          "name": "dataStore",
          "type": "address"
        },
        {
          "internalType": "address",
          "name": "account",
          "type": "address"
        },
        {
          "internalType": "uint256",
          "name": "start",
          "type": "uint256"
        },
        {
          "internalType": "uint256",
          "name": "end",
          "type": "uint256"
        }
      ],
      "name": "getAccountPositions",
      "outputs": [
        {
          "components": [
            {
              "components": [
                {
                  "internalType": "address",
                  "name": "account",
                  "type": "address"
                },
                {
                  "internalType": "address",
                  "name": "market",
                  "type": "address"
                },
                {
                  "internalType": "address",
                  "name": "collateralToken",
                  "type": "address"
                }
              ],
              "internalType": "struct Position.Addresses",
              "name": "addresses",
              "type": "tuple"
            },
            {
              "components": [
                {
                  "internalType": "uint256",
                  "name": "sizeInUsd",
                  "type": "uint256"
                },
                {
                  "internalType": "uint256",
                  "name": "sizeInTokens",
                  "type": "uint256"
                },
                {
                  "internalType": "uint256",
                  "name": "collateralAmount",
                  "type": "uint256"
                },
                {
                  "internalType": "uint256",
                  "name": "borrowingFactor",
                  "type": "uint256"
                },
                {
                  "internalType": "uint256",
                  "name": "fundingFeeAmountPerSize",
                  "type": "uint256"
                },
                {
                  "internalType": "uint256",
                  "name": "longTokenClaimableFundingAmountPerSize",
                  "type": "uint256"
                },
                {
                  "internalType": "uint256",
                  "name": "shortTokenClaimableFundingAmountPerSize",
                  "type": "uint256"
                },
                {
                  "internalType": "uint256",
                  "name": "increasedAtBlock",
                  "type": "uint256"
                },
                {
                  "internalType": "uint256",
                  "name": "decreasedAtBlock",
                  "type": "uint256"
                },
                {
                  "internalType": "uint256",
                  "name": "increasedAtTime",
                  "type": "uint256"
                },
                {
                  "internalType": "uint256",
                  "name": "decreasedAtTime",
                  "type": "uint256"
                }
              ],
              "internalType": "struct Position.Numbers",
              "name": "numbers",
              "type": "tuple"
            },
            {
              "components": [
                {
                  "internalType": "bool",
                  "name": "isLong",
                  "type": "bool"
                }
              ],
              "internalType": "struct Position.Flags",
              "name": "flags",
              "type": "tuple"
            }
          ],
          "internalType": "struct Position.Props[]",
          "name": "",
          "type": "tuple[]"
        }
      ],
      "stateMutability": "view",
      "type": "function"
    },
    {
      "inputs": [
        {
          "internalType": "contract DataStore",
          "name": "dataStore",
          "type": "address"
        },
        {
          "internalType": "address",
          "name": "market",
          "type": "address"
        },
        {
          "internalType": "bool",
          "name": "isLong",
          "type": "bool"
        },
        {
          "components": [
            {
              "components": [
                {
                  "internalType": "uint256",
                  "name": "min",
                  "type": "uint256"
                },
                {
                  "internalType": "uint256",
                  "name": "max",
                  "type": "uint256"
                }
              ],
              "internalType": "struct Price.Props",
              "name": "indexTokenPrice",
              "type": "tuple"
            },
            {
              "components": [
                {
                  "internalType": "uint256",
                  "name": "min",
                  "type": "uint256"
                },
                {
                  "internalType": "uint256",
                  "name": "max",
                  "type": "uint256"
                }
              ],
              "internalType": "struct Price.Props",
              "name": "longTokenPrice",
              "type": "tuple"
            },
            {
              "components": [
                {
                  "internalType": "uint256",
                  "name": "min",
                  "type": "uint256"
                },
                {
                  "internalType": "uint256",
                  "name": "max",
                  "type": "uint256"
                }
              ],
              "internalType": "struct Price.Props",
              "name": "shortTokenPrice",
              "type": "tuple"
            }
          ],
          "internalType": "struct MarketUtils.MarketPrices",
          "name": "prices",
          "type": "tuple"
        }
      ],
      "name": "getAdlState",
      "outputs": [
        {
          "internalType": "uint256",
          "name": "",
          "type": "uint256"
        },
        {
          "internalType": "bool",
          "name": "",
          "type": "bool"
        },
        {
          "internalType": "int256",
          "name": "",
          "type": "int256"
        },
        {
          "internalType": "uint256",
          "name": "",
          "type": "uint256"
        }
      ],
      "stateMutability": "view",
      "type": "function"
    },
    {
      "inputs": [
        {
          "internalType": "contract DataStore",
          "name": "dataStore",
          "type": "address"
        },
        {
          "internalType": "bytes32",
          "name": "key",
          "type": "bytes32"
        }
      ],
      "name": "getDeposit",
      "outputs": [
        {
          "components": [
            {
              "components": [
                {
                  "internalType": "address",
                  "name": "account",
                  "type": "address"
                },
                {
                  "internalType": "address",
                  "name": "receiver",
                  "type": "address"
                },
                {
                  "internalType": "address",
                  "name": "callbackContract",
                  "type": "address"
                },
                {
                  "internalType": "address",
                  "name": "uiFeeReceiver",
                  "type": "address"
                },
                {
                  "internalType": "address",
                  "name": "market",
                  "type": "address"
                },
                {
                  "internalType": "address",
                  "name": "initialLongToken",
                  "type": "address"
                },
                {
                  "internalType": "address",
                  "name": "initialShortToken",
                  "type": "address"
                },
                {
                  "internalType": "address[]",
                  "name": "longTokenSwapPath",
                  "type": "address[]"
                },
                {
                  "internalType": "address[]",
                  "name": "shortTokenSwapPath",
                  "type": "address[]"
                }
              ],
              "internalType": "struct Deposit.Addresses",
              "name": "addresses",
              "type": "tuple"
            },
            {
              "components": [
                {
                  "internalType": "uint256",
                  "name": "initialLongTokenAmount",
                  "type": "uint256"
                },
                {
                  "internalType": "uint256",
                  "name": "initialShortTokenAmount",
                  "type": "uint256"
                },
                {
                  "internalType": "uint256",
                  "name": "minMarketTokens",
                  "type": "uint256"
                },
                {
                  "internalType": "uint256",
                  "name": "updatedAtBlock",
                  "type": "uint256"
                },
                {
                  "internalType": "uint256",
                  "name": "updatedAtTime",
                  "type": "uint256"
                },
                {
                  "internalType": "uint256",
                  "name": "executionFee",
                  "type": "uint256"
                },
                {
                  "internalType": "uint256",
                  "name": "callbackGasLimit",
                  "type": "uint256"
                }
              ],
              "internalType": "struct Deposit.Numbers",
              "name": "numbers",
              "type": "tuple"
            },
            {
              "components": [
                {
                  "internalType": "bool",
                  "name": "shouldUnwrapNativeToken",
                  "type": "bool"
                }
              ],
              "internalType": "struct Deposit.Flags",
              "name": "flags",
              "type": "tuple"
            }
          ],
          "internalType": "struct Deposit.Props",
          "name": "",
          "type": "tuple"
        }
      ],
      "stateMutability": "view",
      "type": "function"
    },
    {
      "inputs": [
        {
          "internalType": "contract DataStore",
          "name": "dataStore",
          "type": "address"
        },
        {
          "components": [
            {
              "internalType": "address",
              "name": "marketToken",
              "type": "address"
            },
            {
              "internalType": "address",
              "name": "indexToken",
              "type": "address"
            },
            {
              "internalType": "address",
              "name": "longToken",
              "type": "address"
            },
            {
              "internalType": "address",
              "name": "shortToken",
              "type": "address"
            }
          ],
          "internalType": "struct Market.Props",
          "name": "market",
          "type": "tuple"
        },
        {
          "components": [
            {
              "components": [
                {
                  "internalType": "uint256",
                  "name": "min",
                  "type": "uint256"
                },
                {
                  "internalType": "uint256",
                  "name": "max",
                  "type": "uint256"
                }
              ],
              "internalType": "struct Price.Props",
              "name": "indexTokenPrice",
              "type": "tuple"
            },
            {
              "components": [
                {
                  "internalType": "uint256",
                  "name": "min",
                  "type": "uint256"
                },
                {
                  "internalType": "uint256",
                  "name": "max",
                  "type": "uint256"
                }
              ],
              "internalType": "struct Price.Props",
              "name": "longTokenPrice",
              "type": "tuple"
            },
            {
              "components": [
                {
                  "internalType": "uint256",
                  "name": "min",
                  "type": "uint256"
                },
                {
                  "internalType": "uint256",
                  "name": "max",
                  "type": "uint256"
                }
              ],
              "internalType": "struct Price.Props",
              "name": "shortTokenPrice",
              "type": "tuple"
            }
          ],
          "internalType": "struct MarketUtils.MarketPrices",
          "name": "prices",
          "type": "tuple"
        },
        {
          "internalType": "uint256",
          "name": "longTokenAmount",
          "type": "uint256"
        },
        {
          "internalType": "uint256",
          "name": "shortTokenAmount",
          "type": "uint256"
        },
        {
          "internalType": "address",
          "name": "uiFeeReceiver",
          "type": "address"
        }
      ],
      "name": "getDepositAmountOut",
      "outputs": [
        {
          "internalType": "uint256",
          "name": "",
          "type": "uint256"
        }
      ],
      "stateMutability": "view",
      "type": "function"
    },
    {
      "inputs": [
        {
          "internalType": "contract DataStore",
          "name": "dataStore",
          "type": "address"
        },
        {
          "internalType": "address",
          "name": "marketKey",
          "type": "address"
        },
        {
          "components": [
            {
              "internalType": "uint256",
              "name": "min",
              "type": "uint256"
            },
            {
              "internalType": "uint256",
              "name": "max",
              "type": "uint256"
            }
          ],
          "internalType": "struct Price.Props",
          "name": "indexTokenPrice",
          "type": "tuple"
        },
        {
          "internalType": "uint256",
          "name": "positionSizeInUsd",
          "type": "uint256"
        },
        {
          "internalType": "uint256",
          "name": "positionSizeInTokens",
          "type": "uint256"
        },
        {
          "internalType": "int256",
          "name": "sizeDeltaUsd",
          "type": "int256"
        },
        {
          "internalType": "bool",
          "name": "isLong",
          "type": "bool"
        }
      ],
      "name": "getExecutionPrice",
      "outputs": [
        {
          "components": [
            {
              "internalType": "int256",
              "name": "priceImpactUsd",
              "type": "int256"
            },
            {
              "internalType": "uint256",
              "name": "priceImpactDiffUsd",
              "type": "uint256"
            },
            {
              "internalType": "uint256",
              "name": "executionPrice",
              "type": "uint256"
            }
          ],
          "internalType": "struct ReaderPricingUtils.ExecutionPriceResult",
          "name": "",
          "type": "tuple"
        }
      ],
      "stateMutability": "view",
      "type": "function"
    },
    {
      "inputs": [
        {
          "internalType": "contract DataStore",
          "name": "dataStore",
          "type": "address"
        },
        {
          "internalType": "address",
          "name": "key",
          "type": "address"
        }
      ],
      "name": "getMarket",
      "outputs": [
        {
          "components": [
            {
              "internalType": "address",
              "name": "marketToken",
              "type": "address"
            },
            {
              "internalType": "address",
              "name": "indexToken",
              "type": "address"
            },
            {
              "internalType": "address",
              "name": "longToken",
              "type": "address"
            },
            {
              "internalType": "address",
              "name": "shortToken",
              "type": "address"
            }
          ],
          "internalType": "struct Market.Props",
          "name": "",
          "type": "tuple"
        }
      ],
      "stateMutability": "view",
      "type": "function"
    },
    {
      "inputs": [
        {
          "internalType": "contract DataStore",
          "name": "dataStore",
          "type": "address"
        },
        {
          "internalType": "bytes32",
          "name": "salt",
          "type": "bytes32"
        }
      ],
      "name": "getMarketBySalt",
      "outputs": [
        {
          "components": [
            {
              "internalType": "address",
              "name": "marketToken",
              "type": "address"
            },
            {
              "internalType": "address",
              "name": "indexToken",
              "type": "address"
            },
            {
              "internalType": "address",
              "name": "longToken",
              "type": "address"
            },
            {
              "internalType": "address",
              "name": "shortToken",
              "type": "address"
            }
          ],
          "internalType": "struct Market.Props",
          "name": "",
          "type": "tuple"
        }
      ],
      "stateMutability": "view",
      "type": "function"
    },
    {
      "inputs": [
        {
          "internalType": "contract DataStore",
          "name": "dataStore",
          "type": "address"
        },
        {
          "components": [
            {
              "components": [
                {
                  "internalType": "uint256",
                  "name": "min",
                  "type": "uint256"
                },
                {
                  "internalType": "uint256",
                  "name": "max",
                  "type": "uint256"
                }
              ],
              "internalType": "struct Price.Props",
              "name": "indexTokenPrice",
              "type": "tuple"
            },
            {
              "components": [
                {
                  "internalType": "uint256",
                  "name": "min",
                  "type": "uint256"
                },
                {
                  "internalType": "uint256",
                  "name": "max",
                  "type": "uint256"
                }
              ],
              "internalType": "struct Price.Props",
              "name": "longTokenPrice",
              "type": "tuple"
            },
            {
              "components": [
                {
                  "internalType": "uint256",
                  "name": "min",
                  "type": "uint256"
                },
                {
                  "internalType": "uint256",
                  "name": "max",
                  "type": "uint256"
                }
              ],
              "internalType": "struct Price.Props",
              "name": "shortTokenPrice",
              "type": "tuple"
            }
          ],
          "internalType": "struct MarketUtils.MarketPrices",
          "name": "prices",
          "type": "tuple"
        },
        {
          "internalType": "address",
          "name": "marketKey",
          "type": "address"
        }
      ],
      "name": "getMarketInfo",
      "outputs": [
        {
          "components": [
            {
              "components": [
                {
                  "internalType": "address",
                  "name": "marketToken",
                  "type": "address"
                },
                {
                  "internalType": "address",
                  "name": "indexToken",
                  "type": "address"
                },
                {
                  "internalType": "address",
                  "name": "longToken",
                  "type": "address"
                },
                {
                  "internalType": "address",
                  "name": "shortToken",
                  "type": "address"
                }
              ],
              "internalType": "struct Market.Props",
              "name": "market",
              "type": "tuple"
            },
            {
              "internalType": "uint256",
              "name": "borrowingFactorPerSecondForLongs",
              "type": "uint256"
            },
            {
              "internalType": "uint256",
              "name": "borrowingFactorPerSecondForShorts",
              "type": "uint256"
            },
            {
              "components": [
                {
                  "components": [
                    {
                      "components": [
                        {
                          "internalType": "uint256",
                          "name": "longToken",
                          "type": "uint256"
                        },
                        {
                          "internalType": "uint256",
                          "name": "shortToken",
                          "type": "uint256"
                        }
                      ],
                      "internalType": "struct MarketUtils.CollateralType",
                      "name": "long",
                      "type": "tuple"
                    },
                    {
                      "components": [
                        {
                          "internalType": "uint256",
                          "name": "longToken",
                          "type": "uint256"
                        },
                        {
                          "internalType": "uint256",
                          "name": "shortToken",
                          "type": "uint256"
                        }
                      ],
                      "internalType": "struct MarketUtils.CollateralType",
                      "name": "short",
                      "type": "tuple"
                    }
                  ],
                  "internalType": "struct MarketUtils.PositionType",
                  "name": "fundingFeeAmountPerSize",
                  "type": "tuple"
                },
                {
                  "components": [
                    {
                      "components": [
                        {
                          "internalType": "uint256",
                          "name": "longToken",
                          "type": "uint256"
                        },
                        {
                          "internalType": "uint256",
                          "name": "shortToken",
                          "type": "uint256"
                        }
                      ],
                      "internalType": "struct MarketUtils.CollateralType",
                      "name": "long",
                      "type": "tuple"
                    },
                    {
                      "components": [
                        {
                          "internalType": "uint256",
                          "name": "longToken",
                          "type": "uint256"
                        },
                        {
                          "internalType": "uint256",
                          "name": "shortToken",
                          "type": "uint256"
                        }
                      ],
                      "internalType": "struct MarketUtils.CollateralType",
                      "name": "short",
                      "type": "tuple"
                    }
                  ],
                  "internalType": "struct MarketUtils.PositionType",
                  "name": "claimableFundingAmountPerSize",
                  "type": "tuple"
                }
              ],
              "internalType": "struct ReaderUtils.BaseFundingValues",
              "name": "baseFunding",
              "type": "tuple"
            },
            {
              "components": [
                {
                  "internalType": "bool",
                  "name": "longsPayShorts",
                  "type": "bool"
                },
                {
                  "internalType": "uint256",
                  "name": "fundingFactorPerSecond",
                  "type": "uint256"
                },
                {
                  "internalType": "int256",
                  "name": "nextSavedFundingFactorPerSecond",
                  "type": "int256"
                },
                {
                  "components": [
                    {
                      "components": [
                        {
                          "internalType": "uint256",
                          "name": "longToken",
                          "type": "uint256"
                        },
                        {
                          "internalType": "uint256",
                          "name": "shortToken",
                          "type": "uint256"
                        }
                      ],
                      "internalType": "struct MarketUtils.CollateralType",
                      "name": "long",
                      "type": "tuple"
                    },
                    {
                      "components": [
                        {
                          "internalType": "uint256",
                          "name": "longToken",
                          "type": "uint256"
                        },
                        {
                          "internalType": "uint256",
                          "name": "shortToken",
                          "type": "uint256"
                        }
                      ],
                      "internalType": "struct MarketUtils.CollateralType",
                      "name": "short",
                      "type": "tuple"
                    }
                  ],
                  "internalType": "struct MarketUtils.PositionType",
                  "name": "fundingFeeAmountPerSizeDelta",
                  "type": "tuple"
                },
                {
                  "components": [
                    {
                      "components": [
                        {
                          "internalType": "uint256",
                          "name": "longToken",
                          "type": "uint256"
                        },
                        {
                          "internalType": "uint256",
                          "name": "shortToken",
                          "type": "uint256"
                        }
                      ],
                      "internalType": "struct MarketUtils.CollateralType",
                      "name": "long",
                      "type": "tuple"
                    },
                    {
                      "components": [
                        {
                          "internalType": "uint256",
                          "name": "longToken",
                          "type": "uint256"
                        },
                        {
                          "internalType": "uint256",
                          "name": "shortToken",
                          "type": "uint256"
                        }
                      ],
                      "internalType": "struct MarketUtils.CollateralType",
                      "name": "short",
                      "type": "tuple"
                    }
                  ],
                  "internalType": "struct MarketUtils.PositionType",
                  "name": "claimableFundingAmountPerSizeDelta",
                  "type": "tuple"
                }
              ],
              "internalType": "struct MarketUtils.GetNextFundingAmountPerSizeResult",
              "name": "nextFunding",
              "type": "tuple"
            },
            {
              "components": [
                {
                  "internalType": "uint256",
                  "name": "virtualPoolAmountForLongToken",
                  "type": "uint256"
                },
                {
                  "internalType": "uint256",
                  "name": "virtualPoolAmountForShortToken",
                  "type": "uint256"
                },
                {
                  "internalType": "int256",
                  "name": "virtualInventoryForPositions",
                  "type": "int256"
                }
              ],
              "internalType": "struct ReaderUtils.VirtualInventory",
              "name": "virtualInventory",
              "type": "tuple"
            },
            {
              "internalType": "bool",
              "name": "isDisabled",
              "type": "bool"
            }
          ],
          "internalType": "struct ReaderUtils.MarketInfo",
          "name": "",
          "type": "tuple"
        }
      ],
      "stateMutability": "view",
      "type": "function"
    },
    {
      "inputs": [
        {
          "internalType": "contract DataStore",
          "name": "dataStore",
          "type": "address"
        },
        {
          "components": [
            {
              "components": [
                {
                  "internalType": "uint256",
                  "name": "min",
                  "type": "uint256"
                },
                {
                  "internalType": "uint256",
                  "name": "max",
                  "type": "uint256"
                }
              ],
              "internalType": "struct Price.Props",
              "name": "indexTokenPrice",
              "type": "tuple"
            },
            {
              "components": [
                {
                  "internalType": "uint256",
                  "name": "min",
                  "type": "uint256"
                },
                {
                  "internalType": "uint256",
                  "name": "max",
                  "type": "uint256"
                }
              ],
              "internalType": "struct Price.Props",
              "name": "longTokenPrice",
              "type": "tuple"
            },
            {
              "components": [
                {
                  "internalType": "uint256",
                  "name": "min",
                  "type": "uint256"
                },
                {
                  "internalType": "uint256",
                  "name": "max",
                  "type": "uint256"
                }
              ],
              "internalType": "struct Price.Props",
              "name": "shortTokenPrice",
              "type": "tuple"
            }
          ],
          "internalType": "struct MarketUtils.MarketPrices[]",
          "name": "marketPricesList",
          "type": "tuple[]"
        },
        {
          "internalType": "uint256",
          "name": "start",
          "type": "uint256"
        },
        {
          "internalType": "uint256",
          "name": "end",
          "type": "uint256"
        }
      ],
      "name": "getMarketInfoList",
      "outputs": [
        {
          "components": [
            {
              "components": [
                {
                  "internalType": "address",
                  "name": "marketToken",
                  "type": "address"
                },
                {
                  "internalType": "address",
                  "name": "indexToken",
                  "type": "address"
                },
                {
                  "internalType": "address",
                  "name": "longToken",
                  "type": "address"
                },
                {
                  "internalType": "address",
                  "name": "shortToken",
                  "type": "address"
                }
              ],
              "internalType": "struct Market.Props",
              "name": "market",
              "type": "tuple"
            },
            {
              "internalType": "uint256",
              "name": "borrowingFactorPerSecondForLongs",
              "type": "uint256"
            },
            {
              "internalType": "uint256",
              "name": "borrowingFactorPerSecondForShorts",
              "type": "uint256"
            },
            {
              "components": [
                {
                  "components": [
                    {
                      "components": [
                        {
                          "internalType": "uint256",
                          "name": "longToken",
                          "type": "uint256"
                        },
                        {
                          "internalType": "uint256",
                          "name": "shortToken",
                          "type": "uint256"
                        }
                      ],
                      "internalType": "struct MarketUtils.CollateralType",
                      "name": "long",
                      "type": "tuple"
                    },
                    {
                      "components": [
                        {
                          "internalType": "uint256",
                          "name": "longToken",
                          "type": "uint256"
                        },
                        {
                          "internalType": "uint256",
                          "name": "shortToken",
                          "type": "uint256"
                        }
                      ],
                      "internalType": "struct MarketUtils.CollateralType",
                      "name": "short",
                      "type": "tuple"
                    }
                  ],
                  "internalType": "struct MarketUtils.PositionType",
                  "name": "fundingFeeAmountPerSize",
                  "type": "tuple"
                },
                {
                  "components": [
                    {
                      "components": [
                        {
                          "internalType": "uint256",
                          "name": "longToken",
                          "type": "uint256"
                        },
                        {
                          "internalType": "uint256",
                          "name": "shortToken",
                          "type": "uint256"
                        }
                      ],
                      "internalType": "struct MarketUtils.CollateralType",
                      "name": "long",
                      "type": "tuple"
                    },
                    {
                      "components": [
                        {
                          "internalType": "uint256",
                          "name": "longToken",
                          "type": "uint256"
                        },
                        {
                          "internalType": "uint256",
                          "name": "shortToken",
                          "type": "uint256"
                        }
                      ],
                      "internalType": "struct MarketUtils.CollateralType",
                      "name": "short",
                      "type": "tuple"
                    }
                  ],
                  "internalType": "struct MarketUtils.PositionType",
                  "name": "claimableFundingAmountPerSize",
                  "type": "tuple"
                }
              ],
              "internalType": "struct ReaderUtils.BaseFundingValues",
              "name": "baseFunding",
              "type": "tuple"
            },
            {
              "components": [
                {
                  "internalType": "bool",
                  "name": "longsPayShorts",
                  "type": "bool"
                },
                {
                  "internalType": "uint256",
                  "name": "fundingFactorPerSecond",
                  "type": "uint256"
                },
                {
                  "internalType": "int256",
                  "name": "nextSavedFundingFactorPerSecond",
                  "type": "int256"
                },
                {
                  "components": [
                    {
                      "components": [
                        {
                          "internalType": "uint256",
                          "name": "longToken",
                          "type": "uint256"
                        },
                        {
                          "internalType": "uint256",
                          "name": "shortToken",
                          "type": "uint256"
                        }
                      ],
                      "internalType": "struct MarketUtils.CollateralType",
                      "name": "long",
                      "type": "tuple"
                    },
                    {
                      "components": [
                        {
                          "internalType": "uint256",
                          "name": "longToken",
                          "type": "uint256"
                        },
                        {
                          "internalType": "uint256",
                          "name": "shortToken",
                          "type": "uint256"
                        }
                      ],
                      "internalType": "struct MarketUtils.CollateralType",
                      "name": "short",
                      "type": "tuple"
                    }
                  ],
                  "internalType": "struct MarketUtils.PositionType",
                  "name": "fundingFeeAmountPerSizeDelta",
                  "type": "tuple"
                },
                {
                  "components": [
                    {
                      "components": [
                        {
                          "internalType": "uint256",
                          "name": "longToken",
                          "type": "uint256"
                        },
                        {
                          "internalType": "uint256",
                          "name": "shortToken",
                          "type": "uint256"
                        }
                      ],
                      "internalType": "struct MarketUtils.CollateralType",
                      "name": "long",
                      "type": "tuple"
                    },
                    {
                      "components": [
                        {
                          "internalType": "uint256",
                          "name": "longToken",
                          "type": "uint256"
                        },
                        {
                          "internalType": "uint256",
                          "name": "shortToken",
                          "type": "uint256"
                        }
                      ],
                      "internalType": "struct MarketUtils.CollateralType",
                      "name": "short",
                      "type": "tuple"
                    }
                  ],
                  "internalType": "struct MarketUtils.PositionType",
                  "name": "claimableFundingAmountPerSizeDelta",
                  "type": "tuple"
                }
              ],
              "internalType": "struct MarketUtils.GetNextFundingAmountPerSizeResult",
              "name": "nextFunding",
              "type": "tuple"
            },
            {
              "components": [
                {
                  "internalType": "uint256",
                  "name": "virtualPoolAmountForLongToken",
                  "type": "uint256"
                },
                {
                  "internalType": "uint256",
                  "name": "virtualPoolAmountForShortToken",
                  "type": "uint256"
                },
                {
                  "internalType": "int256",
                  "name": "virtualInventoryForPositions",
                  "type": "int256"
                }
              ],
              "internalType": "struct ReaderUtils.VirtualInventory",
              "name": "virtualInventory",
              "type": "tuple"
            },
            {
              "internalType": "bool",
              "name": "isDisabled",
              "type": "bool"
            }
          ],
          "internalType": "struct ReaderUtils.MarketInfo[]",
          "name": "",
          "type": "tuple[]"
        }
      ],
      "stateMutability": "view",
      "type": "function"
    },
    {
      "inputs": [
        {
          "internalType": "contract DataStore",
          "name": "dataStore",
          "type": "address"
        },
        {
          "components": [
            {
              "internalType": "address",
              "name": "marketToken",
              "type": "address"
            },
            {
              "internalType": "address",
              "name": "indexToken",
              "type": "address"
            },
            {
              "internalType": "address",
              "name": "longToken",
              "type": "address"
            },
            {
              "internalType": "address",
              "name": "shortToken",
              "type": "address"
            }
          ],
          "internalType": "struct Market.Props",
          "name": "market",
          "type": "tuple"
        },
        {
          "components": [
            {
              "internalType": "uint256",
              "name": "min",
              "type": "uint256"
            },
            {
              "internalType": "uint256",
              "name": "max",
              "type": "uint256"
            }
          ],
          "internalType": "struct Price.Props",
          "name": "indexTokenPrice",
          "type": "tuple"
        },
        {
          "components": [
            {
              "internalType": "uint256",
              "name": "min",
              "type": "uint256"
            },
            {
              "internalType": "uint256",
              "name": "max",
              "type": "uint256"
            }
          ],
          "internalType": "struct Price.Props",
          "name": "longTokenPrice",
          "type": "tuple"
        },
        {
          "components": [
            {
              "internalType": "uint256",
              "name": "min",
              "type": "uint256"
            },
            {
              "internalType": "uint256",
              "name": "max",
              "type": "uint256"
            }
          ],
          "internalType": "struct Price.Props",
          "name": "shortTokenPrice",
          "type": "tuple"
        },
        {
          "internalType": "bytes32",
          "name": "pnlFactorType",
          "type": "bytes32"
        },
        {
          "internalType": "bool",
          "name": "maximize",
          "type": "bool"
        }
      ],
      "name": "getMarketTokenPrice",
      "outputs": [
        {
          "internalType": "int256",
          "name": "",
          "type": "int256"
        },
        {
          "components": [
            {
              "internalType": "int256",
              "name": "poolValue",
              "type": "int256"
            },
            {
              "internalType": "int256",
              "name": "longPnl",
              "type": "int256"
            },
            {
              "internalType": "int256",
              "name": "shortPnl",
              "type": "int256"
            },
            {
              "internalType": "int256",
              "name": "netPnl",
              "type": "int256"
            },
            {
              "internalType": "uint256",
              "name": "longTokenAmount",
              "type": "uint256"
            },
            {
              "internalType": "uint256",
              "name": "shortTokenAmount",
              "type": "uint256"
            },
            {
              "internalType": "uint256",
              "name": "longTokenUsd",
              "type": "uint256"
            },
            {
              "internalType": "uint256",
              "name": "shortTokenUsd",
              "type": "uint256"
            },
            {
              "internalType": "uint256",
              "name": "totalBorrowingFees",
              "type": "uint256"
            },
            {
              "internalType": "uint256",
              "name": "borrowingFeePoolFactor",
              "type": "uint256"
            },
            {
              "internalType": "uint256",
              "name": "impactPoolAmount",
              "type": "uint256"
            }
          ],
          "internalType": "struct MarketPoolValueInfo.Props",
          "name": "",
          "type": "tuple"
        }
      ],
      "stateMutability": "view",
      "type": "function"
    },
    {
      "inputs": [
        {
          "internalType": "contract DataStore",
          "name": "dataStore",
          "type": "address"
        },
        {
          "internalType": "uint256",
          "name": "start",
          "type": "uint256"
        },
        {
          "internalType": "uint256",
          "name": "end",
          "type": "uint256"
        }
      ],
      "name": "getMarkets",
      "outputs": [
        {
          "components": [
            {
              "internalType": "address",
              "name": "marketToken",
              "type": "address"
            },
            {
              "internalType": "address",
              "name": "indexToken",
              "type": "address"
            },
            {
              "internalType": "address",
              "name": "longToken",
              "type": "address"
            },
            {
              "internalType": "address",
              "name": "shortToken",
              "type": "address"
            }
          ],
          "internalType": "struct Market.Props[]",
          "name": "",
          "type": "tuple[]"
        }
      ],
      "stateMutability": "view",
      "type": "function"
    },
    {
      "inputs": [
        {
          "internalType": "contract DataStore",
          "name": "dataStore",
          "type": "address"
        },
        {
          "components": [
            {
              "internalType": "address",
              "name": "marketToken",
              "type": "address"
            },
            {
              "internalType": "address",
              "name": "indexToken",
              "type": "address"
            },
            {
              "internalType": "address",
              "name": "longToken",
              "type": "address"
            },
            {
              "internalType": "address",
              "name": "shortToken",
              "type": "address"
            }
          ],
          "internalType": "struct Market.Props",
          "name": "market",
          "type": "tuple"
        },
        {
          "components": [
            {
              "internalType": "uint256",
              "name": "min",
              "type": "uint256"
            },
            {
              "internalType": "uint256",
              "name": "max",
              "type": "uint256"
            }
          ],
          "internalType": "struct Price.Props",
          "name": "indexTokenPrice",
          "type": "tuple"
        },
        {
          "internalType": "bool",
          "name": "maximize",
          "type": "bool"
        }
      ],
      "name": "getNetPnl",
      "outputs": [
        {
          "internalType": "int256",
          "name": "",
          "type": "int256"
        }
      ],
      "stateMutability": "view",
      "type": "function"
    },
    {
      "inputs": [
        {
          "internalType": "contract DataStore",
          "name": "dataStore",
          "type": "address"
        },
        {
          "components": [
            {
              "internalType": "address",
              "name": "marketToken",
              "type": "address"
            },
            {
              "internalType": "address",
              "name": "indexToken",
              "type": "address"
            },
            {
              "internalType": "address",
              "name": "longToken",
              "type": "address"
            },
            {
              "internalType": "address",
              "name": "shortToken",
              "type": "address"
            }
          ],
          "internalType": "struct Market.Props",
          "name": "market",
          "type": "tuple"
        },
        {
          "components": [
            {
              "internalType": "uint256",
              "name": "min",
              "type": "uint256"
            },
            {
              "internalType": "uint256",
              "name": "max",
              "type": "uint256"
            }
          ],
          "internalType": "struct Price.Props",
          "name": "indexTokenPrice",
          "type": "tuple"
        },
        {
          "internalType": "bool",
          "name": "isLong",
          "type": "bool"
        },
        {
          "internalType": "bool",
          "name": "maximize",
          "type": "bool"
        }
      ],
      "name": "getOpenInterestWithPnl",
      "outputs": [
        {
          "internalType": "int256",
          "name": "",
          "type": "int256"
        }
      ],
      "stateMutability": "view",
      "type": "function"
    },
    {
      "inputs": [
        {
          "internalType": "contract DataStore",
          "name": "dataStore",
          "type": "address"
        },
        {
          "internalType": "bytes32",
          "name": "key",
          "type": "bytes32"
        }
      ],
      "name": "getOrder",
      "outputs": [
        {
          "components": [
            {
              "components": [
                {
                  "internalType": "address",
                  "name": "account",
                  "type": "address"
                },
                {
                  "internalType": "address",
                  "name": "receiver",
                  "type": "address"
                },
                {
                  "internalType": "address",
                  "name": "callbackContract",
                  "type": "address"
                },
                {
                  "internalType": "address",
                  "name": "uiFeeReceiver",
                  "type": "address"
                },
                {
                  "internalType": "address",
                  "name": "market",
                  "type": "address"
                },
                {
                  "internalType": "address",
                  "name": "initialCollateralToken",
                  "type": "address"
                },
                {
                  "internalType": "address[]",
                  "name": "swapPath",
                  "type": "address[]"
                }
              ],
              "internalType": "struct Order.Addresses",
              "name": "addresses",
              "type": "tuple"
            },
            {
              "components": [
                {
                  "internalType": "enum Order.OrderType",
                  "name": "orderType",
                  "type": "uint8"
                },
                {
                  "internalType": "enum Order.DecreasePositionSwapType",
                  "name": "decreasePositionSwapType",
                  "type": "uint8"
                },
                {
                  "internalType": "uint256",
                  "name": "sizeDeltaUsd",
                  "type": "uint256"
                },
                {
                  "internalType": "uint256",
                  "name": "initialCollateralDeltaAmount",
                  "type": "uint256"
                },
                {
                  "internalType": "uint256",
                  "name": "triggerPrice",
                  "type": "uint256"
                },
                {
                  "internalType": "uint256",
                  "name": "acceptablePrice",
                  "type": "uint256"
                },
                {
                  "internalType": "uint256",
                  "name": "executionFee",
                  "type": "uint256"
                },
                {
                  "internalType": "uint256",
                  "name": "callbackGasLimit",
                  "type": "uint256"
                },
                {
                  "internalType": "uint256",
                  "name": "minOutputAmount",
                  "type": "uint256"
                },
                {
                  "internalType": "uint256",
                  "name": "updatedAtBlock",
                  "type": "uint256"
                },
                {
                  "internalType": "uint256",
                  "name": "updatedAtTime",
                  "type": "uint256"
                }
              ],
              "internalType": "struct Order.Numbers",
              "name": "numbers",
              "type": "tuple"
            },
            {
              "components": [
                {
                  "internalType": "bool",
                  "name": "isLong",
                  "type": "bool"
                },
                {
                  "internalType": "bool",
                  "name": "shouldUnwrapNativeToken",
                  "type": "bool"
                },
                {
                  "internalType": "bool",
                  "name": "isFrozen",
                  "type": "bool"
                },
                {
                  "internalType": "bool",
                  "name": "autoCancel",
                  "type": "bool"
                }
              ],
              "internalType": "struct Order.Flags",
              "name": "flags",
              "type": "tuple"
            }
          ],
          "internalType": "struct Order.Props",
          "name": "",
          "type": "tuple"
        }
      ],
      "stateMutability": "view",
      "type": "function"
    },
    {
      "inputs": [
        {
          "internalType": "contract DataStore",
          "name": "dataStore",
          "type": "address"
        },
        {
          "components": [
            {
              "internalType": "address",
              "name": "marketToken",
              "type": "address"
            },
            {
              "internalType": "address",
              "name": "indexToken",
              "type": "address"
            },
            {
              "internalType": "address",
              "name": "longToken",
              "type": "address"
            },
            {
              "internalType": "address",
              "name": "shortToken",
              "type": "address"
            }
          ],
          "internalType": "struct Market.Props",
          "name": "market",
          "type": "tuple"
        },
        {
          "components": [
            {
              "internalType": "uint256",
              "name": "min",
              "type": "uint256"
            },
            {
              "internalType": "uint256",
              "name": "max",
              "type": "uint256"
            }
          ],
          "internalType": "struct Price.Props",
          "name": "indexTokenPrice",
          "type": "tuple"
        },
        {
          "internalType": "bool",
          "name": "isLong",
          "type": "bool"
        },
        {
          "internalType": "bool",
          "name": "maximize",
          "type": "bool"
        }
      ],
      "name": "getPnl",
      "outputs": [
        {
          "internalType": "int256",
          "name": "",
          "type": "int256"
        }
      ],
      "stateMutability": "view",
      "type": "function"
    },
    {
      "inputs": [
        {
          "internalType": "contract DataStore",
          "name": "dataStore",
          "type": "address"
        },
        {
          "internalType": "address",
          "name": "marketAddress",
          "type": "address"
        },
        {
          "components": [
            {
              "components": [
                {
                  "internalType": "uint256",
                  "name": "min",
                  "type": "uint256"
                },
                {
                  "internalType": "uint256",
                  "name": "max",
                  "type": "uint256"
                }
              ],
              "internalType": "struct Price.Props",
              "name": "indexTokenPrice",
              "type": "tuple"
            },
            {
              "components": [
                {
                  "internalType": "uint256",
                  "name": "min",
                  "type": "uint256"
                },
                {
                  "internalType": "uint256",
                  "name": "max",
                  "type": "uint256"
                }
              ],
              "internalType": "struct Price.Props",
              "name": "longTokenPrice",
              "type": "tuple"
            },
            {
              "components": [
                {
                  "internalType": "uint256",
                  "name": "min",
                  "type": "uint256"
                },
                {
                  "internalType": "uint256",
                  "name": "max",
                  "type": "uint256"
                }
              ],
              "internalType": "struct Price.Props",
              "name": "shortTokenPrice",
              "type": "tuple"
            }
          ],
          "internalType": "struct MarketUtils.MarketPrices",
          "name": "prices",
          "type": "tuple"
        },
        {
          "internalType": "bool",
          "name": "isLong",
          "type": "bool"
        },
        {
          "internalType": "bool",
          "name": "maximize",
          "type": "bool"
        }
      ],
      "name": "getPnlToPoolFactor",
      "outputs": [
        {
          "internalType": "int256",
          "name": "",
          "type": "int256"
        }
      ],
      "stateMutability": "view",
      "type": "function"
    },
    {
      "inputs": [
        {
          "internalType": "contract DataStore",
          "name": "dataStore",
          "type": "address"
        },
        {
          "internalType": "bytes32",
          "name": "key",
          "type": "bytes32"
        }
      ],
      "name": "getPosition",
      "outputs": [
        {
          "components": [
            {
              "components": [
                {
                  "internalType": "address",
                  "name": "account",
                  "type": "address"
                },
                {
                  "internalType": "address",
                  "name": "market",
                  "type": "address"
                },
                {
                  "internalType": "address",
                  "name": "collateralToken",
                  "type": "address"
                }
              ],
              "internalType": "struct Position.Addresses",
              "name": "addresses",
              "type": "tuple"
            },
            {
              "components": [
                {
                  "internalType": "uint256",
                  "name": "sizeInUsd",
                  "type": "uint256"
                },
                {
                  "internalType": "uint256",
                  "name": "sizeInTokens",
                  "type": "uint256"
                },
                {
                  "internalType": "uint256",
                  "name": "collateralAmount",
                  "type": "uint256"
                },
                {
                  "internalType": "uint256",
                  "name": "borrowingFactor",
                  "type": "uint256"
                },
                {
                  "internalType": "uint256",
                  "name": "fundingFeeAmountPerSize",
                  "type": "uint256"
                },
                {
                  "internalType": "uint256",
                  "name": "longTokenClaimableFundingAmountPerSize",
                  "type": "uint256"
                },
                {
                  "internalType": "uint256",
                  "name": "shortTokenClaimableFundingAmountPerSize",
                  "type": "uint256"
                },
                {
                  "internalType": "uint256",
                  "name": "increasedAtBlock",
                  "type": "uint256"
                },
                {
                  "internalType": "uint256",
                  "name": "decreasedAtBlock",
                  "type": "uint256"
                },
                {
                  "internalType": "uint256",
                  "name": "increasedAtTime",
                  "type": "uint256"
                },
                {
                  "internalType": "uint256",
                  "name": "decreasedAtTime",
                  "type": "uint256"
                }
              ],
              "internalType": "struct Position.Numbers",
              "name": "numbers",
              "type": "tuple"
            },
            {
              "components": [
                {
                  "internalType": "bool",
                  "name": "isLong",
                  "type": "bool"
                }
              ],
              "internalType": "struct Position.Flags",
              "name": "flags",
              "type": "tuple"
            }
          ],
          "internalType": "struct Position.Props",
          "name": "",
          "type": "tuple"
        }
      ],
      "stateMutability": "view",
      "type": "function"
    },
    {
      "inputs": [
        {
          "internalType": "contract DataStore",
          "name": "dataStore",
          "type": "address"
        },
        {
          "internalType": "contract IReferralStorage",
          "name": "referralStorage",
          "type": "address"
        },
        {
          "internalType": "bytes32",
          "name": "positionKey",
          "type": "bytes32"
        },
        {
          "components": [
            {
              "components": [
                {
                  "internalType": "uint256",
                  "name": "min",
                  "type": "uint256"
                },
                {
                  "internalType": "uint256",
                  "name": "max",
                  "type": "uint256"
                }
              ],
              "internalType": "struct Price.Props",
              "name": "indexTokenPrice",
              "type": "tuple"
            },
            {
              "components": [
                {
                  "internalType": "uint256",
                  "name": "min",
                  "type": "uint256"
                },
                {
                  "internalType": "uint256",
                  "name": "max",
                  "type": "uint256"
                }
              ],
              "internalType": "struct Price.Props",
              "name": "longTokenPrice",
              "type": "tuple"
            },
            {
              "components": [
                {
                  "internalType": "uint256",
                  "name": "min",
                  "type": "uint256"
                },
                {
                  "internalType": "uint256",
                  "name": "max",
                  "type": "uint256"
                }
              ],
              "internalType": "struct Price.Props",
              "name": "shortTokenPrice",
              "type": "tuple"
            }
          ],
          "internalType": "struct MarketUtils.MarketPrices",
          "name": "prices",
          "type": "tuple"
        },
        {
          "internalType": "uint256",
          "name": "sizeDeltaUsd",
          "type": "uint256"
        },
        {
          "internalType": "address",
          "name": "uiFeeReceiver",
          "type": "address"
        },
        {
          "internalType": "bool",
          "name": "usePositionSizeAsSizeDeltaUsd",
          "type": "bool"
        }
      ],
      "name": "getPositionInfo",
      "outputs": [
        {
          "components": [
            {
              "components": [
                {
                  "components": [
                    {
                      "internalType": "address",
                      "name": "account",
                      "type": "address"
                    },
                    {
                      "internalType": "address",
                      "name": "market",
                      "type": "address"
                    },
                    {
                      "internalType": "address",
                      "name": "collateralToken",
                      "type": "address"
                    }
                  ],
                  "internalType": "struct Position.Addresses",
                  "name": "addresses",
                  "type": "tuple"
                },
                {
                  "components": [
                    {
                      "internalType": "uint256",
                      "name": "sizeInUsd",
                      "type": "uint256"
                    },
                    {
                      "internalType": "uint256",
                      "name": "sizeInTokens",
                      "type": "uint256"
                    },
                    {
                      "internalType": "uint256",
                      "name": "collateralAmount",
                      "type": "uint256"
                    },
                    {
                      "internalType": "uint256",
                      "name": "borrowingFactor",
                      "type": "uint256"
                    },
                    {
                      "internalType": "uint256",
                      "name": "fundingFeeAmountPerSize",
                      "type": "uint256"
                    },
                    {
                      "internalType": "uint256",
                      "name": "longTokenClaimableFundingAmountPerSize",
                      "type": "uint256"
                    },
                    {
                      "internalType": "uint256",
                      "name": "shortTokenClaimableFundingAmountPerSize",
                      "type": "uint256"
                    },
                    {
                      "internalType": "uint256",
                      "name": "increasedAtBlock",
                      "type": "uint256"
                    },
                    {
                      "internalType": "uint256",
                      "name": "decreasedAtBlock",
                      "type": "uint256"
                    },
                    {
                      "internalType": "uint256",
                      "name": "increasedAtTime",
                      "type": "uint256"
                    },
                    {
                      "internalType": "uint256",
                      "name": "decreasedAtTime",
                      "type": "uint256"
                    }
                  ],
                  "internalType": "struct Position.Numbers",
                  "name": "numbers",
                  "type": "tuple"
                },
                {
                  "components": [
                    {
                      "internalType": "bool",
                      "name": "isLong",
                      "type": "bool"
                    }
                  ],
                  "internalType": "struct Position.Flags",
                  "name": "flags",
                  "type": "tuple"
                }
              ],
              "internalType": "struct Position.Props",
              "name": "position",
              "type": "tuple"
            },
            {
              "components": [
                {
                  "components": [
                    {
                      "internalType": "bytes32",
                      "name": "referralCode",
                      "type": "bytes32"
                    },
                    {
                      "internalType": "address",
                      "name": "affiliate",
                      "type": "address"
                    },
                    {
                      "internalType": "address",
                      "name": "trader",
                      "type": "address"
                    },
                    {
                      "internalType": "uint256",
                      "name": "totalRebateFactor",
                      "type": "uint256"
                    },
                    {
                      "internalType": "uint256",
                      "name": "traderDiscountFactor",
                      "type": "uint256"
                    },
                    {
                      "internalType": "uint256",
                      "name": "totalRebateAmount",
                      "type": "uint256"
                    },
                    {
                      "internalType": "uint256",
                      "name": "traderDiscountAmount",
                      "type": "uint256"
                    },
                    {
                      "internalType": "uint256",
                      "name": "affiliateRewardAmount",
                      "type": "uint256"
                    }
                  ],
                  "internalType": "struct PositionPricingUtils.PositionReferralFees",
                  "name": "referral",
                  "type": "tuple"
                },
                {
                  "components": [
                    {
                      "internalType": "uint256",
                      "name": "fundingFeeAmount",
                      "type": "uint256"
                    },
                    {
                      "internalType": "uint256",
                      "name": "claimableLongTokenAmount",
                      "type": "uint256"
                    },
                    {
                      "internalType": "uint256",
                      "name": "claimableShortTokenAmount",
                      "type": "uint256"
                    },
                    {
                      "internalType": "uint256",
                      "name": "latestFundingFeeAmountPerSize",
                      "type": "uint256"
                    },
                    {
                      "internalType": "uint256",
                      "name": "latestLongTokenClaimableFundingAmountPerSize",
                      "type": "uint256"
                    },
                    {
                      "internalType": "uint256",
                      "name": "latestShortTokenClaimableFundingAmountPerSize",
                      "type": "uint256"
                    }
                  ],
                  "internalType": "struct PositionPricingUtils.PositionFundingFees",
                  "name": "funding",
                  "type": "tuple"
                },
                {
                  "components": [
                    {
                      "internalType": "uint256",
                      "name": "borrowingFeeUsd",
                      "type": "uint256"
                    },
                    {
                      "internalType": "uint256",
                      "name": "borrowingFeeAmount",
                      "type": "uint256"
                    },
                    {
                      "internalType": "uint256",
                      "name": "borrowingFeeReceiverFactor",
                      "type": "uint256"
                    },
                    {
                      "internalType": "uint256",
                      "name": "borrowingFeeAmountForFeeReceiver",
                      "type": "uint256"
                    }
                  ],
                  "internalType": "struct PositionPricingUtils.PositionBorrowingFees",
                  "name": "borrowing",
                  "type": "tuple"
                },
                {
                  "components": [
                    {
                      "internalType": "address",
                      "name": "uiFeeReceiver",
                      "type": "address"
                    },
                    {
                      "internalType": "uint256",
                      "name": "uiFeeReceiverFactor",
                      "type": "uint256"
                    },
                    {
                      "internalType": "uint256",
                      "name": "uiFeeAmount",
                      "type": "uint256"
                    }
                  ],
                  "internalType": "struct PositionPricingUtils.PositionUiFees",
                  "name": "ui",
                  "type": "tuple"
                },
                {
                  "components": [
                    {
                      "internalType": "uint256",
                      "name": "min",
                      "type": "uint256"
                    },
                    {
                      "internalType": "uint256",
                      "name": "max",
                      "type": "uint256"
                    }
                  ],
                  "internalType": "struct Price.Props",
                  "name": "collateralTokenPrice",
                  "type": "tuple"
                },
                {
                  "internalType": "uint256",
                  "name": "positionFeeFactor",
                  "type": "uint256"
                },
                {
                  "internalType": "uint256",
                  "name": "protocolFeeAmount",
                  "type": "uint256"
                },
                {
                  "internalType": "uint256",
                  "name": "positionFeeReceiverFactor",
                  "type": "uint256"
                },
                {
                  "internalType": "uint256",
                  "name": "feeReceiverAmount",
                  "type": "uint256"
                },
                {
                  "internalType": "uint256",
                  "name": "feeAmountForPool",
                  "type": "uint256"
                },
                {
                  "internalType": "uint256",
                  "name": "positionFeeAmountForPool",
                  "type": "uint256"
                },
                {
                  "internalType": "uint256",
                  "name": "positionFeeAmount",
                  "type": "uint256"
                },
                {
                  "internalType": "uint256",
                  "name": "totalCostAmountExcludingFunding",
                  "type": "uint256"
                },
                {
                  "internalType": "uint256",
                  "name": "totalCostAmount",
                  "type": "uint256"
                }
              ],
              "internalType": "struct PositionPricingUtils.PositionFees",
              "name": "fees",
              "type": "tuple"
            },
            {
              "components": [
                {
                  "internalType": "int256",
                  "name": "priceImpactUsd",
                  "type": "int256"
                },
                {
                  "internalType": "uint256",
                  "name": "priceImpactDiffUsd",
                  "type": "uint256"
                },
                {
                  "internalType": "uint256",
                  "name": "executionPrice",
                  "type": "uint256"
                }
              ],
              "internalType": "struct ReaderPricingUtils.ExecutionPriceResult",
              "name": "executionPriceResult",
              "type": "tuple"
            },
            {
              "internalType": "int256",
              "name": "basePnlUsd",
              "type": "int256"
            },
            {
              "internalType": "int256",
              "name": "uncappedBasePnlUsd",
              "type": "int256"
            },
            {
              "internalType": "int256",
              "name": "pnlAfterPriceImpactUsd",
              "type": "int256"
            }
          ],
          "internalType": "struct ReaderUtils.PositionInfo",
          "name": "",
          "type": "tuple"
        }
      ],
      "stateMutability": "view",
      "type": "function"
    },
    {
      "inputs": [
        {
          "internalType": "contract DataStore",
          "name": "dataStore",
          "type": "address"
        },
        {
          "components": [
            {
              "internalType": "address",
              "name": "marketToken",
              "type": "address"
            },
            {
              "internalType": "address",
              "name": "indexToken",
              "type": "address"
            },
            {
              "internalType": "address",
              "name": "longToken",
              "type": "address"
            },
            {
              "internalType": "address",
              "name": "shortToken",
              "type": "address"
            }
          ],
          "internalType": "struct Market.Props",
          "name": "market",
          "type": "tuple"
        },
        {
          "components": [
            {
              "components": [
                {
                  "internalType": "uint256",
                  "name": "min",
                  "type": "uint256"
                },
                {
                  "internalType": "uint256",
                  "name": "max",
                  "type": "uint256"
                }
              ],
              "internalType": "struct Price.Props",
              "name": "indexTokenPrice",
              "type": "tuple"
            },
            {
              "components": [
                {
                  "internalType": "uint256",
                  "name": "min",
                  "type": "uint256"
                },
                {
                  "internalType": "uint256",
                  "name": "max",
                  "type": "uint256"
                }
              ],
              "internalType": "struct Price.Props",
              "name": "longTokenPrice",
              "type": "tuple"
            },
            {
              "components": [
                {
                  "internalType": "uint256",
                  "name": "min",
                  "type": "uint256"
                },
                {
                  "internalType": "uint256",
                  "name": "max",
                  "type": "uint256"
                }
              ],
              "internalType": "struct Price.Props",
              "name": "shortTokenPrice",
              "type": "tuple"
            }
          ],
          "internalType": "struct MarketUtils.MarketPrices",
          "name": "prices",
          "type": "tuple"
        },
        {
          "internalType": "bytes32",
          "name": "positionKey",
          "type": "bytes32"
        },
        {
          "internalType": "uint256",
          "name": "sizeDeltaUsd",
          "type": "uint256"
        }
      ],
      "name": "getPositionPnlUsd",
      "outputs": [
        {
          "internalType": "int256",
          "name": "",
          "type": "int256"
        },
        {
          "internalType": "int256",
          "name": "",
          "type": "int256"
        },
        {
          "internalType": "uint256",
          "name": "",
          "type": "uint256"
        }
      ],
      "stateMutability": "view",
      "type": "function"
    },
    {
      "inputs": [
        {
          "internalType": "contract DataStore",
          "name": "dataStore",
          "type": "address"
        },
        {
          "components": [
            {
              "internalType": "address",
              "name": "marketToken",
              "type": "address"
            },
            {
              "internalType": "address",
              "name": "indexToken",
              "type": "address"
            },
            {
              "internalType": "address",
              "name": "longToken",
              "type": "address"
            },
            {
              "internalType": "address",
              "name": "shortToken",
              "type": "address"
            }
          ],
          "internalType": "struct Market.Props",
          "name": "market",
          "type": "tuple"
        },
        {
          "components": [
            {
              "components": [
                {
                  "internalType": "uint256",
                  "name": "min",
                  "type": "uint256"
                },
                {
                  "internalType": "uint256",
                  "name": "max",
                  "type": "uint256"
                }
              ],
              "internalType": "struct Price.Props",
              "name": "indexTokenPrice",
              "type": "tuple"
            },
            {
              "components": [
                {
                  "internalType": "uint256",
                  "name": "min",
                  "type": "uint256"
                },
                {
                  "internalType": "uint256",
                  "name": "max",
                  "type": "uint256"
                }
              ],
              "internalType": "struct Price.Props",
              "name": "longTokenPrice",
              "type": "tuple"
            },
            {
              "components": [
                {
                  "internalType": "uint256",
                  "name": "min",
                  "type": "uint256"
                },
                {
                  "internalType": "uint256",
                  "name": "max",
                  "type": "uint256"
                }
              ],
              "internalType": "struct Price.Props",
              "name": "shortTokenPrice",
              "type": "tuple"
            }
          ],
          "internalType": "struct MarketUtils.MarketPrices",
          "name": "prices",
          "type": "tuple"
        },
        {
          "internalType": "address",
          "name": "tokenIn",
          "type": "address"
        },
        {
          "internalType": "uint256",
          "name": "amountIn",
          "type": "uint256"
        },
        {
          "internalType": "address",
          "name": "uiFeeReceiver",
          "type": "address"
        }
      ],
      "name": "getSwapAmountOut",
      "outputs": [
        {
          "internalType": "uint256",
          "name": "",
          "type": "uint256"
        },
        {
          "internalType": "int256",
          "name": "",
          "type": "int256"
        },
        {
          "components": [
            {
              "internalType": "uint256",
              "name": "feeReceiverAmount",
              "type": "uint256"
            },
            {
              "internalType": "uint256",
              "name": "feeAmountForPool",
              "type": "uint256"
            },
            {
              "internalType": "uint256",
              "name": "amountAfterFees",
              "type": "uint256"
            },
            {
              "internalType": "address",
              "name": "uiFeeReceiver",
              "type": "address"
            },
            {
              "internalType": "uint256",
              "name": "uiFeeReceiverFactor",
              "type": "uint256"
            },
            {
              "internalType": "uint256",
              "name": "uiFeeAmount",
              "type": "uint256"
            }
          ],
          "internalType": "struct SwapPricingUtils.SwapFees",
          "name": "fees",
          "type": "tuple"
        }
      ],
      "stateMutability": "view",
      "type": "function"
    },
    {
      "inputs": [
        {
          "internalType": "contract DataStore",
          "name": "dataStore",
          "type": "address"
        },
        {
          "internalType": "address",
          "name": "marketKey",
          "type": "address"
        },
        {
          "internalType": "address",
          "name": "tokenIn",
          "type": "address"
        },
        {
          "internalType": "address",
          "name": "tokenOut",
          "type": "address"
        },
        {
          "internalType": "uint256",
          "name": "amountIn",
          "type": "uint256"
        },
        {
          "components": [
            {
              "internalType": "uint256",
              "name": "min",
              "type": "uint256"
            },
            {
              "internalType": "uint256",
              "name": "max",
              "type": "uint256"
            }
          ],
          "internalType": "struct Price.Props",
          "name": "tokenInPrice",
          "type": "tuple"
        },
        {
          "components": [
            {
              "internalType": "uint256",
              "name": "min",
              "type": "uint256"
            },
            {
              "internalType": "uint256",
              "name": "max",
              "type": "uint256"
            }
          ],
          "internalType": "struct Price.Props",
          "name": "tokenOutPrice",
          "type": "tuple"
        }
      ],
      "name": "getSwapPriceImpact",
      "outputs": [
        {
          "internalType": "int256",
          "name": "",
          "type": "int256"
        },
        {
          "internalType": "int256",
          "name": "",
          "type": "int256"
        }
      ],
      "stateMutability": "view",
      "type": "function"
    },
    {
      "inputs": [
        {
          "internalType": "contract DataStore",
          "name": "dataStore",
          "type": "address"
        },
        {
          "internalType": "bytes32",
          "name": "key",
          "type": "bytes32"
        }
      ],
      "name": "getWithdrawal",
      "outputs": [
        {
          "components": [
            {
              "components": [
                {
                  "internalType": "address",
                  "name": "account",
                  "type": "address"
                },
                {
                  "internalType": "address",
                  "name": "receiver",
                  "type": "address"
                },
                {
                  "internalType": "address",
                  "name": "callbackContract",
                  "type": "address"
                },
                {
                  "internalType": "address",
                  "name": "uiFeeReceiver",
                  "type": "address"
                },
                {
                  "internalType": "address",
                  "name": "market",
                  "type": "address"
                },
                {
                  "internalType": "address[]",
                  "name": "longTokenSwapPath",
                  "type": "address[]"
                },
                {
                  "internalType": "address[]",
                  "name": "shortTokenSwapPath",
                  "type": "address[]"
                }
              ],
              "internalType": "struct Withdrawal.Addresses",
              "name": "addresses",
              "type": "tuple"
            },
            {
              "components": [
                {
                  "internalType": "uint256",
                  "name": "marketTokenAmount",
                  "type": "uint256"
                },
                {
                  "internalType": "uint256",
                  "name": "minLongTokenAmount",
                  "type": "uint256"
                },
                {
                  "internalType": "uint256",
                  "name": "minShortTokenAmount",
                  "type": "uint256"
                },
                {
                  "internalType": "uint256",
                  "name": "updatedAtBlock",
                  "type": "uint256"
                },
                {
                  "internalType": "uint256",
                  "name": "updatedAtTime",
                  "type": "uint256"
                },
                {
                  "internalType": "uint256",
                  "name": "executionFee",
                  "type": "uint256"
                },
                {
                  "internalType": "uint256",
                  "name": "callbackGasLimit",
                  "type": "uint256"
                }
              ],
              "internalType": "struct Withdrawal.Numbers",
              "name": "numbers",
              "type": "tuple"
            },
            {
              "components": [
                {
                  "internalType": "bool",
                  "name": "shouldUnwrapNativeToken",
                  "type": "bool"
                }
              ],
              "internalType": "struct Withdrawal.Flags",
              "name": "flags",
              "type": "tuple"
            }
          ],
          "internalType": "struct Withdrawal.Props",
          "name": "",
          "type": "tuple"
        }
      ],
      "stateMutability": "view",
      "type": "function"
    },
    {
      "inputs": [
        {
          "internalType": "contract DataStore",
          "name": "dataStore",
          "type": "address"
        },
        {
          "components": [
            {
              "internalType": "address",
              "name": "marketToken",
              "type": "address"
            },
            {
              "internalType": "address",
              "name": "indexToken",
              "type": "address"
            },
            {
              "internalType": "address",
              "name": "longToken",
              "type": "address"
            },
            {
              "internalType": "address",
              "name": "shortToken",
              "type": "address"
            }
          ],
          "internalType": "struct Market.Props",
          "name": "market",
          "type": "tuple"
        },
        {
          "components": [
            {
              "components": [
                {
                  "internalType": "uint256",
                  "name": "min",
                  "type": "uint256"
                },
                {
                  "internalType": "uint256",
                  "name": "max",
                  "type": "uint256"
                }
              ],
              "internalType": "struct Price.Props",
              "name": "indexTokenPrice",
              "type": "tuple"
            },
            {
              "components": [
                {
                  "internalType": "uint256",
                  "name": "min",
                  "type": "uint256"
                },
                {
                  "internalType": "uint256",
                  "name": "max",
                  "type": "uint256"
                }
              ],
              "internalType": "struct Price.Props",
              "name": "longTokenPrice",
              "type": "tuple"
            },
            {
              "components": [
                {
                  "internalType": "uint256",
                  "name": "min",
                  "type": "uint256"
                },
                {
                  "internalType": "uint256",
                  "name": "max",
                  "type": "uint256"
                }
              ],
              "internalType": "struct Price.Props",
              "name": "shortTokenPrice",
              "type": "tuple"
            }
          ],
          "internalType": "struct MarketUtils.MarketPrices",
          "name": "prices",
          "type": "tuple"
        },
        {
          "internalType": "uint256",
          "name": "marketTokenAmount",
          "type": "uint256"
        },
        {
          "internalType": "address",
          "name": "uiFeeReceiver",
          "type": "address"
        }
      ],
      "name": "getWithdrawalAmountOut",
      "outputs": [
        {
          "internalType": "uint256",
          "name": "",
          "type": "uint256"
        },
        {
          "internalType": "uint256",
          "name": "",
          "type": "uint256"
        }
      ],
      "stateMutability": "view",
      "type": "function"
    }
  ],
  "transactionHash": "0x46a41551e9f22f7a1fdc05c8217989a40e8d6709c82c3690f93bd71b7d2858b3",
  "args": [],
  "numDeployments": 38,
  "solcInputHash": "d8670d0ce04e567240d18d0df240dc84",
  "bytecode": "0x608060405234801561001057600080fd5b506150aa806100206000396000f3fe608060405234801561001057600080fd5b50600436106101335760003560e01c80630815bce114610138578063095ce6c5146101615780630fa8f5161461020a5780631485d2971461022a57806324c029e01461024a5780632b17b4fd1461026b578063409f37c71461029e57806342a6f8d31461031057806349651b6a146103305780635d2b44f9146103505780635d5c6efe14610370578063714af34b1461039857806371e138d5146103b857806377cfb162146103cb578063847bb469146103eb57806385874c7f1461040b578063971de27d1461041e578063a014093814610431578063a4f0d55014610444578063b4976dae14610457578063bc7b5bba14610479578063ce3264bf14610499578063ceeea3bf146104b9578063ece9e0c8146104d9578063fd50649d146104f9575b600080fd5b61014b610146366004612b2b565b61050c565b6040516101589190612e63565b60405180910390f35b61017461016f366004612eda565b6105a5565b60405161015892919060006101808201905083825282516020830152602083015160408301526040830151606083015260608301516080830152608083015160a083015260a083015160c083015260c083015160e083015260e083015161010081818501528085015191505061012081818501528085015191505061014081818501528085015161016085015250509392505050565b61021d610218366004612f57565b610699565b6040516101589190612f83565b61023d610238366004612f57565b610725565b6040516101589190612fd6565b61025d610258366004613116565b6107ab565b604051908152602001610158565b61027e610279366004613187565b6107c6565b604080519485529215156020850152918301526060820152608001610158565b6102b16102ac3660046131e3565b610861565b604080519384526020808501939093528151848201529181015160608085019190915291810151608080850191909152918101516001600160a01b031660a0808501919091529181015160c0840152015160e082015261010001610158565b61032361031e36600461325e565b61093b565b6040516101589190613444565b61034361033e366004612f57565b610a88565b60405161015891906134a6565b61036361035e3660046134b9565b610b0e565b6040516101589190613524565b61038361037e366004613532565b610c27565b60408051928352602083019190915201610158565b6103ab6103a63660046135bc565b610d3d565b6040516101589190613628565b6103836103c6366004613636565b610dbf565b6103de6103d936600461325e565b610e4f565b6040516101589190613691565b6103fe6103f93660046136e0565b610f8e565b60405161015891906137fd565b61025d61041936600461380c565b61101d565b61025d61042c366004613870565b6110ad565b61025d61043f366004613116565b611139565b6103ab610452366004612f57565b611148565b61046a6104653660046138d5565b611189565b60405161015893929190613931565b61048c6104873660046139df565b61129f565b6040516101589190613a3e565b6104ac6104a7366004613a81565b61138c565b6040516101589190613ab6565b6104cc6104c7366004612f57565b6114d9565b6040516101589190613af8565b6104ec6104e7366004613b99565b61155f565b6040516101589190613c89565b61025d610507366004613ccc565b61163d565b61051461242f565b6040516306bc109960e31b815273c576272Ef7653A7Ae4b0ecD270DB55191bd02624906335e084c890610557908b908b908b908b908b908b908b90600401613d57565b6106a060405180830381865af4158015610575573d6000803e3d6000fd5b505050506040513d601f19601f82011682018060405250810190610599919061410d565b98975050505050505050565b600061060460405180610160016040528060008152602001600081526020016000815260200160008152602001600081526020016000815260200160008152602001600081526020016000815260200160008152602001600081525090565b604051637d494dc360e01b815273da16017e0A79Fa08A861135b341451c4D5943a0690637d494dc390610647908c908c908c908c908c908c908c9060040161425b565b61018060405180830381865af4158015610665573d6000803e3d6000fd5b505050506040513d601f19601f8201168201806040525081019061068991906142bd565b9150915097509795505050505050565b6106a1612477565b60405163fdfc26f360e01b815273bafc25c9E7895364387413A8C67cCB8d4710E4A59063fdfc26f3906106da9086908690600401614371565b6101e060405180830381865af41580156106f8573d6000803e3d6000fd5b505050506040513d601f19601f8201168201806040525081019061071c919061438a565b90505b92915050565b61072d61251b565b60405163fdfc26f360e01b8152736DE54b5C741128e0851aF1C94bB471b05773b6259063fdfc26f3906107669086908690600401614371565b600060405180830381865af4158015610783573d6000803e3d6000fd5b505050506040513d6000823e601f3d908101601f1916820160405261071c919081019061446d565b60006107ba868686868661164b565b90505b95945050505050565b60008060008060006107d98989896116dc565b905060006107e78a8a611756565b9050600080600061084a8d858c8e60405160200161082f9060208082526016908201527513505617d4139317d19050d513d497d193d497d0511360521b604082015260600190565b604051602081830303815290604052805190602001206117e7565b969f919e509c50949a509398505050505050505050565b6000806108a66040518060c0016040528060008152602001600081526020016000815260200160006001600160a01b0316815260200160008152602001600081525090565b60405163dafa66bf60e01b81527340a27Ea6e4A947F8FFce41026C0EFD60Ea9048569063dafa66bf906108e7908c908c908c908c908c908c906004016145cc565b61010060405180830381865af4158015610905573d6000803e3d6000fd5b505050506040513d601f19601f82011682018060405250810190610929919061461e565b92509250925096509650969350505050565b6060600061094b8686868661183b565b9050600081516001600160401b038111156109685761096861292c565b6040519080825280602002602001820160405280156109a157816020015b61098e6125b4565b8152602001906001900390816109865790505b50905060005b8251811015610a7d5760008382815181106109c4576109c46146a6565b602002602001015190507302a9C08CdC3AaBfBFAa58F0b24d3c64084959AEC63fdfc26f38a836040518363ffffffff1660e01b8152600401610a07929190614371565b600060405180830381865af4158015610a24573d6000803e3d6000fd5b505050506040513d6000823e601f3d908101601f19168201604052610a4c91908101906147d6565b838381518110610a5e57610a5e6146a6565b6020026020010181905250508080610a7590614910565b9150506109a7565b509695505050505050565b610a906125b4565b60405163fdfc26f360e01b81527302a9C08CdC3AaBfBFAa58F0b24d3c64084959AEC9063fdfc26f390610ac99086908690600401614371565b600060405180830381865af4158015610ae6573d6000803e3d6000fd5b505050506040513d6000823e601f3d908101601f1916820160405261071c91908101906147d6565b610b1661262d565b60405163a8d8fff560e01b8152600090730D0f41c0C045E2C1af2D1437B87463314cbe95429063a8d8fff590610b52908c908c90600401614929565b608060405180830381865af4158015610b6f573d6000803e3d6000fd5b505050506040513d601f19601f82011682018060405250810190610b9391906149a0565b604051630a37d4c760e11b81529091507340a27Ea6e4A947F8FFce41026C0EFD60Ea9048569063146fa98e90610bd9908c9085908c908c908c908c908c906004016149bc565b606060405180830381865af4158015610bf6573d6000803e3d6000fd5b505050506040513d601f19601f82011682018060405250810190610c1a9190614a10565b9998505050505050505050565b6000806000730D0f41c0C045E2C1af2D1437B87463314cbe954263a8d8fff58b8b6040518363ffffffff1660e01b8152600401610c65929190614929565b608060405180830381865af4158015610c82573d6000803e3d6000fd5b505050506040513d601f19601f82011682018060405250810190610ca691906149a0565b6040516340f5d44f60e11b81529091507340a27Ea6e4A947F8FFce41026C0EFD60Ea904856906381eba89e90610cec908d9085908d908d908d908d908d90600401614a2c565b6040805180830381865af4158015610d08573d6000803e3d6000fd5b505050506040513d601f19601f82011682018060405250810190610d2c9190614a7e565b925092505097509795505050505050565b610d4561264e565b60405163a8d8fff560e01b8152730D0f41c0C045E2C1af2D1437B87463314cbe95429063a8d8fff590610d7e9086908690600401614929565b608060405180830381865af4158015610d9b573d6000803e3d6000fd5b505050506040513d601f19601f8201168201806040525081019061071c91906149a0565b60008073b18a82Cb241C082c0eCe6D5328600C962B0b85Cd633246702388888888886040518663ffffffff1660e01b8152600401610e01959493929190614aa2565b6040805180830381865af4158015610e1d573d6000803e3d6000fd5b505050506040513d601f19601f82011682018060405250810190610e419190614a7e565b915091509550959350505050565b60606000610e5f868686866118ba565b9050600081516001600160401b03811115610e7c57610e7c61292c565b604051908082528060200260200182016040528015610eb557816020015b610ea2612477565b815260200190600190039081610e9a5790505b50905060005b8251811015610a7d576000838281518110610ed857610ed86146a6565b6020026020010151905073bafc25c9E7895364387413A8C67cCB8d4710E4A563fdfc26f38a836040518363ffffffff1660e01b8152600401610f1b929190614371565b6101e060405180830381865af4158015610f39573d6000803e3d6000fd5b505050506040513d601f19601f82011682018060405250810190610f5d919061438a565b838381518110610f6f57610f6f6146a6565b6020026020010181905250508080610f8690614910565b915050610ebb565b610f96612675565b60405163619c4ddb60e01b815273c576272Ef7653A7Ae4b0ecD270DB55191bd026249063619c4ddb90610fd190879087908790600401614aea565b6103a060405180830381865af4158015610fef573d6000803e3d6000fd5b505050506040513d601f19601f820116820180604052508101906110139190614be6565b90505b9392505050565b604051636f72ba5d60e01b815260009073d134f36E0Fbb65FF40353e22598488af8EdBaAB790636f72ba5d90611061908a908a908a908a908a908a90600401614ca7565b602060405180830381865af415801561107e573d6000803e3d6000fd5b505050506040513d601f19601f820116820180604052508101906110a29190614cf7565b979650505050505050565b600080730D0f41c0C045E2C1af2D1437B87463314cbe954263a8d8fff588886040518363ffffffff1660e01b81526004016110e9929190614929565b608060405180830381865af4158015611106573d6000803e3d6000fd5b505050506040513d601f19601f8201168201806040525081019061112a91906149a0565b90506110a287828787876118d4565b60006107ba8686868686611918565b61115061264e565b6040516329bc01e160e11b8152730D0f41c0C045E2C1af2D1437B87463314cbe95429063537803c290610d7e9086908690600401614371565b60008060008073bafc25c9E7895364387413A8C67cCB8d4710E4A563fdfc26f38a886040518363ffffffff1660e01b81526004016111c8929190614371565b6101e060405180830381865af41580156111e6573d6000803e3d6000fd5b505050506040513d601f19601f8201168201806040525081019061120a919061438a565b60405163e22de79360e01b815290915073C956Bdc0a345E9F2ed21fc113bCE915DD64a78a19063e22de7939061124c908c908c908c9087908c90600401614d10565b606060405180830381865af4158015611269573d6000803e3d6000fd5b505050506040513d601f19601f8201168201806040525081019061128d9190614d7a565b93509350935050955095509592505050565b606060006112ae868585611943565b9050600081516001600160401b038111156112cb576112cb61292c565b60405190808252806020026020018201604052801561130457816020015b6112f1612675565b8152602001906001900390816112e95790505b50905060005b8251811015610a7d576000878281518110611327576113276146a6565b602002602001015190506000848381518110611345576113456146a6565b6020026020010151905061135a8a8383610f8e565b84848151811061136c5761136c6146a6565b60200260200101819052505050808061138490614910565b91505061130a565b6060600061139b858585611943565b9050600081516001600160401b038111156113b8576113b861292c565b6040519080825280602002602001820160405280156113f157816020015b6113de61264e565b8152602001906001900390816113d65790505b50905060005b82518110156114cf576000838281518110611414576114146146a6565b602002602001015190506000730D0f41c0C045E2C1af2D1437B87463314cbe954263a8d8fff58a846040518363ffffffff1660e01b8152600401611459929190614929565b608060405180830381865af4158015611476573d6000803e3d6000fd5b505050506040513d601f19601f8201168201806040525081019061149a91906149a0565b9050808484815181106114af576114af6146a6565b6020026020010181905250505080806114c790614910565b9150506113f7565b5095945050505050565b6114e16126e6565b60405163fdfc26f360e01b815273d85d9798641E6116A3cAEF8d62270D8d553aC9649063fdfc26f39061151a9086908690600401614371565b600060405180830381865af4158015611537573d6000803e3d6000fd5b505050506040513d6000823e601f3d908101601f1916820160405261071c9190810190614da8565b6060600084516001600160401b0381111561157c5761157c61292c565b6040519080825280602002602001820160405280156115b557816020015b6115a261242f565b81526020019060019003908161159a5790505b50905060005b8551811015610a7d5760008682815181106115d8576115d86146a6565b6020026020010151905061160c8989838986815181106115fa576115fa6146a6565b602002602001015160008a600161050c565b83838151811061161e5761161e6146a6565b602002602001018190525050808061163590614910565b9150506115bb565b60006107bd858585856119fe565b60008061166161165c888887611a2d565b611a80565b90506000611670888887611af3565b905081158061167d575080155b1561168d576000925050506107bd565b600061169a878787611b3a565b905060006116ab61165c8385614ed1565b90506000876116c3576116be8286614ee8565b6116cd565b6116cd8583614ee8565b9b9a5050505050505050505050565b6000836001600160a01b031663bd02d0f56116f78585611b73565b6040518263ffffffff1660e01b815260040161171591815260200190565b602060405180830381865afa158015611732573d6000803e3d6000fd5b505050506040513d601f19601f820116820180604052508101906110139190614cf7565b61175e61264e565b60405163a8d8fff560e01b8152600090730D0f41c0C045E2C1af2D1437B87463314cbe95429063a8d8fff59061179a9087908790600401614929565b608060405180830381865af41580156117b7573d6000803e3d6000fd5b505050506040513d601f19601f820116820180604052508101906117db91906149a0565b905061071c8482611bfa565b6000806000806117fb8989898960016118d4565b9050600061180f8a878b600001518a611cd3565b90506000808313801561182957508161182784611d4e565b115b9b929a50909850909650505050505050565b6060846001600160a01b031663f069052a61185586611da0565b85856040518463ffffffff1660e01b815260040161187593929190613931565b600060405180830381865afa158015611892573d6000803e3d6000fd5b505050506040513d6000823e601f3d908101601f191682016040526107bd9190810190614f0f565b6060846001600160a01b031663f069052a61185586611e22565b6000806118e5878787878715611e5d565b9050806000036118f95760009150506107bd565b600061190c88888860000151888861164b565b90506105998183611ed6565b600080611926878786611a2d565b90506000611937888888888861164b565b90506105998282611f1d565b6060836001600160a01b031663e7e4148e604051602001611983906020808252600b908201526a13505492d15517d31254d560aa1b604082015260600190565b6040516020818303038152906040528051906020012085856040518463ffffffff1660e01b81526004016119b993929190613931565b600060405180830381865afa1580156119d6573d6000803e3d6000fd5b505050506040513d6000823e601f3d908101601f191682016040526110139190810190614f94565b600080611a0f86868660018761164b565b90506000611a2187878760008861164b565b90506110a28183614fc8565b600080611a4284604001518560600151611f33565b90506000611a5b86866000015187604001518786611f62565b90506000611a7487876000015188606001518887611f62565b90506110a28183614ff0565b60006001600160ff1b03821115611aef5760405162461bcd60e51b815260206004820152602860248201527f53616665436173743a2076616c756520646f65736e27742066697420696e2061604482015267371034b73a191a9b60c11b60648201526084015b60405180910390fd5b5090565b600080611b0884604001518560600151611f33565b90506000611b2186866000015187604001518786611fe8565b90506000611a7487876000015188606001518887611fe8565b60008215611b5b5781611b4e578351611b54565b83602001515b9050611016565b81611b6a578360200151611013565b50509051919050565b6000604051602001611ba6906020808252600d908201526c1310551154d517d0511317d055609a1b604082015260600190565b60408051601f198184030181528282528051602091820120908301526001600160a01b0385169082015282151560608201526080015b60405160208183030381529060405280519060200120905092915050565b80516001600160a01b0316611c22576040516302fde0d760e11b815260040160405180910390fd5b6000826001600160a01b0316637ae1cfca611c408460000151612005565b6040518263ffffffff1660e01b8152600401611c5e91815260200190565b602060405180830381865afa158015611c7b573d6000803e3d6000fd5b505050506040513d601f19601f82011682018060405250810190611c9f9190615003565b90508015611cce5781516040516309f8c93760e01b81526001600160a01b039091166004820152602401611ae6565b505050565b6000846001600160a01b031663bd02d0f5611cef86868661203d565b6040518263ffffffff1660e01b8152600401611d0d91815260200190565b602060405180830381865afa158015611d2a573d6000803e3d6000fd5b505050506040513d601f19601f820116820180604052508101906107bd9190614cf7565b600080821215611aef5760405162461bcd60e51b815260206004820181905260248201527f53616665436173743a2076616c7565206d75737420626520706f7369746976656044820152606401611ae6565b6000604051602001611dd8906020808252601290820152711050d0d3d5539517d3d491115497d31254d560721b604082015260600190565b60408051601f198184030181528282528051602091820120908301526001600160a01b03841690820152606001604051602081830303815290604052805190602001209050919050565b6000604051602001611dd8906020808252601590820152741050d0d3d5539517d413d4d2551253d397d31254d5605a1b604082015260600190565b60008083611e6f578560600151611e75565b85604001515b90506000611e848888846120cc565b905060008415611eb25785611ea157866040015160200151611eab565b8660200151602001515b9050611ecc565b85611ec257604087015151611ec9565b6020870151515b90505b610c1a8183614ed1565b600080611eeb611ee58561216a565b8461217b565b905060008413611f0c57611efe81611a80565b611f0790615020565b611f15565b611f1581611a80565b949350505050565b600081611f2984611a80565b61071c9190614fc8565b6000816001600160a01b0316836001600160a01b031614611f55576001611f58565b60025b60ff169392505050565b600081866001600160a01b031663bd02d0f5611f7f888888612189565b6040518263ffffffff1660e01b8152600401611f9d91815260200190565b602060405180830381865afa158015611fba573d6000803e3d6000fd5b505050506040513d601f19601f82011682018060405250810190611fde9190614cf7565b6107ba9190615052565b600081866001600160a01b031663bd02d0f5611f7f888888612201565b6000604051602001611dd8906020808252601290820152711254d7d3505492d15517d11254d05093115160721b604082015260600190565b6000604051602001612071906020808252600e908201526d26a0ac2fa827262fa320a1aa27a960911b604082015260600190565b60408051601f1981840301815282825280516020918201209083015281018590526001600160a01b0384166060820152821515608082015260a0015b6040516020818303038152906040528051906020012090509392505050565b6000806120e184604001518560600151611f33565b905080856001600160a01b031663bd02d0f561210187600001518761223e565b6040518263ffffffff1660e01b815260040161211f91815260200190565b602060405180830381865afa15801561213c573d6000803e3d6000fd5b505050506040513d601f19601f820116820180604052508101906121609190614cf7565b6107bd9190615052565b600080821215611aef575060000390565b600061071c838360006122ac565b60006040516020016121bc906020808252600d908201526c13d4115397d2539511549154d5609a1b604082015260600190565b60408051601f198184030181528282528051602091820120908301526001600160a01b038087169183019190915284166060820152821515608082015260a0016120ad565b60006040516020016121bc906020808252601790820152764f50454e5f494e5445524553545f494e5f544f4b454e5360481b604082015260600190565b600060405160200161226f906020808252600b908201526a1413d3d317d05353d5539560aa1b604082015260600190565b60408051601f198184030181528282528051602091820120908301526001600160a01b038086169183019190915283166060820152608001611bdc565b6000836000036122be57506000611016565b81156122dd57611b548468327cb2734119d3b7a9601e1b8560016122f4565b6110138468327cb2734119d3b7a9601e1b85612345565b600080612302868686612345565b90506001836002811115612318576123186132a4565b1480156123355750600084806123305761233061503c565b868809115b156107bd576107ba600182614ff0565b600080806000198587098587029250828110838203039150508060000361237f578382816123755761237561503c565b0492505050611016565b8084116123c65760405162461bcd60e51b81526020600482015260156024820152744d6174683a206d756c446976206f766572666c6f7760581b6044820152606401611ae6565b60008486880960026001871981018816978890046003810283188082028403028082028403028082028403028082028403028082028403029081029092039091026000889003889004909101858311909403939093029303949094049190911702949350505050565b6040518060c00160405280612442612477565b815260200161244f61272e565b815260200161245c61262d565b81526020016000815260200160008152602001600081525090565b6040805160c081019091526000606082018181526080830182905260a0830191909152819081526020016124fe60405180610160016040528060008152602001600081526020016000815260200160008152602001600081526020016000815260200160008152602001600081526020016000815260200160008152602001600081525090565b81526040805160208181019092526000815291015290565b905290565b604080516101808101909152600060608083018281526080840183905260a0840183905260c0840183905260e084018390526101008401839052610120840192909252610140830181905261016083015281905b81526020016124fe6040518060e00160405280600081526020016000815260200160008152602001600081526020016000815260200160008152602001600081525090565b604080516101408101909152600060608083018281526080840183905260a0840183905260c0840183905260e08401839052610100840192909252610120830152815260208101612603612874565b81526040805160808101825260008082526020828101829052928201819052606082015291015290565b60405180606001604052806000815260200160008152602001600081525090565b60408051608081018252600080825260208201819052918101829052606081019190915290565b6040518060e0016040528061268861264e565b815260200160008152602001600081526020016126a361288f565b81526020016126b06128af565b81526020016126d960405180606001604052806000815260200160008152602001600081525090565b8152600060209091015290565b604080516101408101909152600060608083018281526080840183905260a0840183905260c0840183905260e08401929092526101008301819052610120830152819061256f565b604080516102c0810190915260006101c082018181526101e08301829052610200830182905261022083018290526102408301829052610260830182905261028083018290526102a0830191909152819081526020016127bd6040518060c001604052806000815260200160008152602001600081526020016000815260200160008152602001600081525090565b81526020016127ed6040518060800160405280600081526020016000815260200160008152602001600081525090565b8152604080516060810182526000808252602082810182905292820152910190815260200161282f604051806040016040528060008152602001600081525090565b81526020016000815260200160008152602001600081526020016000815260200160008152602001600081526020016000815260200160008152602001600081525090565b6040805161016081019091528060008152602001600061282f565b60405180604001604052806128a26128d5565b81526020016125166128d5565b6040518060a0016040528060001515815260200160008152602001600081526020016128a25b60408051608081018252600091810182815260608201929092529081908152602001612516604051806040016040528060008152602001600081525090565b6001600160a01b038116811461292957600080fd5b50565b634e487b7160e01b600052604160045260246000fd5b604080519081016001600160401b03811182821017156129645761296461292c565b60405290565b604051606081016001600160401b03811182821017156129645761296461292c565b604051608081016001600160401b03811182821017156129645761296461292c565b60405161016081016001600160401b03811182821017156129645761296461292c565b60405160c081016001600160401b03811182821017156129645761296461292c565b6040516101c081016001600160401b03811182821017156129645761296461292c565b60405160e081016001600160401b03811182821017156129645761296461292c565b60405161012081016001600160401b03811182821017156129645761296461292c565b604051601f8201601f191681016001600160401b0381118282101715612a8357612a8361292c565b604052919050565b600060408284031215612a9d57600080fd5b612aa5612942565b9050813581526020820135602082015292915050565b600060c08284031215612acd57600080fd5b612ad561296a565b9050612ae18383612a8b565b8152612af08360408401612a8b565b6020820152612b028360808401612a8b565b604082015292915050565b8035612b1881612914565b919050565b801515811461292957600080fd5b6000806000806000806000610180888a031215612b4757600080fd5b8735612b5281612914565b96506020880135612b6281612914565b955060408801359450612b788960608a01612abb565b93506101208801359250610140880135612b9181612914565b9150610160880135612ba281612b1d565b8091505092959891949750929550565b6001600160a01b03169052565b80516001600160a01b03908116835260208083015182169084015260409182015116910152565b805182526020810151602083015260408101516040830152606081015160608301526080810151608083015260a081015160a083015260c081015160c083015260e081015160e08301526101008082015181840152506101208082015181840152506101408082015181840152505050565b612c63828251612bbf565b6020810151612c756060840182612be6565b50604001515115156101c09190910152565b80518252602090810151910152565b8051825260208082015190830152604090810151910152565b612cba828251612c58565b602081810151805180516101e0860152808301516001600160a01b0390811661020087015260408083015182166102208801526060808401516102408901526080808501516102608a015260a0808601516102808b015260c08601516102a08b015260e0909501516102c08a01528587015180516102e08b0152808801516103008b0152808401516103208b0152808301516103408b0152808201516103608b0152909401516103808901528185015180516103a08a0152808701516103c08a0152808301516103e08a01528101516104008901528401518051909216610420880152938101516104408701529092015161046085015290810151612dc3610480850182612c87565b5060a08101516104c084015260c08101516104e084015260e08101516105008401526101008101516105208401526101208101516105408401526101408101516105608401526101608101516105808401526101808101516105a08401526101a001516105c08301526040810151612e3f6105e0840182612c96565b506060810151610640830152608081015161066083015260a0015161068090910152565b6106a0810161071f8284612caf565b600060808284031215612e8457600080fd5b612e8c61298c565b90508135612e9981612914565b81526020820135612ea981612914565b60208201526040820135612ebc81612914565b60408201526060820135612ecf81612914565b606082015292915050565b60008060008060008060006101a0888a031215612ef657600080fd5b8735612f0181612914565b9650612f108960208a01612e72565b9550612f1f8960a08a01612a8b565b9450612f2e8960e08a01612a8b565b9350612f3e896101208a01612a8b565b92506101608801359150610180880135612ba281612b1d565b60008060408385031215612f6a57600080fd5b8235612f7581612914565b946020939093013593505050565b6101e0810161071f8284612c58565b600081518084526020808501945080840160005b83811015612fcb5781516001600160a01b031687529582019590820190600101612fa6565b509495945050505050565b6020815260008251610120806020850152612ff661014085018351612bb2565b6020820151613009610160860182612bb2565b50604082015161301d610180860182612bb2565b5060608201516130316101a0860182612bb2565b5060808201516130456101c0860182612bb2565b5060a08201516130596101e0860182612bb2565b5060c082015161306d610200860182612bb2565b5060e082015181610220860152613088610260860182612f92565b9050610100830151925061013f19858203016102408601526130aa8184612f92565b92505060208501516130fe6040860182805182526020810151602083015260408101516040830152606081015160608301526080810151608083015260a081015160a083015260c081015160c08301525050565b50604085015180511515858301525090949350505050565b6000806000806000610120868803121561312f57600080fd5b853561313a81612914565b94506131498760208801612e72565b93506131588760a08801612a8b565b925060e086013561316881612b1d565b915061010086013561317981612b1d565b809150509295509295909350565b600080600080610120858703121561319e57600080fd5b84356131a981612914565b935060208501356131b981612914565b925060408501356131c981612b1d565b91506131d88660608701612abb565b905092959194509250565b6000806000806000806101c087890312156131fd57600080fd5b863561320881612914565b95506132178860208901612e72565b94506132268860a08901612abb565b935061016087013561323781612914565b925061018087013591506101a087013561325081612914565b809150509295509295509295565b6000806000806080858703121561327457600080fd5b843561327f81612914565b9350602085013561328f81612914565b93969395505050506040820135916060013590565b634e487b7160e01b600052602160045260246000fd5b600881106132ca576132ca6132a4565b9052565b600381106132ca576132ca6132a4565b6132e98282516132ba565b60208101516132fb60208401826132ce565b5060408101516040830152606081015160608301526080810151608083015260a081015160a083015260c081015160c083015260e081015160e08301526101008082015181840152506101208082015181840152506101408082015181840152505050565b805161020080845281516001600160a01b03908116918501919091526020820151811661022085015260408201511661024084015260608101516000916133ab610260860183612bb2565b608081015191506133c0610280860183612bb2565b60a081015191506133d56102a0860183612bb2565b60c0015160e06102c086015290506133f16102e0850182612f92565b9050602083015161340560208601826132de565b5060408381015180511515610180870152602081015115156101a08701529081015115156101c0860152606081015115156101e0860152509392505050565b6000602080830181845280855180835260408601915060408160051b870101925083870160005b8281101561349957603f19888603018452613487858351613360565b9450928501929085019060010161346b565b5092979650505050505050565b60208152600061071c6020830184613360565b6000806000806000806000610100888a0312156134d557600080fd5b87356134e081612914565b965060208801356134f081612914565b95506134ff8960408a01612a8b565b94506080880135935060a0880135925060c0880135915060e0880135612ba281612b1d565b6060810161071f8284612c96565b6000806000806000806000610120888a03121561354e57600080fd5b873561355981612914565b9650602088013561356981612914565b9550604088013561357981612914565b9450606088013561358981612914565b93506080880135925061359f8960a08a01612a8b565b91506135ae8960e08a01612a8b565b905092959891949750929550565b600080604083850312156135cf57600080fd5b82356135da81612914565b915060208301356135ea81612914565b809150509250929050565b80516001600160a01b03908116835260208083015182169084015260408083015182169084015260609182015116910152565b6080810161071f82846135f5565b60008060008060006101a0868803121561364f57600080fd5b853561365a81612914565b94506136698760208801612e72565b93506136788760a08801612abb565b9250610160860135915061018086013561317981612914565b6020808252825182820181905260009190848201906040850190845b818110156136d4576136c0838551612c58565b928401926101e092909201916001016136ad565b50909695505050505050565b600080600061010084860312156136f657600080fd5b833561370181612914565b92506137108560208601612abb565b915060e084013561372081612914565b809150509250925092565b613736828251612c87565b6020810151611cce6040840182612c87565b6137538282516135f5565b60208101516080830152604081015160a0830152606081015161377a60c08401825161372b565b6020015161378c61014084018261372b565b506080810151805115156101c084015260208101516101e0840152604081015161020084015260608101516137c561022085018261372b565b50608001516137d86102a084018261372b565b5060a08101516137ec610320840182612c96565b5060c0015115156103809190910152565b6103a0810161071f8284613748565b6000806000806000806101c0878903121561382657600080fd5b863561383181612914565b95506138408860208901612e72565b945061384f8860a08901612abb565b9350610160870135925061018087013591506101a087013561325081612914565b6000806000806000610140868803121561388957600080fd5b853561389481612914565b945060208601356138a481612914565b93506138b38760408801612abb565b92506101008601356138c481612b1d565b915061012086013561317981612b1d565b60008060008060006101a086880312156138ee57600080fd5b85356138f981612914565b94506139088760208801612e72565b93506139178760a08801612abb565b949793965093946101608101359450610180013592915050565b9283526020830191909152604082015260600190565b60006001600160401b038211156139605761396061292c565b5060051b60200190565b600082601f83011261397b57600080fd5b8135602061399061398b83613947565b612a5b565b82815260c092830285018201928282019190878511156139af57600080fd5b8387015b858110156139d2576139c58982612abb565b84529284019281016139b3565b5090979650505050505050565b600080600080608085870312156139f557600080fd5b8435613a0081612914565b935060208501356001600160401b03811115613a1b57600080fd5b613a278782880161396a565b949794965050505060408301359260600135919050565b6020808252825182820181905260009190848201906040850190845b818110156136d457613a6d838551613748565b928401926103a09290920191600101613a5a565b600080600060608486031215613a9657600080fd5b8335613aa181612914565b95602085013595506040909401359392505050565b6020808252825182820181905260009190848201906040850190845b818110156136d457613ae58385516135f5565b9284019260809290920191600101613ad2565b602081526000825161012080602085015260018060a01b03808351166101408601528060208401511661016086015280604084015116610180860152506060820151613b486101a0860182612bb2565b506080820151613b5c6101c0860182612bb2565b5060a082015160e06101e0860152613b78610220860182612f92565b905060c0830151925061013f19858203016102008601526130aa8184612f92565b600080600080600060a08688031215613bb157600080fd5b8535613bbc81612914565b9450602086810135613bcd81612914565b945060408701356001600160401b0380821115613be957600080fd5b818901915089601f830112613bfd57600080fd5b8135613c0b61398b82613947565b81815260059190911b8301840190848101908c831115613c2a57600080fd5b938501935b82851015613c4857843582529385019390850190613c2f565b975050506060890135925080831115613c6057600080fd5b5050613c6e8882890161396a565b925050613c7d60808701612b0d565b90509295509295909350565b6020808252825182820181905260009190848201906040850190845b818110156136d457613cb8838551612caf565b928401926106a09290920191600101613ca5565b6000806000806101008587031215613ce357600080fd5b8435613cee81612914565b9350613cfd8660208701612e72565b9250613d0c8660a08701612a8b565b915060e0850135613d1c81612b1d565b939692955090935050565b613d32828251612c87565b6020810151613d446040840182612c87565b506040810151611cce6080840182612c87565b6001600160a01b038881168252878116602083015260408201879052610180820190613d866060840188613d27565b856101208401528085166101408401525082151561016083015298975050505050505050565b8051612b1881612914565b8051612b1881612b1d565b600060208284031215613dd457600080fd5b604051602081016001600160401b0381118282101715613df657613df661292c565b80604052508091508251613e0981612b1d565b905292915050565b60008183036101e0811215613e2557600080fd5b613e2d61296a565b91506060811215613e3d57600080fd5b613e4561296a565b8351613e5081612914565b81526020840151613e6081612914565b60208201526040840151613e7381612914565b60408201528252610160605f198201811315613e8e57600080fd5b613e966129ae565b9150606084015182526080840151602083015260a0840151604083015260c0840151606083015260e084015160808301526101008085015160a08401526101208086015160c08501526101408087015160e08601528387015183860152610180870151828601526101a0870151818601525050505080602083015250612b02836101c08401613dc2565b6000610100808385031215613f3457600080fd5b604051908101906001600160401b0382118183101715613f5657613f5661292c565b816040528092508351815260208401519150613f7182612914565b816020820152613f8360408501613dac565b6040820152606084015160608201526080840151608082015260a084015160a082015260c084015160c082015260e084015160e0820152505092915050565b600060c08284031215613fd457600080fd5b613fdc6129d1565b9050815181526020820151602082015260408201516040820152606082015160608201526080820151608082015260a082015160a082015292915050565b60006080828403121561402c57600080fd5b61403461298c565b90508151815260208201516020820152604082015160408201526060820151606082015292915050565b60006060828403121561407057600080fd5b61407861296a565b9050815161408581612914565b80825250602082015160208201526040820151604082015292915050565b6000604082840312156140b557600080fd5b6140bd612942565b9050815181526020820151602082015292915050565b6000606082840312156140e557600080fd5b6140ed61296a565b905081518152602082015160208201526040820151604082015292915050565b60008183036106a081121561412157600080fd5b6141296129d1565b6141338585613e11565b81526104006101df198301121561414957600080fd5b6141516129f3565b9150614161856101e08601613f20565b8252614171856102e08601613fc2565b6020830152614184856103a0860161401a565b604083015261419785610420860161405e565b60608301526141aa8561048086016140a3565b60808301526104c084015160a08301526104e084015160c083015261050084015160e08301526105208401516101008301526105408401516101208301526105608401516101408301526105808401516101608301526105a08401516101808301526105c08401516101a083015281602082015261422c856105e086016140d3565b6040820152610640840151606082015261066084015160808201526106809093015160a0840152509092915050565b6001600160a01b03881681526101a0810161427960208301896135f5565b61428660a0830188612c87565b61429360e0830187612c87565b6142a1610120830186612c87565b8361016083015282151561018083015298975050505050505050565b6000808284036101808112156142d257600080fd5b8351925061016080601f19830112156142ea57600080fd5b6142f26129ae565b91506020850151825260408501516020830152606085015160408301526080850151606083015260a0850151608083015260c085015160a083015260e085015160c08301526101008086015160e08401526101208087015182850152610140915081870151818501525081860151818401525050809150509250929050565b6001600160a01b03929092168252602082015260400190565b60006101e0828403121561439d57600080fd5b61071c8383613e11565b600082601f8301126143b857600080fd5b815160206143c861398b83613947565b82815260059290921b840181019181810190868411156143e757600080fd5b8286015b84811015610a7d5780516143fe81612914565b83529183019183016143eb565b600060e0828403121561441d57600080fd5b614425612a16565b9050815181526020820151602082015260408201516040820152606082015160608201526080820151608082015260a082015160a082015260c082015160c082015292915050565b60006020828403121561447f57600080fd5b81516001600160401b038082111561449657600080fd5b81840191506101208083870312156144ad57600080fd5b6144b561296a565b8351838111156144c457600080fd5b84018088038313156144d557600080fd5b6144dd612a38565b92506144e881613dac565b83526144f660208201613dac565b602084015261450760408201613dac565b604084015261451860608201613dac565b606084015261452960808201613dac565b608084015261453a60a08201613dac565b60a084015261454b60c08201613dac565b60c084015260e08101518481111561456257600080fd5b61456e898284016143a7565b60e085015250610100808201518581111561458857600080fd5b6145948a8285016143a7565b82860152508383526145a9896020880161440b565b60208401526145ba89828801613dc2565b60408401525090979650505050505050565b6001600160a01b0387811682526101c08201906145ec60208401896135f5565b6145f960a0840188613d27565b808616610160840152846101808401528084166101a084015250979650505050505050565b600080600083850361010081121561463557600080fd5b845193506020850151925060c0603f198201121561465257600080fd5b5061465b6129d1565b60408501518152606085015160208201526080850151604082015260a085015161468481612914565b606082015260c0850151608082015260e09094015160a0850152509093909250565b634e487b7160e01b600052603260045260246000fd5b805160088110612b1857600080fd5b805160038110612b1857600080fd5b600061016082840312156146ed57600080fd5b6146f56129ae565b9050614700826146bc565b815261470e602083016146cb565b602082015260408201516040820152606082015160608201526080820151608082015260a082015160a082015260c082015160c082015260e082015160e082015261010080830151818301525061012080830151818301525061014080830151818301525092915050565b60006080828403121561478b57600080fd5b61479361298c565b905081516147a081612b1d565b815260208201516147b081612b1d565b602082015260408201516147c381612b1d565b60408201526060820151612ecf81612b1d565b6000602082840312156147e857600080fd5b81516001600160401b03808211156147ff57600080fd5b90830190610200828603121561481457600080fd5b61481c61296a565b82518281111561482b57600080fd5b830160e0818803121561483d57600080fd5b614845612a16565b61484e82613dac565b815261485c60208301613dac565b602082015261486d60408301613dac565b604082015261487e60608301613dac565b606082015261488f60808301613dac565b60808201526148a060a08301613dac565b60a082015260c0820151848111156148b757600080fd5b6148c3898285016143a7565b60c0830152508252506148d986602085016146da565b60208201526148ec866101808501614779565b604082015295945050505050565b634e487b7160e01b600052601160045260246000fd5b600060018201614922576149226148fa565b5060010190565b6001600160a01b0392831681529116602082015260400190565b60006080828403121561495557600080fd5b61495d61298c565b9050815161496a81612914565b8152602082015161497a81612914565b6020820152604082015161498d81612914565b60408201526060820151612ecf81612914565b6000608082840312156149b257600080fd5b61071c8383614943565b6001600160a01b038816815261016081016149da60208301896135f5565b6149e760a0830188612c87565b8560e0830152846101008301528361012083015282151561014083015298975050505050505050565b600060608284031215614a2257600080fd5b61071c83836140d3565b6001600160a01b038881168252610180820190614a4c602084018a6135f5565b87811660a0840152861660c083015260e08201859052614a70610100830185612c87565b610599610140830184612c87565b60008060408385031215614a9157600080fd5b505080516020909101519092909150565b6001600160a01b0386811682526101a0820190614ac260208401886135f5565b614acf60a0840187613d27565b84610160840152808416610180840152509695505050505050565b6001600160a01b038481168252610100820190614b0a6020840186613d27565b80841660e084015250949350505050565b600060808284031215614b2d57600080fd5b614b35612942565b9050614b4183836140a3565b8152614b5083604084016140a3565b602082015292915050565b60006101608284031215614b6e57600080fd5b60405160a081016001600160401b0381118282101715614b9057614b9061292c565b80604052508091508251614ba381612b1d565b808252506020830151602082015260408301516040820152614bc88460608501614b1b565b6060820152614bda8460e08501614b1b565b60808201525092915050565b60008183036103a0811215614bfa57600080fd5b614c02612a16565b614c0c8585614943565b81526080840151602082015260a0840151604082015261010060bf1983011215614c3557600080fd5b614c3d612942565b9150614c4c8560c08601614b1b565b8252614c5c856101408601614b1b565b6020830152816060820152614c75856101c08601614b5b565b6080820152614c888561032086016140d3565b60a0820152614c9a6103808501613db7565b60c0820152949350505050565b6001600160a01b0387811682526101c0820190614cc760208401896135f5565b614cd460a0840188613d27565b85610160840152846101808401528084166101a084015250979650505050505050565b600060208284031215614d0957600080fd5b5051919050565b6001600160a01b03861681526103608101614d2e60208301876135f5565b614d3b60a0830186613d27565b614d4a61016083018551612bbf565b6020840151614d5d6101c0840182612be6565b506040939093015151151561032082015261034001529392505050565b600080600060608486031215614d8f57600080fd5b8351925060208401519150604084015190509250925092565b600060208284031215614dba57600080fd5b81516001600160401b0380821115614dd157600080fd5b908301906101208286031215614de657600080fd5b614dee61296a565b825182811115614dfd57600080fd5b830160e08188031215614e0f57600080fd5b614e17612a16565b614e2082613dac565b8152614e2e60208301613dac565b6020820152614e3f60408301613dac565b6040820152614e5060608301613dac565b6060820152614e6160808301613dac565b608082015260a082015184811115614e7857600080fd5b614e84898285016143a7565b60a08301525060c082015184811115614e9c57600080fd5b614ea8898285016143a7565b60c083015250825250614ebe866020850161440b565b60208201526148ec866101008501613dc2565b808202811582820484141761071f5761071f6148fa565b8181036000831280158383131683831282161715614f0857614f086148fa565b5092915050565b60006020808385031215614f2257600080fd5b82516001600160401b03811115614f3857600080fd5b8301601f81018513614f4957600080fd5b8051614f5761398b82613947565b81815260059190911b82018301908381019087831115614f7657600080fd5b928401925b828410156110a257835182529284019290840190614f7b565b600060208284031215614fa657600080fd5b81516001600160401b03811115614fbc57600080fd5b611f15848285016143a7565b8082018281126000831280158216821582161715614fe857614fe86148fa565b505092915050565b8082018082111561071f5761071f6148fa565b60006020828403121561501557600080fd5b815161071c81612b1d565b6000600160ff1b8201615035576150356148fa565b5060000390565b634e487b7160e01b600052601260045260246000fd5b60008261506f57634e487b7160e01b600052601260045260246000fd5b50049056fea2646970667358221220fbdcfe771fe5eed64c72823aec819baf197db19d1b8f84c8f3ea9038089e580464736f6c63430008120033",
  "deployedBytecode": "0x608060405234801561001057600080fd5b50600436106101335760003560e01c80630815bce114610138578063095ce6c5146101615780630fa8f5161461020a5780631485d2971461022a57806324c029e01461024a5780632b17b4fd1461026b578063409f37c71461029e57806342a6f8d31461031057806349651b6a146103305780635d2b44f9146103505780635d5c6efe14610370578063714af34b1461039857806371e138d5146103b857806377cfb162146103cb578063847bb469146103eb57806385874c7f1461040b578063971de27d1461041e578063a014093814610431578063a4f0d55014610444578063b4976dae14610457578063bc7b5bba14610479578063ce3264bf14610499578063ceeea3bf146104b9578063ece9e0c8146104d9578063fd50649d146104f9575b600080fd5b61014b610146366004612b2b565b61050c565b6040516101589190612e63565b60405180910390f35b61017461016f366004612eda565b6105a5565b60405161015892919060006101808201905083825282516020830152602083015160408301526040830151606083015260608301516080830152608083015160a083015260a083015160c083015260c083015160e083015260e083015161010081818501528085015191505061012081818501528085015191505061014081818501528085015161016085015250509392505050565b61021d610218366004612f57565b610699565b6040516101589190612f83565b61023d610238366004612f57565b610725565b6040516101589190612fd6565b61025d610258366004613116565b6107ab565b604051908152602001610158565b61027e610279366004613187565b6107c6565b604080519485529215156020850152918301526060820152608001610158565b6102b16102ac3660046131e3565b610861565b604080519384526020808501939093528151848201529181015160608085019190915291810151608080850191909152918101516001600160a01b031660a0808501919091529181015160c0840152015160e082015261010001610158565b61032361031e36600461325e565b61093b565b6040516101589190613444565b61034361033e366004612f57565b610a88565b60405161015891906134a6565b61036361035e3660046134b9565b610b0e565b6040516101589190613524565b61038361037e366004613532565b610c27565b60408051928352602083019190915201610158565b6103ab6103a63660046135bc565b610d3d565b6040516101589190613628565b6103836103c6366004613636565b610dbf565b6103de6103d936600461325e565b610e4f565b6040516101589190613691565b6103fe6103f93660046136e0565b610f8e565b60405161015891906137fd565b61025d61041936600461380c565b61101d565b61025d61042c366004613870565b6110ad565b61025d61043f366004613116565b611139565b6103ab610452366004612f57565b611148565b61046a6104653660046138d5565b611189565b60405161015893929190613931565b61048c6104873660046139df565b61129f565b6040516101589190613a3e565b6104ac6104a7366004613a81565b61138c565b6040516101589190613ab6565b6104cc6104c7366004612f57565b6114d9565b6040516101589190613af8565b6104ec6104e7366004613b99565b61155f565b6040516101589190613c89565b61025d610507366004613ccc565b61163d565b61051461242f565b6040516306bc109960e31b815273__$7d62b333171909e88f9935bee8a07b01ad$__906335e084c890610557908b908b908b908b908b908b908b90600401613d57565b6106a060405180830381865af4158015610575573d6000803e3d6000fd5b505050506040513d601f19601f82011682018060405250810190610599919061410d565b98975050505050505050565b600061060460405180610160016040528060008152602001600081526020016000815260200160008152602001600081526020016000815260200160008152602001600081526020016000815260200160008152602001600081525090565b604051637d494dc360e01b815273__$e53db83827f4e07ebc418caf7145b8c2d5$__90637d494dc390610647908c908c908c908c908c908c908c9060040161425b565b61018060405180830381865af4158015610665573d6000803e3d6000fd5b505050506040513d601f19601f8201168201806040525081019061068991906142bd565b9150915097509795505050505050565b6106a1612477565b60405163fdfc26f360e01b815273__$3d31b232fb363902662fbc281b11ab3357$__9063fdfc26f3906106da9086908690600401614371565b6101e060405180830381865af41580156106f8573d6000803e3d6000fd5b505050506040513d601f19601f8201168201806040525081019061071c919061438a565b90505b92915050565b61072d61251b565b60405163fdfc26f360e01b815273__$b63e253a228f0e32f671cc49c7fc32477c$__9063fdfc26f3906107669086908690600401614371565b600060405180830381865af4158015610783573d6000803e3d6000fd5b505050506040513d6000823e601f3d908101601f1916820160405261071c919081019061446d565b60006107ba868686868661164b565b90505b95945050505050565b60008060008060006107d98989896116dc565b905060006107e78a8a611756565b9050600080600061084a8d858c8e60405160200161082f9060208082526016908201527513505617d4139317d19050d513d497d193d497d0511360521b604082015260600190565b604051602081830303815290604052805190602001206117e7565b969f919e509c50949a509398505050505050505050565b6000806108a66040518060c0016040528060008152602001600081526020016000815260200160006001600160a01b0316815260200160008152602001600081525090565b60405163dafa66bf60e01b815273__$ae023ddda47a46a9af6ec057a2ebe54454$__9063dafa66bf906108e7908c908c908c908c908c908c906004016145cc565b61010060405180830381865af4158015610905573d6000803e3d6000fd5b505050506040513d601f19601f82011682018060405250810190610929919061461e565b92509250925096509650969350505050565b6060600061094b8686868661183b565b9050600081516001600160401b038111156109685761096861292c565b6040519080825280602002602001820160405280156109a157816020015b61098e6125b4565b8152602001906001900390816109865790505b50905060005b8251811015610a7d5760008382815181106109c4576109c46146a6565b6020026020010151905073__$9dcb75ef0bb6c4288f2ccffe7dc492c4eb$__63fdfc26f38a836040518363ffffffff1660e01b8152600401610a07929190614371565b600060405180830381865af4158015610a24573d6000803e3d6000fd5b505050506040513d6000823e601f3d908101601f19168201604052610a4c91908101906147d6565b838381518110610a5e57610a5e6146a6565b6020026020010181905250508080610a7590614910565b9150506109a7565b509695505050505050565b610a906125b4565b60405163fdfc26f360e01b815273__$9dcb75ef0bb6c4288f2ccffe7dc492c4eb$__9063fdfc26f390610ac99086908690600401614371565b600060405180830381865af4158015610ae6573d6000803e3d6000fd5b505050506040513d6000823e601f3d908101601f1916820160405261071c91908101906147d6565b610b1661262d565b60405163a8d8fff560e01b815260009073__$ff439aa65a80c9eec648f15db20b189505$__9063a8d8fff590610b52908c908c90600401614929565b608060405180830381865af4158015610b6f573d6000803e3d6000fd5b505050506040513d601f19601f82011682018060405250810190610b9391906149a0565b604051630a37d4c760e11b815290915073__$ae023ddda47a46a9af6ec057a2ebe54454$__9063146fa98e90610bd9908c9085908c908c908c908c908c906004016149bc565b606060405180830381865af4158015610bf6573d6000803e3d6000fd5b505050506040513d601f19601f82011682018060405250810190610c1a9190614a10565b9998505050505050505050565b600080600073__$ff439aa65a80c9eec648f15db20b189505$__63a8d8fff58b8b6040518363ffffffff1660e01b8152600401610c65929190614929565b608060405180830381865af4158015610c82573d6000803e3d6000fd5b505050506040513d601f19601f82011682018060405250810190610ca691906149a0565b6040516340f5d44f60e11b815290915073__$ae023ddda47a46a9af6ec057a2ebe54454$__906381eba89e90610cec908d9085908d908d908d908d908d90600401614a2c565b6040805180830381865af4158015610d08573d6000803e3d6000fd5b505050506040513d601f19601f82011682018060405250810190610d2c9190614a7e565b925092505097509795505050505050565b610d4561264e565b60405163a8d8fff560e01b815273__$ff439aa65a80c9eec648f15db20b189505$__9063a8d8fff590610d7e9086908690600401614929565b608060405180830381865af4158015610d9b573d6000803e3d6000fd5b505050506040513d601f19601f8201168201806040525081019061071c91906149a0565b60008073__$cede619ada704cb31824310f43bfb6e2d5$__633246702388888888886040518663ffffffff1660e01b8152600401610e01959493929190614aa2565b6040805180830381865af4158015610e1d573d6000803e3d6000fd5b505050506040513d601f19601f82011682018060405250810190610e419190614a7e565b915091509550959350505050565b60606000610e5f868686866118ba565b9050600081516001600160401b03811115610e7c57610e7c61292c565b604051908082528060200260200182016040528015610eb557816020015b610ea2612477565b815260200190600190039081610e9a5790505b50905060005b8251811015610a7d576000838281518110610ed857610ed86146a6565b6020026020010151905073__$3d31b232fb363902662fbc281b11ab3357$__63fdfc26f38a836040518363ffffffff1660e01b8152600401610f1b929190614371565b6101e060405180830381865af4158015610f39573d6000803e3d6000fd5b505050506040513d601f19601f82011682018060405250810190610f5d919061438a565b838381518110610f6f57610f6f6146a6565b6020026020010181905250508080610f8690614910565b915050610ebb565b610f96612675565b60405163619c4ddb60e01b815273__$7d62b333171909e88f9935bee8a07b01ad$__9063619c4ddb90610fd190879087908790600401614aea565b6103a060405180830381865af4158015610fef573d6000803e3d6000fd5b505050506040513d601f19601f820116820180604052508101906110139190614be6565b90505b9392505050565b604051636f72ba5d60e01b815260009073__$12e61648fa0188a8261c5e0807220aaa66$__90636f72ba5d90611061908a908a908a908a908a908a90600401614ca7565b602060405180830381865af415801561107e573d6000803e3d6000fd5b505050506040513d601f19601f820116820180604052508101906110a29190614cf7565b979650505050505050565b60008073__$ff439aa65a80c9eec648f15db20b189505$__63a8d8fff588886040518363ffffffff1660e01b81526004016110e9929190614929565b608060405180830381865af4158015611106573d6000803e3d6000fd5b505050506040513d601f19601f8201168201806040525081019061112a91906149a0565b90506110a287828787876118d4565b60006107ba8686868686611918565b61115061264e565b6040516329bc01e160e11b815273__$ff439aa65a80c9eec648f15db20b189505$__9063537803c290610d7e9086908690600401614371565b60008060008073__$3d31b232fb363902662fbc281b11ab3357$__63fdfc26f38a886040518363ffffffff1660e01b81526004016111c8929190614371565b6101e060405180830381865af41580156111e6573d6000803e3d6000fd5b505050506040513d601f19601f8201168201806040525081019061120a919061438a565b60405163e22de79360e01b815290915073__$91a1a7f12f728c8759f4be979bae55555f$__9063e22de7939061124c908c908c908c9087908c90600401614d10565b606060405180830381865af4158015611269573d6000803e3d6000fd5b505050506040513d601f19601f8201168201806040525081019061128d9190614d7a565b93509350935050955095509592505050565b606060006112ae868585611943565b9050600081516001600160401b038111156112cb576112cb61292c565b60405190808252806020026020018201604052801561130457816020015b6112f1612675565b8152602001906001900390816112e95790505b50905060005b8251811015610a7d576000878281518110611327576113276146a6565b602002602001015190506000848381518110611345576113456146a6565b6020026020010151905061135a8a8383610f8e565b84848151811061136c5761136c6146a6565b60200260200101819052505050808061138490614910565b91505061130a565b6060600061139b858585611943565b9050600081516001600160401b038111156113b8576113b861292c565b6040519080825280602002602001820160405280156113f157816020015b6113de61264e565b8152602001906001900390816113d65790505b50905060005b82518110156114cf576000838281518110611414576114146146a6565b60200260200101519050600073__$ff439aa65a80c9eec648f15db20b189505$__63a8d8fff58a846040518363ffffffff1660e01b8152600401611459929190614929565b608060405180830381865af4158015611476573d6000803e3d6000fd5b505050506040513d601f19601f8201168201806040525081019061149a91906149a0565b9050808484815181106114af576114af6146a6565b6020026020010181905250505080806114c790614910565b9150506113f7565b5095945050505050565b6114e16126e6565b60405163fdfc26f360e01b815273__$3dc24d71d6ebafc0c4ce8ac2f69cd1548a$__9063fdfc26f39061151a9086908690600401614371565b600060405180830381865af4158015611537573d6000803e3d6000fd5b505050506040513d6000823e601f3d908101601f1916820160405261071c9190810190614da8565b6060600084516001600160401b0381111561157c5761157c61292c565b6040519080825280602002602001820160405280156115b557816020015b6115a261242f565b81526020019060019003908161159a5790505b50905060005b8551811015610a7d5760008682815181106115d8576115d86146a6565b6020026020010151905061160c8989838986815181106115fa576115fa6146a6565b602002602001015160008a600161050c565b83838151811061161e5761161e6146a6565b602002602001018190525050808061163590614910565b9150506115bb565b60006107bd858585856119fe565b60008061166161165c888887611a2d565b611a80565b90506000611670888887611af3565b905081158061167d575080155b1561168d576000925050506107bd565b600061169a878787611b3a565b905060006116ab61165c8385614ed1565b90506000876116c3576116be8286614ee8565b6116cd565b6116cd8583614ee8565b9b9a5050505050505050505050565b6000836001600160a01b031663bd02d0f56116f78585611b73565b6040518263ffffffff1660e01b815260040161171591815260200190565b602060405180830381865afa158015611732573d6000803e3d6000fd5b505050506040513d601f19601f820116820180604052508101906110139190614cf7565b61175e61264e565b60405163a8d8fff560e01b815260009073__$ff439aa65a80c9eec648f15db20b189505$__9063a8d8fff59061179a9087908790600401614929565b608060405180830381865af41580156117b7573d6000803e3d6000fd5b505050506040513d601f19601f820116820180604052508101906117db91906149a0565b905061071c8482611bfa565b6000806000806117fb8989898960016118d4565b9050600061180f8a878b600001518a611cd3565b90506000808313801561182957508161182784611d4e565b115b9b929a50909850909650505050505050565b6060846001600160a01b031663f069052a61185586611da0565b85856040518463ffffffff1660e01b815260040161187593929190613931565b600060405180830381865afa158015611892573d6000803e3d6000fd5b505050506040513d6000823e601f3d908101601f191682016040526107bd9190810190614f0f565b6060846001600160a01b031663f069052a61185586611e22565b6000806118e5878787878715611e5d565b9050806000036118f95760009150506107bd565b600061190c88888860000151888861164b565b90506105998183611ed6565b600080611926878786611a2d565b90506000611937888888888861164b565b90506105998282611f1d565b6060836001600160a01b031663e7e4148e604051602001611983906020808252600b908201526a13505492d15517d31254d560aa1b604082015260600190565b6040516020818303038152906040528051906020012085856040518463ffffffff1660e01b81526004016119b993929190613931565b600060405180830381865afa1580156119d6573d6000803e3d6000fd5b505050506040513d6000823e601f3d908101601f191682016040526110139190810190614f94565b600080611a0f86868660018761164b565b90506000611a2187878760008861164b565b90506110a28183614fc8565b600080611a4284604001518560600151611f33565b90506000611a5b86866000015187604001518786611f62565b90506000611a7487876000015188606001518887611f62565b90506110a28183614ff0565b60006001600160ff1b03821115611aef5760405162461bcd60e51b815260206004820152602860248201527f53616665436173743a2076616c756520646f65736e27742066697420696e2061604482015267371034b73a191a9b60c11b60648201526084015b60405180910390fd5b5090565b600080611b0884604001518560600151611f33565b90506000611b2186866000015187604001518786611fe8565b90506000611a7487876000015188606001518887611fe8565b60008215611b5b5781611b4e578351611b54565b83602001515b9050611016565b81611b6a578360200151611013565b50509051919050565b6000604051602001611ba6906020808252600d908201526c1310551154d517d0511317d055609a1b604082015260600190565b60408051601f198184030181528282528051602091820120908301526001600160a01b0385169082015282151560608201526080015b60405160208183030381529060405280519060200120905092915050565b80516001600160a01b0316611c22576040516302fde0d760e11b815260040160405180910390fd5b6000826001600160a01b0316637ae1cfca611c408460000151612005565b6040518263ffffffff1660e01b8152600401611c5e91815260200190565b602060405180830381865afa158015611c7b573d6000803e3d6000fd5b505050506040513d601f19601f82011682018060405250810190611c9f9190615003565b90508015611cce5781516040516309f8c93760e01b81526001600160a01b039091166004820152602401611ae6565b505050565b6000846001600160a01b031663bd02d0f5611cef86868661203d565b6040518263ffffffff1660e01b8152600401611d0d91815260200190565b602060405180830381865afa158015611d2a573d6000803e3d6000fd5b505050506040513d601f19601f820116820180604052508101906107bd9190614cf7565b600080821215611aef5760405162461bcd60e51b815260206004820181905260248201527f53616665436173743a2076616c7565206d75737420626520706f7369746976656044820152606401611ae6565b6000604051602001611dd8906020808252601290820152711050d0d3d5539517d3d491115497d31254d560721b604082015260600190565b60408051601f198184030181528282528051602091820120908301526001600160a01b03841690820152606001604051602081830303815290604052805190602001209050919050565b6000604051602001611dd8906020808252601590820152741050d0d3d5539517d413d4d2551253d397d31254d5605a1b604082015260600190565b60008083611e6f578560600151611e75565b85604001515b90506000611e848888846120cc565b905060008415611eb25785611ea157866040015160200151611eab565b8660200151602001515b9050611ecc565b85611ec257604087015151611ec9565b6020870151515b90505b610c1a8183614ed1565b600080611eeb611ee58561216a565b8461217b565b905060008413611f0c57611efe81611a80565b611f0790615020565b611f15565b611f1581611a80565b949350505050565b600081611f2984611a80565b61071c9190614fc8565b6000816001600160a01b0316836001600160a01b031614611f55576001611f58565b60025b60ff169392505050565b600081866001600160a01b031663bd02d0f5611f7f888888612189565b6040518263ffffffff1660e01b8152600401611f9d91815260200190565b602060405180830381865afa158015611fba573d6000803e3d6000fd5b505050506040513d601f19601f82011682018060405250810190611fde9190614cf7565b6107ba9190615052565b600081866001600160a01b031663bd02d0f5611f7f888888612201565b6000604051602001611dd8906020808252601290820152711254d7d3505492d15517d11254d05093115160721b604082015260600190565b6000604051602001612071906020808252600e908201526d26a0ac2fa827262fa320a1aa27a960911b604082015260600190565b60408051601f1981840301815282825280516020918201209083015281018590526001600160a01b0384166060820152821515608082015260a0015b6040516020818303038152906040528051906020012090509392505050565b6000806120e184604001518560600151611f33565b905080856001600160a01b031663bd02d0f561210187600001518761223e565b6040518263ffffffff1660e01b815260040161211f91815260200190565b602060405180830381865afa15801561213c573d6000803e3d6000fd5b505050506040513d601f19601f820116820180604052508101906121609190614cf7565b6107bd9190615052565b600080821215611aef575060000390565b600061071c838360006122ac565b60006040516020016121bc906020808252600d908201526c13d4115397d2539511549154d5609a1b604082015260600190565b60408051601f198184030181528282528051602091820120908301526001600160a01b038087169183019190915284166060820152821515608082015260a0016120ad565b60006040516020016121bc906020808252601790820152764f50454e5f494e5445524553545f494e5f544f4b454e5360481b604082015260600190565b600060405160200161226f906020808252600b908201526a1413d3d317d05353d5539560aa1b604082015260600190565b60408051601f198184030181528282528051602091820120908301526001600160a01b038086169183019190915283166060820152608001611bdc565b6000836000036122be57506000611016565b81156122dd57611b548468327cb2734119d3b7a9601e1b8560016122f4565b6110138468327cb2734119d3b7a9601e1b85612345565b600080612302868686612345565b90506001836002811115612318576123186132a4565b1480156123355750600084806123305761233061503c565b868809115b156107bd576107ba600182614ff0565b600080806000198587098587029250828110838203039150508060000361237f578382816123755761237561503c565b0492505050611016565b8084116123c65760405162461bcd60e51b81526020600482015260156024820152744d6174683a206d756c446976206f766572666c6f7760581b6044820152606401611ae6565b60008486880960026001871981018816978890046003810283188082028403028082028403028082028403028082028403028082028403029081029092039091026000889003889004909101858311909403939093029303949094049190911702949350505050565b6040518060c00160405280612442612477565b815260200161244f61272e565b815260200161245c61262d565b81526020016000815260200160008152602001600081525090565b6040805160c081019091526000606082018181526080830182905260a0830191909152819081526020016124fe60405180610160016040528060008152602001600081526020016000815260200160008152602001600081526020016000815260200160008152602001600081526020016000815260200160008152602001600081525090565b81526040805160208181019092526000815291015290565b905290565b604080516101808101909152600060608083018281526080840183905260a0840183905260c0840183905260e084018390526101008401839052610120840192909252610140830181905261016083015281905b81526020016124fe6040518060e00160405280600081526020016000815260200160008152602001600081526020016000815260200160008152602001600081525090565b604080516101408101909152600060608083018281526080840183905260a0840183905260c0840183905260e08401839052610100840192909252610120830152815260208101612603612874565b81526040805160808101825260008082526020828101829052928201819052606082015291015290565b60405180606001604052806000815260200160008152602001600081525090565b60408051608081018252600080825260208201819052918101829052606081019190915290565b6040518060e0016040528061268861264e565b815260200160008152602001600081526020016126a361288f565b81526020016126b06128af565b81526020016126d960405180606001604052806000815260200160008152602001600081525090565b8152600060209091015290565b604080516101408101909152600060608083018281526080840183905260a0840183905260c0840183905260e08401929092526101008301819052610120830152819061256f565b604080516102c0810190915260006101c082018181526101e08301829052610200830182905261022083018290526102408301829052610260830182905261028083018290526102a0830191909152819081526020016127bd6040518060c001604052806000815260200160008152602001600081526020016000815260200160008152602001600081525090565b81526020016127ed6040518060800160405280600081526020016000815260200160008152602001600081525090565b8152604080516060810182526000808252602082810182905292820152910190815260200161282f604051806040016040528060008152602001600081525090565b81526020016000815260200160008152602001600081526020016000815260200160008152602001600081526020016000815260200160008152602001600081525090565b6040805161016081019091528060008152602001600061282f565b60405180604001604052806128a26128d5565b81526020016125166128d5565b6040518060a0016040528060001515815260200160008152602001600081526020016128a25b60408051608081018252600091810182815260608201929092529081908152602001612516604051806040016040528060008152602001600081525090565b6001600160a01b038116811461292957600080fd5b50565b634e487b7160e01b600052604160045260246000fd5b604080519081016001600160401b03811182821017156129645761296461292c565b60405290565b604051606081016001600160401b03811182821017156129645761296461292c565b604051608081016001600160401b03811182821017156129645761296461292c565b60405161016081016001600160401b03811182821017156129645761296461292c565b60405160c081016001600160401b03811182821017156129645761296461292c565b6040516101c081016001600160401b03811182821017156129645761296461292c565b60405160e081016001600160401b03811182821017156129645761296461292c565b60405161012081016001600160401b03811182821017156129645761296461292c565b604051601f8201601f191681016001600160401b0381118282101715612a8357612a8361292c565b604052919050565b600060408284031215612a9d57600080fd5b612aa5612942565b9050813581526020820135602082015292915050565b600060c08284031215612acd57600080fd5b612ad561296a565b9050612ae18383612a8b565b8152612af08360408401612a8b565b6020820152612b028360808401612a8b565b604082015292915050565b8035612b1881612914565b919050565b801515811461292957600080fd5b6000806000806000806000610180888a031215612b4757600080fd5b8735612b5281612914565b96506020880135612b6281612914565b955060408801359450612b788960608a01612abb565b93506101208801359250610140880135612b9181612914565b9150610160880135612ba281612b1d565b8091505092959891949750929550565b6001600160a01b03169052565b80516001600160a01b03908116835260208083015182169084015260409182015116910152565b805182526020810151602083015260408101516040830152606081015160608301526080810151608083015260a081015160a083015260c081015160c083015260e081015160e08301526101008082015181840152506101208082015181840152506101408082015181840152505050565b612c63828251612bbf565b6020810151612c756060840182612be6565b50604001515115156101c09190910152565b80518252602090810151910152565b8051825260208082015190830152604090810151910152565b612cba828251612c58565b602081810151805180516101e0860152808301516001600160a01b0390811661020087015260408083015182166102208801526060808401516102408901526080808501516102608a015260a0808601516102808b015260c08601516102a08b015260e0909501516102c08a01528587015180516102e08b0152808801516103008b0152808401516103208b0152808301516103408b0152808201516103608b0152909401516103808901528185015180516103a08a0152808701516103c08a0152808301516103e08a01528101516104008901528401518051909216610420880152938101516104408701529092015161046085015290810151612dc3610480850182612c87565b5060a08101516104c084015260c08101516104e084015260e08101516105008401526101008101516105208401526101208101516105408401526101408101516105608401526101608101516105808401526101808101516105a08401526101a001516105c08301526040810151612e3f6105e0840182612c96565b506060810151610640830152608081015161066083015260a0015161068090910152565b6106a0810161071f8284612caf565b600060808284031215612e8457600080fd5b612e8c61298c565b90508135612e9981612914565b81526020820135612ea981612914565b60208201526040820135612ebc81612914565b60408201526060820135612ecf81612914565b606082015292915050565b60008060008060008060006101a0888a031215612ef657600080fd5b8735612f0181612914565b9650612f108960208a01612e72565b9550612f1f8960a08a01612a8b565b9450612f2e8960e08a01612a8b565b9350612f3e896101208a01612a8b565b92506101608801359150610180880135612ba281612b1d565b60008060408385031215612f6a57600080fd5b8235612f7581612914565b946020939093013593505050565b6101e0810161071f8284612c58565b600081518084526020808501945080840160005b83811015612fcb5781516001600160a01b031687529582019590820190600101612fa6565b509495945050505050565b6020815260008251610120806020850152612ff661014085018351612bb2565b6020820151613009610160860182612bb2565b50604082015161301d610180860182612bb2565b5060608201516130316101a0860182612bb2565b5060808201516130456101c0860182612bb2565b5060a08201516130596101e0860182612bb2565b5060c082015161306d610200860182612bb2565b5060e082015181610220860152613088610260860182612f92565b9050610100830151925061013f19858203016102408601526130aa8184612f92565b92505060208501516130fe6040860182805182526020810151602083015260408101516040830152606081015160608301526080810151608083015260a081015160a083015260c081015160c08301525050565b50604085015180511515858301525090949350505050565b6000806000806000610120868803121561312f57600080fd5b853561313a81612914565b94506131498760208801612e72565b93506131588760a08801612a8b565b925060e086013561316881612b1d565b915061010086013561317981612b1d565b809150509295509295909350565b600080600080610120858703121561319e57600080fd5b84356131a981612914565b935060208501356131b981612914565b925060408501356131c981612b1d565b91506131d88660608701612abb565b905092959194509250565b6000806000806000806101c087890312156131fd57600080fd5b863561320881612914565b95506132178860208901612e72565b94506132268860a08901612abb565b935061016087013561323781612914565b925061018087013591506101a087013561325081612914565b809150509295509295509295565b6000806000806080858703121561327457600080fd5b843561327f81612914565b9350602085013561328f81612914565b93969395505050506040820135916060013590565b634e487b7160e01b600052602160045260246000fd5b600881106132ca576132ca6132a4565b9052565b600381106132ca576132ca6132a4565b6132e98282516132ba565b60208101516132fb60208401826132ce565b5060408101516040830152606081015160608301526080810151608083015260a081015160a083015260c081015160c083015260e081015160e08301526101008082015181840152506101208082015181840152506101408082015181840152505050565b805161020080845281516001600160a01b03908116918501919091526020820151811661022085015260408201511661024084015260608101516000916133ab610260860183612bb2565b608081015191506133c0610280860183612bb2565b60a081015191506133d56102a0860183612bb2565b60c0015160e06102c086015290506133f16102e0850182612f92565b9050602083015161340560208601826132de565b5060408381015180511515610180870152602081015115156101a08701529081015115156101c0860152606081015115156101e0860152509392505050565b6000602080830181845280855180835260408601915060408160051b870101925083870160005b8281101561349957603f19888603018452613487858351613360565b9450928501929085019060010161346b565b5092979650505050505050565b60208152600061071c6020830184613360565b6000806000806000806000610100888a0312156134d557600080fd5b87356134e081612914565b965060208801356134f081612914565b95506134ff8960408a01612a8b565b94506080880135935060a0880135925060c0880135915060e0880135612ba281612b1d565b6060810161071f8284612c96565b6000806000806000806000610120888a03121561354e57600080fd5b873561355981612914565b9650602088013561356981612914565b9550604088013561357981612914565b9450606088013561358981612914565b93506080880135925061359f8960a08a01612a8b565b91506135ae8960e08a01612a8b565b905092959891949750929550565b600080604083850312156135cf57600080fd5b82356135da81612914565b915060208301356135ea81612914565b809150509250929050565b80516001600160a01b03908116835260208083015182169084015260408083015182169084015260609182015116910152565b6080810161071f82846135f5565b60008060008060006101a0868803121561364f57600080fd5b853561365a81612914565b94506136698760208801612e72565b93506136788760a08801612abb565b9250610160860135915061018086013561317981612914565b6020808252825182820181905260009190848201906040850190845b818110156136d4576136c0838551612c58565b928401926101e092909201916001016136ad565b50909695505050505050565b600080600061010084860312156136f657600080fd5b833561370181612914565b92506137108560208601612abb565b915060e084013561372081612914565b809150509250925092565b613736828251612c87565b6020810151611cce6040840182612c87565b6137538282516135f5565b60208101516080830152604081015160a0830152606081015161377a60c08401825161372b565b6020015161378c61014084018261372b565b506080810151805115156101c084015260208101516101e0840152604081015161020084015260608101516137c561022085018261372b565b50608001516137d86102a084018261372b565b5060a08101516137ec610320840182612c96565b5060c0015115156103809190910152565b6103a0810161071f8284613748565b6000806000806000806101c0878903121561382657600080fd5b863561383181612914565b95506138408860208901612e72565b945061384f8860a08901612abb565b9350610160870135925061018087013591506101a087013561325081612914565b6000806000806000610140868803121561388957600080fd5b853561389481612914565b945060208601356138a481612914565b93506138b38760408801612abb565b92506101008601356138c481612b1d565b915061012086013561317981612b1d565b60008060008060006101a086880312156138ee57600080fd5b85356138f981612914565b94506139088760208801612e72565b93506139178760a08801612abb565b949793965093946101608101359450610180013592915050565b9283526020830191909152604082015260600190565b60006001600160401b038211156139605761396061292c565b5060051b60200190565b600082601f83011261397b57600080fd5b8135602061399061398b83613947565b612a5b565b82815260c092830285018201928282019190878511156139af57600080fd5b8387015b858110156139d2576139c58982612abb565b84529284019281016139b3565b5090979650505050505050565b600080600080608085870312156139f557600080fd5b8435613a0081612914565b935060208501356001600160401b03811115613a1b57600080fd5b613a278782880161396a565b949794965050505060408301359260600135919050565b6020808252825182820181905260009190848201906040850190845b818110156136d457613a6d838551613748565b928401926103a09290920191600101613a5a565b600080600060608486031215613a9657600080fd5b8335613aa181612914565b95602085013595506040909401359392505050565b6020808252825182820181905260009190848201906040850190845b818110156136d457613ae58385516135f5565b9284019260809290920191600101613ad2565b602081526000825161012080602085015260018060a01b03808351166101408601528060208401511661016086015280604084015116610180860152506060820151613b486101a0860182612bb2565b506080820151613b5c6101c0860182612bb2565b5060a082015160e06101e0860152613b78610220860182612f92565b905060c0830151925061013f19858203016102008601526130aa8184612f92565b600080600080600060a08688031215613bb157600080fd5b8535613bbc81612914565b9450602086810135613bcd81612914565b945060408701356001600160401b0380821115613be957600080fd5b818901915089601f830112613bfd57600080fd5b8135613c0b61398b82613947565b81815260059190911b8301840190848101908c831115613c2a57600080fd5b938501935b82851015613c4857843582529385019390850190613c2f565b975050506060890135925080831115613c6057600080fd5b5050613c6e8882890161396a565b925050613c7d60808701612b0d565b90509295509295909350565b6020808252825182820181905260009190848201906040850190845b818110156136d457613cb8838551612caf565b928401926106a09290920191600101613ca5565b6000806000806101008587031215613ce357600080fd5b8435613cee81612914565b9350613cfd8660208701612e72565b9250613d0c8660a08701612a8b565b915060e0850135613d1c81612b1d565b939692955090935050565b613d32828251612c87565b6020810151613d446040840182612c87565b506040810151611cce6080840182612c87565b6001600160a01b038881168252878116602083015260408201879052610180820190613d866060840188613d27565b856101208401528085166101408401525082151561016083015298975050505050505050565b8051612b1881612914565b8051612b1881612b1d565b600060208284031215613dd457600080fd5b604051602081016001600160401b0381118282101715613df657613df661292c565b80604052508091508251613e0981612b1d565b905292915050565b60008183036101e0811215613e2557600080fd5b613e2d61296a565b91506060811215613e3d57600080fd5b613e4561296a565b8351613e5081612914565b81526020840151613e6081612914565b60208201526040840151613e7381612914565b60408201528252610160605f198201811315613e8e57600080fd5b613e966129ae565b9150606084015182526080840151602083015260a0840151604083015260c0840151606083015260e084015160808301526101008085015160a08401526101208086015160c08501526101408087015160e08601528387015183860152610180870151828601526101a0870151818601525050505080602083015250612b02836101c08401613dc2565b6000610100808385031215613f3457600080fd5b604051908101906001600160401b0382118183101715613f5657613f5661292c565b816040528092508351815260208401519150613f7182612914565b816020820152613f8360408501613dac565b6040820152606084015160608201526080840151608082015260a084015160a082015260c084015160c082015260e084015160e0820152505092915050565b600060c08284031215613fd457600080fd5b613fdc6129d1565b9050815181526020820151602082015260408201516040820152606082015160608201526080820151608082015260a082015160a082015292915050565b60006080828403121561402c57600080fd5b61403461298c565b90508151815260208201516020820152604082015160408201526060820151606082015292915050565b60006060828403121561407057600080fd5b61407861296a565b9050815161408581612914565b80825250602082015160208201526040820151604082015292915050565b6000604082840312156140b557600080fd5b6140bd612942565b9050815181526020820151602082015292915050565b6000606082840312156140e557600080fd5b6140ed61296a565b905081518152602082015160208201526040820151604082015292915050565b60008183036106a081121561412157600080fd5b6141296129d1565b6141338585613e11565b81526104006101df198301121561414957600080fd5b6141516129f3565b9150614161856101e08601613f20565b8252614171856102e08601613fc2565b6020830152614184856103a0860161401a565b604083015261419785610420860161405e565b60608301526141aa8561048086016140a3565b60808301526104c084015160a08301526104e084015160c083015261050084015160e08301526105208401516101008301526105408401516101208301526105608401516101408301526105808401516101608301526105a08401516101808301526105c08401516101a083015281602082015261422c856105e086016140d3565b6040820152610640840151606082015261066084015160808201526106809093015160a0840152509092915050565b6001600160a01b03881681526101a0810161427960208301896135f5565b61428660a0830188612c87565b61429360e0830187612c87565b6142a1610120830186612c87565b8361016083015282151561018083015298975050505050505050565b6000808284036101808112156142d257600080fd5b8351925061016080601f19830112156142ea57600080fd5b6142f26129ae565b91506020850151825260408501516020830152606085015160408301526080850151606083015260a0850151608083015260c085015160a083015260e085015160c08301526101008086015160e08401526101208087015182850152610140915081870151818501525081860151818401525050809150509250929050565b6001600160a01b03929092168252602082015260400190565b60006101e0828403121561439d57600080fd5b61071c8383613e11565b600082601f8301126143b857600080fd5b815160206143c861398b83613947565b82815260059290921b840181019181810190868411156143e757600080fd5b8286015b84811015610a7d5780516143fe81612914565b83529183019183016143eb565b600060e0828403121561441d57600080fd5b614425612a16565b9050815181526020820151602082015260408201516040820152606082015160608201526080820151608082015260a082015160a082015260c082015160c082015292915050565b60006020828403121561447f57600080fd5b81516001600160401b038082111561449657600080fd5b81840191506101208083870312156144ad57600080fd5b6144b561296a565b8351838111156144c457600080fd5b84018088038313156144d557600080fd5b6144dd612a38565b92506144e881613dac565b83526144f660208201613dac565b602084015261450760408201613dac565b604084015261451860608201613dac565b606084015261452960808201613dac565b608084015261453a60a08201613dac565b60a084015261454b60c08201613dac565b60c084015260e08101518481111561456257600080fd5b61456e898284016143a7565b60e085015250610100808201518581111561458857600080fd5b6145948a8285016143a7565b82860152508383526145a9896020880161440b565b60208401526145ba89828801613dc2565b60408401525090979650505050505050565b6001600160a01b0387811682526101c08201906145ec60208401896135f5565b6145f960a0840188613d27565b808616610160840152846101808401528084166101a084015250979650505050505050565b600080600083850361010081121561463557600080fd5b845193506020850151925060c0603f198201121561465257600080fd5b5061465b6129d1565b60408501518152606085015160208201526080850151604082015260a085015161468481612914565b606082015260c0850151608082015260e09094015160a0850152509093909250565b634e487b7160e01b600052603260045260246000fd5b805160088110612b1857600080fd5b805160038110612b1857600080fd5b600061016082840312156146ed57600080fd5b6146f56129ae565b9050614700826146bc565b815261470e602083016146cb565b602082015260408201516040820152606082015160608201526080820151608082015260a082015160a082015260c082015160c082015260e082015160e082015261010080830151818301525061012080830151818301525061014080830151818301525092915050565b60006080828403121561478b57600080fd5b61479361298c565b905081516147a081612b1d565b815260208201516147b081612b1d565b602082015260408201516147c381612b1d565b60408201526060820151612ecf81612b1d565b6000602082840312156147e857600080fd5b81516001600160401b03808211156147ff57600080fd5b90830190610200828603121561481457600080fd5b61481c61296a565b82518281111561482b57600080fd5b830160e0818803121561483d57600080fd5b614845612a16565b61484e82613dac565b815261485c60208301613dac565b602082015261486d60408301613dac565b604082015261487e60608301613dac565b606082015261488f60808301613dac565b60808201526148a060a08301613dac565b60a082015260c0820151848111156148b757600080fd5b6148c3898285016143a7565b60c0830152508252506148d986602085016146da565b60208201526148ec866101808501614779565b604082015295945050505050565b634e487b7160e01b600052601160045260246000fd5b600060018201614922576149226148fa565b5060010190565b6001600160a01b0392831681529116602082015260400190565b60006080828403121561495557600080fd5b61495d61298c565b9050815161496a81612914565b8152602082015161497a81612914565b6020820152604082015161498d81612914565b60408201526060820151612ecf81612914565b6000608082840312156149b257600080fd5b61071c8383614943565b6001600160a01b038816815261016081016149da60208301896135f5565b6149e760a0830188612c87565b8560e0830152846101008301528361012083015282151561014083015298975050505050505050565b600060608284031215614a2257600080fd5b61071c83836140d3565b6001600160a01b038881168252610180820190614a4c602084018a6135f5565b87811660a0840152861660c083015260e08201859052614a70610100830185612c87565b610599610140830184612c87565b60008060408385031215614a9157600080fd5b505080516020909101519092909150565b6001600160a01b0386811682526101a0820190614ac260208401886135f5565b614acf60a0840187613d27565b84610160840152808416610180840152509695505050505050565b6001600160a01b038481168252610100820190614b0a6020840186613d27565b80841660e084015250949350505050565b600060808284031215614b2d57600080fd5b614b35612942565b9050614b4183836140a3565b8152614b5083604084016140a3565b602082015292915050565b60006101608284031215614b6e57600080fd5b60405160a081016001600160401b0381118282101715614b9057614b9061292c565b80604052508091508251614ba381612b1d565b808252506020830151602082015260408301516040820152614bc88460608501614b1b565b6060820152614bda8460e08501614b1b565b60808201525092915050565b60008183036103a0811215614bfa57600080fd5b614c02612a16565b614c0c8585614943565b81526080840151602082015260a0840151604082015261010060bf1983011215614c3557600080fd5b614c3d612942565b9150614c4c8560c08601614b1b565b8252614c5c856101408601614b1b565b6020830152816060820152614c75856101c08601614b5b565b6080820152614c888561032086016140d3565b60a0820152614c9a6103808501613db7565b60c0820152949350505050565b6001600160a01b0387811682526101c0820190614cc760208401896135f5565b614cd460a0840188613d27565b85610160840152846101808401528084166101a084015250979650505050505050565b600060208284031215614d0957600080fd5b5051919050565b6001600160a01b03861681526103608101614d2e60208301876135f5565b614d3b60a0830186613d27565b614d4a61016083018551612bbf565b6020840151614d5d6101c0840182612be6565b506040939093015151151561032082015261034001529392505050565b600080600060608486031215614d8f57600080fd5b8351925060208401519150604084015190509250925092565b600060208284031215614dba57600080fd5b81516001600160401b0380821115614dd157600080fd5b908301906101208286031215614de657600080fd5b614dee61296a565b825182811115614dfd57600080fd5b830160e08188031215614e0f57600080fd5b614e17612a16565b614e2082613dac565b8152614e2e60208301613dac565b6020820152614e3f60408301613dac565b6040820152614e5060608301613dac565b6060820152614e6160808301613dac565b608082015260a082015184811115614e7857600080fd5b614e84898285016143a7565b60a08301525060c082015184811115614e9c57600080fd5b614ea8898285016143a7565b60c083015250825250614ebe866020850161440b565b60208201526148ec866101008501613dc2565b808202811582820484141761071f5761071f6148fa565b8181036000831280158383131683831282161715614f0857614f086148fa565b5092915050565b60006020808385031215614f2257600080fd5b82516001600160401b03811115614f3857600080fd5b8301601f81018513614f4957600080fd5b8051614f5761398b82613947565b81815260059190911b82018301908381019087831115614f7657600080fd5b928401925b828410156110a257835182529284019290840190614f7b565b600060208284031215614fa657600080fd5b81516001600160401b03811115614fbc57600080fd5b611f15848285016143a7565b8082018281126000831280158216821582161715614fe857614fe86148fa565b505092915050565b8082018082111561071f5761071f6148fa565b60006020828403121561501557600080fd5b815161071c81612b1d565b6000600160ff1b8201615035576150356148fa565b5060000390565b634e487b7160e01b600052601260045260246000fd5b60008261506f57634e487b7160e01b600052601260045260246000fd5b50049056fea2646970667358221220fbdcfe771fe5eed64c72823aec819baf197db19d1b8f84c8f3ea9038089e580464736f6c63430008120033",
  "libraries": {
    "MarketUtils": "0xda16017e0A79Fa08A861135b341451c4D5943a06",
    "MarketStoreUtils": "0x0D0f41c0C045E2C1af2D1437B87463314cbe9542",
    "DepositStoreUtils": "0x6DE54b5C741128e0851aF1C94bB471b05773b625",
    "WithdrawalStoreUtils": "0xd85d9798641E6116A3cAEF8d62270D8d553aC964",
    "PositionStoreUtils": "0xbafc25c9E7895364387413A8C67cCB8d4710E4A5",
    "PositionUtils": "0xC956Bdc0a345E9F2ed21fc113bCE915DD64a78a1",
    "OrderStoreUtils": "0x02a9C08CdC3AaBfBFAa58F0b24d3c64084959AEC",
    "ReaderUtils": "0xc576272Ef7653A7Ae4b0ecD270DB55191bd02624",
    "ReaderDepositUtils": "0xd134f36E0Fbb65FF40353e22598488af8EdBaAB7",
    "ReaderWithdrawalUtils": "0xb18a82Cb241C082c0eCe6D5328600C962B0b85Cd",
    "ReaderPricingUtils": "0x40a27Ea6e4A947F8FFce41026C0EFD60Ea904856"
  },
  "devdoc": {
    "kind": "dev",
    "methods": {},
    "version": 1
  },
  "userdoc": {
    "kind": "user",
    "methods": {},
    "version": 1
  },
  "storageLayout": {
    "storage": [],
    "types": null
  }
}