{
  "_format": "hh-sol-artifact-1",
  "contractName": "Reader",
  "sourceName": "contracts/reader/Reader.sol",
  "abi": [
    {
      "inputs": [
        {
          "internalType": "contract OrderStore",
          "name": "orderStore",
          "type": "address"
        },
        {
          "internalType": "address",
          "name": "account",
          "type": "address"
        },
        {
          "internalType": "uint256",
          "name": "start",
          "type": "uint256"
        },
        {
          "internalType": "uint256",
          "name": "end",
          "type": "uint256"
        }
      ],
      "name": "getAccountOrders",
      "outputs": [
        {
          "components": [
            {
              "components": [
                {
                  "internalType": "address",
                  "name": "account",
                  "type": "address"
                },
                {
                  "internalType": "address",
                  "name": "receiver",
                  "type": "address"
                },
                {
                  "internalType": "address",
                  "name": "callbackContract",
                  "type": "address"
                },
                {
                  "internalType": "address",
                  "name": "market",
                  "type": "address"
                },
                {
                  "internalType": "address",
                  "name": "initialCollateralToken",
                  "type": "address"
                },
                {
                  "internalType": "address[]",
                  "name": "swapPath",
                  "type": "address[]"
                }
              ],
              "internalType": "struct Order.Addresses",
              "name": "addresses",
              "type": "tuple"
            },
            {
              "components": [
                {
                  "internalType": "uint256",
                  "name": "sizeDeltaUsd",
                  "type": "uint256"
                },
                {
                  "internalType": "uint256",
                  "name": "initialCollateralDeltaAmount",
                  "type": "uint256"
                },
                {
                  "internalType": "uint256",
                  "name": "triggerPrice",
                  "type": "uint256"
                },
                {
                  "internalType": "uint256",
                  "name": "acceptablePrice",
                  "type": "uint256"
                },
                {
                  "internalType": "uint256",
                  "name": "executionFee",
                  "type": "uint256"
                },
                {
                  "internalType": "uint256",
                  "name": "callbackGasLimit",
                  "type": "uint256"
                },
                {
                  "internalType": "uint256",
                  "name": "minOutputAmount",
                  "type": "uint256"
                },
                {
                  "internalType": "uint256",
                  "name": "updatedAtBlock",
                  "type": "uint256"
                }
              ],
              "internalType": "struct Order.Numbers",
              "name": "numbers",
              "type": "tuple"
            },
            {
              "components": [
                {
                  "internalType": "enum Order.OrderType",
                  "name": "orderType",
                  "type": "uint8"
                },
                {
                  "internalType": "bool",
                  "name": "isLong",
                  "type": "bool"
                },
                {
                  "internalType": "bool",
                  "name": "shouldUnwrapNativeToken",
                  "type": "bool"
                },
                {
                  "internalType": "bool",
                  "name": "isFrozen",
                  "type": "bool"
                }
              ],
              "internalType": "struct Order.Flags",
              "name": "flags",
              "type": "tuple"
            },
            {
              "internalType": "bytes",
              "name": "data",
              "type": "bytes"
            }
          ],
          "internalType": "struct Order.Props[]",
          "name": "",
          "type": "tuple[]"
        }
      ],
      "stateMutability": "view",
      "type": "function"
    },
    {
      "inputs": [
        {
          "internalType": "contract DataStore",
          "name": "dataStore",
          "type": "address"
        },
        {
          "internalType": "contract MarketStore",
          "name": "marketStore",
          "type": "address"
        },
        {
          "internalType": "contract PositionStore",
          "name": "positionStore",
          "type": "address"
        },
        {
          "internalType": "address",
          "name": "account",
          "type": "address"
        },
        {
          "internalType": "uint256",
          "name": "start",
          "type": "uint256"
        },
        {
          "internalType": "uint256",
          "name": "end",
          "type": "uint256"
        }
      ],
      "name": "getAccountPositionInfoList",
      "outputs": [
        {
          "components": [
            {
              "components": [
                {
                  "components": [
                    {
                      "internalType": "address",
                      "name": "account",
                      "type": "address"
                    },
                    {
                      "internalType": "address",
                      "name": "market",
                      "type": "address"
                    },
                    {
                      "internalType": "address",
                      "name": "collateralToken",
                      "type": "address"
                    }
                  ],
                  "internalType": "struct Position.Addresses",
                  "name": "addresses",
                  "type": "tuple"
                },
                {
                  "components": [
                    {
                      "internalType": "uint256",
                      "name": "sizeInUsd",
                      "type": "uint256"
                    },
                    {
                      "internalType": "uint256",
                      "name": "sizeInTokens",
                      "type": "uint256"
                    },
                    {
                      "internalType": "uint256",
                      "name": "collateralAmount",
                      "type": "uint256"
                    },
                    {
                      "internalType": "uint256",
                      "name": "borrowingFactor",
                      "type": "uint256"
                    },
                    {
                      "internalType": "int256",
                      "name": "longTokenFundingAmountPerSize",
                      "type": "int256"
                    },
                    {
                      "internalType": "int256",
                      "name": "shortTokenFundingAmountPerSize",
                      "type": "int256"
                    },
                    {
                      "internalType": "uint256",
                      "name": "increasedAtBlock",
                      "type": "uint256"
                    },
                    {
                      "internalType": "uint256",
                      "name": "decreasedAtBlock",
                      "type": "uint256"
                    }
                  ],
                  "internalType": "struct Position.Numbers",
                  "name": "numbers",
                  "type": "tuple"
                },
                {
                  "components": [
                    {
                      "internalType": "bool",
                      "name": "isLong",
                      "type": "bool"
                    }
                  ],
                  "internalType": "struct Position.Flags",
                  "name": "flags",
                  "type": "tuple"
                },
                {
                  "internalType": "bytes",
                  "name": "data",
                  "type": "bytes"
                }
              ],
              "internalType": "struct Position.Props",
              "name": "position",
              "type": "tuple"
            },
            {
              "internalType": "uint256",
              "name": "pendingBorrowingFees",
              "type": "uint256"
            },
            {
              "components": [
                {
                  "internalType": "uint256",
                  "name": "fundingFeeAmount",
                  "type": "uint256"
                },
                {
                  "internalType": "uint256",
                  "name": "claimableLongTokenAmount",
                  "type": "uint256"
                },
                {
                  "internalType": "uint256",
                  "name": "claimableShortTokenAmount",
                  "type": "uint256"
                },
                {
                  "internalType": "int256",
                  "name": "latestLongTokenFundingAmountPerSize",
                  "type": "int256"
                },
                {
                  "internalType": "int256",
                  "name": "latestShortTokenFundingAmountPerSize",
                  "type": "int256"
                },
                {
                  "internalType": "bool",
                  "name": "hasPendingLongTokenFundingFee",
                  "type": "bool"
                },
                {
                  "internalType": "bool",
                  "name": "hasPendingShortTokenFundingFee",
                  "type": "bool"
                }
              ],
              "internalType": "struct PositionPricingUtils.PositionFundingFees",
              "name": "pendingFundingFees",
              "type": "tuple"
            }
          ],
          "internalType": "struct Reader.PositionInfo[]",
          "name": "",
          "type": "tuple[]"
        }
      ],
      "stateMutability": "view",
      "type": "function"
    },
    {
      "inputs": [
        {
          "internalType": "contract PositionStore",
          "name": "positionStore",
          "type": "address"
        },
        {
          "internalType": "address",
          "name": "account",
          "type": "address"
        },
        {
          "internalType": "uint256",
          "name": "start",
          "type": "uint256"
        },
        {
          "internalType": "uint256",
          "name": "end",
          "type": "uint256"
        }
      ],
      "name": "getAccountPositions",
      "outputs": [
        {
          "components": [
            {
              "components": [
                {
                  "internalType": "address",
                  "name": "account",
                  "type": "address"
                },
                {
                  "internalType": "address",
                  "name": "market",
                  "type": "address"
                },
                {
                  "internalType": "address",
                  "name": "collateralToken",
                  "type": "address"
                }
              ],
              "internalType": "struct Position.Addresses",
              "name": "addresses",
              "type": "tuple"
            },
            {
              "components": [
                {
                  "internalType": "uint256",
                  "name": "sizeInUsd",
                  "type": "uint256"
                },
                {
                  "internalType": "uint256",
                  "name": "sizeInTokens",
                  "type": "uint256"
                },
                {
                  "internalType": "uint256",
                  "name": "collateralAmount",
                  "type": "uint256"
                },
                {
                  "internalType": "uint256",
                  "name": "borrowingFactor",
                  "type": "uint256"
                },
                {
                  "internalType": "int256",
                  "name": "longTokenFundingAmountPerSize",
                  "type": "int256"
                },
                {
                  "internalType": "int256",
                  "name": "shortTokenFundingAmountPerSize",
                  "type": "int256"
                },
                {
                  "internalType": "uint256",
                  "name": "increasedAtBlock",
                  "type": "uint256"
                },
                {
                  "internalType": "uint256",
                  "name": "decreasedAtBlock",
                  "type": "uint256"
                }
              ],
              "internalType": "struct Position.Numbers",
              "name": "numbers",
              "type": "tuple"
            },
            {
              "components": [
                {
                  "internalType": "bool",
                  "name": "isLong",
                  "type": "bool"
                }
              ],
              "internalType": "struct Position.Flags",
              "name": "flags",
              "type": "tuple"
            },
            {
              "internalType": "bytes",
              "name": "data",
              "type": "bytes"
            }
          ],
          "internalType": "struct Position.Props[]",
          "name": "",
          "type": "tuple[]"
        }
      ],
      "stateMutability": "view",
      "type": "function"
    },
    {
      "inputs": [
        {
          "internalType": "contract DataStore",
          "name": "dataStore",
          "type": "address"
        },
        {
          "internalType": "contract MarketStore",
          "name": "marketStore",
          "type": "address"
        },
        {
          "components": [
            {
              "components": [
                {
                  "internalType": "uint256",
                  "name": "min",
                  "type": "uint256"
                },
                {
                  "internalType": "uint256",
                  "name": "max",
                  "type": "uint256"
                }
              ],
              "internalType": "struct Price.Props",
              "name": "indexTokenPrice",
              "type": "tuple"
            },
            {
              "components": [
                {
                  "internalType": "uint256",
                  "name": "min",
                  "type": "uint256"
                },
                {
                  "internalType": "uint256",
                  "name": "max",
                  "type": "uint256"
                }
              ],
              "internalType": "struct Price.Props",
              "name": "longTokenPrice",
              "type": "tuple"
            },
            {
              "components": [
                {
                  "internalType": "uint256",
                  "name": "min",
                  "type": "uint256"
                },
                {
                  "internalType": "uint256",
                  "name": "max",
                  "type": "uint256"
                }
              ],
              "internalType": "struct Price.Props",
              "name": "shortTokenPrice",
              "type": "tuple"
            }
          ],
          "internalType": "struct MarketUtils.MarketPrices",
          "name": "prices",
          "type": "tuple"
        },
        {
          "internalType": "address",
          "name": "marketKey",
          "type": "address"
        }
      ],
      "name": "getMarketInfo",
      "outputs": [
        {
          "components": [
            {
              "components": [
                {
                  "internalType": "address",
                  "name": "marketToken",
                  "type": "address"
                },
                {
                  "internalType": "address",
                  "name": "indexToken",
                  "type": "address"
                },
                {
                  "internalType": "address",
                  "name": "longToken",
                  "type": "address"
                },
                {
                  "internalType": "address",
                  "name": "shortToken",
                  "type": "address"
                },
                {
                  "internalType": "bytes",
                  "name": "data",
                  "type": "bytes"
                }
              ],
              "internalType": "struct Market.Props",
              "name": "market",
              "type": "tuple"
            },
            {
              "internalType": "uint256",
              "name": "borrowingFactorPerSecondForLongs",
              "type": "uint256"
            },
            {
              "internalType": "uint256",
              "name": "borrowingFactorPerSecondForShorts",
              "type": "uint256"
            },
            {
              "components": [
                {
                  "internalType": "uint256",
                  "name": "fundingPerSecond",
                  "type": "uint256"
                },
                {
                  "internalType": "bool",
                  "name": "longsPayShorts",
                  "type": "bool"
                },
                {
                  "internalType": "int256",
                  "name": "fundingAmountPerSize_LongCollateral_LongPosition",
                  "type": "int256"
                },
                {
                  "internalType": "int256",
                  "name": "fundingAmountPerSize_LongCollateral_ShortPosition",
                  "type": "int256"
                },
                {
                  "internalType": "int256",
                  "name": "fundingAmountPerSize_ShortCollateral_LongPosition",
                  "type": "int256"
                },
                {
                  "internalType": "int256",
                  "name": "fundingAmountPerSize_ShortCollateral_ShortPosition",
                  "type": "int256"
                }
              ],
              "internalType": "struct MarketUtils.GetNextFundingAmountPerSizeResult",
              "name": "funding",
              "type": "tuple"
            }
          ],
          "internalType": "struct Reader.MarketInfo",
          "name": "",
          "type": "tuple"
        }
      ],
      "stateMutability": "view",
      "type": "function"
    },
    {
      "inputs": [
        {
          "internalType": "contract DataStore",
          "name": "dataStore",
          "type": "address"
        },
        {
          "internalType": "contract MarketStore",
          "name": "marketStore",
          "type": "address"
        },
        {
          "components": [
            {
              "components": [
                {
                  "internalType": "uint256",
                  "name": "min",
                  "type": "uint256"
                },
                {
                  "internalType": "uint256",
                  "name": "max",
                  "type": "uint256"
                }
              ],
              "internalType": "struct Price.Props",
              "name": "indexTokenPrice",
              "type": "tuple"
            },
            {
              "components": [
                {
                  "internalType": "uint256",
                  "name": "min",
                  "type": "uint256"
                },
                {
                  "internalType": "uint256",
                  "name": "max",
                  "type": "uint256"
                }
              ],
              "internalType": "struct Price.Props",
              "name": "longTokenPrice",
              "type": "tuple"
            },
            {
              "components": [
                {
                  "internalType": "uint256",
                  "name": "min",
                  "type": "uint256"
                },
                {
                  "internalType": "uint256",
                  "name": "max",
                  "type": "uint256"
                }
              ],
              "internalType": "struct Price.Props",
              "name": "shortTokenPrice",
              "type": "tuple"
            }
          ],
          "internalType": "struct MarketUtils.MarketPrices[]",
          "name": "marketPricesList",
          "type": "tuple[]"
        },
        {
          "internalType": "uint256",
          "name": "start",
          "type": "uint256"
        },
        {
          "internalType": "uint256",
          "name": "end",
          "type": "uint256"
        }
      ],
      "name": "getMarketInfoList",
      "outputs": [
        {
          "components": [
            {
              "components": [
                {
                  "internalType": "address",
                  "name": "marketToken",
                  "type": "address"
                },
                {
                  "internalType": "address",
                  "name": "indexToken",
                  "type": "address"
                },
                {
                  "internalType": "address",
                  "name": "longToken",
                  "type": "address"
                },
                {
                  "internalType": "address",
                  "name": "shortToken",
                  "type": "address"
                },
                {
                  "internalType": "bytes",
                  "name": "data",
                  "type": "bytes"
                }
              ],
              "internalType": "struct Market.Props",
              "name": "market",
              "type": "tuple"
            },
            {
              "internalType": "uint256",
              "name": "borrowingFactorPerSecondForLongs",
              "type": "uint256"
            },
            {
              "internalType": "uint256",
              "name": "borrowingFactorPerSecondForShorts",
              "type": "uint256"
            },
            {
              "components": [
                {
                  "internalType": "uint256",
                  "name": "fundingPerSecond",
                  "type": "uint256"
                },
                {
                  "internalType": "bool",
                  "name": "longsPayShorts",
                  "type": "bool"
                },
                {
                  "internalType": "int256",
                  "name": "fundingAmountPerSize_LongCollateral_LongPosition",
                  "type": "int256"
                },
                {
                  "internalType": "int256",
                  "name": "fundingAmountPerSize_LongCollateral_ShortPosition",
                  "type": "int256"
                },
                {
                  "internalType": "int256",
                  "name": "fundingAmountPerSize_ShortCollateral_LongPosition",
                  "type": "int256"
                },
                {
                  "internalType": "int256",
                  "name": "fundingAmountPerSize_ShortCollateral_ShortPosition",
                  "type": "int256"
                }
              ],
              "internalType": "struct MarketUtils.GetNextFundingAmountPerSizeResult",
              "name": "funding",
              "type": "tuple"
            }
          ],
          "internalType": "struct Reader.MarketInfo[]",
          "name": "",
          "type": "tuple[]"
        }
      ],
      "stateMutability": "view",
      "type": "function"
    },
    {
      "inputs": [
        {
          "internalType": "contract DataStore",
          "name": "dataStore",
          "type": "address"
        },
        {
          "components": [
            {
              "internalType": "address",
              "name": "marketToken",
              "type": "address"
            },
            {
              "internalType": "address",
              "name": "indexToken",
              "type": "address"
            },
            {
              "internalType": "address",
              "name": "longToken",
              "type": "address"
            },
            {
              "internalType": "address",
              "name": "shortToken",
              "type": "address"
            },
            {
              "internalType": "bytes",
              "name": "data",
              "type": "bytes"
            }
          ],
          "internalType": "struct Market.Props",
          "name": "market",
          "type": "tuple"
        },
        {
          "components": [
            {
              "internalType": "uint256",
              "name": "min",
              "type": "uint256"
            },
            {
              "internalType": "uint256",
              "name": "max",
              "type": "uint256"
            }
          ],
          "internalType": "struct Price.Props",
          "name": "longTokenPrice",
          "type": "tuple"
        },
        {
          "components": [
            {
              "internalType": "uint256",
              "name": "min",
              "type": "uint256"
            },
            {
              "internalType": "uint256",
              "name": "max",
              "type": "uint256"
            }
          ],
          "internalType": "struct Price.Props",
          "name": "shortTokenPrice",
          "type": "tuple"
        },
        {
          "components": [
            {
              "internalType": "uint256",
              "name": "min",
              "type": "uint256"
            },
            {
              "internalType": "uint256",
              "name": "max",
              "type": "uint256"
            }
          ],
          "internalType": "struct Price.Props",
          "name": "indexTokenPrice",
          "type": "tuple"
        },
        {
          "internalType": "bool",
          "name": "maximize",
          "type": "bool"
        }
      ],
      "name": "getMarketTokenPrice",
      "outputs": [
        {
          "internalType": "int256",
          "name": "",
          "type": "int256"
        }
      ],
      "stateMutability": "view",
      "type": "function"
    },
    {
      "inputs": [
        {
          "internalType": "contract MarketStore",
          "name": "marketStore",
          "type": "address"
        },
        {
          "internalType": "uint256",
          "name": "start",
          "type": "uint256"
        },
        {
          "internalType": "uint256",
          "name": "end",
          "type": "uint256"
        }
      ],
      "name": "getMarkets",
      "outputs": [
        {
          "components": [
            {
              "internalType": "address",
              "name": "marketToken",
              "type": "address"
            },
            {
              "internalType": "address",
              "name": "indexToken",
              "type": "address"
            },
            {
              "internalType": "address",
              "name": "longToken",
              "type": "address"
            },
            {
              "internalType": "address",
              "name": "shortToken",
              "type": "address"
            },
            {
              "internalType": "bytes",
              "name": "data",
              "type": "bytes"
            }
          ],
          "internalType": "struct Market.Props[]",
          "name": "",
          "type": "tuple[]"
        }
      ],
      "stateMutability": "view",
      "type": "function"
    },
    {
      "inputs": [
        {
          "internalType": "contract DataStore",
          "name": "dataStore",
          "type": "address"
        },
        {
          "internalType": "address",
          "name": "market",
          "type": "address"
        },
        {
          "internalType": "address",
          "name": "longToken",
          "type": "address"
        },
        {
          "internalType": "address",
          "name": "shortToken",
          "type": "address"
        },
        {
          "components": [
            {
              "internalType": "uint256",
              "name": "min",
              "type": "uint256"
            },
            {
              "internalType": "uint256",
              "name": "max",
              "type": "uint256"
            }
          ],
          "internalType": "struct Price.Props",
          "name": "indexTokenPrice",
          "type": "tuple"
        },
        {
          "internalType": "bool",
          "name": "maximize",
          "type": "bool"
        }
      ],
      "name": "getNetPnl",
      "outputs": [
        {
          "internalType": "int256",
          "name": "",
          "type": "int256"
        }
      ],
      "stateMutability": "view",
      "type": "function"
    },
    {
      "inputs": [
        {
          "internalType": "contract DataStore",
          "name": "dataStore",
          "type": "address"
        },
        {
          "internalType": "address",
          "name": "market",
          "type": "address"
        },
        {
          "internalType": "address",
          "name": "longToken",
          "type": "address"
        },
        {
          "internalType": "address",
          "name": "shortToken",
          "type": "address"
        },
        {
          "components": [
            {
              "internalType": "uint256",
              "name": "min",
              "type": "uint256"
            },
            {
              "internalType": "uint256",
              "name": "max",
              "type": "uint256"
            }
          ],
          "internalType": "struct Price.Props",
          "name": "indexTokenPrice",
          "type": "tuple"
        },
        {
          "internalType": "bool",
          "name": "isLong",
          "type": "bool"
        },
        {
          "internalType": "bool",
          "name": "maximize",
          "type": "bool"
        }
      ],
      "name": "getOpenInterestWithPnl",
      "outputs": [
        {
          "internalType": "int256",
          "name": "",
          "type": "int256"
        }
      ],
      "stateMutability": "view",
      "type": "function"
    },
    {
      "inputs": [
        {
          "internalType": "contract DataStore",
          "name": "dataStore",
          "type": "address"
        },
        {
          "internalType": "contract MarketStore",
          "name": "marketStore",
          "type": "address"
        },
        {
          "internalType": "address",
          "name": "marketAddress",
          "type": "address"
        },
        {
          "components": [
            {
              "components": [
                {
                  "internalType": "uint256",
                  "name": "min",
                  "type": "uint256"
                },
                {
                  "internalType": "uint256",
                  "name": "max",
                  "type": "uint256"
                }
              ],
              "internalType": "struct Price.Props",
              "name": "indexTokenPrice",
              "type": "tuple"
            },
            {
              "components": [
                {
                  "internalType": "uint256",
                  "name": "min",
                  "type": "uint256"
                },
                {
                  "internalType": "uint256",
                  "name": "max",
                  "type": "uint256"
                }
              ],
              "internalType": "struct Price.Props",
              "name": "longTokenPrice",
              "type": "tuple"
            },
            {
              "components": [
                {
                  "internalType": "uint256",
                  "name": "min",
                  "type": "uint256"
                },
                {
                  "internalType": "uint256",
                  "name": "max",
                  "type": "uint256"
                }
              ],
              "internalType": "struct Price.Props",
              "name": "shortTokenPrice",
              "type": "tuple"
            }
          ],
          "internalType": "struct MarketUtils.MarketPrices",
          "name": "prices",
          "type": "tuple"
        },
        {
          "internalType": "bool",
          "name": "isLong",
          "type": "bool"
        },
        {
          "internalType": "bool",
          "name": "maximize",
          "type": "bool"
        }
      ],
      "name": "getPnlToPoolFactor",
      "outputs": [
        {
          "internalType": "int256",
          "name": "",
          "type": "int256"
        }
      ],
      "stateMutability": "view",
      "type": "function"
    },
    {
      "inputs": [
        {
          "internalType": "contract DataStore",
          "name": "dataStore",
          "type": "address"
        },
        {
          "internalType": "contract IReferralStorage",
          "name": "referralStorage",
          "type": "address"
        },
        {
          "components": [
            {
              "components": [
                {
                  "internalType": "address",
                  "name": "account",
                  "type": "address"
                },
                {
                  "internalType": "address",
                  "name": "market",
                  "type": "address"
                },
                {
                  "internalType": "address",
                  "name": "collateralToken",
                  "type": "address"
                }
              ],
              "internalType": "struct Position.Addresses",
              "name": "addresses",
              "type": "tuple"
            },
            {
              "components": [
                {
                  "internalType": "uint256",
                  "name": "sizeInUsd",
                  "type": "uint256"
                },
                {
                  "internalType": "uint256",
                  "name": "sizeInTokens",
                  "type": "uint256"
                },
                {
                  "internalType": "uint256",
                  "name": "collateralAmount",
                  "type": "uint256"
                },
                {
                  "internalType": "uint256",
                  "name": "borrowingFactor",
                  "type": "uint256"
                },
                {
                  "internalType": "int256",
                  "name": "longTokenFundingAmountPerSize",
                  "type": "int256"
                },
                {
                  "internalType": "int256",
                  "name": "shortTokenFundingAmountPerSize",
                  "type": "int256"
                },
                {
                  "internalType": "uint256",
                  "name": "increasedAtBlock",
                  "type": "uint256"
                },
                {
                  "internalType": "uint256",
                  "name": "decreasedAtBlock",
                  "type": "uint256"
                }
              ],
              "internalType": "struct Position.Numbers",
              "name": "numbers",
              "type": "tuple"
            },
            {
              "components": [
                {
                  "internalType": "bool",
                  "name": "isLong",
                  "type": "bool"
                }
              ],
              "internalType": "struct Position.Flags",
              "name": "flags",
              "type": "tuple"
            },
            {
              "internalType": "bytes",
              "name": "data",
              "type": "bytes"
            }
          ],
          "internalType": "struct Position.Props",
          "name": "position",
          "type": "tuple"
        },
        {
          "components": [
            {
              "internalType": "uint256",
              "name": "min",
              "type": "uint256"
            },
            {
              "internalType": "uint256",
              "name": "max",
              "type": "uint256"
            }
          ],
          "internalType": "struct Price.Props",
          "name": "collateralTokenPrice",
          "type": "tuple"
        },
        {
          "internalType": "address",
          "name": "longToken",
          "type": "address"
        },
        {
          "internalType": "address",
          "name": "shortToken",
          "type": "address"
        },
        {
          "internalType": "uint256",
          "name": "sizeDeltaUsd",
          "type": "uint256"
        }
      ],
      "name": "getPositionFees",
      "outputs": [
        {
          "components": [
            {
              "components": [
                {
                  "internalType": "address",
                  "name": "affiliate",
                  "type": "address"
                },
                {
                  "internalType": "uint256",
                  "name": "traderDiscountAmount",
                  "type": "uint256"
                },
                {
                  "internalType": "uint256",
                  "name": "affiliateRewardAmount",
                  "type": "uint256"
                }
              ],
              "internalType": "struct PositionPricingUtils.PositionReferralFees",
              "name": "referral",
              "type": "tuple"
            },
            {
              "components": [
                {
                  "internalType": "uint256",
                  "name": "fundingFeeAmount",
                  "type": "uint256"
                },
                {
                  "internalType": "uint256",
                  "name": "claimableLongTokenAmount",
                  "type": "uint256"
                },
                {
                  "internalType": "uint256",
                  "name": "claimableShortTokenAmount",
                  "type": "uint256"
                },
                {
                  "internalType": "int256",
                  "name": "latestLongTokenFundingAmountPerSize",
                  "type": "int256"
                },
                {
                  "internalType": "int256",
                  "name": "latestShortTokenFundingAmountPerSize",
                  "type": "int256"
                },
                {
                  "internalType": "bool",
                  "name": "hasPendingLongTokenFundingFee",
                  "type": "bool"
                },
                {
                  "internalType": "bool",
                  "name": "hasPendingShortTokenFundingFee",
                  "type": "bool"
                }
              ],
              "internalType": "struct PositionPricingUtils.PositionFundingFees",
              "name": "funding",
              "type": "tuple"
            },
            {
              "internalType": "uint256",
              "name": "feeReceiverAmount",
              "type": "uint256"
            },
            {
              "internalType": "uint256",
              "name": "feesForPool",
              "type": "uint256"
            },
            {
              "internalType": "uint256",
              "name": "positionFeeAmountForPool",
              "type": "uint256"
            },
            {
              "internalType": "uint256",
              "name": "positionFeeAmount",
              "type": "uint256"
            },
            {
              "internalType": "uint256",
              "name": "borrowingFeeAmount",
              "type": "uint256"
            },
            {
              "internalType": "uint256",
              "name": "totalNetCostAmount",
              "type": "uint256"
            },
            {
              "internalType": "uint256",
              "name": "totalNetCostUsd",
              "type": "uint256"
            }
          ],
          "internalType": "struct PositionPricingUtils.PositionFees",
          "name": "",
          "type": "tuple"
        }
      ],
      "stateMutability": "view",
      "type": "function"
    },
    {
      "inputs": [
        {
          "internalType": "contract DataStore",
          "name": "dataStore",
          "type": "address"
        },
        {
          "internalType": "contract MarketStore",
          "name": "marketStore",
          "type": "address"
        },
        {
          "internalType": "contract PositionStore",
          "name": "positionStore",
          "type": "address"
        },
        {
          "internalType": "bytes32",
          "name": "positionKey",
          "type": "bytes32"
        }
      ],
      "name": "getPositionInfo",
      "outputs": [
        {
          "components": [
            {
              "components": [
                {
                  "components": [
                    {
                      "internalType": "address",
                      "name": "account",
                      "type": "address"
                    },
                    {
                      "internalType": "address",
                      "name": "market",
                      "type": "address"
                    },
                    {
                      "internalType": "address",
                      "name": "collateralToken",
                      "type": "address"
                    }
                  ],
                  "internalType": "struct Position.Addresses",
                  "name": "addresses",
                  "type": "tuple"
                },
                {
                  "components": [
                    {
                      "internalType": "uint256",
                      "name": "sizeInUsd",
                      "type": "uint256"
                    },
                    {
                      "internalType": "uint256",
                      "name": "sizeInTokens",
                      "type": "uint256"
                    },
                    {
                      "internalType": "uint256",
                      "name": "collateralAmount",
                      "type": "uint256"
                    },
                    {
                      "internalType": "uint256",
                      "name": "borrowingFactor",
                      "type": "uint256"
                    },
                    {
                      "internalType": "int256",
                      "name": "longTokenFundingAmountPerSize",
                      "type": "int256"
                    },
                    {
                      "internalType": "int256",
                      "name": "shortTokenFundingAmountPerSize",
                      "type": "int256"
                    },
                    {
                      "internalType": "uint256",
                      "name": "increasedAtBlock",
                      "type": "uint256"
                    },
                    {
                      "internalType": "uint256",
                      "name": "decreasedAtBlock",
                      "type": "uint256"
                    }
                  ],
                  "internalType": "struct Position.Numbers",
                  "name": "numbers",
                  "type": "tuple"
                },
                {
                  "components": [
                    {
                      "internalType": "bool",
                      "name": "isLong",
                      "type": "bool"
                    }
                  ],
                  "internalType": "struct Position.Flags",
                  "name": "flags",
                  "type": "tuple"
                },
                {
                  "internalType": "bytes",
                  "name": "data",
                  "type": "bytes"
                }
              ],
              "internalType": "struct Position.Props",
              "name": "position",
              "type": "tuple"
            },
            {
              "internalType": "uint256",
              "name": "pendingBorrowingFees",
              "type": "uint256"
            },
            {
              "components": [
                {
                  "internalType": "uint256",
                  "name": "fundingFeeAmount",
                  "type": "uint256"
                },
                {
                  "internalType": "uint256",
                  "name": "claimableLongTokenAmount",
                  "type": "uint256"
                },
                {
                  "internalType": "uint256",
                  "name": "claimableShortTokenAmount",
                  "type": "uint256"
                },
                {
                  "internalType": "int256",
                  "name": "latestLongTokenFundingAmountPerSize",
                  "type": "int256"
                },
                {
                  "internalType": "int256",
                  "name": "latestShortTokenFundingAmountPerSize",
                  "type": "int256"
                },
                {
                  "internalType": "bool",
                  "name": "hasPendingLongTokenFundingFee",
                  "type": "bool"
                },
                {
                  "internalType": "bool",
                  "name": "hasPendingShortTokenFundingFee",
                  "type": "bool"
                }
              ],
              "internalType": "struct PositionPricingUtils.PositionFundingFees",
              "name": "pendingFundingFees",
              "type": "tuple"
            }
          ],
          "internalType": "struct Reader.PositionInfo",
          "name": "",
          "type": "tuple"
        }
      ],
      "stateMutability": "view",
      "type": "function"
    }
  ],
  "bytecode": "0x608060405234801561001057600080fd5b506147c2806100206000396000f3fe608060405234801561001057600080fd5b50600436106100a45760003560e01c8063075612fc146100a9578063170428d3146100cf5780632c8536e7146100ef57806342a6f8d31461010f57806377cfb1621461012f5780637b5969101461014f5780639d93bbf814610162578063beb9bd9a14610175578063ce3264bf14610188578063cf609c39146101a8578063e49799de146101c8578063e73f1854146101e8575b600080fd5b6100bc6100b736600461323a565b610208565b6040519081526020015b60405180910390f35b6100e26100dd3660046133e9565b610225565b6040516100c69190613580565b6101026100fd366004613660565b61024a565b6040516100c691906137d3565b61012261011d3660046137e6565b61034e565b6040516100c691906138b7565b61014261013d3660046137e6565b6105b9565b6040516100c69190613ab9565b6100bc61015d366004613b1b565b610817565b6100bc610170366004613bb1565b610828565b6100bc610183366004613c35565b6108b7565b61019b610196366004613ca8565b6108c7565b6040516100c69190613cdd565b6101bb6101b6366004613d32565b610b2a565b6040516100c69190613ddd565b6101db6101d6366004613e32565b610d30565b6040516100c69190613e83565b6101fb6101f6366004613eb9565b610e76565b6040516100c69190613f89565b600061021887878787878761108f565b90505b9695505050505050565b61022d612c4c565b61023c88888888888888611173565b90505b979650505050505050565b610252612cb8565b6040516330af0bbf60e21b81526000906001600160a01b0386169063c2bc2efc90610281908690600401613fde565b600060405180830381865afa15801561029e573d6000803e3d6000fd5b505050506040513d6000823e601f3d908101601f191682016040526102c69190810190614042565b905060006102e587868460000151856040015186606001516001611278565b9050600061030488878560000151866040015187606001516000611278565b90506000610321898886600001518760400151886060015161139a565b6040805160808101825295865260208601949094529284019190915250606082015290505b949350505050565b60606000856001600160a01b031663c5d9eb48866040518263ffffffff1660e01b815260040161037e9190613fde565b602060405180830381865afa15801561039b573d6000803e3d6000fd5b505050506040513d601f19601f820116820180604052508101906103bf91906140fa565b90508084106104025760408051600080825260208201909252906103f9565b6103e6612ceb565b8152602001906001900390816103de5790505b50915050610346565b8083111561040e578092505b604051636e343b2f60e01b81526000906001600160a01b03881690636e343b2f9061044190899089908990600401614113565b600060405180830381865afa15801561045e573d6000803e3d6000fd5b505050506040513d6000823e601f3d908101601f191682016040526104869190810190614134565b9050600081516001600160401b038111156104a3576104a361302d565b6040519080825280602002602001820160405280156104dc57816020015b6104c9612ceb565b8152602001906001900390816104c15790505b50905060005b82518110156105ad5760008382815181106104ff576104ff6141b9565b60200260200101519050896001600160a01b0316638eaa6ac0826040518263ffffffff1660e01b815260040161053791815260200190565b600060405180830381865afa158015610554573d6000803e3d6000fd5b505050506040513d6000823e601f3d908101601f1916820160405261057c919081019061430c565b83838151811061058e5761058e6141b9565b60200260200101819052505080806105a590614460565b9150506104e2565b50979650505050505050565b60606000856001600160a01b031663e5276445866040518263ffffffff1660e01b81526004016105e99190613fde565b602060405180830381865afa158015610606573d6000803e3d6000fd5b505050506040513d601f19601f8201168201806040525081019061062a91906140fa565b905080841061066c5760408051600080825260208201909252906103f9565b610651612daa565b81526020019060019003908161064957905050915050610346565b80831115610678578092505b60405163118bd53760e31b81526000906001600160a01b03881690638c5ea9b8906106ab90899089908990600401614113565b600060405180830381865afa1580156106c8573d6000803e3d6000fd5b505050506040513d6000823e601f3d908101601f191682016040526106f09190810190614134565b9050600081516001600160401b0381111561070d5761070d61302d565b60405190808252806020026020018201604052801561074657816020015b610733612daa565b81526020019060019003908161072b5790505b50905060005b82518110156105ad576000838281518110610769576107696141b9565b60200260200101519050896001600160a01b0316638eaa6ac0826040518263ffffffff1660e01b81526004016107a191815260200190565b600060405180830381865afa1580156107be573d6000803e3d6000fd5b505050506040513d6000823e601f3d908101601f191682016040526107e691908101906144a0565b8383815181106107f8576107f86141b9565b602002602001018190525050808061080f90614460565b91505061074c565b600061023c888888888888886117cc565b600080866001600160a01b031663c2bc2efc876040518263ffffffff1660e01b81526004016108579190613fde565b600060405180830381865afa158015610874573d6000803e3d6000fd5b505050506040513d6000823e601f3d908101601f1916820160405261089c9190810190614042565b90506108ab8882878787611809565b98975050505050505050565b6000610218878787878787611881565b60606000846001600160a01b031663fd69f3c26040518163ffffffff1660e01b8152600401602060405180830381865afa158015610909573d6000803e3d6000fd5b505050506040513d601f19601f8201168201806040525081019061092d91906140fa565b9050808410610970576040805160008082526020820190925290610967565b610954612e36565b81526020019060019003908161094c5790505b50915050610b23565b8083111561097c578092505b6040516235673160e31b815260048101859052602481018490526000906001600160a01b038716906301ab398890604401600060405180830381865afa1580156109ca573d6000803e3d6000fd5b505050506040513d6000823e601f3d908101601f191682016040526109f2919081019061458a565b9050600081516001600160401b03811115610a0f57610a0f61302d565b604051908082528060200260200182016040528015610a4857816020015b610a35612e36565b815260200190600190039081610a2d5790505b50905060005b8251811015610b1d576000838281518110610a6b57610a6b6141b9565b602002602001015190506000896001600160a01b031663c2bc2efc836040518263ffffffff1660e01b8152600401610aa39190613fde565b600060405180830381865afa158015610ac0573d6000803e3d6000fd5b505050506040513d6000823e601f3d908101601f19168201604052610ae89190810190614042565b905080848481518110610afd57610afd6141b9565b602002602001018190525050508080610b1590614460565b915050610a4e565b50925050505b9392505050565b60606000856001600160a01b031663e5276445866040518263ffffffff1660e01b8152600401610b5a9190613fde565b602060405180830381865afa158015610b77573d6000803e3d6000fd5b505050506040513d601f19601f82011682018060405250810190610b9b91906140fa565b9050808410610bde576040805160008082526020820190925290610bd5565b610bc2612e66565b815260200190600190039081610bba5790505b5091505061021b565b80831115610bea578092505b60405163118bd53760e31b81526000906001600160a01b03881690638c5ea9b890610c1d90899089908990600401614113565b600060405180830381865afa158015610c3a573d6000803e3d6000fd5b505050506040513d6000823e601f3d908101601f19168201604052610c629190810190614134565b9050600081516001600160401b03811115610c7f57610c7f61302d565b604051908082528060200260200182016040528015610cb857816020015b610ca5612e66565b815260200190600190039081610c9d5790505b50905060005b8251811015610d22576000838281518110610cdb57610cdb6141b9565b60200260200101519050610cf18c8c8c84610d30565b838381518110610d0357610d036141b9565b6020026020010181905250508080610d1a90614460565b915050610cbe565b509998505050505050505050565b610d38612e66565b60405163023aa9ab60e61b8152600481018390526000906001600160a01b03851690638eaa6ac090602401600060405180830381865afa158015610d80573d6000803e3d6000fd5b505050506040513d6000823e601f3d908101601f19168201604052610da891908101906144a0565b90506000856001600160a01b031663c2bc2efc610dc784516020015190565b6040518263ffffffff1660e01b8152600401610de39190613fde565b600060405180830381865afa158015610e00573d6000803e3d6000fd5b505050506040513d6000823e601f3d908101601f19168201604052610e289190810190614042565b90506000610e3688846118b4565b90506000610e4e898585604001518660600151611911565b6040805160608101825295865260208601939093529184019190915250909695505050505050565b60606000856001600160a01b031663fd69f3c26040518163ffffffff1660e01b8152600401602060405180830381865afa158015610eb8573d6000803e3d6000fd5b505050506040513d601f19601f82011682018060405250810190610edc91906140fa565b9050808410610f1f576040805160008082526020820190925290610f16565b610f03612cb8565b815260200190600190039081610efb5790505b50915050611086565b80831115610f2b578092505b6040516235673160e31b815260048101859052602481018490526000906001600160a01b038816906301ab398890604401600060405180830381865afa158015610f79573d6000803e3d6000fd5b505050506040513d6000823e601f3d908101601f19168201604052610fa1919081019061458a565b9050600081516001600160401b03811115610fbe57610fbe61302d565b604051908082528060200260200182016040528015610ff757816020015b610fe4612cb8565b815260200190600190039081610fdc5790505b50905060005b825181101561108057600088828151811061101a5761101a6141b9565b602002602001015190506000848381518110611038576110386141b9565b6020026020010151905061104e8c8c848461024a565b848481518110611060576110606141b9565b60200260200101819052505050808061107890614460565b915050610ffd565b50925050505b95945050505050565b6000806110a0888888888888611a80565b9050806000036110b457600091505061021b565b60006110c38860000151611b96565b9050806000036111385760405162461bcd60e51b815260206004820152603560248201527f6765744d61726b6574546f6b656e50726963653a20756e65787065637465642060448201527473746174652c20737570706c79206973207a65726f60581b60648201526084015b60405180910390fd5b61114181611bfa565b611152670de0b6b3a7640000611bfa565b61115c90846145be565b6111669190614659565b9998505050505050505050565b61117b612c4c565b611183612c4c565b61119e8989886111928b515190565b8b516020015188611c68565b855160808701919091526040808701929092529081019190915260208101919091526001600160a01b03909116905285516111d98a896118b4565b6111e39190614687565b60c0820181905260808201516111f9919061469b565b606082015261120a89888787611911565b6020820181905260c082015190516080830151604080850151855190910151611233919061469b565b61123d919061469b565b611247919061469b565b611251919061469b565b60e082018190526020870151611266916146ae565b61010082015298975050505050505050565b600080611286888785611eca565b9050600061129e898888888c600001518960016117cc565b9050600081136112b35760009250505061021b565b60006112cb8a89876112c55788611f44565b89611f44565b90506000856112df5760408a0151516112e6565b60208a0151515b905060006112f482846146ae565b90508060000361136c5760405162461bcd60e51b815260206004820152603e60248201527f676574426f72726f77696e67466163746f725065725365636f6e643a20756e6560448201527f787065637465642073746174652c20706f6f6c557364206973207a65726f0000606482015260840161112f565b8061137685611f5f565b61138090876146ae565b61138a9190614687565b9c9b505050505050505050505050565b6113a2612e8d565b6113aa612e8d565b6113b2612ec5565b6113bf8887876001611fb1565b8151526113cf8887866001611fb1565b8151602001526113e28887876000611fb1565b8151604001526113f58887866000611fb1565b81516060015280516020810151905161140e919061469b565b8151608001528051606081015160409091015161142b919061469b565b815160a0015261143e888787600161202c565b6040830152611450888787600061202c565b6060830152611462888786600161202c565b6080830152611474888786600061202c565b60a0830152805160800151158061148e5750805160a00151155b1561149b57509050611086565b6114a58887612048565b60408201526114b488876120e0565b60608201528051608081015160a0909101516114d09190612159565b608080830191909152815160a08101519101516114ed919061469b565b60a082018190526080820151606083015161150891906146ae565b6115129190614687565b808352815160a0810151608090910151116020840152604082015161153791906146ae565b60c082015260208201511561159e5780516080810151905160c083015161155e91906146ae565b6115689190614687565b60e08201528051608081015160209091015160c083015161158991906146ae565b6115939190614687565b6101008201526115f6565b805160a081015160409091015160c08301516115ba91906146ae565b6115c49190614687565b60e0820152805160a081015160609091015160c08301516115e591906146ae565b6115ef9190614687565b6101008201525b61161c8760200151602001518260e001516116119190614687565b82516080015161217b565b6020808301516080019190915287810151015160e082015161164c9161164191614687565b825160a0015161217b565b60208083015160c00191909152604088015101516101008201516116739161161191614687565b60208083015160a001919091526040880151015161010082015161169a9161164191614687565b60208083015160e001919091528201511561173f576116cd82604001516116c8836020015160800151611bfa565b6121b3565b60408301526060820151602082015160c001516116f391906116ee90611bfa565b61226c565b60608301526080820151602082015160a0015161171491906116c890611bfa565b608083015260a0820151602082015160e0015161173591906116ee90611bfa565b60a08301526117c1565b61175882604001516116ee836020015160800151611bfa565b60408301526060820151602082015160c0015161177991906116c890611bfa565b60608301526080820151602082015160a0015161179a91906116ee90611bfa565b608083015260a0820151602082015160e001516117bb91906116c890611bfa565b60a08301525b509695505050505050565b6000806117dc8989898988612326565b905060006117ef8a8a8a8a8a8a8a612351565b90506117fb82826123e8565b9a9950505050505050505050565b600080611818878787876123fe565b90508060000361182c576000915050611086565b600061184d88886000015189604001518a606001518a600001518a8a612351565b905061185882611bfa565b61186d68327cb2734119d3b7a9601e1b611bfa565b61187790836145be565b6108ab9190614659565b6000806118948888888888600189612351565b905060006118a8898989898960008a612351565b905061116681836146cd565b6000806118d2846118c785516020015190565b604086015151612450565b905060006118e584602001516060015190565b6118ef90836146f5565b905061190661190085602001515190565b8261246b565b925050505b92915050565b611919612f57565b611921612f57565b6119438661193187516020015190565b8661193e89604001515190565b61202c565b60608201526119658661195887516020015190565b8561193e89604001515190565b6080820152606081015160009081906119929061198789602001516080015190565b60208a015151612484565b90151560a085015260808401519092506119b590611987896020015160a0015190565b90151560c0850152905060008212156119df576119d96119d483614708565b611f5f565b60208401525b60008112156119fa576119f46119d482614708565b60408401525b856001600160a01b0316611a1088516040015190565b6001600160a01b0316148015611a265750600082135b15611a3757611a3482611f5f565b83525b846001600160a01b0316611a4d88516040015190565b6001600160a01b0316148015611a635750600081135b15611a7457611a7181611f5f565b83525b50909695505050505050565b600080611a968888600001518960400151611f44565b90506000611aad8989600001518a60600151611f44565b90506000611abb888661250c565b611ac590846146ae565b9050611ad1878661250c565b611adb90836146ae565b611ae5908261469b565b9050611b018a8a600001518b604001518c606001516001612523565b611b0b908261469b565b9050611b278a8a600001518b604001518c606001516000612523565b611b31908261469b565b90506000611b438b8b60000151612568565b9050611b4f878761250c565b611b5990826146ae565b611b63908361469b565b91506000611b828c8c600001518d604001518e606001518c8c15611881565b905061138a83611b9183614708565b6123e8565b6000816001600160a01b03166318160ddd6040518163ffffffff1660e01b8152600401602060405180830381865afa158015611bd6573d6000803e3d6000fd5b505050506040513d601f19601f8201168201806040525081019061190b91906140fa565b60006001600160ff1b03821115611c645760405162461bcd60e51b815260206004820152602860248201527f53616665436173743a2076616c756520646f65736e27742066697420696e2061604482015267371034b73a191a9b60c11b606482015260840161112f565b5090565b6000806000806000611c78612f98565b611c828b8a612582565b8351604081019190915260208101919091526001600160a01b0391821690528c1663bd02d0f5611cb18a6127ee565b6040518263ffffffff1660e01b8152600401611ccf91815260200190565b602060405180830381865afa158015611cec573d6000803e3d6000fd5b505050506040513d601f19601f82011682018060405250810190611d1091906140fa565b602082018190528a5190611d2590899061246b565b611d2f9190614687565b60408201819052815160200151611d46919061246b565b8151606090810191909152815190810151604090910151611d67919061246b565b8151608090810191909152815190810151606090910151611d8891906146f5565b815160a001528051606001516040820151611da391906146f5565b60608201526040516001600160a01b038d169063bd02d0f590611df9906020016020808252601c908201527b2322a2afa922a1a2a4ab22a92fa827a9a4aa24a7a72fa320a1aa27a960211b604082015260600190565b604051602081830303815290604052805190602001206040518263ffffffff1660e01b8152600401611e2d91815260200190565b602060405180830381865afa158015611e4a573d6000803e3d6000fd5b505050506040513d601f19601f82011682018060405250810190611e6e91906140fa565b608082018190526060820151611e839161246b565b60a082018190526060820151611e9991906146f5565b60c0820181905281518051608082015160a0928301519290940151909f939e50909c509a5098509650505050505050565b6000836001600160a01b031663bd02d0f5611ee58585612871565b6040518263ffffffff1660e01b8152600401611f0391815260200190565b602060405180830381865afa158015611f20573d6000803e3d6000fd5b505050506040513d601f19601f8201168201806040525081019061034691906140fa565b6000836001600160a01b031663bd02d0f5611ee585856128fb565b600080821215611c645760405162461bcd60e51b815260206004820181905260248201527f53616665436173743a2076616c7565206d75737420626520706f736974697665604482015260640161112f565b6000846001600160a01b031663bd02d0f5611fcd868686612969565b6040518263ffffffff1660e01b8152600401611feb91815260200190565b602060405180830381865afa158015612008573d6000803e3d6000fd5b505050506040513d601f19601f8201168201806040525081019061108691906140fa565b6000846001600160a01b031663dc97d962611fcd8686866129fb565b600080836001600160a01b031663bd02d0f561206385612a38565b6040518263ffffffff1660e01b815260040161208191815260200190565b602060405180830381865afa15801561209e573d6000803e3d6000fd5b505050506040513d601f19601f820116820180604052508101906120c291906140fa565b9050806000036120d657600091505061190b565b61034681426146f5565b6000826001600160a01b031663bd02d0f56120fa84612a70565b6040518263ffffffff1660e01b815260040161211891815260200190565b602060405180830381865afa158015612135573d6000803e3d6000fd5b505050506040513d601f19601f82011682018060405250810190610b2391906140fa565b60008183116121715761216c83836146f5565b610b23565b610b2382846146f5565b600061219368327cb2734119d3b7a9601e1b83614687565b6121a968327cb2734119d3b7a9601e1b856146ae565b610b239190614687565b60008215806121c0575081155b806121d657506000831280156121d65750600082135b806121ec57506000831380156121ec5750600082125b15612202576121fb82846146cd565b905061190b565b60008312801561221f575061221b83600160ff1b614724565b8213155b1561222f5750600160ff1b61190b565b60008313801561224f575061224b836001600160ff1b03614724565b8212155b1561226257506001600160ff1b0361190b565b610b2382846146cd565b6000821580612279575081155b8061228f575060008313801561228f5750600082135b806122a557506000831280156122a55750600082125b156122b4576121fb8284614724565b6000831380156122dc57506122d0836001600160ff1b03614724565b6122d983614708565b12155b156122ef57506001600160ff1b0361190b565b60008312801561230c575061230883600160ff1b614724565b8213155b1561231c5750600160ff1b61190b565b610b238284614724565b60008061233587878786611fb1565b9050600061234588888787611fb1565b90506108ab818361469b565b6000806123696123648a8a8a8a89612326565b611bfa565b9050600061237a8a8a8a8a89612aa4565b9050811580612387575080155b156123975760009250505061023f565b60006123a4878787612ac3565b905060006123b561236483856146ae565b90506000876123cd576123c88286614724565b6123d7565b6123d78583614724565b9d9c50505050505050505050505050565b6000816123f484611bfa565b610b2391906146cd565b60008082612410578460600151612416565b84604001515b9050600061242987876000015184611f44565b905060008461243d57604086015151612444565b6020860151515b90506108ab81836146ae565b6000836001600160a01b031663bd02d0f5611ee58585612afc565b600068327cb2734119d3b7a9601e1b6121a983856146ae565b6000808360000361249a57506000905080612504565b60006124a68587614724565b905060006124bf68327cb2734119d3b7a9601e1b611bfa565b6124d468327cb2734119d3b7a9601e1b611bfa565b6124dd87611bfa565b6124e79190614659565b6124f190846145be565b6124fb9190614659565b80159450925050505b935093915050565b60008161251a578251610b23565b50506020015190565b6000806125338787878787612326565b90506000612542888886612450565b90506000612551898987612b3d565b90508061255e83856146ae565b61116691906146f5565b6000826001600160a01b031663bd02d0f56120fa84612b58565b600080600080856001600160a01b03166385725b58866040518263ffffffff1660e01b81526004016125b49190613fde565b602060405180830381865afa1580156125d1573d6000803e3d6000fd5b505050506040513d601f19601f820116820180604052508101906125f591906140fa565b90506000808083156127ca576040516306459e2360e51b8152600481018590526001600160a01b038a169063c8b3c46090602401602060405180830381865afa158015612646573d6000803e3d6000fd5b505050506040513d601f19601f8201168201806040525081019061266a919061474b565b92506000896001600160a01b0316631582a018856040518263ffffffff1660e01b815260040161269a9190613fde565b602060405180830381865afa1580156126b7573d6000803e3d6000fd5b505050506040513d601f19601f820116820180604052508101906126db91906140fa565b60405163039af9eb60e01b8152600481018290529091506001600160a01b038b169063039af9eb906024016040805180830381865afa158015612722573d6000803e3d6000fd5b505050506040513d601f19601f820116820180604052508101906127469190614768565b60405163071a6a7960e41b815291945092506000906001600160a01b038c16906371a6a7909061277a908890600401613fde565b602060405180830381865afa158015612797573d6000803e3d6000fd5b505050506040513d601f19601f820116820180604052508101906127bb91906140fa565b905080156127c7578092505b50505b826127d483612b99565b6127dd83612b99565b965096509650505050509250925092565b6000604051602001612827906020808252601390820152722827a9a4aa24a7a72fa322a2afa320a1aa27a960691b604082015260600190565b60408051601f198184030181528282528051602091820120908301526001600160a01b03841690820152606001604051602081830303815290604052805190602001209050919050565b60006040516020016128a79060208082526010908201526f2127a92927aba4a723afa320a1aa27a960811b604082015260600190565b60408051601f198184030181528282528051602091820120908301526001600160a01b0385169082015282151560608201526080015b60405160208183030381529060405280519060200120905092915050565b600060405160200161292c906020808252600b908201526a1413d3d317d05353d5539560aa1b604082015260600190565b60408051601f198184030181528282528051602091820120908301526001600160a01b0380861691830191909152831660608201526080016128dd565b600060405160200161299c906020808252600d908201526c13d4115397d2539511549154d5609a1b604082015260600190565b60408051601f198184030181528282528051602091820120908301526001600160a01b038087169183019190915284166060820152821515608082015260a0016040516020818303038152906040528051906020012090509392505050565b600060405160200161299c9060208082526017908201527646554e44494e475f414d4f554e545f5045525f53495a4560481b604082015260600190565b60006040516020016128279060208082526012908201527111955391125391d7d554111055115117d05560721b604082015260600190565b6000604051602001612827906020808252600e908201526d232aa72224a723afa320a1aa27a960911b604082015260600190565b600080612ab387878786612bbe565b9050600061234588888787612bbe565b60008215612ae45781612ad7578351612add565b83602001515b9050610b23565b81612af3578360200151610346565b50509051919050565b60006040516020016128a7906020808252601b908201527a21aaa6aaa620aa24ab22afa127a92927aba4a723afa320a1aa27a960291b604082015260600190565b6000836001600160a01b031663bd02d0f5611ee58585612bda565b6000604051602001612827906020808252601b908201527a1413d4d2551253d397d253541050d517d413d3d317d05353d55395602a1b604082015260600190565b6000612710612bb468327cb2734119d3b7a9601e1b846146ae565b61190b9190614687565b6000846001600160a01b031663bd02d0f5611fcd868686612c0f565b60006040516020016128a7906020808252600f908201526e544f54414c5f424f52524f57494e4760881b604082015260600190565b600060405160200161299c906020808252601790820152764f50454e5f494e5445524553545f494e5f544f4b454e5360481b604082015260600190565b604080516101808101909152600061012082018181526101408301829052610160830191909152815260208101612c81612f57565b8152602001600081526020016000815260200160008152602001600081526020016000815260200160008152602001600081525090565b6040518060800160405280612ccb612e36565b81526020016000815260200160008152602001612ce6612e8d565b905290565b60408051610140810190915260006080820181815260a0830182905260c0830182905260e08301829052610100830191909152606061012083015281908152602001612d7560405180610100016040528060008152602001600081526020016000815260200160008152602001600081526020016000815260200160008152602001600081525090565b8152604080516080810182526000808252602082810182905292820181905260608201529101905b8152602001606081525090565b6040805160e0810190915260006080820181815260a0830182905260c083019190915281908152602001612e1c60405180610100016040528060008152602001600081526020016000815260200160008152602001600081526020016000815260200160008152602001600081525090565b815260408051602081810190925260008152910190612d9d565b6040805160a081018252600080825260208201819052918101829052606080820192909252608081019190915290565b6040518060600160405280612e79612daa565b815260200160008152602001612ce6612f57565b6040518060c0016040528060008152602001600015158152602001600081526020016000815260200160008152602001600081525090565b604051806101200160405280612f0a6040518060c001604052806000815260200160008152602001600081526020016000815260200160008152602001600081525090565b8152602001612c8160405180610100016040528060008152602001600081526020016000815260200160008152602001600081526020016000815260200160008152602001600081525090565b6040518060e0016040528060008152602001600081526020016000815260200160008152602001600081526020016000151581526020016000151581525090565b6040518060e00160405280612fe56040518060c0016040528060006001600160a01b0316815260200160008152602001600081526020016000815260200160008152602001600081525090565b81526020016000815260200160008152602001600081526020016000815260200160008152602001600081525090565b6001600160a01b038116811461302a57600080fd5b50565b634e487b7160e01b600052604160045260246000fd5b60405160a081016001600160401b03811182821017156130655761306561302d565b60405290565b60405161010081016001600160401b03811182821017156130655761306561302d565b604051602081016001600160401b03811182821017156130655761306561302d565b604051608081016001600160401b03811182821017156130655761306561302d565b604051606081016001600160401b03811182821017156130655761306561302d565b60405160c081016001600160401b03811182821017156130655761306561302d565b604051601f8201601f191681016001600160401b038111828210171561313e5761313e61302d565b604052919050565b803561315181613015565b919050565b60006001600160401b0382111561316f5761316f61302d565b50601f01601f191660200190565b600082601f83011261318e57600080fd5b81356131a161319c82613156565b613116565b8181528460208386010111156131b657600080fd5b816020850160208301376000918101602001919091529392505050565b6000604082840312156131e557600080fd5b604080519081016001600160401b03811182821017156132075761320761302d565b604052823581526020928301359281019290925250919050565b801515811461302a57600080fd5b803561315181613221565b600080600080600080610120878903121561325457600080fd5b863561325f81613015565b955060208701356001600160401b038082111561327b57600080fd5b9088019060a0828b03121561328f57600080fd5b613297613043565b82356132a281613015565b815260208301356132b281613015565b602082015260408301356132c581613015565b604082015260608301356132d881613015565b60608201526080830135828111156132ef57600080fd5b6132fb8c82860161317d565b60808301525080975050505061331488604089016131d3565b935061332388608089016131d3565b92506133328860c089016131d3565b9150613341610100880161322f565b90509295509295509295565b6000610100828403121561336057600080fd5b61336861306b565b9050813581526020820135602082015260408201356040820152606082013560608201526080820135608082015260a082013560a082015260c082013560c082015260e082013560e082015292915050565b6000602082840312156133cc57600080fd5b6133d461308e565b905081356133e181613221565b815292915050565b6000806000806000806000610100888a03121561340557600080fd5b873561341081613015565b9650602088013561342081613015565b955060408801356001600160401b038082111561343c57600080fd5b90890190818b036101a081121561345257600080fd5b61345a6130b0565b606082121561346857600080fd5b6134706130d2565b9150833561347d81613015565b8252602084013561348d81613015565b602083015260408401356134a081613015565b60408301528181526134b58d6060860161334d565b60208201526134c88d61016086016133ba565b60408201526101808401359150828211156134e257600080fd5b6134ee8d83860161317d565b6060820152809850505050506135078960608a016131d3565b935061351560a08901613146565b925061352360c08901613146565b915060e0880135905092959891949750929550565b805182526020810151602083015260408101516040830152606081015160608301526080810151608083015260a0810151151560a083015260c0810151151560c08301525050565b815180516001600160a01b031682526020808201519083015260409081015190820152610220810160208301516135ba6060840182613538565b5060408301516101408301526060830151610160830152608083015161018083015260a08301516101a083015260c08301516101c083015260e08301516101e0830152610100909201516102009091015290565b600060c0828403121561362057600080fd5b6136286130d2565b905061363483836131d3565b815261364383604084016131d3565b602082015261365583608084016131d3565b604082015292915050565b600080600080610120858703121561367757600080fd5b843561368281613015565b9350602085013561369281613015565b92506136a1866040870161360e565b91506101008501356136b281613015565b939692955090935050565b60005b838110156136d85781810151838201526020016136c0565b50506000910152565b600081518084526136f98160208601602086016136bd565b601f01601f19169290920160200192915050565b600060018060a01b0380835116845280602084015116602085015280604084015116604085015280606084015116606085015250608082015160a0608085015261034660a08501826136e1565b600061012082518185526137708286018261370d565b9150506020830151602085015260408301516040850152606083015180516060860152602081015115156080860152604081015160a0860152606081015160c0860152608081015160e086015260a0810151610100860152508091505092915050565b602081526000610b23602083018461375a565b600080600080608085870312156137fc57600080fd5b843561380781613015565b9350602085013561381781613015565b93969395505050506040820135916060013590565b600081518084526020808501945080840160005b838110156138655781516001600160a01b031687529582019590820190600101613840565b509495945050505050565b80516008811061389057634e487b7160e01b600052602160045260246000fd5b82526020818101511515908301526040808201511515908301526060908101511515910152565b60006020808301818452808551808352604092508286019150828160051b87010184880160005b838110156139f957888303603f19018552815180516101c080865281516001600160a01b03908116918701919091528982015181166101e08701528882015181166102008701526060808301518216610220880152608083015190911661024087015260a09091015160c061026087015261395d61028087018261382c565b9050898301516139b88b880182805182526020810151602083015260408101516040830152606081015160608301526080810151608083015260a081015160a083015260c081015160c083015260e081015160e08301525050565b50888301516139cb610120880182613870565b50918101518583036101a0870152916139e481846136e1565b978a01979550505091870191506001016138de565b509098975050505050505050565b60006101a0825160018060a01b03808251168652806020830151166020870152806040830151166040870152505060208301518051606086015260208101516080860152604081015160a0860152606081015160c0860152608081015160e086015260a081015161010086015260c081015161012086015260e0810151610140860152506040830151613aa06101608601825115159052565b50606083015181610180860152611906828601826136e1565b6000602080830181845280855180835260408601915060408160051b870101925083870160005b82811015613b0e57603f19888603018452613afc858351613a07565b94509285019290850190600101613ae0565b5092979650505050505050565b6000806000806000806000610100888a031215613b3757600080fd5b8735613b4281613015565b96506020880135613b5281613015565b95506040880135613b6281613015565b94506060880135613b7281613015565b9350613b818960808a016131d3565b925060c0880135613b9181613221565b915060e0880135613ba181613221565b8091505092959891949750929550565b6000806000806000806101608789031215613bcb57600080fd5b8635613bd681613015565b95506020870135613be681613015565b94506040870135613bf681613015565b9350613c05886060890161360e565b9250610120870135613c1681613221565b9150610140870135613c2781613221565b809150509295509295509295565b60008060008060008060e08789031215613c4e57600080fd5b8635613c5981613015565b95506020870135613c6981613015565b94506040870135613c7981613015565b93506060870135613c8981613015565b9250613c9888608089016131d3565b915060c0870135613c2781613221565b600080600060608486031215613cbd57600080fd5b8335613cc881613015565b95602085013595506040909401359392505050565b6000602080830181845280855180835260408601915060408160051b870101925083870160005b82811015613b0e57603f19888603018452613d2085835161370d565b94509285019290850190600101613d04565b60008060008060008060c08789031215613d4b57600080fd5b8635613d5681613015565b95506020870135613d6681613015565b94506040870135613d7681613015565b93506060870135613d8681613015565b9598949750929560808101359460a0909101359350915050565b60006101208251818552613db682860182613a07565b915050602083015160208501526040830151613dd56040860182613538565b509392505050565b6000602080830181845280855180835260408601915060408160051b870101925083870160005b82811015613b0e57603f19888603018452613e20858351613da0565b94509285019290850190600101613e04565b60008060008060808587031215613e4857600080fd5b8435613e5381613015565b93506020850135613e6381613015565b92506040850135613e7381613015565b9396929550929360600135925050565b602081526000610b236020830184613da0565b60006001600160401b03821115613eaf57613eaf61302d565b5060051b60200190565b600080600080600060a08688031215613ed157600080fd5b8535613edc81613015565b9450602086810135613eed81613015565b945060408701356001600160401b03811115613f0857600080fd5b8701601f81018913613f1957600080fd5b8035613f2761319c82613e96565b81815260c0918202830184019184820191908c841115613f4657600080fd5b938501935b83851015613f6c57613f5d8d8661360e565b83529384019391850191613f4b565b50989b979a50979860608101359850608001359695505050505050565b6000602080830181845280855180835260408601915060408160051b870101925083870160005b82811015613b0e57603f19888603018452613fcc85835161375a565b94509285019290850190600101613fb0565b6001600160a01b0391909116815260200190565b805161315181613015565b600082601f83011261400e57600080fd5b815161401c61319c82613156565b81815284602083860101111561403157600080fd5b6103468260208301602087016136bd565b60006020828403121561405457600080fd5b81516001600160401b038082111561406b57600080fd5b9083019060a0828603121561407f57600080fd5b614087613043565b825161409281613015565b815260208301516140a281613015565b602082015260408301516140b581613015565b604082015260608301516140c881613015565b60608201526080830151828111156140df57600080fd5b6140eb87828601613ffd565b60808301525095945050505050565b60006020828403121561410c57600080fd5b5051919050565b6001600160a01b039390931683526020830191909152604082015260600190565b6000602080838503121561414757600080fd5b82516001600160401b0381111561415d57600080fd5b8301601f8101851361416e57600080fd5b805161417c61319c82613e96565b81815260059190911b8201830190838101908783111561419b57600080fd5b928401925b8284101561023f578351825292840192908401906141a0565b634e487b7160e01b600052603260045260246000fd5b600082601f8301126141e057600080fd5b815160206141f061319c83613e96565b82815260059290921b8401810191818101908684111561420f57600080fd5b8286015b848110156117c157805161422681613015565b8352918301918301614213565b6000610100828403121561424657600080fd5b61424e61306b565b9050815181526020820151602082015260408201516040820152606082015160608201526080820151608082015260a082015160a082015260c082015160c082015260e082015160e082015292915050565b6000608082840312156142b257600080fd5b6142ba6130b0565b90508151600881106142cb57600080fd5b815260208201516142db81613221565b602082015260408201516142ee81613221565b6040820152606082015161430181613221565b606082015292915050565b60006020828403121561431e57600080fd5b81516001600160401b038082111561433557600080fd5b908301906101c0828603121561434a57600080fd5b6143526130b0565b82518281111561436157600080fd5b830160c0818803121561437357600080fd5b61437b6130f4565b815161438681613015565b8152602082015161439681613015565b602082015260408201516143a981613015565b60408201526143ba60608301613ff2565b60608201526143cb60808301613ff2565b608082015260a0820151848111156143e257600080fd5b6143ee898285016141cf565b60a0830152508252506144048660208501614233565b60208201526144178661012085016142a0565b60408201526101a08301518281111561442f57600080fd5b61443b87828601613ffd565b60608301525095945050505050565b634e487b7160e01b600052601160045260246000fd5b6000600182016144725761447261444a565b5060010190565b60006020828403121561448b57600080fd5b61449361308e565b905081516133e181613221565b6000602082840312156144b257600080fd5b81516001600160401b03808211156144c957600080fd5b908301908185036101a08112156144df57600080fd5b6144e76130b0565b60608212156144f557600080fd5b6144fd6130d2565b9150835161450a81613015565b8252602084015161451a81613015565b6020830152604084015161452d81613015565b60408301528181526145428760608601614233565b6020820152614555876101608601614479565b604082015261018084015191508282111561456f57600080fd5b61457b87838601613ffd565b60608201529695505050505050565b60006020828403121561459c57600080fd5b81516001600160401b038111156145b257600080fd5b610346848285016141cf565b60006001600160ff1b03818413828413808216868404861116156145e4576145e461444a565b600160ff1b60008712828116878305891216156146035761460361444a565b6000871292508782058712848416161561461f5761461f61444a565b878505871281841616156146355761463561444a565b505050929093029392505050565b634e487b7160e01b600052601260045260246000fd5b60008261466857614668614643565b600160ff1b8214600019841416156146825761468261444a565b500590565b60008261469657614696614643565b500490565b8082018082111561190b5761190b61444a565b60008160001904831182151516156146c8576146c861444a565b500290565b80820182811260008312801582168215821617156146ed576146ed61444a565b505092915050565b8181038181111561190b5761190b61444a565b6000600160ff1b820161471d5761471d61444a565b5060000390565b81810360008312801583831316838312821617156147445761474461444a565b5092915050565b60006020828403121561475d57600080fd5b8151610b2381613015565b6000806040838503121561477b57600080fd5b50508051602090910151909290915056fea264697066735822122046d7d1288a2b4e3b6a86300e1c1b89a6ea9d2283364799cdb6f3fef53bcd821964736f6c63430008100033",
  "linkReferences": {},
  "deployedLinkReferences": {}
}