{
  "_format": "hh-sol-artifact-1",
  "contractName": "Reader",
  "sourceName": "contracts/reader/Reader.sol",
  "abi": [
    {
      "inputs": [
        {
          "internalType": "uint256",
          "name": "x",
          "type": "uint256"
        }
      ],
      "name": "PRBMathUD60x18__Exp2InputTooBig",
      "type": "error"
    },
    {
      "inputs": [
        {
          "internalType": "uint256",
          "name": "x",
          "type": "uint256"
        }
      ],
      "name": "PRBMathUD60x18__LogInputTooSmall",
      "type": "error"
    },
    {
      "inputs": [
        {
          "internalType": "uint256",
          "name": "prod1",
          "type": "uint256"
        }
      ],
      "name": "PRBMath__MulDivFixedPointOverflow",
      "type": "error"
    },
    {
      "inputs": [],
      "name": "UnableToGetBorrowingFactorEmptyPoolUsd",
      "type": "error"
    },
    {
      "inputs": [
        {
          "internalType": "address",
          "name": "token",
          "type": "address"
        },
        {
          "internalType": "address",
          "name": "market",
          "type": "address"
        }
      ],
      "name": "UnableToGetCachedTokenPrice",
      "type": "error"
    },
    {
      "inputs": [
        {
          "internalType": "uint256",
          "name": "positionBorrowingFactor",
          "type": "uint256"
        },
        {
          "internalType": "uint256",
          "name": "cumulativeBorrowingFactor",
          "type": "uint256"
        }
      ],
      "name": "UnexpectedBorrowingFactor",
      "type": "error"
    },
    {
      "inputs": [
        {
          "internalType": "contract DataStore",
          "name": "dataStore",
          "type": "address"
        },
        {
          "internalType": "address",
          "name": "account",
          "type": "address"
        },
        {
          "internalType": "uint256",
          "name": "start",
          "type": "uint256"
        },
        {
          "internalType": "uint256",
          "name": "end",
          "type": "uint256"
        }
      ],
      "name": "getAccountOrders",
      "outputs": [
        {
          "components": [
            {
              "components": [
                {
                  "internalType": "address",
                  "name": "account",
                  "type": "address"
                },
                {
                  "internalType": "address",
                  "name": "receiver",
                  "type": "address"
                },
                {
                  "internalType": "address",
                  "name": "callbackContract",
                  "type": "address"
                },
                {
                  "internalType": "address",
                  "name": "market",
                  "type": "address"
                },
                {
                  "internalType": "address",
                  "name": "initialCollateralToken",
                  "type": "address"
                },
                {
                  "internalType": "address[]",
                  "name": "swapPath",
                  "type": "address[]"
                }
              ],
              "internalType": "struct Order.Addresses",
              "name": "addresses",
              "type": "tuple"
            },
            {
              "components": [
                {
                  "internalType": "enum Order.OrderType",
                  "name": "orderType",
                  "type": "uint8"
                },
                {
                  "internalType": "enum Order.DecreasePositionSwapType",
                  "name": "decreasePositionSwapType",
                  "type": "uint8"
                },
                {
                  "internalType": "uint256",
                  "name": "sizeDeltaUsd",
                  "type": "uint256"
                },
                {
                  "internalType": "uint256",
                  "name": "initialCollateralDeltaAmount",
                  "type": "uint256"
                },
                {
                  "internalType": "uint256",
                  "name": "triggerPrice",
                  "type": "uint256"
                },
                {
                  "internalType": "uint256",
                  "name": "acceptablePrice",
                  "type": "uint256"
                },
                {
                  "internalType": "uint256",
                  "name": "executionFee",
                  "type": "uint256"
                },
                {
                  "internalType": "uint256",
                  "name": "callbackGasLimit",
                  "type": "uint256"
                },
                {
                  "internalType": "uint256",
                  "name": "minOutputAmount",
                  "type": "uint256"
                },
                {
                  "internalType": "uint256",
                  "name": "updatedAtBlock",
                  "type": "uint256"
                }
              ],
              "internalType": "struct Order.Numbers",
              "name": "numbers",
              "type": "tuple"
            },
            {
              "components": [
                {
                  "internalType": "bool",
                  "name": "isLong",
                  "type": "bool"
                },
                {
                  "internalType": "bool",
                  "name": "shouldUnwrapNativeToken",
                  "type": "bool"
                },
                {
                  "internalType": "bool",
                  "name": "isFrozen",
                  "type": "bool"
                }
              ],
              "internalType": "struct Order.Flags",
              "name": "flags",
              "type": "tuple"
            }
          ],
          "internalType": "struct Order.Props[]",
          "name": "",
          "type": "tuple[]"
        }
      ],
      "stateMutability": "view",
      "type": "function"
    },
    {
      "inputs": [
        {
          "internalType": "contract DataStore",
          "name": "dataStore",
          "type": "address"
        },
        {
          "internalType": "contract IReferralStorage",
          "name": "referralStorage",
          "type": "address"
        },
        {
          "internalType": "bytes32[]",
          "name": "positionKeys",
          "type": "bytes32[]"
        },
        {
          "components": [
            {
              "components": [
                {
                  "internalType": "uint256",
                  "name": "min",
                  "type": "uint256"
                },
                {
                  "internalType": "uint256",
                  "name": "max",
                  "type": "uint256"
                }
              ],
              "internalType": "struct Price.Props",
              "name": "indexTokenPrice",
              "type": "tuple"
            },
            {
              "components": [
                {
                  "internalType": "uint256",
                  "name": "min",
                  "type": "uint256"
                },
                {
                  "internalType": "uint256",
                  "name": "max",
                  "type": "uint256"
                }
              ],
              "internalType": "struct Price.Props",
              "name": "longTokenPrice",
              "type": "tuple"
            },
            {
              "components": [
                {
                  "internalType": "uint256",
                  "name": "min",
                  "type": "uint256"
                },
                {
                  "internalType": "uint256",
                  "name": "max",
                  "type": "uint256"
                }
              ],
              "internalType": "struct Price.Props",
              "name": "shortTokenPrice",
              "type": "tuple"
            }
          ],
          "internalType": "struct MarketUtils.MarketPrices[]",
          "name": "prices",
          "type": "tuple[]"
        }
      ],
      "name": "getAccountPositionInfoList",
      "outputs": [
        {
          "components": [
            {
              "components": [
                {
                  "components": [
                    {
                      "internalType": "address",
                      "name": "account",
                      "type": "address"
                    },
                    {
                      "internalType": "address",
                      "name": "market",
                      "type": "address"
                    },
                    {
                      "internalType": "address",
                      "name": "collateralToken",
                      "type": "address"
                    }
                  ],
                  "internalType": "struct Position.Addresses",
                  "name": "addresses",
                  "type": "tuple"
                },
                {
                  "components": [
                    {
                      "internalType": "uint256",
                      "name": "sizeInUsd",
                      "type": "uint256"
                    },
                    {
                      "internalType": "uint256",
                      "name": "sizeInTokens",
                      "type": "uint256"
                    },
                    {
                      "internalType": "uint256",
                      "name": "collateralAmount",
                      "type": "uint256"
                    },
                    {
                      "internalType": "uint256",
                      "name": "borrowingFactor",
                      "type": "uint256"
                    },
                    {
                      "internalType": "int256",
                      "name": "longTokenFundingAmountPerSize",
                      "type": "int256"
                    },
                    {
                      "internalType": "int256",
                      "name": "shortTokenFundingAmountPerSize",
                      "type": "int256"
                    },
                    {
                      "internalType": "uint256",
                      "name": "increasedAtBlock",
                      "type": "uint256"
                    },
                    {
                      "internalType": "uint256",
                      "name": "decreasedAtBlock",
                      "type": "uint256"
                    }
                  ],
                  "internalType": "struct Position.Numbers",
                  "name": "numbers",
                  "type": "tuple"
                },
                {
                  "components": [
                    {
                      "internalType": "bool",
                      "name": "isLong",
                      "type": "bool"
                    }
                  ],
                  "internalType": "struct Position.Flags",
                  "name": "flags",
                  "type": "tuple"
                }
              ],
              "internalType": "struct Position.Props",
              "name": "position",
              "type": "tuple"
            },
            {
              "components": [
                {
                  "components": [
                    {
                      "internalType": "bytes32",
                      "name": "referralCode",
                      "type": "bytes32"
                    },
                    {
                      "internalType": "address",
                      "name": "affiliate",
                      "type": "address"
                    },
                    {
                      "internalType": "address",
                      "name": "trader",
                      "type": "address"
                    },
                    {
                      "internalType": "uint256",
                      "name": "totalRebateFactor",
                      "type": "uint256"
                    },
                    {
                      "internalType": "uint256",
                      "name": "traderDiscountFactor",
                      "type": "uint256"
                    },
                    {
                      "internalType": "uint256",
                      "name": "totalRebateAmount",
                      "type": "uint256"
                    },
                    {
                      "internalType": "uint256",
                      "name": "traderDiscountAmount",
                      "type": "uint256"
                    },
                    {
                      "internalType": "uint256",
                      "name": "affiliateRewardAmount",
                      "type": "uint256"
                    }
                  ],
                  "internalType": "struct PositionPricingUtils.PositionReferralFees",
                  "name": "referral",
                  "type": "tuple"
                },
                {
                  "components": [
                    {
                      "internalType": "uint256",
                      "name": "fundingFeeAmount",
                      "type": "uint256"
                    },
                    {
                      "internalType": "uint256",
                      "name": "claimableLongTokenAmount",
                      "type": "uint256"
                    },
                    {
                      "internalType": "uint256",
                      "name": "claimableShortTokenAmount",
                      "type": "uint256"
                    },
                    {
                      "internalType": "int256",
                      "name": "latestLongTokenFundingAmountPerSize",
                      "type": "int256"
                    },
                    {
                      "internalType": "int256",
                      "name": "latestShortTokenFundingAmountPerSize",
                      "type": "int256"
                    }
                  ],
                  "internalType": "struct PositionPricingUtils.PositionFundingFees",
                  "name": "funding",
                  "type": "tuple"
                },
                {
                  "components": [
                    {
                      "internalType": "uint256",
                      "name": "borrowingFeeUsd",
                      "type": "uint256"
                    },
                    {
                      "internalType": "uint256",
                      "name": "borrowingFeeAmount",
                      "type": "uint256"
                    },
                    {
                      "internalType": "uint256",
                      "name": "borrowingFeeReceiverFactor",
                      "type": "uint256"
                    },
                    {
                      "internalType": "uint256",
                      "name": "borrowingFeeAmountForFeeReceiver",
                      "type": "uint256"
                    }
                  ],
                  "internalType": "struct PositionPricingUtils.PositionBorrowingFees",
                  "name": "borrowing",
                  "type": "tuple"
                },
                {
                  "components": [
                    {
                      "internalType": "uint256",
                      "name": "min",
                      "type": "uint256"
                    },
                    {
                      "internalType": "uint256",
                      "name": "max",
                      "type": "uint256"
                    }
                  ],
                  "internalType": "struct Price.Props",
                  "name": "collateralTokenPrice",
                  "type": "tuple"
                },
                {
                  "internalType": "uint256",
                  "name": "positionFeeFactor",
                  "type": "uint256"
                },
                {
                  "internalType": "uint256",
                  "name": "protocolFeeAmount",
                  "type": "uint256"
                },
                {
                  "internalType": "uint256",
                  "name": "positionFeeReceiverFactor",
                  "type": "uint256"
                },
                {
                  "internalType": "uint256",
                  "name": "feeReceiverAmount",
                  "type": "uint256"
                },
                {
                  "internalType": "uint256",
                  "name": "feeAmountForPool",
                  "type": "uint256"
                },
                {
                  "internalType": "uint256",
                  "name": "positionFeeAmountForPool",
                  "type": "uint256"
                },
                {
                  "internalType": "uint256",
                  "name": "positionFeeAmount",
                  "type": "uint256"
                },
                {
                  "internalType": "uint256",
                  "name": "totalNetCostAmount",
                  "type": "uint256"
                },
                {
                  "internalType": "uint256",
                  "name": "totalNetCostUsd",
                  "type": "uint256"
                }
              ],
              "internalType": "struct PositionPricingUtils.PositionFees",
              "name": "fees",
              "type": "tuple"
            }
          ],
          "internalType": "struct Reader.PositionInfo[]",
          "name": "",
          "type": "tuple[]"
        }
      ],
      "stateMutability": "view",
      "type": "function"
    },
    {
      "inputs": [
        {
          "internalType": "contract DataStore",
          "name": "dataStore",
          "type": "address"
        },
        {
          "internalType": "address",
          "name": "account",
          "type": "address"
        },
        {
          "internalType": "uint256",
          "name": "start",
          "type": "uint256"
        },
        {
          "internalType": "uint256",
          "name": "end",
          "type": "uint256"
        }
      ],
      "name": "getAccountPositions",
      "outputs": [
        {
          "components": [
            {
              "components": [
                {
                  "internalType": "address",
                  "name": "account",
                  "type": "address"
                },
                {
                  "internalType": "address",
                  "name": "market",
                  "type": "address"
                },
                {
                  "internalType": "address",
                  "name": "collateralToken",
                  "type": "address"
                }
              ],
              "internalType": "struct Position.Addresses",
              "name": "addresses",
              "type": "tuple"
            },
            {
              "components": [
                {
                  "internalType": "uint256",
                  "name": "sizeInUsd",
                  "type": "uint256"
                },
                {
                  "internalType": "uint256",
                  "name": "sizeInTokens",
                  "type": "uint256"
                },
                {
                  "internalType": "uint256",
                  "name": "collateralAmount",
                  "type": "uint256"
                },
                {
                  "internalType": "uint256",
                  "name": "borrowingFactor",
                  "type": "uint256"
                },
                {
                  "internalType": "int256",
                  "name": "longTokenFundingAmountPerSize",
                  "type": "int256"
                },
                {
                  "internalType": "int256",
                  "name": "shortTokenFundingAmountPerSize",
                  "type": "int256"
                },
                {
                  "internalType": "uint256",
                  "name": "increasedAtBlock",
                  "type": "uint256"
                },
                {
                  "internalType": "uint256",
                  "name": "decreasedAtBlock",
                  "type": "uint256"
                }
              ],
              "internalType": "struct Position.Numbers",
              "name": "numbers",
              "type": "tuple"
            },
            {
              "components": [
                {
                  "internalType": "bool",
                  "name": "isLong",
                  "type": "bool"
                }
              ],
              "internalType": "struct Position.Flags",
              "name": "flags",
              "type": "tuple"
            }
          ],
          "internalType": "struct Position.Props[]",
          "name": "",
          "type": "tuple[]"
        }
      ],
      "stateMutability": "view",
      "type": "function"
    },
    {
      "inputs": [
        {
          "internalType": "contract DataStore",
          "name": "dataStore",
          "type": "address"
        },
        {
          "internalType": "bytes32",
          "name": "key",
          "type": "bytes32"
        }
      ],
      "name": "getDeposit",
      "outputs": [
        {
          "components": [
            {
              "components": [
                {
                  "internalType": "address",
                  "name": "account",
                  "type": "address"
                },
                {
                  "internalType": "address",
                  "name": "receiver",
                  "type": "address"
                },
                {
                  "internalType": "address",
                  "name": "callbackContract",
                  "type": "address"
                },
                {
                  "internalType": "address",
                  "name": "market",
                  "type": "address"
                },
                {
                  "internalType": "address",
                  "name": "initialLongToken",
                  "type": "address"
                },
                {
                  "internalType": "address",
                  "name": "initialShortToken",
                  "type": "address"
                },
                {
                  "internalType": "address[]",
                  "name": "longTokenSwapPath",
                  "type": "address[]"
                },
                {
                  "internalType": "address[]",
                  "name": "shortTokenSwapPath",
                  "type": "address[]"
                }
              ],
              "internalType": "struct Deposit.Addresses",
              "name": "addresses",
              "type": "tuple"
            },
            {
              "components": [
                {
                  "internalType": "uint256",
                  "name": "initialLongTokenAmount",
                  "type": "uint256"
                },
                {
                  "internalType": "uint256",
                  "name": "initialShortTokenAmount",
                  "type": "uint256"
                },
                {
                  "internalType": "uint256",
                  "name": "minMarketTokens",
                  "type": "uint256"
                },
                {
                  "internalType": "uint256",
                  "name": "updatedAtBlock",
                  "type": "uint256"
                },
                {
                  "internalType": "uint256",
                  "name": "executionFee",
                  "type": "uint256"
                },
                {
                  "internalType": "uint256",
                  "name": "callbackGasLimit",
                  "type": "uint256"
                }
              ],
              "internalType": "struct Deposit.Numbers",
              "name": "numbers",
              "type": "tuple"
            },
            {
              "components": [
                {
                  "internalType": "bool",
                  "name": "shouldUnwrapNativeToken",
                  "type": "bool"
                }
              ],
              "internalType": "struct Deposit.Flags",
              "name": "flags",
              "type": "tuple"
            }
          ],
          "internalType": "struct Deposit.Props",
          "name": "",
          "type": "tuple"
        }
      ],
      "stateMutability": "view",
      "type": "function"
    },
    {
      "inputs": [
        {
          "internalType": "contract DataStore",
          "name": "dataStore",
          "type": "address"
        },
        {
          "internalType": "address",
          "name": "key",
          "type": "address"
        }
      ],
      "name": "getMarket",
      "outputs": [
        {
          "components": [
            {
              "internalType": "address",
              "name": "marketToken",
              "type": "address"
            },
            {
              "internalType": "address",
              "name": "indexToken",
              "type": "address"
            },
            {
              "internalType": "address",
              "name": "longToken",
              "type": "address"
            },
            {
              "internalType": "address",
              "name": "shortToken",
              "type": "address"
            }
          ],
          "internalType": "struct Market.Props",
          "name": "",
          "type": "tuple"
        }
      ],
      "stateMutability": "view",
      "type": "function"
    },
    {
      "inputs": [
        {
          "internalType": "contract DataStore",
          "name": "dataStore",
          "type": "address"
        },
        {
          "components": [
            {
              "components": [
                {
                  "internalType": "uint256",
                  "name": "min",
                  "type": "uint256"
                },
                {
                  "internalType": "uint256",
                  "name": "max",
                  "type": "uint256"
                }
              ],
              "internalType": "struct Price.Props",
              "name": "indexTokenPrice",
              "type": "tuple"
            },
            {
              "components": [
                {
                  "internalType": "uint256",
                  "name": "min",
                  "type": "uint256"
                },
                {
                  "internalType": "uint256",
                  "name": "max",
                  "type": "uint256"
                }
              ],
              "internalType": "struct Price.Props",
              "name": "longTokenPrice",
              "type": "tuple"
            },
            {
              "components": [
                {
                  "internalType": "uint256",
                  "name": "min",
                  "type": "uint256"
                },
                {
                  "internalType": "uint256",
                  "name": "max",
                  "type": "uint256"
                }
              ],
              "internalType": "struct Price.Props",
              "name": "shortTokenPrice",
              "type": "tuple"
            }
          ],
          "internalType": "struct MarketUtils.MarketPrices",
          "name": "prices",
          "type": "tuple"
        },
        {
          "internalType": "address",
          "name": "marketKey",
          "type": "address"
        }
      ],
      "name": "getMarketInfo",
      "outputs": [
        {
          "components": [
            {
              "components": [
                {
                  "internalType": "address",
                  "name": "marketToken",
                  "type": "address"
                },
                {
                  "internalType": "address",
                  "name": "indexToken",
                  "type": "address"
                },
                {
                  "internalType": "address",
                  "name": "longToken",
                  "type": "address"
                },
                {
                  "internalType": "address",
                  "name": "shortToken",
                  "type": "address"
                }
              ],
              "internalType": "struct Market.Props",
              "name": "market",
              "type": "tuple"
            },
            {
              "internalType": "uint256",
              "name": "borrowingFactorPerSecondForLongs",
              "type": "uint256"
            },
            {
              "internalType": "uint256",
              "name": "borrowingFactorPerSecondForShorts",
              "type": "uint256"
            },
            {
              "components": [
                {
                  "internalType": "bool",
                  "name": "longsPayShorts",
                  "type": "bool"
                },
                {
                  "internalType": "uint256",
                  "name": "fundingFactorPerSecond",
                  "type": "uint256"
                },
                {
                  "internalType": "int256",
                  "name": "fundingAmountPerSize_LongCollateral_LongPosition",
                  "type": "int256"
                },
                {
                  "internalType": "int256",
                  "name": "fundingAmountPerSize_LongCollateral_ShortPosition",
                  "type": "int256"
                },
                {
                  "internalType": "int256",
                  "name": "fundingAmountPerSize_ShortCollateral_LongPosition",
                  "type": "int256"
                },
                {
                  "internalType": "int256",
                  "name": "fundingAmountPerSize_ShortCollateral_ShortPosition",
                  "type": "int256"
                }
              ],
              "internalType": "struct MarketUtils.GetNextFundingAmountPerSizeResult",
              "name": "funding",
              "type": "tuple"
            }
          ],
          "internalType": "struct Reader.MarketInfo",
          "name": "",
          "type": "tuple"
        }
      ],
      "stateMutability": "view",
      "type": "function"
    },
    {
      "inputs": [
        {
          "internalType": "contract DataStore",
          "name": "dataStore",
          "type": "address"
        },
        {
          "components": [
            {
              "components": [
                {
                  "internalType": "uint256",
                  "name": "min",
                  "type": "uint256"
                },
                {
                  "internalType": "uint256",
                  "name": "max",
                  "type": "uint256"
                }
              ],
              "internalType": "struct Price.Props",
              "name": "indexTokenPrice",
              "type": "tuple"
            },
            {
              "components": [
                {
                  "internalType": "uint256",
                  "name": "min",
                  "type": "uint256"
                },
                {
                  "internalType": "uint256",
                  "name": "max",
                  "type": "uint256"
                }
              ],
              "internalType": "struct Price.Props",
              "name": "longTokenPrice",
              "type": "tuple"
            },
            {
              "components": [
                {
                  "internalType": "uint256",
                  "name": "min",
                  "type": "uint256"
                },
                {
                  "internalType": "uint256",
                  "name": "max",
                  "type": "uint256"
                }
              ],
              "internalType": "struct Price.Props",
              "name": "shortTokenPrice",
              "type": "tuple"
            }
          ],
          "internalType": "struct MarketUtils.MarketPrices[]",
          "name": "marketPricesList",
          "type": "tuple[]"
        },
        {
          "internalType": "uint256",
          "name": "start",
          "type": "uint256"
        },
        {
          "internalType": "uint256",
          "name": "end",
          "type": "uint256"
        }
      ],
      "name": "getMarketInfoList",
      "outputs": [
        {
          "components": [
            {
              "components": [
                {
                  "internalType": "address",
                  "name": "marketToken",
                  "type": "address"
                },
                {
                  "internalType": "address",
                  "name": "indexToken",
                  "type": "address"
                },
                {
                  "internalType": "address",
                  "name": "longToken",
                  "type": "address"
                },
                {
                  "internalType": "address",
                  "name": "shortToken",
                  "type": "address"
                }
              ],
              "internalType": "struct Market.Props",
              "name": "market",
              "type": "tuple"
            },
            {
              "internalType": "uint256",
              "name": "borrowingFactorPerSecondForLongs",
              "type": "uint256"
            },
            {
              "internalType": "uint256",
              "name": "borrowingFactorPerSecondForShorts",
              "type": "uint256"
            },
            {
              "components": [
                {
                  "internalType": "bool",
                  "name": "longsPayShorts",
                  "type": "bool"
                },
                {
                  "internalType": "uint256",
                  "name": "fundingFactorPerSecond",
                  "type": "uint256"
                },
                {
                  "internalType": "int256",
                  "name": "fundingAmountPerSize_LongCollateral_LongPosition",
                  "type": "int256"
                },
                {
                  "internalType": "int256",
                  "name": "fundingAmountPerSize_LongCollateral_ShortPosition",
                  "type": "int256"
                },
                {
                  "internalType": "int256",
                  "name": "fundingAmountPerSize_ShortCollateral_LongPosition",
                  "type": "int256"
                },
                {
                  "internalType": "int256",
                  "name": "fundingAmountPerSize_ShortCollateral_ShortPosition",
                  "type": "int256"
                }
              ],
              "internalType": "struct MarketUtils.GetNextFundingAmountPerSizeResult",
              "name": "funding",
              "type": "tuple"
            }
          ],
          "internalType": "struct Reader.MarketInfo[]",
          "name": "",
          "type": "tuple[]"
        }
      ],
      "stateMutability": "view",
      "type": "function"
    },
    {
      "inputs": [
        {
          "internalType": "contract DataStore",
          "name": "dataStore",
          "type": "address"
        },
        {
          "components": [
            {
              "internalType": "address",
              "name": "marketToken",
              "type": "address"
            },
            {
              "internalType": "address",
              "name": "indexToken",
              "type": "address"
            },
            {
              "internalType": "address",
              "name": "longToken",
              "type": "address"
            },
            {
              "internalType": "address",
              "name": "shortToken",
              "type": "address"
            }
          ],
          "internalType": "struct Market.Props",
          "name": "market",
          "type": "tuple"
        },
        {
          "components": [
            {
              "internalType": "uint256",
              "name": "min",
              "type": "uint256"
            },
            {
              "internalType": "uint256",
              "name": "max",
              "type": "uint256"
            }
          ],
          "internalType": "struct Price.Props",
          "name": "indexTokenPrice",
          "type": "tuple"
        },
        {
          "components": [
            {
              "internalType": "uint256",
              "name": "min",
              "type": "uint256"
            },
            {
              "internalType": "uint256",
              "name": "max",
              "type": "uint256"
            }
          ],
          "internalType": "struct Price.Props",
          "name": "longTokenPrice",
          "type": "tuple"
        },
        {
          "components": [
            {
              "internalType": "uint256",
              "name": "min",
              "type": "uint256"
            },
            {
              "internalType": "uint256",
              "name": "max",
              "type": "uint256"
            }
          ],
          "internalType": "struct Price.Props",
          "name": "shortTokenPrice",
          "type": "tuple"
        },
        {
          "internalType": "bytes32",
          "name": "pnlFactorType",
          "type": "bytes32"
        },
        {
          "internalType": "bool",
          "name": "maximize",
          "type": "bool"
        }
      ],
      "name": "getMarketTokenPrice",
      "outputs": [
        {
          "internalType": "int256",
          "name": "",
          "type": "int256"
        },
        {
          "components": [
            {
              "internalType": "int256",
              "name": "poolValue",
              "type": "int256"
            },
            {
              "internalType": "int256",
              "name": "longPnl",
              "type": "int256"
            },
            {
              "internalType": "int256",
              "name": "shortPnl",
              "type": "int256"
            },
            {
              "internalType": "int256",
              "name": "netPnl",
              "type": "int256"
            },
            {
              "internalType": "uint256",
              "name": "longTokenAmount",
              "type": "uint256"
            },
            {
              "internalType": "uint256",
              "name": "shortTokenAmount",
              "type": "uint256"
            },
            {
              "internalType": "uint256",
              "name": "longTokenUsd",
              "type": "uint256"
            },
            {
              "internalType": "uint256",
              "name": "shortTokenUsd",
              "type": "uint256"
            },
            {
              "internalType": "uint256",
              "name": "totalBorrowingFees",
              "type": "uint256"
            },
            {
              "internalType": "uint256",
              "name": "borrowingFeePoolFactor",
              "type": "uint256"
            },
            {
              "internalType": "uint256",
              "name": "impactPoolAmount",
              "type": "uint256"
            }
          ],
          "internalType": "struct MarketPoolValueInfo.Props",
          "name": "",
          "type": "tuple"
        }
      ],
      "stateMutability": "view",
      "type": "function"
    },
    {
      "inputs": [
        {
          "internalType": "contract DataStore",
          "name": "dataStore",
          "type": "address"
        },
        {
          "internalType": "uint256",
          "name": "start",
          "type": "uint256"
        },
        {
          "internalType": "uint256",
          "name": "end",
          "type": "uint256"
        }
      ],
      "name": "getMarkets",
      "outputs": [
        {
          "components": [
            {
              "internalType": "address",
              "name": "marketToken",
              "type": "address"
            },
            {
              "internalType": "address",
              "name": "indexToken",
              "type": "address"
            },
            {
              "internalType": "address",
              "name": "longToken",
              "type": "address"
            },
            {
              "internalType": "address",
              "name": "shortToken",
              "type": "address"
            }
          ],
          "internalType": "struct Market.Props[]",
          "name": "",
          "type": "tuple[]"
        }
      ],
      "stateMutability": "view",
      "type": "function"
    },
    {
      "inputs": [
        {
          "internalType": "contract DataStore",
          "name": "dataStore",
          "type": "address"
        },
        {
          "components": [
            {
              "internalType": "address",
              "name": "marketToken",
              "type": "address"
            },
            {
              "internalType": "address",
              "name": "indexToken",
              "type": "address"
            },
            {
              "internalType": "address",
              "name": "longToken",
              "type": "address"
            },
            {
              "internalType": "address",
              "name": "shortToken",
              "type": "address"
            }
          ],
          "internalType": "struct Market.Props",
          "name": "market",
          "type": "tuple"
        },
        {
          "components": [
            {
              "internalType": "uint256",
              "name": "min",
              "type": "uint256"
            },
            {
              "internalType": "uint256",
              "name": "max",
              "type": "uint256"
            }
          ],
          "internalType": "struct Price.Props",
          "name": "indexTokenPrice",
          "type": "tuple"
        },
        {
          "internalType": "bool",
          "name": "maximize",
          "type": "bool"
        }
      ],
      "name": "getNetPnl",
      "outputs": [
        {
          "internalType": "int256",
          "name": "",
          "type": "int256"
        }
      ],
      "stateMutability": "view",
      "type": "function"
    },
    {
      "inputs": [
        {
          "internalType": "contract DataStore",
          "name": "dataStore",
          "type": "address"
        },
        {
          "components": [
            {
              "internalType": "address",
              "name": "marketToken",
              "type": "address"
            },
            {
              "internalType": "address",
              "name": "indexToken",
              "type": "address"
            },
            {
              "internalType": "address",
              "name": "longToken",
              "type": "address"
            },
            {
              "internalType": "address",
              "name": "shortToken",
              "type": "address"
            }
          ],
          "internalType": "struct Market.Props",
          "name": "market",
          "type": "tuple"
        },
        {
          "components": [
            {
              "internalType": "uint256",
              "name": "min",
              "type": "uint256"
            },
            {
              "internalType": "uint256",
              "name": "max",
              "type": "uint256"
            }
          ],
          "internalType": "struct Price.Props",
          "name": "indexTokenPrice",
          "type": "tuple"
        },
        {
          "internalType": "bool",
          "name": "isLong",
          "type": "bool"
        },
        {
          "internalType": "bool",
          "name": "maximize",
          "type": "bool"
        }
      ],
      "name": "getOpenInterestWithPnl",
      "outputs": [
        {
          "internalType": "int256",
          "name": "",
          "type": "int256"
        }
      ],
      "stateMutability": "view",
      "type": "function"
    },
    {
      "inputs": [
        {
          "internalType": "contract DataStore",
          "name": "dataStore",
          "type": "address"
        },
        {
          "internalType": "bytes32",
          "name": "key",
          "type": "bytes32"
        }
      ],
      "name": "getOrder",
      "outputs": [
        {
          "components": [
            {
              "components": [
                {
                  "internalType": "address",
                  "name": "account",
                  "type": "address"
                },
                {
                  "internalType": "address",
                  "name": "receiver",
                  "type": "address"
                },
                {
                  "internalType": "address",
                  "name": "callbackContract",
                  "type": "address"
                },
                {
                  "internalType": "address",
                  "name": "market",
                  "type": "address"
                },
                {
                  "internalType": "address",
                  "name": "initialCollateralToken",
                  "type": "address"
                },
                {
                  "internalType": "address[]",
                  "name": "swapPath",
                  "type": "address[]"
                }
              ],
              "internalType": "struct Order.Addresses",
              "name": "addresses",
              "type": "tuple"
            },
            {
              "components": [
                {
                  "internalType": "enum Order.OrderType",
                  "name": "orderType",
                  "type": "uint8"
                },
                {
                  "internalType": "enum Order.DecreasePositionSwapType",
                  "name": "decreasePositionSwapType",
                  "type": "uint8"
                },
                {
                  "internalType": "uint256",
                  "name": "sizeDeltaUsd",
                  "type": "uint256"
                },
                {
                  "internalType": "uint256",
                  "name": "initialCollateralDeltaAmount",
                  "type": "uint256"
                },
                {
                  "internalType": "uint256",
                  "name": "triggerPrice",
                  "type": "uint256"
                },
                {
                  "internalType": "uint256",
                  "name": "acceptablePrice",
                  "type": "uint256"
                },
                {
                  "internalType": "uint256",
                  "name": "executionFee",
                  "type": "uint256"
                },
                {
                  "internalType": "uint256",
                  "name": "callbackGasLimit",
                  "type": "uint256"
                },
                {
                  "internalType": "uint256",
                  "name": "minOutputAmount",
                  "type": "uint256"
                },
                {
                  "internalType": "uint256",
                  "name": "updatedAtBlock",
                  "type": "uint256"
                }
              ],
              "internalType": "struct Order.Numbers",
              "name": "numbers",
              "type": "tuple"
            },
            {
              "components": [
                {
                  "internalType": "bool",
                  "name": "isLong",
                  "type": "bool"
                },
                {
                  "internalType": "bool",
                  "name": "shouldUnwrapNativeToken",
                  "type": "bool"
                },
                {
                  "internalType": "bool",
                  "name": "isFrozen",
                  "type": "bool"
                }
              ],
              "internalType": "struct Order.Flags",
              "name": "flags",
              "type": "tuple"
            }
          ],
          "internalType": "struct Order.Props",
          "name": "",
          "type": "tuple"
        }
      ],
      "stateMutability": "view",
      "type": "function"
    },
    {
      "inputs": [
        {
          "internalType": "contract DataStore",
          "name": "dataStore",
          "type": "address"
        },
        {
          "components": [
            {
              "internalType": "address",
              "name": "marketToken",
              "type": "address"
            },
            {
              "internalType": "address",
              "name": "indexToken",
              "type": "address"
            },
            {
              "internalType": "address",
              "name": "longToken",
              "type": "address"
            },
            {
              "internalType": "address",
              "name": "shortToken",
              "type": "address"
            }
          ],
          "internalType": "struct Market.Props",
          "name": "market",
          "type": "tuple"
        },
        {
          "components": [
            {
              "internalType": "uint256",
              "name": "min",
              "type": "uint256"
            },
            {
              "internalType": "uint256",
              "name": "max",
              "type": "uint256"
            }
          ],
          "internalType": "struct Price.Props",
          "name": "indexTokenPrice",
          "type": "tuple"
        },
        {
          "internalType": "bool",
          "name": "isLong",
          "type": "bool"
        },
        {
          "internalType": "bool",
          "name": "maximize",
          "type": "bool"
        }
      ],
      "name": "getPnl",
      "outputs": [
        {
          "internalType": "int256",
          "name": "",
          "type": "int256"
        }
      ],
      "stateMutability": "view",
      "type": "function"
    },
    {
      "inputs": [
        {
          "internalType": "contract DataStore",
          "name": "dataStore",
          "type": "address"
        },
        {
          "internalType": "address",
          "name": "marketAddress",
          "type": "address"
        },
        {
          "components": [
            {
              "components": [
                {
                  "internalType": "uint256",
                  "name": "min",
                  "type": "uint256"
                },
                {
                  "internalType": "uint256",
                  "name": "max",
                  "type": "uint256"
                }
              ],
              "internalType": "struct Price.Props",
              "name": "indexTokenPrice",
              "type": "tuple"
            },
            {
              "components": [
                {
                  "internalType": "uint256",
                  "name": "min",
                  "type": "uint256"
                },
                {
                  "internalType": "uint256",
                  "name": "max",
                  "type": "uint256"
                }
              ],
              "internalType": "struct Price.Props",
              "name": "longTokenPrice",
              "type": "tuple"
            },
            {
              "components": [
                {
                  "internalType": "uint256",
                  "name": "min",
                  "type": "uint256"
                },
                {
                  "internalType": "uint256",
                  "name": "max",
                  "type": "uint256"
                }
              ],
              "internalType": "struct Price.Props",
              "name": "shortTokenPrice",
              "type": "tuple"
            }
          ],
          "internalType": "struct MarketUtils.MarketPrices",
          "name": "prices",
          "type": "tuple"
        },
        {
          "internalType": "bool",
          "name": "isLong",
          "type": "bool"
        },
        {
          "internalType": "bool",
          "name": "maximize",
          "type": "bool"
        }
      ],
      "name": "getPnlToPoolFactor",
      "outputs": [
        {
          "internalType": "int256",
          "name": "",
          "type": "int256"
        }
      ],
      "stateMutability": "view",
      "type": "function"
    },
    {
      "inputs": [
        {
          "internalType": "contract DataStore",
          "name": "dataStore",
          "type": "address"
        },
        {
          "internalType": "bytes32",
          "name": "key",
          "type": "bytes32"
        }
      ],
      "name": "getPosition",
      "outputs": [
        {
          "components": [
            {
              "components": [
                {
                  "internalType": "address",
                  "name": "account",
                  "type": "address"
                },
                {
                  "internalType": "address",
                  "name": "market",
                  "type": "address"
                },
                {
                  "internalType": "address",
                  "name": "collateralToken",
                  "type": "address"
                }
              ],
              "internalType": "struct Position.Addresses",
              "name": "addresses",
              "type": "tuple"
            },
            {
              "components": [
                {
                  "internalType": "uint256",
                  "name": "sizeInUsd",
                  "type": "uint256"
                },
                {
                  "internalType": "uint256",
                  "name": "sizeInTokens",
                  "type": "uint256"
                },
                {
                  "internalType": "uint256",
                  "name": "collateralAmount",
                  "type": "uint256"
                },
                {
                  "internalType": "uint256",
                  "name": "borrowingFactor",
                  "type": "uint256"
                },
                {
                  "internalType": "int256",
                  "name": "longTokenFundingAmountPerSize",
                  "type": "int256"
                },
                {
                  "internalType": "int256",
                  "name": "shortTokenFundingAmountPerSize",
                  "type": "int256"
                },
                {
                  "internalType": "uint256",
                  "name": "increasedAtBlock",
                  "type": "uint256"
                },
                {
                  "internalType": "uint256",
                  "name": "decreasedAtBlock",
                  "type": "uint256"
                }
              ],
              "internalType": "struct Position.Numbers",
              "name": "numbers",
              "type": "tuple"
            },
            {
              "components": [
                {
                  "internalType": "bool",
                  "name": "isLong",
                  "type": "bool"
                }
              ],
              "internalType": "struct Position.Flags",
              "name": "flags",
              "type": "tuple"
            }
          ],
          "internalType": "struct Position.Props",
          "name": "",
          "type": "tuple"
        }
      ],
      "stateMutability": "view",
      "type": "function"
    },
    {
      "inputs": [
        {
          "internalType": "contract DataStore",
          "name": "dataStore",
          "type": "address"
        },
        {
          "internalType": "contract IReferralStorage",
          "name": "referralStorage",
          "type": "address"
        },
        {
          "internalType": "bytes32",
          "name": "positionKey",
          "type": "bytes32"
        },
        {
          "components": [
            {
              "components": [
                {
                  "internalType": "uint256",
                  "name": "min",
                  "type": "uint256"
                },
                {
                  "internalType": "uint256",
                  "name": "max",
                  "type": "uint256"
                }
              ],
              "internalType": "struct Price.Props",
              "name": "indexTokenPrice",
              "type": "tuple"
            },
            {
              "components": [
                {
                  "internalType": "uint256",
                  "name": "min",
                  "type": "uint256"
                },
                {
                  "internalType": "uint256",
                  "name": "max",
                  "type": "uint256"
                }
              ],
              "internalType": "struct Price.Props",
              "name": "longTokenPrice",
              "type": "tuple"
            },
            {
              "components": [
                {
                  "internalType": "uint256",
                  "name": "min",
                  "type": "uint256"
                },
                {
                  "internalType": "uint256",
                  "name": "max",
                  "type": "uint256"
                }
              ],
              "internalType": "struct Price.Props",
              "name": "shortTokenPrice",
              "type": "tuple"
            }
          ],
          "internalType": "struct MarketUtils.MarketPrices",
          "name": "prices",
          "type": "tuple"
        },
        {
          "internalType": "uint256",
          "name": "sizeDeltaUsd",
          "type": "uint256"
        },
        {
          "internalType": "bool",
          "name": "usePositionSizeAsSizeDeltaUsd",
          "type": "bool"
        }
      ],
      "name": "getPositionInfo",
      "outputs": [
        {
          "components": [
            {
              "components": [
                {
                  "components": [
                    {
                      "internalType": "address",
                      "name": "account",
                      "type": "address"
                    },
                    {
                      "internalType": "address",
                      "name": "market",
                      "type": "address"
                    },
                    {
                      "internalType": "address",
                      "name": "collateralToken",
                      "type": "address"
                    }
                  ],
                  "internalType": "struct Position.Addresses",
                  "name": "addresses",
                  "type": "tuple"
                },
                {
                  "components": [
                    {
                      "internalType": "uint256",
                      "name": "sizeInUsd",
                      "type": "uint256"
                    },
                    {
                      "internalType": "uint256",
                      "name": "sizeInTokens",
                      "type": "uint256"
                    },
                    {
                      "internalType": "uint256",
                      "name": "collateralAmount",
                      "type": "uint256"
                    },
                    {
                      "internalType": "uint256",
                      "name": "borrowingFactor",
                      "type": "uint256"
                    },
                    {
                      "internalType": "int256",
                      "name": "longTokenFundingAmountPerSize",
                      "type": "int256"
                    },
                    {
                      "internalType": "int256",
                      "name": "shortTokenFundingAmountPerSize",
                      "type": "int256"
                    },
                    {
                      "internalType": "uint256",
                      "name": "increasedAtBlock",
                      "type": "uint256"
                    },
                    {
                      "internalType": "uint256",
                      "name": "decreasedAtBlock",
                      "type": "uint256"
                    }
                  ],
                  "internalType": "struct Position.Numbers",
                  "name": "numbers",
                  "type": "tuple"
                },
                {
                  "components": [
                    {
                      "internalType": "bool",
                      "name": "isLong",
                      "type": "bool"
                    }
                  ],
                  "internalType": "struct Position.Flags",
                  "name": "flags",
                  "type": "tuple"
                }
              ],
              "internalType": "struct Position.Props",
              "name": "position",
              "type": "tuple"
            },
            {
              "components": [
                {
                  "components": [
                    {
                      "internalType": "bytes32",
                      "name": "referralCode",
                      "type": "bytes32"
                    },
                    {
                      "internalType": "address",
                      "name": "affiliate",
                      "type": "address"
                    },
                    {
                      "internalType": "address",
                      "name": "trader",
                      "type": "address"
                    },
                    {
                      "internalType": "uint256",
                      "name": "totalRebateFactor",
                      "type": "uint256"
                    },
                    {
                      "internalType": "uint256",
                      "name": "traderDiscountFactor",
                      "type": "uint256"
                    },
                    {
                      "internalType": "uint256",
                      "name": "totalRebateAmount",
                      "type": "uint256"
                    },
                    {
                      "internalType": "uint256",
                      "name": "traderDiscountAmount",
                      "type": "uint256"
                    },
                    {
                      "internalType": "uint256",
                      "name": "affiliateRewardAmount",
                      "type": "uint256"
                    }
                  ],
                  "internalType": "struct PositionPricingUtils.PositionReferralFees",
                  "name": "referral",
                  "type": "tuple"
                },
                {
                  "components": [
                    {
                      "internalType": "uint256",
                      "name": "fundingFeeAmount",
                      "type": "uint256"
                    },
                    {
                      "internalType": "uint256",
                      "name": "claimableLongTokenAmount",
                      "type": "uint256"
                    },
                    {
                      "internalType": "uint256",
                      "name": "claimableShortTokenAmount",
                      "type": "uint256"
                    },
                    {
                      "internalType": "int256",
                      "name": "latestLongTokenFundingAmountPerSize",
                      "type": "int256"
                    },
                    {
                      "internalType": "int256",
                      "name": "latestShortTokenFundingAmountPerSize",
                      "type": "int256"
                    }
                  ],
                  "internalType": "struct PositionPricingUtils.PositionFundingFees",
                  "name": "funding",
                  "type": "tuple"
                },
                {
                  "components": [
                    {
                      "internalType": "uint256",
                      "name": "borrowingFeeUsd",
                      "type": "uint256"
                    },
                    {
                      "internalType": "uint256",
                      "name": "borrowingFeeAmount",
                      "type": "uint256"
                    },
                    {
                      "internalType": "uint256",
                      "name": "borrowingFeeReceiverFactor",
                      "type": "uint256"
                    },
                    {
                      "internalType": "uint256",
                      "name": "borrowingFeeAmountForFeeReceiver",
                      "type": "uint256"
                    }
                  ],
                  "internalType": "struct PositionPricingUtils.PositionBorrowingFees",
                  "name": "borrowing",
                  "type": "tuple"
                },
                {
                  "components": [
                    {
                      "internalType": "uint256",
                      "name": "min",
                      "type": "uint256"
                    },
                    {
                      "internalType": "uint256",
                      "name": "max",
                      "type": "uint256"
                    }
                  ],
                  "internalType": "struct Price.Props",
                  "name": "collateralTokenPrice",
                  "type": "tuple"
                },
                {
                  "internalType": "uint256",
                  "name": "positionFeeFactor",
                  "type": "uint256"
                },
                {
                  "internalType": "uint256",
                  "name": "protocolFeeAmount",
                  "type": "uint256"
                },
                {
                  "internalType": "uint256",
                  "name": "positionFeeReceiverFactor",
                  "type": "uint256"
                },
                {
                  "internalType": "uint256",
                  "name": "feeReceiverAmount",
                  "type": "uint256"
                },
                {
                  "internalType": "uint256",
                  "name": "feeAmountForPool",
                  "type": "uint256"
                },
                {
                  "internalType": "uint256",
                  "name": "positionFeeAmountForPool",
                  "type": "uint256"
                },
                {
                  "internalType": "uint256",
                  "name": "positionFeeAmount",
                  "type": "uint256"
                },
                {
                  "internalType": "uint256",
                  "name": "totalNetCostAmount",
                  "type": "uint256"
                },
                {
                  "internalType": "uint256",
                  "name": "totalNetCostUsd",
                  "type": "uint256"
                }
              ],
              "internalType": "struct PositionPricingUtils.PositionFees",
              "name": "fees",
              "type": "tuple"
            }
          ],
          "internalType": "struct Reader.PositionInfo",
          "name": "",
          "type": "tuple"
        }
      ],
      "stateMutability": "view",
      "type": "function"
    },
    {
      "inputs": [
        {
          "internalType": "contract DataStore",
          "name": "dataStore",
          "type": "address"
        },
        {
          "internalType": "bytes32",
          "name": "key",
          "type": "bytes32"
        }
      ],
      "name": "getWithdrawal",
      "outputs": [
        {
          "components": [
            {
              "components": [
                {
                  "internalType": "address",
                  "name": "account",
                  "type": "address"
                },
                {
                  "internalType": "address",
                  "name": "receiver",
                  "type": "address"
                },
                {
                  "internalType": "address",
                  "name": "callbackContract",
                  "type": "address"
                },
                {
                  "internalType": "address",
                  "name": "market",
                  "type": "address"
                },
                {
                  "internalType": "address[]",
                  "name": "longTokenSwapPath",
                  "type": "address[]"
                },
                {
                  "internalType": "address[]",
                  "name": "shortTokenSwapPath",
                  "type": "address[]"
                }
              ],
              "internalType": "struct Withdrawal.Addresses",
              "name": "addresses",
              "type": "tuple"
            },
            {
              "components": [
                {
                  "internalType": "uint256",
                  "name": "marketTokenAmount",
                  "type": "uint256"
                },
                {
                  "internalType": "uint256",
                  "name": "minLongTokenAmount",
                  "type": "uint256"
                },
                {
                  "internalType": "uint256",
                  "name": "minShortTokenAmount",
                  "type": "uint256"
                },
                {
                  "internalType": "uint256",
                  "name": "updatedAtBlock",
                  "type": "uint256"
                },
                {
                  "internalType": "uint256",
                  "name": "executionFee",
                  "type": "uint256"
                },
                {
                  "internalType": "uint256",
                  "name": "callbackGasLimit",
                  "type": "uint256"
                }
              ],
              "internalType": "struct Withdrawal.Numbers",
              "name": "numbers",
              "type": "tuple"
            },
            {
              "components": [
                {
                  "internalType": "bool",
                  "name": "shouldUnwrapNativeToken",
                  "type": "bool"
                }
              ],
              "internalType": "struct Withdrawal.Flags",
              "name": "flags",
              "type": "tuple"
            }
          ],
          "internalType": "struct Withdrawal.Props",
          "name": "",
          "type": "tuple"
        }
      ],
      "stateMutability": "view",
      "type": "function"
    }
  ],
  "bytecode": "0x608060405234801561001057600080fd5b506155da80620000216000396000f3fe608060405234801561001057600080fd5b50600436106100db5760003560e01c80630571e1fb146100e0578063095ce6c5146101095780630fa8f516146101b25780631485d297146101d257806324c029e0146101f257806342a6f8d31461021357806349651b6a14610233578063714af34b1461025357806377cfb16214610273578063847bb46914610293578063971de27d146102b3578063a0140938146102c6578063bc7b5bba146102d9578063ce3264bf146102f9578063ceeea3bf14610319578063eb77d01914610339578063fd50649d14610359575b600080fd5b6100f36100ee366004613b50565b61036c565b6040516101009190613e3b565b60405180910390f35b61011c610117366004613f20565b610455565b60405161010092919060006101808201905083825282516020830152602083015160408301526040830151606083015260608301516080830152608083015160a083015260a083015160c083015260c083015160e083015260e083015161010081818501528085015191505061012081818501528085015191505061014081818501528085015161016085015250509392505050565b6101c56101c0366004613fad565b610549565b6040516101009190613fd9565b6101e56101e0366004613fad565b6105d5565b604051610100919061402c565b61020561020036600461414e565b61065b565b604051908152602001610100565b6102266102213660046141bf565b610676565b6040516101009190614367565b610246610241366004613fad565b6107c3565b60405161010091906143c9565b6102666102613660046143dc565b610849565b6040516101009190614448565b6102866102813660046141bf565b6108cb565b6040516101009190614456565b6102a66102a1366004614499565b610a0a565b604051610100919061454c565b6102056102c136600461455b565b610b5d565b6102056102d436600461414e565b610bf4565b6102ec6102e73660046145c0565b610c03565b604051610100919061461f565b61030c610307366004614662565b610cf0565b6040516101009190614697565b61032c610327366004613fad565b610e3d565b60405161010091906146d9565b61034c61034736600461475f565b610ec3565b60405161010091906147d1565b6102056103673660046147e0565b611289565b6060600083516001600160401b038111156103895761038961390a565b6040519080825280602002602001820160405280156103c257816020015b6103af61350b565b8152602001906001900390816103a75790505b50905060005b84518110156104495760008582815181106103e5576103e561483b565b602002602001015190506104188888838886815181106104075761040761483b565b602002602001015160006001610ec3565b83838151811061042a5761042a61483b565b602002602001018190525050808061044190614867565b9150506103c8565b5090505b949350505050565b60006104b460405180610160016040528060008152602001600081526020016000815260200160008152602001600081526020016000815260200160008152602001600081526020016000815260200160008152602001600081525090565b604051637d494dc360e01b815273__$e53db83827f4e07ebc418caf7145b8c2d5$__90637d494dc3906104f7908c908c908c908c908c908c908c90600401614880565b61018060405180830381865af4158015610515573d6000803e3d6000fd5b505050506040513d601f19601f8201168201806040525081019061053991906148e2565b9150915097509795505050505050565b610551613530565b60405163fdfc26f360e01b815273__$3d31b232fb363902662fbc281b11ab3357$__9063fdfc26f39061058a9086908690600401614996565b61018060405180830381865af41580156105a8573d6000803e3d6000fd5b505050506040513d601f19601f820116820180604052508101906105cc9190614a09565b90505b92915050565b6105dd6135ba565b60405163fdfc26f360e01b815273__$b63e253a228f0e32f671cc49c7fc32477c$__9063fdfc26f3906106169086908690600401614996565b600060405180830381865af4158015610633573d6000803e3d6000fd5b505050506040513d6000823e601f3d908101601f191682016040526105cc9190810190614bba565b600061066a8686868686611297565b90505b95945050505050565b6060600061068686868686611328565b9050600081516001600160401b038111156106a3576106a361390a565b6040519080825280602002602001820160405280156106dc57816020015b6106c9613644565b8152602001906001900390816106c15790505b50905060005b82518110156107b85760008382815181106106ff576106ff61483b565b6020026020010151905073__$9dcb75ef0bb6c4288f2ccffe7dc492c4eb$__63fdfc26f38a836040518363ffffffff1660e01b8152600401610742929190614996565b600060405180830381865af415801561075f573d6000803e3d6000fd5b505050506040513d6000823e601f3d908101601f191682016040526107879190810190614e01565b8383815181106107995761079961483b565b60200260200101819052505080806107b090614867565b9150506106e2565b509695505050505050565b6107cb613644565b60405163fdfc26f360e01b815273__$9dcb75ef0bb6c4288f2ccffe7dc492c4eb$__9063fdfc26f3906108049086908690600401614996565b600060405180830381865af4158015610821573d6000803e3d6000fd5b505050506040513d6000823e601f3d908101601f191682016040526105cc9190810190614e01565b6108516136fd565b60405163a8d8fff560e01b815273__$ff439aa65a80c9eec648f15db20b189505$__9063a8d8fff59061088a9086908690600401614f1a565b608060405180830381865af41580156108a7573d6000803e3d6000fd5b505050506040513d601f19601f820116820180604052508101906105cc9190614f34565b606060006108db868686866113b4565b9050600081516001600160401b038111156108f8576108f861390a565b60405190808252806020026020018201604052801561093157816020015b61091e613530565b8152602001906001900390816109165790505b50905060005b82518110156107b85760008382815181106109545761095461483b565b6020026020010151905073__$3d31b232fb363902662fbc281b11ab3357$__63fdfc26f38a836040518363ffffffff1660e01b8152600401610997929190614996565b61018060405180830381865af41580156109b5573d6000803e3d6000fd5b505050506040513d601f19601f820116820180604052508101906109d99190614a09565b8383815181106109eb576109eb61483b565b6020026020010181905250508080610a0290614867565b915050610937565b610a12613724565b60405163a8d8fff560e01b815260009073__$ff439aa65a80c9eec648f15db20b189505$__9063a8d8fff590610a4e9088908790600401614f1a565b608060405180830381865af4158015610a6b573d6000803e3d6000fd5b505050506040513d601f19601f82011682018060405250810190610a8f9190614f34565b90506000610aa086838760016113ce565b90506000610ab187848860006113ce565b9050600073__$7d62b333171909e88f9935bee8a07b01ad$__630dc7f3eb89868a6040518463ffffffff1660e01b8152600401610af093929190614fd0565b60c060405180830381865af4158015610b0d573d6000803e3d6000fd5b505050506040513d601f19601f82011682018060405250810190610b319190614ffb565b6040805160808101825295865260208601949094529284019190915250606082015290505b9392505050565b60008073__$ff439aa65a80c9eec648f15db20b189505$__63a8d8fff588886040518363ffffffff1660e01b8152600401610b99929190614f1a565b608060405180830381865af4158015610bb6573d6000803e3d6000fd5b505050506040513d601f19601f82011682018060405250810190610bda9190614f34565b9050610be9878287878761146f565b979650505050505050565b600061066a86868686866114bd565b60606000610c128685856114e8565b9050600081516001600160401b03811115610c2f57610c2f61390a565b604051908082528060200260200182016040528015610c6857816020015b610c55613724565b815260200190600190039081610c4d5790505b50905060005b82518110156107b8576000878281518110610c8b57610c8b61483b565b602002602001015190506000848381518110610ca957610ca961483b565b60200260200101519050610cbe8a8383610a0a565b848481518110610cd057610cd061483b565b602002602001018190525050508080610ce890614867565b915050610c6e565b60606000610cff8585856114e8565b9050600081516001600160401b03811115610d1c57610d1c61390a565b604051908082528060200260200182016040528015610d5557816020015b610d426136fd565b815260200190600190039081610d3a5790505b50905060005b8251811015610e33576000838281518110610d7857610d7861483b565b60200260200101519050600073__$ff439aa65a80c9eec648f15db20b189505$__63a8d8fff58a846040518363ffffffff1660e01b8152600401610dbd929190614f1a565b608060405180830381865af4158015610dda573d6000803e3d6000fd5b505050506040513d601f19601f82011682018060405250810190610dfe9190614f34565b905080848481518110610e1357610e1361483b565b602002602001018190525050508080610e2b90614867565b915050610d5b565b5095945050505050565b610e45613785565b60405163fdfc26f360e01b815273__$3dc24d71d6ebafc0c4ce8ac2f69cd1548a$__9063fdfc26f390610e7e9086908690600401614996565b600060405180830381865af4158015610e9b573d6000803e3d6000fd5b505050506040513d6000823e601f3d908101601f191682016040526105cc919081019061507d565b610ecb61350b565b60405163fdfc26f360e01b815260009073__$3d31b232fb363902662fbc281b11ab3357$__9063fdfc26f390610f07908b908a90600401614996565b61018060405180830381865af4158015610f25573d6000803e3d6000fd5b505050506040513d601f19601f82011682018060405250810190610f499190614a09565b9050600073__$ff439aa65a80c9eec648f15db20b189505$__63a8d8fff58a610f7485516020015190565b6040518363ffffffff1660e01b8152600401610f91929190614f1a565b608060405180830381865af4158015610fae573d6000803e3d6000fd5b505050506040513d601f19601f82011682018060405250810190610fd29190614f34565b90506000610fec610fe584516040015190565b83896115ad565b90508415610ffd5760208301515195505b60006110168b8b8685876040015188606001518d611650565b9050600073__$7d62b333171909e88f9935bee8a07b01ad$__639a33387a8d87878d6040518563ffffffff1660e01b81526004016110579493929190615194565b602060405180830381865af4158015611074573d6000803e3d6000fd5b505050506040513d601f19601f8201168201806040525081019061109891906151ce565b60405163f41d755760e01b815290915073__$7d62b333171909e88f9935bee8a07b01ad$__9063f41d7557906110d6908f90879086906004016151e7565b608060405180830381865af41580156110f3573d6000803e3d6000fd5b505050506040513d601f19601f820116820180604052508101906111179190615212565b8260400181905250600073__$7d62b333171909e88f9935bee8a07b01ad$__630dc7f3eb8e878d6040518463ffffffff1660e01b815260040161115c93929190614fd0565b60c060405180830381865af4158015611179573d6000803e3d6000fd5b505050506040513d601f19601f8201168201806040525081019061119d9190614ffb565b90506000806111ae88604001515190565b156111c4575050604081015160808201516111d1565b5050606081015160a08201515b604080880151606089015191516309a48d9f60e41b815273__$7d62b333171909e88f9935bee8a07b01ad$__92639a48d9f092611217928d929088908890600401615258565b60a060405180830381865af4158015611234573d6000803e3d6000fd5b505050506040513d601f19601f82011682018060405250810190611258919061529a565b8560200181905250604051806040016040528089815260200186815250985050505050505050509695505050505050565b600061066d8585858561179f565b6000806112ad6112a88888876117ce565b611821565b905060006112bc88888761188f565b90508115806112c9575080155b156112d95760009250505061066d565b60006112e68787876118d4565b905060006112f76112a88385615309565b905060008761130f5761130a8286615328565b611319565b6113198583615328565b9b9a5050505050505050505050565b6060846001600160a01b031663f069052a6113428661190d565b6040516001600160e01b031960e084901b16815260048101919091526024810186905260448101859052606401600060405180830381865afa15801561138c573d6000803e3d6000fd5b505050506040513d6000823e601f3d908101601f1916820160405261066d919081019061534f565b6060846001600160a01b031663f069052a6113428661198f565b6000806113e0868660000151856119ca565b905060006113f087878787611a44565b9050806000036114055760009250505061044d565b600061141388888888611a80565b90508060000361143657604051630d5f5aef60e31b815260040160405180910390fd5b600061144789896000015188611ace565b905060006114558483611ae9565b905060006114638285611b48565b90506113198187611c08565b60008061147e87878787611a80565b90508060000361149257600091505061066d565b60006114a5888888600001518888611297565b90506114b18183611c21565b98975050505050505050565b6000806114cb8787866117ce565b905060006114dc8888888888611297565b90506114b18282611c60565b6060836001600160a01b031663e7e4148e604051602001611528906020808252600b908201526a13505492d15517d31254d560aa1b604082015260600190565b60408051601f198184030181529082905280516020909101206001600160e01b031960e084901b16825260048201526024810186905260448101859052606401600060405180830381865afa158015611585573d6000803e3d6000fd5b505050506040513d6000823e601f3d908101601f1916820160405261044d91908101906153d4565b6115b56137c5565b82604001516001600160a01b0316846001600160a01b0316036115dd57506020810151610b56565b82606001516001600160a01b0316846001600160a01b03160361160557506040810151610b56565b82602001516001600160a01b0316846001600160a01b03160361162a57508051610b56565b8251604051635f2394d160e11b8152611647918691600401614f1a565b60405180910390fd5b6116586137df565b60006116758989886116698b515190565b8b516020015188611c76565b905060006116838a89611eda565b90506116908a8883611f6f565b6040830181905260608101516020909101516101208401516116b29190615408565b6116bc919061541b565b61010083015260408201516060015160e0830180516116dc908390615408565b90525060006117038b6116f18b516020015190565b896116fe8d604001515190565b61207e565b905060006117248c6117178c516020015190565b896116fe8e604001515190565b90506117338a898985856120f9565b6020808601829052855160c00151604087015190910151915161014087015191929161175f9190615408565b6117699190615408565b611773919061541b565b610160850181905260208a015161178991615309565b61018085015250919a9950505050505050505050565b6000806117b0868686600187611297565b905060006117c2878787600088611297565b9050610be9818361542e565b6000806117e384604001518560600151612221565b905060006117fc86866000015187604001518786612250565b9050600061181587876000015188606001518887612250565b9050610be98183615408565b60006001600160ff1b0382111561188b5760405162461bcd60e51b815260206004820152602860248201527f53616665436173743a2076616c756520646f65736e27742066697420696e2061604482015267371034b73a191a9b60c11b6064820152608401611647565b5090565b6000806118a68585600001518660400151866122d6565b905060006118be8686600001518760600151876122d6565b90506118ca8183615408565b9695505050505050565b600082156118f557816118e85783516118ee565b83602001515b9050610b56565b8161190457836020015161044d565b50509051919050565b6000604051602001611945906020808252601290820152711050d0d3d5539517d3d491115497d31254d560721b604082015260600190565b60408051601f198184030181528282528051602091820120908301526001600160a01b03841690820152606001604051602081830303815290604052805190602001209050919050565b6000604051602001611945906020808252601590820152741050d0d3d5539517d413d4d2551253d397d31254d5605a1b604082015260600190565b6000836001600160a01b031663bd02d0f56119e585856122f2565b6040518263ffffffff1660e01b8152600401611a0391815260200190565b602060405180830381865afa158015611a20573d6000803e3d6000fd5b505050506040513d601f19601f8201168201806040525081019061044d91906151ce565b6000808215611a75576000611a5a87878661188f565b855160200151909150611a6d9082615309565b91505061066d565b61066a8686856117ce565b60008082611a92578460600151611a98565b84604001515b90506000611aa787878461237c565b9050600084611abb57604086015151611ac2565b6020860151515b90506114b18183615309565b6000836001600160a01b031663bd02d0f56119e5858561241a565b600068327cb2734119d3b7a9601e1b831015611b07575060006105cf565b68327cb2734119d3b7a9601e1b8203611b215750816105cf565b6000611b3d611b2f85612459565b611b3885612459565b61246a565b905061044d816124ac565b600082600003611b5a575060006105cf565b600080611b738568327cb2734119d3b7a9601e1b6124bd565b915091508115611b9057611b87848261546c565b925050506105cf565b68327cb2734119d3b7a9601e1b611bae66038d7ea4c680008761546c565b611bb89190615309565b90506b1d6329f1c35ca4bfabb9f56160281b841115611bec57611be266038d7ea4c680008561546c565b611b87908261546c565b66038d7ea4c68000611bfe858361546c565b61066d9190615309565b60006105cc838368327cb2734119d3b7a9601e1b612508565b600080611c36611c3085612595565b84611b48565b905060008413611c5757611c4981611821565b611c5290615480565b61044d565b61044d81611821565b600081611c6c84611821565b6105cc919061542e565b611c7e6137df565b611c866137df565b6060810186905280516001600160a01b038616604090910152611ca987866125a8565b8451608081019190915260608101919091526001600160a01b03918216602082015291909152881663bd02d0f5611cdf8661281a565b6040518263ffffffff1660e01b8152600401611cfd91815260200190565b602060405180830381865afa158015611d1a573d6000803e3d6000fd5b505050506040513d601f19601f82011682018060405250810190611d3e91906151ce565b60808201819052865190611d53908590611c08565b611d5d919061546c565b6101408201819052815160600151611d759190611c08565b815160a090810191909152815190810151608090910151611d969190611c08565b815160c09081019190915281519081015160a090910151611db7919061541b565b815160e00152805160a00151610140820151611dd3919061541b565b60a08201526040516001600160a01b0389169063bd02d0f590611e29906020016020808252601c908201527b2827a9a4aa24a7a72fa322a2afa922a1a2a4ab22a92fa320a1aa27a960211b604082015260600190565b604051602081830303815290604052805190602001206040518263ffffffff1660e01b8152600401611e5d91815260200190565b602060405180830381865afa158015611e7a573d6000803e3d6000fd5b505050506040513d601f19601f82011682018060405250810190611e9e91906151ce565b60c0820181905260a0820151611eb391611c08565b60e0820181905260a0820151611ec9919061541b565b610120820152979650505050505050565b600080611ef884611eed85516020015190565b604086015151612853565b905080611f0a84602001516060015190565b1115611f3d57602083015160600151604051634cd96ac160e11b8152600481019190915260248101829052604401611647565b6000611f4e84602001516060015190565b611f58908361541b565b905061066d611f6985602001515190565b82611c08565b611f7761389b565b611f7f61389b565b8281528351611f8e908461546c565b816020018181525050846001600160a01b031663bd02d0f5604051602001611fe7906020808252601d908201527f424f52524f57494e475f4645455f52454345495645525f464143544f52000000604082015260600190565b604051602081830303815290604052805190602001206040518263ffffffff1660e01b815260040161201b91815260200190565b602060405180830381865afa158015612038573d6000803e3d6000fd5b505050506040513d601f19601f8201168201806040525081019061205c91906151ce565b60408201819052602082015161207191611c08565b6060820152949350505050565b6000846001600160a01b031663dc97d96261209a86868661286e565b6040518263ffffffff1660e01b81526004016120b891815260200190565b602060405180830381865afa1580156120d5573d6000803e3d6000fd5b505050506040513d601f19601f8201168201806040525081019061066d91906151ce565b6121016138c3565b6121096138c3565b606081018490526080810183905260006121378561212c8a602001516080015190565b60208b01515161290a565b9050600061215d83608001516121528b6020015160a0015190565b60208c01515161290a565b9050600082121561217f5761217961217483615480565b6129a2565b60208401525b600081121561219a5761219461217482615480565b60408401525b876001600160a01b03166121b08a516040015190565b6001600160a01b03161480156121c65750600082135b156121d7576121d4826129a2565b83525b866001600160a01b03166121ed8a516040015190565b6001600160a01b03161480156122035750600081135b1561221457612211816129a2565b83525b5090979650505050505050565b6000816001600160a01b0316836001600160a01b031614612243576001612246565b60025b60ff169392505050565b600081866001600160a01b031663bd02d0f561226d8888886129f4565b6040518263ffffffff1660e01b815260040161228b91815260200190565b602060405180830381865afa1580156122a8573d6000803e3d6000fd5b505050506040513d601f19601f820116820180604052508101906122cc91906151ce565b61066a919061546c565b6000846001600160a01b031663bd02d0f561209a868686612a27565b60006040516020016123289060208082526010908201526f2127a92927aba4a723afa320a1aa27a960811b604082015260600190565b60408051601f198184030181528282528051602091820120908301526001600160a01b0385169082015282151560608201526080015b60405160208183030381529060405280519060200120905092915050565b60008061239184604001518560600151612221565b905080856001600160a01b031663bd02d0f56123b1876000015187612a64565b6040518263ffffffff1660e01b81526004016123cf91815260200190565b602060405180830381865afa1580156123ec573d6000803e3d6000fd5b505050506040513d601f19601f8201168201806040525081019061241091906151ce565b61066d919061546c565b6000604051602001612328906020808252601990820152782127a92927aba4a723afa2ac2827a722a72a2fa320a1aa27a960391b604082015260600190565b60006105cf64e8d4a510008361546c565b60008260000361249257811561248157600061248b565b670de0b6b3a76400005b90506105cf565b6105cc6124a76124a185612ad2565b84612b88565b612b94565b60006105cf64e8d4a5100083615309565b600080836000036124d45750600190506000612501565b838302838582816124e7576124e7615456565b04146124fa576000809250925050612501565b6001925090505b9250929050565b600080600061251786866124bd565b9150915081156125345761252b848261546c565b92505050610b56565b600080868811612545578688612548565b87875b91509150600061255f8766038d7ea4c68000612bda565b9050808261257466038d7ea4c680008661546c565b61257e9190615309565b612588919061546c565b9998505050505050505050565b60008082121561188b57816000036105cf565b6000806000806000866001600160a01b03166385725b58876040518263ffffffff1660e01b81526004016125dc919061549c565b602060405180830381865afa1580156125f9573d6000803e3d6000fd5b505050506040513d601f19601f8201168201806040525081019061261d91906151ce565b90506000808083156127f2576040516306459e2360e51b8152600481018590526001600160a01b038b169063c8b3c46090602401602060405180830381865afa15801561266e573d6000803e3d6000fd5b505050506040513d601f19601f8201168201806040525081019061269291906154b0565b925060008a6001600160a01b0316631582a018856040518263ffffffff1660e01b81526004016126c2919061549c565b602060405180830381865afa1580156126df573d6000803e3d6000fd5b505050506040513d601f19601f8201168201806040525081019061270391906151ce565b60405163039af9eb60e01b8152600481018290529091506001600160a01b038c169063039af9eb906024016040805180830381865afa15801561274a573d6000803e3d6000fd5b505050506040513d601f19601f8201168201806040525081019061276e91906154cd565b60405163071a6a7960e41b815291945092506000906001600160a01b038d16906371a6a790906127a290889060040161549c565b602060405180830381865afa1580156127bf573d6000803e3d6000fd5b505050506040513d601f19601f820116820180604052508101906127e391906151ce565b905080156127ef578092505b50505b83836127fd84612bfd565b61280684612bfd565b929d919c509a509098509650505050505050565b6000604051602001611945906020808252601390820152722827a9a4aa24a7a72fa322a2afa320a1aa27a960691b604082015260600190565b6000836001600160a01b031663bd02d0f56119e58585612c22565b60006040516020016128ab9060208082526017908201527646554e44494e475f414d4f554e545f5045525f53495a4560481b604082015260600190565b60408051601f198184030181528282528051602091820120908301526001600160a01b038087169183019190915284166060820152821515608082015260a0016040516020818303038152906040528051906020012090509392505050565b6000806129178486615328565b9050600061292c66038d7ea4c680008561546c565b905060008261293a83611821565b61294491906154f1565b90508060000361295a5760009350505050610b56565b600081121561298c5761297868327cb2734119d3b7a9601e1b611821565b6129829082615576565b9350505050610b56565b610be98168327cb2734119d3b7a9601e1b612c63565b60008082121561188b5760405162461bcd60e51b815260206004820181905260248201527f53616665436173743a2076616c7565206d75737420626520706f7369746976656044820152606401611647565b60006040516020016128ab906020808252600d908201526c13d4115397d2539511549154d5609a1b604082015260600190565b60006040516020016128ab906020808252601790820152764f50454e5f494e5445524553545f494e5f544f4b454e5360481b604082015260600190565b6000604051602001612a95906020808252600b908201526a1413d3d317d05353d5539560aa1b604082015260600190565b60408051601f198184030181528282528051602091820120908301526001600160a01b03808616918301919091528316606082015260800161235e565b6000670de0b6b3a7640000821015612b0057604051633621413760e21b815260048101839052602401611647565b6000612b15670de0b6b3a76400008404612cd0565b670de0b6b3a764000081029250905082811c670de0b6b3a763ffff198101612b3e575050919050565b6706f05b59d3b200005b8015612b8057670de0b6b3a7640000828002049150671bc16d674ec800008210612b78579283019260019190911c905b60011c612b48565b505050919050565b60006105cc8383612db3565b6000680a688906bd8b0000008210612bc257604051634a4f26f160e01b815260048101839052602401611647565b670de0b6b3a7640000604083901b04610b5681612e79565b6000816001612be98286615408565b612bf3919061541b565b6105cc919061546c565b6000612710612c1868327cb2734119d3b7a9601e1b84615309565b6105cf919061546c565b6000604051602001612328906020808252601b908201527a21aaa6aaa620aa24ab22afa127a92927aba4a723afa320a1aa27a960291b604082015260600190565b600080831215612c9e57612c7682611821565b612c7f83611821565b612c899085615328565b612c9490600161542e565b61248b9190615576565b612ca782611821565b6001612cb284611821565b612cbc908661542e565b612cc69190615328565b6105cc9190615576565b6000600160801b8210612cf057608091821c91612ced9082615408565b90505b600160401b8210612d0e57604091821c91612d0b9082615408565b90505b600160201b8210612d2c57602091821c91612d299082615408565b90505b620100008210612d4957601091821c91612d469082615408565b90505b6101008210612d6557600891821c91612d629082615408565b90505b60108210612d8057600491821c91612d7d9082615408565b90505b60048210612d9b57600291821c91612d989082615408565b90505b60028210612dae576105cf600182615408565b919050565b60008080600019848609848602925082811083820303915050670de0b6b3a76400008110612df75760405163698d9a0160e11b815260048101829052602401611647565b600080670de0b6b3a764000086880991506706f05b59d3b1ffff8211905082600003612e355780670de0b6b3a76400008504019450505050506105cf565b620400008285030493909111909103600160ee1b02919091177faccb18165bd6fe31ae1cf318dc5b51eee0e1ba569b88cd74c1773b91fac106690201905092915050565b600160bf1b6001603f1b821615612e995768016a09e667f3bcc9090260401c5b6001603e1b821615612eb4576801306fe0a31b7152df0260401c5b6001603d1b821615612ecf576801172b83c7d517adce0260401c5b6001603c1b821615612eea5768010b5586cf9890f62a0260401c5b6001603b1b821615612f05576801059b0d31585743ae0260401c5b6001603a1b821615612f2057680102c9a3e778060ee70260401c5b600160391b821615612f3b5768010163da9fb33356d80260401c5b600160381b821615612f5657680100b1afa5abcbed610260401c5b600160371b821615612f715768010058c86da1c09ea20260401c5b600160361b821615612f8c576801002c605e2e8cec500260401c5b600160351b821615612fa757680100162f3904051fa10260401c5b600160341b821615612fc2576801000b175effdc76ba0260401c5b600160331b821615612fdd57680100058ba01fb9f96d0260401c5b600160321b821615612ff85768010002c5cc37da94920260401c5b600160311b821615613013576801000162e525ee05470260401c5b600160301b82161561302e5768010000b17255775c040260401c5b6001602f1b821615613049576801000058b91b5bc9ae0260401c5b6001602e1b82161561306457680100002c5c89d5ec6d0260401c5b6001602d1b82161561307f5768010000162e43f4f8310260401c5b6001602c1b82161561309a57680100000b1721bcfc9a0260401c5b6001602b1b8216156130b55768010000058b90cf1e6e0260401c5b6001602a1b8216156130d0576801000002c5c863b73f0260401c5b600160291b8216156130eb57680100000162e430e5a20260401c5b600160281b821615613106576801000000b1721835510260401c5b600160271b82161561312157680100000058b90c0b490260401c5b600160261b82161561313c5768010000002c5c8601cc0260401c5b600160251b821615613157576801000000162e42fff00260401c5b600160241b8216156131725768010000000b17217fbb0260401c5b600160231b82161561318d576801000000058b90bfce0260401c5b600160221b8216156131a857680100000002c5c85fe30260401c5b600160211b8216156131c35768010000000162e42ff10260401c5b600160201b8216156131de57680100000000b17217f80260401c5b63800000008216156131f95768010000000058b90bfc0260401c5b6340000000821615613214576801000000002c5c85fe0260401c5b632000000082161561322f57680100000000162e42ff0260401c5b631000000082161561324a576801000000000b17217f0260401c5b630800000082161561326557680100000000058b90c00260401c5b63040000008216156132805768010000000002c5c8600260401c5b630200000082161561329b576801000000000162e4300260401c5b63010000008216156132b65768010000000000b172180260401c5b628000008216156132d0576801000000000058b90c0260401c5b624000008216156132ea57680100000000002c5c860260401c5b622000008216156133045768010000000000162e430260401c5b6210000082161561331e57680100000000000b17210260401c5b620800008216156133385768010000000000058b910260401c5b62040000821615613352576801000000000002c5c80260401c5b6202000082161561336c57680100000000000162e40260401c5b620100008216156133855761b172600160401b010260401c5b61800082161561339d576158b9600160401b010260401c5b6140008216156133b557612c5d600160401b010260401c5b6120008216156133cd5761162e600160401b010260401c5b6110008216156133e557610b17600160401b010260401c5b6108008216156133fd5761058c600160401b010260401c5b610400821615613415576102c6600160401b010260401c5b61020082161561342d57610163600160401b010260401c5b6101008216156134445760b1600160401b010260401c5b608082161561345a576059600160401b010260401c5b604082161561347057602c600160401b010260401c5b6020821615613486576016600160401b010260401c5b601082161561349c57600b600160401b010260401c5b60088216156134b2576006600160401b010260401c5b60048216156134c8576003600160401b010260401c5b60028216156134de576001600160401b010260401c5b60018216156134f4576001600160401b010260401c5b670de0b6b3a76400000260409190911c60bf031c90565b604051806040016040528061351e613530565b815260200161352b6137df565b905290565b6040805160c081019091526000606082018181526080830182905260a0830191909152819081526020016135a260405180610100016040528060008152602001600081526020016000815260200160008152602001600081526020016000815260200160008152602001600081525090565b81526040805160208181019092526000815291015290565b604080516101608101909152600060608083018281526080840183905260a0840183905260c0840183905260e08401839052610100840192909252610120830181905261014083015281905b81526020016135a26040518060c001604052806000815260200160008152602001600081526020016000815260200160008152602001600081525090565b604080516101208101909152600060608083018281526080840183905260a0840183905260c0840183905260e08401929092526101008301528152602081016136da60408051610140810190915280600081526020016000815260200160008152602001600081526020016000815260200160008152602001600081526020016000815260200160008152602001600081525090565b815260408051606081018252600080825260208281018290529282015291015290565b60408051608081018252600080825260208201819052918101829052606081019190915290565b60405180608001604052806137376136fd565b8152602001600081526020016000815260200161352b6040518060c0016040528060001515815260200160008152602001600081526020016000815260200160008152602001600081525090565b604080516101208101909152600060608083018281526080840183905260a0840183905260c084019290925260e083018190526101008301528190613606565b604051806040016040528060008152602001600081525090565b604080516102a0810190915260006101a082018181526101c083018290526101e08301829052610200830182905261022083018290526102408301829052610260830182905261028083019190915281526020810161383c6138c3565b815260200161384961389b565b81526020016138566137c5565b81526020016000815260200160008152602001600081526020016000815260200160008152602001600081526020016000815260200160008152602001600081525090565b6040518060800160405280600081526020016000815260200160008152602001600081525090565b6040518060a0016040528060008152602001600081526020016000815260200160008152602001600081525090565b6001600160a01b038116811461390757600080fd5b50565b634e487b7160e01b600052604160045260246000fd5b604051606081016001600160401b03811182821017156139425761394261390a565b60405290565b60405161016081016001600160401b03811182821017156139425761394261390a565b60405161010081016001600160401b03811182821017156139425761394261390a565b60405160c081016001600160401b03811182821017156139425761394261390a565b60405161014081016001600160401b03811182821017156139425761394261390a565b604051608081016001600160401b03811182821017156139425761394261390a565b604051601f8201601f191681016001600160401b0381118282101715613a1d57613a1d61390a565b604052919050565b60006001600160401b03821115613a3e57613a3e61390a565b5060051b60200190565b600060408284031215613a5a57600080fd5b604080519081016001600160401b0381118282101715613a7c57613a7c61390a565b604052823581526020928301359281019290925250919050565b600060c08284031215613aa857600080fd5b613ab0613920565b9050613abc8383613a48565b8152613acb8360408401613a48565b6020820152613add8360808401613a48565b604082015292915050565b600082601f830112613af957600080fd5b81356020613b0e613b0983613a25565b6139f5565b82815260c09283028501820192828201919087851115613b2d57600080fd5b8387015b8581101561221457613b438982613a96565b8452928401928101613b31565b60008060008060808587031215613b6657600080fd5b8435613b71816138f2565b9350602085810135613b82816138f2565b935060408601356001600160401b0380821115613b9e57600080fd5b818801915088601f830112613bb257600080fd5b8135613bc0613b0982613a25565b81815260059190911b8301840190848101908b831115613bdf57600080fd5b938501935b82851015613bfd57843582529385019390850190613be4565b965050506060880135925080831115613c1557600080fd5b5050613c2387828801613ae8565b91505092959194509250565b6001600160a01b03169052565b805160018060a01b03808251168452806020830151166020850152806040830151166040850152505060208101518051606084015260208101516080840152604081015160a0840152606081015160c0840152608081015160e084015260a081015161010084015260c081015161012084015260e08101516101408401525060408101515115156101608301525050565b80518252602090810151910152565b613ce7828251613c3c565b6020818101518051805161018086810191909152928101516001600160a01b039081166101a08701526040820151166101c086015260608101516101e0860152608081015161020086015260a081015161022086015260c081015161024086015260e00151610260850152906020828101518051610280870152908101516102a086015260408101516102c086015260608101516102e086015260808101516103008601525060408281015180516103208701526020810151610340870152908101516103608601526060810151610380860152506060820151613dcf6103a0860182613ccd565b5060808201516103e085015260a082015161040085015260c082015161042085015260e08201516104408501526101008201516104608501526101208201516104808501526101408201516104a08501526101608201516104c085015201516104e09092019190915250565b6020808252825182820181905260009190848201906040850190845b81811015613e7e57613e6a838551613cdc565b928401926105009290920191600101613e57565b50909695505050505050565b600060808284031215613e9c57600080fd5b604051608081016001600160401b0381118282101715613ebe57613ebe61390a565b6040529050808235613ecf816138f2565b81526020830135613edf816138f2565b60208201526040830135613ef2816138f2565b60408201526060830135613f05816138f2565b6060919091015292915050565b801515811461390757600080fd5b60008060008060008060006101a0888a031215613f3c57600080fd5b8735613f47816138f2565b9650613f568960208a01613e8a565b9550613f658960a08a01613a48565b9450613f748960e08a01613a48565b9350613f84896101208a01613a48565b92506101608801359150610180880135613f9d81613f12565b8091505092959891949750929550565b60008060408385031215613fc057600080fd5b8235613fcb816138f2565b946020939093013593505050565b61018081016105cf8284613c3c565b600081518084526020808501945080840160005b838110156140215781516001600160a01b031687529582019590820190600101613ffc565b509495945050505050565b602081526000825161010080602085015260018060a01b038251166101208501526020820151614060610140860182613c2f565b506040820151614074610160860182613c2f565b506060820151614088610180860182613c2f565b50608082015161409c6101a0860182613c2f565b5060a08201516140b06101c0860182613c2f565b5060c0820151816101e08601526140cb610220860182613fe8565b905060e0830151925061011f19858203016102008601526140ec8184613fe8565b92505060208501516141366040860182805182526020810151602083015260408101516040830152606081015160608301526080810151608083015260a081015160a08301525050565b50604085015180511515858301525090949350505050565b6000806000806000610120868803121561416757600080fd5b8535614172816138f2565b94506141818760208801613e8a565b93506141908760a08801613a48565b925060e08601356141a081613f12565b91506101008601356141b181613f12565b809150509295509295909350565b600080600080608085870312156141d557600080fd5b84356141e0816138f2565b935060208501356141f0816138f2565b93969395505050506040820135916060013590565b634e487b7160e01b600052602160045260246000fd5b6008811061422b5761422b614205565b9052565b6003811061422b5761422b614205565b61424a82825161421b565b602081015161425c602084018261422f565b5060408101516040830152606081015160608301526080810151608083015260a081015160a083015260c081015160c083015260e081015160e08301526101008082015181840152506101208082015181840152505050565b80516101c080845281516001600160a01b0390811691850191909152602082015181166101e0850152604082015181166102008501526060820151811661022085015260808201511661024084015260a0015160c0610260840152600090614321610280850182613fe8565b90506020830151614335602086018261423f565b5060408381015180511515610160870152602081015115156101808701529081015115156101a0860152509392505050565b6000602080830181845280855180835260408601915060408160051b870101925083870160005b828110156143bc57603f198886030184526143aa8583516142b5565b9450928501929085019060010161438e565b5092979650505050505050565b6020815260006105cc60208301846142b5565b600080604083850312156143ef57600080fd5b82356143fa816138f2565b9150602083013561440a816138f2565b809150509250929050565b80516001600160a01b03908116835260208083015182169084015260408083015182169084015260609182015116910152565b608081016105cf8284614415565b6020808252825182820181905260009190848201906040850190845b81811015613e7e57614485838551613c3c565b928401926101809290920191600101614472565b600080600061010084860312156144af57600080fd5b83356144ba816138f2565b92506144c98560208601613a96565b915060e08401356144d9816138f2565b809150509250925092565b6144ef828251614415565b60208101516080830152604081015160a083015260608101518051151560c0840152602081015160e084015260408101516101008401526060810151610120840152608081015161014084015260a0810151610160840152505050565b61018081016105cf82846144e4565b6000806000806000610140868803121561457457600080fd5b853561457f816138f2565b9450602086013561458f816138f2565b935061459e8760408801613a96565b92506101008601356145af81613f12565b91506101208601356141b181613f12565b600080600080608085870312156145d657600080fd5b84356145e1816138f2565b935060208501356001600160401b038111156145fc57600080fd5b61460887828801613ae8565b949794965050505060408301359260600135919050565b6020808252825182820181905260009190848201906040850190845b81811015613e7e5761464e8385516144e4565b92840192610180929092019160010161463b565b60008060006060848603121561467757600080fd5b8335614682816138f2565b95602085013595506040909401359392505050565b6020808252825182820181905260009190848201906040850190845b81811015613e7e576146c6838551614415565b92840192608092909201916001016146b3565b602081526000825161010080602085015260018060a01b038083511661012086015280602084015116610140860152806040840151166101608601528060608401511661018086015250608082015160c06101a086015261473e6101e0860182613fe8565b905060a0830151925061011f19858203016101c08601526140ec8184613fe8565b600080600080600080610160878903121561477957600080fd5b8635614784816138f2565b95506020870135614794816138f2565b9450604087013593506147aa8860608901613a96565b925061012087013591506101408701356147c381613f12565b809150509295509295509295565b61050081016105cf8284613cdc565b60008060008061010085870312156147f757600080fd5b8435614802816138f2565b93506148118660208701613e8a565b92506148208660a08701613a48565b915060e085013561483081613f12565b939692955090935050565b634e487b7160e01b600052603260045260246000fd5b634e487b7160e01b600052601160045260246000fd5b60006001820161487957614879614851565b5060010190565b6001600160a01b03881681526101a0810161489e6020830189614415565b6148ab60a0830188613ccd565b6148b860e0830187613ccd565b6148c6610120830186613ccd565b8361016083015282151561018083015298975050505050505050565b6000808284036101808112156148f757600080fd5b8351925061016080601f198301121561490f57600080fd5b614917613948565b91506020850151825260408501516020830152606085015160408301526080850151606083015260a0850151608083015260c085015160a083015260e085015160c08301526101008086015160e08401526101208087015182850152610140915081870151818501525081860151818401525050809150509250929050565b6001600160a01b03929092168252602082015260400190565b8051612dae816138f2565b6000602082840312156149cc57600080fd5b604051602081016001600160401b03811182821017156149ee576149ee61390a565b80604052508091508251614a0181613f12565b905292915050565b6000818303610180811215614a1d57600080fd5b614a25613920565b6060821215614a3357600080fd5b614a3b613920565b8451614a46816138f2565b81526020850151614a56816138f2565b60208201526040850151614a69816138f2565b60408201528152610100605f198301811315614a8457600080fd5b614a8c61396b565b9250606085015183526080850151602084015260a0850151604084015260c0850151606084015260e085015160808401528085015160a08401525061012084015160c083015261014084015160e0830152816020820152614af18561016086016149ba565b6040820152949350505050565b600082601f830112614b0f57600080fd5b81516020614b1f613b0983613a25565b82815260059290921b84018101918181019086841115614b3e57600080fd5b8286015b848110156107b8578051614b55816138f2565b8352918301918301614b42565b600060c08284031215614b7457600080fd5b614b7c61398e565b9050815181526020820151602082015260408201516040820152606082015160608201526080820151608082015260a082015160a082015292915050565b600060208284031215614bcc57600080fd5b81516001600160401b0380821115614be357600080fd5b8184019150610100808387031215614bfa57600080fd5b614c02613920565b835183811115614c1157600080fd5b8401808803831315614c2257600080fd5b614c2a61396b565b9250614c35816149af565b8352614c43602082016149af565b6020840152614c54604082016149af565b6040840152614c65606082016149af565b6060840152614c76608082016149af565b6080840152614c8760a082016149af565b60a084015260c081015184811115614c9e57600080fd5b614caa89828401614afe565b60c08501525060e081015184811115614cc257600080fd5b614cce89828401614afe565b60e08501525050818152614ce58760208601614b62565b6020820152614cf78760e086016149ba565b60408201529695505050505050565b805160088110612dae57600080fd5b805160038110612dae57600080fd5b60006101408284031215614d3757600080fd5b614d3f6139b0565b9050614d4a82614d06565b8152614d5860208301614d15565b602082015260408201516040820152606082015160608201526080820151608082015260a082015160a082015260c082015160c082015260e082015160e082015261010080830151818301525061012080830151818301525092915050565b600060608284031215614dc957600080fd5b614dd1613920565b90508151614dde81613f12565b81526020820151614dee81613f12565b60208201526040820151613add81613f12565b600060208284031215614e1357600080fd5b81516001600160401b0380821115614e2a57600080fd5b908301906101c08286031215614e3f57600080fd5b614e47613920565b825182811115614e5657600080fd5b830160c08188031215614e6857600080fd5b614e7061398e565b8151614e7b816138f2565b81526020820151614e8b816138f2565b60208201526040820151614e9e816138f2565b6040820152614eaf606083016149af565b6060820152614ec0608083016149af565b608082015260a082015184811115614ed757600080fd5b614ee389828501614afe565b60a083015250825250614ef98660208501614d24565b6020820152614f0c866101608501614db7565b604082015295945050505050565b6001600160a01b0392831681529116602082015260400190565b600060808284031215614f4657600080fd5b614f4e6139d3565b8251614f59816138f2565b81526020830151614f69816138f2565b60208201526040830151614f7c816138f2565b60408201526060830151614f8f816138f2565b60608201529392505050565b614fa6828251613ccd565b6020810151614fb86040840182613ccd565b506040810151614fcb6080840182613ccd565b505050565b6001600160a01b03841681526101608101614fee6020830185614415565b61044d60a0830184614f9b565b600060c0828403121561500d57600080fd5b60405160c081016001600160401b038111828210171561502f5761502f61390a565b604052825161503d81613f12565b808252506020830151602082015260408301516040820152606083015160608201526080830151608082015260a083015160a08201528091505092915050565b60006020828403121561508f57600080fd5b81516001600160401b03808211156150a657600080fd5b9083019061010082860312156150bb57600080fd5b6150c3613920565b8251828111156150d257600080fd5b830160c081880312156150e457600080fd5b6150ec61398e565b6150f5826149af565b8152615103602083016149af565b6020820152615114604083016149af565b6040820152615125606083016149af565b606082015260808201518481111561513c57600080fd5b61514889828501614afe565b60808301525060a08201518481111561516057600080fd5b61516c89828501614afe565b60a0830152508252506151828660208501614b62565b6020820152614f0c8660e085016149ba565b6001600160a01b03851681526102e081016151b26020830186613c3c565b6151c06101a0830185614415565b61066d610220830184614f9b565b6000602082840312156151e057600080fd5b5051919050565b6001600160a01b0384168152608081016152046020830185613ccd565b826060830152949350505050565b60006080828403121561522457600080fd5b61522c6139d3565b825181526020830151602082015260408301516040820152606083015160608201528091505092915050565b61020081016152678288613c3c565b6001600160a01b03958616610180830152939094166101a08501526101c08401919091526101e090920191909152919050565b600060a082840312156152ac57600080fd5b60405160a081016001600160401b03811182821017156152ce576152ce61390a565b806040525082518152602083015160208201526040830151604082015260608301516060820152608083015160808201528091505092915050565b600081600019048311821515161561532357615323614851565b500290565b818103600083128015838313168383128216171561534857615348614851565b5092915050565b6000602080838503121561536257600080fd5b82516001600160401b0381111561537857600080fd5b8301601f8101851361538957600080fd5b8051615397613b0982613a25565b81815260059190911b820183019083810190878311156153b657600080fd5b928401925b82841015610be9578351825292840192908401906153bb565b6000602082840312156153e657600080fd5b81516001600160401b038111156153fc57600080fd5b61044d84828501614afe565b808201808211156105cf576105cf614851565b818103818111156105cf576105cf614851565b808201828112600083128015821682158216171561544e5761544e614851565b505092915050565b634e487b7160e01b600052601260045260246000fd5b60008261547b5761547b615456565b500490565b6000600160ff1b820161549557615495614851565b5060000390565b6001600160a01b0391909116815260200190565b6000602082840312156154c257600080fd5b8151610b56816138f2565b600080604083850312156154e057600080fd5b505080516020909101519092909150565b60006001600160ff1b038184138284138082168684048611161561551757615517614851565b600160ff1b600087128281168783058912161561553657615536614851565b6000871292508782058712848416161561555257615552614851565b8785058712818416161561556857615568614851565b505050929093029392505050565b60008261558557615585615456565b600160ff1b82146000198414161561559f5761559f614851565b50059056fea264697066735822122019346abc7113ac52ef7e84981c4e213d11c085e2f5f26cfcf18d56cea39baf5f64736f6c63430008100033",
  "linkReferences": {
    "contracts/deposit/DepositStoreUtils.sol": {
      "DepositStoreUtils": [
        {
          "length": 20,
          "start": 1549
        }
      ]
    },
    "contracts/market/MarketStoreUtils.sol": {
      "MarketStoreUtils": [
        {
          "length": 20,
          "start": 2177
        },
        {
          "length": 20,
          "start": 2629
        },
        {
          "length": 20,
          "start": 2947
        },
        {
          "length": 20,
          "start": 3495
        },
        {
          "length": 20,
          "start": 3952
        }
      ]
    },
    "contracts/market/MarketUtils.sol": {
      "MarketUtils": [
        {
          "length": 20,
          "start": 1252
        }
      ]
    },
    "contracts/order/OrderStoreUtils.sol": {
      "OrderStoreUtils": [
        {
          "length": 20,
          "start": 1836
        },
        {
          "length": 20,
          "start": 2043
        }
      ]
    },
    "contracts/position/PositionStoreUtils.sol": {
      "PositionStoreUtils": [
        {
          "length": 20,
          "start": 1409
        },
        {
          "length": 20,
          "start": 2433
        },
        {
          "length": 20,
          "start": 3838
        }
      ]
    },
    "contracts/reader/ReaderUtils.sol": {
      "ReaderUtils": [
        {
          "length": 20,
          "start": 2776
        },
        {
          "length": 20,
          "start": 4157
        },
        {
          "length": 20,
          "start": 4299
        },
        {
          "length": 20,
          "start": 4420
        },
        {
          "length": 20,
          "start": 4619
        }
      ]
    },
    "contracts/withdrawal/WithdrawalStoreUtils.sol": {
      "WithdrawalStoreUtils": [
        {
          "length": 20,
          "start": 3701
        }
      ]
    }
  },
  "deployedLinkReferences": {
    "contracts/deposit/DepositStoreUtils.sol": {
      "DepositStoreUtils": [
        {
          "length": 20,
          "start": 1516
        }
      ]
    },
    "contracts/market/MarketStoreUtils.sol": {
      "MarketStoreUtils": [
        {
          "length": 20,
          "start": 2144
        },
        {
          "length": 20,
          "start": 2596
        },
        {
          "length": 20,
          "start": 2914
        },
        {
          "length": 20,
          "start": 3462
        },
        {
          "length": 20,
          "start": 3919
        }
      ]
    },
    "contracts/market/MarketUtils.sol": {
      "MarketUtils": [
        {
          "length": 20,
          "start": 1219
        }
      ]
    },
    "contracts/order/OrderStoreUtils.sol": {
      "OrderStoreUtils": [
        {
          "length": 20,
          "start": 1803
        },
        {
          "length": 20,
          "start": 2010
        }
      ]
    },
    "contracts/position/PositionStoreUtils.sol": {
      "PositionStoreUtils": [
        {
          "length": 20,
          "start": 1376
        },
        {
          "length": 20,
          "start": 2400
        },
        {
          "length": 20,
          "start": 3805
        }
      ]
    },
    "contracts/reader/ReaderUtils.sol": {
      "ReaderUtils": [
        {
          "length": 20,
          "start": 2743
        },
        {
          "length": 20,
          "start": 4124
        },
        {
          "length": 20,
          "start": 4266
        },
        {
          "length": 20,
          "start": 4387
        },
        {
          "length": 20,
          "start": 4586
        }
      ]
    },
    "contracts/withdrawal/WithdrawalStoreUtils.sol": {
      "WithdrawalStoreUtils": [
        {
          "length": 20,
          "start": 3668
        }
      ]
    }
  }
}