{
  "_format": "hh-sol-artifact-1",
  "contractName": "Reader",
  "sourceName": "contracts/reader/Reader.sol",
  "abi": [
    {
      "inputs": [
        {
          "internalType": "uint256",
          "name": "x",
          "type": "uint256"
        }
      ],
      "name": "PRBMathUD60x18__Exp2InputTooBig",
      "type": "error"
    },
    {
      "inputs": [
        {
          "internalType": "uint256",
          "name": "x",
          "type": "uint256"
        }
      ],
      "name": "PRBMathUD60x18__LogInputTooSmall",
      "type": "error"
    },
    {
      "inputs": [
        {
          "internalType": "uint256",
          "name": "prod1",
          "type": "uint256"
        }
      ],
      "name": "PRBMath__MulDivFixedPointOverflow",
      "type": "error"
    },
    {
      "inputs": [],
      "name": "UnableToGetBorrowingFactorEmptyPoolUsd",
      "type": "error"
    },
    {
      "inputs": [
        {
          "internalType": "address",
          "name": "token",
          "type": "address"
        },
        {
          "internalType": "address",
          "name": "market",
          "type": "address"
        }
      ],
      "name": "UnableToGetCachedTokenPrice",
      "type": "error"
    },
    {
      "inputs": [
        {
          "internalType": "uint256",
          "name": "positionBorrowingFactor",
          "type": "uint256"
        },
        {
          "internalType": "uint256",
          "name": "cumulativeBorrowingFactor",
          "type": "uint256"
        }
      ],
      "name": "UnexpectedBorrowingFactor",
      "type": "error"
    },
    {
      "inputs": [
        {
          "internalType": "contract DataStore",
          "name": "dataStore",
          "type": "address"
        },
        {
          "internalType": "address",
          "name": "account",
          "type": "address"
        },
        {
          "internalType": "uint256",
          "name": "start",
          "type": "uint256"
        },
        {
          "internalType": "uint256",
          "name": "end",
          "type": "uint256"
        }
      ],
      "name": "getAccountOrders",
      "outputs": [
        {
          "components": [
            {
              "components": [
                {
                  "internalType": "address",
                  "name": "account",
                  "type": "address"
                },
                {
                  "internalType": "address",
                  "name": "receiver",
                  "type": "address"
                },
                {
                  "internalType": "address",
                  "name": "callbackContract",
                  "type": "address"
                },
                {
                  "internalType": "address",
                  "name": "market",
                  "type": "address"
                },
                {
                  "internalType": "address",
                  "name": "initialCollateralToken",
                  "type": "address"
                },
                {
                  "internalType": "address[]",
                  "name": "swapPath",
                  "type": "address[]"
                }
              ],
              "internalType": "struct Order.Addresses",
              "name": "addresses",
              "type": "tuple"
            },
            {
              "components": [
                {
                  "internalType": "enum Order.OrderType",
                  "name": "orderType",
                  "type": "uint8"
                },
                {
                  "internalType": "enum Order.DecreasePositionSwapType",
                  "name": "decreasePositionSwapType",
                  "type": "uint8"
                },
                {
                  "internalType": "uint256",
                  "name": "sizeDeltaUsd",
                  "type": "uint256"
                },
                {
                  "internalType": "uint256",
                  "name": "initialCollateralDeltaAmount",
                  "type": "uint256"
                },
                {
                  "internalType": "uint256",
                  "name": "triggerPrice",
                  "type": "uint256"
                },
                {
                  "internalType": "uint256",
                  "name": "acceptablePrice",
                  "type": "uint256"
                },
                {
                  "internalType": "uint256",
                  "name": "executionFee",
                  "type": "uint256"
                },
                {
                  "internalType": "uint256",
                  "name": "callbackGasLimit",
                  "type": "uint256"
                },
                {
                  "internalType": "uint256",
                  "name": "minOutputAmount",
                  "type": "uint256"
                },
                {
                  "internalType": "uint256",
                  "name": "updatedAtBlock",
                  "type": "uint256"
                }
              ],
              "internalType": "struct Order.Numbers",
              "name": "numbers",
              "type": "tuple"
            },
            {
              "components": [
                {
                  "internalType": "bool",
                  "name": "isLong",
                  "type": "bool"
                },
                {
                  "internalType": "bool",
                  "name": "shouldUnwrapNativeToken",
                  "type": "bool"
                },
                {
                  "internalType": "bool",
                  "name": "isFrozen",
                  "type": "bool"
                }
              ],
              "internalType": "struct Order.Flags",
              "name": "flags",
              "type": "tuple"
            }
          ],
          "internalType": "struct Order.Props[]",
          "name": "",
          "type": "tuple[]"
        }
      ],
      "stateMutability": "view",
      "type": "function"
    },
    {
      "inputs": [
        {
          "internalType": "contract DataStore",
          "name": "dataStore",
          "type": "address"
        },
        {
          "internalType": "contract IReferralStorage",
          "name": "referralStorage",
          "type": "address"
        },
        {
          "internalType": "bytes32[]",
          "name": "positionKeys",
          "type": "bytes32[]"
        },
        {
          "components": [
            {
              "components": [
                {
                  "internalType": "uint256",
                  "name": "min",
                  "type": "uint256"
                },
                {
                  "internalType": "uint256",
                  "name": "max",
                  "type": "uint256"
                }
              ],
              "internalType": "struct Price.Props",
              "name": "indexTokenPrice",
              "type": "tuple"
            },
            {
              "components": [
                {
                  "internalType": "uint256",
                  "name": "min",
                  "type": "uint256"
                },
                {
                  "internalType": "uint256",
                  "name": "max",
                  "type": "uint256"
                }
              ],
              "internalType": "struct Price.Props",
              "name": "longTokenPrice",
              "type": "tuple"
            },
            {
              "components": [
                {
                  "internalType": "uint256",
                  "name": "min",
                  "type": "uint256"
                },
                {
                  "internalType": "uint256",
                  "name": "max",
                  "type": "uint256"
                }
              ],
              "internalType": "struct Price.Props",
              "name": "shortTokenPrice",
              "type": "tuple"
            }
          ],
          "internalType": "struct MarketUtils.MarketPrices[]",
          "name": "prices",
          "type": "tuple[]"
        }
      ],
      "name": "getAccountPositionInfoList",
      "outputs": [
        {
          "components": [
            {
              "components": [
                {
                  "components": [
                    {
                      "internalType": "address",
                      "name": "account",
                      "type": "address"
                    },
                    {
                      "internalType": "address",
                      "name": "market",
                      "type": "address"
                    },
                    {
                      "internalType": "address",
                      "name": "collateralToken",
                      "type": "address"
                    }
                  ],
                  "internalType": "struct Position.Addresses",
                  "name": "addresses",
                  "type": "tuple"
                },
                {
                  "components": [
                    {
                      "internalType": "uint256",
                      "name": "sizeInUsd",
                      "type": "uint256"
                    },
                    {
                      "internalType": "uint256",
                      "name": "sizeInTokens",
                      "type": "uint256"
                    },
                    {
                      "internalType": "uint256",
                      "name": "collateralAmount",
                      "type": "uint256"
                    },
                    {
                      "internalType": "uint256",
                      "name": "borrowingFactor",
                      "type": "uint256"
                    },
                    {
                      "internalType": "int256",
                      "name": "longTokenFundingAmountPerSize",
                      "type": "int256"
                    },
                    {
                      "internalType": "int256",
                      "name": "shortTokenFundingAmountPerSize",
                      "type": "int256"
                    },
                    {
                      "internalType": "uint256",
                      "name": "increasedAtBlock",
                      "type": "uint256"
                    },
                    {
                      "internalType": "uint256",
                      "name": "decreasedAtBlock",
                      "type": "uint256"
                    }
                  ],
                  "internalType": "struct Position.Numbers",
                  "name": "numbers",
                  "type": "tuple"
                },
                {
                  "components": [
                    {
                      "internalType": "bool",
                      "name": "isLong",
                      "type": "bool"
                    }
                  ],
                  "internalType": "struct Position.Flags",
                  "name": "flags",
                  "type": "tuple"
                }
              ],
              "internalType": "struct Position.Props",
              "name": "position",
              "type": "tuple"
            },
            {
              "components": [
                {
                  "components": [
                    {
                      "internalType": "bytes32",
                      "name": "referralCode",
                      "type": "bytes32"
                    },
                    {
                      "internalType": "address",
                      "name": "affiliate",
                      "type": "address"
                    },
                    {
                      "internalType": "address",
                      "name": "trader",
                      "type": "address"
                    },
                    {
                      "internalType": "uint256",
                      "name": "totalRebateFactor",
                      "type": "uint256"
                    },
                    {
                      "internalType": "uint256",
                      "name": "traderDiscountFactor",
                      "type": "uint256"
                    },
                    {
                      "internalType": "uint256",
                      "name": "totalRebateAmount",
                      "type": "uint256"
                    },
                    {
                      "internalType": "uint256",
                      "name": "traderDiscountAmount",
                      "type": "uint256"
                    },
                    {
                      "internalType": "uint256",
                      "name": "affiliateRewardAmount",
                      "type": "uint256"
                    }
                  ],
                  "internalType": "struct PositionPricingUtils.PositionReferralFees",
                  "name": "referral",
                  "type": "tuple"
                },
                {
                  "components": [
                    {
                      "internalType": "uint256",
                      "name": "fundingFeeAmount",
                      "type": "uint256"
                    },
                    {
                      "internalType": "uint256",
                      "name": "claimableLongTokenAmount",
                      "type": "uint256"
                    },
                    {
                      "internalType": "uint256",
                      "name": "claimableShortTokenAmount",
                      "type": "uint256"
                    },
                    {
                      "internalType": "int256",
                      "name": "latestLongTokenFundingAmountPerSize",
                      "type": "int256"
                    },
                    {
                      "internalType": "int256",
                      "name": "latestShortTokenFundingAmountPerSize",
                      "type": "int256"
                    },
                    {
                      "internalType": "bool",
                      "name": "hasPendingLongTokenFundingFee",
                      "type": "bool"
                    },
                    {
                      "internalType": "bool",
                      "name": "hasPendingShortTokenFundingFee",
                      "type": "bool"
                    }
                  ],
                  "internalType": "struct PositionPricingUtils.PositionFundingFees",
                  "name": "funding",
                  "type": "tuple"
                },
                {
                  "components": [
                    {
                      "internalType": "uint256",
                      "name": "borrowingFeeUsd",
                      "type": "uint256"
                    },
                    {
                      "internalType": "uint256",
                      "name": "borrowingFeeAmount",
                      "type": "uint256"
                    },
                    {
                      "internalType": "uint256",
                      "name": "borrowingFeeReceiverFactor",
                      "type": "uint256"
                    },
                    {
                      "internalType": "uint256",
                      "name": "borrowingFeeAmountForFeeReceiver",
                      "type": "uint256"
                    }
                  ],
                  "internalType": "struct PositionPricingUtils.PositionBorrowingFees",
                  "name": "borrowing",
                  "type": "tuple"
                },
                {
                  "components": [
                    {
                      "internalType": "uint256",
                      "name": "min",
                      "type": "uint256"
                    },
                    {
                      "internalType": "uint256",
                      "name": "max",
                      "type": "uint256"
                    }
                  ],
                  "internalType": "struct Price.Props",
                  "name": "collateralTokenPrice",
                  "type": "tuple"
                },
                {
                  "internalType": "uint256",
                  "name": "positionFeeFactor",
                  "type": "uint256"
                },
                {
                  "internalType": "uint256",
                  "name": "protocolFeeAmount",
                  "type": "uint256"
                },
                {
                  "internalType": "uint256",
                  "name": "positionFeeReceiverFactor",
                  "type": "uint256"
                },
                {
                  "internalType": "uint256",
                  "name": "feeReceiverAmount",
                  "type": "uint256"
                },
                {
                  "internalType": "uint256",
                  "name": "feeAmountForPool",
                  "type": "uint256"
                },
                {
                  "internalType": "uint256",
                  "name": "positionFeeAmountForPool",
                  "type": "uint256"
                },
                {
                  "internalType": "uint256",
                  "name": "positionFeeAmount",
                  "type": "uint256"
                },
                {
                  "internalType": "uint256",
                  "name": "totalNetCostAmount",
                  "type": "uint256"
                },
                {
                  "internalType": "uint256",
                  "name": "totalNetCostUsd",
                  "type": "uint256"
                }
              ],
              "internalType": "struct PositionPricingUtils.PositionFees",
              "name": "fees",
              "type": "tuple"
            }
          ],
          "internalType": "struct Reader.PositionInfo[]",
          "name": "",
          "type": "tuple[]"
        }
      ],
      "stateMutability": "view",
      "type": "function"
    },
    {
      "inputs": [
        {
          "internalType": "contract DataStore",
          "name": "dataStore",
          "type": "address"
        },
        {
          "internalType": "address",
          "name": "account",
          "type": "address"
        },
        {
          "internalType": "uint256",
          "name": "start",
          "type": "uint256"
        },
        {
          "internalType": "uint256",
          "name": "end",
          "type": "uint256"
        }
      ],
      "name": "getAccountPositions",
      "outputs": [
        {
          "components": [
            {
              "components": [
                {
                  "internalType": "address",
                  "name": "account",
                  "type": "address"
                },
                {
                  "internalType": "address",
                  "name": "market",
                  "type": "address"
                },
                {
                  "internalType": "address",
                  "name": "collateralToken",
                  "type": "address"
                }
              ],
              "internalType": "struct Position.Addresses",
              "name": "addresses",
              "type": "tuple"
            },
            {
              "components": [
                {
                  "internalType": "uint256",
                  "name": "sizeInUsd",
                  "type": "uint256"
                },
                {
                  "internalType": "uint256",
                  "name": "sizeInTokens",
                  "type": "uint256"
                },
                {
                  "internalType": "uint256",
                  "name": "collateralAmount",
                  "type": "uint256"
                },
                {
                  "internalType": "uint256",
                  "name": "borrowingFactor",
                  "type": "uint256"
                },
                {
                  "internalType": "int256",
                  "name": "longTokenFundingAmountPerSize",
                  "type": "int256"
                },
                {
                  "internalType": "int256",
                  "name": "shortTokenFundingAmountPerSize",
                  "type": "int256"
                },
                {
                  "internalType": "uint256",
                  "name": "increasedAtBlock",
                  "type": "uint256"
                },
                {
                  "internalType": "uint256",
                  "name": "decreasedAtBlock",
                  "type": "uint256"
                }
              ],
              "internalType": "struct Position.Numbers",
              "name": "numbers",
              "type": "tuple"
            },
            {
              "components": [
                {
                  "internalType": "bool",
                  "name": "isLong",
                  "type": "bool"
                }
              ],
              "internalType": "struct Position.Flags",
              "name": "flags",
              "type": "tuple"
            }
          ],
          "internalType": "struct Position.Props[]",
          "name": "",
          "type": "tuple[]"
        }
      ],
      "stateMutability": "view",
      "type": "function"
    },
    {
      "inputs": [
        {
          "internalType": "contract DataStore",
          "name": "dataStore",
          "type": "address"
        },
        {
          "internalType": "bytes32",
          "name": "key",
          "type": "bytes32"
        }
      ],
      "name": "getDeposit",
      "outputs": [
        {
          "components": [
            {
              "components": [
                {
                  "internalType": "address",
                  "name": "account",
                  "type": "address"
                },
                {
                  "internalType": "address",
                  "name": "receiver",
                  "type": "address"
                },
                {
                  "internalType": "address",
                  "name": "callbackContract",
                  "type": "address"
                },
                {
                  "internalType": "address",
                  "name": "market",
                  "type": "address"
                },
                {
                  "internalType": "address",
                  "name": "initialLongToken",
                  "type": "address"
                },
                {
                  "internalType": "address",
                  "name": "initialShortToken",
                  "type": "address"
                },
                {
                  "internalType": "address[]",
                  "name": "longTokenSwapPath",
                  "type": "address[]"
                },
                {
                  "internalType": "address[]",
                  "name": "shortTokenSwapPath",
                  "type": "address[]"
                }
              ],
              "internalType": "struct Deposit.Addresses",
              "name": "addresses",
              "type": "tuple"
            },
            {
              "components": [
                {
                  "internalType": "uint256",
                  "name": "initialLongTokenAmount",
                  "type": "uint256"
                },
                {
                  "internalType": "uint256",
                  "name": "initialShortTokenAmount",
                  "type": "uint256"
                },
                {
                  "internalType": "uint256",
                  "name": "minMarketTokens",
                  "type": "uint256"
                },
                {
                  "internalType": "uint256",
                  "name": "updatedAtBlock",
                  "type": "uint256"
                },
                {
                  "internalType": "uint256",
                  "name": "executionFee",
                  "type": "uint256"
                },
                {
                  "internalType": "uint256",
                  "name": "callbackGasLimit",
                  "type": "uint256"
                }
              ],
              "internalType": "struct Deposit.Numbers",
              "name": "numbers",
              "type": "tuple"
            },
            {
              "components": [
                {
                  "internalType": "bool",
                  "name": "shouldUnwrapNativeToken",
                  "type": "bool"
                }
              ],
              "internalType": "struct Deposit.Flags",
              "name": "flags",
              "type": "tuple"
            }
          ],
          "internalType": "struct Deposit.Props",
          "name": "",
          "type": "tuple"
        }
      ],
      "stateMutability": "view",
      "type": "function"
    },
    {
      "inputs": [
        {
          "internalType": "contract DataStore",
          "name": "dataStore",
          "type": "address"
        },
        {
          "internalType": "address",
          "name": "key",
          "type": "address"
        }
      ],
      "name": "getMarket",
      "outputs": [
        {
          "components": [
            {
              "internalType": "address",
              "name": "marketToken",
              "type": "address"
            },
            {
              "internalType": "address",
              "name": "indexToken",
              "type": "address"
            },
            {
              "internalType": "address",
              "name": "longToken",
              "type": "address"
            },
            {
              "internalType": "address",
              "name": "shortToken",
              "type": "address"
            }
          ],
          "internalType": "struct Market.Props",
          "name": "",
          "type": "tuple"
        }
      ],
      "stateMutability": "view",
      "type": "function"
    },
    {
      "inputs": [
        {
          "internalType": "contract DataStore",
          "name": "dataStore",
          "type": "address"
        },
        {
          "components": [
            {
              "components": [
                {
                  "internalType": "uint256",
                  "name": "min",
                  "type": "uint256"
                },
                {
                  "internalType": "uint256",
                  "name": "max",
                  "type": "uint256"
                }
              ],
              "internalType": "struct Price.Props",
              "name": "indexTokenPrice",
              "type": "tuple"
            },
            {
              "components": [
                {
                  "internalType": "uint256",
                  "name": "min",
                  "type": "uint256"
                },
                {
                  "internalType": "uint256",
                  "name": "max",
                  "type": "uint256"
                }
              ],
              "internalType": "struct Price.Props",
              "name": "longTokenPrice",
              "type": "tuple"
            },
            {
              "components": [
                {
                  "internalType": "uint256",
                  "name": "min",
                  "type": "uint256"
                },
                {
                  "internalType": "uint256",
                  "name": "max",
                  "type": "uint256"
                }
              ],
              "internalType": "struct Price.Props",
              "name": "shortTokenPrice",
              "type": "tuple"
            }
          ],
          "internalType": "struct MarketUtils.MarketPrices",
          "name": "prices",
          "type": "tuple"
        },
        {
          "internalType": "address",
          "name": "marketKey",
          "type": "address"
        }
      ],
      "name": "getMarketInfo",
      "outputs": [
        {
          "components": [
            {
              "components": [
                {
                  "internalType": "address",
                  "name": "marketToken",
                  "type": "address"
                },
                {
                  "internalType": "address",
                  "name": "indexToken",
                  "type": "address"
                },
                {
                  "internalType": "address",
                  "name": "longToken",
                  "type": "address"
                },
                {
                  "internalType": "address",
                  "name": "shortToken",
                  "type": "address"
                }
              ],
              "internalType": "struct Market.Props",
              "name": "market",
              "type": "tuple"
            },
            {
              "internalType": "uint256",
              "name": "borrowingFactorPerSecondForLongs",
              "type": "uint256"
            },
            {
              "internalType": "uint256",
              "name": "borrowingFactorPerSecondForShorts",
              "type": "uint256"
            },
            {
              "components": [
                {
                  "internalType": "bool",
                  "name": "longsPayShorts",
                  "type": "bool"
                },
                {
                  "internalType": "uint256",
                  "name": "fundingFactorPerSecond",
                  "type": "uint256"
                },
                {
                  "internalType": "int256",
                  "name": "fundingAmountPerSize_LongCollateral_LongPosition",
                  "type": "int256"
                },
                {
                  "internalType": "int256",
                  "name": "fundingAmountPerSize_LongCollateral_ShortPosition",
                  "type": "int256"
                },
                {
                  "internalType": "int256",
                  "name": "fundingAmountPerSize_ShortCollateral_LongPosition",
                  "type": "int256"
                },
                {
                  "internalType": "int256",
                  "name": "fundingAmountPerSize_ShortCollateral_ShortPosition",
                  "type": "int256"
                }
              ],
              "internalType": "struct MarketUtils.GetNextFundingAmountPerSizeResult",
              "name": "funding",
              "type": "tuple"
            }
          ],
          "internalType": "struct Reader.MarketInfo",
          "name": "",
          "type": "tuple"
        }
      ],
      "stateMutability": "view",
      "type": "function"
    },
    {
      "inputs": [
        {
          "internalType": "contract DataStore",
          "name": "dataStore",
          "type": "address"
        },
        {
          "components": [
            {
              "components": [
                {
                  "internalType": "uint256",
                  "name": "min",
                  "type": "uint256"
                },
                {
                  "internalType": "uint256",
                  "name": "max",
                  "type": "uint256"
                }
              ],
              "internalType": "struct Price.Props",
              "name": "indexTokenPrice",
              "type": "tuple"
            },
            {
              "components": [
                {
                  "internalType": "uint256",
                  "name": "min",
                  "type": "uint256"
                },
                {
                  "internalType": "uint256",
                  "name": "max",
                  "type": "uint256"
                }
              ],
              "internalType": "struct Price.Props",
              "name": "longTokenPrice",
              "type": "tuple"
            },
            {
              "components": [
                {
                  "internalType": "uint256",
                  "name": "min",
                  "type": "uint256"
                },
                {
                  "internalType": "uint256",
                  "name": "max",
                  "type": "uint256"
                }
              ],
              "internalType": "struct Price.Props",
              "name": "shortTokenPrice",
              "type": "tuple"
            }
          ],
          "internalType": "struct MarketUtils.MarketPrices[]",
          "name": "marketPricesList",
          "type": "tuple[]"
        },
        {
          "internalType": "uint256",
          "name": "start",
          "type": "uint256"
        },
        {
          "internalType": "uint256",
          "name": "end",
          "type": "uint256"
        }
      ],
      "name": "getMarketInfoList",
      "outputs": [
        {
          "components": [
            {
              "components": [
                {
                  "internalType": "address",
                  "name": "marketToken",
                  "type": "address"
                },
                {
                  "internalType": "address",
                  "name": "indexToken",
                  "type": "address"
                },
                {
                  "internalType": "address",
                  "name": "longToken",
                  "type": "address"
                },
                {
                  "internalType": "address",
                  "name": "shortToken",
                  "type": "address"
                }
              ],
              "internalType": "struct Market.Props",
              "name": "market",
              "type": "tuple"
            },
            {
              "internalType": "uint256",
              "name": "borrowingFactorPerSecondForLongs",
              "type": "uint256"
            },
            {
              "internalType": "uint256",
              "name": "borrowingFactorPerSecondForShorts",
              "type": "uint256"
            },
            {
              "components": [
                {
                  "internalType": "bool",
                  "name": "longsPayShorts",
                  "type": "bool"
                },
                {
                  "internalType": "uint256",
                  "name": "fundingFactorPerSecond",
                  "type": "uint256"
                },
                {
                  "internalType": "int256",
                  "name": "fundingAmountPerSize_LongCollateral_LongPosition",
                  "type": "int256"
                },
                {
                  "internalType": "int256",
                  "name": "fundingAmountPerSize_LongCollateral_ShortPosition",
                  "type": "int256"
                },
                {
                  "internalType": "int256",
                  "name": "fundingAmountPerSize_ShortCollateral_LongPosition",
                  "type": "int256"
                },
                {
                  "internalType": "int256",
                  "name": "fundingAmountPerSize_ShortCollateral_ShortPosition",
                  "type": "int256"
                }
              ],
              "internalType": "struct MarketUtils.GetNextFundingAmountPerSizeResult",
              "name": "funding",
              "type": "tuple"
            }
          ],
          "internalType": "struct Reader.MarketInfo[]",
          "name": "",
          "type": "tuple[]"
        }
      ],
      "stateMutability": "view",
      "type": "function"
    },
    {
      "inputs": [
        {
          "internalType": "contract DataStore",
          "name": "dataStore",
          "type": "address"
        },
        {
          "components": [
            {
              "internalType": "address",
              "name": "marketToken",
              "type": "address"
            },
            {
              "internalType": "address",
              "name": "indexToken",
              "type": "address"
            },
            {
              "internalType": "address",
              "name": "longToken",
              "type": "address"
            },
            {
              "internalType": "address",
              "name": "shortToken",
              "type": "address"
            }
          ],
          "internalType": "struct Market.Props",
          "name": "market",
          "type": "tuple"
        },
        {
          "components": [
            {
              "internalType": "uint256",
              "name": "min",
              "type": "uint256"
            },
            {
              "internalType": "uint256",
              "name": "max",
              "type": "uint256"
            }
          ],
          "internalType": "struct Price.Props",
          "name": "indexTokenPrice",
          "type": "tuple"
        },
        {
          "components": [
            {
              "internalType": "uint256",
              "name": "min",
              "type": "uint256"
            },
            {
              "internalType": "uint256",
              "name": "max",
              "type": "uint256"
            }
          ],
          "internalType": "struct Price.Props",
          "name": "longTokenPrice",
          "type": "tuple"
        },
        {
          "components": [
            {
              "internalType": "uint256",
              "name": "min",
              "type": "uint256"
            },
            {
              "internalType": "uint256",
              "name": "max",
              "type": "uint256"
            }
          ],
          "internalType": "struct Price.Props",
          "name": "shortTokenPrice",
          "type": "tuple"
        },
        {
          "internalType": "bytes32",
          "name": "pnlFactorType",
          "type": "bytes32"
        },
        {
          "internalType": "bool",
          "name": "maximize",
          "type": "bool"
        }
      ],
      "name": "getMarketTokenPrice",
      "outputs": [
        {
          "internalType": "int256",
          "name": "",
          "type": "int256"
        }
      ],
      "stateMutability": "view",
      "type": "function"
    },
    {
      "inputs": [
        {
          "internalType": "contract DataStore",
          "name": "dataStore",
          "type": "address"
        },
        {
          "internalType": "uint256",
          "name": "start",
          "type": "uint256"
        },
        {
          "internalType": "uint256",
          "name": "end",
          "type": "uint256"
        }
      ],
      "name": "getMarkets",
      "outputs": [
        {
          "components": [
            {
              "internalType": "address",
              "name": "marketToken",
              "type": "address"
            },
            {
              "internalType": "address",
              "name": "indexToken",
              "type": "address"
            },
            {
              "internalType": "address",
              "name": "longToken",
              "type": "address"
            },
            {
              "internalType": "address",
              "name": "shortToken",
              "type": "address"
            }
          ],
          "internalType": "struct Market.Props[]",
          "name": "",
          "type": "tuple[]"
        }
      ],
      "stateMutability": "view",
      "type": "function"
    },
    {
      "inputs": [
        {
          "internalType": "contract DataStore",
          "name": "dataStore",
          "type": "address"
        },
        {
          "components": [
            {
              "internalType": "address",
              "name": "marketToken",
              "type": "address"
            },
            {
              "internalType": "address",
              "name": "indexToken",
              "type": "address"
            },
            {
              "internalType": "address",
              "name": "longToken",
              "type": "address"
            },
            {
              "internalType": "address",
              "name": "shortToken",
              "type": "address"
            }
          ],
          "internalType": "struct Market.Props",
          "name": "market",
          "type": "tuple"
        },
        {
          "components": [
            {
              "internalType": "uint256",
              "name": "min",
              "type": "uint256"
            },
            {
              "internalType": "uint256",
              "name": "max",
              "type": "uint256"
            }
          ],
          "internalType": "struct Price.Props",
          "name": "indexTokenPrice",
          "type": "tuple"
        },
        {
          "internalType": "bool",
          "name": "maximize",
          "type": "bool"
        }
      ],
      "name": "getNetPnl",
      "outputs": [
        {
          "internalType": "int256",
          "name": "",
          "type": "int256"
        }
      ],
      "stateMutability": "view",
      "type": "function"
    },
    {
      "inputs": [
        {
          "internalType": "contract DataStore",
          "name": "dataStore",
          "type": "address"
        },
        {
          "components": [
            {
              "internalType": "address",
              "name": "marketToken",
              "type": "address"
            },
            {
              "internalType": "address",
              "name": "indexToken",
              "type": "address"
            },
            {
              "internalType": "address",
              "name": "longToken",
              "type": "address"
            },
            {
              "internalType": "address",
              "name": "shortToken",
              "type": "address"
            }
          ],
          "internalType": "struct Market.Props",
          "name": "market",
          "type": "tuple"
        },
        {
          "components": [
            {
              "internalType": "uint256",
              "name": "min",
              "type": "uint256"
            },
            {
              "internalType": "uint256",
              "name": "max",
              "type": "uint256"
            }
          ],
          "internalType": "struct Price.Props",
          "name": "indexTokenPrice",
          "type": "tuple"
        },
        {
          "internalType": "bool",
          "name": "isLong",
          "type": "bool"
        },
        {
          "internalType": "bool",
          "name": "maximize",
          "type": "bool"
        }
      ],
      "name": "getOpenInterestWithPnl",
      "outputs": [
        {
          "internalType": "int256",
          "name": "",
          "type": "int256"
        }
      ],
      "stateMutability": "view",
      "type": "function"
    },
    {
      "inputs": [
        {
          "internalType": "contract DataStore",
          "name": "dataStore",
          "type": "address"
        },
        {
          "internalType": "bytes32",
          "name": "key",
          "type": "bytes32"
        }
      ],
      "name": "getOrder",
      "outputs": [
        {
          "components": [
            {
              "components": [
                {
                  "internalType": "address",
                  "name": "account",
                  "type": "address"
                },
                {
                  "internalType": "address",
                  "name": "receiver",
                  "type": "address"
                },
                {
                  "internalType": "address",
                  "name": "callbackContract",
                  "type": "address"
                },
                {
                  "internalType": "address",
                  "name": "market",
                  "type": "address"
                },
                {
                  "internalType": "address",
                  "name": "initialCollateralToken",
                  "type": "address"
                },
                {
                  "internalType": "address[]",
                  "name": "swapPath",
                  "type": "address[]"
                }
              ],
              "internalType": "struct Order.Addresses",
              "name": "addresses",
              "type": "tuple"
            },
            {
              "components": [
                {
                  "internalType": "enum Order.OrderType",
                  "name": "orderType",
                  "type": "uint8"
                },
                {
                  "internalType": "enum Order.DecreasePositionSwapType",
                  "name": "decreasePositionSwapType",
                  "type": "uint8"
                },
                {
                  "internalType": "uint256",
                  "name": "sizeDeltaUsd",
                  "type": "uint256"
                },
                {
                  "internalType": "uint256",
                  "name": "initialCollateralDeltaAmount",
                  "type": "uint256"
                },
                {
                  "internalType": "uint256",
                  "name": "triggerPrice",
                  "type": "uint256"
                },
                {
                  "internalType": "uint256",
                  "name": "acceptablePrice",
                  "type": "uint256"
                },
                {
                  "internalType": "uint256",
                  "name": "executionFee",
                  "type": "uint256"
                },
                {
                  "internalType": "uint256",
                  "name": "callbackGasLimit",
                  "type": "uint256"
                },
                {
                  "internalType": "uint256",
                  "name": "minOutputAmount",
                  "type": "uint256"
                },
                {
                  "internalType": "uint256",
                  "name": "updatedAtBlock",
                  "type": "uint256"
                }
              ],
              "internalType": "struct Order.Numbers",
              "name": "numbers",
              "type": "tuple"
            },
            {
              "components": [
                {
                  "internalType": "bool",
                  "name": "isLong",
                  "type": "bool"
                },
                {
                  "internalType": "bool",
                  "name": "shouldUnwrapNativeToken",
                  "type": "bool"
                },
                {
                  "internalType": "bool",
                  "name": "isFrozen",
                  "type": "bool"
                }
              ],
              "internalType": "struct Order.Flags",
              "name": "flags",
              "type": "tuple"
            }
          ],
          "internalType": "struct Order.Props",
          "name": "",
          "type": "tuple"
        }
      ],
      "stateMutability": "view",
      "type": "function"
    },
    {
      "inputs": [
        {
          "internalType": "contract DataStore",
          "name": "dataStore",
          "type": "address"
        },
        {
          "components": [
            {
              "internalType": "address",
              "name": "marketToken",
              "type": "address"
            },
            {
              "internalType": "address",
              "name": "indexToken",
              "type": "address"
            },
            {
              "internalType": "address",
              "name": "longToken",
              "type": "address"
            },
            {
              "internalType": "address",
              "name": "shortToken",
              "type": "address"
            }
          ],
          "internalType": "struct Market.Props",
          "name": "market",
          "type": "tuple"
        },
        {
          "components": [
            {
              "internalType": "uint256",
              "name": "min",
              "type": "uint256"
            },
            {
              "internalType": "uint256",
              "name": "max",
              "type": "uint256"
            }
          ],
          "internalType": "struct Price.Props",
          "name": "indexTokenPrice",
          "type": "tuple"
        },
        {
          "internalType": "bool",
          "name": "isLong",
          "type": "bool"
        },
        {
          "internalType": "bool",
          "name": "maximize",
          "type": "bool"
        }
      ],
      "name": "getPnl",
      "outputs": [
        {
          "internalType": "int256",
          "name": "",
          "type": "int256"
        }
      ],
      "stateMutability": "view",
      "type": "function"
    },
    {
      "inputs": [
        {
          "internalType": "contract DataStore",
          "name": "dataStore",
          "type": "address"
        },
        {
          "internalType": "address",
          "name": "marketAddress",
          "type": "address"
        },
        {
          "components": [
            {
              "components": [
                {
                  "internalType": "uint256",
                  "name": "min",
                  "type": "uint256"
                },
                {
                  "internalType": "uint256",
                  "name": "max",
                  "type": "uint256"
                }
              ],
              "internalType": "struct Price.Props",
              "name": "indexTokenPrice",
              "type": "tuple"
            },
            {
              "components": [
                {
                  "internalType": "uint256",
                  "name": "min",
                  "type": "uint256"
                },
                {
                  "internalType": "uint256",
                  "name": "max",
                  "type": "uint256"
                }
              ],
              "internalType": "struct Price.Props",
              "name": "longTokenPrice",
              "type": "tuple"
            },
            {
              "components": [
                {
                  "internalType": "uint256",
                  "name": "min",
                  "type": "uint256"
                },
                {
                  "internalType": "uint256",
                  "name": "max",
                  "type": "uint256"
                }
              ],
              "internalType": "struct Price.Props",
              "name": "shortTokenPrice",
              "type": "tuple"
            }
          ],
          "internalType": "struct MarketUtils.MarketPrices",
          "name": "prices",
          "type": "tuple"
        },
        {
          "internalType": "bool",
          "name": "isLong",
          "type": "bool"
        },
        {
          "internalType": "bool",
          "name": "maximize",
          "type": "bool"
        }
      ],
      "name": "getPnlToPoolFactor",
      "outputs": [
        {
          "internalType": "int256",
          "name": "",
          "type": "int256"
        }
      ],
      "stateMutability": "view",
      "type": "function"
    },
    {
      "inputs": [
        {
          "internalType": "contract DataStore",
          "name": "dataStore",
          "type": "address"
        },
        {
          "internalType": "bytes32",
          "name": "key",
          "type": "bytes32"
        }
      ],
      "name": "getPosition",
      "outputs": [
        {
          "components": [
            {
              "components": [
                {
                  "internalType": "address",
                  "name": "account",
                  "type": "address"
                },
                {
                  "internalType": "address",
                  "name": "market",
                  "type": "address"
                },
                {
                  "internalType": "address",
                  "name": "collateralToken",
                  "type": "address"
                }
              ],
              "internalType": "struct Position.Addresses",
              "name": "addresses",
              "type": "tuple"
            },
            {
              "components": [
                {
                  "internalType": "uint256",
                  "name": "sizeInUsd",
                  "type": "uint256"
                },
                {
                  "internalType": "uint256",
                  "name": "sizeInTokens",
                  "type": "uint256"
                },
                {
                  "internalType": "uint256",
                  "name": "collateralAmount",
                  "type": "uint256"
                },
                {
                  "internalType": "uint256",
                  "name": "borrowingFactor",
                  "type": "uint256"
                },
                {
                  "internalType": "int256",
                  "name": "longTokenFundingAmountPerSize",
                  "type": "int256"
                },
                {
                  "internalType": "int256",
                  "name": "shortTokenFundingAmountPerSize",
                  "type": "int256"
                },
                {
                  "internalType": "uint256",
                  "name": "increasedAtBlock",
                  "type": "uint256"
                },
                {
                  "internalType": "uint256",
                  "name": "decreasedAtBlock",
                  "type": "uint256"
                }
              ],
              "internalType": "struct Position.Numbers",
              "name": "numbers",
              "type": "tuple"
            },
            {
              "components": [
                {
                  "internalType": "bool",
                  "name": "isLong",
                  "type": "bool"
                }
              ],
              "internalType": "struct Position.Flags",
              "name": "flags",
              "type": "tuple"
            }
          ],
          "internalType": "struct Position.Props",
          "name": "",
          "type": "tuple"
        }
      ],
      "stateMutability": "view",
      "type": "function"
    },
    {
      "inputs": [
        {
          "internalType": "contract DataStore",
          "name": "dataStore",
          "type": "address"
        },
        {
          "internalType": "contract IReferralStorage",
          "name": "referralStorage",
          "type": "address"
        },
        {
          "internalType": "bytes32",
          "name": "positionKey",
          "type": "bytes32"
        },
        {
          "components": [
            {
              "components": [
                {
                  "internalType": "uint256",
                  "name": "min",
                  "type": "uint256"
                },
                {
                  "internalType": "uint256",
                  "name": "max",
                  "type": "uint256"
                }
              ],
              "internalType": "struct Price.Props",
              "name": "indexTokenPrice",
              "type": "tuple"
            },
            {
              "components": [
                {
                  "internalType": "uint256",
                  "name": "min",
                  "type": "uint256"
                },
                {
                  "internalType": "uint256",
                  "name": "max",
                  "type": "uint256"
                }
              ],
              "internalType": "struct Price.Props",
              "name": "longTokenPrice",
              "type": "tuple"
            },
            {
              "components": [
                {
                  "internalType": "uint256",
                  "name": "min",
                  "type": "uint256"
                },
                {
                  "internalType": "uint256",
                  "name": "max",
                  "type": "uint256"
                }
              ],
              "internalType": "struct Price.Props",
              "name": "shortTokenPrice",
              "type": "tuple"
            }
          ],
          "internalType": "struct MarketUtils.MarketPrices",
          "name": "prices",
          "type": "tuple"
        },
        {
          "internalType": "uint256",
          "name": "sizeDeltaUsd",
          "type": "uint256"
        },
        {
          "internalType": "bool",
          "name": "usePositionSizeAsSizeDeltaUsd",
          "type": "bool"
        }
      ],
      "name": "getPositionInfo",
      "outputs": [
        {
          "components": [
            {
              "components": [
                {
                  "components": [
                    {
                      "internalType": "address",
                      "name": "account",
                      "type": "address"
                    },
                    {
                      "internalType": "address",
                      "name": "market",
                      "type": "address"
                    },
                    {
                      "internalType": "address",
                      "name": "collateralToken",
                      "type": "address"
                    }
                  ],
                  "internalType": "struct Position.Addresses",
                  "name": "addresses",
                  "type": "tuple"
                },
                {
                  "components": [
                    {
                      "internalType": "uint256",
                      "name": "sizeInUsd",
                      "type": "uint256"
                    },
                    {
                      "internalType": "uint256",
                      "name": "sizeInTokens",
                      "type": "uint256"
                    },
                    {
                      "internalType": "uint256",
                      "name": "collateralAmount",
                      "type": "uint256"
                    },
                    {
                      "internalType": "uint256",
                      "name": "borrowingFactor",
                      "type": "uint256"
                    },
                    {
                      "internalType": "int256",
                      "name": "longTokenFundingAmountPerSize",
                      "type": "int256"
                    },
                    {
                      "internalType": "int256",
                      "name": "shortTokenFundingAmountPerSize",
                      "type": "int256"
                    },
                    {
                      "internalType": "uint256",
                      "name": "increasedAtBlock",
                      "type": "uint256"
                    },
                    {
                      "internalType": "uint256",
                      "name": "decreasedAtBlock",
                      "type": "uint256"
                    }
                  ],
                  "internalType": "struct Position.Numbers",
                  "name": "numbers",
                  "type": "tuple"
                },
                {
                  "components": [
                    {
                      "internalType": "bool",
                      "name": "isLong",
                      "type": "bool"
                    }
                  ],
                  "internalType": "struct Position.Flags",
                  "name": "flags",
                  "type": "tuple"
                }
              ],
              "internalType": "struct Position.Props",
              "name": "position",
              "type": "tuple"
            },
            {
              "components": [
                {
                  "components": [
                    {
                      "internalType": "bytes32",
                      "name": "referralCode",
                      "type": "bytes32"
                    },
                    {
                      "internalType": "address",
                      "name": "affiliate",
                      "type": "address"
                    },
                    {
                      "internalType": "address",
                      "name": "trader",
                      "type": "address"
                    },
                    {
                      "internalType": "uint256",
                      "name": "totalRebateFactor",
                      "type": "uint256"
                    },
                    {
                      "internalType": "uint256",
                      "name": "traderDiscountFactor",
                      "type": "uint256"
                    },
                    {
                      "internalType": "uint256",
                      "name": "totalRebateAmount",
                      "type": "uint256"
                    },
                    {
                      "internalType": "uint256",
                      "name": "traderDiscountAmount",
                      "type": "uint256"
                    },
                    {
                      "internalType": "uint256",
                      "name": "affiliateRewardAmount",
                      "type": "uint256"
                    }
                  ],
                  "internalType": "struct PositionPricingUtils.PositionReferralFees",
                  "name": "referral",
                  "type": "tuple"
                },
                {
                  "components": [
                    {
                      "internalType": "uint256",
                      "name": "fundingFeeAmount",
                      "type": "uint256"
                    },
                    {
                      "internalType": "uint256",
                      "name": "claimableLongTokenAmount",
                      "type": "uint256"
                    },
                    {
                      "internalType": "uint256",
                      "name": "claimableShortTokenAmount",
                      "type": "uint256"
                    },
                    {
                      "internalType": "int256",
                      "name": "latestLongTokenFundingAmountPerSize",
                      "type": "int256"
                    },
                    {
                      "internalType": "int256",
                      "name": "latestShortTokenFundingAmountPerSize",
                      "type": "int256"
                    },
                    {
                      "internalType": "bool",
                      "name": "hasPendingLongTokenFundingFee",
                      "type": "bool"
                    },
                    {
                      "internalType": "bool",
                      "name": "hasPendingShortTokenFundingFee",
                      "type": "bool"
                    }
                  ],
                  "internalType": "struct PositionPricingUtils.PositionFundingFees",
                  "name": "funding",
                  "type": "tuple"
                },
                {
                  "components": [
                    {
                      "internalType": "uint256",
                      "name": "borrowingFeeUsd",
                      "type": "uint256"
                    },
                    {
                      "internalType": "uint256",
                      "name": "borrowingFeeAmount",
                      "type": "uint256"
                    },
                    {
                      "internalType": "uint256",
                      "name": "borrowingFeeReceiverFactor",
                      "type": "uint256"
                    },
                    {
                      "internalType": "uint256",
                      "name": "borrowingFeeAmountForFeeReceiver",
                      "type": "uint256"
                    }
                  ],
                  "internalType": "struct PositionPricingUtils.PositionBorrowingFees",
                  "name": "borrowing",
                  "type": "tuple"
                },
                {
                  "components": [
                    {
                      "internalType": "uint256",
                      "name": "min",
                      "type": "uint256"
                    },
                    {
                      "internalType": "uint256",
                      "name": "max",
                      "type": "uint256"
                    }
                  ],
                  "internalType": "struct Price.Props",
                  "name": "collateralTokenPrice",
                  "type": "tuple"
                },
                {
                  "internalType": "uint256",
                  "name": "positionFeeFactor",
                  "type": "uint256"
                },
                {
                  "internalType": "uint256",
                  "name": "protocolFeeAmount",
                  "type": "uint256"
                },
                {
                  "internalType": "uint256",
                  "name": "positionFeeReceiverFactor",
                  "type": "uint256"
                },
                {
                  "internalType": "uint256",
                  "name": "feeReceiverAmount",
                  "type": "uint256"
                },
                {
                  "internalType": "uint256",
                  "name": "feeAmountForPool",
                  "type": "uint256"
                },
                {
                  "internalType": "uint256",
                  "name": "positionFeeAmountForPool",
                  "type": "uint256"
                },
                {
                  "internalType": "uint256",
                  "name": "positionFeeAmount",
                  "type": "uint256"
                },
                {
                  "internalType": "uint256",
                  "name": "totalNetCostAmount",
                  "type": "uint256"
                },
                {
                  "internalType": "uint256",
                  "name": "totalNetCostUsd",
                  "type": "uint256"
                }
              ],
              "internalType": "struct PositionPricingUtils.PositionFees",
              "name": "fees",
              "type": "tuple"
            }
          ],
          "internalType": "struct Reader.PositionInfo",
          "name": "",
          "type": "tuple"
        }
      ],
      "stateMutability": "view",
      "type": "function"
    },
    {
      "inputs": [
        {
          "internalType": "contract DataStore",
          "name": "dataStore",
          "type": "address"
        },
        {
          "internalType": "bytes32",
          "name": "key",
          "type": "bytes32"
        }
      ],
      "name": "getWithdrawal",
      "outputs": [
        {
          "components": [
            {
              "components": [
                {
                  "internalType": "address",
                  "name": "account",
                  "type": "address"
                },
                {
                  "internalType": "address",
                  "name": "receiver",
                  "type": "address"
                },
                {
                  "internalType": "address",
                  "name": "callbackContract",
                  "type": "address"
                },
                {
                  "internalType": "address",
                  "name": "market",
                  "type": "address"
                },
                {
                  "internalType": "address[]",
                  "name": "longTokenSwapPath",
                  "type": "address[]"
                },
                {
                  "internalType": "address[]",
                  "name": "shortTokenSwapPath",
                  "type": "address[]"
                }
              ],
              "internalType": "struct Withdrawal.Addresses",
              "name": "addresses",
              "type": "tuple"
            },
            {
              "components": [
                {
                  "internalType": "uint256",
                  "name": "marketTokenAmount",
                  "type": "uint256"
                },
                {
                  "internalType": "uint256",
                  "name": "minLongTokenAmount",
                  "type": "uint256"
                },
                {
                  "internalType": "uint256",
                  "name": "minShortTokenAmount",
                  "type": "uint256"
                },
                {
                  "internalType": "uint256",
                  "name": "updatedAtBlock",
                  "type": "uint256"
                },
                {
                  "internalType": "uint256",
                  "name": "executionFee",
                  "type": "uint256"
                },
                {
                  "internalType": "uint256",
                  "name": "callbackGasLimit",
                  "type": "uint256"
                }
              ],
              "internalType": "struct Withdrawal.Numbers",
              "name": "numbers",
              "type": "tuple"
            },
            {
              "components": [
                {
                  "internalType": "bool",
                  "name": "shouldUnwrapNativeToken",
                  "type": "bool"
                }
              ],
              "internalType": "struct Withdrawal.Flags",
              "name": "flags",
              "type": "tuple"
            }
          ],
          "internalType": "struct Withdrawal.Props",
          "name": "",
          "type": "tuple"
        }
      ],
      "stateMutability": "view",
      "type": "function"
    }
  ],
  "bytecode": "0x608060405234801561001057600080fd5b506154c0806100206000396000f3fe608060405234801561001057600080fd5b50600436106100db5760003560e01c80630571e1fb146100e0578063095ce6c5146101095780630fa8f516146101b25780631485d297146101d257806324c029e0146101f257806342a6f8d31461021357806349651b6a14610233578063714af34b1461025357806377cfb16214610273578063847bb46914610293578063971de27d146102b3578063a0140938146102c6578063bc7b5bba146102d9578063ce3264bf146102f9578063ceeea3bf14610319578063eb77d01914610339578063fd50649d14610359575b600080fd5b6100f36100ee366004613a9e565b61036c565b6040516101009190613da3565b60405180910390f35b61011c610117366004613e88565b610455565b60405161010092919060006101808201905083825282516020830152602083015160408301526040830151606083015260608301516080830152608083015160a083015260a083015160c083015260c083015160e083015260e083015161010081818501528085015191505061012081818501528085015191505061014081818501528085015161016085015250509392505050565b6101c56101c0366004613f15565b610549565b6040516101009190613f41565b6101e56101e0366004613f15565b6105d5565b6040516101009190613f94565b6102056102003660046140b6565b61065b565b604051908152602001610100565b610226610221366004614127565b610676565b60405161010091906142cf565b610246610241366004613f15565b6107c3565b6040516101009190614331565b610266610261366004614344565b610849565b60405161010091906143b0565b610286610281366004614127565b6108cb565b60405161010091906143be565b6102a66102a1366004614401565b610a0a565b60405161010091906144b4565b6102056102c13660046144c3565b610b5d565b6102056102d43660046140b6565b610bf4565b6102ec6102e7366004614528565b610c03565b6040516101009190614587565b61030c6103073660046145ca565b610cf0565b60405161010091906145ff565b61032c610327366004613f15565b610e3d565b6040516101009190614641565b61034c6103473660046146c7565b610ec3565b6040516101009190614739565b610205610367366004614748565b611289565b6060600083516001600160401b0381111561038957610389613858565b6040519080825280602002602001820160405280156103c257816020015b6103af613447565b8152602001906001900390816103a75790505b50905060005b84518110156104495760008582815181106103e5576103e56147a3565b60200260200101519050610418888883888681518110610407576104076147a3565b602002602001015160006001610ec3565b83838151811061042a5761042a6147a3565b6020026020010181905250508080610441906147cf565b9150506103c8565b5090505b949350505050565b60006104b460405180610160016040528060008152602001600081526020016000815260200160008152602001600081526020016000815260200160008152602001600081526020016000815260200160008152602001600081525090565b604051637d494dc360e01b815273__$e53db83827f4e07ebc418caf7145b8c2d5$__90637d494dc3906104f7908c908c908c908c908c908c908c906004016147e8565b61018060405180830381865af4158015610515573d6000803e3d6000fd5b505050506040513d601f19601f82011682018060405250810190610539919061484a565b9150915097509795505050505050565b61055161346c565b60405163fdfc26f360e01b815273__$3d31b232fb363902662fbc281b11ab3357$__9063fdfc26f39061058a90869086906004016148fe565b61018060405180830381865af41580156105a8573d6000803e3d6000fd5b505050506040513d601f19601f820116820180604052508101906105cc9190614971565b90505b92915050565b6105dd6134f6565b60405163fdfc26f360e01b815273__$b63e253a228f0e32f671cc49c7fc32477c$__9063fdfc26f39061061690869086906004016148fe565b600060405180830381865af4158015610633573d6000803e3d6000fd5b505050506040513d6000823e601f3d908101601f191682016040526105cc9190810190614b22565b600061066a8686868686611297565b90505b95945050505050565b6060600061068686868686611328565b9050600081516001600160401b038111156106a3576106a3613858565b6040519080825280602002602001820160405280156106dc57816020015b6106c9613580565b8152602001906001900390816106c15790505b50905060005b82518110156107b85760008382815181106106ff576106ff6147a3565b6020026020010151905073__$9dcb75ef0bb6c4288f2ccffe7dc492c4eb$__63fdfc26f38a836040518363ffffffff1660e01b81526004016107429291906148fe565b600060405180830381865af415801561075f573d6000803e3d6000fd5b505050506040513d6000823e601f3d908101601f191682016040526107879190810190614d69565b838381518110610799576107996147a3565b60200260200101819052505080806107b0906147cf565b9150506106e2565b509695505050505050565b6107cb613580565b60405163fdfc26f360e01b815273__$9dcb75ef0bb6c4288f2ccffe7dc492c4eb$__9063fdfc26f39061080490869086906004016148fe565b600060405180830381865af4158015610821573d6000803e3d6000fd5b505050506040513d6000823e601f3d908101601f191682016040526105cc9190810190614d69565b610851613639565b60405163a8d8fff560e01b815273__$ff439aa65a80c9eec648f15db20b189505$__9063a8d8fff59061088a9086908690600401614e82565b608060405180830381865af41580156108a7573d6000803e3d6000fd5b505050506040513d601f19601f820116820180604052508101906105cc9190614e9c565b606060006108db868686866113b4565b9050600081516001600160401b038111156108f8576108f8613858565b60405190808252806020026020018201604052801561093157816020015b61091e61346c565b8152602001906001900390816109165790505b50905060005b82518110156107b8576000838281518110610954576109546147a3565b6020026020010151905073__$3d31b232fb363902662fbc281b11ab3357$__63fdfc26f38a836040518363ffffffff1660e01b81526004016109979291906148fe565b61018060405180830381865af41580156109b5573d6000803e3d6000fd5b505050506040513d601f19601f820116820180604052508101906109d99190614971565b8383815181106109eb576109eb6147a3565b6020026020010181905250508080610a02906147cf565b915050610937565b610a12613660565b60405163a8d8fff560e01b815260009073__$ff439aa65a80c9eec648f15db20b189505$__9063a8d8fff590610a4e9088908790600401614e82565b608060405180830381865af4158015610a6b573d6000803e3d6000fd5b505050506040513d601f19601f82011682018060405250810190610a8f9190614e9c565b90506000610aa086838760016113ce565b90506000610ab187848860006113ce565b9050600073__$7d62b333171909e88f9935bee8a07b01ad$__630dc7f3eb89868a6040518463ffffffff1660e01b8152600401610af093929190614f38565b60c060405180830381865af4158015610b0d573d6000803e3d6000fd5b505050506040513d601f19601f82011682018060405250810190610b319190614f63565b6040805160808101825295865260208601949094529284019190915250606082015290505b9392505050565b60008073__$ff439aa65a80c9eec648f15db20b189505$__63a8d8fff588886040518363ffffffff1660e01b8152600401610b99929190614e82565b608060405180830381865af4158015610bb6573d6000803e3d6000fd5b505050506040513d601f19601f82011682018060405250810190610bda9190614e9c565b9050610be9878287878761146f565b979650505050505050565b600061066a86868686866114bd565b60606000610c128685856114e8565b9050600081516001600160401b03811115610c2f57610c2f613858565b604051908082528060200260200182016040528015610c6857816020015b610c55613660565b815260200190600190039081610c4d5790505b50905060005b82518110156107b8576000878281518110610c8b57610c8b6147a3565b602002602001015190506000848381518110610ca957610ca96147a3565b60200260200101519050610cbe8a8383610a0a565b848481518110610cd057610cd06147a3565b602002602001018190525050508080610ce8906147cf565b915050610c6e565b60606000610cff8585856114e8565b9050600081516001600160401b03811115610d1c57610d1c613858565b604051908082528060200260200182016040528015610d5557816020015b610d42613639565b815260200190600190039081610d3a5790505b50905060005b8251811015610e33576000838281518110610d7857610d786147a3565b60200260200101519050600073__$ff439aa65a80c9eec648f15db20b189505$__63a8d8fff58a846040518363ffffffff1660e01b8152600401610dbd929190614e82565b608060405180830381865af4158015610dda573d6000803e3d6000fd5b505050506040513d601f19601f82011682018060405250810190610dfe9190614e9c565b905080848481518110610e1357610e136147a3565b602002602001018190525050508080610e2b906147cf565b915050610d5b565b5095945050505050565b610e456136c1565b60405163fdfc26f360e01b815273__$3dc24d71d6ebafc0c4ce8ac2f69cd1548a$__9063fdfc26f390610e7e90869086906004016148fe565b600060405180830381865af4158015610e9b573d6000803e3d6000fd5b505050506040513d6000823e601f3d908101601f191682016040526105cc9190810190614fe5565b610ecb613447565b60405163fdfc26f360e01b815260009073__$3d31b232fb363902662fbc281b11ab3357$__9063fdfc26f390610f07908b908a906004016148fe565b61018060405180830381865af4158015610f25573d6000803e3d6000fd5b505050506040513d601f19601f82011682018060405250810190610f499190614971565b9050600073__$ff439aa65a80c9eec648f15db20b189505$__63a8d8fff58a610f7485516020015190565b6040518363ffffffff1660e01b8152600401610f91929190614e82565b608060405180830381865af4158015610fae573d6000803e3d6000fd5b505050506040513d601f19601f82011682018060405250810190610fd29190614e9c565b90506000610fec610fe584516040015190565b83896115ad565b90508415610ffd5760208301515195505b60006110168b8b8685876040015188606001518d611650565b9050600073__$7d62b333171909e88f9935bee8a07b01ad$__639a33387a8d87878d6040518563ffffffff1660e01b815260040161105794939291906150fc565b602060405180830381865af4158015611074573d6000803e3d6000fd5b505050506040513d601f19601f820116820180604052508101906110989190615136565b60405163f41d755760e01b815290915073__$7d62b333171909e88f9935bee8a07b01ad$__9063f41d7557906110d6908f908790869060040161514f565b608060405180830381865af41580156110f3573d6000803e3d6000fd5b505050506040513d601f19601f82011682018060405250810190611117919061517a565b8260400181905250600073__$7d62b333171909e88f9935bee8a07b01ad$__630dc7f3eb8e878d6040518463ffffffff1660e01b815260040161115c93929190614f38565b60c060405180830381865af4158015611179573d6000803e3d6000fd5b505050506040513d601f19601f8201168201806040525081019061119d9190614f63565b90506000806111ae88604001515190565b156111c4575050604081015160808201516111d1565b5050606081015160a08201515b604080880151606089015191516309a48d9f60e41b815273__$7d62b333171909e88f9935bee8a07b01ad$__92639a48d9f092611217928d9290889088906004016151c0565b60e060405180830381865af4158015611234573d6000803e3d6000fd5b505050506040513d601f19601f820116820180604052508101906112589190615202565b8560200181905250604051806040016040528089815260200186815250985050505050505050509695505050505050565b600061066d8585858561179f565b6000806112ad6112a88888876117ce565b611821565b905060006112bc88888761188f565b90508115806112c9575080155b156112d95760009250505061066d565b60006112e68787876118d4565b905060006112f76112a88385615294565b905060008761130f5761130a82866152b3565b611319565b61131985836152b3565b9b9a5050505050505050505050565b6060846001600160a01b031663f069052a6113428661190d565b6040516001600160e01b031960e084901b16815260048101919091526024810186905260448101859052606401600060405180830381865afa15801561138c573d6000803e3d6000fd5b505050506040513d6000823e601f3d908101601f1916820160405261066d91908101906152da565b6060846001600160a01b031663f069052a6113428661198f565b6000806113e0868660000151856119ca565b905060006113f087878787611a44565b9050806000036114055760009250505061044d565b600061141388888888611a80565b90508060000361143657604051630d5f5aef60e31b815260040160405180910390fd5b600061144789896000015188611ace565b905060006114558483611ae9565b905060006114638285611b48565b90506113198187611c0e565b60008061147e87878787611a80565b90508060000361149257600091505061066d565b60006114a5888888600001518888611297565b90506114b18183611c9d565b98975050505050505050565b6000806114cb8787866117ce565b905060006114dc8888888888611297565b90506114b18282611cdc565b6060836001600160a01b031663e7e4148e604051602001611528906020808252600b908201526a13505492d15517d31254d560aa1b604082015260600190565b60408051601f198184030181529082905280516020909101206001600160e01b031960e084901b16825260048201526024810186905260448101859052606401600060405180830381865afa158015611585573d6000803e3d6000fd5b505050506040513d6000823e601f3d908101601f1916820160405261044d919081019061535f565b6115b5613701565b82604001516001600160a01b0316846001600160a01b0316036115dd57506020810151610b56565b82606001516001600160a01b0316846001600160a01b03160361160557506040810151610b56565b82602001516001600160a01b0316846001600160a01b03160361162a57508051610b56565b8251604051635f2394d160e11b8152611647918691600401614e82565b60405180910390fd5b61165861371b565b60006116758989886116698b515190565b8b516020015188611cf2565b905060006116838a89611f56565b90506116908a8883611feb565b6040830181905260608101516020909101516101208401516116b29190615393565b6116bc91906153a6565b61010083015260408201516060015160e0830180516116dc908390615393565b90525060006117038b6116f18b516020015190565b896116fe8d604001515190565b6120fa565b905060006117248c6117178c516020015190565b896116fe8e604001515190565b90506117338a89898585612175565b6020808601829052855160c00151604087015190910151915161014087015191929161175f9190615393565b6117699190615393565b61177391906153a6565b610160850181905260208a015161178991615294565b61018085015250919a9950505050505050505050565b6000806117b0868686600187611297565b905060006117c2878787600088611297565b9050610be981836153b9565b6000806117e3846040015185606001516122a3565b905060006117fc868660000151876040015187866122d2565b90506000611815878760000151886060015188876122d2565b9050610be98183615393565b60006001600160ff1b0382111561188b5760405162461bcd60e51b815260206004820152602860248201527f53616665436173743a2076616c756520646f65736e27742066697420696e2061604482015267371034b73a191a9b60c11b6064820152608401611647565b5090565b6000806118a6858560000151866040015186612358565b905060006118be868660000151876060015187612358565b90506118ca8183615393565b9695505050505050565b600082156118f557816118e85783516118ee565b83602001515b9050610b56565b8161190457836020015161044d565b50509051919050565b6000604051602001611945906020808252601290820152711050d0d3d5539517d3d491115497d31254d560721b604082015260600190565b60408051601f198184030181528282528051602091820120908301526001600160a01b03841690820152606001604051602081830303815290604052805190602001209050919050565b6000604051602001611945906020808252601590820152741050d0d3d5539517d413d4d2551253d397d31254d5605a1b604082015260600190565b6000836001600160a01b031663bd02d0f56119e58585612374565b6040518263ffffffff1660e01b8152600401611a0391815260200190565b602060405180830381865afa158015611a20573d6000803e3d6000fd5b505050506040513d601f19601f8201168201806040525081019061044d9190615136565b6000808215611a75576000611a5a87878661188f565b855160200151909150611a6d9082615294565b91505061066d565b61066a8686856117ce565b60008082611a92578460600151611a98565b84604001515b90506000611aa78787846123fe565b9050600084611abb57604086015151611ac2565b6020860151515b90506114b18183615294565b6000836001600160a01b031663bd02d0f56119e5858561249c565b600068327cb2734119d3b7a9601e1b831015611b07575060006105cf565b68327cb2734119d3b7a9601e1b8203611b215750816105cf565b6000611b3d611b2f856124db565b611b38856124db565b6124ec565b905061044d8161252e565b600082600003611b5a575060006105cf565b600080611b738568327cb2734119d3b7a9601e1b61253f565b915091508115611b9057611b8784826153f7565b925050506105cf565b68327cb2734119d3b7a9601e1b611bb068056bc75e2d63100000876153f7565b611bba9190615294565b90506b1d6329f1c35ca4bfabb9f56160281b841115611bf057611be668056bc75e2d63100000856153f7565b611b8790826153f7565b68056bc75e2d63100000611c0485836153f7565b61066d9190615294565b6000806000611c1d858561253f565b915091508115611c3d57611b8768327cb2734119d3b7a9601e1b826153f7565b600080858711611c4e578587611c51565b86865b9092509050611c7568056bc75e2d6310000068327cb2734119d3b7a9601e1b6153f7565b81611c8968056bc75e2d63100000856153f7565b611c939190615294565b610be991906153f7565b600080611cb2611cac8561258a565b84611b48565b905060008413611cd357611cc581611821565b611cce90615419565b61044d565b61044d81611821565b600081611ce884611821565b6105cc91906153b9565b611cfa61371b565b611d0261371b565b6060810186905280516001600160a01b038616604090910152611d25878661259d565b8451608081019190915260608101919091526001600160a01b03918216602082015291909152881663bd02d0f5611d5b8661280f565b6040518263ffffffff1660e01b8152600401611d7991815260200190565b602060405180830381865afa158015611d96573d6000803e3d6000fd5b505050506040513d601f19601f82011682018060405250810190611dba9190615136565b60808201819052865190611dcf908590611c0e565b611dd991906153f7565b6101408201819052815160600151611df19190611c0e565b815160a090810191909152815190810151608090910151611e129190611c0e565b815160c09081019190915281519081015160a090910151611e3391906153a6565b815160e00152805160a00151610140820151611e4f91906153a6565b60a08201526040516001600160a01b0389169063bd02d0f590611ea5906020016020808252601c908201527b2827a9a4aa24a7a72fa322a2afa922a1a2a4ab22a92fa320a1aa27a960211b604082015260600190565b604051602081830303815290604052805190602001206040518263ffffffff1660e01b8152600401611ed991815260200190565b602060405180830381865afa158015611ef6573d6000803e3d6000fd5b505050506040513d601f19601f82011682018060405250810190611f1a9190615136565b60c0820181905260a0820151611f2f91611c0e565b60e0820181905260a0820151611f4591906153a6565b610120820152979650505050505050565b600080611f7484611f6985516020015190565b604086015151612848565b905080611f8684602001516060015190565b1115611fb957602083015160600151604051634cd96ac160e11b8152600481019190915260248101829052604401611647565b6000611fca84602001516060015190565b611fd490836153a6565b905061066d611fe585602001515190565b82611c0e565b611ff36137d7565b611ffb6137d7565b828152835161200a90846153f7565b816020018181525050846001600160a01b031663bd02d0f5604051602001612063906020808252601d908201527f424f52524f57494e475f4645455f52454345495645525f464143544f52000000604082015260600190565b604051602081830303815290604052805190602001206040518263ffffffff1660e01b815260040161209791815260200190565b602060405180830381865afa1580156120b4573d6000803e3d6000fd5b505050506040513d601f19601f820116820180604052508101906120d89190615136565b6040820181905260208201516120ed91611c0e565b6060820152949350505050565b6000846001600160a01b031663dc97d962612116868686612863565b6040518263ffffffff1660e01b815260040161213491815260200190565b602060405180830381865afa158015612151573d6000803e3d6000fd5b505050506040513d601f19601f8201168201806040525081019061066d9190615136565b61217d6137ff565b6121856137ff565b60608101849052608081018390526000806121b4866121a98b602001516080015190565b60208c0151516128ff565b90151560a085015260808401519092506121d7906121a98b6020015160a0015190565b90151560c085015290506000821215612201576121fb6121f683615419565b612946565b60208401525b600081121561221c576122166121f682615419565b60408401525b876001600160a01b03166122328a516040015190565b6001600160a01b03161480156122485750600082135b156122595761225682612946565b83525b866001600160a01b031661226f8a516040015190565b6001600160a01b03161480156122855750600081135b156122965761229381612946565b83525b5090979650505050505050565b6000816001600160a01b0316836001600160a01b0316146122c55760016122c8565b60025b60ff169392505050565b600081866001600160a01b031663bd02d0f56122ef888888612998565b6040518263ffffffff1660e01b815260040161230d91815260200190565b602060405180830381865afa15801561232a573d6000803e3d6000fd5b505050506040513d601f19601f8201168201806040525081019061234e9190615136565b61066a91906153f7565b6000846001600160a01b031663bd02d0f56121168686866129cb565b60006040516020016123aa9060208082526010908201526f2127a92927aba4a723afa320a1aa27a960811b604082015260600190565b60408051601f198184030181528282528051602091820120908301526001600160a01b0385169082015282151560608201526080015b60405160208183030381529060405280519060200120905092915050565b600080612413846040015185606001516122a3565b905080856001600160a01b031663bd02d0f5612433876000015187612a08565b6040518263ffffffff1660e01b815260040161245191815260200190565b602060405180830381865afa15801561246e573d6000803e3d6000fd5b505050506040513d601f19601f820116820180604052508101906124929190615136565b61066d91906153f7565b60006040516020016123aa906020808252601990820152782127a92927aba4a723afa2ac2827a722a72a2fa320a1aa27a960391b604082015260600190565b60006105cf64e8d4a51000836153f7565b60008260000361251457811561250357600061250d565b670de0b6b3a76400005b90506105cf565b6105cc61252961252385612a76565b84612b2c565b612b38565b60006105cf64e8d4a5100083615294565b600080836000036125565750600190506000612583565b83830283858281612569576125696153e1565b041461257c576000809250925050612583565b6001925090505b9250929050565b60008082121561188b57816000036105cf565b6000806000806000866001600160a01b03166385725b58876040518263ffffffff1660e01b81526004016125d19190615435565b602060405180830381865afa1580156125ee573d6000803e3d6000fd5b505050506040513d601f19601f820116820180604052508101906126129190615136565b90506000808083156127e7576040516306459e2360e51b8152600481018590526001600160a01b038b169063c8b3c46090602401602060405180830381865afa158015612663573d6000803e3d6000fd5b505050506040513d601f19601f820116820180604052508101906126879190615449565b925060008a6001600160a01b0316631582a018856040518263ffffffff1660e01b81526004016126b79190615435565b602060405180830381865afa1580156126d4573d6000803e3d6000fd5b505050506040513d601f19601f820116820180604052508101906126f89190615136565b60405163039af9eb60e01b8152600481018290529091506001600160a01b038c169063039af9eb906024016040805180830381865afa15801561273f573d6000803e3d6000fd5b505050506040513d601f19601f820116820180604052508101906127639190615466565b60405163071a6a7960e41b815291945092506000906001600160a01b038d16906371a6a79090612797908890600401615435565b602060405180830381865afa1580156127b4573d6000803e3d6000fd5b505050506040513d601f19601f820116820180604052508101906127d89190615136565b905080156127e4578092505b50505b83836127f284612b7e565b6127fb84612b7e565b929d919c509a509098509650505050505050565b6000604051602001611945906020808252601390820152722827a9a4aa24a7a72fa322a2afa320a1aa27a960691b604082015260600190565b6000836001600160a01b031663bd02d0f56119e58585612ba3565b60006040516020016128a09060208082526017908201527646554e44494e475f414d4f554e545f5045525f53495a4560481b604082015260600190565b60408051601f198184030181528282528051602091820120908301526001600160a01b038087169183019190915284166060820152821515608082015260a0016040516020818303038152906040528051906020012090509392505050565b6000808061290d85876152b3565b9050600061292b61292566038d7ea4c68000876153f7565b83612be4565b9050811580159061293a575080155b97909650945050505050565b60008082121561188b5760405162461bcd60e51b815260206004820181905260248201527f53616665436173743a2076616c7565206d75737420626520706f7369746976656044820152606401611647565b60006040516020016128a0906020808252600d908201526c13d4115397d2539511549154d5609a1b604082015260600190565b60006040516020016128a0906020808252601790820152764f50454e5f494e5445524553545f494e5f544f4b454e5360481b604082015260600190565b6000604051602001612a39906020808252600b908201526a1413d3d317d05353d5539560aa1b604082015260600190565b60408051601f198184030181528282528051602091820120908301526001600160a01b0380861691830191909152831660608201526080016123e0565b6000670de0b6b3a7640000821015612aa457604051633621413760e21b815260048101839052602401611647565b6000612ab9670de0b6b3a76400008404612c0c565b670de0b6b3a764000081029250905082811c670de0b6b3a763ffff198101612ae2575050919050565b6706f05b59d3b200005b8015612b2457670de0b6b3a7640000828002049150671bc16d674ec800008210612b1c579283019260019190911c905b60011c612aec565b505050919050565b60006105cc8383612cef565b6000680a688906bd8b0000008210612b6657604051634a4f26f160e01b815260048101839052602401611647565b670de0b6b3a7640000604083901b04610b5681612db5565b6000612710612b9968327cb2734119d3b7a9601e1b84615294565b6105cf91906153f7565b60006040516020016123aa906020808252601b908201527a21aaa6aaa620aa24ab22afa127a92927aba4a723afa320a1aa27a960291b604082015260600190565b600080612bf984612bf48561258a565b611c0e565b905060008313611cd357611cc581611821565b6000600160801b8210612c2c57608091821c91612c299082615393565b90505b600160401b8210612c4a57604091821c91612c479082615393565b90505b600160201b8210612c6857602091821c91612c659082615393565b90505b620100008210612c8557601091821c91612c829082615393565b90505b6101008210612ca157600891821c91612c9e9082615393565b90505b60108210612cbc57600491821c91612cb99082615393565b90505b60048210612cd757600291821c91612cd49082615393565b90505b60028210612cea576105cf600182615393565b919050565b60008080600019848609848602925082811083820303915050670de0b6b3a76400008110612d335760405163698d9a0160e11b815260048101829052602401611647565b600080670de0b6b3a764000086880991506706f05b59d3b1ffff8211905082600003612d715780670de0b6b3a76400008504019450505050506105cf565b620400008285030493909111909103600160ee1b02919091177faccb18165bd6fe31ae1cf318dc5b51eee0e1ba569b88cd74c1773b91fac106690201905092915050565b600160bf1b6001603f1b821615612dd55768016a09e667f3bcc9090260401c5b6001603e1b821615612df0576801306fe0a31b7152df0260401c5b6001603d1b821615612e0b576801172b83c7d517adce0260401c5b6001603c1b821615612e265768010b5586cf9890f62a0260401c5b6001603b1b821615612e41576801059b0d31585743ae0260401c5b6001603a1b821615612e5c57680102c9a3e778060ee70260401c5b600160391b821615612e775768010163da9fb33356d80260401c5b600160381b821615612e9257680100b1afa5abcbed610260401c5b600160371b821615612ead5768010058c86da1c09ea20260401c5b600160361b821615612ec8576801002c605e2e8cec500260401c5b600160351b821615612ee357680100162f3904051fa10260401c5b600160341b821615612efe576801000b175effdc76ba0260401c5b600160331b821615612f1957680100058ba01fb9f96d0260401c5b600160321b821615612f345768010002c5cc37da94920260401c5b600160311b821615612f4f576801000162e525ee05470260401c5b600160301b821615612f6a5768010000b17255775c040260401c5b6001602f1b821615612f85576801000058b91b5bc9ae0260401c5b6001602e1b821615612fa057680100002c5c89d5ec6d0260401c5b6001602d1b821615612fbb5768010000162e43f4f8310260401c5b6001602c1b821615612fd657680100000b1721bcfc9a0260401c5b6001602b1b821615612ff15768010000058b90cf1e6e0260401c5b6001602a1b82161561300c576801000002c5c863b73f0260401c5b600160291b82161561302757680100000162e430e5a20260401c5b600160281b821615613042576801000000b1721835510260401c5b600160271b82161561305d57680100000058b90c0b490260401c5b600160261b8216156130785768010000002c5c8601cc0260401c5b600160251b821615613093576801000000162e42fff00260401c5b600160241b8216156130ae5768010000000b17217fbb0260401c5b600160231b8216156130c9576801000000058b90bfce0260401c5b600160221b8216156130e457680100000002c5c85fe30260401c5b600160211b8216156130ff5768010000000162e42ff10260401c5b600160201b82161561311a57680100000000b17217f80260401c5b63800000008216156131355768010000000058b90bfc0260401c5b6340000000821615613150576801000000002c5c85fe0260401c5b632000000082161561316b57680100000000162e42ff0260401c5b6310000000821615613186576801000000000b17217f0260401c5b63080000008216156131a157680100000000058b90c00260401c5b63040000008216156131bc5768010000000002c5c8600260401c5b63020000008216156131d7576801000000000162e4300260401c5b63010000008216156131f25768010000000000b172180260401c5b6280000082161561320c576801000000000058b90c0260401c5b6240000082161561322657680100000000002c5c860260401c5b622000008216156132405768010000000000162e430260401c5b6210000082161561325a57680100000000000b17210260401c5b620800008216156132745768010000000000058b910260401c5b6204000082161561328e576801000000000002c5c80260401c5b620200008216156132a857680100000000000162e40260401c5b620100008216156132c15761b172600160401b010260401c5b6180008216156132d9576158b9600160401b010260401c5b6140008216156132f157612c5d600160401b010260401c5b6120008216156133095761162e600160401b010260401c5b61100082161561332157610b17600160401b010260401c5b6108008216156133395761058c600160401b010260401c5b610400821615613351576102c6600160401b010260401c5b61020082161561336957610163600160401b010260401c5b6101008216156133805760b1600160401b010260401c5b6080821615613396576059600160401b010260401c5b60408216156133ac57602c600160401b010260401c5b60208216156133c2576016600160401b010260401c5b60108216156133d857600b600160401b010260401c5b60088216156133ee576006600160401b010260401c5b6004821615613404576003600160401b010260401c5b600282161561341a576001600160401b010260401c5b6001821615613430576001600160401b010260401c5b670de0b6b3a76400000260409190911c60bf031c90565b604051806040016040528061345a61346c565b815260200161346761371b565b905290565b6040805160c081019091526000606082018181526080830182905260a0830191909152819081526020016134de60405180610100016040528060008152602001600081526020016000815260200160008152602001600081526020016000815260200160008152602001600081525090565b81526040805160208181019092526000815291015290565b604080516101608101909152600060608083018281526080840183905260a0840183905260c0840183905260e08401839052610100840192909252610120830181905261014083015281905b81526020016134de6040518060c001604052806000815260200160008152602001600081526020016000815260200160008152602001600081525090565b604080516101208101909152600060608083018281526080840183905260a0840183905260c0840183905260e084019290925261010083015281526020810161361660408051610140810190915280600081526020016000815260200160008152602001600081526020016000815260200160008152602001600081526020016000815260200160008152602001600081525090565b815260408051606081018252600080825260208281018290529282015291015290565b60408051608081018252600080825260208201819052918101829052606081019190915290565b6040518060800160405280613673613639565b815260200160008152602001600081526020016134676040518060c0016040528060001515815260200160008152602001600081526020016000815260200160008152602001600081525090565b604080516101208101909152600060608083018281526080840183905260a0840183905260c084019290925260e083018190526101008301528190613542565b604051806040016040528060008152602001600081525090565b604080516102a0810190915260006101a082018181526101c083018290526101e0830182905261020083018290526102208301829052610240830182905261026083018290526102808301919091528152602081016137786137ff565b81526020016137856137d7565b8152602001613792613701565b81526020016000815260200160008152602001600081526020016000815260200160008152602001600081526020016000815260200160008152602001600081525090565b6040518060800160405280600081526020016000815260200160008152602001600081525090565b6040518060e0016040528060008152602001600081526020016000815260200160008152602001600081526020016000151581526020016000151581525090565b6001600160a01b038116811461385557600080fd5b50565b634e487b7160e01b600052604160045260246000fd5b604051606081016001600160401b038111828210171561389057613890613858565b60405290565b60405161016081016001600160401b038111828210171561389057613890613858565b60405161010081016001600160401b038111828210171561389057613890613858565b60405160c081016001600160401b038111828210171561389057613890613858565b60405161014081016001600160401b038111828210171561389057613890613858565b604051608081016001600160401b038111828210171561389057613890613858565b604051601f8201601f191681016001600160401b038111828210171561396b5761396b613858565b604052919050565b60006001600160401b0382111561398c5761398c613858565b5060051b60200190565b6000604082840312156139a857600080fd5b604080519081016001600160401b03811182821017156139ca576139ca613858565b604052823581526020928301359281019290925250919050565b600060c082840312156139f657600080fd5b6139fe61386e565b9050613a0a8383613996565b8152613a198360408401613996565b6020820152613a2b8360808401613996565b604082015292915050565b600082601f830112613a4757600080fd5b81356020613a5c613a5783613973565b613943565b82815260c09283028501820192828201919087851115613a7b57600080fd5b8387015b8581101561229657613a9189826139e4565b8452928401928101613a7f565b60008060008060808587031215613ab457600080fd5b8435613abf81613840565b9350602085810135613ad081613840565b935060408601356001600160401b0380821115613aec57600080fd5b818801915088601f830112613b0057600080fd5b8135613b0e613a5782613973565b81815260059190911b8301840190848101908b831115613b2d57600080fd5b938501935b82851015613b4b57843582529385019390850190613b32565b965050506060880135925080831115613b6357600080fd5b5050613b7187828801613a36565b91505092959194509250565b6001600160a01b03169052565b805160018060a01b03808251168452806020830151166020850152806040830151166040850152505060208101518051606084015260208101516080840152604081015160a0840152606081015160c0840152608081015160e084015260a081015161010084015260c081015161012084015260e08101516101408401525060408101515115156101608301525050565b80518252602090810151910152565b613c35828251613b8a565b6020818101518051805161018086810191909152928101516001600160a01b039081166101a08701526040820151166101c086015260608101516101e0860152608081015161020086015260a081015161022086015260c081015161024086015260e00151610260850152906020828101518051610280870152908101516102a086015260408101516102c086015260608101516102e0860152608081015161030086015260a0810151151561032086015260c081015115156103408601525060408281015180516103608701526020810151610380870152908101516103a086015260608101516103c0860152506060820151613d376103e0860182613c1b565b50608082015161042085015260a082015161044085015260c082015161046085015260e08201516104808501526101008201516104a08501526101208201516104c08501526101408201516104e085015261016082015161050085015201516105209092019190915250565b6020808252825182820181905260009190848201906040850190845b81811015613de657613dd2838551613c2a565b928401926105409290920191600101613dbf565b50909695505050505050565b600060808284031215613e0457600080fd5b604051608081016001600160401b0381118282101715613e2657613e26613858565b6040529050808235613e3781613840565b81526020830135613e4781613840565b60208201526040830135613e5a81613840565b60408201526060830135613e6d81613840565b6060919091015292915050565b801515811461385557600080fd5b60008060008060008060006101a0888a031215613ea457600080fd5b8735613eaf81613840565b9650613ebe8960208a01613df2565b9550613ecd8960a08a01613996565b9450613edc8960e08a01613996565b9350613eec896101208a01613996565b92506101608801359150610180880135613f0581613e7a565b8091505092959891949750929550565b60008060408385031215613f2857600080fd5b8235613f3381613840565b946020939093013593505050565b61018081016105cf8284613b8a565b600081518084526020808501945080840160005b83811015613f895781516001600160a01b031687529582019590820190600101613f64565b509495945050505050565b602081526000825161010080602085015260018060a01b038251166101208501526020820151613fc8610140860182613b7d565b506040820151613fdc610160860182613b7d565b506060820151613ff0610180860182613b7d565b5060808201516140046101a0860182613b7d565b5060a08201516140186101c0860182613b7d565b5060c0820151816101e0860152614033610220860182613f50565b905060e0830151925061011f19858203016102008601526140548184613f50565b925050602085015161409e6040860182805182526020810151602083015260408101516040830152606081015160608301526080810151608083015260a081015160a08301525050565b50604085015180511515858301525090949350505050565b600080600080600061012086880312156140cf57600080fd5b85356140da81613840565b94506140e98760208801613df2565b93506140f88760a08801613996565b925060e086013561410881613e7a565b915061010086013561411981613e7a565b809150509295509295909350565b6000806000806080858703121561413d57600080fd5b843561414881613840565b9350602085013561415881613840565b93969395505050506040820135916060013590565b634e487b7160e01b600052602160045260246000fd5b600881106141935761419361416d565b9052565b600381106141935761419361416d565b6141b2828251614183565b60208101516141c46020840182614197565b5060408101516040830152606081015160608301526080810151608083015260a081015160a083015260c081015160c083015260e081015160e08301526101008082015181840152506101208082015181840152505050565b80516101c080845281516001600160a01b0390811691850191909152602082015181166101e0850152604082015181166102008501526060820151811661022085015260808201511661024084015260a0015160c0610260840152600090614289610280850182613f50565b9050602083015161429d60208601826141a7565b5060408381015180511515610160870152602081015115156101808701529081015115156101a0860152509392505050565b6000602080830181845280855180835260408601915060408160051b870101925083870160005b8281101561432457603f1988860301845261431285835161421d565b945092850192908501906001016142f6565b5092979650505050505050565b6020815260006105cc602083018461421d565b6000806040838503121561435757600080fd5b823561436281613840565b9150602083013561437281613840565b809150509250929050565b80516001600160a01b03908116835260208083015182169084015260408083015182169084015260609182015116910152565b608081016105cf828461437d565b6020808252825182820181905260009190848201906040850190845b81811015613de6576143ed838551613b8a565b9284019261018092909201916001016143da565b6000806000610100848603121561441757600080fd5b833561442281613840565b925061443185602086016139e4565b915060e084013561444181613840565b809150509250925092565b61445782825161437d565b60208101516080830152604081015160a083015260608101518051151560c0840152602081015160e084015260408101516101008401526060810151610120840152608081015161014084015260a0810151610160840152505050565b61018081016105cf828461444c565b600080600080600061014086880312156144dc57600080fd5b85356144e781613840565b945060208601356144f781613840565b935061450687604088016139e4565b925061010086013561451781613e7a565b915061012086013561411981613e7a565b6000806000806080858703121561453e57600080fd5b843561454981613840565b935060208501356001600160401b0381111561456457600080fd5b61457087828801613a36565b949794965050505060408301359260600135919050565b6020808252825182820181905260009190848201906040850190845b81811015613de6576145b683855161444c565b9284019261018092909201916001016145a3565b6000806000606084860312156145df57600080fd5b83356145ea81613840565b95602085013595506040909401359392505050565b6020808252825182820181905260009190848201906040850190845b81811015613de65761462e83855161437d565b928401926080929092019160010161461b565b602081526000825161010080602085015260018060a01b038083511661012086015280602084015116610140860152806040840151166101608601528060608401511661018086015250608082015160c06101a08601526146a66101e0860182613f50565b905060a0830151925061011f19858203016101c08601526140548184613f50565b60008060008060008061016087890312156146e157600080fd5b86356146ec81613840565b955060208701356146fc81613840565b94506040870135935061471288606089016139e4565b9250610120870135915061014087013561472b81613e7a565b809150509295509295509295565b61054081016105cf8284613c2a565b600080600080610100858703121561475f57600080fd5b843561476a81613840565b93506147798660208701613df2565b92506147888660a08701613996565b915060e085013561479881613e7a565b939692955090935050565b634e487b7160e01b600052603260045260246000fd5b634e487b7160e01b600052601160045260246000fd5b6000600182016147e1576147e16147b9565b5060010190565b6001600160a01b03881681526101a08101614806602083018961437d565b61481360a0830188613c1b565b61482060e0830187613c1b565b61482e610120830186613c1b565b8361016083015282151561018083015298975050505050505050565b60008082840361018081121561485f57600080fd5b8351925061016080601f198301121561487757600080fd5b61487f613896565b91506020850151825260408501516020830152606085015160408301526080850151606083015260a0850151608083015260c085015160a083015260e085015160c08301526101008086015160e08401526101208087015182850152610140915081870151818501525081860151818401525050809150509250929050565b6001600160a01b03929092168252602082015260400190565b8051612cea81613840565b60006020828403121561493457600080fd5b604051602081016001600160401b038111828210171561495657614956613858565b8060405250809150825161496981613e7a565b905292915050565b600081830361018081121561498557600080fd5b61498d61386e565b606082121561499b57600080fd5b6149a361386e565b84516149ae81613840565b815260208501516149be81613840565b602082015260408501516149d181613840565b60408201528152610100605f1983018113156149ec57600080fd5b6149f46138b9565b9250606085015183526080850151602084015260a0850151604084015260c0850151606084015260e085015160808401528085015160a08401525061012084015160c083015261014084015160e0830152816020820152614a59856101608601614922565b6040820152949350505050565b600082601f830112614a7757600080fd5b81516020614a87613a5783613973565b82815260059290921b84018101918181019086841115614aa657600080fd5b8286015b848110156107b8578051614abd81613840565b8352918301918301614aaa565b600060c08284031215614adc57600080fd5b614ae46138dc565b9050815181526020820151602082015260408201516040820152606082015160608201526080820151608082015260a082015160a082015292915050565b600060208284031215614b3457600080fd5b81516001600160401b0380821115614b4b57600080fd5b8184019150610100808387031215614b6257600080fd5b614b6a61386e565b835183811115614b7957600080fd5b8401808803831315614b8a57600080fd5b614b926138b9565b9250614b9d81614917565b8352614bab60208201614917565b6020840152614bbc60408201614917565b6040840152614bcd60608201614917565b6060840152614bde60808201614917565b6080840152614bef60a08201614917565b60a084015260c081015184811115614c0657600080fd5b614c1289828401614a66565b60c08501525060e081015184811115614c2a57600080fd5b614c3689828401614a66565b60e08501525050818152614c4d8760208601614aca565b6020820152614c5f8760e08601614922565b60408201529695505050505050565b805160088110612cea57600080fd5b805160038110612cea57600080fd5b60006101408284031215614c9f57600080fd5b614ca76138fe565b9050614cb282614c6e565b8152614cc060208301614c7d565b602082015260408201516040820152606082015160608201526080820151608082015260a082015160a082015260c082015160c082015260e082015160e082015261010080830151818301525061012080830151818301525092915050565b600060608284031215614d3157600080fd5b614d3961386e565b90508151614d4681613e7a565b81526020820151614d5681613e7a565b60208201526040820151613a2b81613e7a565b600060208284031215614d7b57600080fd5b81516001600160401b0380821115614d9257600080fd5b908301906101c08286031215614da757600080fd5b614daf61386e565b825182811115614dbe57600080fd5b830160c08188031215614dd057600080fd5b614dd86138dc565b8151614de381613840565b81526020820151614df381613840565b60208201526040820151614e0681613840565b6040820152614e1760608301614917565b6060820152614e2860808301614917565b608082015260a082015184811115614e3f57600080fd5b614e4b89828501614a66565b60a083015250825250614e618660208501614c8c565b6020820152614e74866101608501614d1f565b604082015295945050505050565b6001600160a01b0392831681529116602082015260400190565b600060808284031215614eae57600080fd5b614eb6613921565b8251614ec181613840565b81526020830151614ed181613840565b60208201526040830151614ee481613840565b60408201526060830151614ef781613840565b60608201529392505050565b614f0e828251613c1b565b6020810151614f206040840182613c1b565b506040810151614f336080840182613c1b565b505050565b6001600160a01b03841681526101608101614f56602083018561437d565b61044d60a0830184614f03565b600060c08284031215614f7557600080fd5b60405160c081016001600160401b0381118282101715614f9757614f97613858565b6040528251614fa581613e7a565b808252506020830151602082015260408301516040820152606083015160608201526080830151608082015260a083015160a08201528091505092915050565b600060208284031215614ff757600080fd5b81516001600160401b038082111561500e57600080fd5b90830190610100828603121561502357600080fd5b61502b61386e565b82518281111561503a57600080fd5b830160c0818803121561504c57600080fd5b6150546138dc565b61505d82614917565b815261506b60208301614917565b602082015261507c60408301614917565b604082015261508d60608301614917565b60608201526080820151848111156150a457600080fd5b6150b089828501614a66565b60808301525060a0820151848111156150c857600080fd5b6150d489828501614a66565b60a0830152508252506150ea8660208501614aca565b6020820152614e748660e08501614922565b6001600160a01b03851681526102e0810161511a6020830186613b8a565b6151286101a083018561437d565b61066d610220830184614f03565b60006020828403121561514857600080fd5b5051919050565b6001600160a01b03841681526080810161516c6020830185613c1b565b826060830152949350505050565b60006080828403121561518c57600080fd5b615194613921565b825181526020830151602082015260408301516040820152606083015160608201528091505092915050565b61020081016151cf8288613b8a565b6001600160a01b03958616610180830152939094166101a08501526101c08401919091526101e090920191909152919050565b600060e0828403121561521457600080fd5b60405160e081016001600160401b038111828210171561523657615236613858565b8060405250825181526020830151602082015260408301516040820152606083015160608201526080830151608082015260a083015161527581613e7a565b60a082015260c083015161528881613e7a565b60c08201529392505050565b60008160001904831182151516156152ae576152ae6147b9565b500290565b81810360008312801583831316838312821617156152d3576152d36147b9565b5092915050565b600060208083850312156152ed57600080fd5b82516001600160401b0381111561530357600080fd5b8301601f8101851361531457600080fd5b8051615322613a5782613973565b81815260059190911b8201830190838101908783111561534157600080fd5b928401925b82841015610be957835182529284019290840190615346565b60006020828403121561537157600080fd5b81516001600160401b0381111561538757600080fd5b61044d84828501614a66565b808201808211156105cf576105cf6147b9565b818103818111156105cf576105cf6147b9565b80820182811260008312801582168215821617156153d9576153d96147b9565b505092915050565b634e487b7160e01b600052601260045260246000fd5b60008261541457634e487b7160e01b600052601260045260246000fd5b500490565b6000600160ff1b820161542e5761542e6147b9565b5060000390565b6001600160a01b0391909116815260200190565b60006020828403121561545b57600080fd5b8151610b5681613840565b6000806040838503121561547957600080fd5b50508051602090910151909290915056fea2646970667358221220d06dc720260b0a4f4bdf382bfcf22de2c7dad4c71c6d3083c55023b81102229d64736f6c63430008100033",
  "linkReferences": {
    "contracts/deposit/DepositStoreUtils.sol": {
      "DepositStoreUtils": [
        {
          "length": 20,
          "start": 1548
        }
      ]
    },
    "contracts/market/MarketStoreUtils.sol": {
      "MarketStoreUtils": [
        {
          "length": 20,
          "start": 2176
        },
        {
          "length": 20,
          "start": 2628
        },
        {
          "length": 20,
          "start": 2946
        },
        {
          "length": 20,
          "start": 3494
        },
        {
          "length": 20,
          "start": 3951
        }
      ]
    },
    "contracts/market/MarketUtils.sol": {
      "MarketUtils": [
        {
          "length": 20,
          "start": 1251
        }
      ]
    },
    "contracts/order/OrderStoreUtils.sol": {
      "OrderStoreUtils": [
        {
          "length": 20,
          "start": 1835
        },
        {
          "length": 20,
          "start": 2042
        }
      ]
    },
    "contracts/position/PositionStoreUtils.sol": {
      "PositionStoreUtils": [
        {
          "length": 20,
          "start": 1408
        },
        {
          "length": 20,
          "start": 2432
        },
        {
          "length": 20,
          "start": 3837
        }
      ]
    },
    "contracts/reader/ReaderUtils.sol": {
      "ReaderUtils": [
        {
          "length": 20,
          "start": 2775
        },
        {
          "length": 20,
          "start": 4156
        },
        {
          "length": 20,
          "start": 4298
        },
        {
          "length": 20,
          "start": 4419
        },
        {
          "length": 20,
          "start": 4618
        }
      ]
    },
    "contracts/withdrawal/WithdrawalStoreUtils.sol": {
      "WithdrawalStoreUtils": [
        {
          "length": 20,
          "start": 3700
        }
      ]
    }
  },
  "deployedLinkReferences": {
    "contracts/deposit/DepositStoreUtils.sol": {
      "DepositStoreUtils": [
        {
          "length": 20,
          "start": 1516
        }
      ]
    },
    "contracts/market/MarketStoreUtils.sol": {
      "MarketStoreUtils": [
        {
          "length": 20,
          "start": 2144
        },
        {
          "length": 20,
          "start": 2596
        },
        {
          "length": 20,
          "start": 2914
        },
        {
          "length": 20,
          "start": 3462
        },
        {
          "length": 20,
          "start": 3919
        }
      ]
    },
    "contracts/market/MarketUtils.sol": {
      "MarketUtils": [
        {
          "length": 20,
          "start": 1219
        }
      ]
    },
    "contracts/order/OrderStoreUtils.sol": {
      "OrderStoreUtils": [
        {
          "length": 20,
          "start": 1803
        },
        {
          "length": 20,
          "start": 2010
        }
      ]
    },
    "contracts/position/PositionStoreUtils.sol": {
      "PositionStoreUtils": [
        {
          "length": 20,
          "start": 1376
        },
        {
          "length": 20,
          "start": 2400
        },
        {
          "length": 20,
          "start": 3805
        }
      ]
    },
    "contracts/reader/ReaderUtils.sol": {
      "ReaderUtils": [
        {
          "length": 20,
          "start": 2743
        },
        {
          "length": 20,
          "start": 4124
        },
        {
          "length": 20,
          "start": 4266
        },
        {
          "length": 20,
          "start": 4387
        },
        {
          "length": 20,
          "start": 4586
        }
      ]
    },
    "contracts/withdrawal/WithdrawalStoreUtils.sol": {
      "WithdrawalStoreUtils": [
        {
          "length": 20,
          "start": 3668
        }
      ]
    }
  }
}