{
  "_format": "hh-sol-artifact-1",
  "contractName": "Reader",
  "sourceName": "contracts/reader/Reader.sol",
  "abi": [
    {
      "inputs": [
        {
          "internalType": "contract DataStore",
          "name": "dataStore",
          "type": "address"
        },
        {
          "internalType": "address",
          "name": "account",
          "type": "address"
        },
        {
          "internalType": "uint256",
          "name": "start",
          "type": "uint256"
        },
        {
          "internalType": "uint256",
          "name": "end",
          "type": "uint256"
        }
      ],
      "name": "getAccountOrders",
      "outputs": [
        {
          "components": [
            {
              "components": [
                {
                  "internalType": "address",
                  "name": "account",
                  "type": "address"
                },
                {
                  "internalType": "address",
                  "name": "receiver",
                  "type": "address"
                },
                {
                  "internalType": "address",
                  "name": "callbackContract",
                  "type": "address"
                },
                {
                  "internalType": "address",
                  "name": "market",
                  "type": "address"
                },
                {
                  "internalType": "address",
                  "name": "initialCollateralToken",
                  "type": "address"
                },
                {
                  "internalType": "address[]",
                  "name": "swapPath",
                  "type": "address[]"
                }
              ],
              "internalType": "struct Order.Addresses",
              "name": "addresses",
              "type": "tuple"
            },
            {
              "components": [
                {
                  "internalType": "enum Order.OrderType",
                  "name": "orderType",
                  "type": "uint8"
                },
                {
                  "internalType": "enum Order.DecreasePositionSwapType",
                  "name": "decreasePositionSwapType",
                  "type": "uint8"
                },
                {
                  "internalType": "uint256",
                  "name": "sizeDeltaUsd",
                  "type": "uint256"
                },
                {
                  "internalType": "uint256",
                  "name": "initialCollateralDeltaAmount",
                  "type": "uint256"
                },
                {
                  "internalType": "uint256",
                  "name": "triggerPrice",
                  "type": "uint256"
                },
                {
                  "internalType": "uint256",
                  "name": "acceptablePrice",
                  "type": "uint256"
                },
                {
                  "internalType": "uint256",
                  "name": "executionFee",
                  "type": "uint256"
                },
                {
                  "internalType": "uint256",
                  "name": "callbackGasLimit",
                  "type": "uint256"
                },
                {
                  "internalType": "uint256",
                  "name": "minOutputAmount",
                  "type": "uint256"
                },
                {
                  "internalType": "uint256",
                  "name": "updatedAtBlock",
                  "type": "uint256"
                }
              ],
              "internalType": "struct Order.Numbers",
              "name": "numbers",
              "type": "tuple"
            },
            {
              "components": [
                {
                  "internalType": "bool",
                  "name": "isLong",
                  "type": "bool"
                },
                {
                  "internalType": "bool",
                  "name": "shouldUnwrapNativeToken",
                  "type": "bool"
                },
                {
                  "internalType": "bool",
                  "name": "isFrozen",
                  "type": "bool"
                }
              ],
              "internalType": "struct Order.Flags",
              "name": "flags",
              "type": "tuple"
            }
          ],
          "internalType": "struct Order.Props[]",
          "name": "",
          "type": "tuple[]"
        }
      ],
      "stateMutability": "view",
      "type": "function"
    },
    {
      "inputs": [
        {
          "internalType": "contract DataStore",
          "name": "dataStore",
          "type": "address"
        },
        {
          "internalType": "address",
          "name": "account",
          "type": "address"
        },
        {
          "internalType": "uint256",
          "name": "start",
          "type": "uint256"
        },
        {
          "internalType": "uint256",
          "name": "end",
          "type": "uint256"
        }
      ],
      "name": "getAccountPositionInfoList",
      "outputs": [
        {
          "components": [
            {
              "components": [
                {
                  "components": [
                    {
                      "internalType": "address",
                      "name": "account",
                      "type": "address"
                    },
                    {
                      "internalType": "address",
                      "name": "market",
                      "type": "address"
                    },
                    {
                      "internalType": "address",
                      "name": "collateralToken",
                      "type": "address"
                    }
                  ],
                  "internalType": "struct Position.Addresses",
                  "name": "addresses",
                  "type": "tuple"
                },
                {
                  "components": [
                    {
                      "internalType": "uint256",
                      "name": "sizeInUsd",
                      "type": "uint256"
                    },
                    {
                      "internalType": "uint256",
                      "name": "sizeInTokens",
                      "type": "uint256"
                    },
                    {
                      "internalType": "uint256",
                      "name": "collateralAmount",
                      "type": "uint256"
                    },
                    {
                      "internalType": "uint256",
                      "name": "borrowingFactor",
                      "type": "uint256"
                    },
                    {
                      "internalType": "int256",
                      "name": "longTokenFundingAmountPerSize",
                      "type": "int256"
                    },
                    {
                      "internalType": "int256",
                      "name": "shortTokenFundingAmountPerSize",
                      "type": "int256"
                    },
                    {
                      "internalType": "uint256",
                      "name": "increasedAtBlock",
                      "type": "uint256"
                    },
                    {
                      "internalType": "uint256",
                      "name": "decreasedAtBlock",
                      "type": "uint256"
                    }
                  ],
                  "internalType": "struct Position.Numbers",
                  "name": "numbers",
                  "type": "tuple"
                },
                {
                  "components": [
                    {
                      "internalType": "bool",
                      "name": "isLong",
                      "type": "bool"
                    }
                  ],
                  "internalType": "struct Position.Flags",
                  "name": "flags",
                  "type": "tuple"
                }
              ],
              "internalType": "struct Position.Props",
              "name": "position",
              "type": "tuple"
            },
            {
              "internalType": "uint256",
              "name": "pendingBorrowingFees",
              "type": "uint256"
            },
            {
              "components": [
                {
                  "internalType": "uint256",
                  "name": "fundingFeeAmount",
                  "type": "uint256"
                },
                {
                  "internalType": "uint256",
                  "name": "claimableLongTokenAmount",
                  "type": "uint256"
                },
                {
                  "internalType": "uint256",
                  "name": "claimableShortTokenAmount",
                  "type": "uint256"
                },
                {
                  "internalType": "int256",
                  "name": "latestLongTokenFundingAmountPerSize",
                  "type": "int256"
                },
                {
                  "internalType": "int256",
                  "name": "latestShortTokenFundingAmountPerSize",
                  "type": "int256"
                },
                {
                  "internalType": "bool",
                  "name": "hasPendingLongTokenFundingFee",
                  "type": "bool"
                },
                {
                  "internalType": "bool",
                  "name": "hasPendingShortTokenFundingFee",
                  "type": "bool"
                }
              ],
              "internalType": "struct PositionPricingUtils.PositionFundingFees",
              "name": "pendingFundingFees",
              "type": "tuple"
            }
          ],
          "internalType": "struct Reader.PositionInfo[]",
          "name": "",
          "type": "tuple[]"
        }
      ],
      "stateMutability": "view",
      "type": "function"
    },
    {
      "inputs": [
        {
          "internalType": "contract DataStore",
          "name": "dataStore",
          "type": "address"
        },
        {
          "internalType": "address",
          "name": "account",
          "type": "address"
        },
        {
          "internalType": "uint256",
          "name": "start",
          "type": "uint256"
        },
        {
          "internalType": "uint256",
          "name": "end",
          "type": "uint256"
        }
      ],
      "name": "getAccountPositions",
      "outputs": [
        {
          "components": [
            {
              "components": [
                {
                  "internalType": "address",
                  "name": "account",
                  "type": "address"
                },
                {
                  "internalType": "address",
                  "name": "market",
                  "type": "address"
                },
                {
                  "internalType": "address",
                  "name": "collateralToken",
                  "type": "address"
                }
              ],
              "internalType": "struct Position.Addresses",
              "name": "addresses",
              "type": "tuple"
            },
            {
              "components": [
                {
                  "internalType": "uint256",
                  "name": "sizeInUsd",
                  "type": "uint256"
                },
                {
                  "internalType": "uint256",
                  "name": "sizeInTokens",
                  "type": "uint256"
                },
                {
                  "internalType": "uint256",
                  "name": "collateralAmount",
                  "type": "uint256"
                },
                {
                  "internalType": "uint256",
                  "name": "borrowingFactor",
                  "type": "uint256"
                },
                {
                  "internalType": "int256",
                  "name": "longTokenFundingAmountPerSize",
                  "type": "int256"
                },
                {
                  "internalType": "int256",
                  "name": "shortTokenFundingAmountPerSize",
                  "type": "int256"
                },
                {
                  "internalType": "uint256",
                  "name": "increasedAtBlock",
                  "type": "uint256"
                },
                {
                  "internalType": "uint256",
                  "name": "decreasedAtBlock",
                  "type": "uint256"
                }
              ],
              "internalType": "struct Position.Numbers",
              "name": "numbers",
              "type": "tuple"
            },
            {
              "components": [
                {
                  "internalType": "bool",
                  "name": "isLong",
                  "type": "bool"
                }
              ],
              "internalType": "struct Position.Flags",
              "name": "flags",
              "type": "tuple"
            }
          ],
          "internalType": "struct Position.Props[]",
          "name": "",
          "type": "tuple[]"
        }
      ],
      "stateMutability": "view",
      "type": "function"
    },
    {
      "inputs": [
        {
          "internalType": "contract DataStore",
          "name": "dataStore",
          "type": "address"
        },
        {
          "internalType": "bytes32",
          "name": "key",
          "type": "bytes32"
        }
      ],
      "name": "getDeposit",
      "outputs": [
        {
          "components": [
            {
              "components": [
                {
                  "internalType": "address",
                  "name": "account",
                  "type": "address"
                },
                {
                  "internalType": "address",
                  "name": "receiver",
                  "type": "address"
                },
                {
                  "internalType": "address",
                  "name": "callbackContract",
                  "type": "address"
                },
                {
                  "internalType": "address",
                  "name": "market",
                  "type": "address"
                },
                {
                  "internalType": "address",
                  "name": "initialLongToken",
                  "type": "address"
                },
                {
                  "internalType": "address",
                  "name": "initialShortToken",
                  "type": "address"
                },
                {
                  "internalType": "address[]",
                  "name": "longTokenSwapPath",
                  "type": "address[]"
                },
                {
                  "internalType": "address[]",
                  "name": "shortTokenSwapPath",
                  "type": "address[]"
                }
              ],
              "internalType": "struct Deposit.Addresses",
              "name": "addresses",
              "type": "tuple"
            },
            {
              "components": [
                {
                  "internalType": "uint256",
                  "name": "initialLongTokenAmount",
                  "type": "uint256"
                },
                {
                  "internalType": "uint256",
                  "name": "initialShortTokenAmount",
                  "type": "uint256"
                },
                {
                  "internalType": "uint256",
                  "name": "minMarketTokens",
                  "type": "uint256"
                },
                {
                  "internalType": "uint256",
                  "name": "updatedAtBlock",
                  "type": "uint256"
                },
                {
                  "internalType": "uint256",
                  "name": "executionFee",
                  "type": "uint256"
                },
                {
                  "internalType": "uint256",
                  "name": "callbackGasLimit",
                  "type": "uint256"
                }
              ],
              "internalType": "struct Deposit.Numbers",
              "name": "numbers",
              "type": "tuple"
            },
            {
              "components": [
                {
                  "internalType": "bool",
                  "name": "shouldUnwrapNativeToken",
                  "type": "bool"
                }
              ],
              "internalType": "struct Deposit.Flags",
              "name": "flags",
              "type": "tuple"
            }
          ],
          "internalType": "struct Deposit.Props",
          "name": "",
          "type": "tuple"
        }
      ],
      "stateMutability": "view",
      "type": "function"
    },
    {
      "inputs": [
        {
          "internalType": "contract DataStore",
          "name": "dataStore",
          "type": "address"
        },
        {
          "internalType": "address",
          "name": "key",
          "type": "address"
        }
      ],
      "name": "getMarket",
      "outputs": [
        {
          "components": [
            {
              "internalType": "address",
              "name": "marketToken",
              "type": "address"
            },
            {
              "internalType": "address",
              "name": "indexToken",
              "type": "address"
            },
            {
              "internalType": "address",
              "name": "longToken",
              "type": "address"
            },
            {
              "internalType": "address",
              "name": "shortToken",
              "type": "address"
            }
          ],
          "internalType": "struct Market.Props",
          "name": "",
          "type": "tuple"
        }
      ],
      "stateMutability": "view",
      "type": "function"
    },
    {
      "inputs": [
        {
          "internalType": "contract DataStore",
          "name": "dataStore",
          "type": "address"
        },
        {
          "components": [
            {
              "components": [
                {
                  "internalType": "uint256",
                  "name": "min",
                  "type": "uint256"
                },
                {
                  "internalType": "uint256",
                  "name": "max",
                  "type": "uint256"
                }
              ],
              "internalType": "struct Price.Props",
              "name": "indexTokenPrice",
              "type": "tuple"
            },
            {
              "components": [
                {
                  "internalType": "uint256",
                  "name": "min",
                  "type": "uint256"
                },
                {
                  "internalType": "uint256",
                  "name": "max",
                  "type": "uint256"
                }
              ],
              "internalType": "struct Price.Props",
              "name": "longTokenPrice",
              "type": "tuple"
            },
            {
              "components": [
                {
                  "internalType": "uint256",
                  "name": "min",
                  "type": "uint256"
                },
                {
                  "internalType": "uint256",
                  "name": "max",
                  "type": "uint256"
                }
              ],
              "internalType": "struct Price.Props",
              "name": "shortTokenPrice",
              "type": "tuple"
            }
          ],
          "internalType": "struct MarketUtils.MarketPrices",
          "name": "prices",
          "type": "tuple"
        },
        {
          "internalType": "address",
          "name": "marketKey",
          "type": "address"
        }
      ],
      "name": "getMarketInfo",
      "outputs": [
        {
          "components": [
            {
              "components": [
                {
                  "internalType": "address",
                  "name": "marketToken",
                  "type": "address"
                },
                {
                  "internalType": "address",
                  "name": "indexToken",
                  "type": "address"
                },
                {
                  "internalType": "address",
                  "name": "longToken",
                  "type": "address"
                },
                {
                  "internalType": "address",
                  "name": "shortToken",
                  "type": "address"
                }
              ],
              "internalType": "struct Market.Props",
              "name": "market",
              "type": "tuple"
            },
            {
              "internalType": "uint256",
              "name": "borrowingFactorPerSecondForLongs",
              "type": "uint256"
            },
            {
              "internalType": "uint256",
              "name": "borrowingFactorPerSecondForShorts",
              "type": "uint256"
            },
            {
              "components": [
                {
                  "internalType": "bool",
                  "name": "longsPayShorts",
                  "type": "bool"
                },
                {
                  "internalType": "int256",
                  "name": "fundingAmountPerSize_LongCollateral_LongPosition",
                  "type": "int256"
                },
                {
                  "internalType": "int256",
                  "name": "fundingAmountPerSize_LongCollateral_ShortPosition",
                  "type": "int256"
                },
                {
                  "internalType": "int256",
                  "name": "fundingAmountPerSize_ShortCollateral_LongPosition",
                  "type": "int256"
                },
                {
                  "internalType": "int256",
                  "name": "fundingAmountPerSize_ShortCollateral_ShortPosition",
                  "type": "int256"
                }
              ],
              "internalType": "struct MarketUtils.GetNextFundingAmountPerSizeResult",
              "name": "funding",
              "type": "tuple"
            }
          ],
          "internalType": "struct Reader.MarketInfo",
          "name": "",
          "type": "tuple"
        }
      ],
      "stateMutability": "view",
      "type": "function"
    },
    {
      "inputs": [
        {
          "internalType": "contract DataStore",
          "name": "dataStore",
          "type": "address"
        },
        {
          "components": [
            {
              "components": [
                {
                  "internalType": "uint256",
                  "name": "min",
                  "type": "uint256"
                },
                {
                  "internalType": "uint256",
                  "name": "max",
                  "type": "uint256"
                }
              ],
              "internalType": "struct Price.Props",
              "name": "indexTokenPrice",
              "type": "tuple"
            },
            {
              "components": [
                {
                  "internalType": "uint256",
                  "name": "min",
                  "type": "uint256"
                },
                {
                  "internalType": "uint256",
                  "name": "max",
                  "type": "uint256"
                }
              ],
              "internalType": "struct Price.Props",
              "name": "longTokenPrice",
              "type": "tuple"
            },
            {
              "components": [
                {
                  "internalType": "uint256",
                  "name": "min",
                  "type": "uint256"
                },
                {
                  "internalType": "uint256",
                  "name": "max",
                  "type": "uint256"
                }
              ],
              "internalType": "struct Price.Props",
              "name": "shortTokenPrice",
              "type": "tuple"
            }
          ],
          "internalType": "struct MarketUtils.MarketPrices[]",
          "name": "marketPricesList",
          "type": "tuple[]"
        },
        {
          "internalType": "uint256",
          "name": "start",
          "type": "uint256"
        },
        {
          "internalType": "uint256",
          "name": "end",
          "type": "uint256"
        }
      ],
      "name": "getMarketInfoList",
      "outputs": [
        {
          "components": [
            {
              "components": [
                {
                  "internalType": "address",
                  "name": "marketToken",
                  "type": "address"
                },
                {
                  "internalType": "address",
                  "name": "indexToken",
                  "type": "address"
                },
                {
                  "internalType": "address",
                  "name": "longToken",
                  "type": "address"
                },
                {
                  "internalType": "address",
                  "name": "shortToken",
                  "type": "address"
                }
              ],
              "internalType": "struct Market.Props",
              "name": "market",
              "type": "tuple"
            },
            {
              "internalType": "uint256",
              "name": "borrowingFactorPerSecondForLongs",
              "type": "uint256"
            },
            {
              "internalType": "uint256",
              "name": "borrowingFactorPerSecondForShorts",
              "type": "uint256"
            },
            {
              "components": [
                {
                  "internalType": "bool",
                  "name": "longsPayShorts",
                  "type": "bool"
                },
                {
                  "internalType": "int256",
                  "name": "fundingAmountPerSize_LongCollateral_LongPosition",
                  "type": "int256"
                },
                {
                  "internalType": "int256",
                  "name": "fundingAmountPerSize_LongCollateral_ShortPosition",
                  "type": "int256"
                },
                {
                  "internalType": "int256",
                  "name": "fundingAmountPerSize_ShortCollateral_LongPosition",
                  "type": "int256"
                },
                {
                  "internalType": "int256",
                  "name": "fundingAmountPerSize_ShortCollateral_ShortPosition",
                  "type": "int256"
                }
              ],
              "internalType": "struct MarketUtils.GetNextFundingAmountPerSizeResult",
              "name": "funding",
              "type": "tuple"
            }
          ],
          "internalType": "struct Reader.MarketInfo[]",
          "name": "",
          "type": "tuple[]"
        }
      ],
      "stateMutability": "view",
      "type": "function"
    },
    {
      "inputs": [
        {
          "internalType": "contract DataStore",
          "name": "dataStore",
          "type": "address"
        },
        {
          "components": [
            {
              "internalType": "address",
              "name": "marketToken",
              "type": "address"
            },
            {
              "internalType": "address",
              "name": "indexToken",
              "type": "address"
            },
            {
              "internalType": "address",
              "name": "longToken",
              "type": "address"
            },
            {
              "internalType": "address",
              "name": "shortToken",
              "type": "address"
            }
          ],
          "internalType": "struct Market.Props",
          "name": "market",
          "type": "tuple"
        },
        {
          "components": [
            {
              "internalType": "uint256",
              "name": "min",
              "type": "uint256"
            },
            {
              "internalType": "uint256",
              "name": "max",
              "type": "uint256"
            }
          ],
          "internalType": "struct Price.Props",
          "name": "indexTokenPrice",
          "type": "tuple"
        },
        {
          "components": [
            {
              "internalType": "uint256",
              "name": "min",
              "type": "uint256"
            },
            {
              "internalType": "uint256",
              "name": "max",
              "type": "uint256"
            }
          ],
          "internalType": "struct Price.Props",
          "name": "longTokenPrice",
          "type": "tuple"
        },
        {
          "components": [
            {
              "internalType": "uint256",
              "name": "min",
              "type": "uint256"
            },
            {
              "internalType": "uint256",
              "name": "max",
              "type": "uint256"
            }
          ],
          "internalType": "struct Price.Props",
          "name": "shortTokenPrice",
          "type": "tuple"
        },
        {
          "internalType": "bool",
          "name": "maximize",
          "type": "bool"
        }
      ],
      "name": "getMarketTokenPrice",
      "outputs": [
        {
          "internalType": "int256",
          "name": "",
          "type": "int256"
        }
      ],
      "stateMutability": "view",
      "type": "function"
    },
    {
      "inputs": [
        {
          "internalType": "contract DataStore",
          "name": "dataStore",
          "type": "address"
        },
        {
          "internalType": "uint256",
          "name": "start",
          "type": "uint256"
        },
        {
          "internalType": "uint256",
          "name": "end",
          "type": "uint256"
        }
      ],
      "name": "getMarkets",
      "outputs": [
        {
          "components": [
            {
              "internalType": "address",
              "name": "marketToken",
              "type": "address"
            },
            {
              "internalType": "address",
              "name": "indexToken",
              "type": "address"
            },
            {
              "internalType": "address",
              "name": "longToken",
              "type": "address"
            },
            {
              "internalType": "address",
              "name": "shortToken",
              "type": "address"
            }
          ],
          "internalType": "struct Market.Props[]",
          "name": "",
          "type": "tuple[]"
        }
      ],
      "stateMutability": "view",
      "type": "function"
    },
    {
      "inputs": [
        {
          "internalType": "contract DataStore",
          "name": "dataStore",
          "type": "address"
        },
        {
          "internalType": "address",
          "name": "market",
          "type": "address"
        },
        {
          "internalType": "address",
          "name": "longToken",
          "type": "address"
        },
        {
          "internalType": "address",
          "name": "shortToken",
          "type": "address"
        },
        {
          "components": [
            {
              "internalType": "uint256",
              "name": "min",
              "type": "uint256"
            },
            {
              "internalType": "uint256",
              "name": "max",
              "type": "uint256"
            }
          ],
          "internalType": "struct Price.Props",
          "name": "indexTokenPrice",
          "type": "tuple"
        },
        {
          "internalType": "bool",
          "name": "maximize",
          "type": "bool"
        }
      ],
      "name": "getNetPnl",
      "outputs": [
        {
          "internalType": "int256",
          "name": "",
          "type": "int256"
        }
      ],
      "stateMutability": "view",
      "type": "function"
    },
    {
      "inputs": [
        {
          "internalType": "contract DataStore",
          "name": "dataStore",
          "type": "address"
        },
        {
          "internalType": "address",
          "name": "market",
          "type": "address"
        },
        {
          "internalType": "address",
          "name": "longToken",
          "type": "address"
        },
        {
          "internalType": "address",
          "name": "shortToken",
          "type": "address"
        },
        {
          "components": [
            {
              "internalType": "uint256",
              "name": "min",
              "type": "uint256"
            },
            {
              "internalType": "uint256",
              "name": "max",
              "type": "uint256"
            }
          ],
          "internalType": "struct Price.Props",
          "name": "indexTokenPrice",
          "type": "tuple"
        },
        {
          "internalType": "bool",
          "name": "isLong",
          "type": "bool"
        },
        {
          "internalType": "bool",
          "name": "maximize",
          "type": "bool"
        }
      ],
      "name": "getOpenInterestWithPnl",
      "outputs": [
        {
          "internalType": "int256",
          "name": "",
          "type": "int256"
        }
      ],
      "stateMutability": "view",
      "type": "function"
    },
    {
      "inputs": [
        {
          "internalType": "contract DataStore",
          "name": "dataStore",
          "type": "address"
        },
        {
          "internalType": "bytes32",
          "name": "key",
          "type": "bytes32"
        }
      ],
      "name": "getOrder",
      "outputs": [
        {
          "components": [
            {
              "components": [
                {
                  "internalType": "address",
                  "name": "account",
                  "type": "address"
                },
                {
                  "internalType": "address",
                  "name": "receiver",
                  "type": "address"
                },
                {
                  "internalType": "address",
                  "name": "callbackContract",
                  "type": "address"
                },
                {
                  "internalType": "address",
                  "name": "market",
                  "type": "address"
                },
                {
                  "internalType": "address",
                  "name": "initialCollateralToken",
                  "type": "address"
                },
                {
                  "internalType": "address[]",
                  "name": "swapPath",
                  "type": "address[]"
                }
              ],
              "internalType": "struct Order.Addresses",
              "name": "addresses",
              "type": "tuple"
            },
            {
              "components": [
                {
                  "internalType": "enum Order.OrderType",
                  "name": "orderType",
                  "type": "uint8"
                },
                {
                  "internalType": "enum Order.DecreasePositionSwapType",
                  "name": "decreasePositionSwapType",
                  "type": "uint8"
                },
                {
                  "internalType": "uint256",
                  "name": "sizeDeltaUsd",
                  "type": "uint256"
                },
                {
                  "internalType": "uint256",
                  "name": "initialCollateralDeltaAmount",
                  "type": "uint256"
                },
                {
                  "internalType": "uint256",
                  "name": "triggerPrice",
                  "type": "uint256"
                },
                {
                  "internalType": "uint256",
                  "name": "acceptablePrice",
                  "type": "uint256"
                },
                {
                  "internalType": "uint256",
                  "name": "executionFee",
                  "type": "uint256"
                },
                {
                  "internalType": "uint256",
                  "name": "callbackGasLimit",
                  "type": "uint256"
                },
                {
                  "internalType": "uint256",
                  "name": "minOutputAmount",
                  "type": "uint256"
                },
                {
                  "internalType": "uint256",
                  "name": "updatedAtBlock",
                  "type": "uint256"
                }
              ],
              "internalType": "struct Order.Numbers",
              "name": "numbers",
              "type": "tuple"
            },
            {
              "components": [
                {
                  "internalType": "bool",
                  "name": "isLong",
                  "type": "bool"
                },
                {
                  "internalType": "bool",
                  "name": "shouldUnwrapNativeToken",
                  "type": "bool"
                },
                {
                  "internalType": "bool",
                  "name": "isFrozen",
                  "type": "bool"
                }
              ],
              "internalType": "struct Order.Flags",
              "name": "flags",
              "type": "tuple"
            }
          ],
          "internalType": "struct Order.Props",
          "name": "",
          "type": "tuple"
        }
      ],
      "stateMutability": "view",
      "type": "function"
    },
    {
      "inputs": [
        {
          "internalType": "contract DataStore",
          "name": "dataStore",
          "type": "address"
        },
        {
          "internalType": "address",
          "name": "market",
          "type": "address"
        },
        {
          "internalType": "address",
          "name": "longToken",
          "type": "address"
        },
        {
          "internalType": "address",
          "name": "shortToken",
          "type": "address"
        },
        {
          "components": [
            {
              "internalType": "uint256",
              "name": "min",
              "type": "uint256"
            },
            {
              "internalType": "uint256",
              "name": "max",
              "type": "uint256"
            }
          ],
          "internalType": "struct Price.Props",
          "name": "indexTokenPrice",
          "type": "tuple"
        },
        {
          "internalType": "bool",
          "name": "isLong",
          "type": "bool"
        },
        {
          "internalType": "bool",
          "name": "maximize",
          "type": "bool"
        }
      ],
      "name": "getPnl",
      "outputs": [
        {
          "internalType": "int256",
          "name": "",
          "type": "int256"
        }
      ],
      "stateMutability": "view",
      "type": "function"
    },
    {
      "inputs": [
        {
          "internalType": "contract DataStore",
          "name": "dataStore",
          "type": "address"
        },
        {
          "internalType": "address",
          "name": "marketAddress",
          "type": "address"
        },
        {
          "components": [
            {
              "components": [
                {
                  "internalType": "uint256",
                  "name": "min",
                  "type": "uint256"
                },
                {
                  "internalType": "uint256",
                  "name": "max",
                  "type": "uint256"
                }
              ],
              "internalType": "struct Price.Props",
              "name": "indexTokenPrice",
              "type": "tuple"
            },
            {
              "components": [
                {
                  "internalType": "uint256",
                  "name": "min",
                  "type": "uint256"
                },
                {
                  "internalType": "uint256",
                  "name": "max",
                  "type": "uint256"
                }
              ],
              "internalType": "struct Price.Props",
              "name": "longTokenPrice",
              "type": "tuple"
            },
            {
              "components": [
                {
                  "internalType": "uint256",
                  "name": "min",
                  "type": "uint256"
                },
                {
                  "internalType": "uint256",
                  "name": "max",
                  "type": "uint256"
                }
              ],
              "internalType": "struct Price.Props",
              "name": "shortTokenPrice",
              "type": "tuple"
            }
          ],
          "internalType": "struct MarketUtils.MarketPrices",
          "name": "prices",
          "type": "tuple"
        },
        {
          "internalType": "bool",
          "name": "isLong",
          "type": "bool"
        },
        {
          "internalType": "bool",
          "name": "maximize",
          "type": "bool"
        }
      ],
      "name": "getPnlToPoolFactor",
      "outputs": [
        {
          "internalType": "int256",
          "name": "",
          "type": "int256"
        }
      ],
      "stateMutability": "view",
      "type": "function"
    },
    {
      "inputs": [
        {
          "internalType": "contract DataStore",
          "name": "dataStore",
          "type": "address"
        },
        {
          "internalType": "bytes32",
          "name": "key",
          "type": "bytes32"
        }
      ],
      "name": "getPosition",
      "outputs": [
        {
          "components": [
            {
              "components": [
                {
                  "internalType": "address",
                  "name": "account",
                  "type": "address"
                },
                {
                  "internalType": "address",
                  "name": "market",
                  "type": "address"
                },
                {
                  "internalType": "address",
                  "name": "collateralToken",
                  "type": "address"
                }
              ],
              "internalType": "struct Position.Addresses",
              "name": "addresses",
              "type": "tuple"
            },
            {
              "components": [
                {
                  "internalType": "uint256",
                  "name": "sizeInUsd",
                  "type": "uint256"
                },
                {
                  "internalType": "uint256",
                  "name": "sizeInTokens",
                  "type": "uint256"
                },
                {
                  "internalType": "uint256",
                  "name": "collateralAmount",
                  "type": "uint256"
                },
                {
                  "internalType": "uint256",
                  "name": "borrowingFactor",
                  "type": "uint256"
                },
                {
                  "internalType": "int256",
                  "name": "longTokenFundingAmountPerSize",
                  "type": "int256"
                },
                {
                  "internalType": "int256",
                  "name": "shortTokenFundingAmountPerSize",
                  "type": "int256"
                },
                {
                  "internalType": "uint256",
                  "name": "increasedAtBlock",
                  "type": "uint256"
                },
                {
                  "internalType": "uint256",
                  "name": "decreasedAtBlock",
                  "type": "uint256"
                }
              ],
              "internalType": "struct Position.Numbers",
              "name": "numbers",
              "type": "tuple"
            },
            {
              "components": [
                {
                  "internalType": "bool",
                  "name": "isLong",
                  "type": "bool"
                }
              ],
              "internalType": "struct Position.Flags",
              "name": "flags",
              "type": "tuple"
            }
          ],
          "internalType": "struct Position.Props",
          "name": "",
          "type": "tuple"
        }
      ],
      "stateMutability": "view",
      "type": "function"
    },
    {
      "inputs": [
        {
          "internalType": "contract DataStore",
          "name": "dataStore",
          "type": "address"
        },
        {
          "internalType": "contract IReferralStorage",
          "name": "referralStorage",
          "type": "address"
        },
        {
          "internalType": "bytes32",
          "name": "positionKey",
          "type": "bytes32"
        },
        {
          "components": [
            {
              "internalType": "uint256",
              "name": "min",
              "type": "uint256"
            },
            {
              "internalType": "uint256",
              "name": "max",
              "type": "uint256"
            }
          ],
          "internalType": "struct Price.Props",
          "name": "collateralTokenPrice",
          "type": "tuple"
        },
        {
          "internalType": "address",
          "name": "longToken",
          "type": "address"
        },
        {
          "internalType": "address",
          "name": "shortToken",
          "type": "address"
        },
        {
          "internalType": "uint256",
          "name": "sizeDeltaUsd",
          "type": "uint256"
        }
      ],
      "name": "getPositionFees",
      "outputs": [
        {
          "components": [
            {
              "components": [
                {
                  "internalType": "address",
                  "name": "affiliate",
                  "type": "address"
                },
                {
                  "internalType": "uint256",
                  "name": "traderDiscountAmount",
                  "type": "uint256"
                },
                {
                  "internalType": "uint256",
                  "name": "affiliateRewardAmount",
                  "type": "uint256"
                }
              ],
              "internalType": "struct PositionPricingUtils.PositionReferralFees",
              "name": "referral",
              "type": "tuple"
            },
            {
              "components": [
                {
                  "internalType": "uint256",
                  "name": "fundingFeeAmount",
                  "type": "uint256"
                },
                {
                  "internalType": "uint256",
                  "name": "claimableLongTokenAmount",
                  "type": "uint256"
                },
                {
                  "internalType": "uint256",
                  "name": "claimableShortTokenAmount",
                  "type": "uint256"
                },
                {
                  "internalType": "int256",
                  "name": "latestLongTokenFundingAmountPerSize",
                  "type": "int256"
                },
                {
                  "internalType": "int256",
                  "name": "latestShortTokenFundingAmountPerSize",
                  "type": "int256"
                },
                {
                  "internalType": "bool",
                  "name": "hasPendingLongTokenFundingFee",
                  "type": "bool"
                },
                {
                  "internalType": "bool",
                  "name": "hasPendingShortTokenFundingFee",
                  "type": "bool"
                }
              ],
              "internalType": "struct PositionPricingUtils.PositionFundingFees",
              "name": "funding",
              "type": "tuple"
            },
            {
              "internalType": "uint256",
              "name": "feeReceiverAmount",
              "type": "uint256"
            },
            {
              "internalType": "uint256",
              "name": "feesForPool",
              "type": "uint256"
            },
            {
              "internalType": "uint256",
              "name": "positionFeeAmountForPool",
              "type": "uint256"
            },
            {
              "internalType": "uint256",
              "name": "positionFeeAmount",
              "type": "uint256"
            },
            {
              "internalType": "uint256",
              "name": "borrowingFeeAmount",
              "type": "uint256"
            },
            {
              "internalType": "uint256",
              "name": "totalNetCostAmount",
              "type": "uint256"
            },
            {
              "internalType": "uint256",
              "name": "totalNetCostUsd",
              "type": "uint256"
            }
          ],
          "internalType": "struct PositionPricingUtils.PositionFees",
          "name": "",
          "type": "tuple"
        }
      ],
      "stateMutability": "view",
      "type": "function"
    },
    {
      "inputs": [
        {
          "internalType": "contract DataStore",
          "name": "dataStore",
          "type": "address"
        },
        {
          "internalType": "bytes32",
          "name": "positionKey",
          "type": "bytes32"
        }
      ],
      "name": "getPositionInfo",
      "outputs": [
        {
          "components": [
            {
              "components": [
                {
                  "components": [
                    {
                      "internalType": "address",
                      "name": "account",
                      "type": "address"
                    },
                    {
                      "internalType": "address",
                      "name": "market",
                      "type": "address"
                    },
                    {
                      "internalType": "address",
                      "name": "collateralToken",
                      "type": "address"
                    }
                  ],
                  "internalType": "struct Position.Addresses",
                  "name": "addresses",
                  "type": "tuple"
                },
                {
                  "components": [
                    {
                      "internalType": "uint256",
                      "name": "sizeInUsd",
                      "type": "uint256"
                    },
                    {
                      "internalType": "uint256",
                      "name": "sizeInTokens",
                      "type": "uint256"
                    },
                    {
                      "internalType": "uint256",
                      "name": "collateralAmount",
                      "type": "uint256"
                    },
                    {
                      "internalType": "uint256",
                      "name": "borrowingFactor",
                      "type": "uint256"
                    },
                    {
                      "internalType": "int256",
                      "name": "longTokenFundingAmountPerSize",
                      "type": "int256"
                    },
                    {
                      "internalType": "int256",
                      "name": "shortTokenFundingAmountPerSize",
                      "type": "int256"
                    },
                    {
                      "internalType": "uint256",
                      "name": "increasedAtBlock",
                      "type": "uint256"
                    },
                    {
                      "internalType": "uint256",
                      "name": "decreasedAtBlock",
                      "type": "uint256"
                    }
                  ],
                  "internalType": "struct Position.Numbers",
                  "name": "numbers",
                  "type": "tuple"
                },
                {
                  "components": [
                    {
                      "internalType": "bool",
                      "name": "isLong",
                      "type": "bool"
                    }
                  ],
                  "internalType": "struct Position.Flags",
                  "name": "flags",
                  "type": "tuple"
                }
              ],
              "internalType": "struct Position.Props",
              "name": "position",
              "type": "tuple"
            },
            {
              "internalType": "uint256",
              "name": "pendingBorrowingFees",
              "type": "uint256"
            },
            {
              "components": [
                {
                  "internalType": "uint256",
                  "name": "fundingFeeAmount",
                  "type": "uint256"
                },
                {
                  "internalType": "uint256",
                  "name": "claimableLongTokenAmount",
                  "type": "uint256"
                },
                {
                  "internalType": "uint256",
                  "name": "claimableShortTokenAmount",
                  "type": "uint256"
                },
                {
                  "internalType": "int256",
                  "name": "latestLongTokenFundingAmountPerSize",
                  "type": "int256"
                },
                {
                  "internalType": "int256",
                  "name": "latestShortTokenFundingAmountPerSize",
                  "type": "int256"
                },
                {
                  "internalType": "bool",
                  "name": "hasPendingLongTokenFundingFee",
                  "type": "bool"
                },
                {
                  "internalType": "bool",
                  "name": "hasPendingShortTokenFundingFee",
                  "type": "bool"
                }
              ],
              "internalType": "struct PositionPricingUtils.PositionFundingFees",
              "name": "pendingFundingFees",
              "type": "tuple"
            }
          ],
          "internalType": "struct Reader.PositionInfo",
          "name": "",
          "type": "tuple"
        }
      ],
      "stateMutability": "view",
      "type": "function"
    },
    {
      "inputs": [
        {
          "internalType": "contract DataStore",
          "name": "dataStore",
          "type": "address"
        },
        {
          "internalType": "bytes32",
          "name": "key",
          "type": "bytes32"
        }
      ],
      "name": "getWithdrawal",
      "outputs": [
        {
          "components": [
            {
              "components": [
                {
                  "internalType": "address",
                  "name": "account",
                  "type": "address"
                },
                {
                  "internalType": "address",
                  "name": "receiver",
                  "type": "address"
                },
                {
                  "internalType": "address",
                  "name": "callbackContract",
                  "type": "address"
                },
                {
                  "internalType": "address",
                  "name": "market",
                  "type": "address"
                },
                {
                  "internalType": "address[]",
                  "name": "longTokenSwapPath",
                  "type": "address[]"
                },
                {
                  "internalType": "address[]",
                  "name": "shortTokenSwapPath",
                  "type": "address[]"
                }
              ],
              "internalType": "struct Withdrawal.Addresses",
              "name": "addresses",
              "type": "tuple"
            },
            {
              "components": [
                {
                  "internalType": "uint256",
                  "name": "marketTokenAmount",
                  "type": "uint256"
                },
                {
                  "internalType": "uint256",
                  "name": "minLongTokenAmount",
                  "type": "uint256"
                },
                {
                  "internalType": "uint256",
                  "name": "minShortTokenAmount",
                  "type": "uint256"
                },
                {
                  "internalType": "uint256",
                  "name": "updatedAtBlock",
                  "type": "uint256"
                },
                {
                  "internalType": "uint256",
                  "name": "executionFee",
                  "type": "uint256"
                },
                {
                  "internalType": "uint256",
                  "name": "callbackGasLimit",
                  "type": "uint256"
                }
              ],
              "internalType": "struct Withdrawal.Numbers",
              "name": "numbers",
              "type": "tuple"
            },
            {
              "components": [
                {
                  "internalType": "bool",
                  "name": "shouldUnwrapNativeToken",
                  "type": "bool"
                }
              ],
              "internalType": "struct Withdrawal.Flags",
              "name": "flags",
              "type": "tuple"
            }
          ],
          "internalType": "struct Withdrawal.Props",
          "name": "",
          "type": "tuple"
        }
      ],
      "stateMutability": "view",
      "type": "function"
    }
  ],
  "bytecode": "0x608060405234801561001057600080fd5b50614c6d806100206000396000f3fe608060405234801561001057600080fd5b50600436106100e65760003560e01c80630fa8f516146100eb5780631485d2971461011457806342a6f8d31461013457806349651b6a146101545780634bc14b2a14610174578063714af34b1461019457806377cfb162146101b45780637b596910146101d4578063847bb469146101f557806396764e6f14610215578063971de27d146102285780639b8ee6221461023b578063ad6887941461025b578063bc7b5bba1461027b578063beb9bd9a1461029b578063ce3264bf146102ae578063ceeea3bf146102ce578063e62093d7146102ee575b600080fd5b6100fe6100f93660046133ff565b610301565b60405161010b91906134d1565b60405180910390f35b6101276101223660046133ff565b61038d565b60405161010b9190613524565b610147610142366004613646565b610413565b60405161010b91906137ee565b6101676101623660046133ff565b610560565b60405161010b9190613850565b6101876101823660046139a9565b6105e6565b60405161010b9190613a75565b6101a76101a2366004613b03565b61068c565b60405161010b9190613b6f565b6101c76101c2366004613646565b61070e565b60405161010b9190613b7d565b6101e76101e2366004613bde565b61084d565b60405190815260200161010b565b610208610203366004613cc6565b61086a565b60405161010b9190613d6e565b6101e7610223366004613bde565b610976565b6101e7610236366004613d7d565b610987565b61024e610249366004613646565b610a20565b60405161010b9190613e19565b61026e6102693660046133ff565b610aee565b60405161010b9190613e5c565b61028e610289366004613e8e565b610c49565b60405161010b9190613f4f565b6101e76102a9366004613f92565b610d36565b6102c16102bc366004614013565b610d53565b60405161010b9190614048565b6102e16102dc3660046133ff565b610ea0565b60405161010b919061408a565b6101e76102fc366004614110565b610f26565b610309612f27565b60405163fdfc26f360e01b815273__$3d31b232fb363902662fbc281b11ab3357$__9063fdfc26f39061034290869086906004016141e5565b61018060405180830381865af4158015610360573d6000803e3d6000fd5b505050506040513d601f19601f820116820180604052508101906103849190614258565b90505b92915050565b610395612fb6565b60405163fdfc26f360e01b815273__$b63e253a228f0e32f671cc49c7fc32477c$__9063fdfc26f3906103ce90869086906004016141e5565b600060405180830381865af41580156103eb573d6000803e3d6000fd5b505050506040513d6000823e601f3d908101601f191682016040526103849190810190614409565b6060600061042386868686610f36565b9050600081516001600160401b0381111561044057610440613863565b60405190808252806020026020018201604052801561047957816020015b610466613040565b81526020019060019003908161045e5790505b50905060005b825181101561055557600083828151811061049c5761049c614555565b6020026020010151905073__$9dcb75ef0bb6c4288f2ccffe7dc492c4eb$__63fdfc26f38a836040518363ffffffff1660e01b81526004016104df9291906141e5565b600060405180830381865af41580156104fc573d6000803e3d6000fd5b505050506040513d6000823e601f3d908101601f191682016040526105249190810190614666565b83838151811061053657610536614555565b602002602001018190525050808061054d90614795565b91505061047f565b509695505050505050565b610568613040565b60405163fdfc26f360e01b815273__$9dcb75ef0bb6c4288f2ccffe7dc492c4eb$__9063fdfc26f3906105a190869086906004016141e5565b600060405180830381865af41580156105be573d6000803e3d6000fd5b505050506040513d6000823e601f3d908101601f191682016040526103849190810190614666565b6105ee6130f9565b60405163fdfc26f360e01b815260009073__$3d31b232fb363902662fbc281b11ab3357$__9063fdfc26f39061062a908c908b906004016141e5565b61018060405180830381865af4158015610648573d6000803e3d6000fd5b505050506040513d601f19601f8201168201806040525081019061066c9190614258565b905061067d89898389898989610fc2565b9150505b979650505050505050565b610694613165565b60405163a8d8fff560e01b815273__$ff439aa65a80c9eec648f15db20b189505$__9063a8d8fff5906106cd90869086906004016147ae565b608060405180830381865af41580156106ea573d6000803e3d6000fd5b505050506040513d601f19601f8201168201806040525081019061038491906147c8565b6060600061071e868686866110c7565b9050600081516001600160401b0381111561073b5761073b613863565b60405190808252806020026020018201604052801561077457816020015b610761612f27565b8152602001906001900390816107595790505b50905060005b825181101561055557600083828151811061079757610797614555565b6020026020010151905073__$3d31b232fb363902662fbc281b11ab3357$__63fdfc26f38a836040518363ffffffff1660e01b81526004016107da9291906141e5565b61018060405180830381865af41580156107f8573d6000803e3d6000fd5b505050506040513d601f19601f8201168201806040525081019061081c9190614258565b83838151811061082e5761082e614555565b602002602001018190525050808061084590614795565b91505061077a565b600061085e888888888888886110e1565b98975050505050505050565b61087261318c565b60405163a8d8fff560e01b815260009073__$ff439aa65a80c9eec648f15db20b189505$__9063a8d8fff5906108ae90889087906004016147ae565b608060405180830381865af41580156108cb573d6000803e3d6000fd5b505050506040513d601f19601f820116820180604052508101906108ef91906147c8565b9050600061090e8686846000015185604001518660600151600161111e565b9050600061092d8787856000015186604001518760600151600061111e565b9050600061094a8888866000015187604001518860600151611245565b6040805160808101825295865260208601949094529284019190915250606082015290505b9392505050565b600061085e888888888888886116d0565b60008073__$ff439aa65a80c9eec648f15db20b189505$__63a8d8fff588886040518363ffffffff1660e01b81526004016109c39291906147ae565b608060405180830381865af41580156109e0573d6000803e3d6000fd5b505050506040513d601f19601f82011682018060405250810190610a0491906147c8565b9050610a138782878787611767565b9150505b95945050505050565b60606000610a30868686866110c7565b9050600081516001600160401b03811115610a4d57610a4d613863565b604051908082528060200260200182016040528015610a8657816020015b610a736131ba565b815260200190600190039081610a6b5790505b50905060005b8251811015610555576000838281518110610aa957610aa9614555565b60200260200101519050610abd8982610aee565b838381518110610acf57610acf614555565b6020026020010181905250508080610ae690614795565b915050610a8c565b610af66131ba565b60405163fdfc26f360e01b815260009073__$3d31b232fb363902662fbc281b11ab3357$__9063fdfc26f390610b3290879087906004016141e5565b61018060405180830381865af4158015610b50573d6000803e3d6000fd5b505050506040513d601f19601f82011682018060405250810190610b749190614258565b9050600073__$ff439aa65a80c9eec648f15db20b189505$__63a8d8fff586610b9f85516020015190565b6040518363ffffffff1660e01b8152600401610bbc9291906147ae565b608060405180830381865af4158015610bd9573d6000803e3d6000fd5b505050506040513d601f19601f82011682018060405250810190610bfd91906147c8565b90506000610c0b86846117df565b90506000610c2387858560400151866060015161189a565b604080516060810182529586526020860193909352918401919091525090949350505050565b60606000610c58868585611a09565b9050600081516001600160401b03811115610c7557610c75613863565b604051908082528060200260200182016040528015610cae57816020015b610c9b61318c565b815260200190600190039081610c935790505b50905060005b8251811015610555576000878281518110610cd157610cd1614555565b602002602001015190506000848381518110610cef57610cef614555565b60200260200101519050610d048a838361086a565b848481518110610d1657610d16614555565b602002602001018190525050508080610d2e90614795565b915050610cb4565b6000610d46878787878787611ad6565b90505b9695505050505050565b60606000610d62858585611a09565b9050600081516001600160401b03811115610d7f57610d7f613863565b604051908082528060200260200182016040528015610db857816020015b610da5613165565b815260200190600190039081610d9d5790505b50905060005b8251811015610e96576000838281518110610ddb57610ddb614555565b60200260200101519050600073__$ff439aa65a80c9eec648f15db20b189505$__63a8d8fff58a846040518363ffffffff1660e01b8152600401610e209291906147ae565b608060405180830381865af4158015610e3d573d6000803e3d6000fd5b505050506040513d601f19601f82011682018060405250810190610e6191906147c8565b905080848481518110610e7657610e76614555565b602002602001018190525050508080610e8e90614795565b915050610dbe565b5095945050505050565b610ea86131e1565b60405163fdfc26f360e01b815273__$3dc24d71d6ebafc0c4ce8ac2f69cd1548a$__9063fdfc26f390610ee190869086906004016141e5565b600060405180830381865af4158015610efe573d6000803e3d6000fd5b505050506040513d6000823e601f3d908101601f19168201604052610384919081019061484c565b6000610d46878786868987611b16565b6060846001600160a01b031663f069052a610f5086611c3a565b6040516001600160e01b031960e084901b16815260048101919091526024810186905260448101859052606401600060405180830381865afa158015610f9a573d6000803e3d6000fd5b505050506040513d6000823e601f3d908101601f19168201604052610a179190810190614963565b610fca6130f9565b610fd26130f9565b610fed898988610fe18b515190565b8b516020015188611cbc565b855160808701919091526040808701929092529081019190915260208101919091526001600160a01b03909116905285516110288a896117df565b61103291906149fe565b60c0820181905260808201516110489190614a12565b60608201526110598988878761189a565b6020820181905260c0820151905160808301516040808501518551909101516110829190614a12565b61108c9190614a12565b6110969190614a12565b6110a09190614a12565b60e0820181905260208701516110b591614a25565b61010082015298975050505050505050565b6060846001600160a01b031663f069052a610f5086611f15565b6000806110f18989898988611f50565b905060006111048a8a8a8a8a8a8a6116d0565b90506111108282611f7b565b9a9950505050505050505050565b60008061112c888785611f91565b90506000611144898888888c600001518960016110e1565b90506000811361115957600092505050610d49565b60006111718a898761116b578861200b565b8961200b565b90506000856111855760408a01515161118c565b60208a0151515b9050600061119a8284614a25565b9050806000036112175760405162461bcd60e51b815260206004820152603e60248201527f676574426f72726f77696e67466163746f725065725365636f6e643a20756e6560448201527f787065637465642073746174652c20706f6f6c557364206973207a65726f000060648201526084015b60405180910390fd5b8061122185612026565b61122b9087614a25565b61123591906149fe565b9c9b505050505050505050505050565b61124d613221565b611255613221565b61125d613252565b61126a888787600161207c565b81515261127a888786600161207c565b81516020015261128d888787600061207c565b8151604001526112a0888786600061207c565b8151606001528051602081015190516112b99190614a12565b815160800152805160608101516040909101516112d69190614a12565b815160a001526112e988878760016120f7565b60208301526112fb88878760006120f7565b604083015261130d88878660016120f7565b606083015261131f88878660006120f7565b60808084019190915281510151158061133b5750805160a00151155b1561134857509050610a17565b6113528887612113565b604082015261136188876121ab565b60608201528051608081015160a09091015161137d9190612224565b608080830191909152815160a081015191015161139a9190614a12565b60a080830191909152815190810151608090910151116113bf57805160a001516113c6565b8051608001515b60c082015260a0810151608082015160608301516113e49190614a25565b6113ee91906149fe565b60e08201819052604082015160c08301516114169068327cb2734119d3b7a9601e1b906149fe565b6114209190614a25565b61142a9190614a25565b610100820152805160a081015160809091015111808352156114a15780516080810151905161010083015161145f9190614a25565b61146991906149fe565b6101208201528051608081015160209091015161010083015161148c9190614a25565b61149691906149fe565b6101408201526114fc565b805160a08101516040909101516101008301516114be9190614a25565b6114c891906149fe565b610120820152805160a08101516060909101516101008301516114eb9190614a25565b6114f591906149fe565b6101408201525b61152387602001516020015182610120015161151891906149fe565b825160800151612246565b6020808301516080019190915287810151015161012082015161155491611549916149fe565b825160a00151612246565b60208083015160c001919091526040880151015161014082015161157b91611518916149fe565b60208083015160a00191909152604088015101516101408201516115a291611549916149fe565b602082015160e00152815115611643576115d082602001516115cb836020015160800151612269565b6122d3565b8260200181815250506115f782604001516115f2836020015160c00151612269565b61238c565b60408301526060820151602082015160a0015161161891906115cb90612269565b60608301526080820151602082015160e0015161163991906115f290612269565b6080830152610555565b61165c82602001516115f2836020015160800151612269565b82602001818152505061167e82604001516115cb836020015160c00151612269565b60408301526060820151602082015160a0015161169f91906115f290612269565b60608301526080820151602082015160e001516116c091906115cb90612269565b6080830152509695505050505050565b6000806116e86116e38a8a8a8a89611f50565b612269565b905060006116f98a8a8a8a89612446565b9050811580611706575080155b1561171657600092505050610681565b6000611723878787612465565b905060006117346116e38385614a25565b905060008761174c576117478286614a44565b611756565b6117568583614a44565b9d9c50505050505050505050505050565b6000806117768787878761249e565b90508060000361178a576000915050610a17565b60006117ab88886000015189604001518a606001518a600001518a8a6116d0565b90506117b682612269565b6117cb68327cb2734119d3b7a9601e1b612269565b6117d59083614a6b565b61085e9190614af0565b6000806117fd846117f285516020015190565b6040860151516124f0565b90508061180f84602001516060015190565b11156118685760405162461bcd60e51b815260206004820152602260248201527f676574426f72726f77696e67466565733a20756e657870656374656420737461604482015261746560f01b606482015260840161120e565b600061187984602001516060015190565b6118839083614b1e565b9050610a1761189485602001515190565b8261250b565b6118a2613329565b6118aa613329565b6118cc866118ba87516020015190565b866118c789604001515190565b6120f7565b60608201526118ee866118e187516020015190565b856118c789604001515190565b60808201526060810151600090819061191b9061191089602001516080015190565b60208a015151612524565b90151560a0850152608084015190925061193e90611910896020015160a0015190565b90151560c0850152905060008212156119685761196261195d83614b31565b612026565b60208401525b60008112156119835761197d61195d82614b31565b60408401525b856001600160a01b031661199988516040015190565b6001600160a01b03161480156119af5750600082135b156119c0576119bd82612026565b83525b846001600160a01b03166119d688516040015190565b6001600160a01b03161480156119ec5750600081135b156119fd576119fa81612026565b83525b50909695505050505050565b6060836001600160a01b031663e7e4148e604051602001611a49906020808252600b908201526a13505492d15517d31254d560aa1b604082015260600190565b60408051601f198184030181529082905280516020909101206001600160e01b031960e084901b16825260048201526024810186905260448101859052606401600060405180830381865afa158015611aa6573d6000803e3d6000fd5b505050506040513d6000823e601f3d908101601f19168201604052611ace9190810190614b4d565b949350505050565b600080611ae988888888886001896116d0565b90506000611afd898989898960008a6116d0565b9050611b098183614b81565b9998505050505050505050565b600080611b27888888888888612583565b905080600003611b3b576000915050610d49565b6000811215611b9f5760405162461bcd60e51b815260206004820152603c6024820152600080516020614c1883398151915260448201527b73746174652c20706f6f6c56616c7565206973206e6567617469766560201b606482015260840161120e565b6000611bae8860000151612798565b905080600003611c0c5760405162461bcd60e51b81526020600482015260356024820152600080516020614c1883398151915260448201527473746174652c20737570706c79206973207a65726f60581b606482015260840161120e565b611c1581612269565b611c26670de0b6b3a7640000612269565b611c309084614a6b565b611b099190614af0565b6000604051602001611c72906020808252601290820152711050d0d3d5539517d3d491115497d31254d560721b604082015260600190565b60408051601f198184030181528282528051602091820120908301526001600160a01b03841690820152606001604051602081830303815290604052805190602001209050919050565b6000806000806000611ccc61336a565b611cd68b8a6127fc565b8351604081019190915260208101919091526001600160a01b0391821690528c1663bd02d0f5611d058a612a68565b6040518263ffffffff1660e01b8152600401611d2391815260200190565b602060405180830381865afa158015611d40573d6000803e3d6000fd5b505050506040513d601f19601f82011682018060405250810190611d649190614ba9565b602082018190528a5190611d7990899061250b565b611d8391906149fe565b60408201819052815160200151611d9a919061250b565b8151606090810191909152815190810151604090910151611dbb919061250b565b8151608090810191909152815190810151606090910151611ddc9190614b1e565b815160a001528051606001516040820151611df79190614b1e565b60608201526040516001600160a01b038d169063bd02d0f590611e44906020016020808252601390820152722322a2afa922a1a2a4ab22a92fa320a1aa27a960691b604082015260600190565b604051602081830303815290604052805190602001206040518263ffffffff1660e01b8152600401611e7891815260200190565b602060405180830381865afa158015611e95573d6000803e3d6000fd5b505050506040513d601f19601f82011682018060405250810190611eb99190614ba9565b608082018190526060820151611ece9161250b565b60a082018190526060820151611ee49190614b1e565b60c0820181905281518051608082015160a0928301519290940151909f939e50909c509a5098509650505050505050565b6000604051602001611c72906020808252601590820152741050d0d3d5539517d413d4d2551253d397d31254d5605a1b604082015260600190565b600080611f5f8787878661207c565b90506000611f6f8888878761207c565b905061085e8183614a12565b600081611f8784612269565b6103849190614b81565b6000836001600160a01b031663bd02d0f5611fac8585612aa1565b6040518263ffffffff1660e01b8152600401611fca91815260200190565b602060405180830381865afa158015611fe7573d6000803e3d6000fd5b505050506040513d601f19601f82011682018060405250810190611ace9190614ba9565b6000836001600160a01b031663bd02d0f5611fac8585612b2b565b6000808212156120785760405162461bcd60e51b815260206004820181905260248201527f53616665436173743a2076616c7565206d75737420626520706f736974697665604482015260640161120e565b5090565b6000846001600160a01b031663bd02d0f5612098868686612b99565b6040518263ffffffff1660e01b81526004016120b691815260200190565b602060405180830381865afa1580156120d3573d6000803e3d6000fd5b505050506040513d601f19601f82011682018060405250810190610a179190614ba9565b6000846001600160a01b031663dc97d962612098868686612c2b565b600080836001600160a01b031663bd02d0f561212e85612c68565b6040518263ffffffff1660e01b815260040161214c91815260200190565b602060405180830381865afa158015612169573d6000803e3d6000fd5b505050506040513d601f19601f8201168201806040525081019061218d9190614ba9565b9050806000036121a1576000915050610387565b611ace8142614b1e565b6000826001600160a01b031663bd02d0f56121c584612ca0565b6040518263ffffffff1660e01b81526004016121e391815260200190565b602060405180830381865afa158015612200573d6000803e3d6000fd5b505050506040513d601f19601f820116820180604052508101906103849190614ba9565b600081831161223c576122378383614b1e565b610384565b6103848284614b1e565b60008161225f68327cb2734119d3b7a9601e1b85614a25565b61038491906149fe565b60006001600160ff1b038211156120785760405162461bcd60e51b815260206004820152602860248201527f53616665436173743a2076616c756520646f65736e27742066697420696e2061604482015267371034b73a191a9b60c11b606482015260840161120e565b60008215806122e0575081155b806122f657506000831280156122f65750600082135b8061230c575060008313801561230c5750600082125b156123225761231b8284614b81565b9050610387565b60008312801561233f575061233b83600160ff1b614a44565b8213155b1561234f5750600160ff1b610387565b60008313801561236f575061236b836001600160ff1b03614a44565b8212155b1561238257506001600160ff1b03610387565b6103848284614b81565b6000821580612399575081155b806123af57506000831380156123af5750600082135b806123c557506000831280156123c55750600082125b156123d45761231b8284614a44565b6000831380156123fc57506123f0836001600160ff1b03614a44565b6123f983614b31565b12155b1561240f57506001600160ff1b03610387565b60008312801561242c575061242883600160ff1b614a44565b8213155b1561243c5750600160ff1b610387565b6103848284614a44565b60008061245587878786612cd4565b90506000611f6f88888787612cd4565b60008215612486578161247957835161247f565b83602001515b905061096f565b81612495578360200151611ace565b50509051919050565b600080826124b05784606001516124b6565b84604001515b905060006124c98787600001518461200b565b90506000846124dd576040860151516124e4565b6020860151515b905061085e8183614a25565b6000836001600160a01b031663bd02d0f5611fac8585612cf0565b600068327cb2734119d3b7a9601e1b61225f8385614a25565b600080806125328587614a44565b9050600061254b68327cb2734119d3b7a9601e1b612269565b61255486612269565b61255e9084614a6b565b6125689190614af0565b90508115801590612577575080155b97909650945050505050565b60006125d46040518061012001604052806000815260200160008152602001600081526020016000815260200160008152602001600081526020016000815260200160008152602001600081525090565b6125e7888860000151896040015161200b565b6020820152865160608801516125fe918a9161200b565b604082015261260d8684612d31565b816020015161261c9190614a25565b606082015261262b8584612d31565b816040015161263a9190614a25565b6080820181905260608201516126509190614a12565b815286516040880151606089015161266d928b9290916001612d48565b8151829061267c908390614a12565b90525086516040880151606089015161269a928b9290916000612d48565b815182906126a9908390614a12565b90525086516126b9908990612d8d565b60a08201526126c88484612d31565b8160a001516126d79190614a25565b815182906126e6908390614a12565b905250865160408801516060890151612707928b92909188600189156116d0565b60c0820181905287516060830151612725928b929160019190612da7565b60c0820152865160408801516060890151612748928b92909188600089156116d0565b60e0820181905287516080830151612766928b929160009190612da7565b60e0820181905260c082015161277c9190614b81565b6101008201819052815161085e9161279390614b31565b611f7b565b6000816001600160a01b03166318160ddd6040518163ffffffff1660e01b8152600401602060405180830381865afa1580156127d8573d6000803e3d6000fd5b505050506040513d601f19601f820116820180604052508101906103879190614ba9565b600080600080856001600160a01b03166385725b58866040518263ffffffff1660e01b815260040161282e9190614bc2565b602060405180830381865afa15801561284b573d6000803e3d6000fd5b505050506040513d601f19601f8201168201806040525081019061286f9190614ba9565b9050600080808315612a44576040516306459e2360e51b8152600481018590526001600160a01b038a169063c8b3c46090602401602060405180830381865afa1580156128c0573d6000803e3d6000fd5b505050506040513d601f19601f820116820180604052508101906128e49190614bd6565b92506000896001600160a01b0316631582a018856040518263ffffffff1660e01b81526004016129149190614bc2565b602060405180830381865afa158015612931573d6000803e3d6000fd5b505050506040513d601f19601f820116820180604052508101906129559190614ba9565b60405163039af9eb60e01b8152600481018290529091506001600160a01b038b169063039af9eb906024016040805180830381865afa15801561299c573d6000803e3d6000fd5b505050506040513d601f19601f820116820180604052508101906129c09190614bf3565b60405163071a6a7960e41b815291945092506000906001600160a01b038c16906371a6a790906129f4908890600401614bc2565b602060405180830381865afa158015612a11573d6000803e3d6000fd5b505050506040513d601f19601f82011682018060405250810190612a359190614ba9565b90508015612a41578092505b50505b82612a4e83612de5565b612a5783612de5565b965096509650505050509250925092565b6000604051602001611c72906020808252601390820152722827a9a4aa24a7a72fa322a2afa320a1aa27a960691b604082015260600190565b6000604051602001612ad79060208082526010908201526f2127a92927aba4a723afa320a1aa27a960811b604082015260600190565b60408051601f198184030181528282528051602091820120908301526001600160a01b0385169082015282151560608201526080015b60405160208183030381529060405280519060200120905092915050565b6000604051602001612b5c906020808252600b908201526a1413d3d317d05353d5539560aa1b604082015260600190565b60408051601f198184030181528282528051602091820120908301526001600160a01b038086169183019190915283166060820152608001612b0d565b6000604051602001612bcc906020808252600d908201526c13d4115397d2539511549154d5609a1b604082015260600190565b60408051601f198184030181528282528051602091820120908301526001600160a01b038087169183019190915284166060820152821515608082015260a0016040516020818303038152906040528051906020012090509392505050565b6000604051602001612bcc9060208082526017908201527646554e44494e475f414d4f554e545f5045525f53495a4560481b604082015260600190565b6000604051602001611c729060208082526012908201527111955391125391d7d554111055115117d05560721b604082015260600190565b6000604051602001611c72906020808252600e908201526d232aa72224a723afa320a1aa27a960911b604082015260600190565b6000846001600160a01b031663bd02d0f5612098868686612e0a565b6000604051602001612ad7906020808252601b908201527a21aaa6aaa620aa24ab22afa127a92927aba4a723afa320a1aa27a960291b604082015260600190565b600081612d3f578251610384565b50506020015190565b600080612d588787878787611f50565b90506000612d678888866124f0565b90506000612d76898987612e47565b905080612d838385614a25565b611b099190614b1e565b6000826001600160a01b031663bd02d0f56121c584612e62565b600080831215612db8575081610a17565b6000612dc5878787612ea3565b90506000612dd66116e3858461250b565b9050808513610681578461085e565b6000612710612e0068327cb2734119d3b7a9601e1b84614a25565b61038791906149fe565b6000604051602001612bcc906020808252601790820152764f50454e5f494e5445524553545f494e5f544f4b454e5360481b604082015260600190565b6000836001600160a01b031663bd02d0f5611fac8585612ebe565b6000604051602001611c72906020808252601b908201527a1413d4d2551253d397d253541050d517d413d3d317d05353d55395602a1b604082015260600190565b6000836001600160a01b031663bd02d0f5611fac8585612ef3565b6000604051602001612ad7906020808252600f908201526e544f54414c5f424f52524f57494e4760881b604082015260600190565b6000604051602001612ad7906020808252600e908201526d26a0ac2fa827262fa320a1aa27a960911b604082015260600190565b6040805160c081019091526000606082018181526080830182905260a083019190915281908152602001612f9960405180610100016040528060008152602001600081526020016000815260200160008152602001600081526020016000815260200160008152602001600081525090565b81526040805160208181019092526000815291015290565b905290565b604080516101608101909152600060608083018281526080840183905260a0840183905260c0840183905260e08401839052610100840192909252610120830181905261014083015281905b8152602001612f996040518060c001604052806000815260200160008152602001600081526020016000815260200160008152602001600081525090565b604080516101208101909152600060608083018281526080840183905260a0840183905260c0840183905260e08401929092526101008301528152602081016130d660408051610140810190915280600081526020016000815260200160008152602001600081526020016000815260200160008152602001600081526020016000815260200160008152602001600081525090565b815260408051606081018252600080825260208281018290529282015291015290565b60408051610180810190915260006101208201818152610140830182905261016083019190915281526020810161312e613329565b8152602001600081526020016000815260200160008152602001600081526020016000815260200160008152602001600081525090565b60408051608081018252600080825260208201819052918101829052606081019190915290565b604051806080016040528061319f613165565b81526020016000815260200160008152602001612fb1613221565b60405180606001604052806131cd612f27565b815260200160008152602001612fb1613329565b604080516101208101909152600060608083018281526080840183905260a0840183905260c084019290925260e083018190526101008301528190613002565b6040518060a00160405280600015158152602001600081526020016000815260200160008152602001600081525090565b6040518061016001604052806132976040518060c001604052806000815260200160008152602001600081526020016000815260200160008152602001600081525090565b81526020016132e460405180610100016040528060008152602001600081526020016000815260200160008152602001600081526020016000815260200160008152602001600081525090565b81526020016000815260200160008152602001600081526020016000815260200160008152602001600081526020016000815260200160008152602001600081525090565b6040518060e0016040528060008152602001600081526020016000815260200160008152602001600081526020016000151581526020016000151581525090565b6040518060e001604052806133b76040518060c0016040528060006001600160a01b0316815260200160008152602001600081526020016000815260200160008152602001600081525090565b81526020016000815260200160008152602001600081526020016000815260200160008152602001600081525090565b6001600160a01b03811681146133fc57600080fd5b50565b6000806040838503121561341257600080fd5b823561341d816133e7565b946020939093013593505050565b6001600160a01b03169052565b805160018060a01b03808251168452806020830151166020850152806040830151166040850152505060208101518051606084015260208101516080840152604081015160a0840152606081015160c0840152608081015160e084015260a081015161010084015260c081015161012084015260e08101516101408401525060408101516134cc6101608401825115159052565b505050565b61018081016103878284613438565b600081518084526020808501945080840160005b838110156135195781516001600160a01b0316875295820195908201906001016134f4565b509495945050505050565b602081526000825161010080602085015260018060a01b03825116610120850152602082015161355861014086018261342b565b50604082015161356c61016086018261342b565b50606082015161358061018086018261342b565b5060808201516135946101a086018261342b565b5060a08201516135a86101c086018261342b565b5060c0820151816101e08601526135c36102208601826134e0565b905060e0830151925061011f19858203016102008601526135e481846134e0565b925050602085015161362e6040860182805182526020810151602083015260408101516040830152606081015160608301526080810151608083015260a081015160a08301525050565b50604085015180511515858301525090949350505050565b6000806000806080858703121561365c57600080fd5b8435613667816133e7565b93506020850135613677816133e7565b93969395505050506040820135916060013590565b634e487b7160e01b600052602160045260246000fd5b600881106136b2576136b261368c565b9052565b600381106136b2576136b261368c565b6136d18282516136a2565b60208101516136e360208401826136b6565b5060408101516040830152606081015160608301526080810151608083015260a081015160a083015260c081015160c083015260e081015160e08301526101008082015181840152506101208082015181840152505050565b80516101c080845281516001600160a01b0390811691850191909152602082015181166101e0850152604082015181166102008501526060820151811661022085015260808201511661024084015260a0015160c06102608401526000906137a86102808501826134e0565b905060208301516137bc60208601826136c6565b5060408381015180511515610160870152602081015115156101808701529081015115156101a0860152509392505050565b6000602080830181845280855180835260408601915060408160051b870101925083870160005b8281101561384357603f1988860301845261383185835161373c565b94509285019290850190600101613815565b5092979650505050505050565b602081526000610384602083018461373c565b634e487b7160e01b600052604160045260246000fd5b604051606081016001600160401b038111828210171561389b5761389b613863565b60405290565b604051608081016001600160401b038111828210171561389b5761389b613863565b60405161010081016001600160401b038111828210171561389b5761389b613863565b60405160c081016001600160401b038111828210171561389b5761389b613863565b60405161014081016001600160401b038111828210171561389b5761389b613863565b604051601f8201601f191681016001600160401b038111828210171561395357613953613863565b604052919050565b60006040828403121561396d57600080fd5b604080519081016001600160401b038111828210171561398f5761398f613863565b604052823581526020928301359281019290925250919050565b6000806000806000806000610100888a0312156139c557600080fd5b87356139d0816133e7565b965060208801356139e0816133e7565b9550604088013594506139f68960608a0161395b565b935060a0880135613a06816133e7565b925060c0880135613a16816133e7565b8092505060e0880135905092959891949750929550565b805182526020810151602083015260408101516040830152606081015160608301526080810151608083015260a0810151151560a083015260c0810151151560c08301525050565b815180516001600160a01b03168252602080820151908301526040908101519082015261022081016020830151613aaf6060840182613a2d565b5060408301516101408301526060830151610160830152608083015161018083015260a08301516101a083015260c08301516101c083015260e08301516101e0830152610100909201516102009091015290565b60008060408385031215613b1657600080fd5b8235613b21816133e7565b91506020830135613b31816133e7565b809150509250929050565b80516001600160a01b03908116835260208083015182169084015260408083015182169084015260609182015116910152565b608081016103878284613b3c565b6020808252825182820181905260009190848201906040850190845b818110156119fd57613bac838551613438565b928401926101809290920191600101613b99565b80151581146133fc57600080fd5b8035613bd981613bc0565b919050565b6000806000806000806000610100888a031215613bfa57600080fd5b8735613c05816133e7565b96506020880135613c15816133e7565b95506040880135613c25816133e7565b94506060880135613c35816133e7565b9350613c448960808a0161395b565b925060c0880135613c5481613bc0565b915060e0880135613c6481613bc0565b8091505092959891949750929550565b600060c08284031215613c8657600080fd5b613c8e613879565b9050613c9a838361395b565b8152613ca9836040840161395b565b6020820152613cbb836080840161395b565b604082015292915050565b60008060006101008486031215613cdc57600080fd5b8335613ce7816133e7565b9250613cf68560208601613c74565b915060e0840135613d06816133e7565b809150509250925092565b613d1c828251613b3c565b60208101516080830152604081015160a083015260608101518051151560c0840152602081015160e0840152604081015161010084015260608101516101208401526080810151610140840152505050565b61016081016103878284613d11565b60008060008060006101408688031215613d9657600080fd5b8535613da1816133e7565b94506020860135613db1816133e7565b9350613dc08760408801613c74565b9250610100860135613dd181613bc0565b9150610120860135613de281613bc0565b809150509295509295909350565b613dfb828251613438565b602081015161018083015260408101516134cc6101a0840182613a2d565b6020808252825182820181905260009190848201906040850190845b818110156119fd57613e48838551613df0565b928401926102809290920191600101613e35565b61028081016103878284613df0565b60006001600160401b03821115613e8457613e84613863565b5060051b60200190565b60008060008060808587031215613ea457600080fd5b8435613eaf816133e7565b93506020858101356001600160401b03811115613ecb57600080fd5b8601601f81018813613edc57600080fd5b8035613eef613eea82613e6b565b61392b565b81815260c0918202830184019184820191908b841115613f0e57600080fd5b938501935b83851015613f3457613f258c86613c74565b83529384019391850191613f13565b50979a97995050505060408601359560600135949350505050565b6020808252825182820181905260009190848201906040850190845b818110156119fd57613f7e838551613d11565b928401926101609290920191600101613f6b565b60008060008060008060e08789031215613fab57600080fd5b8635613fb6816133e7565b95506020870135613fc6816133e7565b94506040870135613fd6816133e7565b93506060870135613fe6816133e7565b9250613ff5886080890161395b565b915060c087013561400581613bc0565b809150509295509295509295565b60008060006060848603121561402857600080fd5b8335614033816133e7565b95602085013595506040909401359392505050565b6020808252825182820181905260009190848201906040850190845b818110156119fd57614077838551613b3c565b9284019260809290920191600101614064565b602081526000825161010080602085015260018060a01b038083511661012086015280602084015116610140860152806040840151166101608601528060608401511661018086015250608082015160c06101a08601526140ef6101e08601826134e0565b905060a0830151925061011f19858203016101c08601526135e481846134e0565b60008060008060008086880361018081121561412b57600080fd5b8735614136816133e7565b96506080601f198201121561414a57600080fd5b506141536138a1565b6020880135614161816133e7565b81526040880135614171816133e7565b60208201526060880135614184816133e7565b60408201526080880135614197816133e7565b606082015294506141ab8860a0890161395b565b93506141ba8860e0890161395b565b92506141ca88610120890161395b565b91506141d96101608801613bce565b90509295509295509295565b6001600160a01b03929092168252602082015260400190565b8051613bd9816133e7565b60006020828403121561421b57600080fd5b604051602081016001600160401b038111828210171561423d5761423d613863565b8060405250809150825161425081613bc0565b905292915050565b600081830361018081121561426c57600080fd5b614274613879565b606082121561428257600080fd5b61428a613879565b8451614295816133e7565b815260208501516142a5816133e7565b602082015260408501516142b8816133e7565b60408201528152610100605f1983018113156142d357600080fd5b6142db6138c3565b9250606085015183526080850151602084015260a0850151604084015260c0850151606084015260e085015160808401528085015160a08401525061012084015160c083015261014084015160e0830152816020820152614340856101608601614209565b6040820152949350505050565b600082601f83011261435e57600080fd5b8151602061436e613eea83613e6b565b82815260059290921b8401810191818101908684111561438d57600080fd5b8286015b848110156105555780516143a4816133e7565b8352918301918301614391565b600060c082840312156143c357600080fd5b6143cb6138e6565b9050815181526020820151602082015260408201516040820152606082015160608201526080820151608082015260a082015160a082015292915050565b60006020828403121561441b57600080fd5b81516001600160401b038082111561443257600080fd5b818401915061010080838703121561444957600080fd5b614451613879565b83518381111561446057600080fd5b840180880383131561447157600080fd5b6144796138c3565b9250614484816141fe565b8352614492602082016141fe565b60208401526144a3604082016141fe565b60408401526144b4606082016141fe565b60608401526144c5608082016141fe565b60808401526144d660a082016141fe565b60a084015260c0810151848111156144ed57600080fd5b6144f98982840161434d565b60c08501525060e08101518481111561451157600080fd5b61451d8982840161434d565b60e0850152505081815261453487602086016143b1565b60208201526145468760e08601614209565b60408201529695505050505050565b634e487b7160e01b600052603260045260246000fd5b805160088110613bd957600080fd5b805160038110613bd957600080fd5b6000610140828403121561459c57600080fd5b6145a4613908565b90506145af8261456b565b81526145bd6020830161457a565b602082015260408201516040820152606082015160608201526080820151608082015260a082015160a082015260c082015160c082015260e082015160e082015261010080830151818301525061012080830151818301525092915050565b60006060828403121561462e57600080fd5b614636613879565b9050815161464381613bc0565b8152602082015161465381613bc0565b60208201526040820151613cbb81613bc0565b60006020828403121561467857600080fd5b81516001600160401b038082111561468f57600080fd5b908301906101c082860312156146a457600080fd5b6146ac613879565b8251828111156146bb57600080fd5b830160c081880312156146cd57600080fd5b6146d56138e6565b81516146e0816133e7565b815260208201516146f0816133e7565b60208201526040820151614703816133e7565b6040820152614714606083016141fe565b6060820152614725608083016141fe565b608082015260a08201518481111561473c57600080fd5b6147488982850161434d565b60a08301525082525061475e8660208501614589565b602082015261477186610160850161461c565b604082015295945050505050565b634e487b7160e01b600052601160045260246000fd5b6000600182016147a7576147a761477f565b5060010190565b6001600160a01b0392831681529116602082015260400190565b6000608082840312156147da57600080fd5b604051608081016001600160401b03811182821017156147fc576147fc613863565b604052825161480a816133e7565b8152602083015161481a816133e7565b6020820152604083015161482d816133e7565b60408201526060830151614840816133e7565b60608201529392505050565b60006020828403121561485e57600080fd5b81516001600160401b038082111561487557600080fd5b90830190610100828603121561488a57600080fd5b614892613879565b8251828111156148a157600080fd5b830160c081880312156148b357600080fd5b6148bb6138e6565b6148c4826141fe565b81526148d2602083016141fe565b60208201526148e3604083016141fe565b60408201526148f4606083016141fe565b606082015260808201518481111561490b57600080fd5b6149178982850161434d565b60808301525060a08201518481111561492f57600080fd5b61493b8982850161434d565b60a08301525082525061495186602085016143b1565b60208201526147718660e08501614209565b6000602080838503121561497657600080fd5b82516001600160401b0381111561498c57600080fd5b8301601f8101851361499d57600080fd5b80516149ab613eea82613e6b565b81815260059190911b820183019083810190878311156149ca57600080fd5b928401925b82841015610681578351825292840192908401906149cf565b634e487b7160e01b600052601260045260246000fd5b600082614a0d57614a0d6149e8565b500490565b808201808211156103875761038761477f565b6000816000190483118215151615614a3f57614a3f61477f565b500290565b8181036000831280158383131683831282161715614a6457614a6461477f565b5092915050565b60006001600160ff1b0381841382841380821686840486111615614a9157614a9161477f565b600160ff1b6000871282811687830589121615614ab057614ab061477f565b60008712925087820587128484161615614acc57614acc61477f565b87850587128184161615614ae257614ae261477f565b505050929093029392505050565b600082614aff57614aff6149e8565b600160ff1b821460001984141615614b1957614b1961477f565b500590565b818103818111156103875761038761477f565b6000600160ff1b8201614b4657614b4661477f565b5060000390565b600060208284031215614b5f57600080fd5b81516001600160401b03811115614b7557600080fd5b611ace8482850161434d565b8082018281126000831280158216821582161715614ba157614ba161477f565b505092915050565b600060208284031215614bbb57600080fd5b5051919050565b6001600160a01b0391909116815260200190565b600060208284031215614be857600080fd5b815161096f816133e7565b60008060408385031215614c0657600080fd5b50508051602090910151909290915056fe6765744d61726b6574546f6b656e50726963653a20756e657870656374656420a264697066735822122002aa2ed31eda263bcbaf0888ecef158e31c1852eb962636600fea992ca33331764736f6c63430008100033",
  "linkReferences": {
    "contracts/deposit/DepositStoreUtils.sol": {
      "DepositStoreUtils": [
        {
          "length": 20,
          "start": 964
        }
      ]
    },
    "contracts/market/MarketStoreUtils.sol": {
      "MarketStoreUtils": [
        {
          "length": 20,
          "start": 1731
        },
        {
          "length": 20,
          "start": 2212
        },
        {
          "length": 20,
          "start": 2476
        },
        {
          "length": 20,
          "start": 2970
        },
        {
          "length": 20,
          "start": 3593
        }
      ]
    },
    "contracts/order/OrderStoreUtils.sol": {
      "OrderStoreUtils": [
        {
          "length": 20,
          "start": 1224
        },
        {
          "length": 20,
          "start": 1431
        }
      ]
    },
    "contracts/position/PositionStoreUtils.sol": {
      "PositionStoreUtils": [
        {
          "length": 20,
          "start": 824
        },
        {
          "length": 20,
          "start": 1568
        },
        {
          "length": 20,
          "start": 1987
        },
        {
          "length": 20,
          "start": 2856
        }
      ]
    },
    "contracts/withdrawal/WithdrawalStoreUtils.sol": {
      "WithdrawalStoreUtils": [
        {
          "length": 20,
          "start": 3799
        }
      ]
    }
  },
  "deployedLinkReferences": {
    "contracts/deposit/DepositStoreUtils.sol": {
      "DepositStoreUtils": [
        {
          "length": 20,
          "start": 932
        }
      ]
    },
    "contracts/market/MarketStoreUtils.sol": {
      "MarketStoreUtils": [
        {
          "length": 20,
          "start": 1699
        },
        {
          "length": 20,
          "start": 2180
        },
        {
          "length": 20,
          "start": 2444
        },
        {
          "length": 20,
          "start": 2938
        },
        {
          "length": 20,
          "start": 3561
        }
      ]
    },
    "contracts/order/OrderStoreUtils.sol": {
      "OrderStoreUtils": [
        {
          "length": 20,
          "start": 1192
        },
        {
          "length": 20,
          "start": 1399
        }
      ]
    },
    "contracts/position/PositionStoreUtils.sol": {
      "PositionStoreUtils": [
        {
          "length": 20,
          "start": 792
        },
        {
          "length": 20,
          "start": 1536
        },
        {
          "length": 20,
          "start": 1955
        },
        {
          "length": 20,
          "start": 2824
        }
      ]
    },
    "contracts/withdrawal/WithdrawalStoreUtils.sol": {
      "WithdrawalStoreUtils": [
        {
          "length": 20,
          "start": 3767
        }
      ]
    }
  }
}