{
  "_format": "hh-sol-artifact-1",
  "contractName": "Reader",
  "sourceName": "contracts/reader/Reader.sol",
  "abi": [
    {
      "inputs": [
        {
          "internalType": "uint256",
          "name": "x",
          "type": "uint256"
        }
      ],
      "name": "PRBMathUD60x18__Exp2InputTooBig",
      "type": "error"
    },
    {
      "inputs": [
        {
          "internalType": "uint256",
          "name": "x",
          "type": "uint256"
        }
      ],
      "name": "PRBMathUD60x18__LogInputTooSmall",
      "type": "error"
    },
    {
      "inputs": [
        {
          "internalType": "uint256",
          "name": "prod1",
          "type": "uint256"
        }
      ],
      "name": "PRBMath__MulDivFixedPointOverflow",
      "type": "error"
    },
    {
      "inputs": [],
      "name": "UnableToGetBorrowingFactorEmptyPoolUsd",
      "type": "error"
    },
    {
      "inputs": [
        {
          "internalType": "contract DataStore",
          "name": "dataStore",
          "type": "address"
        },
        {
          "internalType": "address",
          "name": "account",
          "type": "address"
        },
        {
          "internalType": "uint256",
          "name": "start",
          "type": "uint256"
        },
        {
          "internalType": "uint256",
          "name": "end",
          "type": "uint256"
        }
      ],
      "name": "getAccountOrders",
      "outputs": [
        {
          "components": [
            {
              "components": [
                {
                  "internalType": "address",
                  "name": "account",
                  "type": "address"
                },
                {
                  "internalType": "address",
                  "name": "receiver",
                  "type": "address"
                },
                {
                  "internalType": "address",
                  "name": "callbackContract",
                  "type": "address"
                },
                {
                  "internalType": "address",
                  "name": "uiFeeReceiver",
                  "type": "address"
                },
                {
                  "internalType": "address",
                  "name": "market",
                  "type": "address"
                },
                {
                  "internalType": "address",
                  "name": "initialCollateralToken",
                  "type": "address"
                },
                {
                  "internalType": "address[]",
                  "name": "swapPath",
                  "type": "address[]"
                }
              ],
              "internalType": "struct Order.Addresses",
              "name": "addresses",
              "type": "tuple"
            },
            {
              "components": [
                {
                  "internalType": "enum Order.OrderType",
                  "name": "orderType",
                  "type": "uint8"
                },
                {
                  "internalType": "enum Order.DecreasePositionSwapType",
                  "name": "decreasePositionSwapType",
                  "type": "uint8"
                },
                {
                  "internalType": "uint256",
                  "name": "sizeDeltaUsd",
                  "type": "uint256"
                },
                {
                  "internalType": "uint256",
                  "name": "initialCollateralDeltaAmount",
                  "type": "uint256"
                },
                {
                  "internalType": "uint256",
                  "name": "triggerPrice",
                  "type": "uint256"
                },
                {
                  "internalType": "uint256",
                  "name": "acceptablePrice",
                  "type": "uint256"
                },
                {
                  "internalType": "uint256",
                  "name": "executionFee",
                  "type": "uint256"
                },
                {
                  "internalType": "uint256",
                  "name": "callbackGasLimit",
                  "type": "uint256"
                },
                {
                  "internalType": "uint256",
                  "name": "minOutputAmount",
                  "type": "uint256"
                },
                {
                  "internalType": "uint256",
                  "name": "updatedAtBlock",
                  "type": "uint256"
                }
              ],
              "internalType": "struct Order.Numbers",
              "name": "numbers",
              "type": "tuple"
            },
            {
              "components": [
                {
                  "internalType": "bool",
                  "name": "isLong",
                  "type": "bool"
                },
                {
                  "internalType": "bool",
                  "name": "shouldUnwrapNativeToken",
                  "type": "bool"
                },
                {
                  "internalType": "bool",
                  "name": "isFrozen",
                  "type": "bool"
                }
              ],
              "internalType": "struct Order.Flags",
              "name": "flags",
              "type": "tuple"
            }
          ],
          "internalType": "struct Order.Props[]",
          "name": "",
          "type": "tuple[]"
        }
      ],
      "stateMutability": "view",
      "type": "function"
    },
    {
      "inputs": [
        {
          "internalType": "contract DataStore",
          "name": "dataStore",
          "type": "address"
        },
        {
          "internalType": "contract IReferralStorage",
          "name": "referralStorage",
          "type": "address"
        },
        {
          "internalType": "bytes32[]",
          "name": "positionKeys",
          "type": "bytes32[]"
        },
        {
          "components": [
            {
              "components": [
                {
                  "internalType": "uint256",
                  "name": "min",
                  "type": "uint256"
                },
                {
                  "internalType": "uint256",
                  "name": "max",
                  "type": "uint256"
                }
              ],
              "internalType": "struct Price.Props",
              "name": "indexTokenPrice",
              "type": "tuple"
            },
            {
              "components": [
                {
                  "internalType": "uint256",
                  "name": "min",
                  "type": "uint256"
                },
                {
                  "internalType": "uint256",
                  "name": "max",
                  "type": "uint256"
                }
              ],
              "internalType": "struct Price.Props",
              "name": "longTokenPrice",
              "type": "tuple"
            },
            {
              "components": [
                {
                  "internalType": "uint256",
                  "name": "min",
                  "type": "uint256"
                },
                {
                  "internalType": "uint256",
                  "name": "max",
                  "type": "uint256"
                }
              ],
              "internalType": "struct Price.Props",
              "name": "shortTokenPrice",
              "type": "tuple"
            }
          ],
          "internalType": "struct MarketUtils.MarketPrices[]",
          "name": "prices",
          "type": "tuple[]"
        },
        {
          "internalType": "address",
          "name": "uiFeeReceiver",
          "type": "address"
        }
      ],
      "name": "getAccountPositionInfoList",
      "outputs": [
        {
          "components": [
            {
              "components": [
                {
                  "components": [
                    {
                      "internalType": "address",
                      "name": "account",
                      "type": "address"
                    },
                    {
                      "internalType": "address",
                      "name": "market",
                      "type": "address"
                    },
                    {
                      "internalType": "address",
                      "name": "collateralToken",
                      "type": "address"
                    }
                  ],
                  "internalType": "struct Position.Addresses",
                  "name": "addresses",
                  "type": "tuple"
                },
                {
                  "components": [
                    {
                      "internalType": "uint256",
                      "name": "sizeInUsd",
                      "type": "uint256"
                    },
                    {
                      "internalType": "uint256",
                      "name": "sizeInTokens",
                      "type": "uint256"
                    },
                    {
                      "internalType": "uint256",
                      "name": "collateralAmount",
                      "type": "uint256"
                    },
                    {
                      "internalType": "uint256",
                      "name": "borrowingFactor",
                      "type": "uint256"
                    },
                    {
                      "internalType": "int256",
                      "name": "longTokenFundingAmountPerSize",
                      "type": "int256"
                    },
                    {
                      "internalType": "int256",
                      "name": "shortTokenFundingAmountPerSize",
                      "type": "int256"
                    },
                    {
                      "internalType": "uint256",
                      "name": "increasedAtBlock",
                      "type": "uint256"
                    },
                    {
                      "internalType": "uint256",
                      "name": "decreasedAtBlock",
                      "type": "uint256"
                    }
                  ],
                  "internalType": "struct Position.Numbers",
                  "name": "numbers",
                  "type": "tuple"
                },
                {
                  "components": [
                    {
                      "internalType": "bool",
                      "name": "isLong",
                      "type": "bool"
                    }
                  ],
                  "internalType": "struct Position.Flags",
                  "name": "flags",
                  "type": "tuple"
                }
              ],
              "internalType": "struct Position.Props",
              "name": "position",
              "type": "tuple"
            },
            {
              "components": [
                {
                  "components": [
                    {
                      "internalType": "bytes32",
                      "name": "referralCode",
                      "type": "bytes32"
                    },
                    {
                      "internalType": "address",
                      "name": "affiliate",
                      "type": "address"
                    },
                    {
                      "internalType": "address",
                      "name": "trader",
                      "type": "address"
                    },
                    {
                      "internalType": "uint256",
                      "name": "totalRebateFactor",
                      "type": "uint256"
                    },
                    {
                      "internalType": "uint256",
                      "name": "traderDiscountFactor",
                      "type": "uint256"
                    },
                    {
                      "internalType": "uint256",
                      "name": "totalRebateAmount",
                      "type": "uint256"
                    },
                    {
                      "internalType": "uint256",
                      "name": "traderDiscountAmount",
                      "type": "uint256"
                    },
                    {
                      "internalType": "uint256",
                      "name": "affiliateRewardAmount",
                      "type": "uint256"
                    }
                  ],
                  "internalType": "struct PositionPricingUtils.PositionReferralFees",
                  "name": "referral",
                  "type": "tuple"
                },
                {
                  "components": [
                    {
                      "internalType": "uint256",
                      "name": "fundingFeeAmount",
                      "type": "uint256"
                    },
                    {
                      "internalType": "uint256",
                      "name": "claimableLongTokenAmount",
                      "type": "uint256"
                    },
                    {
                      "internalType": "uint256",
                      "name": "claimableShortTokenAmount",
                      "type": "uint256"
                    },
                    {
                      "internalType": "int256",
                      "name": "latestLongTokenFundingAmountPerSize",
                      "type": "int256"
                    },
                    {
                      "internalType": "int256",
                      "name": "latestShortTokenFundingAmountPerSize",
                      "type": "int256"
                    }
                  ],
                  "internalType": "struct PositionPricingUtils.PositionFundingFees",
                  "name": "funding",
                  "type": "tuple"
                },
                {
                  "components": [
                    {
                      "internalType": "uint256",
                      "name": "borrowingFeeUsd",
                      "type": "uint256"
                    },
                    {
                      "internalType": "uint256",
                      "name": "borrowingFeeAmount",
                      "type": "uint256"
                    },
                    {
                      "internalType": "uint256",
                      "name": "borrowingFeeReceiverFactor",
                      "type": "uint256"
                    },
                    {
                      "internalType": "uint256",
                      "name": "borrowingFeeAmountForFeeReceiver",
                      "type": "uint256"
                    }
                  ],
                  "internalType": "struct PositionPricingUtils.PositionBorrowingFees",
                  "name": "borrowing",
                  "type": "tuple"
                },
                {
                  "components": [
                    {
                      "internalType": "address",
                      "name": "uiFeeReceiver",
                      "type": "address"
                    },
                    {
                      "internalType": "uint256",
                      "name": "uiFeeReceiverFactor",
                      "type": "uint256"
                    },
                    {
                      "internalType": "uint256",
                      "name": "uiFeeAmount",
                      "type": "uint256"
                    }
                  ],
                  "internalType": "struct PositionPricingUtils.PositionUiFees",
                  "name": "ui",
                  "type": "tuple"
                },
                {
                  "components": [
                    {
                      "internalType": "uint256",
                      "name": "min",
                      "type": "uint256"
                    },
                    {
                      "internalType": "uint256",
                      "name": "max",
                      "type": "uint256"
                    }
                  ],
                  "internalType": "struct Price.Props",
                  "name": "collateralTokenPrice",
                  "type": "tuple"
                },
                {
                  "internalType": "uint256",
                  "name": "positionFeeFactor",
                  "type": "uint256"
                },
                {
                  "internalType": "uint256",
                  "name": "protocolFeeAmount",
                  "type": "uint256"
                },
                {
                  "internalType": "uint256",
                  "name": "positionFeeReceiverFactor",
                  "type": "uint256"
                },
                {
                  "internalType": "uint256",
                  "name": "feeReceiverAmount",
                  "type": "uint256"
                },
                {
                  "internalType": "uint256",
                  "name": "feeAmountForPool",
                  "type": "uint256"
                },
                {
                  "internalType": "uint256",
                  "name": "positionFeeAmountForPool",
                  "type": "uint256"
                },
                {
                  "internalType": "uint256",
                  "name": "positionFeeAmount",
                  "type": "uint256"
                },
                {
                  "internalType": "uint256",
                  "name": "totalNetCostAmount",
                  "type": "uint256"
                },
                {
                  "internalType": "uint256",
                  "name": "collateralCostAmount",
                  "type": "uint256"
                }
              ],
              "internalType": "struct PositionPricingUtils.PositionFees",
              "name": "fees",
              "type": "tuple"
            }
          ],
          "internalType": "struct PositionInfo[]",
          "name": "",
          "type": "tuple[]"
        }
      ],
      "stateMutability": "view",
      "type": "function"
    },
    {
      "inputs": [
        {
          "internalType": "contract DataStore",
          "name": "dataStore",
          "type": "address"
        },
        {
          "internalType": "address",
          "name": "account",
          "type": "address"
        },
        {
          "internalType": "uint256",
          "name": "start",
          "type": "uint256"
        },
        {
          "internalType": "uint256",
          "name": "end",
          "type": "uint256"
        }
      ],
      "name": "getAccountPositions",
      "outputs": [
        {
          "components": [
            {
              "components": [
                {
                  "internalType": "address",
                  "name": "account",
                  "type": "address"
                },
                {
                  "internalType": "address",
                  "name": "market",
                  "type": "address"
                },
                {
                  "internalType": "address",
                  "name": "collateralToken",
                  "type": "address"
                }
              ],
              "internalType": "struct Position.Addresses",
              "name": "addresses",
              "type": "tuple"
            },
            {
              "components": [
                {
                  "internalType": "uint256",
                  "name": "sizeInUsd",
                  "type": "uint256"
                },
                {
                  "internalType": "uint256",
                  "name": "sizeInTokens",
                  "type": "uint256"
                },
                {
                  "internalType": "uint256",
                  "name": "collateralAmount",
                  "type": "uint256"
                },
                {
                  "internalType": "uint256",
                  "name": "borrowingFactor",
                  "type": "uint256"
                },
                {
                  "internalType": "int256",
                  "name": "longTokenFundingAmountPerSize",
                  "type": "int256"
                },
                {
                  "internalType": "int256",
                  "name": "shortTokenFundingAmountPerSize",
                  "type": "int256"
                },
                {
                  "internalType": "uint256",
                  "name": "increasedAtBlock",
                  "type": "uint256"
                },
                {
                  "internalType": "uint256",
                  "name": "decreasedAtBlock",
                  "type": "uint256"
                }
              ],
              "internalType": "struct Position.Numbers",
              "name": "numbers",
              "type": "tuple"
            },
            {
              "components": [
                {
                  "internalType": "bool",
                  "name": "isLong",
                  "type": "bool"
                }
              ],
              "internalType": "struct Position.Flags",
              "name": "flags",
              "type": "tuple"
            }
          ],
          "internalType": "struct Position.Props[]",
          "name": "",
          "type": "tuple[]"
        }
      ],
      "stateMutability": "view",
      "type": "function"
    },
    {
      "inputs": [
        {
          "internalType": "contract DataStore",
          "name": "dataStore",
          "type": "address"
        },
        {
          "internalType": "bytes32",
          "name": "key",
          "type": "bytes32"
        }
      ],
      "name": "getDeposit",
      "outputs": [
        {
          "components": [
            {
              "components": [
                {
                  "internalType": "address",
                  "name": "account",
                  "type": "address"
                },
                {
                  "internalType": "address",
                  "name": "receiver",
                  "type": "address"
                },
                {
                  "internalType": "address",
                  "name": "callbackContract",
                  "type": "address"
                },
                {
                  "internalType": "address",
                  "name": "uiFeeReceiver",
                  "type": "address"
                },
                {
                  "internalType": "address",
                  "name": "market",
                  "type": "address"
                },
                {
                  "internalType": "address",
                  "name": "initialLongToken",
                  "type": "address"
                },
                {
                  "internalType": "address",
                  "name": "initialShortToken",
                  "type": "address"
                },
                {
                  "internalType": "address[]",
                  "name": "longTokenSwapPath",
                  "type": "address[]"
                },
                {
                  "internalType": "address[]",
                  "name": "shortTokenSwapPath",
                  "type": "address[]"
                }
              ],
              "internalType": "struct Deposit.Addresses",
              "name": "addresses",
              "type": "tuple"
            },
            {
              "components": [
                {
                  "internalType": "uint256",
                  "name": "initialLongTokenAmount",
                  "type": "uint256"
                },
                {
                  "internalType": "uint256",
                  "name": "initialShortTokenAmount",
                  "type": "uint256"
                },
                {
                  "internalType": "uint256",
                  "name": "minMarketTokens",
                  "type": "uint256"
                },
                {
                  "internalType": "uint256",
                  "name": "updatedAtBlock",
                  "type": "uint256"
                },
                {
                  "internalType": "uint256",
                  "name": "executionFee",
                  "type": "uint256"
                },
                {
                  "internalType": "uint256",
                  "name": "callbackGasLimit",
                  "type": "uint256"
                }
              ],
              "internalType": "struct Deposit.Numbers",
              "name": "numbers",
              "type": "tuple"
            },
            {
              "components": [
                {
                  "internalType": "bool",
                  "name": "shouldUnwrapNativeToken",
                  "type": "bool"
                }
              ],
              "internalType": "struct Deposit.Flags",
              "name": "flags",
              "type": "tuple"
            }
          ],
          "internalType": "struct Deposit.Props",
          "name": "",
          "type": "tuple"
        }
      ],
      "stateMutability": "view",
      "type": "function"
    },
    {
      "inputs": [
        {
          "internalType": "contract DataStore",
          "name": "dataStore",
          "type": "address"
        },
        {
          "internalType": "address",
          "name": "marketKey",
          "type": "address"
        },
        {
          "components": [
            {
              "internalType": "uint256",
              "name": "min",
              "type": "uint256"
            },
            {
              "internalType": "uint256",
              "name": "max",
              "type": "uint256"
            }
          ],
          "internalType": "struct Price.Props",
          "name": "indexTokenPrice",
          "type": "tuple"
        },
        {
          "internalType": "int256",
          "name": "sizeDeltaUsd",
          "type": "int256"
        },
        {
          "internalType": "bool",
          "name": "isLong",
          "type": "bool"
        }
      ],
      "name": "getExecutionPrice",
      "outputs": [
        {
          "components": [
            {
              "internalType": "int256",
              "name": "priceImpactUsdBeforeCap",
              "type": "int256"
            },
            {
              "internalType": "int256",
              "name": "priceImpactUsdAfterCap",
              "type": "int256"
            },
            {
              "internalType": "int256",
              "name": "priceImpactUsd",
              "type": "int256"
            },
            {
              "internalType": "uint256",
              "name": "priceImpactDiffUsd",
              "type": "uint256"
            },
            {
              "internalType": "uint256",
              "name": "executionPrice",
              "type": "uint256"
            }
          ],
          "internalType": "struct ReaderUtils.ExecutionPriceResult",
          "name": "",
          "type": "tuple"
        }
      ],
      "stateMutability": "view",
      "type": "function"
    },
    {
      "inputs": [
        {
          "internalType": "contract DataStore",
          "name": "dataStore",
          "type": "address"
        },
        {
          "internalType": "address",
          "name": "key",
          "type": "address"
        }
      ],
      "name": "getMarket",
      "outputs": [
        {
          "components": [
            {
              "internalType": "address",
              "name": "marketToken",
              "type": "address"
            },
            {
              "internalType": "address",
              "name": "indexToken",
              "type": "address"
            },
            {
              "internalType": "address",
              "name": "longToken",
              "type": "address"
            },
            {
              "internalType": "address",
              "name": "shortToken",
              "type": "address"
            }
          ],
          "internalType": "struct Market.Props",
          "name": "",
          "type": "tuple"
        }
      ],
      "stateMutability": "view",
      "type": "function"
    },
    {
      "inputs": [
        {
          "internalType": "contract DataStore",
          "name": "dataStore",
          "type": "address"
        },
        {
          "internalType": "bytes32",
          "name": "salt",
          "type": "bytes32"
        }
      ],
      "name": "getMarketBySalt",
      "outputs": [
        {
          "components": [
            {
              "internalType": "address",
              "name": "marketToken",
              "type": "address"
            },
            {
              "internalType": "address",
              "name": "indexToken",
              "type": "address"
            },
            {
              "internalType": "address",
              "name": "longToken",
              "type": "address"
            },
            {
              "internalType": "address",
              "name": "shortToken",
              "type": "address"
            }
          ],
          "internalType": "struct Market.Props",
          "name": "",
          "type": "tuple"
        }
      ],
      "stateMutability": "view",
      "type": "function"
    },
    {
      "inputs": [
        {
          "internalType": "contract DataStore",
          "name": "dataStore",
          "type": "address"
        },
        {
          "components": [
            {
              "components": [
                {
                  "internalType": "uint256",
                  "name": "min",
                  "type": "uint256"
                },
                {
                  "internalType": "uint256",
                  "name": "max",
                  "type": "uint256"
                }
              ],
              "internalType": "struct Price.Props",
              "name": "indexTokenPrice",
              "type": "tuple"
            },
            {
              "components": [
                {
                  "internalType": "uint256",
                  "name": "min",
                  "type": "uint256"
                },
                {
                  "internalType": "uint256",
                  "name": "max",
                  "type": "uint256"
                }
              ],
              "internalType": "struct Price.Props",
              "name": "longTokenPrice",
              "type": "tuple"
            },
            {
              "components": [
                {
                  "internalType": "uint256",
                  "name": "min",
                  "type": "uint256"
                },
                {
                  "internalType": "uint256",
                  "name": "max",
                  "type": "uint256"
                }
              ],
              "internalType": "struct Price.Props",
              "name": "shortTokenPrice",
              "type": "tuple"
            }
          ],
          "internalType": "struct MarketUtils.MarketPrices",
          "name": "prices",
          "type": "tuple"
        },
        {
          "internalType": "address",
          "name": "marketKey",
          "type": "address"
        }
      ],
      "name": "getMarketInfo",
      "outputs": [
        {
          "components": [
            {
              "components": [
                {
                  "internalType": "address",
                  "name": "marketToken",
                  "type": "address"
                },
                {
                  "internalType": "address",
                  "name": "indexToken",
                  "type": "address"
                },
                {
                  "internalType": "address",
                  "name": "longToken",
                  "type": "address"
                },
                {
                  "internalType": "address",
                  "name": "shortToken",
                  "type": "address"
                }
              ],
              "internalType": "struct Market.Props",
              "name": "market",
              "type": "tuple"
            },
            {
              "internalType": "uint256",
              "name": "borrowingFactorPerSecondForLongs",
              "type": "uint256"
            },
            {
              "internalType": "uint256",
              "name": "borrowingFactorPerSecondForShorts",
              "type": "uint256"
            },
            {
              "components": [
                {
                  "internalType": "bool",
                  "name": "longsPayShorts",
                  "type": "bool"
                },
                {
                  "internalType": "uint256",
                  "name": "fundingFactorPerSecond",
                  "type": "uint256"
                },
                {
                  "internalType": "int256",
                  "name": "fundingAmountPerSize_LongCollateral_LongPosition",
                  "type": "int256"
                },
                {
                  "internalType": "int256",
                  "name": "fundingAmountPerSize_LongCollateral_ShortPosition",
                  "type": "int256"
                },
                {
                  "internalType": "int256",
                  "name": "fundingAmountPerSize_ShortCollateral_LongPosition",
                  "type": "int256"
                },
                {
                  "internalType": "int256",
                  "name": "fundingAmountPerSize_ShortCollateral_ShortPosition",
                  "type": "int256"
                }
              ],
              "internalType": "struct MarketUtils.GetNextFundingAmountPerSizeResult",
              "name": "funding",
              "type": "tuple"
            },
            {
              "components": [
                {
                  "internalType": "uint256",
                  "name": "virtualPoolAmountForLongToken",
                  "type": "uint256"
                },
                {
                  "internalType": "uint256",
                  "name": "virtualPoolAmountForShortToken",
                  "type": "uint256"
                },
                {
                  "internalType": "int256",
                  "name": "virtualInventoryForPositions",
                  "type": "int256"
                }
              ],
              "internalType": "struct Reader.VirtualInventory",
              "name": "virtualInventory",
              "type": "tuple"
            },
            {
              "internalType": "bool",
              "name": "isDisabled",
              "type": "bool"
            }
          ],
          "internalType": "struct Reader.MarketInfo",
          "name": "",
          "type": "tuple"
        }
      ],
      "stateMutability": "view",
      "type": "function"
    },
    {
      "inputs": [
        {
          "internalType": "contract DataStore",
          "name": "dataStore",
          "type": "address"
        },
        {
          "components": [
            {
              "components": [
                {
                  "internalType": "uint256",
                  "name": "min",
                  "type": "uint256"
                },
                {
                  "internalType": "uint256",
                  "name": "max",
                  "type": "uint256"
                }
              ],
              "internalType": "struct Price.Props",
              "name": "indexTokenPrice",
              "type": "tuple"
            },
            {
              "components": [
                {
                  "internalType": "uint256",
                  "name": "min",
                  "type": "uint256"
                },
                {
                  "internalType": "uint256",
                  "name": "max",
                  "type": "uint256"
                }
              ],
              "internalType": "struct Price.Props",
              "name": "longTokenPrice",
              "type": "tuple"
            },
            {
              "components": [
                {
                  "internalType": "uint256",
                  "name": "min",
                  "type": "uint256"
                },
                {
                  "internalType": "uint256",
                  "name": "max",
                  "type": "uint256"
                }
              ],
              "internalType": "struct Price.Props",
              "name": "shortTokenPrice",
              "type": "tuple"
            }
          ],
          "internalType": "struct MarketUtils.MarketPrices[]",
          "name": "marketPricesList",
          "type": "tuple[]"
        },
        {
          "internalType": "uint256",
          "name": "start",
          "type": "uint256"
        },
        {
          "internalType": "uint256",
          "name": "end",
          "type": "uint256"
        }
      ],
      "name": "getMarketInfoList",
      "outputs": [
        {
          "components": [
            {
              "components": [
                {
                  "internalType": "address",
                  "name": "marketToken",
                  "type": "address"
                },
                {
                  "internalType": "address",
                  "name": "indexToken",
                  "type": "address"
                },
                {
                  "internalType": "address",
                  "name": "longToken",
                  "type": "address"
                },
                {
                  "internalType": "address",
                  "name": "shortToken",
                  "type": "address"
                }
              ],
              "internalType": "struct Market.Props",
              "name": "market",
              "type": "tuple"
            },
            {
              "internalType": "uint256",
              "name": "borrowingFactorPerSecondForLongs",
              "type": "uint256"
            },
            {
              "internalType": "uint256",
              "name": "borrowingFactorPerSecondForShorts",
              "type": "uint256"
            },
            {
              "components": [
                {
                  "internalType": "bool",
                  "name": "longsPayShorts",
                  "type": "bool"
                },
                {
                  "internalType": "uint256",
                  "name": "fundingFactorPerSecond",
                  "type": "uint256"
                },
                {
                  "internalType": "int256",
                  "name": "fundingAmountPerSize_LongCollateral_LongPosition",
                  "type": "int256"
                },
                {
                  "internalType": "int256",
                  "name": "fundingAmountPerSize_LongCollateral_ShortPosition",
                  "type": "int256"
                },
                {
                  "internalType": "int256",
                  "name": "fundingAmountPerSize_ShortCollateral_LongPosition",
                  "type": "int256"
                },
                {
                  "internalType": "int256",
                  "name": "fundingAmountPerSize_ShortCollateral_ShortPosition",
                  "type": "int256"
                }
              ],
              "internalType": "struct MarketUtils.GetNextFundingAmountPerSizeResult",
              "name": "funding",
              "type": "tuple"
            },
            {
              "components": [
                {
                  "internalType": "uint256",
                  "name": "virtualPoolAmountForLongToken",
                  "type": "uint256"
                },
                {
                  "internalType": "uint256",
                  "name": "virtualPoolAmountForShortToken",
                  "type": "uint256"
                },
                {
                  "internalType": "int256",
                  "name": "virtualInventoryForPositions",
                  "type": "int256"
                }
              ],
              "internalType": "struct Reader.VirtualInventory",
              "name": "virtualInventory",
              "type": "tuple"
            },
            {
              "internalType": "bool",
              "name": "isDisabled",
              "type": "bool"
            }
          ],
          "internalType": "struct Reader.MarketInfo[]",
          "name": "",
          "type": "tuple[]"
        }
      ],
      "stateMutability": "view",
      "type": "function"
    },
    {
      "inputs": [
        {
          "internalType": "contract DataStore",
          "name": "dataStore",
          "type": "address"
        },
        {
          "components": [
            {
              "internalType": "address",
              "name": "marketToken",
              "type": "address"
            },
            {
              "internalType": "address",
              "name": "indexToken",
              "type": "address"
            },
            {
              "internalType": "address",
              "name": "longToken",
              "type": "address"
            },
            {
              "internalType": "address",
              "name": "shortToken",
              "type": "address"
            }
          ],
          "internalType": "struct Market.Props",
          "name": "market",
          "type": "tuple"
        },
        {
          "components": [
            {
              "internalType": "uint256",
              "name": "min",
              "type": "uint256"
            },
            {
              "internalType": "uint256",
              "name": "max",
              "type": "uint256"
            }
          ],
          "internalType": "struct Price.Props",
          "name": "indexTokenPrice",
          "type": "tuple"
        },
        {
          "components": [
            {
              "internalType": "uint256",
              "name": "min",
              "type": "uint256"
            },
            {
              "internalType": "uint256",
              "name": "max",
              "type": "uint256"
            }
          ],
          "internalType": "struct Price.Props",
          "name": "longTokenPrice",
          "type": "tuple"
        },
        {
          "components": [
            {
              "internalType": "uint256",
              "name": "min",
              "type": "uint256"
            },
            {
              "internalType": "uint256",
              "name": "max",
              "type": "uint256"
            }
          ],
          "internalType": "struct Price.Props",
          "name": "shortTokenPrice",
          "type": "tuple"
        },
        {
          "internalType": "bytes32",
          "name": "pnlFactorType",
          "type": "bytes32"
        },
        {
          "internalType": "bool",
          "name": "maximize",
          "type": "bool"
        }
      ],
      "name": "getMarketTokenPrice",
      "outputs": [
        {
          "internalType": "int256",
          "name": "",
          "type": "int256"
        },
        {
          "components": [
            {
              "internalType": "int256",
              "name": "poolValue",
              "type": "int256"
            },
            {
              "internalType": "int256",
              "name": "longPnl",
              "type": "int256"
            },
            {
              "internalType": "int256",
              "name": "shortPnl",
              "type": "int256"
            },
            {
              "internalType": "int256",
              "name": "netPnl",
              "type": "int256"
            },
            {
              "internalType": "uint256",
              "name": "longTokenAmount",
              "type": "uint256"
            },
            {
              "internalType": "uint256",
              "name": "shortTokenAmount",
              "type": "uint256"
            },
            {
              "internalType": "uint256",
              "name": "longTokenUsd",
              "type": "uint256"
            },
            {
              "internalType": "uint256",
              "name": "shortTokenUsd",
              "type": "uint256"
            },
            {
              "internalType": "uint256",
              "name": "totalBorrowingFees",
              "type": "uint256"
            },
            {
              "internalType": "uint256",
              "name": "borrowingFeePoolFactor",
              "type": "uint256"
            },
            {
              "internalType": "uint256",
              "name": "impactPoolAmount",
              "type": "uint256"
            }
          ],
          "internalType": "struct MarketPoolValueInfo.Props",
          "name": "",
          "type": "tuple"
        }
      ],
      "stateMutability": "view",
      "type": "function"
    },
    {
      "inputs": [
        {
          "internalType": "contract DataStore",
          "name": "dataStore",
          "type": "address"
        },
        {
          "internalType": "uint256",
          "name": "start",
          "type": "uint256"
        },
        {
          "internalType": "uint256",
          "name": "end",
          "type": "uint256"
        }
      ],
      "name": "getMarkets",
      "outputs": [
        {
          "components": [
            {
              "internalType": "address",
              "name": "marketToken",
              "type": "address"
            },
            {
              "internalType": "address",
              "name": "indexToken",
              "type": "address"
            },
            {
              "internalType": "address",
              "name": "longToken",
              "type": "address"
            },
            {
              "internalType": "address",
              "name": "shortToken",
              "type": "address"
            }
          ],
          "internalType": "struct Market.Props[]",
          "name": "",
          "type": "tuple[]"
        }
      ],
      "stateMutability": "view",
      "type": "function"
    },
    {
      "inputs": [
        {
          "internalType": "contract DataStore",
          "name": "dataStore",
          "type": "address"
        },
        {
          "components": [
            {
              "internalType": "address",
              "name": "marketToken",
              "type": "address"
            },
            {
              "internalType": "address",
              "name": "indexToken",
              "type": "address"
            },
            {
              "internalType": "address",
              "name": "longToken",
              "type": "address"
            },
            {
              "internalType": "address",
              "name": "shortToken",
              "type": "address"
            }
          ],
          "internalType": "struct Market.Props",
          "name": "market",
          "type": "tuple"
        },
        {
          "components": [
            {
              "internalType": "uint256",
              "name": "min",
              "type": "uint256"
            },
            {
              "internalType": "uint256",
              "name": "max",
              "type": "uint256"
            }
          ],
          "internalType": "struct Price.Props",
          "name": "indexTokenPrice",
          "type": "tuple"
        },
        {
          "internalType": "bool",
          "name": "maximize",
          "type": "bool"
        }
      ],
      "name": "getNetPnl",
      "outputs": [
        {
          "internalType": "int256",
          "name": "",
          "type": "int256"
        }
      ],
      "stateMutability": "view",
      "type": "function"
    },
    {
      "inputs": [
        {
          "internalType": "contract DataStore",
          "name": "dataStore",
          "type": "address"
        },
        {
          "components": [
            {
              "internalType": "address",
              "name": "marketToken",
              "type": "address"
            },
            {
              "internalType": "address",
              "name": "indexToken",
              "type": "address"
            },
            {
              "internalType": "address",
              "name": "longToken",
              "type": "address"
            },
            {
              "internalType": "address",
              "name": "shortToken",
              "type": "address"
            }
          ],
          "internalType": "struct Market.Props",
          "name": "market",
          "type": "tuple"
        },
        {
          "components": [
            {
              "internalType": "uint256",
              "name": "min",
              "type": "uint256"
            },
            {
              "internalType": "uint256",
              "name": "max",
              "type": "uint256"
            }
          ],
          "internalType": "struct Price.Props",
          "name": "indexTokenPrice",
          "type": "tuple"
        },
        {
          "internalType": "bool",
          "name": "isLong",
          "type": "bool"
        },
        {
          "internalType": "bool",
          "name": "maximize",
          "type": "bool"
        }
      ],
      "name": "getOpenInterestWithPnl",
      "outputs": [
        {
          "internalType": "int256",
          "name": "",
          "type": "int256"
        }
      ],
      "stateMutability": "view",
      "type": "function"
    },
    {
      "inputs": [
        {
          "internalType": "contract DataStore",
          "name": "dataStore",
          "type": "address"
        },
        {
          "internalType": "bytes32",
          "name": "key",
          "type": "bytes32"
        }
      ],
      "name": "getOrder",
      "outputs": [
        {
          "components": [
            {
              "components": [
                {
                  "internalType": "address",
                  "name": "account",
                  "type": "address"
                },
                {
                  "internalType": "address",
                  "name": "receiver",
                  "type": "address"
                },
                {
                  "internalType": "address",
                  "name": "callbackContract",
                  "type": "address"
                },
                {
                  "internalType": "address",
                  "name": "uiFeeReceiver",
                  "type": "address"
                },
                {
                  "internalType": "address",
                  "name": "market",
                  "type": "address"
                },
                {
                  "internalType": "address",
                  "name": "initialCollateralToken",
                  "type": "address"
                },
                {
                  "internalType": "address[]",
                  "name": "swapPath",
                  "type": "address[]"
                }
              ],
              "internalType": "struct Order.Addresses",
              "name": "addresses",
              "type": "tuple"
            },
            {
              "components": [
                {
                  "internalType": "enum Order.OrderType",
                  "name": "orderType",
                  "type": "uint8"
                },
                {
                  "internalType": "enum Order.DecreasePositionSwapType",
                  "name": "decreasePositionSwapType",
                  "type": "uint8"
                },
                {
                  "internalType": "uint256",
                  "name": "sizeDeltaUsd",
                  "type": "uint256"
                },
                {
                  "internalType": "uint256",
                  "name": "initialCollateralDeltaAmount",
                  "type": "uint256"
                },
                {
                  "internalType": "uint256",
                  "name": "triggerPrice",
                  "type": "uint256"
                },
                {
                  "internalType": "uint256",
                  "name": "acceptablePrice",
                  "type": "uint256"
                },
                {
                  "internalType": "uint256",
                  "name": "executionFee",
                  "type": "uint256"
                },
                {
                  "internalType": "uint256",
                  "name": "callbackGasLimit",
                  "type": "uint256"
                },
                {
                  "internalType": "uint256",
                  "name": "minOutputAmount",
                  "type": "uint256"
                },
                {
                  "internalType": "uint256",
                  "name": "updatedAtBlock",
                  "type": "uint256"
                }
              ],
              "internalType": "struct Order.Numbers",
              "name": "numbers",
              "type": "tuple"
            },
            {
              "components": [
                {
                  "internalType": "bool",
                  "name": "isLong",
                  "type": "bool"
                },
                {
                  "internalType": "bool",
                  "name": "shouldUnwrapNativeToken",
                  "type": "bool"
                },
                {
                  "internalType": "bool",
                  "name": "isFrozen",
                  "type": "bool"
                }
              ],
              "internalType": "struct Order.Flags",
              "name": "flags",
              "type": "tuple"
            }
          ],
          "internalType": "struct Order.Props",
          "name": "",
          "type": "tuple"
        }
      ],
      "stateMutability": "view",
      "type": "function"
    },
    {
      "inputs": [
        {
          "internalType": "contract DataStore",
          "name": "dataStore",
          "type": "address"
        },
        {
          "components": [
            {
              "internalType": "address",
              "name": "marketToken",
              "type": "address"
            },
            {
              "internalType": "address",
              "name": "indexToken",
              "type": "address"
            },
            {
              "internalType": "address",
              "name": "longToken",
              "type": "address"
            },
            {
              "internalType": "address",
              "name": "shortToken",
              "type": "address"
            }
          ],
          "internalType": "struct Market.Props",
          "name": "market",
          "type": "tuple"
        },
        {
          "components": [
            {
              "internalType": "uint256",
              "name": "min",
              "type": "uint256"
            },
            {
              "internalType": "uint256",
              "name": "max",
              "type": "uint256"
            }
          ],
          "internalType": "struct Price.Props",
          "name": "indexTokenPrice",
          "type": "tuple"
        },
        {
          "internalType": "bool",
          "name": "isLong",
          "type": "bool"
        },
        {
          "internalType": "bool",
          "name": "maximize",
          "type": "bool"
        }
      ],
      "name": "getPnl",
      "outputs": [
        {
          "internalType": "int256",
          "name": "",
          "type": "int256"
        }
      ],
      "stateMutability": "view",
      "type": "function"
    },
    {
      "inputs": [
        {
          "internalType": "contract DataStore",
          "name": "dataStore",
          "type": "address"
        },
        {
          "internalType": "address",
          "name": "marketAddress",
          "type": "address"
        },
        {
          "components": [
            {
              "components": [
                {
                  "internalType": "uint256",
                  "name": "min",
                  "type": "uint256"
                },
                {
                  "internalType": "uint256",
                  "name": "max",
                  "type": "uint256"
                }
              ],
              "internalType": "struct Price.Props",
              "name": "indexTokenPrice",
              "type": "tuple"
            },
            {
              "components": [
                {
                  "internalType": "uint256",
                  "name": "min",
                  "type": "uint256"
                },
                {
                  "internalType": "uint256",
                  "name": "max",
                  "type": "uint256"
                }
              ],
              "internalType": "struct Price.Props",
              "name": "longTokenPrice",
              "type": "tuple"
            },
            {
              "components": [
                {
                  "internalType": "uint256",
                  "name": "min",
                  "type": "uint256"
                },
                {
                  "internalType": "uint256",
                  "name": "max",
                  "type": "uint256"
                }
              ],
              "internalType": "struct Price.Props",
              "name": "shortTokenPrice",
              "type": "tuple"
            }
          ],
          "internalType": "struct MarketUtils.MarketPrices",
          "name": "prices",
          "type": "tuple"
        },
        {
          "internalType": "bool",
          "name": "isLong",
          "type": "bool"
        },
        {
          "internalType": "bool",
          "name": "maximize",
          "type": "bool"
        }
      ],
      "name": "getPnlToPoolFactor",
      "outputs": [
        {
          "internalType": "int256",
          "name": "",
          "type": "int256"
        }
      ],
      "stateMutability": "view",
      "type": "function"
    },
    {
      "inputs": [
        {
          "internalType": "contract DataStore",
          "name": "dataStore",
          "type": "address"
        },
        {
          "internalType": "bytes32",
          "name": "key",
          "type": "bytes32"
        }
      ],
      "name": "getPosition",
      "outputs": [
        {
          "components": [
            {
              "components": [
                {
                  "internalType": "address",
                  "name": "account",
                  "type": "address"
                },
                {
                  "internalType": "address",
                  "name": "market",
                  "type": "address"
                },
                {
                  "internalType": "address",
                  "name": "collateralToken",
                  "type": "address"
                }
              ],
              "internalType": "struct Position.Addresses",
              "name": "addresses",
              "type": "tuple"
            },
            {
              "components": [
                {
                  "internalType": "uint256",
                  "name": "sizeInUsd",
                  "type": "uint256"
                },
                {
                  "internalType": "uint256",
                  "name": "sizeInTokens",
                  "type": "uint256"
                },
                {
                  "internalType": "uint256",
                  "name": "collateralAmount",
                  "type": "uint256"
                },
                {
                  "internalType": "uint256",
                  "name": "borrowingFactor",
                  "type": "uint256"
                },
                {
                  "internalType": "int256",
                  "name": "longTokenFundingAmountPerSize",
                  "type": "int256"
                },
                {
                  "internalType": "int256",
                  "name": "shortTokenFundingAmountPerSize",
                  "type": "int256"
                },
                {
                  "internalType": "uint256",
                  "name": "increasedAtBlock",
                  "type": "uint256"
                },
                {
                  "internalType": "uint256",
                  "name": "decreasedAtBlock",
                  "type": "uint256"
                }
              ],
              "internalType": "struct Position.Numbers",
              "name": "numbers",
              "type": "tuple"
            },
            {
              "components": [
                {
                  "internalType": "bool",
                  "name": "isLong",
                  "type": "bool"
                }
              ],
              "internalType": "struct Position.Flags",
              "name": "flags",
              "type": "tuple"
            }
          ],
          "internalType": "struct Position.Props",
          "name": "",
          "type": "tuple"
        }
      ],
      "stateMutability": "view",
      "type": "function"
    },
    {
      "inputs": [
        {
          "internalType": "contract DataStore",
          "name": "dataStore",
          "type": "address"
        },
        {
          "internalType": "contract IReferralStorage",
          "name": "referralStorage",
          "type": "address"
        },
        {
          "internalType": "bytes32",
          "name": "positionKey",
          "type": "bytes32"
        },
        {
          "components": [
            {
              "components": [
                {
                  "internalType": "uint256",
                  "name": "min",
                  "type": "uint256"
                },
                {
                  "internalType": "uint256",
                  "name": "max",
                  "type": "uint256"
                }
              ],
              "internalType": "struct Price.Props",
              "name": "indexTokenPrice",
              "type": "tuple"
            },
            {
              "components": [
                {
                  "internalType": "uint256",
                  "name": "min",
                  "type": "uint256"
                },
                {
                  "internalType": "uint256",
                  "name": "max",
                  "type": "uint256"
                }
              ],
              "internalType": "struct Price.Props",
              "name": "longTokenPrice",
              "type": "tuple"
            },
            {
              "components": [
                {
                  "internalType": "uint256",
                  "name": "min",
                  "type": "uint256"
                },
                {
                  "internalType": "uint256",
                  "name": "max",
                  "type": "uint256"
                }
              ],
              "internalType": "struct Price.Props",
              "name": "shortTokenPrice",
              "type": "tuple"
            }
          ],
          "internalType": "struct MarketUtils.MarketPrices",
          "name": "prices",
          "type": "tuple"
        },
        {
          "internalType": "uint256",
          "name": "sizeDeltaUsd",
          "type": "uint256"
        },
        {
          "internalType": "address",
          "name": "uiFeeReceiver",
          "type": "address"
        },
        {
          "internalType": "bool",
          "name": "usePositionSizeAsSizeDeltaUsd",
          "type": "bool"
        }
      ],
      "name": "getPositionInfo",
      "outputs": [
        {
          "components": [
            {
              "components": [
                {
                  "components": [
                    {
                      "internalType": "address",
                      "name": "account",
                      "type": "address"
                    },
                    {
                      "internalType": "address",
                      "name": "market",
                      "type": "address"
                    },
                    {
                      "internalType": "address",
                      "name": "collateralToken",
                      "type": "address"
                    }
                  ],
                  "internalType": "struct Position.Addresses",
                  "name": "addresses",
                  "type": "tuple"
                },
                {
                  "components": [
                    {
                      "internalType": "uint256",
                      "name": "sizeInUsd",
                      "type": "uint256"
                    },
                    {
                      "internalType": "uint256",
                      "name": "sizeInTokens",
                      "type": "uint256"
                    },
                    {
                      "internalType": "uint256",
                      "name": "collateralAmount",
                      "type": "uint256"
                    },
                    {
                      "internalType": "uint256",
                      "name": "borrowingFactor",
                      "type": "uint256"
                    },
                    {
                      "internalType": "int256",
                      "name": "longTokenFundingAmountPerSize",
                      "type": "int256"
                    },
                    {
                      "internalType": "int256",
                      "name": "shortTokenFundingAmountPerSize",
                      "type": "int256"
                    },
                    {
                      "internalType": "uint256",
                      "name": "increasedAtBlock",
                      "type": "uint256"
                    },
                    {
                      "internalType": "uint256",
                      "name": "decreasedAtBlock",
                      "type": "uint256"
                    }
                  ],
                  "internalType": "struct Position.Numbers",
                  "name": "numbers",
                  "type": "tuple"
                },
                {
                  "components": [
                    {
                      "internalType": "bool",
                      "name": "isLong",
                      "type": "bool"
                    }
                  ],
                  "internalType": "struct Position.Flags",
                  "name": "flags",
                  "type": "tuple"
                }
              ],
              "internalType": "struct Position.Props",
              "name": "position",
              "type": "tuple"
            },
            {
              "components": [
                {
                  "components": [
                    {
                      "internalType": "bytes32",
                      "name": "referralCode",
                      "type": "bytes32"
                    },
                    {
                      "internalType": "address",
                      "name": "affiliate",
                      "type": "address"
                    },
                    {
                      "internalType": "address",
                      "name": "trader",
                      "type": "address"
                    },
                    {
                      "internalType": "uint256",
                      "name": "totalRebateFactor",
                      "type": "uint256"
                    },
                    {
                      "internalType": "uint256",
                      "name": "traderDiscountFactor",
                      "type": "uint256"
                    },
                    {
                      "internalType": "uint256",
                      "name": "totalRebateAmount",
                      "type": "uint256"
                    },
                    {
                      "internalType": "uint256",
                      "name": "traderDiscountAmount",
                      "type": "uint256"
                    },
                    {
                      "internalType": "uint256",
                      "name": "affiliateRewardAmount",
                      "type": "uint256"
                    }
                  ],
                  "internalType": "struct PositionPricingUtils.PositionReferralFees",
                  "name": "referral",
                  "type": "tuple"
                },
                {
                  "components": [
                    {
                      "internalType": "uint256",
                      "name": "fundingFeeAmount",
                      "type": "uint256"
                    },
                    {
                      "internalType": "uint256",
                      "name": "claimableLongTokenAmount",
                      "type": "uint256"
                    },
                    {
                      "internalType": "uint256",
                      "name": "claimableShortTokenAmount",
                      "type": "uint256"
                    },
                    {
                      "internalType": "int256",
                      "name": "latestLongTokenFundingAmountPerSize",
                      "type": "int256"
                    },
                    {
                      "internalType": "int256",
                      "name": "latestShortTokenFundingAmountPerSize",
                      "type": "int256"
                    }
                  ],
                  "internalType": "struct PositionPricingUtils.PositionFundingFees",
                  "name": "funding",
                  "type": "tuple"
                },
                {
                  "components": [
                    {
                      "internalType": "uint256",
                      "name": "borrowingFeeUsd",
                      "type": "uint256"
                    },
                    {
                      "internalType": "uint256",
                      "name": "borrowingFeeAmount",
                      "type": "uint256"
                    },
                    {
                      "internalType": "uint256",
                      "name": "borrowingFeeReceiverFactor",
                      "type": "uint256"
                    },
                    {
                      "internalType": "uint256",
                      "name": "borrowingFeeAmountForFeeReceiver",
                      "type": "uint256"
                    }
                  ],
                  "internalType": "struct PositionPricingUtils.PositionBorrowingFees",
                  "name": "borrowing",
                  "type": "tuple"
                },
                {
                  "components": [
                    {
                      "internalType": "address",
                      "name": "uiFeeReceiver",
                      "type": "address"
                    },
                    {
                      "internalType": "uint256",
                      "name": "uiFeeReceiverFactor",
                      "type": "uint256"
                    },
                    {
                      "internalType": "uint256",
                      "name": "uiFeeAmount",
                      "type": "uint256"
                    }
                  ],
                  "internalType": "struct PositionPricingUtils.PositionUiFees",
                  "name": "ui",
                  "type": "tuple"
                },
                {
                  "components": [
                    {
                      "internalType": "uint256",
                      "name": "min",
                      "type": "uint256"
                    },
                    {
                      "internalType": "uint256",
                      "name": "max",
                      "type": "uint256"
                    }
                  ],
                  "internalType": "struct Price.Props",
                  "name": "collateralTokenPrice",
                  "type": "tuple"
                },
                {
                  "internalType": "uint256",
                  "name": "positionFeeFactor",
                  "type": "uint256"
                },
                {
                  "internalType": "uint256",
                  "name": "protocolFeeAmount",
                  "type": "uint256"
                },
                {
                  "internalType": "uint256",
                  "name": "positionFeeReceiverFactor",
                  "type": "uint256"
                },
                {
                  "internalType": "uint256",
                  "name": "feeReceiverAmount",
                  "type": "uint256"
                },
                {
                  "internalType": "uint256",
                  "name": "feeAmountForPool",
                  "type": "uint256"
                },
                {
                  "internalType": "uint256",
                  "name": "positionFeeAmountForPool",
                  "type": "uint256"
                },
                {
                  "internalType": "uint256",
                  "name": "positionFeeAmount",
                  "type": "uint256"
                },
                {
                  "internalType": "uint256",
                  "name": "totalNetCostAmount",
                  "type": "uint256"
                },
                {
                  "internalType": "uint256",
                  "name": "collateralCostAmount",
                  "type": "uint256"
                }
              ],
              "internalType": "struct PositionPricingUtils.PositionFees",
              "name": "fees",
              "type": "tuple"
            }
          ],
          "internalType": "struct PositionInfo",
          "name": "",
          "type": "tuple"
        }
      ],
      "stateMutability": "view",
      "type": "function"
    },
    {
      "inputs": [
        {
          "internalType": "contract DataStore",
          "name": "dataStore",
          "type": "address"
        },
        {
          "components": [
            {
              "internalType": "address",
              "name": "marketToken",
              "type": "address"
            },
            {
              "internalType": "address",
              "name": "indexToken",
              "type": "address"
            },
            {
              "internalType": "address",
              "name": "longToken",
              "type": "address"
            },
            {
              "internalType": "address",
              "name": "shortToken",
              "type": "address"
            }
          ],
          "internalType": "struct Market.Props",
          "name": "market",
          "type": "tuple"
        },
        {
          "components": [
            {
              "components": [
                {
                  "internalType": "uint256",
                  "name": "min",
                  "type": "uint256"
                },
                {
                  "internalType": "uint256",
                  "name": "max",
                  "type": "uint256"
                }
              ],
              "internalType": "struct Price.Props",
              "name": "indexTokenPrice",
              "type": "tuple"
            },
            {
              "components": [
                {
                  "internalType": "uint256",
                  "name": "min",
                  "type": "uint256"
                },
                {
                  "internalType": "uint256",
                  "name": "max",
                  "type": "uint256"
                }
              ],
              "internalType": "struct Price.Props",
              "name": "longTokenPrice",
              "type": "tuple"
            },
            {
              "components": [
                {
                  "internalType": "uint256",
                  "name": "min",
                  "type": "uint256"
                },
                {
                  "internalType": "uint256",
                  "name": "max",
                  "type": "uint256"
                }
              ],
              "internalType": "struct Price.Props",
              "name": "shortTokenPrice",
              "type": "tuple"
            }
          ],
          "internalType": "struct MarketUtils.MarketPrices",
          "name": "prices",
          "type": "tuple"
        },
        {
          "internalType": "address",
          "name": "tokenIn",
          "type": "address"
        },
        {
          "internalType": "uint256",
          "name": "amountIn",
          "type": "uint256"
        },
        {
          "internalType": "address",
          "name": "uiFeeReceiver",
          "type": "address"
        }
      ],
      "name": "getSwapAmountOut",
      "outputs": [
        {
          "internalType": "uint256",
          "name": "",
          "type": "uint256"
        },
        {
          "internalType": "int256",
          "name": "",
          "type": "int256"
        },
        {
          "components": [
            {
              "internalType": "uint256",
              "name": "feeReceiverAmount",
              "type": "uint256"
            },
            {
              "internalType": "uint256",
              "name": "feeAmountForPool",
              "type": "uint256"
            },
            {
              "internalType": "uint256",
              "name": "amountAfterFees",
              "type": "uint256"
            },
            {
              "internalType": "address",
              "name": "uiFeeReceiver",
              "type": "address"
            },
            {
              "internalType": "uint256",
              "name": "uiFeeReceiverFactor",
              "type": "uint256"
            },
            {
              "internalType": "uint256",
              "name": "uiFeeAmount",
              "type": "uint256"
            }
          ],
          "internalType": "struct SwapPricingUtils.SwapFees",
          "name": "fees",
          "type": "tuple"
        }
      ],
      "stateMutability": "view",
      "type": "function"
    },
    {
      "inputs": [
        {
          "internalType": "contract DataStore",
          "name": "dataStore",
          "type": "address"
        },
        {
          "internalType": "address",
          "name": "marketKey",
          "type": "address"
        },
        {
          "internalType": "address",
          "name": "tokenIn",
          "type": "address"
        },
        {
          "internalType": "address",
          "name": "tokenOut",
          "type": "address"
        },
        {
          "internalType": "uint256",
          "name": "amountIn",
          "type": "uint256"
        },
        {
          "components": [
            {
              "internalType": "uint256",
              "name": "min",
              "type": "uint256"
            },
            {
              "internalType": "uint256",
              "name": "max",
              "type": "uint256"
            }
          ],
          "internalType": "struct Price.Props",
          "name": "tokenInPrice",
          "type": "tuple"
        },
        {
          "components": [
            {
              "internalType": "uint256",
              "name": "min",
              "type": "uint256"
            },
            {
              "internalType": "uint256",
              "name": "max",
              "type": "uint256"
            }
          ],
          "internalType": "struct Price.Props",
          "name": "tokenOutPrice",
          "type": "tuple"
        }
      ],
      "name": "getSwapPriceImpact",
      "outputs": [
        {
          "internalType": "int256",
          "name": "",
          "type": "int256"
        },
        {
          "internalType": "int256",
          "name": "",
          "type": "int256"
        }
      ],
      "stateMutability": "view",
      "type": "function"
    },
    {
      "inputs": [
        {
          "internalType": "contract DataStore",
          "name": "dataStore",
          "type": "address"
        },
        {
          "internalType": "bytes32",
          "name": "key",
          "type": "bytes32"
        }
      ],
      "name": "getWithdrawal",
      "outputs": [
        {
          "components": [
            {
              "components": [
                {
                  "internalType": "address",
                  "name": "account",
                  "type": "address"
                },
                {
                  "internalType": "address",
                  "name": "receiver",
                  "type": "address"
                },
                {
                  "internalType": "address",
                  "name": "callbackContract",
                  "type": "address"
                },
                {
                  "internalType": "address",
                  "name": "uiFeeReceiver",
                  "type": "address"
                },
                {
                  "internalType": "address",
                  "name": "market",
                  "type": "address"
                },
                {
                  "internalType": "address[]",
                  "name": "longTokenSwapPath",
                  "type": "address[]"
                },
                {
                  "internalType": "address[]",
                  "name": "shortTokenSwapPath",
                  "type": "address[]"
                }
              ],
              "internalType": "struct Withdrawal.Addresses",
              "name": "addresses",
              "type": "tuple"
            },
            {
              "components": [
                {
                  "internalType": "uint256",
                  "name": "marketTokenAmount",
                  "type": "uint256"
                },
                {
                  "internalType": "uint256",
                  "name": "minLongTokenAmount",
                  "type": "uint256"
                },
                {
                  "internalType": "uint256",
                  "name": "minShortTokenAmount",
                  "type": "uint256"
                },
                {
                  "internalType": "uint256",
                  "name": "updatedAtBlock",
                  "type": "uint256"
                },
                {
                  "internalType": "uint256",
                  "name": "executionFee",
                  "type": "uint256"
                },
                {
                  "internalType": "uint256",
                  "name": "callbackGasLimit",
                  "type": "uint256"
                }
              ],
              "internalType": "struct Withdrawal.Numbers",
              "name": "numbers",
              "type": "tuple"
            },
            {
              "components": [
                {
                  "internalType": "bool",
                  "name": "shouldUnwrapNativeToken",
                  "type": "bool"
                }
              ],
              "internalType": "struct Withdrawal.Flags",
              "name": "flags",
              "type": "tuple"
            }
          ],
          "internalType": "struct Withdrawal.Props",
          "name": "",
          "type": "tuple"
        }
      ],
      "stateMutability": "view",
      "type": "function"
    }
  ],
  "bytecode": "0x608060405234801561001057600080fd5b50615535806100206000396000f3fe608060405234801561001057600080fd5b50600436106101075760003560e01c80630815bce11461010c578063095ce6c5146101355780630fa8f516146101de5780631485d297146101fe57806324c029e01461021e578063409f37c71461023f57806342a6f8d3146102b157806349651b6a146102d15780635d5c6efe146102f1578063714af34b1461031957806377cfb16214610339578063847bb46914610359578063971de27d14610379578063a01409381461038c578063a4f0d5501461039f578063bc7b5bba146103b2578063ce3264bf146103d2578063ceeea3bf146103f2578063e844cfc714610412578063ece9e0c814610467578063fd50649d14610487575b600080fd5b61011f61011a366004613541565b61049a565b60405161012c919061380a565b60405180910390f35b610148610143366004613881565b610533565b60405161012c92919060006101808201905083825282516020830152602083015160408301526040830151606083015260608301516080830152608083015160a083015260a083015160c083015260c083015160e083015260e083015161010081818501528085015191505061012081818501528085015191505061014081818501528085015161016085015250509392505050565b6101f16101ec3660046138fe565b610627565b60405161012c919061392a565b61021161020c3660046138fe565b6106b3565b60405161012c91906139b7565b61023161022c366004613abb565b610739565b60405190815260200161012c565b61025261024d366004613b2c565b610754565b604080519384526020808501939093528151848201529181015160608085019190915291810151608080850191909152918101516001600160a01b031660a0808501919091529181015160c0840152015160e08201526101000161012c565b6102c46102bf366004613ba7565b61082e565b60405161012c9190613d74565b6102e46102df3660046138fe565b61097d565b60405161012c9190613dd6565b6103046102ff366004613de9565b610a03565b6040805192835260208301919091520161012c565b61032c610327366004613e73565b610b19565b60405161012c9190613edf565b61034c610347366004613ba7565b610b9b565b60405161012c9190613eed565b61036c610367366004613f3c565b610cda565b60405161012c9190614023565b610231610387366004614032565b610ec9565b61023161039a366004613abb565b610f60565b61032c6103ad3660046138fe565b610f6f565b6103c56103c036600461412f565b610fb0565b60405161012c919061418e565b6103e56103e03660046141d1565b61109d565b60405161012c9190614206565b6104056104003660046138fe565b6111ea565b60405161012c9190614248565b610425610420366004614311565b611270565b60405161012c9190600060a082019050825182526020830151602083015260408301516040830152606083015160608301526080830151608083015292915050565b61047a61047536600461436a565b6113a2565b60405161012c919061445a565b61023161049536600461449d565b61148b565b6104a2612e7b565b6040516306bc109960e31b815273__$7d62b333171909e88f9935bee8a07b01ad$__906335e084c8906104e5908b908b908b908b908b908b908b90600401614528565b61056060405180830381865af4158015610503573d6000803e3d6000fd5b505050506040513d601f19601f82011682018060405250810190610527919061484a565b98975050505050505050565b600061059260405180610160016040528060008152602001600081526020016000815260200160008152602001600081526020016000815260200160008152602001600081526020016000815260200160008152602001600081525090565b604051637d494dc360e01b815273__$e53db83827f4e07ebc418caf7145b8c2d5$__90637d494dc3906105d5908c908c908c908c908c908c908c90600401614960565b61018060405180830381865af41580156105f3573d6000803e3d6000fd5b505050506040513d601f19601f8201168201806040525081019061061791906149c2565b9150915097509795505050505050565b61062f612ea0565b60405163fdfc26f360e01b815273__$3d31b232fb363902662fbc281b11ab3357$__9063fdfc26f3906106689086908690600401614a76565b61018060405180830381865af4158015610686573d6000803e3d6000fd5b505050506040513d601f19601f820116820180604052508101906106aa9190614a8f565b90505b92915050565b6106bb612f2a565b60405163fdfc26f360e01b815273__$b63e253a228f0e32f671cc49c7fc32477c$__9063fdfc26f3906106f49086908690600401614a76565b600060405180830381865af4158015610711573d6000803e3d6000fd5b505050506040513d6000823e601f3d908101601f191682016040526106aa9190810190614b68565b60006107488686868686611499565b90505b95945050505050565b6000806107996040518060c0016040528060008152602001600081526020016000815260200160006001600160a01b0316815260200160008152602001600081525090565b60405163dafa66bf60e01b815273__$7d62b333171909e88f9935bee8a07b01ad$__9063dafa66bf906107da908c908c908c908c908c908c90600401614cc2565b61010060405180830381865af41580156107f8573d6000803e3d6000fd5b505050506040513d601f19601f8201168201806040525081019061081c9190614d14565b92509250925096509650969350505050565b6060600061083e8686868661152a565b9050600081516001600160401b0381111561085b5761085b6132df565b60405190808252806020026020018201604052801561089457816020015b610881612fbc565b8152602001906001900390816108795790505b50905060005b82518110156109705760008382815181106108b7576108b7614d9c565b6020026020010151905073__$9dcb75ef0bb6c4288f2ccffe7dc492c4eb$__63fdfc26f38a836040518363ffffffff1660e01b81526004016108fa929190614a76565b600060405180830381865af4158015610917573d6000803e3d6000fd5b505050506040513d6000823e601f3d908101601f1916820160405261093f9190810190614ead565b83838151811061095157610951614d9c565b602002602001018190525050808061096890614fe7565b91505061089a565b509150505b949350505050565b610985612fbc565b60405163fdfc26f360e01b815273__$9dcb75ef0bb6c4288f2ccffe7dc492c4eb$__9063fdfc26f3906109be9086908690600401614a76565b600060405180830381865af41580156109db573d6000803e3d6000fd5b505050506040513d6000823e601f3d908101601f191682016040526106aa9190810190614ead565b600080600073__$ff439aa65a80c9eec648f15db20b189505$__63a8d8fff58b8b6040518363ffffffff1660e01b8152600401610a41929190615000565b608060405180830381865af4158015610a5e573d6000803e3d6000fd5b505050506040513d601f19601f82011682018060405250810190610a82919061501a565b6040516340f5d44f60e11b815290915073__$7d62b333171909e88f9935bee8a07b01ad$__906381eba89e90610ac8908d9085908d908d908d908d908d90600401615081565b6040805180830381865af4158015610ae4573d6000803e3d6000fd5b505050506040513d601f19601f82011682018060405250810190610b0891906150d3565b925092505097509795505050505050565b610b2161307d565b60405163a8d8fff560e01b815273__$ff439aa65a80c9eec648f15db20b189505$__9063a8d8fff590610b5a9086908690600401615000565b608060405180830381865af4158015610b77573d6000803e3d6000fd5b505050506040513d601f19601f820116820180604052508101906106aa919061501a565b60606000610bab868686866115b6565b9050600081516001600160401b03811115610bc857610bc86132df565b604051908082528060200260200182016040528015610c0157816020015b610bee612ea0565b815260200190600190039081610be65790505b50905060005b8251811015610970576000838281518110610c2457610c24614d9c565b6020026020010151905073__$3d31b232fb363902662fbc281b11ab3357$__63fdfc26f38a836040518363ffffffff1660e01b8152600401610c67929190614a76565b61018060405180830381865af4158015610c85573d6000803e3d6000fd5b505050506040513d601f19601f82011682018060405250810190610ca99190614a8f565b838381518110610cbb57610cbb614d9c565b6020026020010181905250508080610cd290614fe7565b915050610c07565b610ce26130a4565b60405163a8d8fff560e01b815260009073__$ff439aa65a80c9eec648f15db20b189505$__9063a8d8fff590610d1e9088908790600401615000565b608060405180830381865af4158015610d3b573d6000803e3d6000fd5b505050506040513d601f19601f82011682018060405250810190610d5f919061501a565b90506000610d7086838760016115d0565b90506000610d8187848860006115d0565b9050600073__$7d62b333171909e88f9935bee8a07b01ad$__630dc7f3eb89868a6040518463ffffffff1660e01b8152600401610dc0939291906150f7565b60c060405180830381865af4158015610ddd573d6000803e3d6000fd5b505050506040513d601f19601f82011682018060405250810190610e019190615122565b90506000610e0f8986611671565b90506000896001600160a01b0316637ae1cfca610e2f88600001516116df565b6040518263ffffffff1660e01b8152600401610e4d91815260200190565b602060405180830381865afa158015610e6a573d6000803e3d6000fd5b505050506040513d601f19601f82011682018060405250810190610e8e9190615187565b6040805160c0810182529788526020880196909652948601939093526060850191909152608084015250151560a082015290505b9392505050565b60008073__$ff439aa65a80c9eec648f15db20b189505$__63a8d8fff588886040518363ffffffff1660e01b8152600401610f05929190615000565b608060405180830381865af4158015610f22573d6000803e3d6000fd5b505050506040513d601f19601f82011682018060405250810190610f46919061501a565b9050610f558782878787611762565b979650505050505050565b600061074886868686866117a4565b610f7761307d565b6040516329bc01e160e11b815273__$ff439aa65a80c9eec648f15db20b189505$__9063537803c290610b5a9086908690600401614a76565b60606000610fbf8685856117cf565b9050600081516001600160401b03811115610fdc57610fdc6132df565b60405190808252806020026020018201604052801561101557816020015b6110026130a4565b815260200190600190039081610ffa5790505b50905060005b825181101561097057600087828151811061103857611038614d9c565b60200260200101519050600084838151811061105657611056614d9c565b6020026020010151905061106b8a8383610cda565b84848151811061107d5761107d614d9c565b60200260200101819052505050808061109590614fe7565b91505061101b565b606060006110ac8585856117cf565b9050600081516001600160401b038111156110c9576110c96132df565b60405190808252806020026020018201604052801561110257816020015b6110ef61307d565b8152602001906001900390816110e75790505b50905060005b82518110156111e057600083828151811061112557611125614d9c565b60200260200101519050600073__$ff439aa65a80c9eec648f15db20b189505$__63a8d8fff58a846040518363ffffffff1660e01b815260040161116a929190615000565b608060405180830381865af4158015611187573d6000803e3d6000fd5b505050506040513d601f19601f820116820180604052508101906111ab919061501a565b9050808484815181106111c0576111c0614d9c565b6020026020010181905250505080806111d890614fe7565b915050611108565b5095945050505050565b6111f261311f565b60405163fdfc26f360e01b815273__$3dc24d71d6ebafc0c4ce8ac2f69cd1548a$__9063fdfc26f39061122b9086908690600401614a76565b600060405180830381865af4158015611248573d6000803e3d6000fd5b505050506040513d6000823e601f3d908101601f191682016040526106aa91908101906151a4565b6112a26040518060a0016040528060008152602001600081526020016000815260200160008152602001600081525090565b60405163a8d8fff560e01b815260009073__$ff439aa65a80c9eec648f15db20b189505$__9063a8d8fff5906112de908a908a90600401615000565b608060405180830381865af41580156112fb573d6000803e3d6000fd5b505050506040513d601f19601f8201168201806040525081019061131f919061501a565b60405163053e724760e01b815290915073__$7d62b333171909e88f9935bee8a07b01ad$__9063053e724790611361908a9085908a908a908a906004016152cc565b60a060405180830381865af415801561137e573d6000803e3d6000fd5b505050506040513d601f19601f82011682018060405250810190610f559190615310565b6060600084516001600160401b038111156113bf576113bf6132df565b6040519080825280602002602001820160405280156113f857816020015b6113e5612e7b565b8152602001906001900390816113dd5790505b50905060005b855181101561148057600086828151811061141b5761141b614d9c565b6020026020010151905061144f89898389868151811061143d5761143d614d9c565b602002602001015160008a600161049a565b83838151811061146157611461614d9c565b602002602001018190525050808061147890614fe7565b9150506113fe565b509695505050505050565b600061074b85858585611894565b6000806114af6114aa8888876118c3565b611916565b905060006114be888887611989565b90508115806114cb575080155b156114db5760009250505061074b565b60006114e88787876119d0565b905060006114f96114aa8385615360565b90506000876115115761150c8286615377565b61151b565b61151b8583615377565b9b9a5050505050505050505050565b6060846001600160a01b031663f069052a61154486611a09565b6040516001600160e01b031960e084901b16815260048101919091526024810186905260448101859052606401600060405180830381865afa15801561158e573d6000803e3d6000fd5b505050506040513d6000823e601f3d908101601f1916820160405261074b919081019061539e565b6060846001600160a01b031663f069052a61154486611a41565b6000806115e286866000015185611a7c565b905060006115f287878787611af6565b90508060000361160757600092505050610975565b600061161588888888611b32565b90508060000361163857604051630d5f5aef60e31b815260040160405180910390fd5b600061164989896000015188611b80565b905060006116578483611b9b565b905060006116658285611bfa565b905061151b8187611c08565b611679613167565b600061168e8484600001518560400151611c21565b91505060006116a68585600001518660600151611c21565b91505060006116b9868660200151611d39565b604080516060810182529586526020860194909452928401929092525090949350505050565b6000604051602001611717906020808252601290820152711254d7d3505492d15517d11254d05093115160721b604082015260600190565b60408051601f198184030181528282528051602091820120908301526001600160a01b038416908201526060015b604051602081830303815290604052805190602001209050919050565b60008061177187878787611b32565b90508060000361178557600091505061074b565b6000611798888888600001518888611499565b90506105278183611e4f565b6000806117b28787866118c3565b905060006117c38888888888611499565b90506105278282611e8e565b6060836001600160a01b031663e7e4148e60405160200161180f906020808252600b908201526a13505492d15517d31254d560aa1b604082015260600190565b60408051601f198184030181529082905280516020909101206001600160e01b031960e084901b16825260048201526024810186905260448101859052606401600060405180830381865afa15801561186c573d6000803e3d6000fd5b505050506040513d6000823e601f3d908101601f191682016040526109759190810190615423565b6000806118a5868686600187611499565b905060006118b7878787600088611499565b9050610f558183615457565b6000806118d884604001518560600151611ea4565b905060006118f186866000015187604001518786611ed3565b9050600061190a87876000015188606001518887611ed3565b9050610f55818361547f565b60006001600160ff1b038211156119855760405162461bcd60e51b815260206004820152602860248201527f53616665436173743a2076616c756520646f65736e27742066697420696e2061604482015267371034b73a191a9b60c11b60648201526084015b60405180910390fd5b5090565b60008061199e84604001518560600151611ea4565b905060006119b786866000015187604001518786611f59565b9050600061190a87876000015188606001518887611f59565b600082156119f157816119e45783516119ea565b83602001515b9050610ec2565b81611a00578360200151610975565b50509051919050565b6000604051602001611717906020808252601290820152711050d0d3d5539517d3d491115497d31254d560721b604082015260600190565b6000604051602001611717906020808252601590820152741050d0d3d5539517d413d4d2551253d397d31254d5605a1b604082015260600190565b6000836001600160a01b031663bd02d0f5611a978585611f76565b6040518263ffffffff1660e01b8152600401611ab591815260200190565b602060405180830381865afa158015611ad2573d6000803e3d6000fd5b505050506040513d601f19601f820116820180604052508101906109759190615492565b6000808215611b27576000611b0c878786611989565b855160200151909150611b1f9082615360565b91505061074b565b6107488686856118c3565b60008082611b44578460600151611b4a565b84604001515b90506000611b59878784612000565b9050600084611b6d57604086015151611b74565b6020860151515b90506105278183615360565b6000836001600160a01b031663bd02d0f5611a97858561209e565b600068327cb2734119d3b7a9601e1b831015611bb9575060006106ad565b68327cb2734119d3b7a9601e1b8203611bd35750816106ad565b6000611bef611be1856120dd565b611bea856120dd565b6120ee565b905061097581612130565b60006106aa83836000612141565b60006106aa838368327cb2734119d3b7a9601e1b612189565b6000806000856001600160a01b031663a6ed563e611c3e87612196565b6040518263ffffffff1660e01b8152600401611c5c91815260200190565b602060405180830381865afa158015611c79573d6000803e3d6000fd5b505050506040513d601f19601f82011682018060405250810190611c9d9190615492565b905080611cb1576000809250925050611d31565b6001866001600160a01b031663bd02d0f5611ccc84886121cd565b6040518263ffffffff1660e01b8152600401611cea91815260200190565b602060405180830381865afa158015611d07573d6000803e3d6000fd5b505050506040513d601f19601f82011682018060405250810190611d2b9190615492565b92509250505b935093915050565b6000806000846001600160a01b031663a6ed563e611d5686612246565b6040518263ffffffff1660e01b8152600401611d7491815260200190565b602060405180830381865afa158015611d91573d6000803e3d6000fd5b505050506040513d601f19601f82011682018060405250810190611db59190615492565b905080611dc9576000809250925050611e48565b6001856001600160a01b031663dc97d962611de38461227c565b6040518263ffffffff1660e01b8152600401611e0191815260200190565b602060405180830381865afa158015611e1e573d6000803e3d6000fd5b505050506040513d601f19601f82011682018060405250810190611e429190615492565b92509250505b9250929050565b600080611e64611e5e856122e8565b84611bfa565b905060008413611e8557611e7781611916565b611e80906154ab565b610975565b61097581611916565b600081611e9a84611916565b6106aa9190615457565b6000816001600160a01b0316836001600160a01b031614611ec6576001611ec9565b60025b60ff169392505050565b600081866001600160a01b031663bd02d0f5611ef08888886122fb565b6040518263ffffffff1660e01b8152600401611f0e91815260200190565b602060405180830381865afa158015611f2b573d6000803e3d6000fd5b505050506040513d601f19601f82011682018060405250810190611f4f9190615492565b61074891906154dd565b600081866001600160a01b031663bd02d0f5611ef088888861238d565b6000604051602001611fac9060208082526010908201526f2127a92927aba4a723afa320a1aa27a960811b604082015260600190565b60408051601f198184030181528282528051602091820120908301526001600160a01b0385169082015282151560608201526080015b60405160208183030381529060405280519060200120905092915050565b60008061201584604001518560600151611ea4565b905080856001600160a01b031663bd02d0f56120358760000151876123ca565b6040518263ffffffff1660e01b815260040161205391815260200190565b602060405180830381865afa158015612070573d6000803e3d6000fd5b505050506040513d601f19601f820116820180604052508101906120949190615492565b61074b91906154dd565b6000604051602001611fac906020808252601990820152782127a92927aba4a723afa2ac2827a722a72a2fa320a1aa27a960391b604082015260600190565b60006106ad64e8d4a51000836154dd565b60008260000361211657811561210557600061210f565b670de0b6b3a76400005b90506106ad565b6106aa61212b61212585612438565b846124ee565b6124fa565b60006106ad64e8d4a5100083615360565b60008360000361215357506000610ec2565b8115612172576119ea8468327cb2734119d3b7a9601e1b856001612540565b6109758468327cb2734119d3b7a9601e1b85612591565b6000610975848484612591565b6000604051602001611717906020808252601190820152701592549515505317d3505492d15517d251607a1b604082015260600190565b600060405160200161220e906020808252601b908201527a5649525455414c5f494e56454e544f52595f464f525f535741505360281b604082015260600190565b60408051601f1981840301815282825280516020918201209083015281018490526001600160a01b0383166060820152608001611fe2565b60006040516020016117179060208082526010908201526f1592549515505317d513d2d15397d25160821b604082015260600190565b60006040516020016122bf906020808252601f908201527f5649525455414c5f494e56454e544f52595f464f525f504f534954494f4e5300604082015260600190565b60408051601f198184030181528282528051602091820120908301528101839052606001611745565b60008082121561198557816000036106ad565b600060405160200161232e906020808252600d908201526c13d4115397d2539511549154d5609a1b604082015260600190565b60408051601f198184030181528282528051602091820120908301526001600160a01b038087169183019190915284166060820152821515608082015260a0016040516020818303038152906040528051906020012090509392505050565b600060405160200161232e906020808252601790820152764f50454e5f494e5445524553545f494e5f544f4b454e5360481b604082015260600190565b60006040516020016123fb906020808252600b908201526a1413d3d317d05353d5539560aa1b604082015260600190565b60408051601f198184030181528282528051602091820120908301526001600160a01b038086169183019190915283166060820152608001611fe2565b6000670de0b6b3a764000082101561246657604051633621413760e21b81526004810183905260240161197c565b600061247b670de0b6b3a76400008404612640565b670de0b6b3a764000081029250905082811c670de0b6b3a763ffff1981016124a4575050919050565b6706f05b59d3b200005b80156124e657670de0b6b3a7640000828002049150671bc16d674ec8000082106124de579283019260019190911c905b60011c6124ae565b505050919050565b60006106aa8383612723565b6000680a688906bd8b000000821061252857604051634a4f26f160e01b81526004810183905260240161197c565b670de0b6b3a7640000604083901b04610ec2816127e9565b60008061254e868686612591565b9050600183600281111561256457612564613bed565b14801561258157506000848061257c5761257c6154c7565b868809115b1561074b5761074860018261547f565b60008080600019858709858702925082811083820303915050806000036125cb578382816125c1576125c16154c7565b0492505050610ec2565b8084116125d757600080fd5b60008486880960026001871981018816978890046003810283188082028403028082028403028082028403028082028403028082028403029081029092039091026000889003889004909101858311909403939093029303949094049190911702949350505050565b6000600160801b821061266057608091821c9161265d908261547f565b90505b600160401b821061267e57604091821c9161267b908261547f565b90505b600160201b821061269c57602091821c91612699908261547f565b90505b6201000082106126b957601091821c916126b6908261547f565b90505b61010082106126d557600891821c916126d2908261547f565b90505b601082106126f057600491821c916126ed908261547f565b90505b6004821061270b57600291821c91612708908261547f565b90505b6002821061271e576106ad60018261547f565b919050565b60008080600019848609848602925082811083820303915050670de0b6b3a764000081106127675760405163698d9a0160e11b81526004810182905260240161197c565b600080670de0b6b3a764000086880991506706f05b59d3b1ffff82119050826000036127a55780670de0b6b3a76400008504019450505050506106ad565b620400008285030493909111909103600160ee1b02919091177faccb18165bd6fe31ae1cf318dc5b51eee0e1ba569b88cd74c1773b91fac106690201905092915050565b600160bf1b6001603f1b8216156128095768016a09e667f3bcc9090260401c5b6001603e1b821615612824576801306fe0a31b7152df0260401c5b6001603d1b82161561283f576801172b83c7d517adce0260401c5b6001603c1b82161561285a5768010b5586cf9890f62a0260401c5b6001603b1b821615612875576801059b0d31585743ae0260401c5b6001603a1b82161561289057680102c9a3e778060ee70260401c5b600160391b8216156128ab5768010163da9fb33356d80260401c5b600160381b8216156128c657680100b1afa5abcbed610260401c5b600160371b8216156128e15768010058c86da1c09ea20260401c5b600160361b8216156128fc576801002c605e2e8cec500260401c5b600160351b82161561291757680100162f3904051fa10260401c5b600160341b821615612932576801000b175effdc76ba0260401c5b600160331b82161561294d57680100058ba01fb9f96d0260401c5b600160321b8216156129685768010002c5cc37da94920260401c5b600160311b821615612983576801000162e525ee05470260401c5b600160301b82161561299e5768010000b17255775c040260401c5b6001602f1b8216156129b9576801000058b91b5bc9ae0260401c5b6001602e1b8216156129d457680100002c5c89d5ec6d0260401c5b6001602d1b8216156129ef5768010000162e43f4f8310260401c5b6001602c1b821615612a0a57680100000b1721bcfc9a0260401c5b6001602b1b821615612a255768010000058b90cf1e6e0260401c5b6001602a1b821615612a40576801000002c5c863b73f0260401c5b600160291b821615612a5b57680100000162e430e5a20260401c5b600160281b821615612a76576801000000b1721835510260401c5b600160271b821615612a9157680100000058b90c0b490260401c5b600160261b821615612aac5768010000002c5c8601cc0260401c5b600160251b821615612ac7576801000000162e42fff00260401c5b600160241b821615612ae25768010000000b17217fbb0260401c5b600160231b821615612afd576801000000058b90bfce0260401c5b600160221b821615612b1857680100000002c5c85fe30260401c5b600160211b821615612b335768010000000162e42ff10260401c5b600160201b821615612b4e57680100000000b17217f80260401c5b6380000000821615612b695768010000000058b90bfc0260401c5b6340000000821615612b84576801000000002c5c85fe0260401c5b6320000000821615612b9f57680100000000162e42ff0260401c5b6310000000821615612bba576801000000000b17217f0260401c5b6308000000821615612bd557680100000000058b90c00260401c5b6304000000821615612bf05768010000000002c5c8600260401c5b6302000000821615612c0b576801000000000162e4300260401c5b6301000000821615612c265768010000000000b172180260401c5b62800000821615612c40576801000000000058b90c0260401c5b62400000821615612c5a57680100000000002c5c860260401c5b62200000821615612c745768010000000000162e430260401c5b62100000821615612c8e57680100000000000b17210260401c5b62080000821615612ca85768010000000000058b910260401c5b62040000821615612cc2576801000000000002c5c80260401c5b62020000821615612cdc57680100000000000162e40260401c5b62010000821615612cf55761b172600160401b010260401c5b618000821615612d0d576158b9600160401b010260401c5b614000821615612d2557612c5d600160401b010260401c5b612000821615612d3d5761162e600160401b010260401c5b611000821615612d5557610b17600160401b010260401c5b610800821615612d6d5761058c600160401b010260401c5b610400821615612d85576102c6600160401b010260401c5b610200821615612d9d57610163600160401b010260401c5b610100821615612db45760b1600160401b010260401c5b6080821615612dca576059600160401b010260401c5b6040821615612de057602c600160401b010260401c5b6020821615612df6576016600160401b010260401c5b6010821615612e0c57600b600160401b010260401c5b6008821615612e22576006600160401b010260401c5b6004821615612e38576003600160401b010260401c5b6002821615612e4e576001600160401b010260401c5b6001821615612e64576001600160401b010260401c5b670de0b6b3a76400000260409190911c60bf031c90565b6040518060400160405280612e8e612ea0565b8152602001612e9b613188565b905290565b6040805160c081019091526000606082018181526080830182905260a083019190915281908152602001612f1260405180610100016040528060008152602001600081526020016000815260200160008152602001600081526020016000815260200160008152602001600081525090565b81526040805160208181019092526000815291015290565b604080516101808101909152600060608083018281526080840183905260a0840183905260c0840183905260e084018390526101008401839052610120840192909252610140830181905261016083015281905b8152602001612f126040518060c001604052806000815260200160008152602001600081526020016000815260200160008152602001600081525090565b604080516101408101909152600060608083018281526080840183905260a0840183905260c0840183905260e0840183905261010084019290925261012083015281526020810161305a60408051610140810190915280600081526020016000815260200160008152602001600081526020016000815260200160008152602001600081526020016000815260200160008152602001600081525090565b815260408051606081018252600080825260208281018290529282015291015290565b60408051608081018252600080825260208201819052918101829052606081019190915290565b6040518060c001604052806130b761307d565b815260200160008152602001600081526020016131056040518060c0016040528060001515815260200160008152602001600081526020016000815260200160008152602001600081525090565b8152602001613112613167565b8152600060209091015290565b604080516101408101909152600060608083018281526080840183905260a0840183905260c0840183905260e084019290925261010083018190526101208301528190612f7e565b60405180606001604052806000815260200160008152602001600081525090565b604080516102c0810190915260006101c082018181526101e08301829052610200830182905261022083018290526102408301829052610260830182905261028083018290526102a0830191909152819081526020016132106040518060a0016040528060008152602001600081526020016000815260200160008152602001600081525090565b81526020016132406040518060800160405280600081526020016000815260200160008152602001600081525090565b81526040805160608101825260008082526020828101829052928201529101908152602001613282604051806040016040528060008152602001600081525090565b81526020016000815260200160008152602001600081526020016000815260200160008152602001600081526020016000815260200160008152602001600081525090565b6001600160a01b03811681146132dc57600080fd5b50565b634e487b7160e01b600052604160045260246000fd5b604080519081016001600160401b0381118282101715613317576133176132df565b60405290565b604051606081016001600160401b0381118282101715613317576133176132df565b604051608081016001600160401b0381118282101715613317576133176132df565b60405161010081016001600160401b0381118282101715613317576133176132df565b60405160a081016001600160401b0381118282101715613317576133176132df565b6040516101c081016001600160401b0381118282101715613317576133176132df565b60405161016081016001600160401b0381118282101715613317576133176132df565b60405160c081016001600160401b0381118282101715613317576133176132df565b60405161012081016001600160401b0381118282101715613317576133176132df565b60405161014081016001600160401b0381118282101715613317576133176132df565b60405160e081016001600160401b0381118282101715613317576133176132df565b604051601f8201601f191681016001600160401b038111828210171561349e5761349e6132df565b604052919050565b6000604082840312156134b857600080fd5b6134c06132f5565b9050813581526020820135602082015292915050565b600060c082840312156134e857600080fd5b6134f061331d565b90506134fc83836134a6565b815261350b83604084016134a6565b602082015261351d83608084016134a6565b604082015292915050565b803561271e816132c7565b80151581146132dc57600080fd5b6000806000806000806000610180888a03121561355d57600080fd5b8735613568816132c7565b96506020880135613578816132c7565b95506040880135945061358e8960608a016134d6565b935061012088013592506101408801356135a7816132c7565b91506101608801356135b881613533565b8091505092959891949750929550565b6001600160a01b03169052565b805160018060a01b03808251168452806020830151166020850152806040830151166040850152505060208101518051606084015260208101516080840152604081015160a0840152606081015160c0840152608081015160e084015260a081015161010084015260c081015161012084015260e08101516101408401525060408101516136696101608401825115159052565b505050565b80518252602090810151910152565b6136888282516135d5565b6020818101518051805161018086810191909152928101516001600160a01b039081166101a08701526040820151166101c086015260608101516101e0860152608081015161020086015260a081015161022086015260c081015161024086015260e00151610260850152906020828101518051610280870152908101516102a086015260408101516102c086015260608101516102e08601526080810151610300860152506040828101518051610320870152602081015161034087015290810151610360860152606081015161038086015250606082015180516001600160a01b03166103a086015260208101516103c086015260408101516103e086015250608082015161379d61040086018261366e565b5060a082015161044085015260c082015161046085015260e08201516104808501526101008201516104a08501526101208201516104c08501526101408201516104e08501526101608201516105008501528101516105208401526101a001516105409092019190915250565b61056081016106ad828461367d565b60006080828403121561382b57600080fd5b61383361333f565b90508135613840816132c7565b81526020820135613850816132c7565b60208201526040820135613863816132c7565b60408201526060820135613876816132c7565b606082015292915050565b60008060008060008060006101a0888a03121561389d57600080fd5b87356138a8816132c7565b96506138b78960208a01613819565b95506138c68960a08a016134a6565b94506138d58960e08a016134a6565b93506138e5896101208a016134a6565b925061016088013591506101808801356135b881613533565b6000806040838503121561391157600080fd5b823561391c816132c7565b946020939093013593505050565b61018081016106ad82846135d5565b600081518084526020808501945080840160005b838110156139725781516001600160a01b03168752958201959082019060010161394d565b509495945050505050565b805182526020810151602083015260408101516040830152606081015160608301526080810151608083015260a081015160a08301525050565b60208152600061012083516101008060208601526139d883860183516135c8565b60208201516139eb6101408701826135c8565b5060408201516139ff6101608701826135c8565b506060820151613a136101808701826135c8565b506080820151613a276101a08701826135c8565b5060a0820151613a3b6101c08701826135c8565b5060c0820151613a4f6101e08701826135c8565b5060e082015183610200870152613a6a610240870182613939565b9282015186840361011f1901610220880152929350613a8b90508383613939565b925060208601519150613aa1604086018361397d565b6040860151805115158683015291505b5090949350505050565b60008060008060006101208688031215613ad457600080fd5b8535613adf816132c7565b9450613aee8760208801613819565b9350613afd8760a088016134a6565b925060e0860135613b0d81613533565b9150610100860135613b1e81613533565b809150509295509295909350565b6000806000806000806101c08789031215613b4657600080fd5b8635613b51816132c7565b9550613b608860208901613819565b9450613b6f8860a089016134d6565b9350610160870135613b80816132c7565b925061018087013591506101a0870135613b99816132c7565b809150509295509295509295565b60008060008060808587031215613bbd57600080fd5b8435613bc8816132c7565b93506020850135613bd8816132c7565b93969395505050506040820135916060013590565b634e487b7160e01b600052602160045260246000fd5b60088110613c1357613c13613bed565b9052565b60038110613c1357613c13613bed565b613c32828251613c03565b6020810151613c446020840182613c17565b5060408101516040830152606081015160608301526080810151608083015260a081015160a083015260c081015160c083015260e081015160e08301526101008082015181840152506101208082015181840152505050565b80516101c080845281516001600160a01b0390811691850191909152602082015181166101e08501526040820151166102008401526060810151600091613ce86102208601836135c8565b60808101519150613cfd6102408601836135c8565b60a08101519150613d126102608601836135c8565b60c0015160e06102808601529050613d2e6102a0850182613939565b90506020830151613d426020860182613c27565b5060408381015180511515610160870152602081015115156101808701529081015115156101a0860152509392505050565b6000602080830181845280855180835260408601915060408160051b870101925083870160005b82811015613dc957603f19888603018452613db7858351613c9d565b94509285019290850190600101613d9b565b5092979650505050505050565b6020815260006106aa6020830184613c9d565b6000806000806000806000610120888a031215613e0557600080fd5b8735613e10816132c7565b96506020880135613e20816132c7565b95506040880135613e30816132c7565b94506060880135613e40816132c7565b935060808801359250613e568960a08a016134a6565b9150613e658960e08a016134a6565b905092959891949750929550565b60008060408385031215613e8657600080fd5b8235613e91816132c7565b91506020830135613ea1816132c7565b809150509250929050565b80516001600160a01b03908116835260208083015182169084015260408083015182169084015260609182015116910152565b608081016106ad8284613eac565b6020808252825182820181905260009190848201906040850190845b81811015613f3057613f1c8385516135d5565b928401926101809290920191600101613f09565b50909695505050505050565b60008060006101008486031215613f5257600080fd5b8335613f5d816132c7565b9250613f6c85602086016134d6565b915060e0840135613f7c816132c7565b809150509250925092565b613f92828251613eac565b60208101516080830152604081015160a083015260608101518051151560c0840152602081015160e084015260408101516101008401526060810151610120840152608081015161014084015260a08101516101608401525060808101516140126101808401828051825260208082015190830152604090810151910152565b5060a0015115156101e09190910152565b61020081016106ad8284613f87565b6000806000806000610140868803121561404b57600080fd5b8535614056816132c7565b94506020860135614066816132c7565b935061407587604088016134d6565b925061010086013561408681613533565b9150610120860135613b1e81613533565b60006001600160401b038211156140b0576140b06132df565b5060051b60200190565b600082601f8301126140cb57600080fd5b813560206140e06140db83614097565b613476565b82815260c092830285018201928282019190878511156140ff57600080fd5b8387015b858110156141225761411589826134d6565b8452928401928101614103565b5090979650505050505050565b6000806000806080858703121561414557600080fd5b8435614150816132c7565b935060208501356001600160401b0381111561416b57600080fd5b614177878288016140ba565b949794965050505060408301359260600135919050565b6020808252825182820181905260009190848201906040850190845b81811015613f30576141bd838551613f87565b9284019261020092909201916001016141aa565b6000806000606084860312156141e657600080fd5b83356141f1816132c7565b95602085013595506040909401359392505050565b6020808252825182820181905260009190848201906040850190845b81811015613f3057614235838551613eac565b9284019260809290920191600101614222565b602081526000825161010080602085015260018060a01b038083511661012086015280602084015116610140860152806040840151166101608601525060608201516142986101808601826135c8565b5060808201516142ac6101a08601826135c8565b5060a082015160e06101c08601526142c8610200860182613939565b905060c0830151925061011f19858203016101e08601526142e98184613939565b92505060208501516142fe604086018261397d565b5060408501518051151585830152613ab1565b600080600080600060c0868803121561432957600080fd5b8535614334816132c7565b94506020860135614344816132c7565b935061435387604088016134a6565b92506080860135915060a0860135613b1e81613533565b600080600080600060a0868803121561438257600080fd5b853561438d816132c7565b945060208681013561439e816132c7565b945060408701356001600160401b03808211156143ba57600080fd5b818901915089601f8301126143ce57600080fd5b81356143dc6140db82614097565b81815260059190911b8301840190848101908c8311156143fb57600080fd5b938501935b8285101561441957843582529385019390850190614400565b97505050606089013592508083111561443157600080fd5b505061443f888289016140ba565b92505061444e60808701613528565b90509295509295909350565b6020808252825182820181905260009190848201906040850190845b81811015613f305761448983855161367d565b928401926105609290920191600101614476565b60008060008061010085870312156144b457600080fd5b84356144bf816132c7565b93506144ce8660208701613819565b92506144dd8660a087016134a6565b915060e08501356144ed81613533565b939692955090935050565b61450382825161366e565b6020810151614515604084018261366e565b506040810151613669608084018261366e565b6001600160a01b03888116825287811660208301526040820187905261018082019061455760608401886144f8565b856101208401528085166101408401525082151561016083015298975050505050505050565b805161271e816132c7565b60006020828403121561459a57600080fd5b604051602081016001600160401b03811182821017156145bc576145bc6132df565b806040525080915082516145cf81613533565b905292915050565b60008183036101808112156145eb57600080fd5b6145f361331d565b9150606081121561460357600080fd5b61460b61331d565b8351614616816132c7565b81526020840151614626816132c7565b60208201526040840151614639816132c7565b60408201528252610100605f19820181131561465457600080fd5b61465c613361565b9150606084015182526080840151602083015260a0840151604083015260c0840151606083015260e084015160808301528084015160a08301525061012083015160c082015261014083015160e08201528060208301525061351d836101608401614588565b600061010082840312156146d557600080fd5b6146dd613361565b90508151815260208201516146f1816132c7565b60208201526040820151614704816132c7565b80604083015250606082015160608201526080820151608082015260a082015160a082015260c082015160c082015260e082015160e082015292915050565b600060a0828403121561475557600080fd5b61475d613384565b9050815181526020820151602082015260408201516040820152606082015160608201526080820151608082015292915050565b6000608082840312156147a357600080fd5b6147ab61333f565b90508151815260208201516020820152604082015160408201526060820151606082015292915050565b6000606082840312156147e757600080fd5b6147ef61331d565b905081516147fc816132c7565b80825250602082015160208201526040820151604082015292915050565b60006040828403121561482c57600080fd5b6148346132f5565b9050815181526020820151602082015292915050565b600081830361056081121561485e57600080fd5b6148666132f5565b61487085856145d7565b81526101806103e061017f198401121561488957600080fd5b6148916133a6565b925061489f868287016146c2565b83526148af866102808701614743565b60208401526148c2866103208701614791565b60408401526148d5866103a087016147d5565b60608401526148e886610400870161481a565b608084015261044085015160a084015261046085015160c084015261048085015160e08401526104a08501516101008401526104c08501516101208401526104e085015161014084015261050085015161016084015261052085015190830152610540909301516101a0820152602083015250919050565b6001600160a01b03881681526101a0810161497e6020830189613eac565b61498b60a083018861366e565b61499860e083018761366e565b6149a661012083018661366e565b8361016083015282151561018083015298975050505050505050565b6000808284036101808112156149d757600080fd5b8351925061016080601f19830112156149ef57600080fd5b6149f76133c9565b91506020850151825260408501516020830152606085015160408301526080850151606083015260a0850151608083015260c085015160a083015260e085015160c08301526101008086015160e08401526101208087015182850152610140915081870151818501525081860151818401525050809150509250929050565b6001600160a01b03929092168252602082015260400190565b60006101808284031215614aa257600080fd5b6106aa83836145d7565b600082601f830112614abd57600080fd5b81516020614acd6140db83614097565b82815260059290921b84018101918181019086841115614aec57600080fd5b8286015b84811015611480578051614b03816132c7565b8352918301918301614af0565b600060c08284031215614b2257600080fd5b614b2a6133ec565b9050815181526020820151602082015260408201516040820152606082015160608201526080820151608082015260a082015160a082015292915050565b600060208284031215614b7a57600080fd5b81516001600160401b0380821115614b9157600080fd5b8184019150610100808387031215614ba857600080fd5b614bb061331d565b835183811115614bbf57600080fd5b84016101208189031215614bd257600080fd5b614bda61340e565b614be38261457d565b8152614bf16020830161457d565b6020820152614c026040830161457d565b6040820152614c136060830161457d565b6060820152614c246080830161457d565b6080820152614c3560a0830161457d565b60a0820152614c4660c0830161457d565b60c082015260e082015185811115614c5d57600080fd5b614c698a828501614aac565b60e0830152508382015185811115614c8057600080fd5b614c8c8a828501614aac565b8286015250825250614ca18760208601614b10565b6020820152614cb38760e08601614588565b60408201529695505050505050565b6001600160a01b0387811682526101c0820190614ce26020840189613eac565b614cef60a08401886144f8565b808616610160840152846101808401528084166101a084015250979650505050505050565b6000806000838503610100811215614d2b57600080fd5b845193506020850151925060c0603f1982011215614d4857600080fd5b50614d516133ec565b60408501518152606085015160208201526080850151604082015260a0850151614d7a816132c7565b606082015260c0850151608082015260e09094015160a0850152509093909250565b634e487b7160e01b600052603260045260246000fd5b80516008811061271e57600080fd5b80516003811061271e57600080fd5b60006101408284031215614de357600080fd5b614deb613431565b9050614df682614db2565b8152614e0460208301614dc1565b602082015260408201516040820152606082015160608201526080820151608082015260a082015160a082015260c082015160c082015260e082015160e082015261010080830151818301525061012080830151818301525092915050565b600060608284031215614e7557600080fd5b614e7d61331d565b90508151614e8a81613533565b81526020820151614e9a81613533565b6020820152604082015161351d81613533565b600060208284031215614ebf57600080fd5b81516001600160401b0380821115614ed657600080fd5b908301906101c08286031215614eeb57600080fd5b614ef361331d565b825182811115614f0257600080fd5b830160e08188031215614f1457600080fd5b614f1c613454565b614f258261457d565b8152614f336020830161457d565b6020820152614f446040830161457d565b6040820152614f556060830161457d565b6060820152614f666080830161457d565b6080820152614f7760a0830161457d565b60a082015260c082015184811115614f8e57600080fd5b614f9a89828501614aac565b60c083015250825250614fb08660208501614dd0565b6020820152614fc3866101608501614e63565b604082015295945050505050565b634e487b7160e01b600052601160045260246000fd5b600060018201614ff957614ff9614fd1565b5060010190565b6001600160a01b0392831681529116602082015260400190565b60006080828403121561502c57600080fd5b61503461333f565b825161503f816132c7565b8152602083015161504f816132c7565b60208201526040830151615062816132c7565b60408201526060830151615075816132c7565b60608201529392505050565b6001600160a01b0388811682526101808201906150a1602084018a613eac565b87811660a0840152861660c083015260e082018590526150c561010083018561366e565b61052761014083018461366e565b600080604083850312156150e657600080fd5b505080516020909101519092909150565b6001600160a01b038416815261016081016151156020830185613eac565b61097560a08301846144f8565b600060c0828403121561513457600080fd5b61513c6133ec565b825161514781613533565b808252506020830151602082015260408301516040820152606083015160608201526080830151608082015260a083015160a08201528091505092915050565b60006020828403121561519957600080fd5b8151610ec281613533565b6000602082840312156151b657600080fd5b81516001600160401b03808211156151cd57600080fd5b9083019061010082860312156151e257600080fd5b6151ea61331d565b8251828111156151f957600080fd5b830160e0818803121561520b57600080fd5b615213613454565b61521c8261457d565b815261522a6020830161457d565b602082015261523b6040830161457d565b604082015261524c6060830161457d565b606082015261525d6080830161457d565b608082015260a08201518481111561527457600080fd5b61528089828501614aac565b60a08301525060c08201518481111561529857600080fd5b6152a489828501614aac565b60c0830152508252506152ba8660208501614b10565b6020820152614fc38660e08501614588565b6001600160a01b038616815261012081016152ea6020830187613eac565b6152f760a083018661366e565b8360e08301528215156101008301529695505050505050565b600060a0828403121561532257600080fd5b61532a613384565b82518152602083015160208201526040830151604082015260608301516060820152608083015160808201528091505092915050565b80820281158282048414176106ad576106ad614fd1565b818103600083128015838313168383128216171561539757615397614fd1565b5092915050565b600060208083850312156153b157600080fd5b82516001600160401b038111156153c757600080fd5b8301601f810185136153d857600080fd5b80516153e66140db82614097565b81815260059190911b8201830190838101908783111561540557600080fd5b928401925b82841015610f555783518252928401929084019061540a565b60006020828403121561543557600080fd5b81516001600160401b0381111561544b57600080fd5b61097584828501614aac565b808201828112600083128015821682158216171561547757615477614fd1565b505092915050565b808201808211156106ad576106ad614fd1565b6000602082840312156154a457600080fd5b5051919050565b6000600160ff1b82016154c0576154c0614fd1565b5060000390565b634e487b7160e01b600052601260045260246000fd5b6000826154fa57634e487b7160e01b600052601260045260246000fd5b50049056fea264697066735822122064fe5303c0833f40722995f56e8aee7561c60974a843d987aa21ae5e0db1a53464736f6c63430008120033",
  "linkReferences": {
    "contracts/deposit/DepositStoreUtils.sol": {
      "DepositStoreUtils": [
        {
          "length": 20,
          "start": 1770
        }
      ]
    },
    "contracts/market/MarketStoreUtils.sol": {
      "MarketStoreUtils": [
        {
          "length": 20,
          "start": 2602
        },
        {
          "length": 20,
          "start": 2896
        },
        {
          "length": 20,
          "start": 3348
        },
        {
          "length": 20,
          "start": 3822
        },
        {
          "length": 20,
          "start": 4006
        },
        {
          "length": 20,
          "start": 4435
        },
        {
          "length": 20,
          "start": 4820
        }
      ]
    },
    "contracts/market/MarketUtils.sol": {
      "MarketUtils": [
        {
          "length": 20,
          "start": 1473
        }
      ]
    },
    "contracts/order/OrderStoreUtils.sol": {
      "OrderStoreUtils": [
        {
          "length": 20,
          "start": 2275
        },
        {
          "length": 20,
          "start": 2484
        }
      ]
    },
    "contracts/position/PositionStoreUtils.sol": {
      "PositionStoreUtils": [
        {
          "length": 20,
          "start": 1630
        },
        {
          "length": 20,
          "start": 3152
        }
      ]
    },
    "contracts/reader/ReaderUtils.sol": {
      "ReaderUtils": [
        {
          "length": 20,
          "start": 1233
        },
        {
          "length": 20,
          "start": 1992
        },
        {
          "length": 20,
          "start": 2740
        },
        {
          "length": 20,
          "start": 3495
        },
        {
          "length": 20,
          "start": 4945
        }
      ]
    },
    "contracts/withdrawal/WithdrawalStoreUtils.sol": {
      "WithdrawalStoreUtils": [
        {
          "length": 20,
          "start": 4641
        }
      ]
    }
  },
  "deployedLinkReferences": {
    "contracts/deposit/DepositStoreUtils.sol": {
      "DepositStoreUtils": [
        {
          "length": 20,
          "start": 1738
        }
      ]
    },
    "contracts/market/MarketStoreUtils.sol": {
      "MarketStoreUtils": [
        {
          "length": 20,
          "start": 2570
        },
        {
          "length": 20,
          "start": 2864
        },
        {
          "length": 20,
          "start": 3316
        },
        {
          "length": 20,
          "start": 3790
        },
        {
          "length": 20,
          "start": 3974
        },
        {
          "length": 20,
          "start": 4403
        },
        {
          "length": 20,
          "start": 4788
        }
      ]
    },
    "contracts/market/MarketUtils.sol": {
      "MarketUtils": [
        {
          "length": 20,
          "start": 1441
        }
      ]
    },
    "contracts/order/OrderStoreUtils.sol": {
      "OrderStoreUtils": [
        {
          "length": 20,
          "start": 2243
        },
        {
          "length": 20,
          "start": 2452
        }
      ]
    },
    "contracts/position/PositionStoreUtils.sol": {
      "PositionStoreUtils": [
        {
          "length": 20,
          "start": 1598
        },
        {
          "length": 20,
          "start": 3120
        }
      ]
    },
    "contracts/reader/ReaderUtils.sol": {
      "ReaderUtils": [
        {
          "length": 20,
          "start": 1201
        },
        {
          "length": 20,
          "start": 1960
        },
        {
          "length": 20,
          "start": 2708
        },
        {
          "length": 20,
          "start": 3463
        },
        {
          "length": 20,
          "start": 4913
        }
      ]
    },
    "contracts/withdrawal/WithdrawalStoreUtils.sol": {
      "WithdrawalStoreUtils": [
        {
          "length": 20,
          "start": 4609
        }
      ]
    }
  }
}