{
  "_format": "hh-sol-artifact-1",
  "contractName": "Reader",
  "sourceName": "contracts/reader/Reader.sol",
  "abi": [
    {
      "inputs": [
        {
          "internalType": "address",
          "name": "market",
          "type": "address"
        }
      ],
      "name": "DisabledMarket",
      "type": "error"
    },
    {
      "inputs": [],
      "name": "EmptyMarket",
      "type": "error"
    },
    {
      "inputs": [
        {
          "internalType": "uint256",
          "name": "x",
          "type": "uint256"
        }
      ],
      "name": "PRBMathUD60x18__Exp2InputTooBig",
      "type": "error"
    },
    {
      "inputs": [
        {
          "internalType": "uint256",
          "name": "x",
          "type": "uint256"
        }
      ],
      "name": "PRBMathUD60x18__LogInputTooSmall",
      "type": "error"
    },
    {
      "inputs": [
        {
          "internalType": "uint256",
          "name": "prod1",
          "type": "uint256"
        }
      ],
      "name": "PRBMath__MulDivFixedPointOverflow",
      "type": "error"
    },
    {
      "inputs": [],
      "name": "UnableToGetBorrowingFactorEmptyPoolUsd",
      "type": "error"
    },
    {
      "inputs": [
        {
          "internalType": "contract DataStore",
          "name": "dataStore",
          "type": "address"
        },
        {
          "internalType": "address",
          "name": "account",
          "type": "address"
        },
        {
          "internalType": "uint256",
          "name": "start",
          "type": "uint256"
        },
        {
          "internalType": "uint256",
          "name": "end",
          "type": "uint256"
        }
      ],
      "name": "getAccountOrders",
      "outputs": [
        {
          "components": [
            {
              "components": [
                {
                  "internalType": "address",
                  "name": "account",
                  "type": "address"
                },
                {
                  "internalType": "address",
                  "name": "receiver",
                  "type": "address"
                },
                {
                  "internalType": "address",
                  "name": "callbackContract",
                  "type": "address"
                },
                {
                  "internalType": "address",
                  "name": "uiFeeReceiver",
                  "type": "address"
                },
                {
                  "internalType": "address",
                  "name": "market",
                  "type": "address"
                },
                {
                  "internalType": "address",
                  "name": "initialCollateralToken",
                  "type": "address"
                },
                {
                  "internalType": "address[]",
                  "name": "swapPath",
                  "type": "address[]"
                }
              ],
              "internalType": "struct Order.Addresses",
              "name": "addresses",
              "type": "tuple"
            },
            {
              "components": [
                {
                  "internalType": "enum Order.OrderType",
                  "name": "orderType",
                  "type": "uint8"
                },
                {
                  "internalType": "enum Order.DecreasePositionSwapType",
                  "name": "decreasePositionSwapType",
                  "type": "uint8"
                },
                {
                  "internalType": "uint256",
                  "name": "sizeDeltaUsd",
                  "type": "uint256"
                },
                {
                  "internalType": "uint256",
                  "name": "initialCollateralDeltaAmount",
                  "type": "uint256"
                },
                {
                  "internalType": "uint256",
                  "name": "triggerPrice",
                  "type": "uint256"
                },
                {
                  "internalType": "uint256",
                  "name": "acceptablePrice",
                  "type": "uint256"
                },
                {
                  "internalType": "uint256",
                  "name": "executionFee",
                  "type": "uint256"
                },
                {
                  "internalType": "uint256",
                  "name": "callbackGasLimit",
                  "type": "uint256"
                },
                {
                  "internalType": "uint256",
                  "name": "minOutputAmount",
                  "type": "uint256"
                },
                {
                  "internalType": "uint256",
                  "name": "updatedAtBlock",
                  "type": "uint256"
                }
              ],
              "internalType": "struct Order.Numbers",
              "name": "numbers",
              "type": "tuple"
            },
            {
              "components": [
                {
                  "internalType": "bool",
                  "name": "isLong",
                  "type": "bool"
                },
                {
                  "internalType": "bool",
                  "name": "shouldUnwrapNativeToken",
                  "type": "bool"
                },
                {
                  "internalType": "bool",
                  "name": "isFrozen",
                  "type": "bool"
                }
              ],
              "internalType": "struct Order.Flags",
              "name": "flags",
              "type": "tuple"
            }
          ],
          "internalType": "struct Order.Props[]",
          "name": "",
          "type": "tuple[]"
        }
      ],
      "stateMutability": "view",
      "type": "function"
    },
    {
      "inputs": [
        {
          "internalType": "contract DataStore",
          "name": "dataStore",
          "type": "address"
        },
        {
          "internalType": "contract IReferralStorage",
          "name": "referralStorage",
          "type": "address"
        },
        {
          "internalType": "bytes32[]",
          "name": "positionKeys",
          "type": "bytes32[]"
        },
        {
          "components": [
            {
              "components": [
                {
                  "internalType": "uint256",
                  "name": "min",
                  "type": "uint256"
                },
                {
                  "internalType": "uint256",
                  "name": "max",
                  "type": "uint256"
                }
              ],
              "internalType": "struct Price.Props",
              "name": "indexTokenPrice",
              "type": "tuple"
            },
            {
              "components": [
                {
                  "internalType": "uint256",
                  "name": "min",
                  "type": "uint256"
                },
                {
                  "internalType": "uint256",
                  "name": "max",
                  "type": "uint256"
                }
              ],
              "internalType": "struct Price.Props",
              "name": "longTokenPrice",
              "type": "tuple"
            },
            {
              "components": [
                {
                  "internalType": "uint256",
                  "name": "min",
                  "type": "uint256"
                },
                {
                  "internalType": "uint256",
                  "name": "max",
                  "type": "uint256"
                }
              ],
              "internalType": "struct Price.Props",
              "name": "shortTokenPrice",
              "type": "tuple"
            }
          ],
          "internalType": "struct MarketUtils.MarketPrices[]",
          "name": "prices",
          "type": "tuple[]"
        },
        {
          "internalType": "address",
          "name": "uiFeeReceiver",
          "type": "address"
        }
      ],
      "name": "getAccountPositionInfoList",
      "outputs": [
        {
          "components": [
            {
              "components": [
                {
                  "components": [
                    {
                      "internalType": "address",
                      "name": "account",
                      "type": "address"
                    },
                    {
                      "internalType": "address",
                      "name": "market",
                      "type": "address"
                    },
                    {
                      "internalType": "address",
                      "name": "collateralToken",
                      "type": "address"
                    }
                  ],
                  "internalType": "struct Position.Addresses",
                  "name": "addresses",
                  "type": "tuple"
                },
                {
                  "components": [
                    {
                      "internalType": "uint256",
                      "name": "sizeInUsd",
                      "type": "uint256"
                    },
                    {
                      "internalType": "uint256",
                      "name": "sizeInTokens",
                      "type": "uint256"
                    },
                    {
                      "internalType": "uint256",
                      "name": "collateralAmount",
                      "type": "uint256"
                    },
                    {
                      "internalType": "uint256",
                      "name": "borrowingFactor",
                      "type": "uint256"
                    },
                    {
                      "internalType": "uint256",
                      "name": "fundingFeeAmountPerSize",
                      "type": "uint256"
                    },
                    {
                      "internalType": "uint256",
                      "name": "longTokenClaimableFundingAmountPerSize",
                      "type": "uint256"
                    },
                    {
                      "internalType": "uint256",
                      "name": "shortTokenClaimableFundingAmountPerSize",
                      "type": "uint256"
                    },
                    {
                      "internalType": "uint256",
                      "name": "increasedAtBlock",
                      "type": "uint256"
                    },
                    {
                      "internalType": "uint256",
                      "name": "decreasedAtBlock",
                      "type": "uint256"
                    }
                  ],
                  "internalType": "struct Position.Numbers",
                  "name": "numbers",
                  "type": "tuple"
                },
                {
                  "components": [
                    {
                      "internalType": "bool",
                      "name": "isLong",
                      "type": "bool"
                    }
                  ],
                  "internalType": "struct Position.Flags",
                  "name": "flags",
                  "type": "tuple"
                }
              ],
              "internalType": "struct Position.Props",
              "name": "position",
              "type": "tuple"
            },
            {
              "components": [
                {
                  "components": [
                    {
                      "internalType": "bytes32",
                      "name": "referralCode",
                      "type": "bytes32"
                    },
                    {
                      "internalType": "address",
                      "name": "affiliate",
                      "type": "address"
                    },
                    {
                      "internalType": "address",
                      "name": "trader",
                      "type": "address"
                    },
                    {
                      "internalType": "uint256",
                      "name": "totalRebateFactor",
                      "type": "uint256"
                    },
                    {
                      "internalType": "uint256",
                      "name": "traderDiscountFactor",
                      "type": "uint256"
                    },
                    {
                      "internalType": "uint256",
                      "name": "totalRebateAmount",
                      "type": "uint256"
                    },
                    {
                      "internalType": "uint256",
                      "name": "traderDiscountAmount",
                      "type": "uint256"
                    },
                    {
                      "internalType": "uint256",
                      "name": "affiliateRewardAmount",
                      "type": "uint256"
                    }
                  ],
                  "internalType": "struct PositionPricingUtils.PositionReferralFees",
                  "name": "referral",
                  "type": "tuple"
                },
                {
                  "components": [
                    {
                      "internalType": "uint256",
                      "name": "fundingFeeAmount",
                      "type": "uint256"
                    },
                    {
                      "internalType": "uint256",
                      "name": "claimableLongTokenAmount",
                      "type": "uint256"
                    },
                    {
                      "internalType": "uint256",
                      "name": "claimableShortTokenAmount",
                      "type": "uint256"
                    },
                    {
                      "internalType": "uint256",
                      "name": "latestFundingFeeAmountPerSize",
                      "type": "uint256"
                    },
                    {
                      "internalType": "uint256",
                      "name": "latestLongTokenClaimableFundingAmountPerSize",
                      "type": "uint256"
                    },
                    {
                      "internalType": "uint256",
                      "name": "latestShortTokenClaimableFundingAmountPerSize",
                      "type": "uint256"
                    }
                  ],
                  "internalType": "struct PositionPricingUtils.PositionFundingFees",
                  "name": "funding",
                  "type": "tuple"
                },
                {
                  "components": [
                    {
                      "internalType": "uint256",
                      "name": "borrowingFeeUsd",
                      "type": "uint256"
                    },
                    {
                      "internalType": "uint256",
                      "name": "borrowingFeeAmount",
                      "type": "uint256"
                    },
                    {
                      "internalType": "uint256",
                      "name": "borrowingFeeReceiverFactor",
                      "type": "uint256"
                    },
                    {
                      "internalType": "uint256",
                      "name": "borrowingFeeAmountForFeeReceiver",
                      "type": "uint256"
                    }
                  ],
                  "internalType": "struct PositionPricingUtils.PositionBorrowingFees",
                  "name": "borrowing",
                  "type": "tuple"
                },
                {
                  "components": [
                    {
                      "internalType": "address",
                      "name": "uiFeeReceiver",
                      "type": "address"
                    },
                    {
                      "internalType": "uint256",
                      "name": "uiFeeReceiverFactor",
                      "type": "uint256"
                    },
                    {
                      "internalType": "uint256",
                      "name": "uiFeeAmount",
                      "type": "uint256"
                    }
                  ],
                  "internalType": "struct PositionPricingUtils.PositionUiFees",
                  "name": "ui",
                  "type": "tuple"
                },
                {
                  "components": [
                    {
                      "internalType": "uint256",
                      "name": "min",
                      "type": "uint256"
                    },
                    {
                      "internalType": "uint256",
                      "name": "max",
                      "type": "uint256"
                    }
                  ],
                  "internalType": "struct Price.Props",
                  "name": "collateralTokenPrice",
                  "type": "tuple"
                },
                {
                  "internalType": "uint256",
                  "name": "positionFeeFactor",
                  "type": "uint256"
                },
                {
                  "internalType": "uint256",
                  "name": "protocolFeeAmount",
                  "type": "uint256"
                },
                {
                  "internalType": "uint256",
                  "name": "positionFeeReceiverFactor",
                  "type": "uint256"
                },
                {
                  "internalType": "uint256",
                  "name": "feeReceiverAmount",
                  "type": "uint256"
                },
                {
                  "internalType": "uint256",
                  "name": "feeAmountForPool",
                  "type": "uint256"
                },
                {
                  "internalType": "uint256",
                  "name": "positionFeeAmountForPool",
                  "type": "uint256"
                },
                {
                  "internalType": "uint256",
                  "name": "positionFeeAmount",
                  "type": "uint256"
                },
                {
                  "internalType": "uint256",
                  "name": "totalCostAmountExcludingFunding",
                  "type": "uint256"
                },
                {
                  "internalType": "uint256",
                  "name": "totalCostAmount",
                  "type": "uint256"
                }
              ],
              "internalType": "struct PositionPricingUtils.PositionFees",
              "name": "fees",
              "type": "tuple"
            },
            {
              "components": [
                {
                  "internalType": "int256",
                  "name": "priceImpactUsd",
                  "type": "int256"
                },
                {
                  "internalType": "uint256",
                  "name": "priceImpactDiffUsd",
                  "type": "uint256"
                },
                {
                  "internalType": "uint256",
                  "name": "executionPrice",
                  "type": "uint256"
                }
              ],
              "internalType": "struct ReaderPricingUtils.ExecutionPriceResult",
              "name": "executionPriceResult",
              "type": "tuple"
            },
            {
              "internalType": "int256",
              "name": "basePnlUsd",
              "type": "int256"
            },
            {
              "internalType": "int256",
              "name": "uncappedBasePnlUsd",
              "type": "int256"
            },
            {
              "internalType": "int256",
              "name": "pnlAfterPriceImpactUsd",
              "type": "int256"
            }
          ],
          "internalType": "struct ReaderUtils.PositionInfo[]",
          "name": "",
          "type": "tuple[]"
        }
      ],
      "stateMutability": "view",
      "type": "function"
    },
    {
      "inputs": [
        {
          "internalType": "contract DataStore",
          "name": "dataStore",
          "type": "address"
        },
        {
          "internalType": "address",
          "name": "account",
          "type": "address"
        },
        {
          "internalType": "uint256",
          "name": "start",
          "type": "uint256"
        },
        {
          "internalType": "uint256",
          "name": "end",
          "type": "uint256"
        }
      ],
      "name": "getAccountPositions",
      "outputs": [
        {
          "components": [
            {
              "components": [
                {
                  "internalType": "address",
                  "name": "account",
                  "type": "address"
                },
                {
                  "internalType": "address",
                  "name": "market",
                  "type": "address"
                },
                {
                  "internalType": "address",
                  "name": "collateralToken",
                  "type": "address"
                }
              ],
              "internalType": "struct Position.Addresses",
              "name": "addresses",
              "type": "tuple"
            },
            {
              "components": [
                {
                  "internalType": "uint256",
                  "name": "sizeInUsd",
                  "type": "uint256"
                },
                {
                  "internalType": "uint256",
                  "name": "sizeInTokens",
                  "type": "uint256"
                },
                {
                  "internalType": "uint256",
                  "name": "collateralAmount",
                  "type": "uint256"
                },
                {
                  "internalType": "uint256",
                  "name": "borrowingFactor",
                  "type": "uint256"
                },
                {
                  "internalType": "uint256",
                  "name": "fundingFeeAmountPerSize",
                  "type": "uint256"
                },
                {
                  "internalType": "uint256",
                  "name": "longTokenClaimableFundingAmountPerSize",
                  "type": "uint256"
                },
                {
                  "internalType": "uint256",
                  "name": "shortTokenClaimableFundingAmountPerSize",
                  "type": "uint256"
                },
                {
                  "internalType": "uint256",
                  "name": "increasedAtBlock",
                  "type": "uint256"
                },
                {
                  "internalType": "uint256",
                  "name": "decreasedAtBlock",
                  "type": "uint256"
                }
              ],
              "internalType": "struct Position.Numbers",
              "name": "numbers",
              "type": "tuple"
            },
            {
              "components": [
                {
                  "internalType": "bool",
                  "name": "isLong",
                  "type": "bool"
                }
              ],
              "internalType": "struct Position.Flags",
              "name": "flags",
              "type": "tuple"
            }
          ],
          "internalType": "struct Position.Props[]",
          "name": "",
          "type": "tuple[]"
        }
      ],
      "stateMutability": "view",
      "type": "function"
    },
    {
      "inputs": [
        {
          "internalType": "contract DataStore",
          "name": "dataStore",
          "type": "address"
        },
        {
          "internalType": "address",
          "name": "market",
          "type": "address"
        },
        {
          "internalType": "bool",
          "name": "isLong",
          "type": "bool"
        },
        {
          "components": [
            {
              "components": [
                {
                  "internalType": "uint256",
                  "name": "min",
                  "type": "uint256"
                },
                {
                  "internalType": "uint256",
                  "name": "max",
                  "type": "uint256"
                }
              ],
              "internalType": "struct Price.Props",
              "name": "indexTokenPrice",
              "type": "tuple"
            },
            {
              "components": [
                {
                  "internalType": "uint256",
                  "name": "min",
                  "type": "uint256"
                },
                {
                  "internalType": "uint256",
                  "name": "max",
                  "type": "uint256"
                }
              ],
              "internalType": "struct Price.Props",
              "name": "longTokenPrice",
              "type": "tuple"
            },
            {
              "components": [
                {
                  "internalType": "uint256",
                  "name": "min",
                  "type": "uint256"
                },
                {
                  "internalType": "uint256",
                  "name": "max",
                  "type": "uint256"
                }
              ],
              "internalType": "struct Price.Props",
              "name": "shortTokenPrice",
              "type": "tuple"
            }
          ],
          "internalType": "struct MarketUtils.MarketPrices",
          "name": "prices",
          "type": "tuple"
        }
      ],
      "name": "getAdlState",
      "outputs": [
        {
          "internalType": "uint256",
          "name": "",
          "type": "uint256"
        },
        {
          "internalType": "bool",
          "name": "",
          "type": "bool"
        },
        {
          "internalType": "int256",
          "name": "",
          "type": "int256"
        },
        {
          "internalType": "uint256",
          "name": "",
          "type": "uint256"
        }
      ],
      "stateMutability": "view",
      "type": "function"
    },
    {
      "inputs": [
        {
          "internalType": "contract DataStore",
          "name": "dataStore",
          "type": "address"
        },
        {
          "internalType": "bytes32",
          "name": "key",
          "type": "bytes32"
        }
      ],
      "name": "getDeposit",
      "outputs": [
        {
          "components": [
            {
              "components": [
                {
                  "internalType": "address",
                  "name": "account",
                  "type": "address"
                },
                {
                  "internalType": "address",
                  "name": "receiver",
                  "type": "address"
                },
                {
                  "internalType": "address",
                  "name": "callbackContract",
                  "type": "address"
                },
                {
                  "internalType": "address",
                  "name": "uiFeeReceiver",
                  "type": "address"
                },
                {
                  "internalType": "address",
                  "name": "market",
                  "type": "address"
                },
                {
                  "internalType": "address",
                  "name": "initialLongToken",
                  "type": "address"
                },
                {
                  "internalType": "address",
                  "name": "initialShortToken",
                  "type": "address"
                },
                {
                  "internalType": "address[]",
                  "name": "longTokenSwapPath",
                  "type": "address[]"
                },
                {
                  "internalType": "address[]",
                  "name": "shortTokenSwapPath",
                  "type": "address[]"
                }
              ],
              "internalType": "struct Deposit.Addresses",
              "name": "addresses",
              "type": "tuple"
            },
            {
              "components": [
                {
                  "internalType": "uint256",
                  "name": "initialLongTokenAmount",
                  "type": "uint256"
                },
                {
                  "internalType": "uint256",
                  "name": "initialShortTokenAmount",
                  "type": "uint256"
                },
                {
                  "internalType": "uint256",
                  "name": "minMarketTokens",
                  "type": "uint256"
                },
                {
                  "internalType": "uint256",
                  "name": "updatedAtBlock",
                  "type": "uint256"
                },
                {
                  "internalType": "uint256",
                  "name": "executionFee",
                  "type": "uint256"
                },
                {
                  "internalType": "uint256",
                  "name": "callbackGasLimit",
                  "type": "uint256"
                }
              ],
              "internalType": "struct Deposit.Numbers",
              "name": "numbers",
              "type": "tuple"
            },
            {
              "components": [
                {
                  "internalType": "bool",
                  "name": "shouldUnwrapNativeToken",
                  "type": "bool"
                }
              ],
              "internalType": "struct Deposit.Flags",
              "name": "flags",
              "type": "tuple"
            }
          ],
          "internalType": "struct Deposit.Props",
          "name": "",
          "type": "tuple"
        }
      ],
      "stateMutability": "view",
      "type": "function"
    },
    {
      "inputs": [
        {
          "internalType": "contract DataStore",
          "name": "dataStore",
          "type": "address"
        },
        {
          "internalType": "address",
          "name": "marketKey",
          "type": "address"
        },
        {
          "components": [
            {
              "internalType": "uint256",
              "name": "min",
              "type": "uint256"
            },
            {
              "internalType": "uint256",
              "name": "max",
              "type": "uint256"
            }
          ],
          "internalType": "struct Price.Props",
          "name": "indexTokenPrice",
          "type": "tuple"
        },
        {
          "internalType": "uint256",
          "name": "positionSizeInUsd",
          "type": "uint256"
        },
        {
          "internalType": "uint256",
          "name": "positionSizeInTokens",
          "type": "uint256"
        },
        {
          "internalType": "int256",
          "name": "sizeDeltaUsd",
          "type": "int256"
        },
        {
          "internalType": "bool",
          "name": "isLong",
          "type": "bool"
        }
      ],
      "name": "getExecutionPrice",
      "outputs": [
        {
          "components": [
            {
              "internalType": "int256",
              "name": "priceImpactUsd",
              "type": "int256"
            },
            {
              "internalType": "uint256",
              "name": "priceImpactDiffUsd",
              "type": "uint256"
            },
            {
              "internalType": "uint256",
              "name": "executionPrice",
              "type": "uint256"
            }
          ],
          "internalType": "struct ReaderPricingUtils.ExecutionPriceResult",
          "name": "",
          "type": "tuple"
        }
      ],
      "stateMutability": "view",
      "type": "function"
    },
    {
      "inputs": [
        {
          "internalType": "contract DataStore",
          "name": "dataStore",
          "type": "address"
        },
        {
          "internalType": "address",
          "name": "key",
          "type": "address"
        }
      ],
      "name": "getMarket",
      "outputs": [
        {
          "components": [
            {
              "internalType": "address",
              "name": "marketToken",
              "type": "address"
            },
            {
              "internalType": "address",
              "name": "indexToken",
              "type": "address"
            },
            {
              "internalType": "address",
              "name": "longToken",
              "type": "address"
            },
            {
              "internalType": "address",
              "name": "shortToken",
              "type": "address"
            }
          ],
          "internalType": "struct Market.Props",
          "name": "",
          "type": "tuple"
        }
      ],
      "stateMutability": "view",
      "type": "function"
    },
    {
      "inputs": [
        {
          "internalType": "contract DataStore",
          "name": "dataStore",
          "type": "address"
        },
        {
          "internalType": "bytes32",
          "name": "salt",
          "type": "bytes32"
        }
      ],
      "name": "getMarketBySalt",
      "outputs": [
        {
          "components": [
            {
              "internalType": "address",
              "name": "marketToken",
              "type": "address"
            },
            {
              "internalType": "address",
              "name": "indexToken",
              "type": "address"
            },
            {
              "internalType": "address",
              "name": "longToken",
              "type": "address"
            },
            {
              "internalType": "address",
              "name": "shortToken",
              "type": "address"
            }
          ],
          "internalType": "struct Market.Props",
          "name": "",
          "type": "tuple"
        }
      ],
      "stateMutability": "view",
      "type": "function"
    },
    {
      "inputs": [
        {
          "internalType": "contract DataStore",
          "name": "dataStore",
          "type": "address"
        },
        {
          "components": [
            {
              "components": [
                {
                  "internalType": "uint256",
                  "name": "min",
                  "type": "uint256"
                },
                {
                  "internalType": "uint256",
                  "name": "max",
                  "type": "uint256"
                }
              ],
              "internalType": "struct Price.Props",
              "name": "indexTokenPrice",
              "type": "tuple"
            },
            {
              "components": [
                {
                  "internalType": "uint256",
                  "name": "min",
                  "type": "uint256"
                },
                {
                  "internalType": "uint256",
                  "name": "max",
                  "type": "uint256"
                }
              ],
              "internalType": "struct Price.Props",
              "name": "longTokenPrice",
              "type": "tuple"
            },
            {
              "components": [
                {
                  "internalType": "uint256",
                  "name": "min",
                  "type": "uint256"
                },
                {
                  "internalType": "uint256",
                  "name": "max",
                  "type": "uint256"
                }
              ],
              "internalType": "struct Price.Props",
              "name": "shortTokenPrice",
              "type": "tuple"
            }
          ],
          "internalType": "struct MarketUtils.MarketPrices",
          "name": "prices",
          "type": "tuple"
        },
        {
          "internalType": "address",
          "name": "marketKey",
          "type": "address"
        }
      ],
      "name": "getMarketInfo",
      "outputs": [
        {
          "components": [
            {
              "components": [
                {
                  "internalType": "address",
                  "name": "marketToken",
                  "type": "address"
                },
                {
                  "internalType": "address",
                  "name": "indexToken",
                  "type": "address"
                },
                {
                  "internalType": "address",
                  "name": "longToken",
                  "type": "address"
                },
                {
                  "internalType": "address",
                  "name": "shortToken",
                  "type": "address"
                }
              ],
              "internalType": "struct Market.Props",
              "name": "market",
              "type": "tuple"
            },
            {
              "internalType": "uint256",
              "name": "borrowingFactorPerSecondForLongs",
              "type": "uint256"
            },
            {
              "internalType": "uint256",
              "name": "borrowingFactorPerSecondForShorts",
              "type": "uint256"
            },
            {
              "components": [
                {
                  "components": [
                    {
                      "components": [
                        {
                          "internalType": "uint256",
                          "name": "longToken",
                          "type": "uint256"
                        },
                        {
                          "internalType": "uint256",
                          "name": "shortToken",
                          "type": "uint256"
                        }
                      ],
                      "internalType": "struct MarketUtils.CollateralType",
                      "name": "long",
                      "type": "tuple"
                    },
                    {
                      "components": [
                        {
                          "internalType": "uint256",
                          "name": "longToken",
                          "type": "uint256"
                        },
                        {
                          "internalType": "uint256",
                          "name": "shortToken",
                          "type": "uint256"
                        }
                      ],
                      "internalType": "struct MarketUtils.CollateralType",
                      "name": "short",
                      "type": "tuple"
                    }
                  ],
                  "internalType": "struct MarketUtils.PositionType",
                  "name": "fundingFeeAmountPerSize",
                  "type": "tuple"
                },
                {
                  "components": [
                    {
                      "components": [
                        {
                          "internalType": "uint256",
                          "name": "longToken",
                          "type": "uint256"
                        },
                        {
                          "internalType": "uint256",
                          "name": "shortToken",
                          "type": "uint256"
                        }
                      ],
                      "internalType": "struct MarketUtils.CollateralType",
                      "name": "long",
                      "type": "tuple"
                    },
                    {
                      "components": [
                        {
                          "internalType": "uint256",
                          "name": "longToken",
                          "type": "uint256"
                        },
                        {
                          "internalType": "uint256",
                          "name": "shortToken",
                          "type": "uint256"
                        }
                      ],
                      "internalType": "struct MarketUtils.CollateralType",
                      "name": "short",
                      "type": "tuple"
                    }
                  ],
                  "internalType": "struct MarketUtils.PositionType",
                  "name": "claimableFundingAmountPerSize",
                  "type": "tuple"
                }
              ],
              "internalType": "struct ReaderUtils.BaseFundingValues",
              "name": "baseFunding",
              "type": "tuple"
            },
            {
              "components": [
                {
                  "internalType": "bool",
                  "name": "longsPayShorts",
                  "type": "bool"
                },
                {
                  "internalType": "uint256",
                  "name": "fundingFactorPerSecond",
                  "type": "uint256"
                },
                {
                  "components": [
                    {
                      "components": [
                        {
                          "internalType": "uint256",
                          "name": "longToken",
                          "type": "uint256"
                        },
                        {
                          "internalType": "uint256",
                          "name": "shortToken",
                          "type": "uint256"
                        }
                      ],
                      "internalType": "struct MarketUtils.CollateralType",
                      "name": "long",
                      "type": "tuple"
                    },
                    {
                      "components": [
                        {
                          "internalType": "uint256",
                          "name": "longToken",
                          "type": "uint256"
                        },
                        {
                          "internalType": "uint256",
                          "name": "shortToken",
                          "type": "uint256"
                        }
                      ],
                      "internalType": "struct MarketUtils.CollateralType",
                      "name": "short",
                      "type": "tuple"
                    }
                  ],
                  "internalType": "struct MarketUtils.PositionType",
                  "name": "fundingFeeAmountPerSizeDelta",
                  "type": "tuple"
                },
                {
                  "components": [
                    {
                      "components": [
                        {
                          "internalType": "uint256",
                          "name": "longToken",
                          "type": "uint256"
                        },
                        {
                          "internalType": "uint256",
                          "name": "shortToken",
                          "type": "uint256"
                        }
                      ],
                      "internalType": "struct MarketUtils.CollateralType",
                      "name": "long",
                      "type": "tuple"
                    },
                    {
                      "components": [
                        {
                          "internalType": "uint256",
                          "name": "longToken",
                          "type": "uint256"
                        },
                        {
                          "internalType": "uint256",
                          "name": "shortToken",
                          "type": "uint256"
                        }
                      ],
                      "internalType": "struct MarketUtils.CollateralType",
                      "name": "short",
                      "type": "tuple"
                    }
                  ],
                  "internalType": "struct MarketUtils.PositionType",
                  "name": "claimableFundingAmountPerSizeDelta",
                  "type": "tuple"
                }
              ],
              "internalType": "struct MarketUtils.GetNextFundingAmountPerSizeResult",
              "name": "nextFunding",
              "type": "tuple"
            },
            {
              "components": [
                {
                  "internalType": "uint256",
                  "name": "virtualPoolAmountForLongToken",
                  "type": "uint256"
                },
                {
                  "internalType": "uint256",
                  "name": "virtualPoolAmountForShortToken",
                  "type": "uint256"
                },
                {
                  "internalType": "int256",
                  "name": "virtualInventoryForPositions",
                  "type": "int256"
                }
              ],
              "internalType": "struct Reader.VirtualInventory",
              "name": "virtualInventory",
              "type": "tuple"
            },
            {
              "internalType": "bool",
              "name": "isDisabled",
              "type": "bool"
            }
          ],
          "internalType": "struct Reader.MarketInfo",
          "name": "",
          "type": "tuple"
        }
      ],
      "stateMutability": "view",
      "type": "function"
    },
    {
      "inputs": [
        {
          "internalType": "contract DataStore",
          "name": "dataStore",
          "type": "address"
        },
        {
          "components": [
            {
              "components": [
                {
                  "internalType": "uint256",
                  "name": "min",
                  "type": "uint256"
                },
                {
                  "internalType": "uint256",
                  "name": "max",
                  "type": "uint256"
                }
              ],
              "internalType": "struct Price.Props",
              "name": "indexTokenPrice",
              "type": "tuple"
            },
            {
              "components": [
                {
                  "internalType": "uint256",
                  "name": "min",
                  "type": "uint256"
                },
                {
                  "internalType": "uint256",
                  "name": "max",
                  "type": "uint256"
                }
              ],
              "internalType": "struct Price.Props",
              "name": "longTokenPrice",
              "type": "tuple"
            },
            {
              "components": [
                {
                  "internalType": "uint256",
                  "name": "min",
                  "type": "uint256"
                },
                {
                  "internalType": "uint256",
                  "name": "max",
                  "type": "uint256"
                }
              ],
              "internalType": "struct Price.Props",
              "name": "shortTokenPrice",
              "type": "tuple"
            }
          ],
          "internalType": "struct MarketUtils.MarketPrices[]",
          "name": "marketPricesList",
          "type": "tuple[]"
        },
        {
          "internalType": "uint256",
          "name": "start",
          "type": "uint256"
        },
        {
          "internalType": "uint256",
          "name": "end",
          "type": "uint256"
        }
      ],
      "name": "getMarketInfoList",
      "outputs": [
        {
          "components": [
            {
              "components": [
                {
                  "internalType": "address",
                  "name": "marketToken",
                  "type": "address"
                },
                {
                  "internalType": "address",
                  "name": "indexToken",
                  "type": "address"
                },
                {
                  "internalType": "address",
                  "name": "longToken",
                  "type": "address"
                },
                {
                  "internalType": "address",
                  "name": "shortToken",
                  "type": "address"
                }
              ],
              "internalType": "struct Market.Props",
              "name": "market",
              "type": "tuple"
            },
            {
              "internalType": "uint256",
              "name": "borrowingFactorPerSecondForLongs",
              "type": "uint256"
            },
            {
              "internalType": "uint256",
              "name": "borrowingFactorPerSecondForShorts",
              "type": "uint256"
            },
            {
              "components": [
                {
                  "components": [
                    {
                      "components": [
                        {
                          "internalType": "uint256",
                          "name": "longToken",
                          "type": "uint256"
                        },
                        {
                          "internalType": "uint256",
                          "name": "shortToken",
                          "type": "uint256"
                        }
                      ],
                      "internalType": "struct MarketUtils.CollateralType",
                      "name": "long",
                      "type": "tuple"
                    },
                    {
                      "components": [
                        {
                          "internalType": "uint256",
                          "name": "longToken",
                          "type": "uint256"
                        },
                        {
                          "internalType": "uint256",
                          "name": "shortToken",
                          "type": "uint256"
                        }
                      ],
                      "internalType": "struct MarketUtils.CollateralType",
                      "name": "short",
                      "type": "tuple"
                    }
                  ],
                  "internalType": "struct MarketUtils.PositionType",
                  "name": "fundingFeeAmountPerSize",
                  "type": "tuple"
                },
                {
                  "components": [
                    {
                      "components": [
                        {
                          "internalType": "uint256",
                          "name": "longToken",
                          "type": "uint256"
                        },
                        {
                          "internalType": "uint256",
                          "name": "shortToken",
                          "type": "uint256"
                        }
                      ],
                      "internalType": "struct MarketUtils.CollateralType",
                      "name": "long",
                      "type": "tuple"
                    },
                    {
                      "components": [
                        {
                          "internalType": "uint256",
                          "name": "longToken",
                          "type": "uint256"
                        },
                        {
                          "internalType": "uint256",
                          "name": "shortToken",
                          "type": "uint256"
                        }
                      ],
                      "internalType": "struct MarketUtils.CollateralType",
                      "name": "short",
                      "type": "tuple"
                    }
                  ],
                  "internalType": "struct MarketUtils.PositionType",
                  "name": "claimableFundingAmountPerSize",
                  "type": "tuple"
                }
              ],
              "internalType": "struct ReaderUtils.BaseFundingValues",
              "name": "baseFunding",
              "type": "tuple"
            },
            {
              "components": [
                {
                  "internalType": "bool",
                  "name": "longsPayShorts",
                  "type": "bool"
                },
                {
                  "internalType": "uint256",
                  "name": "fundingFactorPerSecond",
                  "type": "uint256"
                },
                {
                  "components": [
                    {
                      "components": [
                        {
                          "internalType": "uint256",
                          "name": "longToken",
                          "type": "uint256"
                        },
                        {
                          "internalType": "uint256",
                          "name": "shortToken",
                          "type": "uint256"
                        }
                      ],
                      "internalType": "struct MarketUtils.CollateralType",
                      "name": "long",
                      "type": "tuple"
                    },
                    {
                      "components": [
                        {
                          "internalType": "uint256",
                          "name": "longToken",
                          "type": "uint256"
                        },
                        {
                          "internalType": "uint256",
                          "name": "shortToken",
                          "type": "uint256"
                        }
                      ],
                      "internalType": "struct MarketUtils.CollateralType",
                      "name": "short",
                      "type": "tuple"
                    }
                  ],
                  "internalType": "struct MarketUtils.PositionType",
                  "name": "fundingFeeAmountPerSizeDelta",
                  "type": "tuple"
                },
                {
                  "components": [
                    {
                      "components": [
                        {
                          "internalType": "uint256",
                          "name": "longToken",
                          "type": "uint256"
                        },
                        {
                          "internalType": "uint256",
                          "name": "shortToken",
                          "type": "uint256"
                        }
                      ],
                      "internalType": "struct MarketUtils.CollateralType",
                      "name": "long",
                      "type": "tuple"
                    },
                    {
                      "components": [
                        {
                          "internalType": "uint256",
                          "name": "longToken",
                          "type": "uint256"
                        },
                        {
                          "internalType": "uint256",
                          "name": "shortToken",
                          "type": "uint256"
                        }
                      ],
                      "internalType": "struct MarketUtils.CollateralType",
                      "name": "short",
                      "type": "tuple"
                    }
                  ],
                  "internalType": "struct MarketUtils.PositionType",
                  "name": "claimableFundingAmountPerSizeDelta",
                  "type": "tuple"
                }
              ],
              "internalType": "struct MarketUtils.GetNextFundingAmountPerSizeResult",
              "name": "nextFunding",
              "type": "tuple"
            },
            {
              "components": [
                {
                  "internalType": "uint256",
                  "name": "virtualPoolAmountForLongToken",
                  "type": "uint256"
                },
                {
                  "internalType": "uint256",
                  "name": "virtualPoolAmountForShortToken",
                  "type": "uint256"
                },
                {
                  "internalType": "int256",
                  "name": "virtualInventoryForPositions",
                  "type": "int256"
                }
              ],
              "internalType": "struct Reader.VirtualInventory",
              "name": "virtualInventory",
              "type": "tuple"
            },
            {
              "internalType": "bool",
              "name": "isDisabled",
              "type": "bool"
            }
          ],
          "internalType": "struct Reader.MarketInfo[]",
          "name": "",
          "type": "tuple[]"
        }
      ],
      "stateMutability": "view",
      "type": "function"
    },
    {
      "inputs": [
        {
          "internalType": "contract DataStore",
          "name": "dataStore",
          "type": "address"
        },
        {
          "components": [
            {
              "internalType": "address",
              "name": "marketToken",
              "type": "address"
            },
            {
              "internalType": "address",
              "name": "indexToken",
              "type": "address"
            },
            {
              "internalType": "address",
              "name": "longToken",
              "type": "address"
            },
            {
              "internalType": "address",
              "name": "shortToken",
              "type": "address"
            }
          ],
          "internalType": "struct Market.Props",
          "name": "market",
          "type": "tuple"
        },
        {
          "components": [
            {
              "internalType": "uint256",
              "name": "min",
              "type": "uint256"
            },
            {
              "internalType": "uint256",
              "name": "max",
              "type": "uint256"
            }
          ],
          "internalType": "struct Price.Props",
          "name": "indexTokenPrice",
          "type": "tuple"
        },
        {
          "components": [
            {
              "internalType": "uint256",
              "name": "min",
              "type": "uint256"
            },
            {
              "internalType": "uint256",
              "name": "max",
              "type": "uint256"
            }
          ],
          "internalType": "struct Price.Props",
          "name": "longTokenPrice",
          "type": "tuple"
        },
        {
          "components": [
            {
              "internalType": "uint256",
              "name": "min",
              "type": "uint256"
            },
            {
              "internalType": "uint256",
              "name": "max",
              "type": "uint256"
            }
          ],
          "internalType": "struct Price.Props",
          "name": "shortTokenPrice",
          "type": "tuple"
        },
        {
          "internalType": "bytes32",
          "name": "pnlFactorType",
          "type": "bytes32"
        },
        {
          "internalType": "bool",
          "name": "maximize",
          "type": "bool"
        }
      ],
      "name": "getMarketTokenPrice",
      "outputs": [
        {
          "internalType": "int256",
          "name": "",
          "type": "int256"
        },
        {
          "components": [
            {
              "internalType": "int256",
              "name": "poolValue",
              "type": "int256"
            },
            {
              "internalType": "int256",
              "name": "longPnl",
              "type": "int256"
            },
            {
              "internalType": "int256",
              "name": "shortPnl",
              "type": "int256"
            },
            {
              "internalType": "int256",
              "name": "netPnl",
              "type": "int256"
            },
            {
              "internalType": "uint256",
              "name": "longTokenAmount",
              "type": "uint256"
            },
            {
              "internalType": "uint256",
              "name": "shortTokenAmount",
              "type": "uint256"
            },
            {
              "internalType": "uint256",
              "name": "longTokenUsd",
              "type": "uint256"
            },
            {
              "internalType": "uint256",
              "name": "shortTokenUsd",
              "type": "uint256"
            },
            {
              "internalType": "uint256",
              "name": "totalBorrowingFees",
              "type": "uint256"
            },
            {
              "internalType": "uint256",
              "name": "borrowingFeePoolFactor",
              "type": "uint256"
            },
            {
              "internalType": "uint256",
              "name": "impactPoolAmount",
              "type": "uint256"
            }
          ],
          "internalType": "struct MarketPoolValueInfo.Props",
          "name": "",
          "type": "tuple"
        }
      ],
      "stateMutability": "view",
      "type": "function"
    },
    {
      "inputs": [
        {
          "internalType": "contract DataStore",
          "name": "dataStore",
          "type": "address"
        },
        {
          "internalType": "uint256",
          "name": "start",
          "type": "uint256"
        },
        {
          "internalType": "uint256",
          "name": "end",
          "type": "uint256"
        }
      ],
      "name": "getMarkets",
      "outputs": [
        {
          "components": [
            {
              "internalType": "address",
              "name": "marketToken",
              "type": "address"
            },
            {
              "internalType": "address",
              "name": "indexToken",
              "type": "address"
            },
            {
              "internalType": "address",
              "name": "longToken",
              "type": "address"
            },
            {
              "internalType": "address",
              "name": "shortToken",
              "type": "address"
            }
          ],
          "internalType": "struct Market.Props[]",
          "name": "",
          "type": "tuple[]"
        }
      ],
      "stateMutability": "view",
      "type": "function"
    },
    {
      "inputs": [
        {
          "internalType": "contract DataStore",
          "name": "dataStore",
          "type": "address"
        },
        {
          "components": [
            {
              "internalType": "address",
              "name": "marketToken",
              "type": "address"
            },
            {
              "internalType": "address",
              "name": "indexToken",
              "type": "address"
            },
            {
              "internalType": "address",
              "name": "longToken",
              "type": "address"
            },
            {
              "internalType": "address",
              "name": "shortToken",
              "type": "address"
            }
          ],
          "internalType": "struct Market.Props",
          "name": "market",
          "type": "tuple"
        },
        {
          "components": [
            {
              "internalType": "uint256",
              "name": "min",
              "type": "uint256"
            },
            {
              "internalType": "uint256",
              "name": "max",
              "type": "uint256"
            }
          ],
          "internalType": "struct Price.Props",
          "name": "indexTokenPrice",
          "type": "tuple"
        },
        {
          "internalType": "bool",
          "name": "maximize",
          "type": "bool"
        }
      ],
      "name": "getNetPnl",
      "outputs": [
        {
          "internalType": "int256",
          "name": "",
          "type": "int256"
        }
      ],
      "stateMutability": "view",
      "type": "function"
    },
    {
      "inputs": [
        {
          "internalType": "contract DataStore",
          "name": "dataStore",
          "type": "address"
        },
        {
          "components": [
            {
              "internalType": "address",
              "name": "marketToken",
              "type": "address"
            },
            {
              "internalType": "address",
              "name": "indexToken",
              "type": "address"
            },
            {
              "internalType": "address",
              "name": "longToken",
              "type": "address"
            },
            {
              "internalType": "address",
              "name": "shortToken",
              "type": "address"
            }
          ],
          "internalType": "struct Market.Props",
          "name": "market",
          "type": "tuple"
        },
        {
          "components": [
            {
              "internalType": "uint256",
              "name": "min",
              "type": "uint256"
            },
            {
              "internalType": "uint256",
              "name": "max",
              "type": "uint256"
            }
          ],
          "internalType": "struct Price.Props",
          "name": "indexTokenPrice",
          "type": "tuple"
        },
        {
          "internalType": "bool",
          "name": "isLong",
          "type": "bool"
        },
        {
          "internalType": "bool",
          "name": "maximize",
          "type": "bool"
        }
      ],
      "name": "getOpenInterestWithPnl",
      "outputs": [
        {
          "internalType": "int256",
          "name": "",
          "type": "int256"
        }
      ],
      "stateMutability": "view",
      "type": "function"
    },
    {
      "inputs": [
        {
          "internalType": "contract DataStore",
          "name": "dataStore",
          "type": "address"
        },
        {
          "internalType": "bytes32",
          "name": "key",
          "type": "bytes32"
        }
      ],
      "name": "getOrder",
      "outputs": [
        {
          "components": [
            {
              "components": [
                {
                  "internalType": "address",
                  "name": "account",
                  "type": "address"
                },
                {
                  "internalType": "address",
                  "name": "receiver",
                  "type": "address"
                },
                {
                  "internalType": "address",
                  "name": "callbackContract",
                  "type": "address"
                },
                {
                  "internalType": "address",
                  "name": "uiFeeReceiver",
                  "type": "address"
                },
                {
                  "internalType": "address",
                  "name": "market",
                  "type": "address"
                },
                {
                  "internalType": "address",
                  "name": "initialCollateralToken",
                  "type": "address"
                },
                {
                  "internalType": "address[]",
                  "name": "swapPath",
                  "type": "address[]"
                }
              ],
              "internalType": "struct Order.Addresses",
              "name": "addresses",
              "type": "tuple"
            },
            {
              "components": [
                {
                  "internalType": "enum Order.OrderType",
                  "name": "orderType",
                  "type": "uint8"
                },
                {
                  "internalType": "enum Order.DecreasePositionSwapType",
                  "name": "decreasePositionSwapType",
                  "type": "uint8"
                },
                {
                  "internalType": "uint256",
                  "name": "sizeDeltaUsd",
                  "type": "uint256"
                },
                {
                  "internalType": "uint256",
                  "name": "initialCollateralDeltaAmount",
                  "type": "uint256"
                },
                {
                  "internalType": "uint256",
                  "name": "triggerPrice",
                  "type": "uint256"
                },
                {
                  "internalType": "uint256",
                  "name": "acceptablePrice",
                  "type": "uint256"
                },
                {
                  "internalType": "uint256",
                  "name": "executionFee",
                  "type": "uint256"
                },
                {
                  "internalType": "uint256",
                  "name": "callbackGasLimit",
                  "type": "uint256"
                },
                {
                  "internalType": "uint256",
                  "name": "minOutputAmount",
                  "type": "uint256"
                },
                {
                  "internalType": "uint256",
                  "name": "updatedAtBlock",
                  "type": "uint256"
                }
              ],
              "internalType": "struct Order.Numbers",
              "name": "numbers",
              "type": "tuple"
            },
            {
              "components": [
                {
                  "internalType": "bool",
                  "name": "isLong",
                  "type": "bool"
                },
                {
                  "internalType": "bool",
                  "name": "shouldUnwrapNativeToken",
                  "type": "bool"
                },
                {
                  "internalType": "bool",
                  "name": "isFrozen",
                  "type": "bool"
                }
              ],
              "internalType": "struct Order.Flags",
              "name": "flags",
              "type": "tuple"
            }
          ],
          "internalType": "struct Order.Props",
          "name": "",
          "type": "tuple"
        }
      ],
      "stateMutability": "view",
      "type": "function"
    },
    {
      "inputs": [
        {
          "internalType": "contract DataStore",
          "name": "dataStore",
          "type": "address"
        },
        {
          "components": [
            {
              "internalType": "address",
              "name": "marketToken",
              "type": "address"
            },
            {
              "internalType": "address",
              "name": "indexToken",
              "type": "address"
            },
            {
              "internalType": "address",
              "name": "longToken",
              "type": "address"
            },
            {
              "internalType": "address",
              "name": "shortToken",
              "type": "address"
            }
          ],
          "internalType": "struct Market.Props",
          "name": "market",
          "type": "tuple"
        },
        {
          "components": [
            {
              "internalType": "uint256",
              "name": "min",
              "type": "uint256"
            },
            {
              "internalType": "uint256",
              "name": "max",
              "type": "uint256"
            }
          ],
          "internalType": "struct Price.Props",
          "name": "indexTokenPrice",
          "type": "tuple"
        },
        {
          "internalType": "bool",
          "name": "isLong",
          "type": "bool"
        },
        {
          "internalType": "bool",
          "name": "maximize",
          "type": "bool"
        }
      ],
      "name": "getPnl",
      "outputs": [
        {
          "internalType": "int256",
          "name": "",
          "type": "int256"
        }
      ],
      "stateMutability": "view",
      "type": "function"
    },
    {
      "inputs": [
        {
          "internalType": "contract DataStore",
          "name": "dataStore",
          "type": "address"
        },
        {
          "internalType": "address",
          "name": "marketAddress",
          "type": "address"
        },
        {
          "components": [
            {
              "components": [
                {
                  "internalType": "uint256",
                  "name": "min",
                  "type": "uint256"
                },
                {
                  "internalType": "uint256",
                  "name": "max",
                  "type": "uint256"
                }
              ],
              "internalType": "struct Price.Props",
              "name": "indexTokenPrice",
              "type": "tuple"
            },
            {
              "components": [
                {
                  "internalType": "uint256",
                  "name": "min",
                  "type": "uint256"
                },
                {
                  "internalType": "uint256",
                  "name": "max",
                  "type": "uint256"
                }
              ],
              "internalType": "struct Price.Props",
              "name": "longTokenPrice",
              "type": "tuple"
            },
            {
              "components": [
                {
                  "internalType": "uint256",
                  "name": "min",
                  "type": "uint256"
                },
                {
                  "internalType": "uint256",
                  "name": "max",
                  "type": "uint256"
                }
              ],
              "internalType": "struct Price.Props",
              "name": "shortTokenPrice",
              "type": "tuple"
            }
          ],
          "internalType": "struct MarketUtils.MarketPrices",
          "name": "prices",
          "type": "tuple"
        },
        {
          "internalType": "bool",
          "name": "isLong",
          "type": "bool"
        },
        {
          "internalType": "bool",
          "name": "maximize",
          "type": "bool"
        }
      ],
      "name": "getPnlToPoolFactor",
      "outputs": [
        {
          "internalType": "int256",
          "name": "",
          "type": "int256"
        }
      ],
      "stateMutability": "view",
      "type": "function"
    },
    {
      "inputs": [
        {
          "internalType": "contract DataStore",
          "name": "dataStore",
          "type": "address"
        },
        {
          "internalType": "bytes32",
          "name": "key",
          "type": "bytes32"
        }
      ],
      "name": "getPosition",
      "outputs": [
        {
          "components": [
            {
              "components": [
                {
                  "internalType": "address",
                  "name": "account",
                  "type": "address"
                },
                {
                  "internalType": "address",
                  "name": "market",
                  "type": "address"
                },
                {
                  "internalType": "address",
                  "name": "collateralToken",
                  "type": "address"
                }
              ],
              "internalType": "struct Position.Addresses",
              "name": "addresses",
              "type": "tuple"
            },
            {
              "components": [
                {
                  "internalType": "uint256",
                  "name": "sizeInUsd",
                  "type": "uint256"
                },
                {
                  "internalType": "uint256",
                  "name": "sizeInTokens",
                  "type": "uint256"
                },
                {
                  "internalType": "uint256",
                  "name": "collateralAmount",
                  "type": "uint256"
                },
                {
                  "internalType": "uint256",
                  "name": "borrowingFactor",
                  "type": "uint256"
                },
                {
                  "internalType": "uint256",
                  "name": "fundingFeeAmountPerSize",
                  "type": "uint256"
                },
                {
                  "internalType": "uint256",
                  "name": "longTokenClaimableFundingAmountPerSize",
                  "type": "uint256"
                },
                {
                  "internalType": "uint256",
                  "name": "shortTokenClaimableFundingAmountPerSize",
                  "type": "uint256"
                },
                {
                  "internalType": "uint256",
                  "name": "increasedAtBlock",
                  "type": "uint256"
                },
                {
                  "internalType": "uint256",
                  "name": "decreasedAtBlock",
                  "type": "uint256"
                }
              ],
              "internalType": "struct Position.Numbers",
              "name": "numbers",
              "type": "tuple"
            },
            {
              "components": [
                {
                  "internalType": "bool",
                  "name": "isLong",
                  "type": "bool"
                }
              ],
              "internalType": "struct Position.Flags",
              "name": "flags",
              "type": "tuple"
            }
          ],
          "internalType": "struct Position.Props",
          "name": "",
          "type": "tuple"
        }
      ],
      "stateMutability": "view",
      "type": "function"
    },
    {
      "inputs": [
        {
          "internalType": "contract DataStore",
          "name": "dataStore",
          "type": "address"
        },
        {
          "internalType": "contract IReferralStorage",
          "name": "referralStorage",
          "type": "address"
        },
        {
          "internalType": "bytes32",
          "name": "positionKey",
          "type": "bytes32"
        },
        {
          "components": [
            {
              "components": [
                {
                  "internalType": "uint256",
                  "name": "min",
                  "type": "uint256"
                },
                {
                  "internalType": "uint256",
                  "name": "max",
                  "type": "uint256"
                }
              ],
              "internalType": "struct Price.Props",
              "name": "indexTokenPrice",
              "type": "tuple"
            },
            {
              "components": [
                {
                  "internalType": "uint256",
                  "name": "min",
                  "type": "uint256"
                },
                {
                  "internalType": "uint256",
                  "name": "max",
                  "type": "uint256"
                }
              ],
              "internalType": "struct Price.Props",
              "name": "longTokenPrice",
              "type": "tuple"
            },
            {
              "components": [
                {
                  "internalType": "uint256",
                  "name": "min",
                  "type": "uint256"
                },
                {
                  "internalType": "uint256",
                  "name": "max",
                  "type": "uint256"
                }
              ],
              "internalType": "struct Price.Props",
              "name": "shortTokenPrice",
              "type": "tuple"
            }
          ],
          "internalType": "struct MarketUtils.MarketPrices",
          "name": "prices",
          "type": "tuple"
        },
        {
          "internalType": "uint256",
          "name": "sizeDeltaUsd",
          "type": "uint256"
        },
        {
          "internalType": "address",
          "name": "uiFeeReceiver",
          "type": "address"
        },
        {
          "internalType": "bool",
          "name": "usePositionSizeAsSizeDeltaUsd",
          "type": "bool"
        }
      ],
      "name": "getPositionInfo",
      "outputs": [
        {
          "components": [
            {
              "components": [
                {
                  "components": [
                    {
                      "internalType": "address",
                      "name": "account",
                      "type": "address"
                    },
                    {
                      "internalType": "address",
                      "name": "market",
                      "type": "address"
                    },
                    {
                      "internalType": "address",
                      "name": "collateralToken",
                      "type": "address"
                    }
                  ],
                  "internalType": "struct Position.Addresses",
                  "name": "addresses",
                  "type": "tuple"
                },
                {
                  "components": [
                    {
                      "internalType": "uint256",
                      "name": "sizeInUsd",
                      "type": "uint256"
                    },
                    {
                      "internalType": "uint256",
                      "name": "sizeInTokens",
                      "type": "uint256"
                    },
                    {
                      "internalType": "uint256",
                      "name": "collateralAmount",
                      "type": "uint256"
                    },
                    {
                      "internalType": "uint256",
                      "name": "borrowingFactor",
                      "type": "uint256"
                    },
                    {
                      "internalType": "uint256",
                      "name": "fundingFeeAmountPerSize",
                      "type": "uint256"
                    },
                    {
                      "internalType": "uint256",
                      "name": "longTokenClaimableFundingAmountPerSize",
                      "type": "uint256"
                    },
                    {
                      "internalType": "uint256",
                      "name": "shortTokenClaimableFundingAmountPerSize",
                      "type": "uint256"
                    },
                    {
                      "internalType": "uint256",
                      "name": "increasedAtBlock",
                      "type": "uint256"
                    },
                    {
                      "internalType": "uint256",
                      "name": "decreasedAtBlock",
                      "type": "uint256"
                    }
                  ],
                  "internalType": "struct Position.Numbers",
                  "name": "numbers",
                  "type": "tuple"
                },
                {
                  "components": [
                    {
                      "internalType": "bool",
                      "name": "isLong",
                      "type": "bool"
                    }
                  ],
                  "internalType": "struct Position.Flags",
                  "name": "flags",
                  "type": "tuple"
                }
              ],
              "internalType": "struct Position.Props",
              "name": "position",
              "type": "tuple"
            },
            {
              "components": [
                {
                  "components": [
                    {
                      "internalType": "bytes32",
                      "name": "referralCode",
                      "type": "bytes32"
                    },
                    {
                      "internalType": "address",
                      "name": "affiliate",
                      "type": "address"
                    },
                    {
                      "internalType": "address",
                      "name": "trader",
                      "type": "address"
                    },
                    {
                      "internalType": "uint256",
                      "name": "totalRebateFactor",
                      "type": "uint256"
                    },
                    {
                      "internalType": "uint256",
                      "name": "traderDiscountFactor",
                      "type": "uint256"
                    },
                    {
                      "internalType": "uint256",
                      "name": "totalRebateAmount",
                      "type": "uint256"
                    },
                    {
                      "internalType": "uint256",
                      "name": "traderDiscountAmount",
                      "type": "uint256"
                    },
                    {
                      "internalType": "uint256",
                      "name": "affiliateRewardAmount",
                      "type": "uint256"
                    }
                  ],
                  "internalType": "struct PositionPricingUtils.PositionReferralFees",
                  "name": "referral",
                  "type": "tuple"
                },
                {
                  "components": [
                    {
                      "internalType": "uint256",
                      "name": "fundingFeeAmount",
                      "type": "uint256"
                    },
                    {
                      "internalType": "uint256",
                      "name": "claimableLongTokenAmount",
                      "type": "uint256"
                    },
                    {
                      "internalType": "uint256",
                      "name": "claimableShortTokenAmount",
                      "type": "uint256"
                    },
                    {
                      "internalType": "uint256",
                      "name": "latestFundingFeeAmountPerSize",
                      "type": "uint256"
                    },
                    {
                      "internalType": "uint256",
                      "name": "latestLongTokenClaimableFundingAmountPerSize",
                      "type": "uint256"
                    },
                    {
                      "internalType": "uint256",
                      "name": "latestShortTokenClaimableFundingAmountPerSize",
                      "type": "uint256"
                    }
                  ],
                  "internalType": "struct PositionPricingUtils.PositionFundingFees",
                  "name": "funding",
                  "type": "tuple"
                },
                {
                  "components": [
                    {
                      "internalType": "uint256",
                      "name": "borrowingFeeUsd",
                      "type": "uint256"
                    },
                    {
                      "internalType": "uint256",
                      "name": "borrowingFeeAmount",
                      "type": "uint256"
                    },
                    {
                      "internalType": "uint256",
                      "name": "borrowingFeeReceiverFactor",
                      "type": "uint256"
                    },
                    {
                      "internalType": "uint256",
                      "name": "borrowingFeeAmountForFeeReceiver",
                      "type": "uint256"
                    }
                  ],
                  "internalType": "struct PositionPricingUtils.PositionBorrowingFees",
                  "name": "borrowing",
                  "type": "tuple"
                },
                {
                  "components": [
                    {
                      "internalType": "address",
                      "name": "uiFeeReceiver",
                      "type": "address"
                    },
                    {
                      "internalType": "uint256",
                      "name": "uiFeeReceiverFactor",
                      "type": "uint256"
                    },
                    {
                      "internalType": "uint256",
                      "name": "uiFeeAmount",
                      "type": "uint256"
                    }
                  ],
                  "internalType": "struct PositionPricingUtils.PositionUiFees",
                  "name": "ui",
                  "type": "tuple"
                },
                {
                  "components": [
                    {
                      "internalType": "uint256",
                      "name": "min",
                      "type": "uint256"
                    },
                    {
                      "internalType": "uint256",
                      "name": "max",
                      "type": "uint256"
                    }
                  ],
                  "internalType": "struct Price.Props",
                  "name": "collateralTokenPrice",
                  "type": "tuple"
                },
                {
                  "internalType": "uint256",
                  "name": "positionFeeFactor",
                  "type": "uint256"
                },
                {
                  "internalType": "uint256",
                  "name": "protocolFeeAmount",
                  "type": "uint256"
                },
                {
                  "internalType": "uint256",
                  "name": "positionFeeReceiverFactor",
                  "type": "uint256"
                },
                {
                  "internalType": "uint256",
                  "name": "feeReceiverAmount",
                  "type": "uint256"
                },
                {
                  "internalType": "uint256",
                  "name": "feeAmountForPool",
                  "type": "uint256"
                },
                {
                  "internalType": "uint256",
                  "name": "positionFeeAmountForPool",
                  "type": "uint256"
                },
                {
                  "internalType": "uint256",
                  "name": "positionFeeAmount",
                  "type": "uint256"
                },
                {
                  "internalType": "uint256",
                  "name": "totalCostAmountExcludingFunding",
                  "type": "uint256"
                },
                {
                  "internalType": "uint256",
                  "name": "totalCostAmount",
                  "type": "uint256"
                }
              ],
              "internalType": "struct PositionPricingUtils.PositionFees",
              "name": "fees",
              "type": "tuple"
            },
            {
              "components": [
                {
                  "internalType": "int256",
                  "name": "priceImpactUsd",
                  "type": "int256"
                },
                {
                  "internalType": "uint256",
                  "name": "priceImpactDiffUsd",
                  "type": "uint256"
                },
                {
                  "internalType": "uint256",
                  "name": "executionPrice",
                  "type": "uint256"
                }
              ],
              "internalType": "struct ReaderPricingUtils.ExecutionPriceResult",
              "name": "executionPriceResult",
              "type": "tuple"
            },
            {
              "internalType": "int256",
              "name": "basePnlUsd",
              "type": "int256"
            },
            {
              "internalType": "int256",
              "name": "uncappedBasePnlUsd",
              "type": "int256"
            },
            {
              "internalType": "int256",
              "name": "pnlAfterPriceImpactUsd",
              "type": "int256"
            }
          ],
          "internalType": "struct ReaderUtils.PositionInfo",
          "name": "",
          "type": "tuple"
        }
      ],
      "stateMutability": "view",
      "type": "function"
    },
    {
      "inputs": [
        {
          "internalType": "contract DataStore",
          "name": "dataStore",
          "type": "address"
        },
        {
          "components": [
            {
              "internalType": "address",
              "name": "marketToken",
              "type": "address"
            },
            {
              "internalType": "address",
              "name": "indexToken",
              "type": "address"
            },
            {
              "internalType": "address",
              "name": "longToken",
              "type": "address"
            },
            {
              "internalType": "address",
              "name": "shortToken",
              "type": "address"
            }
          ],
          "internalType": "struct Market.Props",
          "name": "market",
          "type": "tuple"
        },
        {
          "components": [
            {
              "components": [
                {
                  "internalType": "uint256",
                  "name": "min",
                  "type": "uint256"
                },
                {
                  "internalType": "uint256",
                  "name": "max",
                  "type": "uint256"
                }
              ],
              "internalType": "struct Price.Props",
              "name": "indexTokenPrice",
              "type": "tuple"
            },
            {
              "components": [
                {
                  "internalType": "uint256",
                  "name": "min",
                  "type": "uint256"
                },
                {
                  "internalType": "uint256",
                  "name": "max",
                  "type": "uint256"
                }
              ],
              "internalType": "struct Price.Props",
              "name": "longTokenPrice",
              "type": "tuple"
            },
            {
              "components": [
                {
                  "internalType": "uint256",
                  "name": "min",
                  "type": "uint256"
                },
                {
                  "internalType": "uint256",
                  "name": "max",
                  "type": "uint256"
                }
              ],
              "internalType": "struct Price.Props",
              "name": "shortTokenPrice",
              "type": "tuple"
            }
          ],
          "internalType": "struct MarketUtils.MarketPrices",
          "name": "prices",
          "type": "tuple"
        },
        {
          "internalType": "bytes32",
          "name": "positionKey",
          "type": "bytes32"
        },
        {
          "internalType": "uint256",
          "name": "executionPrice",
          "type": "uint256"
        },
        {
          "internalType": "uint256",
          "name": "sizeDeltaUsd",
          "type": "uint256"
        }
      ],
      "name": "getPositionPnlUsd",
      "outputs": [
        {
          "internalType": "int256",
          "name": "",
          "type": "int256"
        },
        {
          "internalType": "int256",
          "name": "",
          "type": "int256"
        },
        {
          "internalType": "uint256",
          "name": "",
          "type": "uint256"
        }
      ],
      "stateMutability": "view",
      "type": "function"
    },
    {
      "inputs": [
        {
          "internalType": "contract DataStore",
          "name": "dataStore",
          "type": "address"
        },
        {
          "components": [
            {
              "internalType": "address",
              "name": "marketToken",
              "type": "address"
            },
            {
              "internalType": "address",
              "name": "indexToken",
              "type": "address"
            },
            {
              "internalType": "address",
              "name": "longToken",
              "type": "address"
            },
            {
              "internalType": "address",
              "name": "shortToken",
              "type": "address"
            }
          ],
          "internalType": "struct Market.Props",
          "name": "market",
          "type": "tuple"
        },
        {
          "components": [
            {
              "components": [
                {
                  "internalType": "uint256",
                  "name": "min",
                  "type": "uint256"
                },
                {
                  "internalType": "uint256",
                  "name": "max",
                  "type": "uint256"
                }
              ],
              "internalType": "struct Price.Props",
              "name": "indexTokenPrice",
              "type": "tuple"
            },
            {
              "components": [
                {
                  "internalType": "uint256",
                  "name": "min",
                  "type": "uint256"
                },
                {
                  "internalType": "uint256",
                  "name": "max",
                  "type": "uint256"
                }
              ],
              "internalType": "struct Price.Props",
              "name": "longTokenPrice",
              "type": "tuple"
            },
            {
              "components": [
                {
                  "internalType": "uint256",
                  "name": "min",
                  "type": "uint256"
                },
                {
                  "internalType": "uint256",
                  "name": "max",
                  "type": "uint256"
                }
              ],
              "internalType": "struct Price.Props",
              "name": "shortTokenPrice",
              "type": "tuple"
            }
          ],
          "internalType": "struct MarketUtils.MarketPrices",
          "name": "prices",
          "type": "tuple"
        },
        {
          "internalType": "address",
          "name": "tokenIn",
          "type": "address"
        },
        {
          "internalType": "uint256",
          "name": "amountIn",
          "type": "uint256"
        },
        {
          "internalType": "address",
          "name": "uiFeeReceiver",
          "type": "address"
        }
      ],
      "name": "getSwapAmountOut",
      "outputs": [
        {
          "internalType": "uint256",
          "name": "",
          "type": "uint256"
        },
        {
          "internalType": "int256",
          "name": "",
          "type": "int256"
        },
        {
          "components": [
            {
              "internalType": "uint256",
              "name": "feeReceiverAmount",
              "type": "uint256"
            },
            {
              "internalType": "uint256",
              "name": "feeAmountForPool",
              "type": "uint256"
            },
            {
              "internalType": "uint256",
              "name": "amountAfterFees",
              "type": "uint256"
            },
            {
              "internalType": "address",
              "name": "uiFeeReceiver",
              "type": "address"
            },
            {
              "internalType": "uint256",
              "name": "uiFeeReceiverFactor",
              "type": "uint256"
            },
            {
              "internalType": "uint256",
              "name": "uiFeeAmount",
              "type": "uint256"
            }
          ],
          "internalType": "struct SwapPricingUtils.SwapFees",
          "name": "fees",
          "type": "tuple"
        }
      ],
      "stateMutability": "view",
      "type": "function"
    },
    {
      "inputs": [
        {
          "internalType": "contract DataStore",
          "name": "dataStore",
          "type": "address"
        },
        {
          "internalType": "address",
          "name": "marketKey",
          "type": "address"
        },
        {
          "internalType": "address",
          "name": "tokenIn",
          "type": "address"
        },
        {
          "internalType": "address",
          "name": "tokenOut",
          "type": "address"
        },
        {
          "internalType": "uint256",
          "name": "amountIn",
          "type": "uint256"
        },
        {
          "components": [
            {
              "internalType": "uint256",
              "name": "min",
              "type": "uint256"
            },
            {
              "internalType": "uint256",
              "name": "max",
              "type": "uint256"
            }
          ],
          "internalType": "struct Price.Props",
          "name": "tokenInPrice",
          "type": "tuple"
        },
        {
          "components": [
            {
              "internalType": "uint256",
              "name": "min",
              "type": "uint256"
            },
            {
              "internalType": "uint256",
              "name": "max",
              "type": "uint256"
            }
          ],
          "internalType": "struct Price.Props",
          "name": "tokenOutPrice",
          "type": "tuple"
        }
      ],
      "name": "getSwapPriceImpact",
      "outputs": [
        {
          "internalType": "int256",
          "name": "",
          "type": "int256"
        },
        {
          "internalType": "int256",
          "name": "",
          "type": "int256"
        }
      ],
      "stateMutability": "view",
      "type": "function"
    },
    {
      "inputs": [
        {
          "internalType": "contract DataStore",
          "name": "dataStore",
          "type": "address"
        },
        {
          "internalType": "bytes32",
          "name": "key",
          "type": "bytes32"
        }
      ],
      "name": "getWithdrawal",
      "outputs": [
        {
          "components": [
            {
              "components": [
                {
                  "internalType": "address",
                  "name": "account",
                  "type": "address"
                },
                {
                  "internalType": "address",
                  "name": "receiver",
                  "type": "address"
                },
                {
                  "internalType": "address",
                  "name": "callbackContract",
                  "type": "address"
                },
                {
                  "internalType": "address",
                  "name": "uiFeeReceiver",
                  "type": "address"
                },
                {
                  "internalType": "address",
                  "name": "market",
                  "type": "address"
                },
                {
                  "internalType": "address[]",
                  "name": "longTokenSwapPath",
                  "type": "address[]"
                },
                {
                  "internalType": "address[]",
                  "name": "shortTokenSwapPath",
                  "type": "address[]"
                }
              ],
              "internalType": "struct Withdrawal.Addresses",
              "name": "addresses",
              "type": "tuple"
            },
            {
              "components": [
                {
                  "internalType": "uint256",
                  "name": "marketTokenAmount",
                  "type": "uint256"
                },
                {
                  "internalType": "uint256",
                  "name": "minLongTokenAmount",
                  "type": "uint256"
                },
                {
                  "internalType": "uint256",
                  "name": "minShortTokenAmount",
                  "type": "uint256"
                },
                {
                  "internalType": "uint256",
                  "name": "updatedAtBlock",
                  "type": "uint256"
                },
                {
                  "internalType": "uint256",
                  "name": "executionFee",
                  "type": "uint256"
                },
                {
                  "internalType": "uint256",
                  "name": "callbackGasLimit",
                  "type": "uint256"
                }
              ],
              "internalType": "struct Withdrawal.Numbers",
              "name": "numbers",
              "type": "tuple"
            },
            {
              "components": [
                {
                  "internalType": "bool",
                  "name": "shouldUnwrapNativeToken",
                  "type": "bool"
                }
              ],
              "internalType": "struct Withdrawal.Flags",
              "name": "flags",
              "type": "tuple"
            }
          ],
          "internalType": "struct Withdrawal.Props",
          "name": "",
          "type": "tuple"
        }
      ],
      "stateMutability": "view",
      "type": "function"
    }
  ],
  "bytecode": "0x608060405234801561001057600080fd5b50615f9480620000216000396000f3fe608060405234801561001057600080fd5b506004361061011d5760003560e01c80630169a059146101225780630815bce11461014d578063095ce6c51461016d5780630fa8f516146102165780631485d2971461023657806324c029e0146102565780632b17b4fd14610277578063409f37c7146102aa57806342a6f8d31461031c57806349651b6a1461033c5780635d2b44f91461035c5780635d5c6efe1461037c578063714af34b146103a457806377cfb162146103c4578063847bb469146103e4578063971de27d14610404578063a014093814610417578063a4f0d5501461042a578063bc7b5bba1461043d578063ce3264bf1461045d578063ceeea3bf1461047d578063ece9e0c81461049d578063fd50649d146104bd575b600080fd5b610135610130366004613d48565b6104d0565b60405161014493929190613daf565b60405180910390f35b61016061015b366004613dd3565b6105e9565b604051610144919061410b565b61018061017b36600461411a565b610682565b60405161014492919060006101808201905083825282516020830152602083015160408301526040830151606083015260608301516080830152608083015160a083015260a083015160c083015260c083015160e083015260e083015161010081818501528085015191505061012081818501528085015191505061014081818501528085015161016085015250509392505050565b610229610224366004614197565b610776565b60405161014491906141c3565b610249610244366004614197565b610802565b6040516101449190614216565b61026961026436600461431a565b610888565b604051908152602001610144565b61028a61028536600461438b565b6108a3565b604080519485529215156020850152918301526060820152608001610144565b6102bd6102b83660046143e7565b61093e565b604080519384526020808501939093528151848201529181015160608085019190915291810151608080850191909152918101516001600160a01b031660a0808501919091529181015160c0840152015160e082015261010001610144565b61032f61032a366004614462565b610a18565b604051610144919061462f565b61034f61034a366004614197565b610b67565b6040516101449190614691565b61036f61036a3660046146a4565b610bed565b604051610144919061470f565b61038f61038a36600461471d565b610d06565b60408051928352602083019190915201610144565b6103b76103b23660046147a7565b610e1c565b6040516101449190614813565b6103d76103d2366004614462565b610e9e565b6040516101449190614821565b6103f76103f2366004614870565b610fdd565b6040516101449190614982565b610269610412366004614991565b611251565b61026961042536600461431a565b6112e8565b6103b7610438366004614197565b6112f7565b61045061044b366004614a8e565b611338565b6040516101449190614aed565b61047061046b366004614b30565b611425565b6040516101449190614b65565b61049061048b366004614197565b611572565b6040516101449190614ba7565b6104b06104ab366004614c70565b6115f8565b6040516101449190614d60565b6102696104cb366004614da3565b6116e1565b60008060008073__$3d31b232fb363902662fbc281b11ab3357$__63fdfc26f38b896040518363ffffffff1660e01b815260040161050f929190614dfe565b6101a060405180830381865af415801561052d573d6000803e3d6000fd5b505050506040513d601f19601f820116820180604052508101906105519190614f68565b6040516321ed73ef60e21b815290915073__$91a1a7f12f728c8759f4be979bae55555f$__906387b5cfbc90610595908d908d908d9087908d908d90600401614fb5565b606060405180830381865af41580156105b2573d6000803e3d6000fd5b505050506040513d601f19601f820116820180604052508101906105d6919061502a565b9350935093505096509650969350505050565b6105f16135e3565b6040516306bc109960e31b815273__$7d62b333171909e88f9935bee8a07b01ad$__906335e084c890610634908b908b908b908b908b908b908b90600401615058565b61066060405180830381865af4158015610652573d6000803e3d6000fd5b505050506040513d601f19601f82011682018060405250810190610676919061529a565b98975050505050505050565b60006106e160405180610160016040528060008152602001600081526020016000815260200160008152602001600081526020016000815260200160008152602001600081526020016000815260200160008152602001600081525090565b604051637d494dc360e01b815273__$e53db83827f4e07ebc418caf7145b8c2d5$__90637d494dc390610724908c908c908c908c908c908c908c906004016153e8565b61018060405180830381865af4158015610742573d6000803e3d6000fd5b505050506040513d601f19601f82011682018060405250810190610766919061544a565b9150915097509795505050505050565b61077e61362b565b60405163fdfc26f360e01b815273__$3d31b232fb363902662fbc281b11ab3357$__9063fdfc26f3906107b79086908690600401614dfe565b6101a060405180830381865af41580156107d5573d6000803e3d6000fd5b505050506040513d601f19601f820116820180604052508101906107f99190614f68565b90505b92915050565b61080a6136c1565b60405163fdfc26f360e01b815273__$b63e253a228f0e32f671cc49c7fc32477c$__9063fdfc26f3906108439086908690600401614dfe565b600060405180830381865af4158015610860573d6000803e3d6000fd5b505050506040513d6000823e601f3d908101601f191682016040526107f99190810190615562565b600061089786868686866116ef565b90505b95945050505050565b60008060008060006108b6898989611780565b905060006108c48a8a6117fa565b905060008060006109278d858c8e60405160200161090c9060208082526016908201527513505617d4139317d19050d513d497d193d497d0511360521b604082015260600190565b6040516020818303038152906040528051906020012061188b565b969f919e509c50949a509398505050505050505050565b6000806109836040518060c0016040528060008152602001600081526020016000815260200160006001600160a01b0316815260200160008152602001600081525090565b60405163dafa66bf60e01b815273__$ae023ddda47a46a9af6ec057a2ebe54454$__9063dafa66bf906109c4908c908c908c908c908c908c906004016156bc565b61010060405180830381865af41580156109e2573d6000803e3d6000fd5b505050506040513d601f19601f82011682018060405250810190610a06919061570e565b92509250925096509650969350505050565b60606000610a28868686866118df565b9050600081516001600160401b03811115610a4557610a45613ad1565b604051908082528060200260200182016040528015610a7e57816020015b610a6b613753565b815260200190600190039081610a635790505b50905060005b8251811015610b5a576000838281518110610aa157610aa1615796565b6020026020010151905073__$9dcb75ef0bb6c4288f2ccffe7dc492c4eb$__63fdfc26f38a836040518363ffffffff1660e01b8152600401610ae4929190614dfe565b600060405180830381865af4158015610b01573d6000803e3d6000fd5b505050506040513d6000823e601f3d908101601f19168201604052610b2991908101906158a7565b838381518110610b3b57610b3b615796565b6020026020010181905250508080610b52906159e1565b915050610a84565b509150505b949350505050565b610b6f613753565b60405163fdfc26f360e01b815273__$9dcb75ef0bb6c4288f2ccffe7dc492c4eb$__9063fdfc26f390610ba89086908690600401614dfe565b600060405180830381865af4158015610bc5573d6000803e3d6000fd5b505050506040513d6000823e601f3d908101601f191682016040526107f991908101906158a7565b610bf5613814565b60405163a8d8fff560e01b815260009073__$ff439aa65a80c9eec648f15db20b189505$__9063a8d8fff590610c31908c908c906004016159fa565b608060405180830381865af4158015610c4e573d6000803e3d6000fd5b505050506040513d601f19601f82011682018060405250810190610c729190615a14565b604051630a37d4c760e11b815290915073__$ae023ddda47a46a9af6ec057a2ebe54454$__9063146fa98e90610cb8908c9085908c908c908c908c908c90600401615a7b565b606060405180830381865af4158015610cd5573d6000803e3d6000fd5b505050506040513d601f19601f82011682018060405250810190610cf99190615acf565b9998505050505050505050565b600080600073__$ff439aa65a80c9eec648f15db20b189505$__63a8d8fff58b8b6040518363ffffffff1660e01b8152600401610d449291906159fa565b608060405180830381865af4158015610d61573d6000803e3d6000fd5b505050506040513d601f19601f82011682018060405250810190610d859190615a14565b6040516340f5d44f60e11b815290915073__$ae023ddda47a46a9af6ec057a2ebe54454$__906381eba89e90610dcb908d9085908d908d908d908d908d90600401615aeb565b6040805180830381865af4158015610de7573d6000803e3d6000fd5b505050506040513d601f19601f82011682018060405250810190610e0b9190615b3d565b925092505097509795505050505050565b610e24613835565b60405163a8d8fff560e01b815273__$ff439aa65a80c9eec648f15db20b189505$__9063a8d8fff590610e5d90869086906004016159fa565b608060405180830381865af4158015610e7a573d6000803e3d6000fd5b505050506040513d601f19601f820116820180604052508101906107f99190615a14565b60606000610eae8686868661195e565b9050600081516001600160401b03811115610ecb57610ecb613ad1565b604051908082528060200260200182016040528015610f0457816020015b610ef161362b565b815260200190600190039081610ee95790505b50905060005b8251811015610b5a576000838281518110610f2757610f27615796565b6020026020010151905073__$3d31b232fb363902662fbc281b11ab3357$__63fdfc26f38a836040518363ffffffff1660e01b8152600401610f6a929190614dfe565b6101a060405180830381865af4158015610f88573d6000803e3d6000fd5b505050506040513d601f19601f82011682018060405250810190610fac9190614f68565b838381518110610fbe57610fbe615796565b6020026020010181905250508080610fd5906159e1565b915050610f0a565b610fe561385c565b60405163a8d8fff560e01b815260009073__$ff439aa65a80c9eec648f15db20b189505$__9063a8d8fff59061102190889087906004016159fa565b608060405180830381865af415801561103e573d6000803e3d6000fd5b505050506040513d601f19601f820116820180604052508101906110629190615a14565b905060006110738683876001611978565b905060006110848784886000611978565b9050600073__$7d62b333171909e88f9935bee8a07b01ad$__6310366e3589866040518363ffffffff1660e01b81526004016110c1929190615b61565b61010060405180830381865af41580156110df573d6000803e3d6000fd5b505050506040513d601f19601f820116820180604052508101906111039190615bbe565b9050600073__$7d62b333171909e88f9935bee8a07b01ad$__630dc7f3eb8a878b6040518463ffffffff1660e01b815260040161114293929190615bfe565b61014060405180830381865af4158015611160573d6000803e3d6000fd5b505050506040513d601f19601f820116820180604052508101906111849190615c29565b905060006111928a87611b65565b905060008a6001600160a01b0316637ae1cfca6111b28960000151611bb9565b6040518263ffffffff1660e01b81526004016111d091815260200190565b602060405180830381865afa1580156111ed573d6000803e3d6000fd5b505050506040513d601f19601f820116820180604052508101906112119190615c7a565b6040805160e0810182529889526020890197909752958701949094526060860192909252608085015260a084015250151560c082015290505b9392505050565b60008073__$ff439aa65a80c9eec648f15db20b189505$__63a8d8fff588886040518363ffffffff1660e01b815260040161128d9291906159fa565b608060405180830381865af41580156112aa573d6000803e3d6000fd5b505050506040513d601f19601f820116820180604052508101906112ce9190615a14565b90506112dd8782878787611c3c565b979650505050505050565b60006108978686868686611c80565b6112ff613835565b6040516329bc01e160e11b815273__$ff439aa65a80c9eec648f15db20b189505$__9063537803c290610e5d9086908690600401614dfe565b60606000611347868585611cab565b9050600081516001600160401b0381111561136457611364613ad1565b60405190808252806020026020018201604052801561139d57816020015b61138a61385c565b8152602001906001900390816113825790505b50905060005b8251811015610b5a5760008782815181106113c0576113c0615796565b6020026020010151905060008483815181106113de576113de615796565b602002602001015190506113f38a8383610fdd565b84848151811061140557611405615796565b60200260200101819052505050808061141d906159e1565b9150506113a3565b60606000611434858585611cab565b9050600081516001600160401b0381111561145157611451613ad1565b60405190808252806020026020018201604052801561148a57816020015b611477613835565b81526020019060019003908161146f5790505b50905060005b82518110156115685760008382815181106114ad576114ad615796565b60200260200101519050600073__$ff439aa65a80c9eec648f15db20b189505$__63a8d8fff58a846040518363ffffffff1660e01b81526004016114f29291906159fa565b608060405180830381865af415801561150f573d6000803e3d6000fd5b505050506040513d601f19601f820116820180604052508101906115339190615a14565b90508084848151811061154857611548615796565b602002602001018190525050508080611560906159e1565b915050611490565b5095945050505050565b61157a6138b1565b60405163fdfc26f360e01b815273__$3dc24d71d6ebafc0c4ce8ac2f69cd1548a$__9063fdfc26f3906115b39086908690600401614dfe565b600060405180830381865af41580156115d0573d6000803e3d6000fd5b505050506040513d6000823e601f3d908101601f191682016040526107f99190810190615c97565b6060600084516001600160401b0381111561161557611615613ad1565b60405190808252806020026020018201604052801561164e57816020015b61163b6135e3565b8152602001906001900390816116335790505b50905060005b85518110156116d657600086828151811061167157611671615796565b602002602001015190506116a589898389868151811061169357611693615796565b602002602001015160008a60016105e9565b8383815181106116b7576116b7615796565b60200260200101819052505080806116ce906159e1565b915050611654565b509695505050505050565b600061089a85858585611d66565b600080611705611700888887611d95565b611de8565b90506000611714888887611e5b565b9050811580611721575080155b156117315760009250505061089a565b600061173e878787611ea2565b9050600061174f6117008385615dbf565b9050600087611767576117628286615dd6565b611771565b6117718583615dd6565b9b9a5050505050505050505050565b6000836001600160a01b031663bd02d0f561179b8585611edb565b6040518263ffffffff1660e01b81526004016117b991815260200190565b602060405180830381865afa1580156117d6573d6000803e3d6000fd5b505050506040513d601f19601f82011682018060405250810190610b5f9190615dfd565b611802613835565b60405163a8d8fff560e01b815260009073__$ff439aa65a80c9eec648f15db20b189505$__9063a8d8fff59061183e90879087906004016159fa565b608060405180830381865af415801561185b573d6000803e3d6000fd5b505050506040513d601f19601f8201168201806040525081019061187f9190615a14565b90506107f98482611f65565b60008060008061189f898989896001611c3c565b905060006118b38a878b600001518a61203e565b9050600080831380156118cd5750816118cb846120b9565b115b9b929a50909850909650505050505050565b6060846001600160a01b031663f069052a6118f98661210b565b85856040518463ffffffff1660e01b815260040161191993929190613daf565b600060405180830381865afa158015611936573d6000803e3d6000fd5b505050506040513d6000823e601f3d908101601f1916820160405261089a9190810190615e16565b6060846001600160a01b031663f069052a6118f986612143565b6000806119878686868661217e565b90508060000361199b576000915050610b5f565b6000866001600160a01b0316637ae1cfca6040516020016119f99060208082526023908201527f534b49505f424f52524f57494e475f4645455f464f525f534d414c4c45525f5360408201526249444560e81b606082015260800190565b604051602081830303815290604052805190602001206040518263ffffffff1660e01b8152600401611a2d91815260200190565b602060405180830381865afa158015611a4a573d6000803e3d6000fd5b505050506040513d601f19601f82011682018060405250810190611a6e9190615c7a565b90508015611ad6576000611a8488886001611d95565b90506000611a9489896000611d95565b9050858015611aa257508082105b15611ab4576000945050505050610b5f565b85158015611ac157508181105b15611ad3576000945050505050610b5f565b50505b6000611ae68888888860006121ba565b905080600003611b0957604051630d5f5aef60e31b815260040160405180910390fd5b6000611b1a89896000015188612233565b90506000611b28858361224e565b90506000611b3682856122ad565b90506000611b498c8c600001518b6122bb565b9050611b5582826122d6565b9c9b505050505050505050505050565b611b6d613814565b600080611b7e8585600001516122ef565b92509250506000611b93868660200151612487565b604080516060810182529586526020860194909452928401929092525090949350505050565b6000604051602001611bf1906020808252601290820152711254d7d3505492d15517d11254d05093115160721b604082015260600190565b60408051601f198184030181528282528051602091820120908301526001600160a01b038416908201526060015b604051602081830303815290604052805190602001209050919050565b600080611c4d8787878787156121ba565b905080600003611c6157600091505061089a565b6000611c748888886000015188886116ef565b9050610676818361259d565b600080611c8e878786611d95565b90506000611c9f88888888886116ef565b905061067682826125dc565b6060836001600160a01b031663e7e4148e604051602001611ceb906020808252600b908201526a13505492d15517d31254d560aa1b604082015260600190565b6040516020818303038152906040528051906020012085856040518463ffffffff1660e01b8152600401611d2193929190613daf565b600060405180830381865afa158015611d3e573d6000803e3d6000fd5b505050506040513d6000823e601f3d908101601f19168201604052610b5f9190810190615e9b565b600080611d778686866001876116ef565b90506000611d898787876000886116ef565b90506112dd8183615ecf565b600080611daa846040015185606001516125f2565b90506000611dc386866000015187604001518786612621565b90506000611ddc87876000015188606001518887612621565b90506112dd8183615ef7565b60006001600160ff1b03821115611e575760405162461bcd60e51b815260206004820152602860248201527f53616665436173743a2076616c756520646f65736e27742066697420696e2061604482015267371034b73a191a9b60c11b60648201526084015b60405180910390fd5b5090565b600080611e70846040015185606001516125f2565b90506000611e89868660000151876040015187866126a7565b90506000611ddc878760000151886060015188876126a7565b60008215611ec35781611eb6578351611ebc565b83602001515b905061124a565b81611ed2578360200151610b5f565b50509051919050565b6000604051602001611f119060208082526010908201526f4c41544553545f41444c5f424c4f434b60801b604082015260600190565b60408051601f198184030181528282528051602091820120908301526001600160a01b0385169082015282151560608201526080015b60405160208183030381529060405280519060200120905092915050565b80516001600160a01b0316611f8d576040516302fde0d760e11b815260040160405180910390fd5b6000826001600160a01b0316637ae1cfca611fab8460000151611bb9565b6040518263ffffffff1660e01b8152600401611fc991815260200190565b602060405180830381865afa158015611fe6573d6000803e3d6000fd5b505050506040513d601f19601f8201168201806040525081019061200a9190615c7a565b905080156120395781516040516309f8c93760e01b81526001600160a01b039091166004820152602401611e4e565b505050565b6000846001600160a01b031663bd02d0f561205a8686866126c4565b6040518263ffffffff1660e01b815260040161207891815260200190565b602060405180830381865afa158015612095573d6000803e3d6000fd5b505050506040513d601f19601f8201168201806040525081019061089a9190615dfd565b600080821215611e575760405162461bcd60e51b815260206004820181905260248201527f53616665436173743a2076616c7565206d75737420626520706f7369746976656044820152606401611e4e565b6000604051602001611bf1906020808252601290820152711050d0d3d5539517d3d491115497d31254d560721b604082015260600190565b6000604051602001611bf1906020808252601590820152741050d0d3d5539517d413d4d2551253d397d31254d5605a1b604082015260600190565b60008082156121af576000612194878786611e5b565b8551602001519091506121a79082615dbf565b91505061089a565b610897868685611d95565b600080836121cc5785606001516121d2565b85604001515b905060006121e1888884612753565b90506000841561220f57856121fe57866040015160200151612208565b8660200151602001515b9050612229565b8561221f57604087015151612226565b6020870151515b90505b610cf98183615dbf565b6000836001600160a01b031663bd02d0f561179b85856127f1565b600068327cb2734119d3b7a9601e1b83101561226c575060006107fc565b68327cb2734119d3b7a9601e1b82036122865750816107fc565b60006122a261229485612830565b61229d85612830565b612841565b9050610b5f81612883565b60006107f983836000612894565b6000836001600160a01b031663bd02d0f561179b85856128dc565b60006107f9838368327cb2734119d3b7a9601e1b612912565b600080600080856001600160a01b031663a6ed563e61230d8761291f565b6040518263ffffffff1660e01b815260040161232b91815260200190565b602060405180830381865afa158015612348573d6000803e3d6000fd5b505050506040513d601f19601f8201168201806040525081019061236c9190615dfd565b90508061238457600080600093509350935050612480565b6001866001600160a01b031663bd02d0f56123a0846001612956565b6040518263ffffffff1660e01b81526004016123be91815260200190565b602060405180830381865afa1580156123db573d6000803e3d6000fd5b505050506040513d601f19601f820116820180604052508101906123ff9190615dfd565b876001600160a01b031663bd02d0f5612419856000612956565b6040518263ffffffff1660e01b815260040161243791815260200190565b602060405180830381865afa158015612454573d6000803e3d6000fd5b505050506040513d601f19601f820116820180604052508101906124789190615dfd565b935093509350505b9250925092565b6000806000846001600160a01b031663a6ed563e6124a4866129c8565b6040518263ffffffff1660e01b81526004016124c291815260200190565b602060405180830381865afa1580156124df573d6000803e3d6000fd5b505050506040513d601f19601f820116820180604052508101906125039190615dfd565b905080612517576000809250925050612596565b6001856001600160a01b031663dc97d962612531846129fe565b6040518263ffffffff1660e01b815260040161254f91815260200190565b602060405180830381865afa15801561256c573d6000803e3d6000fd5b505050506040513d601f19601f820116820180604052508101906125909190615dfd565b92509250505b9250929050565b6000806125b26125ac85612a6a565b846122ad565b9050600084136125d3576125c581611de8565b6125ce90615f0a565b610b5f565b610b5f81611de8565b6000816125e884611de8565b6107f99190615ecf565b6000816001600160a01b0316836001600160a01b031614612614576001612617565b60025b60ff169392505050565b600081866001600160a01b031663bd02d0f561263e888888612a7d565b6040518263ffffffff1660e01b815260040161265c91815260200190565b602060405180830381865afa158015612679573d6000803e3d6000fd5b505050506040513d601f19601f8201168201806040525081019061269d9190615dfd565b6108979190615f3c565b600081866001600160a01b031663bd02d0f561263e888888612af5565b60006040516020016126f8906020808252600e908201526d26a0ac2fa827262fa320a1aa27a960911b604082015260600190565b60408051601f1981840301815282825280516020918201209083015281018590526001600160a01b0384166060820152821515608082015260a0015b6040516020818303038152906040528051906020012090509392505050565b600080612768846040015185606001516125f2565b905080856001600160a01b031663bd02d0f5612788876000015187612b32565b6040518263ffffffff1660e01b81526004016127a691815260200190565b602060405180830381865afa1580156127c3573d6000803e3d6000fd5b505050506040513d601f19601f820116820180604052508101906127e79190615dfd565b61089a9190615f3c565b6000604051602001611f11906020808252601990820152782127a92927aba4a723afa2ac2827a722a72a2fa320a1aa27a960391b604082015260600190565b60006107fc64e8d4a5100083615f3c565b600082600003612869578115612858576000612862565b670de0b6b3a76400005b90506107fc565b6107f961287e61287885612ba0565b84612c56565b612c62565b60006107fc64e8d4a5100083615dbf565b6000836000036128a65750600061124a565b81156128c557611ebc8468327cb2734119d3b7a9601e1b856001612ca8565b610b5f8468327cb2734119d3b7a9601e1b85612cf9565b6000604051602001611f119060208082526010908201526f2127a92927aba4a723afa320a1aa27a960811b604082015260600190565b6000610b5f848484612cf9565b6000604051602001611bf1906020808252601190820152701592549515505317d3505492d15517d251607a1b604082015260600190565b6000604051602001612997906020808252601b908201527a5649525455414c5f494e56454e544f52595f464f525f535741505360281b604082015260600190565b60408051601f1981840301815282825280516020918201209083015281018490528215156060820152608001611f47565b6000604051602001611bf19060208082526010908201526f1592549515505317d513d2d15397d25160821b604082015260600190565b6000604051602001612a41906020808252601f908201527f5649525455414c5f494e56454e544f52595f464f525f504f534954494f4e5300604082015260600190565b60408051601f198184030181528282528051602091820120908301528101839052606001611c1f565b600080821215611e5757816000036107fc565b6000604051602001612ab0906020808252600d908201526c13d4115397d2539511549154d5609a1b604082015260600190565b60408051601f198184030181528282528051602091820120908301526001600160a01b038087169183019190915284166060820152821515608082015260a001612734565b6000604051602001612ab0906020808252601790820152764f50454e5f494e5445524553545f494e5f544f4b454e5360481b604082015260600190565b6000604051602001612b63906020808252600b908201526a1413d3d317d05353d5539560aa1b604082015260600190565b60408051601f198184030181528282528051602091820120908301526001600160a01b038086169183019190915283166060820152608001611f47565b6000670de0b6b3a7640000821015612bce57604051633621413760e21b815260048101839052602401611e4e565b6000612be3670de0b6b3a76400008404612da8565b670de0b6b3a764000081029250905082811c670de0b6b3a763ffff198101612c0c575050919050565b6706f05b59d3b200005b8015612c4e57670de0b6b3a7640000828002049150671bc16d674ec800008210612c46579283019260019190911c905b60011c612c16565b505050919050565b60006107f98383612e8b565b6000680a688906bd8b0000008210612c9057604051634a4f26f160e01b815260048101839052602401611e4e565b670de0b6b3a7640000604083901b0461124a81612f51565b600080612cb6868686612cf9565b90506001836002811115612ccc57612ccc6144a8565b148015612ce9575060008480612ce457612ce4615f26565b868809115b1561089a57610897600182615ef7565b6000808060001985870985870292508281108382030391505080600003612d3357838281612d2957612d29615f26565b049250505061124a565b808411612d3f57600080fd5b60008486880960026001871981018816978890046003810283188082028403028082028403028082028403028082028403028082028403029081029092039091026000889003889004909101858311909403939093029303949094049190911702949350505050565b6000600160801b8210612dc857608091821c91612dc59082615ef7565b90505b600160401b8210612de657604091821c91612de39082615ef7565b90505b600160201b8210612e0457602091821c91612e019082615ef7565b90505b620100008210612e2157601091821c91612e1e9082615ef7565b90505b6101008210612e3d57600891821c91612e3a9082615ef7565b90505b60108210612e5857600491821c91612e559082615ef7565b90505b60048210612e7357600291821c91612e709082615ef7565b90505b60028210612e86576107fc600182615ef7565b919050565b60008080600019848609848602925082811083820303915050670de0b6b3a76400008110612ecf5760405163698d9a0160e11b815260048101829052602401611e4e565b600080670de0b6b3a764000086880991506706f05b59d3b1ffff8211905082600003612f0d5780670de0b6b3a76400008504019450505050506107fc565b620400008285030493909111909103600160ee1b02919091177faccb18165bd6fe31ae1cf318dc5b51eee0e1ba569b88cd74c1773b91fac106690201905092915050565b600160bf1b6001603f1b821615612f715768016a09e667f3bcc9090260401c5b6001603e1b821615612f8c576801306fe0a31b7152df0260401c5b6001603d1b821615612fa7576801172b83c7d517adce0260401c5b6001603c1b821615612fc25768010b5586cf9890f62a0260401c5b6001603b1b821615612fdd576801059b0d31585743ae0260401c5b6001603a1b821615612ff857680102c9a3e778060ee70260401c5b600160391b8216156130135768010163da9fb33356d80260401c5b600160381b82161561302e57680100b1afa5abcbed610260401c5b600160371b8216156130495768010058c86da1c09ea20260401c5b600160361b821615613064576801002c605e2e8cec500260401c5b600160351b82161561307f57680100162f3904051fa10260401c5b600160341b82161561309a576801000b175effdc76ba0260401c5b600160331b8216156130b557680100058ba01fb9f96d0260401c5b600160321b8216156130d05768010002c5cc37da94920260401c5b600160311b8216156130eb576801000162e525ee05470260401c5b600160301b8216156131065768010000b17255775c040260401c5b6001602f1b821615613121576801000058b91b5bc9ae0260401c5b6001602e1b82161561313c57680100002c5c89d5ec6d0260401c5b6001602d1b8216156131575768010000162e43f4f8310260401c5b6001602c1b82161561317257680100000b1721bcfc9a0260401c5b6001602b1b82161561318d5768010000058b90cf1e6e0260401c5b6001602a1b8216156131a8576801000002c5c863b73f0260401c5b600160291b8216156131c357680100000162e430e5a20260401c5b600160281b8216156131de576801000000b1721835510260401c5b600160271b8216156131f957680100000058b90c0b490260401c5b600160261b8216156132145768010000002c5c8601cc0260401c5b600160251b82161561322f576801000000162e42fff00260401c5b600160241b82161561324a5768010000000b17217fbb0260401c5b600160231b821615613265576801000000058b90bfce0260401c5b600160221b82161561328057680100000002c5c85fe30260401c5b600160211b82161561329b5768010000000162e42ff10260401c5b600160201b8216156132b657680100000000b17217f80260401c5b63800000008216156132d15768010000000058b90bfc0260401c5b63400000008216156132ec576801000000002c5c85fe0260401c5b632000000082161561330757680100000000162e42ff0260401c5b6310000000821615613322576801000000000b17217f0260401c5b630800000082161561333d57680100000000058b90c00260401c5b63040000008216156133585768010000000002c5c8600260401c5b6302000000821615613373576801000000000162e4300260401c5b630100000082161561338e5768010000000000b172180260401c5b628000008216156133a8576801000000000058b90c0260401c5b624000008216156133c257680100000000002c5c860260401c5b622000008216156133dc5768010000000000162e430260401c5b621000008216156133f657680100000000000b17210260401c5b620800008216156134105768010000000000058b910260401c5b6204000082161561342a576801000000000002c5c80260401c5b6202000082161561344457680100000000000162e40260401c5b6201000082161561345d5761b172600160401b010260401c5b618000821615613475576158b9600160401b010260401c5b61400082161561348d57612c5d600160401b010260401c5b6120008216156134a55761162e600160401b010260401c5b6110008216156134bd57610b17600160401b010260401c5b6108008216156134d55761058c600160401b010260401c5b6104008216156134ed576102c6600160401b010260401c5b61020082161561350557610163600160401b010260401c5b61010082161561351c5760b1600160401b010260401c5b6080821615613532576059600160401b010260401c5b604082161561354857602c600160401b010260401c5b602082161561355e576016600160401b010260401c5b601082161561357457600b600160401b010260401c5b600882161561358a576006600160401b010260401c5b60048216156135a0576003600160401b010260401c5b60028216156135b6576001600160401b010260401c5b60018216156135cc576001600160401b010260401c5b670de0b6b3a76400000260409190911c60bf031c90565b6040518060c001604052806135f661362b565b81526020016136036138f9565b8152602001613610613814565b81526020016000815260200160008152602001600081525090565b6040805160c081019091526000606082018181526080830182905260a0830191909152819081526020016136a46040518061012001604052806000815260200160008152602001600081526020016000815260200160008152602001600081526020016000815260200160008152602001600081525090565b81526040805160208181019092526000815291015290565b905290565b604080516101808101909152600060608083018281526080840183905260a0840183905260c0840183905260e084018390526101008401839052610120840192909252610140830181905261016083015281905b81526020016136a46040518060c001604052806000815260200160008152602001600081526020016000815260200160008152602001600081525090565b604080516101408101909152600060608083018281526080840183905260a0840183905260c0840183905260e084018390526101008401929092526101208301528152602081016137f160408051610140810190915280600081526020016000815260200160008152602001600081526020016000815260200160008152602001600081526020016000815260200160008152602001600081525090565b815260408051606081018252600080825260208281018290529282015291015290565b60405180606001604052806000815260200160008152602001600081525090565b60408051608081018252600080825260208201819052918101829052606081019190915290565b6040518060e0016040528061386f613835565b8152602001600081526020016000815260200161388a613a3f565b8152602001613897613a5f565b81526020016138a4613814565b8152600060209091015290565b604080516101408101909152600060608083018281526080840183905260a0840183905260c0840183905260e084019290925261010083018190526101208301528190613715565b604080516102c0810190915260006101c082018181526101e08301829052610200830182905261022083018290526102408301829052610260830182905261028083018290526102a0830191909152819081526020016139886040518060c001604052806000815260200160008152602001600081526020016000815260200160008152602001600081525090565b81526020016139b86040518060800160405280600081526020016000815260200160008152602001600081525090565b815260408051606081018252600080825260208281018290529282015291019081526020016139fa604051806040016040528060008152602001600081525090565b81526020016000815260200160008152602001600081526020016000815260200160008152602001600081526020016000815260200160008152602001600081525090565b6040518060400160405280613a52613a7a565b81526020016136bc613a7a565b6040805160808101825260008082526020820152908101613a525b604080516080810182526000918101828152606082019290925290819081526020016136bc604051806040016040528060008152602001600081525090565b6001600160a01b0381168114613ace57600080fd5b50565b634e487b7160e01b600052604160045260246000fd5b604051608081016001600160401b0381118282101715613b0957613b09613ad1565b60405290565b604080519081016001600160401b0381118282101715613b0957613b09613ad1565b604051606081016001600160401b0381118282101715613b0957613b09613ad1565b60405161012081016001600160401b0381118282101715613b0957613b09613ad1565b60405160c081016001600160401b0381118282101715613b0957613b09613ad1565b6040516101c081016001600160401b0381118282101715613b0957613b09613ad1565b60405161016081016001600160401b0381118282101715613b0957613b09613ad1565b60405161014081016001600160401b0381118282101715613b0957613b09613ad1565b60405160e081016001600160401b0381118282101715613b0957613b09613ad1565b604051601f8201601f191681016001600160401b0381118282101715613c4b57613c4b613ad1565b604052919050565b8035612e8681613ab9565b600060808284031215613c7057600080fd5b613c78613ae7565b90508135613c8581613ab9565b81526020820135613c9581613ab9565b60208201526040820135613ca881613ab9565b60408201526060820135613cbb81613ab9565b606082015292915050565b600060408284031215613cd857600080fd5b613ce0613b0f565b9050813581526020820135602082015292915050565b600060c08284031215613d0857600080fd5b613d10613b31565b9050613d1c8383613cc6565b8152613d2b8360408401613cc6565b6020820152613d3d8360808401613cc6565b604082015292915050565b6000806000806000806101c08789031215613d6257600080fd5b8635613d6d81613ab9565b9550613d7c8860208901613c5e565b9450613d8b8860a08901613cf6565b9350610160870135925061018087013591506101a087013590509295509295509295565b9283526020830191909152604082015260600190565b8015158114613ace57600080fd5b6000806000806000806000610180888a031215613def57600080fd5b8735613dfa81613ab9565b96506020880135613e0a81613ab9565b955060408801359450613e208960608a01613cf6565b93506101208801359250610140880135613e3981613ab9565b9150610160880135613e4a81613dc5565b8091505092959891949750929550565b6001600160a01b03169052565b80516001600160a01b03908116835260208083015182169084015260409182015116910152565b805182526020810151602083015260408101516040830152606081015160608301526080810151608083015260a081015160a083015260c081015160c083015260e081015160e08301526101008082015181840152505050565b613ef3828251613e67565b6020810151613f056060840182613e8e565b50604001515115156101809190910152565b805182526020810151602083015260408101516040830152606081015160608301526080810151608083015260a081015160a08301525050565b80518252602090810151910152565b8051825260208082015190830152604090810151910152565b613f84828251613ee8565b602081810151805180516101a086810191909152928101516001600160a01b039081166101c08701526040820151166101e08601526060810151610200860152608081015161022086015260a081015161024086015260c081015161026086015260e001516102808501529060208201516140036102a0860182613f17565b506040828101518051610360870152602080820151610380880152818301516103a08801526060918201516103c08801529084015180516001600160a01b03166103e0880152908101516104008701520151610420850152608082015161406e610440860182613f51565b5060a082015161048085015260c08201516104a085015260e08201516104c08501526101008201516104e0850152610120820151610500850152610140820151610520850152610160820151610540850152610180820151610560850152015161058083015260408101516140e76105a0840182613f60565b506060810151610600830152608081015161062083015260a0015161064090910152565b61066081016107fc8284613f79565b60008060008060008060006101a0888a03121561413657600080fd5b873561414181613ab9565b96506141508960208a01613c5e565b955061415f8960a08a01613cc6565b945061416e8960e08a01613cc6565b935061417e896101208a01613cc6565b92506101608801359150610180880135613e4a81613dc5565b600080604083850312156141aa57600080fd5b82356141b581613ab9565b946020939093013593505050565b6101a081016107fc8284613ee8565b600081518084526020808501945080840160005b8381101561420b5781516001600160a01b0316875295820195908201906001016141e6565b509495945050505050565b60208152600061012083516101008060208601526142378386018351613e5a565b602082015161424a610140870182613e5a565b50604082015161425e610160870182613e5a565b506060820151614272610180870182613e5a565b5060808201516142866101a0870182613e5a565b5060a082015161429a6101c0870182613e5a565b5060c08201516142ae6101e0870182613e5a565b5060e0820151836102008701526142c96102408701826141d2565b9282015186840361011f19016102208801529293506142ea905083836141d2565b9250602086015191506143006040860183613f17565b6040860151805115158683015291505b5090949350505050565b6000806000806000610120868803121561433357600080fd5b853561433e81613ab9565b945061434d8760208801613c5e565b935061435c8760a08801613cc6565b925060e086013561436c81613dc5565b915061010086013561437d81613dc5565b809150509295509295909350565b60008060008061012085870312156143a257600080fd5b84356143ad81613ab9565b935060208501356143bd81613ab9565b925060408501356143cd81613dc5565b91506143dc8660608701613cf6565b905092959194509250565b6000806000806000806101c0878903121561440157600080fd5b863561440c81613ab9565b955061441b8860208901613c5e565b945061442a8860a08901613cf6565b935061016087013561443b81613ab9565b925061018087013591506101a087013561445481613ab9565b809150509295509295509295565b6000806000806080858703121561447857600080fd5b843561448381613ab9565b9350602085013561449381613ab9565b93969395505050506040820135916060013590565b634e487b7160e01b600052602160045260246000fd5b600881106144ce576144ce6144a8565b9052565b600381106144ce576144ce6144a8565b6144ed8282516144be565b60208101516144ff60208401826144d2565b5060408101516040830152606081015160608301526080810151608083015260a081015160a083015260c081015160c083015260e081015160e08301526101008082015181840152506101208082015181840152505050565b80516101c080845281516001600160a01b0390811691850191909152602082015181166101e085015260408201511661020084015260608101516000916145a3610220860183613e5a565b608081015191506145b8610240860183613e5a565b60a081015191506145cd610260860183613e5a565b60c0015160e061028086015290506145e96102a08501826141d2565b905060208301516145fd60208601826144e2565b5060408381015180511515610160870152602081015115156101808701529081015115156101a0860152509392505050565b6000602080830181845280855180835260408601915060408160051b870101925083870160005b8281101561468457603f19888603018452614672858351614558565b94509285019290850190600101614656565b5092979650505050505050565b6020815260006107f96020830184614558565b6000806000806000806000610100888a0312156146c057600080fd5b87356146cb81613ab9565b965060208801356146db81613ab9565b95506146ea8960408a01613cc6565b94506080880135935060a0880135925060c0880135915060e0880135613e4a81613dc5565b606081016107fc8284613f60565b6000806000806000806000610120888a03121561473957600080fd5b873561474481613ab9565b9650602088013561475481613ab9565b9550604088013561476481613ab9565b9450606088013561477481613ab9565b93506080880135925061478a8960a08a01613cc6565b91506147998960e08a01613cc6565b905092959891949750929550565b600080604083850312156147ba57600080fd5b82356147c581613ab9565b915060208301356147d581613ab9565b809150509250929050565b80516001600160a01b03908116835260208083015182169084015260408083015182169084015260609182015116910152565b608081016107fc82846147e0565b6020808252825182820181905260009190848201906040850190845b8181101561486457614850838551613ee8565b928401926101a0929092019160010161483d565b50909695505050505050565b6000806000610100848603121561488657600080fd5b833561489181613ab9565b92506148a08560208601613cf6565b915060e08401356148b081613ab9565b809150509250925092565b6148c6828251613f51565b60208101516120396040840182613f51565b6148e38282516147e0565b60208101516080830152604081015160a0830152606081015161490a60c0840182516148bb565b6020015161491c6101408401826148bb565b506080810151805115156101c084015260208101516101e0840152604081015161494a6102008501826148bb565b506060015161495d6102808401826148bb565b5060a0810151614971610300840182613f60565b5060c0015115156103609190910152565b61038081016107fc82846148d8565b600080600080600061014086880312156149aa57600080fd5b85356149b581613ab9565b945060208601356149c581613ab9565b93506149d48760408801613cf6565b92506101008601356149e581613dc5565b915061012086013561437d81613dc5565b60006001600160401b03821115614a0f57614a0f613ad1565b5060051b60200190565b600082601f830112614a2a57600080fd5b81356020614a3f614a3a836149f6565b613c23565b82815260c09283028501820192828201919087851115614a5e57600080fd5b8387015b85811015614a8157614a748982613cf6565b8452928401928101614a62565b5090979650505050505050565b60008060008060808587031215614aa457600080fd5b8435614aaf81613ab9565b935060208501356001600160401b03811115614aca57600080fd5b614ad687828801614a19565b949794965050505060408301359260600135919050565b6020808252825182820181905260009190848201906040850190845b8181101561486457614b1c8385516148d8565b928401926103809290920191600101614b09565b600080600060608486031215614b4557600080fd5b8335614b5081613ab9565b95602085013595506040909401359392505050565b6020808252825182820181905260009190848201906040850190845b8181101561486457614b948385516147e0565b9284019260809290920191600101614b81565b602081526000825161010080602085015260018060a01b03808351166101208601528060208401511661014086015280604084015116610160860152506060820151614bf7610180860182613e5a565b506080820151614c0b6101a0860182613e5a565b5060a082015160e06101c0860152614c276102008601826141d2565b905060c0830151925061011f19858203016101e0860152614c4881846141d2565b9250506020850151614c5d6040860182613f17565b5060408501518051151585830152614310565b600080600080600060a08688031215614c8857600080fd5b8535614c9381613ab9565b9450602086810135614ca481613ab9565b945060408701356001600160401b0380821115614cc057600080fd5b818901915089601f830112614cd457600080fd5b8135614ce2614a3a826149f6565b81815260059190911b8301840190848101908c831115614d0157600080fd5b938501935b82851015614d1f57843582529385019390850190614d06565b975050506060890135925080831115614d3757600080fd5b5050614d4588828901614a19565b925050614d5460808701613c53565b90509295509295909350565b6020808252825182820181905260009190848201906040850190845b8181101561486457614d8f838551613f79565b928401926106609290920191600101614d7c565b6000806000806101008587031215614dba57600080fd5b8435614dc581613ab9565b9350614dd48660208701613c5e565b9250614de38660a08701613cc6565b915060e0850135614df381613dc5565b939692955090935050565b6001600160a01b03929092168252602082015260400190565b8051612e8681613ab9565b600060208284031215614e3457600080fd5b604051602081016001600160401b0381118282101715614e5657614e56613ad1565b80604052508091508251614e6981613dc5565b905292915050565b60008183036101a0811215614e8557600080fd5b614e8d613b31565b91506060811215614e9d57600080fd5b614ea5613b31565b8351614eb081613ab9565b81526020840151614ec081613ab9565b60208201526040840151614ed381613ab9565b60408201528252610120605f198201811315614eee57600080fd5b614ef6613b53565b9150606084015182526080840151602083015260a0840151604083015260c0840151606083015260e084015160808301526101008085015160a08401528185015160c084015261014085015160e084015261016085015181840152505080602083015250613d3d836101808401614e22565b60006101a08284031215614f7b57600080fd5b6107f98383614e71565b614f90828251613f51565b6020810151614fa26040840182613f51565b5060408101516120396080840182613f51565b6001600160a01b03871681526103408101614fd360208301886147e0565b614fe060a0830187614f85565b614fef61016083018651613e67565b60208501516150026101c0840182613e8e565b5060408501515115156102e08301528361030083015282610320830152979650505050505050565b60008060006060848603121561503f57600080fd5b8351925060208401519150604084015190509250925092565b6001600160a01b0388811682528781166020830152604082018790526101808201906150876060840188614f85565b856101208401528085166101408401525082151561016083015298975050505050505050565b60006101008083850312156150c157600080fd5b604051908101906001600160401b03821181831017156150e3576150e3613ad1565b8160405280925083518152602084015191506150fe82613ab9565b81602082015261511060408501614e17565b6040820152606084015160608201526080840151608082015260a084015160a082015260c084015160c082015260e084015160e0820152505092915050565b600060c0828403121561516157600080fd5b615169613b76565b9050815181526020820151602082015260408201516040820152606082015160608201526080820151608082015260a082015160a082015292915050565b6000608082840312156151b957600080fd5b6151c1613ae7565b90508151815260208201516020820152604082015160408201526060820151606082015292915050565b6000606082840312156151fd57600080fd5b615205613b31565b9050815161521281613ab9565b80825250602082015160208201526040820151604082015292915050565b60006040828403121561524257600080fd5b61524a613b0f565b9050815181526020820151602082015292915050565b60006060828403121561527257600080fd5b61527a613b31565b905081518152602082015160208201526040820151604082015292915050565b60008183036106608112156152ae57600080fd5b6152b6613b76565b6152c08585614e71565b81526101a061040061019f19840112156152d957600080fd5b6152e1613b98565b92506152ef868287016150ad565b83526152ff866102a0870161514f565b60208401526153128661036087016151a7565b6040840152615325866103e087016151eb565b6060840152615338866104408701615230565b608084015261048085015160a08401526104a085015160c08401526104c085015160e08401526104e085015161010084015261050085015161012084015261052085015161014084015261054085015161016084015261056085015161018084015261058085015181840152508160208201526153b9856105a08601615260565b6040820152610600840151606082015261062084015160808201526106409093015160a0840152509092915050565b6001600160a01b03881681526101a0810161540660208301896147e0565b61541360a0830188613f51565b61542060e0830187613f51565b61542e610120830186613f51565b8361016083015282151561018083015298975050505050505050565b60008082840361018081121561545f57600080fd5b8351925061016080601f198301121561547757600080fd5b61547f613bbb565b91506020850151825260408501516020830152606085015160408301526080850151606083015260a0850151608083015260c085015160a083015260e085015160c08301526101008086015160e08401526101208087015182850152610140915081870151818501525081860151818401525050809150509250929050565b600082601f83011261550f57600080fd5b8151602061551f614a3a836149f6565b82815260059290921b8401810191818101908684111561553e57600080fd5b8286015b848110156116d657805161555581613ab9565b8352918301918301615542565b60006020828403121561557457600080fd5b81516001600160401b038082111561558b57600080fd5b81840191506101008083870312156155a257600080fd5b6155aa613b31565b8351838111156155b957600080fd5b840161012081890312156155cc57600080fd5b6155d4613b53565b6155dd82614e17565b81526155eb60208301614e17565b60208201526155fc60408301614e17565b604082015261560d60608301614e17565b606082015261561e60808301614e17565b608082015261562f60a08301614e17565b60a082015261564060c08301614e17565b60c082015260e08201518581111561565757600080fd5b6156638a8285016154fe565b60e083015250838201518581111561567a57600080fd5b6156868a8285016154fe565b828601525082525061569b876020860161514f565b60208201526156ad8760e08601614e22565b60408201529695505050505050565b6001600160a01b0387811682526101c08201906156dc60208401896147e0565b6156e960a0840188614f85565b808616610160840152846101808401528084166101a084015250979650505050505050565b600080600083850361010081121561572557600080fd5b845193506020850151925060c0603f198201121561574257600080fd5b5061574b613b76565b60408501518152606085015160208201526080850151604082015260a085015161577481613ab9565b606082015260c0850151608082015260e09094015160a0850152509093909250565b634e487b7160e01b600052603260045260246000fd5b805160088110612e8657600080fd5b805160038110612e8657600080fd5b600061014082840312156157dd57600080fd5b6157e5613bde565b90506157f0826157ac565b81526157fe602083016157bb565b602082015260408201516040820152606082015160608201526080820151608082015260a082015160a082015260c082015160c082015260e082015160e082015261010080830151818301525061012080830151818301525092915050565b60006060828403121561586f57600080fd5b615877613b31565b9050815161588481613dc5565b8152602082015161589481613dc5565b60208201526040820151613d3d81613dc5565b6000602082840312156158b957600080fd5b81516001600160401b03808211156158d057600080fd5b908301906101c082860312156158e557600080fd5b6158ed613b31565b8251828111156158fc57600080fd5b830160e0818803121561590e57600080fd5b615916613c01565b61591f82614e17565b815261592d60208301614e17565b602082015261593e60408301614e17565b604082015261594f60608301614e17565b606082015261596060808301614e17565b608082015261597160a08301614e17565b60a082015260c08201518481111561598857600080fd5b615994898285016154fe565b60c0830152508252506159aa86602085016157ca565b60208201526159bd86610160850161585d565b604082015295945050505050565b634e487b7160e01b600052601160045260246000fd5b6000600182016159f3576159f36159cb565b5060010190565b6001600160a01b0392831681529116602082015260400190565b600060808284031215615a2657600080fd5b615a2e613ae7565b8251615a3981613ab9565b81526020830151615a4981613ab9565b60208201526040830151615a5c81613ab9565b60408201526060830151615a6f81613ab9565b60608201529392505050565b6001600160a01b03881681526101608101615a9960208301896147e0565b615aa660a0830188613f51565b8560e0830152846101008301528361012083015282151561014083015298975050505050505050565b600060608284031215615ae157600080fd5b6107f98383615260565b6001600160a01b038881168252610180820190615b0b602084018a6147e0565b87811660a0840152861660c083015260e08201859052615b2f610100830185613f51565b610676610140830184613f51565b60008060408385031215615b5057600080fd5b505080516020909101519092909150565b6001600160a01b038316815260a0810161124a60208301846147e0565b600060808284031215615b9057600080fd5b615b98613b0f565b9050615ba48383615230565b8152615bb38360408401615230565b602082015292915050565b60006101008284031215615bd157600080fd5b615bd9613b0f565b615be38484615b7e565b8152615bf28460808501615b7e565b60208201529392505050565b6001600160a01b03841681526101608101615c1c60208301856147e0565b610b5f60a0830184614f85565b60006101408284031215615c3c57600080fd5b615c44613ae7565b8251615c4f81613dc5565b815260208381015190820152615c688460408501615b7e565b6040820152615a6f8460c08501615b7e565b600060208284031215615c8c57600080fd5b81516107f981613dc5565b600060208284031215615ca957600080fd5b81516001600160401b0380821115615cc057600080fd5b908301906101008286031215615cd557600080fd5b615cdd613b31565b825182811115615cec57600080fd5b830160e08188031215615cfe57600080fd5b615d06613c01565b615d0f82614e17565b8152615d1d60208301614e17565b6020820152615d2e60408301614e17565b6040820152615d3f60608301614e17565b6060820152615d5060808301614e17565b608082015260a082015184811115615d6757600080fd5b615d73898285016154fe565b60a08301525060c082015184811115615d8b57600080fd5b615d97898285016154fe565b60c083015250825250615dad866020850161514f565b60208201526159bd8660e08501614e22565b80820281158282048414176107fc576107fc6159cb565b8181036000831280158383131683831282161715615df657615df66159cb565b5092915050565b600060208284031215615e0f57600080fd5b5051919050565b60006020808385031215615e2957600080fd5b82516001600160401b03811115615e3f57600080fd5b8301601f81018513615e5057600080fd5b8051615e5e614a3a826149f6565b81815260059190911b82018301908381019087831115615e7d57600080fd5b928401925b828410156112dd57835182529284019290840190615e82565b600060208284031215615ead57600080fd5b81516001600160401b03811115615ec357600080fd5b610b5f848285016154fe565b8082018281126000831280158216821582161715615eef57615eef6159cb565b505092915050565b808201808211156107fc576107fc6159cb565b6000600160ff1b8201615f1f57615f1f6159cb565b5060000390565b634e487b7160e01b600052601260045260246000fd5b600082615f5957634e487b7160e01b600052601260045260246000fd5b50049056fea2646970667358221220c1d2fdd5cacf52e68d563642937c95fcf16b496389f02759a9bbbe7ddb46871264736f6c63430008120033",
  "linkReferences": {
    "contracts/deposit/DepositStoreUtils.sol": {
      "DepositStoreUtils": [
        {
          "length": 20,
          "start": 2106
        }
      ]
    },
    "contracts/market/MarketStoreUtils.sol": {
      "MarketStoreUtils": [
        {
          "length": 20,
          "start": 3112
        },
        {
          "length": 20,
          "start": 3374
        },
        {
          "length": 20,
          "start": 3668
        },
        {
          "length": 20,
          "start": 4120
        },
        {
          "length": 20,
          "start": 4727
        },
        {
          "length": 20,
          "start": 4911
        },
        {
          "length": 20,
          "start": 5340
        },
        {
          "length": 20,
          "start": 6197
        }
      ]
    },
    "contracts/market/MarketUtils.sol": {
      "MarketUtils": [
        {
          "length": 20,
          "start": 1809
        }
      ]
    },
    "contracts/order/OrderStoreUtils.sol": {
      "OrderStoreUtils": [
        {
          "length": 20,
          "start": 2766
        },
        {
          "length": 20,
          "start": 2975
        }
      ]
    },
    "contracts/position/PositionStoreUtils.sol": {
      "PositionStoreUtils": [
        {
          "length": 20,
          "start": 1273
        },
        {
          "length": 20,
          "start": 1966
        },
        {
          "length": 20,
          "start": 3924
        }
      ]
    },
    "contracts/position/PositionUtils.sol": {
      "PositionUtils": [
        {
          "length": 20,
          "start": 1412
        }
      ]
    },
    "contracts/reader/ReaderPricingUtils.sol": {
      "ReaderPricingUtils": [
        {
          "length": 20,
          "start": 2483
        },
        {
          "length": 20,
          "start": 3237
        },
        {
          "length": 20,
          "start": 3512
        }
      ]
    },
    "contracts/reader/ReaderUtils.sol": {
      "ReaderUtils": [
        {
          "length": 20,
          "start": 1569
        },
        {
          "length": 20,
          "start": 4267
        },
        {
          "length": 20,
          "start": 4394
        }
      ]
    },
    "contracts/withdrawal/WithdrawalStoreUtils.sol": {
      "WithdrawalStoreUtils": [
        {
          "length": 20,
          "start": 5546
        }
      ]
    }
  },
  "deployedLinkReferences": {
    "contracts/deposit/DepositStoreUtils.sol": {
      "DepositStoreUtils": [
        {
          "length": 20,
          "start": 2073
        }
      ]
    },
    "contracts/market/MarketStoreUtils.sol": {
      "MarketStoreUtils": [
        {
          "length": 20,
          "start": 3079
        },
        {
          "length": 20,
          "start": 3341
        },
        {
          "length": 20,
          "start": 3635
        },
        {
          "length": 20,
          "start": 4087
        },
        {
          "length": 20,
          "start": 4694
        },
        {
          "length": 20,
          "start": 4878
        },
        {
          "length": 20,
          "start": 5307
        },
        {
          "length": 20,
          "start": 6164
        }
      ]
    },
    "contracts/market/MarketUtils.sol": {
      "MarketUtils": [
        {
          "length": 20,
          "start": 1776
        }
      ]
    },
    "contracts/order/OrderStoreUtils.sol": {
      "OrderStoreUtils": [
        {
          "length": 20,
          "start": 2733
        },
        {
          "length": 20,
          "start": 2942
        }
      ]
    },
    "contracts/position/PositionStoreUtils.sol": {
      "PositionStoreUtils": [
        {
          "length": 20,
          "start": 1240
        },
        {
          "length": 20,
          "start": 1933
        },
        {
          "length": 20,
          "start": 3891
        }
      ]
    },
    "contracts/position/PositionUtils.sol": {
      "PositionUtils": [
        {
          "length": 20,
          "start": 1379
        }
      ]
    },
    "contracts/reader/ReaderPricingUtils.sol": {
      "ReaderPricingUtils": [
        {
          "length": 20,
          "start": 2450
        },
        {
          "length": 20,
          "start": 3204
        },
        {
          "length": 20,
          "start": 3479
        }
      ]
    },
    "contracts/reader/ReaderUtils.sol": {
      "ReaderUtils": [
        {
          "length": 20,
          "start": 1536
        },
        {
          "length": 20,
          "start": 4234
        },
        {
          "length": 20,
          "start": 4361
        }
      ]
    },
    "contracts/withdrawal/WithdrawalStoreUtils.sol": {
      "WithdrawalStoreUtils": [
        {
          "length": 20,
          "start": 5513
        }
      ]
    }
  }
}