{
  "_format": "hh-sol-artifact-1",
  "contractName": "Reader",
  "sourceName": "contracts/reader/Reader.sol",
  "abi": [
    {
      "inputs": [
        {
          "internalType": "contract DataStore",
          "name": "dataStore",
          "type": "address"
        },
        {
          "internalType": "contract MarketStore",
          "name": "marketStore",
          "type": "address"
        },
        {
          "internalType": "contract PositionStore",
          "name": "positionStore",
          "type": "address"
        },
        {
          "internalType": "address",
          "name": "account",
          "type": "address"
        },
        {
          "internalType": "uint256",
          "name": "start",
          "type": "uint256"
        },
        {
          "internalType": "uint256",
          "name": "end",
          "type": "uint256"
        }
      ],
      "name": "getAccountPositionInfoList",
      "outputs": [
        {
          "components": [
            {
              "components": [
                {
                  "components": [
                    {
                      "internalType": "address",
                      "name": "account",
                      "type": "address"
                    },
                    {
                      "internalType": "address",
                      "name": "market",
                      "type": "address"
                    },
                    {
                      "internalType": "address",
                      "name": "collateralToken",
                      "type": "address"
                    }
                  ],
                  "internalType": "struct Position.Addresses",
                  "name": "addresses",
                  "type": "tuple"
                },
                {
                  "components": [
                    {
                      "internalType": "uint256",
                      "name": "sizeInUsd",
                      "type": "uint256"
                    },
                    {
                      "internalType": "uint256",
                      "name": "sizeInTokens",
                      "type": "uint256"
                    },
                    {
                      "internalType": "uint256",
                      "name": "collateralAmount",
                      "type": "uint256"
                    },
                    {
                      "internalType": "uint256",
                      "name": "borrowingFactor",
                      "type": "uint256"
                    },
                    {
                      "internalType": "int256",
                      "name": "longTokenFundingAmountPerSize",
                      "type": "int256"
                    },
                    {
                      "internalType": "int256",
                      "name": "shortTokenFundingAmountPerSize",
                      "type": "int256"
                    },
                    {
                      "internalType": "uint256",
                      "name": "increasedAtBlock",
                      "type": "uint256"
                    },
                    {
                      "internalType": "uint256",
                      "name": "decreasedAtBlock",
                      "type": "uint256"
                    }
                  ],
                  "internalType": "struct Position.Numbers",
                  "name": "numbers",
                  "type": "tuple"
                },
                {
                  "components": [
                    {
                      "internalType": "bool",
                      "name": "isLong",
                      "type": "bool"
                    }
                  ],
                  "internalType": "struct Position.Flags",
                  "name": "flags",
                  "type": "tuple"
                },
                {
                  "internalType": "bytes",
                  "name": "data",
                  "type": "bytes"
                }
              ],
              "internalType": "struct Position.Props",
              "name": "position",
              "type": "tuple"
            },
            {
              "internalType": "uint256",
              "name": "pendingBorrowingFees",
              "type": "uint256"
            },
            {
              "components": [
                {
                  "internalType": "uint256",
                  "name": "fundingFeeAmount",
                  "type": "uint256"
                },
                {
                  "internalType": "uint256",
                  "name": "claimableLongTokenAmount",
                  "type": "uint256"
                },
                {
                  "internalType": "uint256",
                  "name": "claimableShortTokenAmount",
                  "type": "uint256"
                },
                {
                  "internalType": "int256",
                  "name": "latestLongTokenFundingAmountPerSize",
                  "type": "int256"
                },
                {
                  "internalType": "int256",
                  "name": "latestShortTokenFundingAmountPerSize",
                  "type": "int256"
                },
                {
                  "internalType": "bool",
                  "name": "hasPendingLongTokenFundingFee",
                  "type": "bool"
                },
                {
                  "internalType": "bool",
                  "name": "hasPendingShortTokenFundingFee",
                  "type": "bool"
                }
              ],
              "internalType": "struct PositionPricingUtils.PositionFundingFees",
              "name": "pendingFundingFees",
              "type": "tuple"
            }
          ],
          "internalType": "struct Reader.PositionInfo[]",
          "name": "",
          "type": "tuple[]"
        }
      ],
      "stateMutability": "view",
      "type": "function"
    },
    {
      "inputs": [
        {
          "internalType": "contract PositionStore",
          "name": "positionStore",
          "type": "address"
        },
        {
          "internalType": "address",
          "name": "account",
          "type": "address"
        },
        {
          "internalType": "uint256",
          "name": "start",
          "type": "uint256"
        },
        {
          "internalType": "uint256",
          "name": "end",
          "type": "uint256"
        }
      ],
      "name": "getAccountPositions",
      "outputs": [
        {
          "components": [
            {
              "components": [
                {
                  "internalType": "address",
                  "name": "account",
                  "type": "address"
                },
                {
                  "internalType": "address",
                  "name": "market",
                  "type": "address"
                },
                {
                  "internalType": "address",
                  "name": "collateralToken",
                  "type": "address"
                }
              ],
              "internalType": "struct Position.Addresses",
              "name": "addresses",
              "type": "tuple"
            },
            {
              "components": [
                {
                  "internalType": "uint256",
                  "name": "sizeInUsd",
                  "type": "uint256"
                },
                {
                  "internalType": "uint256",
                  "name": "sizeInTokens",
                  "type": "uint256"
                },
                {
                  "internalType": "uint256",
                  "name": "collateralAmount",
                  "type": "uint256"
                },
                {
                  "internalType": "uint256",
                  "name": "borrowingFactor",
                  "type": "uint256"
                },
                {
                  "internalType": "int256",
                  "name": "longTokenFundingAmountPerSize",
                  "type": "int256"
                },
                {
                  "internalType": "int256",
                  "name": "shortTokenFundingAmountPerSize",
                  "type": "int256"
                },
                {
                  "internalType": "uint256",
                  "name": "increasedAtBlock",
                  "type": "uint256"
                },
                {
                  "internalType": "uint256",
                  "name": "decreasedAtBlock",
                  "type": "uint256"
                }
              ],
              "internalType": "struct Position.Numbers",
              "name": "numbers",
              "type": "tuple"
            },
            {
              "components": [
                {
                  "internalType": "bool",
                  "name": "isLong",
                  "type": "bool"
                }
              ],
              "internalType": "struct Position.Flags",
              "name": "flags",
              "type": "tuple"
            },
            {
              "internalType": "bytes",
              "name": "data",
              "type": "bytes"
            }
          ],
          "internalType": "struct Position.Props[]",
          "name": "",
          "type": "tuple[]"
        }
      ],
      "stateMutability": "view",
      "type": "function"
    },
    {
      "inputs": [
        {
          "internalType": "contract DataStore",
          "name": "dataStore",
          "type": "address"
        },
        {
          "internalType": "contract MarketStore",
          "name": "marketStore",
          "type": "address"
        },
        {
          "components": [
            {
              "components": [
                {
                  "internalType": "uint256",
                  "name": "min",
                  "type": "uint256"
                },
                {
                  "internalType": "uint256",
                  "name": "max",
                  "type": "uint256"
                }
              ],
              "internalType": "struct Price.Props",
              "name": "indexTokenPrice",
              "type": "tuple"
            },
            {
              "components": [
                {
                  "internalType": "uint256",
                  "name": "min",
                  "type": "uint256"
                },
                {
                  "internalType": "uint256",
                  "name": "max",
                  "type": "uint256"
                }
              ],
              "internalType": "struct Price.Props",
              "name": "longTokenPrice",
              "type": "tuple"
            },
            {
              "components": [
                {
                  "internalType": "uint256",
                  "name": "min",
                  "type": "uint256"
                },
                {
                  "internalType": "uint256",
                  "name": "max",
                  "type": "uint256"
                }
              ],
              "internalType": "struct Price.Props",
              "name": "shortTokenPrice",
              "type": "tuple"
            }
          ],
          "internalType": "struct MarketUtils.MarketPrices",
          "name": "prices",
          "type": "tuple"
        },
        {
          "internalType": "address",
          "name": "marketKey",
          "type": "address"
        }
      ],
      "name": "getMarketInfo",
      "outputs": [
        {
          "components": [
            {
              "components": [
                {
                  "internalType": "address",
                  "name": "marketToken",
                  "type": "address"
                },
                {
                  "internalType": "address",
                  "name": "indexToken",
                  "type": "address"
                },
                {
                  "internalType": "address",
                  "name": "longToken",
                  "type": "address"
                },
                {
                  "internalType": "address",
                  "name": "shortToken",
                  "type": "address"
                },
                {
                  "internalType": "bytes",
                  "name": "data",
                  "type": "bytes"
                }
              ],
              "internalType": "struct Market.Props",
              "name": "market",
              "type": "tuple"
            },
            {
              "internalType": "uint256",
              "name": "borrowingFactorPerSecondForLongs",
              "type": "uint256"
            },
            {
              "internalType": "uint256",
              "name": "borrowingFactorPerSecondForShorts",
              "type": "uint256"
            },
            {
              "components": [
                {
                  "internalType": "uint256",
                  "name": "fundingPerSecond",
                  "type": "uint256"
                },
                {
                  "internalType": "bool",
                  "name": "longsPayShorts",
                  "type": "bool"
                },
                {
                  "internalType": "int256",
                  "name": "fundingAmountPerSize_LongCollateral_LongPosition",
                  "type": "int256"
                },
                {
                  "internalType": "int256",
                  "name": "fundingAmountPerSize_LongCollateral_ShortPosition",
                  "type": "int256"
                },
                {
                  "internalType": "int256",
                  "name": "fundingAmountPerSize_ShortCollateral_LongPosition",
                  "type": "int256"
                },
                {
                  "internalType": "int256",
                  "name": "fundingAmountPerSize_ShortCollateral_ShortPosition",
                  "type": "int256"
                }
              ],
              "internalType": "struct MarketUtils.GetNextFundingAmountPerSizeResult",
              "name": "funding",
              "type": "tuple"
            }
          ],
          "internalType": "struct Reader.MarketInfo",
          "name": "",
          "type": "tuple"
        }
      ],
      "stateMutability": "view",
      "type": "function"
    },
    {
      "inputs": [
        {
          "internalType": "contract DataStore",
          "name": "dataStore",
          "type": "address"
        },
        {
          "internalType": "contract MarketStore",
          "name": "marketStore",
          "type": "address"
        },
        {
          "components": [
            {
              "components": [
                {
                  "internalType": "uint256",
                  "name": "min",
                  "type": "uint256"
                },
                {
                  "internalType": "uint256",
                  "name": "max",
                  "type": "uint256"
                }
              ],
              "internalType": "struct Price.Props",
              "name": "indexTokenPrice",
              "type": "tuple"
            },
            {
              "components": [
                {
                  "internalType": "uint256",
                  "name": "min",
                  "type": "uint256"
                },
                {
                  "internalType": "uint256",
                  "name": "max",
                  "type": "uint256"
                }
              ],
              "internalType": "struct Price.Props",
              "name": "longTokenPrice",
              "type": "tuple"
            },
            {
              "components": [
                {
                  "internalType": "uint256",
                  "name": "min",
                  "type": "uint256"
                },
                {
                  "internalType": "uint256",
                  "name": "max",
                  "type": "uint256"
                }
              ],
              "internalType": "struct Price.Props",
              "name": "shortTokenPrice",
              "type": "tuple"
            }
          ],
          "internalType": "struct MarketUtils.MarketPrices[]",
          "name": "marketPricesList",
          "type": "tuple[]"
        },
        {
          "internalType": "uint256",
          "name": "start",
          "type": "uint256"
        },
        {
          "internalType": "uint256",
          "name": "end",
          "type": "uint256"
        }
      ],
      "name": "getMarketInfoList",
      "outputs": [
        {
          "components": [
            {
              "components": [
                {
                  "internalType": "address",
                  "name": "marketToken",
                  "type": "address"
                },
                {
                  "internalType": "address",
                  "name": "indexToken",
                  "type": "address"
                },
                {
                  "internalType": "address",
                  "name": "longToken",
                  "type": "address"
                },
                {
                  "internalType": "address",
                  "name": "shortToken",
                  "type": "address"
                },
                {
                  "internalType": "bytes",
                  "name": "data",
                  "type": "bytes"
                }
              ],
              "internalType": "struct Market.Props",
              "name": "market",
              "type": "tuple"
            },
            {
              "internalType": "uint256",
              "name": "borrowingFactorPerSecondForLongs",
              "type": "uint256"
            },
            {
              "internalType": "uint256",
              "name": "borrowingFactorPerSecondForShorts",
              "type": "uint256"
            },
            {
              "components": [
                {
                  "internalType": "uint256",
                  "name": "fundingPerSecond",
                  "type": "uint256"
                },
                {
                  "internalType": "bool",
                  "name": "longsPayShorts",
                  "type": "bool"
                },
                {
                  "internalType": "int256",
                  "name": "fundingAmountPerSize_LongCollateral_LongPosition",
                  "type": "int256"
                },
                {
                  "internalType": "int256",
                  "name": "fundingAmountPerSize_LongCollateral_ShortPosition",
                  "type": "int256"
                },
                {
                  "internalType": "int256",
                  "name": "fundingAmountPerSize_ShortCollateral_LongPosition",
                  "type": "int256"
                },
                {
                  "internalType": "int256",
                  "name": "fundingAmountPerSize_ShortCollateral_ShortPosition",
                  "type": "int256"
                }
              ],
              "internalType": "struct MarketUtils.GetNextFundingAmountPerSizeResult",
              "name": "funding",
              "type": "tuple"
            }
          ],
          "internalType": "struct Reader.MarketInfo[]",
          "name": "",
          "type": "tuple[]"
        }
      ],
      "stateMutability": "view",
      "type": "function"
    },
    {
      "inputs": [
        {
          "internalType": "contract DataStore",
          "name": "dataStore",
          "type": "address"
        },
        {
          "components": [
            {
              "internalType": "address",
              "name": "marketToken",
              "type": "address"
            },
            {
              "internalType": "address",
              "name": "indexToken",
              "type": "address"
            },
            {
              "internalType": "address",
              "name": "longToken",
              "type": "address"
            },
            {
              "internalType": "address",
              "name": "shortToken",
              "type": "address"
            },
            {
              "internalType": "bytes",
              "name": "data",
              "type": "bytes"
            }
          ],
          "internalType": "struct Market.Props",
          "name": "market",
          "type": "tuple"
        },
        {
          "components": [
            {
              "internalType": "uint256",
              "name": "min",
              "type": "uint256"
            },
            {
              "internalType": "uint256",
              "name": "max",
              "type": "uint256"
            }
          ],
          "internalType": "struct Price.Props",
          "name": "longTokenPrice",
          "type": "tuple"
        },
        {
          "components": [
            {
              "internalType": "uint256",
              "name": "min",
              "type": "uint256"
            },
            {
              "internalType": "uint256",
              "name": "max",
              "type": "uint256"
            }
          ],
          "internalType": "struct Price.Props",
          "name": "shortTokenPrice",
          "type": "tuple"
        },
        {
          "components": [
            {
              "internalType": "uint256",
              "name": "min",
              "type": "uint256"
            },
            {
              "internalType": "uint256",
              "name": "max",
              "type": "uint256"
            }
          ],
          "internalType": "struct Price.Props",
          "name": "indexTokenPrice",
          "type": "tuple"
        },
        {
          "internalType": "bool",
          "name": "maximize",
          "type": "bool"
        }
      ],
      "name": "getMarketTokenPrice",
      "outputs": [
        {
          "internalType": "uint256",
          "name": "",
          "type": "uint256"
        }
      ],
      "stateMutability": "view",
      "type": "function"
    },
    {
      "inputs": [
        {
          "internalType": "contract MarketStore",
          "name": "marketStore",
          "type": "address"
        },
        {
          "internalType": "uint256",
          "name": "start",
          "type": "uint256"
        },
        {
          "internalType": "uint256",
          "name": "end",
          "type": "uint256"
        }
      ],
      "name": "getMarkets",
      "outputs": [
        {
          "components": [
            {
              "internalType": "address",
              "name": "marketToken",
              "type": "address"
            },
            {
              "internalType": "address",
              "name": "indexToken",
              "type": "address"
            },
            {
              "internalType": "address",
              "name": "longToken",
              "type": "address"
            },
            {
              "internalType": "address",
              "name": "shortToken",
              "type": "address"
            },
            {
              "internalType": "bytes",
              "name": "data",
              "type": "bytes"
            }
          ],
          "internalType": "struct Market.Props[]",
          "name": "",
          "type": "tuple[]"
        }
      ],
      "stateMutability": "view",
      "type": "function"
    },
    {
      "inputs": [
        {
          "internalType": "contract DataStore",
          "name": "dataStore",
          "type": "address"
        },
        {
          "internalType": "address",
          "name": "market",
          "type": "address"
        },
        {
          "internalType": "address",
          "name": "longToken",
          "type": "address"
        },
        {
          "internalType": "address",
          "name": "shortToken",
          "type": "address"
        },
        {
          "components": [
            {
              "internalType": "uint256",
              "name": "min",
              "type": "uint256"
            },
            {
              "internalType": "uint256",
              "name": "max",
              "type": "uint256"
            }
          ],
          "internalType": "struct Price.Props",
          "name": "indexTokenPrice",
          "type": "tuple"
        },
        {
          "internalType": "bool",
          "name": "maximize",
          "type": "bool"
        }
      ],
      "name": "getNetPnl",
      "outputs": [
        {
          "internalType": "int256",
          "name": "",
          "type": "int256"
        }
      ],
      "stateMutability": "view",
      "type": "function"
    },
    {
      "inputs": [
        {
          "internalType": "contract DataStore",
          "name": "dataStore",
          "type": "address"
        },
        {
          "internalType": "address",
          "name": "market",
          "type": "address"
        },
        {
          "internalType": "address",
          "name": "longToken",
          "type": "address"
        },
        {
          "internalType": "address",
          "name": "shortToken",
          "type": "address"
        },
        {
          "components": [
            {
              "internalType": "uint256",
              "name": "min",
              "type": "uint256"
            },
            {
              "internalType": "uint256",
              "name": "max",
              "type": "uint256"
            }
          ],
          "internalType": "struct Price.Props",
          "name": "indexTokenPrice",
          "type": "tuple"
        },
        {
          "internalType": "bool",
          "name": "isLong",
          "type": "bool"
        },
        {
          "internalType": "bool",
          "name": "maximize",
          "type": "bool"
        }
      ],
      "name": "getOpenInterestWithPnl",
      "outputs": [
        {
          "internalType": "uint256",
          "name": "",
          "type": "uint256"
        }
      ],
      "stateMutability": "view",
      "type": "function"
    },
    {
      "inputs": [
        {
          "internalType": "contract DataStore",
          "name": "dataStore",
          "type": "address"
        },
        {
          "internalType": "contract MarketStore",
          "name": "marketStore",
          "type": "address"
        },
        {
          "internalType": "contract PositionStore",
          "name": "positionStore",
          "type": "address"
        },
        {
          "internalType": "bytes32",
          "name": "positionKey",
          "type": "bytes32"
        }
      ],
      "name": "getPositionInfo",
      "outputs": [
        {
          "components": [
            {
              "components": [
                {
                  "components": [
                    {
                      "internalType": "address",
                      "name": "account",
                      "type": "address"
                    },
                    {
                      "internalType": "address",
                      "name": "market",
                      "type": "address"
                    },
                    {
                      "internalType": "address",
                      "name": "collateralToken",
                      "type": "address"
                    }
                  ],
                  "internalType": "struct Position.Addresses",
                  "name": "addresses",
                  "type": "tuple"
                },
                {
                  "components": [
                    {
                      "internalType": "uint256",
                      "name": "sizeInUsd",
                      "type": "uint256"
                    },
                    {
                      "internalType": "uint256",
                      "name": "sizeInTokens",
                      "type": "uint256"
                    },
                    {
                      "internalType": "uint256",
                      "name": "collateralAmount",
                      "type": "uint256"
                    },
                    {
                      "internalType": "uint256",
                      "name": "borrowingFactor",
                      "type": "uint256"
                    },
                    {
                      "internalType": "int256",
                      "name": "longTokenFundingAmountPerSize",
                      "type": "int256"
                    },
                    {
                      "internalType": "int256",
                      "name": "shortTokenFundingAmountPerSize",
                      "type": "int256"
                    },
                    {
                      "internalType": "uint256",
                      "name": "increasedAtBlock",
                      "type": "uint256"
                    },
                    {
                      "internalType": "uint256",
                      "name": "decreasedAtBlock",
                      "type": "uint256"
                    }
                  ],
                  "internalType": "struct Position.Numbers",
                  "name": "numbers",
                  "type": "tuple"
                },
                {
                  "components": [
                    {
                      "internalType": "bool",
                      "name": "isLong",
                      "type": "bool"
                    }
                  ],
                  "internalType": "struct Position.Flags",
                  "name": "flags",
                  "type": "tuple"
                },
                {
                  "internalType": "bytes",
                  "name": "data",
                  "type": "bytes"
                }
              ],
              "internalType": "struct Position.Props",
              "name": "position",
              "type": "tuple"
            },
            {
              "internalType": "uint256",
              "name": "pendingBorrowingFees",
              "type": "uint256"
            },
            {
              "components": [
                {
                  "internalType": "uint256",
                  "name": "fundingFeeAmount",
                  "type": "uint256"
                },
                {
                  "internalType": "uint256",
                  "name": "claimableLongTokenAmount",
                  "type": "uint256"
                },
                {
                  "internalType": "uint256",
                  "name": "claimableShortTokenAmount",
                  "type": "uint256"
                },
                {
                  "internalType": "int256",
                  "name": "latestLongTokenFundingAmountPerSize",
                  "type": "int256"
                },
                {
                  "internalType": "int256",
                  "name": "latestShortTokenFundingAmountPerSize",
                  "type": "int256"
                },
                {
                  "internalType": "bool",
                  "name": "hasPendingLongTokenFundingFee",
                  "type": "bool"
                },
                {
                  "internalType": "bool",
                  "name": "hasPendingShortTokenFundingFee",
                  "type": "bool"
                }
              ],
              "internalType": "struct PositionPricingUtils.PositionFundingFees",
              "name": "pendingFundingFees",
              "type": "tuple"
            }
          ],
          "internalType": "struct Reader.PositionInfo",
          "name": "",
          "type": "tuple"
        }
      ],
      "stateMutability": "view",
      "type": "function"
    }
  ],
  "bytecode": "0x608060405234801561001057600080fd5b506133f9806100206000396000f3fe608060405234801561001057600080fd5b50600436106100835760003560e01c8063075612fc146100885780632c8536e7146100ae57806377cfb162146100ce5780637b596910146100ee578063beb9bd9a14610101578063ce3264bf14610114578063cf609c3914610134578063e49799de14610154578063e73f185414610174575b600080fd5b61009b6100963660046124b8565b610194565b6040519081526020015b60405180910390f35b6100c16100bc366004612660565b6101b1565b6040516100a591906127d3565b6100e16100dc3660046127e6565b6102b5565b6040516100a591906128de565b61009b6100fc366004612940565b610520565b61009b61010f3660046129d6565b61053f565b610127610122366004612a57565b61054f565b6040516100a59190612a8c565b610147610142366004612ae1565b6107b2565b6040516100a59190612bca565b610167610162366004612c1f565b6109b8565b6040516100a59190612c70565b610187610182366004612ca6565b610afe565b6040516100a59190612d76565b60006101a4878787878787610d17565b90505b9695505050505050565b6101b9612101565b6040516330af0bbf60e21b81526000906001600160a01b0386169063c2bc2efc906101e8908690600401612dcb565b600060405180830381865afa158015610205573d6000803e3d6000fd5b505050506040513d6000823e601f3d908101601f1916820160405261022d9190810190612e24565b9050600061024c87868460000151856040015186606001516001610d77565b9050600061026b88878560000151866040015187606001516000610d77565b905060006102888988866000015187604001518860600151610e07565b6040805160808101825295865260208601949094529284019190915250606082015290505b949350505050565b60606000856001600160a01b031663e5276445866040518263ffffffff1660e01b81526004016102e59190612dcb565b602060405180830381865afa158015610302573d6000803e3d6000fd5b505050506040513d601f19601f820116820180604052508101906103269190612edc565b9050808410610369576040805160008082526020820190925290610360565b61034d612134565b8152602001906001900390816103455790505b509150506102ad565b80831115610375578092505b60405163118bd53760e31b81526000906001600160a01b03881690638c5ea9b8906103a890899089908990600401612ef5565b600060405180830381865afa1580156103c5573d6000803e3d6000fd5b505050506040513d6000823e601f3d908101601f191682016040526103ed9190810190612f16565b9050600081516001600160401b0381111561040a5761040a612373565b60405190808252806020026020018201604052801561044357816020015b610430612134565b8152602001906001900390816104285790505b50905060005b825181101561051457600083828151811061046657610466612f9b565b60200260200101519050896001600160a01b0316638eaa6ac0826040518263ffffffff1660e01b815260040161049e91815260200190565b600060405180830381865afa1580156104bb573d6000803e3d6000fd5b505050506040513d6000823e601f3d908101601f191682016040526104e3919081019061308f565b8383815181106104f5576104f5612f9b565b602002602001018190525050808061050c9061318f565b915050610449565b50979650505050505050565b600061053188888888888888611239565b90505b979650505050505050565b60006101a4878787878787611276565b60606000846001600160a01b031663fd69f3c26040518163ffffffff1660e01b8152600401602060405180830381865afa158015610591573d6000803e3d6000fd5b505050506040513d601f19601f820116820180604052508101906105b59190612edc565b90508084106105f85760408051600080825260208201909252906105ef565b6105dc6121c2565b8152602001906001900390816105d45790505b509150506107ab565b80831115610604578092505b6040516235673160e31b815260048101859052602481018490526000906001600160a01b038716906301ab398890604401600060405180830381865afa158015610652573d6000803e3d6000fd5b505050506040513d6000823e601f3d908101601f1916820160405261067a91908101906131a8565b9050600081516001600160401b0381111561069757610697612373565b6040519080825280602002602001820160405280156106d057816020015b6106bd6121c2565b8152602001906001900390816106b55790505b50905060005b82518110156107a55760008382815181106106f3576106f3612f9b565b602002602001015190506000896001600160a01b031663c2bc2efc836040518263ffffffff1660e01b815260040161072b9190612dcb565b600060405180830381865afa158015610748573d6000803e3d6000fd5b505050506040513d6000823e601f3d908101601f191682016040526107709190810190612e24565b90508084848151811061078557610785612f9b565b60200260200101819052505050808061079d9061318f565b9150506106d6565b50925050505b9392505050565b60606000856001600160a01b031663e5276445866040518263ffffffff1660e01b81526004016107e29190612dcb565b602060405180830381865afa1580156107ff573d6000803e3d6000fd5b505050506040513d601f19601f820116820180604052508101906108239190612edc565b905080841061086657604080516000808252602082019092529061085d565b61084a6121f2565b8152602001906001900390816108425790505b509150506101a7565b80831115610872578092505b60405163118bd53760e31b81526000906001600160a01b03881690638c5ea9b8906108a590899089908990600401612ef5565b600060405180830381865afa1580156108c2573d6000803e3d6000fd5b505050506040513d6000823e601f3d908101601f191682016040526108ea9190810190612f16565b9050600081516001600160401b0381111561090757610907612373565b60405190808252806020026020018201604052801561094057816020015b61092d6121f2565b8152602001906001900390816109255790505b50905060005b82518110156109aa57600083828151811061096357610963612f9b565b602002602001015190506109798c8c8c846109b8565b83838151811061098b5761098b612f9b565b60200260200101819052505080806109a29061318f565b915050610946565b509998505050505050505050565b6109c06121f2565b60405163023aa9ab60e61b8152600481018390526000906001600160a01b03851690638eaa6ac090602401600060405180830381865afa158015610a08573d6000803e3d6000fd5b505050506040513d6000823e601f3d908101601f19168201604052610a30919081019061308f565b90506000856001600160a01b031663c2bc2efc610a4f84516020015190565b6040518263ffffffff1660e01b8152600401610a6b9190612dcb565b600060405180830381865afa158015610a88573d6000803e3d6000fd5b505050506040513d6000823e601f3d908101601f19168201604052610ab09190810190612e24565b90506000610abe88846112a9565b90506000610ad6898585604001518660600151611306565b6040805160608101825295865260208601939093529184019190915250909695505050505050565b60606000856001600160a01b031663fd69f3c26040518163ffffffff1660e01b8152600401602060405180830381865afa158015610b40573d6000803e3d6000fd5b505050506040513d601f19601f82011682018060405250810190610b649190612edc565b9050808410610ba7576040805160008082526020820190925290610b9e565b610b8b612101565b815260200190600190039081610b835790505b50915050610d0e565b80831115610bb3578092505b6040516235673160e31b815260048101859052602481018490526000906001600160a01b038816906301ab398890604401600060405180830381865afa158015610c01573d6000803e3d6000fd5b505050506040513d6000823e601f3d908101601f19168201604052610c2991908101906131a8565b9050600081516001600160401b03811115610c4657610c46612373565b604051908082528060200260200182016040528015610c7f57816020015b610c6c612101565b815260200190600190039081610c645790505b50905060005b8251811015610d08576000888281518110610ca257610ca2612f9b565b602002602001015190506000848381518110610cc057610cc0612f9b565b60200260200101519050610cd68c8c84846101b1565b848481518110610ce857610ce8612f9b565b602002602001018190525050508080610d009061318f565b915050610c85565b50925050505b95945050505050565b600080610d28888888888888611475565b905080600003610d3c5760009150506101a7565b6000610d4b886000015161158b565b905080610d60670de0b6b3a764000084613236565b610d6a919061326b565b9998505050505050505050565b600080610d858887856115ef565b90506000610d9d898888888c60000151896001611239565b90506000610db78a8987610db15788611669565b89611669565b9050600085610dcb5760408a015151610dd2565b60208a0151515b90506000610de08284613236565b905080610ded8587613236565b610df7919061326b565b9c9b505050505050505050505050565b610e0f612219565b610e17612219565b610e1f612251565b610e2c8887876001611684565b815152610e3c8887866001611684565b815160200152610e4f8887876000611684565b815160400152610e628887866000611684565b815160600152805160208101519051610e7b919061327f565b81516080015280516060810151604090910151610e98919061327f565b815160a00152610eab88878760016116ff565b6040830152610ebd88878760006116ff565b6060830152610ecf88878660016116ff565b6080830152610ee188878660006116ff565b60a08301528051608001511580610efb5750805160a00151155b15610f0857509050610d0e565b610f12888761171b565b6040820152610f2188876117b3565b60608201528051608081015160a090910151610f3d919061182c565b608080830191909152815160a0810151910151610f5a919061327f565b60a0820181905260808201516060830151610f759190613236565b610f7f919061326b565b808352815160a08101516080909101511160208401526040820151610fa49190613236565b60c082015260208201511561100b5780516080810151905160c0830151610fcb9190613236565b610fd5919061326b565b60e08201528051608081015160209091015160c0830151610ff69190613236565b611000919061326b565b610100820152611063565b805160a081015160409091015160c08301516110279190613236565b611031919061326b565b60e0820152805160a081015160609091015160c08301516110529190613236565b61105c919061326b565b6101008201525b6110898760200151602001518260e0015161107e919061326b565b82516080015161184e565b6020808301516080019190915287810151015160e08201516110b9916110ae9161326b565b825160a0015161184e565b60208083015160c00191909152604088015101516101008201516110e09161107e9161326b565b60208083015160a0019190915260408801510151610100820151611107916110ae9161326b565b60208083015160e00191909152820151156111ac5761113a8260400151611135836020015160800151611886565b6118f9565b60408301526060820151602082015160c00151611160919061115b90611886565b6119b2565b60608301526080820151602082015160a00151611181919061113590611886565b608083015260a0820151602082015160e001516111a2919061115b90611886565b60a083015261122e565b6111c5826040015161115b836020015160800151611886565b60408301526060820151602082015160c001516111e6919061113590611886565b60608301526080820151602082015160a00151611207919061115b90611886565b608083015260a0820151602082015160e00151611228919061113590611886565b60a08301525b509695505050505050565b6000806112498989898988611a6c565b9050600061125c8a8a8a8a8a8a8a611aa3565b90506112688282611b3a565b9a9950505050505050505050565b6000806112898888888888600189611aa3565b9050600061129d898989898960008a611aa3565b9050610d6a8183613292565b6000806112c7846112bc85516020015190565b604086015151611b6a565b905060006112da84602001516060015190565b6112e490836132ba565b90506112fb6112f585602001515190565b82611b85565b925050505b92915050565b61130e61231a565b61131661231a565b6113388661132687516020015190565b8661133389604001515190565b6116ff565b606082015261135a8661134d87516020015190565b8561133389604001515190565b6080820152606081015160009081906113879061137c89602001516080015190565b60208a015151611b9e565b90151560a085015260808401519092506113aa9061137c896020015160a0015190565b90151560c0850152905060008212156113d4576113ce6113c9836132cd565b611c26565b60208401525b60008112156113ef576113e96113c9826132cd565b60408401525b856001600160a01b031661140588516040015190565b6001600160a01b031614801561141b5750600082135b1561142c5761142982611c26565b83525b846001600160a01b031661144288516040015190565b6001600160a01b03161480156114585750600081135b156114695761146681611c26565b83525b50909695505050505050565b60008061148b8888600001518960400151611669565b905060006114a28989600001518a60600151611669565b905060006114b08886611c78565b6114ba9084613236565b90506114c68786611c78565b6114d09083613236565b6114da908261327f565b90506114f68a8a600001518b604001518c606001516001611c8f565b611500908261327f565b905061151c8a8a600001518b604001518c606001516000611c8f565b611526908261327f565b905060006115388b8b60000151611cd4565b90506115448787611c78565b61154e9082613236565b611558908361327f565b915060006115778c8c600001518d604001518e606001518c8c15611276565b9050610df783611586836132cd565b611b3a565b6000816001600160a01b03166318160ddd6040518163ffffffff1660e01b8152600401602060405180830381865afa1580156115cb573d6000803e3d6000fd5b505050506040513d601f19601f820116820180604052508101906113009190612edc565b6000836001600160a01b031663bd02d0f561160a8585611cee565b6040518263ffffffff1660e01b815260040161162891815260200190565b602060405180830381865afa158015611645573d6000803e3d6000fd5b505050506040513d601f19601f820116820180604052508101906102ad9190612edc565b6000836001600160a01b031663bd02d0f561160a8585611d78565b6000846001600160a01b031663bd02d0f56116a0868686611de6565b6040518263ffffffff1660e01b81526004016116be91815260200190565b602060405180830381865afa1580156116db573d6000803e3d6000fd5b505050506040513d601f19601f82011682018060405250810190610d0e9190612edc565b6000846001600160a01b031663dc97d9626116a0868686611e78565b600080836001600160a01b031663bd02d0f561173685611eb5565b6040518263ffffffff1660e01b815260040161175491815260200190565b602060405180830381865afa158015611771573d6000803e3d6000fd5b505050506040513d601f19601f820116820180604052508101906117959190612edc565b9050806000036117a9576000915050611300565b6102ad81426132ba565b6000826001600160a01b031663bd02d0f56117cd84611f37565b6040518263ffffffff1660e01b81526004016117eb91815260200190565b602060405180830381865afa158015611808573d6000803e3d6000fd5b505050506040513d601f19601f820116820180604052508101906107ab9190612edc565b60008183116118445761183f83836132ba565b6107ab565b6107ab82846132ba565b600061186668327cb2734119d3b7a9601e1b8361326b565b61187c68327cb2734119d3b7a9601e1b85613236565b6107ab919061326b565b60006001600160ff1b038211156118f55760405162461bcd60e51b815260206004820152602860248201527f53616665436173743a2076616c756520646f65736e27742066697420696e2061604482015267371034b73a191a9b60c11b60648201526084015b60405180910390fd5b5090565b6000821580611906575081155b8061191c575060008312801561191c5750600082135b8061193257506000831380156119325750600082125b15611948576119418284613292565b9050611300565b600083128015611965575061196183600160ff1b6132e9565b8213155b156119755750600160ff1b611300565b6000831380156119955750611991836001600160ff1b036132e9565b8212155b156119a857506001600160ff1b03611300565b6107ab8284613292565b60008215806119bf575081155b806119d557506000831380156119d55750600082135b806119eb57506000831280156119eb5750600082125b156119fa5761194182846132e9565b600083138015611a225750611a16836001600160ff1b036132e9565b611a1f836132cd565b12155b15611a3557506001600160ff1b03611300565b600083128015611a525750611a4e83600160ff1b6132e9565b8213155b15611a625750600160ff1b611300565b6107ab82846132e9565b600080611a7b87878786611684565b90506000611a8b88888787611684565b9050611a97818361327f565b98975050505050505050565b600080611abb611ab68a8a8a8a89611a6c565b611886565b90506000611acc8a8a8a8a89611f6b565b9050811580611ad9575080155b15611ae957600092505050610534565b6000611af6878787611f8a565b90506000611b07611ab68385613236565b9050600087611b1f57611b1a82866132e9565b611b29565b611b2985836132e9565b9d9c50505050505050505050505050565b600080821315611b5757611b4d82611fc3565b611941908461327f565b611b6082611fc3565b6107ab90846132ba565b6000836001600160a01b031663bd02d0f561160a8585611fd6565b600068327cb2734119d3b7a9601e1b61187c8385613236565b60008083600003611bb457506000905080611c1e565b6000611bc085876132e9565b90506000611bd968327cb2734119d3b7a9601e1b611886565b611bee68327cb2734119d3b7a9601e1b611886565b611bf787611886565b611c019190613310565b611c0b908461333e565b611c159190613310565b80159450925050505b935093915050565b6000808212156118f55760405162461bcd60e51b815260206004820181905260248201527f53616665436173743a2076616c7565206d75737420626520706f73697469766560448201526064016118ec565b600081611c865782516107ab565b50506020015190565b600080611c9f8787878787611a6c565b90506000611cae888886611b6a565b90506000611cbd898987612017565b905080611cca8385613236565b610d6a91906132ba565b6000826001600160a01b031663bd02d0f56117cd84612032565b6000604051602001611d249060208082526010908201526f2127a92927aba4a723afa320a1aa27a960811b604082015260600190565b60408051601f198184030181528282528051602091820120908301526001600160a01b0385169082015282151560608201526080015b60405160208183030381529060405280519060200120905092915050565b6000604051602001611da9906020808252600b908201526a1413d3d317d05353d5539560aa1b604082015260600190565b60408051601f198184030181528282528051602091820120908301526001600160a01b038086169183019190915283166060820152608001611d5a565b6000604051602001611e19906020808252600d908201526c13d4115397d2539511549154d5609a1b604082015260600190565b60408051601f198184030181528282528051602091820120908301526001600160a01b038087169183019190915284166060820152821515608082015260a0016040516020818303038152906040528051906020012090509392505050565b6000604051602001611e199060208082526017908201527646554e44494e475f414d4f554e545f5045525f53495a4560481b604082015260600190565b6000604051602001611eed9060208082526012908201527111955391125391d7d554111055115117d05560721b604082015260600190565b60408051601f198184030181528282528051602091820120908301526001600160a01b03841690820152606001604051602081830303815290604052805190602001209050919050565b6000604051602001611eed906020808252600e908201526d232aa72224a723afa320a1aa27a960911b604082015260600190565b600080611f7a87878786612073565b90506000611a8b88888787612073565b60008215611fab5781611f9e578351611fa4565b83602001515b90506107ab565b81611fba5783602001516102ad565b50509051919050565b6000808212156118f55781600003611300565b6000604051602001611d24906020808252601b908201527a21aaa6aaa620aa24ab22afa127a92927aba4a723afa320a1aa27a960291b604082015260600190565b6000836001600160a01b031663bd02d0f561160a858561208f565b6000604051602001611eed906020808252601b908201527a1413d4d2551253d397d253541050d517d413d3d317d05353d55395602a1b604082015260600190565b6000846001600160a01b031663bd02d0f56116a08686866120c4565b6000604051602001611d24906020808252600f908201526e544f54414c5f424f52524f57494e4760881b604082015260600190565b6000604051602001611e19906020808252601790820152764f50454e5f494e5445524553545f494e5f544f4b454e5360481b604082015260600190565b60405180608001604052806121146121c2565b8152602001600081526020016000815260200161212f612219565b905290565b6040805160e0810190915260006080820181815260a0830182905260c0830191909152819081526020016121a660405180610100016040528060008152602001600081526020016000815260200160008152602001600081526020016000815260200160008152602001600081525090565b8152604080516020808201835260008252830152606091015290565b6040805160a081018252600080825260208201819052918101829052606080820192909252608081019190915290565b6040518060600160405280612205612134565b81526020016000815260200161212f61231a565b6040518060c0016040528060008152602001600015158152602001600081526020016000815260200160008152602001600081525090565b6040518061012001604052806122966040518060c001604052806000815260200160008152602001600081526020016000815260200160008152602001600081525090565b81526020016122e360405180610100016040528060008152602001600081526020016000815260200160008152602001600081526020016000815260200160008152602001600081525090565b8152602001600081526020016000815260200160008152602001600081526020016000815260200160008152602001600081525090565b6040518060e0016040528060008152602001600081526020016000815260200160008152602001600081526020016000151581526020016000151581525090565b6001600160a01b038116811461237057600080fd5b50565b634e487b7160e01b600052604160045260246000fd5b60405160a081016001600160401b03811182821017156123ab576123ab612373565b60405290565b604051606081016001600160401b03811182821017156123ab576123ab612373565b604051608081016001600160401b03811182821017156123ab576123ab612373565b604051601f8201601f191681016001600160401b038111828210171561241d5761241d612373565b604052919050565b60006001600160401b0382111561243e5761243e612373565b50601f01601f191660200190565b60006040828403121561245e57600080fd5b604080519081016001600160401b038111828210171561248057612480612373565b604052823581526020928301359281019290925250919050565b801515811461237057600080fd5b80356124b38161249a565b919050565b60008060008060008061012087890312156124d257600080fd5b86356124dd8161235b565b95506020878101356001600160401b03808211156124fa57600080fd5b9089019060a0828c03121561250e57600080fd5b612516612389565b82356125218161235b565b8152828401356125308161235b565b8185015260408301356125428161235b565b604082015260608301356125558161235b565b606082015260808301358281111561256c57600080fd5b8084019350508b601f84011261258157600080fd5b8235915061259661259183612425565b6123f5565b8281528c858486010111156125aa57600080fd5b8285850186830137600085848301015280608083015250809850505050506125d5886040890161244c565b93506125e4886080890161244c565b92506125f38860c0890161244c565b915061260261010088016124a8565b90509295509295509295565b600060c0828403121561262057600080fd5b6126286123b1565b9050612634838361244c565b8152612643836040840161244c565b6020820152612655836080840161244c565b604082015292915050565b600080600080610120858703121561267757600080fd5b84356126828161235b565b935060208501356126928161235b565b92506126a1866040870161260e565b91506101008501356126b28161235b565b939692955090935050565b60005b838110156126d85781810151838201526020016126c0565b50506000910152565b600081518084526126f98160208601602086016126bd565b601f01601f19169290920160200192915050565b600060018060a01b0380835116845280602084015116602085015280604084015116604085015280606084015116606085015250608082015160a060808501526102ad60a08501826126e1565b600061012082518185526127708286018261270d565b9150506020830151602085015260408301516040850152606083015180516060860152602081015115156080860152604081015160a0860152606081015160c0860152608081015160e086015260a0810151610100860152508091505092915050565b6020815260006107ab602083018461275a565b600080600080608085870312156127fc57600080fd5b84356128078161235b565b935060208501356128178161235b565b93969395505050506040820135916060013590565b60006101a0825160018060a01b03808251168652806020830151166020870152806040830151166040870152505060208301518051606086015260208101516080860152604081015160a0860152606081015160c0860152608081015160e086015260a081015161010086015260c081015161012086015260e08101516101408601525060408301516128c56101608601825115159052565b506060830151816101808601526112fb828601826126e1565b6000602080830181845280855180835260408601915060408160051b870101925083870160005b8281101561293357603f1988860301845261292185835161282c565b94509285019290850190600101612905565b5092979650505050505050565b6000806000806000806000610100888a03121561295c57600080fd5b87356129678161235b565b965060208801356129778161235b565b955060408801356129878161235b565b945060608801356129978161235b565b93506129a68960808a0161244c565b925060c08801356129b68161249a565b915060e08801356129c68161249a565b8091505092959891949750929550565b60008060008060008060e087890312156129ef57600080fd5b86356129fa8161235b565b95506020870135612a0a8161235b565b94506040870135612a1a8161235b565b93506060870135612a2a8161235b565b9250612a39886080890161244c565b915060c0870135612a498161249a565b809150509295509295509295565b600080600060608486031215612a6c57600080fd5b8335612a778161235b565b95602085013595506040909401359392505050565b6000602080830181845280855180835260408601915060408160051b870101925083870160005b8281101561293357603f19888603018452612acf85835161270d565b94509285019290850190600101612ab3565b60008060008060008060c08789031215612afa57600080fd5b8635612b058161235b565b95506020870135612b158161235b565b94506040870135612b258161235b565b93506060870135612b358161235b565b9598949750929560808101359460a0909101359350915050565b60006101208251818552612b658286018261282c565b915050602083015160208501526040830151805160408601526020810151606086015260408101516080860152606081015160a0860152608081015160c086015260a0810151151560e086015260c08101511515610100860152508091505092915050565b6000602080830181845280855180835260408601915060408160051b870101925083870160005b8281101561293357603f19888603018452612c0d858351612b4f565b94509285019290850190600101612bf1565b60008060008060808587031215612c3557600080fd5b8435612c408161235b565b93506020850135612c508161235b565b92506040850135612c608161235b565b9396929550929360600135925050565b6020815260006107ab6020830184612b4f565b60006001600160401b03821115612c9c57612c9c612373565b5060051b60200190565b600080600080600060a08688031215612cbe57600080fd5b8535612cc98161235b565b9450602086810135612cda8161235b565b945060408701356001600160401b03811115612cf557600080fd5b8701601f81018913612d0657600080fd5b8035612d1461259182612c83565b81815260c0918202830184019184820191908c841115612d3357600080fd5b938501935b83851015612d5957612d4a8d8661260e565b83529384019391850191612d38565b50989b979a50979860608101359850608001359695505050505050565b6000602080830181845280855180835260408601915060408160051b870101925083870160005b8281101561293357603f19888603018452612db985835161275a565b94509285019290850190600101612d9d565b6001600160a01b0391909116815260200190565b600082601f830112612df057600080fd5b8151612dfe61259182612425565b818152846020838601011115612e1357600080fd5b6102ad8260208301602087016126bd565b600060208284031215612e3657600080fd5b81516001600160401b0380821115612e4d57600080fd5b9083019060a08286031215612e6157600080fd5b612e69612389565b8251612e748161235b565b81526020830151612e848161235b565b60208201526040830151612e978161235b565b60408201526060830151612eaa8161235b565b6060820152608083015182811115612ec157600080fd5b612ecd87828601612ddf565b60808301525095945050505050565b600060208284031215612eee57600080fd5b5051919050565b6001600160a01b039390931683526020830191909152604082015260600190565b60006020808385031215612f2957600080fd5b82516001600160401b03811115612f3f57600080fd5b8301601f81018513612f5057600080fd5b8051612f5e61259182612c83565b81815260059190911b82018301908381019087831115612f7d57600080fd5b928401925b8284101561053457835182529284019290840190612f82565b634e487b7160e01b600052603260045260246000fd5b6000610100808385031215612fc557600080fd5b604051908101906001600160401b0382118183101715612fe757612fe7612373565b81604052809250835181526020840151602082015260408401516040820152606084015160608201526080840151608082015260a084015160a082015260c084015160c082015260e084015160e0820152505092915050565b60006020828403121561305257600080fd5b604051602081016001600160401b038111828210171561307457613074612373565b806040525080915082516130878161249a565b905292915050565b6000602082840312156130a157600080fd5b81516001600160401b03808211156130b857600080fd5b908301908185036101a08112156130ce57600080fd5b6130d66123d3565b60608212156130e457600080fd5b6130ec6123b1565b915083516130f98161235b565b825260208401516131098161235b565b6020830152604084015161311c8161235b565b60408301528181526131318760608601612fb1565b6020820152613144876101608601613040565b604082015261018084015191508282111561315e57600080fd5b61316a87838601612ddf565b60608201529695505050505050565b634e487b7160e01b600052601160045260246000fd5b6000600182016131a1576131a1613179565b5060010190565b600060208083850312156131bb57600080fd5b82516001600160401b038111156131d157600080fd5b8301601f810185136131e257600080fd5b80516131f061259182612c83565b81815260059190911b8201830190838101908783111561320f57600080fd5b928401925b828410156105345783516132278161235b565b82529284019290840190613214565b600081600019048311821515161561325057613250613179565b500290565b634e487b7160e01b600052601260045260246000fd5b60008261327a5761327a613255565b500490565b8082018082111561130057611300613179565b80820182811260008312801582168215821617156132b2576132b2613179565b505092915050565b8181038181111561130057611300613179565b6000600160ff1b82016132e2576132e2613179565b5060000390565b818103600083128015838313168383128216171561330957613309613179565b5092915050565b60008261331f5761331f613255565b600160ff1b82146000198414161561333957613339613179565b500590565b60006001600160ff1b038184138284138082168684048611161561336457613364613179565b600160ff1b600087128281168783058912161561338357613383613179565b6000871292508782058712848416161561339f5761339f613179565b878505871281841616156133b5576133b5613179565b50505092909302939250505056fea2646970667358221220c15d89a5a44fdb215afe37e4054ad1d1fa4e5b6b1ed57d464be91f7c3d30e1ff64736f6c63430008100033",
  "linkReferences": {},
  "deployedLinkReferences": {}
}