{
  "_format": "hh-sol-artifact-1",
  "contractName": "Reader",
  "sourceName": "contracts/reader/Reader.sol",
  "abi": [
    {
      "inputs": [],
      "name": "EmptyMarket",
      "type": "error"
    },
    {
      "inputs": [
        {
          "internalType": "contract DataStore",
          "name": "dataStore",
          "type": "address"
        },
        {
          "components": [
            {
              "internalType": "address",
              "name": "marketToken",
              "type": "address"
            },
            {
              "internalType": "address",
              "name": "indexToken",
              "type": "address"
            },
            {
              "internalType": "address",
              "name": "longToken",
              "type": "address"
            },
            {
              "internalType": "address",
              "name": "shortToken",
              "type": "address"
            },
            {
              "internalType": "bytes",
              "name": "data",
              "type": "bytes"
            }
          ],
          "internalType": "struct Market.Props",
          "name": "market",
          "type": "tuple"
        },
        {
          "components": [
            {
              "internalType": "uint256",
              "name": "min",
              "type": "uint256"
            },
            {
              "internalType": "uint256",
              "name": "max",
              "type": "uint256"
            }
          ],
          "internalType": "struct Price.Props",
          "name": "longTokenPrice",
          "type": "tuple"
        },
        {
          "components": [
            {
              "internalType": "uint256",
              "name": "min",
              "type": "uint256"
            },
            {
              "internalType": "uint256",
              "name": "max",
              "type": "uint256"
            }
          ],
          "internalType": "struct Price.Props",
          "name": "shortTokenPrice",
          "type": "tuple"
        },
        {
          "components": [
            {
              "internalType": "uint256",
              "name": "min",
              "type": "uint256"
            },
            {
              "internalType": "uint256",
              "name": "max",
              "type": "uint256"
            }
          ],
          "internalType": "struct Price.Props",
          "name": "indexTokenPrice",
          "type": "tuple"
        },
        {
          "internalType": "bool",
          "name": "maximize",
          "type": "bool"
        }
      ],
      "name": "getMarketTokenPrice",
      "outputs": [
        {
          "internalType": "uint256",
          "name": "",
          "type": "uint256"
        }
      ],
      "stateMutability": "view",
      "type": "function"
    },
    {
      "inputs": [
        {
          "internalType": "contract MarketStore",
          "name": "marketStore",
          "type": "address"
        },
        {
          "internalType": "uint256",
          "name": "start",
          "type": "uint256"
        },
        {
          "internalType": "uint256",
          "name": "end",
          "type": "uint256"
        }
      ],
      "name": "getMarkets",
      "outputs": [
        {
          "components": [
            {
              "internalType": "address",
              "name": "marketToken",
              "type": "address"
            },
            {
              "internalType": "address",
              "name": "indexToken",
              "type": "address"
            },
            {
              "internalType": "address",
              "name": "longToken",
              "type": "address"
            },
            {
              "internalType": "address",
              "name": "shortToken",
              "type": "address"
            },
            {
              "internalType": "bytes",
              "name": "data",
              "type": "bytes"
            }
          ],
          "internalType": "struct Market.Props[]",
          "name": "",
          "type": "tuple[]"
        }
      ],
      "stateMutability": "view",
      "type": "function"
    },
    {
      "inputs": [
        {
          "internalType": "contract DataStore",
          "name": "dataStore",
          "type": "address"
        },
        {
          "internalType": "address",
          "name": "market",
          "type": "address"
        },
        {
          "internalType": "address",
          "name": "token",
          "type": "address"
        }
      ],
      "name": "getPoolAmount",
      "outputs": [
        {
          "internalType": "uint256",
          "name": "",
          "type": "uint256"
        }
      ],
      "stateMutability": "view",
      "type": "function"
    },
    {
      "inputs": [
        {
          "internalType": "contract DataStore",
          "name": "dataStore",
          "type": "address"
        },
        {
          "internalType": "address",
          "name": "market",
          "type": "address"
        },
        {
          "internalType": "address",
          "name": "token",
          "type": "address"
        }
      ],
      "name": "getSwapImpactPoolAmount",
      "outputs": [
        {
          "internalType": "uint256",
          "name": "",
          "type": "uint256"
        }
      ],
      "stateMutability": "view",
      "type": "function"
    }
  ],
  "bytecode": "0x608060405234801561001057600080fd5b506113b2806100206000396000f3fe608060405234801561001057600080fd5b506004361061004c5760003560e01c8063075612fc14610051578063a36eb91b14610077578063b25f24da1461008a578063ce3264bf1461009d575b600080fd5b61006461005f366004610df9565b6100bd565b6040519081526020015b60405180910390f35b610064610085366004610f4f565b6100da565b610064610098366004610f4f565b6100f1565b6100b06100ab366004610f9a565b6100fe565b60405161006e9190610ff3565b60006100cd8787878787876102f8565b90505b9695505050505050565b60006100e7848484610358565b90505b9392505050565b60006100e78484846103d2565b60606000846001600160a01b031663fd69f3c26040518163ffffffff1660e01b8152600401602060405180830381865afa158015610140573d6000803e3d6000fd5b505050506040513d601f19601f8201168201806040525081019061016491906110b4565b90508084106101a757604080516000808252602082019092529061019e565b61018b610cbc565b8152602001906001900390816101835790505b509150506100ea565b808311156101b3578092505b6040516235673160e31b815260048101859052602481018490526000906001600160a01b038716906301ab398890604401600060405180830381865afa158015610201573d6000803e3d6000fd5b505050506040513d6000823e601f3d908101601f1916820160405261022991908101906110cd565b9050600081516001600160401b0381111561024657610246610d01565b60405190808252806020026020018201604052801561027f57816020015b61026c610cbc565b8152602001906001900390816102645790505b50905060005b82518110156102ed5760008382815181106102a2576102a2611172565b6020026020010151905060006102b88a836103ed565b9050808484815181106102cd576102cd611172565b6020026020010181905250505080806102e59061119e565b915050610285565b509695505050505050565b60008061030988888888888861047b565b90508060000361031d5760009150506100d0565b600061032c88600001516105a1565b905080610341670de0b6b3a7640000846111b7565b61034b91906111d6565b9998505050505050505050565b6000836001600160a01b031663bd02d0f56103738585610605565b6040518263ffffffff1660e01b815260040161039191815260200190565b602060405180830381865afa1580156103ae573d6000803e3d6000fd5b505050506040513d601f19601f820116820180604052508101906100e791906110b4565b6000836001600160a01b031663bd02d0f5610373858561068d565b6103f5610cbc565b6040516330af0bbf60e21b81526001600160a01b0383811660048301526000919085169063c2bc2efc90602401600060405180830381865afa15801561043f573d6000803e3d6000fd5b505050506040513d6000823e601f3d908101601f1916820160405261046791908101906111f8565b9050610472816106ca565b90505b92915050565b6000806104918888600001518960400151610358565b905060006104a88989600001518a60600151610358565b905060006104b688866106f5565b6104c090846111b7565b90506104cc87866106f5565b6104d690836111b7565b6104e090826112eb565b90506104fc8a8a600001518b604001518c60600151600161070c565b61050690826112eb565b90506105228a8a600001518b604001518c60600151600061070c565b61052c90826112eb565b9050600061053e8b8b60000151610751565b905061054a87876106f5565b61055490826111b7565b61055e90836112eb565b9150600061057d8c8c600001518d604001518e606001518c8c156107ca565b90506105918361058c836112fe565b6107fd565b9c9b505050505050505050505050565b6000816001600160a01b03166318160ddd6040518163ffffffff1660e01b8152600401602060405180830381865afa1580156105e1573d6000803e3d6000fd5b505050506040513d601f19601f8201168201806040525081019061047591906110b4565b6000604051602001610636906020808252600b908201526a1413d3d317d05353d5539560aa1b604082015260600190565b60408051601f198184030181528282528051602091820120908301526001600160a01b0380861691830191909152831660608201526080015b60405160208183030381529060405280519060200120905092915050565b60006040516020016106369060208082526017908201527614d5d05417d253541050d517d413d3d317d05353d55395604a1b604082015260600190565b80516001600160a01b03166106f2576040516302fde0d760e11b815260040160405180910390fd5b50565b600081610703578251610472565b50506020015190565b60008061071c8787878787610834565b9050600061072b88888661086b565b9050600061073a898987610886565b90508061074783856111b7565b61034b919061131a565b6000826001600160a01b031663bd02d0f561076b846108a1565b6040518263ffffffff1660e01b815260040161078991815260200190565b602060405180830381865afa1580156107a6573d6000803e3d6000fd5b505050506040513d601f19601f8201168201806040525081019061047291906110b4565b6000806107dd888888888860018961092c565b905060006107f1898989898960008a61092c565b905061034b818361132d565b60008082131561082157610810826109c5565b61081a90846112eb565b9050610475565b61082a826109c5565b610472908461131a565b600080610843878787866109dc565b90506000610853888887876109dc565b905061085f81836112eb565b98975050505050505050565b6000836001600160a01b031663bd02d0f56103738585610a60565b6000836001600160a01b031663bd02d0f56103738585610adb565b60006040516020016108e2906020808252601b908201527a1413d4d2551253d397d253541050d517d413d3d317d05353d55395602a1b604082015260600190565b60408051601f198184030181528282528051602091820120908301526001600160a01b03841690820152606001604051602081830303815290604052805190602001209050919050565b60008061094461093f8a8a8a8a89610834565b610b10565b905060006109558a8a8a8a89610b7e565b9050811580610962575080155b15610972576000925050506109ba565b600061097f878787610b9d565b9050600061099061093f83856111b7565b90506000876109a8576109a38286611355565b6109b2565b6109b28583611355565b955050505050505b979650505050505050565b6000808212156109d85781600003610475565b5090565b6000846001600160a01b031663bd02d0f56109f8868686610bd6565b6040518263ffffffff1660e01b8152600401610a1691815260200190565b602060405180830381865afa158015610a33573d6000803e3d6000fd5b505050506040513d601f19601f82011682018060405250810190610a5791906110b4565b95945050505050565b6000604051602001610aa1906020808252601b908201527a21aaa6aaa620aa24ab22afa127a92927aba4a723afa320a1aa27a960291b604082015260600190565b60408051601f198184030181528282528051602091820120908301526001600160a01b03851690820152821515606082015260800161066f565b6000604051602001610aa1906020808252600f908201526e544f54414c5f424f52524f57494e4760881b604082015260600190565b60006001600160ff1b038211156109d85760405162461bcd60e51b815260206004820152602860248201527f53616665436173743a2076616c756520646f65736e27742066697420696e2061604482015267371034b73a191a9b60c11b606482015260840160405180910390fd5b600080610b8d87878786610c68565b9050600061085388888787610c68565b60008215610bbe5781610bb1578351610bb7565b83602001515b90506100ea565b81610bcd5783602001516100e7565b50509051919050565b6000604051602001610c09906020808252600d908201526c13d4115397d2539511549154d5609a1b604082015260600190565b60408051601f198184030181528282528051602091820120908301526001600160a01b038087169183019190915284166060820152821515608082015260a0016040516020818303038152906040528051906020012090509392505050565b6000846001600160a01b031663bd02d0f56109f88686866000604051602001610c09906020808252601790820152764f50454e5f494e5445524553545f494e5f544f4b454e5360481b604082015260600190565b6040805160a081018252600080825260208201819052918101829052606080820192909252608081019190915290565b6001600160a01b03811681146106f257600080fd5b634e487b7160e01b600052604160045260246000fd5b60405160a081016001600160401b0381118282101715610d3957610d39610d01565b60405290565b604051601f8201601f191681016001600160401b0381118282101715610d6757610d67610d01565b604052919050565b60006001600160401b03821115610d8857610d88610d01565b50601f01601f191660200190565b600060408284031215610da857600080fd5b604080519081016001600160401b0381118282101715610dca57610dca610d01565b604052823581526020928301359281019290925250919050565b80358015158114610df457600080fd5b919050565b6000806000806000806101208789031215610e1357600080fd5b8635610e1e81610cec565b95506020878101356001600160401b0380821115610e3b57600080fd5b9089019060a0828c031215610e4f57600080fd5b610e57610d17565b8235610e6281610cec565b815282840135610e7181610cec565b818501526040830135610e8381610cec565b60408201526060830135610e9681610cec565b6060820152608083013582811115610ead57600080fd5b8084019350508b601f840112610ec257600080fd5b82359150610ed7610ed283610d6f565b610d3f565b8281528c85848601011115610eeb57600080fd5b828585018683013760008584830101528060808301525080985050505050610f168860408901610d96565b9350610f258860808901610d96565b9250610f348860c08901610d96565b9150610f436101008801610de4565b90509295509295509295565b600080600060608486031215610f6457600080fd5b8335610f6f81610cec565b92506020840135610f7f81610cec565b91506040840135610f8f81610cec565b809150509250925092565b600080600060608486031215610faf57600080fd5b8335610fba81610cec565b95602085013595506040909401359392505050565b60005b83811015610fea578181015183820152602001610fd2565b50506000910152565b60006020808301818452808551808352604092508286019150828160051b87010184880160005b838110156110a657888303603f19018552815180516001600160a01b03908116855288820151811689860152878201518116888601526060808301519091169085015260809081015160a091850182905280519185018290529060c09061108681838801858d01610fcf565b96890196601f01601f19169490940190930192509086019060010161101a565b509098975050505050505050565b6000602082840312156110c657600080fd5b5051919050565b600060208083850312156110e057600080fd5b82516001600160401b03808211156110f757600080fd5b818501915085601f83011261110b57600080fd5b81518181111561111d5761111d610d01565b8060051b915061112e848301610d3f565b818152918301840191848101908884111561114857600080fd5b938501935b8385101561085f578451925061116283610cec565b828252938501939085019061114d565b634e487b7160e01b600052603260045260246000fd5b634e487b7160e01b600052601160045260246000fd5b6000600182016111b0576111b0611188565b5060010190565b60008160001904831182151516156111d1576111d1611188565b500290565b6000826111f357634e487b7160e01b600052601260045260246000fd5b500490565b6000602080838503121561120b57600080fd5b82516001600160401b038082111561122257600080fd5b9084019060a0828703121561123657600080fd5b61123e610d17565b825161124981610cec565b81528284015161125881610cec565b81850152604083015161126a81610cec565b6040820152606083015161127d81610cec565b606082015260808301518281111561129457600080fd5b80840193505086601f8401126112a957600080fd5b825191506112b9610ed283610d6f565b82815287858486010111156112cd57600080fd5b6112dc83868301878701610fcf565b60808201529695505050505050565b8082018082111561047557610475611188565b6000600160ff1b820161131357611313611188565b5060000390565b8181038181111561047557610475611188565b808201828112600083128015821682158216171561134d5761134d611188565b505092915050565b818103600083128015838313168383128216171561137557611375611188565b509291505056fea2646970667358221220d31325d1d61bffe7bbc5fa82ffb92682c5e7ded030f9571b2d809d70c33120b564736f6c63430008100033",
  "linkReferences": {},
  "deployedLinkReferences": {}
}