{
  "_format": "hh-sol-artifact-1",
  "contractName": "Reader",
  "sourceName": "contracts/reader/Reader.sol",
  "abi": [
    {
      "inputs": [
        {
          "internalType": "uint256",
          "name": "x",
          "type": "uint256"
        }
      ],
      "name": "PRBMathUD60x18__Exp2InputTooBig",
      "type": "error"
    },
    {
      "inputs": [
        {
          "internalType": "uint256",
          "name": "x",
          "type": "uint256"
        }
      ],
      "name": "PRBMathUD60x18__LogInputTooSmall",
      "type": "error"
    },
    {
      "inputs": [
        {
          "internalType": "uint256",
          "name": "prod1",
          "type": "uint256"
        }
      ],
      "name": "PRBMath__MulDivFixedPointOverflow",
      "type": "error"
    },
    {
      "inputs": [],
      "name": "UnableToGetBorrowingFactorEmptyPoolUsd",
      "type": "error"
    },
    {
      "inputs": [],
      "name": "UnableToGetFundingFactorEmptyOpenInterest",
      "type": "error"
    },
    {
      "inputs": [
        {
          "internalType": "uint256",
          "name": "positionBorrowingFactor",
          "type": "uint256"
        },
        {
          "internalType": "uint256",
          "name": "cumulativeBorrowingFactor",
          "type": "uint256"
        }
      ],
      "name": "UnexpectedBorrowingFactor",
      "type": "error"
    },
    {
      "inputs": [
        {
          "internalType": "int256",
          "name": "poolValue",
          "type": "int256"
        }
      ],
      "name": "UnexpectedPoolValueForTokenPriceCalculation",
      "type": "error"
    },
    {
      "inputs": [],
      "name": "UnexpectedSupplyForTokenPriceCalculation",
      "type": "error"
    },
    {
      "inputs": [
        {
          "internalType": "contract DataStore",
          "name": "dataStore",
          "type": "address"
        },
        {
          "internalType": "address",
          "name": "account",
          "type": "address"
        },
        {
          "internalType": "uint256",
          "name": "start",
          "type": "uint256"
        },
        {
          "internalType": "uint256",
          "name": "end",
          "type": "uint256"
        }
      ],
      "name": "getAccountOrders",
      "outputs": [
        {
          "components": [
            {
              "components": [
                {
                  "internalType": "address",
                  "name": "account",
                  "type": "address"
                },
                {
                  "internalType": "address",
                  "name": "receiver",
                  "type": "address"
                },
                {
                  "internalType": "address",
                  "name": "callbackContract",
                  "type": "address"
                },
                {
                  "internalType": "address",
                  "name": "market",
                  "type": "address"
                },
                {
                  "internalType": "address",
                  "name": "initialCollateralToken",
                  "type": "address"
                },
                {
                  "internalType": "address[]",
                  "name": "swapPath",
                  "type": "address[]"
                }
              ],
              "internalType": "struct Order.Addresses",
              "name": "addresses",
              "type": "tuple"
            },
            {
              "components": [
                {
                  "internalType": "enum Order.OrderType",
                  "name": "orderType",
                  "type": "uint8"
                },
                {
                  "internalType": "enum Order.DecreasePositionSwapType",
                  "name": "decreasePositionSwapType",
                  "type": "uint8"
                },
                {
                  "internalType": "uint256",
                  "name": "sizeDeltaUsd",
                  "type": "uint256"
                },
                {
                  "internalType": "uint256",
                  "name": "initialCollateralDeltaAmount",
                  "type": "uint256"
                },
                {
                  "internalType": "uint256",
                  "name": "triggerPrice",
                  "type": "uint256"
                },
                {
                  "internalType": "uint256",
                  "name": "acceptablePrice",
                  "type": "uint256"
                },
                {
                  "internalType": "uint256",
                  "name": "executionFee",
                  "type": "uint256"
                },
                {
                  "internalType": "uint256",
                  "name": "callbackGasLimit",
                  "type": "uint256"
                },
                {
                  "internalType": "uint256",
                  "name": "minOutputAmount",
                  "type": "uint256"
                },
                {
                  "internalType": "uint256",
                  "name": "updatedAtBlock",
                  "type": "uint256"
                }
              ],
              "internalType": "struct Order.Numbers",
              "name": "numbers",
              "type": "tuple"
            },
            {
              "components": [
                {
                  "internalType": "bool",
                  "name": "isLong",
                  "type": "bool"
                },
                {
                  "internalType": "bool",
                  "name": "shouldUnwrapNativeToken",
                  "type": "bool"
                },
                {
                  "internalType": "bool",
                  "name": "isFrozen",
                  "type": "bool"
                }
              ],
              "internalType": "struct Order.Flags",
              "name": "flags",
              "type": "tuple"
            }
          ],
          "internalType": "struct Order.Props[]",
          "name": "",
          "type": "tuple[]"
        }
      ],
      "stateMutability": "view",
      "type": "function"
    },
    {
      "inputs": [
        {
          "internalType": "contract DataStore",
          "name": "dataStore",
          "type": "address"
        },
        {
          "internalType": "bytes32[]",
          "name": "positionKeys",
          "type": "bytes32[]"
        },
        {
          "components": [
            {
              "components": [
                {
                  "internalType": "uint256",
                  "name": "min",
                  "type": "uint256"
                },
                {
                  "internalType": "uint256",
                  "name": "max",
                  "type": "uint256"
                }
              ],
              "internalType": "struct Price.Props",
              "name": "indexTokenPrice",
              "type": "tuple"
            },
            {
              "components": [
                {
                  "internalType": "uint256",
                  "name": "min",
                  "type": "uint256"
                },
                {
                  "internalType": "uint256",
                  "name": "max",
                  "type": "uint256"
                }
              ],
              "internalType": "struct Price.Props",
              "name": "longTokenPrice",
              "type": "tuple"
            },
            {
              "components": [
                {
                  "internalType": "uint256",
                  "name": "min",
                  "type": "uint256"
                },
                {
                  "internalType": "uint256",
                  "name": "max",
                  "type": "uint256"
                }
              ],
              "internalType": "struct Price.Props",
              "name": "shortTokenPrice",
              "type": "tuple"
            }
          ],
          "internalType": "struct MarketUtils.MarketPrices[]",
          "name": "prices",
          "type": "tuple[]"
        }
      ],
      "name": "getAccountPositionInfoList",
      "outputs": [
        {
          "components": [
            {
              "components": [
                {
                  "components": [
                    {
                      "internalType": "address",
                      "name": "account",
                      "type": "address"
                    },
                    {
                      "internalType": "address",
                      "name": "market",
                      "type": "address"
                    },
                    {
                      "internalType": "address",
                      "name": "collateralToken",
                      "type": "address"
                    }
                  ],
                  "internalType": "struct Position.Addresses",
                  "name": "addresses",
                  "type": "tuple"
                },
                {
                  "components": [
                    {
                      "internalType": "uint256",
                      "name": "sizeInUsd",
                      "type": "uint256"
                    },
                    {
                      "internalType": "uint256",
                      "name": "sizeInTokens",
                      "type": "uint256"
                    },
                    {
                      "internalType": "uint256",
                      "name": "collateralAmount",
                      "type": "uint256"
                    },
                    {
                      "internalType": "uint256",
                      "name": "borrowingFactor",
                      "type": "uint256"
                    },
                    {
                      "internalType": "int256",
                      "name": "longTokenFundingAmountPerSize",
                      "type": "int256"
                    },
                    {
                      "internalType": "int256",
                      "name": "shortTokenFundingAmountPerSize",
                      "type": "int256"
                    },
                    {
                      "internalType": "uint256",
                      "name": "increasedAtBlock",
                      "type": "uint256"
                    },
                    {
                      "internalType": "uint256",
                      "name": "decreasedAtBlock",
                      "type": "uint256"
                    }
                  ],
                  "internalType": "struct Position.Numbers",
                  "name": "numbers",
                  "type": "tuple"
                },
                {
                  "components": [
                    {
                      "internalType": "bool",
                      "name": "isLong",
                      "type": "bool"
                    }
                  ],
                  "internalType": "struct Position.Flags",
                  "name": "flags",
                  "type": "tuple"
                }
              ],
              "internalType": "struct Position.Props",
              "name": "position",
              "type": "tuple"
            },
            {
              "internalType": "uint256",
              "name": "pendingBorrowingFees",
              "type": "uint256"
            },
            {
              "components": [
                {
                  "internalType": "uint256",
                  "name": "fundingFeeAmount",
                  "type": "uint256"
                },
                {
                  "internalType": "uint256",
                  "name": "claimableLongTokenAmount",
                  "type": "uint256"
                },
                {
                  "internalType": "uint256",
                  "name": "claimableShortTokenAmount",
                  "type": "uint256"
                },
                {
                  "internalType": "int256",
                  "name": "latestLongTokenFundingAmountPerSize",
                  "type": "int256"
                },
                {
                  "internalType": "int256",
                  "name": "latestShortTokenFundingAmountPerSize",
                  "type": "int256"
                },
                {
                  "internalType": "bool",
                  "name": "hasPendingLongTokenFundingFee",
                  "type": "bool"
                },
                {
                  "internalType": "bool",
                  "name": "hasPendingShortTokenFundingFee",
                  "type": "bool"
                }
              ],
              "internalType": "struct PositionPricingUtils.PositionFundingFees",
              "name": "pendingFundingFees",
              "type": "tuple"
            }
          ],
          "internalType": "struct Reader.PositionInfo[]",
          "name": "",
          "type": "tuple[]"
        }
      ],
      "stateMutability": "view",
      "type": "function"
    },
    {
      "inputs": [
        {
          "internalType": "contract DataStore",
          "name": "dataStore",
          "type": "address"
        },
        {
          "internalType": "address",
          "name": "account",
          "type": "address"
        },
        {
          "internalType": "uint256",
          "name": "start",
          "type": "uint256"
        },
        {
          "internalType": "uint256",
          "name": "end",
          "type": "uint256"
        }
      ],
      "name": "getAccountPositions",
      "outputs": [
        {
          "components": [
            {
              "components": [
                {
                  "internalType": "address",
                  "name": "account",
                  "type": "address"
                },
                {
                  "internalType": "address",
                  "name": "market",
                  "type": "address"
                },
                {
                  "internalType": "address",
                  "name": "collateralToken",
                  "type": "address"
                }
              ],
              "internalType": "struct Position.Addresses",
              "name": "addresses",
              "type": "tuple"
            },
            {
              "components": [
                {
                  "internalType": "uint256",
                  "name": "sizeInUsd",
                  "type": "uint256"
                },
                {
                  "internalType": "uint256",
                  "name": "sizeInTokens",
                  "type": "uint256"
                },
                {
                  "internalType": "uint256",
                  "name": "collateralAmount",
                  "type": "uint256"
                },
                {
                  "internalType": "uint256",
                  "name": "borrowingFactor",
                  "type": "uint256"
                },
                {
                  "internalType": "int256",
                  "name": "longTokenFundingAmountPerSize",
                  "type": "int256"
                },
                {
                  "internalType": "int256",
                  "name": "shortTokenFundingAmountPerSize",
                  "type": "int256"
                },
                {
                  "internalType": "uint256",
                  "name": "increasedAtBlock",
                  "type": "uint256"
                },
                {
                  "internalType": "uint256",
                  "name": "decreasedAtBlock",
                  "type": "uint256"
                }
              ],
              "internalType": "struct Position.Numbers",
              "name": "numbers",
              "type": "tuple"
            },
            {
              "components": [
                {
                  "internalType": "bool",
                  "name": "isLong",
                  "type": "bool"
                }
              ],
              "internalType": "struct Position.Flags",
              "name": "flags",
              "type": "tuple"
            }
          ],
          "internalType": "struct Position.Props[]",
          "name": "",
          "type": "tuple[]"
        }
      ],
      "stateMutability": "view",
      "type": "function"
    },
    {
      "inputs": [
        {
          "internalType": "contract DataStore",
          "name": "dataStore",
          "type": "address"
        },
        {
          "internalType": "bytes32",
          "name": "key",
          "type": "bytes32"
        }
      ],
      "name": "getDeposit",
      "outputs": [
        {
          "components": [
            {
              "components": [
                {
                  "internalType": "address",
                  "name": "account",
                  "type": "address"
                },
                {
                  "internalType": "address",
                  "name": "receiver",
                  "type": "address"
                },
                {
                  "internalType": "address",
                  "name": "callbackContract",
                  "type": "address"
                },
                {
                  "internalType": "address",
                  "name": "market",
                  "type": "address"
                },
                {
                  "internalType": "address",
                  "name": "initialLongToken",
                  "type": "address"
                },
                {
                  "internalType": "address",
                  "name": "initialShortToken",
                  "type": "address"
                },
                {
                  "internalType": "address[]",
                  "name": "longTokenSwapPath",
                  "type": "address[]"
                },
                {
                  "internalType": "address[]",
                  "name": "shortTokenSwapPath",
                  "type": "address[]"
                }
              ],
              "internalType": "struct Deposit.Addresses",
              "name": "addresses",
              "type": "tuple"
            },
            {
              "components": [
                {
                  "internalType": "uint256",
                  "name": "initialLongTokenAmount",
                  "type": "uint256"
                },
                {
                  "internalType": "uint256",
                  "name": "initialShortTokenAmount",
                  "type": "uint256"
                },
                {
                  "internalType": "uint256",
                  "name": "minMarketTokens",
                  "type": "uint256"
                },
                {
                  "internalType": "uint256",
                  "name": "updatedAtBlock",
                  "type": "uint256"
                },
                {
                  "internalType": "uint256",
                  "name": "executionFee",
                  "type": "uint256"
                },
                {
                  "internalType": "uint256",
                  "name": "callbackGasLimit",
                  "type": "uint256"
                }
              ],
              "internalType": "struct Deposit.Numbers",
              "name": "numbers",
              "type": "tuple"
            },
            {
              "components": [
                {
                  "internalType": "bool",
                  "name": "shouldUnwrapNativeToken",
                  "type": "bool"
                }
              ],
              "internalType": "struct Deposit.Flags",
              "name": "flags",
              "type": "tuple"
            }
          ],
          "internalType": "struct Deposit.Props",
          "name": "",
          "type": "tuple"
        }
      ],
      "stateMutability": "view",
      "type": "function"
    },
    {
      "inputs": [
        {
          "internalType": "contract DataStore",
          "name": "dataStore",
          "type": "address"
        },
        {
          "internalType": "address",
          "name": "key",
          "type": "address"
        }
      ],
      "name": "getMarket",
      "outputs": [
        {
          "components": [
            {
              "internalType": "address",
              "name": "marketToken",
              "type": "address"
            },
            {
              "internalType": "address",
              "name": "indexToken",
              "type": "address"
            },
            {
              "internalType": "address",
              "name": "longToken",
              "type": "address"
            },
            {
              "internalType": "address",
              "name": "shortToken",
              "type": "address"
            }
          ],
          "internalType": "struct Market.Props",
          "name": "",
          "type": "tuple"
        }
      ],
      "stateMutability": "view",
      "type": "function"
    },
    {
      "inputs": [
        {
          "internalType": "contract DataStore",
          "name": "dataStore",
          "type": "address"
        },
        {
          "components": [
            {
              "components": [
                {
                  "internalType": "uint256",
                  "name": "min",
                  "type": "uint256"
                },
                {
                  "internalType": "uint256",
                  "name": "max",
                  "type": "uint256"
                }
              ],
              "internalType": "struct Price.Props",
              "name": "indexTokenPrice",
              "type": "tuple"
            },
            {
              "components": [
                {
                  "internalType": "uint256",
                  "name": "min",
                  "type": "uint256"
                },
                {
                  "internalType": "uint256",
                  "name": "max",
                  "type": "uint256"
                }
              ],
              "internalType": "struct Price.Props",
              "name": "longTokenPrice",
              "type": "tuple"
            },
            {
              "components": [
                {
                  "internalType": "uint256",
                  "name": "min",
                  "type": "uint256"
                },
                {
                  "internalType": "uint256",
                  "name": "max",
                  "type": "uint256"
                }
              ],
              "internalType": "struct Price.Props",
              "name": "shortTokenPrice",
              "type": "tuple"
            }
          ],
          "internalType": "struct MarketUtils.MarketPrices",
          "name": "prices",
          "type": "tuple"
        },
        {
          "internalType": "address",
          "name": "marketKey",
          "type": "address"
        }
      ],
      "name": "getMarketInfo",
      "outputs": [
        {
          "components": [
            {
              "components": [
                {
                  "internalType": "address",
                  "name": "marketToken",
                  "type": "address"
                },
                {
                  "internalType": "address",
                  "name": "indexToken",
                  "type": "address"
                },
                {
                  "internalType": "address",
                  "name": "longToken",
                  "type": "address"
                },
                {
                  "internalType": "address",
                  "name": "shortToken",
                  "type": "address"
                }
              ],
              "internalType": "struct Market.Props",
              "name": "market",
              "type": "tuple"
            },
            {
              "internalType": "uint256",
              "name": "borrowingFactorPerSecondForLongs",
              "type": "uint256"
            },
            {
              "internalType": "uint256",
              "name": "borrowingFactorPerSecondForShorts",
              "type": "uint256"
            },
            {
              "components": [
                {
                  "internalType": "bool",
                  "name": "longsPayShorts",
                  "type": "bool"
                },
                {
                  "internalType": "int256",
                  "name": "fundingAmountPerSize_LongCollateral_LongPosition",
                  "type": "int256"
                },
                {
                  "internalType": "int256",
                  "name": "fundingAmountPerSize_LongCollateral_ShortPosition",
                  "type": "int256"
                },
                {
                  "internalType": "int256",
                  "name": "fundingAmountPerSize_ShortCollateral_LongPosition",
                  "type": "int256"
                },
                {
                  "internalType": "int256",
                  "name": "fundingAmountPerSize_ShortCollateral_ShortPosition",
                  "type": "int256"
                }
              ],
              "internalType": "struct MarketUtils.GetNextFundingAmountPerSizeResult",
              "name": "funding",
              "type": "tuple"
            }
          ],
          "internalType": "struct Reader.MarketInfo",
          "name": "",
          "type": "tuple"
        }
      ],
      "stateMutability": "view",
      "type": "function"
    },
    {
      "inputs": [
        {
          "internalType": "contract DataStore",
          "name": "dataStore",
          "type": "address"
        },
        {
          "components": [
            {
              "components": [
                {
                  "internalType": "uint256",
                  "name": "min",
                  "type": "uint256"
                },
                {
                  "internalType": "uint256",
                  "name": "max",
                  "type": "uint256"
                }
              ],
              "internalType": "struct Price.Props",
              "name": "indexTokenPrice",
              "type": "tuple"
            },
            {
              "components": [
                {
                  "internalType": "uint256",
                  "name": "min",
                  "type": "uint256"
                },
                {
                  "internalType": "uint256",
                  "name": "max",
                  "type": "uint256"
                }
              ],
              "internalType": "struct Price.Props",
              "name": "longTokenPrice",
              "type": "tuple"
            },
            {
              "components": [
                {
                  "internalType": "uint256",
                  "name": "min",
                  "type": "uint256"
                },
                {
                  "internalType": "uint256",
                  "name": "max",
                  "type": "uint256"
                }
              ],
              "internalType": "struct Price.Props",
              "name": "shortTokenPrice",
              "type": "tuple"
            }
          ],
          "internalType": "struct MarketUtils.MarketPrices[]",
          "name": "marketPricesList",
          "type": "tuple[]"
        },
        {
          "internalType": "uint256",
          "name": "start",
          "type": "uint256"
        },
        {
          "internalType": "uint256",
          "name": "end",
          "type": "uint256"
        }
      ],
      "name": "getMarketInfoList",
      "outputs": [
        {
          "components": [
            {
              "components": [
                {
                  "internalType": "address",
                  "name": "marketToken",
                  "type": "address"
                },
                {
                  "internalType": "address",
                  "name": "indexToken",
                  "type": "address"
                },
                {
                  "internalType": "address",
                  "name": "longToken",
                  "type": "address"
                },
                {
                  "internalType": "address",
                  "name": "shortToken",
                  "type": "address"
                }
              ],
              "internalType": "struct Market.Props",
              "name": "market",
              "type": "tuple"
            },
            {
              "internalType": "uint256",
              "name": "borrowingFactorPerSecondForLongs",
              "type": "uint256"
            },
            {
              "internalType": "uint256",
              "name": "borrowingFactorPerSecondForShorts",
              "type": "uint256"
            },
            {
              "components": [
                {
                  "internalType": "bool",
                  "name": "longsPayShorts",
                  "type": "bool"
                },
                {
                  "internalType": "int256",
                  "name": "fundingAmountPerSize_LongCollateral_LongPosition",
                  "type": "int256"
                },
                {
                  "internalType": "int256",
                  "name": "fundingAmountPerSize_LongCollateral_ShortPosition",
                  "type": "int256"
                },
                {
                  "internalType": "int256",
                  "name": "fundingAmountPerSize_ShortCollateral_LongPosition",
                  "type": "int256"
                },
                {
                  "internalType": "int256",
                  "name": "fundingAmountPerSize_ShortCollateral_ShortPosition",
                  "type": "int256"
                }
              ],
              "internalType": "struct MarketUtils.GetNextFundingAmountPerSizeResult",
              "name": "funding",
              "type": "tuple"
            }
          ],
          "internalType": "struct Reader.MarketInfo[]",
          "name": "",
          "type": "tuple[]"
        }
      ],
      "stateMutability": "view",
      "type": "function"
    },
    {
      "inputs": [
        {
          "internalType": "contract DataStore",
          "name": "dataStore",
          "type": "address"
        },
        {
          "components": [
            {
              "internalType": "address",
              "name": "marketToken",
              "type": "address"
            },
            {
              "internalType": "address",
              "name": "indexToken",
              "type": "address"
            },
            {
              "internalType": "address",
              "name": "longToken",
              "type": "address"
            },
            {
              "internalType": "address",
              "name": "shortToken",
              "type": "address"
            }
          ],
          "internalType": "struct Market.Props",
          "name": "market",
          "type": "tuple"
        },
        {
          "components": [
            {
              "internalType": "uint256",
              "name": "min",
              "type": "uint256"
            },
            {
              "internalType": "uint256",
              "name": "max",
              "type": "uint256"
            }
          ],
          "internalType": "struct Price.Props",
          "name": "indexTokenPrice",
          "type": "tuple"
        },
        {
          "components": [
            {
              "internalType": "uint256",
              "name": "min",
              "type": "uint256"
            },
            {
              "internalType": "uint256",
              "name": "max",
              "type": "uint256"
            }
          ],
          "internalType": "struct Price.Props",
          "name": "longTokenPrice",
          "type": "tuple"
        },
        {
          "components": [
            {
              "internalType": "uint256",
              "name": "min",
              "type": "uint256"
            },
            {
              "internalType": "uint256",
              "name": "max",
              "type": "uint256"
            }
          ],
          "internalType": "struct Price.Props",
          "name": "shortTokenPrice",
          "type": "tuple"
        },
        {
          "internalType": "bytes32",
          "name": "pnlFactorType",
          "type": "bytes32"
        },
        {
          "internalType": "bool",
          "name": "maximize",
          "type": "bool"
        }
      ],
      "name": "getMarketTokenPrice",
      "outputs": [
        {
          "internalType": "int256",
          "name": "",
          "type": "int256"
        }
      ],
      "stateMutability": "view",
      "type": "function"
    },
    {
      "inputs": [
        {
          "internalType": "contract DataStore",
          "name": "dataStore",
          "type": "address"
        },
        {
          "internalType": "uint256",
          "name": "start",
          "type": "uint256"
        },
        {
          "internalType": "uint256",
          "name": "end",
          "type": "uint256"
        }
      ],
      "name": "getMarkets",
      "outputs": [
        {
          "components": [
            {
              "internalType": "address",
              "name": "marketToken",
              "type": "address"
            },
            {
              "internalType": "address",
              "name": "indexToken",
              "type": "address"
            },
            {
              "internalType": "address",
              "name": "longToken",
              "type": "address"
            },
            {
              "internalType": "address",
              "name": "shortToken",
              "type": "address"
            }
          ],
          "internalType": "struct Market.Props[]",
          "name": "",
          "type": "tuple[]"
        }
      ],
      "stateMutability": "view",
      "type": "function"
    },
    {
      "inputs": [
        {
          "internalType": "contract DataStore",
          "name": "dataStore",
          "type": "address"
        },
        {
          "internalType": "address",
          "name": "market",
          "type": "address"
        },
        {
          "internalType": "address",
          "name": "longToken",
          "type": "address"
        },
        {
          "internalType": "address",
          "name": "shortToken",
          "type": "address"
        },
        {
          "components": [
            {
              "internalType": "uint256",
              "name": "min",
              "type": "uint256"
            },
            {
              "internalType": "uint256",
              "name": "max",
              "type": "uint256"
            }
          ],
          "internalType": "struct Price.Props",
          "name": "indexTokenPrice",
          "type": "tuple"
        },
        {
          "internalType": "bool",
          "name": "maximize",
          "type": "bool"
        }
      ],
      "name": "getNetPnl",
      "outputs": [
        {
          "internalType": "int256",
          "name": "",
          "type": "int256"
        }
      ],
      "stateMutability": "view",
      "type": "function"
    },
    {
      "inputs": [
        {
          "internalType": "contract DataStore",
          "name": "dataStore",
          "type": "address"
        },
        {
          "internalType": "address",
          "name": "market",
          "type": "address"
        },
        {
          "internalType": "address",
          "name": "longToken",
          "type": "address"
        },
        {
          "internalType": "address",
          "name": "shortToken",
          "type": "address"
        },
        {
          "components": [
            {
              "internalType": "uint256",
              "name": "min",
              "type": "uint256"
            },
            {
              "internalType": "uint256",
              "name": "max",
              "type": "uint256"
            }
          ],
          "internalType": "struct Price.Props",
          "name": "indexTokenPrice",
          "type": "tuple"
        },
        {
          "internalType": "bool",
          "name": "isLong",
          "type": "bool"
        },
        {
          "internalType": "bool",
          "name": "maximize",
          "type": "bool"
        }
      ],
      "name": "getOpenInterestWithPnl",
      "outputs": [
        {
          "internalType": "int256",
          "name": "",
          "type": "int256"
        }
      ],
      "stateMutability": "view",
      "type": "function"
    },
    {
      "inputs": [
        {
          "internalType": "contract DataStore",
          "name": "dataStore",
          "type": "address"
        },
        {
          "internalType": "bytes32",
          "name": "key",
          "type": "bytes32"
        }
      ],
      "name": "getOrder",
      "outputs": [
        {
          "components": [
            {
              "components": [
                {
                  "internalType": "address",
                  "name": "account",
                  "type": "address"
                },
                {
                  "internalType": "address",
                  "name": "receiver",
                  "type": "address"
                },
                {
                  "internalType": "address",
                  "name": "callbackContract",
                  "type": "address"
                },
                {
                  "internalType": "address",
                  "name": "market",
                  "type": "address"
                },
                {
                  "internalType": "address",
                  "name": "initialCollateralToken",
                  "type": "address"
                },
                {
                  "internalType": "address[]",
                  "name": "swapPath",
                  "type": "address[]"
                }
              ],
              "internalType": "struct Order.Addresses",
              "name": "addresses",
              "type": "tuple"
            },
            {
              "components": [
                {
                  "internalType": "enum Order.OrderType",
                  "name": "orderType",
                  "type": "uint8"
                },
                {
                  "internalType": "enum Order.DecreasePositionSwapType",
                  "name": "decreasePositionSwapType",
                  "type": "uint8"
                },
                {
                  "internalType": "uint256",
                  "name": "sizeDeltaUsd",
                  "type": "uint256"
                },
                {
                  "internalType": "uint256",
                  "name": "initialCollateralDeltaAmount",
                  "type": "uint256"
                },
                {
                  "internalType": "uint256",
                  "name": "triggerPrice",
                  "type": "uint256"
                },
                {
                  "internalType": "uint256",
                  "name": "acceptablePrice",
                  "type": "uint256"
                },
                {
                  "internalType": "uint256",
                  "name": "executionFee",
                  "type": "uint256"
                },
                {
                  "internalType": "uint256",
                  "name": "callbackGasLimit",
                  "type": "uint256"
                },
                {
                  "internalType": "uint256",
                  "name": "minOutputAmount",
                  "type": "uint256"
                },
                {
                  "internalType": "uint256",
                  "name": "updatedAtBlock",
                  "type": "uint256"
                }
              ],
              "internalType": "struct Order.Numbers",
              "name": "numbers",
              "type": "tuple"
            },
            {
              "components": [
                {
                  "internalType": "bool",
                  "name": "isLong",
                  "type": "bool"
                },
                {
                  "internalType": "bool",
                  "name": "shouldUnwrapNativeToken",
                  "type": "bool"
                },
                {
                  "internalType": "bool",
                  "name": "isFrozen",
                  "type": "bool"
                }
              ],
              "internalType": "struct Order.Flags",
              "name": "flags",
              "type": "tuple"
            }
          ],
          "internalType": "struct Order.Props",
          "name": "",
          "type": "tuple"
        }
      ],
      "stateMutability": "view",
      "type": "function"
    },
    {
      "inputs": [
        {
          "internalType": "contract DataStore",
          "name": "dataStore",
          "type": "address"
        },
        {
          "internalType": "address",
          "name": "market",
          "type": "address"
        },
        {
          "internalType": "address",
          "name": "longToken",
          "type": "address"
        },
        {
          "internalType": "address",
          "name": "shortToken",
          "type": "address"
        },
        {
          "components": [
            {
              "internalType": "uint256",
              "name": "min",
              "type": "uint256"
            },
            {
              "internalType": "uint256",
              "name": "max",
              "type": "uint256"
            }
          ],
          "internalType": "struct Price.Props",
          "name": "indexTokenPrice",
          "type": "tuple"
        },
        {
          "internalType": "bool",
          "name": "isLong",
          "type": "bool"
        },
        {
          "internalType": "bool",
          "name": "maximize",
          "type": "bool"
        }
      ],
      "name": "getPnl",
      "outputs": [
        {
          "internalType": "int256",
          "name": "",
          "type": "int256"
        }
      ],
      "stateMutability": "view",
      "type": "function"
    },
    {
      "inputs": [
        {
          "internalType": "contract DataStore",
          "name": "dataStore",
          "type": "address"
        },
        {
          "internalType": "address",
          "name": "marketAddress",
          "type": "address"
        },
        {
          "components": [
            {
              "components": [
                {
                  "internalType": "uint256",
                  "name": "min",
                  "type": "uint256"
                },
                {
                  "internalType": "uint256",
                  "name": "max",
                  "type": "uint256"
                }
              ],
              "internalType": "struct Price.Props",
              "name": "indexTokenPrice",
              "type": "tuple"
            },
            {
              "components": [
                {
                  "internalType": "uint256",
                  "name": "min",
                  "type": "uint256"
                },
                {
                  "internalType": "uint256",
                  "name": "max",
                  "type": "uint256"
                }
              ],
              "internalType": "struct Price.Props",
              "name": "longTokenPrice",
              "type": "tuple"
            },
            {
              "components": [
                {
                  "internalType": "uint256",
                  "name": "min",
                  "type": "uint256"
                },
                {
                  "internalType": "uint256",
                  "name": "max",
                  "type": "uint256"
                }
              ],
              "internalType": "struct Price.Props",
              "name": "shortTokenPrice",
              "type": "tuple"
            }
          ],
          "internalType": "struct MarketUtils.MarketPrices",
          "name": "prices",
          "type": "tuple"
        },
        {
          "internalType": "bool",
          "name": "isLong",
          "type": "bool"
        },
        {
          "internalType": "bool",
          "name": "maximize",
          "type": "bool"
        }
      ],
      "name": "getPnlToPoolFactor",
      "outputs": [
        {
          "internalType": "int256",
          "name": "",
          "type": "int256"
        }
      ],
      "stateMutability": "view",
      "type": "function"
    },
    {
      "inputs": [
        {
          "internalType": "contract DataStore",
          "name": "dataStore",
          "type": "address"
        },
        {
          "internalType": "bytes32",
          "name": "key",
          "type": "bytes32"
        }
      ],
      "name": "getPosition",
      "outputs": [
        {
          "components": [
            {
              "components": [
                {
                  "internalType": "address",
                  "name": "account",
                  "type": "address"
                },
                {
                  "internalType": "address",
                  "name": "market",
                  "type": "address"
                },
                {
                  "internalType": "address",
                  "name": "collateralToken",
                  "type": "address"
                }
              ],
              "internalType": "struct Position.Addresses",
              "name": "addresses",
              "type": "tuple"
            },
            {
              "components": [
                {
                  "internalType": "uint256",
                  "name": "sizeInUsd",
                  "type": "uint256"
                },
                {
                  "internalType": "uint256",
                  "name": "sizeInTokens",
                  "type": "uint256"
                },
                {
                  "internalType": "uint256",
                  "name": "collateralAmount",
                  "type": "uint256"
                },
                {
                  "internalType": "uint256",
                  "name": "borrowingFactor",
                  "type": "uint256"
                },
                {
                  "internalType": "int256",
                  "name": "longTokenFundingAmountPerSize",
                  "type": "int256"
                },
                {
                  "internalType": "int256",
                  "name": "shortTokenFundingAmountPerSize",
                  "type": "int256"
                },
                {
                  "internalType": "uint256",
                  "name": "increasedAtBlock",
                  "type": "uint256"
                },
                {
                  "internalType": "uint256",
                  "name": "decreasedAtBlock",
                  "type": "uint256"
                }
              ],
              "internalType": "struct Position.Numbers",
              "name": "numbers",
              "type": "tuple"
            },
            {
              "components": [
                {
                  "internalType": "bool",
                  "name": "isLong",
                  "type": "bool"
                }
              ],
              "internalType": "struct Position.Flags",
              "name": "flags",
              "type": "tuple"
            }
          ],
          "internalType": "struct Position.Props",
          "name": "",
          "type": "tuple"
        }
      ],
      "stateMutability": "view",
      "type": "function"
    },
    {
      "inputs": [
        {
          "internalType": "contract DataStore",
          "name": "dataStore",
          "type": "address"
        },
        {
          "internalType": "contract IReferralStorage",
          "name": "referralStorage",
          "type": "address"
        },
        {
          "internalType": "bytes32",
          "name": "positionKey",
          "type": "bytes32"
        },
        {
          "components": [
            {
              "internalType": "uint256",
              "name": "min",
              "type": "uint256"
            },
            {
              "internalType": "uint256",
              "name": "max",
              "type": "uint256"
            }
          ],
          "internalType": "struct Price.Props",
          "name": "collateralTokenPrice",
          "type": "tuple"
        },
        {
          "internalType": "address",
          "name": "longToken",
          "type": "address"
        },
        {
          "internalType": "address",
          "name": "shortToken",
          "type": "address"
        },
        {
          "internalType": "uint256",
          "name": "sizeDeltaUsd",
          "type": "uint256"
        }
      ],
      "name": "getPositionFees",
      "outputs": [
        {
          "components": [
            {
              "components": [
                {
                  "internalType": "address",
                  "name": "affiliate",
                  "type": "address"
                },
                {
                  "internalType": "uint256",
                  "name": "traderDiscountAmount",
                  "type": "uint256"
                },
                {
                  "internalType": "uint256",
                  "name": "affiliateRewardAmount",
                  "type": "uint256"
                }
              ],
              "internalType": "struct PositionPricingUtils.PositionReferralFees",
              "name": "referral",
              "type": "tuple"
            },
            {
              "components": [
                {
                  "internalType": "uint256",
                  "name": "fundingFeeAmount",
                  "type": "uint256"
                },
                {
                  "internalType": "uint256",
                  "name": "claimableLongTokenAmount",
                  "type": "uint256"
                },
                {
                  "internalType": "uint256",
                  "name": "claimableShortTokenAmount",
                  "type": "uint256"
                },
                {
                  "internalType": "int256",
                  "name": "latestLongTokenFundingAmountPerSize",
                  "type": "int256"
                },
                {
                  "internalType": "int256",
                  "name": "latestShortTokenFundingAmountPerSize",
                  "type": "int256"
                },
                {
                  "internalType": "bool",
                  "name": "hasPendingLongTokenFundingFee",
                  "type": "bool"
                },
                {
                  "internalType": "bool",
                  "name": "hasPendingShortTokenFundingFee",
                  "type": "bool"
                }
              ],
              "internalType": "struct PositionPricingUtils.PositionFundingFees",
              "name": "funding",
              "type": "tuple"
            },
            {
              "internalType": "uint256",
              "name": "feeReceiverAmount",
              "type": "uint256"
            },
            {
              "internalType": "uint256",
              "name": "feeAmountForPool",
              "type": "uint256"
            },
            {
              "internalType": "uint256",
              "name": "positionFeeAmountForPool",
              "type": "uint256"
            },
            {
              "internalType": "uint256",
              "name": "positionFeeAmount",
              "type": "uint256"
            },
            {
              "internalType": "uint256",
              "name": "borrowingFeeAmount",
              "type": "uint256"
            },
            {
              "internalType": "uint256",
              "name": "totalNetCostAmount",
              "type": "uint256"
            },
            {
              "internalType": "uint256",
              "name": "totalNetCostUsd",
              "type": "uint256"
            }
          ],
          "internalType": "struct PositionPricingUtils.PositionFees",
          "name": "",
          "type": "tuple"
        }
      ],
      "stateMutability": "view",
      "type": "function"
    },
    {
      "inputs": [
        {
          "internalType": "contract DataStore",
          "name": "dataStore",
          "type": "address"
        },
        {
          "internalType": "bytes32",
          "name": "positionKey",
          "type": "bytes32"
        },
        {
          "components": [
            {
              "components": [
                {
                  "internalType": "uint256",
                  "name": "min",
                  "type": "uint256"
                },
                {
                  "internalType": "uint256",
                  "name": "max",
                  "type": "uint256"
                }
              ],
              "internalType": "struct Price.Props",
              "name": "indexTokenPrice",
              "type": "tuple"
            },
            {
              "components": [
                {
                  "internalType": "uint256",
                  "name": "min",
                  "type": "uint256"
                },
                {
                  "internalType": "uint256",
                  "name": "max",
                  "type": "uint256"
                }
              ],
              "internalType": "struct Price.Props",
              "name": "longTokenPrice",
              "type": "tuple"
            },
            {
              "components": [
                {
                  "internalType": "uint256",
                  "name": "min",
                  "type": "uint256"
                },
                {
                  "internalType": "uint256",
                  "name": "max",
                  "type": "uint256"
                }
              ],
              "internalType": "struct Price.Props",
              "name": "shortTokenPrice",
              "type": "tuple"
            }
          ],
          "internalType": "struct MarketUtils.MarketPrices",
          "name": "prices",
          "type": "tuple"
        }
      ],
      "name": "getPositionInfo",
      "outputs": [
        {
          "components": [
            {
              "components": [
                {
                  "components": [
                    {
                      "internalType": "address",
                      "name": "account",
                      "type": "address"
                    },
                    {
                      "internalType": "address",
                      "name": "market",
                      "type": "address"
                    },
                    {
                      "internalType": "address",
                      "name": "collateralToken",
                      "type": "address"
                    }
                  ],
                  "internalType": "struct Position.Addresses",
                  "name": "addresses",
                  "type": "tuple"
                },
                {
                  "components": [
                    {
                      "internalType": "uint256",
                      "name": "sizeInUsd",
                      "type": "uint256"
                    },
                    {
                      "internalType": "uint256",
                      "name": "sizeInTokens",
                      "type": "uint256"
                    },
                    {
                      "internalType": "uint256",
                      "name": "collateralAmount",
                      "type": "uint256"
                    },
                    {
                      "internalType": "uint256",
                      "name": "borrowingFactor",
                      "type": "uint256"
                    },
                    {
                      "internalType": "int256",
                      "name": "longTokenFundingAmountPerSize",
                      "type": "int256"
                    },
                    {
                      "internalType": "int256",
                      "name": "shortTokenFundingAmountPerSize",
                      "type": "int256"
                    },
                    {
                      "internalType": "uint256",
                      "name": "increasedAtBlock",
                      "type": "uint256"
                    },
                    {
                      "internalType": "uint256",
                      "name": "decreasedAtBlock",
                      "type": "uint256"
                    }
                  ],
                  "internalType": "struct Position.Numbers",
                  "name": "numbers",
                  "type": "tuple"
                },
                {
                  "components": [
                    {
                      "internalType": "bool",
                      "name": "isLong",
                      "type": "bool"
                    }
                  ],
                  "internalType": "struct Position.Flags",
                  "name": "flags",
                  "type": "tuple"
                }
              ],
              "internalType": "struct Position.Props",
              "name": "position",
              "type": "tuple"
            },
            {
              "internalType": "uint256",
              "name": "pendingBorrowingFees",
              "type": "uint256"
            },
            {
              "components": [
                {
                  "internalType": "uint256",
                  "name": "fundingFeeAmount",
                  "type": "uint256"
                },
                {
                  "internalType": "uint256",
                  "name": "claimableLongTokenAmount",
                  "type": "uint256"
                },
                {
                  "internalType": "uint256",
                  "name": "claimableShortTokenAmount",
                  "type": "uint256"
                },
                {
                  "internalType": "int256",
                  "name": "latestLongTokenFundingAmountPerSize",
                  "type": "int256"
                },
                {
                  "internalType": "int256",
                  "name": "latestShortTokenFundingAmountPerSize",
                  "type": "int256"
                },
                {
                  "internalType": "bool",
                  "name": "hasPendingLongTokenFundingFee",
                  "type": "bool"
                },
                {
                  "internalType": "bool",
                  "name": "hasPendingShortTokenFundingFee",
                  "type": "bool"
                }
              ],
              "internalType": "struct PositionPricingUtils.PositionFundingFees",
              "name": "pendingFundingFees",
              "type": "tuple"
            }
          ],
          "internalType": "struct Reader.PositionInfo",
          "name": "",
          "type": "tuple"
        }
      ],
      "stateMutability": "view",
      "type": "function"
    },
    {
      "inputs": [
        {
          "internalType": "contract DataStore",
          "name": "dataStore",
          "type": "address"
        },
        {
          "internalType": "bytes32",
          "name": "key",
          "type": "bytes32"
        }
      ],
      "name": "getWithdrawal",
      "outputs": [
        {
          "components": [
            {
              "components": [
                {
                  "internalType": "address",
                  "name": "account",
                  "type": "address"
                },
                {
                  "internalType": "address",
                  "name": "receiver",
                  "type": "address"
                },
                {
                  "internalType": "address",
                  "name": "callbackContract",
                  "type": "address"
                },
                {
                  "internalType": "address",
                  "name": "market",
                  "type": "address"
                },
                {
                  "internalType": "address[]",
                  "name": "longTokenSwapPath",
                  "type": "address[]"
                },
                {
                  "internalType": "address[]",
                  "name": "shortTokenSwapPath",
                  "type": "address[]"
                }
              ],
              "internalType": "struct Withdrawal.Addresses",
              "name": "addresses",
              "type": "tuple"
            },
            {
              "components": [
                {
                  "internalType": "uint256",
                  "name": "marketTokenAmount",
                  "type": "uint256"
                },
                {
                  "internalType": "uint256",
                  "name": "minLongTokenAmount",
                  "type": "uint256"
                },
                {
                  "internalType": "uint256",
                  "name": "minShortTokenAmount",
                  "type": "uint256"
                },
                {
                  "internalType": "uint256",
                  "name": "updatedAtBlock",
                  "type": "uint256"
                },
                {
                  "internalType": "uint256",
                  "name": "executionFee",
                  "type": "uint256"
                },
                {
                  "internalType": "uint256",
                  "name": "callbackGasLimit",
                  "type": "uint256"
                }
              ],
              "internalType": "struct Withdrawal.Numbers",
              "name": "numbers",
              "type": "tuple"
            },
            {
              "components": [
                {
                  "internalType": "bool",
                  "name": "shouldUnwrapNativeToken",
                  "type": "bool"
                }
              ],
              "internalType": "struct Withdrawal.Flags",
              "name": "flags",
              "type": "tuple"
            }
          ],
          "internalType": "struct Withdrawal.Props",
          "name": "",
          "type": "tuple"
        }
      ],
      "stateMutability": "view",
      "type": "function"
    }
  ],
  "bytecode": "0x608060405234801561001057600080fd5b50615d1680620000216000396000f3fe608060405234801561001057600080fd5b50600436106100e65760003560e01c8063095ce6c5146100eb5780630fa8f516146101115780631485d29714610131578063257c65691461015157806342a6f8d31461017157806349651b6a146101915780634bc14b2a146101b1578063714af34b146101d157806377cfb162146101f15780637b59691014610211578063847bb4691461022457806396764e6f14610244578063971de27d14610257578063a43ca83d1461026a578063bc7b5bba1461028a578063beb9bd9a146102aa578063ce3264bf146102bd578063ceeea3bf146102dd575b600080fd5b6100fe6100f93660046144c0565b6102fd565b6040519081526020015b60405180910390f35b61012461011f3660046145a1565b61031c565b6040516101089190614673565b61014461013f3660046145a1565b6103a8565b60405161010891906146c6565b61016461015f36600461483a565b61042e565b60405161010891906148eb565b61018461017f3660046148fa565b6105d5565b6040516101089190614aa2565b6101a461019f3660046145a1565b610724565b6040516101089190614b04565b6101c46101bf366004614b17565b6107aa565b6040516101089190614b9b565b6101e46101df366004614c29565b61084e565b6040516101089190614c95565b6102046101ff3660046148fa565b6108d0565b6040516101089190614ca3565b6100fe61021f366004614cf2565b610a0f565b610237610232366004614d88565b610a20565b6040516101089190614e30565b6100fe610252366004614cf2565b610b00565b6100fe610265366004614e3f565b610b11565b61027d610278366004614f3d565b610baa565b6040516101089190615009565b61029d61029836600461504c565b610c8b565b60405161010891906150ab565b6100fe6102b83660046150ee565b610d78565b6102d06102cb36600461516f565b610d95565b60405161010891906151a4565b6102f06102eb3660046145a1565b610ee2565b60405161010891906151e6565b600061030e888887878a8888610f68565b90505b979650505050505050565b610324613ec4565b60405163fdfc26f360e01b815273__$3d31b232fb363902662fbc281b11ab3357$__9063fdfc26f39061035d908690869060040161526c565b61018060405180830381865af415801561037b573d6000803e3d6000fd5b505050506040513d601f19601f8201168201806040525081019061039f91906152df565b90505b92915050565b6103b0613f53565b60405163fdfc26f360e01b815273__$b63e253a228f0e32f671cc49c7fc32477c$__9063fdfc26f3906103e9908690869060040161526c565b600060405180830381865af4158015610406573d6000803e3d6000fd5b505050506040513d6000823e601f3d908101601f1916820160405261039f919081019061549b565b610436613fdd565b60405163fdfc26f360e01b815260009073__$3d31b232fb363902662fbc281b11ab3357$__9063fdfc26f390610472908890889060040161526c565b61018060405180830381865af4158015610490573d6000803e3d6000fd5b505050506040513d601f19601f820116820180604052508101906104b491906152df565b9050600073__$ff439aa65a80c9eec648f15db20b189505$__63a8d8fff5876104df85516020015190565b6040518363ffffffff1660e01b81526004016104fc9291906155e7565b608060405180830381865af4158015610519573d6000803e3d6000fd5b505050506040513d601f19601f8201168201806040525081019061053d9190615601565b9050600061054d87848488611026565b9050600061055c8884886110b9565b905060008061056d86604001515190565b1561058357505060208101516060820151610590565b5050604081015160808201515b60006105a787876040015188606001518686611563565b90506040518060600160405280888152602001868152602001828152509750505050505050505b9392505050565b606060006105e586868686611691565b9050600081516001600160401b0381111561060257610602614361565b60405190808252806020026020018201604052801561063b57816020015b610628614004565b8152602001906001900390816106205790505b50905060005b825181101561071757600083828151811061065e5761065e615685565b6020026020010151905073__$9dcb75ef0bb6c4288f2ccffe7dc492c4eb$__63fdfc26f38a836040518363ffffffff1660e01b81526004016106a192919061526c565b600060405180830381865af41580156106be573d6000803e3d6000fd5b505050506040513d6000823e601f3d908101601f191682016040526106e69190810190615796565b8383815181106106f8576106f8615685565b602002602001018190525050808061070f906158c5565b915050610641565b509150505b949350505050565b61072c614004565b60405163fdfc26f360e01b815273__$9dcb75ef0bb6c4288f2ccffe7dc492c4eb$__9063fdfc26f390610765908690869060040161526c565b600060405180830381865af4158015610782573d6000803e3d6000fd5b505050506040513d6000823e601f3d908101601f1916820160405261039f9190810190615796565b6107b261406e565b60405163fdfc26f360e01b815260009073__$3d31b232fb363902662fbc281b11ab3357$__9063fdfc26f3906107ee908c908b9060040161526c565b61018060405180830381865af415801561080c573d6000803e3d6000fd5b505050506040513d601f19601f8201168201806040525081019061083091906152df565b90506108418989838989898961171d565b9998505050505050505050565b6108566140da565b60405163a8d8fff560e01b815273__$ff439aa65a80c9eec648f15db20b189505$__9063a8d8fff59061088f90869086906004016155e7565b608060405180830381865af41580156108ac573d6000803e3d6000fd5b505050506040513d601f19601f8201168201806040525081019061039f9190615601565b606060006108e086868686611940565b9050600081516001600160401b038111156108fd576108fd614361565b60405190808252806020026020018201604052801561093657816020015b610923613ec4565b81526020019060019003908161091b5790505b50905060005b825181101561071757600083828151811061095957610959615685565b6020026020010151905073__$3d31b232fb363902662fbc281b11ab3357$__63fdfc26f38a836040518363ffffffff1660e01b815260040161099c92919061526c565b61018060405180830381865af41580156109ba573d6000803e3d6000fd5b505050506040513d601f19601f820116820180604052508101906109de91906152df565b8383815181106109f0576109f0615685565b6020026020010181905250508080610a07906158c5565b91505061093c565b600061030e8888888888888861195a565b610a28614101565b60405163a8d8fff560e01b815260009073__$ff439aa65a80c9eec648f15db20b189505$__9063a8d8fff590610a6490889087906004016155e7565b608060405180830381865af4158015610a81573d6000803e3d6000fd5b505050506040513d601f19601f82011682018060405250810190610aa59190615601565b90506000610ab68683876001611989565b90506000610ac78784886000611989565b90506000610ad68885896110b9565b60408051608081018252958652602086019490945292840191909152506060820152949350505050565b600061030e88888888888888611a39565b60008073__$ff439aa65a80c9eec648f15db20b189505$__63a8d8fff588886040518363ffffffff1660e01b8152600401610b4d9291906155e7565b608060405180830381865af4158015610b6a573d6000803e3d6000fd5b505050506040513d601f19601f82011682018060405250810190610b8e9190615601565b9050610b9d8782878787611ad0565b9150505b95945050505050565b6060600083516001600160401b03811115610bc757610bc7614361565b604051908082528060200260200182016040528015610c0057816020015b610bed613fdd565b815260200190600190039081610be55790505b50905060005b8451811015610c82576000858281518110610c2357610c23615685565b60200260200101519050610c518782878581518110610c4457610c44615685565b602002602001015161042e565b838381518110610c6357610c63615685565b6020026020010181905250508080610c7a906158c5565b915050610c06565b50949350505050565b60606000610c9a868585611b2c565b9050600081516001600160401b03811115610cb757610cb7614361565b604051908082528060200260200182016040528015610cf057816020015b610cdd614101565b815260200190600190039081610cd55790505b50905060005b8251811015610717576000878281518110610d1357610d13615685565b602002602001015190506000848381518110610d3157610d31615685565b60200260200101519050610d468a8383610a20565b848481518110610d5857610d58615685565b602002602001018190525050508080610d70906158c5565b915050610cf6565b6000610d88878787878787611bf1565b90505b9695505050505050565b60606000610da4858585611b2c565b9050600081516001600160401b03811115610dc157610dc1614361565b604051908082528060200260200182016040528015610dfa57816020015b610de76140da565b815260200190600190039081610ddf5790505b50905060005b8251811015610ed8576000838281518110610e1d57610e1d615685565b60200260200101519050600073__$ff439aa65a80c9eec648f15db20b189505$__63a8d8fff58a846040518363ffffffff1660e01b8152600401610e629291906155e7565b608060405180830381865af4158015610e7f573d6000803e3d6000fd5b505050506040513d601f19601f82011682018060405250810190610ea39190615601565b905080848481518110610eb857610eb8615685565b602002602001018190525050508080610ed0906158c5565b915050610e00565b5095945050505050565b610eea61412f565b60405163fdfc26f360e01b815273__$3dc24d71d6ebafc0c4ce8ac2f69cd1548a$__9063fdfc26f390610f23908690869060040161526c565b600060405180830381865af4158015610f40573d6000803e3d6000fd5b505050506040513d6000823e601f3d908101601f1916820160405261039f91908101906158de565b600080610f7a89898989898989611c24565b905080600003610f8e576000915050610311565b6000811215610fb8576040516322222b7560e21b8152600481018290526024015b60405180910390fd5b6000610fc78960000151611eff565b905080600003610fea5760405163b5218c5360e01b815260040160405180910390fd5b610ff381611f63565b611004670de0b6b3a7640000611f63565b61100e90846159f5565b6110189190615a90565b9a9950505050505050505050565b60008061104086858561103b89604001515190565b611fd1565b5090508061105386602001516060015190565b1115611087576020850151606001515b604051634cd96ac160e11b8152600481019190915260248101829052604401610faf565b600061109886602001516060015190565b6110a29083615abe565b90506103116110b387602001515190565b82612035565b6110c161416f565b6110c961416f565b6110d16141a0565b6110e6868660000151876040015160016120cd565b815152845160608601516110fd91889160016120cd565b8151602001528451604086015161111791889160006120cd565b8151604001528451606086015161113191889160006120cd565b81516060015280516020810151905161114a9190615ad1565b815160800152805160608101516040909101516111679190615ad1565b815160a00152845160408601516111819188916001612148565b60208301528451604086015161119a9188916000612148565b6040830152845160608601516111b39188916001612148565b8260600181815250506111d186866000015187606001516000612148565b6080808401919091528151015115806111ed5750805160a00151155b156111fa575090506105ce565b611208868660000151612164565b60408201528051608081015160a09091015161122491906121fc565b6060820152805160a08101516080909101516112409190615ad1565b608080830191909152815160a08101519101511161126357805160a0015161126a565b8051608001515b60a0820152845160608201516080830151611288928992909161221e565b60c08201819052604082015160a08301516112b09068327cb2734119d3b7a9601e1b90615ae4565b6112ba9190615af8565b6112c49190615af8565b60e0820152805160a081015160809091015111808352156113385780516080810151905160e08301516112f79190615af8565b6113019190615ae4565b6101008201528051608081015160209091015160e08301516113239190615af8565b61132d9190615ae4565b610120820152611391565b805160a081015160409091015160e08301516113549190615af8565b61135e9190615ae4565b610100820152805160a081015160609091015160e08301516113809190615af8565b61138a9190615ae4565b6101208201525b6113b88460200151602001518261010001516113ad9190615ae4565b825160800151612293565b602080830151608001919091528481015101516101008201516113e9916113de91615ae4565b825160a00151612293565b60208083015160c0019190915260408501510151610120820151611410916113ad91615ae4565b60208083015160a0019190915260408501510151610120820151611437916113de91615ae4565b602082015160e001528151156114d8576114658260200151611460836020015160800151611f63565b61229f565b82602001818152505061148c8260400151611487836020015160c00151611f63565b612358565b60408301526060820151602082015160a001516114ad919061146090611f63565b60608301526080820151602082015160e001516114ce919061148790611f63565b6080830152610c82565b6114f18260200151611487836020015160800151611f63565b8260200181815250506115138260400151611460836020015160c00151611f63565b60408301526060820151602082015160a00151611534919061148790611f63565b60608301526080820151602082015160e00151611555919061146090611f63565b608083015250949350505050565b61156b614270565b611573614270565b60608101849052608081018390526000806115a2866115978b602001516080015190565b60208c015151612412565b90151560a085015260808401519092506115c5906115978b6020015160a0015190565b90151560c0850152905060008212156115ef576115e96115e483615b17565b612449565b60208401525b600081121561160a576116046115e482615b17565b60408401525b876001600160a01b03166116208a516040015190565b6001600160a01b03161480156116365750600082135b156116475761164482612449565b83525b866001600160a01b031661165d8a516040015190565b6001600160a01b03161480156116735750600081135b156116845761168181612449565b83525b5090979650505050505050565b6060846001600160a01b031663f069052a6116ab8661249b565b6040516001600160e01b031960e084901b16815260048101919091526024810186905260448101859052606401600060405180830381865afa1580156116f5573d6000803e3d6000fd5b505050506040513d6000823e601f3d908101601f19168201604052610ba19190810190615b33565b61172561406e565b61172d61406e565b61174889898861173c8b515190565b8b51602001518861251d565b855160808701919091526040808701929092529081019190915260208101919091526001600160a01b03909116905285516117838a8961277f565b61178d9190615ae4565b60c08201526040516000906001600160a01b038b169063bd02d0f5906117b590602001615bb8565b604051602081830303815290604052805190602001206040518263ffffffff1660e01b81526004016117e991815260200190565b602060405180830381865afa158015611806573d6000803e3d6000fd5b505050506040513d601f19601f8201168201806040525081019061182a9190615bef565b9050600061183c8360c0015183612035565b9050808360c0015184608001516118539190615ad1565b61185d9190615abe565b6060840152604083018051829190611876908390615ad1565b905250600061189d8c61188b8c516020015190565b8a6118988e604001515190565b612148565b905060006118be8d6118b18d516020015190565b8a6118988f604001515190565b90506118cd8b8a8a8585611563565b6020860181905260c0860151905160808701516040808901518951909101516118f69190615ad1565b6119009190615ad1565b61190a9190615ad1565b6119149190615ad1565b60e0860181905260208b015161192991615af8565b61010086015250929b9a5050505050505050505050565b6060846001600160a01b031663f069052a6116ab866127ef565b60008061196a898989898861282a565b9050600061197d8a8a8a8a8a8a8a611a39565b90506110188282612855565b60008061199b8686600001518561286b565b905060006119ab878787876128e5565b9050806000036119c05760009250505061071c565b60006119ce8888888861293d565b9050806000036119f157604051630d5f5aef60e31b815260040160405180910390fd5b6000611a028989600001518861298f565b90506000611a1084836129aa565b90506000611a1e8285612a09565b9050611a2a8187612035565b9b9a5050505050505050505050565b600080611a51611a4c8a8a8a8a8961282a565b611f63565b90506000611a628a8a8a8a89612ab6565b9050811580611a6f575080155b15611a7f57600092505050610311565b6000611a8c878787612ad5565b90506000611a9d611a4c8385615af8565b9050600087611ab557611ab08286615c08565b611abf565b611abf8583615c08565b9d9c50505050505050505050505050565b600080611adf8787878761293d565b905080600003611af3576000915050610ba1565b6000611b1488886000015189604001518a606001518a600001518a8a611a39565b9050611b208183612b0e565b98975050505050505050565b6060836001600160a01b031663e7e4148e604051602001611b6c906020808252600b908201526a13505492d15517d31254d560aa1b604082015260600190565b60408051601f198184030181529082905280516020909101206001600160e01b031960e084901b16825260048201526024810186905260448101859052606401600060405180830381865afa158015611bc9573d6000803e3d6000fd5b505050506040513d6000823e601f3d908101601f1916820160405261071c9190810190615c2f565b600080611c048888888888600189611a39565b90506000611c18898989898960008a611a39565b90506108418183615c63565b6000611c8360405180610160016040528060008152602001600081526020016000815260200160008152602001600081526020016000815260200160008152602001600081526020016000815260200160008152602001600081525090565b611c968989600001518a60400151612b4d565b602082015287516060890151611cad918b91612b4d565b6040820152611cbc8784612b68565b8160200151611ccb9190615af8565b6060820152611cda8684612b68565b8160400151611ce99190615af8565b608082018190526060820151611cff9190615ad1565b81528751604089015160608a0151611d1c928c9290916001612b7f565b60a08201528751604089015160608a0151611d3c928c9290916000612b7f565b8160a001818151611d4d9190615ad1565b9052506040516001600160a01b038a169063bd02d0f590611d7090602001615bb8565b604051602081830303815290604052805190602001206040518263ffffffff1660e01b8152600401611da491815260200190565b602060405180830381865afa158015611dc1573d6000803e3d6000fd5b505050506040513d601f19601f82011682018060405250810190611de59190615bef565b60c0820181905260a0820151611dfa91612035565b81518290611e09908390615ad1565b9052508751611e19908a90612bc4565b60e0820152611e288584612b68565b8160e00151611e379190615af8565b81518290611e46908390615ad1565b9052508751604089015160608a0151611e67928c9290918960018915611a39565b610100820181905288516060830151611e87928c92916001919089612c3d565b6101008201528751604089015160608a0151611eab928c9290918960008915611a39565b610120820181905288516080830151611ecb928c92916000919089612c3d565b6101208201819052610100820151611ee39190615c63565b6101408201819052815161084191611efa90615b17565b612855565b6000816001600160a01b03166318160ddd6040518163ffffffff1660e01b8152600401602060405180830381865afa158015611f3f573d6000803e3d6000fd5b505050506040513d601f19601f820116820180604052508101906103a29190615bef565b60006001600160ff1b03821115611fcd5760405162461bcd60e51b815260206004820152602860248201527f53616665436173743a2076616c756520646f65736e27742066697420696e2061604482015267371034b73a191a9b60c11b6064820152608401610faf565b5090565b6000806000611fe587876000015186612c7c565b90506000611ff588888888611989565b9050600061200889896000015188612ca8565b905060006120168385615af8565b905060006120248284615ad1565b9b919a509098505050505050505050565b60008060006120448585612cc3565b91509150811561206d5761206468327cb2734119d3b7a9601e1b82615ae4565b925050506103a2565b60008085871161207e578587612081565b86865b90925090506120a568056bc75e2d6310000068327cb2734119d3b7a9601e1b615ae4565b816120b968056bc75e2d6310000085615ae4565b6120c39190615af8565b6103119190615ae4565b6000846001600160a01b031663bd02d0f56120e9868686612d0e565b6040518263ffffffff1660e01b815260040161210791815260200190565b602060405180830381865afa158015612124573d6000803e3d6000fd5b505050506040513d601f19601f82011682018060405250810190610ba19190615bef565b6000846001600160a01b031663dc97d9626120e9868686612da1565b600080836001600160a01b031663bd02d0f561217f85612dde565b6040518263ffffffff1660e01b815260040161219d91815260200190565b602060405180830381865afa1580156121ba573d6000803e3d6000fd5b505050506040513d601f19601f820116820180604052508101906121de9190615bef565b9050806000036121f25760009150506103a2565b61071c8142615abe565b60008183116122145761220f8383615abe565b61039f565b61039f8284615abe565b6000826000036122305750600061071c565b81600003612251576040516311423d9560e01b815260040160405180910390fd5b600061225d8686612e16565b9050600061226b8787612e30565b9050600061227986836129aa565b905060006122878287612a09565b90506108418185612035565b600061039f8383612a09565b60008215806122ac575081155b806122c257506000831280156122c25750600082135b806122d857506000831380156122d85750600082125b156122ee576122e78284615c63565b90506103a2565b60008312801561230b575061230783600160ff1b615c08565b8213155b1561231b5750600160ff1b6103a2565b60008313801561233b5750612337836001600160ff1b03615c08565b8212155b1561234e57506001600160ff1b036103a2565b61039f8284615c63565b6000821580612365575081155b8061237b575060008313801561237b5750600082135b8061239157506000831280156123915750600082125b156123a0576122e78284615c08565b6000831380156123c857506123bc836001600160ff1b03615c08565b6123c583615b17565b12155b156123db57506001600160ff1b036103a2565b6000831280156123f857506123f483600160ff1b615c08565b8213155b156124085750600160ff1b6103a2565b61039f8284615c08565b600080806124208587615c08565b9050600061242e8583612e4a565b9050811580159061243d575080155b97909650945050505050565b600080821215611fcd5760405162461bcd60e51b815260206004820181905260248201527f53616665436173743a2076616c7565206d75737420626520706f7369746976656044820152606401610faf565b60006040516020016124d3906020808252601290820152711050d0d3d5539517d3d491115497d31254d560721b604082015260600190565b60408051601f198184030181528282528051602091820120908301526001600160a01b03841690820152606001604051602081830303815290604052805190602001209050919050565b600080600080600061252d6142b1565b6125378b8a612e72565b8351604081019190915260208101919091526001600160a01b0391821690528c1663bd02d0f56125668a6130de565b6040518263ffffffff1660e01b815260040161258491815260200190565b602060405180830381865afa1580156125a1573d6000803e3d6000fd5b505050506040513d601f19601f820116820180604052508101906125c59190615bef565b602082018190528a51906125da908990612035565b6125e49190615ae4565b604082018190528151602001516125fb9190612035565b815160609081019190915281519081015160409091015161261c9190612035565b815160809081019190915281519081015160609091015161263d9190615abe565b815160a0015280516060015160408201516126589190615abe565b60608201526040516001600160a01b038d169063bd02d0f5906126ae906020016020808252601c908201527b2827a9a4aa24a7a72fa322a2afa922a1a2a4ab22a92fa320a1aa27a960211b604082015260600190565b604051602081830303815290604052805190602001206040518263ffffffff1660e01b81526004016126e291815260200190565b602060405180830381865afa1580156126ff573d6000803e3d6000fd5b505050506040513d601f19601f820116820180604052508101906127239190615bef565b60808201819052606082015161273891612035565b60a08201819052606082015161274e9190615abe565b60c0820181905281518051608082015160a0928301519290940151909f939e50909c509a5098509650505050505050565b60008061279d8461279285516020015190565b604086015151612ca8565b9050806127af84602001516060015190565b11156127c357602083015160600151611063565b60006127d484602001516060015190565b6127de9083615abe565b9050610ba16110b385602001515190565b60006040516020016124d3906020808252601590820152741050d0d3d5539517d413d4d2551253d397d31254d5605a1b604082015260600190565b600080612839878787866120cd565b90506000612849888887876120cd565b9050611b208183615ad1565b60008161286184611f63565b61039f9190615c63565b6000836001600160a01b031663bd02d0f56128868585613117565b6040518263ffffffff1660e01b81526004016128a491815260200190565b602060405180830381865afa1580156128c1573d6000803e3d6000fd5b505050506040513d601f19601f8201168201806040525081019061071c9190615bef565b60008082156129245760006129098787600001518860400151896060015188612ab6565b85516020015190915061291c9082615af8565b915050610ba1565b610d8b868660000151876040015188606001518761282a565b6000808261294f578460600151612955565b84604001515b9050600061296887876000015184612b4d565b905060008461297c57604086015151612983565b6020860151515b9050611b208183615af8565b6000836001600160a01b031663bd02d0f561288685856131a1565b600068327cb2734119d3b7a9601e1b8310156129c8575060006103a2565b68327cb2734119d3b7a9601e1b82036129e25750816103a2565b60006129fe6129f0856131e0565b6129f9856131e0565b6131f1565b905061071c81613231565b6000806000612a248568327cb2734119d3b7a9601e1b612cc3565b915091508115612a38576120648482615ae4565b68327cb2734119d3b7a9601e1b612a5868056bc75e2d6310000087615ae4565b612a629190615af8565b90506b1d6329f1c35ca4bfabb9f56160281b841115612a9857612a8e68056bc75e2d6310000085615ae4565b6120649082615ae4565b68056bc75e2d63100000612aac8583615ae4565b610ba19190615af8565b600080612ac587878786613242565b9050600061284988888787613242565b60008215612af65781612ae9578351612aef565b83602001515b90506105ce565b81612b0557836020015161071c565b50509051919050565b600080612b23612b1d8561325e565b84612a09565b905060008413612b4457612b3681611f63565b612b3f90615b17565b61071c565b61071c81611f63565b6000836001600160a01b031663bd02d0f56128868585613271565b600081612b7657825161039f565b50506020015190565b600080612b8f878787878761282a565b90506000612b9e888886612ca8565b90506000612bad8989876132df565b905080612bba8385615af8565b6108419190615abe565b6000826001600160a01b031663bd02d0f5612bde846132fa565b6040518263ffffffff1660e01b8152600401612bfc91815260200190565b602060405180830381865afa158015612c19573d6000803e3d6000fd5b505050506040513d601f19601f8201168201806040525081019061039f9190615bef565b600080841215612c4e575082610d8b565b6000612c5c8884898961333b565b90506000612c6d611a4c8684612035565b9050808613611b205785610841565b600080612c8a858585613357565b905080600003612c9e5760009150506105ce565b610ba18142615abe565b6000836001600160a01b031663bd02d0f56128868585613372565b60008083600003612cda5750600190506000612d07565b83830283858281612ced57612ced615a7a565b0414612d00576000809250925050612d07565b6001925090505b9250929050565b6000604051602001612d41906020808252600d908201526c13d4115397d2539511549154d5609a1b604082015260600190565b60408051601f198184030181528282528051602091820120908301526001600160a01b038087169183019190915284166060820152821515608082015260a0015b6040516020818303038152906040528051906020012090509392505050565b6000604051602001612d419060208082526017908201527646554e44494e475f414d4f554e545f5045525f53495a4560481b604082015260600190565b60006040516020016124d39060208082526012908201527111955391125391d7d554111055115117d05560721b604082015260600190565b6000826001600160a01b031663bd02d0f5612bde846133b3565b6000826001600160a01b031663bd02d0f5612bde846133e7565b600080612e5f84612e5a8561325e565b612035565b905060008313612b4457612b3681611f63565b600080600080856001600160a01b03166385725b58866040518263ffffffff1660e01b8152600401612ea49190615c8b565b602060405180830381865afa158015612ec1573d6000803e3d6000fd5b505050506040513d601f19601f82011682018060405250810190612ee59190615bef565b90506000808083156130ba576040516306459e2360e51b8152600481018590526001600160a01b038a169063c8b3c46090602401602060405180830381865afa158015612f36573d6000803e3d6000fd5b505050506040513d601f19601f82011682018060405250810190612f5a9190615c9f565b92506000896001600160a01b0316631582a018856040518263ffffffff1660e01b8152600401612f8a9190615c8b565b602060405180830381865afa158015612fa7573d6000803e3d6000fd5b505050506040513d601f19601f82011682018060405250810190612fcb9190615bef565b60405163039af9eb60e01b8152600481018290529091506001600160a01b038b169063039af9eb906024016040805180830381865afa158015613012573d6000803e3d6000fd5b505050506040513d601f19601f820116820180604052508101906130369190615cbc565b60405163071a6a7960e41b815291945092506000906001600160a01b038c16906371a6a7909061306a908890600401615c8b565b602060405180830381865afa158015613087573d6000803e3d6000fd5b505050506040513d601f19601f820116820180604052508101906130ab9190615bef565b905080156130b7578092505b50505b826130c483613424565b6130cd83613424565b965096509650505050509250925092565b60006040516020016124d3906020808252601390820152722827a9a4aa24a7a72fa322a2afa320a1aa27a960691b604082015260600190565b600060405160200161314d9060208082526010908201526f2127a92927aba4a723afa320a1aa27a960811b604082015260600190565b60408051601f198184030181528282528051602091820120908301526001600160a01b0385169082015282151560608201526080015b60405160208183030381529060405280519060200120905092915050565b600060405160200161314d906020808252601990820152782127a92927aba4a723afa2ac2827a722a72a2fa320a1aa27a960391b604082015260600190565b60006103a264e8d4a5100083615ae4565b6000826000036132175781156132085760006122e7565b50670de0b6b3a76400006103a2565b61039f61322c61322685613449565b846134ff565b61350b565b60006103a264e8d4a5100083615af8565b6000846001600160a01b031663bd02d0f56120e9868686613551565b600080821215611fcd57816000036103a2565b60006040516020016132a2906020808252600b908201526a1413d3d317d05353d5539560aa1b604082015260600190565b60408051601f198184030181528282528051602091820120908301526001600160a01b038086169183019190915283166060820152608001613183565b6000836001600160a01b031663bd02d0f5612886858561358e565b60006040516020016124d3906020808252601b908201527a1413d4d2551253d397d253541050d517d413d3d317d05353d55395602a1b604082015260600190565b6000846001600160a01b031663bd02d0f56120e98686866135c3565b6000836001600160a01b031663bd02d0f56128868585613637565b600060405160200161314d906020808252601b908201527a21aaa6aaa620aa24ab22afa127a92927aba4a723afa320a1aa27a960291b604082015260600190565b60006040516020016124d3906020808252600e908201526d232aa72224a723afa320a1aa27a960911b604082015260600190565b60006040516020016124d390602080825260179082015276232aa72224a723afa2ac2827a722a72a2fa320a1aa27a960491b604082015260600190565b600061271061343f68327cb2734119d3b7a9601e1b84615af8565b6103a29190615ae4565b6000670de0b6b3a764000082101561347757604051633621413760e21b815260048101839052602401610faf565b600061348c670de0b6b3a76400008404613689565b670de0b6b3a764000081029250905082811c670de0b6b3a763ffff1981016134b5575050919050565b6706f05b59d3b200005b80156134f757670de0b6b3a7640000828002049150671bc16d674ec8000082106134ef579283019260019190911c905b60011c6134bf565b505050919050565b600061039f838361376c565b6000680a688906bd8b000000821061353957604051634a4f26f160e01b815260048101839052602401610faf565b670de0b6b3a7640000604083901b046105ce81613832565b6000604051602001612d41906020808252601790820152764f50454e5f494e5445524553545f494e5f544f4b454e5360481b604082015260600190565b600060405160200161314d906020808252600f908201526e544f54414c5f424f52524f57494e4760881b604082015260600190565b60006040516020016135f7906020808252600e908201526d26a0ac2fa827262fa320a1aa27a960911b604082015260600190565b60408051601f1981840301815282825280516020918201209083015281018590526001600160a01b0384166060820152821515608082015260a001612d82565b600060405160200161314d9060208082526026908201527f43554d554c41544956455f424f52524f57494e475f464143544f525f5550444160408201526515115117d05560d21b606082015260800190565b6000600160801b82106136a957608091821c916136a69082615ad1565b90505b600160401b82106136c757604091821c916136c49082615ad1565b90505b600160201b82106136e557602091821c916136e29082615ad1565b90505b62010000821061370257601091821c916136ff9082615ad1565b90505b610100821061371e57600891821c9161371b9082615ad1565b90505b6010821061373957600491821c916137369082615ad1565b90505b6004821061375457600291821c916137519082615ad1565b90505b60028210613767576103a2600182615ad1565b919050565b60008080600019848609848602925082811083820303915050670de0b6b3a764000081106137b05760405163698d9a0160e11b815260048101829052602401610faf565b600080670de0b6b3a764000086880991506706f05b59d3b1ffff82119050826000036137ee5780670de0b6b3a76400008504019450505050506103a2565b620400008285030493909111909103600160ee1b02919091177faccb18165bd6fe31ae1cf318dc5b51eee0e1ba569b88cd74c1773b91fac106690201905092915050565b600160bf1b6001603f1b8216156138525768016a09e667f3bcc9090260401c5b6001603e1b82161561386d576801306fe0a31b7152df0260401c5b6001603d1b821615613888576801172b83c7d517adce0260401c5b6001603c1b8216156138a35768010b5586cf9890f62a0260401c5b6001603b1b8216156138be576801059b0d31585743ae0260401c5b6001603a1b8216156138d957680102c9a3e778060ee70260401c5b600160391b8216156138f45768010163da9fb33356d80260401c5b600160381b82161561390f57680100b1afa5abcbed610260401c5b600160371b82161561392a5768010058c86da1c09ea20260401c5b600160361b821615613945576801002c605e2e8cec500260401c5b600160351b82161561396057680100162f3904051fa10260401c5b600160341b82161561397b576801000b175effdc76ba0260401c5b600160331b82161561399657680100058ba01fb9f96d0260401c5b600160321b8216156139b15768010002c5cc37da94920260401c5b600160311b8216156139cc576801000162e525ee05470260401c5b600160301b8216156139e75768010000b17255775c040260401c5b6001602f1b821615613a02576801000058b91b5bc9ae0260401c5b6001602e1b821615613a1d57680100002c5c89d5ec6d0260401c5b6001602d1b821615613a385768010000162e43f4f8310260401c5b6001602c1b821615613a5357680100000b1721bcfc9a0260401c5b6001602b1b821615613a6e5768010000058b90cf1e6e0260401c5b6001602a1b821615613a89576801000002c5c863b73f0260401c5b600160291b821615613aa457680100000162e430e5a20260401c5b600160281b821615613abf576801000000b1721835510260401c5b600160271b821615613ada57680100000058b90c0b490260401c5b600160261b821615613af55768010000002c5c8601cc0260401c5b600160251b821615613b10576801000000162e42fff00260401c5b600160241b821615613b2b5768010000000b17217fbb0260401c5b600160231b821615613b46576801000000058b90bfce0260401c5b600160221b821615613b6157680100000002c5c85fe30260401c5b600160211b821615613b7c5768010000000162e42ff10260401c5b600160201b821615613b9757680100000000b17217f80260401c5b6380000000821615613bb25768010000000058b90bfc0260401c5b6340000000821615613bcd576801000000002c5c85fe0260401c5b6320000000821615613be857680100000000162e42ff0260401c5b6310000000821615613c03576801000000000b17217f0260401c5b6308000000821615613c1e57680100000000058b90c00260401c5b6304000000821615613c395768010000000002c5c8600260401c5b6302000000821615613c54576801000000000162e4300260401c5b6301000000821615613c6f5768010000000000b172180260401c5b62800000821615613c89576801000000000058b90c0260401c5b62400000821615613ca357680100000000002c5c860260401c5b62200000821615613cbd5768010000000000162e430260401c5b62100000821615613cd757680100000000000b17210260401c5b62080000821615613cf15768010000000000058b910260401c5b62040000821615613d0b576801000000000002c5c80260401c5b62020000821615613d2557680100000000000162e40260401c5b62010000821615613d3e5761b172600160401b010260401c5b618000821615613d56576158b9600160401b010260401c5b614000821615613d6e57612c5d600160401b010260401c5b612000821615613d865761162e600160401b010260401c5b611000821615613d9e57610b17600160401b010260401c5b610800821615613db65761058c600160401b010260401c5b610400821615613dce576102c6600160401b010260401c5b610200821615613de657610163600160401b010260401c5b610100821615613dfd5760b1600160401b010260401c5b6080821615613e13576059600160401b010260401c5b6040821615613e2957602c600160401b010260401c5b6020821615613e3f576016600160401b010260401c5b6010821615613e5557600b600160401b010260401c5b6008821615613e6b576006600160401b010260401c5b6004821615613e81576003600160401b010260401c5b6002821615613e97576001600160401b010260401c5b6001821615613ead576001600160401b010260401c5b670de0b6b3a76400000260409190911c60bf031c90565b6040805160c081019091526000606082018181526080830182905260a083019190915281908152602001613f3660405180610100016040528060008152602001600081526020016000815260200160008152602001600081526020016000815260200160008152602001600081525090565b81526040805160208181019092526000815291015290565b905290565b604080516101608101909152600060608083018281526080840183905260a0840183905260c0840183905260e08401839052610100840192909252610120830181905261014083015281905b8152602001613f366040518060c001604052806000815260200160008152602001600081526020016000815260200160008152602001600081525090565b6040518060600160405280613ff0613ec4565b815260200160008152602001613f4e614270565b604080516101208101909152600060608083018281526080840183905260a0840183905260c0840183905260e084019290925261010083015281526020810161404b61432e565b815260408051606081018252600080825260208281018290529282015291015290565b6040805161018081019091526000610120820181815261014083018290526101608301919091528152602081016140a3614270565b8152602001600081526020016000815260200160008152602001600081526020016000815260200160008152602001600081525090565b60408051608081018252600080825260208201819052918101829052606081019190915290565b60405180608001604052806141146140da565b81526020016000815260200160008152602001613f4e61416f565b604080516101208101909152600060608083018281526080840183905260a0840183905260c084019290925260e083018190526101008301528190613f9f565b6040518060a00160405280600015158152602001600081526020016000815260200160008152602001600081525090565b6040518061014001604052806141e56040518060c001604052806000815260200160008152602001600081526020016000815260200160008152602001600081525090565b815260200161423260405180610100016040528060008152602001600081526020016000815260200160008152602001600081526020016000815260200160008152602001600081525090565b815260200160008152602001600081526020016000815260200160008152602001600081526020016000815260200160008152602001600081525090565b6040518060e0016040528060008152602001600081526020016000815260200160008152602001600081526020016000151581526020016000151581525090565b6040518060e001604052806142fe6040518060c0016040528060006001600160a01b0316815260200160008152602001600081526020016000815260200160008152602001600081525090565b81526020016000815260200160008152602001600081526020016000815260200160008152602001600081525090565b60408051610140810190915280600081526020016000614232565b6001600160a01b038116811461435e57600080fd5b50565b634e487b7160e01b600052604160045260246000fd5b604051608081016001600160401b038111828210171561439957614399614361565b60405290565b604051606081016001600160401b038111828210171561439957614399614361565b60405161010081016001600160401b038111828210171561439957614399614361565b60405160c081016001600160401b038111828210171561439957614399614361565b60405161014081016001600160401b038111828210171561439957614399614361565b604051601f8201601f191681016001600160401b038111828210171561445157614451614361565b604052919050565b60006040828403121561446b57600080fd5b604080519081016001600160401b038111828210171561448d5761448d614361565b604052823581526020928301359281019290925250919050565b801515811461435e57600080fd5b8035613767816144a7565b60008060008060008060008789036101a08112156144dd57600080fd5b88356144e881614349565b97506080601f19820112156144fc57600080fd5b50614505614377565b602089013561451381614349565b8152604089013561452381614349565b6020820152606089013561453681614349565b6040820152608089013561454981614349565b6060820152955061455d8960a08a01614459565b945061456c8960e08a01614459565b935061457c896101208a01614459565b9250610160880135915061459361018089016144b5565b905092959891949750929550565b600080604083850312156145b457600080fd5b82356145bf81614349565b946020939093013593505050565b6001600160a01b03169052565b805160018060a01b03808251168452806020830151166020850152806040830151166040850152505060208101518051606084015260208101516080840152604081015160a0840152606081015160c0840152608081015160e084015260a081015161010084015260c081015161012084015260e081015161014084015250604081015161466e6101608401825115159052565b505050565b61018081016103a282846145da565b600081518084526020808501945080840160005b838110156146bb5781516001600160a01b031687529582019590820190600101614696565b509495945050505050565b602081526000825161010080602085015260018060a01b0382511661012085015260208201516146fa6101408601826145cd565b50604082015161470e6101608601826145cd565b5060608201516147226101808601826145cd565b5060808201516147366101a08601826145cd565b5060a082015161474a6101c08601826145cd565b5060c0820151816101e0860152614765610220860182614682565b905060e0830151925061011f19858203016102008601526147868184614682565b92505060208501516147d06040860182805182526020810151602083015260408101516040830152606081015160608301526080810151608083015260a081015160a08301525050565b50604085015180511515858301525090949350505050565b600060c082840312156147fa57600080fd5b61480261439f565b905061480e8383614459565b815261481d8360408401614459565b602082015261482f8360808401614459565b604082015292915050565b6000806000610100848603121561485057600080fd5b833561485b81614349565b92506020840135915061487185604086016147e8565b90509250925092565b805182526020810151602083015260408101516040830152606081015160608301526080810151608083015260a0810151151560a083015260c0810151151560c08301525050565b6148cd8282516145da565b6020810151610180830152604081015161466e6101a084018261487a565b61028081016103a282846148c2565b6000806000806080858703121561491057600080fd5b843561491b81614349565b9350602085013561492b81614349565b93969395505050506040820135916060013590565b634e487b7160e01b600052602160045260246000fd5b6008811061496657614966614940565b9052565b6003811061496657614966614940565b614985828251614956565b6020810151614997602084018261496a565b5060408101516040830152606081015160608301526080810151608083015260a081015160a083015260c081015160c083015260e081015160e08301526101008082015181840152506101208082015181840152505050565b80516101c080845281516001600160a01b0390811691850191909152602082015181166101e0850152604082015181166102008501526060820151811661022085015260808201511661024084015260a0015160c0610260840152600090614a5c610280850182614682565b90506020830151614a70602086018261497a565b5060408381015180511515610160870152602081015115156101808701529081015115156101a0860152509392505050565b6000602080830181845280855180835260408601915060408160051b870101925083870160005b82811015614af757603f19888603018452614ae58583516149f0565b94509285019290850190600101614ac9565b5092979650505050505050565b60208152600061039f60208301846149f0565b6000806000806000806000610100888a031215614b3357600080fd5b8735614b3e81614349565b96506020880135614b4e81614349565b955060408801359450614b648960608a01614459565b935060a0880135614b7481614349565b925060c0880135614b8481614349565b8092505060e0880135905092959891949750929550565b815180516001600160a01b03168252602080820151908301526040908101519082015261022081016020830151614bd5606084018261487a565b5060408301516101408301526060830151610160830152608083015161018083015260a08301516101a083015260c08301516101c083015260e08301516101e0830152610100909201516102009091015290565b60008060408385031215614c3c57600080fd5b8235614c4781614349565b91506020830135614c5781614349565b809150509250929050565b80516001600160a01b03908116835260208083015182169084015260408083015182169084015260609182015116910152565b608081016103a28284614c62565b6020808252825182820181905260009190848201906040850190845b81811015614ce657614cd28385516145da565b928401926101809290920191600101614cbf565b50909695505050505050565b6000806000806000806000610100888a031215614d0e57600080fd5b8735614d1981614349565b96506020880135614d2981614349565b95506040880135614d3981614349565b94506060880135614d4981614349565b9350614d588960808a01614459565b925060c0880135614d68816144a7565b915060e0880135614d78816144a7565b8091505092959891949750929550565b60008060006101008486031215614d9e57600080fd5b8335614da981614349565b9250614db885602086016147e8565b915060e0840135614dc881614349565b809150509250925092565b614dde828251614c62565b60208101516080830152604081015160a083015260608101518051151560c0840152602081015160e0840152604081015161010084015260608101516101208401526080810151610140840152505050565b61016081016103a28284614dd3565b60008060008060006101408688031215614e5857600080fd5b8535614e6381614349565b94506020860135614e7381614349565b9350614e8287604088016147e8565b9250610100860135614e93816144a7565b9150610120860135614ea4816144a7565b809150509295509295909350565b60006001600160401b03821115614ecb57614ecb614361565b5060051b60200190565b600082601f830112614ee657600080fd5b81356020614efb614ef683614eb2565b614429565b82815260c09283028501820192828201919087851115614f1a57600080fd5b8387015b8581101561168457614f3089826147e8565b8452928401928101614f1e565b600080600060608486031215614f5257600080fd5b8335614f5d81614349565b92506020848101356001600160401b0380821115614f7a57600080fd5b818701915087601f830112614f8e57600080fd5b8135614f9c614ef682614eb2565b81815260059190911b8301840190848101908a831115614fbb57600080fd5b938501935b82851015614fd957843582529385019390850190614fc0565b965050506040870135925080831115614ff157600080fd5b5050614fff86828701614ed5565b9150509250925092565b6020808252825182820181905260009190848201906040850190845b81811015614ce6576150388385516148c2565b928401926102809290920191600101615025565b6000806000806080858703121561506257600080fd5b843561506d81614349565b935060208501356001600160401b0381111561508857600080fd5b61509487828801614ed5565b949794965050505060408301359260600135919050565b6020808252825182820181905260009190848201906040850190845b81811015614ce6576150da838551614dd3565b9284019261016092909201916001016150c7565b60008060008060008060e0878903121561510757600080fd5b863561511281614349565b9550602087013561512281614349565b9450604087013561513281614349565b9350606087013561514281614349565b92506151518860808901614459565b915060c0870135615161816144a7565b809150509295509295509295565b60008060006060848603121561518457600080fd5b833561518f81614349565b95602085013595506040909401359392505050565b6020808252825182820181905260009190848201906040850190845b81811015614ce6576151d3838551614c62565b92840192608092909201916001016151c0565b602081526000825161010080602085015260018060a01b038083511661012086015280602084015116610140860152806040840151166101608601528060608401511661018086015250608082015160c06101a086015261524b6101e0860182614682565b905060a0830151925061011f19858203016101c08601526147868184614682565b6001600160a01b03929092168252602082015260400190565b805161376781614349565b6000602082840312156152a257600080fd5b604051602081016001600160401b03811182821017156152c4576152c4614361565b806040525080915082516152d7816144a7565b905292915050565b60008183036101808112156152f357600080fd5b6152fb61439f565b606082121561530957600080fd5b61531161439f565b845161531c81614349565b8152602085015161532c81614349565b6020820152604085015161533f81614349565b60408201528152610100605f19830181131561535a57600080fd5b6153626143c1565b9250606085015183526080850151602084015260a0850151604084015260c0850151606084015260e085015160808401528085015160a08401525061012084015160c083015261014084015160e08301528160208201526153c7856101608601615290565b6040820152949350505050565b600082601f8301126153e557600080fd5b815160206153f5614ef683614eb2565b82815260059290921b8401810191818101908684111561541457600080fd5b8286015b8481101561543857805161542b81614349565b8352918301918301615418565b509695505050505050565b600060c0828403121561545557600080fd5b61545d6143e4565b9050815181526020820151602082015260408201516040820152606082015160608201526080820151608082015260a082015160a082015292915050565b6000602082840312156154ad57600080fd5b81516001600160401b03808211156154c457600080fd5b81840191506101008083870312156154db57600080fd5b6154e361439f565b8351838111156154f257600080fd5b840180880383131561550357600080fd5b61550b6143c1565b925061551681615285565b835261552460208201615285565b602084015261553560408201615285565b604084015261554660608201615285565b606084015261555760808201615285565b608084015261556860a08201615285565b60a084015260c08101518481111561557f57600080fd5b61558b898284016153d4565b60c08501525060e0810151848111156155a357600080fd5b6155af898284016153d4565b60e085015250508181526155c68760208601615443565b60208201526155d88760e08601615290565b60408201529695505050505050565b6001600160a01b0392831681529116602082015260400190565b60006080828403121561561357600080fd5b604051608081016001600160401b038111828210171561563557615635614361565b604052825161564381614349565b8152602083015161565381614349565b6020820152604083015161566681614349565b6040820152606083015161567981614349565b60608201529392505050565b634e487b7160e01b600052603260045260246000fd5b80516008811061376757600080fd5b80516003811061376757600080fd5b600061014082840312156156cc57600080fd5b6156d4614406565b90506156df8261569b565b81526156ed602083016156aa565b602082015260408201516040820152606082015160608201526080820151608082015260a082015160a082015260c082015160c082015260e082015160e082015261010080830151818301525061012080830151818301525092915050565b60006060828403121561575e57600080fd5b61576661439f565b90508151615773816144a7565b81526020820151615783816144a7565b6020820152604082015161482f816144a7565b6000602082840312156157a857600080fd5b81516001600160401b03808211156157bf57600080fd5b908301906101c082860312156157d457600080fd5b6157dc61439f565b8251828111156157eb57600080fd5b830160c081880312156157fd57600080fd5b6158056143e4565b815161581081614349565b8152602082015161582081614349565b6020820152604082015161583381614349565b604082015261584460608301615285565b606082015261585560808301615285565b608082015260a08201518481111561586c57600080fd5b615878898285016153d4565b60a08301525082525061588e86602085016156b9565b60208201526158a186610160850161574c565b604082015295945050505050565b634e487b7160e01b600052601160045260246000fd5b6000600182016158d7576158d76158af565b5060010190565b6000602082840312156158f057600080fd5b81516001600160401b038082111561590757600080fd5b90830190610100828603121561591c57600080fd5b61592461439f565b82518281111561593357600080fd5b830160c0818803121561594557600080fd5b61594d6143e4565b61595682615285565b815261596460208301615285565b602082015261597560408301615285565b604082015261598660608301615285565b606082015260808201518481111561599d57600080fd5b6159a9898285016153d4565b60808301525060a0820151848111156159c157600080fd5b6159cd898285016153d4565b60a0830152508252506159e38660208501615443565b60208201526158a18660e08501615290565b60006001600160ff1b0381841382841380821686840486111615615a1b57615a1b6158af565b600160ff1b6000871282811687830589121615615a3a57615a3a6158af565b60008712925087820587128484161615615a5657615a566158af565b87850587128184161615615a6c57615a6c6158af565b505050929093029392505050565b634e487b7160e01b600052601260045260246000fd5b600082615a9f57615a9f615a7a565b600160ff1b821460001984141615615ab957615ab96158af565b500590565b818103818111156103a2576103a26158af565b808201808211156103a2576103a26158af565b600082615af357615af3615a7a565b500490565b6000816000190483118215151615615b1257615b126158af565b500290565b6000600160ff1b8201615b2c57615b2c6158af565b5060000390565b60006020808385031215615b4657600080fd5b82516001600160401b03811115615b5c57600080fd5b8301601f81018513615b6d57600080fd5b8051615b7b614ef682614eb2565b81815260059190911b82018301908381019087831115615b9a57600080fd5b928401925b8284101561031157835182529284019290840190615b9f565b6020808252601d908201527f424f52524f57494e475f4645455f52454345495645525f464143544f52000000604082015260600190565b600060208284031215615c0157600080fd5b5051919050565b8181036000831280158383131683831282161715615c2857615c286158af565b5092915050565b600060208284031215615c4157600080fd5b81516001600160401b03811115615c5757600080fd5b61071c848285016153d4565b8082018281126000831280158216821582161715615c8357615c836158af565b505092915050565b6001600160a01b0391909116815260200190565b600060208284031215615cb157600080fd5b81516105ce81614349565b60008060408385031215615ccf57600080fd5b50508051602090910151909290915056fea2646970667358221220619714242427baf9d2d18f723eb6fe276689bcdc59fa66c3dffe5a831e612c1164736f6c63430008100033",
  "linkReferences": {
    "contracts/deposit/DepositStoreUtils.sol": {
      "DepositStoreUtils": [
        {
          "length": 20,
          "start": 992
        }
      ]
    },
    "contracts/market/MarketStoreUtils.sol": {
      "MarketStoreUtils": [
        {
          "length": 20,
          "start": 1243
        },
        {
          "length": 20,
          "start": 2182
        },
        {
          "length": 20,
          "start": 2651
        },
        {
          "length": 20,
          "start": 2871
        },
        {
          "length": 20,
          "start": 3660
        }
      ]
    },
    "contracts/order/OrderStoreUtils.sol": {
      "OrderStoreUtils": [
        {
          "length": 20,
          "start": 1675
        },
        {
          "length": 20,
          "start": 1884
        }
      ]
    },
    "contracts/position/PositionStoreUtils.sol": {
      "PositionStoreUtils": [
        {
          "length": 20,
          "start": 852
        },
        {
          "length": 20,
          "start": 1129
        },
        {
          "length": 20,
          "start": 2021
        },
        {
          "length": 20,
          "start": 2438
        }
      ]
    },
    "contracts/withdrawal/WithdrawalStoreUtils.sol": {
      "WithdrawalStoreUtils": [
        {
          "length": 20,
          "start": 3866
        }
      ]
    }
  },
  "deployedLinkReferences": {
    "contracts/deposit/DepositStoreUtils.sol": {
      "DepositStoreUtils": [
        {
          "length": 20,
          "start": 959
        }
      ]
    },
    "contracts/market/MarketStoreUtils.sol": {
      "MarketStoreUtils": [
        {
          "length": 20,
          "start": 1210
        },
        {
          "length": 20,
          "start": 2149
        },
        {
          "length": 20,
          "start": 2618
        },
        {
          "length": 20,
          "start": 2838
        },
        {
          "length": 20,
          "start": 3627
        }
      ]
    },
    "contracts/order/OrderStoreUtils.sol": {
      "OrderStoreUtils": [
        {
          "length": 20,
          "start": 1642
        },
        {
          "length": 20,
          "start": 1851
        }
      ]
    },
    "contracts/position/PositionStoreUtils.sol": {
      "PositionStoreUtils": [
        {
          "length": 20,
          "start": 819
        },
        {
          "length": 20,
          "start": 1096
        },
        {
          "length": 20,
          "start": 1988
        },
        {
          "length": 20,
          "start": 2405
        }
      ]
    },
    "contracts/withdrawal/WithdrawalStoreUtils.sol": {
      "WithdrawalStoreUtils": [
        {
          "length": 20,
          "start": 3833
        }
      ]
    }
  }
}