{
  "_format": "hh-sol-artifact-1",
  "contractName": "Reader",
  "sourceName": "contracts/reader/Reader.sol",
  "abi": [
    {
      "inputs": [
        {
          "internalType": "contract OrderStore",
          "name": "orderStore",
          "type": "address"
        },
        {
          "internalType": "address",
          "name": "account",
          "type": "address"
        },
        {
          "internalType": "uint256",
          "name": "start",
          "type": "uint256"
        },
        {
          "internalType": "uint256",
          "name": "end",
          "type": "uint256"
        }
      ],
      "name": "getAccountOrders",
      "outputs": [
        {
          "components": [
            {
              "components": [
                {
                  "internalType": "address",
                  "name": "account",
                  "type": "address"
                },
                {
                  "internalType": "address",
                  "name": "receiver",
                  "type": "address"
                },
                {
                  "internalType": "address",
                  "name": "callbackContract",
                  "type": "address"
                },
                {
                  "internalType": "address",
                  "name": "market",
                  "type": "address"
                },
                {
                  "internalType": "address",
                  "name": "initialCollateralToken",
                  "type": "address"
                },
                {
                  "internalType": "address[]",
                  "name": "swapPath",
                  "type": "address[]"
                }
              ],
              "internalType": "struct Order.Addresses",
              "name": "addresses",
              "type": "tuple"
            },
            {
              "components": [
                {
                  "internalType": "uint256",
                  "name": "sizeDeltaUsd",
                  "type": "uint256"
                },
                {
                  "internalType": "uint256",
                  "name": "initialCollateralDeltaAmount",
                  "type": "uint256"
                },
                {
                  "internalType": "uint256",
                  "name": "triggerPrice",
                  "type": "uint256"
                },
                {
                  "internalType": "uint256",
                  "name": "acceptablePrice",
                  "type": "uint256"
                },
                {
                  "internalType": "uint256",
                  "name": "executionFee",
                  "type": "uint256"
                },
                {
                  "internalType": "uint256",
                  "name": "callbackGasLimit",
                  "type": "uint256"
                },
                {
                  "internalType": "uint256",
                  "name": "minOutputAmount",
                  "type": "uint256"
                },
                {
                  "internalType": "uint256",
                  "name": "updatedAtBlock",
                  "type": "uint256"
                }
              ],
              "internalType": "struct Order.Numbers",
              "name": "numbers",
              "type": "tuple"
            },
            {
              "components": [
                {
                  "internalType": "enum Order.OrderType",
                  "name": "orderType",
                  "type": "uint8"
                },
                {
                  "internalType": "bool",
                  "name": "isLong",
                  "type": "bool"
                },
                {
                  "internalType": "bool",
                  "name": "shouldUnwrapNativeToken",
                  "type": "bool"
                },
                {
                  "internalType": "bool",
                  "name": "isFrozen",
                  "type": "bool"
                }
              ],
              "internalType": "struct Order.Flags",
              "name": "flags",
              "type": "tuple"
            },
            {
              "internalType": "bytes",
              "name": "data",
              "type": "bytes"
            }
          ],
          "internalType": "struct Order.Props[]",
          "name": "",
          "type": "tuple[]"
        }
      ],
      "stateMutability": "view",
      "type": "function"
    },
    {
      "inputs": [
        {
          "internalType": "contract DataStore",
          "name": "dataStore",
          "type": "address"
        },
        {
          "internalType": "contract MarketStore",
          "name": "marketStore",
          "type": "address"
        },
        {
          "internalType": "contract PositionStore",
          "name": "positionStore",
          "type": "address"
        },
        {
          "internalType": "address",
          "name": "account",
          "type": "address"
        },
        {
          "internalType": "uint256",
          "name": "start",
          "type": "uint256"
        },
        {
          "internalType": "uint256",
          "name": "end",
          "type": "uint256"
        }
      ],
      "name": "getAccountPositionInfoList",
      "outputs": [
        {
          "components": [
            {
              "components": [
                {
                  "components": [
                    {
                      "internalType": "address",
                      "name": "account",
                      "type": "address"
                    },
                    {
                      "internalType": "address",
                      "name": "market",
                      "type": "address"
                    },
                    {
                      "internalType": "address",
                      "name": "collateralToken",
                      "type": "address"
                    }
                  ],
                  "internalType": "struct Position.Addresses",
                  "name": "addresses",
                  "type": "tuple"
                },
                {
                  "components": [
                    {
                      "internalType": "uint256",
                      "name": "sizeInUsd",
                      "type": "uint256"
                    },
                    {
                      "internalType": "uint256",
                      "name": "sizeInTokens",
                      "type": "uint256"
                    },
                    {
                      "internalType": "uint256",
                      "name": "collateralAmount",
                      "type": "uint256"
                    },
                    {
                      "internalType": "uint256",
                      "name": "borrowingFactor",
                      "type": "uint256"
                    },
                    {
                      "internalType": "int256",
                      "name": "longTokenFundingAmountPerSize",
                      "type": "int256"
                    },
                    {
                      "internalType": "int256",
                      "name": "shortTokenFundingAmountPerSize",
                      "type": "int256"
                    },
                    {
                      "internalType": "uint256",
                      "name": "increasedAtBlock",
                      "type": "uint256"
                    },
                    {
                      "internalType": "uint256",
                      "name": "decreasedAtBlock",
                      "type": "uint256"
                    }
                  ],
                  "internalType": "struct Position.Numbers",
                  "name": "numbers",
                  "type": "tuple"
                },
                {
                  "components": [
                    {
                      "internalType": "bool",
                      "name": "isLong",
                      "type": "bool"
                    }
                  ],
                  "internalType": "struct Position.Flags",
                  "name": "flags",
                  "type": "tuple"
                },
                {
                  "internalType": "bytes",
                  "name": "data",
                  "type": "bytes"
                }
              ],
              "internalType": "struct Position.Props",
              "name": "position",
              "type": "tuple"
            },
            {
              "internalType": "uint256",
              "name": "pendingBorrowingFees",
              "type": "uint256"
            },
            {
              "components": [
                {
                  "internalType": "uint256",
                  "name": "fundingFeeAmount",
                  "type": "uint256"
                },
                {
                  "internalType": "uint256",
                  "name": "claimableLongTokenAmount",
                  "type": "uint256"
                },
                {
                  "internalType": "uint256",
                  "name": "claimableShortTokenAmount",
                  "type": "uint256"
                },
                {
                  "internalType": "int256",
                  "name": "latestLongTokenFundingAmountPerSize",
                  "type": "int256"
                },
                {
                  "internalType": "int256",
                  "name": "latestShortTokenFundingAmountPerSize",
                  "type": "int256"
                },
                {
                  "internalType": "bool",
                  "name": "hasPendingLongTokenFundingFee",
                  "type": "bool"
                },
                {
                  "internalType": "bool",
                  "name": "hasPendingShortTokenFundingFee",
                  "type": "bool"
                }
              ],
              "internalType": "struct PositionPricingUtils.PositionFundingFees",
              "name": "pendingFundingFees",
              "type": "tuple"
            }
          ],
          "internalType": "struct Reader.PositionInfo[]",
          "name": "",
          "type": "tuple[]"
        }
      ],
      "stateMutability": "view",
      "type": "function"
    },
    {
      "inputs": [
        {
          "internalType": "contract PositionStore",
          "name": "positionStore",
          "type": "address"
        },
        {
          "internalType": "address",
          "name": "account",
          "type": "address"
        },
        {
          "internalType": "uint256",
          "name": "start",
          "type": "uint256"
        },
        {
          "internalType": "uint256",
          "name": "end",
          "type": "uint256"
        }
      ],
      "name": "getAccountPositions",
      "outputs": [
        {
          "components": [
            {
              "components": [
                {
                  "internalType": "address",
                  "name": "account",
                  "type": "address"
                },
                {
                  "internalType": "address",
                  "name": "market",
                  "type": "address"
                },
                {
                  "internalType": "address",
                  "name": "collateralToken",
                  "type": "address"
                }
              ],
              "internalType": "struct Position.Addresses",
              "name": "addresses",
              "type": "tuple"
            },
            {
              "components": [
                {
                  "internalType": "uint256",
                  "name": "sizeInUsd",
                  "type": "uint256"
                },
                {
                  "internalType": "uint256",
                  "name": "sizeInTokens",
                  "type": "uint256"
                },
                {
                  "internalType": "uint256",
                  "name": "collateralAmount",
                  "type": "uint256"
                },
                {
                  "internalType": "uint256",
                  "name": "borrowingFactor",
                  "type": "uint256"
                },
                {
                  "internalType": "int256",
                  "name": "longTokenFundingAmountPerSize",
                  "type": "int256"
                },
                {
                  "internalType": "int256",
                  "name": "shortTokenFundingAmountPerSize",
                  "type": "int256"
                },
                {
                  "internalType": "uint256",
                  "name": "increasedAtBlock",
                  "type": "uint256"
                },
                {
                  "internalType": "uint256",
                  "name": "decreasedAtBlock",
                  "type": "uint256"
                }
              ],
              "internalType": "struct Position.Numbers",
              "name": "numbers",
              "type": "tuple"
            },
            {
              "components": [
                {
                  "internalType": "bool",
                  "name": "isLong",
                  "type": "bool"
                }
              ],
              "internalType": "struct Position.Flags",
              "name": "flags",
              "type": "tuple"
            },
            {
              "internalType": "bytes",
              "name": "data",
              "type": "bytes"
            }
          ],
          "internalType": "struct Position.Props[]",
          "name": "",
          "type": "tuple[]"
        }
      ],
      "stateMutability": "view",
      "type": "function"
    },
    {
      "inputs": [
        {
          "internalType": "contract DataStore",
          "name": "dataStore",
          "type": "address"
        },
        {
          "internalType": "contract MarketStore",
          "name": "marketStore",
          "type": "address"
        },
        {
          "components": [
            {
              "components": [
                {
                  "internalType": "uint256",
                  "name": "min",
                  "type": "uint256"
                },
                {
                  "internalType": "uint256",
                  "name": "max",
                  "type": "uint256"
                }
              ],
              "internalType": "struct Price.Props",
              "name": "indexTokenPrice",
              "type": "tuple"
            },
            {
              "components": [
                {
                  "internalType": "uint256",
                  "name": "min",
                  "type": "uint256"
                },
                {
                  "internalType": "uint256",
                  "name": "max",
                  "type": "uint256"
                }
              ],
              "internalType": "struct Price.Props",
              "name": "longTokenPrice",
              "type": "tuple"
            },
            {
              "components": [
                {
                  "internalType": "uint256",
                  "name": "min",
                  "type": "uint256"
                },
                {
                  "internalType": "uint256",
                  "name": "max",
                  "type": "uint256"
                }
              ],
              "internalType": "struct Price.Props",
              "name": "shortTokenPrice",
              "type": "tuple"
            }
          ],
          "internalType": "struct MarketUtils.MarketPrices",
          "name": "prices",
          "type": "tuple"
        },
        {
          "internalType": "address",
          "name": "marketKey",
          "type": "address"
        }
      ],
      "name": "getMarketInfo",
      "outputs": [
        {
          "components": [
            {
              "components": [
                {
                  "internalType": "address",
                  "name": "marketToken",
                  "type": "address"
                },
                {
                  "internalType": "address",
                  "name": "indexToken",
                  "type": "address"
                },
                {
                  "internalType": "address",
                  "name": "longToken",
                  "type": "address"
                },
                {
                  "internalType": "address",
                  "name": "shortToken",
                  "type": "address"
                },
                {
                  "internalType": "bytes",
                  "name": "data",
                  "type": "bytes"
                }
              ],
              "internalType": "struct Market.Props",
              "name": "market",
              "type": "tuple"
            },
            {
              "internalType": "uint256",
              "name": "borrowingFactorPerSecondForLongs",
              "type": "uint256"
            },
            {
              "internalType": "uint256",
              "name": "borrowingFactorPerSecondForShorts",
              "type": "uint256"
            },
            {
              "components": [
                {
                  "internalType": "uint256",
                  "name": "fundingPerSecond",
                  "type": "uint256"
                },
                {
                  "internalType": "bool",
                  "name": "longsPayShorts",
                  "type": "bool"
                },
                {
                  "internalType": "int256",
                  "name": "fundingAmountPerSize_LongCollateral_LongPosition",
                  "type": "int256"
                },
                {
                  "internalType": "int256",
                  "name": "fundingAmountPerSize_LongCollateral_ShortPosition",
                  "type": "int256"
                },
                {
                  "internalType": "int256",
                  "name": "fundingAmountPerSize_ShortCollateral_LongPosition",
                  "type": "int256"
                },
                {
                  "internalType": "int256",
                  "name": "fundingAmountPerSize_ShortCollateral_ShortPosition",
                  "type": "int256"
                }
              ],
              "internalType": "struct MarketUtils.GetNextFundingAmountPerSizeResult",
              "name": "funding",
              "type": "tuple"
            }
          ],
          "internalType": "struct Reader.MarketInfo",
          "name": "",
          "type": "tuple"
        }
      ],
      "stateMutability": "view",
      "type": "function"
    },
    {
      "inputs": [
        {
          "internalType": "contract DataStore",
          "name": "dataStore",
          "type": "address"
        },
        {
          "internalType": "contract MarketStore",
          "name": "marketStore",
          "type": "address"
        },
        {
          "components": [
            {
              "components": [
                {
                  "internalType": "uint256",
                  "name": "min",
                  "type": "uint256"
                },
                {
                  "internalType": "uint256",
                  "name": "max",
                  "type": "uint256"
                }
              ],
              "internalType": "struct Price.Props",
              "name": "indexTokenPrice",
              "type": "tuple"
            },
            {
              "components": [
                {
                  "internalType": "uint256",
                  "name": "min",
                  "type": "uint256"
                },
                {
                  "internalType": "uint256",
                  "name": "max",
                  "type": "uint256"
                }
              ],
              "internalType": "struct Price.Props",
              "name": "longTokenPrice",
              "type": "tuple"
            },
            {
              "components": [
                {
                  "internalType": "uint256",
                  "name": "min",
                  "type": "uint256"
                },
                {
                  "internalType": "uint256",
                  "name": "max",
                  "type": "uint256"
                }
              ],
              "internalType": "struct Price.Props",
              "name": "shortTokenPrice",
              "type": "tuple"
            }
          ],
          "internalType": "struct MarketUtils.MarketPrices[]",
          "name": "marketPricesList",
          "type": "tuple[]"
        },
        {
          "internalType": "uint256",
          "name": "start",
          "type": "uint256"
        },
        {
          "internalType": "uint256",
          "name": "end",
          "type": "uint256"
        }
      ],
      "name": "getMarketInfoList",
      "outputs": [
        {
          "components": [
            {
              "components": [
                {
                  "internalType": "address",
                  "name": "marketToken",
                  "type": "address"
                },
                {
                  "internalType": "address",
                  "name": "indexToken",
                  "type": "address"
                },
                {
                  "internalType": "address",
                  "name": "longToken",
                  "type": "address"
                },
                {
                  "internalType": "address",
                  "name": "shortToken",
                  "type": "address"
                },
                {
                  "internalType": "bytes",
                  "name": "data",
                  "type": "bytes"
                }
              ],
              "internalType": "struct Market.Props",
              "name": "market",
              "type": "tuple"
            },
            {
              "internalType": "uint256",
              "name": "borrowingFactorPerSecondForLongs",
              "type": "uint256"
            },
            {
              "internalType": "uint256",
              "name": "borrowingFactorPerSecondForShorts",
              "type": "uint256"
            },
            {
              "components": [
                {
                  "internalType": "uint256",
                  "name": "fundingPerSecond",
                  "type": "uint256"
                },
                {
                  "internalType": "bool",
                  "name": "longsPayShorts",
                  "type": "bool"
                },
                {
                  "internalType": "int256",
                  "name": "fundingAmountPerSize_LongCollateral_LongPosition",
                  "type": "int256"
                },
                {
                  "internalType": "int256",
                  "name": "fundingAmountPerSize_LongCollateral_ShortPosition",
                  "type": "int256"
                },
                {
                  "internalType": "int256",
                  "name": "fundingAmountPerSize_ShortCollateral_LongPosition",
                  "type": "int256"
                },
                {
                  "internalType": "int256",
                  "name": "fundingAmountPerSize_ShortCollateral_ShortPosition",
                  "type": "int256"
                }
              ],
              "internalType": "struct MarketUtils.GetNextFundingAmountPerSizeResult",
              "name": "funding",
              "type": "tuple"
            }
          ],
          "internalType": "struct Reader.MarketInfo[]",
          "name": "",
          "type": "tuple[]"
        }
      ],
      "stateMutability": "view",
      "type": "function"
    },
    {
      "inputs": [
        {
          "internalType": "contract DataStore",
          "name": "dataStore",
          "type": "address"
        },
        {
          "components": [
            {
              "internalType": "address",
              "name": "marketToken",
              "type": "address"
            },
            {
              "internalType": "address",
              "name": "indexToken",
              "type": "address"
            },
            {
              "internalType": "address",
              "name": "longToken",
              "type": "address"
            },
            {
              "internalType": "address",
              "name": "shortToken",
              "type": "address"
            },
            {
              "internalType": "bytes",
              "name": "data",
              "type": "bytes"
            }
          ],
          "internalType": "struct Market.Props",
          "name": "market",
          "type": "tuple"
        },
        {
          "components": [
            {
              "internalType": "uint256",
              "name": "min",
              "type": "uint256"
            },
            {
              "internalType": "uint256",
              "name": "max",
              "type": "uint256"
            }
          ],
          "internalType": "struct Price.Props",
          "name": "longTokenPrice",
          "type": "tuple"
        },
        {
          "components": [
            {
              "internalType": "uint256",
              "name": "min",
              "type": "uint256"
            },
            {
              "internalType": "uint256",
              "name": "max",
              "type": "uint256"
            }
          ],
          "internalType": "struct Price.Props",
          "name": "shortTokenPrice",
          "type": "tuple"
        },
        {
          "components": [
            {
              "internalType": "uint256",
              "name": "min",
              "type": "uint256"
            },
            {
              "internalType": "uint256",
              "name": "max",
              "type": "uint256"
            }
          ],
          "internalType": "struct Price.Props",
          "name": "indexTokenPrice",
          "type": "tuple"
        },
        {
          "internalType": "bool",
          "name": "maximize",
          "type": "bool"
        }
      ],
      "name": "getMarketTokenPrice",
      "outputs": [
        {
          "internalType": "uint256",
          "name": "",
          "type": "uint256"
        }
      ],
      "stateMutability": "view",
      "type": "function"
    },
    {
      "inputs": [
        {
          "internalType": "contract MarketStore",
          "name": "marketStore",
          "type": "address"
        },
        {
          "internalType": "uint256",
          "name": "start",
          "type": "uint256"
        },
        {
          "internalType": "uint256",
          "name": "end",
          "type": "uint256"
        }
      ],
      "name": "getMarkets",
      "outputs": [
        {
          "components": [
            {
              "internalType": "address",
              "name": "marketToken",
              "type": "address"
            },
            {
              "internalType": "address",
              "name": "indexToken",
              "type": "address"
            },
            {
              "internalType": "address",
              "name": "longToken",
              "type": "address"
            },
            {
              "internalType": "address",
              "name": "shortToken",
              "type": "address"
            },
            {
              "internalType": "bytes",
              "name": "data",
              "type": "bytes"
            }
          ],
          "internalType": "struct Market.Props[]",
          "name": "",
          "type": "tuple[]"
        }
      ],
      "stateMutability": "view",
      "type": "function"
    },
    {
      "inputs": [
        {
          "internalType": "contract DataStore",
          "name": "dataStore",
          "type": "address"
        },
        {
          "internalType": "address",
          "name": "market",
          "type": "address"
        },
        {
          "internalType": "address",
          "name": "longToken",
          "type": "address"
        },
        {
          "internalType": "address",
          "name": "shortToken",
          "type": "address"
        },
        {
          "components": [
            {
              "internalType": "uint256",
              "name": "min",
              "type": "uint256"
            },
            {
              "internalType": "uint256",
              "name": "max",
              "type": "uint256"
            }
          ],
          "internalType": "struct Price.Props",
          "name": "indexTokenPrice",
          "type": "tuple"
        },
        {
          "internalType": "bool",
          "name": "maximize",
          "type": "bool"
        }
      ],
      "name": "getNetPnl",
      "outputs": [
        {
          "internalType": "int256",
          "name": "",
          "type": "int256"
        }
      ],
      "stateMutability": "view",
      "type": "function"
    },
    {
      "inputs": [
        {
          "internalType": "contract DataStore",
          "name": "dataStore",
          "type": "address"
        },
        {
          "internalType": "address",
          "name": "market",
          "type": "address"
        },
        {
          "internalType": "address",
          "name": "longToken",
          "type": "address"
        },
        {
          "internalType": "address",
          "name": "shortToken",
          "type": "address"
        },
        {
          "components": [
            {
              "internalType": "uint256",
              "name": "min",
              "type": "uint256"
            },
            {
              "internalType": "uint256",
              "name": "max",
              "type": "uint256"
            }
          ],
          "internalType": "struct Price.Props",
          "name": "indexTokenPrice",
          "type": "tuple"
        },
        {
          "internalType": "bool",
          "name": "isLong",
          "type": "bool"
        },
        {
          "internalType": "bool",
          "name": "maximize",
          "type": "bool"
        }
      ],
      "name": "getOpenInterestWithPnl",
      "outputs": [
        {
          "internalType": "uint256",
          "name": "",
          "type": "uint256"
        }
      ],
      "stateMutability": "view",
      "type": "function"
    },
    {
      "inputs": [
        {
          "internalType": "contract DataStore",
          "name": "dataStore",
          "type": "address"
        },
        {
          "internalType": "contract MarketStore",
          "name": "marketStore",
          "type": "address"
        },
        {
          "internalType": "address",
          "name": "marketAddress",
          "type": "address"
        },
        {
          "components": [
            {
              "components": [
                {
                  "internalType": "uint256",
                  "name": "min",
                  "type": "uint256"
                },
                {
                  "internalType": "uint256",
                  "name": "max",
                  "type": "uint256"
                }
              ],
              "internalType": "struct Price.Props",
              "name": "indexTokenPrice",
              "type": "tuple"
            },
            {
              "components": [
                {
                  "internalType": "uint256",
                  "name": "min",
                  "type": "uint256"
                },
                {
                  "internalType": "uint256",
                  "name": "max",
                  "type": "uint256"
                }
              ],
              "internalType": "struct Price.Props",
              "name": "longTokenPrice",
              "type": "tuple"
            },
            {
              "components": [
                {
                  "internalType": "uint256",
                  "name": "min",
                  "type": "uint256"
                },
                {
                  "internalType": "uint256",
                  "name": "max",
                  "type": "uint256"
                }
              ],
              "internalType": "struct Price.Props",
              "name": "shortTokenPrice",
              "type": "tuple"
            }
          ],
          "internalType": "struct MarketUtils.MarketPrices",
          "name": "prices",
          "type": "tuple"
        },
        {
          "internalType": "bool",
          "name": "isLong",
          "type": "bool"
        },
        {
          "internalType": "bool",
          "name": "maximize",
          "type": "bool"
        }
      ],
      "name": "getPnlToPoolFactor",
      "outputs": [
        {
          "internalType": "int256",
          "name": "",
          "type": "int256"
        }
      ],
      "stateMutability": "view",
      "type": "function"
    },
    {
      "inputs": [
        {
          "internalType": "contract DataStore",
          "name": "dataStore",
          "type": "address"
        },
        {
          "internalType": "contract IReferralStorage",
          "name": "referralStorage",
          "type": "address"
        },
        {
          "components": [
            {
              "components": [
                {
                  "internalType": "address",
                  "name": "account",
                  "type": "address"
                },
                {
                  "internalType": "address",
                  "name": "market",
                  "type": "address"
                },
                {
                  "internalType": "address",
                  "name": "collateralToken",
                  "type": "address"
                }
              ],
              "internalType": "struct Position.Addresses",
              "name": "addresses",
              "type": "tuple"
            },
            {
              "components": [
                {
                  "internalType": "uint256",
                  "name": "sizeInUsd",
                  "type": "uint256"
                },
                {
                  "internalType": "uint256",
                  "name": "sizeInTokens",
                  "type": "uint256"
                },
                {
                  "internalType": "uint256",
                  "name": "collateralAmount",
                  "type": "uint256"
                },
                {
                  "internalType": "uint256",
                  "name": "borrowingFactor",
                  "type": "uint256"
                },
                {
                  "internalType": "int256",
                  "name": "longTokenFundingAmountPerSize",
                  "type": "int256"
                },
                {
                  "internalType": "int256",
                  "name": "shortTokenFundingAmountPerSize",
                  "type": "int256"
                },
                {
                  "internalType": "uint256",
                  "name": "increasedAtBlock",
                  "type": "uint256"
                },
                {
                  "internalType": "uint256",
                  "name": "decreasedAtBlock",
                  "type": "uint256"
                }
              ],
              "internalType": "struct Position.Numbers",
              "name": "numbers",
              "type": "tuple"
            },
            {
              "components": [
                {
                  "internalType": "bool",
                  "name": "isLong",
                  "type": "bool"
                }
              ],
              "internalType": "struct Position.Flags",
              "name": "flags",
              "type": "tuple"
            },
            {
              "internalType": "bytes",
              "name": "data",
              "type": "bytes"
            }
          ],
          "internalType": "struct Position.Props",
          "name": "position",
          "type": "tuple"
        },
        {
          "components": [
            {
              "internalType": "uint256",
              "name": "min",
              "type": "uint256"
            },
            {
              "internalType": "uint256",
              "name": "max",
              "type": "uint256"
            }
          ],
          "internalType": "struct Price.Props",
          "name": "collateralTokenPrice",
          "type": "tuple"
        },
        {
          "internalType": "address",
          "name": "longToken",
          "type": "address"
        },
        {
          "internalType": "address",
          "name": "shortToken",
          "type": "address"
        },
        {
          "internalType": "uint256",
          "name": "sizeDeltaUsd",
          "type": "uint256"
        }
      ],
      "name": "getPositionFees",
      "outputs": [
        {
          "components": [
            {
              "components": [
                {
                  "internalType": "address",
                  "name": "affiliate",
                  "type": "address"
                },
                {
                  "internalType": "uint256",
                  "name": "traderDiscountAmount",
                  "type": "uint256"
                },
                {
                  "internalType": "uint256",
                  "name": "affiliateRewardAmount",
                  "type": "uint256"
                }
              ],
              "internalType": "struct PositionPricingUtils.PositionReferralFees",
              "name": "referral",
              "type": "tuple"
            },
            {
              "components": [
                {
                  "internalType": "uint256",
                  "name": "fundingFeeAmount",
                  "type": "uint256"
                },
                {
                  "internalType": "uint256",
                  "name": "claimableLongTokenAmount",
                  "type": "uint256"
                },
                {
                  "internalType": "uint256",
                  "name": "claimableShortTokenAmount",
                  "type": "uint256"
                },
                {
                  "internalType": "int256",
                  "name": "latestLongTokenFundingAmountPerSize",
                  "type": "int256"
                },
                {
                  "internalType": "int256",
                  "name": "latestShortTokenFundingAmountPerSize",
                  "type": "int256"
                },
                {
                  "internalType": "bool",
                  "name": "hasPendingLongTokenFundingFee",
                  "type": "bool"
                },
                {
                  "internalType": "bool",
                  "name": "hasPendingShortTokenFundingFee",
                  "type": "bool"
                }
              ],
              "internalType": "struct PositionPricingUtils.PositionFundingFees",
              "name": "funding",
              "type": "tuple"
            },
            {
              "internalType": "uint256",
              "name": "feeReceiverAmount",
              "type": "uint256"
            },
            {
              "internalType": "uint256",
              "name": "feesForPool",
              "type": "uint256"
            },
            {
              "internalType": "uint256",
              "name": "positionFeeAmountForPool",
              "type": "uint256"
            },
            {
              "internalType": "uint256",
              "name": "positionFeeAmount",
              "type": "uint256"
            },
            {
              "internalType": "uint256",
              "name": "borrowingFeeAmount",
              "type": "uint256"
            },
            {
              "internalType": "uint256",
              "name": "totalNetCostAmount",
              "type": "uint256"
            },
            {
              "internalType": "uint256",
              "name": "totalNetCostUsd",
              "type": "uint256"
            }
          ],
          "internalType": "struct PositionPricingUtils.PositionFees",
          "name": "",
          "type": "tuple"
        }
      ],
      "stateMutability": "view",
      "type": "function"
    },
    {
      "inputs": [
        {
          "internalType": "contract DataStore",
          "name": "dataStore",
          "type": "address"
        },
        {
          "internalType": "contract MarketStore",
          "name": "marketStore",
          "type": "address"
        },
        {
          "internalType": "contract PositionStore",
          "name": "positionStore",
          "type": "address"
        },
        {
          "internalType": "bytes32",
          "name": "positionKey",
          "type": "bytes32"
        }
      ],
      "name": "getPositionInfo",
      "outputs": [
        {
          "components": [
            {
              "components": [
                {
                  "components": [
                    {
                      "internalType": "address",
                      "name": "account",
                      "type": "address"
                    },
                    {
                      "internalType": "address",
                      "name": "market",
                      "type": "address"
                    },
                    {
                      "internalType": "address",
                      "name": "collateralToken",
                      "type": "address"
                    }
                  ],
                  "internalType": "struct Position.Addresses",
                  "name": "addresses",
                  "type": "tuple"
                },
                {
                  "components": [
                    {
                      "internalType": "uint256",
                      "name": "sizeInUsd",
                      "type": "uint256"
                    },
                    {
                      "internalType": "uint256",
                      "name": "sizeInTokens",
                      "type": "uint256"
                    },
                    {
                      "internalType": "uint256",
                      "name": "collateralAmount",
                      "type": "uint256"
                    },
                    {
                      "internalType": "uint256",
                      "name": "borrowingFactor",
                      "type": "uint256"
                    },
                    {
                      "internalType": "int256",
                      "name": "longTokenFundingAmountPerSize",
                      "type": "int256"
                    },
                    {
                      "internalType": "int256",
                      "name": "shortTokenFundingAmountPerSize",
                      "type": "int256"
                    },
                    {
                      "internalType": "uint256",
                      "name": "increasedAtBlock",
                      "type": "uint256"
                    },
                    {
                      "internalType": "uint256",
                      "name": "decreasedAtBlock",
                      "type": "uint256"
                    }
                  ],
                  "internalType": "struct Position.Numbers",
                  "name": "numbers",
                  "type": "tuple"
                },
                {
                  "components": [
                    {
                      "internalType": "bool",
                      "name": "isLong",
                      "type": "bool"
                    }
                  ],
                  "internalType": "struct Position.Flags",
                  "name": "flags",
                  "type": "tuple"
                },
                {
                  "internalType": "bytes",
                  "name": "data",
                  "type": "bytes"
                }
              ],
              "internalType": "struct Position.Props",
              "name": "position",
              "type": "tuple"
            },
            {
              "internalType": "uint256",
              "name": "pendingBorrowingFees",
              "type": "uint256"
            },
            {
              "components": [
                {
                  "internalType": "uint256",
                  "name": "fundingFeeAmount",
                  "type": "uint256"
                },
                {
                  "internalType": "uint256",
                  "name": "claimableLongTokenAmount",
                  "type": "uint256"
                },
                {
                  "internalType": "uint256",
                  "name": "claimableShortTokenAmount",
                  "type": "uint256"
                },
                {
                  "internalType": "int256",
                  "name": "latestLongTokenFundingAmountPerSize",
                  "type": "int256"
                },
                {
                  "internalType": "int256",
                  "name": "latestShortTokenFundingAmountPerSize",
                  "type": "int256"
                },
                {
                  "internalType": "bool",
                  "name": "hasPendingLongTokenFundingFee",
                  "type": "bool"
                },
                {
                  "internalType": "bool",
                  "name": "hasPendingShortTokenFundingFee",
                  "type": "bool"
                }
              ],
              "internalType": "struct PositionPricingUtils.PositionFundingFees",
              "name": "pendingFundingFees",
              "type": "tuple"
            }
          ],
          "internalType": "struct Reader.PositionInfo",
          "name": "",
          "type": "tuple"
        }
      ],
      "stateMutability": "view",
      "type": "function"
    }
  ],
  "bytecode": "0x608060405234801561001057600080fd5b506146de806100206000396000f3fe608060405234801561001057600080fd5b50600436106100a45760003560e01c8063075612fc146100a9578063170428d3146100cf5780632c8536e7146100ef57806342a6f8d31461010f57806377cfb1621461012f5780637b5969101461014f5780639d93bbf814610162578063beb9bd9a14610175578063ce3264bf14610188578063cf609c39146101a8578063e49799de146101c8578063e73f1854146101e8575b600080fd5b6100bc6100b7366004613156565b610208565b6040519081526020015b60405180910390f35b6100e26100dd366004613305565b610225565b6040516100c6919061349c565b6101026100fd36600461357c565b61024a565b6040516100c691906136ef565b61012261011d366004613702565b61034e565b6040516100c691906137d3565b61014261013d366004613702565b6105b9565b6040516100c691906139d5565b6100bc61015d366004613a37565b610817565b6100bc610170366004613acd565b610828565b6100bc610183366004613b51565b6108b7565b61019b610196366004613bc4565b6108c7565b6040516100c69190613bf9565b6101bb6101b6366004613c4e565b610b2a565b6040516100c69190613cf9565b6101db6101d6366004613d4e565b610d30565b6040516100c69190613d9f565b6101fb6101f6366004613dd5565b610e76565b6040516100c69190613ea5565b600061021887878787878761108f565b90505b9695505050505050565b61022d612b68565b61023c888888888888886110ef565b90505b979650505050505050565b610252612bd4565b6040516330af0bbf60e21b81526000906001600160a01b0386169063c2bc2efc90610281908690600401613efa565b600060405180830381865afa15801561029e573d6000803e3d6000fd5b505050506040513d6000823e601f3d908101601f191682016040526102c69190810190613f5e565b905060006102e5878684600001518560400151866060015160016111f4565b90506000610304888785600001518660400151876060015160006111f4565b905060006103218988866000015187604001518860600151611284565b6040805160808101825295865260208601949094529284019190915250606082015290505b949350505050565b60606000856001600160a01b031663c5d9eb48866040518263ffffffff1660e01b815260040161037e9190613efa565b602060405180830381865afa15801561039b573d6000803e3d6000fd5b505050506040513d601f19601f820116820180604052508101906103bf9190614016565b90508084106104025760408051600080825260208201909252906103f9565b6103e6612c07565b8152602001906001900390816103de5790505b50915050610346565b8083111561040e578092505b604051636e343b2f60e01b81526000906001600160a01b03881690636e343b2f906104419089908990899060040161402f565b600060405180830381865afa15801561045e573d6000803e3d6000fd5b505050506040513d6000823e601f3d908101601f191682016040526104869190810190614050565b9050600081516001600160401b038111156104a3576104a3612f49565b6040519080825280602002602001820160405280156104dc57816020015b6104c9612c07565b8152602001906001900390816104c15790505b50905060005b82518110156105ad5760008382815181106104ff576104ff6140d5565b60200260200101519050896001600160a01b0316638eaa6ac0826040518263ffffffff1660e01b815260040161053791815260200190565b600060405180830381865afa158015610554573d6000803e3d6000fd5b505050506040513d6000823e601f3d908101601f1916820160405261057c9190810190614228565b83838151811061058e5761058e6140d5565b60200260200101819052505080806105a59061437c565b9150506104e2565b50979650505050505050565b60606000856001600160a01b031663e5276445866040518263ffffffff1660e01b81526004016105e99190613efa565b602060405180830381865afa158015610606573d6000803e3d6000fd5b505050506040513d601f19601f8201168201806040525081019061062a9190614016565b905080841061066c5760408051600080825260208201909252906103f9565b610651612cc6565b81526020019060019003908161064957905050915050610346565b80831115610678578092505b60405163118bd53760e31b81526000906001600160a01b03881690638c5ea9b8906106ab9089908990899060040161402f565b600060405180830381865afa1580156106c8573d6000803e3d6000fd5b505050506040513d6000823e601f3d908101601f191682016040526106f09190810190614050565b9050600081516001600160401b0381111561070d5761070d612f49565b60405190808252806020026020018201604052801561074657816020015b610733612cc6565b81526020019060019003908161072b5790505b50905060005b82518110156105ad576000838281518110610769576107696140d5565b60200260200101519050896001600160a01b0316638eaa6ac0826040518263ffffffff1660e01b81526004016107a191815260200190565b600060405180830381865afa1580156107be573d6000803e3d6000fd5b505050506040513d6000823e601f3d908101601f191682016040526107e691908101906143bc565b8383815181106107f8576107f86140d5565b602002602001018190525050808061080f9061437c565b91505061074c565b600061023c888888888888886116b6565b600080866001600160a01b031663c2bc2efc876040518263ffffffff1660e01b81526004016108579190613efa565b600060405180830381865afa158015610874573d6000803e3d6000fd5b505050506040513d6000823e601f3d908101601f1916820160405261089c9190810190613f5e565b90506108ab88828787876116f3565b98975050505050505050565b600061021887878787878761176b565b60606000846001600160a01b031663fd69f3c26040518163ffffffff1660e01b8152600401602060405180830381865afa158015610909573d6000803e3d6000fd5b505050506040513d601f19601f8201168201806040525081019061092d9190614016565b9050808410610970576040805160008082526020820190925290610967565b610954612d52565b81526020019060019003908161094c5790505b50915050610b23565b8083111561097c578092505b6040516235673160e31b815260048101859052602481018490526000906001600160a01b038716906301ab398890604401600060405180830381865afa1580156109ca573d6000803e3d6000fd5b505050506040513d6000823e601f3d908101601f191682016040526109f291908101906144a6565b9050600081516001600160401b03811115610a0f57610a0f612f49565b604051908082528060200260200182016040528015610a4857816020015b610a35612d52565b815260200190600190039081610a2d5790505b50905060005b8251811015610b1d576000838281518110610a6b57610a6b6140d5565b602002602001015190506000896001600160a01b031663c2bc2efc836040518263ffffffff1660e01b8152600401610aa39190613efa565b600060405180830381865afa158015610ac0573d6000803e3d6000fd5b505050506040513d6000823e601f3d908101601f19168201604052610ae89190810190613f5e565b905080848481518110610afd57610afd6140d5565b602002602001018190525050508080610b159061437c565b915050610a4e565b50925050505b9392505050565b60606000856001600160a01b031663e5276445866040518263ffffffff1660e01b8152600401610b5a9190613efa565b602060405180830381865afa158015610b77573d6000803e3d6000fd5b505050506040513d601f19601f82011682018060405250810190610b9b9190614016565b9050808410610bde576040805160008082526020820190925290610bd5565b610bc2612d82565b815260200190600190039081610bba5790505b5091505061021b565b80831115610bea578092505b60405163118bd53760e31b81526000906001600160a01b03881690638c5ea9b890610c1d9089908990899060040161402f565b600060405180830381865afa158015610c3a573d6000803e3d6000fd5b505050506040513d6000823e601f3d908101601f19168201604052610c629190810190614050565b9050600081516001600160401b03811115610c7f57610c7f612f49565b604051908082528060200260200182016040528015610cb857816020015b610ca5612d82565b815260200190600190039081610c9d5790505b50905060005b8251811015610d22576000838281518110610cdb57610cdb6140d5565b60200260200101519050610cf18c8c8c84610d30565b838381518110610d0357610d036140d5565b6020026020010181905250508080610d1a9061437c565b915050610cbe565b509998505050505050505050565b610d38612d82565b60405163023aa9ab60e61b8152600481018390526000906001600160a01b03851690638eaa6ac090602401600060405180830381865afa158015610d80573d6000803e3d6000fd5b505050506040513d6000823e601f3d908101601f19168201604052610da891908101906143bc565b90506000856001600160a01b031663c2bc2efc610dc784516020015190565b6040518263ffffffff1660e01b8152600401610de39190613efa565b600060405180830381865afa158015610e00573d6000803e3d6000fd5b505050506040513d6000823e601f3d908101601f19168201604052610e289190810190613f5e565b90506000610e36888461179e565b90506000610e4e8985856040015186606001516117fb565b6040805160608101825295865260208601939093529184019190915250909695505050505050565b60606000856001600160a01b031663fd69f3c26040518163ffffffff1660e01b8152600401602060405180830381865afa158015610eb8573d6000803e3d6000fd5b505050506040513d601f19601f82011682018060405250810190610edc9190614016565b9050808410610f1f576040805160008082526020820190925290610f16565b610f03612bd4565b815260200190600190039081610efb5790505b50915050611086565b80831115610f2b578092505b6040516235673160e31b815260048101859052602481018490526000906001600160a01b038816906301ab398890604401600060405180830381865afa158015610f79573d6000803e3d6000fd5b505050506040513d6000823e601f3d908101601f19168201604052610fa191908101906144a6565b9050600081516001600160401b03811115610fbe57610fbe612f49565b604051908082528060200260200182016040528015610ff757816020015b610fe4612bd4565b815260200190600190039081610fdc5790505b50905060005b825181101561108057600088828151811061101a5761101a6140d5565b602002602001015190506000848381518110611038576110386140d5565b6020026020010151905061104e8c8c848461024a565b848481518110611060576110606140d5565b6020026020010181905250505080806110789061437c565b915050610ffd565b50925050505b95945050505050565b6000806110a088888888888861196a565b9050806000036110b457600091505061021b565b60006110c38860000151611a80565b9050806110d8670de0b6b3a7640000846144da565b6110e2919061450f565b9998505050505050505050565b6110f7612b68565b6110ff612b68565b61111a89898861110e8b515190565b8b516020015188611ae4565b855160808701919091526040808701929092529081019190915260208101919091526001600160a01b03909116905285516111558a8961179e565b61115f919061450f565b60c0820181905260808201516111759190614523565b6060820152611186898887876117fb565b6020820181905260c0820151905160808301516040808501518551909101516111af9190614523565b6111b99190614523565b6111c39190614523565b6111cd9190614523565b60e0820181905260208701516111e2916144da565b61010082015298975050505050505050565b600080611202888785611d46565b9050600061121a898888888c600001518960016116b6565b905060006112348a898761122e5788611dc0565b89611dc0565b90506000856112485760408a01515161124f565b60208a0151515b9050600061125d82846144da565b90508061126a85876144da565b611274919061450f565b9c9b505050505050505050505050565b61128c612da9565b611294612da9565b61129c612de1565b6112a98887876001611ddb565b8151526112b98887866001611ddb565b8151602001526112cc8887876000611ddb565b8151604001526112df8887866000611ddb565b8151606001528051602081015190516112f89190614523565b815160800152805160608101516040909101516113159190614523565b815160a001526113288887876001611e56565b604083015261133a8887876000611e56565b606083015261134c8887866001611e56565b608083015261135e8887866000611e56565b60a083015280516080015115806113785750805160a00151155b1561138557509050611086565b61138f8887611e72565b604082015261139e8887611f0a565b60608201528051608081015160a0909101516113ba9190611f83565b608080830191909152815160a08101519101516113d79190614523565b60a08201819052608082015160608301516113f291906144da565b6113fc919061450f565b808352815160a0810151608090910151116020840152604082015161142191906144da565b60c08201526020820151156114885780516080810151905160c083015161144891906144da565b611452919061450f565b60e08201528051608081015160209091015160c083015161147391906144da565b61147d919061450f565b6101008201526114e0565b805160a081015160409091015160c08301516114a491906144da565b6114ae919061450f565b60e0820152805160a081015160609091015160c08301516114cf91906144da565b6114d9919061450f565b6101008201525b6115068760200151602001518260e001516114fb919061450f565b825160800151611fa5565b6020808301516080019190915287810151015160e08201516115369161152b9161450f565b825160a00151611fa5565b60208083015160c001919091526040880151015161010082015161155d916114fb9161450f565b60208083015160a00191909152604088015101516101008201516115849161152b9161450f565b60208083015160e0019190915282015115611629576115b782604001516115b2836020015160800151611fdd565b612050565b60408301526060820151602082015160c001516115dd91906115d890611fdd565b612109565b60608301526080820151602082015160a001516115fe91906115b290611fdd565b608083015260a0820151602082015160e0015161161f91906115d890611fdd565b60a08301526116ab565b61164282604001516115d8836020015160800151611fdd565b60408301526060820151602082015160c0015161166391906115b290611fdd565b60608301526080820151602082015160a0015161168491906115d890611fdd565b608083015260a0820151602082015160e001516116a591906115b290611fdd565b60a08301525b509695505050505050565b6000806116c689898989886121c3565b905060006116d98a8a8a8a8a8a8a6121ee565b90506116e58282612285565b9a9950505050505050505050565b600080611702878787876122b5565b905080600003611716576000915050611086565b600061173788886000015189604001518a606001518a600001518a8a6121ee565b905061174282611fdd565b61175768327cb2734119d3b7a9601e1b611fdd565b6117619083614536565b6108ab91906145bb565b60008061177e88888888886001896121ee565b90506000611792898989898960008a6121ee565b90506110e281836145e9565b6000806117bc846117b185516020015190565b604086015151612307565b905060006117cf84602001516060015190565b6117d99083614611565b90506117f06117ea85602001515190565b82612322565b925050505b92915050565b611803612e73565b61180b612e73565b61182d8661181b87516020015190565b8661182889604001515190565b611e56565b606082015261184f8661184287516020015190565b8561182889604001515190565b60808201526060810151600090819061187c9061187189602001516080015190565b60208a01515161233b565b90151560a0850152608084015190925061189f90611871896020015160a0015190565b90151560c0850152905060008212156118c9576118c36118be83614624565b6123c3565b60208401525b60008112156118e4576118de6118be82614624565b60408401525b856001600160a01b03166118fa88516040015190565b6001600160a01b03161480156119105750600082135b156119215761191e826123c3565b83525b846001600160a01b031661193788516040015190565b6001600160a01b031614801561194d5750600081135b1561195e5761195b816123c3565b83525b50909695505050505050565b6000806119808888600001518960400151611dc0565b905060006119978989600001518a60600151611dc0565b905060006119a58886612415565b6119af90846144da565b90506119bb8786612415565b6119c590836144da565b6119cf9082614523565b90506119eb8a8a600001518b604001518c60600151600161242c565b6119f59082614523565b9050611a118a8a600001518b604001518c60600151600061242c565b611a1b9082614523565b90506000611a2d8b8b60000151612471565b9050611a398787612415565b611a4390826144da565b611a4d9083614523565b91506000611a6c8c8c600001518d604001518e606001518c8c1561176b565b905061127483611a7b83614624565b612285565b6000816001600160a01b03166318160ddd6040518163ffffffff1660e01b8152600401602060405180830381865afa158015611ac0573d6000803e3d6000fd5b505050506040513d601f19601f820116820180604052508101906117f59190614016565b6000806000806000611af4612eb4565b611afe8b8a61248b565b8351604081019190915260208101919091526001600160a01b0391821690528c1663bd02d0f5611b2d8a6126f7565b6040518263ffffffff1660e01b8152600401611b4b91815260200190565b602060405180830381865afa158015611b68573d6000803e3d6000fd5b505050506040513d601f19601f82011682018060405250810190611b8c9190614016565b602082018190528a5190611ba1908990612322565b611bab919061450f565b60408201819052815160200151611bc29190612322565b8151606090810191909152815190810151604090910151611be39190612322565b8151608090810191909152815190810151606090910151611c049190614611565b815160a001528051606001516040820151611c1f9190614611565b60608201526040516001600160a01b038d169063bd02d0f590611c75906020016020808252601c908201527b2322a2afa922a1a2a4ab22a92fa827a9a4aa24a7a72fa320a1aa27a960211b604082015260600190565b604051602081830303815290604052805190602001206040518263ffffffff1660e01b8152600401611ca991815260200190565b602060405180830381865afa158015611cc6573d6000803e3d6000fd5b505050506040513d601f19601f82011682018060405250810190611cea9190614016565b608082018190526060820151611cff91612322565b60a082018190526060820151611d159190614611565b60c0820181905281518051608082015160a0928301519290940151909f939e50909c509a5098509650505050505050565b6000836001600160a01b031663bd02d0f5611d61858561277a565b6040518263ffffffff1660e01b8152600401611d7f91815260200190565b602060405180830381865afa158015611d9c573d6000803e3d6000fd5b505050506040513d601f19601f820116820180604052508101906103469190614016565b6000836001600160a01b031663bd02d0f5611d618585612804565b6000846001600160a01b031663bd02d0f5611df7868686612872565b6040518263ffffffff1660e01b8152600401611e1591815260200190565b602060405180830381865afa158015611e32573d6000803e3d6000fd5b505050506040513d601f19601f820116820180604052508101906110869190614016565b6000846001600160a01b031663dc97d962611df7868686612904565b600080836001600160a01b031663bd02d0f5611e8d85612941565b6040518263ffffffff1660e01b8152600401611eab91815260200190565b602060405180830381865afa158015611ec8573d6000803e3d6000fd5b505050506040513d601f19601f82011682018060405250810190611eec9190614016565b905080600003611f005760009150506117f5565b6103468142614611565b6000826001600160a01b031663bd02d0f5611f2484612979565b6040518263ffffffff1660e01b8152600401611f4291815260200190565b602060405180830381865afa158015611f5f573d6000803e3d6000fd5b505050506040513d601f19601f82011682018060405250810190610b239190614016565b6000818311611f9b57611f968383614611565b610b23565b610b238284614611565b6000611fbd68327cb2734119d3b7a9601e1b8361450f565b611fd368327cb2734119d3b7a9601e1b856144da565b610b23919061450f565b60006001600160ff1b0382111561204c5760405162461bcd60e51b815260206004820152602860248201527f53616665436173743a2076616c756520646f65736e27742066697420696e2061604482015267371034b73a191a9b60c11b60648201526084015b60405180910390fd5b5090565b600082158061205d575081155b8061207357506000831280156120735750600082135b8061208957506000831380156120895750600082125b1561209f5761209882846145e9565b90506117f5565b6000831280156120bc57506120b883600160ff1b614640565b8213155b156120cc5750600160ff1b6117f5565b6000831380156120ec57506120e8836001600160ff1b03614640565b8212155b156120ff57506001600160ff1b036117f5565b610b2382846145e9565b6000821580612116575081155b8061212c575060008313801561212c5750600082135b8061214257506000831280156121425750600082125b15612151576120988284614640565b600083138015612179575061216d836001600160ff1b03614640565b61217683614624565b12155b1561218c57506001600160ff1b036117f5565b6000831280156121a957506121a583600160ff1b614640565b8213155b156121b95750600160ff1b6117f5565b610b238284614640565b6000806121d287878786611ddb565b905060006121e288888787611ddb565b90506108ab8183614523565b6000806122066122018a8a8a8a896121c3565b611fdd565b905060006122178a8a8a8a896129ad565b9050811580612224575080155b156122345760009250505061023f565b60006122418787876129cc565b9050600061225261220183856144da565b905060008761226a576122658286614640565b612274565b6122748583614640565b9d9c50505050505050505050505050565b6000808213156122a25761229882612a05565b6120989084614523565b6122ab82612a05565b610b239084614611565b600080826122c75784606001516122cd565b84604001515b905060006122e087876000015184611dc0565b90506000846122f4576040860151516122fb565b6020860151515b90506108ab81836144da565b6000836001600160a01b031663bd02d0f5611d618585612a18565b600068327cb2734119d3b7a9601e1b611fd383856144da565b60008083600003612351575060009050806123bb565b600061235d8587614640565b9050600061237668327cb2734119d3b7a9601e1b611fdd565b61238b68327cb2734119d3b7a9601e1b611fdd565b61239487611fdd565b61239e91906145bb565b6123a89084614536565b6123b291906145bb565b80159450925050505b935093915050565b60008082121561204c5760405162461bcd60e51b815260206004820181905260248201527f53616665436173743a2076616c7565206d75737420626520706f7369746976656044820152606401612043565b600081612423578251610b23565b50506020015190565b60008061243c87878787876121c3565b9050600061244b888886612307565b9050600061245a898987612a59565b90508061246783856144da565b6110e29190614611565b6000826001600160a01b031663bd02d0f5611f2484612a74565b600080600080856001600160a01b03166385725b58866040518263ffffffff1660e01b81526004016124bd9190613efa565b602060405180830381865afa1580156124da573d6000803e3d6000fd5b505050506040513d601f19601f820116820180604052508101906124fe9190614016565b90506000808083156126d3576040516306459e2360e51b8152600481018590526001600160a01b038a169063c8b3c46090602401602060405180830381865afa15801561254f573d6000803e3d6000fd5b505050506040513d601f19601f820116820180604052508101906125739190614667565b92506000896001600160a01b0316631582a018856040518263ffffffff1660e01b81526004016125a39190613efa565b602060405180830381865afa1580156125c0573d6000803e3d6000fd5b505050506040513d601f19601f820116820180604052508101906125e49190614016565b60405163039af9eb60e01b8152600481018290529091506001600160a01b038b169063039af9eb906024016040805180830381865afa15801561262b573d6000803e3d6000fd5b505050506040513d601f19601f8201168201806040525081019061264f9190614684565b60405163071a6a7960e41b815291945092506000906001600160a01b038c16906371a6a79090612683908890600401613efa565b602060405180830381865afa1580156126a0573d6000803e3d6000fd5b505050506040513d601f19601f820116820180604052508101906126c49190614016565b905080156126d0578092505b50505b826126dd83612ab5565b6126e683612ab5565b965096509650505050509250925092565b6000604051602001612730906020808252601390820152722827a9a4aa24a7a72fa322a2afa320a1aa27a960691b604082015260600190565b60408051601f198184030181528282528051602091820120908301526001600160a01b03841690820152606001604051602081830303815290604052805190602001209050919050565b60006040516020016127b09060208082526010908201526f2127a92927aba4a723afa320a1aa27a960811b604082015260600190565b60408051601f198184030181528282528051602091820120908301526001600160a01b0385169082015282151560608201526080015b60405160208183030381529060405280519060200120905092915050565b6000604051602001612835906020808252600b908201526a1413d3d317d05353d5539560aa1b604082015260600190565b60408051601f198184030181528282528051602091820120908301526001600160a01b0380861691830191909152831660608201526080016127e6565b60006040516020016128a5906020808252600d908201526c13d4115397d2539511549154d5609a1b604082015260600190565b60408051601f198184030181528282528051602091820120908301526001600160a01b038087169183019190915284166060820152821515608082015260a0016040516020818303038152906040528051906020012090509392505050565b60006040516020016128a59060208082526017908201527646554e44494e475f414d4f554e545f5045525f53495a4560481b604082015260600190565b60006040516020016127309060208082526012908201527111955391125391d7d554111055115117d05560721b604082015260600190565b6000604051602001612730906020808252600e908201526d232aa72224a723afa320a1aa27a960911b604082015260600190565b6000806129bc87878786612ada565b905060006121e288888787612ada565b600082156129ed57816129e05783516129e6565b83602001515b9050610b23565b816129fc578360200151610346565b50509051919050565b60008082121561204c57816000036117f5565b60006040516020016127b0906020808252601b908201527a21aaa6aaa620aa24ab22afa127a92927aba4a723afa320a1aa27a960291b604082015260600190565b6000836001600160a01b031663bd02d0f5611d618585612af6565b6000604051602001612730906020808252601b908201527a1413d4d2551253d397d253541050d517d413d3d317d05353d55395602a1b604082015260600190565b6000612710612ad068327cb2734119d3b7a9601e1b846144da565b6117f5919061450f565b6000846001600160a01b031663bd02d0f5611df7868686612b2b565b60006040516020016127b0906020808252600f908201526e544f54414c5f424f52524f57494e4760881b604082015260600190565b60006040516020016128a5906020808252601790820152764f50454e5f494e5445524553545f494e5f544f4b454e5360481b604082015260600190565b604080516101808101909152600061012082018181526101408301829052610160830191909152815260208101612b9d612e73565b8152602001600081526020016000815260200160008152602001600081526020016000815260200160008152602001600081525090565b6040518060800160405280612be7612d52565b81526020016000815260200160008152602001612c02612da9565b905290565b60408051610140810190915260006080820181815260a0830182905260c0830182905260e08301829052610100830191909152606061012083015281908152602001612c9160405180610100016040528060008152602001600081526020016000815260200160008152602001600081526020016000815260200160008152602001600081525090565b8152604080516080810182526000808252602082810182905292820181905260608201529101905b8152602001606081525090565b6040805160e0810190915260006080820181815260a0830182905260c083019190915281908152602001612d3860405180610100016040528060008152602001600081526020016000815260200160008152602001600081526020016000815260200160008152602001600081525090565b815260408051602081810190925260008152910190612cb9565b6040805160a081018252600080825260208201819052918101829052606080820192909252608081019190915290565b6040518060600160405280612d95612cc6565b815260200160008152602001612c02612e73565b6040518060c0016040528060008152602001600015158152602001600081526020016000815260200160008152602001600081525090565b604051806101200160405280612e266040518060c001604052806000815260200160008152602001600081526020016000815260200160008152602001600081525090565b8152602001612b9d60405180610100016040528060008152602001600081526020016000815260200160008152602001600081526020016000815260200160008152602001600081525090565b6040518060e0016040528060008152602001600081526020016000815260200160008152602001600081526020016000151581526020016000151581525090565b6040518060e00160405280612f016040518060c0016040528060006001600160a01b0316815260200160008152602001600081526020016000815260200160008152602001600081525090565b81526020016000815260200160008152602001600081526020016000815260200160008152602001600081525090565b6001600160a01b0381168114612f4657600080fd5b50565b634e487b7160e01b600052604160045260246000fd5b60405160a081016001600160401b0381118282101715612f8157612f81612f49565b60405290565b60405161010081016001600160401b0381118282101715612f8157612f81612f49565b604051602081016001600160401b0381118282101715612f8157612f81612f49565b604051608081016001600160401b0381118282101715612f8157612f81612f49565b604051606081016001600160401b0381118282101715612f8157612f81612f49565b60405160c081016001600160401b0381118282101715612f8157612f81612f49565b604051601f8201601f191681016001600160401b038111828210171561305a5761305a612f49565b604052919050565b803561306d81612f31565b919050565b60006001600160401b0382111561308b5761308b612f49565b50601f01601f191660200190565b600082601f8301126130aa57600080fd5b81356130bd6130b882613072565b613032565b8181528460208386010111156130d257600080fd5b816020850160208301376000918101602001919091529392505050565b60006040828403121561310157600080fd5b604080519081016001600160401b038111828210171561312357613123612f49565b604052823581526020928301359281019290925250919050565b8015158114612f4657600080fd5b803561306d8161313d565b600080600080600080610120878903121561317057600080fd5b863561317b81612f31565b955060208701356001600160401b038082111561319757600080fd5b9088019060a0828b0312156131ab57600080fd5b6131b3612f5f565b82356131be81612f31565b815260208301356131ce81612f31565b602082015260408301356131e181612f31565b604082015260608301356131f481612f31565b606082015260808301358281111561320b57600080fd5b6132178c828601613099565b60808301525080975050505061323088604089016130ef565b935061323f88608089016130ef565b925061324e8860c089016130ef565b915061325d610100880161314b565b90509295509295509295565b6000610100828403121561327c57600080fd5b613284612f87565b9050813581526020820135602082015260408201356040820152606082013560608201526080820135608082015260a082013560a082015260c082013560c082015260e082013560e082015292915050565b6000602082840312156132e857600080fd5b6132f0612faa565b905081356132fd8161313d565b815292915050565b6000806000806000806000610100888a03121561332157600080fd5b873561332c81612f31565b9650602088013561333c81612f31565b955060408801356001600160401b038082111561335857600080fd5b90890190818b036101a081121561336e57600080fd5b613376612fcc565b606082121561338457600080fd5b61338c612fee565b9150833561339981612f31565b825260208401356133a981612f31565b602083015260408401356133bc81612f31565b60408301528181526133d18d60608601613269565b60208201526133e48d61016086016132d6565b60408201526101808401359150828211156133fe57600080fd5b61340a8d838601613099565b6060820152809850505050506134238960608a016130ef565b935061343160a08901613062565b925061343f60c08901613062565b915060e0880135905092959891949750929550565b805182526020810151602083015260408101516040830152606081015160608301526080810151608083015260a0810151151560a083015260c0810151151560c08301525050565b815180516001600160a01b031682526020808201519083015260409081015190820152610220810160208301516134d66060840182613454565b5060408301516101408301526060830151610160830152608083015161018083015260a08301516101a083015260c08301516101c083015260e08301516101e0830152610100909201516102009091015290565b600060c0828403121561353c57600080fd5b613544612fee565b905061355083836130ef565b815261355f83604084016130ef565b602082015261357183608084016130ef565b604082015292915050565b600080600080610120858703121561359357600080fd5b843561359e81612f31565b935060208501356135ae81612f31565b92506135bd866040870161352a565b91506101008501356135ce81612f31565b939692955090935050565b60005b838110156135f45781810151838201526020016135dc565b50506000910152565b600081518084526136158160208601602086016135d9565b601f01601f19169290920160200192915050565b600060018060a01b0380835116845280602084015116602085015280604084015116604085015280606084015116606085015250608082015160a0608085015261034660a08501826135fd565b6000610120825181855261368c82860182613629565b9150506020830151602085015260408301516040850152606083015180516060860152602081015115156080860152604081015160a0860152606081015160c0860152608081015160e086015260a0810151610100860152508091505092915050565b602081526000610b236020830184613676565b6000806000806080858703121561371857600080fd5b843561372381612f31565b9350602085013561373381612f31565b93969395505050506040820135916060013590565b600081518084526020808501945080840160005b838110156137815781516001600160a01b03168752958201959082019060010161375c565b509495945050505050565b8051600881106137ac57634e487b7160e01b600052602160045260246000fd5b82526020818101511515908301526040808201511515908301526060908101511515910152565b60006020808301818452808551808352604092508286019150828160051b87010184880160005b8381101561391557888303603f19018552815180516101c080865281516001600160a01b03908116918701919091528982015181166101e08701528882015181166102008701526060808301518216610220880152608083015190911661024087015260a09091015160c0610260870152613879610280870182613748565b9050898301516138d48b880182805182526020810151602083015260408101516040830152606081015160608301526080810151608083015260a081015160a083015260c081015160c083015260e081015160e08301525050565b50888301516138e761012088018261378c565b50918101518583036101a08701529161390081846135fd565b978a01979550505091870191506001016137fa565b509098975050505050505050565b60006101a0825160018060a01b03808251168652806020830151166020870152806040830151166040870152505060208301518051606086015260208101516080860152604081015160a0860152606081015160c0860152608081015160e086015260a081015161010086015260c081015161012086015260e08101516101408601525060408301516139bc6101608601825115159052565b506060830151816101808601526117f0828601826135fd565b6000602080830181845280855180835260408601915060408160051b870101925083870160005b82811015613a2a57603f19888603018452613a18858351613923565b945092850192908501906001016139fc565b5092979650505050505050565b6000806000806000806000610100888a031215613a5357600080fd5b8735613a5e81612f31565b96506020880135613a6e81612f31565b95506040880135613a7e81612f31565b94506060880135613a8e81612f31565b9350613a9d8960808a016130ef565b925060c0880135613aad8161313d565b915060e0880135613abd8161313d565b8091505092959891949750929550565b6000806000806000806101608789031215613ae757600080fd5b8635613af281612f31565b95506020870135613b0281612f31565b94506040870135613b1281612f31565b9350613b21886060890161352a565b9250610120870135613b328161313d565b9150610140870135613b438161313d565b809150509295509295509295565b60008060008060008060e08789031215613b6a57600080fd5b8635613b7581612f31565b95506020870135613b8581612f31565b94506040870135613b9581612f31565b93506060870135613ba581612f31565b9250613bb488608089016130ef565b915060c0870135613b438161313d565b600080600060608486031215613bd957600080fd5b8335613be481612f31565b95602085013595506040909401359392505050565b6000602080830181845280855180835260408601915060408160051b870101925083870160005b82811015613a2a57603f19888603018452613c3c858351613629565b94509285019290850190600101613c20565b60008060008060008060c08789031215613c6757600080fd5b8635613c7281612f31565b95506020870135613c8281612f31565b94506040870135613c9281612f31565b93506060870135613ca281612f31565b9598949750929560808101359460a0909101359350915050565b60006101208251818552613cd282860182613923565b915050602083015160208501526040830151613cf16040860182613454565b509392505050565b6000602080830181845280855180835260408601915060408160051b870101925083870160005b82811015613a2a57603f19888603018452613d3c858351613cbc565b94509285019290850190600101613d20565b60008060008060808587031215613d6457600080fd5b8435613d6f81612f31565b93506020850135613d7f81612f31565b92506040850135613d8f81612f31565b9396929550929360600135925050565b602081526000610b236020830184613cbc565b60006001600160401b03821115613dcb57613dcb612f49565b5060051b60200190565b600080600080600060a08688031215613ded57600080fd5b8535613df881612f31565b9450602086810135613e0981612f31565b945060408701356001600160401b03811115613e2457600080fd5b8701601f81018913613e3557600080fd5b8035613e436130b882613db2565b81815260c0918202830184019184820191908c841115613e6257600080fd5b938501935b83851015613e8857613e798d8661352a565b83529384019391850191613e67565b50989b979a50979860608101359850608001359695505050505050565b6000602080830181845280855180835260408601915060408160051b870101925083870160005b82811015613a2a57603f19888603018452613ee8858351613676565b94509285019290850190600101613ecc565b6001600160a01b0391909116815260200190565b805161306d81612f31565b600082601f830112613f2a57600080fd5b8151613f386130b882613072565b818152846020838601011115613f4d57600080fd5b6103468260208301602087016135d9565b600060208284031215613f7057600080fd5b81516001600160401b0380821115613f8757600080fd5b9083019060a08286031215613f9b57600080fd5b613fa3612f5f565b8251613fae81612f31565b81526020830151613fbe81612f31565b60208201526040830151613fd181612f31565b60408201526060830151613fe481612f31565b6060820152608083015182811115613ffb57600080fd5b61400787828601613f19565b60808301525095945050505050565b60006020828403121561402857600080fd5b5051919050565b6001600160a01b039390931683526020830191909152604082015260600190565b6000602080838503121561406357600080fd5b82516001600160401b0381111561407957600080fd5b8301601f8101851361408a57600080fd5b80516140986130b882613db2565b81815260059190911b820183019083810190878311156140b757600080fd5b928401925b8284101561023f578351825292840192908401906140bc565b634e487b7160e01b600052603260045260246000fd5b600082601f8301126140fc57600080fd5b8151602061410c6130b883613db2565b82815260059290921b8401810191818101908684111561412b57600080fd5b8286015b848110156116ab57805161414281612f31565b835291830191830161412f565b6000610100828403121561416257600080fd5b61416a612f87565b9050815181526020820151602082015260408201516040820152606082015160608201526080820151608082015260a082015160a082015260c082015160c082015260e082015160e082015292915050565b6000608082840312156141ce57600080fd5b6141d6612fcc565b90508151600881106141e757600080fd5b815260208201516141f78161313d565b6020820152604082015161420a8161313d565b6040820152606082015161421d8161313d565b606082015292915050565b60006020828403121561423a57600080fd5b81516001600160401b038082111561425157600080fd5b908301906101c0828603121561426657600080fd5b61426e612fcc565b82518281111561427d57600080fd5b830160c0818803121561428f57600080fd5b614297613010565b81516142a281612f31565b815260208201516142b281612f31565b602082015260408201516142c581612f31565b60408201526142d660608301613f0e565b60608201526142e760808301613f0e565b608082015260a0820151848111156142fe57600080fd5b61430a898285016140eb565b60a083015250825250614320866020850161414f565b60208201526143338661012085016141bc565b60408201526101a08301518281111561434b57600080fd5b61435787828601613f19565b60608301525095945050505050565b634e487b7160e01b600052601160045260246000fd5b60006001820161438e5761438e614366565b5060010190565b6000602082840312156143a757600080fd5b6143af612faa565b905081516132fd8161313d565b6000602082840312156143ce57600080fd5b81516001600160401b03808211156143e557600080fd5b908301908185036101a08112156143fb57600080fd5b614403612fcc565b606082121561441157600080fd5b614419612fee565b9150835161442681612f31565b8252602084015161443681612f31565b6020830152604084015161444981612f31565b604083015281815261445e876060860161414f565b6020820152614471876101608601614395565b604082015261018084015191508282111561448b57600080fd5b61449787838601613f19565b60608201529695505050505050565b6000602082840312156144b857600080fd5b81516001600160401b038111156144ce57600080fd5b610346848285016140eb565b60008160001904831182151516156144f4576144f4614366565b500290565b634e487b7160e01b600052601260045260246000fd5b60008261451e5761451e6144f9565b500490565b808201808211156117f5576117f5614366565b60006001600160ff1b038184138284138082168684048611161561455c5761455c614366565b600160ff1b600087128281168783058912161561457b5761457b614366565b6000871292508782058712848416161561459757614597614366565b878505871281841616156145ad576145ad614366565b505050929093029392505050565b6000826145ca576145ca6144f9565b600160ff1b8214600019841416156145e4576145e4614366565b500590565b808201828112600083128015821682158216171561460957614609614366565b505092915050565b818103818111156117f5576117f5614366565b6000600160ff1b820161463957614639614366565b5060000390565b818103600083128015838313168383128216171561466057614660614366565b5092915050565b60006020828403121561467957600080fd5b8151610b2381612f31565b6000806040838503121561469757600080fd5b50508051602090910151909290915056fea26469706673582212209c1c75bef4e8e10203b7cc2a42a5e45eb3aa7a86fb6bcf6075f8462c0585b39a64736f6c63430008100033",
  "linkReferences": {},
  "deployedLinkReferences": {}
}