{
  "_format": "hh-sol-artifact-1",
  "contractName": "Treasury",
  "sourceName": "contracts/gambit-token/Treasury.sol",
  "abi": [
    {
      "inputs": [],
      "stateMutability": "nonpayable",
      "type": "constructor"
    },
    {
      "inputs": [],
      "name": "addLiquidity",
      "outputs": [],
      "stateMutability": "nonpayable",
      "type": "function"
    },
    {
      "inputs": [
        {
          "internalType": "address[]",
          "name": "_accounts",
          "type": "address[]"
        }
      ],
      "name": "addWhitelists",
      "outputs": [],
      "stateMutability": "nonpayable",
      "type": "function"
    },
    {
      "inputs": [],
      "name": "busd",
      "outputs": [
        {
          "internalType": "address",
          "name": "",
          "type": "address"
        }
      ],
      "stateMutability": "view",
      "type": "function"
    },
    {
      "inputs": [],
      "name": "busdBasisPoints",
      "outputs": [
        {
          "internalType": "uint256",
          "name": "",
          "type": "uint256"
        }
      ],
      "stateMutability": "view",
      "type": "function"
    },
    {
      "inputs": [],
      "name": "busdHardCap",
      "outputs": [
        {
          "internalType": "uint256",
          "name": "",
          "type": "uint256"
        }
      ],
      "stateMutability": "view",
      "type": "function"
    },
    {
      "inputs": [],
      "name": "busdReceived",
      "outputs": [
        {
          "internalType": "uint256",
          "name": "",
          "type": "uint256"
        }
      ],
      "stateMutability": "view",
      "type": "function"
    },
    {
      "inputs": [],
      "name": "busdSlotCap",
      "outputs": [
        {
          "internalType": "uint256",
          "name": "",
          "type": "uint256"
        }
      ],
      "stateMutability": "view",
      "type": "function"
    },
    {
      "inputs": [],
      "name": "endSwap",
      "outputs": [],
      "stateMutability": "nonpayable",
      "type": "function"
    },
    {
      "inputs": [
        {
          "internalType": "uint256",
          "name": "_unlockTime",
          "type": "uint256"
        }
      ],
      "name": "extendUnlockTime",
      "outputs": [],
      "stateMutability": "nonpayable",
      "type": "function"
    },
    {
      "inputs": [],
      "name": "fund",
      "outputs": [
        {
          "internalType": "address",
          "name": "",
          "type": "address"
        }
      ],
      "stateMutability": "view",
      "type": "function"
    },
    {
      "inputs": [],
      "name": "gmt",
      "outputs": [
        {
          "internalType": "address",
          "name": "",
          "type": "address"
        }
      ],
      "stateMutability": "view",
      "type": "function"
    },
    {
      "inputs": [],
      "name": "gmtListingPrice",
      "outputs": [
        {
          "internalType": "uint256",
          "name": "",
          "type": "uint256"
        }
      ],
      "stateMutability": "view",
      "type": "function"
    },
    {
      "inputs": [],
      "name": "gmtPresalePrice",
      "outputs": [
        {
          "internalType": "uint256",
          "name": "",
          "type": "uint256"
        }
      ],
      "stateMutability": "view",
      "type": "function"
    },
    {
      "inputs": [],
      "name": "gov",
      "outputs": [
        {
          "internalType": "address",
          "name": "",
          "type": "address"
        }
      ],
      "stateMutability": "view",
      "type": "function"
    },
    {
      "inputs": [
        {
          "internalType": "uint256",
          "name": "_busdBasisPoints",
          "type": "uint256"
        }
      ],
      "name": "increaseBusdBasisPoints",
      "outputs": [],
      "stateMutability": "nonpayable",
      "type": "function"
    },
    {
      "inputs": [
        {
          "internalType": "address[]",
          "name": "_addresses",
          "type": "address[]"
        },
        {
          "internalType": "uint256[]",
          "name": "_values",
          "type": "uint256[]"
        }
      ],
      "name": "initialize",
      "outputs": [],
      "stateMutability": "nonpayable",
      "type": "function"
    },
    {
      "inputs": [],
      "name": "isInitialized",
      "outputs": [
        {
          "internalType": "bool",
          "name": "",
          "type": "bool"
        }
      ],
      "stateMutability": "view",
      "type": "function"
    },
    {
      "inputs": [],
      "name": "isLiquidityAdded",
      "outputs": [
        {
          "internalType": "bool",
          "name": "",
          "type": "bool"
        }
      ],
      "stateMutability": "view",
      "type": "function"
    },
    {
      "inputs": [],
      "name": "isSwapActive",
      "outputs": [
        {
          "internalType": "bool",
          "name": "",
          "type": "bool"
        }
      ],
      "stateMutability": "view",
      "type": "function"
    },
    {
      "inputs": [
        {
          "internalType": "address[]",
          "name": "_accounts",
          "type": "address[]"
        }
      ],
      "name": "removeWhitelists",
      "outputs": [],
      "stateMutability": "nonpayable",
      "type": "function"
    },
    {
      "inputs": [],
      "name": "router",
      "outputs": [
        {
          "internalType": "address",
          "name": "",
          "type": "address"
        }
      ],
      "stateMutability": "view",
      "type": "function"
    },
    {
      "inputs": [
        {
          "internalType": "address",
          "name": "_fund",
          "type": "address"
        }
      ],
      "name": "setFund",
      "outputs": [],
      "stateMutability": "nonpayable",
      "type": "function"
    },
    {
      "inputs": [
        {
          "internalType": "address",
          "name": "_gov",
          "type": "address"
        }
      ],
      "name": "setGov",
      "outputs": [],
      "stateMutability": "nonpayable",
      "type": "function"
    },
    {
      "inputs": [
        {
          "internalType": "uint256",
          "name": "_busdAmount",
          "type": "uint256"
        }
      ],
      "name": "swap",
      "outputs": [],
      "stateMutability": "nonpayable",
      "type": "function"
    },
    {
      "inputs": [
        {
          "internalType": "address",
          "name": "",
          "type": "address"
        }
      ],
      "name": "swapAmounts",
      "outputs": [
        {
          "internalType": "uint256",
          "name": "",
          "type": "uint256"
        }
      ],
      "stateMutability": "view",
      "type": "function"
    },
    {
      "inputs": [
        {
          "internalType": "address",
          "name": "",
          "type": "address"
        }
      ],
      "name": "swapWhitelist",
      "outputs": [
        {
          "internalType": "bool",
          "name": "",
          "type": "bool"
        }
      ],
      "stateMutability": "view",
      "type": "function"
    },
    {
      "inputs": [],
      "name": "unlockTime",
      "outputs": [
        {
          "internalType": "uint256",
          "name": "",
          "type": "uint256"
        }
      ],
      "stateMutability": "view",
      "type": "function"
    },
    {
      "inputs": [
        {
          "internalType": "address",
          "name": "prevAccount",
          "type": "address"
        },
        {
          "internalType": "address",
          "name": "nextAccount",
          "type": "address"
        }
      ],
      "name": "updateWhitelist",
      "outputs": [],
      "stateMutability": "nonpayable",
      "type": "function"
    },
    {
      "inputs": [
        {
          "internalType": "address",
          "name": "_token",
          "type": "address"
        },
        {
          "internalType": "address",
          "name": "_account",
          "type": "address"
        },
        {
          "internalType": "uint256",
          "name": "_amount",
          "type": "uint256"
        }
      ],
      "name": "withdrawToken",
      "outputs": [],
      "stateMutability": "nonpayable",
      "type": "function"
    }
  ],
  "bytecode": "0x60806040526001805462ff00001961ff00199091166101001716905534801561002757600080fd5b506001600055600c80546001600160a01b03191633179055611e268061004e6000396000f3fe608060405234801561001057600080fd5b50600436106101cf5760003560e01c80637fbbe46f11610104578063d0435961116100a2578063e8078d9411610071578063e8078d9414610638578063f6f4f55b14610640578063f8322d2414610648578063f887ea4014610650576101cf565b8063d0435961146105fa578063dec9b19614610620578063e35bff9614610628578063e3cb6ea314610630576101cf565b8063b60d4288116100de578063b60d42881461050e578063c2333ee814610516578063c8eaf28f14610533578063cfad57a2146105d4576101cf565b80637fbbe46f146103a057806394b918de146104c3578063ab2b04cf146104e0576101cf565b8063281bd79811610171578063442bbad61161014b578063442bbad61461036257806363bd4bdf1461038857806377b4da2c146103905780637c09809114610398576101cf565b8063281bd798146102b1578063392e53cd146103525780633ca5b2341461035a576101cf565b806312d43a51116101ad57806312d43a511461024c5780631e17ba391461027057806321089a501461028c578063251c1aa3146102a9576101cf565b806301e33667146101d45780630963e9fc1461020c5780630e21750f14610226575b600080fd5b61020a600480360360608110156101ea57600080fd5b506001600160a01b03813581169160208101359091169060400135610658565b005b6102146107bd565b60408051918252519081900360200190f35b61020a6004803603602081101561023c57600080fd5b50356001600160a01b03166107c3565b61025461087d565b604080516001600160a01b039092168252519081900360200190f35b61027861088c565b604080519115158252519081900360200190f35b61020a600480360360208110156102a257600080fd5b503561089b565b61021461097d565b61020a600480360360208110156102c757600080fd5b810190602081018135600160201b8111156102e157600080fd5b8201836020820111156102f357600080fd5b803590602001918460208302840111600160201b8311171561031457600080fd5b919080806020026020016040519081016040528093929190818152602001838360200280828437600092019190915250929550610983945050505050565b610278610a72565b610254610a7b565b6102146004803603602081101561037857600080fd5b50356001600160a01b0316610a8a565b610214610a9c565b610214610aa2565b610214610aa8565b61020a600480360360408110156103b657600080fd5b810190602081018135600160201b8111156103d057600080fd5b8201836020820111156103e257600080fd5b803590602001918460208302840111600160201b8311171561040357600080fd5b9190808060200260200160405190810160405280939291908181526020018383602002808284376000920191909152509295949360208101935035915050600160201b81111561045257600080fd5b82018360208201111561046457600080fd5b803590602001918460208302840111600160201b8311171561048557600080fd5b919080806020026020016040519081016040528093929190818152602001838360200280828437600092019190915250929550610aae945050505050565b61020a600480360360208110156104d957600080fd5b5035610cf1565b61020a600480360360408110156104f657600080fd5b506001600160a01b03813581169160200135166111b1565b6102546112f4565b61020a6004803603602081101561052c57600080fd5b5035611303565b61020a6004803603602081101561054957600080fd5b810190602081018135600160201b81111561056357600080fd5b82018360208201111561057557600080fd5b803590602001918460208302840111600160201b8311171561059657600080fd5b9190808060200260200160405190810160405280939291908181526020018383602002808284376000920191909152509295506113fb945050505050565b61020a600480360360208110156105ea57600080fd5b50356001600160a01b03166114e9565b6102786004803603602081101561061057600080fd5b50356001600160a01b03166115a3565b6102146115b8565b6102786115be565b61020a6115cc565b61020a61166f565b610214611aa0565b610254611aa6565b610254611abc565b600c546001600160a01b031633146106a5576040805162461bcd60e51b81526020600482015260136024820152600080516020611d08833981519152604482015290519081900360640190fd5b600260005414156106eb576040805162461bcd60e51b815260206004820152601f6024820152600080516020611d28833981519152604482015290519081900360640190fd5b6002600055600a5442116107305760405162461bcd60e51b8152600401808060200182810382526023815260200180611dad6023913960400191505060405180910390fd5b826001600160a01b031663a9059cbb83836040518363ffffffff1660e01b815260040180836001600160a01b0316815260200182815260200192505050602060405180830381600087803b15801561078757600080fd5b505af115801561079b573d6000803e3d6000fd5b505050506040513d60208110156107b157600080fd5b50506001600055505050565b60065481565b600c546001600160a01b03163314610810576040805162461bcd60e51b81526020600482015260136024820152600080516020611d08833981519152604482015290519081900360640190fd5b60026000541415610856576040805162461bcd60e51b815260206004820152601f6024820152600080516020611d28833981519152604482015290519081900360640190fd5b600480546001600160a01b0319166001600160a01b03929092169190911790556001600055565b600c546001600160a01b031681565b60015462010000900460ff1681565b600c546001600160a01b031633146108e8576040805162461bcd60e51b81526020600482015260136024820152600080516020611d08833981519152604482015290519081900360640190fd5b6002600054141561092e576040805162461bcd60e51b815260206004820152601f6024820152600080516020611d28833981519152604482015290519081900360640190fd5b600260005560095481116109735760405162461bcd60e51b8152600401808060200182810382526022815260200180611d486022913960400191505060405180910390fd5b6009556001600055565b600a5481565b600c546001600160a01b031633146109d0576040805162461bcd60e51b81526020600482015260136024820152600080516020611d08833981519152604482015290519081900360640190fd5b60026000541415610a16576040805162461bcd60e51b815260206004820152601f6024820152600080516020611d28833981519152604482015290519081900360640190fd5b600260009081555b8151811015610a69576000828281518110610a3557fe5b6020908102919091018101516001600160a01b03166000908152600e90915260409020805460ff1916905550600101610a1e565b50506001600055565b60015460ff1681565b6002546001600160a01b031681565b600d6020526000908152604090205481565b60085481565b60095481565b60055481565b600c546001600160a01b03163314610afb576040805162461bcd60e51b81526020600482015260136024820152600080516020611d08833981519152604482015290519081900360640190fd5b60015460ff1615610b53576040805162461bcd60e51b815260206004820152601d60248201527f54726561737572793a20616c726561647920696e697469616c697a6564000000604482015290519081900360640190fd5b6001805460ff19168117905581518290600090610b6c57fe5b6020026020010151600160036101000a8154816001600160a01b0302191690836001600160a01b0316021790555081600181518110610ba757fe5b6020026020010151600260006101000a8154816001600160a01b0302191690836001600160a01b0316021790555081600281518110610be257fe5b6020026020010151600360006101000a8154816001600160a01b0302191690836001600160a01b0316021790555081600381518110610c1d57fe5b6020026020010151600460006101000a8154816001600160a01b0302191690836001600160a01b0316021790555080600081518110610c5857fe5b602002602001015160058190555080600181518110610c7357fe5b602002602001015160068190555080600281518110610c8e57fe5b602002602001015160078190555080600381518110610ca957fe5b602002602001015160088190555080600481518110610cc457fe5b602002602001015160098190555080600581518110610cdf57fe5b6020026020010151600a819055505050565b60026000541415610d37576040805162461bcd60e51b815260206004820152601f6024820152600080516020611d28833981519152604482015290519081900360640190fd5b6002600090815533808252600e60205260409091205460ff16610d8f576040805162461bcd60e51b81526020600482015260136024820152600080516020611d08833981519152604482015290519081900360640190fd5b600154610100900460ff16610dd55760405162461bcd60e51b8152600401808060200182810382526022815260200180611d6a6022913960400191505060405180910390fd5b60008211610e2a576040805162461bcd60e51b815260206004820152601d60248201527f54726561737572793a20696e76616c6964205f62757364416d6f756e74000000604482015290519081900360640190fd5b600b54610e379083611acb565b600b8190556008541015610e92576040805162461bcd60e51b815260206004820152601e60248201527f54726561737572793a2062757364486172644361702065786365656465640000604482015290519081900360640190fd5b6001600160a01b0381166000908152600d6020526040902054610eb59083611acb565b6001600160a01b0382166000908152600d602052604090208190556007541015610f26576040805162461bcd60e51b815260206004820152601e60248201527f54726561737572793a2062757364536c6f744361702065786365656465640000604482015290519081900360640190fd5b600254604080516370a0823160e01b815230600482015290516000926001600160a01b0316916370a08231916024808301926020929190829003018186803b158015610f7157600080fd5b505afa158015610f85573d6000803e3d6000fd5b505050506040513d6020811015610f9b57600080fd5b5051600254604080516323b872dd60e01b81526001600160a01b0386811660048301523060248301526044820188905291519394509116916323b872dd916064808201926020929091908290030181600087803b158015610ffb57600080fd5b505af115801561100f573d6000803e3d6000fd5b505050506040513d602081101561102557600080fd5b5050600254604080516370a0823160e01b815230600482015290516000926001600160a01b0316916370a08231916024808301926020929190829003018186803b15801561107257600080fd5b505afa158015611086573d6000803e3d6000fd5b505050506040513d602081101561109c57600080fd5b50519050836110ab8284611b2e565b146110fd576040805162461bcd60e51b815260206004820152601a60248201527f54726561737572793a20696e76616c6964207472616e73666572000000000000604482015290519081900360640190fd5b60055460009061111a9061111487620f4240611b70565b90611bc9565b6001546040805163a9059cbb60e01b81526001600160a01b0388811660048301526024820185905291519394506301000000909204169163a9059cbb916044808201926020929091908290030181600087803b15801561117957600080fd5b505af115801561118d573d6000803e3d6000fd5b505050506040513d60208110156111a357600080fd5b505060016000555050505050565b600c546001600160a01b031633146111fe576040805162461bcd60e51b81526020600482015260136024820152600080516020611d08833981519152604482015290519081900360640190fd5b60026000541415611244576040805162461bcd60e51b815260206004820152601f6024820152600080516020611d28833981519152604482015290519081900360640190fd5b600260009081556001600160a01b0383168152600e602052604090205460ff166112b5576040805162461bcd60e51b815260206004820152601d60248201527f54726561737572793a20696e76616c696420707265764163636f756e74000000604482015290519081900360640190fd5b6001600160a01b039182166000908152600e6020526040808220805460ff19908116909155929093168152918220805490911660019081179091559055565b6004546001600160a01b031681565b600c546001600160a01b03163314611350576040805162461bcd60e51b81526020600482015260136024820152600080516020611d08833981519152604482015290519081900360640190fd5b60026000541415611396576040805162461bcd60e51b815260206004820152601f6024820152600080516020611d28833981519152604482015290519081900360640190fd5b6002600055600a5481116113f1576040805162461bcd60e51b815260206004820152601d60248201527f54726561737572793a20696e76616c6964205f756e6c6f636b54696d65000000604482015290519081900360640190fd5b600a556001600055565b600c546001600160a01b03163314611448576040805162461bcd60e51b81526020600482015260136024820152600080516020611d08833981519152604482015290519081900360640190fd5b6002600054141561148e576040805162461bcd60e51b815260206004820152601f6024820152600080516020611d28833981519152604482015290519081900360640190fd5b600260009081555b8151811015610a695760008282815181106114ad57fe5b6020908102919091018101516001600160a01b03166000908152600e90915260409020805460ff19166001908117909155919091019050611496565b600c546001600160a01b03163314611536576040805162461bcd60e51b81526020600482015260136024820152600080516020611d08833981519152604482015290519081900360640190fd5b6002600054141561157c576040805162461bcd60e51b815260206004820152601f6024820152600080516020611d28833981519152604482015290519081900360640190fd5b600c80546001600160a01b0319166001600160a01b03929092169190911790556001600055565b600e6020526000908152604090205460ff1681565b60075481565b600154610100900460ff1681565b600c546001600160a01b03163314611619576040805162461bcd60e51b81526020600482015260136024820152600080516020611d08833981519152604482015290519081900360640190fd5b6002600054141561165f576040805162461bcd60e51b815260206004820152601f6024820152600080516020611d28833981519152604482015290519081900360640190fd5b6001805461ff0019168155600055565b600c546001600160a01b031633146116bc576040805162461bcd60e51b81526020600482015260136024820152600080516020611d08833981519152604482015290519081900360640190fd5b60026000541415611702576040805162461bcd60e51b815260206004820152601f6024820152600080516020611d28833981519152604482015290519081900360640190fd5b600260005560015462010000900460ff161561174f5760405162461bcd60e51b8152600401808060200182810382526021815260200180611dd06021913960400191505060405180910390fd5b6001805462ff0000191662010000179055600954600b5460009161177b91612710916111149190611b70565b9050600061179b600654611114620f424085611b7090919063ffffffff16565b6002546003546040805163095ea7b360e01b81526001600160a01b03928316600482015260248101879052905193945091169163095ea7b3916044808201926020929091908290030181600087803b1580156117f657600080fd5b505af115801561180a573d6000803e3d6000fd5b505050506040513d602081101561182057600080fd5b50506001546003546040805163095ea7b360e01b81526001600160a01b03928316600482015260248101859052905163010000009093049091169163095ea7b3916044808201926020929091908290030181600087803b15801561188357600080fd5b505af1158015611897573d6000803e3d6000fd5b505050506040513d60208110156118ad57600080fd5b505060015460408051631b14974160e21b8152905163010000009092046001600160a01b031691636c525d049160048082019260009290919082900301818387803b1580156118fb57600080fd5b505af115801561190f573d6000803e3d6000fd5b50506003546002546001546040805162e8e33760e81b81526001600160a01b039384166004820152630100000090920483166024830152604482018890526064820187905260006084830181905260a483018190523060c48401524260e4840152905192909316945063e8e337009350610104808201936060939283900390910190829087803b1580156119a257600080fd5b505af11580156119b6573d6000803e3d6000fd5b505050506040513d60608110156119cc57600080fd5b505060015460408051637f00ca7960e11b8152905163010000009092046001600160a01b03169163fe0194f29160048082019260009290919082900301818387803b158015611a1a57600080fd5b505af1158015611a2e573d6000803e3d6000fd5b5050600b5460009250611a42915084611b2e565b600254600480546040805163a9059cbb60e01b81526001600160a01b039283169381019390935260248301859052519394509091169163a9059cbb916044808201926020929091908290030181600087803b15801561078757600080fd5b600b5481565b600154630100000090046001600160a01b031681565b6003546001600160a01b031681565b600082820183811015611b25576040805162461bcd60e51b815260206004820152601b60248201527f536166654d6174683a206164646974696f6e206f766572666c6f770000000000604482015290519081900360640190fd5b90505b92915050565b6000611b2583836040518060400160405280601e81526020017f536166654d6174683a207375627472616374696f6e206f766572666c6f770000815250611c0b565b600082611b7f57506000611b28565b82820282848281611b8c57fe5b0414611b255760405162461bcd60e51b8152600401808060200182810382526021815260200180611d8c6021913960400191505060405180910390fd5b6000611b2583836040518060400160405280601a81526020017f536166654d6174683a206469766973696f6e206279207a65726f000000000000815250611ca2565b60008184841115611c9a5760405162461bcd60e51b81526004018080602001828103825283818151815260200191508051906020019080838360005b83811015611c5f578181015183820152602001611c47565b50505050905090810190601f168015611c8c5780820380516001836020036101000a031916815260200191505b509250505060405180910390fd5b505050900390565b60008183611cf15760405162461bcd60e51b8152602060048201818152835160248401528351909283926044909101919085019080838360008315611c5f578181015183820152602001611c47565b506000838581611cfd57fe5b049594505050505056fe54726561737572793a20666f7262696464656e000000000000000000000000005265656e7472616e637947756172643a207265656e7472616e742063616c6c0054726561737572793a20696e76616c6964205f627573644261736973506f696e747354726561737572793a2073776170206973206e6f206c6f6e67657220616374697665536166654d6174683a206d756c7469706c69636174696f6e206f766572666c6f7754726561737572793a20756e6c6f636b54696d65206e6f74207965742070617373656454726561737572793a206c697175696469747920616c7265616479206164646564a2646970667358221220add064cbec1cff8cc51f45c6c22015cabc98f59014a38e07ffc1816dd0fe60ab64736f6c634300060c0033",
  "linkReferences": {},
  "deployedLinkReferences": {}
}