{
  "_format": "hh-sol-artifact-1",
  "contractName": "VaultReader",
  "sourceName": "contracts/peripherals/VaultReader.sol",
  "abi": [
    {
      "inputs": [
        {
          "internalType": "address",
          "name": "_vault",
          "type": "address"
        },
        {
          "internalType": "address",
          "name": "_positionManager",
          "type": "address"
        },
        {
          "internalType": "address",
          "name": "_weth",
          "type": "address"
        },
        {
          "internalType": "uint256",
          "name": "_usdgAmount",
          "type": "uint256"
        },
        {
          "internalType": "address[]",
          "name": "_tokens",
          "type": "address[]"
        }
      ],
      "name": "getVaultTokenInfoV3",
      "outputs": [
        {
          "internalType": "uint256[]",
          "name": "",
          "type": "uint256[]"
        }
      ],
      "stateMutability": "view",
      "type": "function"
    }
  ],
  "bytecode": "0x608060405234801561001057600080fd5b50610af1806100206000396000f3fe608060405234801561001057600080fd5b506004361061002b5760003560e01c8063f75e810114610030575b600080fd5b6100f9600480360360a081101561004657600080fd5b6001600160a01b03823581169260208101358216926040820135909216916060820135919081019060a081016080820135600160201b81111561008857600080fd5b82018360208201111561009a57600080fd5b803590602001918460208302840111600160201b831117156100bb57600080fd5b919080806020026020016040519081016040528093929190818152602001838360200280828437600092019190915250929550610149945050505050565b60408051602080825283518183015283519192839290830191858101910280838360005b8381101561013557818101518382015260200161011d565b505050509050019250505060405180910390f35b60606000600e905060008790506000816001600160a01b031663741bef1a6040518163ffffffff1660e01b815260040160206040518083038186803b15801561019157600080fd5b505afa1580156101a5573d6000803e3d6000fd5b505050506040513d60208110156101bb57600080fd5b50518551909150889060609085026001600160401b03811180156101de57600080fd5b50604051908082528060200260200182016040528015610208578160200160208202803683370190505b50905060005b8751811015610aac57600088828151811061022557fe5b6020026020010151905060006001600160a01b0316816001600160a01b0316141561024d5750895b856001600160a01b03166352f55eed826040518263ffffffff1660e01b815260040180826001600160a01b0316815260200191505060206040518083038186803b15801561029a57600080fd5b505afa1580156102ae573d6000803e3d6000fd5b505050506040513d60208110156102c457600080fd5b505183518490848a029081106102d657fe5b602002602001018181525050856001600160a01b031663c3c7b9e9826040518263ffffffff1660e01b815260040180826001600160a01b0316815260200191505060206040518083038186803b15801561032f57600080fd5b505afa158015610343573d6000803e3d6000fd5b505050506040513d602081101561035957600080fd5b5051835184906001858b020190811061036e57fe5b602002602001018181525050856001600160a01b0316631aa4ace5826040518263ffffffff1660e01b815260040180826001600160a01b0316815260200191505060206040518083038186803b1580156103c757600080fd5b505afa1580156103db573d6000803e3d6000fd5b505050506040513d60208110156103f157600080fd5b5051835184906002858b020190811061040657fe5b602002602001018181525050856001600160a01b0316632c668ec1828c6040518363ffffffff1660e01b815260040180836001600160a01b031681526020018281526020019250505060206040518083038186803b15801561046757600080fd5b505afa15801561047b573d6000803e3d6000fd5b505050506040513d602081101561049157600080fd5b5051835184906003858b02019081106104a657fe5b602002602001018181525050856001600160a01b031663ab2f3ad4826040518263ffffffff1660e01b815260040180826001600160a01b0316815260200191505060206040518083038186803b1580156104ff57600080fd5b505afa158015610513573d6000803e3d6000fd5b505050506040513d602081101561052957600080fd5b5051835184906004858b020190811061053e57fe5b602002602001018181525050856001600160a01b0316634a993ee9826040518263ffffffff1660e01b815260040180826001600160a01b0316815260200191505060206040518083038186803b15801561059757600080fd5b505afa1580156105ab573d6000803e3d6000fd5b505050506040513d60208110156105c157600080fd5b5051835184906005858b02019081106105d657fe5b602002602001018181525050856001600160a01b031663ad1e4f8d826040518263ffffffff1660e01b815260040180826001600160a01b0316815260200191505060206040518083038186803b15801561062f57600080fd5b505afa158015610643573d6000803e3d6000fd5b505050506040513d602081101561065957600080fd5b5051835184906006858b020190811061066e57fe5b602002602001018181525050856001600160a01b0316638a78daa8826040518263ffffffff1660e01b815260040180826001600160a01b0316815260200191505060206040518083038186803b1580156106c757600080fd5b505afa1580156106db573d6000803e3d6000fd5b505050506040513d60208110156106f157600080fd5b5051835184906007858b020190811061070657fe5b602002602001018181525050836001600160a01b0316639698d25a826040518263ffffffff1660e01b815260040180826001600160a01b0316815260200191505060206040518083038186803b15801561075f57600080fd5b505afa158015610773573d6000803e3d6000fd5b505050506040513d602081101561078957600080fd5b5051835184906008858b020190811061079e57fe5b602002602001018181525050856001600160a01b03166381a612d6826040518263ffffffff1660e01b815260040180826001600160a01b0316815260200191505060206040518083038186803b1580156107f757600080fd5b505afa15801561080b573d6000803e3d6000fd5b505050506040513d602081101561082157600080fd5b5051835184906009858b020190811061083657fe5b602002602001018181525050856001600160a01b031663e124e6d2826040518263ffffffff1660e01b815260040180826001600160a01b0316815260200191505060206040518083038186803b15801561088f57600080fd5b505afa1580156108a3573d6000803e3d6000fd5b505050506040513d60208110156108b957600080fd5b505183518490600a858b02019081106108ce57fe5b602002602001018181525050856001600160a01b031663f07456ce826040518263ffffffff1660e01b815260040180826001600160a01b0316815260200191505060206040518083038186803b15801561092757600080fd5b505afa15801561093b573d6000803e3d6000fd5b505050506040513d602081101561095157600080fd5b505183518490600b858b020190811061096657fe5b602090810291909101810191909152604080516356c8c2c160e01b81526001600160a01b038481166004830152600060248301529151918816926356c8c2c192604480840193829003018186803b1580156109c057600080fd5b505afa1580156109d4573d6000803e3d6000fd5b505050506040513d60208110156109ea57600080fd5b505183518490600c858b02019081106109ff57fe5b602090810291909101810191909152604080516356c8c2c160e01b81526001600160a01b038481166004830152600160248301529151918816926356c8c2c192604480840193829003018186803b158015610a5957600080fd5b505afa158015610a6d573d6000803e3d6000fd5b505050506040513d6020811015610a8357600080fd5b505183518490600d858b0201908110610a9857fe5b60209081029190910101525060010161020e565b509a995050505050505050505056fea264697066735822122039b1b52cf85f922e90a124194827e477f664285c482cc226e20a4e6c11b39b3a64736f6c634300060c0033",
  "linkReferences": {},
  "deployedLinkReferences": {}
}