{
  "_format": "hh-sol-artifact-1",
  "contractName": "YieldFarm",
  "sourceName": "contracts/tokens/YieldFarm.sol",
  "abi": [
    {
      "inputs": [
        {
          "internalType": "string",
          "name": "_name",
          "type": "string"
        },
        {
          "internalType": "string",
          "name": "_symbol",
          "type": "string"
        },
        {
          "internalType": "address",
          "name": "_stakingToken",
          "type": "address"
        }
      ],
      "stateMutability": "nonpayable",
      "type": "constructor"
    },
    {
      "anonymous": false,
      "inputs": [
        {
          "indexed": true,
          "internalType": "address",
          "name": "owner",
          "type": "address"
        },
        {
          "indexed": true,
          "internalType": "address",
          "name": "spender",
          "type": "address"
        },
        {
          "indexed": false,
          "internalType": "uint256",
          "name": "value",
          "type": "uint256"
        }
      ],
      "name": "Approval",
      "type": "event"
    },
    {
      "anonymous": false,
      "inputs": [
        {
          "indexed": true,
          "internalType": "address",
          "name": "from",
          "type": "address"
        },
        {
          "indexed": true,
          "internalType": "address",
          "name": "to",
          "type": "address"
        },
        {
          "indexed": false,
          "internalType": "uint256",
          "name": "value",
          "type": "uint256"
        }
      ],
      "name": "Transfer",
      "type": "event"
    },
    {
      "inputs": [
        {
          "internalType": "address",
          "name": "_account",
          "type": "address"
        }
      ],
      "name": "addAdmin",
      "outputs": [],
      "stateMutability": "nonpayable",
      "type": "function"
    },
    {
      "inputs": [
        {
          "internalType": "address",
          "name": "_account",
          "type": "address"
        }
      ],
      "name": "addNonStakingAccount",
      "outputs": [],
      "stateMutability": "nonpayable",
      "type": "function"
    },
    {
      "inputs": [
        {
          "internalType": "address",
          "name": "",
          "type": "address"
        }
      ],
      "name": "admins",
      "outputs": [
        {
          "internalType": "bool",
          "name": "",
          "type": "bool"
        }
      ],
      "stateMutability": "view",
      "type": "function"
    },
    {
      "inputs": [
        {
          "internalType": "address",
          "name": "_owner",
          "type": "address"
        },
        {
          "internalType": "address",
          "name": "_spender",
          "type": "address"
        }
      ],
      "name": "allowance",
      "outputs": [
        {
          "internalType": "uint256",
          "name": "",
          "type": "uint256"
        }
      ],
      "stateMutability": "view",
      "type": "function"
    },
    {
      "inputs": [
        {
          "internalType": "address",
          "name": "",
          "type": "address"
        },
        {
          "internalType": "address",
          "name": "",
          "type": "address"
        }
      ],
      "name": "allowances",
      "outputs": [
        {
          "internalType": "uint256",
          "name": "",
          "type": "uint256"
        }
      ],
      "stateMutability": "view",
      "type": "function"
    },
    {
      "inputs": [
        {
          "internalType": "address",
          "name": "_spender",
          "type": "address"
        },
        {
          "internalType": "uint256",
          "name": "_amount",
          "type": "uint256"
        }
      ],
      "name": "approve",
      "outputs": [
        {
          "internalType": "bool",
          "name": "",
          "type": "bool"
        }
      ],
      "stateMutability": "nonpayable",
      "type": "function"
    },
    {
      "inputs": [
        {
          "internalType": "address",
          "name": "_account",
          "type": "address"
        }
      ],
      "name": "balanceOf",
      "outputs": [
        {
          "internalType": "uint256",
          "name": "",
          "type": "uint256"
        }
      ],
      "stateMutability": "view",
      "type": "function"
    },
    {
      "inputs": [
        {
          "internalType": "address",
          "name": "",
          "type": "address"
        }
      ],
      "name": "balances",
      "outputs": [
        {
          "internalType": "uint256",
          "name": "",
          "type": "uint256"
        }
      ],
      "stateMutability": "view",
      "type": "function"
    },
    {
      "inputs": [
        {
          "internalType": "address",
          "name": "_receiver",
          "type": "address"
        }
      ],
      "name": "claim",
      "outputs": [],
      "stateMutability": "nonpayable",
      "type": "function"
    },
    {
      "inputs": [],
      "name": "decimals",
      "outputs": [
        {
          "internalType": "uint8",
          "name": "",
          "type": "uint8"
        }
      ],
      "stateMutability": "view",
      "type": "function"
    },
    {
      "inputs": [],
      "name": "gov",
      "outputs": [
        {
          "internalType": "address",
          "name": "",
          "type": "address"
        }
      ],
      "stateMutability": "view",
      "type": "function"
    },
    {
      "inputs": [],
      "name": "name",
      "outputs": [
        {
          "internalType": "string",
          "name": "",
          "type": "string"
        }
      ],
      "stateMutability": "view",
      "type": "function"
    },
    {
      "inputs": [
        {
          "internalType": "address",
          "name": "",
          "type": "address"
        }
      ],
      "name": "nonStakingAccounts",
      "outputs": [
        {
          "internalType": "bool",
          "name": "",
          "type": "bool"
        }
      ],
      "stateMutability": "view",
      "type": "function"
    },
    {
      "inputs": [],
      "name": "nonStakingSupply",
      "outputs": [
        {
          "internalType": "uint256",
          "name": "",
          "type": "uint256"
        }
      ],
      "stateMutability": "view",
      "type": "function"
    },
    {
      "inputs": [
        {
          "internalType": "address",
          "name": "_account",
          "type": "address"
        },
        {
          "internalType": "address",
          "name": "_receiver",
          "type": "address"
        }
      ],
      "name": "recoverClaim",
      "outputs": [],
      "stateMutability": "nonpayable",
      "type": "function"
    },
    {
      "inputs": [
        {
          "internalType": "address",
          "name": "_account",
          "type": "address"
        }
      ],
      "name": "removeAdmin",
      "outputs": [],
      "stateMutability": "nonpayable",
      "type": "function"
    },
    {
      "inputs": [
        {
          "internalType": "address",
          "name": "_account",
          "type": "address"
        }
      ],
      "name": "removeNonStakingAccount",
      "outputs": [],
      "stateMutability": "nonpayable",
      "type": "function"
    },
    {
      "inputs": [
        {
          "internalType": "address",
          "name": "_gov",
          "type": "address"
        }
      ],
      "name": "setGov",
      "outputs": [],
      "stateMutability": "nonpayable",
      "type": "function"
    },
    {
      "inputs": [
        {
          "internalType": "string",
          "name": "_name",
          "type": "string"
        },
        {
          "internalType": "string",
          "name": "_symbol",
          "type": "string"
        }
      ],
      "name": "setInfo",
      "outputs": [],
      "stateMutability": "nonpayable",
      "type": "function"
    },
    {
      "inputs": [
        {
          "internalType": "address[]",
          "name": "_yieldTrackers",
          "type": "address[]"
        }
      ],
      "name": "setYieldTrackers",
      "outputs": [],
      "stateMutability": "nonpayable",
      "type": "function"
    },
    {
      "inputs": [
        {
          "internalType": "uint256",
          "name": "_amount",
          "type": "uint256"
        }
      ],
      "name": "stake",
      "outputs": [],
      "stateMutability": "nonpayable",
      "type": "function"
    },
    {
      "inputs": [
        {
          "internalType": "address",
          "name": "_account",
          "type": "address"
        }
      ],
      "name": "stakedBalance",
      "outputs": [
        {
          "internalType": "uint256",
          "name": "",
          "type": "uint256"
        }
      ],
      "stateMutability": "view",
      "type": "function"
    },
    {
      "inputs": [],
      "name": "stakingToken",
      "outputs": [
        {
          "internalType": "address",
          "name": "",
          "type": "address"
        }
      ],
      "stateMutability": "view",
      "type": "function"
    },
    {
      "inputs": [],
      "name": "symbol",
      "outputs": [
        {
          "internalType": "string",
          "name": "",
          "type": "string"
        }
      ],
      "stateMutability": "view",
      "type": "function"
    },
    {
      "inputs": [],
      "name": "totalStaked",
      "outputs": [
        {
          "internalType": "uint256",
          "name": "",
          "type": "uint256"
        }
      ],
      "stateMutability": "view",
      "type": "function"
    },
    {
      "inputs": [],
      "name": "totalSupply",
      "outputs": [
        {
          "internalType": "uint256",
          "name": "",
          "type": "uint256"
        }
      ],
      "stateMutability": "view",
      "type": "function"
    },
    {
      "inputs": [
        {
          "internalType": "address",
          "name": "_recipient",
          "type": "address"
        },
        {
          "internalType": "uint256",
          "name": "_amount",
          "type": "uint256"
        }
      ],
      "name": "transfer",
      "outputs": [
        {
          "internalType": "bool",
          "name": "",
          "type": "bool"
        }
      ],
      "stateMutability": "nonpayable",
      "type": "function"
    },
    {
      "inputs": [
        {
          "internalType": "address",
          "name": "_sender",
          "type": "address"
        },
        {
          "internalType": "address",
          "name": "_recipient",
          "type": "address"
        },
        {
          "internalType": "uint256",
          "name": "_amount",
          "type": "uint256"
        }
      ],
      "name": "transferFrom",
      "outputs": [
        {
          "internalType": "bool",
          "name": "",
          "type": "bool"
        }
      ],
      "stateMutability": "nonpayable",
      "type": "function"
    },
    {
      "inputs": [
        {
          "internalType": "uint256",
          "name": "_amount",
          "type": "uint256"
        }
      ],
      "name": "unstake",
      "outputs": [],
      "stateMutability": "nonpayable",
      "type": "function"
    },
    {
      "inputs": [
        {
          "internalType": "address",
          "name": "_token",
          "type": "address"
        },
        {
          "internalType": "address",
          "name": "_account",
          "type": "address"
        },
        {
          "internalType": "uint256",
          "name": "_amount",
          "type": "uint256"
        }
      ],
      "name": "withdrawToken",
      "outputs": [],
      "stateMutability": "nonpayable",
      "type": "function"
    },
    {
      "inputs": [
        {
          "internalType": "uint256",
          "name": "",
          "type": "uint256"
        }
      ],
      "name": "yieldTrackers",
      "outputs": [
        {
          "internalType": "address",
          "name": "",
          "type": "address"
        }
      ],
      "stateMutability": "view",
      "type": "function"
    }
  ],
  "bytecode": "0x60806040523480156200001157600080fd5b50604051620023bc380380620023bc833981810160405260608110156200003757600080fd5b81019080805160405193929190846401000000008211156200005857600080fd5b9083019060208201858111156200006e57600080fd5b82516401000000008111828201881017156200008957600080fd5b82525081516020918201929091019080838360005b83811015620000b85781810151838201526020016200009e565b50505050905090810190601f168015620000e65780820380516001836020036101000a031916815260200191505b50604052602001805160405193929190846401000000008211156200010a57600080fd5b9083019060208201858111156200012057600080fd5b82516401000000008111828201881017156200013b57600080fd5b82525081516020918201929091019080838360005b838110156200016a57818101518382015260200162000150565b50505050905090810190601f168015620001985780820380516001836020036101000a031916815260200191505b5060405260209081015185519093508592508491600091620001c09183919086019062000479565b508151620001d690600190602085019062000479565b50600480546001600160a01b031916339081179091556000818152600960205260409020805460ff1916600117905562000211908262000242565b50506001600a5550600b80546001600160a01b0319166001600160a01b039290921691909117905550620005159050565b6001600160a01b038216620002895760405162461bcd60e51b8152600401808060200182810382526024815260200180620023986024913960400191505060405180910390fd5b620002948262000378565b620002b0816002546200041760201b6200117d1790919060201c565b6002556001600160a01b038216600090815260056020908152604090912054620002e59183906200117d62000417821b17901c565b6001600160a01b03831660009081526005602090815260408083209390935560089052205460ff161562000333576200032f816003546200041760201b6200117d1790919060201c565b6003555b6040805182815290516001600160a01b038416916000917fddf252ad1be2c89b69c2b068fc378daa952ba7f163c4a11628f55a4df523b3ef9181900360200190a35050565b60005b60075481101562000413576000600782815481106200039657fe5b600091825260208220015460408051635fd6196560e01b81526001600160a01b03878116600483015291519190921693508392635fd61965926024808201939182900301818387803b158015620003ec57600080fd5b505af115801562000401573d6000803e3d6000fd5b5050600190930192506200037b915050565b5050565b60008282018381101562000472576040805162461bcd60e51b815260206004820152601b60248201527f536166654d6174683a206164646974696f6e206f766572666c6f770000000000604482015290519081900360640190fd5b9392505050565b828054600181600116156101000203166002900490600052602060002090601f016020900481019282601f10620004bc57805160ff1916838001178555620004ec565b82800160010185558215620004ec579182015b82811115620004ec578251825591602001919060010190620004cf565b50620004fa929150620004fe565b5090565b5b80821115620004fa5760008155600101620004ff565b611e7380620005256000396000f3fe608060405234801561001057600080fd5b50600436106101755760003560e01c806301e336671461017a57806306fdde03146101b2578063095ea7b31461022f57806312d43a511461026f5780631785f53c1461029357806318160ddd146102b95780631e83409a146102d357806323b872dd146102f9578063276eab4e1461032f57806327e235e3146103d05780632e17de78146103f6578063313ce56714610413578063429b62e51461043157806352cd38d91461045757806355b6ed5c1461047457806360217267146104a257806362289077146104c857806370480275146104ee57806370a082311461051457806372f702f31461053a578063817b1cd2146105425780639554381a1461054a57806395d89b4114610570578063996f11ee14610578578063a694fc3a146105a6578063a9059cbb146105c3578063a923fc40146105ef578063c93be63614610718578063cfad57a214610720578063dd62ed3e14610746578063fb30d91614610774575b600080fd5b6101b06004803603606081101561019057600080fd5b506001600160a01b0381358116916020810135909116906040013561079a565b005b6101ba610805565b6040805160208082528351818301528351919283929083019185019080838360005b838110156101f45781810151838201526020016101dc565b50505050905090810190601f1680156102215780820380516001836020036101000a031916815260200191505b509250505060405180910390f35b61025b6004803603604081101561024557600080fd5b506001600160a01b038135169060200135610893565b604080519115158252519081900360200190f35b6102776108a9565b604080516001600160a01b039092168252519081900360200190f35b6101b0600480360360208110156102a957600080fd5b50356001600160a01b03166108b8565b6102c1610926565b60408051918252519081900360200190f35b6101b0600480360360208110156102e957600080fd5b50356001600160a01b031661092c565b61025b6004803603606081101561030f57600080fd5b506001600160a01b038135811691602081013590911690604001356109e3565b6101b06004803603602081101561034557600080fd5b810190602081018135600160201b81111561035f57600080fd5b82018360208201111561037157600080fd5b803590602001918460208302840111600160201b8311171561039257600080fd5b919080806020026020016040519081016040528093929190818152602001838360200280828437600092019190915250929550610a53945050505050565b6102c1600480360360208110156103e657600080fd5b50356001600160a01b0316610ab3565b6101b06004803603602081101561040c57600080fd5b5035610ac5565b61041b610b39565b6040805160ff9092168252519081900360200190f35b61025b6004803603602081101561044757600080fd5b50356001600160a01b0316610b3e565b6102776004803603602081101561046d57600080fd5b5035610b53565b6102c16004803603604081101561048a57600080fd5b506001600160a01b0381358116916020013516610b7a565b6102c1600480360360208110156104b857600080fd5b50356001600160a01b0316610b97565b6101b0600480360360208110156104de57600080fd5b50356001600160a01b0316610be0565b6101b06004803603602081101561050457600080fd5b50356001600160a01b0316610cca565b6102c16004803603602081101561052a57600080fd5b50356001600160a01b0316610d3b565b610277610d56565b6102c1610d65565b61025b6004803603602081101561056057600080fd5b50356001600160a01b0316610d83565b6101ba610d98565b6101b06004803603604081101561058e57600080fd5b506001600160a01b0381358116916020013516610df2565b6101b0600480360360208110156105bc57600080fd5b5035610ef9565b61025b600480360360408110156105d957600080fd5b506001600160a01b038135169060200135610f66565b6101b06004803603604081101561060557600080fd5b810190602081018135600160201b81111561061f57600080fd5b82018360208201111561063157600080fd5b803590602001918460018302840111600160201b8311171561065257600080fd5b91908080601f0160208091040260200160405190810160405280939291908181526020018383808284376000920191909152509295949360208101935035915050600160201b8111156106a457600080fd5b8201836020820111156106b657600080fd5b803590602001918460018302840111600160201b831117156106d757600080fd5b91908080601f016020809104026020016040519081016040528093929190818152602001838380828437600092019190915250929550610f73945050505050565b6102c1610fe7565b6101b06004803603602081101561073657600080fd5b50356001600160a01b0316610fed565b6102c16004803603604081101561075c57600080fd5b506001600160a01b038135811691602001351661105c565b6101b06004803603602081101561078a57600080fd5b50356001600160a01b0316611087565b3360009081526009602052604090205460ff166107ec576040805162461bcd60e51b81526020600482015260156024820152600080516020611df3833981519152604482015290519081900360640190fd5b6108006001600160a01b03841683836111d5565b505050565b6000805460408051602060026001851615610100026000190190941693909304601f8101849004840282018401909252818152929183018282801561088b5780601f106108605761010080835404028352916020019161088b565b820191906000526020600020905b81548152906001019060200180831161086e57829003601f168201915b505050505081565b60006108a0338484611227565b50600192915050565b6004546001600160a01b031681565b6004546001600160a01b03163314610905576040805162461bcd60e51b81526020600482015260156024820152600080516020611df3833981519152604482015290519081900360640190fd5b6001600160a01b03166000908152600960205260409020805460ff19169055565b60025481565b60005b6007548110156109df5760006007828154811061094857fe5b6000918252602080832090910154604080516310e059a160e11b81523360048201526001600160a01b038881166024830152915191909216945084936321c0b34293604480850194919392918390030190829087803b1580156109aa57600080fd5b505af11580156109be573d6000803e3d6000fd5b505050506040513d60208110156109d457600080fd5b50505060010161092f565b5050565b600080610a2e836040518060600160405280602d8152602001611dc6602d91396001600160a01b03881660009081526006602090815260408083203384529091529020549190611313565b9050610a3b853383611227565b610a468585856113aa565b60019150505b9392505050565b6004546001600160a01b03163314610aa0576040805162461bcd60e51b81526020600482015260156024820152600080516020611df3833981519152604482015290519081900360640190fd5b80516109df906007906020840190611b13565b60056020526000908152604090205481565b6002600a541415610b0b576040805162461bcd60e51b815260206004820152601f6024820152600080516020611c27833981519152604482015290519081900360640190fd5b6002600a55610b1a3382611567565b600b54610b31906001600160a01b031633836111d5565b506001600a55565b601281565b60096020526000908152604090205460ff1681565b60078181548110610b6057fe5b6000918252602090912001546001600160a01b0316905081565b600660209081526000928352604080842090915290825290205481565b6001600160a01b03811660009081526008602052604081205460ff1615610bc057506000610bdb565b506001600160a01b0381166000908152600560205260409020545b919050565b3360009081526009602052604090205460ff16610c32576040805162461bcd60e51b81526020600482015260156024820152600080516020611df3833981519152604482015290519081900360640190fd5b6001600160a01b03811660009081526008602052604090205460ff1615610c8a5760405162461bcd60e51b8152600401808060200182810382526023815260200180611c476023913960400191505060405180910390fd5b6001600160a01b0381166000908152600860209081526040808320805460ff191660011790556005909152902054600354610cc49161117d565b60035550565b6004546001600160a01b03163314610d17576040805162461bcd60e51b81526020600482015260156024820152600080516020611df3833981519152604482015290519081900360640190fd5b6001600160a01b03166000908152600960205260409020805460ff19166001179055565b6001600160a01b031660009081526005602052604090205490565b600b546001600160a01b031681565b6000610d7e60035460025461165990919063ffffffff16565b905090565b60086020526000908152604090205460ff1681565b60018054604080516020600284861615610100026000190190941693909304601f8101849004840282018401909252818152929183018282801561088b5780601f106108605761010080835404028352916020019161088b565b3360009081526009602052604090205460ff16610e44576040805162461bcd60e51b81526020600482015260156024820152600080516020611df3833981519152604482015290519081900360640190fd5b60005b60075481101561080057600060078281548110610e6057fe5b6000918252602080832090910154604080516310e059a160e11b81526001600160a01b0389811660048301528881166024830152915191909216945084936321c0b34293604480850194919392918390030190829087803b158015610ec457600080fd5b505af1158015610ed8573d6000803e3d6000fd5b505050506040513d6020811015610eee57600080fd5b505050600101610e47565b6002600a541415610f3f576040805162461bcd60e51b815260206004820152601f6024820152600080516020611c27833981519152604482015290519081900360640190fd5b6002600a55600b54610f5c906001600160a01b031633308461169b565b610b3133826116fb565b60006108a03384846113aa565b6004546001600160a01b03163314610fc0576040805162461bcd60e51b81526020600482015260156024820152600080516020611df3833981519152604482015290519081900360640190fd5b8151610fd3906000906020850190611b78565b508051610800906001906020840190611b78565b60035481565b6004546001600160a01b0316331461103a576040805162461bcd60e51b81526020600482015260156024820152600080516020611df3833981519152604482015290519081900360640190fd5b600480546001600160a01b0319166001600160a01b0392909216919091179055565b6001600160a01b03918216600090815260066020908152604080832093909416825291909152205490565b3360009081526009602052604090205460ff166110d9576040805162461bcd60e51b81526020600482015260156024820152600080516020611df3833981519152604482015290519081900360640190fd5b6001600160a01b03811660009081526008602052604090205460ff16611146576040805162461bcd60e51b815260206004820152601f60248201527f5969656c64546f6b656e3a205f6163636f756e74206e6f74206d61726b656400604482015290519081900360640190fd5b6001600160a01b0381166000908152600860209081526040808320805460ff191690556005909152902054600354610cc491611659565b600082820183811015610a4c576040805162461bcd60e51b815260206004820152601b60248201527a536166654d6174683a206164646974696f6e206f766572666c6f7760281b604482015290519081900360640190fd5b604080516001600160a01b038416602482015260448082018490528251808303909101815260649091019091526020810180516001600160e01b031663a9059cbb60e01b1790526108009084906117ed565b6001600160a01b03831661126c5760405162461bcd60e51b8152600401808060200182810382526029815260200180611d9d6029913960400191505060405180910390fd5b6001600160a01b0382166112b15760405162461bcd60e51b8152600401808060200182810382526027815260200180611d086027913960400191505060405180910390fd5b6001600160a01b03808416600081815260066020908152604080832094871680845294825291829020859055815185815291517f8c5be1e5ebec7d5bd14f71427d1e84f3dd0314c0f7b2291e5b200ac8c7c3b9259281900390910190a3505050565b600081848411156113a25760405162461bcd60e51b81526004018080602001828103825283818151815260200191508051906020019080838360005b8381101561136757818101518382015260200161134f565b50505050905090810190601f1680156113945780820380516001836020036101000a031916815260200191505b509250505060405180910390fd5b505050900390565b6001600160a01b0383166113ef5760405162461bcd60e51b815260040180806020018281038252602a815260200180611c92602a913960400191505060405180910390fd5b6001600160a01b0382166114345760405162461bcd60e51b8152600401808060200182810382526028815260200180611c6a6028913960400191505060405180910390fd5b61143d8361189e565b6114468261189e565b611483816040518060600160405280602b8152602001611e13602b91396001600160a01b0386166000908152600560205260409020549190611313565b6001600160a01b0380851660009081526005602052604080822093909355908416815220546114b2908261117d565b6001600160a01b0380841660009081526005602090815260408083209490945591861681526008909152205460ff16156114f7576003546114f39082611659565b6003555b6001600160a01b03821660009081526008602052604090205460ff161561152957600354611525908261117d565b6003555b816001600160a01b0316836001600160a01b0316600080516020611d53833981519152836040518082815260200191505060405180910390a3505050565b6001600160a01b0382166115ac5760405162461bcd60e51b8152600401808060200182810382526026815260200180611cbc6026913960400191505060405180910390fd5b6115b58261189e565b6002546115c29082611659565b6002556001600160a01b0382166000908152600560205260409020546115e89082611659565b6001600160a01b03831660009081526005602090815260408083209390935560089052205460ff1615611626576003546116229082611659565b6003555b6040805182815290516000916001600160a01b03851691600080516020611d538339815191529181900360200190a35050565b6000610a4c83836040518060400160405280601e81526020017f536166654d6174683a207375627472616374696f6e206f766572666c6f770000815250611313565b604080516001600160a01b0380861660248301528416604482015260648082018490528251808303909101815260849091019091526020810180516001600160e01b03166323b872dd60e01b1790526116f59085906117ed565b50505050565b6001600160a01b0382166117405760405162461bcd60e51b8152600401808060200182810382526024815260200180611d2f6024913960400191505060405180910390fd5b6117498261189e565b600254611756908261117d565b6002556001600160a01b03821660009081526005602052604090205461177c908261117d565b6001600160a01b03831660009081526005602090815260408083209390935560089052205460ff16156117ba576003546117b6908261117d565b6003555b6040805182815290516001600160a01b03841691600091600080516020611d538339815191529181900360200190a35050565b6060611842826040518060400160405280602081526020017f5361666545524332303a206c6f772d6c6576656c2063616c6c206661696c6564815250856001600160a01b03166119349092919063ffffffff16565b8051909150156108005780806020019051602081101561186157600080fd5b50516108005760405162461bcd60e51b815260040180806020018281038252602a815260200180611d73602a913960400191505060405180910390fd5b60005b6007548110156109df576000600782815481106118ba57fe5b600091825260208220015460408051635fd6196560e01b81526001600160a01b03878116600483015291519190921693508392635fd61965926024808201939182900301818387803b15801561190f57600080fd5b505af1158015611923573d6000803e3d6000fd5b5050600190930192506118a1915050565b6060611943848460008561194b565b949350505050565b60608247101561198c5760405162461bcd60e51b8152600401808060200182810382526026815260200180611ce26026913960400191505060405180910390fd5b61199585611aa7565b6119e6576040805162461bcd60e51b815260206004820152601d60248201527f416464726573733a2063616c6c20746f206e6f6e2d636f6e7472616374000000604482015290519081900360640190fd5b60006060866001600160a01b031685876040518082805190602001908083835b60208310611a255780518252601f199092019160209182019101611a06565b6001836020036101000a03801982511681845116808217855250505050505090500191505060006040518083038185875af1925050503d8060008114611a87576040519150601f19603f3d011682016040523d82523d6000602084013e611a8c565b606091505b5091509150611a9c828286611aad565b979650505050505050565b3b151590565b60608315611abc575081610a4c565b825115611acc5782518084602001fd5b60405162461bcd60e51b815260206004820181815284516024840152845185939192839260440191908501908083836000831561136757818101518382015260200161134f565b828054828255906000526020600020908101928215611b68579160200282015b82811115611b6857825182546001600160a01b0319166001600160a01b03909116178255602090920191600190910190611b33565b50611b74929150611bf2565b5090565b828054600181600116156101000203166002900490600052602060002090601f016020900481019282601f10611bb957805160ff1916838001178555611be6565b82800160010185558215611be6579182015b82811115611be6578251825591602001919060010190611bcb565b50611b74929150611c11565b5b80821115611b745780546001600160a01b0319168155600101611bf3565b5b80821115611b745760008155600101611c1256fe5265656e7472616e637947756172643a207265656e7472616e742063616c6c005969656c64546f6b656e3a205f6163636f756e7420616c7265616479206d61726b65645969656c64546f6b656e3a207472616e7366657220746f20746865207a65726f20616464726573735969656c64546f6b656e3a207472616e736665722066726f6d20746865207a65726f20616464726573735969656c64546f6b656e3a206275726e2066726f6d20746865207a65726f2061646472657373416464726573733a20696e73756666696369656e742062616c616e636520666f722063616c6c5969656c64546f6b656e3a20617070726f766520746f20746865207a65726f20616464726573735969656c64546f6b656e3a206d696e7420746f20746865207a65726f2061646472657373ddf252ad1be2c89b69c2b068fc378daa952ba7f163c4a11628f55a4df523b3ef5361666545524332303a204552433230206f7065726174696f6e20646964206e6f7420737563636565645969656c64546f6b656e3a20617070726f76652066726f6d20746865207a65726f20616464726573735969656c64546f6b656e3a207472616e7366657220616d6f756e74206578636565647320616c6c6f77616e63655969656c64546f6b656e3a20666f7262696464656e00000000000000000000005969656c64546f6b656e3a207472616e7366657220616d6f756e7420657863656564732062616c616e6365a26469706673582212201de446e95e7edf39d5a536ef7776162316e85d5bead0308b0777648da8347eee64736f6c634300060c00335969656c64546f6b656e3a206d696e7420746f20746865207a65726f2061646472657373",
  "linkReferences": {},
  "deployedLinkReferences": {}
}