{
  "_format": "hh-sol-artifact-1",
  "contractName": "YieldToken",
  "sourceName": "contracts/tokens/YieldToken.sol",
  "abi": [
    {
      "inputs": [
        {
          "internalType": "string",
          "name": "_name",
          "type": "string"
        },
        {
          "internalType": "string",
          "name": "_symbol",
          "type": "string"
        },
        {
          "internalType": "uint256",
          "name": "_initialSupply",
          "type": "uint256"
        }
      ],
      "stateMutability": "nonpayable",
      "type": "constructor"
    },
    {
      "anonymous": false,
      "inputs": [
        {
          "indexed": true,
          "internalType": "address",
          "name": "owner",
          "type": "address"
        },
        {
          "indexed": true,
          "internalType": "address",
          "name": "spender",
          "type": "address"
        },
        {
          "indexed": false,
          "internalType": "uint256",
          "name": "value",
          "type": "uint256"
        }
      ],
      "name": "Approval",
      "type": "event"
    },
    {
      "anonymous": false,
      "inputs": [
        {
          "indexed": true,
          "internalType": "address",
          "name": "from",
          "type": "address"
        },
        {
          "indexed": true,
          "internalType": "address",
          "name": "to",
          "type": "address"
        },
        {
          "indexed": false,
          "internalType": "uint256",
          "name": "value",
          "type": "uint256"
        }
      ],
      "name": "Transfer",
      "type": "event"
    },
    {
      "inputs": [
        {
          "internalType": "address",
          "name": "_account",
          "type": "address"
        }
      ],
      "name": "addAdmin",
      "outputs": [],
      "stateMutability": "nonpayable",
      "type": "function"
    },
    {
      "inputs": [
        {
          "internalType": "address",
          "name": "_account",
          "type": "address"
        }
      ],
      "name": "addNonStakingAccount",
      "outputs": [],
      "stateMutability": "nonpayable",
      "type": "function"
    },
    {
      "inputs": [
        {
          "internalType": "address",
          "name": "",
          "type": "address"
        }
      ],
      "name": "admins",
      "outputs": [
        {
          "internalType": "bool",
          "name": "",
          "type": "bool"
        }
      ],
      "stateMutability": "view",
      "type": "function"
    },
    {
      "inputs": [
        {
          "internalType": "address",
          "name": "_owner",
          "type": "address"
        },
        {
          "internalType": "address",
          "name": "_spender",
          "type": "address"
        }
      ],
      "name": "allowance",
      "outputs": [
        {
          "internalType": "uint256",
          "name": "",
          "type": "uint256"
        }
      ],
      "stateMutability": "view",
      "type": "function"
    },
    {
      "inputs": [
        {
          "internalType": "address",
          "name": "",
          "type": "address"
        },
        {
          "internalType": "address",
          "name": "",
          "type": "address"
        }
      ],
      "name": "allowances",
      "outputs": [
        {
          "internalType": "uint256",
          "name": "",
          "type": "uint256"
        }
      ],
      "stateMutability": "view",
      "type": "function"
    },
    {
      "inputs": [
        {
          "internalType": "address",
          "name": "_spender",
          "type": "address"
        },
        {
          "internalType": "uint256",
          "name": "_amount",
          "type": "uint256"
        }
      ],
      "name": "approve",
      "outputs": [
        {
          "internalType": "bool",
          "name": "",
          "type": "bool"
        }
      ],
      "stateMutability": "nonpayable",
      "type": "function"
    },
    {
      "inputs": [
        {
          "internalType": "address",
          "name": "_account",
          "type": "address"
        }
      ],
      "name": "balanceOf",
      "outputs": [
        {
          "internalType": "uint256",
          "name": "",
          "type": "uint256"
        }
      ],
      "stateMutability": "view",
      "type": "function"
    },
    {
      "inputs": [
        {
          "internalType": "address",
          "name": "",
          "type": "address"
        }
      ],
      "name": "balances",
      "outputs": [
        {
          "internalType": "uint256",
          "name": "",
          "type": "uint256"
        }
      ],
      "stateMutability": "view",
      "type": "function"
    },
    {
      "inputs": [
        {
          "internalType": "address",
          "name": "_receiver",
          "type": "address"
        }
      ],
      "name": "claim",
      "outputs": [],
      "stateMutability": "nonpayable",
      "type": "function"
    },
    {
      "inputs": [],
      "name": "decimals",
      "outputs": [
        {
          "internalType": "uint8",
          "name": "",
          "type": "uint8"
        }
      ],
      "stateMutability": "view",
      "type": "function"
    },
    {
      "inputs": [],
      "name": "gov",
      "outputs": [
        {
          "internalType": "address",
          "name": "",
          "type": "address"
        }
      ],
      "stateMutability": "view",
      "type": "function"
    },
    {
      "inputs": [],
      "name": "name",
      "outputs": [
        {
          "internalType": "string",
          "name": "",
          "type": "string"
        }
      ],
      "stateMutability": "view",
      "type": "function"
    },
    {
      "inputs": [
        {
          "internalType": "address",
          "name": "",
          "type": "address"
        }
      ],
      "name": "nonStakingAccounts",
      "outputs": [
        {
          "internalType": "bool",
          "name": "",
          "type": "bool"
        }
      ],
      "stateMutability": "view",
      "type": "function"
    },
    {
      "inputs": [],
      "name": "nonStakingSupply",
      "outputs": [
        {
          "internalType": "uint256",
          "name": "",
          "type": "uint256"
        }
      ],
      "stateMutability": "view",
      "type": "function"
    },
    {
      "inputs": [
        {
          "internalType": "address",
          "name": "_account",
          "type": "address"
        },
        {
          "internalType": "address",
          "name": "_receiver",
          "type": "address"
        }
      ],
      "name": "recoverClaim",
      "outputs": [],
      "stateMutability": "nonpayable",
      "type": "function"
    },
    {
      "inputs": [
        {
          "internalType": "address",
          "name": "_account",
          "type": "address"
        }
      ],
      "name": "removeAdmin",
      "outputs": [],
      "stateMutability": "nonpayable",
      "type": "function"
    },
    {
      "inputs": [
        {
          "internalType": "address",
          "name": "_account",
          "type": "address"
        }
      ],
      "name": "removeNonStakingAccount",
      "outputs": [],
      "stateMutability": "nonpayable",
      "type": "function"
    },
    {
      "inputs": [
        {
          "internalType": "address",
          "name": "_gov",
          "type": "address"
        }
      ],
      "name": "setGov",
      "outputs": [],
      "stateMutability": "nonpayable",
      "type": "function"
    },
    {
      "inputs": [
        {
          "internalType": "string",
          "name": "_name",
          "type": "string"
        },
        {
          "internalType": "string",
          "name": "_symbol",
          "type": "string"
        }
      ],
      "name": "setInfo",
      "outputs": [],
      "stateMutability": "nonpayable",
      "type": "function"
    },
    {
      "inputs": [
        {
          "internalType": "address[]",
          "name": "_yieldTrackers",
          "type": "address[]"
        }
      ],
      "name": "setYieldTrackers",
      "outputs": [],
      "stateMutability": "nonpayable",
      "type": "function"
    },
    {
      "inputs": [
        {
          "internalType": "address",
          "name": "_account",
          "type": "address"
        }
      ],
      "name": "stakedBalance",
      "outputs": [
        {
          "internalType": "uint256",
          "name": "",
          "type": "uint256"
        }
      ],
      "stateMutability": "view",
      "type": "function"
    },
    {
      "inputs": [],
      "name": "symbol",
      "outputs": [
        {
          "internalType": "string",
          "name": "",
          "type": "string"
        }
      ],
      "stateMutability": "view",
      "type": "function"
    },
    {
      "inputs": [],
      "name": "totalStaked",
      "outputs": [
        {
          "internalType": "uint256",
          "name": "",
          "type": "uint256"
        }
      ],
      "stateMutability": "view",
      "type": "function"
    },
    {
      "inputs": [],
      "name": "totalSupply",
      "outputs": [
        {
          "internalType": "uint256",
          "name": "",
          "type": "uint256"
        }
      ],
      "stateMutability": "view",
      "type": "function"
    },
    {
      "inputs": [
        {
          "internalType": "address",
          "name": "_recipient",
          "type": "address"
        },
        {
          "internalType": "uint256",
          "name": "_amount",
          "type": "uint256"
        }
      ],
      "name": "transfer",
      "outputs": [
        {
          "internalType": "bool",
          "name": "",
          "type": "bool"
        }
      ],
      "stateMutability": "nonpayable",
      "type": "function"
    },
    {
      "inputs": [
        {
          "internalType": "address",
          "name": "_sender",
          "type": "address"
        },
        {
          "internalType": "address",
          "name": "_recipient",
          "type": "address"
        },
        {
          "internalType": "uint256",
          "name": "_amount",
          "type": "uint256"
        }
      ],
      "name": "transferFrom",
      "outputs": [
        {
          "internalType": "bool",
          "name": "",
          "type": "bool"
        }
      ],
      "stateMutability": "nonpayable",
      "type": "function"
    },
    {
      "inputs": [
        {
          "internalType": "address",
          "name": "_token",
          "type": "address"
        },
        {
          "internalType": "address",
          "name": "_account",
          "type": "address"
        },
        {
          "internalType": "uint256",
          "name": "_amount",
          "type": "uint256"
        }
      ],
      "name": "withdrawToken",
      "outputs": [],
      "stateMutability": "nonpayable",
      "type": "function"
    },
    {
      "inputs": [
        {
          "internalType": "uint256",
          "name": "",
          "type": "uint256"
        }
      ],
      "name": "yieldTrackers",
      "outputs": [
        {
          "internalType": "address",
          "name": "",
          "type": "address"
        }
      ],
      "stateMutability": "view",
      "type": "function"
    }
  ],
  "bytecode": "0x60806040523480156200001157600080fd5b5060405162001f7e38038062001f7e833981810160405260608110156200003757600080fd5b81019080805160405193929190846401000000008211156200005857600080fd5b9083019060208201858111156200006e57600080fd5b82516401000000008111828201881017156200008957600080fd5b82525081516020918201929091019080838360005b83811015620000b85781810151838201526020016200009e565b50505050905090810190601f168015620000e65780820380516001836020036101000a031916815260200191505b50604052602001805160405193929190846401000000008211156200010a57600080fd5b9083019060208201858111156200012057600080fd5b82516401000000008111828201881017156200013b57600080fd5b82525081516020918201929091019080838360005b838110156200016a57818101518382015260200162000150565b50505050905090810190601f168015620001985780820380516001836020036101000a031916815260200191505b506040526020908101518551909350620001b992506000918601906200044a565b508151620001cf9060019060208501906200044a565b50600480546001600160a01b031916339081179091556000818152600960205260409020805460ff191660011790556200020a908262000213565b505050620004e6565b6001600160a01b0382166200025a5760405162461bcd60e51b815260040180806020018281038252602481526020018062001f5a6024913960400191505060405180910390fd5b620002658262000349565b6200028181600254620003e860201b6200102a1790919060201c565b6002556001600160a01b038216600090815260056020908152604090912054620002b69183906200102a620003e8821b17901c565b6001600160a01b03831660009081526005602090815260408083209390935560089052205460ff161562000304576200030081600354620003e860201b6200102a1790919060201c565b6003555b6040805182815290516001600160a01b038416916000917fddf252ad1be2c89b69c2b068fc378daa952ba7f163c4a11628f55a4df523b3ef9181900360200190a35050565b60005b600754811015620003e4576000600782815481106200036757fe5b600091825260208220015460408051635fd6196560e01b81526001600160a01b03878116600483015291519190921693508392635fd61965926024808201939182900301818387803b158015620003bd57600080fd5b505af1158015620003d2573d6000803e3d6000fd5b5050600190930192506200034c915050565b5050565b60008282018381101562000443576040805162461bcd60e51b815260206004820152601b60248201527f536166654d6174683a206164646974696f6e206f766572666c6f770000000000604482015290519081900360640190fd5b9392505050565b828054600181600116156101000203166002900490600052602060002090601f016020900481019282601f106200048d57805160ff1916838001178555620004bd565b82800160010185558215620004bd579182015b82811115620004bd578251825591602001919060010190620004a0565b50620004cb929150620004cf565b5090565b5b80821115620004cb5760008155600101620004d0565b611a6480620004f66000396000f3fe608060405234801561001057600080fd5b50600436106101545760003560e01c806301e336671461015957806306fdde0314610191578063095ea7b31461020e57806312d43a511461024e5780631785f53c1461027257806318160ddd146102985780631e83409a146102b257806323b872dd146102d8578063276eab4e1461030e57806327e235e3146103af578063313ce567146103d5578063429b62e5146103f357806352cd38d91461041957806355b6ed5c146104365780636021726714610464578063622890771461048a57806370480275146104b057806370a08231146104d6578063817b1cd2146104fc5780639554381a1461050457806395d89b411461052a578063996f11ee14610532578063a9059cbb14610560578063a923fc401461058c578063c93be636146106b5578063cfad57a2146106bd578063dd62ed3e146106e3578063fb30d91614610711575b600080fd5b61018f6004803603606081101561016f57600080fd5b506001600160a01b03813581169160208101359091169060400135610737565b005b6101996107a2565b6040805160208082528351818301528351919283929083019185019080838360005b838110156101d35781810151838201526020016101bb565b50505050905090810190601f1680156102005780820380516001836020036101000a031916815260200191505b509250505060405180910390f35b61023a6004803603604081101561022457600080fd5b506001600160a01b038135169060200135610830565b604080519115158252519081900360200190f35b610256610846565b604080516001600160a01b039092168252519081900360200190f35b61018f6004803603602081101561028857600080fd5b50356001600160a01b0316610855565b6102a06108c3565b60408051918252519081900360200190f35b61018f600480360360208110156102c857600080fd5b50356001600160a01b03166108c9565b61023a600480360360608110156102ee57600080fd5b506001600160a01b03813581169160208101359091169060400135610980565b61018f6004803603602081101561032457600080fd5b810190602081018135600160201b81111561033e57600080fd5b82018360208201111561035057600080fd5b803590602001918460208302840111600160201b8311171561037157600080fd5b9190808060200260200160405190810160405280939291908181526020018383602002808284376000920191909152509295506109f0945050505050565b6102a0600480360360208110156103c557600080fd5b50356001600160a01b0316610a50565b6103dd610a62565b6040805160ff9092168252519081900360200190f35b61023a6004803603602081101561040957600080fd5b50356001600160a01b0316610a67565b6102566004803603602081101561042f57600080fd5b5035610a7c565b6102a06004803603604081101561044c57600080fd5b506001600160a01b0381358116916020013516610aa3565b6102a06004803603602081101561047a57600080fd5b50356001600160a01b0316610ac0565b61018f600480360360208110156104a057600080fd5b50356001600160a01b0316610b09565b61018f600480360360208110156104c657600080fd5b50356001600160a01b0316610bf3565b6102a0600480360360208110156104ec57600080fd5b50356001600160a01b0316610c64565b6102a0610c7f565b61023a6004803603602081101561051a57600080fd5b50356001600160a01b0316610c9d565b610199610cb2565b61018f6004803603604081101561054857600080fd5b506001600160a01b0381358116916020013516610d0c565b61023a6004803603604081101561057657600080fd5b506001600160a01b038135169060200135610e13565b61018f600480360360408110156105a257600080fd5b810190602081018135600160201b8111156105bc57600080fd5b8201836020820111156105ce57600080fd5b803590602001918460018302840111600160201b831117156105ef57600080fd5b91908080601f0160208091040260200160405190810160405280939291908181526020018383808284376000920191909152509295949360208101935035915050600160201b81111561064157600080fd5b82018360208201111561065357600080fd5b803590602001918460018302840111600160201b8311171561067457600080fd5b91908080601f016020809104026020016040519081016040528093929190818152602001838380828437600092019190915250929550610e20945050505050565b6102a0610e94565b61018f600480360360208110156106d357600080fd5b50356001600160a01b0316610e9a565b6102a0600480360360408110156106f957600080fd5b506001600160a01b0381358116916020013516610f09565b61018f6004803603602081101561072757600080fd5b50356001600160a01b0316610f34565b3360009081526009602052604090205460ff16610789576040805162461bcd60e51b815260206004820152601560248201526000805160206119e4833981519152604482015290519081900360640190fd5b61079d6001600160a01b0384168383611082565b505050565b6000805460408051602060026001851615610100026000190190941693909304601f810184900484028201840190925281815292918301828280156108285780601f106107fd57610100808354040283529160200191610828565b820191906000526020600020905b81548152906001019060200180831161080b57829003601f168201915b505050505081565b600061083d3384846110d4565b50600192915050565b6004546001600160a01b031681565b6004546001600160a01b031633146108a2576040805162461bcd60e51b815260206004820152601560248201526000805160206119e4833981519152604482015290519081900360640190fd5b6001600160a01b03166000908152600960205260409020805460ff19169055565b60025481565b60005b60075481101561097c576000600782815481106108e557fe5b6000918252602080832090910154604080516310e059a160e11b81523360048201526001600160a01b038881166024830152915191909216945084936321c0b34293604480850194919392918390030190829087803b15801561094757600080fd5b505af115801561095b573d6000803e3d6000fd5b505050506040513d602081101561097157600080fd5b5050506001016108cc565b5050565b6000806109cb836040518060600160405280602d81526020016119b7602d91396001600160a01b038816600090815260066020908152604080832033845290915290205491906111c0565b90506109d88533836110d4565b6109e3858585611257565b60019150505b9392505050565b6004546001600160a01b03163314610a3d576040805162461bcd60e51b815260206004820152601560248201526000805160206119e4833981519152604482015290519081900360640190fd5b805161097c90600790602084019061178e565b60056020526000908152604090205481565b601281565b60096020526000908152604090205460ff1681565b60078181548110610a8957fe5b6000918252602090912001546001600160a01b0316905081565b600660209081526000928352604080842090915290825290205481565b6001600160a01b03811660009081526008602052604081205460ff1615610ae957506000610b04565b506001600160a01b0381166000908152600560205260409020545b919050565b3360009081526009602052604090205460ff16610b5b576040805162461bcd60e51b815260206004820152601560248201526000805160206119e4833981519152604482015290519081900360640190fd5b6001600160a01b03811660009081526008602052604090205460ff1615610bb35760405162461bcd60e51b81526004018080602001828103825260238152602001806118a26023913960400191505060405180910390fd5b6001600160a01b0381166000908152600860209081526040808320805460ff191660011790556005909152902054600354610bed9161102a565b60035550565b6004546001600160a01b03163314610c40576040805162461bcd60e51b815260206004820152601560248201526000805160206119e4833981519152604482015290519081900360640190fd5b6001600160a01b03166000908152600960205260409020805460ff19166001179055565b6001600160a01b031660009081526005602052604090205490565b6000610c9860035460025461142690919063ffffffff16565b905090565b60086020526000908152604090205460ff1681565b60018054604080516020600284861615610100026000190190941693909304601f810184900484028201840190925281815292918301828280156108285780601f106107fd57610100808354040283529160200191610828565b3360009081526009602052604090205460ff16610d5e576040805162461bcd60e51b815260206004820152601560248201526000805160206119e4833981519152604482015290519081900360640190fd5b60005b60075481101561079d57600060078281548110610d7a57fe5b6000918252602080832090910154604080516310e059a160e11b81526001600160a01b0389811660048301528881166024830152915191909216945084936321c0b34293604480850194919392918390030190829087803b158015610dde57600080fd5b505af1158015610df2573d6000803e3d6000fd5b505050506040513d6020811015610e0857600080fd5b505050600101610d61565b600061083d338484611257565b6004546001600160a01b03163314610e6d576040805162461bcd60e51b815260206004820152601560248201526000805160206119e4833981519152604482015290519081900360640190fd5b8151610e809060009060208501906117f3565b50805161079d9060019060208401906117f3565b60035481565b6004546001600160a01b03163314610ee7576040805162461bcd60e51b815260206004820152601560248201526000805160206119e4833981519152604482015290519081900360640190fd5b600480546001600160a01b0319166001600160a01b0392909216919091179055565b6001600160a01b03918216600090815260066020908152604080832093909416825291909152205490565b3360009081526009602052604090205460ff16610f86576040805162461bcd60e51b815260206004820152601560248201526000805160206119e4833981519152604482015290519081900360640190fd5b6001600160a01b03811660009081526008602052604090205460ff16610ff3576040805162461bcd60e51b815260206004820152601f60248201527f5969656c64546f6b656e3a205f6163636f756e74206e6f74206d61726b656400604482015290519081900360640190fd5b6001600160a01b0381166000908152600860209081526040808320805460ff191690556005909152902054600354610bed91611426565b6000828201838110156109e9576040805162461bcd60e51b815260206004820152601b60248201527a536166654d6174683a206164646974696f6e206f766572666c6f7760281b604482015290519081900360640190fd5b604080516001600160a01b038416602482015260448082018490528251808303909101815260649091019091526020810180516001600160e01b031663a9059cbb60e01b17905261079d908490611468565b6001600160a01b0383166111195760405162461bcd60e51b815260040180806020018281038252602981526020018061198e6029913960400191505060405180910390fd5b6001600160a01b03821661115e5760405162461bcd60e51b815260040180806020018281038252602781526020018061193d6027913960400191505060405180910390fd5b6001600160a01b03808416600081815260066020908152604080832094871680845294825291829020859055815185815291517f8c5be1e5ebec7d5bd14f71427d1e84f3dd0314c0f7b2291e5b200ac8c7c3b9259281900390910190a3505050565b6000818484111561124f5760405162461bcd60e51b81526004018080602001828103825283818151815260200191508051906020019080838360005b838110156112145781810151838201526020016111fc565b50505050905090810190601f1680156112415780820380516001836020036101000a031916815260200191505b509250505060405180910390fd5b505050900390565b6001600160a01b03831661129c5760405162461bcd60e51b815260040180806020018281038252602a8152602001806118ed602a913960400191505060405180910390fd5b6001600160a01b0382166112e15760405162461bcd60e51b81526004018080602001828103825260288152602001806118c56028913960400191505060405180910390fd5b6112ea83611519565b6112f382611519565b611330816040518060600160405280602b8152602001611a04602b91396001600160a01b03861660009081526005602052604090205491906111c0565b6001600160a01b03808516600090815260056020526040808220939093559084168152205461135f908261102a565b6001600160a01b0380841660009081526005602090815260408083209490945591861681526008909152205460ff16156113a4576003546113a09082611426565b6003555b6001600160a01b03821660009081526008602052604090205460ff16156113d6576003546113d2908261102a565b6003555b816001600160a01b0316836001600160a01b03167fddf252ad1be2c89b69c2b068fc378daa952ba7f163c4a11628f55a4df523b3ef836040518082815260200191505060405180910390a3505050565b60006109e983836040518060400160405280601e81526020017f536166654d6174683a207375627472616374696f6e206f766572666c6f7700008152506111c0565b60606114bd826040518060400160405280602081526020017f5361666545524332303a206c6f772d6c6576656c2063616c6c206661696c6564815250856001600160a01b03166115af9092919063ffffffff16565b80519091501561079d578080602001905160208110156114dc57600080fd5b505161079d5760405162461bcd60e51b815260040180806020018281038252602a815260200180611964602a913960400191505060405180910390fd5b60005b60075481101561097c5760006007828154811061153557fe5b600091825260208220015460408051635fd6196560e01b81526001600160a01b03878116600483015291519190921693508392635fd61965926024808201939182900301818387803b15801561158a57600080fd5b505af115801561159e573d6000803e3d6000fd5b50506001909301925061151c915050565b60606115be84846000856115c6565b949350505050565b6060824710156116075760405162461bcd60e51b81526004018080602001828103825260268152602001806119176026913960400191505060405180910390fd5b61161085611722565b611661576040805162461bcd60e51b815260206004820152601d60248201527f416464726573733a2063616c6c20746f206e6f6e2d636f6e7472616374000000604482015290519081900360640190fd5b60006060866001600160a01b031685876040518082805190602001908083835b602083106116a05780518252601f199092019160209182019101611681565b6001836020036101000a03801982511681845116808217855250505050505090500191505060006040518083038185875af1925050503d8060008114611702576040519150601f19603f3d011682016040523d82523d6000602084013e611707565b606091505b5091509150611717828286611728565b979650505050505050565b3b151590565b606083156117375750816109e9565b8251156117475782518084602001fd5b60405162461bcd60e51b81526020600482018181528451602484015284518593919283926044019190850190808383600083156112145781810151838201526020016111fc565b8280548282559060005260206000209081019282156117e3579160200282015b828111156117e357825182546001600160a01b0319166001600160a01b039091161782556020909201916001909101906117ae565b506117ef92915061186d565b5090565b828054600181600116156101000203166002900490600052602060002090601f016020900481019282601f1061183457805160ff1916838001178555611861565b82800160010185558215611861579182015b82811115611861578251825591602001919060010190611846565b506117ef92915061188c565b5b808211156117ef5780546001600160a01b031916815560010161186e565b5b808211156117ef576000815560010161188d56fe5969656c64546f6b656e3a205f6163636f756e7420616c7265616479206d61726b65645969656c64546f6b656e3a207472616e7366657220746f20746865207a65726f20616464726573735969656c64546f6b656e3a207472616e736665722066726f6d20746865207a65726f2061646472657373416464726573733a20696e73756666696369656e742062616c616e636520666f722063616c6c5969656c64546f6b656e3a20617070726f766520746f20746865207a65726f20616464726573735361666545524332303a204552433230206f7065726174696f6e20646964206e6f7420737563636565645969656c64546f6b656e3a20617070726f76652066726f6d20746865207a65726f20616464726573735969656c64546f6b656e3a207472616e7366657220616d6f756e74206578636565647320616c6c6f77616e63655969656c64546f6b656e3a20666f7262696464656e00000000000000000000005969656c64546f6b656e3a207472616e7366657220616d6f756e7420657863656564732062616c616e6365a26469706673582212204bca8a7d14cf525fb2c056647e49bb959da7ede94cde2611c799b7e0f327711c64736f6c634300060c00335969656c64546f6b656e3a206d696e7420746f20746865207a65726f2061646472657373",
  "linkReferences": {},
  "deployedLinkReferences": {}
}